{
	"@chainlink/contracts/src/v0.8/vrf/dev/libraries/VRFV2PlusClient.sol": {
		"VRFV2PlusClient": {
			"abi": [
				{
					"inputs": [],
					"name": "EXTRA_ARGS_V1_TAG",
					"outputs": [
						{
							"internalType": "bytes4",
							"name": "",
							"type": "bytes4"
						}
					],
					"stateMutability": "view",
					"type": "function"
				}
			],
			"devdoc": {
				"kind": "dev",
				"methods": {},
				"version": 1
			},
			"evm": {
				"assembly": "    /* \"@chainlink/contracts/src/v0.8/vrf/dev/libraries/VRFV2PlusClient.sol\":82:640  library VRFV2PlusClient {... */\n  dataSize(sub_0)\n  dataOffset(sub_0)\n  0x0b\n  dup3\n  dup3\n  dup3\n  codecopy\n  dup1\n  mload\n  0x00\n  byte\n  0x73\n  eq\n  tag_1\n  jumpi\n  mstore(0x00, shl(0xe0, 0x4e487b71))\n  mstore(0x04, 0x00)\n  revert(0x00, 0x24)\ntag_1:\n  mstore(0x00, address)\n  0x73\n  dup2\n  mstore8\n  dup3\n  dup2\n  return\nstop\n\nsub_0: assembly {\n        /* \"@chainlink/contracts/src/v0.8/vrf/dev/libraries/VRFV2PlusClient.sol\":82:640  library VRFV2PlusClient {... */\n      eq(address, deployTimeAddress())\n      mstore(0x40, 0x80)\n      jumpi(tag_1, lt(calldatasize, 0x04))\n      shr(0xe0, calldataload(0x00))\n      dup1\n      0xf7514ab4\n      eq\n      tag_2\n      jumpi\n    tag_1:\n      revert(0x00, 0x00)\n        /* \"@chainlink/contracts/src/v0.8/vrf/dev/libraries/VRFV2PlusClient.sol\":161:240  bytes4 public constant EXTRA_ARGS_V1_TAG = bytes4(keccak256(\"VRF ExtraArgsV1\")) */\n    tag_2:\n      tag_3\n        /* \"@chainlink/contracts/src/v0.8/vrf/dev/libraries/VRFV2PlusClient.sol\":211:239  keccak256(\"VRF ExtraArgsV1\") */\n      0x92fd13387c7fe7befbc38d303d6468778fb9731bc4583f17d92989c6fcfdeaaa\n        /* \"@chainlink/contracts/src/v0.8/vrf/dev/libraries/VRFV2PlusClient.sol\":161:240  bytes4 public constant EXTRA_ARGS_V1_TAG = bytes4(keccak256(\"VRF ExtraArgsV1\")) */\n      dup2\n      jump\n    tag_3:\n      mload(0x40)\n      not(sub(shl(0xe0, 0x01), 0x01))\n        /* \"#utility.yul\":184:217   */\n      swap1\n      swap2\n      and\n        /* \"#utility.yul\":166:218   */\n      dup2\n      mstore\n        /* \"#utility.yul\":154:156   */\n      0x20\n        /* \"#utility.yul\":139:157   */\n      add\n        /* \"@chainlink/contracts/src/v0.8/vrf/dev/libraries/VRFV2PlusClient.sol\":161:240  bytes4 public constant EXTRA_ARGS_V1_TAG = bytes4(keccak256(\"VRF ExtraArgsV1\")) */\n      mload(0x40)\n      dup1\n      swap2\n      sub\n      swap1\n      return\n\n    auxdata: 0xa2646970667358221220bb9788b479366449fa691ed9053bb851ecb6b284d29c36570848787d9eb6c2fb64736f6c634300081e0033\n}\n",
				"bytecode": {
					"linkReferences": {},
					"object": "60af6032600b8282823980515f1a607314602657634e487b7160e01b5f525f60045260245ffd5b305f52607381538281f3fe73000000000000000000000000000000000000000030146080604052600436106032575f3560e01c8063f7514ab4146036575b5f5ffd5b605c7f92fd13387c7fe7befbc38d303d6468778fb9731bc4583f17d92989c6fcfdeaaa81565b6040516001600160e01b0319909116815260200160405180910390f3fea2646970667358221220bb9788b479366449fa691ed9053bb851ecb6b284d29c36570848787d9eb6c2fb64736f6c634300081e0033",
					"opcodes": "PUSH1 0xAF PUSH1 0x32 PUSH1 0xB DUP3 DUP3 DUP3 CODECOPY DUP1 MLOAD PUSH0 BYTE PUSH1 0x73 EQ PUSH1 0x26 JUMPI PUSH4 0x4E487B71 PUSH1 0xE0 SHL PUSH0 MSTORE PUSH0 PUSH1 0x4 MSTORE PUSH1 0x24 PUSH0 REVERT JUMPDEST ADDRESS PUSH0 MSTORE PUSH1 0x73 DUP2 MSTORE8 DUP3 DUP2 RETURN INVALID PUSH20 0x0 ADDRESS EQ PUSH1 0x80 PUSH1 0x40 MSTORE PUSH1 0x4 CALLDATASIZE LT PUSH1 0x32 JUMPI PUSH0 CALLDATALOAD PUSH1 0xE0 SHR DUP1 PUSH4 0xF7514AB4 EQ PUSH1 0x36 JUMPI JUMPDEST PUSH0 PUSH0 REVERT JUMPDEST PUSH1 0x5C PUSH32 0x92FD13387C7FE7BEFBC38D303D6468778FB9731BC4583F17D92989C6FCFDEAAA DUP2 JUMP JUMPDEST PUSH1 0x40 MLOAD PUSH1 0x1 PUSH1 0x1 PUSH1 0xE0 SHL SUB NOT SWAP1 SWAP2 AND DUP2 MSTORE PUSH1 0x20 ADD PUSH1 0x40 MLOAD DUP1 SWAP2 SUB SWAP1 RETURN INVALID LOG2 PUSH5 0x6970667358 0x22 SLT KECCAK256 0xBB SWAP8 DUP9 0xB4 PUSH26 0x366449FA691ED9053BB851ECB6B284D29C36570848787D9EB6C2 EXTSTATICCALL PUSH5 0x736F6C6343 STOP ADDMOD 0x1E STOP CALLER "
				},
				"gasEstimates": {
					"creation": {
						"codeDepositCost": "35000",
						"executionCost": "114",
						"totalCost": "35114"
					},
					"external": {
						"EXTRA_ARGS_V1_TAG()": "168"
					},
					"internal": {
						"_argsToBytes(struct VRFV2PlusClient.ExtraArgsV1 memory)": "infinite"
					}
				},
				"methodIdentifiers": {
					"EXTRA_ARGS_V1_TAG()": "f7514ab4"
				}
			},
			"storageLayout": {
				"storage": [],
				"types": null
			},
			"userdoc": {
				"kind": "user",
				"methods": {},
				"version": 1
			}
		}
	}
}