{
	"contracts/StemPayLotteryManager.sol": {
		"StemPayLotteryManager": {
			"abi": [
				{
					"inputs": [
						{
							"internalType": "address",
							"name": "target",
							"type": "address"
						}
					],
					"name": "AddressEmptyCode",
					"type": "error"
				},
				{
					"inputs": [
						{
							"internalType": "address",
							"name": "implementation",
							"type": "address"
						}
					],
					"name": "ERC1967InvalidImplementation",
					"type": "error"
				},
				{
					"inputs": [],
					"name": "ERC1967NonPayable",
					"type": "error"
				},
				{
					"inputs": [],
					"name": "FailedCall",
					"type": "error"
				},
				{
					"inputs": [],
					"name": "InvalidInitialization",
					"type": "error"
				},
				{
					"inputs": [],
					"name": "NotInitializing",
					"type": "error"
				},
				{
					"inputs": [
						{
							"internalType": "address",
							"name": "have",
							"type": "address"
						},
						{
							"internalType": "address",
							"name": "want",
							"type": "address"
						}
					],
					"name": "OnlyCoordinatorCanFulfill",
					"type": "error"
				},
				{
					"inputs": [
						{
							"internalType": "address",
							"name": "owner",
							"type": "address"
						}
					],
					"name": "OwnableInvalidOwner",
					"type": "error"
				},
				{
					"inputs": [
						{
							"internalType": "address",
							"name": "account",
							"type": "address"
						}
					],
					"name": "OwnableUnauthorizedAccount",
					"type": "error"
				},
				{
					"inputs": [],
					"name": "UUPSUnauthorizedCallContext",
					"type": "error"
				},
				{
					"inputs": [
						{
							"internalType": "bytes32",
							"name": "slot",
							"type": "bytes32"
						}
					],
					"name": "UUPSUnsupportedProxiableUUID",
					"type": "error"
				},
				{
					"anonymous": false,
					"inputs": [
						{
							"indexed": false,
							"internalType": "uint256",
							"name": "lotteryId",
							"type": "uint256"
						},
						{
							"indexed": false,
							"internalType": "address",
							"name": "user",
							"type": "address"
						}
					],
					"name": "EnteredLottery",
					"type": "event"
				},
				{
					"anonymous": false,
					"inputs": [
						{
							"indexed": false,
							"internalType": "uint64",
							"name": "version",
							"type": "uint64"
						}
					],
					"name": "Initialized",
					"type": "event"
				},
				{
					"anonymous": false,
					"inputs": [
						{
							"indexed": false,
							"internalType": "uint256",
							"name": "lotteryId",
							"type": "uint256"
						}
					],
					"name": "LotteryCancelled",
					"type": "event"
				},
				{
					"anonymous": false,
					"inputs": [
						{
							"indexed": false,
							"internalType": "uint256",
							"name": "lotteryId",
							"type": "uint256"
						}
					],
					"name": "LotteryCreated",
					"type": "event"
				},
				{
					"anonymous": false,
					"inputs": [
						{
							"indexed": false,
							"internalType": "uint256",
							"name": "lotteryId",
							"type": "uint256"
						},
						{
							"indexed": false,
							"internalType": "uint256",
							"name": "requestId",
							"type": "uint256"
						}
					],
					"name": "LotteryDrawRequested",
					"type": "event"
				},
				{
					"anonymous": false,
					"inputs": [
						{
							"indexed": true,
							"internalType": "address",
							"name": "previousOwner",
							"type": "address"
						},
						{
							"indexed": true,
							"internalType": "address",
							"name": "newOwner",
							"type": "address"
						}
					],
					"name": "OwnershipTransferred",
					"type": "event"
				},
				{
					"anonymous": false,
					"inputs": [
						{
							"indexed": true,
							"internalType": "address",
							"name": "implementation",
							"type": "address"
						}
					],
					"name": "Upgraded",
					"type": "event"
				},
				{
					"anonymous": false,
					"inputs": [
						{
							"indexed": false,
							"internalType": "uint256",
							"name": "lotteryId",
							"type": "uint256"
						},
						{
							"indexed": false,
							"internalType": "address",
							"name": "winner",
							"type": "address"
						}
					],
					"name": "WinnerSelected",
					"type": "event"
				},
				{
					"inputs": [],
					"name": "UPGRADE_INTERFACE_VERSION",
					"outputs": [
						{
							"internalType": "string",
							"name": "",
							"type": "string"
						}
					],
					"stateMutability": "view",
					"type": "function"
				},
				{
					"inputs": [],
					"name": "callbackGasLimit",
					"outputs": [
						{
							"internalType": "uint32",
							"name": "",
							"type": "uint32"
						}
					],
					"stateMutability": "view",
					"type": "function"
				},
				{
					"inputs": [
						{
							"internalType": "uint256",
							"name": "_lotteryId",
							"type": "uint256"
						}
					],
					"name": "cancelLottery",
					"outputs": [],
					"stateMutability": "nonpayable",
					"type": "function"
				},
				{
					"inputs": [
						{
							"internalType": "uint256",
							"name": "_lotteryId",
							"type": "uint256"
						}
					],
					"name": "claimPrize",
					"outputs": [],
					"stateMutability": "nonpayable",
					"type": "function"
				},
				{
					"inputs": [
						{
							"internalType": "uint256",
							"name": "_lotteryId",
							"type": "uint256"
						}
					],
					"name": "claimRefund",
					"outputs": [],
					"stateMutability": "nonpayable",
					"type": "function"
				},
				{
					"inputs": [
						{
							"internalType": "uint256",
							"name": "_lotteryId",
							"type": "uint256"
						}
					],
					"name": "clearLotteryData",
					"outputs": [],
					"stateMutability": "nonpayable",
					"type": "function"
				},
				{
					"inputs": [
						{
							"internalType": "address",
							"name": "_tokenAddress",
							"type": "address"
						},
						{
							"internalType": "uint256",
							"name": "_participationFee",
							"type": "uint256"
						},
						{
							"internalType": "uint256",
							"name": "_refundableAmount",
							"type": "uint256"
						},
						{
							"internalType": "uint256",
							"name": "_maxParticipants",
							"type": "uint256"
						},
						{
							"internalType": "uint256",
							"name": "_drawTime",
							"type": "uint256"
						},
						{
							"internalType": "uint256",
							"name": "_prizeAmount",
							"type": "uint256"
						},
						{
							"internalType": "uint256",
							"name": "_feeToInvestment",
							"type": "uint256"
						},
						{
							"internalType": "uint256",
							"name": "_feeToProfit",
							"type": "uint256"
						}
					],
					"name": "createLottery",
					"outputs": [],
					"stateMutability": "nonpayable",
					"type": "function"
				},
				{
					"inputs": [
						{
							"internalType": "uint256",
							"name": "_lotteryId",
							"type": "uint256"
						}
					],
					"name": "drawWinner",
					"outputs": [],
					"stateMutability": "nonpayable",
					"type": "function"
				},
				{
					"inputs": [
						{
							"internalType": "uint256",
							"name": "_lotteryId",
							"type": "uint256"
						}
					],
					"name": "enterLottery",
					"outputs": [],
					"stateMutability": "nonpayable",
					"type": "function"
				},
				{
					"inputs": [
						{
							"internalType": "uint256",
							"name": "_lotteryId",
							"type": "uint256"
						}
					],
					"name": "getParticipants",
					"outputs": [
						{
							"internalType": "address[]",
							"name": "",
							"type": "address[]"
						}
					],
					"stateMutability": "view",
					"type": "function"
				},
				{
					"inputs": [
						{
							"internalType": "address",
							"name": "_vrfCoordinator",
							"type": "address"
						},
						{
							"internalType": "bytes32",
							"name": "_keyHash",
							"type": "bytes32"
						},
						{
							"internalType": "uint64",
							"name": "_subId",
							"type": "uint64"
						},
						{
							"internalType": "address",
							"name": "_investmentWallet",
							"type": "address"
						},
						{
							"internalType": "address",
							"name": "_profitWallet",
							"type": "address"
						}
					],
					"name": "initialize",
					"outputs": [],
					"stateMutability": "nonpayable",
					"type": "function"
				},
				{
					"inputs": [],
					"name": "investmentWallet",
					"outputs": [
						{
							"internalType": "address",
							"name": "",
							"type": "address"
						}
					],
					"stateMutability": "view",
					"type": "function"
				},
				{
					"inputs": [],
					"name": "keyHash",
					"outputs": [
						{
							"internalType": "bytes32",
							"name": "",
							"type": "bytes32"
						}
					],
					"stateMutability": "view",
					"type": "function"
				},
				{
					"inputs": [
						{
							"internalType": "uint256",
							"name": "",
							"type": "uint256"
						}
					],
					"name": "lotteries",
					"outputs": [
						{
							"internalType": "address",
							"name": "tokenAddress",
							"type": "address"
						},
						{
							"internalType": "uint256",
							"name": "participationFee",
							"type": "uint256"
						},
						{
							"internalType": "uint256",
							"name": "refundableAmount",
							"type": "uint256"
						},
						{
							"internalType": "uint256",
							"name": "maxParticipants",
							"type": "uint256"
						},
						{
							"internalType": "uint256",
							"name": "drawTime",
							"type": "uint256"
						},
						{
							"internalType": "uint256",
							"name": "prizeAmount",
							"type": "uint256"
						},
						{
							"internalType": "uint256",
							"name": "feeToInvestment",
							"type": "uint256"
						},
						{
							"internalType": "uint256",
							"name": "feeToProfit",
							"type": "uint256"
						},
						{
							"internalType": "bool",
							"name": "isActive",
							"type": "bool"
						},
						{
							"internalType": "bool",
							"name": "isDrawn",
							"type": "bool"
						},
						{
							"internalType": "bool",
							"name": "isCancelled",
							"type": "bool"
						},
						{
							"internalType": "address",
							"name": "winner",
							"type": "address"
						},
						{
							"internalType": "uint256",
							"name": "voteCount",
							"type": "uint256"
						}
					],
					"stateMutability": "view",
					"type": "function"
				},
				{
					"inputs": [],
					"name": "lotteryCounter",
					"outputs": [
						{
							"internalType": "uint256",
							"name": "",
							"type": "uint256"
						}
					],
					"stateMutability": "view",
					"type": "function"
				},
				{
					"inputs": [
						{
							"internalType": "uint256",
							"name": "fromId",
							"type": "uint256"
						},
						{
							"internalType": "uint256",
							"name": "toId",
							"type": "uint256"
						}
					],
					"name": "migrateToLottery",
					"outputs": [],
					"stateMutability": "nonpayable",
					"type": "function"
				},
				{
					"inputs": [],
					"name": "numWords",
					"outputs": [
						{
							"internalType": "uint32",
							"name": "",
							"type": "uint32"
						}
					],
					"stateMutability": "view",
					"type": "function"
				},
				{
					"inputs": [],
					"name": "owner",
					"outputs": [
						{
							"internalType": "address",
							"name": "",
							"type": "address"
						}
					],
					"stateMutability": "view",
					"type": "function"
				},
				{
					"inputs": [],
					"name": "profitWallet",
					"outputs": [
						{
							"internalType": "address",
							"name": "",
							"type": "address"
						}
					],
					"stateMutability": "view",
					"type": "function"
				},
				{
					"inputs": [],
					"name": "proxiableUUID",
					"outputs": [
						{
							"internalType": "bytes32",
							"name": "",
							"type": "bytes32"
						}
					],
					"stateMutability": "view",
					"type": "function"
				},
				{
					"inputs": [
						{
							"internalType": "uint256",
							"name": "requestId",
							"type": "uint256"
						},
						{
							"internalType": "uint256[]",
							"name": "randomWords",
							"type": "uint256[]"
						}
					],
					"name": "rawFulfillRandomWords",
					"outputs": [],
					"stateMutability": "nonpayable",
					"type": "function"
				},
				{
					"inputs": [],
					"name": "renounceOwnership",
					"outputs": [],
					"stateMutability": "nonpayable",
					"type": "function"
				},
				{
					"inputs": [],
					"name": "requestConfirmations",
					"outputs": [
						{
							"internalType": "uint16",
							"name": "",
							"type": "uint16"
						}
					],
					"stateMutability": "view",
					"type": "function"
				},
				{
					"inputs": [
						{
							"internalType": "uint256",
							"name": "",
							"type": "uint256"
						}
					],
					"name": "requestToLottery",
					"outputs": [
						{
							"internalType": "uint256",
							"name": "",
							"type": "uint256"
						}
					],
					"stateMutability": "view",
					"type": "function"
				},
				{
					"inputs": [],
					"name": "subscriptionId",
					"outputs": [
						{
							"internalType": "uint256",
							"name": "",
							"type": "uint256"
						}
					],
					"stateMutability": "view",
					"type": "function"
				},
				{
					"inputs": [
						{
							"internalType": "address",
							"name": "newOwner",
							"type": "address"
						}
					],
					"name": "transferOwnership",
					"outputs": [],
					"stateMutability": "nonpayable",
					"type": "function"
				},
				{
					"inputs": [
						{
							"internalType": "address",
							"name": "newImplementation",
							"type": "address"
						},
						{
							"internalType": "bytes",
							"name": "data",
							"type": "bytes"
						}
					],
					"name": "upgradeToAndCall",
					"outputs": [],
					"stateMutability": "payable",
					"type": "function"
				},
				{
					"inputs": [
						{
							"internalType": "uint256",
							"name": "_lotteryId",
							"type": "uint256"
						}
					],
					"name": "voteCancel",
					"outputs": [],
					"stateMutability": "nonpayable",
					"type": "function"
				},
				{
					"inputs": [],
					"name": "vrfCoordinator",
					"outputs": [
						{
							"internalType": "address",
							"name": "",
							"type": "address"
						}
					],
					"stateMutability": "view",
					"type": "function"
				}
			],
			"devdoc": {
				"errors": {
					"AddressEmptyCode(address)": [
						{
							"details": "There's no code at `target` (it is not a contract)."
						}
					],
					"ERC1967InvalidImplementation(address)": [
						{
							"details": "The `implementation` of the proxy is invalid."
						}
					],
					"ERC1967NonPayable()": [
						{
							"details": "An upgrade function sees `msg.value > 0` that may be lost."
						}
					],
					"FailedCall()": [
						{
							"details": "A call to an address target failed. The target may have reverted."
						}
					],
					"InvalidInitialization()": [
						{
							"details": "The contract is already initialized."
						}
					],
					"NotInitializing()": [
						{
							"details": "The contract is not initializing."
						}
					],
					"OwnableInvalidOwner(address)": [
						{
							"details": "The owner is not a valid owner account. (eg. `address(0)`)"
						}
					],
					"OwnableUnauthorizedAccount(address)": [
						{
							"details": "The caller account is not authorized to perform an operation."
						}
					],
					"UUPSUnauthorizedCallContext()": [
						{
							"details": "The call is from an unauthorized context."
						}
					],
					"UUPSUnsupportedProxiableUUID(bytes32)": [
						{
							"details": "The storage `slot` is unsupported as a UUID."
						}
					]
				},
				"events": {
					"Initialized(uint64)": {
						"details": "Triggered when the contract has been initialized or reinitialized."
					},
					"Upgraded(address)": {
						"details": "Emitted when the implementation is upgraded."
					}
				},
				"kind": "dev",
				"methods": {
					"owner()": {
						"details": "Returns the address of the current owner."
					},
					"proxiableUUID()": {
						"details": "Implementation of the ERC-1822 {proxiableUUID} function. This returns the storage slot used by the implementation. It is used to validate the implementation's compatibility when performing an upgrade. IMPORTANT: A proxy pointing at a proxiable contract should not be considered proxiable itself, because this risks bricking a proxy that upgrades to it, by delegating to itself until out of gas. Thus it is critical that this function revert if invoked through a proxy. This is guaranteed by the `notDelegated` modifier."
					},
					"renounceOwnership()": {
						"details": "Leaves the contract without owner. It will not be possible to call `onlyOwner` functions. Can only be called by the current owner. NOTE: Renouncing ownership will leave the contract without an owner, thereby disabling any functionality that is only available to the owner."
					},
					"transferOwnership(address)": {
						"details": "Transfers ownership of the contract to a new account (`newOwner`). Can only be called by the current owner."
					},
					"upgradeToAndCall(address,bytes)": {
						"custom:oz-upgrades-unsafe-allow-reachable": "delegatecall",
						"details": "Upgrade the implementation of the proxy to `newImplementation`, and subsequently execute the function call encoded in `data`. Calls {_authorizeUpgrade}. Emits an {Upgraded} event."
					}
				},
				"version": 1
			},
			"evm": {
				"assembly": "    /* \"contracts/StemPayLotteryManager.sol\":1202:9268  contract StemPayLotteryManager is... */\n  mstore(0x40, 0xa0)\n    /* \"@openzeppelin/contracts-upgradeable/proxy/utils/UUPSUpgradeable.sol\":1171:1175  this */\n  address\n    /* \"@openzeppelin/contracts-upgradeable/proxy/utils/UUPSUpgradeable.sol\":1128:1176  address private immutable __self = address(this) */\n  0x80\n  mstore\n    /* \"contracts/StemPayLotteryManager.sol\":1202:9268  contract StemPayLotteryManager is... */\n  callvalue\n  dup1\n  iszero\n  tag_1\n  jumpi\n  revert(0x00, 0x00)\ntag_1:\n  pop\n    /* \"@openzeppelin/contracts/security/ReentrancyGuard.sol\":1716:1717  1 */\n  0x01\n    /* \"@openzeppelin/contracts/security/ReentrancyGuard.sol\":1821:1828  _status */\n  0x00\n    /* \"@openzeppelin/contracts/security/ReentrancyGuard.sol\":1821:1843  _status = _NOT_ENTERED */\n  sstore\n    /* \"contracts/StemPayLotteryManager.sol\":1202:9268  contract StemPayLotteryManager is... */\n  mload(0x80)\n  codecopy(0x00, dataOffset(sub_0), dataSize(sub_0))\n  0x00\n  assignImmutable(\"0x7e11962f85eb7ceb5b38e296d507e5039b360e5ad6815220a68768366dc10fdd\")\n  return(0x00, dataSize(sub_0))\nstop\n\nsub_0: assembly {\n        /* \"contracts/StemPayLotteryManager.sol\":1202:9268  contract StemPayLotteryManager is... */\n      mstore(0x40, 0x80)\n      jumpi(tag_1, lt(calldatasize, 0x04))\n      shr(0xe0, calldataload(0x00))\n      dup1\n      0x5b7baf64\n      gt\n      tag_31\n      jumpi\n      dup1\n      0x8da5cb5b\n      gt\n      tag_32\n      jumpi\n      dup1\n      0xb6fa37bc\n      gt\n      tag_33\n      jumpi\n      dup1\n      0xb6fa37bc\n      eq\n      tag_27\n      jumpi\n      dup1\n      0xc1e3bd3e\n      eq\n      tag_28\n      jumpi\n      dup1\n      0xd7098154\n      eq\n      tag_29\n      jumpi\n      dup1\n      0xf2fde38b\n      eq\n      tag_30\n      jumpi\n      revert(0x00, 0x00)\n    tag_33:\n      dup1\n      0x8da5cb5b\n      eq\n      tag_23\n      jumpi\n      dup1\n      0xa3e56fa8\n      eq\n      tag_24\n      jumpi\n      dup1\n      0xad3cb1cc\n      eq\n      tag_25\n      jumpi\n      dup1\n      0xb0fb162f\n      eq\n      tag_26\n      jumpi\n      revert(0x00, 0x00)\n    tag_32:\n      dup1\n      0x715018a6\n      gt\n      tag_34\n      jumpi\n      dup1\n      0x715018a6\n      eq\n      tag_19\n      jumpi\n      dup1\n      0x7ccfd7fc\n      eq\n      tag_20\n      jumpi\n      dup1\n      0x826d9873\n      eq\n      tag_21\n      jumpi\n      dup1\n      0x82f9d0fb\n      eq\n      tag_22\n      jumpi\n      revert(0x00, 0x00)\n    tag_34:\n      dup1\n      0x5b7baf64\n      eq\n      tag_16\n      jumpi\n      dup1\n      0x60b2a56a\n      eq\n      tag_17\n      jumpi\n      dup1\n      0x61728f39\n      eq\n      tag_18\n      jumpi\n      revert(0x00, 0x00)\n    tag_31:\n      dup1\n      0x3893f9d5\n      gt\n      tag_35\n      jumpi\n      dup1\n      0x4538f297\n      gt\n      tag_36\n      jumpi\n      dup1\n      0x4538f297\n      eq\n      tag_12\n      jumpi\n      dup1\n      0x4a4a6b4f\n      eq\n      tag_13\n      jumpi\n      dup1\n      0x4f1ef286\n      eq\n      tag_14\n      jumpi\n      dup1\n      0x52d1902d\n      eq\n      tag_15\n      jumpi\n      revert(0x00, 0x00)\n    tag_36:\n      dup1\n      0x3893f9d5\n      eq\n      tag_9\n      jumpi\n      dup1\n      0x3fd43098\n      eq\n      tag_10\n      jumpi\n      dup1\n      0x4311da37\n      eq\n      tag_11\n      jumpi\n      revert(0x00, 0x00)\n    tag_35:\n      dup1\n      0x1fe543e3\n      gt\n      tag_37\n      jumpi\n      dup1\n      0x1fe543e3\n      eq\n      tag_5\n      jumpi\n      dup1\n      0x2301d775\n      eq\n      tag_6\n      jumpi\n      dup1\n      0x24f74697\n      eq\n      tag_7\n      jumpi\n      dup1\n      0x379c52a6\n      eq\n      tag_8\n      jumpi\n      revert(0x00, 0x00)\n    tag_37:\n      dup1\n      0x09c1ba2e\n      eq\n      tag_2\n      jumpi\n      dup1\n      0x1398e076\n      eq\n      tag_3\n      jumpi\n      dup1\n      0x15c6e123\n      eq\n      tag_4\n      jumpi\n    tag_1:\n      revert(0x00, 0x00)\n        /* \"contracts/StemPayLotteryManager.sol\":2269:2298  uint256 public subscriptionId */\n    tag_2:\n      callvalue\n      dup1\n      iszero\n      tag_38\n      jumpi\n      revert(0x00, 0x00)\n    tag_38:\n      pop\n      tag_39\n      sload(0x08)\n      dup2\n      jump\n    tag_39:\n      mload(0x40)\n        /* \"#utility.yul\":160:185   */\n      swap1\n      dup2\n      mstore\n        /* \"#utility.yul\":148:150   */\n      0x20\n        /* \"#utility.yul\":133:151   */\n      add\n        /* \"contracts/StemPayLotteryManager.sol\":2269:2298  uint256 public subscriptionId */\n    tag_41:\n      mload(0x40)\n      dup1\n      swap2\n      sub\n      swap1\n      return\n        /* \"contracts/StemPayLotteryManager.sol\":1980:2024  mapping(uint256 => Lottery) public lotteries */\n    tag_3:\n      callvalue\n      dup1\n      iszero\n      tag_43\n      jumpi\n      revert(0x00, 0x00)\n    tag_43:\n      pop\n      tag_44\n      tag_45\n      calldatasize\n      0x04\n      tag_46\n      jump\t// in\n    tag_45:\n      0x02\n      0x20\n      dup2\n      swap1\n      mstore\n      0x00\n      swap2\n      dup3\n      mstore\n      0x40\n      swap1\n      swap2\n      keccak256\n      dup1\n      sload\n      0x01\n      dup3\n      add\n      sload\n      swap3\n      dup3\n      add\n      sload\n      0x03\n      dup4\n      add\n      sload\n      0x04\n      dup5\n      add\n      sload\n      0x05\n      dup6\n      add\n      sload\n      0x06\n      dup7\n      add\n      sload\n      0x07\n      dup8\n      add\n      sload\n      0x08\n      dup9\n      add\n      sload\n      0x0a\n      dup10\n      add\n      sload\n      0x0b\n      swap1\n      swap10\n      add\n      sload\n      sub(shl(0xa0, 0x01), 0x01)\n      swap9\n      dup10\n      and\n      swap11\n      swap10\n      swap8\n      swap9\n      swap7\n      swap8\n      swap6\n      swap7\n      swap5\n      swap6\n      swap4\n      swap5\n      swap3\n      swap4\n      0xff\n      dup1\n      dup5\n      and\n      swap5\n      0x0100\n      dup6\n      div\n      dup3\n      and\n      swap5\n      0x010000\n      swap1\n      div\n      swap1\n      swap2\n      and\n      swap3\n      swap2\n      and\n      swap1\n      dup14\n      jump\n    tag_44:\n      0x40\n      dup1\n      mload\n      sub(shl(0xa0, 0x01), 0x01)\n        /* \"#utility.yul\":1022:1054   */\n      swap15\n      dup16\n      and\n        /* \"#utility.yul\":1004:1055   */\n      dup2\n      mstore\n        /* \"#utility.yul\":1086:1088   */\n      0x20\n        /* \"#utility.yul\":1071:1089   */\n      dup2\n      add\n        /* \"#utility.yul\":1064:1098   */\n      swap14\n      swap1\n      swap14\n      mstore\n        /* \"#utility.yul\":1114:1132   */\n      dup13\n      add\n        /* \"#utility.yul\":1107:1141   */\n      swap11\n      swap1\n      swap11\n      mstore\n        /* \"#utility.yul\":1172:1174   */\n      0x60\n        /* \"#utility.yul\":1157:1175   */\n      dup12\n      add\n        /* \"#utility.yul\":1150:1184   */\n      swap9\n      swap1\n      swap9\n      mstore\n        /* \"#utility.yul\":1215:1218   */\n      0x80\n        /* \"#utility.yul\":1200:1219   */\n      dup11\n      add\n        /* \"#utility.yul\":1193:1228   */\n      swap7\n      swap1\n      swap7\n      mstore\n        /* \"#utility.yul\":1042:1045   */\n      0xa0\n        /* \"#utility.yul\":1244:1263   */\n      dup10\n      add\n        /* \"#utility.yul\":1237:1272   */\n      swap5\n      swap1\n      swap5\n      mstore\n        /* \"#utility.yul\":1303:1306   */\n      0xc0\n        /* \"#utility.yul\":1288:1307   */\n      dup9\n      add\n        /* \"#utility.yul\":1281:1316   */\n      swap3\n      swap1\n      swap3\n      mstore\n        /* \"#utility.yul\":1347:1350   */\n      0xe0\n        /* \"#utility.yul\":1332:1351   */\n      dup8\n      add\n        /* \"#utility.yul\":1325:1360   */\n      mstore\n        /* \"#utility.yul\":1404:1418   */\n      iszero\n        /* \"#utility.yul\":1397:1419   */\n      iszero\n        /* \"#utility.yul\":1391:1394   */\n      0x0100\n        /* \"#utility.yul\":1376:1395   */\n      dup7\n      add\n        /* \"#utility.yul\":1369:1420   */\n      mstore\n        /* \"#utility.yul\":1464:1478   */\n      iszero\n        /* \"#utility.yul\":1457:1479   */\n      iszero\n        /* \"#utility.yul\":1451:1454   */\n      0x0120\n        /* \"#utility.yul\":1436:1455   */\n      dup6\n      add\n        /* \"#utility.yul\":1429:1480   */\n      mstore\n        /* \"#utility.yul\":1524:1539   */\n      iszero\n        /* \"#utility.yul\":1517:1540   */\n      iszero\n        /* \"#utility.yul\":1511:1514   */\n      0x0140\n        /* \"#utility.yul\":1496:1515   */\n      dup5\n      add\n        /* \"#utility.yul\":1489:1541   */\n      mstore\n        /* \"#utility.yul\":493:524   */\n      swap1\n      swap3\n      and\n        /* \"#utility.yul\":1593:1596   */\n      0x0160\n        /* \"#utility.yul\":1578:1597   */\n      dup3\n      add\n        /* \"#utility.yul\":481:525   */\n      mstore\n        /* \"#utility.yul\":1629:1632   */\n      0x0180\n        /* \"#utility.yul\":1614:1633   */\n      dup2\n      add\n        /* \"#utility.yul\":1607:1643   */\n      swap2\n      swap1\n      swap2\n      mstore\n        /* \"#utility.yul\":991:994   */\n      0x01a0\n        /* \"#utility.yul\":976:995   */\n      add\n        /* \"contracts/StemPayLotteryManager.sol\":1980:2024  mapping(uint256 => Lottery) public lotteries */\n      tag_41\n        /* \"#utility.yul\":536:1649   */\n      jump\n        /* \"contracts/StemPayLotteryManager.sol\":2340:2391  mapping(uint256 => uint256) public requestToLottery */\n    tag_4:\n      callvalue\n      dup1\n      iszero\n      tag_50\n      jumpi\n      revert(0x00, 0x00)\n    tag_50:\n      pop\n      tag_39\n      tag_52\n      calldatasize\n      0x04\n      tag_46\n      jump\t// in\n    tag_52:\n      mstore(0x20, 0x0a)\n      0x00\n      swap1\n      dup2\n      mstore\n      0x40\n      swap1\n      keccak256\n      sload\n      dup2\n      jump\n        /* \"contracts/StemPayLotteryManager.sol\":922:1198  function rawFulfillRandomWords(uint256 requestId, uint256[] memory randomWords) external {... */\n    tag_5:\n      callvalue\n      dup1\n      iszero\n      tag_55\n      jumpi\n      revert(0x00, 0x00)\n    tag_55:\n      pop\n      tag_56\n      tag_57\n      calldatasize\n      0x04\n      tag_58\n      jump\t// in\n    tag_57:\n      tag_59\n      jump\t// in\n    tag_56:\n      stop\n        /* \"contracts/StemPayLotteryManager.sol\":2103:2130  address public profitWallet */\n    tag_6:\n      callvalue\n      dup1\n      iszero\n      tag_60\n      jumpi\n      revert(0x00, 0x00)\n    tag_60:\n      pop\n      sload(0x05)\n      tag_61\n      swap1\n      sub(shl(0xa0, 0x01), 0x01)\n      and\n      dup2\n      jump\n    tag_61:\n      mload(0x40)\n      sub(shl(0xa0, 0x01), 0x01)\n        /* \"#utility.yul\":3345:3377   */\n      swap1\n      swap2\n      and\n        /* \"#utility.yul\":3327:3378   */\n      dup2\n      mstore\n        /* \"#utility.yul\":3315:3317   */\n      0x20\n        /* \"#utility.yul\":3300:3318   */\n      add\n        /* \"contracts/StemPayLotteryManager.sol\":2103:2130  address public profitWallet */\n      tag_41\n        /* \"#utility.yul\":3181:3384   */\n      jump\n        /* \"contracts/StemPayLotteryManager.sol\":2165:2195  uint32 public callbackGasLimit */\n    tag_7:\n      callvalue\n      dup1\n      iszero\n      tag_65\n      jumpi\n      revert(0x00, 0x00)\n    tag_65:\n      pop\n      sload(0x07)\n      tag_66\n      swap1\n      0xffffffff\n      and\n      dup2\n      jump\n    tag_66:\n      mload(0x40)\n        /* \"#utility.yul\":3563:3573   */\n      0xffffffff\n        /* \"#utility.yul\":3551:3574   */\n      swap1\n      swap2\n      and\n        /* \"#utility.yul\":3533:3575   */\n      dup2\n      mstore\n        /* \"#utility.yul\":3521:3523   */\n      0x20\n        /* \"#utility.yul\":3506:3524   */\n      add\n        /* \"contracts/StemPayLotteryManager.sol\":2165:2195  uint32 public callbackGasLimit */\n      tag_41\n        /* \"#utility.yul\":3389:3581   */\n      jump\n        /* \"contracts/StemPayLotteryManager.sol\":2681:3298  function initialize(... */\n    tag_8:\n      callvalue\n      dup1\n      iszero\n      tag_70\n      jumpi\n      revert(0x00, 0x00)\n    tag_70:\n      pop\n      tag_56\n      tag_72\n      calldatasize\n      0x04\n      tag_73\n      jump\t// in\n    tag_72:\n      tag_74\n      jump\t// in\n        /* \"contracts/StemPayLotteryManager.sol\":8370:9266  function migrateToLottery(uint256 fromId, uint256 toId) external nonReentrant {... */\n    tag_9:\n      callvalue\n      dup1\n      iszero\n      tag_75\n      jumpi\n      revert(0x00, 0x00)\n    tag_75:\n      pop\n      tag_56\n      tag_77\n      calldatasize\n      0x04\n      tag_78\n      jump\t// in\n    tag_77:\n      tag_79\n      jump\t// in\n        /* \"contracts/StemPayLotteryManager.sol\":4301:4859  function enterLottery(uint256 _lotteryId) external nonReentrant {... */\n    tag_10:\n      callvalue\n      dup1\n      iszero\n      tag_80\n      jumpi\n      revert(0x00, 0x00)\n    tag_80:\n      pop\n      tag_56\n      tag_82\n      calldatasize\n      0x04\n      tag_46\n      jump\t// in\n    tag_82:\n      tag_83\n      jump\t// in\n        /* \"contracts/StemPayLotteryManager.sol\":3376:4295  function createLottery(... */\n    tag_11:\n      callvalue\n      dup1\n      iszero\n      tag_84\n      jumpi\n      revert(0x00, 0x00)\n    tag_84:\n      pop\n      tag_56\n      tag_86\n      calldatasize\n      0x04\n      tag_87\n      jump\t// in\n    tag_86:\n      tag_88\n      jump\t// in\n        /* \"contracts/StemPayLotteryManager.sol\":6965:7226  function cancelLottery(uint256 _lotteryId) external onlyOwner {... */\n    tag_12:\n      callvalue\n      dup1\n      iszero\n      tag_89\n      jumpi\n      revert(0x00, 0x00)\n    tag_89:\n      pop\n      tag_56\n      tag_91\n      calldatasize\n      0x04\n      tag_46\n      jump\t// in\n    tag_91:\n      tag_92\n      jump\t// in\n        /* \"contracts/StemPayLotteryManager.sol\":2030:2059  uint256 public lotteryCounter */\n    tag_13:\n      callvalue\n      dup1\n      iszero\n      tag_93\n      jumpi\n      revert(0x00, 0x00)\n    tag_93:\n      pop\n      tag_39\n      sload(0x03)\n      dup2\n      jump\n        /* \"@openzeppelin/contracts-upgradeable/proxy/utils/UUPSUpgradeable.sol\":4161:4375  function upgradeToAndCall(address newImplementation, bytes memory data) public payable virtual onlyProxy {... */\n    tag_14:\n      tag_56\n      tag_98\n      calldatasize\n      0x04\n      tag_99\n      jump\t// in\n    tag_98:\n      tag_100\n      jump\t// in\n        /* \"@openzeppelin/contracts-upgradeable/proxy/utils/UUPSUpgradeable.sol\":3708:3842  function proxiableUUID() external view virtual notDelegated returns (bytes32) {... */\n    tag_15:\n      callvalue\n      dup1\n      iszero\n      tag_101\n      jumpi\n      revert(0x00, 0x00)\n    tag_101:\n      pop\n      tag_39\n      tag_103\n      jump\t// in\n        /* \"contracts/StemPayLotteryManager.sol\":7232:7744  function claimRefund(uint256 _lotteryId) external nonReentrant {... */\n    tag_16:\n      callvalue\n      dup1\n      iszero\n      tag_106\n      jumpi\n      revert(0x00, 0x00)\n    tag_106:\n      pop\n      tag_56\n      tag_108\n      calldatasize\n      0x04\n      tag_46\n      jump\t// in\n    tag_108:\n      tag_109\n      jump\t// in\n        /* \"contracts/StemPayLotteryManager.sol\":5328:6314  function drawWinner(uint256 _lotteryId) external onlyOwner {... */\n    tag_17:\n      callvalue\n      dup1\n      iszero\n      tag_110\n      jumpi\n      revert(0x00, 0x00)\n    tag_110:\n      pop\n      tag_56\n      tag_112\n      calldatasize\n      0x04\n      tag_46\n      jump\t// in\n    tag_112:\n      tag_113\n      jump\t// in\n        /* \"contracts/StemPayLotteryManager.sol\":2137:2159  bytes32 public keyHash */\n    tag_18:\n      callvalue\n      dup1\n      iszero\n      tag_114\n      jumpi\n      revert(0x00, 0x00)\n    tag_114:\n      pop\n      tag_39\n      sload(0x06)\n      dup2\n      jump\n        /* \"@openzeppelin/contracts-upgradeable/access/OwnableUpgradeable.sol\":3155:3256  function renounceOwnership() public virtual onlyOwner {... */\n    tag_19:\n      callvalue\n      dup1\n      iszero\n      tag_118\n      jumpi\n      revert(0x00, 0x00)\n    tag_118:\n      pop\n      tag_56\n      tag_120\n      jump\t// in\n        /* \"contracts/StemPayLotteryManager.sol\":2241:2263  uint32 public numWords */\n    tag_20:\n      callvalue\n      dup1\n      iszero\n      tag_121\n      jumpi\n      revert(0x00, 0x00)\n    tag_121:\n      pop\n      sload(0x07)\n      tag_66\n      swap1\n      0x01000000000000\n      swap1\n      div\n      0xffffffff\n      and\n      dup2\n      jump\n        /* \"contracts/StemPayLotteryManager.sol\":4865:5322  function voteCancel(uint256 _lotteryId) external {... */\n    tag_21:\n      callvalue\n      dup1\n      iszero\n      tag_125\n      jumpi\n      revert(0x00, 0x00)\n    tag_125:\n      pop\n      tag_56\n      tag_127\n      calldatasize\n      0x04\n      tag_46\n      jump\t// in\n    tag_127:\n      tag_128\n      jump\t// in\n        /* \"contracts/StemPayLotteryManager.sol\":8104:8214  function clearLotteryData(uint256 _lotteryId) external onlyOwner {... */\n    tag_22:\n      callvalue\n      dup1\n      iszero\n      tag_129\n      jumpi\n      revert(0x00, 0x00)\n    tag_129:\n      pop\n      tag_56\n      tag_131\n      calldatasize\n      0x04\n      tag_46\n      jump\t// in\n    tag_131:\n      tag_132\n      jump\t// in\n        /* \"@openzeppelin/contracts-upgradeable/access/OwnableUpgradeable.sol\":2441:2585  function owner() public view virtual returns (address) {... */\n    tag_23:\n      callvalue\n      dup1\n      iszero\n      tag_133\n      jumpi\n      revert(0x00, 0x00)\n    tag_133:\n      pop\n        /* \"@openzeppelin/contracts-upgradeable/access/OwnableUpgradeable.sol\":1313:1335  OwnableStorageLocation */\n      0x9016d09d72d40fdae2fd8ceac6b6234c7706214fd39c1cd1e609a0528c199300\n        /* \"@openzeppelin/contracts-upgradeable/access/OwnableUpgradeable.sol\":2570:2578  $._owner */\n      sload\n      sub(shl(0xa0, 0x01), 0x01)\n      and\n        /* \"@openzeppelin/contracts-upgradeable/access/OwnableUpgradeable.sol\":2441:2585  function owner() public view virtual returns (address) {... */\n      jump(tag_61)\n        /* \"contracts/StemPayLotteryManager.sol\":2304:2333  address public vrfCoordinator */\n    tag_24:\n      callvalue\n      dup1\n      iszero\n      tag_137\n      jumpi\n      revert(0x00, 0x00)\n    tag_137:\n      pop\n      sload(0x09)\n      tag_61\n      swap1\n      sub(shl(0xa0, 0x01), 0x01)\n      and\n      dup2\n      jump\n        /* \"@openzeppelin/contracts-upgradeable/proxy/utils/UUPSUpgradeable.sol\":1819:1877  string public constant UPGRADE_INTERFACE_VERSION = \"5.0.0\" */\n    tag_25:\n      callvalue\n      dup1\n      iszero\n      tag_141\n      jumpi\n      revert(0x00, 0x00)\n    tag_141:\n      pop\n      tag_142\n      mload(0x40)\n      dup1\n      0x40\n      add\n      0x40\n      mstore\n      dup1\n      0x05\n      dup2\n      mstore\n      0x20\n      add\n      shl(0xdc, 0x0352e302e3)\n      dup2\n      mstore\n      pop\n      dup2\n      jump\n    tag_142:\n      mload(0x40)\n      tag_41\n      swap2\n      swap1\n      tag_145\n      jump\t// in\n        /* \"contracts/StemPayLotteryManager.sol\":2201:2235  uint16 public requestConfirmations */\n    tag_26:\n      callvalue\n      dup1\n      iszero\n      tag_146\n      jumpi\n      revert(0x00, 0x00)\n    tag_146:\n      pop\n      sload(0x07)\n      tag_147\n      swap1\n      0x0100000000\n      swap1\n      div\n      0xffff\n      and\n      dup2\n      jump\n    tag_147:\n      mload(0x40)\n        /* \"#utility.yul\":7445:7451   */\n      0xffff\n        /* \"#utility.yul\":7433:7452   */\n      swap1\n      swap2\n      and\n        /* \"#utility.yul\":7415:7453   */\n      dup2\n      mstore\n        /* \"#utility.yul\":7403:7405   */\n      0x20\n        /* \"#utility.yul\":7388:7406   */\n      add\n        /* \"contracts/StemPayLotteryManager.sol\":2201:2235  uint16 public requestConfirmations */\n      tag_41\n        /* \"#utility.yul\":7271:7459   */\n      jump\n        /* \"contracts/StemPayLotteryManager.sol\":2066:2097  address public investmentWallet */\n    tag_27:\n      callvalue\n      dup1\n      iszero\n      tag_151\n      jumpi\n      revert(0x00, 0x00)\n    tag_151:\n      pop\n      sload(0x04)\n      tag_61\n      swap1\n      sub(shl(0xa0, 0x01), 0x01)\n      and\n      dup2\n      jump\n        /* \"contracts/StemPayLotteryManager.sol\":8220:8364  function getParticipants(uint256 _lotteryId) external view returns (address[] memory) {... */\n    tag_28:\n      callvalue\n      dup1\n      iszero\n      tag_155\n      jumpi\n      revert(0x00, 0x00)\n    tag_155:\n      pop\n      tag_156\n      tag_157\n      calldatasize\n      0x04\n      tag_46\n      jump\t// in\n    tag_157:\n      tag_158\n      jump\t// in\n    tag_156:\n      mload(0x40)\n      tag_41\n      swap2\n      swap1\n      tag_160\n      jump\t// in\n        /* \"contracts/StemPayLotteryManager.sol\":7750:8098  function claimPrize(uint256 _lotteryId) external nonReentrant {... */\n    tag_29:\n      callvalue\n      dup1\n      iszero\n      tag_161\n      jumpi\n      revert(0x00, 0x00)\n    tag_161:\n      pop\n      tag_56\n      tag_163\n      calldatasize\n      0x04\n      tag_46\n      jump\t// in\n    tag_163:\n      tag_164\n      jump\t// in\n        /* \"@openzeppelin/contracts-upgradeable/access/OwnableUpgradeable.sol\":3405:3620  function transferOwnership(address newOwner) public virtual onlyOwner {... */\n    tag_30:\n      callvalue\n      dup1\n      iszero\n      tag_165\n      jumpi\n      revert(0x00, 0x00)\n    tag_165:\n      pop\n      tag_56\n      tag_167\n      calldatasize\n      0x04\n      tag_168\n      jump\t// in\n    tag_167:\n      tag_169\n      jump\t// in\n        /* \"contracts/StemPayLotteryManager.sol\":922:1198  function rawFulfillRandomWords(uint256 requestId, uint256[] memory randomWords) external {... */\n    tag_59:\n        /* \"contracts/StemPayLotteryManager.sol\":1039:1053  vrfCoordinator */\n      and(sub(shl(0xa0, 0x01), 0x01), sload(0x01))\n        /* \"contracts/StemPayLotteryManager.sol\":1025:1035  msg.sender */\n      caller\n        /* \"contracts/StemPayLotteryManager.sol\":1025:1053  msg.sender != vrfCoordinator */\n      eq\n        /* \"contracts/StemPayLotteryManager.sol\":1021:1140  if (msg.sender != vrfCoordinator) {... */\n      tag_171\n      jumpi\n        /* \"contracts/StemPayLotteryManager.sol\":1114:1128  vrfCoordinator */\n      sload(0x01)\n        /* \"contracts/StemPayLotteryManager.sol\":1076:1129  OnlyCoordinatorCanFulfill(msg.sender, vrfCoordinator) */\n      mload(0x40)\n      shl(0xe2, 0x073e64fd)\n      dup2\n      mstore\n        /* \"contracts/StemPayLotteryManager.sol\":1102:1112  msg.sender */\n      caller\n        /* \"contracts/StemPayLotteryManager.sol\":1076:1129  OnlyCoordinatorCanFulfill(msg.sender, vrfCoordinator) */\n      0x04\n      dup3\n      add\n        /* \"#utility.yul\":8471:8522   */\n      mstore\n      sub(shl(0xa0, 0x01), 0x01)\n        /* \"contracts/StemPayLotteryManager.sol\":1114:1128  vrfCoordinator */\n      swap1\n      swap2\n      and\n        /* \"#utility.yul\":8538:8556   */\n      0x24\n      dup3\n      add\n        /* \"#utility.yul\":8531:8591   */\n      mstore\n        /* \"#utility.yul\":8444:8462   */\n      0x44\n      add\n        /* \"contracts/StemPayLotteryManager.sol\":1076:1129  OnlyCoordinatorCanFulfill(msg.sender, vrfCoordinator) */\n    tag_172:\n      mload(0x40)\n      dup1\n      swap2\n      sub\n      swap1\n      revert\n        /* \"contracts/StemPayLotteryManager.sol\":1021:1140  if (msg.sender != vrfCoordinator) {... */\n    tag_171:\n        /* \"contracts/StemPayLotteryManager.sol\":1149:1191  fulfillRandomWords(requestId, randomWords) */\n      tag_174\n        /* \"contracts/StemPayLotteryManager.sol\":1168:1177  requestId */\n      dup3\n        /* \"contracts/StemPayLotteryManager.sol\":1179:1190  randomWords */\n      dup3\n        /* \"contracts/StemPayLotteryManager.sol\":1149:1167  fulfillRandomWords */\n      tag_175\n        /* \"contracts/StemPayLotteryManager.sol\":1149:1191  fulfillRandomWords(requestId, randomWords) */\n      jump\t// in\n    tag_174:\n        /* \"contracts/StemPayLotteryManager.sol\":922:1198  function rawFulfillRandomWords(uint256 requestId, uint256[] memory randomWords) external {... */\n      pop\n      pop\n      jump\t// out\n        /* \"contracts/StemPayLotteryManager.sol\":2681:3298  function initialize(... */\n    tag_74:\n        /* \"@openzeppelin/contracts-upgradeable/proxy/utils/Initializable.sol\":4158:4188  InitializableStorage storage $ */\n      0x00\n        /* \"@openzeppelin/contracts-upgradeable/proxy/utils/Initializable.sol\":4191:4217  _getInitializableStorage() */\n      tag_177\n        /* \"@openzeppelin/contracts-upgradeable/proxy/utils/Initializable.sol\":4191:4215  _getInitializableStorage */\n      tag_178\n        /* \"@openzeppelin/contracts-upgradeable/proxy/utils/Initializable.sol\":4191:4217  _getInitializableStorage() */\n      jump\t// in\n    tag_177:\n        /* \"@openzeppelin/contracts-upgradeable/proxy/utils/Initializable.sol\":4302:4317  $._initializing */\n      dup1\n      sload\n        /* \"@openzeppelin/contracts-upgradeable/proxy/utils/Initializable.sol\":4158:4217  InitializableStorage storage $ = _getInitializableStorage() */\n      swap1\n      swap2\n      pop\n        /* \"@openzeppelin/contracts-upgradeable/proxy/utils/Initializable.sol\":4302:4317  $._initializing */\n      0xff\n      shl(0x40, 0x01)\n      dup3\n      div\n      and\n        /* \"@openzeppelin/contracts-upgradeable/proxy/utils/Initializable.sol\":4301:4317  !$._initializing */\n      iszero\n      swap1\n        /* \"@openzeppelin/contracts-upgradeable/proxy/utils/Initializable.sol\":4348:4362  $._initialized */\n      0xffffffffffffffff\n      and\n        /* \"@openzeppelin/contracts-upgradeable/proxy/utils/Initializable.sol\":4279:4298  bool isTopLevelCall */\n      0x00\n        /* \"@openzeppelin/contracts-upgradeable/proxy/utils/Initializable.sol\":4724:4740  initialized == 0 */\n      dup2\n      iszero\n        /* \"@openzeppelin/contracts-upgradeable/proxy/utils/Initializable.sol\":4724:4758  initialized == 0 && isTopLevelCall */\n      dup1\n      iszero\n      tag_179\n      jumpi\n      pop\n        /* \"@openzeppelin/contracts-upgradeable/proxy/utils/Initializable.sol\":4744:4758  isTopLevelCall */\n      dup3\n        /* \"@openzeppelin/contracts-upgradeable/proxy/utils/Initializable.sol\":4724:4758  initialized == 0 && isTopLevelCall */\n    tag_179:\n        /* \"@openzeppelin/contracts-upgradeable/proxy/utils/Initializable.sol\":4704:4758  bool initialSetup = initialized == 0 && isTopLevelCall */\n      swap1\n      pop\n        /* \"@openzeppelin/contracts-upgradeable/proxy/utils/Initializable.sol\":4768:4785  bool construction */\n      0x00\n        /* \"@openzeppelin/contracts-upgradeable/proxy/utils/Initializable.sol\":4788:4799  initialized */\n      dup3\n        /* \"@openzeppelin/contracts-upgradeable/proxy/utils/Initializable.sol\":4788:4804  initialized == 1 */\n      0xffffffffffffffff\n      and\n        /* \"@openzeppelin/contracts-upgradeable/proxy/utils/Initializable.sol\":4803:4804  1 */\n      0x01\n        /* \"@openzeppelin/contracts-upgradeable/proxy/utils/Initializable.sol\":4788:4804  initialized == 1 */\n      eq\n        /* \"@openzeppelin/contracts-upgradeable/proxy/utils/Initializable.sol\":4788:4838  initialized == 1 && address(this).code.length == 0 */\n      dup1\n      iszero\n      tag_180\n      jumpi\n      pop\n        /* \"@openzeppelin/contracts-upgradeable/proxy/utils/Initializable.sol\":4816:4820  this */\n      address\n        /* \"@openzeppelin/contracts-upgradeable/proxy/utils/Initializable.sol\":4808:4833  address(this).code.length */\n      extcodesize\n        /* \"@openzeppelin/contracts-upgradeable/proxy/utils/Initializable.sol\":4808:4838  address(this).code.length == 0 */\n      iszero\n        /* \"@openzeppelin/contracts-upgradeable/proxy/utils/Initializable.sol\":4788:4838  initialized == 1 && address(this).code.length == 0 */\n    tag_180:\n        /* \"@openzeppelin/contracts-upgradeable/proxy/utils/Initializable.sol\":4768:4838  bool construction = initialized == 1 && address(this).code.length == 0 */\n      swap1\n      pop\n        /* \"@openzeppelin/contracts-upgradeable/proxy/utils/Initializable.sol\":4854:4866  initialSetup */\n      dup2\n        /* \"@openzeppelin/contracts-upgradeable/proxy/utils/Initializable.sol\":4853:4866  !initialSetup */\n      iszero\n        /* \"@openzeppelin/contracts-upgradeable/proxy/utils/Initializable.sol\":4853:4883  !initialSetup && !construction */\n      dup1\n      iszero\n      tag_181\n      jumpi\n      pop\n        /* \"@openzeppelin/contracts-upgradeable/proxy/utils/Initializable.sol\":4871:4883  construction */\n      dup1\n        /* \"@openzeppelin/contracts-upgradeable/proxy/utils/Initializable.sol\":4870:4883  !construction */\n      iszero\n        /* \"@openzeppelin/contracts-upgradeable/proxy/utils/Initializable.sol\":4853:4883  !initialSetup && !construction */\n    tag_181:\n        /* \"@openzeppelin/contracts-upgradeable/proxy/utils/Initializable.sol\":4849:4940  if (!initialSetup && !construction) {... */\n      iszero\n      tag_182\n      jumpi\n        /* \"@openzeppelin/contracts-upgradeable/proxy/utils/Initializable.sol\":4906:4929  InvalidInitialization() */\n      mload(0x40)\n      shl(0xe0, 0xf92ee8a9)\n      dup2\n      mstore\n      0x04\n      add\n      mload(0x40)\n      dup1\n      swap2\n      sub\n      swap1\n      revert\n        /* \"@openzeppelin/contracts-upgradeable/proxy/utils/Initializable.sol\":4849:4940  if (!initialSetup && !construction) {... */\n    tag_182:\n        /* \"@openzeppelin/contracts-upgradeable/proxy/utils/Initializable.sol\":4949:4967  $._initialized = 1 */\n      dup5\n      sload\n      not(0xffffffffffffffff)\n      and\n        /* \"@openzeppelin/contracts-upgradeable/proxy/utils/Initializable.sol\":4966:4967  1 */\n      0x01\n        /* \"@openzeppelin/contracts-upgradeable/proxy/utils/Initializable.sol\":4949:4967  $._initialized = 1 */\n      or\n      dup6\n      sstore\n        /* \"@openzeppelin/contracts-upgradeable/proxy/utils/Initializable.sol\":4977:5044  if (isTopLevelCall) {... */\n      dup4\n      iszero\n      tag_183\n      jumpi\n        /* \"@openzeppelin/contracts-upgradeable/proxy/utils/Initializable.sol\":5011:5033  $._initializing = true */\n      dup5\n      sload\n      not(shl(0x40, 0xff))\n      and\n      shl(0x40, 0x01)\n      or\n      dup6\n      sstore\n        /* \"@openzeppelin/contracts-upgradeable/proxy/utils/Initializable.sol\":4977:5044  if (isTopLevelCall) {... */\n    tag_183:\n        /* \"contracts/StemPayLotteryManager.sol\":2886:2912  __Ownable_init(msg.sender) */\n      tag_185\n        /* \"contracts/StemPayLotteryManager.sol\":2901:2911  msg.sender */\n      caller\n        /* \"contracts/StemPayLotteryManager.sol\":2886:2900  __Ownable_init */\n      tag_186\n        /* \"contracts/StemPayLotteryManager.sol\":2886:2912  __Ownable_init(msg.sender) */\n      jump\t// in\n    tag_185:\n        /* \"contracts/StemPayLotteryManager.sol\":2922:2946  __UUPSUpgradeable_init() */\n      tag_187\n        /* \"contracts/StemPayLotteryManager.sol\":2922:2944  __UUPSUpgradeable_init */\n      tag_188\n        /* \"contracts/StemPayLotteryManager.sol\":2922:2946  __UUPSUpgradeable_init() */\n      jump\t// in\n    tag_187:\n        /* \"contracts/StemPayLotteryManager.sol\":2956:3010  __VRFConsumerBaseV2_5Upgradeable_init(_vrfCoordinator) */\n      tag_189\n        /* \"contracts/StemPayLotteryManager.sol\":2994:3009  _vrfCoordinator */\n      dup11\n        /* \"contracts/StemPayLotteryManager.sol\":2956:2993  __VRFConsumerBaseV2_5Upgradeable_init */\n      tag_190\n        /* \"contracts/StemPayLotteryManager.sol\":2956:3010  __VRFConsumerBaseV2_5Upgradeable_init(_vrfCoordinator) */\n      jump\t// in\n    tag_189:\n        /* \"contracts/StemPayLotteryManager.sol\":3021:3035  vrfCoordinator */\n      0x09\n        /* \"contracts/StemPayLotteryManager.sol\":3021:3053  vrfCoordinator = _vrfCoordinator */\n      dup1\n      sload\n      not(sub(shl(0xa0, 0x01), 0x01))\n      swap1\n      dup2\n      and\n      sub(shl(0xa0, 0x01), 0x01)\n      dup14\n      dup2\n      and\n      swap2\n      swap1\n      swap2\n      or\n      swap1\n      swap3\n      sstore\n        /* \"contracts/StemPayLotteryManager.sol\":3063:3070  keyHash */\n      0x06\n        /* \"contracts/StemPayLotteryManager.sol\":3063:3081  keyHash = _keyHash */\n      dup12\n      swap1\n      sstore\n        /* \"contracts/StemPayLotteryManager.sol\":3091:3114  subscriptionId = _subId */\n      0xffffffffffffffff\n      dup11\n      and\n        /* \"contracts/StemPayLotteryManager.sol\":3091:3105  subscriptionId */\n      0x08\n        /* \"contracts/StemPayLotteryManager.sol\":3091:3114  subscriptionId = _subId */\n      sstore\n        /* \"contracts/StemPayLotteryManager.sol\":3124:3140  callbackGasLimit */\n      0x07\n        /* \"contracts/StemPayLotteryManager.sol\":3124:3150  callbackGasLimit = 200_000 */\n      dup1\n      sload\n      not(0xffffffffffffffffffff)\n        /* \"contracts/StemPayLotteryManager.sol\":3194:3206  numWords = 1 */\n      and\n      0x01000300030d40\n      or\n      swap1\n      sstore\n        /* \"contracts/StemPayLotteryManager.sol\":3160:3180  requestConfirmations */\n      0x04\n        /* \"contracts/StemPayLotteryManager.sol\":3217:3253  investmentWallet = _investmentWallet */\n      dup1\n      sload\n      dup3\n      and\n      dup11\n      dup5\n      and\n      or\n      swap1\n      sstore\n      0x05\n        /* \"contracts/StemPayLotteryManager.sol\":3263:3291  profitWallet = _profitWallet */\n      dup1\n      sload\n      swap1\n      swap2\n      and\n      swap2\n      dup9\n      and\n      swap2\n      swap1\n      swap2\n      or\n      swap1\n      sstore\n        /* \"@openzeppelin/contracts-upgradeable/proxy/utils/Initializable.sol\":5064:5165  if (isTopLevelCall) {... */\n      dup4\n      iszero\n      tag_191\n      jumpi\n        /* \"@openzeppelin/contracts-upgradeable/proxy/utils/Initializable.sol\":5098:5121  $._initializing = false */\n      dup5\n      sload\n      not(shl(0x40, 0xff))\n      and\n      dup6\n      sstore\n        /* \"@openzeppelin/contracts-upgradeable/proxy/utils/Initializable.sol\":5140:5154  Initialized(1) */\n      mload(0x40)\n      0x01\n        /* \"#utility.yul\":8755:8805   */\n      dup2\n      mstore\n        /* \"@openzeppelin/contracts-upgradeable/proxy/utils/Initializable.sol\":5140:5154  Initialized(1) */\n      0xc7f505b2f371ae2175ee4913f4499e1f2633a7b5936321eed1cdaeb6115181d2\n      swap1\n        /* \"#utility.yul\":8743:8745   */\n      0x20\n        /* \"#utility.yul\":8728:8746   */\n      add\n        /* \"@openzeppelin/contracts-upgradeable/proxy/utils/Initializable.sol\":5140:5154  Initialized(1) */\n      mload(0x40)\n      dup1\n      swap2\n      sub\n      swap1\n      log1\n        /* \"@openzeppelin/contracts-upgradeable/proxy/utils/Initializable.sol\":5064:5165  if (isTopLevelCall) {... */\n    tag_191:\n        /* \"@openzeppelin/contracts-upgradeable/proxy/utils/Initializable.sol\":4092:5171  {... */\n      pop\n      pop\n      pop\n      pop\n      pop\n        /* \"contracts/StemPayLotteryManager.sol\":2681:3298  function initialize(... */\n      pop\n      pop\n      pop\n      pop\n      pop\n      jump\t// out\n        /* \"contracts/StemPayLotteryManager.sol\":8370:9266  function migrateToLottery(uint256 fromId, uint256 toId) external nonReentrant {... */\n    tag_79:\n        /* \"@openzeppelin/contracts/security/ReentrancyGuard.sol\":2261:2282  _nonReentrantBefore() */\n      tag_195\n        /* \"@openzeppelin/contracts/security/ReentrancyGuard.sol\":2261:2280  _nonReentrantBefore */\n      tag_196\n        /* \"@openzeppelin/contracts/security/ReentrancyGuard.sol\":2261:2282  _nonReentrantBefore() */\n      jump\t// in\n    tag_195:\n        /* \"contracts/StemPayLotteryManager.sol\":8458:8479  Lottery storage fromL */\n      0x00\n        /* \"contracts/StemPayLotteryManager.sol\":8482:8499  lotteries[fromId] */\n      dup3\n      dup2\n      mstore\n        /* \"contracts/StemPayLotteryManager.sol\":8482:8491  lotteries */\n      0x02\n        /* \"contracts/StemPayLotteryManager.sol\":8482:8499  lotteries[fromId] */\n      0x20\n      swap1\n      dup2\n      mstore\n      0x40\n      dup1\n      dup4\n      keccak256\n        /* \"contracts/StemPayLotteryManager.sol\":8531:8546  lotteries[toId] */\n      dup5\n      dup5\n      mstore\n      dup2\n      dup5\n      keccak256\n        /* \"contracts/StemPayLotteryManager.sol\":8582:8592  msg.sender */\n      caller\n        /* \"contracts/StemPayLotteryManager.sol\":8565:8593  fromL.entryCount[msg.sender] */\n      dup6\n      mstore\n        /* \"contracts/StemPayLotteryManager.sol\":8565:8581  fromL.entryCount */\n      0x0c\n      dup3\n      add\n        /* \"contracts/StemPayLotteryManager.sol\":8565:8593  fromL.entryCount[msg.sender] */\n      swap1\n      swap4\n      mstore\n      swap3\n      keccak256\n      sload\n        /* \"contracts/StemPayLotteryManager.sol\":8557:8612  require(fromL.entryCount[msg.sender] > 0, \"Not in old\") */\n      tag_198\n      jumpi\n      mload(0x40)\n      shl(0xe5, 0x461bcd)\n      dup2\n      mstore\n        /* \"#utility.yul\":9018:9020   */\n      0x20\n        /* \"contracts/StemPayLotteryManager.sol\":8557:8612  require(fromL.entryCount[msg.sender] > 0, \"Not in old\") */\n      0x04\n      dup3\n      add\n        /* \"#utility.yul\":9000:9021   */\n      mstore\n        /* \"#utility.yul\":9057:9059   */\n      0x0a\n        /* \"#utility.yul\":9037:9055   */\n      0x24\n      dup3\n      add\n        /* \"#utility.yul\":9030:9060   */\n      mstore\n      shl(0xb2, 0x139bdd081a5b881bdb19)\n        /* \"#utility.yul\":9076:9094   */\n      0x44\n      dup3\n      add\n        /* \"#utility.yul\":9069:9109   */\n      mstore\n        /* \"#utility.yul\":9126:9144   */\n      0x64\n      add\n        /* \"contracts/StemPayLotteryManager.sol\":8557:8612  require(fromL.entryCount[msg.sender] > 0, \"Not in old\") */\n      tag_172\n        /* \"#utility.yul\":8816:9150   */\n      jump\n        /* \"contracts/StemPayLotteryManager.sol\":8557:8612  require(fromL.entryCount[msg.sender] > 0, \"Not in old\") */\n    tag_198:\n        /* \"contracts/StemPayLotteryManager.sol\":8649:8659  msg.sender */\n      caller\n        /* \"contracts/StemPayLotteryManager.sol\":8631:8660  fromL.hasRefunded[msg.sender] */\n      0x00\n      swap1\n      dup2\n      mstore\n        /* \"contracts/StemPayLotteryManager.sol\":8631:8648  fromL.hasRefunded */\n      0x0e\n      dup4\n      add\n        /* \"contracts/StemPayLotteryManager.sol\":8631:8660  fromL.hasRefunded[msg.sender] */\n      0x20\n      mstore\n      0x40\n      swap1\n      keccak256\n      sload\n      0xff\n      and\n        /* \"contracts/StemPayLotteryManager.sol\":8630:8660  !fromL.hasRefunded[msg.sender] */\n      iszero\n        /* \"contracts/StemPayLotteryManager.sol\":8622:8681  require(!fromL.hasRefunded[msg.sender], \"Refunded already\") */\n      tag_201\n      jumpi\n      mload(0x40)\n      shl(0xe5, 0x461bcd)\n      dup2\n      mstore\n        /* \"#utility.yul\":9357:9359   */\n      0x20\n        /* \"contracts/StemPayLotteryManager.sol\":8622:8681  require(!fromL.hasRefunded[msg.sender], \"Refunded already\") */\n      0x04\n      dup3\n      add\n        /* \"#utility.yul\":9339:9360   */\n      mstore\n        /* \"#utility.yul\":9396:9398   */\n      0x10\n        /* \"#utility.yul\":9376:9394   */\n      0x24\n      dup3\n      add\n        /* \"#utility.yul\":9369:9399   */\n      mstore\n      shl(0x80, 0x526566756e64656420616c7265616479)\n        /* \"#utility.yul\":9415:9433   */\n      0x44\n      dup3\n      add\n        /* \"#utility.yul\":9408:9454   */\n      mstore\n        /* \"#utility.yul\":9471:9489   */\n      0x64\n      add\n        /* \"contracts/StemPayLotteryManager.sol\":8622:8681  require(!fromL.hasRefunded[msg.sender], \"Refunded already\") */\n      tag_172\n        /* \"#utility.yul\":9155:9495   */\n      jump\n        /* \"contracts/StemPayLotteryManager.sol\":8622:8681  require(!fromL.hasRefunded[msg.sender], \"Refunded already\") */\n    tag_201:\n        /* \"contracts/StemPayLotteryManager.sol\":8699:8716  fromL.isCancelled */\n      0x08\n      dup3\n      add\n      sload\n      0x010000\n      swap1\n      div\n      0xff\n      and\n      dup1\n        /* \"contracts/StemPayLotteryManager.sol\":8699:8765  fromL.isCancelled || (fromL.isDrawn && fromL.winner != msg.sender) */\n      tag_205\n      jumpi\n      pop\n        /* \"contracts/StemPayLotteryManager.sol\":8721:8734  fromL.isDrawn */\n      0x08\n      dup3\n      add\n      sload\n      0x0100\n      swap1\n      div\n      0xff\n      and\n        /* \"contracts/StemPayLotteryManager.sol\":8721:8764  fromL.isDrawn && fromL.winner != msg.sender */\n      dup1\n      iszero\n      tag_205\n      jumpi\n      pop\n        /* \"contracts/StemPayLotteryManager.sol\":8738:8750  fromL.winner */\n      0x0a\n      dup3\n      add\n      sload\n      sub(shl(0xa0, 0x01), 0x01)\n      and\n        /* \"contracts/StemPayLotteryManager.sol\":8754:8764  msg.sender */\n      caller\n        /* \"contracts/StemPayLotteryManager.sol\":8738:8764  fromL.winner != msg.sender */\n      eq\n      iszero\n        /* \"contracts/StemPayLotteryManager.sol\":8721:8764  fromL.isDrawn && fromL.winner != msg.sender */\n    tag_205:\n        /* \"contracts/StemPayLotteryManager.sol\":8691:8786  require(fromL.isCancelled || (fromL.isDrawn && fromL.winner != msg.sender), \"Old not eligible\") */\n      tag_206\n      jumpi\n      mload(0x40)\n      shl(0xe5, 0x461bcd)\n      dup2\n      mstore\n        /* \"#utility.yul\":9702:9704   */\n      0x20\n        /* \"contracts/StemPayLotteryManager.sol\":8691:8786  require(fromL.isCancelled || (fromL.isDrawn && fromL.winner != msg.sender), \"Old not eligible\") */\n      0x04\n      dup3\n      add\n        /* \"#utility.yul\":9684:9705   */\n      mstore\n        /* \"#utility.yul\":9741:9743   */\n      0x10\n        /* \"#utility.yul\":9721:9739   */\n      0x24\n      dup3\n      add\n        /* \"#utility.yul\":9714:9744   */\n      mstore\n      shl(0x80, 0x4f6c64206e6f7420656c696769626c65)\n        /* \"#utility.yul\":9760:9778   */\n      0x44\n      dup3\n      add\n        /* \"#utility.yul\":9753:9799   */\n      mstore\n        /* \"#utility.yul\":9816:9834   */\n      0x64\n      add\n        /* \"contracts/StemPayLotteryManager.sol\":8691:8786  require(fromL.isCancelled || (fromL.isDrawn && fromL.winner != msg.sender), \"Old not eligible\") */\n      tag_172\n        /* \"#utility.yul\":9500:9840   */\n      jump\n        /* \"contracts/StemPayLotteryManager.sol\":8691:8786  require(fromL.isCancelled || (fromL.isDrawn && fromL.winner != msg.sender), \"Old not eligible\") */\n    tag_206:\n        /* \"contracts/StemPayLotteryManager.sol\":8805:8817  toL.isActive */\n      0x08\n      dup2\n      add\n      sload\n      0xff\n      and\n        /* \"contracts/StemPayLotteryManager.sol\":8805:8837  toL.isActive && !toL.isCancelled */\n      dup1\n      iszero\n      tag_209\n      jumpi\n      pop\n        /* \"contracts/StemPayLotteryManager.sol\":8822:8837  toL.isCancelled */\n      0x08\n      dup2\n      add\n      sload\n      0x010000\n      swap1\n      div\n      0xff\n      and\n        /* \"contracts/StemPayLotteryManager.sol\":8821:8837  !toL.isCancelled */\n      iszero\n        /* \"contracts/StemPayLotteryManager.sol\":8805:8837  toL.isActive && !toL.isCancelled */\n    tag_209:\n        /* \"contracts/StemPayLotteryManager.sol\":8797:8862  require(toL.isActive && !toL.isCancelled, \"New lottery inactive\") */\n      tag_210\n      jumpi\n      mload(0x40)\n      shl(0xe5, 0x461bcd)\n      dup2\n      mstore\n        /* \"#utility.yul\":10047:10049   */\n      0x20\n        /* \"contracts/StemPayLotteryManager.sol\":8797:8862  require(toL.isActive && !toL.isCancelled, \"New lottery inactive\") */\n      0x04\n      dup3\n      add\n        /* \"#utility.yul\":10029:10050   */\n      mstore\n        /* \"#utility.yul\":10086:10088   */\n      0x14\n        /* \"#utility.yul\":10066:10084   */\n      0x24\n      dup3\n      add\n        /* \"#utility.yul\":10059:10089   */\n      mstore\n      shl(0x60, 0x4e6577206c6f747465727920696e616374697665)\n        /* \"#utility.yul\":10105:10123   */\n      0x44\n      dup3\n      add\n        /* \"#utility.yul\":10098:10148   */\n      mstore\n        /* \"#utility.yul\":10165:10183   */\n      0x64\n      add\n        /* \"contracts/StemPayLotteryManager.sol\":8797:8862  require(toL.isActive && !toL.isCancelled, \"New lottery inactive\") */\n      tag_172\n        /* \"#utility.yul\":9845:10189   */\n      jump\n        /* \"contracts/StemPayLotteryManager.sol\":8797:8862  require(toL.isActive && !toL.isCancelled, \"New lottery inactive\") */\n    tag_210:\n        /* \"contracts/StemPayLotteryManager.sol\":8898:8901  toL */\n      dup1\n        /* \"contracts/StemPayLotteryManager.sol\":8898:8910  toL.drawTime */\n      0x04\n      add\n      sload\n        /* \"contracts/StemPayLotteryManager.sol\":8880:8895  block.timestamp */\n      timestamp\n        /* \"contracts/StemPayLotteryManager.sol\":8880:8910  block.timestamp < toL.drawTime */\n      lt\n        /* \"contracts/StemPayLotteryManager.sol\":8872:8931  require(block.timestamp < toL.drawTime, \"Too late for new\") */\n      tag_213\n      jumpi\n      mload(0x40)\n      shl(0xe5, 0x461bcd)\n      dup2\n      mstore\n        /* \"#utility.yul\":10396:10398   */\n      0x20\n        /* \"contracts/StemPayLotteryManager.sol\":8872:8931  require(block.timestamp < toL.drawTime, \"Too late for new\") */\n      0x04\n      dup3\n      add\n        /* \"#utility.yul\":10378:10399   */\n      mstore\n        /* \"#utility.yul\":10435:10437   */\n      0x10\n        /* \"#utility.yul\":10415:10433   */\n      0x24\n      dup3\n      add\n        /* \"#utility.yul\":10408:10438   */\n      mstore\n      shl(0x80, 0x546f6f206c61746520666f72206e6577)\n        /* \"#utility.yul\":10454:10472   */\n      0x44\n      dup3\n      add\n        /* \"#utility.yul\":10447:10493   */\n      mstore\n        /* \"#utility.yul\":10510:10528   */\n      0x64\n      add\n        /* \"contracts/StemPayLotteryManager.sol\":8872:8931  require(block.timestamp < toL.drawTime, \"Too late for new\") */\n      tag_172\n        /* \"#utility.yul\":10194:10534   */\n      jump\n        /* \"contracts/StemPayLotteryManager.sol\":8872:8931  require(block.timestamp < toL.drawTime, \"Too late for new\") */\n    tag_213:\n        /* \"contracts/StemPayLotteryManager.sol\":8960:8970  msg.sender */\n      caller\n        /* \"contracts/StemPayLotteryManager.sol\":8942:8971  fromL.hasRefunded[msg.sender] */\n      0x00\n      swap1\n      dup2\n      mstore\n        /* \"contracts/StemPayLotteryManager.sol\":8942:8959  fromL.hasRefunded */\n      0x0e\n      dup4\n      add\n        /* \"contracts/StemPayLotteryManager.sol\":8942:8971  fromL.hasRefunded[msg.sender] */\n      0x20\n      mstore\n      0x40\n      dup2\n      keccak256\n        /* \"contracts/StemPayLotteryManager.sol\":8942:8978  fromL.hasRefunded[msg.sender] = true */\n      dup1\n      sload\n      not(0xff)\n      and\n        /* \"contracts/StemPayLotteryManager.sol\":8974:8978  true */\n      0x01\n        /* \"contracts/StemPayLotteryManager.sol\":8942:8978  fromL.hasRefunded[msg.sender] = true */\n      swap1\n      dup2\n      or\n      swap1\n      swap2\n      sstore\n        /* \"contracts/StemPayLotteryManager.sol\":9028:9048  toL.refundableAmount */\n      0x02\n      dup4\n      add\n      sload\n        /* \"contracts/StemPayLotteryManager.sol\":9005:9025  toL.participationFee */\n      swap1\n      dup4\n      add\n      sload\n        /* \"contracts/StemPayLotteryManager.sol\":9005:9048  toL.participationFee - toL.refundableAmount */\n      tag_216\n      swap2\n        /* \"contracts/StemPayLotteryManager.sol\":9028:9048  toL.refundableAmount */\n      swap1\n        /* \"contracts/StemPayLotteryManager.sol\":9005:9048  toL.participationFee - toL.refundableAmount */\n      tag_217\n      jump\t// in\n    tag_216:\n        /* \"contracts/StemPayLotteryManager.sol\":9065:9081  toL.tokenAddress */\n      dup3\n      sload\n        /* \"contracts/StemPayLotteryManager.sol\":9058:9129  IERC20(toL.tokenAddress).transferFrom(msg.sender, address(this), topUp) */\n      mload(0x40)\n      shl(0xe0, 0x23b872dd)\n      dup2\n      mstore\n        /* \"contracts/StemPayLotteryManager.sol\":9096:9106  msg.sender */\n      caller\n        /* \"contracts/StemPayLotteryManager.sol\":9058:9129  IERC20(toL.tokenAddress).transferFrom(msg.sender, address(this), topUp) */\n      0x04\n      dup3\n      add\n        /* \"#utility.yul\":11006:11057   */\n      mstore\n        /* \"contracts/StemPayLotteryManager.sol\":9116:9120  this */\n      address\n        /* \"#utility.yul\":11073:11091   */\n      0x24\n      dup3\n      add\n        /* \"#utility.yul\":11066:11126   */\n      mstore\n        /* \"#utility.yul\":11142:11160   */\n      0x44\n      dup2\n      add\n        /* \"#utility.yul\":11135:11169   */\n      dup4\n      swap1\n      mstore\n        /* \"contracts/StemPayLotteryManager.sol\":8989:9048  uint256 topUp = toL.participationFee - toL.refundableAmount */\n      swap2\n      swap3\n      pop\n      sub(shl(0xa0, 0x01), 0x01)\n        /* \"contracts/StemPayLotteryManager.sol\":9065:9081  toL.tokenAddress */\n      and\n      swap1\n        /* \"contracts/StemPayLotteryManager.sol\":9058:9095  IERC20(toL.tokenAddress).transferFrom */\n      0x23b872dd\n      swap1\n        /* \"#utility.yul\":10979:10997   */\n      0x64\n      add\n        /* \"contracts/StemPayLotteryManager.sol\":9058:9129  IERC20(toL.tokenAddress).transferFrom(msg.sender, address(this), topUp) */\n      0x20\n      mload(0x40)\n      dup1\n      dup4\n      sub\n      dup2\n      0x00\n      dup8\n      gas\n      call\n      iszero\n      dup1\n      iszero\n      tag_221\n      jumpi\n      returndatacopy(0x00, 0x00, returndatasize)\n      revert(0x00, returndatasize)\n    tag_221:\n      pop\n      pop\n      pop\n      pop\n      mload(0x40)\n      returndatasize\n      not(0x1f)\n      0x1f\n      dup3\n      add\n      and\n      dup3\n      add\n      dup1\n      0x40\n      mstore\n      pop\n      dup2\n      add\n      swap1\n      tag_222\n      swap2\n      swap1\n      tag_223\n      jump\t// in\n    tag_222:\n      pop\n        /* \"contracts/StemPayLotteryManager.sol\":9140:9156  toL.participants */\n      0x09\n      dup3\n      add\n        /* \"contracts/StemPayLotteryManager.sol\":9140:9173  toL.participants.push(msg.sender) */\n      dup1\n      sload\n      0x01\n      dup2\n      add\n      dup3\n      sstore\n      0x00\n      swap2\n      dup3\n      mstore\n      0x20\n      dup1\n      dup4\n      keccak256\n      swap1\n      swap2\n      add\n      dup1\n      sload\n      not(sub(shl(0xa0, 0x01), 0x01))\n      and\n        /* \"contracts/StemPayLotteryManager.sol\":9162:9172  msg.sender */\n      caller\n        /* \"contracts/StemPayLotteryManager.sol\":9140:9173  toL.participants.push(msg.sender) */\n      swap1\n      dup2\n      or\n      swap1\n      swap2\n      sstore\n        /* \"contracts/StemPayLotteryManager.sol\":9183:9209  toL.entryCount[msg.sender] */\n      dup3\n      mstore\n        /* \"contracts/StemPayLotteryManager.sol\":9183:9197  toL.entryCount */\n      0x0c\n      dup5\n      add\n        /* \"contracts/StemPayLotteryManager.sol\":9183:9209  toL.entryCount[msg.sender] */\n      swap1\n      mstore\n      0x40\n      dup2\n      keccak256\n        /* \"contracts/StemPayLotteryManager.sol\":9183:9211  toL.entryCount[msg.sender]++ */\n      dup1\n      sload\n      swap2\n      tag_225\n      dup4\n      tag_226\n      jump\t// in\n    tag_225:\n      swap1\n      swap2\n      sstore\n      pop\n      pop\n        /* \"contracts/StemPayLotteryManager.sol\":9227:9259  EnteredLottery(toId, msg.sender) */\n      0x40\n      dup1\n      mload\n        /* \"#utility.yul\":11776:11801   */\n      dup6\n      dup2\n      mstore\n        /* \"contracts/StemPayLotteryManager.sol\":9248:9258  msg.sender */\n      caller\n        /* \"#utility.yul\":11832:11834   */\n      0x20\n        /* \"#utility.yul\":11817:11835   */\n      dup3\n      add\n        /* \"#utility.yul\":11810:11870   */\n      mstore\n        /* \"contracts/StemPayLotteryManager.sol\":9227:9259  EnteredLottery(toId, msg.sender) */\n      0x1e28857182a3b2bb6fbb88287d1ba8cc3a941dd65d4c977286676d27b877a3d9\n      swap2\n        /* \"#utility.yul\":11749:11767   */\n      add\n        /* \"contracts/StemPayLotteryManager.sol\":9227:9259  EnteredLottery(toId, msg.sender) */\n      mload(0x40)\n      dup1\n      swap2\n      sub\n      swap1\n      log1\n        /* \"contracts/StemPayLotteryManager.sol\":8448:9266  {... */\n      pop\n      pop\n      pop\n        /* \"@openzeppelin/contracts/security/ReentrancyGuard.sol\":2303:2323  _nonReentrantAfter() */\n      tag_174\n        /* \"@openzeppelin/contracts/security/ReentrancyGuard.sol\":1716:1717  1 */\n      0x01\n        /* \"@openzeppelin/contracts/security/ReentrancyGuard.sol\":2809:2816  _status */\n      0x00\n        /* \"@openzeppelin/contracts/security/ReentrancyGuard.sol\":2809:2831  _status = _NOT_ENTERED */\n      sstore\n        /* \"@openzeppelin/contracts/security/ReentrancyGuard.sol\":2629:2838  function _nonReentrantAfter() private {... */\n      jump\n        /* \"contracts/StemPayLotteryManager.sol\":4301:4859  function enterLottery(uint256 _lotteryId) external nonReentrant {... */\n    tag_83:\n        /* \"@openzeppelin/contracts/security/ReentrancyGuard.sol\":2261:2282  _nonReentrantBefore() */\n      tag_232\n        /* \"@openzeppelin/contracts/security/ReentrancyGuard.sol\":2261:2280  _nonReentrantBefore */\n      tag_196\n        /* \"@openzeppelin/contracts/security/ReentrancyGuard.sol\":2261:2282  _nonReentrantBefore() */\n      jump\t// in\n    tag_232:\n        /* \"contracts/StemPayLotteryManager.sol\":4375:4392  Lottery storage l */\n      0x00\n        /* \"contracts/StemPayLotteryManager.sol\":4395:4416  lotteries[_lotteryId] */\n      dup2\n      dup2\n      mstore\n        /* \"contracts/StemPayLotteryManager.sol\":4395:4404  lotteries */\n      0x02\n        /* \"contracts/StemPayLotteryManager.sol\":4395:4416  lotteries[_lotteryId] */\n      0x20\n      mstore\n      0x40\n      swap1\n      keccak256\n        /* \"contracts/StemPayLotteryManager.sol\":4434:4444  l.isActive */\n      0x08\n      dup2\n      add\n      sload\n      0xff\n      and\n        /* \"contracts/StemPayLotteryManager.sol\":4434:4462  l.isActive && !l.isCancelled */\n      dup1\n      iszero\n      tag_234\n      jumpi\n      pop\n        /* \"contracts/StemPayLotteryManager.sol\":4449:4462  l.isCancelled */\n      0x08\n      dup2\n      add\n      sload\n      0x010000\n      swap1\n      div\n      0xff\n      and\n        /* \"contracts/StemPayLotteryManager.sol\":4448:4462  !l.isCancelled */\n      iszero\n        /* \"contracts/StemPayLotteryManager.sol\":4434:4462  l.isActive && !l.isCancelled */\n    tag_234:\n        /* \"contracts/StemPayLotteryManager.sol\":4426:4488  require(l.isActive && !l.isCancelled, \"Inactive or cancelled\") */\n      tag_235\n      jumpi\n      mload(0x40)\n      shl(0xe5, 0x461bcd)\n      dup2\n      mstore\n        /* \"#utility.yul\":12083:12085   */\n      0x20\n        /* \"contracts/StemPayLotteryManager.sol\":4426:4488  require(l.isActive && !l.isCancelled, \"Inactive or cancelled\") */\n      0x04\n      dup3\n      add\n        /* \"#utility.yul\":12065:12086   */\n      mstore\n        /* \"#utility.yul\":12122:12124   */\n      0x15\n        /* \"#utility.yul\":12102:12120   */\n      0x24\n      dup3\n      add\n        /* \"#utility.yul\":12095:12125   */\n      mstore\n      shl(0x5a, 0x125b9858dd1a5d99481bdc8818d85b98d95b1b1959)\n        /* \"#utility.yul\":12141:12159   */\n      0x44\n      dup3\n      add\n        /* \"#utility.yul\":12134:12185   */\n      mstore\n        /* \"#utility.yul\":12202:12220   */\n      0x64\n      add\n        /* \"contracts/StemPayLotteryManager.sol\":4426:4488  require(l.isActive && !l.isCancelled, \"Inactive or cancelled\") */\n      tag_172\n        /* \"#utility.yul\":11881:12226   */\n      jump\n        /* \"contracts/StemPayLotteryManager.sol\":4426:4488  require(l.isActive && !l.isCancelled, \"Inactive or cancelled\") */\n    tag_235:\n        /* \"contracts/StemPayLotteryManager.sol\":4524:4525  l */\n      dup1\n        /* \"contracts/StemPayLotteryManager.sol\":4524:4534  l.drawTime */\n      0x04\n      add\n      sload\n        /* \"contracts/StemPayLotteryManager.sol\":4506:4521  block.timestamp */\n      timestamp\n        /* \"contracts/StemPayLotteryManager.sol\":4506:4534  block.timestamp < l.drawTime */\n      lt\n        /* \"contracts/StemPayLotteryManager.sol\":4498:4547  require(block.timestamp < l.drawTime, \"Too late\") */\n      tag_238\n      jumpi\n      mload(0x40)\n      shl(0xe5, 0x461bcd)\n      dup2\n      mstore\n        /* \"#utility.yul\":12433:12435   */\n      0x20\n        /* \"contracts/StemPayLotteryManager.sol\":4498:4547  require(block.timestamp < l.drawTime, \"Too late\") */\n      0x04\n      dup3\n      add\n        /* \"#utility.yul\":12415:12436   */\n      mstore\n        /* \"#utility.yul\":12472:12473   */\n      0x08\n        /* \"#utility.yul\":12452:12470   */\n      0x24\n      dup3\n      add\n        /* \"#utility.yul\":12445:12474   */\n      mstore\n      shl(0xc0, 0x546f6f206c617465)\n        /* \"#utility.yul\":12490:12508   */\n      0x44\n      dup3\n      add\n        /* \"#utility.yul\":12483:12521   */\n      mstore\n        /* \"#utility.yul\":12538:12556   */\n      0x64\n      add\n        /* \"contracts/StemPayLotteryManager.sol\":4498:4547  require(block.timestamp < l.drawTime, \"Too late\") */\n      tag_172\n        /* \"#utility.yul\":12231:12562   */\n      jump\n        /* \"contracts/StemPayLotteryManager.sol\":4498:4547  require(block.timestamp < l.drawTime, \"Too late\") */\n    tag_238:\n        /* \"contracts/StemPayLotteryManager.sol\":4589:4606  l.maxParticipants */\n      0x03\n      dup2\n      add\n      sload\n        /* \"contracts/StemPayLotteryManager.sol\":4565:4579  l.participants */\n      0x09\n      dup3\n      add\n        /* \"contracts/StemPayLotteryManager.sol\":4565:4586  l.participants.length */\n      sload\n        /* \"contracts/StemPayLotteryManager.sol\":4565:4606  l.participants.length < l.maxParticipants */\n      lt\n        /* \"contracts/StemPayLotteryManager.sol\":4557:4627  require(l.participants.length < l.maxParticipants, \"Max participants\") */\n      tag_241\n      jumpi\n      mload(0x40)\n      shl(0xe5, 0x461bcd)\n      dup2\n      mstore\n        /* \"#utility.yul\":12769:12771   */\n      0x20\n        /* \"contracts/StemPayLotteryManager.sol\":4557:4627  require(l.participants.length < l.maxParticipants, \"Max participants\") */\n      0x04\n      dup3\n      add\n        /* \"#utility.yul\":12751:12772   */\n      mstore\n        /* \"#utility.yul\":12808:12810   */\n      0x10\n        /* \"#utility.yul\":12788:12806   */\n      0x24\n      dup3\n      add\n        /* \"#utility.yul\":12781:12811   */\n      mstore\n      shl(0x80, 0x4d6178207061727469636970616e7473)\n        /* \"#utility.yul\":12827:12845   */\n      0x44\n      dup3\n      add\n        /* \"#utility.yul\":12820:12866   */\n      mstore\n        /* \"#utility.yul\":12883:12901   */\n      0x64\n      add\n        /* \"contracts/StemPayLotteryManager.sol\":4557:4627  require(l.participants.length < l.maxParticipants, \"Max participants\") */\n      tag_172\n        /* \"#utility.yul\":12567:12907   */\n      jump\n        /* \"contracts/StemPayLotteryManager.sol\":4557:4627  require(l.participants.length < l.maxParticipants, \"Max participants\") */\n    tag_241:\n        /* \"contracts/StemPayLotteryManager.sol\":4645:4659  l.tokenAddress */\n      dup1\n      sload\n      0x01\n        /* \"contracts/StemPayLotteryManager.sol\":4701:4719  l.participationFee */\n      dup3\n      add\n      sload\n        /* \"contracts/StemPayLotteryManager.sol\":4638:4720  IERC20(l.tokenAddress).transferFrom(msg.sender, address(this), l.participationFee) */\n      mload(0x40)\n      shl(0xe0, 0x23b872dd)\n      dup2\n      mstore\n        /* \"contracts/StemPayLotteryManager.sol\":4674:4684  msg.sender */\n      caller\n        /* \"contracts/StemPayLotteryManager.sol\":4638:4720  IERC20(l.tokenAddress).transferFrom(msg.sender, address(this), l.participationFee) */\n      0x04\n      dup3\n      add\n        /* \"#utility.yul\":11006:11057   */\n      mstore\n        /* \"contracts/StemPayLotteryManager.sol\":4694:4698  this */\n      address\n        /* \"#utility.yul\":11073:11091   */\n      0x24\n      dup3\n      add\n        /* \"#utility.yul\":11066:11126   */\n      mstore\n        /* \"#utility.yul\":11142:11160   */\n      0x44\n      dup2\n      add\n        /* \"#utility.yul\":11135:11169   */\n      swap2\n      swap1\n      swap2\n      mstore\n      sub(shl(0xa0, 0x01), 0x01)\n        /* \"contracts/StemPayLotteryManager.sol\":4645:4659  l.tokenAddress */\n      swap1\n      swap2\n      and\n      swap1\n        /* \"contracts/StemPayLotteryManager.sol\":4638:4673  IERC20(l.tokenAddress).transferFrom */\n      0x23b872dd\n      swap1\n        /* \"#utility.yul\":10979:10997   */\n      0x64\n      add\n        /* \"contracts/StemPayLotteryManager.sol\":4638:4720  IERC20(l.tokenAddress).transferFrom(msg.sender, address(this), l.participationFee) */\n      0x20\n      mload(0x40)\n      dup1\n      dup4\n      sub\n      dup2\n      0x00\n      dup8\n      gas\n      call\n      iszero\n      dup1\n      iszero\n      tag_246\n      jumpi\n      returndatacopy(0x00, 0x00, returndatasize)\n      revert(0x00, returndatasize)\n    tag_246:\n      pop\n      pop\n      pop\n      pop\n      mload(0x40)\n      returndatasize\n      not(0x1f)\n      0x1f\n      dup3\n      add\n      and\n      dup3\n      add\n      dup1\n      0x40\n      mstore\n      pop\n      dup2\n      add\n      swap1\n      tag_247\n      swap2\n      swap1\n      tag_223\n      jump\t// in\n    tag_247:\n      pop\n        /* \"contracts/StemPayLotteryManager.sol\":4731:4745  l.participants */\n      0x09\n      dup2\n      add\n        /* \"contracts/StemPayLotteryManager.sol\":4731:4762  l.participants.push(msg.sender) */\n      dup1\n      sload\n      0x01\n      dup2\n      add\n      dup3\n      sstore\n      0x00\n      swap2\n      dup3\n      mstore\n      0x20\n      dup1\n      dup4\n      keccak256\n      swap1\n      swap2\n      add\n      dup1\n      sload\n      not(sub(shl(0xa0, 0x01), 0x01))\n      and\n        /* \"contracts/StemPayLotteryManager.sol\":4751:4761  msg.sender */\n      caller\n        /* \"contracts/StemPayLotteryManager.sol\":4731:4762  l.participants.push(msg.sender) */\n      swap1\n      dup2\n      or\n      swap1\n      swap2\n      sstore\n        /* \"contracts/StemPayLotteryManager.sol\":4772:4796  l.entryCount[msg.sender] */\n      dup3\n      mstore\n        /* \"contracts/StemPayLotteryManager.sol\":4772:4784  l.entryCount */\n      0x0c\n      dup4\n      add\n        /* \"contracts/StemPayLotteryManager.sol\":4772:4796  l.entryCount[msg.sender] */\n      swap1\n      mstore\n      0x40\n      dup2\n      keccak256\n        /* \"contracts/StemPayLotteryManager.sol\":4772:4798  l.entryCount[msg.sender]++ */\n      dup1\n      sload\n      swap2\n      tag_249\n      dup4\n      tag_226\n      jump\t// in\n    tag_249:\n      swap1\n      swap2\n      sstore\n      pop\n      pop\n        /* \"contracts/StemPayLotteryManager.sol\":4814:4852  EnteredLottery(_lotteryId, msg.sender) */\n      0x40\n      dup1\n      mload\n        /* \"#utility.yul\":11776:11801   */\n      dup4\n      dup2\n      mstore\n        /* \"contracts/StemPayLotteryManager.sol\":4841:4851  msg.sender */\n      caller\n        /* \"#utility.yul\":11832:11834   */\n      0x20\n        /* \"#utility.yul\":11817:11835   */\n      dup3\n      add\n        /* \"#utility.yul\":11810:11870   */\n      mstore\n        /* \"contracts/StemPayLotteryManager.sol\":4814:4852  EnteredLottery(_lotteryId, msg.sender) */\n      0x1e28857182a3b2bb6fbb88287d1ba8cc3a941dd65d4c977286676d27b877a3d9\n      swap2\n        /* \"#utility.yul\":11749:11767   */\n      add\n        /* \"contracts/StemPayLotteryManager.sol\":4814:4852  EnteredLottery(_lotteryId, msg.sender) */\n      mload(0x40)\n      dup1\n      swap2\n      sub\n      swap1\n      log1\n        /* \"contracts/StemPayLotteryManager.sol\":4365:4859  {... */\n      pop\n        /* \"@openzeppelin/contracts/security/ReentrancyGuard.sol\":2303:2323  _nonReentrantAfter() */\n      tag_251\n        /* \"@openzeppelin/contracts/security/ReentrancyGuard.sol\":1716:1717  1 */\n      0x01\n        /* \"@openzeppelin/contracts/security/ReentrancyGuard.sol\":2809:2816  _status */\n      0x00\n        /* \"@openzeppelin/contracts/security/ReentrancyGuard.sol\":2809:2831  _status = _NOT_ENTERED */\n      sstore\n        /* \"@openzeppelin/contracts/security/ReentrancyGuard.sol\":2629:2838  function _nonReentrantAfter() private {... */\n      jump\n        /* \"@openzeppelin/contracts/security/ReentrancyGuard.sol\":2303:2323  _nonReentrantAfter() */\n    tag_251:\n        /* \"contracts/StemPayLotteryManager.sol\":4301:4859  function enterLottery(uint256 _lotteryId) external nonReentrant {... */\n      pop\n      jump\t// out\n        /* \"contracts/StemPayLotteryManager.sol\":3376:4295  function createLottery(... */\n    tag_88:\n        /* \"@openzeppelin/contracts-upgradeable/access/OwnableUpgradeable.sol\":2334:2347  _checkOwner() */\n      tag_253\n        /* \"@openzeppelin/contracts-upgradeable/access/OwnableUpgradeable.sol\":2334:2345  _checkOwner */\n      tag_254\n        /* \"@openzeppelin/contracts-upgradeable/access/OwnableUpgradeable.sol\":2334:2347  _checkOwner() */\n      jump\t// in\n    tag_253:\n        /* \"contracts/StemPayLotteryManager.sol\":3719:3736  _refundableAmount */\n      dup6\n        /* \"contracts/StemPayLotteryManager.sol\":3698:3715  _participationFee */\n      dup8\n        /* \"contracts/StemPayLotteryManager.sol\":3698:3736  _participationFee >= _refundableAmount */\n      lt\n      iszero\n        /* \"contracts/StemPayLotteryManager.sol\":3690:3754  require(_participationFee >= _refundableAmount, \"Refund <= fee\") */\n      tag_256\n      jumpi\n      mload(0x40)\n      shl(0xe5, 0x461bcd)\n      dup2\n      mstore\n        /* \"#utility.yul\":13114:13116   */\n      0x20\n        /* \"contracts/StemPayLotteryManager.sol\":3690:3754  require(_participationFee >= _refundableAmount, \"Refund <= fee\") */\n      0x04\n      dup3\n      add\n        /* \"#utility.yul\":13096:13117   */\n      mstore\n        /* \"#utility.yul\":13153:13155   */\n      0x0d\n        /* \"#utility.yul\":13133:13151   */\n      0x24\n      dup3\n      add\n        /* \"#utility.yul\":13126:13156   */\n      mstore\n      shl(0x98, 0x526566756e64203c3d20666565)\n        /* \"#utility.yul\":13172:13190   */\n      0x44\n      dup3\n      add\n        /* \"#utility.yul\":13165:13208   */\n      mstore\n        /* \"#utility.yul\":13225:13243   */\n      0x64\n      add\n        /* \"contracts/StemPayLotteryManager.sol\":3690:3754  require(_participationFee >= _refundableAmount, \"Refund <= fee\") */\n      tag_172\n        /* \"#utility.yul\":12912:13249   */\n      jump\n        /* \"contracts/StemPayLotteryManager.sol\":3690:3754  require(_participationFee >= _refundableAmount, \"Refund <= fee\") */\n    tag_256:\n        /* \"contracts/StemPayLotteryManager.sol\":3784:3799  block.timestamp */\n      timestamp\n        /* \"contracts/StemPayLotteryManager.sol\":3772:3781  _drawTime */\n      dup5\n        /* \"contracts/StemPayLotteryManager.sol\":3772:3799  _drawTime > block.timestamp */\n      gt\n        /* \"contracts/StemPayLotteryManager.sol\":3764:3821  require(_drawTime > block.timestamp, \"Invalid draw time\") */\n      tag_259\n      jumpi\n      mload(0x40)\n      shl(0xe5, 0x461bcd)\n      dup2\n      mstore\n        /* \"#utility.yul\":13456:13458   */\n      0x20\n        /* \"contracts/StemPayLotteryManager.sol\":3764:3821  require(_drawTime > block.timestamp, \"Invalid draw time\") */\n      0x04\n      dup3\n      add\n        /* \"#utility.yul\":13438:13459   */\n      mstore\n        /* \"#utility.yul\":13495:13497   */\n      0x11\n        /* \"#utility.yul\":13475:13493   */\n      0x24\n      dup3\n      add\n        /* \"#utility.yul\":13468:13498   */\n      mstore\n      shl(0x78, 0x496e76616c696420647261772074696d65)\n        /* \"#utility.yul\":13514:13532   */\n      0x44\n      dup3\n      add\n        /* \"#utility.yul\":13507:13554   */\n      mstore\n        /* \"#utility.yul\":13571:13589   */\n      0x64\n      add\n        /* \"contracts/StemPayLotteryManager.sol\":3764:3821  require(_drawTime > block.timestamp, \"Invalid draw time\") */\n      tag_172\n        /* \"#utility.yul\":13254:13595   */\n      jump\n        /* \"contracts/StemPayLotteryManager.sol\":3764:3821  require(_drawTime > block.timestamp, \"Invalid draw time\") */\n    tag_259:\n        /* \"contracts/StemPayLotteryManager.sol\":3832:3849  Lottery storage l */\n      0x00\n        /* \"contracts/StemPayLotteryManager.sol\":3852:3861  lotteries */\n      0x02\n        /* \"contracts/StemPayLotteryManager.sol\":3852:3879  lotteries[++lotteryCounter] */\n      0x00\n        /* \"contracts/StemPayLotteryManager.sol\":3864:3878  lotteryCounter */\n      0x03\n      0x00\n        /* \"contracts/StemPayLotteryManager.sol\":3862:3878  ++lotteryCounter */\n      dup2\n      sload\n      tag_262\n      swap1\n      tag_226\n      jump\t// in\n    tag_262:\n      swap2\n      dup3\n      swap1\n      sstore\n      pop\n        /* \"contracts/StemPayLotteryManager.sol\":3852:3879  lotteries[++lotteryCounter] */\n      dup2\n      mstore\n      0x20\n      dup1\n      dup3\n      add\n      swap3\n      swap1\n      swap3\n      mstore\n      0x40\n      swap1\n      dup2\n      add\n      0x00\n      keccak256\n        /* \"contracts/StemPayLotteryManager.sol\":3889:3919  l.tokenAddress = _tokenAddress */\n      dup1\n      sload\n      not(sub(shl(0xa0, 0x01), 0x01))\n      and\n      sub(shl(0xa0, 0x01), 0x01)\n      dup14\n      and\n      or\n      dup2\n      sstore\n      0x01\n        /* \"contracts/StemPayLotteryManager.sol\":3929:3947  l.participationFee */\n      dup1\n      dup3\n      add\n        /* \"contracts/StemPayLotteryManager.sol\":3929:3967  l.participationFee = _participationFee */\n      dup13\n      swap1\n      sstore\n        /* \"contracts/StemPayLotteryManager.sol\":3977:3995  l.refundableAmount */\n      0x02\n      dup3\n      add\n        /* \"contracts/StemPayLotteryManager.sol\":3977:4015  l.refundableAmount = _refundableAmount */\n      dup12\n      swap1\n      sstore\n        /* \"contracts/StemPayLotteryManager.sol\":4025:4042  l.maxParticipants */\n      0x03\n      dup1\n      dup4\n      add\n        /* \"contracts/StemPayLotteryManager.sol\":4025:4061  l.maxParticipants = _maxParticipants */\n      dup12\n      swap1\n      sstore\n        /* \"contracts/StemPayLotteryManager.sol\":4071:4081  l.drawTime */\n      0x04\n      dup4\n      add\n        /* \"contracts/StemPayLotteryManager.sol\":4071:4093  l.drawTime = _drawTime */\n      dup11\n      swap1\n      sstore\n        /* \"contracts/StemPayLotteryManager.sol\":4103:4116  l.prizeAmount */\n      0x05\n      dup4\n      add\n        /* \"contracts/StemPayLotteryManager.sol\":4103:4131  l.prizeAmount = _prizeAmount */\n      dup10\n      swap1\n      sstore\n        /* \"contracts/StemPayLotteryManager.sol\":4141:4158  l.feeToInvestment */\n      0x06\n      dup4\n      add\n        /* \"contracts/StemPayLotteryManager.sol\":4141:4177  l.feeToInvestment = _feeToInvestment */\n      dup9\n      swap1\n      sstore\n        /* \"contracts/StemPayLotteryManager.sol\":4187:4200  l.feeToProfit */\n      0x07\n      dup4\n      add\n        /* \"contracts/StemPayLotteryManager.sol\":4187:4215  l.feeToProfit = _feeToProfit */\n      dup8\n      swap1\n      sstore\n        /* \"contracts/StemPayLotteryManager.sol\":4225:4235  l.isActive */\n      0x08\n      dup4\n      add\n        /* \"contracts/StemPayLotteryManager.sol\":4225:4242  l.isActive = true */\n      dup1\n      sload\n      not(0xff)\n      and\n      swap1\n      swap3\n      or\n      swap1\n      swap2\n      sstore\n        /* \"contracts/StemPayLotteryManager.sol\":4273:4287  lotteryCounter */\n      sload\n        /* \"contracts/StemPayLotteryManager.sol\":4258:4288  LotteryCreated(lotteryCounter) */\n      swap2\n      mload\n        /* \"#utility.yul\":160:185   */\n      swap2\n      dup3\n      mstore\n        /* \"contracts/StemPayLotteryManager.sol\":3852:3879  lotteries[++lotteryCounter] */\n      swap3\n      pop\n        /* \"contracts/StemPayLotteryManager.sol\":4258:4288  LotteryCreated(lotteryCounter) */\n      0x9e0023bebcc752baaa41057318405b5a6a8e9c6372b519717cfdf238e5caa795\n      swap2\n        /* \"#utility.yul\":133:151   */\n      add\n        /* \"contracts/StemPayLotteryManager.sol\":4258:4288  LotteryCreated(lotteryCounter) */\n      mload(0x40)\n      dup1\n      swap2\n      sub\n      swap1\n      log1\n        /* \"contracts/StemPayLotteryManager.sol\":3680:4295  {... */\n      pop\n        /* \"contracts/StemPayLotteryManager.sol\":3376:4295  function createLottery(... */\n      pop\n      pop\n      pop\n      pop\n      pop\n      pop\n      pop\n      pop\n      jump\t// out\n        /* \"contracts/StemPayLotteryManager.sol\":6965:7226  function cancelLottery(uint256 _lotteryId) external onlyOwner {... */\n    tag_92:\n        /* \"@openzeppelin/contracts-upgradeable/access/OwnableUpgradeable.sol\":2334:2347  _checkOwner() */\n      tag_265\n        /* \"@openzeppelin/contracts-upgradeable/access/OwnableUpgradeable.sol\":2334:2345  _checkOwner */\n      tag_254\n        /* \"@openzeppelin/contracts-upgradeable/access/OwnableUpgradeable.sol\":2334:2347  _checkOwner() */\n      jump\t// in\n    tag_265:\n        /* \"contracts/StemPayLotteryManager.sol\":7037:7054  Lottery storage l */\n      0x00\n        /* \"contracts/StemPayLotteryManager.sol\":7057:7078  lotteries[_lotteryId] */\n      dup2\n      dup2\n      mstore\n        /* \"contracts/StemPayLotteryManager.sol\":7057:7066  lotteries */\n      0x02\n        /* \"contracts/StemPayLotteryManager.sol\":7057:7078  lotteries[_lotteryId] */\n      0x20\n      mstore\n      0x40\n      swap1\n      keccak256\n        /* \"contracts/StemPayLotteryManager.sol\":7097:7110  l.isCancelled */\n      0x08\n      dup2\n      add\n      sload\n      0x010000\n      swap1\n      div\n      0xff\n      and\n        /* \"contracts/StemPayLotteryManager.sol\":7096:7110  !l.isCancelled */\n      iszero\n        /* \"contracts/StemPayLotteryManager.sol\":7096:7124  !l.isCancelled && !l.isDrawn */\n      dup1\n      iszero\n      tag_267\n      jumpi\n      pop\n        /* \"contracts/StemPayLotteryManager.sol\":7115:7124  l.isDrawn */\n      0x08\n      dup2\n      add\n      sload\n      0x0100\n      swap1\n      div\n      0xff\n      and\n        /* \"contracts/StemPayLotteryManager.sol\":7114:7124  !l.isDrawn */\n      iszero\n        /* \"contracts/StemPayLotteryManager.sol\":7096:7124  !l.isCancelled && !l.isDrawn */\n    tag_267:\n        /* \"contracts/StemPayLotteryManager.sol\":7088:7146  require(!l.isCancelled && !l.isDrawn, \"Already finalized\") */\n      tag_268\n      jumpi\n      mload(0x40)\n      shl(0xe5, 0x461bcd)\n      dup2\n      mstore\n        /* \"#utility.yul\":13802:13804   */\n      0x20\n        /* \"contracts/StemPayLotteryManager.sol\":7088:7146  require(!l.isCancelled && !l.isDrawn, \"Already finalized\") */\n      0x04\n      dup3\n      add\n        /* \"#utility.yul\":13784:13805   */\n      mstore\n        /* \"#utility.yul\":13841:13843   */\n      0x11\n        /* \"#utility.yul\":13821:13839   */\n      0x24\n      dup3\n      add\n        /* \"#utility.yul\":13814:13844   */\n      mstore\n      shl(0x7a, 0x105b1c9958591e48199a5b985b1a5e9959)\n        /* \"#utility.yul\":13860:13878   */\n      0x44\n      dup3\n      add\n        /* \"#utility.yul\":13853:13900   */\n      mstore\n        /* \"#utility.yul\":13917:13935   */\n      0x64\n      add\n        /* \"contracts/StemPayLotteryManager.sol\":7088:7146  require(!l.isCancelled && !l.isDrawn, \"Already finalized\") */\n      tag_172\n        /* \"#utility.yul\":13600:13941   */\n      jump\n        /* \"contracts/StemPayLotteryManager.sol\":7088:7146  require(!l.isCancelled && !l.isDrawn, \"Already finalized\") */\n    tag_268:\n        /* \"contracts/StemPayLotteryManager.sol\":7156:7169  l.isCancelled */\n      0x08\n      dup2\n      add\n        /* \"contracts/StemPayLotteryManager.sol\":7156:7176  l.isCancelled = true */\n      dup1\n      sload\n      not(0xff0000)\n      and\n      0x010000\n      or\n      swap1\n      sstore\n        /* \"contracts/StemPayLotteryManager.sol\":7191:7219  LotteryCancelled(_lotteryId) */\n      mload(0x40)\n      0xc3dac690cf4c3ae8964f18b8f09f7f9a75d3962a8cbb7cd689df2c291bb5b2dd\n      swap1\n      tag_271\n      swap1\n        /* \"contracts/StemPayLotteryManager.sol\":7208:7218  _lotteryId */\n      dup5\n        /* \"#utility.yul\":160:185   */\n      dup2\n      mstore\n        /* \"#utility.yul\":148:150   */\n      0x20\n        /* \"#utility.yul\":133:151   */\n      add\n      swap1\n        /* \"#utility.yul\":14:191   */\n      jump\n        /* \"contracts/StemPayLotteryManager.sol\":7191:7219  LotteryCancelled(_lotteryId) */\n    tag_271:\n      mload(0x40)\n      dup1\n      swap2\n      sub\n      swap1\n      log1\n        /* \"contracts/StemPayLotteryManager.sol\":7027:7226  {... */\n      pop\n        /* \"contracts/StemPayLotteryManager.sol\":6965:7226  function cancelLottery(uint256 _lotteryId) external onlyOwner {... */\n      pop\n      jump\t// out\n        /* \"@openzeppelin/contracts-upgradeable/proxy/utils/UUPSUpgradeable.sol\":4161:4375  function upgradeToAndCall(address newImplementation, bytes memory data) public payable virtual onlyProxy {... */\n    tag_100:\n        /* \"@openzeppelin/contracts-upgradeable/proxy/utils/UUPSUpgradeable.sol\":2655:2668  _checkProxy() */\n      tag_273\n        /* \"@openzeppelin/contracts-upgradeable/proxy/utils/UUPSUpgradeable.sol\":2655:2666  _checkProxy */\n      tag_274\n        /* \"@openzeppelin/contracts-upgradeable/proxy/utils/UUPSUpgradeable.sol\":2655:2668  _checkProxy() */\n      jump\t// in\n    tag_273:\n        /* \"@openzeppelin/contracts-upgradeable/proxy/utils/UUPSUpgradeable.sol\":4276:4312  _authorizeUpgrade(newImplementation) */\n      tag_276\n        /* \"@openzeppelin/contracts-upgradeable/proxy/utils/UUPSUpgradeable.sol\":4294:4311  newImplementation */\n      dup3\n        /* \"@openzeppelin/contracts-upgradeable/proxy/utils/UUPSUpgradeable.sol\":4276:4293  _authorizeUpgrade */\n      tag_277\n        /* \"@openzeppelin/contracts-upgradeable/proxy/utils/UUPSUpgradeable.sol\":4276:4312  _authorizeUpgrade(newImplementation) */\n      jump\t// in\n    tag_276:\n        /* \"@openzeppelin/contracts-upgradeable/proxy/utils/UUPSUpgradeable.sol\":4322:4368  _upgradeToAndCallUUPS(newImplementation, data) */\n      tag_174\n        /* \"@openzeppelin/contracts-upgradeable/proxy/utils/UUPSUpgradeable.sol\":4344:4361  newImplementation */\n      dup3\n        /* \"@openzeppelin/contracts-upgradeable/proxy/utils/UUPSUpgradeable.sol\":4363:4367  data */\n      dup3\n        /* \"@openzeppelin/contracts-upgradeable/proxy/utils/UUPSUpgradeable.sol\":4322:4343  _upgradeToAndCallUUPS */\n      tag_279\n        /* \"@openzeppelin/contracts-upgradeable/proxy/utils/UUPSUpgradeable.sol\":4322:4368  _upgradeToAndCallUUPS(newImplementation, data) */\n      jump\t// in\n        /* \"@openzeppelin/contracts-upgradeable/proxy/utils/UUPSUpgradeable.sol\":3708:3842  function proxiableUUID() external view virtual notDelegated returns (bytes32) {... */\n    tag_103:\n        /* \"@openzeppelin/contracts-upgradeable/proxy/utils/UUPSUpgradeable.sol\":3777:3784  bytes32 */\n      0x00\n        /* \"@openzeppelin/contracts-upgradeable/proxy/utils/UUPSUpgradeable.sol\":2926:2946  _checkNotDelegated() */\n      tag_281\n        /* \"@openzeppelin/contracts-upgradeable/proxy/utils/UUPSUpgradeable.sol\":2926:2944  _checkNotDelegated */\n      tag_282\n        /* \"@openzeppelin/contracts-upgradeable/proxy/utils/UUPSUpgradeable.sol\":2926:2946  _checkNotDelegated() */\n      jump\t// in\n    tag_281:\n      pop\n      mload(0x00)\n      codecopy(0x00, data_75b20eef8615de99c108b05f0dbda081c91897128caa336d75dffb97c4132b4d, 0x20)\n      mload(0x00)\n      swap1\n      0x00\n      mstore\n        /* \"@openzeppelin/contracts-upgradeable/proxy/utils/UUPSUpgradeable.sol\":3708:3842  function proxiableUUID() external view virtual notDelegated returns (bytes32) {... */\n      swap1\n      jump\t// out\n        /* \"contracts/StemPayLotteryManager.sol\":7232:7744  function claimRefund(uint256 _lotteryId) external nonReentrant {... */\n    tag_109:\n        /* \"@openzeppelin/contracts/security/ReentrancyGuard.sol\":2261:2282  _nonReentrantBefore() */\n      tag_285\n        /* \"@openzeppelin/contracts/security/ReentrancyGuard.sol\":2261:2280  _nonReentrantBefore */\n      tag_196\n        /* \"@openzeppelin/contracts/security/ReentrancyGuard.sol\":2261:2282  _nonReentrantBefore() */\n      jump\t// in\n    tag_285:\n        /* \"contracts/StemPayLotteryManager.sol\":7305:7322  Lottery storage l */\n      0x00\n        /* \"contracts/StemPayLotteryManager.sol\":7325:7346  lotteries[_lotteryId] */\n      dup2\n      dup2\n      mstore\n        /* \"contracts/StemPayLotteryManager.sol\":7325:7334  lotteries */\n      0x02\n        /* \"contracts/StemPayLotteryManager.sol\":7325:7346  lotteries[_lotteryId] */\n      0x20\n      mstore\n      0x40\n      swap1\n      keccak256\n        /* \"contracts/StemPayLotteryManager.sol\":7364:7377  l.isCancelled */\n      0x08\n      dup2\n      add\n      sload\n      0x010000\n      swap1\n      div\n      0xff\n      and\n      dup1\n        /* \"contracts/StemPayLotteryManager.sol\":7364:7418  l.isCancelled || (l.isDrawn && l.winner != msg.sender) */\n      tag_288\n      jumpi\n      pop\n        /* \"contracts/StemPayLotteryManager.sol\":7382:7391  l.isDrawn */\n      0x08\n      dup2\n      add\n      sload\n      0x0100\n      swap1\n      div\n      0xff\n      and\n        /* \"contracts/StemPayLotteryManager.sol\":7382:7417  l.isDrawn && l.winner != msg.sender */\n      dup1\n      iszero\n      tag_288\n      jumpi\n      pop\n        /* \"contracts/StemPayLotteryManager.sol\":7395:7403  l.winner */\n      0x0a\n      dup2\n      add\n      sload\n      sub(shl(0xa0, 0x01), 0x01)\n      and\n        /* \"contracts/StemPayLotteryManager.sol\":7407:7417  msg.sender */\n      caller\n        /* \"contracts/StemPayLotteryManager.sol\":7395:7417  l.winner != msg.sender */\n      eq\n      iszero\n        /* \"contracts/StemPayLotteryManager.sol\":7382:7417  l.isDrawn && l.winner != msg.sender */\n    tag_288:\n        /* \"contracts/StemPayLotteryManager.sol\":7356:7435  require(l.isCancelled || (l.isDrawn && l.winner != msg.sender), \"Not eligible\") */\n      tag_289\n      jumpi\n      mload(0x40)\n      shl(0xe5, 0x461bcd)\n      dup2\n      mstore\n        /* \"#utility.yul\":14148:14150   */\n      0x20\n        /* \"contracts/StemPayLotteryManager.sol\":7356:7435  require(l.isCancelled || (l.isDrawn && l.winner != msg.sender), \"Not eligible\") */\n      0x04\n      dup3\n      add\n        /* \"#utility.yul\":14130:14151   */\n      mstore\n        /* \"#utility.yul\":14187:14189   */\n      0x0c\n        /* \"#utility.yul\":14167:14185   */\n      0x24\n      dup3\n      add\n        /* \"#utility.yul\":14160:14190   */\n      mstore\n      shl(0xa0, 0x4e6f7420656c696769626c65)\n        /* \"#utility.yul\":14206:14224   */\n      0x44\n      dup3\n      add\n        /* \"#utility.yul\":14199:14241   */\n      mstore\n        /* \"#utility.yul\":14258:14276   */\n      0x64\n      add\n        /* \"contracts/StemPayLotteryManager.sol\":7356:7435  require(l.isCancelled || (l.isDrawn && l.winner != msg.sender), \"Not eligible\") */\n      tag_172\n        /* \"#utility.yul\":13946:14282   */\n      jump\n        /* \"contracts/StemPayLotteryManager.sol\":7356:7435  require(l.isCancelled || (l.isDrawn && l.winner != msg.sender), \"Not eligible\") */\n    tag_289:\n        /* \"contracts/StemPayLotteryManager.sol\":7468:7478  msg.sender */\n      caller\n        /* \"contracts/StemPayLotteryManager.sol\":7454:7479  l.hasRefunded[msg.sender] */\n      0x00\n      swap1\n      dup2\n      mstore\n        /* \"contracts/StemPayLotteryManager.sol\":7454:7467  l.hasRefunded */\n      0x0e\n      dup3\n      add\n        /* \"contracts/StemPayLotteryManager.sol\":7454:7479  l.hasRefunded[msg.sender] */\n      0x20\n      mstore\n      0x40\n      swap1\n      keccak256\n      sload\n      0xff\n      and\n        /* \"contracts/StemPayLotteryManager.sol\":7453:7479  !l.hasRefunded[msg.sender] */\n      iszero\n        /* \"contracts/StemPayLotteryManager.sol\":7445:7500  require(!l.hasRefunded[msg.sender], \"Already refunded\") */\n      tag_292\n      jumpi\n      mload(0x40)\n      shl(0xe5, 0x461bcd)\n      dup2\n      mstore\n        /* \"#utility.yul\":14489:14491   */\n      0x20\n        /* \"contracts/StemPayLotteryManager.sol\":7445:7500  require(!l.hasRefunded[msg.sender], \"Already refunded\") */\n      0x04\n      dup3\n      add\n        /* \"#utility.yul\":14471:14492   */\n      mstore\n        /* \"#utility.yul\":14528:14530   */\n      0x10\n        /* \"#utility.yul\":14508:14526   */\n      0x24\n      dup3\n      add\n        /* \"#utility.yul\":14501:14531   */\n      mstore\n      shl(0x82, 0x105b1c9958591e481c99599d5b991959)\n        /* \"#utility.yul\":14547:14565   */\n      0x44\n      dup3\n      add\n        /* \"#utility.yul\":14540:14586   */\n      mstore\n        /* \"#utility.yul\":14603:14621   */\n      0x64\n      add\n        /* \"contracts/StemPayLotteryManager.sol\":7445:7500  require(!l.hasRefunded[msg.sender], \"Already refunded\") */\n      tag_172\n        /* \"#utility.yul\":14287:14627   */\n      jump\n        /* \"contracts/StemPayLotteryManager.sol\":7445:7500  require(!l.hasRefunded[msg.sender], \"Already refunded\") */\n    tag_292:\n        /* \"contracts/StemPayLotteryManager.sol\":7531:7541  msg.sender */\n      caller\n        /* \"contracts/StemPayLotteryManager.sol\":7545:7546  0 */\n      0x00\n        /* \"contracts/StemPayLotteryManager.sol\":7518:7542  l.entryCount[msg.sender] */\n      swap1\n      dup2\n      mstore\n        /* \"contracts/StemPayLotteryManager.sol\":7518:7530  l.entryCount */\n      0x0c\n      dup3\n      add\n        /* \"contracts/StemPayLotteryManager.sol\":7518:7542  l.entryCount[msg.sender] */\n      0x20\n      mstore\n      0x40\n      swap1\n      keccak256\n      sload\n        /* \"contracts/StemPayLotteryManager.sol\":7510:7561  require(l.entryCount[msg.sender] > 0, \"No entries\") */\n      tag_295\n      jumpi\n      mload(0x40)\n      shl(0xe5, 0x461bcd)\n      dup2\n      mstore\n        /* \"#utility.yul\":14834:14836   */\n      0x20\n        /* \"contracts/StemPayLotteryManager.sol\":7510:7561  require(l.entryCount[msg.sender] > 0, \"No entries\") */\n      0x04\n      dup3\n      add\n        /* \"#utility.yul\":14816:14837   */\n      mstore\n        /* \"#utility.yul\":14873:14875   */\n      0x0a\n        /* \"#utility.yul\":14853:14871   */\n      0x24\n      dup3\n      add\n        /* \"#utility.yul\":14846:14876   */\n      mstore\n      shl(0xb0, 0x4e6f20656e7472696573)\n        /* \"#utility.yul\":14892:14910   */\n      0x44\n      dup3\n      add\n        /* \"#utility.yul\":14885:14925   */\n      mstore\n        /* \"#utility.yul\":14942:14960   */\n      0x64\n      add\n        /* \"contracts/StemPayLotteryManager.sol\":7510:7561  require(l.entryCount[msg.sender] > 0, \"No entries\") */\n      tag_172\n        /* \"#utility.yul\":14632:14966   */\n      jump\n        /* \"contracts/StemPayLotteryManager.sol\":7510:7561  require(l.entryCount[msg.sender] > 0, \"No entries\") */\n    tag_295:\n        /* \"contracts/StemPayLotteryManager.sol\":7586:7596  msg.sender */\n      caller\n        /* \"contracts/StemPayLotteryManager.sol\":7572:7597  l.hasRefunded[msg.sender] */\n      0x00\n      swap1\n      dup2\n      mstore\n        /* \"contracts/StemPayLotteryManager.sol\":7572:7585  l.hasRefunded */\n      0x0e\n      dup3\n      add\n        /* \"contracts/StemPayLotteryManager.sol\":7572:7597  l.hasRefunded[msg.sender] */\n      0x20\n      swap1\n      dup2\n      mstore\n      0x40\n      dup1\n      dup4\n      keccak256\n        /* \"contracts/StemPayLotteryManager.sol\":7572:7604  l.hasRefunded[msg.sender] = true */\n      dup1\n      sload\n      not(0xff)\n      and\n        /* \"contracts/StemPayLotteryManager.sol\":7600:7604  true */\n      0x01\n        /* \"contracts/StemPayLotteryManager.sol\":7572:7604  l.hasRefunded[msg.sender] = true */\n      or\n      swap1\n      sstore\n        /* \"contracts/StemPayLotteryManager.sol\":7652:7664  l.entryCount */\n      0x0c\n      dup5\n      add\n        /* \"contracts/StemPayLotteryManager.sol\":7652:7676  l.entryCount[msg.sender] */\n      swap1\n      swap2\n      mstore\n      dup2\n      keccak256\n      sload\n        /* \"contracts/StemPayLotteryManager.sol\":7631:7649  l.refundableAmount */\n      0x02\n      dup4\n      add\n      sload\n        /* \"contracts/StemPayLotteryManager.sol\":7631:7676  l.refundableAmount * l.entryCount[msg.sender] */\n      tag_298\n      swap2\n        /* \"contracts/StemPayLotteryManager.sol\":7652:7676  l.entryCount[msg.sender] */\n      swap1\n        /* \"contracts/StemPayLotteryManager.sol\":7631:7676  l.refundableAmount * l.entryCount[msg.sender] */\n      tag_299\n      jump\t// in\n    tag_298:\n        /* \"contracts/StemPayLotteryManager.sol\":7693:7707  l.tokenAddress */\n      dup3\n      sload\n        /* \"contracts/StemPayLotteryManager.sol\":7686:7737  IERC20(l.tokenAddress).transfer(msg.sender, amount) */\n      mload(0x40)\n      shl(0xe0, 0xa9059cbb)\n      dup2\n      mstore\n        /* \"contracts/StemPayLotteryManager.sol\":7718:7728  msg.sender */\n      caller\n        /* \"contracts/StemPayLotteryManager.sol\":7686:7737  IERC20(l.tokenAddress).transfer(msg.sender, amount) */\n      0x04\n      dup3\n      add\n        /* \"#utility.yul\":15318:15369   */\n      mstore\n        /* \"#utility.yul\":15385:15403   */\n      0x24\n      dup2\n      add\n        /* \"#utility.yul\":15378:15412   */\n      dup4\n      swap1\n      mstore\n        /* \"contracts/StemPayLotteryManager.sol\":7614:7676  uint256 amount = l.refundableAmount * l.entryCount[msg.sender] */\n      swap2\n      swap3\n      pop\n      sub(shl(0xa0, 0x01), 0x01)\n        /* \"contracts/StemPayLotteryManager.sol\":7693:7707  l.tokenAddress */\n      and\n      swap1\n        /* \"contracts/StemPayLotteryManager.sol\":7686:7717  IERC20(l.tokenAddress).transfer */\n      0xa9059cbb\n      swap1\n        /* \"#utility.yul\":15291:15309   */\n      0x44\n      add\n        /* \"contracts/StemPayLotteryManager.sol\":7686:7737  IERC20(l.tokenAddress).transfer(msg.sender, amount) */\n      0x20\n      mload(0x40)\n      dup1\n      dup4\n      sub\n      dup2\n      0x00\n      dup8\n      gas\n      call\n      iszero\n      dup1\n      iszero\n      tag_303\n      jumpi\n      returndatacopy(0x00, 0x00, returndatasize)\n      revert(0x00, returndatasize)\n    tag_303:\n      pop\n      pop\n      pop\n      pop\n      mload(0x40)\n      returndatasize\n      not(0x1f)\n      0x1f\n      dup3\n      add\n      and\n      dup3\n      add\n      dup1\n      0x40\n      mstore\n      pop\n      dup2\n      add\n      swap1\n      tag_304\n      swap2\n      swap1\n      tag_223\n      jump\t// in\n    tag_304:\n      pop\n        /* \"contracts/StemPayLotteryManager.sol\":7295:7744  {... */\n      pop\n      pop\n        /* \"@openzeppelin/contracts/security/ReentrancyGuard.sol\":2303:2323  _nonReentrantAfter() */\n      tag_251\n        /* \"@openzeppelin/contracts/security/ReentrancyGuard.sol\":1716:1717  1 */\n      0x01\n        /* \"@openzeppelin/contracts/security/ReentrancyGuard.sol\":2809:2816  _status */\n      0x00\n        /* \"@openzeppelin/contracts/security/ReentrancyGuard.sol\":2809:2831  _status = _NOT_ENTERED */\n      sstore\n        /* \"@openzeppelin/contracts/security/ReentrancyGuard.sol\":2629:2838  function _nonReentrantAfter() private {... */\n      jump\n        /* \"contracts/StemPayLotteryManager.sol\":5328:6314  function drawWinner(uint256 _lotteryId) external onlyOwner {... */\n    tag_113:\n        /* \"@openzeppelin/contracts-upgradeable/access/OwnableUpgradeable.sol\":2334:2347  _checkOwner() */\n      tag_307\n        /* \"@openzeppelin/contracts-upgradeable/access/OwnableUpgradeable.sol\":2334:2345  _checkOwner */\n      tag_254\n        /* \"@openzeppelin/contracts-upgradeable/access/OwnableUpgradeable.sol\":2334:2347  _checkOwner() */\n      jump\t// in\n    tag_307:\n        /* \"contracts/StemPayLotteryManager.sol\":5397:5414  Lottery storage l */\n      0x00\n        /* \"contracts/StemPayLotteryManager.sol\":5417:5438  lotteries[_lotteryId] */\n      dup2\n      dup2\n      mstore\n        /* \"contracts/StemPayLotteryManager.sol\":5417:5426  lotteries */\n      0x02\n        /* \"contracts/StemPayLotteryManager.sol\":5417:5438  lotteries[_lotteryId] */\n      0x20\n      mstore\n      0x40\n      swap1\n      keccak256\n        /* \"contracts/StemPayLotteryManager.sol\":5475:5485  l.drawTime */\n      0x04\n      dup2\n      add\n      sload\n        /* \"contracts/StemPayLotteryManager.sol\":5456:5471  block.timestamp */\n      timestamp\n        /* \"contracts/StemPayLotteryManager.sol\":5456:5485  block.timestamp >= l.drawTime */\n      lt\n      iszero\n        /* \"contracts/StemPayLotteryManager.sol\":5448:5499  require(block.timestamp >= l.drawTime, \"Too early\") */\n      tag_309\n      jumpi\n      mload(0x40)\n      shl(0xe5, 0x461bcd)\n      dup2\n      mstore\n        /* \"#utility.yul\":15625:15627   */\n      0x20\n        /* \"contracts/StemPayLotteryManager.sol\":5448:5499  require(block.timestamp >= l.drawTime, \"Too early\") */\n      0x04\n      dup3\n      add\n        /* \"#utility.yul\":15607:15628   */\n      mstore\n        /* \"#utility.yul\":15664:15665   */\n      0x09\n        /* \"#utility.yul\":15644:15662   */\n      0x24\n      dup3\n      add\n        /* \"#utility.yul\":15637:15666   */\n      mstore\n      shl(0xb8, 0x546f6f206561726c79)\n        /* \"#utility.yul\":15682:15700   */\n      0x44\n      dup3\n      add\n        /* \"#utility.yul\":15675:15714   */\n      mstore\n        /* \"#utility.yul\":15731:15749   */\n      0x64\n      add\n        /* \"contracts/StemPayLotteryManager.sol\":5448:5499  require(block.timestamp >= l.drawTime, \"Too early\") */\n      tag_172\n        /* \"#utility.yul\":15423:15755   */\n      jump\n        /* \"contracts/StemPayLotteryManager.sol\":5448:5499  require(block.timestamp >= l.drawTime, \"Too early\") */\n    tag_309:\n        /* \"contracts/StemPayLotteryManager.sol\":5518:5527  l.isDrawn */\n      0x08\n      dup2\n      add\n      sload\n      0x0100\n      swap1\n      div\n      0xff\n      and\n        /* \"contracts/StemPayLotteryManager.sol\":5517:5527  !l.isDrawn */\n      iszero\n        /* \"contracts/StemPayLotteryManager.sol\":5517:5545  !l.isDrawn && !l.isCancelled */\n      dup1\n      iszero\n      tag_312\n      jumpi\n      pop\n        /* \"contracts/StemPayLotteryManager.sol\":5532:5545  l.isCancelled */\n      0x08\n      dup2\n      add\n      sload\n      0x010000\n      swap1\n      div\n      0xff\n      and\n        /* \"contracts/StemPayLotteryManager.sol\":5531:5545  !l.isCancelled */\n      iszero\n        /* \"contracts/StemPayLotteryManager.sol\":5517:5545  !l.isDrawn && !l.isCancelled */\n    tag_312:\n        /* \"contracts/StemPayLotteryManager.sol\":5509:5576  require(!l.isDrawn && !l.isCancelled, \"Already drawn or cancelled\") */\n      tag_313\n      jumpi\n      mload(0x40)\n      shl(0xe5, 0x461bcd)\n      dup2\n      mstore\n        /* \"#utility.yul\":15962:15964   */\n      0x20\n        /* \"contracts/StemPayLotteryManager.sol\":5509:5576  require(!l.isDrawn && !l.isCancelled, \"Already drawn or cancelled\") */\n      0x04\n      dup3\n      add\n        /* \"#utility.yul\":15944:15965   */\n      mstore\n        /* \"#utility.yul\":16001:16003   */\n      0x1a\n        /* \"#utility.yul\":15981:15999   */\n      0x24\n      dup3\n      add\n        /* \"#utility.yul\":15974:16004   */\n      mstore\n        /* \"#utility.yul\":16040:16068   */\n      0x416c726561647920647261776e206f722063616e63656c6c6564000000000000\n        /* \"#utility.yul\":16020:16038   */\n      0x44\n      dup3\n      add\n        /* \"#utility.yul\":16013:16069   */\n      mstore\n        /* \"#utility.yul\":16086:16104   */\n      0x64\n      add\n        /* \"contracts/StemPayLotteryManager.sol\":5509:5576  require(!l.isDrawn && !l.isCancelled, \"Already drawn or cancelled\") */\n      tag_172\n        /* \"#utility.yul\":15760:16110   */\n      jump\n        /* \"contracts/StemPayLotteryManager.sol\":5509:5576  require(!l.isDrawn && !l.isCancelled, \"Already drawn or cancelled\") */\n    tag_313:\n        /* \"contracts/StemPayLotteryManager.sol\":5594:5608  l.participants */\n      0x09\n      dup2\n      add\n        /* \"contracts/StemPayLotteryManager.sol\":5594:5615  l.participants.length */\n      sload\n        /* \"contracts/StemPayLotteryManager.sol\":5586:5639  require(l.participants.length > 0, \"No participants\") */\n      tag_316\n      jumpi\n      mload(0x40)\n      shl(0xe5, 0x461bcd)\n      dup2\n      mstore\n        /* \"#utility.yul\":16317:16319   */\n      0x20\n        /* \"contracts/StemPayLotteryManager.sol\":5586:5639  require(l.participants.length > 0, \"No participants\") */\n      0x04\n      dup3\n      add\n        /* \"#utility.yul\":16299:16320   */\n      mstore\n        /* \"#utility.yul\":16356:16358   */\n      0x0f\n        /* \"#utility.yul\":16336:16354   */\n      0x24\n      dup3\n      add\n        /* \"#utility.yul\":16329:16359   */\n      mstore\n      shl(0x88, 0x4e6f207061727469636970616e7473)\n        /* \"#utility.yul\":16375:16393   */\n      0x44\n      dup3\n      add\n        /* \"#utility.yul\":16368:16413   */\n      mstore\n        /* \"#utility.yul\":16430:16448   */\n      0x64\n      add\n        /* \"contracts/StemPayLotteryManager.sol\":5586:5639  require(l.participants.length > 0, \"No participants\") */\n      tag_172\n        /* \"#utility.yul\":16115:16454   */\n      jump\n        /* \"contracts/StemPayLotteryManager.sol\":5586:5639  require(l.participants.length > 0, \"No participants\") */\n    tag_316:\n        /* \"contracts/StemPayLotteryManager.sol\":5692:5706  vrfCoordinator */\n      sload(0x09)\n        /* \"contracts/StemPayLotteryManager.sol\":5740:6161  VRFV2PlusClient.RandomWordsRequest({... */\n      0x40\n      dup1\n      mload\n      0xc0\n      dup2\n      add\n      dup3\n      mstore\n        /* \"contracts/StemPayLotteryManager.sol\":5802:5809  keyHash */\n      sload(0x06)\n        /* \"contracts/StemPayLotteryManager.sol\":5740:6161  VRFV2PlusClient.RandomWordsRequest({... */\n      dup2\n      mstore\n        /* \"contracts/StemPayLotteryManager.sol\":5834:5848  subscriptionId */\n      sload(0x08)\n        /* \"contracts/StemPayLotteryManager.sol\":5740:6161  VRFV2PlusClient.RandomWordsRequest({... */\n      0x20\n      dup1\n      dup4\n      add\n      swap2\n      swap1\n      swap2\n      mstore\n        /* \"contracts/StemPayLotteryManager.sol\":5888:5908  requestConfirmations */\n      sload(0x07)\n      0xffff\n      0x0100000000\n      dup3\n      div\n      and\n        /* \"contracts/StemPayLotteryManager.sol\":5740:6161  VRFV2PlusClient.RandomWordsRequest({... */\n      dup4\n      dup6\n      add\n      mstore\n        /* \"contracts/StemPayLotteryManager.sol\":5944:5960  callbackGasLimit */\n      0xffffffff\n      dup1\n      dup3\n      and\n        /* \"contracts/StemPayLotteryManager.sol\":5740:6161  VRFV2PlusClient.RandomWordsRequest({... */\n      0x60\n      dup6\n      add\n      mstore\n        /* \"contracts/StemPayLotteryManager.sol\":5988:5996  numWords */\n      0x01000000000000\n      swap1\n      swap2\n      div\n      and\n        /* \"contracts/StemPayLotteryManager.sol\":5740:6161  VRFV2PlusClient.RandomWordsRequest({... */\n      0x80\n      dup4\n      add\n      mstore\n        /* \"contracts/StemPayLotteryManager.sol\":6075:6128  VRFV2PlusClient.ExtraArgsV1({ nativePayment: false }) */\n      dup3\n      mload\n      swap1\n      dup2\n      add\n      swap1\n      swap3\n      mstore\n        /* \"contracts/StemPayLotteryManager.sol\":5650:5667  uint256 requestId */\n      0x00\n        /* \"contracts/StemPayLotteryManager.sol\":6075:6128  VRFV2PlusClient.ExtraArgsV1({ nativePayment: false }) */\n      dup1\n      dup4\n      mstore\n        /* \"contracts/StemPayLotteryManager.sol\":5650:5667  uint256 requestId */\n      swap3\n      sub(shl(0xa0, 0x01), 0x01)\n        /* \"contracts/StemPayLotteryManager.sol\":5692:5706  vrfCoordinator */\n      and\n      swap2\n        /* \"contracts/StemPayLotteryManager.sol\":5670:5726  IVRFCoordinatorV2Plus(vrfCoordinator).requestRandomWords */\n      0x9b1c385e\n      swap2\n        /* \"contracts/StemPayLotteryManager.sol\":5740:6161  VRFV2PlusClient.RandomWordsRequest({... */\n      swap1\n      0xa0\n      dup3\n      add\n      swap1\n        /* \"contracts/StemPayLotteryManager.sol\":6025:6146  VRFV2PlusClient._argsToBytes(... */\n      tag_319\n      swap1\n        /* \"contracts/StemPayLotteryManager.sol\":6025:6053  VRFV2PlusClient._argsToBytes */\n      tag_320\n        /* \"contracts/StemPayLotteryManager.sol\":6025:6146  VRFV2PlusClient._argsToBytes(... */\n      jump\t// in\n    tag_319:\n        /* \"contracts/StemPayLotteryManager.sol\":5740:6161  VRFV2PlusClient.RandomWordsRequest({... */\n      dup2\n      mstore\n      pop\n        /* \"contracts/StemPayLotteryManager.sol\":5670:6171  IVRFCoordinatorV2Plus(vrfCoordinator).requestRandomWords(... */\n      mload(0x40)\n      dup3\n      0xffffffff\n      and\n      0xe0\n      shl\n      dup2\n      mstore\n      0x04\n      add\n      tag_321\n      swap2\n      swap1\n      tag_322\n      jump\t// in\n    tag_321:\n      0x20\n      mload(0x40)\n      dup1\n      dup4\n      sub\n      dup2\n      0x00\n      dup8\n      gas\n      call\n      iszero\n      dup1\n      iszero\n      tag_324\n      jumpi\n      returndatacopy(0x00, 0x00, returndatasize)\n      revert(0x00, returndatasize)\n    tag_324:\n      pop\n      pop\n      pop\n      pop\n      mload(0x40)\n      returndatasize\n      not(0x1f)\n      0x1f\n      dup3\n      add\n      and\n      dup3\n      add\n      dup1\n      0x40\n      mstore\n      pop\n      dup2\n      add\n      swap1\n      tag_325\n      swap2\n      swap1\n      tag_326\n      jump\t// in\n    tag_325:\n        /* \"contracts/StemPayLotteryManager.sol\":6182:6209  requestToLottery[requestId] */\n      0x00\n      dup2\n      dup2\n      mstore\n        /* \"contracts/StemPayLotteryManager.sol\":6182:6198  requestToLottery */\n      0x0a\n        /* \"contracts/StemPayLotteryManager.sol\":6182:6209  requestToLottery[requestId] */\n      0x20\n      mstore\n      0x40\n      swap1\n      dup2\n      swap1\n      keccak256\n        /* \"contracts/StemPayLotteryManager.sol\":6182:6222  requestToLottery[requestId] = _lotteryId */\n      dup6\n      swap1\n      sstore\n        /* \"contracts/StemPayLotteryManager.sol\":6232:6241  l.isDrawn */\n      0x08\n      dup5\n      add\n        /* \"contracts/StemPayLotteryManager.sol\":6232:6248  l.isDrawn = true */\n      dup1\n      sload\n      not(0xff00)\n      and\n      0x0100\n      or\n      swap1\n      sstore\n        /* \"contracts/StemPayLotteryManager.sol\":6264:6307  LotteryDrawRequested(_lotteryId, requestId) */\n      mload\n        /* \"contracts/StemPayLotteryManager.sol\":5650:6171  uint256 requestId = IVRFCoordinatorV2Plus(vrfCoordinator).requestRandomWords(... */\n      swap1\n      swap2\n      pop\n        /* \"contracts/StemPayLotteryManager.sol\":6264:6307  LotteryDrawRequested(_lotteryId, requestId) */\n      0x600253eae67a5c51c82a7123372e8644f16009c6304e18f844cf86fdc40c24d7\n      swap1\n      tag_327\n      swap1\n        /* \"contracts/StemPayLotteryManager.sol\":6212:6222  _lotteryId */\n      dup6\n      swap1\n        /* \"contracts/StemPayLotteryManager.sol\":5650:6171  uint256 requestId = IVRFCoordinatorV2Plus(vrfCoordinator).requestRandomWords(... */\n      dup5\n      swap1\n        /* \"#utility.yul\":17535:17560   */\n      swap2\n      dup3\n      mstore\n        /* \"#utility.yul\":17591:17593   */\n      0x20\n        /* \"#utility.yul\":17576:17594   */\n      dup3\n      add\n        /* \"#utility.yul\":17569:17603   */\n      mstore\n        /* \"#utility.yul\":17523:17525   */\n      0x40\n        /* \"#utility.yul\":17508:17526   */\n      add\n      swap1\n        /* \"#utility.yul\":17361:17609   */\n      jump\n        /* \"contracts/StemPayLotteryManager.sol\":6264:6307  LotteryDrawRequested(_lotteryId, requestId) */\n    tag_327:\n      mload(0x40)\n      dup1\n      swap2\n      sub\n      swap1\n      log1\n        /* \"contracts/StemPayLotteryManager.sol\":5387:6314  {... */\n      pop\n      pop\n        /* \"contracts/StemPayLotteryManager.sol\":5328:6314  function drawWinner(uint256 _lotteryId) external onlyOwner {... */\n      pop\n      jump\t// out\n        /* \"@openzeppelin/contracts-upgradeable/access/OwnableUpgradeable.sol\":3155:3256  function renounceOwnership() public virtual onlyOwner {... */\n    tag_120:\n        /* \"@openzeppelin/contracts-upgradeable/access/OwnableUpgradeable.sol\":2334:2347  _checkOwner() */\n      tag_330\n        /* \"@openzeppelin/contracts-upgradeable/access/OwnableUpgradeable.sol\":2334:2345  _checkOwner */\n      tag_254\n        /* \"@openzeppelin/contracts-upgradeable/access/OwnableUpgradeable.sol\":2334:2347  _checkOwner() */\n      jump\t// in\n    tag_330:\n        /* \"@openzeppelin/contracts-upgradeable/access/OwnableUpgradeable.sol\":3219:3249  _transferOwnership(address(0)) */\n      tag_332\n        /* \"@openzeppelin/contracts-upgradeable/access/OwnableUpgradeable.sol\":3246:3247  0 */\n      0x00\n        /* \"@openzeppelin/contracts-upgradeable/access/OwnableUpgradeable.sol\":3219:3237  _transferOwnership */\n      tag_333\n        /* \"@openzeppelin/contracts-upgradeable/access/OwnableUpgradeable.sol\":3219:3249  _transferOwnership(address(0)) */\n      jump\t// in\n    tag_332:\n        /* \"@openzeppelin/contracts-upgradeable/access/OwnableUpgradeable.sol\":3155:3256  function renounceOwnership() public virtual onlyOwner {... */\n      jump\t// out\n        /* \"contracts/StemPayLotteryManager.sol\":4865:5322  function voteCancel(uint256 _lotteryId) external {... */\n    tag_128:\n        /* \"contracts/StemPayLotteryManager.sol\":4924:4941  Lottery storage l */\n      0x00\n        /* \"contracts/StemPayLotteryManager.sol\":4944:4965  lotteries[_lotteryId] */\n      dup2\n      dup2\n      mstore\n        /* \"contracts/StemPayLotteryManager.sol\":4944:4953  lotteries */\n      0x02\n        /* \"contracts/StemPayLotteryManager.sol\":4944:4965  lotteries[_lotteryId] */\n      0x20\n      swap1\n      dup2\n      mstore\n      0x40\n      dup1\n      dup4\n      keccak256\n        /* \"contracts/StemPayLotteryManager.sol\":5001:5011  msg.sender */\n      caller\n        /* \"contracts/StemPayLotteryManager.sol\":4984:5012  l.hasVotedCancel[msg.sender] */\n      dup5\n      mstore\n        /* \"contracts/StemPayLotteryManager.sol\":4984:5000  l.hasVotedCancel */\n      0x0f\n      dup2\n      add\n        /* \"contracts/StemPayLotteryManager.sol\":4984:5012  l.hasVotedCancel[msg.sender] */\n      swap1\n      swap3\n      mstore\n      swap1\n      swap2\n      keccak256\n      sload\n      0xff\n      and\n        /* \"contracts/StemPayLotteryManager.sol\":4983:5012  !l.hasVotedCancel[msg.sender] */\n      iszero\n        /* \"contracts/StemPayLotteryManager.sol\":4975:5030  require(!l.hasVotedCancel[msg.sender], \"Already voted\") */\n      tag_335\n      jumpi\n      mload(0x40)\n      shl(0xe5, 0x461bcd)\n      dup2\n      mstore\n        /* \"#utility.yul\":17816:17818   */\n      0x20\n        /* \"contracts/StemPayLotteryManager.sol\":4975:5030  require(!l.hasVotedCancel[msg.sender], \"Already voted\") */\n      0x04\n      dup3\n      add\n        /* \"#utility.yul\":17798:17819   */\n      mstore\n        /* \"#utility.yul\":17855:17857   */\n      0x0d\n        /* \"#utility.yul\":17835:17853   */\n      0x24\n      dup3\n      add\n        /* \"#utility.yul\":17828:17858   */\n      mstore\n      shl(0x9a, 0x105b1c9958591e481d9bdd1959)\n        /* \"#utility.yul\":17874:17892   */\n      0x44\n      dup3\n      add\n        /* \"#utility.yul\":17867:17910   */\n      mstore\n        /* \"#utility.yul\":17927:17945   */\n      0x64\n      add\n        /* \"contracts/StemPayLotteryManager.sol\":4975:5030  require(!l.hasVotedCancel[msg.sender], \"Already voted\") */\n      tag_172\n        /* \"#utility.yul\":17614:17951   */\n      jump\n        /* \"contracts/StemPayLotteryManager.sol\":4975:5030  require(!l.hasVotedCancel[msg.sender], \"Already voted\") */\n    tag_335:\n        /* \"contracts/StemPayLotteryManager.sol\":5061:5071  msg.sender */\n      caller\n        /* \"contracts/StemPayLotteryManager.sol\":5075:5076  0 */\n      0x00\n        /* \"contracts/StemPayLotteryManager.sol\":5048:5072  l.entryCount[msg.sender] */\n      swap1\n      dup2\n      mstore\n        /* \"contracts/StemPayLotteryManager.sol\":5048:5060  l.entryCount */\n      0x0c\n      dup3\n      add\n        /* \"contracts/StemPayLotteryManager.sol\":5048:5072  l.entryCount[msg.sender] */\n      0x20\n      mstore\n      0x40\n      swap1\n      keccak256\n      sload\n        /* \"contracts/StemPayLotteryManager.sol\":5040:5095  require(l.entryCount[msg.sender] > 0, \"Not in lottery\") */\n      tag_338\n      jumpi\n      mload(0x40)\n      shl(0xe5, 0x461bcd)\n      dup2\n      mstore\n        /* \"#utility.yul\":18158:18160   */\n      0x20\n        /* \"contracts/StemPayLotteryManager.sol\":5040:5095  require(l.entryCount[msg.sender] > 0, \"Not in lottery\") */\n      0x04\n      dup3\n      add\n        /* \"#utility.yul\":18140:18161   */\n      mstore\n        /* \"#utility.yul\":18197:18199   */\n      0x0e\n        /* \"#utility.yul\":18177:18195   */\n      0x24\n      dup3\n      add\n        /* \"#utility.yul\":18170:18200   */\n      mstore\n      shl(0x90, 0x4e6f7420696e206c6f7474657279)\n        /* \"#utility.yul\":18216:18234   */\n      0x44\n      dup3\n      add\n        /* \"#utility.yul\":18209:18253   */\n      mstore\n        /* \"#utility.yul\":18270:18288   */\n      0x64\n      add\n        /* \"contracts/StemPayLotteryManager.sol\":5040:5095  require(l.entryCount[msg.sender] > 0, \"Not in lottery\") */\n      tag_172\n        /* \"#utility.yul\":17956:18294   */\n      jump\n        /* \"contracts/StemPayLotteryManager.sol\":5040:5095  require(l.entryCount[msg.sender] > 0, \"Not in lottery\") */\n    tag_338:\n        /* \"contracts/StemPayLotteryManager.sol\":5123:5133  msg.sender */\n      caller\n        /* \"contracts/StemPayLotteryManager.sol\":5106:5134  l.hasVotedCancel[msg.sender] */\n      0x00\n      swap1\n      dup2\n      mstore\n        /* \"contracts/StemPayLotteryManager.sol\":5106:5122  l.hasVotedCancel */\n      0x0f\n      dup3\n      add\n        /* \"contracts/StemPayLotteryManager.sol\":5106:5134  l.hasVotedCancel[msg.sender] */\n      0x20\n      mstore\n      0x40\n      dup2\n      keccak256\n        /* \"contracts/StemPayLotteryManager.sol\":5106:5141  l.hasVotedCancel[msg.sender] = true */\n      dup1\n      sload\n      not(0xff)\n      and\n        /* \"contracts/StemPayLotteryManager.sol\":5137:5141  true */\n      0x01\n        /* \"contracts/StemPayLotteryManager.sol\":5106:5141  l.hasVotedCancel[msg.sender] = true */\n      or\n      swap1\n      sstore\n        /* \"contracts/StemPayLotteryManager.sol\":5151:5162  l.voteCount */\n      0x0b\n      dup3\n      add\n        /* \"contracts/StemPayLotteryManager.sol\":5151:5164  l.voteCount++ */\n      dup1\n      sload\n      swap2\n      tag_341\n      dup4\n      tag_226\n      jump\t// in\n    tag_341:\n      swap1\n      swap2\n      sstore\n      pop\n      pop\n        /* \"contracts/StemPayLotteryManager.sol\":5197:5211  l.participants */\n      0x09\n      dup2\n      add\n        /* \"contracts/StemPayLotteryManager.sol\":5197:5218  l.participants.length */\n      sload\n        /* \"contracts/StemPayLotteryManager.sol\":5197:5222  l.participants.length * 2 */\n      tag_342\n      swap1\n        /* \"contracts/StemPayLotteryManager.sol\":5221:5222  2 */\n      0x02\n        /* \"contracts/StemPayLotteryManager.sol\":5197:5222  l.participants.length * 2 */\n      tag_299\n      jump\t// in\n    tag_342:\n        /* \"contracts/StemPayLotteryManager.sol\":5178:5189  l.voteCount */\n      0x0b\n      dup3\n      add\n      sload\n        /* \"contracts/StemPayLotteryManager.sol\":5178:5193  l.voteCount * 3 */\n      tag_343\n      swap1\n        /* \"contracts/StemPayLotteryManager.sol\":5192:5193  3 */\n      0x03\n        /* \"contracts/StemPayLotteryManager.sol\":5178:5193  l.voteCount * 3 */\n      tag_299\n      jump\t// in\n    tag_343:\n        /* \"contracts/StemPayLotteryManager.sol\":5178:5222  l.voteCount * 3 >= l.participants.length * 2 */\n      lt\n        /* \"contracts/StemPayLotteryManager.sol\":5174:5316  if (l.voteCount * 3 >= l.participants.length * 2) {... */\n      tag_174\n      jumpi\n        /* \"contracts/StemPayLotteryManager.sol\":5238:5251  l.isCancelled */\n      0x08\n      dup2\n      add\n        /* \"contracts/StemPayLotteryManager.sol\":5238:5258  l.isCancelled = true */\n      dup1\n      sload\n      not(0xff0000)\n      and\n      0x010000\n      or\n      swap1\n      sstore\n        /* \"contracts/StemPayLotteryManager.sol\":5277:5305  LotteryCancelled(_lotteryId) */\n      mload(0x40)\n      0xc3dac690cf4c3ae8964f18b8f09f7f9a75d3962a8cbb7cd689df2c291bb5b2dd\n      swap1\n      tag_271\n      swap1\n        /* \"contracts/StemPayLotteryManager.sol\":5294:5304  _lotteryId */\n      dup5\n        /* \"#utility.yul\":160:185   */\n      dup2\n      mstore\n        /* \"#utility.yul\":148:150   */\n      0x20\n        /* \"#utility.yul\":133:151   */\n      add\n      swap1\n        /* \"#utility.yul\":14:191   */\n      jump\n        /* \"contracts/StemPayLotteryManager.sol\":8104:8214  function clearLotteryData(uint256 _lotteryId) external onlyOwner {... */\n    tag_132:\n        /* \"@openzeppelin/contracts-upgradeable/access/OwnableUpgradeable.sol\":2334:2347  _checkOwner() */\n      tag_347\n        /* \"@openzeppelin/contracts-upgradeable/access/OwnableUpgradeable.sol\":2334:2345  _checkOwner */\n      tag_254\n        /* \"@openzeppelin/contracts-upgradeable/access/OwnableUpgradeable.sol\":2334:2347  _checkOwner() */\n      jump\t// in\n    tag_347:\n        /* \"contracts/StemPayLotteryManager.sol\":8186:8207  lotteries[_lotteryId] */\n      0x00\n      dup2\n      dup2\n      mstore\n        /* \"contracts/StemPayLotteryManager.sol\":8186:8195  lotteries */\n      0x02\n        /* \"contracts/StemPayLotteryManager.sol\":8186:8207  lotteries[_lotteryId] */\n      0x20\n      dup2\n      swap1\n      mstore\n      0x40\n      dup3\n      keccak256\n        /* \"contracts/StemPayLotteryManager.sol\":8179:8207  delete lotteries[_lotteryId] */\n      dup1\n      sload\n      not(sub(shl(0xa0, 0x01), 0x01))\n      and\n      dup2\n      sstore\n      0x01\n      dup2\n      add\n      dup4\n      swap1\n      sstore\n      swap1\n      dup2\n      add\n      dup3\n      swap1\n      sstore\n      0x03\n      dup2\n      add\n      dup3\n      swap1\n      sstore\n      0x04\n      dup2\n      add\n      dup3\n      swap1\n      sstore\n      0x05\n      dup2\n      add\n      dup3\n      swap1\n      sstore\n      0x06\n      dup2\n      add\n      dup3\n      swap1\n      sstore\n      0x07\n      dup2\n      add\n      dup3\n      swap1\n      sstore\n      0x08\n      dup2\n      add\n      dup1\n      sload\n      not(0xffffff)\n      and\n      swap1\n      sstore\n        /* \"contracts/StemPayLotteryManager.sol\":8186:8207  lotteries[_lotteryId] */\n      swap1\n        /* \"contracts/StemPayLotteryManager.sol\":8179:8207  delete lotteries[_lotteryId] */\n      tag_349\n      0x09\n      dup4\n      add\n        /* \"contracts/StemPayLotteryManager.sol\":8186:8207  lotteries[_lotteryId] */\n      dup3\n        /* \"contracts/StemPayLotteryManager.sol\":8179:8207  delete lotteries[_lotteryId] */\n      tag_350\n      jump\t// in\n    tag_349:\n      pop\n      0x0a\n      dup2\n      add\n      dup1\n      sload\n      not(sub(shl(0xa0, 0x01), 0x01))\n      and\n      swap1\n      sstore\n      0x00\n      0x0b\n      swap1\n      swap2\n      add\n      sstore\n      pop\n        /* \"contracts/StemPayLotteryManager.sol\":8104:8214  function clearLotteryData(uint256 _lotteryId) external onlyOwner {... */\n      jump\t// out\n        /* \"contracts/StemPayLotteryManager.sol\":8220:8364  function getParticipants(uint256 _lotteryId) external view returns (address[] memory) {... */\n    tag_158:\n        /* \"contracts/StemPayLotteryManager.sol\":8323:8344  lotteries[_lotteryId] */\n      0x00\n      dup2\n      dup2\n      mstore\n        /* \"contracts/StemPayLotteryManager.sol\":8323:8332  lotteries */\n      0x02\n        /* \"contracts/StemPayLotteryManager.sol\":8323:8344  lotteries[_lotteryId] */\n      0x20\n      swap1\n      dup2\n      mstore\n      0x40\n      swap2\n      dup3\n      swap1\n      keccak256\n        /* \"contracts/StemPayLotteryManager.sol\":8323:8357  lotteries[_lotteryId].participants */\n      0x09\n      add\n        /* \"contracts/StemPayLotteryManager.sol\":8316:8357  return lotteries[_lotteryId].participants */\n      dup1\n      sload\n      dup4\n      mload\n      dup2\n      dup5\n      mul\n      dup2\n      add\n      dup5\n      add\n      swap1\n      swap5\n      mstore\n      dup1\n      dup5\n      mstore\n        /* \"contracts/StemPayLotteryManager.sol\":8288:8304  address[] memory */\n      0x60\n      swap4\n        /* \"contracts/StemPayLotteryManager.sol\":8316:8357  return lotteries[_lotteryId].participants */\n      swap3\n      dup4\n      add\n        /* \"contracts/StemPayLotteryManager.sol\":8323:8357  lotteries[_lotteryId].participants */\n      dup3\n        /* \"contracts/StemPayLotteryManager.sol\":8316:8357  return lotteries[_lotteryId].participants */\n      dup3\n      dup1\n      iszero\n      tag_355\n      jumpi\n      0x20\n      mul\n      dup3\n      add\n      swap2\n      swap1\n      0x00\n      mstore\n      keccak256(0x00, 0x20)\n      swap1\n    tag_356:\n      dup2\n      sload\n      sub(shl(0xa0, 0x01), 0x01)\n      and\n      dup2\n      mstore\n      0x01\n      swap1\n      swap2\n      add\n      swap1\n      0x20\n      add\n      dup1\n      dup4\n      gt\n      tag_356\n      jumpi\n    tag_355:\n      pop\n      pop\n      pop\n      pop\n      pop\n      swap1\n      pop\n        /* \"contracts/StemPayLotteryManager.sol\":8220:8364  function getParticipants(uint256 _lotteryId) external view returns (address[] memory) {... */\n      swap2\n      swap1\n      pop\n      jump\t// out\n        /* \"contracts/StemPayLotteryManager.sol\":7750:8098  function claimPrize(uint256 _lotteryId) external nonReentrant {... */\n    tag_164:\n        /* \"@openzeppelin/contracts/security/ReentrancyGuard.sol\":2261:2282  _nonReentrantBefore() */\n      tag_358\n        /* \"@openzeppelin/contracts/security/ReentrancyGuard.sol\":2261:2280  _nonReentrantBefore */\n      tag_196\n        /* \"@openzeppelin/contracts/security/ReentrancyGuard.sol\":2261:2282  _nonReentrantBefore() */\n      jump\t// in\n    tag_358:\n        /* \"contracts/StemPayLotteryManager.sol\":7822:7839  Lottery storage l */\n      0x00\n        /* \"contracts/StemPayLotteryManager.sol\":7842:7863  lotteries[_lotteryId] */\n      dup2\n      dup2\n      mstore\n        /* \"contracts/StemPayLotteryManager.sol\":7842:7851  lotteries */\n      0x02\n        /* \"contracts/StemPayLotteryManager.sol\":7842:7863  lotteries[_lotteryId] */\n      0x20\n      mstore\n      0x40\n      swap1\n      keccak256\n        /* \"contracts/StemPayLotteryManager.sol\":7881:7889  l.winner */\n      0x0a\n      dup2\n      add\n      sload\n      sub(shl(0xa0, 0x01), 0x01)\n      and\n        /* \"contracts/StemPayLotteryManager.sol\":7893:7903  msg.sender */\n      caller\n        /* \"contracts/StemPayLotteryManager.sol\":7881:7903  l.winner == msg.sender */\n      eq\n        /* \"contracts/StemPayLotteryManager.sol\":7873:7918  require(l.winner == msg.sender, \"Not winner\") */\n      tag_360\n      jumpi\n      mload(0x40)\n      shl(0xe5, 0x461bcd)\n      dup2\n      mstore\n        /* \"#utility.yul\":18501:18503   */\n      0x20\n        /* \"contracts/StemPayLotteryManager.sol\":7873:7918  require(l.winner == msg.sender, \"Not winner\") */\n      0x04\n      dup3\n      add\n        /* \"#utility.yul\":18483:18504   */\n      mstore\n        /* \"#utility.yul\":18540:18542   */\n      0x0a\n        /* \"#utility.yul\":18520:18538   */\n      0x24\n      dup3\n      add\n        /* \"#utility.yul\":18513:18543   */\n      mstore\n      shl(0xb1, 0x2737ba103bb4b73732b9)\n        /* \"#utility.yul\":18559:18577   */\n      0x44\n      dup3\n      add\n        /* \"#utility.yul\":18552:18592   */\n      mstore\n        /* \"#utility.yul\":18609:18627   */\n      0x64\n      add\n        /* \"contracts/StemPayLotteryManager.sol\":7873:7918  require(l.winner == msg.sender, \"Not winner\") */\n      tag_172\n        /* \"#utility.yul\":18299:18633   */\n      jump\n        /* \"contracts/StemPayLotteryManager.sol\":7873:7918  require(l.winner == msg.sender, \"Not winner\") */\n    tag_360:\n        /* \"contracts/StemPayLotteryManager.sol\":7950:7960  msg.sender */\n      caller\n        /* \"contracts/StemPayLotteryManager.sol\":7937:7961  l.hasClaimed[msg.sender] */\n      0x00\n      swap1\n      dup2\n      mstore\n        /* \"contracts/StemPayLotteryManager.sol\":7937:7949  l.hasClaimed */\n      0x0d\n      dup3\n      add\n        /* \"contracts/StemPayLotteryManager.sol\":7937:7961  l.hasClaimed[msg.sender] */\n      0x20\n      mstore\n      0x40\n      swap1\n      keccak256\n      sload\n      0xff\n      and\n        /* \"contracts/StemPayLotteryManager.sol\":7936:7961  !l.hasClaimed[msg.sender] */\n      iszero\n        /* \"contracts/StemPayLotteryManager.sol\":7928:7981  require(!l.hasClaimed[msg.sender], \"Already claimed\") */\n      tag_363\n      jumpi\n      mload(0x40)\n      shl(0xe5, 0x461bcd)\n      dup2\n      mstore\n        /* \"#utility.yul\":18840:18842   */\n      0x20\n        /* \"contracts/StemPayLotteryManager.sol\":7928:7981  require(!l.hasClaimed[msg.sender], \"Already claimed\") */\n      0x04\n      dup3\n      add\n        /* \"#utility.yul\":18822:18843   */\n      mstore\n        /* \"#utility.yul\":18879:18881   */\n      0x0f\n        /* \"#utility.yul\":18859:18877   */\n      0x24\n      dup3\n      add\n        /* \"#utility.yul\":18852:18882   */\n      mstore\n      shl(0x8a, 0x105b1c9958591e4818db185a5b5959)\n        /* \"#utility.yul\":18898:18916   */\n      0x44\n      dup3\n      add\n        /* \"#utility.yul\":18891:18936   */\n      mstore\n        /* \"#utility.yul\":18953:18971   */\n      0x64\n      add\n        /* \"contracts/StemPayLotteryManager.sol\":7928:7981  require(!l.hasClaimed[msg.sender], \"Already claimed\") */\n      tag_172\n        /* \"#utility.yul\":18638:18977   */\n      jump\n        /* \"contracts/StemPayLotteryManager.sol\":7928:7981  require(!l.hasClaimed[msg.sender], \"Already claimed\") */\n    tag_363:\n        /* \"contracts/StemPayLotteryManager.sol\":8005:8015  msg.sender */\n      caller\n        /* \"contracts/StemPayLotteryManager.sol\":7992:8016  l.hasClaimed[msg.sender] */\n      0x00\n      dup2\n      dup2\n      mstore\n        /* \"contracts/StemPayLotteryManager.sol\":7992:8004  l.hasClaimed */\n      0x0d\n      dup4\n      add\n        /* \"contracts/StemPayLotteryManager.sol\":7992:8016  l.hasClaimed[msg.sender] */\n      0x20\n      mstore\n      0x40\n      swap1\n      dup2\n      swap1\n      keccak256\n        /* \"contracts/StemPayLotteryManager.sol\":7992:8023  l.hasClaimed[msg.sender] = true */\n      dup1\n      sload\n      not(0xff)\n      and\n        /* \"contracts/StemPayLotteryManager.sol\":8019:8023  true */\n      0x01\n        /* \"contracts/StemPayLotteryManager.sol\":7992:8023  l.hasClaimed[msg.sender] = true */\n      or\n      swap1\n      sstore\n        /* \"contracts/StemPayLotteryManager.sol\":8040:8054  l.tokenAddress */\n      dup3\n      sload\n        /* \"contracts/StemPayLotteryManager.sol\":8077:8090  l.prizeAmount */\n      0x05\n      dup5\n      add\n      sload\n        /* \"contracts/StemPayLotteryManager.sol\":8033:8091  IERC20(l.tokenAddress).transfer(msg.sender, l.prizeAmount) */\n      swap2\n      mload\n      shl(0xe0, 0xa9059cbb)\n      dup2\n      mstore\n      0x04\n      dup2\n      add\n        /* \"#utility.yul\":15318:15369   */\n      swap4\n      swap1\n      swap4\n      mstore\n        /* \"#utility.yul\":15385:15403   */\n      0x24\n      dup4\n      add\n        /* \"#utility.yul\":15378:15412   */\n      swap2\n      swap1\n      swap2\n      mstore\n      sub(shl(0xa0, 0x01), 0x01)\n        /* \"contracts/StemPayLotteryManager.sol\":8040:8054  l.tokenAddress */\n      and\n      swap1\n        /* \"contracts/StemPayLotteryManager.sol\":8033:8064  IERC20(l.tokenAddress).transfer */\n      0xa9059cbb\n      swap1\n        /* \"#utility.yul\":15291:15309   */\n      0x44\n      add\n        /* \"contracts/StemPayLotteryManager.sol\":8033:8091  IERC20(l.tokenAddress).transfer(msg.sender, l.prizeAmount) */\n      0x20\n      mload(0x40)\n      dup1\n      dup4\n      sub\n      dup2\n      0x00\n      dup8\n      gas\n      call\n      iszero\n      dup1\n      iszero\n      tag_368\n      jumpi\n      returndatacopy(0x00, 0x00, returndatasize)\n      revert(0x00, returndatasize)\n    tag_368:\n      pop\n      pop\n      pop\n      pop\n      mload(0x40)\n      returndatasize\n      not(0x1f)\n      0x1f\n      dup3\n      add\n      and\n      dup3\n      add\n      dup1\n      0x40\n      mstore\n      pop\n      dup2\n      add\n      swap1\n      tag_369\n      swap2\n      swap1\n      tag_223\n      jump\t// in\n    tag_369:\n      pop\n        /* \"contracts/StemPayLotteryManager.sol\":7812:8098  {... */\n      pop\n        /* \"@openzeppelin/contracts/security/ReentrancyGuard.sol\":2303:2323  _nonReentrantAfter() */\n      tag_251\n        /* \"@openzeppelin/contracts/security/ReentrancyGuard.sol\":1716:1717  1 */\n      0x01\n        /* \"@openzeppelin/contracts/security/ReentrancyGuard.sol\":2809:2816  _status */\n      0x00\n        /* \"@openzeppelin/contracts/security/ReentrancyGuard.sol\":2809:2831  _status = _NOT_ENTERED */\n      sstore\n        /* \"@openzeppelin/contracts/security/ReentrancyGuard.sol\":2629:2838  function _nonReentrantAfter() private {... */\n      jump\n        /* \"@openzeppelin/contracts-upgradeable/access/OwnableUpgradeable.sol\":3405:3620  function transferOwnership(address newOwner) public virtual onlyOwner {... */\n    tag_169:\n        /* \"@openzeppelin/contracts-upgradeable/access/OwnableUpgradeable.sol\":2334:2347  _checkOwner() */\n      tag_372\n        /* \"@openzeppelin/contracts-upgradeable/access/OwnableUpgradeable.sol\":2334:2345  _checkOwner */\n      tag_254\n        /* \"@openzeppelin/contracts-upgradeable/access/OwnableUpgradeable.sol\":2334:2347  _checkOwner() */\n      jump\t// in\n    tag_372:\n      sub(shl(0xa0, 0x01), 0x01)\n        /* \"@openzeppelin/contracts-upgradeable/access/OwnableUpgradeable.sol\":3489:3511  newOwner == address(0) */\n      dup2\n      and\n        /* \"@openzeppelin/contracts-upgradeable/access/OwnableUpgradeable.sol\":3485:3576  if (newOwner == address(0)) {... */\n      tag_374\n      jumpi\n        /* \"@openzeppelin/contracts-upgradeable/access/OwnableUpgradeable.sol\":3534:3565  OwnableInvalidOwner(address(0)) */\n      mload(0x40)\n      shl(0xe0, 0x1e4fbdf7)\n      dup2\n      mstore\n        /* \"@openzeppelin/contracts-upgradeable/access/OwnableUpgradeable.sol\":3562:3563  0 */\n      0x00\n        /* \"@openzeppelin/contracts-upgradeable/access/OwnableUpgradeable.sol\":3534:3565  OwnableInvalidOwner(address(0)) */\n      0x04\n      dup3\n      add\n        /* \"#utility.yul\":3327:3378   */\n      mstore\n        /* \"#utility.yul\":3300:3318   */\n      0x24\n      add\n        /* \"@openzeppelin/contracts-upgradeable/access/OwnableUpgradeable.sol\":3534:3565  OwnableInvalidOwner(address(0)) */\n      tag_172\n        /* \"#utility.yul\":3181:3384   */\n      jump\n        /* \"@openzeppelin/contracts-upgradeable/access/OwnableUpgradeable.sol\":3485:3576  if (newOwner == address(0)) {... */\n    tag_374:\n        /* \"@openzeppelin/contracts-upgradeable/access/OwnableUpgradeable.sol\":3585:3613  _transferOwnership(newOwner) */\n      tag_251\n        /* \"@openzeppelin/contracts-upgradeable/access/OwnableUpgradeable.sol\":3604:3612  newOwner */\n      dup2\n        /* \"@openzeppelin/contracts-upgradeable/access/OwnableUpgradeable.sol\":3585:3603  _transferOwnership */\n      tag_333\n        /* \"@openzeppelin/contracts-upgradeable/access/OwnableUpgradeable.sol\":3585:3613  _transferOwnership(newOwner) */\n      jump\t// in\n        /* \"contracts/StemPayLotteryManager.sol\":6320:6959  function fulfillRandomWords(... */\n    tag_175:\n        /* \"contracts/StemPayLotteryManager.sol\":6447:6464  uint256 lotteryId */\n      0x00\n        /* \"contracts/StemPayLotteryManager.sol\":6467:6494  requestToLottery[requestId] */\n      dup3\n      dup2\n      mstore\n        /* \"contracts/StemPayLotteryManager.sol\":6467:6483  requestToLottery */\n      0x0a\n        /* \"contracts/StemPayLotteryManager.sol\":6467:6494  requestToLottery[requestId] */\n      0x20\n      swap1\n      dup2\n      mstore\n      0x40\n      dup1\n      dup4\n      keccak256\n      sload\n        /* \"contracts/StemPayLotteryManager.sol\":6524:6544  lotteries[lotteryId] */\n      dup1\n      dup5\n      mstore\n        /* \"contracts/StemPayLotteryManager.sol\":6524:6533  lotteries */\n      0x02\n        /* \"contracts/StemPayLotteryManager.sol\":6524:6544  lotteries[lotteryId] */\n      swap1\n      swap3\n      mstore\n      swap1\n      swap2\n      keccak256\n        /* \"contracts/StemPayLotteryManager.sol\":6563:6572  l.isDrawn */\n      0x08\n      dup2\n      add\n      sload\n      0x0100\n      swap1\n      div\n      0xff\n      and\n        /* \"contracts/StemPayLotteryManager.sol\":6563:6598  l.isDrawn && l.winner == address(0) */\n      dup1\n      iszero\n      tag_378\n      jumpi\n      pop\n        /* \"contracts/StemPayLotteryManager.sol\":6576:6584  l.winner */\n      0x0a\n      dup2\n      add\n      sload\n      sub(shl(0xa0, 0x01), 0x01)\n      and\n        /* \"contracts/StemPayLotteryManager.sol\":6576:6598  l.winner == address(0) */\n      iszero\n        /* \"contracts/StemPayLotteryManager.sol\":6563:6598  l.isDrawn && l.winner == address(0) */\n    tag_378:\n        /* \"contracts/StemPayLotteryManager.sol\":6555:6620  require(l.isDrawn && l.winner == address(0), \"Already fulfilled\") */\n      tag_379\n      jumpi\n      mload(0x40)\n      shl(0xe5, 0x461bcd)\n      dup2\n      mstore\n        /* \"#utility.yul\":19184:19186   */\n      0x20\n        /* \"contracts/StemPayLotteryManager.sol\":6555:6620  require(l.isDrawn && l.winner == address(0), \"Already fulfilled\") */\n      0x04\n      dup3\n      add\n        /* \"#utility.yul\":19166:19187   */\n      mstore\n        /* \"#utility.yul\":19223:19225   */\n      0x11\n        /* \"#utility.yul\":19203:19221   */\n      0x24\n      dup3\n      add\n        /* \"#utility.yul\":19196:19226   */\n      mstore\n      shl(0x7a, 0x105b1c9958591e48199d5b199a5b1b1959)\n        /* \"#utility.yul\":19242:19260   */\n      0x44\n      dup3\n      add\n        /* \"#utility.yul\":19235:19282   */\n      mstore\n        /* \"#utility.yul\":19299:19317   */\n      0x64\n      add\n        /* \"contracts/StemPayLotteryManager.sol\":6555:6620  require(l.isDrawn && l.winner == address(0), \"Already fulfilled\") */\n      tag_172\n        /* \"#utility.yul\":18982:19323   */\n      jump\n        /* \"contracts/StemPayLotteryManager.sol\":6555:6620  require(l.isDrawn && l.winner == address(0), \"Already fulfilled\") */\n    tag_379:\n        /* \"contracts/StemPayLotteryManager.sol\":6631:6650  uint256 winnerIndex */\n      0x00\n        /* \"contracts/StemPayLotteryManager.sol\":6670:6671  l */\n      dup2\n        /* \"contracts/StemPayLotteryManager.sol\":6670:6684  l.participants */\n      0x09\n      add\n        /* \"contracts/StemPayLotteryManager.sol\":6670:6691  l.participants.length */\n      dup1\n      sload\n      swap1\n      pop\n        /* \"contracts/StemPayLotteryManager.sol\":6653:6664  randomWords */\n      dup5\n        /* \"contracts/StemPayLotteryManager.sol\":6665:6666  0 */\n      0x00\n        /* \"contracts/StemPayLotteryManager.sol\":6653:6667  randomWords[0] */\n      dup2\n      mload\n      dup2\n      lt\n      tag_383\n      jumpi\n      tag_383\n      tag_384\n      jump\t// in\n    tag_383:\n      0x20\n      mul\n      0x20\n      add\n      add\n      mload\n        /* \"contracts/StemPayLotteryManager.sol\":6653:6691  randomWords[0] % l.participants.length */\n      tag_385\n      swap2\n      swap1\n      tag_386\n      jump\t// in\n    tag_385:\n        /* \"contracts/StemPayLotteryManager.sol\":6631:6691  uint256 winnerIndex = randomWords[0] % l.participants.length */\n      swap1\n      pop\n        /* \"contracts/StemPayLotteryManager.sol\":6712:6713  l */\n      dup2\n        /* \"contracts/StemPayLotteryManager.sol\":6712:6726  l.participants */\n      0x09\n      add\n        /* \"contracts/StemPayLotteryManager.sol\":6727:6738  winnerIndex */\n      dup2\n        /* \"contracts/StemPayLotteryManager.sol\":6712:6739  l.participants[winnerIndex] */\n      dup2\n      sload\n      dup2\n      lt\n      tag_388\n      jumpi\n      tag_388\n      tag_384\n      jump\t// in\n    tag_388:\n      0x00\n      swap2\n      dup3\n      mstore\n      0x20\n      swap1\n      swap2\n      keccak256\n      add\n      sload\n        /* \"contracts/StemPayLotteryManager.sol\":6701:6709  l.winner */\n      0x0a\n      dup4\n      add\n        /* \"contracts/StemPayLotteryManager.sol\":6701:6739  l.winner = l.participants[winnerIndex] */\n      dup1\n      sload\n      not(sub(shl(0xa0, 0x01), 0x01))\n      and\n      sub(shl(0xa0, 0x01), 0x01)\n        /* \"contracts/StemPayLotteryManager.sol\":6712:6739  l.participants[winnerIndex] */\n      swap3\n      dup4\n      and\n        /* \"contracts/StemPayLotteryManager.sol\":6701:6739  l.winner = l.participants[winnerIndex] */\n      or\n      swap1\n      sstore\n        /* \"contracts/StemPayLotteryManager.sol\":6772:6786  l.tokenAddress */\n      dup3\n      sload\n        /* \"contracts/StemPayLotteryManager.sol\":6812:6828  investmentWallet */\n      0x04\n      dup1\n      sload\n        /* \"contracts/StemPayLotteryManager.sol\":6830:6847  l.feeToInvestment */\n      0x06\n      dup7\n      add\n      sload\n        /* \"contracts/StemPayLotteryManager.sol\":6797:6848  token.transfer(investmentWallet, l.feeToInvestment) */\n      mload(0x40)\n      shl(0xe0, 0xa9059cbb)\n      dup2\n      mstore\n        /* \"contracts/StemPayLotteryManager.sol\":6812:6828  investmentWallet */\n      swap2\n      dup6\n      and\n        /* \"contracts/StemPayLotteryManager.sol\":6797:6848  token.transfer(investmentWallet, l.feeToInvestment) */\n      swap3\n      dup3\n      add\n        /* \"#utility.yul\":15318:15369   */\n      swap3\n      swap1\n      swap3\n      mstore\n        /* \"#utility.yul\":15385:15403   */\n      0x24\n      dup2\n      add\n        /* \"#utility.yul\":15378:15412   */\n      swap2\n      swap1\n      swap2\n      mstore\n        /* \"contracts/StemPayLotteryManager.sol\":6772:6786  l.tokenAddress */\n      swap2\n      and\n      swap1\n      dup2\n      swap1\n        /* \"contracts/StemPayLotteryManager.sol\":6797:6811  token.transfer */\n      0xa9059cbb\n      swap1\n        /* \"#utility.yul\":15291:15309   */\n      0x44\n      add\n        /* \"contracts/StemPayLotteryManager.sol\":6797:6848  token.transfer(investmentWallet, l.feeToInvestment) */\n      0x20\n      mload(0x40)\n      dup1\n      dup4\n      sub\n      dup2\n      0x00\n      dup8\n      gas\n      call\n      iszero\n      dup1\n      iszero\n      tag_392\n      jumpi\n      returndatacopy(0x00, 0x00, returndatasize)\n      revert(0x00, returndatasize)\n    tag_392:\n      pop\n      pop\n      pop\n      pop\n      mload(0x40)\n      returndatasize\n      not(0x1f)\n      0x1f\n      dup3\n      add\n      and\n      dup3\n      add\n      dup1\n      0x40\n      mstore\n      pop\n      dup2\n      add\n      swap1\n      tag_393\n      swap2\n      swap1\n      tag_223\n      jump\t// in\n    tag_393:\n      pop\n        /* \"contracts/StemPayLotteryManager.sol\":6873:6885  profitWallet */\n      sload(0x05)\n        /* \"contracts/StemPayLotteryManager.sol\":6887:6900  l.feeToProfit */\n      0x07\n      dup5\n      add\n      sload\n        /* \"contracts/StemPayLotteryManager.sol\":6858:6901  token.transfer(profitWallet, l.feeToProfit) */\n      mload(0x40)\n      shl(0xe0, 0xa9059cbb)\n      dup2\n      mstore\n      sub(shl(0xa0, 0x01), 0x01)\n        /* \"contracts/StemPayLotteryManager.sol\":6873:6885  profitWallet */\n      swap3\n      dup4\n      and\n        /* \"contracts/StemPayLotteryManager.sol\":6858:6901  token.transfer(profitWallet, l.feeToProfit) */\n      0x04\n      dup3\n      add\n        /* \"#utility.yul\":15318:15369   */\n      mstore\n        /* \"#utility.yul\":15385:15403   */\n      0x24\n      dup2\n      add\n        /* \"#utility.yul\":15378:15412   */\n      swap2\n      swap1\n      swap2\n      mstore\n        /* \"contracts/StemPayLotteryManager.sol\":6858:6872  token.transfer */\n      swap1\n      dup3\n      and\n      swap1\n      0xa9059cbb\n      swap1\n        /* \"#utility.yul\":15291:15309   */\n      0x44\n      add\n        /* \"contracts/StemPayLotteryManager.sol\":6858:6901  token.transfer(profitWallet, l.feeToProfit) */\n      0x20\n      mload(0x40)\n      dup1\n      dup4\n      sub\n      dup2\n      0x00\n      dup8\n      gas\n      call\n      iszero\n      dup1\n      iszero\n      tag_396\n      jumpi\n      returndatacopy(0x00, 0x00, returndatasize)\n      revert(0x00, returndatasize)\n    tag_396:\n      pop\n      pop\n      pop\n      pop\n      mload(0x40)\n      returndatasize\n      not(0x1f)\n      0x1f\n      dup3\n      add\n      and\n      dup3\n      add\n      dup1\n      0x40\n      mstore\n      pop\n      dup2\n      add\n      swap1\n      tag_397\n      swap2\n      swap1\n      tag_223\n      jump\t// in\n    tag_397:\n      pop\n        /* \"contracts/StemPayLotteryManager.sol\":6943:6951  l.winner */\n      0x0a\n      dup4\n      add\n      sload\n        /* \"contracts/StemPayLotteryManager.sol\":6917:6952  WinnerSelected(lotteryId, l.winner) */\n      0x40\n      dup1\n      mload\n        /* \"#utility.yul\":11776:11801   */\n      dup7\n      dup2\n      mstore\n      sub(shl(0xa0, 0x01), 0x01)\n        /* \"contracts/StemPayLotteryManager.sol\":6943:6951  l.winner */\n      swap1\n      swap3\n      and\n        /* \"#utility.yul\":11832:11834   */\n      0x20\n        /* \"#utility.yul\":11817:11835   */\n      dup4\n      add\n        /* \"#utility.yul\":11810:11870   */\n      mstore\n        /* \"contracts/StemPayLotteryManager.sol\":6917:6952  WinnerSelected(lotteryId, l.winner) */\n      0x03fb57eb449654e24e1b240d3d06702cf79362a065d5c0323aee642d4702fa4b\n      swap2\n        /* \"#utility.yul\":11749:11767   */\n      add\n        /* \"contracts/StemPayLotteryManager.sol\":6917:6952  WinnerSelected(lotteryId, l.winner) */\n      mload(0x40)\n      dup1\n      swap2\n      sub\n      swap1\n      log1\n        /* \"contracts/StemPayLotteryManager.sol\":6437:6959  {... */\n      pop\n      pop\n      pop\n      pop\n        /* \"contracts/StemPayLotteryManager.sol\":6320:6959  function fulfillRandomWords(... */\n      pop\n      pop\n      jump\t// out\n        /* \"@openzeppelin/contracts-upgradeable/proxy/utils/Initializable.sol\":9071:9276  function _getInitializableStorage() private pure returns (InitializableStorage storage $) {... */\n    tag_178:\n        /* \"@openzeppelin/contracts-upgradeable/proxy/utils/Initializable.sol\":9129:9159  InitializableStorage storage $ */\n      0x00\n      dup1\n        /* \"@openzeppelin/contracts-upgradeable/proxy/utils/Initializable.sol\":3147:3213  0xf0c57e16840df040f15088dc2f81fe391c3923bec73e23a9662efc9c229c6a00 */\n      0xf0c57e16840df040f15088dc2f81fe391c3923bec73e23a9662efc9c229c6a00\n        /* \"@openzeppelin/contracts-upgradeable/proxy/utils/Initializable.sol\":9186:9213  _initializableStorageSlot() */\n    tag_400:\n        /* \"@openzeppelin/contracts-upgradeable/proxy/utils/Initializable.sol\":9171:9213  bytes32 slot = _initializableStorageSlot() */\n      swap3\n        /* \"@openzeppelin/contracts-upgradeable/proxy/utils/Initializable.sol\":9071:9276  function _getInitializableStorage() private pure returns (InitializableStorage storage $) {... */\n      swap2\n      pop\n      pop\n      jump\t// out\n        /* \"@openzeppelin/contracts-upgradeable/access/OwnableUpgradeable.sol\":1847:1974  function __Ownable_init(address initialOwner) internal onlyInitializing {... */\n    tag_186:\n        /* \"@openzeppelin/contracts-upgradeable/proxy/utils/Initializable.sol\":6929:6949  _checkInitializing() */\n      tag_403\n        /* \"@openzeppelin/contracts-upgradeable/proxy/utils/Initializable.sol\":6929:6947  _checkInitializing */\n      tag_404\n        /* \"@openzeppelin/contracts-upgradeable/proxy/utils/Initializable.sol\":6929:6949  _checkInitializing() */\n      jump\t// in\n    tag_403:\n        /* \"@openzeppelin/contracts-upgradeable/access/OwnableUpgradeable.sol\":1929:1967  __Ownable_init_unchained(initialOwner) */\n      tag_251\n        /* \"@openzeppelin/contracts-upgradeable/access/OwnableUpgradeable.sol\":1954:1966  initialOwner */\n      dup2\n        /* \"@openzeppelin/contracts-upgradeable/access/OwnableUpgradeable.sol\":1929:1953  __Ownable_init_unchained */\n      tag_407\n        /* \"@openzeppelin/contracts-upgradeable/access/OwnableUpgradeable.sol\":1929:1967  __Ownable_init_unchained(initialOwner) */\n      jump\t// in\n        /* \"@openzeppelin/contracts-upgradeable/proxy/utils/UUPSUpgradeable.sol\":2970:3037  function __UUPSUpgradeable_init() internal onlyInitializing {... */\n    tag_188:\n        /* \"@openzeppelin/contracts-upgradeable/proxy/utils/Initializable.sol\":6929:6949  _checkInitializing() */\n      tag_332\n        /* \"@openzeppelin/contracts-upgradeable/proxy/utils/Initializable.sol\":6929:6947  _checkInitializing */\n      tag_404\n        /* \"@openzeppelin/contracts-upgradeable/proxy/utils/Initializable.sol\":6929:6949  _checkInitializing() */\n      jump\t// in\n        /* \"contracts/StemPayLotteryManager.sol\":669:816  function __VRFConsumerBaseV2_5Upgradeable_init(address _vrfCoordinator) internal onlyInitializing {... */\n    tag_190:\n        /* \"@openzeppelin/contracts-upgradeable/proxy/utils/Initializable.sol\":6929:6949  _checkInitializing() */\n      tag_412\n        /* \"@openzeppelin/contracts-upgradeable/proxy/utils/Initializable.sol\":6929:6947  _checkInitializing */\n      tag_404\n        /* \"@openzeppelin/contracts-upgradeable/proxy/utils/Initializable.sol\":6929:6949  _checkInitializing() */\n      jump\t// in\n    tag_412:\n        /* \"contracts/StemPayLotteryManager.sol\":777:791  vrfCoordinator */\n      0x01\n        /* \"contracts/StemPayLotteryManager.sol\":777:809  vrfCoordinator = _vrfCoordinator */\n      dup1\n      sload\n      not(sub(shl(0xa0, 0x01), 0x01))\n      and\n      sub(shl(0xa0, 0x01), 0x01)\n      swap3\n      swap1\n      swap3\n      and\n      swap2\n      swap1\n      swap2\n      or\n      swap1\n      sstore\n        /* \"contracts/StemPayLotteryManager.sol\":669:816  function __VRFConsumerBaseV2_5Upgradeable_init(address _vrfCoordinator) internal onlyInitializing {... */\n      jump\t// out\n        /* \"@openzeppelin/contracts/security/ReentrancyGuard.sol\":2336:2623  function _nonReentrantBefore() private {... */\n    tag_196:\n        /* \"@openzeppelin/contracts/security/ReentrancyGuard.sol\":1759:1760  2 */\n      0x02\n        /* \"@openzeppelin/contracts/security/ReentrancyGuard.sol\":2468:2475  _status */\n      sload(0x00)\n        /* \"@openzeppelin/contracts/security/ReentrancyGuard.sol\":2468:2487  _status != _ENTERED */\n      sub\n        /* \"@openzeppelin/contracts/security/ReentrancyGuard.sol\":2460:2523  require(_status != _ENTERED, \"ReentrancyGuard: reentrant call\") */\n      tag_415\n      jumpi\n      mload(0x40)\n      shl(0xe5, 0x461bcd)\n      dup2\n      mstore\n        /* \"#utility.yul\":19876:19878   */\n      0x20\n        /* \"@openzeppelin/contracts/security/ReentrancyGuard.sol\":2460:2523  require(_status != _ENTERED, \"ReentrancyGuard: reentrant call\") */\n      0x04\n      dup3\n      add\n        /* \"#utility.yul\":19858:19879   */\n      mstore\n        /* \"#utility.yul\":19915:19917   */\n      0x1f\n        /* \"#utility.yul\":19895:19913   */\n      0x24\n      dup3\n      add\n        /* \"#utility.yul\":19888:19918   */\n      mstore\n        /* \"#utility.yul\":19954:19987   */\n      0x5265656e7472616e637947756172643a207265656e7472616e742063616c6c00\n        /* \"#utility.yul\":19934:19952   */\n      0x44\n      dup3\n      add\n        /* \"#utility.yul\":19927:19988   */\n      mstore\n        /* \"#utility.yul\":20005:20023   */\n      0x64\n      add\n        /* \"@openzeppelin/contracts/security/ReentrancyGuard.sol\":2460:2523  require(_status != _ENTERED, \"ReentrancyGuard: reentrant call\") */\n      tag_172\n        /* \"#utility.yul\":19674:20029   */\n      jump\n        /* \"@openzeppelin/contracts/security/ReentrancyGuard.sol\":2460:2523  require(_status != _ENTERED, \"ReentrancyGuard: reentrant call\") */\n    tag_415:\n        /* \"@openzeppelin/contracts/security/ReentrancyGuard.sol\":1759:1760  2 */\n      0x02\n        /* \"@openzeppelin/contracts/security/ReentrancyGuard.sol\":2598:2605  _status */\n      0x00\n        /* \"@openzeppelin/contracts/security/ReentrancyGuard.sol\":2598:2616  _status = _ENTERED */\n      sstore\n        /* \"@openzeppelin/contracts/security/ReentrancyGuard.sol\":2336:2623  function _nonReentrantBefore() private {... */\n      jump\t// out\n        /* \"@openzeppelin/contracts-upgradeable/access/OwnableUpgradeable.sol\":2658:2820  function _checkOwner() internal view virtual {... */\n    tag_254:\n        /* \"@openzeppelin/contracts-upgradeable/utils/ContextUpgradeable.sol\":966:976  msg.sender */\n      caller\n        /* \"@openzeppelin/contracts-upgradeable/access/OwnableUpgradeable.sol\":2717:2724  owner() */\n      tag_422\n        /* \"@openzeppelin/contracts-upgradeable/access/OwnableUpgradeable.sol\":1313:1335  OwnableStorageLocation */\n      0x9016d09d72d40fdae2fd8ceac6b6234c7706214fd39c1cd1e609a0528c199300\n        /* \"@openzeppelin/contracts-upgradeable/access/OwnableUpgradeable.sol\":2570:2578  $._owner */\n      sload\n      sub(shl(0xa0, 0x01), 0x01)\n      and\n      swap1\n        /* \"@openzeppelin/contracts-upgradeable/access/OwnableUpgradeable.sol\":2441:2585  function owner() public view virtual returns (address) {... */\n      jump\n        /* \"@openzeppelin/contracts-upgradeable/access/OwnableUpgradeable.sol\":2717:2724  owner() */\n    tag_422:\n      sub(shl(0xa0, 0x01), 0x01)\n        /* \"@openzeppelin/contracts-upgradeable/access/OwnableUpgradeable.sol\":2717:2740  owner() != _msgSender() */\n      and\n      eq\n        /* \"@openzeppelin/contracts-upgradeable/access/OwnableUpgradeable.sol\":2713:2814  if (owner() != _msgSender()) {... */\n      tag_332\n      jumpi\n        /* \"@openzeppelin/contracts-upgradeable/access/OwnableUpgradeable.sol\":2763:2803  OwnableUnauthorizedAccount(_msgSender()) */\n      mload(0x40)\n      shl(0xe0, 0x118cdaa7)\n      dup2\n      mstore\n        /* \"@openzeppelin/contracts-upgradeable/utils/ContextUpgradeable.sol\":966:976  msg.sender */\n      caller\n        /* \"@openzeppelin/contracts-upgradeable/access/OwnableUpgradeable.sol\":2763:2803  OwnableUnauthorizedAccount(_msgSender()) */\n      0x04\n      dup3\n      add\n        /* \"#utility.yul\":3327:3378   */\n      mstore\n        /* \"#utility.yul\":3300:3318   */\n      0x24\n      add\n        /* \"@openzeppelin/contracts-upgradeable/access/OwnableUpgradeable.sol\":2763:2803  OwnableUnauthorizedAccount(_msgSender()) */\n      tag_172\n        /* \"#utility.yul\":3181:3384   */\n      jump\n        /* \"@openzeppelin/contracts-upgradeable/proxy/utils/UUPSUpgradeable.sol\":4578:4890  function _checkProxy() internal view virtual {... */\n    tag_274:\n        /* \"@openzeppelin/contracts-upgradeable/proxy/utils/UUPSUpgradeable.sol\":4658:4662  this */\n      address\n      sub(shl(0xa0, 0x01), 0x01)\n        /* \"@openzeppelin/contracts-upgradeable/proxy/utils/UUPSUpgradeable.sol\":4667:4673  __self */\n      immutable(\"0x7e11962f85eb7ceb5b38e296d507e5039b360e5ad6815220a68768366dc10fdd\")\n        /* \"@openzeppelin/contracts-upgradeable/proxy/utils/UUPSUpgradeable.sol\":4650:4673  address(this) == __self */\n      and\n      eq\n      dup1\n        /* \"@openzeppelin/contracts-upgradeable/proxy/utils/UUPSUpgradeable.sol\":4650:4770  address(this) == __self || // Must be called through delegatecall... */\n      tag_427\n      jumpi\n      pop\n        /* \"@openzeppelin/contracts-upgradeable/proxy/utils/UUPSUpgradeable.sol\":4764:4770  __self */\n      immutable(\"0x7e11962f85eb7ceb5b38e296d507e5039b360e5ad6815220a68768366dc10fdd\")\n      sub(shl(0xa0, 0x01), 0x01)\n        /* \"@openzeppelin/contracts-upgradeable/proxy/utils/UUPSUpgradeable.sol\":4728:4770  ERC1967Utils.getImplementation() != __self */\n      and\n        /* \"@openzeppelin/contracts-upgradeable/proxy/utils/UUPSUpgradeable.sol\":4728:4760  ERC1967Utils.getImplementation() */\n      tag_428\n      mload(0x00)\n      codecopy(0x00, data_75b20eef8615de99c108b05f0dbda081c91897128caa336d75dffb97c4132b4d, 0x20)\n      mload(0x00)\n      swap1\n      0x00\n      mstore\n        /* \"@openzeppelin/contracts/proxy/ERC1967/ERC1967Utils.sol\":1519:1572  StorageSlot.getAddressSlot(IMPLEMENTATION_SLOT).value */\n      sload\n      sub(shl(0xa0, 0x01), 0x01)\n      and\n      swap1\n        /* \"@openzeppelin/contracts/proxy/ERC1967/ERC1967Utils.sol\":1441:1579  function getImplementation() internal view returns (address) {... */\n      jump\n        /* \"@openzeppelin/contracts-upgradeable/proxy/utils/UUPSUpgradeable.sol\":4728:4760  ERC1967Utils.getImplementation() */\n    tag_428:\n      sub(shl(0xa0, 0x01), 0x01)\n        /* \"@openzeppelin/contracts-upgradeable/proxy/utils/UUPSUpgradeable.sol\":4728:4770  ERC1967Utils.getImplementation() != __self */\n      and\n      eq\n      iszero\n        /* \"@openzeppelin/contracts-upgradeable/proxy/utils/UUPSUpgradeable.sol\":4650:4770  address(this) == __self || // Must be called through delegatecall... */\n    tag_427:\n        /* \"@openzeppelin/contracts-upgradeable/proxy/utils/UUPSUpgradeable.sol\":4633:4884  if (... */\n      iszero\n      tag_332\n      jumpi\n        /* \"@openzeppelin/contracts-upgradeable/proxy/utils/UUPSUpgradeable.sol\":4844:4873  UUPSUnauthorizedCallContext() */\n      mload(0x40)\n      shl(0xe1, 0x703e46dd)\n      dup2\n      mstore\n      0x04\n      add\n      mload(0x40)\n      dup1\n      swap2\n      sub\n      swap1\n      revert\n        /* \"contracts/StemPayLotteryManager.sol\":3304:3370  function _authorizeUpgrade(address) internal override onlyOwner {} */\n    tag_277:\n        /* \"@openzeppelin/contracts-upgradeable/access/OwnableUpgradeable.sol\":2334:2347  _checkOwner() */\n      tag_251\n        /* \"@openzeppelin/contracts-upgradeable/access/OwnableUpgradeable.sol\":2334:2345  _checkOwner */\n      tag_254\n        /* \"@openzeppelin/contracts-upgradeable/access/OwnableUpgradeable.sol\":2334:2347  _checkOwner() */\n      jump\t// in\n        /* \"@openzeppelin/contracts-upgradeable/proxy/utils/UUPSUpgradeable.sol\":6032:6570  function _upgradeToAndCallUUPS(address newImplementation, bytes memory data) private {... */\n    tag_279:\n        /* \"@openzeppelin/contracts-upgradeable/proxy/utils/UUPSUpgradeable.sol\":6149:6166  newImplementation */\n      dup2\n      sub(shl(0xa0, 0x01), 0x01)\n        /* \"@openzeppelin/contracts-upgradeable/proxy/utils/UUPSUpgradeable.sol\":6131:6181  IERC1822Proxiable(newImplementation).proxiableUUID */\n      and\n      0x52d1902d\n        /* \"@openzeppelin/contracts-upgradeable/proxy/utils/UUPSUpgradeable.sol\":6131:6183  IERC1822Proxiable(newImplementation).proxiableUUID() */\n      mload(0x40)\n      dup2\n      0xffffffff\n      and\n      0xe0\n      shl\n      dup2\n      mstore\n      0x04\n      add\n      0x20\n      mload(0x40)\n      dup1\n      dup4\n      sub\n      dup2\n      dup7\n      gas\n      staticcall\n      swap3\n      pop\n      pop\n      pop\n      dup1\n      iszero\n      tag_435\n      jumpi\n      pop\n      0x40\n      dup1\n      mload\n      0x1f\n      returndatasize\n      swap1\n      dup2\n      add\n      not(0x1f)\n      and\n      dup3\n      add\n      swap1\n      swap3\n      mstore\n      tag_436\n      swap2\n      dup2\n      add\n      swap1\n      tag_326\n      jump\t// in\n    tag_436:\n      0x01\n    tag_435:\n        /* \"@openzeppelin/contracts-upgradeable/proxy/utils/UUPSUpgradeable.sol\":6127:6564  try IERC1822Proxiable(newImplementation).proxiableUUID() returns (bytes32 slot) {... */\n      tag_438\n      jumpi\n        /* \"@openzeppelin/contracts-upgradeable/proxy/utils/UUPSUpgradeable.sol\":6493:6553  ERC1967Utils.ERC1967InvalidImplementation(newImplementation) */\n      mload(0x40)\n      shl(0xe0, 0x4c9c8ce3)\n      dup2\n      mstore\n      sub(shl(0xa0, 0x01), 0x01)\n        /* \"#utility.yul\":3345:3377   */\n      dup4\n      and\n        /* \"@openzeppelin/contracts-upgradeable/proxy/utils/UUPSUpgradeable.sol\":6493:6553  ERC1967Utils.ERC1967InvalidImplementation(newImplementation) */\n      0x04\n      dup3\n      add\n        /* \"#utility.yul\":3327:3378   */\n      mstore\n        /* \"#utility.yul\":3300:3318   */\n      0x24\n      add\n        /* \"@openzeppelin/contracts-upgradeable/proxy/utils/UUPSUpgradeable.sol\":6493:6553  ERC1967Utils.ERC1967InvalidImplementation(newImplementation) */\n      tag_172\n        /* \"#utility.yul\":3181:3384   */\n      jump\n        /* \"@openzeppelin/contracts-upgradeable/proxy/utils/UUPSUpgradeable.sol\":6127:6564  try IERC1822Proxiable(newImplementation).proxiableUUID() returns (bytes32 slot) {... */\n    tag_438:\n      mload(0x00)\n      codecopy(0x00, data_75b20eef8615de99c108b05f0dbda081c91897128caa336d75dffb97c4132b4d, 0x20)\n      mload(0x00)\n      swap1\n      0x00\n      mstore\n        /* \"@openzeppelin/contracts-upgradeable/proxy/utils/UUPSUpgradeable.sol\":6225:6265  slot != ERC1967Utils.IMPLEMENTATION_SLOT */\n      dup2\n      eq\n        /* \"@openzeppelin/contracts-upgradeable/proxy/utils/UUPSUpgradeable.sol\":6221:6341  if (slot != ERC1967Utils.IMPLEMENTATION_SLOT) {... */\n      tag_444\n      jumpi\n        /* \"@openzeppelin/contracts-upgradeable/proxy/utils/UUPSUpgradeable.sol\":6292:6326  UUPSUnsupportedProxiableUUID(slot) */\n      mload(0x40)\n      shl(0xe2, 0x2a875269)\n      dup2\n      mstore\n      0x04\n      dup2\n      add\n        /* \"#utility.yul\":160:185   */\n      dup3\n      swap1\n      mstore\n        /* \"#utility.yul\":133:151   */\n      0x24\n      add\n        /* \"@openzeppelin/contracts-upgradeable/proxy/utils/UUPSUpgradeable.sol\":6292:6326  UUPSUnsupportedProxiableUUID(slot) */\n      tag_172\n        /* \"#utility.yul\":14:191   */\n      jump\n        /* \"@openzeppelin/contracts-upgradeable/proxy/utils/UUPSUpgradeable.sol\":6221:6341  if (slot != ERC1967Utils.IMPLEMENTATION_SLOT) {... */\n    tag_444:\n        /* \"@openzeppelin/contracts-upgradeable/proxy/utils/UUPSUpgradeable.sol\":6354:6408  ERC1967Utils.upgradeToAndCall(newImplementation, data) */\n      tag_446\n        /* \"@openzeppelin/contracts-upgradeable/proxy/utils/UUPSUpgradeable.sol\":6384:6401  newImplementation */\n      dup4\n        /* \"@openzeppelin/contracts-upgradeable/proxy/utils/UUPSUpgradeable.sol\":6403:6407  data */\n      dup4\n        /* \"@openzeppelin/contracts-upgradeable/proxy/utils/UUPSUpgradeable.sol\":6354:6383  ERC1967Utils.upgradeToAndCall */\n      tag_447\n        /* \"@openzeppelin/contracts-upgradeable/proxy/utils/UUPSUpgradeable.sol\":6354:6408  ERC1967Utils.upgradeToAndCall(newImplementation, data) */\n      jump\t// in\n    tag_446:\n        /* \"@openzeppelin/contracts-upgradeable/proxy/utils/UUPSUpgradeable.sol\":6184:6419  returns (bytes32 slot) {... */\n      pop\n        /* \"@openzeppelin/contracts-upgradeable/proxy/utils/UUPSUpgradeable.sol\":6032:6570  function _upgradeToAndCallUUPS(address newImplementation, bytes memory data) private {... */\n      pop\n      pop\n      jump\t// out\n        /* \"@openzeppelin/contracts-upgradeable/proxy/utils/UUPSUpgradeable.sol\":5007:5220  function _checkNotDelegated() internal view virtual {... */\n    tag_282:\n        /* \"@openzeppelin/contracts-upgradeable/proxy/utils/UUPSUpgradeable.sol\":5081:5085  this */\n      address\n      sub(shl(0xa0, 0x01), 0x01)\n        /* \"@openzeppelin/contracts-upgradeable/proxy/utils/UUPSUpgradeable.sol\":5090:5096  __self */\n      immutable(\"0x7e11962f85eb7ceb5b38e296d507e5039b360e5ad6815220a68768366dc10fdd\")\n        /* \"@openzeppelin/contracts-upgradeable/proxy/utils/UUPSUpgradeable.sol\":5073:5096  address(this) != __self */\n      and\n      eq\n        /* \"@openzeppelin/contracts-upgradeable/proxy/utils/UUPSUpgradeable.sol\":5069:5214  if (address(this) != __self) {... */\n      tag_332\n      jumpi\n        /* \"@openzeppelin/contracts-upgradeable/proxy/utils/UUPSUpgradeable.sol\":5174:5203  UUPSUnauthorizedCallContext() */\n      mload(0x40)\n      shl(0xe1, 0x703e46dd)\n      dup2\n      mstore\n      0x04\n      add\n      mload(0x40)\n      dup1\n      swap2\n      sub\n      swap1\n      revert\n        /* \"@chainlink/contracts/src/v0.8/vrf/dev/libraries/VRFV2PlusClient.sol\":475:638  function _argsToBytes(ExtraArgsV1 memory extraArgs) internal pure returns (bytes memory bts) {... */\n    tag_320:\n        /* \"@chainlink/contracts/src/v0.8/vrf/dev/libraries/VRFV2PlusClient.sol\":550:566  bytes memory bts */\n      0x60\n        /* \"@chainlink/contracts/src/v0.8/vrf/dev/libraries/VRFV2PlusClient.sol\":211:239  keccak256(\"VRF ExtraArgsV1\") */\n      0x92fd13387c7fe7befbc38d303d6468778fb9731bc4583f17d92989c6fcfdeaaa\n        /* \"@chainlink/contracts/src/v0.8/vrf/dev/libraries/VRFV2PlusClient.sol\":623:632  extraArgs */\n      dup3\n        /* \"@chainlink/contracts/src/v0.8/vrf/dev/libraries/VRFV2PlusClient.sol\":581:633  abi.encodeWithSelector(EXTRA_ARGS_V1_TAG, extraArgs) */\n      add(0x24, mload(0x40))\n      tag_451\n      swap2\n        /* \"#utility.yul\":20457:20470   */\n      mload\n        /* \"#utility.yul\":20450:20471   */\n      iszero\n        /* \"#utility.yul\":20443:20472   */\n      iszero\n        /* \"#utility.yul\":20425:20473   */\n      dup2\n      mstore\n        /* \"#utility.yul\":20413:20415   */\n      0x20\n        /* \"#utility.yul\":20398:20416   */\n      add\n      swap1\n        /* \"#utility.yul\":20223:20479   */\n      jump\n        /* \"@chainlink/contracts/src/v0.8/vrf/dev/libraries/VRFV2PlusClient.sol\":581:633  abi.encodeWithSelector(EXTRA_ARGS_V1_TAG, extraArgs) */\n    tag_451:\n      0x40\n      dup1\n      mload\n      not(0x1f)\n      dup2\n      dup5\n      sub\n      add\n      dup2\n      mstore\n      swap2\n      swap1\n      mstore\n      0x20\n      dup2\n      add\n      dup1\n      mload\n      sub(shl(0xe0, 0x01), 0x01)\n      and\n      not(sub(shl(0xe0, 0x01), 0x01))\n      swap1\n      swap4\n      and\n      swap3\n      swap1\n      swap3\n      or\n      swap1\n      swap2\n      mstore\n      swap3\n        /* \"@chainlink/contracts/src/v0.8/vrf/dev/libraries/VRFV2PlusClient.sol\":475:638  function _argsToBytes(ExtraArgsV1 memory extraArgs) internal pure returns (bytes memory bts) {... */\n      swap2\n      pop\n      pop\n      jump\t// out\n        /* \"@openzeppelin/contracts-upgradeable/access/OwnableUpgradeable.sol\":3774:4022  function _transferOwnership(address newOwner) internal virtual {... */\n    tag_333:\n        /* \"@openzeppelin/contracts-upgradeable/access/OwnableUpgradeable.sol\":1313:1335  OwnableStorageLocation */\n      0x9016d09d72d40fdae2fd8ceac6b6234c7706214fd39c1cd1e609a0528c199300\n        /* \"@openzeppelin/contracts-upgradeable/access/OwnableUpgradeable.sol\":3923:3931  $._owner */\n      dup1\n      sload\n      not(sub(shl(0xa0, 0x01), 0x01))\n        /* \"@openzeppelin/contracts-upgradeable/access/OwnableUpgradeable.sol\":3941:3960  $._owner = newOwner */\n      dup2\n      and\n      sub(shl(0xa0, 0x01), 0x01)\n      dup5\n      dup2\n      and\n      swap2\n      dup3\n      or\n      dup5\n      sstore\n        /* \"@openzeppelin/contracts-upgradeable/access/OwnableUpgradeable.sol\":3975:4015  OwnershipTransferred(oldOwner, newOwner) */\n      mload(0x40)\n        /* \"@openzeppelin/contracts-upgradeable/access/OwnableUpgradeable.sol\":3923:3931  $._owner */\n      swap3\n      and\n      swap2\n      dup3\n      swap1\n        /* \"@openzeppelin/contracts-upgradeable/access/OwnableUpgradeable.sol\":3975:4015  OwnershipTransferred(oldOwner, newOwner) */\n      0x8be0079c531659141344cd1fd0a4f28419497f9722a3daafe3b4186f6b6457e0\n      swap1\n        /* \"@openzeppelin/contracts-upgradeable/access/OwnableUpgradeable.sol\":3847:3871  OwnableStorage storage $ */\n      0x00\n      swap1\n        /* \"@openzeppelin/contracts-upgradeable/access/OwnableUpgradeable.sol\":3975:4015  OwnershipTransferred(oldOwner, newOwner) */\n      log3\n        /* \"@openzeppelin/contracts-upgradeable/access/OwnableUpgradeable.sol\":3837:4022  {... */\n      pop\n      pop\n        /* \"@openzeppelin/contracts-upgradeable/access/OwnableUpgradeable.sol\":3774:4022  function _transferOwnership(address newOwner) internal virtual {... */\n      pop\n      jump\t// out\n        /* \"@openzeppelin/contracts-upgradeable/proxy/utils/Initializable.sol\":7082:7223  function _checkInitializing() internal view virtual {... */\n    tag_404:\n        /* \"@openzeppelin/contracts-upgradeable/proxy/utils/Initializable.sol\":7149:7166  _isInitializing() */\n      tag_458\n        /* \"@openzeppelin/contracts-upgradeable/proxy/utils/Initializable.sol\":7149:7164  _isInitializing */\n      tag_459\n        /* \"@openzeppelin/contracts-upgradeable/proxy/utils/Initializable.sol\":7149:7166  _isInitializing() */\n      jump\t// in\n    tag_458:\n        /* \"@openzeppelin/contracts-upgradeable/proxy/utils/Initializable.sol\":7144:7217  if (!_isInitializing()) {... */\n      tag_332\n      jumpi\n        /* \"@openzeppelin/contracts-upgradeable/proxy/utils/Initializable.sol\":7189:7206  NotInitializing() */\n      mload(0x40)\n      shl(0xe3, 0x1afcd79f)\n      dup2\n      mstore\n      0x04\n      add\n      mload(0x40)\n      dup1\n      swap2\n      sub\n      swap1\n      revert\n        /* \"@openzeppelin/contracts-upgradeable/access/OwnableUpgradeable.sol\":1980:2215  function __Ownable_init_unchained(address initialOwner) internal onlyInitializing {... */\n    tag_407:\n        /* \"@openzeppelin/contracts-upgradeable/proxy/utils/Initializable.sol\":6929:6949  _checkInitializing() */\n      tag_372\n        /* \"@openzeppelin/contracts-upgradeable/proxy/utils/Initializable.sol\":6929:6947  _checkInitializing */\n      tag_404\n        /* \"@openzeppelin/contracts-upgradeable/proxy/utils/Initializable.sol\":6929:6949  _checkInitializing() */\n      jump\t// in\n        /* \"@openzeppelin/contracts/proxy/ERC1967/ERC1967Utils.sol\":2264:2608  function upgradeToAndCall(address newImplementation, bytes memory data) internal {... */\n    tag_447:\n        /* \"@openzeppelin/contracts/proxy/ERC1967/ERC1967Utils.sol\":2355:2392  _setImplementation(newImplementation) */\n      tag_472\n        /* \"@openzeppelin/contracts/proxy/ERC1967/ERC1967Utils.sol\":2374:2391  newImplementation */\n      dup3\n        /* \"@openzeppelin/contracts/proxy/ERC1967/ERC1967Utils.sol\":2355:2373  _setImplementation */\n      tag_473\n        /* \"@openzeppelin/contracts/proxy/ERC1967/ERC1967Utils.sol\":2355:2392  _setImplementation(newImplementation) */\n      jump\t// in\n    tag_472:\n        /* \"@openzeppelin/contracts/proxy/ERC1967/ERC1967Utils.sol\":2407:2443  IERC1967.Upgraded(newImplementation) */\n      mload(0x40)\n      sub(shl(0xa0, 0x01), 0x01)\n      dup4\n      and\n      swap1\n      0xbc7cd75a20ee27fd9adebab32041f755214dbc6bffa90cc0225b39da2e5c2d3b\n      swap1\n      0x00\n      swap1\n      log2\n        /* \"@openzeppelin/contracts/proxy/ERC1967/ERC1967Utils.sol\":2458:2469  data.length */\n      dup1\n      mload\n        /* \"@openzeppelin/contracts/proxy/ERC1967/ERC1967Utils.sol\":2458:2473  data.length > 0 */\n      iszero\n        /* \"@openzeppelin/contracts/proxy/ERC1967/ERC1967Utils.sol\":2454:2602  if (data.length > 0) {... */\n      tag_474\n      jumpi\n        /* \"@openzeppelin/contracts/proxy/ERC1967/ERC1967Utils.sol\":2489:2542  Address.functionDelegateCall(newImplementation, data) */\n      tag_446\n        /* \"@openzeppelin/contracts/proxy/ERC1967/ERC1967Utils.sol\":2518:2535  newImplementation */\n      dup3\n        /* \"@openzeppelin/contracts/proxy/ERC1967/ERC1967Utils.sol\":2537:2541  data */\n      dup3\n        /* \"@openzeppelin/contracts/proxy/ERC1967/ERC1967Utils.sol\":2489:2517  Address.functionDelegateCall */\n      tag_476\n        /* \"@openzeppelin/contracts/proxy/ERC1967/ERC1967Utils.sol\":2489:2542  Address.functionDelegateCall(newImplementation, data) */\n      jump\t// in\n        /* \"@openzeppelin/contracts/proxy/ERC1967/ERC1967Utils.sol\":2454:2602  if (data.length > 0) {... */\n    tag_474:\n        /* \"@openzeppelin/contracts/proxy/ERC1967/ERC1967Utils.sol\":2573:2591  _checkNonPayable() */\n      tag_174\n        /* \"@openzeppelin/contracts/proxy/ERC1967/ERC1967Utils.sol\":2573:2589  _checkNonPayable */\n      tag_479\n        /* \"@openzeppelin/contracts/proxy/ERC1967/ERC1967Utils.sol\":2573:2591  _checkNonPayable() */\n      jump\t// in\n        /* \"@openzeppelin/contracts-upgradeable/proxy/utils/Initializable.sol\":8485:8605  function _isInitializing() internal view returns (bool) {... */\n    tag_459:\n        /* \"@openzeppelin/contracts-upgradeable/proxy/utils/Initializable.sol\":8535:8539  bool */\n      0x00\n        /* \"@openzeppelin/contracts-upgradeable/proxy/utils/Initializable.sol\":8558:8584  _getInitializableStorage() */\n      tag_481\n        /* \"@openzeppelin/contracts-upgradeable/proxy/utils/Initializable.sol\":8558:8582  _getInitializableStorage */\n      tag_178\n        /* \"@openzeppelin/contracts-upgradeable/proxy/utils/Initializable.sol\":8558:8584  _getInitializableStorage() */\n      jump\t// in\n    tag_481:\n        /* \"@openzeppelin/contracts-upgradeable/proxy/utils/Initializable.sol\":8558:8598  _getInitializableStorage()._initializing */\n      sload\n      shl(0x40, 0x01)\n      swap1\n      div\n      0xff\n      and\n      swap2\n      swap1\n      pop\n        /* \"@openzeppelin/contracts-upgradeable/proxy/utils/Initializable.sol\":8485:8605  function _isInitializing() internal view returns (bool) {... */\n      jump\t// out\n        /* \"@openzeppelin/contracts/proxy/ERC1967/ERC1967Utils.sol\":1671:1952  function _setImplementation(address newImplementation) private {... */\n    tag_473:\n        /* \"@openzeppelin/contracts/proxy/ERC1967/ERC1967Utils.sol\":1748:1765  newImplementation */\n      dup1\n      sub(shl(0xa0, 0x01), 0x01)\n        /* \"@openzeppelin/contracts/proxy/ERC1967/ERC1967Utils.sol\":1748:1777  newImplementation.code.length */\n      and\n      extcodesize\n        /* \"@openzeppelin/contracts/proxy/ERC1967/ERC1967Utils.sol\":1781:1782  0 */\n      0x00\n        /* \"@openzeppelin/contracts/proxy/ERC1967/ERC1967Utils.sol\":1748:1782  newImplementation.code.length == 0 */\n      sub\n        /* \"@openzeppelin/contracts/proxy/ERC1967/ERC1967Utils.sol\":1744:1863  if (newImplementation.code.length == 0) {... */\n      tag_484\n      jumpi\n        /* \"@openzeppelin/contracts/proxy/ERC1967/ERC1967Utils.sol\":1805:1852  ERC1967InvalidImplementation(newImplementation) */\n      mload(0x40)\n      shl(0xe0, 0x4c9c8ce3)\n      dup2\n      mstore\n      sub(shl(0xa0, 0x01), 0x01)\n        /* \"#utility.yul\":3345:3377   */\n      dup3\n      and\n        /* \"@openzeppelin/contracts/proxy/ERC1967/ERC1967Utils.sol\":1805:1852  ERC1967InvalidImplementation(newImplementation) */\n      0x04\n      dup3\n      add\n        /* \"#utility.yul\":3327:3378   */\n      mstore\n        /* \"#utility.yul\":3300:3318   */\n      0x24\n      add\n        /* \"@openzeppelin/contracts/proxy/ERC1967/ERC1967Utils.sol\":1805:1852  ERC1967InvalidImplementation(newImplementation) */\n      tag_172\n        /* \"#utility.yul\":3181:3384   */\n      jump\n        /* \"@openzeppelin/contracts/proxy/ERC1967/ERC1967Utils.sol\":1744:1863  if (newImplementation.code.length == 0) {... */\n    tag_484:\n      mload(0x00)\n      codecopy(0x00, data_75b20eef8615de99c108b05f0dbda081c91897128caa336d75dffb97c4132b4d, 0x20)\n      mload(0x00)\n      swap1\n      0x00\n      mstore\n        /* \"@openzeppelin/contracts/proxy/ERC1967/ERC1967Utils.sol\":1872:1945  StorageSlot.getAddressSlot(IMPLEMENTATION_SLOT).value = newImplementation */\n      dup1\n      sload\n      not(sub(shl(0xa0, 0x01), 0x01))\n      and\n      sub(shl(0xa0, 0x01), 0x01)\n      swap3\n      swap1\n      swap3\n      and\n      swap2\n      swap1\n      swap2\n      or\n      swap1\n      sstore\n        /* \"@openzeppelin/contracts/proxy/ERC1967/ERC1967Utils.sol\":1671:1952  function _setImplementation(address newImplementation) private {... */\n      jump\t// out\n        /* \"@openzeppelin/contracts/utils/Address.sol\":3916:4169  function functionDelegateCall(address target, bytes memory data) internal returns (bytes memory) {... */\n    tag_476:\n        /* \"@openzeppelin/contracts/utils/Address.sol\":3999:4011  bytes memory */\n      0x60\n        /* \"@openzeppelin/contracts/utils/Address.sol\":4024:4036  bool success */\n      0x00\n        /* \"@openzeppelin/contracts/utils/Address.sol\":4038:4061  bytes memory returndata */\n      0x00\n        /* \"@openzeppelin/contracts/utils/Address.sol\":4065:4071  target */\n      dup5\n      sub(shl(0xa0, 0x01), 0x01)\n        /* \"@openzeppelin/contracts/utils/Address.sol\":4065:4084  target.delegatecall */\n      and\n        /* \"@openzeppelin/contracts/utils/Address.sol\":4085:4089  data */\n      dup5\n        /* \"@openzeppelin/contracts/utils/Address.sol\":4065:4090  target.delegatecall(data) */\n      mload(0x40)\n      tag_488\n      swap2\n      swap1\n      tag_489\n      jump\t// in\n    tag_488:\n      0x00\n      mload(0x40)\n      dup1\n      dup4\n      sub\n      dup2\n      dup6\n      gas\n      delegatecall\n      swap2\n      pop\n      pop\n      returndatasize\n      dup1\n      0x00\n      dup2\n      eq\n      tag_492\n      jumpi\n      mload(0x40)\n      swap2\n      pop\n      and(add(returndatasize, 0x3f), not(0x1f))\n      dup3\n      add\n      0x40\n      mstore\n      returndatasize\n      dup3\n      mstore\n      returndatasize\n      0x00\n      0x20\n      dup5\n      add\n      returndatacopy\n      jump(tag_491)\n    tag_492:\n      0x60\n      swap2\n      pop\n    tag_491:\n      pop\n        /* \"@openzeppelin/contracts/utils/Address.sol\":4023:4090  (bool success, bytes memory returndata) = target.delegatecall(data) */\n      swap2\n      pop\n      swap2\n      pop\n        /* \"@openzeppelin/contracts/utils/Address.sol\":4107:4162  verifyCallResultFromTarget(target, success, returndata) */\n      tag_493\n        /* \"@openzeppelin/contracts/utils/Address.sol\":4134:4140  target */\n      dup6\n        /* \"@openzeppelin/contracts/utils/Address.sol\":4142:4149  success */\n      dup4\n        /* \"@openzeppelin/contracts/utils/Address.sol\":4151:4161  returndata */\n      dup4\n        /* \"@openzeppelin/contracts/utils/Address.sol\":4107:4133  verifyCallResultFromTarget */\n      tag_494\n        /* \"@openzeppelin/contracts/utils/Address.sol\":4107:4162  verifyCallResultFromTarget(target, success, returndata) */\n      jump\t// in\n    tag_493:\n        /* \"@openzeppelin/contracts/utils/Address.sol\":4100:4162  return verifyCallResultFromTarget(target, success, returndata) */\n      swap6\n        /* \"@openzeppelin/contracts/utils/Address.sol\":3916:4169  function functionDelegateCall(address target, bytes memory data) internal returns (bytes memory) {... */\n      swap5\n      pop\n      pop\n      pop\n      pop\n      pop\n      jump\t// out\n        /* \"@openzeppelin/contracts/proxy/ERC1967/ERC1967Utils.sol\":6113:6235  function _checkNonPayable() private {... */\n    tag_479:\n        /* \"@openzeppelin/contracts/proxy/ERC1967/ERC1967Utils.sol\":6163:6172  msg.value */\n      callvalue\n        /* \"@openzeppelin/contracts/proxy/ERC1967/ERC1967Utils.sol\":6163:6176  msg.value > 0 */\n      iszero\n        /* \"@openzeppelin/contracts/proxy/ERC1967/ERC1967Utils.sol\":6159:6229  if (msg.value > 0) {... */\n      tag_332\n      jumpi\n        /* \"@openzeppelin/contracts/proxy/ERC1967/ERC1967Utils.sol\":6199:6218  ERC1967NonPayable() */\n      mload(0x40)\n      shl(0xe0, 0xb398979f)\n      dup2\n      mstore\n      0x04\n      add\n      mload(0x40)\n      dup1\n      swap2\n      sub\n      swap1\n      revert\n        /* \"@openzeppelin/contracts/utils/Address.sol\":4437:5019  function verifyCallResultFromTarget(... */\n    tag_494:\n        /* \"@openzeppelin/contracts/utils/Address.sol\":4581:4593  bytes memory */\n      0x60\n        /* \"@openzeppelin/contracts/utils/Address.sol\":4610:4617  success */\n      dup3\n        /* \"@openzeppelin/contracts/utils/Address.sol\":4605:5013  if (!success) {... */\n      tag_498\n      jumpi\n        /* \"@openzeppelin/contracts/utils/Address.sol\":4633:4652  _revert(returndata) */\n      tag_499\n        /* \"@openzeppelin/contracts/utils/Address.sol\":4641:4651  returndata */\n      dup3\n        /* \"@openzeppelin/contracts/utils/Address.sol\":4633:4640  _revert */\n      tag_500\n        /* \"@openzeppelin/contracts/utils/Address.sol\":4633:4652  _revert(returndata) */\n      jump\t// in\n    tag_499:\n        /* \"@openzeppelin/contracts/utils/Address.sol\":4605:5013  if (!success) {... */\n      jump(tag_501)\n    tag_498:\n        /* \"@openzeppelin/contracts/utils/Address.sol\":4857:4874  returndata.length */\n      dup2\n      mload\n        /* \"@openzeppelin/contracts/utils/Address.sol\":4857:4879  returndata.length == 0 */\n      iszero\n        /* \"@openzeppelin/contracts/utils/Address.sol\":4857:4906  returndata.length == 0 && target.code.length == 0 */\n      dup1\n      iszero\n      tag_502\n      jumpi\n      pop\n      sub(shl(0xa0, 0x01), 0x01)\n        /* \"@openzeppelin/contracts/utils/Address.sol\":4883:4901  target.code.length */\n      dup5\n      and\n      extcodesize\n        /* \"@openzeppelin/contracts/utils/Address.sol\":4883:4906  target.code.length == 0 */\n      iszero\n        /* \"@openzeppelin/contracts/utils/Address.sol\":4857:4906  returndata.length == 0 && target.code.length == 0 */\n    tag_502:\n        /* \"@openzeppelin/contracts/utils/Address.sol\":4853:4972  if (returndata.length == 0 && target.code.length == 0) {... */\n      iszero\n      tag_503\n      jumpi\n        /* \"@openzeppelin/contracts/utils/Address.sol\":4933:4957  AddressEmptyCode(target) */\n      mload(0x40)\n      shl(0xe0, 0x9996b315)\n      dup2\n      mstore\n      sub(shl(0xa0, 0x01), 0x01)\n        /* \"#utility.yul\":3345:3377   */\n      dup6\n      and\n        /* \"@openzeppelin/contracts/utils/Address.sol\":4933:4957  AddressEmptyCode(target) */\n      0x04\n      dup3\n      add\n        /* \"#utility.yul\":3327:3378   */\n      mstore\n        /* \"#utility.yul\":3300:3318   */\n      0x24\n      add\n        /* \"@openzeppelin/contracts/utils/Address.sol\":4933:4957  AddressEmptyCode(target) */\n      tag_172\n        /* \"#utility.yul\":3181:3384   */\n      jump\n        /* \"@openzeppelin/contracts/utils/Address.sol\":4853:4972  if (returndata.length == 0 && target.code.length == 0) {... */\n    tag_503:\n      pop\n        /* \"@openzeppelin/contracts/utils/Address.sol\":4992:5002  returndata */\n      dup1\n        /* \"@openzeppelin/contracts/utils/Address.sol\":4605:5013  if (!success) {... */\n    tag_501:\n        /* \"@openzeppelin/contracts/utils/Address.sol\":4437:5019  function verifyCallResultFromTarget(... */\n      swap4\n      swap3\n      pop\n      pop\n      pop\n      jump\t// out\n        /* \"@openzeppelin/contracts/utils/Address.sol\":5559:6046  function _revert(bytes memory returndata) private pure {... */\n    tag_500:\n        /* \"@openzeppelin/contracts/utils/Address.sol\":5690:5707  returndata.length */\n      dup1\n      mload\n        /* \"@openzeppelin/contracts/utils/Address.sol\":5690:5711  returndata.length > 0 */\n      iszero\n        /* \"@openzeppelin/contracts/utils/Address.sol\":5686:6040  if (returndata.length > 0) {... */\n      tag_506\n      jumpi\n        /* \"@openzeppelin/contracts/utils/Address.sol\":5887:5897  returndata */\n      dup1\n        /* \"@openzeppelin/contracts/utils/Address.sol\":5881:5898  mload(returndata) */\n      mload\n        /* \"@openzeppelin/contracts/utils/Address.sol\":5943:5958  returndata_size */\n      dup1\n        /* \"@openzeppelin/contracts/utils/Address.sol\":5930:5940  returndata */\n      dup3\n        /* \"@openzeppelin/contracts/utils/Address.sol\":5926:5928  32 */\n      0x20\n        /* \"@openzeppelin/contracts/utils/Address.sol\":5922:5941  add(32, returndata) */\n      add\n        /* \"@openzeppelin/contracts/utils/Address.sol\":5915:5959  revert(add(32, returndata), returndata_size) */\n      revert\n        /* \"@openzeppelin/contracts/utils/Address.sol\":5686:6040  if (returndata.length > 0) {... */\n    tag_506:\n        /* \"@openzeppelin/contracts/utils/Address.sol\":6010:6029  Errors.FailedCall() */\n      mload(0x40)\n      shl(0xe0, 0xd6bda275)\n      dup2\n      mstore\n      0x04\n      add\n      mload(0x40)\n      dup1\n      swap2\n      sub\n      swap1\n      revert\n    tag_350:\n      pop\n      dup1\n      sload\n      0x00\n      dup3\n      sstore\n      swap1\n      0x00\n      mstore\n      keccak256(0x00, 0x20)\n      swap1\n      dup2\n      add\n      swap1\n      tag_251\n      swap2\n      swap1\n    tag_511:\n      dup1\n      dup3\n      gt\n      iszero\n      tag_512\n      jumpi\n      0x00\n      dup2\n      sstore\n      0x01\n      add\n      jump(tag_511)\n    tag_512:\n      pop\n      swap1\n      jump\t// out\n        /* \"#utility.yul\":196:422   */\n    tag_46:\n        /* \"#utility.yul\":255:261   */\n      0x00\n        /* \"#utility.yul\":308:310   */\n      0x20\n        /* \"#utility.yul\":296:305   */\n      dup3\n        /* \"#utility.yul\":287:294   */\n      dup5\n        /* \"#utility.yul\":283:306   */\n      sub\n        /* \"#utility.yul\":279:311   */\n      slt\n        /* \"#utility.yul\":276:328   */\n      iszero\n      tag_522\n      jumpi\n        /* \"#utility.yul\":324:325   */\n      0x00\n        /* \"#utility.yul\":321:322   */\n      0x00\n        /* \"#utility.yul\":314:326   */\n      revert\n        /* \"#utility.yul\":276:328   */\n    tag_522:\n      pop\n        /* \"#utility.yul\":369:392   */\n      calldataload\n      swap2\n        /* \"#utility.yul\":196:422   */\n      swap1\n      pop\n      jump\t// out\n        /* \"#utility.yul\":1654:1781   */\n    tag_514:\n        /* \"#utility.yul\":1715:1725   */\n      0x4e487b71\n        /* \"#utility.yul\":1710:1713   */\n      0xe0\n        /* \"#utility.yul\":1706:1726   */\n      shl\n        /* \"#utility.yul\":1703:1704   */\n      0x00\n        /* \"#utility.yul\":1696:1727   */\n      mstore\n        /* \"#utility.yul\":1746:1750   */\n      0x41\n        /* \"#utility.yul\":1743:1744   */\n      0x04\n        /* \"#utility.yul\":1736:1751   */\n      mstore\n        /* \"#utility.yul\":1770:1774   */\n      0x24\n        /* \"#utility.yul\":1767:1768   */\n      0x00\n        /* \"#utility.yul\":1760:1775   */\n      revert\n        /* \"#utility.yul\":1786:2061   */\n    tag_515:\n        /* \"#utility.yul\":1857:1859   */\n      0x40\n        /* \"#utility.yul\":1851:1860   */\n      mload\n        /* \"#utility.yul\":1922:1924   */\n      0x1f\n        /* \"#utility.yul\":1903:1916   */\n      dup3\n      add\n      not(0x1f)\n        /* \"#utility.yul\":1899:1926   */\n      and\n        /* \"#utility.yul\":1887:1927   */\n      dup2\n      add\n        /* \"#utility.yul\":1957:1975   */\n      0xffffffffffffffff\n        /* \"#utility.yul\":1942:1976   */\n      dup2\n      gt\n        /* \"#utility.yul\":1978:2000   */\n      dup3\n      dup3\n      lt\n        /* \"#utility.yul\":1939:2001   */\n      or\n        /* \"#utility.yul\":1936:2024   */\n      iszero\n      tag_529\n      jumpi\n        /* \"#utility.yul\":2004:2022   */\n      tag_529\n      tag_514\n      jump\t// in\n    tag_529:\n        /* \"#utility.yul\":2040:2042   */\n      0x40\n        /* \"#utility.yul\":2033:2055   */\n      mstore\n        /* \"#utility.yul\":1786:2061   */\n      swap2\n      swap1\n      pop\n      jump\t// out\n        /* \"#utility.yul\":2066:3176   */\n    tag_58:\n        /* \"#utility.yul\":2159:2165   */\n      0x00\n        /* \"#utility.yul\":2167:2173   */\n      0x00\n        /* \"#utility.yul\":2220:2222   */\n      0x40\n        /* \"#utility.yul\":2208:2217   */\n      dup4\n        /* \"#utility.yul\":2199:2206   */\n      dup6\n        /* \"#utility.yul\":2195:2218   */\n      sub\n        /* \"#utility.yul\":2191:2223   */\n      slt\n        /* \"#utility.yul\":2188:2240   */\n      iszero\n      tag_531\n      jumpi\n        /* \"#utility.yul\":2236:2237   */\n      0x00\n        /* \"#utility.yul\":2233:2234   */\n      0x00\n        /* \"#utility.yul\":2226:2238   */\n      revert\n        /* \"#utility.yul\":2188:2240   */\n    tag_531:\n        /* \"#utility.yul\":2281:2304   */\n      dup3\n      calldataload\n      swap2\n      pop\n        /* \"#utility.yul\":2379:2381   */\n      0x20\n        /* \"#utility.yul\":2364:2382   */\n      dup4\n      add\n        /* \"#utility.yul\":2351:2383   */\n      calldataload\n        /* \"#utility.yul\":2406:2424   */\n      0xffffffffffffffff\n        /* \"#utility.yul\":2395:2425   */\n      dup2\n      gt\n        /* \"#utility.yul\":2392:2442   */\n      iszero\n      tag_532\n      jumpi\n        /* \"#utility.yul\":2438:2439   */\n      0x00\n        /* \"#utility.yul\":2435:2436   */\n      0x00\n        /* \"#utility.yul\":2428:2440   */\n      revert\n        /* \"#utility.yul\":2392:2442   */\n    tag_532:\n        /* \"#utility.yul\":2461:2483   */\n      dup4\n      add\n        /* \"#utility.yul\":2514:2518   */\n      0x1f\n        /* \"#utility.yul\":2506:2519   */\n      dup2\n      add\n        /* \"#utility.yul\":2502:2529   */\n      dup6\n      sgt\n        /* \"#utility.yul\":2492:2547   */\n      tag_533\n      jumpi\n        /* \"#utility.yul\":2543:2544   */\n      0x00\n        /* \"#utility.yul\":2540:2541   */\n      0x00\n        /* \"#utility.yul\":2533:2545   */\n      revert\n        /* \"#utility.yul\":2492:2547   */\n    tag_533:\n        /* \"#utility.yul\":2583:2585   */\n      dup1\n        /* \"#utility.yul\":2570:2586   */\n      calldataload\n        /* \"#utility.yul\":2609:2627   */\n      0xffffffffffffffff\n        /* \"#utility.yul\":2601:2607   */\n      dup2\n        /* \"#utility.yul\":2598:2628   */\n      gt\n        /* \"#utility.yul\":2595:2651   */\n      iszero\n      tag_535\n      jumpi\n        /* \"#utility.yul\":2631:2649   */\n      tag_535\n      tag_514\n      jump\t// in\n    tag_535:\n        /* \"#utility.yul\":2677:2683   */\n      dup1\n        /* \"#utility.yul\":2674:2675   */\n      0x05\n        /* \"#utility.yul\":2670:2684   */\n      shl\n        /* \"#utility.yul\":2704:2732   */\n      tag_536\n        /* \"#utility.yul\":2728:2730   */\n      0x20\n        /* \"#utility.yul\":2724:2726   */\n      dup3\n        /* \"#utility.yul\":2720:2731   */\n      add\n        /* \"#utility.yul\":2704:2732   */\n      tag_515\n      jump\t// in\n    tag_536:\n        /* \"#utility.yul\":2766:2785   */\n      swap2\n      dup3\n      mstore\n        /* \"#utility.yul\":2810:2812   */\n      0x20\n        /* \"#utility.yul\":2840:2851   */\n      dup2\n      dup5\n      add\n        /* \"#utility.yul\":2836:2856   */\n      dup2\n      add\n      swap3\n        /* \"#utility.yul\":2801:2813   */\n      swap1\n      dup2\n      add\n      swap1\n        /* \"#utility.yul\":2868:2887   */\n      dup9\n      dup5\n      gt\n        /* \"#utility.yul\":2865:2904   */\n      iszero\n      tag_537\n      jumpi\n        /* \"#utility.yul\":2900:2901   */\n      0x00\n        /* \"#utility.yul\":2897:2898   */\n      0x00\n        /* \"#utility.yul\":2890:2902   */\n      revert\n        /* \"#utility.yul\":2865:2904   */\n    tag_537:\n        /* \"#utility.yul\":2932:2934   */\n      0x20\n        /* \"#utility.yul\":2928:2930   */\n      dup6\n        /* \"#utility.yul\":2924:2935   */\n      add\n        /* \"#utility.yul\":2913:2935   */\n      swap5\n      pop\n        /* \"#utility.yul\":2944:3146   */\n    tag_538:\n        /* \"#utility.yul\":2960:2966   */\n      dup4\n        /* \"#utility.yul\":2955:2958   */\n      dup6\n        /* \"#utility.yul\":2952:2967   */\n      lt\n        /* \"#utility.yul\":2944:3146   */\n      iszero\n      tag_540\n      jumpi\n        /* \"#utility.yul\":3054:3071   */\n      dup5\n      calldataload\n        /* \"#utility.yul\":3084:3104   */\n      dup1\n      dup4\n      mstore\n        /* \"#utility.yul\":3133:3135   */\n      0x20\n        /* \"#utility.yul\":2977:2989   */\n      swap6\n      dup7\n      add\n      swap6\n        /* \"#utility.yul\":3054:3071   */\n      swap1\n      swap4\n      pop\n        /* \"#utility.yul\":3124:3136   */\n      swap1\n      swap2\n      add\n      swap1\n        /* \"#utility.yul\":2944:3146   */\n      jump(tag_538)\n    tag_540:\n        /* \"#utility.yul\":3165:3170   */\n      dup1\n        /* \"#utility.yul\":3155:3170   */\n      swap6\n      pop\n      pop\n      pop\n      pop\n      pop\n      pop\n        /* \"#utility.yul\":2066:3176   */\n      swap3\n      pop\n      swap3\n      swap1\n      pop\n      jump\t// out\n        /* \"#utility.yul\":3586:3759   */\n    tag_516:\n        /* \"#utility.yul\":3654:3674   */\n      dup1\n      calldataload\n      sub(shl(0xa0, 0x01), 0x01)\n        /* \"#utility.yul\":3703:3734   */\n      dup2\n      and\n        /* \"#utility.yul\":3693:3735   */\n      dup2\n      eq\n        /* \"#utility.yul\":3683:3753   */\n      tag_544\n      jumpi\n        /* \"#utility.yul\":3749:3750   */\n      0x00\n        /* \"#utility.yul\":3746:3747   */\n      0x00\n        /* \"#utility.yul\":3739:3751   */\n      revert\n        /* \"#utility.yul\":3683:3753   */\n    tag_544:\n        /* \"#utility.yul\":3586:3759   */\n      swap2\n      swap1\n      pop\n      jump\t// out\n        /* \"#utility.yul\":3764:4340   */\n    tag_73:\n        /* \"#utility.yul\":3858:3864   */\n      0x00\n        /* \"#utility.yul\":3866:3872   */\n      0x00\n        /* \"#utility.yul\":3874:3880   */\n      0x00\n        /* \"#utility.yul\":3882:3888   */\n      0x00\n        /* \"#utility.yul\":3890:3896   */\n      0x00\n        /* \"#utility.yul\":3943:3946   */\n      0xa0\n        /* \"#utility.yul\":3931:3940   */\n      dup7\n        /* \"#utility.yul\":3922:3929   */\n      dup9\n        /* \"#utility.yul\":3918:3941   */\n      sub\n        /* \"#utility.yul\":3914:3947   */\n      slt\n        /* \"#utility.yul\":3911:3964   */\n      iszero\n      tag_546\n      jumpi\n        /* \"#utility.yul\":3960:3961   */\n      0x00\n        /* \"#utility.yul\":3957:3958   */\n      0x00\n        /* \"#utility.yul\":3950:3962   */\n      revert\n        /* \"#utility.yul\":3911:3964   */\n    tag_546:\n        /* \"#utility.yul\":3983:4012   */\n      tag_547\n        /* \"#utility.yul\":4002:4011   */\n      dup7\n        /* \"#utility.yul\":3983:4012   */\n      tag_516\n      jump\t// in\n    tag_547:\n        /* \"#utility.yul\":3973:4012   */\n      swap5\n      pop\n        /* \"#utility.yul\":4059:4061   */\n      0x20\n        /* \"#utility.yul\":4048:4057   */\n      dup7\n        /* \"#utility.yul\":4044:4062   */\n      add\n        /* \"#utility.yul\":4031:4063   */\n      calldataload\n        /* \"#utility.yul\":4021:4063   */\n      swap4\n      pop\n        /* \"#utility.yul\":4113:4115   */\n      0x40\n        /* \"#utility.yul\":4102:4111   */\n      dup7\n        /* \"#utility.yul\":4098:4116   */\n      add\n        /* \"#utility.yul\":4085:4117   */\n      calldataload\n        /* \"#utility.yul\":4157:4175   */\n      0xffffffffffffffff\n        /* \"#utility.yul\":4150:4155   */\n      dup2\n        /* \"#utility.yul\":4146:4176   */\n      and\n        /* \"#utility.yul\":4139:4144   */\n      dup2\n        /* \"#utility.yul\":4136:4177   */\n      eq\n        /* \"#utility.yul\":4126:4195   */\n      tag_548\n      jumpi\n        /* \"#utility.yul\":4191:4192   */\n      0x00\n        /* \"#utility.yul\":4188:4189   */\n      0x00\n        /* \"#utility.yul\":4181:4193   */\n      revert\n        /* \"#utility.yul\":4126:4195   */\n    tag_548:\n        /* \"#utility.yul\":4214:4219   */\n      swap3\n      pop\n        /* \"#utility.yul\":4238:4276   */\n      tag_549\n        /* \"#utility.yul\":4272:4274   */\n      0x60\n        /* \"#utility.yul\":4257:4275   */\n      dup8\n      add\n        /* \"#utility.yul\":4238:4276   */\n      tag_516\n      jump\t// in\n    tag_549:\n        /* \"#utility.yul\":4228:4276   */\n      swap2\n      pop\n        /* \"#utility.yul\":4295:4334   */\n      tag_550\n        /* \"#utility.yul\":4329:4332   */\n      0x80\n        /* \"#utility.yul\":4318:4327   */\n      dup8\n        /* \"#utility.yul\":4314:4333   */\n      add\n        /* \"#utility.yul\":4295:4334   */\n      tag_516\n      jump\t// in\n    tag_550:\n        /* \"#utility.yul\":4285:4334   */\n      swap1\n      pop\n        /* \"#utility.yul\":3764:4340   */\n      swap3\n      swap6\n      pop\n      swap3\n      swap6\n      swap1\n      swap4\n      pop\n      jump\t// out\n        /* \"#utility.yul\":4345:4691   */\n    tag_78:\n        /* \"#utility.yul\":4413:4419   */\n      0x00\n        /* \"#utility.yul\":4421:4427   */\n      0x00\n        /* \"#utility.yul\":4474:4476   */\n      0x40\n        /* \"#utility.yul\":4462:4471   */\n      dup4\n        /* \"#utility.yul\":4453:4460   */\n      dup6\n        /* \"#utility.yul\":4449:4472   */\n      sub\n        /* \"#utility.yul\":4445:4477   */\n      slt\n        /* \"#utility.yul\":4442:4494   */\n      iszero\n      tag_552\n      jumpi\n        /* \"#utility.yul\":4490:4491   */\n      0x00\n        /* \"#utility.yul\":4487:4488   */\n      0x00\n        /* \"#utility.yul\":4480:4492   */\n      revert\n        /* \"#utility.yul\":4442:4494   */\n    tag_552:\n      pop\n      pop\n        /* \"#utility.yul\":4535:4558   */\n      dup1\n      calldataload\n      swap3\n        /* \"#utility.yul\":4655:4657   */\n      0x20\n        /* \"#utility.yul\":4640:4658   */\n      swap1\n      swap2\n      add\n        /* \"#utility.yul\":4627:4659   */\n      calldataload\n      swap2\n      pop\n        /* \"#utility.yul\":4345:4691   */\n      jump\t// out\n        /* \"#utility.yul\":4696:5721   */\n    tag_87:\n        /* \"#utility.yul\":4818:4824   */\n      0x00\n        /* \"#utility.yul\":4826:4832   */\n      0x00\n        /* \"#utility.yul\":4834:4840   */\n      0x00\n        /* \"#utility.yul\":4842:4848   */\n      0x00\n        /* \"#utility.yul\":4850:4856   */\n      0x00\n        /* \"#utility.yul\":4858:4864   */\n      0x00\n        /* \"#utility.yul\":4866:4872   */\n      0x00\n        /* \"#utility.yul\":4874:4880   */\n      0x00\n        /* \"#utility.yul\":4927:4930   */\n      0x0100\n        /* \"#utility.yul\":4915:4924   */\n      dup10\n        /* \"#utility.yul\":4906:4913   */\n      dup12\n        /* \"#utility.yul\":4902:4925   */\n      sub\n        /* \"#utility.yul\":4898:4931   */\n      slt\n        /* \"#utility.yul\":4895:4948   */\n      iszero\n      tag_554\n      jumpi\n        /* \"#utility.yul\":4944:4945   */\n      0x00\n        /* \"#utility.yul\":4941:4942   */\n      0x00\n        /* \"#utility.yul\":4934:4946   */\n      revert\n        /* \"#utility.yul\":4895:4948   */\n    tag_554:\n        /* \"#utility.yul\":4967:4996   */\n      tag_555\n        /* \"#utility.yul\":4986:4995   */\n      dup10\n        /* \"#utility.yul\":4967:4996   */\n      tag_516\n      jump\t// in\n    tag_555:\n        /* \"#utility.yul\":4957:4996   */\n      swap11\n        /* \"#utility.yul\":5065:5067   */\n      0x20\n        /* \"#utility.yul\":5050:5068   */\n      dup11\n      add\n        /* \"#utility.yul\":5037:5069   */\n      calldataload\n      swap11\n      pop\n        /* \"#utility.yul\":5166:5168   */\n      0x40\n        /* \"#utility.yul\":5151:5169   */\n      dup11\n      add\n        /* \"#utility.yul\":5138:5170   */\n      calldataload\n      swap10\n        /* \"#utility.yul\":5269:5271   */\n      0x60\n        /* \"#utility.yul\":5254:5272   */\n      dup2\n      add\n        /* \"#utility.yul\":5241:5273   */\n      calldataload\n      swap10\n      pop\n        /* \"#utility.yul\":5372:5375   */\n      0x80\n        /* \"#utility.yul\":5357:5376   */\n      dup2\n      add\n        /* \"#utility.yul\":5344:5377   */\n      calldataload\n      swap9\n      pop\n        /* \"#utility.yul\":5476:5479   */\n      0xa0\n        /* \"#utility.yul\":5461:5480   */\n      dup2\n      add\n        /* \"#utility.yul\":5448:5481   */\n      calldataload\n      swap8\n      pop\n        /* \"#utility.yul\":5580:5583   */\n      0xc0\n        /* \"#utility.yul\":5565:5584   */\n      dup2\n      add\n        /* \"#utility.yul\":5552:5585   */\n      calldataload\n      swap7\n      pop\n        /* \"#utility.yul\":5684:5687   */\n      0xe0\n        /* \"#utility.yul\":5669:5688   */\n      add\n        /* \"#utility.yul\":5656:5689   */\n      calldataload\n      swap5\n      pop\n        /* \"#utility.yul\":4696:5721   */\n      swap3\n      pop\n      pop\n      pop\n      jump\t// out\n        /* \"#utility.yul\":5726:6565   */\n    tag_99:\n        /* \"#utility.yul\":5803:5809   */\n      0x00\n        /* \"#utility.yul\":5811:5817   */\n      0x00\n        /* \"#utility.yul\":5864:5866   */\n      0x40\n        /* \"#utility.yul\":5852:5861   */\n      dup4\n        /* \"#utility.yul\":5843:5850   */\n      dup6\n        /* \"#utility.yul\":5839:5862   */\n      sub\n        /* \"#utility.yul\":5835:5867   */\n      slt\n        /* \"#utility.yul\":5832:5884   */\n      iszero\n      tag_557\n      jumpi\n        /* \"#utility.yul\":5880:5881   */\n      0x00\n        /* \"#utility.yul\":5877:5878   */\n      0x00\n        /* \"#utility.yul\":5870:5882   */\n      revert\n        /* \"#utility.yul\":5832:5884   */\n    tag_557:\n        /* \"#utility.yul\":5903:5932   */\n      tag_558\n        /* \"#utility.yul\":5922:5931   */\n      dup4\n        /* \"#utility.yul\":5903:5932   */\n      tag_516\n      jump\t// in\n    tag_558:\n        /* \"#utility.yul\":5893:5932   */\n      swap2\n      pop\n        /* \"#utility.yul\":5983:5985   */\n      0x20\n        /* \"#utility.yul\":5972:5981   */\n      dup4\n        /* \"#utility.yul\":5968:5986   */\n      add\n        /* \"#utility.yul\":5955:5987   */\n      calldataload\n        /* \"#utility.yul\":6010:6028   */\n      0xffffffffffffffff\n        /* \"#utility.yul\":6002:6008   */\n      dup2\n        /* \"#utility.yul\":5999:6029   */\n      gt\n        /* \"#utility.yul\":5996:6046   */\n      iszero\n      tag_559\n      jumpi\n        /* \"#utility.yul\":6042:6043   */\n      0x00\n        /* \"#utility.yul\":6039:6040   */\n      0x00\n        /* \"#utility.yul\":6032:6044   */\n      revert\n        /* \"#utility.yul\":5996:6046   */\n    tag_559:\n        /* \"#utility.yul\":6065:6087   */\n      dup4\n      add\n        /* \"#utility.yul\":6118:6122   */\n      0x1f\n        /* \"#utility.yul\":6110:6123   */\n      dup2\n      add\n        /* \"#utility.yul\":6106:6133   */\n      dup6\n      sgt\n        /* \"#utility.yul\":6096:6151   */\n      tag_560\n      jumpi\n        /* \"#utility.yul\":6147:6148   */\n      0x00\n        /* \"#utility.yul\":6144:6145   */\n      0x00\n        /* \"#utility.yul\":6137:6149   */\n      revert\n        /* \"#utility.yul\":6096:6151   */\n    tag_560:\n        /* \"#utility.yul\":6187:6189   */\n      dup1\n        /* \"#utility.yul\":6174:6190   */\n      calldataload\n        /* \"#utility.yul\":6213:6231   */\n      0xffffffffffffffff\n        /* \"#utility.yul\":6205:6211   */\n      dup2\n        /* \"#utility.yul\":6202:6232   */\n      gt\n        /* \"#utility.yul\":6199:6255   */\n      iszero\n      tag_562\n      jumpi\n        /* \"#utility.yul\":6235:6253   */\n      tag_562\n      tag_514\n      jump\t// in\n    tag_562:\n        /* \"#utility.yul\":6277:6334   */\n      tag_563\n        /* \"#utility.yul\":6324:6326   */\n      0x1f\n        /* \"#utility.yul\":6301:6318   */\n      dup3\n      add\n      not(0x1f)\n        /* \"#utility.yul\":6297:6328   */\n      and\n        /* \"#utility.yul\":6330:6332   */\n      0x20\n        /* \"#utility.yul\":6293:6333   */\n      add\n        /* \"#utility.yul\":6277:6334   */\n      tag_515\n      jump\t// in\n    tag_563:\n        /* \"#utility.yul\":6357:6363   */\n      dup2\n        /* \"#utility.yul\":6350:6355   */\n      dup2\n        /* \"#utility.yul\":6343:6364   */\n      mstore\n        /* \"#utility.yul\":6405:6412   */\n      dup7\n        /* \"#utility.yul\":6400:6402   */\n      0x20\n        /* \"#utility.yul\":6391:6397   */\n      dup4\n        /* \"#utility.yul\":6387:6389   */\n      dup6\n        /* \"#utility.yul\":6383:6398   */\n      add\n        /* \"#utility.yul\":6379:6403   */\n      add\n        /* \"#utility.yul\":6376:6413   */\n      gt\n        /* \"#utility.yul\":6373:6430   */\n      iszero\n      tag_564\n      jumpi\n        /* \"#utility.yul\":6426:6427   */\n      0x00\n        /* \"#utility.yul\":6423:6424   */\n      0x00\n        /* \"#utility.yul\":6416:6428   */\n      revert\n        /* \"#utility.yul\":6373:6430   */\n    tag_564:\n        /* \"#utility.yul\":6481:6487   */\n      dup2\n        /* \"#utility.yul\":6476:6478   */\n      0x20\n        /* \"#utility.yul\":6472:6474   */\n      dup5\n        /* \"#utility.yul\":6468:6479   */\n      add\n        /* \"#utility.yul\":6463:6465   */\n      0x20\n        /* \"#utility.yul\":6456:6461   */\n      dup4\n        /* \"#utility.yul\":6452:6466   */\n      add\n        /* \"#utility.yul\":6439:6488   */\n      calldatacopy\n        /* \"#utility.yul\":6533:6534   */\n      0x00\n        /* \"#utility.yul\":6528:6530   */\n      0x20\n        /* \"#utility.yul\":6519:6525   */\n      dup4\n        /* \"#utility.yul\":6512:6517   */\n      dup4\n        /* \"#utility.yul\":6508:6526   */\n      add\n        /* \"#utility.yul\":6504:6531   */\n      add\n        /* \"#utility.yul\":6497:6535   */\n      mstore\n        /* \"#utility.yul\":6554:6559   */\n      dup1\n        /* \"#utility.yul\":6544:6559   */\n      swap4\n      pop\n      pop\n      pop\n      pop\n        /* \"#utility.yul\":5726:6565   */\n      swap3\n      pop\n      swap3\n      swap1\n      pop\n      jump\t// out\n        /* \"#utility.yul\":6752:7041   */\n    tag_517:\n        /* \"#utility.yul\":6794:6797   */\n      0x00\n        /* \"#utility.yul\":6832:6837   */\n      dup2\n        /* \"#utility.yul\":6826:6838   */\n      mload\n        /* \"#utility.yul\":6859:6865   */\n      dup1\n        /* \"#utility.yul\":6854:6857   */\n      dup5\n        /* \"#utility.yul\":6847:6866   */\n      mstore\n        /* \"#utility.yul\":6915:6921   */\n      dup1\n        /* \"#utility.yul\":6908:6912   */\n      0x20\n        /* \"#utility.yul\":6901:6906   */\n      dup5\n        /* \"#utility.yul\":6897:6913   */\n      add\n        /* \"#utility.yul\":6890:6894   */\n      0x20\n        /* \"#utility.yul\":6885:6888   */\n      dup7\n        /* \"#utility.yul\":6881:6895   */\n      add\n        /* \"#utility.yul\":6875:6922   */\n      mcopy\n        /* \"#utility.yul\":6967:6968   */\n      0x00\n        /* \"#utility.yul\":6960:6964   */\n      0x20\n        /* \"#utility.yul\":6951:6957   */\n      dup3\n        /* \"#utility.yul\":6946:6949   */\n      dup7\n        /* \"#utility.yul\":6942:6958   */\n      add\n        /* \"#utility.yul\":6938:6965   */\n      add\n        /* \"#utility.yul\":6931:6969   */\n      mstore\n        /* \"#utility.yul\":7030:7034   */\n      0x20\n        /* \"#utility.yul\":7023:7025   */\n      0x1f\n        /* \"#utility.yul\":7019:7026   */\n      not\n        /* \"#utility.yul\":7014:7016   */\n      0x1f\n        /* \"#utility.yul\":7006:7012   */\n      dup4\n        /* \"#utility.yul\":7002:7017   */\n      add\n        /* \"#utility.yul\":6998:7027   */\n      and\n        /* \"#utility.yul\":6993:6996   */\n      dup6\n        /* \"#utility.yul\":6989:7028   */\n      add\n        /* \"#utility.yul\":6985:7035   */\n      add\n        /* \"#utility.yul\":6978:7035   */\n      swap2\n      pop\n      pop\n        /* \"#utility.yul\":6752:7041   */\n      swap3\n      swap2\n      pop\n      pop\n      jump\t// out\n        /* \"#utility.yul\":7046:7266   */\n    tag_145:\n        /* \"#utility.yul\":7195:7197   */\n      0x20\n        /* \"#utility.yul\":7184:7193   */\n      dup2\n        /* \"#utility.yul\":7177:7198   */\n      mstore\n        /* \"#utility.yul\":7158:7162   */\n      0x00\n        /* \"#utility.yul\":7215:7260   */\n      tag_501\n        /* \"#utility.yul\":7256:7258   */\n      0x20\n        /* \"#utility.yul\":7245:7254   */\n      dup4\n        /* \"#utility.yul\":7241:7259   */\n      add\n        /* \"#utility.yul\":7233:7239   */\n      dup5\n        /* \"#utility.yul\":7215:7260   */\n      tag_517\n      jump\t// in\n        /* \"#utility.yul\":7464:8101   */\n    tag_160:\n        /* \"#utility.yul\":7654:7656   */\n      0x20\n        /* \"#utility.yul\":7666:7687   */\n      dup1\n      dup3\n      mstore\n        /* \"#utility.yul\":7736:7749   */\n      dup3\n      mload\n        /* \"#utility.yul\":7639:7657   */\n      dup3\n      dup3\n      add\n        /* \"#utility.yul\":7758:7780   */\n      dup2\n      swap1\n      mstore\n        /* \"#utility.yul\":7606:7610   */\n      0x00\n      swap2\n        /* \"#utility.yul\":7837:7852   */\n      dup5\n      add\n      swap1\n        /* \"#utility.yul\":7811:7813   */\n      0x40\n        /* \"#utility.yul\":7796:7814   */\n      dup5\n      add\n      swap1\n        /* \"#utility.yul\":7606:7610   */\n      dup4\n        /* \"#utility.yul\":7880:8075   */\n    tag_571:\n        /* \"#utility.yul\":7894:7900   */\n      dup2\n        /* \"#utility.yul\":7891:7892   */\n      dup2\n        /* \"#utility.yul\":7888:7901   */\n      lt\n        /* \"#utility.yul\":7880:8075   */\n      iszero\n      tag_573\n      jumpi\n        /* \"#utility.yul\":7959:7972   */\n      dup4\n      mload\n      sub(shl(0xa0, 0x01), 0x01)\n        /* \"#utility.yul\":7955:7994   */\n      and\n        /* \"#utility.yul\":7943:7995   */\n      dup4\n      mstore\n        /* \"#utility.yul\":8024:8026   */\n      0x20\n        /* \"#utility.yul\":8050:8065   */\n      swap4\n      dup5\n      add\n      swap4\n        /* \"#utility.yul\":8015:8027   */\n      swap1\n      swap3\n      add\n      swap2\n        /* \"#utility.yul\":7991:7992   */\n      0x01\n        /* \"#utility.yul\":7909:7918   */\n      add\n        /* \"#utility.yul\":7880:8075   */\n      jump(tag_571)\n    tag_573:\n      pop\n        /* \"#utility.yul\":8092:8095   */\n      swap1\n      swap6\n        /* \"#utility.yul\":7464:8101   */\n      swap5\n      pop\n      pop\n      pop\n      pop\n      pop\n      jump\t// out\n        /* \"#utility.yul\":8106:8292   */\n    tag_168:\n        /* \"#utility.yul\":8165:8171   */\n      0x00\n        /* \"#utility.yul\":8218:8220   */\n      0x20\n        /* \"#utility.yul\":8206:8215   */\n      dup3\n        /* \"#utility.yul\":8197:8204   */\n      dup5\n        /* \"#utility.yul\":8193:8216   */\n      sub\n        /* \"#utility.yul\":8189:8221   */\n      slt\n        /* \"#utility.yul\":8186:8238   */\n      iszero\n      tag_575\n      jumpi\n        /* \"#utility.yul\":8234:8235   */\n      0x00\n        /* \"#utility.yul\":8231:8232   */\n      0x00\n        /* \"#utility.yul\":8224:8236   */\n      revert\n        /* \"#utility.yul\":8186:8238   */\n    tag_575:\n        /* \"#utility.yul\":8257:8286   */\n      tag_501\n        /* \"#utility.yul\":8276:8285   */\n      dup3\n        /* \"#utility.yul\":8257:8286   */\n      tag_516\n      jump\t// in\n        /* \"#utility.yul\":10539:10666   */\n    tag_518:\n        /* \"#utility.yul\":10600:10610   */\n      0x4e487b71\n        /* \"#utility.yul\":10595:10598   */\n      0xe0\n        /* \"#utility.yul\":10591:10611   */\n      shl\n        /* \"#utility.yul\":10588:10589   */\n      0x00\n        /* \"#utility.yul\":10581:10612   */\n      mstore\n        /* \"#utility.yul\":10631:10635   */\n      0x11\n        /* \"#utility.yul\":10628:10629   */\n      0x04\n        /* \"#utility.yul\":10621:10636   */\n      mstore\n        /* \"#utility.yul\":10655:10659   */\n      0x24\n        /* \"#utility.yul\":10652:10653   */\n      0x00\n        /* \"#utility.yul\":10645:10660   */\n      revert\n        /* \"#utility.yul\":10671:10799   */\n    tag_217:\n        /* \"#utility.yul\":10738:10747   */\n      dup2\n      dup2\n      sub\n        /* \"#utility.yul\":10759:10770   */\n      dup2\n      dup2\n      gt\n        /* \"#utility.yul\":10756:10793   */\n      iszero\n      tag_400\n      jumpi\n        /* \"#utility.yul\":10773:10791   */\n      tag_400\n      tag_518\n      jump\t// in\n        /* \"#utility.yul\":11180:11457   */\n    tag_223:\n        /* \"#utility.yul\":11247:11253   */\n      0x00\n        /* \"#utility.yul\":11300:11302   */\n      0x20\n        /* \"#utility.yul\":11288:11297   */\n      dup3\n        /* \"#utility.yul\":11279:11286   */\n      dup5\n        /* \"#utility.yul\":11275:11298   */\n      sub\n        /* \"#utility.yul\":11271:11303   */\n      slt\n        /* \"#utility.yul\":11268:11320   */\n      iszero\n      tag_590\n      jumpi\n        /* \"#utility.yul\":11316:11317   */\n      0x00\n        /* \"#utility.yul\":11313:11314   */\n      0x00\n        /* \"#utility.yul\":11306:11318   */\n      revert\n        /* \"#utility.yul\":11268:11320   */\n    tag_590:\n        /* \"#utility.yul\":11348:11357   */\n      dup2\n        /* \"#utility.yul\":11342:11358   */\n      mload\n        /* \"#utility.yul\":11401:11406   */\n      dup1\n        /* \"#utility.yul\":11394:11407   */\n      iszero\n        /* \"#utility.yul\":11387:11408   */\n      iszero\n        /* \"#utility.yul\":11380:11385   */\n      dup2\n        /* \"#utility.yul\":11377:11409   */\n      eq\n        /* \"#utility.yul\":11367:11427   */\n      tag_501\n      jumpi\n        /* \"#utility.yul\":11423:11424   */\n      0x00\n        /* \"#utility.yul\":11420:11421   */\n      0x00\n        /* \"#utility.yul\":11413:11425   */\n      revert\n        /* \"#utility.yul\":11462:11597   */\n    tag_226:\n        /* \"#utility.yul\":11501:11504   */\n      0x00\n        /* \"#utility.yul\":11522:11539   */\n      0x01\n      dup3\n      add\n        /* \"#utility.yul\":11519:11562   */\n      tag_594\n      jumpi\n        /* \"#utility.yul\":11542:11560   */\n      tag_594\n      tag_518\n      jump\t// in\n    tag_594:\n      pop\n        /* \"#utility.yul\":11589:11590   */\n      0x01\n        /* \"#utility.yul\":11578:11591   */\n      add\n      swap1\n        /* \"#utility.yul\":11462:11597   */\n      jump\t// out\n        /* \"#utility.yul\":14971:15139   */\n    tag_299:\n        /* \"#utility.yul\":15044:15053   */\n      dup1\n      dup3\n      mul\n        /* \"#utility.yul\":15075:15084   */\n      dup2\n      iszero\n        /* \"#utility.yul\":15092:15107   */\n      dup3\n      dup3\n      div\n        /* \"#utility.yul\":15086:15108   */\n      dup5\n      eq\n        /* \"#utility.yul\":15072:15109   */\n      or\n        /* \"#utility.yul\":15062:15133   */\n      tag_400\n      jumpi\n        /* \"#utility.yul\":15113:15131   */\n      tag_400\n      tag_518\n      jump\t// in\n        /* \"#utility.yul\":16459:17167   */\n    tag_322:\n        /* \"#utility.yul\":16658:16660   */\n      0x20\n        /* \"#utility.yul\":16647:16656   */\n      dup2\n        /* \"#utility.yul\":16640:16661   */\n      mstore\n        /* \"#utility.yul\":16703:16709   */\n      dup2\n        /* \"#utility.yul\":16697:16710   */\n      mload\n        /* \"#utility.yul\":16692:16694   */\n      0x20\n        /* \"#utility.yul\":16681:16690   */\n      dup3\n        /* \"#utility.yul\":16677:16695   */\n      add\n        /* \"#utility.yul\":16670:16711   */\n      mstore\n        /* \"#utility.yul\":16765:16767   */\n      0x20\n        /* \"#utility.yul\":16757:16763   */\n      dup3\n        /* \"#utility.yul\":16753:16768   */\n      add\n        /* \"#utility.yul\":16747:16769   */\n      mload\n        /* \"#utility.yul\":16742:16744   */\n      0x40\n        /* \"#utility.yul\":16731:16740   */\n      dup3\n        /* \"#utility.yul\":16727:16745   */\n      add\n        /* \"#utility.yul\":16720:16770   */\n      mstore\n        /* \"#utility.yul\":16834:16840   */\n      0xffff\n        /* \"#utility.yul\":16828:16830   */\n      0x40\n        /* \"#utility.yul\":16820:16826   */\n      dup4\n        /* \"#utility.yul\":16816:16831   */\n      add\n        /* \"#utility.yul\":16810:16832   */\n      mload\n        /* \"#utility.yul\":16806:16841   */\n      and\n        /* \"#utility.yul\":16801:16803   */\n      0x60\n        /* \"#utility.yul\":16790:16799   */\n      dup3\n        /* \"#utility.yul\":16786:16804   */\n      add\n        /* \"#utility.yul\":16779:16842   */\n      mstore\n        /* \"#utility.yul\":16907:16917   */\n      0xffffffff\n        /* \"#utility.yul\":16901:16903   */\n      0x60\n        /* \"#utility.yul\":16893:16899   */\n      dup4\n        /* \"#utility.yul\":16889:16904   */\n      add\n        /* \"#utility.yul\":16883:16905   */\n      mload\n        /* \"#utility.yul\":16879:16918   */\n      and\n        /* \"#utility.yul\":16873:16876   */\n      0x80\n        /* \"#utility.yul\":16862:16871   */\n      dup3\n        /* \"#utility.yul\":16858:16877   */\n      add\n        /* \"#utility.yul\":16851:16919   */\n      mstore\n        /* \"#utility.yul\":16985:16995   */\n      0xffffffff\n        /* \"#utility.yul\":16978:16981   */\n      0x80\n        /* \"#utility.yul\":16970:16976   */\n      dup4\n        /* \"#utility.yul\":16966:16982   */\n      add\n        /* \"#utility.yul\":16960:16983   */\n      mload\n        /* \"#utility.yul\":16956:16996   */\n      and\n        /* \"#utility.yul\":16950:16953   */\n      0xa0\n        /* \"#utility.yul\":16939:16948   */\n      dup3\n        /* \"#utility.yul\":16935:16954   */\n      add\n        /* \"#utility.yul\":16928:16997   */\n      mstore\n        /* \"#utility.yul\":16621:16625   */\n      0x00\n        /* \"#utility.yul\":17044:17047   */\n      0xa0\n        /* \"#utility.yul\":17036:17042   */\n      dup4\n        /* \"#utility.yul\":17032:17048   */\n      add\n        /* \"#utility.yul\":17026:17049   */\n      mload\n        /* \"#utility.yul\":17087:17091   */\n      0xc0\n        /* \"#utility.yul\":17080:17084   */\n      dup1\n        /* \"#utility.yul\":17069:17078   */\n      dup5\n        /* \"#utility.yul\":17065:17085   */\n      add\n        /* \"#utility.yul\":17058:17092   */\n      mstore\n        /* \"#utility.yul\":17109:17161   */\n      tag_613\n        /* \"#utility.yul\":17156:17159   */\n      0xe0\n        /* \"#utility.yul\":17145:17154   */\n      dup5\n        /* \"#utility.yul\":17141:17160   */\n      add\n        /* \"#utility.yul\":17127:17139   */\n      dup3\n        /* \"#utility.yul\":17109:17161   */\n      tag_517\n      jump\t// in\n    tag_613:\n        /* \"#utility.yul\":17101:17161   */\n      swap5\n        /* \"#utility.yul\":16459:17167   */\n      swap4\n      pop\n      pop\n      pop\n      pop\n      jump\t// out\n        /* \"#utility.yul\":17172:17356   */\n    tag_326:\n        /* \"#utility.yul\":17242:17248   */\n      0x00\n        /* \"#utility.yul\":17295:17297   */\n      0x20\n        /* \"#utility.yul\":17283:17292   */\n      dup3\n        /* \"#utility.yul\":17274:17281   */\n      dup5\n        /* \"#utility.yul\":17270:17293   */\n      sub\n        /* \"#utility.yul\":17266:17298   */\n      slt\n        /* \"#utility.yul\":17263:17315   */\n      iszero\n      tag_615\n      jumpi\n        /* \"#utility.yul\":17311:17312   */\n      0x00\n        /* \"#utility.yul\":17308:17309   */\n      0x00\n        /* \"#utility.yul\":17301:17313   */\n      revert\n        /* \"#utility.yul\":17263:17315   */\n    tag_615:\n      pop\n        /* \"#utility.yul\":17334:17350   */\n      mload\n      swap2\n        /* \"#utility.yul\":17172:17356   */\n      swap1\n      pop\n      jump\t// out\n        /* \"#utility.yul\":19328:19455   */\n    tag_384:\n        /* \"#utility.yul\":19389:19399   */\n      0x4e487b71\n        /* \"#utility.yul\":19384:19387   */\n      0xe0\n        /* \"#utility.yul\":19380:19400   */\n      shl\n        /* \"#utility.yul\":19377:19378   */\n      0x00\n        /* \"#utility.yul\":19370:19401   */\n      mstore\n        /* \"#utility.yul\":19420:19424   */\n      0x32\n        /* \"#utility.yul\":19417:19418   */\n      0x04\n        /* \"#utility.yul\":19410:19425   */\n      mstore\n        /* \"#utility.yul\":19444:19448   */\n      0x24\n        /* \"#utility.yul\":19441:19442   */\n      0x00\n        /* \"#utility.yul\":19434:19449   */\n      revert\n        /* \"#utility.yul\":19460:19669   */\n    tag_386:\n        /* \"#utility.yul\":19492:19493   */\n      0x00\n        /* \"#utility.yul\":19518:19519   */\n      dup3\n        /* \"#utility.yul\":19508:19640   */\n      tag_624\n      jumpi\n        /* \"#utility.yul\":19562:19572   */\n      0x4e487b71\n        /* \"#utility.yul\":19557:19560   */\n      0xe0\n        /* \"#utility.yul\":19553:19573   */\n      shl\n        /* \"#utility.yul\":19550:19551   */\n      0x00\n        /* \"#utility.yul\":19543:19574   */\n      mstore\n        /* \"#utility.yul\":19597:19601   */\n      0x12\n        /* \"#utility.yul\":19594:19595   */\n      0x04\n        /* \"#utility.yul\":19587:19602   */\n      mstore\n        /* \"#utility.yul\":19625:19629   */\n      0x24\n        /* \"#utility.yul\":19622:19623   */\n      0x00\n        /* \"#utility.yul\":19615:19630   */\n      revert\n        /* \"#utility.yul\":19508:19640   */\n    tag_624:\n      pop\n        /* \"#utility.yul\":19654:19663   */\n      mod\n      swap1\n        /* \"#utility.yul\":19460:19669   */\n      jump\t// out\n        /* \"#utility.yul\":20484:20785   */\n    tag_489:\n        /* \"#utility.yul\":20613:20616   */\n      0x00\n        /* \"#utility.yul\":20651:20657   */\n      dup3\n        /* \"#utility.yul\":20645:20658   */\n      mload\n        /* \"#utility.yul\":20697:20703   */\n      dup1\n        /* \"#utility.yul\":20690:20694   */\n      0x20\n        /* \"#utility.yul\":20682:20688   */\n      dup6\n        /* \"#utility.yul\":20678:20695   */\n      add\n        /* \"#utility.yul\":20673:20676   */\n      dup5\n        /* \"#utility.yul\":20667:20704   */\n      mcopy\n        /* \"#utility.yul\":20759:20760   */\n      0x00\n        /* \"#utility.yul\":20723:20739   */\n      swap3\n      add\n        /* \"#utility.yul\":20748:20761   */\n      swap2\n      dup3\n      mstore\n      pop\n        /* \"#utility.yul\":20723:20739   */\n      swap2\n        /* \"#utility.yul\":20484:20785   */\n      swap1\n      pop\n      jump\t// out\n    stop\n    data_75b20eef8615de99c108b05f0dbda081c91897128caa336d75dffb97c4132b4d 360894a13ba1a3210667c828492db98dca3e2076cc3735a920a3ca505d382bbc\n\n    auxdata: 0xa2646970667358221220ae1d3d949297c7ded63a35fc5dab45e6b15fd903bc27557e1a5cede44eabe33964736f6c634300081e0033\n}\n",
				"bytecode": {
					"linkReferences": {},
					"object": "60a0604052306080523480156012575f5ffd5b5060015f556080516124ee61003d5f395f8181611b3701528181611b600152611ca401526124ee5ff3fe6080604052600436106101ba575f3560e01c80635b7baf64116100f25780638da5cb5b11610092578063b6fa37bc11610062578063b6fa37bc14610615578063c1e3bd3e14610634578063d709815414610660578063f2fde38b1461067f575f5ffd5b80638da5cb5b14610548578063a3e56fa814610584578063ad3cb1cc146105a3578063b0fb162f146105e0575f5ffd5b8063715018a6116100cd578063715018a6146104d05780637ccfd7fc146104e4578063826d98731461050a57806382f9d0fb14610529575f5ffd5b80635b7baf641461047d57806360b2a56a1461049c57806361728f39146104bb575f5ffd5b80633893f9d51161015d5780634538f297116101385780634538f297146104225780634a4a6b4f146104415780634f1ef2861461045657806352d1902d14610469575f5ffd5b80633893f9d5146103c55780633fd43098146103e45780634311da3714610403575f5ffd5b80631fe543e3116101985780631fe543e31461031d5780632301d7751461033e57806324f7469714610375578063379c52a6146103a6575f5ffd5b806309c1ba2e146101be5780631398e076146101e657806315c6e123146102f2575b5f5ffd5b3480156101c9575f5ffd5b506101d360085481565b6040519081526020015b60405180910390f35b3480156101f1575f5ffd5b5061027b610200366004612008565b600260208190525f91825260409091208054600182015492820154600383015460048401546005850154600686015460078701546008880154600a890154600b909901546001600160a01b039889169a9997989697959694959394929360ff808416946101008504821694620100009004909116929116908d565b604080516001600160a01b039e8f168152602081019d909d528c019a909a5260608b019890985260808a019690965260a089019490945260c088019290925260e08701521515610100860152151561012085015215156101408401529092166101608201526101808101919091526101a0016101dd565b3480156102fd575f5ffd5b506101d361030c366004612008565b600a6020525f908152604090205481565b348015610328575f5ffd5b5061033c610337366004612064565b61069e565b005b348015610349575f5ffd5b5060055461035d906001600160a01b031681565b6040516001600160a01b0390911681526020016101dd565b348015610380575f5ffd5b506007546103919063ffffffff1681565b60405163ffffffff90911681526020016101dd565b3480156103b1575f5ffd5b5061033c6103c0366004612137565b6106f1565b3480156103d0575f5ffd5b5061033c6103df36600461219f565b61086c565b3480156103ef575f5ffd5b5061033c6103fe366004612008565b610b7b565b34801561040e575f5ffd5b5061033c61041d3660046121bf565b610d86565b34801561042d575f5ffd5b5061033c61043c366004612008565b610ed4565b34801561044c575f5ffd5b506101d360035481565b61033c610464366004612216565b610f9f565b348015610474575f5ffd5b506101d3610fba565b348015610488575f5ffd5b5061033c610497366004612008565b610fd5565b3480156104a7575f5ffd5b5061033c6104b6366004612008565b6111b2565b3480156104c6575f5ffd5b506101d360065481565b3480156104db575f5ffd5b5061033c611401565b3480156104ef575f5ffd5b50600754610391906601000000000000900463ffffffff1681565b348015610515575f5ffd5b5061033c610524366004612008565b611414565b348015610534575f5ffd5b5061033c610543366004612008565b61155a565b348015610553575f5ffd5b507f9016d09d72d40fdae2fd8ceac6b6234c7706214fd39c1cd1e609a0528c199300546001600160a01b031661035d565b34801561058f575f5ffd5b5060095461035d906001600160a01b031681565b3480156105ae575f5ffd5b506105d3604051806040016040528060058152602001640352e302e360dc1b81525081565b6040516101dd91906122e9565b3480156105eb575f5ffd5b5060075461060290640100000000900461ffff1681565b60405161ffff90911681526020016101dd565b348015610620575f5ffd5b5060045461035d906001600160a01b031681565b34801561063f575f5ffd5b5061065361064e366004612008565b6115e8565b6040516101dd91906122fb565b34801561066b575f5ffd5b5061033c61067a366004612008565b611654565b34801561068a575f5ffd5b5061033c610699366004612346565b6117a3565b6001546001600160a01b031633146106e35760015460405163073e64fd60e21b81523360048201526001600160a01b0390911660248201526044015b60405180910390fd5b6106ed82826117dd565b5050565b5f6106fa611a0d565b805490915060ff600160401b820416159067ffffffffffffffff165f811580156107215750825b90505f8267ffffffffffffffff16600114801561073d5750303b155b90508115801561074b575080155b156107695760405163f92ee8a960e01b815260040160405180910390fd5b845467ffffffffffffffff19166001178555831561079357845460ff60401b1916600160401b1785555b61079c33611a37565b6107a4611a48565b6107ad8a611a50565b600980546001600160a01b03199081166001600160a01b038d81169190911790925560068b905567ffffffffffffffff8a166008556007805469ffffffffffffffffffff19166601000300030d401790556004805482168a841617905560058054909116918816919091179055831561086057845460ff60401b19168555604051600181527fc7f505b2f371ae2175ee4913f4499e1f2633a7b5936321eed1cdaeb6115181d29060200160405180910390a15b50505050505050505050565b610874611a7a565b5f828152600260209081526040808320848452818420338552600c82019093529220546108d05760405162461bcd60e51b815260206004820152600a602482015269139bdd081a5b881bdb1960b21b60448201526064016106da565b335f908152600e8301602052604090205460ff16156109245760405162461bcd60e51b815260206004820152601060248201526f526566756e64656420616c726561647960801b60448201526064016106da565b600882015462010000900460ff168061095e57506008820154610100900460ff16801561095e5750600a8201546001600160a01b03163314155b61099d5760405162461bcd60e51b815260206004820152601060248201526f4f6c64206e6f7420656c696769626c6560801b60448201526064016106da565b600881015460ff1680156109bc5750600881015462010000900460ff16155b6109ff5760405162461bcd60e51b81526020600482015260146024820152734e6577206c6f747465727920696e61637469766560601b60448201526064016106da565b80600401544210610a455760405162461bcd60e51b815260206004820152601060248201526f546f6f206c61746520666f72206e657760801b60448201526064016106da565b335f908152600e830160205260408120805460ff19166001908117909155600283015490830154610a769190612373565b82546040516323b872dd60e01b8152336004820152306024820152604481018390529192506001600160a01b0316906323b872dd906064016020604051808303815f875af1158015610aca573d5f5f3e3d5ffd5b505050506040513d601f19601f82011682018060405250810190610aee9190612386565b506009820180546001810182555f918252602080832090910180546001600160a01b031916339081179091558252600c8401905260408120805491610b32836123a5565b9091555050604080518581523360208201527f1e28857182a3b2bb6fbb88287d1ba8cc3a941dd65d4c977286676d27b877a3d9910160405180910390a15050506106ed60015f55565b610b83611a7a565b5f818152600260205260409020600881015460ff168015610baf5750600881015462010000900460ff16155b610bf35760405162461bcd60e51b8152602060048201526015602482015274125b9858dd1a5d99481bdc8818d85b98d95b1b1959605a1b60448201526064016106da565b80600401544210610c315760405162461bcd60e51b8152602060048201526008602482015267546f6f206c61746560c01b60448201526064016106da565b6003810154600982015410610c7b5760405162461bcd60e51b815260206004820152601060248201526f4d6178207061727469636970616e747360801b60448201526064016106da565b805460018201546040516323b872dd60e01b815233600482015230602482015260448101919091526001600160a01b03909116906323b872dd906064016020604051808303815f875af1158015610cd4573d5f5f3e3d5ffd5b505050506040513d601f19601f82011682018060405250810190610cf89190612386565b506009810180546001810182555f918252602080832090910180546001600160a01b031916339081179091558252600c8301905260408120805491610d3c836123a5565b9091555050604080518381523360208201527f1e28857182a3b2bb6fbb88287d1ba8cc3a941dd65d4c977286676d27b877a3d9910160405180910390a150610d8360015f55565b50565b610d8e611ad1565b85871015610dce5760405162461bcd60e51b815260206004820152600d60248201526c526566756e64203c3d2066656560981b60448201526064016106da565b428411610e115760405162461bcd60e51b8152602060048201526011602482015270496e76616c696420647261772074696d6560781b60448201526064016106da565b5f60025f60035f8154610e23906123a5565b9182905550815260208082019290925260409081015f2080546001600160a01b0319166001600160a01b038d1617815560018082018c9055600282018b905560038083018b9055600483018a905560058301899055600683018890556007830187905560088301805460ff191690921790915554915191825292507f9e0023bebcc752baaa41057318405b5a6a8e9c6372b519717cfdf238e5caa795910160405180910390a1505050505050505050565b610edc611ad1565b5f818152600260205260409020600881015462010000900460ff16158015610f0e57506008810154610100900460ff16155b610f4e5760405162461bcd60e51b8152602060048201526011602482015270105b1c9958591e48199a5b985b1a5e9959607a1b60448201526064016106da565b60088101805462ff00001916620100001790556040517fc3dac690cf4c3ae8964f18b8f09f7f9a75d3962a8cbb7cd689df2c291bb5b2dd90610f939084815260200190565b60405180910390a15050565b610fa7611b2c565b610fb082611bd0565b6106ed8282611bd8565b5f610fc3611c99565b505f5160206124995f395f51905f5290565b610fdd611a7a565b5f818152600260205260409020600881015462010000900460ff168061102457506008810154610100900460ff1680156110245750600a8101546001600160a01b03163314155b61105f5760405162461bcd60e51b815260206004820152600c60248201526b4e6f7420656c696769626c6560a01b60448201526064016106da565b335f908152600e8201602052604090205460ff16156110b35760405162461bcd60e51b815260206004820152601060248201526f105b1c9958591e481c99599d5b99195960821b60448201526064016106da565b335f908152600c820160205260409020546110fd5760405162461bcd60e51b815260206004820152600a6024820152694e6f20656e747269657360b01b60448201526064016106da565b335f908152600e820160209081526040808320805460ff19166001179055600c8401909152812054600283015461113491906123bd565b825460405163a9059cbb60e01b8152336004820152602481018390529192506001600160a01b03169063a9059cbb906044016020604051808303815f875af1158015611182573d5f5f3e3d5ffd5b505050506040513d601f19601f820116820180604052508101906111a69190612386565b505050610d8360015f55565b6111ba611ad1565b5f81815260026020526040902060048101544210156112075760405162461bcd60e51b8152602060048201526009602482015268546f6f206561726c7960b81b60448201526064016106da565b6008810154610100900460ff1615801561122c5750600881015462010000900460ff16155b6112785760405162461bcd60e51b815260206004820152601a60248201527f416c726561647920647261776e206f722063616e63656c6c656400000000000060448201526064016106da565b60098101546112bb5760405162461bcd60e51b815260206004820152600f60248201526e4e6f207061727469636970616e747360881b60448201526064016106da565b6009546040805160c081018252600654815260085460208083019190915260075461ffff6401000000008204168385015263ffffffff8082166060850152660100000000000090910416608083015282519081019092525f808352926001600160a01b031691639b1c385e919060a082019061133690611ce2565b8152506040518263ffffffff1660e01b815260040161135591906123d4565b6020604051808303815f875af1158015611371573d5f5f3e3d5ffd5b505050506040513d601f19601f820116820180604052508101906113959190612438565b5f818152600a60205260409081902085905560088401805461ff001916610100179055519091507f600253eae67a5c51c82a7123372e8644f16009c6304e18f844cf86fdc40c24d7906113f49085908490918252602082015260400190565b60405180910390a1505050565b611409611ad1565b6114125f611d53565b565b5f818152600260209081526040808320338452600f81019092529091205460ff16156114725760405162461bcd60e51b815260206004820152600d60248201526c105b1c9958591e481d9bdd1959609a1b60448201526064016106da565b335f908152600c820160205260409020546114c05760405162461bcd60e51b815260206004820152600e60248201526d4e6f7420696e206c6f747465727960901b60448201526064016106da565b335f908152600f820160205260408120805460ff19166001179055600b82018054916114eb836123a5565b909155505060098101546115009060026123bd565b600b8201546115109060036123bd565b106106ed5760088101805462ff00001916620100001790556040517fc3dac690cf4c3ae8964f18b8f09f7f9a75d3962a8cbb7cd689df2c291bb5b2dd90610f939084815260200190565b611562611ad1565b5f818152600260208190526040822080546001600160a01b031916815560018101839055908101829055600381018290556004810182905560058101829055600681018290556007810182905560088101805462ffffff19169055906115cb6009830182611fda565b50600a810180546001600160a01b03191690555f600b9091015550565b5f8181526002602090815260409182902060090180548351818402810184019094528084526060939283018282801561164857602002820191905f5260205f20905b81546001600160a01b0316815260019091019060200180831161162a575b50505050509050919050565b61165c611a7a565b5f818152600260205260409020600a8101546001600160a01b031633146116b25760405162461bcd60e51b815260206004820152600a6024820152692737ba103bb4b73732b960b11b60448201526064016106da565b335f908152600d8201602052604090205460ff16156117055760405162461bcd60e51b815260206004820152600f60248201526e105b1c9958591e4818db185a5b5959608a1b60448201526064016106da565b335f818152600d8301602052604090819020805460ff1916600117905582546005840154915163a9059cbb60e01b8152600481019390935260248301919091526001600160a01b03169063a9059cbb906044016020604051808303815f875af1158015611774573d5f5f3e3d5ffd5b505050506040513d601f19601f820116820180604052508101906117989190612386565b5050610d8360015f55565b6117ab611ad1565b6001600160a01b0381166117d457604051631e4fbdf760e01b81525f60048201526024016106da565b610d8381611d53565b5f828152600a602090815260408083205480845260029092529091206008810154610100900460ff16801561181d5750600a8101546001600160a01b0316155b61185d5760405162461bcd60e51b8152602060048201526011602482015270105b1c9958591e48199d5b199a5b1b1959607a1b60448201526064016106da565b5f8160090180549050845f815181106118785761187861244f565b602002602001015161188a9190612463565b90508160090181815481106118a1576118a161244f565b5f91825260209091200154600a830180546001600160a01b0319166001600160a01b03928316179055825460048054600686015460405163a9059cbb60e01b8152918516928201929092526024810191909152911690819063a9059cbb906044016020604051808303815f875af115801561191e573d5f5f3e3d5ffd5b505050506040513d601f19601f820116820180604052508101906119429190612386565b50600554600784015460405163a9059cbb60e01b81526001600160a01b03928316600482015260248101919091529082169063a9059cbb906044016020604051808303815f875af1158015611999573d5f5f3e3d5ffd5b505050506040513d601f19601f820116820180604052508101906119bd9190612386565b50600a830154604080518681526001600160a01b0390921660208301527f03fb57eb449654e24e1b240d3d06702cf79362a065d5c0323aee642d4702fa4b910160405180910390a1505050505050565b5f807ff0c57e16840df040f15088dc2f81fe391c3923bec73e23a9662efc9c229c6a005b92915050565b611a3f611dc3565b610d8381611de8565b611412611dc3565b611a58611dc3565b600180546001600160a01b0319166001600160a01b0392909216919091179055565b60025f5403611acb5760405162461bcd60e51b815260206004820152601f60248201527f5265656e7472616e637947756172643a207265656e7472616e742063616c6c0060448201526064016106da565b60025f55565b33611b037f9016d09d72d40fdae2fd8ceac6b6234c7706214fd39c1cd1e609a0528c199300546001600160a01b031690565b6001600160a01b0316146114125760405163118cdaa760e01b81523360048201526024016106da565b306001600160a01b037f0000000000000000000000000000000000000000000000000000000000000000161480611bb257507f00000000000000000000000000000000000000000000000000000000000000006001600160a01b0316611ba65f5160206124995f395f51905f52546001600160a01b031690565b6001600160a01b031614155b156114125760405163703e46dd60e11b815260040160405180910390fd5b610d83611ad1565b816001600160a01b03166352d1902d6040518163ffffffff1660e01b8152600401602060405180830381865afa925050508015611c32575060408051601f3d908101601f19168201909252611c2f91810190612438565b60015b611c5a57604051634c9c8ce360e01b81526001600160a01b03831660048201526024016106da565b5f5160206124995f395f51905f528114611c8a57604051632a87526960e21b8152600481018290526024016106da565b611c948383611df0565b505050565b306001600160a01b037f000000000000000000000000000000000000000000000000000000000000000016146114125760405163703e46dd60e11b815260040160405180910390fd5b60607f92fd13387c7fe7befbc38d303d6468778fb9731bc4583f17d92989c6fcfdeaaa82604051602401611d1b91511515815260200190565b60408051601f198184030181529190526020810180516001600160e01b03166001600160e01b03199093169290921790915292915050565b7f9016d09d72d40fdae2fd8ceac6b6234c7706214fd39c1cd1e609a0528c19930080546001600160a01b031981166001600160a01b03848116918217845560405192169182907f8be0079c531659141344cd1fd0a4f28419497f9722a3daafe3b4186f6b6457e0905f90a3505050565b611dcb611e45565b61141257604051631afcd79f60e31b815260040160405180910390fd5b6117ab611dc3565b611df982611e5e565b6040516001600160a01b038316907fbc7cd75a20ee27fd9adebab32041f755214dbc6bffa90cc0225b39da2e5c2d3b905f90a2805115611e3d57611c948282611ec1565b6106ed611f33565b5f611e4e611a0d565b54600160401b900460ff16919050565b806001600160a01b03163b5f03611e9357604051634c9c8ce360e01b81526001600160a01b03821660048201526024016106da565b5f5160206124995f395f51905f5280546001600160a01b0319166001600160a01b0392909216919091179055565b60605f5f846001600160a01b031684604051611edd9190612482565b5f60405180830381855af49150503d805f8114611f15576040519150601f19603f3d011682016040523d82523d5f602084013e611f1a565b606091505b5091509150611f2a858383611f52565b95945050505050565b34156114125760405163b398979f60e01b815260040160405180910390fd5b606082611f6757611f6282611fb1565b611faa565b8151158015611f7e57506001600160a01b0384163b155b15611fa757604051639996b31560e01b81526001600160a01b03851660048201526024016106da565b50805b9392505050565b805115611fc15780518082602001fd5b60405163d6bda27560e01b815260040160405180910390fd5b5080545f8255905f5260205f2090810190610d8391905b80821115612004575f8155600101611ff1565b5090565b5f60208284031215612018575f5ffd5b5035919050565b634e487b7160e01b5f52604160045260245ffd5b604051601f8201601f1916810167ffffffffffffffff8111828210171561205c5761205c61201f565b604052919050565b5f5f60408385031215612075575f5ffd5b82359150602083013567ffffffffffffffff811115612092575f5ffd5b8301601f810185136120a2575f5ffd5b803567ffffffffffffffff8111156120bc576120bc61201f565b8060051b6120cc60208201612033565b918252602081840181019290810190888411156120e7575f5ffd5b6020850194505b8385101561210d578435808352602095860195909350909101906120ee565b80955050505050509250929050565b80356001600160a01b0381168114612132575f5ffd5b919050565b5f5f5f5f5f60a0868803121561214b575f5ffd5b6121548661211c565b945060208601359350604086013567ffffffffffffffff81168114612177575f5ffd5b92506121856060870161211c565b91506121936080870161211c565b90509295509295909350565b5f5f604083850312156121b0575f5ffd5b50508035926020909101359150565b5f5f5f5f5f5f5f5f610100898b0312156121d7575f5ffd5b6121e08961211c565b9a60208a01359a5060408a013599606081013599506080810135985060a0810135975060c0810135965060e00135945092505050565b5f5f60408385031215612227575f5ffd5b6122308361211c565b9150602083013567ffffffffffffffff81111561224b575f5ffd5b8301601f8101851361225b575f5ffd5b803567ffffffffffffffff8111156122755761227561201f565b612288601f8201601f1916602001612033565b81815286602083850101111561229c575f5ffd5b816020840160208301375f602083830101528093505050509250929050565b5f81518084528060208401602086015e5f602082860101526020601f19601f83011685010191505092915050565b602081525f611faa60208301846122bb565b602080825282518282018190525f918401906040840190835b8181101561233b5783516001600160a01b0316835260209384019390920191600101612314565b509095945050505050565b5f60208284031215612356575f5ffd5b611faa8261211c565b634e487b7160e01b5f52601160045260245ffd5b81810381811115611a3157611a3161235f565b5f60208284031215612396575f5ffd5b81518015158114611faa575f5ffd5b5f600182016123b6576123b661235f565b5060010190565b8082028115828204841417611a3157611a3161235f565b60208152815160208201526020820151604082015261ffff604083015116606082015263ffffffff606083015116608082015263ffffffff60808301511660a08201525f60a083015160c08084015261243060e08401826122bb565b949350505050565b5f60208284031215612448575f5ffd5b5051919050565b634e487b7160e01b5f52603260045260245ffd5b5f8261247d57634e487b7160e01b5f52601260045260245ffd5b500690565b5f82518060208501845e5f92019182525091905056fe360894a13ba1a3210667c828492db98dca3e2076cc3735a920a3ca505d382bbca2646970667358221220ae1d3d949297c7ded63a35fc5dab45e6b15fd903bc27557e1a5cede44eabe33964736f6c634300081e0033",
					"opcodes": "PUSH1 0xA0 PUSH1 0x40 MSTORE ADDRESS PUSH1 0x80 MSTORE CALLVALUE DUP1 ISZERO PUSH1 0x12 JUMPI PUSH0 PUSH0 REVERT JUMPDEST POP PUSH1 0x1 PUSH0 SSTORE PUSH1 0x80 MLOAD PUSH2 0x24EE PUSH2 0x3D PUSH0 CODECOPY PUSH0 DUP2 DUP2 PUSH2 0x1B37 ADD MSTORE DUP2 DUP2 PUSH2 0x1B60 ADD MSTORE PUSH2 0x1CA4 ADD MSTORE PUSH2 0x24EE PUSH0 RETURN INVALID PUSH1 0x80 PUSH1 0x40 MSTORE PUSH1 0x4 CALLDATASIZE LT PUSH2 0x1BA JUMPI PUSH0 CALLDATALOAD PUSH1 0xE0 SHR DUP1 PUSH4 0x5B7BAF64 GT PUSH2 0xF2 JUMPI DUP1 PUSH4 0x8DA5CB5B GT PUSH2 0x92 JUMPI DUP1 PUSH4 0xB6FA37BC GT PUSH2 0x62 JUMPI DUP1 PUSH4 0xB6FA37BC EQ PUSH2 0x615 JUMPI DUP1 PUSH4 0xC1E3BD3E EQ PUSH2 0x634 JUMPI DUP1 PUSH4 0xD7098154 EQ PUSH2 0x660 JUMPI DUP1 PUSH4 0xF2FDE38B EQ PUSH2 0x67F JUMPI PUSH0 PUSH0 REVERT JUMPDEST DUP1 PUSH4 0x8DA5CB5B EQ PUSH2 0x548 JUMPI DUP1 PUSH4 0xA3E56FA8 EQ PUSH2 0x584 JUMPI DUP1 PUSH4 0xAD3CB1CC EQ PUSH2 0x5A3 JUMPI DUP1 PUSH4 0xB0FB162F EQ PUSH2 0x5E0 JUMPI PUSH0 PUSH0 REVERT JUMPDEST DUP1 PUSH4 0x715018A6 GT PUSH2 0xCD JUMPI DUP1 PUSH4 0x715018A6 EQ PUSH2 0x4D0 JUMPI DUP1 PUSH4 0x7CCFD7FC EQ PUSH2 0x4E4 JUMPI DUP1 PUSH4 0x826D9873 EQ PUSH2 0x50A JUMPI DUP1 PUSH4 0x82F9D0FB EQ PUSH2 0x529 JUMPI PUSH0 PUSH0 REVERT JUMPDEST DUP1 PUSH4 0x5B7BAF64 EQ PUSH2 0x47D JUMPI DUP1 PUSH4 0x60B2A56A EQ PUSH2 0x49C JUMPI DUP1 PUSH4 0x61728F39 EQ PUSH2 0x4BB JUMPI PUSH0 PUSH0 REVERT JUMPDEST DUP1 PUSH4 0x3893F9D5 GT PUSH2 0x15D JUMPI DUP1 PUSH4 0x4538F297 GT PUSH2 0x138 JUMPI DUP1 PUSH4 0x4538F297 EQ PUSH2 0x422 JUMPI DUP1 PUSH4 0x4A4A6B4F EQ PUSH2 0x441 JUMPI DUP1 PUSH4 0x4F1EF286 EQ PUSH2 0x456 JUMPI DUP1 PUSH4 0x52D1902D EQ PUSH2 0x469 JUMPI PUSH0 PUSH0 REVERT JUMPDEST DUP1 PUSH4 0x3893F9D5 EQ PUSH2 0x3C5 JUMPI DUP1 PUSH4 0x3FD43098 EQ PUSH2 0x3E4 JUMPI DUP1 PUSH4 0x4311DA37 EQ PUSH2 0x403 JUMPI PUSH0 PUSH0 REVERT JUMPDEST DUP1 PUSH4 0x1FE543E3 GT PUSH2 0x198 JUMPI DUP1 PUSH4 0x1FE543E3 EQ PUSH2 0x31D JUMPI DUP1 PUSH4 0x2301D775 EQ PUSH2 0x33E JUMPI DUP1 PUSH4 0x24F74697 EQ PUSH2 0x375 JUMPI DUP1 PUSH4 0x379C52A6 EQ PUSH2 0x3A6 JUMPI PUSH0 PUSH0 REVERT JUMPDEST DUP1 PUSH4 0x9C1BA2E EQ PUSH2 0x1BE JUMPI DUP1 PUSH4 0x1398E076 EQ PUSH2 0x1E6 JUMPI DUP1 PUSH4 0x15C6E123 EQ PUSH2 0x2F2 JUMPI JUMPDEST PUSH0 PUSH0 REVERT JUMPDEST CALLVALUE DUP1 ISZERO PUSH2 0x1C9 JUMPI PUSH0 PUSH0 REVERT JUMPDEST POP PUSH2 0x1D3 PUSH1 0x8 SLOAD DUP2 JUMP JUMPDEST PUSH1 0x40 MLOAD SWAP1 DUP2 MSTORE PUSH1 0x20 ADD JUMPDEST PUSH1 0x40 MLOAD DUP1 SWAP2 SUB SWAP1 RETURN JUMPDEST CALLVALUE DUP1 ISZERO PUSH2 0x1F1 JUMPI PUSH0 PUSH0 REVERT JUMPDEST POP PUSH2 0x27B PUSH2 0x200 CALLDATASIZE PUSH1 0x4 PUSH2 0x2008 JUMP JUMPDEST PUSH1 0x2 PUSH1 0x20 DUP2 SWAP1 MSTORE PUSH0 SWAP2 DUP3 MSTORE PUSH1 0x40 SWAP1 SWAP2 KECCAK256 DUP1 SLOAD PUSH1 0x1 DUP3 ADD SLOAD SWAP3 DUP3 ADD SLOAD PUSH1 0x3 DUP4 ADD SLOAD PUSH1 0x4 DUP5 ADD SLOAD PUSH1 0x5 DUP6 ADD SLOAD PUSH1 0x6 DUP7 ADD SLOAD PUSH1 0x7 DUP8 ADD SLOAD PUSH1 0x8 DUP9 ADD SLOAD PUSH1 0xA DUP10 ADD SLOAD PUSH1 0xB SWAP1 SWAP10 ADD SLOAD PUSH1 0x1 PUSH1 0x1 PUSH1 0xA0 SHL SUB SWAP9 DUP10 AND SWAP11 SWAP10 SWAP8 SWAP9 SWAP7 SWAP8 SWAP6 SWAP7 SWAP5 SWAP6 SWAP4 SWAP5 SWAP3 SWAP4 PUSH1 0xFF DUP1 DUP5 AND SWAP5 PUSH2 0x100 DUP6 DIV DUP3 AND SWAP5 PUSH3 0x10000 SWAP1 DIV SWAP1 SWAP2 AND SWAP3 SWAP2 AND SWAP1 DUP14 JUMP JUMPDEST PUSH1 0x40 DUP1 MLOAD PUSH1 0x1 PUSH1 0x1 PUSH1 0xA0 SHL SUB SWAP15 DUP16 AND DUP2 MSTORE PUSH1 0x20 DUP2 ADD SWAP14 SWAP1 SWAP14 MSTORE DUP13 ADD SWAP11 SWAP1 SWAP11 MSTORE PUSH1 0x60 DUP12 ADD SWAP9 SWAP1 SWAP9 MSTORE PUSH1 0x80 DUP11 ADD SWAP7 SWAP1 SWAP7 MSTORE PUSH1 0xA0 DUP10 ADD SWAP5 SWAP1 SWAP5 MSTORE PUSH1 0xC0 DUP9 ADD SWAP3 SWAP1 SWAP3 MSTORE PUSH1 0xE0 DUP8 ADD MSTORE ISZERO ISZERO PUSH2 0x100 DUP7 ADD MSTORE ISZERO ISZERO PUSH2 0x120 DUP6 ADD MSTORE ISZERO ISZERO PUSH2 0x140 DUP5 ADD MSTORE SWAP1 SWAP3 AND PUSH2 0x160 DUP3 ADD MSTORE PUSH2 0x180 DUP2 ADD SWAP2 SWAP1 SWAP2 MSTORE PUSH2 0x1A0 ADD PUSH2 0x1DD JUMP JUMPDEST CALLVALUE DUP1 ISZERO PUSH2 0x2FD JUMPI PUSH0 PUSH0 REVERT JUMPDEST POP PUSH2 0x1D3 PUSH2 0x30C CALLDATASIZE PUSH1 0x4 PUSH2 0x2008 JUMP JUMPDEST PUSH1 0xA PUSH1 0x20 MSTORE PUSH0 SWAP1 DUP2 MSTORE PUSH1 0x40 SWAP1 KECCAK256 SLOAD DUP2 JUMP JUMPDEST CALLVALUE DUP1 ISZERO PUSH2 0x328 JUMPI PUSH0 PUSH0 REVERT JUMPDEST POP PUSH2 0x33C PUSH2 0x337 CALLDATASIZE PUSH1 0x4 PUSH2 0x2064 JUMP JUMPDEST PUSH2 0x69E JUMP JUMPDEST STOP JUMPDEST CALLVALUE DUP1 ISZERO PUSH2 0x349 JUMPI PUSH0 PUSH0 REVERT JUMPDEST POP PUSH1 0x5 SLOAD PUSH2 0x35D SWAP1 PUSH1 0x1 PUSH1 0x1 PUSH1 0xA0 SHL SUB AND DUP2 JUMP JUMPDEST PUSH1 0x40 MLOAD PUSH1 0x1 PUSH1 0x1 PUSH1 0xA0 SHL SUB SWAP1 SWAP2 AND DUP2 MSTORE PUSH1 0x20 ADD PUSH2 0x1DD JUMP JUMPDEST CALLVALUE DUP1 ISZERO PUSH2 0x380 JUMPI PUSH0 PUSH0 REVERT JUMPDEST POP PUSH1 0x7 SLOAD PUSH2 0x391 SWAP1 PUSH4 0xFFFFFFFF AND DUP2 JUMP JUMPDEST PUSH1 0x40 MLOAD PUSH4 0xFFFFFFFF SWAP1 SWAP2 AND DUP2 MSTORE PUSH1 0x20 ADD PUSH2 0x1DD JUMP JUMPDEST CALLVALUE DUP1 ISZERO PUSH2 0x3B1 JUMPI PUSH0 PUSH0 REVERT JUMPDEST POP PUSH2 0x33C PUSH2 0x3C0 CALLDATASIZE PUSH1 0x4 PUSH2 0x2137 JUMP JUMPDEST PUSH2 0x6F1 JUMP JUMPDEST CALLVALUE DUP1 ISZERO PUSH2 0x3D0 JUMPI PUSH0 PUSH0 REVERT JUMPDEST POP PUSH2 0x33C PUSH2 0x3DF CALLDATASIZE PUSH1 0x4 PUSH2 0x219F JUMP JUMPDEST PUSH2 0x86C JUMP JUMPDEST CALLVALUE DUP1 ISZERO PUSH2 0x3EF JUMPI PUSH0 PUSH0 REVERT JUMPDEST POP PUSH2 0x33C PUSH2 0x3FE CALLDATASIZE PUSH1 0x4 PUSH2 0x2008 JUMP JUMPDEST PUSH2 0xB7B JUMP JUMPDEST CALLVALUE DUP1 ISZERO PUSH2 0x40E JUMPI PUSH0 PUSH0 REVERT JUMPDEST POP PUSH2 0x33C PUSH2 0x41D CALLDATASIZE PUSH1 0x4 PUSH2 0x21BF JUMP JUMPDEST PUSH2 0xD86 JUMP JUMPDEST CALLVALUE DUP1 ISZERO PUSH2 0x42D JUMPI PUSH0 PUSH0 REVERT JUMPDEST POP PUSH2 0x33C PUSH2 0x43C CALLDATASIZE PUSH1 0x4 PUSH2 0x2008 JUMP JUMPDEST PUSH2 0xED4 JUMP JUMPDEST CALLVALUE DUP1 ISZERO PUSH2 0x44C JUMPI PUSH0 PUSH0 REVERT JUMPDEST POP PUSH2 0x1D3 PUSH1 0x3 SLOAD DUP2 JUMP JUMPDEST PUSH2 0x33C PUSH2 0x464 CALLDATASIZE PUSH1 0x4 PUSH2 0x2216 JUMP JUMPDEST PUSH2 0xF9F JUMP JUMPDEST CALLVALUE DUP1 ISZERO PUSH2 0x474 JUMPI PUSH0 PUSH0 REVERT JUMPDEST POP PUSH2 0x1D3 PUSH2 0xFBA JUMP JUMPDEST CALLVALUE DUP1 ISZERO PUSH2 0x488 JUMPI PUSH0 PUSH0 REVERT JUMPDEST POP PUSH2 0x33C PUSH2 0x497 CALLDATASIZE PUSH1 0x4 PUSH2 0x2008 JUMP JUMPDEST PUSH2 0xFD5 JUMP JUMPDEST CALLVALUE DUP1 ISZERO PUSH2 0x4A7 JUMPI PUSH0 PUSH0 REVERT JUMPDEST POP PUSH2 0x33C PUSH2 0x4B6 CALLDATASIZE PUSH1 0x4 PUSH2 0x2008 JUMP JUMPDEST PUSH2 0x11B2 JUMP JUMPDEST CALLVALUE DUP1 ISZERO PUSH2 0x4C6 JUMPI PUSH0 PUSH0 REVERT JUMPDEST POP PUSH2 0x1D3 PUSH1 0x6 SLOAD DUP2 JUMP JUMPDEST CALLVALUE DUP1 ISZERO PUSH2 0x4DB JUMPI PUSH0 PUSH0 REVERT JUMPDEST POP PUSH2 0x33C PUSH2 0x1401 JUMP JUMPDEST CALLVALUE DUP1 ISZERO PUSH2 0x4EF JUMPI PUSH0 PUSH0 REVERT JUMPDEST POP PUSH1 0x7 SLOAD PUSH2 0x391 SWAP1 PUSH7 0x1000000000000 SWAP1 DIV PUSH4 0xFFFFFFFF AND DUP2 JUMP JUMPDEST CALLVALUE DUP1 ISZERO PUSH2 0x515 JUMPI PUSH0 PUSH0 REVERT JUMPDEST POP PUSH2 0x33C PUSH2 0x524 CALLDATASIZE PUSH1 0x4 PUSH2 0x2008 JUMP JUMPDEST PUSH2 0x1414 JUMP JUMPDEST CALLVALUE DUP1 ISZERO PUSH2 0x534 JUMPI PUSH0 PUSH0 REVERT JUMPDEST POP PUSH2 0x33C PUSH2 0x543 CALLDATASIZE PUSH1 0x4 PUSH2 0x2008 JUMP JUMPDEST PUSH2 0x155A JUMP JUMPDEST CALLVALUE DUP1 ISZERO PUSH2 0x553 JUMPI PUSH0 PUSH0 REVERT JUMPDEST POP PUSH32 0x9016D09D72D40FDAE2FD8CEAC6B6234C7706214FD39C1CD1E609A0528C199300 SLOAD PUSH1 0x1 PUSH1 0x1 PUSH1 0xA0 SHL SUB AND PUSH2 0x35D JUMP JUMPDEST CALLVALUE DUP1 ISZERO PUSH2 0x58F JUMPI PUSH0 PUSH0 REVERT JUMPDEST POP PUSH1 0x9 SLOAD PUSH2 0x35D SWAP1 PUSH1 0x1 PUSH1 0x1 PUSH1 0xA0 SHL SUB AND DUP2 JUMP JUMPDEST CALLVALUE DUP1 ISZERO PUSH2 0x5AE JUMPI PUSH0 PUSH0 REVERT JUMPDEST POP PUSH2 0x5D3 PUSH1 0x40 MLOAD DUP1 PUSH1 0x40 ADD PUSH1 0x40 MSTORE DUP1 PUSH1 0x5 DUP2 MSTORE PUSH1 0x20 ADD PUSH5 0x352E302E3 PUSH1 0xDC SHL DUP2 MSTORE POP DUP2 JUMP JUMPDEST PUSH1 0x40 MLOAD PUSH2 0x1DD SWAP2 SWAP1 PUSH2 0x22E9 JUMP JUMPDEST CALLVALUE DUP1 ISZERO PUSH2 0x5EB JUMPI PUSH0 PUSH0 REVERT JUMPDEST POP PUSH1 0x7 SLOAD PUSH2 0x602 SWAP1 PUSH5 0x100000000 SWAP1 DIV PUSH2 0xFFFF AND DUP2 JUMP JUMPDEST PUSH1 0x40 MLOAD PUSH2 0xFFFF SWAP1 SWAP2 AND DUP2 MSTORE PUSH1 0x20 ADD PUSH2 0x1DD JUMP JUMPDEST CALLVALUE DUP1 ISZERO PUSH2 0x620 JUMPI PUSH0 PUSH0 REVERT JUMPDEST POP PUSH1 0x4 SLOAD PUSH2 0x35D SWAP1 PUSH1 0x1 PUSH1 0x1 PUSH1 0xA0 SHL SUB AND DUP2 JUMP JUMPDEST CALLVALUE DUP1 ISZERO PUSH2 0x63F JUMPI PUSH0 PUSH0 REVERT JUMPDEST POP PUSH2 0x653 PUSH2 0x64E CALLDATASIZE PUSH1 0x4 PUSH2 0x2008 JUMP JUMPDEST PUSH2 0x15E8 JUMP JUMPDEST PUSH1 0x40 MLOAD PUSH2 0x1DD SWAP2 SWAP1 PUSH2 0x22FB JUMP JUMPDEST CALLVALUE DUP1 ISZERO PUSH2 0x66B JUMPI PUSH0 PUSH0 REVERT JUMPDEST POP PUSH2 0x33C PUSH2 0x67A CALLDATASIZE PUSH1 0x4 PUSH2 0x2008 JUMP JUMPDEST PUSH2 0x1654 JUMP JUMPDEST CALLVALUE DUP1 ISZERO PUSH2 0x68A JUMPI PUSH0 PUSH0 REVERT JUMPDEST POP PUSH2 0x33C PUSH2 0x699 CALLDATASIZE PUSH1 0x4 PUSH2 0x2346 JUMP JUMPDEST PUSH2 0x17A3 JUMP JUMPDEST PUSH1 0x1 SLOAD PUSH1 0x1 PUSH1 0x1 PUSH1 0xA0 SHL SUB AND CALLER EQ PUSH2 0x6E3 JUMPI PUSH1 0x1 SLOAD PUSH1 0x40 MLOAD PUSH4 0x73E64FD PUSH1 0xE2 SHL DUP2 MSTORE CALLER PUSH1 0x4 DUP3 ADD MSTORE PUSH1 0x1 PUSH1 0x1 PUSH1 0xA0 SHL SUB SWAP1 SWAP2 AND PUSH1 0x24 DUP3 ADD MSTORE PUSH1 0x44 ADD JUMPDEST PUSH1 0x40 MLOAD DUP1 SWAP2 SUB SWAP1 REVERT JUMPDEST PUSH2 0x6ED DUP3 DUP3 PUSH2 0x17DD JUMP JUMPDEST POP POP JUMP JUMPDEST PUSH0 PUSH2 0x6FA PUSH2 0x1A0D JUMP JUMPDEST DUP1 SLOAD SWAP1 SWAP2 POP PUSH1 0xFF PUSH1 0x1 PUSH1 0x40 SHL DUP3 DIV AND ISZERO SWAP1 PUSH8 0xFFFFFFFFFFFFFFFF AND PUSH0 DUP2 ISZERO DUP1 ISZERO PUSH2 0x721 JUMPI POP DUP3 JUMPDEST SWAP1 POP PUSH0 DUP3 PUSH8 0xFFFFFFFFFFFFFFFF AND PUSH1 0x1 EQ DUP1 ISZERO PUSH2 0x73D JUMPI POP ADDRESS EXTCODESIZE ISZERO JUMPDEST SWAP1 POP DUP2 ISZERO DUP1 ISZERO PUSH2 0x74B JUMPI POP DUP1 ISZERO JUMPDEST ISZERO PUSH2 0x769 JUMPI PUSH1 0x40 MLOAD PUSH4 0xF92EE8A9 PUSH1 0xE0 SHL DUP2 MSTORE PUSH1 0x4 ADD PUSH1 0x40 MLOAD DUP1 SWAP2 SUB SWAP1 REVERT JUMPDEST DUP5 SLOAD PUSH8 0xFFFFFFFFFFFFFFFF NOT AND PUSH1 0x1 OR DUP6 SSTORE DUP4 ISZERO PUSH2 0x793 JUMPI DUP5 SLOAD PUSH1 0xFF PUSH1 0x40 SHL NOT AND PUSH1 0x1 PUSH1 0x40 SHL OR DUP6 SSTORE JUMPDEST PUSH2 0x79C CALLER PUSH2 0x1A37 JUMP JUMPDEST PUSH2 0x7A4 PUSH2 0x1A48 JUMP JUMPDEST PUSH2 0x7AD DUP11 PUSH2 0x1A50 JUMP JUMPDEST PUSH1 0x9 DUP1 SLOAD PUSH1 0x1 PUSH1 0x1 PUSH1 0xA0 SHL SUB NOT SWAP1 DUP2 AND PUSH1 0x1 PUSH1 0x1 PUSH1 0xA0 SHL SUB DUP14 DUP2 AND SWAP2 SWAP1 SWAP2 OR SWAP1 SWAP3 SSTORE PUSH1 0x6 DUP12 SWAP1 SSTORE PUSH8 0xFFFFFFFFFFFFFFFF DUP11 AND PUSH1 0x8 SSTORE PUSH1 0x7 DUP1 SLOAD PUSH10 0xFFFFFFFFFFFFFFFFFFFF NOT AND PUSH7 0x1000300030D40 OR SWAP1 SSTORE PUSH1 0x4 DUP1 SLOAD DUP3 AND DUP11 DUP5 AND OR SWAP1 SSTORE PUSH1 0x5 DUP1 SLOAD SWAP1 SWAP2 AND SWAP2 DUP9 AND SWAP2 SWAP1 SWAP2 OR SWAP1 SSTORE DUP4 ISZERO PUSH2 0x860 JUMPI DUP5 SLOAD PUSH1 0xFF PUSH1 0x40 SHL NOT AND DUP6 SSTORE PUSH1 0x40 MLOAD PUSH1 0x1 DUP2 MSTORE PUSH32 0xC7F505B2F371AE2175EE4913F4499E1F2633A7B5936321EED1CDAEB6115181D2 SWAP1 PUSH1 0x20 ADD PUSH1 0x40 MLOAD DUP1 SWAP2 SUB SWAP1 LOG1 JUMPDEST POP POP POP POP POP POP POP POP POP POP JUMP JUMPDEST PUSH2 0x874 PUSH2 0x1A7A JUMP JUMPDEST PUSH0 DUP3 DUP2 MSTORE PUSH1 0x2 PUSH1 0x20 SWAP1 DUP2 MSTORE PUSH1 0x40 DUP1 DUP4 KECCAK256 DUP5 DUP5 MSTORE DUP2 DUP5 KECCAK256 CALLER DUP6 MSTORE PUSH1 0xC DUP3 ADD SWAP1 SWAP4 MSTORE SWAP3 KECCAK256 SLOAD PUSH2 0x8D0 JUMPI PUSH1 0x40 MLOAD PUSH3 0x461BCD PUSH1 0xE5 SHL DUP2 MSTORE PUSH1 0x20 PUSH1 0x4 DUP3 ADD MSTORE PUSH1 0xA PUSH1 0x24 DUP3 ADD MSTORE PUSH10 0x139BDD081A5B881BDB19 PUSH1 0xB2 SHL PUSH1 0x44 DUP3 ADD MSTORE PUSH1 0x64 ADD PUSH2 0x6DA JUMP JUMPDEST CALLER PUSH0 SWAP1 DUP2 MSTORE PUSH1 0xE DUP4 ADD PUSH1 0x20 MSTORE PUSH1 0x40 SWAP1 KECCAK256 SLOAD PUSH1 0xFF AND ISZERO PUSH2 0x924 JUMPI PUSH1 0x40 MLOAD PUSH3 0x461BCD PUSH1 0xE5 SHL DUP2 MSTORE PUSH1 0x20 PUSH1 0x4 DUP3 ADD MSTORE PUSH1 0x10 PUSH1 0x24 DUP3 ADD MSTORE PUSH16 0x526566756E64656420616C7265616479 PUSH1 0x80 SHL PUSH1 0x44 DUP3 ADD MSTORE PUSH1 0x64 ADD PUSH2 0x6DA JUMP JUMPDEST PUSH1 0x8 DUP3 ADD SLOAD PUSH3 0x10000 SWAP1 DIV PUSH1 0xFF AND DUP1 PUSH2 0x95E JUMPI POP PUSH1 0x8 DUP3 ADD SLOAD PUSH2 0x100 SWAP1 DIV PUSH1 0xFF AND DUP1 ISZERO PUSH2 0x95E JUMPI POP PUSH1 0xA DUP3 ADD SLOAD PUSH1 0x1 PUSH1 0x1 PUSH1 0xA0 SHL SUB AND CALLER EQ ISZERO JUMPDEST PUSH2 0x99D JUMPI PUSH1 0x40 MLOAD PUSH3 0x461BCD PUSH1 0xE5 SHL DUP2 MSTORE PUSH1 0x20 PUSH1 0x4 DUP3 ADD MSTORE PUSH1 0x10 PUSH1 0x24 DUP3 ADD MSTORE PUSH16 0x4F6C64206E6F7420656C696769626C65 PUSH1 0x80 SHL PUSH1 0x44 DUP3 ADD MSTORE PUSH1 0x64 ADD PUSH2 0x6DA JUMP JUMPDEST PUSH1 0x8 DUP2 ADD SLOAD PUSH1 0xFF AND DUP1 ISZERO PUSH2 0x9BC JUMPI POP PUSH1 0x8 DUP2 ADD SLOAD PUSH3 0x10000 SWAP1 DIV PUSH1 0xFF AND ISZERO JUMPDEST PUSH2 0x9FF JUMPI PUSH1 0x40 MLOAD PUSH3 0x461BCD PUSH1 0xE5 SHL DUP2 MSTORE PUSH1 0x20 PUSH1 0x4 DUP3 ADD MSTORE PUSH1 0x14 PUSH1 0x24 DUP3 ADD MSTORE PUSH20 0x4E6577206C6F747465727920696E616374697665 PUSH1 0x60 SHL PUSH1 0x44 DUP3 ADD MSTORE PUSH1 0x64 ADD PUSH2 0x6DA JUMP JUMPDEST DUP1 PUSH1 0x4 ADD SLOAD TIMESTAMP LT PUSH2 0xA45 JUMPI PUSH1 0x40 MLOAD PUSH3 0x461BCD PUSH1 0xE5 SHL DUP2 MSTORE PUSH1 0x20 PUSH1 0x4 DUP3 ADD MSTORE PUSH1 0x10 PUSH1 0x24 DUP3 ADD MSTORE PUSH16 0x546F6F206C61746520666F72206E6577 PUSH1 0x80 SHL PUSH1 0x44 DUP3 ADD MSTORE PUSH1 0x64 ADD PUSH2 0x6DA JUMP JUMPDEST CALLER PUSH0 SWAP1 DUP2 MSTORE PUSH1 0xE DUP4 ADD PUSH1 0x20 MSTORE PUSH1 0x40 DUP2 KECCAK256 DUP1 SLOAD PUSH1 0xFF NOT AND PUSH1 0x1 SWAP1 DUP2 OR SWAP1 SWAP2 SSTORE PUSH1 0x2 DUP4 ADD SLOAD SWAP1 DUP4 ADD SLOAD PUSH2 0xA76 SWAP2 SWAP1 PUSH2 0x2373 JUMP JUMPDEST DUP3 SLOAD PUSH1 0x40 MLOAD PUSH4 0x23B872DD PUSH1 0xE0 SHL DUP2 MSTORE CALLER PUSH1 0x4 DUP3 ADD MSTORE ADDRESS PUSH1 0x24 DUP3 ADD MSTORE PUSH1 0x44 DUP2 ADD DUP4 SWAP1 MSTORE SWAP2 SWAP3 POP PUSH1 0x1 PUSH1 0x1 PUSH1 0xA0 SHL SUB AND SWAP1 PUSH4 0x23B872DD SWAP1 PUSH1 0x64 ADD PUSH1 0x20 PUSH1 0x40 MLOAD DUP1 DUP4 SUB DUP2 PUSH0 DUP8 GAS CALL ISZERO DUP1 ISZERO PUSH2 0xACA JUMPI RETURNDATASIZE PUSH0 PUSH0 RETURNDATACOPY RETURNDATASIZE PUSH0 REVERT JUMPDEST POP POP POP POP PUSH1 0x40 MLOAD RETURNDATASIZE PUSH1 0x1F NOT PUSH1 0x1F DUP3 ADD AND DUP3 ADD DUP1 PUSH1 0x40 MSTORE POP DUP2 ADD SWAP1 PUSH2 0xAEE SWAP2 SWAP1 PUSH2 0x2386 JUMP JUMPDEST POP PUSH1 0x9 DUP3 ADD DUP1 SLOAD PUSH1 0x1 DUP2 ADD DUP3 SSTORE PUSH0 SWAP2 DUP3 MSTORE PUSH1 0x20 DUP1 DUP4 KECCAK256 SWAP1 SWAP2 ADD DUP1 SLOAD PUSH1 0x1 PUSH1 0x1 PUSH1 0xA0 SHL SUB NOT AND CALLER SWAP1 DUP2 OR SWAP1 SWAP2 SSTORE DUP3 MSTORE PUSH1 0xC DUP5 ADD SWAP1 MSTORE PUSH1 0x40 DUP2 KECCAK256 DUP1 SLOAD SWAP2 PUSH2 0xB32 DUP4 PUSH2 0x23A5 JUMP JUMPDEST SWAP1 SWAP2 SSTORE POP POP PUSH1 0x40 DUP1 MLOAD DUP6 DUP2 MSTORE CALLER PUSH1 0x20 DUP3 ADD MSTORE PUSH32 0x1E28857182A3B2BB6FBB88287D1BA8CC3A941DD65D4C977286676D27B877A3D9 SWAP2 ADD PUSH1 0x40 MLOAD DUP1 SWAP2 SUB SWAP1 LOG1 POP POP POP PUSH2 0x6ED PUSH1 0x1 PUSH0 SSTORE JUMP JUMPDEST PUSH2 0xB83 PUSH2 0x1A7A JUMP JUMPDEST PUSH0 DUP2 DUP2 MSTORE PUSH1 0x2 PUSH1 0x20 MSTORE PUSH1 0x40 SWAP1 KECCAK256 PUSH1 0x8 DUP2 ADD SLOAD PUSH1 0xFF AND DUP1 ISZERO PUSH2 0xBAF JUMPI POP PUSH1 0x8 DUP2 ADD SLOAD PUSH3 0x10000 SWAP1 DIV PUSH1 0xFF AND ISZERO JUMPDEST PUSH2 0xBF3 JUMPI PUSH1 0x40 MLOAD PUSH3 0x461BCD PUSH1 0xE5 SHL DUP2 MSTORE PUSH1 0x20 PUSH1 0x4 DUP3 ADD MSTORE PUSH1 0x15 PUSH1 0x24 DUP3 ADD MSTORE PUSH21 0x125B9858DD1A5D99481BDC8818D85B98D95B1B1959 PUSH1 0x5A SHL PUSH1 0x44 DUP3 ADD MSTORE PUSH1 0x64 ADD PUSH2 0x6DA JUMP JUMPDEST DUP1 PUSH1 0x4 ADD SLOAD TIMESTAMP LT PUSH2 0xC31 JUMPI PUSH1 0x40 MLOAD PUSH3 0x461BCD PUSH1 0xE5 SHL DUP2 MSTORE PUSH1 0x20 PUSH1 0x4 DUP3 ADD MSTORE PUSH1 0x8 PUSH1 0x24 DUP3 ADD MSTORE PUSH8 0x546F6F206C617465 PUSH1 0xC0 SHL PUSH1 0x44 DUP3 ADD MSTORE PUSH1 0x64 ADD PUSH2 0x6DA JUMP JUMPDEST PUSH1 0x3 DUP2 ADD SLOAD PUSH1 0x9 DUP3 ADD SLOAD LT PUSH2 0xC7B JUMPI PUSH1 0x40 MLOAD PUSH3 0x461BCD PUSH1 0xE5 SHL DUP2 MSTORE PUSH1 0x20 PUSH1 0x4 DUP3 ADD MSTORE PUSH1 0x10 PUSH1 0x24 DUP3 ADD MSTORE PUSH16 0x4D6178207061727469636970616E7473 PUSH1 0x80 SHL PUSH1 0x44 DUP3 ADD MSTORE PUSH1 0x64 ADD PUSH2 0x6DA JUMP JUMPDEST DUP1 SLOAD PUSH1 0x1 DUP3 ADD SLOAD PUSH1 0x40 MLOAD PUSH4 0x23B872DD PUSH1 0xE0 SHL DUP2 MSTORE CALLER PUSH1 0x4 DUP3 ADD MSTORE ADDRESS PUSH1 0x24 DUP3 ADD MSTORE PUSH1 0x44 DUP2 ADD SWAP2 SWAP1 SWAP2 MSTORE PUSH1 0x1 PUSH1 0x1 PUSH1 0xA0 SHL SUB SWAP1 SWAP2 AND SWAP1 PUSH4 0x23B872DD SWAP1 PUSH1 0x64 ADD PUSH1 0x20 PUSH1 0x40 MLOAD DUP1 DUP4 SUB DUP2 PUSH0 DUP8 GAS CALL ISZERO DUP1 ISZERO PUSH2 0xCD4 JUMPI RETURNDATASIZE PUSH0 PUSH0 RETURNDATACOPY RETURNDATASIZE PUSH0 REVERT JUMPDEST POP POP POP POP PUSH1 0x40 MLOAD RETURNDATASIZE PUSH1 0x1F NOT PUSH1 0x1F DUP3 ADD AND DUP3 ADD DUP1 PUSH1 0x40 MSTORE POP DUP2 ADD SWAP1 PUSH2 0xCF8 SWAP2 SWAP1 PUSH2 0x2386 JUMP JUMPDEST POP PUSH1 0x9 DUP2 ADD DUP1 SLOAD PUSH1 0x1 DUP2 ADD DUP3 SSTORE PUSH0 SWAP2 DUP3 MSTORE PUSH1 0x20 DUP1 DUP4 KECCAK256 SWAP1 SWAP2 ADD DUP1 SLOAD PUSH1 0x1 PUSH1 0x1 PUSH1 0xA0 SHL SUB NOT AND CALLER SWAP1 DUP2 OR SWAP1 SWAP2 SSTORE DUP3 MSTORE PUSH1 0xC DUP4 ADD SWAP1 MSTORE PUSH1 0x40 DUP2 KECCAK256 DUP1 SLOAD SWAP2 PUSH2 0xD3C DUP4 PUSH2 0x23A5 JUMP JUMPDEST SWAP1 SWAP2 SSTORE POP POP PUSH1 0x40 DUP1 MLOAD DUP4 DUP2 MSTORE CALLER PUSH1 0x20 DUP3 ADD MSTORE PUSH32 0x1E28857182A3B2BB6FBB88287D1BA8CC3A941DD65D4C977286676D27B877A3D9 SWAP2 ADD PUSH1 0x40 MLOAD DUP1 SWAP2 SUB SWAP1 LOG1 POP PUSH2 0xD83 PUSH1 0x1 PUSH0 SSTORE JUMP JUMPDEST POP JUMP JUMPDEST PUSH2 0xD8E PUSH2 0x1AD1 JUMP JUMPDEST DUP6 DUP8 LT ISZERO PUSH2 0xDCE JUMPI PUSH1 0x40 MLOAD PUSH3 0x461BCD PUSH1 0xE5 SHL DUP2 MSTORE PUSH1 0x20 PUSH1 0x4 DUP3 ADD MSTORE PUSH1 0xD PUSH1 0x24 DUP3 ADD MSTORE PUSH13 0x526566756E64203C3D20666565 PUSH1 0x98 SHL PUSH1 0x44 DUP3 ADD MSTORE PUSH1 0x64 ADD PUSH2 0x6DA JUMP JUMPDEST TIMESTAMP DUP5 GT PUSH2 0xE11 JUMPI PUSH1 0x40 MLOAD PUSH3 0x461BCD PUSH1 0xE5 SHL DUP2 MSTORE PUSH1 0x20 PUSH1 0x4 DUP3 ADD MSTORE PUSH1 0x11 PUSH1 0x24 DUP3 ADD MSTORE PUSH17 0x496E76616C696420647261772074696D65 PUSH1 0x78 SHL PUSH1 0x44 DUP3 ADD MSTORE PUSH1 0x64 ADD PUSH2 0x6DA JUMP JUMPDEST PUSH0 PUSH1 0x2 PUSH0 PUSH1 0x3 PUSH0 DUP2 SLOAD PUSH2 0xE23 SWAP1 PUSH2 0x23A5 JUMP JUMPDEST SWAP2 DUP3 SWAP1 SSTORE POP DUP2 MSTORE PUSH1 0x20 DUP1 DUP3 ADD SWAP3 SWAP1 SWAP3 MSTORE PUSH1 0x40 SWAP1 DUP2 ADD PUSH0 KECCAK256 DUP1 SLOAD PUSH1 0x1 PUSH1 0x1 PUSH1 0xA0 SHL SUB NOT AND PUSH1 0x1 PUSH1 0x1 PUSH1 0xA0 SHL SUB DUP14 AND OR DUP2 SSTORE PUSH1 0x1 DUP1 DUP3 ADD DUP13 SWAP1 SSTORE PUSH1 0x2 DUP3 ADD DUP12 SWAP1 SSTORE PUSH1 0x3 DUP1 DUP4 ADD DUP12 SWAP1 SSTORE PUSH1 0x4 DUP4 ADD DUP11 SWAP1 SSTORE PUSH1 0x5 DUP4 ADD DUP10 SWAP1 SSTORE PUSH1 0x6 DUP4 ADD DUP9 SWAP1 SSTORE PUSH1 0x7 DUP4 ADD DUP8 SWAP1 SSTORE PUSH1 0x8 DUP4 ADD DUP1 SLOAD PUSH1 0xFF NOT AND SWAP1 SWAP3 OR SWAP1 SWAP2 SSTORE SLOAD SWAP2 MLOAD SWAP2 DUP3 MSTORE SWAP3 POP PUSH32 0x9E0023BEBCC752BAAA41057318405B5A6A8E9C6372B519717CFDF238E5CAA795 SWAP2 ADD PUSH1 0x40 MLOAD DUP1 SWAP2 SUB SWAP1 LOG1 POP POP POP POP POP POP POP POP POP JUMP JUMPDEST PUSH2 0xEDC PUSH2 0x1AD1 JUMP JUMPDEST PUSH0 DUP2 DUP2 MSTORE PUSH1 0x2 PUSH1 0x20 MSTORE PUSH1 0x40 SWAP1 KECCAK256 PUSH1 0x8 DUP2 ADD SLOAD PUSH3 0x10000 SWAP1 DIV PUSH1 0xFF AND ISZERO DUP1 ISZERO PUSH2 0xF0E JUMPI POP PUSH1 0x8 DUP2 ADD SLOAD PUSH2 0x100 SWAP1 DIV PUSH1 0xFF AND ISZERO JUMPDEST PUSH2 0xF4E JUMPI PUSH1 0x40 MLOAD PUSH3 0x461BCD PUSH1 0xE5 SHL DUP2 MSTORE PUSH1 0x20 PUSH1 0x4 DUP3 ADD MSTORE PUSH1 0x11 PUSH1 0x24 DUP3 ADD MSTORE PUSH17 0x105B1C9958591E48199A5B985B1A5E9959 PUSH1 0x7A SHL PUSH1 0x44 DUP3 ADD MSTORE PUSH1 0x64 ADD PUSH2 0x6DA JUMP JUMPDEST PUSH1 0x8 DUP2 ADD DUP1 SLOAD PUSH3 0xFF0000 NOT AND PUSH3 0x10000 OR SWAP1 SSTORE PUSH1 0x40 MLOAD PUSH32 0xC3DAC690CF4C3AE8964F18B8F09F7F9A75D3962A8CBB7CD689DF2C291BB5B2DD SWAP1 PUSH2 0xF93 SWAP1 DUP5 DUP2 MSTORE PUSH1 0x20 ADD SWAP1 JUMP JUMPDEST PUSH1 0x40 MLOAD DUP1 SWAP2 SUB SWAP1 LOG1 POP POP JUMP JUMPDEST PUSH2 0xFA7 PUSH2 0x1B2C JUMP JUMPDEST PUSH2 0xFB0 DUP3 PUSH2 0x1BD0 JUMP JUMPDEST PUSH2 0x6ED DUP3 DUP3 PUSH2 0x1BD8 JUMP JUMPDEST PUSH0 PUSH2 0xFC3 PUSH2 0x1C99 JUMP JUMPDEST POP PUSH0 MLOAD PUSH1 0x20 PUSH2 0x2499 PUSH0 CODECOPY PUSH0 MLOAD SWAP1 PUSH0 MSTORE SWAP1 JUMP JUMPDEST PUSH2 0xFDD PUSH2 0x1A7A JUMP JUMPDEST PUSH0 DUP2 DUP2 MSTORE PUSH1 0x2 PUSH1 0x20 MSTORE PUSH1 0x40 SWAP1 KECCAK256 PUSH1 0x8 DUP2 ADD SLOAD PUSH3 0x10000 SWAP1 DIV PUSH1 0xFF AND DUP1 PUSH2 0x1024 JUMPI POP PUSH1 0x8 DUP2 ADD SLOAD PUSH2 0x100 SWAP1 DIV PUSH1 0xFF AND DUP1 ISZERO PUSH2 0x1024 JUMPI POP PUSH1 0xA DUP2 ADD SLOAD PUSH1 0x1 PUSH1 0x1 PUSH1 0xA0 SHL SUB AND CALLER EQ ISZERO JUMPDEST PUSH2 0x105F JUMPI PUSH1 0x40 MLOAD PUSH3 0x461BCD PUSH1 0xE5 SHL DUP2 MSTORE PUSH1 0x20 PUSH1 0x4 DUP3 ADD MSTORE PUSH1 0xC PUSH1 0x24 DUP3 ADD MSTORE PUSH12 0x4E6F7420656C696769626C65 PUSH1 0xA0 SHL PUSH1 0x44 DUP3 ADD MSTORE PUSH1 0x64 ADD PUSH2 0x6DA JUMP JUMPDEST CALLER PUSH0 SWAP1 DUP2 MSTORE PUSH1 0xE DUP3 ADD PUSH1 0x20 MSTORE PUSH1 0x40 SWAP1 KECCAK256 SLOAD PUSH1 0xFF AND ISZERO PUSH2 0x10B3 JUMPI PUSH1 0x40 MLOAD PUSH3 0x461BCD PUSH1 0xE5 SHL DUP2 MSTORE PUSH1 0x20 PUSH1 0x4 DUP3 ADD MSTORE PUSH1 0x10 PUSH1 0x24 DUP3 ADD MSTORE PUSH16 0x105B1C9958591E481C99599D5B991959 PUSH1 0x82 SHL PUSH1 0x44 DUP3 ADD MSTORE PUSH1 0x64 ADD PUSH2 0x6DA JUMP JUMPDEST CALLER PUSH0 SWAP1 DUP2 MSTORE PUSH1 0xC DUP3 ADD PUSH1 0x20 MSTORE PUSH1 0x40 SWAP1 KECCAK256 SLOAD PUSH2 0x10FD JUMPI PUSH1 0x40 MLOAD PUSH3 0x461BCD PUSH1 0xE5 SHL DUP2 MSTORE PUSH1 0x20 PUSH1 0x4 DUP3 ADD MSTORE PUSH1 0xA PUSH1 0x24 DUP3 ADD MSTORE PUSH10 0x4E6F20656E7472696573 PUSH1 0xB0 SHL PUSH1 0x44 DUP3 ADD MSTORE PUSH1 0x64 ADD PUSH2 0x6DA JUMP JUMPDEST CALLER PUSH0 SWAP1 DUP2 MSTORE PUSH1 0xE DUP3 ADD PUSH1 0x20 SWAP1 DUP2 MSTORE PUSH1 0x40 DUP1 DUP4 KECCAK256 DUP1 SLOAD PUSH1 0xFF NOT AND PUSH1 0x1 OR SWAP1 SSTORE PUSH1 0xC DUP5 ADD SWAP1 SWAP2 MSTORE DUP2 KECCAK256 SLOAD PUSH1 0x2 DUP4 ADD SLOAD PUSH2 0x1134 SWAP2 SWAP1 PUSH2 0x23BD JUMP JUMPDEST DUP3 SLOAD PUSH1 0x40 MLOAD PUSH4 0xA9059CBB PUSH1 0xE0 SHL DUP2 MSTORE CALLER PUSH1 0x4 DUP3 ADD MSTORE PUSH1 0x24 DUP2 ADD DUP4 SWAP1 MSTORE SWAP2 SWAP3 POP PUSH1 0x1 PUSH1 0x1 PUSH1 0xA0 SHL SUB AND SWAP1 PUSH4 0xA9059CBB SWAP1 PUSH1 0x44 ADD PUSH1 0x20 PUSH1 0x40 MLOAD DUP1 DUP4 SUB DUP2 PUSH0 DUP8 GAS CALL ISZERO DUP1 ISZERO PUSH2 0x1182 JUMPI RETURNDATASIZE PUSH0 PUSH0 RETURNDATACOPY RETURNDATASIZE PUSH0 REVERT JUMPDEST POP POP POP POP PUSH1 0x40 MLOAD RETURNDATASIZE PUSH1 0x1F NOT PUSH1 0x1F DUP3 ADD AND DUP3 ADD DUP1 PUSH1 0x40 MSTORE POP DUP2 ADD SWAP1 PUSH2 0x11A6 SWAP2 SWAP1 PUSH2 0x2386 JUMP JUMPDEST POP POP POP PUSH2 0xD83 PUSH1 0x1 PUSH0 SSTORE JUMP JUMPDEST PUSH2 0x11BA PUSH2 0x1AD1 JUMP JUMPDEST PUSH0 DUP2 DUP2 MSTORE PUSH1 0x2 PUSH1 0x20 MSTORE PUSH1 0x40 SWAP1 KECCAK256 PUSH1 0x4 DUP2 ADD SLOAD TIMESTAMP LT ISZERO PUSH2 0x1207 JUMPI PUSH1 0x40 MLOAD PUSH3 0x461BCD PUSH1 0xE5 SHL DUP2 MSTORE PUSH1 0x20 PUSH1 0x4 DUP3 ADD MSTORE PUSH1 0x9 PUSH1 0x24 DUP3 ADD MSTORE PUSH9 0x546F6F206561726C79 PUSH1 0xB8 SHL PUSH1 0x44 DUP3 ADD MSTORE PUSH1 0x64 ADD PUSH2 0x6DA JUMP JUMPDEST PUSH1 0x8 DUP2 ADD SLOAD PUSH2 0x100 SWAP1 DIV PUSH1 0xFF AND ISZERO DUP1 ISZERO PUSH2 0x122C JUMPI POP PUSH1 0x8 DUP2 ADD SLOAD PUSH3 0x10000 SWAP1 DIV PUSH1 0xFF AND ISZERO JUMPDEST PUSH2 0x1278 JUMPI PUSH1 0x40 MLOAD PUSH3 0x461BCD PUSH1 0xE5 SHL DUP2 MSTORE PUSH1 0x20 PUSH1 0x4 DUP3 ADD MSTORE PUSH1 0x1A PUSH1 0x24 DUP3 ADD MSTORE PUSH32 0x416C726561647920647261776E206F722063616E63656C6C6564000000000000 PUSH1 0x44 DUP3 ADD MSTORE PUSH1 0x64 ADD PUSH2 0x6DA JUMP JUMPDEST PUSH1 0x9 DUP2 ADD SLOAD PUSH2 0x12BB JUMPI PUSH1 0x40 MLOAD PUSH3 0x461BCD PUSH1 0xE5 SHL DUP2 MSTORE PUSH1 0x20 PUSH1 0x4 DUP3 ADD MSTORE PUSH1 0xF PUSH1 0x24 DUP3 ADD MSTORE PUSH15 0x4E6F207061727469636970616E7473 PUSH1 0x88 SHL PUSH1 0x44 DUP3 ADD MSTORE PUSH1 0x64 ADD PUSH2 0x6DA JUMP JUMPDEST PUSH1 0x9 SLOAD PUSH1 0x40 DUP1 MLOAD PUSH1 0xC0 DUP2 ADD DUP3 MSTORE PUSH1 0x6 SLOAD DUP2 MSTORE PUSH1 0x8 SLOAD PUSH1 0x20 DUP1 DUP4 ADD SWAP2 SWAP1 SWAP2 MSTORE PUSH1 0x7 SLOAD PUSH2 0xFFFF PUSH5 0x100000000 DUP3 DIV AND DUP4 DUP6 ADD MSTORE PUSH4 0xFFFFFFFF DUP1 DUP3 AND PUSH1 0x60 DUP6 ADD MSTORE PUSH7 0x1000000000000 SWAP1 SWAP2 DIV AND PUSH1 0x80 DUP4 ADD MSTORE DUP3 MLOAD SWAP1 DUP2 ADD SWAP1 SWAP3 MSTORE PUSH0 DUP1 DUP4 MSTORE SWAP3 PUSH1 0x1 PUSH1 0x1 PUSH1 0xA0 SHL SUB AND SWAP2 PUSH4 0x9B1C385E SWAP2 SWAP1 PUSH1 0xA0 DUP3 ADD SWAP1 PUSH2 0x1336 SWAP1 PUSH2 0x1CE2 JUMP JUMPDEST DUP2 MSTORE POP PUSH1 0x40 MLOAD DUP3 PUSH4 0xFFFFFFFF AND PUSH1 0xE0 SHL DUP2 MSTORE PUSH1 0x4 ADD PUSH2 0x1355 SWAP2 SWAP1 PUSH2 0x23D4 JUMP JUMPDEST PUSH1 0x20 PUSH1 0x40 MLOAD DUP1 DUP4 SUB DUP2 PUSH0 DUP8 GAS CALL ISZERO DUP1 ISZERO PUSH2 0x1371 JUMPI RETURNDATASIZE PUSH0 PUSH0 RETURNDATACOPY RETURNDATASIZE PUSH0 REVERT JUMPDEST POP POP POP POP PUSH1 0x40 MLOAD RETURNDATASIZE PUSH1 0x1F NOT PUSH1 0x1F DUP3 ADD AND DUP3 ADD DUP1 PUSH1 0x40 MSTORE POP DUP2 ADD SWAP1 PUSH2 0x1395 SWAP2 SWAP1 PUSH2 0x2438 JUMP JUMPDEST PUSH0 DUP2 DUP2 MSTORE PUSH1 0xA PUSH1 0x20 MSTORE PUSH1 0x40 SWAP1 DUP2 SWAP1 KECCAK256 DUP6 SWAP1 SSTORE PUSH1 0x8 DUP5 ADD DUP1 SLOAD PUSH2 0xFF00 NOT AND PUSH2 0x100 OR SWAP1 SSTORE MLOAD SWAP1 SWAP2 POP PUSH32 0x600253EAE67A5C51C82A7123372E8644F16009C6304E18F844CF86FDC40C24D7 SWAP1 PUSH2 0x13F4 SWAP1 DUP6 SWAP1 DUP5 SWAP1 SWAP2 DUP3 MSTORE PUSH1 0x20 DUP3 ADD MSTORE PUSH1 0x40 ADD SWAP1 JUMP JUMPDEST PUSH1 0x40 MLOAD DUP1 SWAP2 SUB SWAP1 LOG1 POP POP POP JUMP JUMPDEST PUSH2 0x1409 PUSH2 0x1AD1 JUMP JUMPDEST PUSH2 0x1412 PUSH0 PUSH2 0x1D53 JUMP JUMPDEST JUMP JUMPDEST PUSH0 DUP2 DUP2 MSTORE PUSH1 0x2 PUSH1 0x20 SWAP1 DUP2 MSTORE PUSH1 0x40 DUP1 DUP4 KECCAK256 CALLER DUP5 MSTORE PUSH1 0xF DUP2 ADD SWAP1 SWAP3 MSTORE SWAP1 SWAP2 KECCAK256 SLOAD PUSH1 0xFF AND ISZERO PUSH2 0x1472 JUMPI PUSH1 0x40 MLOAD PUSH3 0x461BCD PUSH1 0xE5 SHL DUP2 MSTORE PUSH1 0x20 PUSH1 0x4 DUP3 ADD MSTORE PUSH1 0xD PUSH1 0x24 DUP3 ADD MSTORE PUSH13 0x105B1C9958591E481D9BDD1959 PUSH1 0x9A SHL PUSH1 0x44 DUP3 ADD MSTORE PUSH1 0x64 ADD PUSH2 0x6DA JUMP JUMPDEST CALLER PUSH0 SWAP1 DUP2 MSTORE PUSH1 0xC DUP3 ADD PUSH1 0x20 MSTORE PUSH1 0x40 SWAP1 KECCAK256 SLOAD PUSH2 0x14C0 JUMPI PUSH1 0x40 MLOAD PUSH3 0x461BCD PUSH1 0xE5 SHL DUP2 MSTORE PUSH1 0x20 PUSH1 0x4 DUP3 ADD MSTORE PUSH1 0xE PUSH1 0x24 DUP3 ADD MSTORE PUSH14 0x4E6F7420696E206C6F7474657279 PUSH1 0x90 SHL PUSH1 0x44 DUP3 ADD MSTORE PUSH1 0x64 ADD PUSH2 0x6DA JUMP JUMPDEST CALLER PUSH0 SWAP1 DUP2 MSTORE PUSH1 0xF DUP3 ADD PUSH1 0x20 MSTORE PUSH1 0x40 DUP2 KECCAK256 DUP1 SLOAD PUSH1 0xFF NOT AND PUSH1 0x1 OR SWAP1 SSTORE PUSH1 0xB DUP3 ADD DUP1 SLOAD SWAP2 PUSH2 0x14EB DUP4 PUSH2 0x23A5 JUMP JUMPDEST SWAP1 SWAP2 SSTORE POP POP PUSH1 0x9 DUP2 ADD SLOAD PUSH2 0x1500 SWAP1 PUSH1 0x2 PUSH2 0x23BD JUMP JUMPDEST PUSH1 0xB DUP3 ADD SLOAD PUSH2 0x1510 SWAP1 PUSH1 0x3 PUSH2 0x23BD JUMP JUMPDEST LT PUSH2 0x6ED JUMPI PUSH1 0x8 DUP2 ADD DUP1 SLOAD PUSH3 0xFF0000 NOT AND PUSH3 0x10000 OR SWAP1 SSTORE PUSH1 0x40 MLOAD PUSH32 0xC3DAC690CF4C3AE8964F18B8F09F7F9A75D3962A8CBB7CD689DF2C291BB5B2DD SWAP1 PUSH2 0xF93 SWAP1 DUP5 DUP2 MSTORE PUSH1 0x20 ADD SWAP1 JUMP JUMPDEST PUSH2 0x1562 PUSH2 0x1AD1 JUMP JUMPDEST PUSH0 DUP2 DUP2 MSTORE PUSH1 0x2 PUSH1 0x20 DUP2 SWAP1 MSTORE PUSH1 0x40 DUP3 KECCAK256 DUP1 SLOAD PUSH1 0x1 PUSH1 0x1 PUSH1 0xA0 SHL SUB NOT AND DUP2 SSTORE PUSH1 0x1 DUP2 ADD DUP4 SWAP1 SSTORE SWAP1 DUP2 ADD DUP3 SWAP1 SSTORE PUSH1 0x3 DUP2 ADD DUP3 SWAP1 SSTORE PUSH1 0x4 DUP2 ADD DUP3 SWAP1 SSTORE PUSH1 0x5 DUP2 ADD DUP3 SWAP1 SSTORE PUSH1 0x6 DUP2 ADD DUP3 SWAP1 SSTORE PUSH1 0x7 DUP2 ADD DUP3 SWAP1 SSTORE PUSH1 0x8 DUP2 ADD DUP1 SLOAD PUSH3 0xFFFFFF NOT AND SWAP1 SSTORE SWAP1 PUSH2 0x15CB PUSH1 0x9 DUP4 ADD DUP3 PUSH2 0x1FDA JUMP JUMPDEST POP PUSH1 0xA DUP2 ADD DUP1 SLOAD PUSH1 0x1 PUSH1 0x1 PUSH1 0xA0 SHL SUB NOT AND SWAP1 SSTORE PUSH0 PUSH1 0xB SWAP1 SWAP2 ADD SSTORE POP JUMP JUMPDEST PUSH0 DUP2 DUP2 MSTORE PUSH1 0x2 PUSH1 0x20 SWAP1 DUP2 MSTORE PUSH1 0x40 SWAP2 DUP3 SWAP1 KECCAK256 PUSH1 0x9 ADD DUP1 SLOAD DUP4 MLOAD DUP2 DUP5 MUL DUP2 ADD DUP5 ADD SWAP1 SWAP5 MSTORE DUP1 DUP5 MSTORE PUSH1 0x60 SWAP4 SWAP3 DUP4 ADD DUP3 DUP3 DUP1 ISZERO PUSH2 0x1648 JUMPI PUSH1 0x20 MUL DUP3 ADD SWAP2 SWAP1 PUSH0 MSTORE PUSH1 0x20 PUSH0 KECCAK256 SWAP1 JUMPDEST DUP2 SLOAD PUSH1 0x1 PUSH1 0x1 PUSH1 0xA0 SHL SUB AND DUP2 MSTORE PUSH1 0x1 SWAP1 SWAP2 ADD SWAP1 PUSH1 0x20 ADD DUP1 DUP4 GT PUSH2 0x162A JUMPI JUMPDEST POP POP POP POP POP SWAP1 POP SWAP2 SWAP1 POP JUMP JUMPDEST PUSH2 0x165C PUSH2 0x1A7A JUMP JUMPDEST PUSH0 DUP2 DUP2 MSTORE PUSH1 0x2 PUSH1 0x20 MSTORE PUSH1 0x40 SWAP1 KECCAK256 PUSH1 0xA DUP2 ADD SLOAD PUSH1 0x1 PUSH1 0x1 PUSH1 0xA0 SHL SUB AND CALLER EQ PUSH2 0x16B2 JUMPI PUSH1 0x40 MLOAD PUSH3 0x461BCD PUSH1 0xE5 SHL DUP2 MSTORE PUSH1 0x20 PUSH1 0x4 DUP3 ADD MSTORE PUSH1 0xA PUSH1 0x24 DUP3 ADD MSTORE PUSH10 0x2737BA103BB4B73732B9 PUSH1 0xB1 SHL PUSH1 0x44 DUP3 ADD MSTORE PUSH1 0x64 ADD PUSH2 0x6DA JUMP JUMPDEST CALLER PUSH0 SWAP1 DUP2 MSTORE PUSH1 0xD DUP3 ADD PUSH1 0x20 MSTORE PUSH1 0x40 SWAP1 KECCAK256 SLOAD PUSH1 0xFF AND ISZERO PUSH2 0x1705 JUMPI PUSH1 0x40 MLOAD PUSH3 0x461BCD PUSH1 0xE5 SHL DUP2 MSTORE PUSH1 0x20 PUSH1 0x4 DUP3 ADD MSTORE PUSH1 0xF PUSH1 0x24 DUP3 ADD MSTORE PUSH15 0x105B1C9958591E4818DB185A5B5959 PUSH1 0x8A SHL PUSH1 0x44 DUP3 ADD MSTORE PUSH1 0x64 ADD PUSH2 0x6DA JUMP JUMPDEST CALLER PUSH0 DUP2 DUP2 MSTORE PUSH1 0xD DUP4 ADD PUSH1 0x20 MSTORE PUSH1 0x40 SWAP1 DUP2 SWAP1 KECCAK256 DUP1 SLOAD PUSH1 0xFF NOT AND PUSH1 0x1 OR SWAP1 SSTORE DUP3 SLOAD PUSH1 0x5 DUP5 ADD SLOAD SWAP2 MLOAD PUSH4 0xA9059CBB PUSH1 0xE0 SHL DUP2 MSTORE PUSH1 0x4 DUP2 ADD SWAP4 SWAP1 SWAP4 MSTORE PUSH1 0x24 DUP4 ADD SWAP2 SWAP1 SWAP2 MSTORE PUSH1 0x1 PUSH1 0x1 PUSH1 0xA0 SHL SUB AND SWAP1 PUSH4 0xA9059CBB SWAP1 PUSH1 0x44 ADD PUSH1 0x20 PUSH1 0x40 MLOAD DUP1 DUP4 SUB DUP2 PUSH0 DUP8 GAS CALL ISZERO DUP1 ISZERO PUSH2 0x1774 JUMPI RETURNDATASIZE PUSH0 PUSH0 RETURNDATACOPY RETURNDATASIZE PUSH0 REVERT JUMPDEST POP POP POP POP PUSH1 0x40 MLOAD RETURNDATASIZE PUSH1 0x1F NOT PUSH1 0x1F DUP3 ADD AND DUP3 ADD DUP1 PUSH1 0x40 MSTORE POP DUP2 ADD SWAP1 PUSH2 0x1798 SWAP2 SWAP1 PUSH2 0x2386 JUMP JUMPDEST POP POP PUSH2 0xD83 PUSH1 0x1 PUSH0 SSTORE JUMP JUMPDEST PUSH2 0x17AB PUSH2 0x1AD1 JUMP JUMPDEST PUSH1 0x1 PUSH1 0x1 PUSH1 0xA0 SHL SUB DUP2 AND PUSH2 0x17D4 JUMPI PUSH1 0x40 MLOAD PUSH4 0x1E4FBDF7 PUSH1 0xE0 SHL DUP2 MSTORE PUSH0 PUSH1 0x4 DUP3 ADD MSTORE PUSH1 0x24 ADD PUSH2 0x6DA JUMP JUMPDEST PUSH2 0xD83 DUP2 PUSH2 0x1D53 JUMP JUMPDEST PUSH0 DUP3 DUP2 MSTORE PUSH1 0xA PUSH1 0x20 SWAP1 DUP2 MSTORE PUSH1 0x40 DUP1 DUP4 KECCAK256 SLOAD DUP1 DUP5 MSTORE PUSH1 0x2 SWAP1 SWAP3 MSTORE SWAP1 SWAP2 KECCAK256 PUSH1 0x8 DUP2 ADD SLOAD PUSH2 0x100 SWAP1 DIV PUSH1 0xFF AND DUP1 ISZERO PUSH2 0x181D JUMPI POP PUSH1 0xA DUP2 ADD SLOAD PUSH1 0x1 PUSH1 0x1 PUSH1 0xA0 SHL SUB AND ISZERO JUMPDEST PUSH2 0x185D JUMPI PUSH1 0x40 MLOAD PUSH3 0x461BCD PUSH1 0xE5 SHL DUP2 MSTORE PUSH1 0x20 PUSH1 0x4 DUP3 ADD MSTORE PUSH1 0x11 PUSH1 0x24 DUP3 ADD MSTORE PUSH17 0x105B1C9958591E48199D5B199A5B1B1959 PUSH1 0x7A SHL PUSH1 0x44 DUP3 ADD MSTORE PUSH1 0x64 ADD PUSH2 0x6DA JUMP JUMPDEST PUSH0 DUP2 PUSH1 0x9 ADD DUP1 SLOAD SWAP1 POP DUP5 PUSH0 DUP2 MLOAD DUP2 LT PUSH2 0x1878 JUMPI PUSH2 0x1878 PUSH2 0x244F JUMP JUMPDEST PUSH1 0x20 MUL PUSH1 0x20 ADD ADD MLOAD PUSH2 0x188A SWAP2 SWAP1 PUSH2 0x2463 JUMP JUMPDEST SWAP1 POP DUP2 PUSH1 0x9 ADD DUP2 DUP2 SLOAD DUP2 LT PUSH2 0x18A1 JUMPI PUSH2 0x18A1 PUSH2 0x244F JUMP JUMPDEST PUSH0 SWAP2 DUP3 MSTORE PUSH1 0x20 SWAP1 SWAP2 KECCAK256 ADD SLOAD PUSH1 0xA DUP4 ADD DUP1 SLOAD PUSH1 0x1 PUSH1 0x1 PUSH1 0xA0 SHL SUB NOT AND PUSH1 0x1 PUSH1 0x1 PUSH1 0xA0 SHL SUB SWAP3 DUP4 AND OR SWAP1 SSTORE DUP3 SLOAD PUSH1 0x4 DUP1 SLOAD PUSH1 0x6 DUP7 ADD SLOAD PUSH1 0x40 MLOAD PUSH4 0xA9059CBB PUSH1 0xE0 SHL DUP2 MSTORE SWAP2 DUP6 AND SWAP3 DUP3 ADD SWAP3 SWAP1 SWAP3 MSTORE PUSH1 0x24 DUP2 ADD SWAP2 SWAP1 SWAP2 MSTORE SWAP2 AND SWAP1 DUP2 SWAP1 PUSH4 0xA9059CBB SWAP1 PUSH1 0x44 ADD PUSH1 0x20 PUSH1 0x40 MLOAD DUP1 DUP4 SUB DUP2 PUSH0 DUP8 GAS CALL ISZERO DUP1 ISZERO PUSH2 0x191E JUMPI RETURNDATASIZE PUSH0 PUSH0 RETURNDATACOPY RETURNDATASIZE PUSH0 REVERT JUMPDEST POP POP POP POP PUSH1 0x40 MLOAD RETURNDATASIZE PUSH1 0x1F NOT PUSH1 0x1F DUP3 ADD AND DUP3 ADD DUP1 PUSH1 0x40 MSTORE POP DUP2 ADD SWAP1 PUSH2 0x1942 SWAP2 SWAP1 PUSH2 0x2386 JUMP JUMPDEST POP PUSH1 0x5 SLOAD PUSH1 0x7 DUP5 ADD SLOAD PUSH1 0x40 MLOAD PUSH4 0xA9059CBB PUSH1 0xE0 SHL DUP2 MSTORE PUSH1 0x1 PUSH1 0x1 PUSH1 0xA0 SHL SUB SWAP3 DUP4 AND PUSH1 0x4 DUP3 ADD MSTORE PUSH1 0x24 DUP2 ADD SWAP2 SWAP1 SWAP2 MSTORE SWAP1 DUP3 AND SWAP1 PUSH4 0xA9059CBB SWAP1 PUSH1 0x44 ADD PUSH1 0x20 PUSH1 0x40 MLOAD DUP1 DUP4 SUB DUP2 PUSH0 DUP8 GAS CALL ISZERO DUP1 ISZERO PUSH2 0x1999 JUMPI RETURNDATASIZE PUSH0 PUSH0 RETURNDATACOPY RETURNDATASIZE PUSH0 REVERT JUMPDEST POP POP POP POP PUSH1 0x40 MLOAD RETURNDATASIZE PUSH1 0x1F NOT PUSH1 0x1F DUP3 ADD AND DUP3 ADD DUP1 PUSH1 0x40 MSTORE POP DUP2 ADD SWAP1 PUSH2 0x19BD SWAP2 SWAP1 PUSH2 0x2386 JUMP JUMPDEST POP PUSH1 0xA DUP4 ADD SLOAD PUSH1 0x40 DUP1 MLOAD DUP7 DUP2 MSTORE PUSH1 0x1 PUSH1 0x1 PUSH1 0xA0 SHL SUB SWAP1 SWAP3 AND PUSH1 0x20 DUP4 ADD MSTORE PUSH32 0x3FB57EB449654E24E1B240D3D06702CF79362A065D5C0323AEE642D4702FA4B SWAP2 ADD PUSH1 0x40 MLOAD DUP1 SWAP2 SUB SWAP1 LOG1 POP POP POP POP POP POP JUMP JUMPDEST PUSH0 DUP1 PUSH32 0xF0C57E16840DF040F15088DC2F81FE391C3923BEC73E23A9662EFC9C229C6A00 JUMPDEST SWAP3 SWAP2 POP POP JUMP JUMPDEST PUSH2 0x1A3F PUSH2 0x1DC3 JUMP JUMPDEST PUSH2 0xD83 DUP2 PUSH2 0x1DE8 JUMP JUMPDEST PUSH2 0x1412 PUSH2 0x1DC3 JUMP JUMPDEST PUSH2 0x1A58 PUSH2 0x1DC3 JUMP JUMPDEST PUSH1 0x1 DUP1 SLOAD PUSH1 0x1 PUSH1 0x1 PUSH1 0xA0 SHL SUB NOT AND PUSH1 0x1 PUSH1 0x1 PUSH1 0xA0 SHL SUB SWAP3 SWAP1 SWAP3 AND SWAP2 SWAP1 SWAP2 OR SWAP1 SSTORE JUMP JUMPDEST PUSH1 0x2 PUSH0 SLOAD SUB PUSH2 0x1ACB JUMPI PUSH1 0x40 MLOAD PUSH3 0x461BCD PUSH1 0xE5 SHL DUP2 MSTORE PUSH1 0x20 PUSH1 0x4 DUP3 ADD MSTORE PUSH1 0x1F PUSH1 0x24 DUP3 ADD MSTORE PUSH32 0x5265656E7472616E637947756172643A207265656E7472616E742063616C6C00 PUSH1 0x44 DUP3 ADD MSTORE PUSH1 0x64 ADD PUSH2 0x6DA JUMP JUMPDEST PUSH1 0x2 PUSH0 SSTORE JUMP JUMPDEST CALLER PUSH2 0x1B03 PUSH32 0x9016D09D72D40FDAE2FD8CEAC6B6234C7706214FD39C1CD1E609A0528C199300 SLOAD PUSH1 0x1 PUSH1 0x1 PUSH1 0xA0 SHL SUB AND SWAP1 JUMP JUMPDEST PUSH1 0x1 PUSH1 0x1 PUSH1 0xA0 SHL SUB AND EQ PUSH2 0x1412 JUMPI PUSH1 0x40 MLOAD PUSH4 0x118CDAA7 PUSH1 0xE0 SHL DUP2 MSTORE CALLER PUSH1 0x4 DUP3 ADD MSTORE PUSH1 0x24 ADD PUSH2 0x6DA JUMP JUMPDEST ADDRESS PUSH1 0x1 PUSH1 0x1 PUSH1 0xA0 SHL SUB PUSH32 0x0 AND EQ DUP1 PUSH2 0x1BB2 JUMPI POP PUSH32 0x0 PUSH1 0x1 PUSH1 0x1 PUSH1 0xA0 SHL SUB AND PUSH2 0x1BA6 PUSH0 MLOAD PUSH1 0x20 PUSH2 0x2499 PUSH0 CODECOPY PUSH0 MLOAD SWAP1 PUSH0 MSTORE SLOAD PUSH1 0x1 PUSH1 0x1 PUSH1 0xA0 SHL SUB AND SWAP1 JUMP JUMPDEST PUSH1 0x1 PUSH1 0x1 PUSH1 0xA0 SHL SUB AND EQ ISZERO JUMPDEST ISZERO PUSH2 0x1412 JUMPI PUSH1 0x40 MLOAD PUSH4 0x703E46DD PUSH1 0xE1 SHL DUP2 MSTORE PUSH1 0x4 ADD PUSH1 0x40 MLOAD DUP1 SWAP2 SUB SWAP1 REVERT JUMPDEST PUSH2 0xD83 PUSH2 0x1AD1 JUMP JUMPDEST DUP2 PUSH1 0x1 PUSH1 0x1 PUSH1 0xA0 SHL SUB AND PUSH4 0x52D1902D PUSH1 0x40 MLOAD DUP2 PUSH4 0xFFFFFFFF AND PUSH1 0xE0 SHL DUP2 MSTORE PUSH1 0x4 ADD PUSH1 0x20 PUSH1 0x40 MLOAD DUP1 DUP4 SUB DUP2 DUP7 GAS STATICCALL SWAP3 POP POP POP DUP1 ISZERO PUSH2 0x1C32 JUMPI POP PUSH1 0x40 DUP1 MLOAD PUSH1 0x1F RETURNDATASIZE SWAP1 DUP2 ADD PUSH1 0x1F NOT AND DUP3 ADD SWAP1 SWAP3 MSTORE PUSH2 0x1C2F SWAP2 DUP2 ADD SWAP1 PUSH2 0x2438 JUMP JUMPDEST PUSH1 0x1 JUMPDEST PUSH2 0x1C5A JUMPI PUSH1 0x40 MLOAD PUSH4 0x4C9C8CE3 PUSH1 0xE0 SHL DUP2 MSTORE PUSH1 0x1 PUSH1 0x1 PUSH1 0xA0 SHL SUB DUP4 AND PUSH1 0x4 DUP3 ADD MSTORE PUSH1 0x24 ADD PUSH2 0x6DA JUMP JUMPDEST PUSH0 MLOAD PUSH1 0x20 PUSH2 0x2499 PUSH0 CODECOPY PUSH0 MLOAD SWAP1 PUSH0 MSTORE DUP2 EQ PUSH2 0x1C8A JUMPI PUSH1 0x40 MLOAD PUSH4 0x2A875269 PUSH1 0xE2 SHL DUP2 MSTORE PUSH1 0x4 DUP2 ADD DUP3 SWAP1 MSTORE PUSH1 0x24 ADD PUSH2 0x6DA JUMP JUMPDEST PUSH2 0x1C94 DUP4 DUP4 PUSH2 0x1DF0 JUMP JUMPDEST POP POP POP JUMP JUMPDEST ADDRESS PUSH1 0x1 PUSH1 0x1 PUSH1 0xA0 SHL SUB PUSH32 0x0 AND EQ PUSH2 0x1412 JUMPI PUSH1 0x40 MLOAD PUSH4 0x703E46DD PUSH1 0xE1 SHL DUP2 MSTORE PUSH1 0x4 ADD PUSH1 0x40 MLOAD DUP1 SWAP2 SUB SWAP1 REVERT JUMPDEST PUSH1 0x60 PUSH32 0x92FD13387C7FE7BEFBC38D303D6468778FB9731BC4583F17D92989C6FCFDEAAA DUP3 PUSH1 0x40 MLOAD PUSH1 0x24 ADD PUSH2 0x1D1B SWAP2 MLOAD ISZERO ISZERO DUP2 MSTORE PUSH1 0x20 ADD SWAP1 JUMP JUMPDEST PUSH1 0x40 DUP1 MLOAD PUSH1 0x1F NOT DUP2 DUP5 SUB ADD DUP2 MSTORE SWAP2 SWAP1 MSTORE PUSH1 0x20 DUP2 ADD DUP1 MLOAD PUSH1 0x1 PUSH1 0x1 PUSH1 0xE0 SHL SUB AND PUSH1 0x1 PUSH1 0x1 PUSH1 0xE0 SHL SUB NOT SWAP1 SWAP4 AND SWAP3 SWAP1 SWAP3 OR SWAP1 SWAP2 MSTORE SWAP3 SWAP2 POP POP JUMP JUMPDEST PUSH32 0x9016D09D72D40FDAE2FD8CEAC6B6234C7706214FD39C1CD1E609A0528C199300 DUP1 SLOAD PUSH1 0x1 PUSH1 0x1 PUSH1 0xA0 SHL SUB NOT DUP2 AND PUSH1 0x1 PUSH1 0x1 PUSH1 0xA0 SHL SUB DUP5 DUP2 AND SWAP2 DUP3 OR DUP5 SSTORE PUSH1 0x40 MLOAD SWAP3 AND SWAP2 DUP3 SWAP1 PUSH32 0x8BE0079C531659141344CD1FD0A4F28419497F9722A3DAAFE3B4186F6B6457E0 SWAP1 PUSH0 SWAP1 LOG3 POP POP POP JUMP JUMPDEST PUSH2 0x1DCB PUSH2 0x1E45 JUMP JUMPDEST PUSH2 0x1412 JUMPI PUSH1 0x40 MLOAD PUSH4 0x1AFCD79F PUSH1 0xE3 SHL DUP2 MSTORE PUSH1 0x4 ADD PUSH1 0x40 MLOAD DUP1 SWAP2 SUB SWAP1 REVERT JUMPDEST PUSH2 0x17AB PUSH2 0x1DC3 JUMP JUMPDEST PUSH2 0x1DF9 DUP3 PUSH2 0x1E5E JUMP JUMPDEST PUSH1 0x40 MLOAD PUSH1 0x1 PUSH1 0x1 PUSH1 0xA0 SHL SUB DUP4 AND SWAP1 PUSH32 0xBC7CD75A20EE27FD9ADEBAB32041F755214DBC6BFFA90CC0225B39DA2E5C2D3B SWAP1 PUSH0 SWAP1 LOG2 DUP1 MLOAD ISZERO PUSH2 0x1E3D JUMPI PUSH2 0x1C94 DUP3 DUP3 PUSH2 0x1EC1 JUMP JUMPDEST PUSH2 0x6ED PUSH2 0x1F33 JUMP JUMPDEST PUSH0 PUSH2 0x1E4E PUSH2 0x1A0D JUMP JUMPDEST SLOAD PUSH1 0x1 PUSH1 0x40 SHL SWAP1 DIV PUSH1 0xFF AND SWAP2 SWAP1 POP JUMP JUMPDEST DUP1 PUSH1 0x1 PUSH1 0x1 PUSH1 0xA0 SHL SUB AND EXTCODESIZE PUSH0 SUB PUSH2 0x1E93 JUMPI PUSH1 0x40 MLOAD PUSH4 0x4C9C8CE3 PUSH1 0xE0 SHL DUP2 MSTORE PUSH1 0x1 PUSH1 0x1 PUSH1 0xA0 SHL SUB DUP3 AND PUSH1 0x4 DUP3 ADD MSTORE PUSH1 0x24 ADD PUSH2 0x6DA JUMP JUMPDEST PUSH0 MLOAD PUSH1 0x20 PUSH2 0x2499 PUSH0 CODECOPY PUSH0 MLOAD SWAP1 PUSH0 MSTORE DUP1 SLOAD PUSH1 0x1 PUSH1 0x1 PUSH1 0xA0 SHL SUB NOT AND PUSH1 0x1 PUSH1 0x1 PUSH1 0xA0 SHL SUB SWAP3 SWAP1 SWAP3 AND SWAP2 SWAP1 SWAP2 OR SWAP1 SSTORE JUMP JUMPDEST PUSH1 0x60 PUSH0 PUSH0 DUP5 PUSH1 0x1 PUSH1 0x1 PUSH1 0xA0 SHL SUB AND DUP5 PUSH1 0x40 MLOAD PUSH2 0x1EDD SWAP2 SWAP1 PUSH2 0x2482 JUMP JUMPDEST PUSH0 PUSH1 0x40 MLOAD DUP1 DUP4 SUB DUP2 DUP6 GAS DELEGATECALL SWAP2 POP POP RETURNDATASIZE DUP1 PUSH0 DUP2 EQ PUSH2 0x1F15 JUMPI PUSH1 0x40 MLOAD SWAP2 POP PUSH1 0x1F NOT PUSH1 0x3F RETURNDATASIZE ADD AND DUP3 ADD PUSH1 0x40 MSTORE RETURNDATASIZE DUP3 MSTORE RETURNDATASIZE PUSH0 PUSH1 0x20 DUP5 ADD RETURNDATACOPY PUSH2 0x1F1A JUMP JUMPDEST PUSH1 0x60 SWAP2 POP JUMPDEST POP SWAP2 POP SWAP2 POP PUSH2 0x1F2A DUP6 DUP4 DUP4 PUSH2 0x1F52 JUMP JUMPDEST SWAP6 SWAP5 POP POP POP POP POP JUMP JUMPDEST CALLVALUE ISZERO PUSH2 0x1412 JUMPI PUSH1 0x40 MLOAD PUSH4 0xB398979F PUSH1 0xE0 SHL DUP2 MSTORE PUSH1 0x4 ADD PUSH1 0x40 MLOAD DUP1 SWAP2 SUB SWAP1 REVERT JUMPDEST PUSH1 0x60 DUP3 PUSH2 0x1F67 JUMPI PUSH2 0x1F62 DUP3 PUSH2 0x1FB1 JUMP JUMPDEST PUSH2 0x1FAA JUMP JUMPDEST DUP2 MLOAD ISZERO DUP1 ISZERO PUSH2 0x1F7E JUMPI POP PUSH1 0x1 PUSH1 0x1 PUSH1 0xA0 SHL SUB DUP5 AND EXTCODESIZE ISZERO JUMPDEST ISZERO PUSH2 0x1FA7 JUMPI PUSH1 0x40 MLOAD PUSH4 0x9996B315 PUSH1 0xE0 SHL DUP2 MSTORE PUSH1 0x1 PUSH1 0x1 PUSH1 0xA0 SHL SUB DUP6 AND PUSH1 0x4 DUP3 ADD MSTORE PUSH1 0x24 ADD PUSH2 0x6DA JUMP JUMPDEST POP DUP1 JUMPDEST SWAP4 SWAP3 POP POP POP JUMP JUMPDEST DUP1 MLOAD ISZERO PUSH2 0x1FC1 JUMPI DUP1 MLOAD DUP1 DUP3 PUSH1 0x20 ADD REVERT JUMPDEST PUSH1 0x40 MLOAD PUSH4 0xD6BDA275 PUSH1 0xE0 SHL DUP2 MSTORE PUSH1 0x4 ADD PUSH1 0x40 MLOAD DUP1 SWAP2 SUB SWAP1 REVERT JUMPDEST POP DUP1 SLOAD PUSH0 DUP3 SSTORE SWAP1 PUSH0 MSTORE PUSH1 0x20 PUSH0 KECCAK256 SWAP1 DUP2 ADD SWAP1 PUSH2 0xD83 SWAP2 SWAP1 JUMPDEST DUP1 DUP3 GT ISZERO PUSH2 0x2004 JUMPI PUSH0 DUP2 SSTORE PUSH1 0x1 ADD PUSH2 0x1FF1 JUMP JUMPDEST POP SWAP1 JUMP JUMPDEST PUSH0 PUSH1 0x20 DUP3 DUP5 SUB SLT ISZERO PUSH2 0x2018 JUMPI PUSH0 PUSH0 REVERT JUMPDEST POP CALLDATALOAD SWAP2 SWAP1 POP JUMP JUMPDEST PUSH4 0x4E487B71 PUSH1 0xE0 SHL PUSH0 MSTORE PUSH1 0x41 PUSH1 0x4 MSTORE PUSH1 0x24 PUSH0 REVERT JUMPDEST PUSH1 0x40 MLOAD PUSH1 0x1F DUP3 ADD PUSH1 0x1F NOT AND DUP2 ADD PUSH8 0xFFFFFFFFFFFFFFFF DUP2 GT DUP3 DUP3 LT OR ISZERO PUSH2 0x205C JUMPI PUSH2 0x205C PUSH2 0x201F JUMP JUMPDEST PUSH1 0x40 MSTORE SWAP2 SWAP1 POP JUMP JUMPDEST PUSH0 PUSH0 PUSH1 0x40 DUP4 DUP6 SUB SLT ISZERO PUSH2 0x2075 JUMPI PUSH0 PUSH0 REVERT JUMPDEST DUP3 CALLDATALOAD SWAP2 POP PUSH1 0x20 DUP4 ADD CALLDATALOAD PUSH8 0xFFFFFFFFFFFFFFFF DUP2 GT ISZERO PUSH2 0x2092 JUMPI PUSH0 PUSH0 REVERT JUMPDEST DUP4 ADD PUSH1 0x1F DUP2 ADD DUP6 SGT PUSH2 0x20A2 JUMPI PUSH0 PUSH0 REVERT JUMPDEST DUP1 CALLDATALOAD PUSH8 0xFFFFFFFFFFFFFFFF DUP2 GT ISZERO PUSH2 0x20BC JUMPI PUSH2 0x20BC PUSH2 0x201F JUMP JUMPDEST DUP1 PUSH1 0x5 SHL PUSH2 0x20CC PUSH1 0x20 DUP3 ADD PUSH2 0x2033 JUMP JUMPDEST SWAP2 DUP3 MSTORE PUSH1 0x20 DUP2 DUP5 ADD DUP2 ADD SWAP3 SWAP1 DUP2 ADD SWAP1 DUP9 DUP5 GT ISZERO PUSH2 0x20E7 JUMPI PUSH0 PUSH0 REVERT JUMPDEST PUSH1 0x20 DUP6 ADD SWAP5 POP JUMPDEST DUP4 DUP6 LT ISZERO PUSH2 0x210D JUMPI DUP5 CALLDATALOAD DUP1 DUP4 MSTORE PUSH1 0x20 SWAP6 DUP7 ADD SWAP6 SWAP1 SWAP4 POP SWAP1 SWAP2 ADD SWAP1 PUSH2 0x20EE JUMP JUMPDEST DUP1 SWAP6 POP POP POP POP POP POP SWAP3 POP SWAP3 SWAP1 POP JUMP JUMPDEST DUP1 CALLDATALOAD PUSH1 0x1 PUSH1 0x1 PUSH1 0xA0 SHL SUB DUP2 AND DUP2 EQ PUSH2 0x2132 JUMPI PUSH0 PUSH0 REVERT JUMPDEST SWAP2 SWAP1 POP JUMP JUMPDEST PUSH0 PUSH0 PUSH0 PUSH0 PUSH0 PUSH1 0xA0 DUP7 DUP9 SUB SLT ISZERO PUSH2 0x214B JUMPI PUSH0 PUSH0 REVERT JUMPDEST PUSH2 0x2154 DUP7 PUSH2 0x211C JUMP JUMPDEST SWAP5 POP PUSH1 0x20 DUP7 ADD CALLDATALOAD SWAP4 POP PUSH1 0x40 DUP7 ADD CALLDATALOAD PUSH8 0xFFFFFFFFFFFFFFFF DUP2 AND DUP2 EQ PUSH2 0x2177 JUMPI PUSH0 PUSH0 REVERT JUMPDEST SWAP3 POP PUSH2 0x2185 PUSH1 0x60 DUP8 ADD PUSH2 0x211C JUMP JUMPDEST SWAP2 POP PUSH2 0x2193 PUSH1 0x80 DUP8 ADD PUSH2 0x211C JUMP JUMPDEST SWAP1 POP SWAP3 SWAP6 POP SWAP3 SWAP6 SWAP1 SWAP4 POP JUMP JUMPDEST PUSH0 PUSH0 PUSH1 0x40 DUP4 DUP6 SUB SLT ISZERO PUSH2 0x21B0 JUMPI PUSH0 PUSH0 REVERT JUMPDEST POP POP DUP1 CALLDATALOAD SWAP3 PUSH1 0x20 SWAP1 SWAP2 ADD CALLDATALOAD SWAP2 POP JUMP JUMPDEST PUSH0 PUSH0 PUSH0 PUSH0 PUSH0 PUSH0 PUSH0 PUSH0 PUSH2 0x100 DUP10 DUP12 SUB SLT ISZERO PUSH2 0x21D7 JUMPI PUSH0 PUSH0 REVERT JUMPDEST PUSH2 0x21E0 DUP10 PUSH2 0x211C JUMP JUMPDEST SWAP11 PUSH1 0x20 DUP11 ADD CALLDATALOAD SWAP11 POP PUSH1 0x40 DUP11 ADD CALLDATALOAD SWAP10 PUSH1 0x60 DUP2 ADD CALLDATALOAD SWAP10 POP PUSH1 0x80 DUP2 ADD CALLDATALOAD SWAP9 POP PUSH1 0xA0 DUP2 ADD CALLDATALOAD SWAP8 POP PUSH1 0xC0 DUP2 ADD CALLDATALOAD SWAP7 POP PUSH1 0xE0 ADD CALLDATALOAD SWAP5 POP SWAP3 POP POP POP JUMP JUMPDEST PUSH0 PUSH0 PUSH1 0x40 DUP4 DUP6 SUB SLT ISZERO PUSH2 0x2227 JUMPI PUSH0 PUSH0 REVERT JUMPDEST PUSH2 0x2230 DUP4 PUSH2 0x211C JUMP JUMPDEST SWAP2 POP PUSH1 0x20 DUP4 ADD CALLDATALOAD PUSH8 0xFFFFFFFFFFFFFFFF DUP2 GT ISZERO PUSH2 0x224B JUMPI PUSH0 PUSH0 REVERT JUMPDEST DUP4 ADD PUSH1 0x1F DUP2 ADD DUP6 SGT PUSH2 0x225B JUMPI PUSH0 PUSH0 REVERT JUMPDEST DUP1 CALLDATALOAD PUSH8 0xFFFFFFFFFFFFFFFF DUP2 GT ISZERO PUSH2 0x2275 JUMPI PUSH2 0x2275 PUSH2 0x201F JUMP JUMPDEST PUSH2 0x2288 PUSH1 0x1F DUP3 ADD PUSH1 0x1F NOT AND PUSH1 0x20 ADD PUSH2 0x2033 JUMP JUMPDEST DUP2 DUP2 MSTORE DUP7 PUSH1 0x20 DUP4 DUP6 ADD ADD GT ISZERO PUSH2 0x229C JUMPI PUSH0 PUSH0 REVERT JUMPDEST DUP2 PUSH1 0x20 DUP5 ADD PUSH1 0x20 DUP4 ADD CALLDATACOPY PUSH0 PUSH1 0x20 DUP4 DUP4 ADD ADD MSTORE DUP1 SWAP4 POP POP POP POP SWAP3 POP SWAP3 SWAP1 POP JUMP JUMPDEST PUSH0 DUP2 MLOAD DUP1 DUP5 MSTORE DUP1 PUSH1 0x20 DUP5 ADD PUSH1 0x20 DUP7 ADD MCOPY PUSH0 PUSH1 0x20 DUP3 DUP7 ADD ADD MSTORE PUSH1 0x20 PUSH1 0x1F NOT PUSH1 0x1F DUP4 ADD AND DUP6 ADD ADD SWAP2 POP POP SWAP3 SWAP2 POP POP JUMP JUMPDEST PUSH1 0x20 DUP2 MSTORE PUSH0 PUSH2 0x1FAA PUSH1 0x20 DUP4 ADD DUP5 PUSH2 0x22BB JUMP JUMPDEST PUSH1 0x20 DUP1 DUP3 MSTORE DUP3 MLOAD DUP3 DUP3 ADD DUP2 SWAP1 MSTORE PUSH0 SWAP2 DUP5 ADD SWAP1 PUSH1 0x40 DUP5 ADD SWAP1 DUP4 JUMPDEST DUP2 DUP2 LT ISZERO PUSH2 0x233B JUMPI DUP4 MLOAD PUSH1 0x1 PUSH1 0x1 PUSH1 0xA0 SHL SUB AND DUP4 MSTORE PUSH1 0x20 SWAP4 DUP5 ADD SWAP4 SWAP1 SWAP3 ADD SWAP2 PUSH1 0x1 ADD PUSH2 0x2314 JUMP JUMPDEST POP SWAP1 SWAP6 SWAP5 POP POP POP POP POP JUMP JUMPDEST PUSH0 PUSH1 0x20 DUP3 DUP5 SUB SLT ISZERO PUSH2 0x2356 JUMPI PUSH0 PUSH0 REVERT JUMPDEST PUSH2 0x1FAA DUP3 PUSH2 0x211C JUMP JUMPDEST PUSH4 0x4E487B71 PUSH1 0xE0 SHL PUSH0 MSTORE PUSH1 0x11 PUSH1 0x4 MSTORE PUSH1 0x24 PUSH0 REVERT JUMPDEST DUP2 DUP2 SUB DUP2 DUP2 GT ISZERO PUSH2 0x1A31 JUMPI PUSH2 0x1A31 PUSH2 0x235F JUMP JUMPDEST PUSH0 PUSH1 0x20 DUP3 DUP5 SUB SLT ISZERO PUSH2 0x2396 JUMPI PUSH0 PUSH0 REVERT JUMPDEST DUP2 MLOAD DUP1 ISZERO ISZERO DUP2 EQ PUSH2 0x1FAA JUMPI PUSH0 PUSH0 REVERT JUMPDEST PUSH0 PUSH1 0x1 DUP3 ADD PUSH2 0x23B6 JUMPI PUSH2 0x23B6 PUSH2 0x235F JUMP JUMPDEST POP PUSH1 0x1 ADD SWAP1 JUMP JUMPDEST DUP1 DUP3 MUL DUP2 ISZERO DUP3 DUP3 DIV DUP5 EQ OR PUSH2 0x1A31 JUMPI PUSH2 0x1A31 PUSH2 0x235F JUMP JUMPDEST PUSH1 0x20 DUP2 MSTORE DUP2 MLOAD PUSH1 0x20 DUP3 ADD MSTORE PUSH1 0x20 DUP3 ADD MLOAD PUSH1 0x40 DUP3 ADD MSTORE PUSH2 0xFFFF PUSH1 0x40 DUP4 ADD MLOAD AND PUSH1 0x60 DUP3 ADD MSTORE PUSH4 0xFFFFFFFF PUSH1 0x60 DUP4 ADD MLOAD AND PUSH1 0x80 DUP3 ADD MSTORE PUSH4 0xFFFFFFFF PUSH1 0x80 DUP4 ADD MLOAD AND PUSH1 0xA0 DUP3 ADD MSTORE PUSH0 PUSH1 0xA0 DUP4 ADD MLOAD PUSH1 0xC0 DUP1 DUP5 ADD MSTORE PUSH2 0x2430 PUSH1 0xE0 DUP5 ADD DUP3 PUSH2 0x22BB JUMP JUMPDEST SWAP5 SWAP4 POP POP POP POP JUMP JUMPDEST PUSH0 PUSH1 0x20 DUP3 DUP5 SUB SLT ISZERO PUSH2 0x2448 JUMPI PUSH0 PUSH0 REVERT JUMPDEST POP MLOAD SWAP2 SWAP1 POP JUMP JUMPDEST PUSH4 0x4E487B71 PUSH1 0xE0 SHL PUSH0 MSTORE PUSH1 0x32 PUSH1 0x4 MSTORE PUSH1 0x24 PUSH0 REVERT JUMPDEST PUSH0 DUP3 PUSH2 0x247D JUMPI PUSH4 0x4E487B71 PUSH1 0xE0 SHL PUSH0 MSTORE PUSH1 0x12 PUSH1 0x4 MSTORE PUSH1 0x24 PUSH0 REVERT JUMPDEST POP MOD SWAP1 JUMP JUMPDEST PUSH0 DUP3 MLOAD DUP1 PUSH1 0x20 DUP6 ADD DUP5 MCOPY PUSH0 SWAP3 ADD SWAP2 DUP3 MSTORE POP SWAP2 SWAP1 POP JUMP INVALID CALLDATASIZE ADDMOD SWAP5 LOG1 EXTCODESIZE LOG1 LOG3 0x21 MOD PUSH8 0xC828492DB98DCA3E KECCAK256 PUSH23 0xCC3735A920A3CA505D382BBCA2646970667358221220AE SAR RETURNDATASIZE SWAP5 SWAP3 SWAP8 0xC7 0xDE 0xD6 GASPRICE CALLDATALOAD 0xFC TSTORE 0xAB GASLIMIT DUPN 0xB1 PUSH0 0xD9 SUB 0xBC 0x27 SSTORE PUSH31 0x1A5CEDE44EABE33964736F6C634300081E0033000000000000000000000000 "
				},
				"gasEstimates": {
					"creation": {
						"codeDepositCost": "1890800",
						"executionCost": "infinite",
						"totalCost": "infinite"
					},
					"external": {
						"UPGRADE_INTERFACE_VERSION()": "infinite",
						"callbackGasLimit()": "2402",
						"cancelLottery(uint256)": "32132",
						"claimPrize(uint256)": "infinite",
						"claimRefund(uint256)": "infinite",
						"clearLotteryData(uint256)": "infinite",
						"createLottery(address,uint256,uint256,uint256,uint256,uint256,uint256,uint256)": "233613",
						"drawWinner(uint256)": "infinite",
						"enterLottery(uint256)": "infinite",
						"getParticipants(uint256)": "infinite",
						"initialize(address,bytes32,uint64,address,address)": "infinite",
						"investmentWallet()": "2380",
						"keyHash()": "2373",
						"lotteries(uint256)": "24033",
						"lotteryCounter()": "2350",
						"migrateToLottery(uint256,uint256)": "infinite",
						"numWords()": "2390",
						"owner()": "2375",
						"profitWallet()": "2404",
						"proxiableUUID()": "infinite",
						"rawFulfillRandomWords(uint256,uint256[])": "infinite",
						"renounceOwnership()": "infinite",
						"requestConfirmations()": "2434",
						"requestToLottery(uint256)": "2515",
						"subscriptionId()": "2330",
						"transferOwnership(address)": "28475",
						"upgradeToAndCall(address,bytes)": "infinite",
						"voteCancel(uint256)": "infinite",
						"vrfCoordinator()": "2403"
					},
					"internal": {
						"_authorizeUpgrade(address)": "infinite",
						"fulfillRandomWords(uint256,uint256[] memory)": "infinite"
					}
				},
				"methodIdentifiers": {
					"UPGRADE_INTERFACE_VERSION()": "ad3cb1cc",
					"callbackGasLimit()": "24f74697",
					"cancelLottery(uint256)": "4538f297",
					"claimPrize(uint256)": "d7098154",
					"claimRefund(uint256)": "5b7baf64",
					"clearLotteryData(uint256)": "82f9d0fb",
					"createLottery(address,uint256,uint256,uint256,uint256,uint256,uint256,uint256)": "4311da37",
					"drawWinner(uint256)": "60b2a56a",
					"enterLottery(uint256)": "3fd43098",
					"getParticipants(uint256)": "c1e3bd3e",
					"initialize(address,bytes32,uint64,address,address)": "379c52a6",
					"investmentWallet()": "b6fa37bc",
					"keyHash()": "61728f39",
					"lotteries(uint256)": "1398e076",
					"lotteryCounter()": "4a4a6b4f",
					"migrateToLottery(uint256,uint256)": "3893f9d5",
					"numWords()": "7ccfd7fc",
					"owner()": "8da5cb5b",
					"profitWallet()": "2301d775",
					"proxiableUUID()": "52d1902d",
					"rawFulfillRandomWords(uint256,uint256[])": "1fe543e3",
					"renounceOwnership()": "715018a6",
					"requestConfirmations()": "b0fb162f",
					"requestToLottery(uint256)": "15c6e123",
					"subscriptionId()": "09c1ba2e",
					"transferOwnership(address)": "f2fde38b",
					"upgradeToAndCall(address,bytes)": "4f1ef286",
					"voteCancel(uint256)": "826d9873",
					"vrfCoordinator()": "a3e56fa8"
				}
			},
			"storageLayout": {
				"storage": [
					{
						"astId": 1185,
						"contract": "contracts/StemPayLotteryManager.sol:StemPayLotteryManager",
						"label": "_status",
						"offset": 0,
						"slot": "0",
						"type": "t_uint256"
					},
					{
						"astId": 1741,
						"contract": "contracts/StemPayLotteryManager.sol:StemPayLotteryManager",
						"label": "vrfCoordinator",
						"offset": 0,
						"slot": "1",
						"type": "t_address"
					},
					{
						"astId": 1849,
						"contract": "contracts/StemPayLotteryManager.sol:StemPayLotteryManager",
						"label": "lotteries",
						"offset": 0,
						"slot": "2",
						"type": "t_mapping(t_uint256,t_struct(Lottery)1844_storage)"
					},
					{
						"astId": 1851,
						"contract": "contracts/StemPayLotteryManager.sol:StemPayLotteryManager",
						"label": "lotteryCounter",
						"offset": 0,
						"slot": "3",
						"type": "t_uint256"
					},
					{
						"astId": 1853,
						"contract": "contracts/StemPayLotteryManager.sol:StemPayLotteryManager",
						"label": "investmentWallet",
						"offset": 0,
						"slot": "4",
						"type": "t_address"
					},
					{
						"astId": 1855,
						"contract": "contracts/StemPayLotteryManager.sol:StemPayLotteryManager",
						"label": "profitWallet",
						"offset": 0,
						"slot": "5",
						"type": "t_address"
					},
					{
						"astId": 1857,
						"contract": "contracts/StemPayLotteryManager.sol:StemPayLotteryManager",
						"label": "keyHash",
						"offset": 0,
						"slot": "6",
						"type": "t_bytes32"
					},
					{
						"astId": 1859,
						"contract": "contracts/StemPayLotteryManager.sol:StemPayLotteryManager",
						"label": "callbackGasLimit",
						"offset": 0,
						"slot": "7",
						"type": "t_uint32"
					},
					{
						"astId": 1861,
						"contract": "contracts/StemPayLotteryManager.sol:StemPayLotteryManager",
						"label": "requestConfirmations",
						"offset": 4,
						"slot": "7",
						"type": "t_uint16"
					},
					{
						"astId": 1863,
						"contract": "contracts/StemPayLotteryManager.sol:StemPayLotteryManager",
						"label": "numWords",
						"offset": 6,
						"slot": "7",
						"type": "t_uint32"
					},
					{
						"astId": 1865,
						"contract": "contracts/StemPayLotteryManager.sol:StemPayLotteryManager",
						"label": "subscriptionId",
						"offset": 0,
						"slot": "8",
						"type": "t_uint256"
					},
					{
						"astId": 1867,
						"contract": "contracts/StemPayLotteryManager.sol:StemPayLotteryManager",
						"label": "vrfCoordinator",
						"offset": 0,
						"slot": "9",
						"type": "t_address"
					},
					{
						"astId": 1871,
						"contract": "contracts/StemPayLotteryManager.sol:StemPayLotteryManager",
						"label": "requestToLottery",
						"offset": 0,
						"slot": "10",
						"type": "t_mapping(t_uint256,t_uint256)"
					}
				],
				"types": {
					"t_address": {
						"encoding": "inplace",
						"label": "address",
						"numberOfBytes": "20"
					},
					"t_array(t_address)dyn_storage": {
						"base": "t_address",
						"encoding": "dynamic_array",
						"label": "address[]",
						"numberOfBytes": "32"
					},
					"t_bool": {
						"encoding": "inplace",
						"label": "bool",
						"numberOfBytes": "1"
					},
					"t_bytes32": {
						"encoding": "inplace",
						"label": "bytes32",
						"numberOfBytes": "32"
					},
					"t_mapping(t_address,t_bool)": {
						"encoding": "mapping",
						"key": "t_address",
						"label": "mapping(address => bool)",
						"numberOfBytes": "32",
						"value": "t_bool"
					},
					"t_mapping(t_address,t_uint256)": {
						"encoding": "mapping",
						"key": "t_address",
						"label": "mapping(address => uint256)",
						"numberOfBytes": "32",
						"value": "t_uint256"
					},
					"t_mapping(t_uint256,t_struct(Lottery)1844_storage)": {
						"encoding": "mapping",
						"key": "t_uint256",
						"label": "mapping(uint256 => struct StemPayLotteryManager.Lottery)",
						"numberOfBytes": "32",
						"value": "t_struct(Lottery)1844_storage"
					},
					"t_mapping(t_uint256,t_uint256)": {
						"encoding": "mapping",
						"key": "t_uint256",
						"label": "mapping(uint256 => uint256)",
						"numberOfBytes": "32",
						"value": "t_uint256"
					},
					"t_struct(Lottery)1844_storage": {
						"encoding": "inplace",
						"label": "struct StemPayLotteryManager.Lottery",
						"members": [
							{
								"astId": 1800,
								"contract": "contracts/StemPayLotteryManager.sol:StemPayLotteryManager",
								"label": "tokenAddress",
								"offset": 0,
								"slot": "0",
								"type": "t_address"
							},
							{
								"astId": 1802,
								"contract": "contracts/StemPayLotteryManager.sol:StemPayLotteryManager",
								"label": "participationFee",
								"offset": 0,
								"slot": "1",
								"type": "t_uint256"
							},
							{
								"astId": 1804,
								"contract": "contracts/StemPayLotteryManager.sol:StemPayLotteryManager",
								"label": "refundableAmount",
								"offset": 0,
								"slot": "2",
								"type": "t_uint256"
							},
							{
								"astId": 1806,
								"contract": "contracts/StemPayLotteryManager.sol:StemPayLotteryManager",
								"label": "maxParticipants",
								"offset": 0,
								"slot": "3",
								"type": "t_uint256"
							},
							{
								"astId": 1808,
								"contract": "contracts/StemPayLotteryManager.sol:StemPayLotteryManager",
								"label": "drawTime",
								"offset": 0,
								"slot": "4",
								"type": "t_uint256"
							},
							{
								"astId": 1810,
								"contract": "contracts/StemPayLotteryManager.sol:StemPayLotteryManager",
								"label": "prizeAmount",
								"offset": 0,
								"slot": "5",
								"type": "t_uint256"
							},
							{
								"astId": 1812,
								"contract": "contracts/StemPayLotteryManager.sol:StemPayLotteryManager",
								"label": "feeToInvestment",
								"offset": 0,
								"slot": "6",
								"type": "t_uint256"
							},
							{
								"astId": 1814,
								"contract": "contracts/StemPayLotteryManager.sol:StemPayLotteryManager",
								"label": "feeToProfit",
								"offset": 0,
								"slot": "7",
								"type": "t_uint256"
							},
							{
								"astId": 1816,
								"contract": "contracts/StemPayLotteryManager.sol:StemPayLotteryManager",
								"label": "isActive",
								"offset": 0,
								"slot": "8",
								"type": "t_bool"
							},
							{
								"astId": 1818,
								"contract": "contracts/StemPayLotteryManager.sol:StemPayLotteryManager",
								"label": "isDrawn",
								"offset": 1,
								"slot": "8",
								"type": "t_bool"
							},
							{
								"astId": 1820,
								"contract": "contracts/StemPayLotteryManager.sol:StemPayLotteryManager",
								"label": "isCancelled",
								"offset": 2,
								"slot": "8",
								"type": "t_bool"
							},
							{
								"astId": 1823,
								"contract": "contracts/StemPayLotteryManager.sol:StemPayLotteryManager",
								"label": "participants",
								"offset": 0,
								"slot": "9",
								"type": "t_array(t_address)dyn_storage"
							},
							{
								"astId": 1825,
								"contract": "contracts/StemPayLotteryManager.sol:StemPayLotteryManager",
								"label": "winner",
								"offset": 0,
								"slot": "10",
								"type": "t_address"
							},
							{
								"astId": 1827,
								"contract": "contracts/StemPayLotteryManager.sol:StemPayLotteryManager",
								"label": "voteCount",
								"offset": 0,
								"slot": "11",
								"type": "t_uint256"
							},
							{
								"astId": 1831,
								"contract": "contracts/StemPayLotteryManager.sol:StemPayLotteryManager",
								"label": "entryCount",
								"offset": 0,
								"slot": "12",
								"type": "t_mapping(t_address,t_uint256)"
							},
							{
								"astId": 1835,
								"contract": "contracts/StemPayLotteryManager.sol:StemPayLotteryManager",
								"label": "hasClaimed",
								"offset": 0,
								"slot": "13",
								"type": "t_mapping(t_address,t_bool)"
							},
							{
								"astId": 1839,
								"contract": "contracts/StemPayLotteryManager.sol:StemPayLotteryManager",
								"label": "hasRefunded",
								"offset": 0,
								"slot": "14",
								"type": "t_mapping(t_address,t_bool)"
							},
							{
								"astId": 1843,
								"contract": "contracts/StemPayLotteryManager.sol:StemPayLotteryManager",
								"label": "hasVotedCancel",
								"offset": 0,
								"slot": "15",
								"type": "t_mapping(t_address,t_bool)"
							}
						],
						"numberOfBytes": "512"
					},
					"t_uint16": {
						"encoding": "inplace",
						"label": "uint16",
						"numberOfBytes": "2"
					},
					"t_uint256": {
						"encoding": "inplace",
						"label": "uint256",
						"numberOfBytes": "32"
					},
					"t_uint32": {
						"encoding": "inplace",
						"label": "uint32",
						"numberOfBytes": "4"
					}
				}
			},
			"userdoc": {
				"kind": "user",
				"methods": {},
				"version": 1
			}
		}
	}
}