{
	"contracts/StemPayLotteryManager.sol": {
		"StemPayLotteryManager": {
			"abi": [
				{
					"inputs": [
						{
							"internalType": "address",
							"name": "target",
							"type": "address"
						}
					],
					"name": "AddressEmptyCode",
					"type": "error"
				},
				{
					"inputs": [
						{
							"internalType": "address",
							"name": "implementation",
							"type": "address"
						}
					],
					"name": "ERC1967InvalidImplementation",
					"type": "error"
				},
				{
					"inputs": [],
					"name": "ERC1967NonPayable",
					"type": "error"
				},
				{
					"inputs": [],
					"name": "FailedCall",
					"type": "error"
				},
				{
					"inputs": [],
					"name": "InvalidInitialization",
					"type": "error"
				},
				{
					"inputs": [],
					"name": "NotInitializing",
					"type": "error"
				},
				{
					"inputs": [
						{
							"internalType": "address",
							"name": "have",
							"type": "address"
						},
						{
							"internalType": "address",
							"name": "want",
							"type": "address"
						}
					],
					"name": "OnlyCoordinatorCanFulfill",
					"type": "error"
				},
				{
					"inputs": [
						{
							"internalType": "address",
							"name": "owner",
							"type": "address"
						}
					],
					"name": "OwnableInvalidOwner",
					"type": "error"
				},
				{
					"inputs": [
						{
							"internalType": "address",
							"name": "account",
							"type": "address"
						}
					],
					"name": "OwnableUnauthorizedAccount",
					"type": "error"
				},
				{
					"inputs": [],
					"name": "UUPSUnauthorizedCallContext",
					"type": "error"
				},
				{
					"inputs": [
						{
							"internalType": "bytes32",
							"name": "slot",
							"type": "bytes32"
						}
					],
					"name": "UUPSUnsupportedProxiableUUID",
					"type": "error"
				},
				{
					"anonymous": false,
					"inputs": [
						{
							"indexed": false,
							"internalType": "uint256",
							"name": "lotteryId",
							"type": "uint256"
						},
						{
							"indexed": false,
							"internalType": "address",
							"name": "user",
							"type": "address"
						}
					],
					"name": "EnteredLottery",
					"type": "event"
				},
				{
					"anonymous": false,
					"inputs": [
						{
							"indexed": false,
							"internalType": "uint64",
							"name": "version",
							"type": "uint64"
						}
					],
					"name": "Initialized",
					"type": "event"
				},
				{
					"anonymous": false,
					"inputs": [
						{
							"indexed": false,
							"internalType": "uint256",
							"name": "lotteryId",
							"type": "uint256"
						}
					],
					"name": "LotteryCancelled",
					"type": "event"
				},
				{
					"anonymous": false,
					"inputs": [
						{
							"indexed": false,
							"internalType": "uint256",
							"name": "lotteryId",
							"type": "uint256"
						}
					],
					"name": "LotteryCreated",
					"type": "event"
				},
				{
					"anonymous": false,
					"inputs": [
						{
							"indexed": false,
							"internalType": "uint256",
							"name": "lotteryId",
							"type": "uint256"
						},
						{
							"indexed": false,
							"internalType": "uint256",
							"name": "requestId",
							"type": "uint256"
						}
					],
					"name": "LotteryDrawRequested",
					"type": "event"
				},
				{
					"anonymous": false,
					"inputs": [
						{
							"indexed": true,
							"internalType": "address",
							"name": "previousOwner",
							"type": "address"
						},
						{
							"indexed": true,
							"internalType": "address",
							"name": "newOwner",
							"type": "address"
						}
					],
					"name": "OwnershipTransferred",
					"type": "event"
				},
				{
					"anonymous": false,
					"inputs": [
						{
							"indexed": true,
							"internalType": "address",
							"name": "implementation",
							"type": "address"
						}
					],
					"name": "Upgraded",
					"type": "event"
				},
				{
					"anonymous": false,
					"inputs": [
						{
							"indexed": false,
							"internalType": "uint256",
							"name": "lotteryId",
							"type": "uint256"
						},
						{
							"indexed": false,
							"internalType": "address",
							"name": "winner",
							"type": "address"
						}
					],
					"name": "WinnerSelected",
					"type": "event"
				},
				{
					"inputs": [],
					"name": "UPGRADE_INTERFACE_VERSION",
					"outputs": [
						{
							"internalType": "string",
							"name": "",
							"type": "string"
						}
					],
					"stateMutability": "view",
					"type": "function"
				},
				{
					"inputs": [
						{
							"internalType": "uint256",
							"name": "",
							"type": "uint256"
						}
					],
					"name": "allLotteryIds",
					"outputs": [
						{
							"internalType": "uint256",
							"name": "",
							"type": "uint256"
						}
					],
					"stateMutability": "view",
					"type": "function"
				},
				{
					"inputs": [],
					"name": "callbackGasLimit",
					"outputs": [
						{
							"internalType": "uint32",
							"name": "",
							"type": "uint32"
						}
					],
					"stateMutability": "view",
					"type": "function"
				},
				{
					"inputs": [
						{
							"internalType": "uint256",
							"name": "_lotteryId",
							"type": "uint256"
						}
					],
					"name": "cancelLottery",
					"outputs": [],
					"stateMutability": "nonpayable",
					"type": "function"
				},
				{
					"inputs": [
						{
							"internalType": "uint256",
							"name": "_lotteryId",
							"type": "uint256"
						}
					],
					"name": "claimPrize",
					"outputs": [],
					"stateMutability": "nonpayable",
					"type": "function"
				},
				{
					"inputs": [
						{
							"internalType": "uint256",
							"name": "_lotteryId",
							"type": "uint256"
						}
					],
					"name": "claimRefund",
					"outputs": [],
					"stateMutability": "nonpayable",
					"type": "function"
				},
				{
					"inputs": [
						{
							"internalType": "uint256",
							"name": "_lotteryId",
							"type": "uint256"
						}
					],
					"name": "clearLotteryData",
					"outputs": [],
					"stateMutability": "nonpayable",
					"type": "function"
				},
				{
					"inputs": [
						{
							"internalType": "address",
							"name": "_tokenAddress",
							"type": "address"
						},
						{
							"internalType": "uint256",
							"name": "_participationFee",
							"type": "uint256"
						},
						{
							"internalType": "uint256",
							"name": "_refundableAmount",
							"type": "uint256"
						},
						{
							"internalType": "uint256",
							"name": "_maxParticipants",
							"type": "uint256"
						},
						{
							"internalType": "uint256",
							"name": "_drawTime",
							"type": "uint256"
						},
						{
							"internalType": "uint256",
							"name": "_prizeAmount",
							"type": "uint256"
						},
						{
							"internalType": "uint256",
							"name": "_feeToInvestment",
							"type": "uint256"
						},
						{
							"internalType": "uint256",
							"name": "_feeToProfit",
							"type": "uint256"
						}
					],
					"name": "createLottery",
					"outputs": [],
					"stateMutability": "nonpayable",
					"type": "function"
				},
				{
					"inputs": [
						{
							"internalType": "uint256",
							"name": "_lotteryId",
							"type": "uint256"
						}
					],
					"name": "drawWinner",
					"outputs": [],
					"stateMutability": "nonpayable",
					"type": "function"
				},
				{
					"inputs": [
						{
							"internalType": "uint256",
							"name": "_lotteryId",
							"type": "uint256"
						}
					],
					"name": "enterLottery",
					"outputs": [],
					"stateMutability": "nonpayable",
					"type": "function"
				},
				{
					"inputs": [],
					"name": "getActiveLotteries",
					"outputs": [
						{
							"internalType": "uint256[]",
							"name": "",
							"type": "uint256[]"
						}
					],
					"stateMutability": "view",
					"type": "function"
				},
				{
					"inputs": [],
					"name": "getAllLotteryIds",
					"outputs": [
						{
							"internalType": "uint256[]",
							"name": "",
							"type": "uint256[]"
						}
					],
					"stateMutability": "view",
					"type": "function"
				},
				{
					"inputs": [
						{
							"internalType": "uint256",
							"name": "lotteryId",
							"type": "uint256"
						},
						{
							"internalType": "address",
							"name": "user",
							"type": "address"
						}
					],
					"name": "getEntryCount",
					"outputs": [
						{
							"internalType": "uint256",
							"name": "",
							"type": "uint256"
						}
					],
					"stateMutability": "view",
					"type": "function"
				},
				{
					"inputs": [
						{
							"internalType": "uint256",
							"name": "_lotteryId",
							"type": "uint256"
						}
					],
					"name": "getLotteryInfo",
					"outputs": [
						{
							"components": [
								{
									"internalType": "address",
									"name": "tokenAddress",
									"type": "address"
								},
								{
									"internalType": "uint256",
									"name": "participationFee",
									"type": "uint256"
								},
								{
									"internalType": "uint256",
									"name": "refundableAmount",
									"type": "uint256"
								},
								{
									"internalType": "uint256",
									"name": "maxParticipants",
									"type": "uint256"
								},
								{
									"internalType": "uint256",
									"name": "drawTime",
									"type": "uint256"
								},
								{
									"internalType": "uint256",
									"name": "prizeAmount",
									"type": "uint256"
								},
								{
									"internalType": "uint256",
									"name": "feeToInvestment",
									"type": "uint256"
								},
								{
									"internalType": "uint256",
									"name": "feeToProfit",
									"type": "uint256"
								},
								{
									"internalType": "bool",
									"name": "isActive",
									"type": "bool"
								},
								{
									"internalType": "bool",
									"name": "isDrawn",
									"type": "bool"
								},
								{
									"internalType": "bool",
									"name": "isCancelled",
									"type": "bool"
								},
								{
									"internalType": "address",
									"name": "winner",
									"type": "address"
								},
								{
									"internalType": "uint256",
									"name": "voteCount",
									"type": "uint256"
								},
								{
									"internalType": "address[]",
									"name": "participants",
									"type": "address[]"
								}
							],
							"internalType": "struct StemPayLotteryManager.LotteryInfo",
							"name": "info",
							"type": "tuple"
						}
					],
					"stateMutability": "view",
					"type": "function"
				},
				{
					"inputs": [
						{
							"internalType": "uint256",
							"name": "_lotteryId",
							"type": "uint256"
						}
					],
					"name": "getParticipants",
					"outputs": [
						{
							"internalType": "address[]",
							"name": "",
							"type": "address[]"
						}
					],
					"stateMutability": "view",
					"type": "function"
				},
				{
					"inputs": [
						{
							"internalType": "uint256",
							"name": "lotteryId",
							"type": "uint256"
						},
						{
							"internalType": "address",
							"name": "user",
							"type": "address"
						}
					],
					"name": "getUserLotteryData",
					"outputs": [
						{
							"internalType": "uint256",
							"name": "entryCount",
							"type": "uint256"
						},
						{
							"internalType": "bool",
							"name": "hasClaimed",
							"type": "bool"
						},
						{
							"internalType": "bool",
							"name": "hasRefunded",
							"type": "bool"
						},
						{
							"internalType": "bool",
							"name": "hasVotedCancel",
							"type": "bool"
						}
					],
					"stateMutability": "view",
					"type": "function"
				},
				{
					"inputs": [
						{
							"internalType": "uint256",
							"name": "lotteryId",
							"type": "uint256"
						},
						{
							"internalType": "address",
							"name": "user",
							"type": "address"
						}
					],
					"name": "hasUserClaimed",
					"outputs": [
						{
							"internalType": "bool",
							"name": "",
							"type": "bool"
						}
					],
					"stateMutability": "view",
					"type": "function"
				},
				{
					"inputs": [
						{
							"internalType": "uint256",
							"name": "lotteryId",
							"type": "uint256"
						},
						{
							"internalType": "address",
							"name": "user",
							"type": "address"
						}
					],
					"name": "hasUserRefunded",
					"outputs": [
						{
							"internalType": "bool",
							"name": "",
							"type": "bool"
						}
					],
					"stateMutability": "view",
					"type": "function"
				},
				{
					"inputs": [
						{
							"internalType": "uint256",
							"name": "lotteryId",
							"type": "uint256"
						},
						{
							"internalType": "address",
							"name": "user",
							"type": "address"
						}
					],
					"name": "hasUserVotedCancel",
					"outputs": [
						{
							"internalType": "bool",
							"name": "",
							"type": "bool"
						}
					],
					"stateMutability": "view",
					"type": "function"
				},
				{
					"inputs": [
						{
							"internalType": "address",
							"name": "_vrfCoordinator",
							"type": "address"
						},
						{
							"internalType": "bytes32",
							"name": "_keyHash",
							"type": "bytes32"
						},
						{
							"internalType": "uint256",
							"name": "_subId",
							"type": "uint256"
						},
						{
							"internalType": "address",
							"name": "_investmentWallet",
							"type": "address"
						},
						{
							"internalType": "address",
							"name": "_profitWallet",
							"type": "address"
						}
					],
					"name": "initialize",
					"outputs": [],
					"stateMutability": "nonpayable",
					"type": "function"
				},
				{
					"inputs": [],
					"name": "investmentWallet",
					"outputs": [
						{
							"internalType": "address",
							"name": "",
							"type": "address"
						}
					],
					"stateMutability": "view",
					"type": "function"
				},
				{
					"inputs": [],
					"name": "keyHash",
					"outputs": [
						{
							"internalType": "bytes32",
							"name": "",
							"type": "bytes32"
						}
					],
					"stateMutability": "view",
					"type": "function"
				},
				{
					"inputs": [
						{
							"internalType": "uint256",
							"name": "",
							"type": "uint256"
						}
					],
					"name": "lotteries",
					"outputs": [
						{
							"internalType": "address",
							"name": "tokenAddress",
							"type": "address"
						},
						{
							"internalType": "uint256",
							"name": "participationFee",
							"type": "uint256"
						},
						{
							"internalType": "uint256",
							"name": "refundableAmount",
							"type": "uint256"
						},
						{
							"internalType": "uint256",
							"name": "maxParticipants",
							"type": "uint256"
						},
						{
							"internalType": "uint256",
							"name": "drawTime",
							"type": "uint256"
						},
						{
							"internalType": "uint256",
							"name": "prizeAmount",
							"type": "uint256"
						},
						{
							"internalType": "uint256",
							"name": "feeToInvestment",
							"type": "uint256"
						},
						{
							"internalType": "uint256",
							"name": "feeToProfit",
							"type": "uint256"
						},
						{
							"internalType": "bool",
							"name": "isActive",
							"type": "bool"
						},
						{
							"internalType": "bool",
							"name": "isDrawn",
							"type": "bool"
						},
						{
							"internalType": "bool",
							"name": "isCancelled",
							"type": "bool"
						},
						{
							"internalType": "address",
							"name": "winner",
							"type": "address"
						},
						{
							"internalType": "uint256",
							"name": "voteCount",
							"type": "uint256"
						}
					],
					"stateMutability": "view",
					"type": "function"
				},
				{
					"inputs": [],
					"name": "lotteryCounter",
					"outputs": [
						{
							"internalType": "uint256",
							"name": "",
							"type": "uint256"
						}
					],
					"stateMutability": "view",
					"type": "function"
				},
				{
					"inputs": [
						{
							"internalType": "uint256",
							"name": "fromId",
							"type": "uint256"
						},
						{
							"internalType": "uint256",
							"name": "toId",
							"type": "uint256"
						}
					],
					"name": "migrateToLottery",
					"outputs": [],
					"stateMutability": "nonpayable",
					"type": "function"
				},
				{
					"inputs": [],
					"name": "numWords",
					"outputs": [
						{
							"internalType": "uint32",
							"name": "",
							"type": "uint32"
						}
					],
					"stateMutability": "view",
					"type": "function"
				},
				{
					"inputs": [],
					"name": "owner",
					"outputs": [
						{
							"internalType": "address",
							"name": "",
							"type": "address"
						}
					],
					"stateMutability": "view",
					"type": "function"
				},
				{
					"inputs": [],
					"name": "profitWallet",
					"outputs": [
						{
							"internalType": "address",
							"name": "",
							"type": "address"
						}
					],
					"stateMutability": "view",
					"type": "function"
				},
				{
					"inputs": [],
					"name": "proxiableUUID",
					"outputs": [
						{
							"internalType": "bytes32",
							"name": "",
							"type": "bytes32"
						}
					],
					"stateMutability": "view",
					"type": "function"
				},
				{
					"inputs": [
						{
							"internalType": "uint256",
							"name": "requestId",
							"type": "uint256"
						},
						{
							"internalType": "uint256[]",
							"name": "randomWords",
							"type": "uint256[]"
						}
					],
					"name": "rawFulfillRandomWords",
					"outputs": [],
					"stateMutability": "nonpayable",
					"type": "function"
				},
				{
					"inputs": [],
					"name": "renounceOwnership",
					"outputs": [],
					"stateMutability": "nonpayable",
					"type": "function"
				},
				{
					"inputs": [],
					"name": "requestConfirmations",
					"outputs": [
						{
							"internalType": "uint16",
							"name": "",
							"type": "uint16"
						}
					],
					"stateMutability": "view",
					"type": "function"
				},
				{
					"inputs": [
						{
							"internalType": "uint256",
							"name": "",
							"type": "uint256"
						}
					],
					"name": "requestToLottery",
					"outputs": [
						{
							"internalType": "uint256",
							"name": "",
							"type": "uint256"
						}
					],
					"stateMutability": "view",
					"type": "function"
				},
				{
					"inputs": [],
					"name": "subscriptionId",
					"outputs": [
						{
							"internalType": "uint256",
							"name": "",
							"type": "uint256"
						}
					],
					"stateMutability": "view",
					"type": "function"
				},
				{
					"inputs": [
						{
							"internalType": "address",
							"name": "newOwner",
							"type": "address"
						}
					],
					"name": "transferOwnership",
					"outputs": [],
					"stateMutability": "nonpayable",
					"type": "function"
				},
				{
					"inputs": [
						{
							"internalType": "address",
							"name": "newImplementation",
							"type": "address"
						},
						{
							"internalType": "bytes",
							"name": "data",
							"type": "bytes"
						}
					],
					"name": "upgradeToAndCall",
					"outputs": [],
					"stateMutability": "payable",
					"type": "function"
				},
				{
					"inputs": [
						{
							"internalType": "uint256",
							"name": "_lotteryId",
							"type": "uint256"
						}
					],
					"name": "voteCancel",
					"outputs": [],
					"stateMutability": "nonpayable",
					"type": "function"
				},
				{
					"inputs": [],
					"name": "vrfCoordinator",
					"outputs": [
						{
							"internalType": "address",
							"name": "",
							"type": "address"
						}
					],
					"stateMutability": "view",
					"type": "function"
				}
			],
			"devdoc": {
				"errors": {
					"AddressEmptyCode(address)": [
						{
							"details": "There's no code at `target` (it is not a contract)."
						}
					],
					"ERC1967InvalidImplementation(address)": [
						{
							"details": "The `implementation` of the proxy is invalid."
						}
					],
					"ERC1967NonPayable()": [
						{
							"details": "An upgrade function sees `msg.value > 0` that may be lost."
						}
					],
					"FailedCall()": [
						{
							"details": "A call to an address target failed. The target may have reverted."
						}
					],
					"InvalidInitialization()": [
						{
							"details": "The contract is already initialized."
						}
					],
					"NotInitializing()": [
						{
							"details": "The contract is not initializing."
						}
					],
					"OwnableInvalidOwner(address)": [
						{
							"details": "The owner is not a valid owner account. (eg. `address(0)`)"
						}
					],
					"OwnableUnauthorizedAccount(address)": [
						{
							"details": "The caller account is not authorized to perform an operation."
						}
					],
					"UUPSUnauthorizedCallContext()": [
						{
							"details": "The call is from an unauthorized context."
						}
					],
					"UUPSUnsupportedProxiableUUID(bytes32)": [
						{
							"details": "The storage `slot` is unsupported as a UUID."
						}
					]
				},
				"events": {
					"Initialized(uint64)": {
						"details": "Triggered when the contract has been initialized or reinitialized."
					},
					"Upgraded(address)": {
						"details": "Emitted when the implementation is upgraded."
					}
				},
				"kind": "dev",
				"methods": {
					"owner()": {
						"details": "Returns the address of the current owner."
					},
					"proxiableUUID()": {
						"details": "Implementation of the ERC-1822 {proxiableUUID} function. This returns the storage slot used by the implementation. It is used to validate the implementation's compatibility when performing an upgrade. IMPORTANT: A proxy pointing at a proxiable contract should not be considered proxiable itself, because this risks bricking a proxy that upgrades to it, by delegating to itself until out of gas. Thus it is critical that this function revert if invoked through a proxy. This is guaranteed by the `notDelegated` modifier."
					},
					"renounceOwnership()": {
						"details": "Leaves the contract without owner. It will not be possible to call `onlyOwner` functions. Can only be called by the current owner. NOTE: Renouncing ownership will leave the contract without an owner, thereby disabling any functionality that is only available to the owner."
					},
					"transferOwnership(address)": {
						"details": "Transfers ownership of the contract to a new account (`newOwner`). Can only be called by the current owner."
					},
					"upgradeToAndCall(address,bytes)": {
						"custom:oz-upgrades-unsafe-allow-reachable": "delegatecall",
						"details": "Upgrade the implementation of the proxy to `newImplementation`, and subsequently execute the function call encoded in `data`. Calls {_authorizeUpgrade}. Emits an {Upgraded} event."
					}
				},
				"version": 1
			},
			"evm": {
				"assembly": "    /* \"contracts/StemPayLotteryManager.sol\":1202:12491  contract StemPayLotteryManager is... */\n  mstore(0x40, 0xa0)\n    /* \"@openzeppelin/contracts-upgradeable/proxy/utils/UUPSUpgradeable.sol\":1171:1175  this */\n  address\n    /* \"@openzeppelin/contracts-upgradeable/proxy/utils/UUPSUpgradeable.sol\":1128:1176  address private immutable __self = address(this) */\n  0x80\n  mstore\n    /* \"contracts/StemPayLotteryManager.sol\":1202:12491  contract StemPayLotteryManager is... */\n  callvalue\n  dup1\n  iszero\n  tag_1\n  jumpi\n  revert(0x00, 0x00)\ntag_1:\n  pop\n    /* \"@openzeppelin/contracts/security/ReentrancyGuard.sol\":1716:1717  1 */\n  0x01\n    /* \"@openzeppelin/contracts/security/ReentrancyGuard.sol\":1821:1828  _status */\n  0x00\n    /* \"@openzeppelin/contracts/security/ReentrancyGuard.sol\":1821:1843  _status = _NOT_ENTERED */\n  sstore\n    /* \"contracts/StemPayLotteryManager.sol\":1202:12491  contract StemPayLotteryManager is... */\n  mload(0x80)\n  codecopy(0x00, dataOffset(sub_0), dataSize(sub_0))\n  0x00\n  assignImmutable(\"0x7e11962f85eb7ceb5b38e296d507e5039b360e5ad6815220a68768366dc10fdd\")\n  return(0x00, dataSize(sub_0))\nstop\n\nsub_0: assembly {\n        /* \"contracts/StemPayLotteryManager.sol\":1202:12491  contract StemPayLotteryManager is... */\n      mstore(0x40, 0x80)\n      jumpi(tag_1, lt(calldatasize, 0x04))\n      shr(0xe0, calldataload(0x00))\n      dup1\n      0x61728f39\n      gt\n      tag_40\n      jumpi\n      dup1\n      0xa49a75a5\n      gt\n      tag_41\n      jumpi\n      dup1\n      0xc1e3bd3e\n      gt\n      tag_42\n      jumpi\n      dup1\n      0xc1e3bd3e\n      eq\n      tag_35\n      jumpi\n      dup1\n      0xc4cd639f\n      eq\n      tag_36\n      jumpi\n      dup1\n      0xd7098154\n      eq\n      tag_37\n      jumpi\n      dup1\n      0xe2344831\n      eq\n      tag_38\n      jumpi\n      dup1\n      0xf2fde38b\n      eq\n      tag_39\n      jumpi\n      revert(0x00, 0x00)\n    tag_42:\n      dup1\n      0xa49a75a5\n      eq\n      tag_30\n      jumpi\n      dup1\n      0xac03244e\n      eq\n      tag_31\n      jumpi\n      dup1\n      0xad3cb1cc\n      eq\n      tag_32\n      jumpi\n      dup1\n      0xb0fb162f\n      eq\n      tag_33\n      jumpi\n      dup1\n      0xb6fa37bc\n      eq\n      tag_34\n      jumpi\n      revert(0x00, 0x00)\n    tag_41:\n      dup1\n      0x7ccfd7fc\n      gt\n      tag_43\n      jumpi\n      dup1\n      0x7ccfd7fc\n      eq\n      tag_25\n      jumpi\n      dup1\n      0x826d9873\n      eq\n      tag_26\n      jumpi\n      dup1\n      0x82f9d0fb\n      eq\n      tag_27\n      jumpi\n      dup1\n      0x8da5cb5b\n      eq\n      tag_28\n      jumpi\n      dup1\n      0xa3e56fa8\n      eq\n      tag_29\n      jumpi\n      revert(0x00, 0x00)\n    tag_43:\n      dup1\n      0x61728f39\n      eq\n      tag_21\n      jumpi\n      dup1\n      0x6cc69997\n      eq\n      tag_22\n      jumpi\n      dup1\n      0x715018a6\n      eq\n      tag_23\n      jumpi\n      dup1\n      0x76b3c8a8\n      eq\n      tag_24\n      jumpi\n      revert(0x00, 0x00)\n    tag_40:\n      dup1\n      0x3893f9d5\n      gt\n      tag_44\n      jumpi\n      dup1\n      0x4a4a6b4f\n      gt\n      tag_45\n      jumpi\n      dup1\n      0x4a4a6b4f\n      eq\n      tag_16\n      jumpi\n      dup1\n      0x4f1ef286\n      eq\n      tag_17\n      jumpi\n      dup1\n      0x52d1902d\n      eq\n      tag_18\n      jumpi\n      dup1\n      0x5b7baf64\n      eq\n      tag_19\n      jumpi\n      dup1\n      0x60b2a56a\n      eq\n      tag_20\n      jumpi\n      revert(0x00, 0x00)\n    tag_45:\n      dup1\n      0x3893f9d5\n      eq\n      tag_11\n      jumpi\n      dup1\n      0x3fd43098\n      eq\n      tag_12\n      jumpi\n      dup1\n      0x3fe6e01e\n      eq\n      tag_13\n      jumpi\n      dup1\n      0x4311da37\n      eq\n      tag_14\n      jumpi\n      dup1\n      0x4538f297\n      eq\n      tag_15\n      jumpi\n      revert(0x00, 0x00)\n    tag_44:\n      dup1\n      0x1398e076\n      gt\n      tag_46\n      jumpi\n      dup1\n      0x1398e076\n      eq\n      tag_6\n      jumpi\n      dup1\n      0x15c6e123\n      eq\n      tag_7\n      jumpi\n      dup1\n      0x1fe543e3\n      eq\n      tag_8\n      jumpi\n      dup1\n      0x2301d775\n      eq\n      tag_9\n      jumpi\n      dup1\n      0x24f74697\n      eq\n      tag_10\n      jumpi\n      revert(0x00, 0x00)\n    tag_46:\n      dup1\n      0x055b66cd\n      eq\n      tag_2\n      jumpi\n      dup1\n      0x07c7a72d\n      eq\n      tag_3\n      jumpi\n      dup1\n      0x09c1ba2e\n      eq\n      tag_4\n      jumpi\n      dup1\n      0x0af5a263\n      eq\n      tag_5\n      jumpi\n    tag_1:\n      revert(0x00, 0x00)\n        /* \"contracts/StemPayLotteryManager.sol\":10597:11257  function getActiveLotteries() external view returns (uint256[] memory) {... */\n    tag_2:\n      callvalue\n      dup1\n      iszero\n      tag_47\n      jumpi\n      revert(0x00, 0x00)\n    tag_47:\n      pop\n      tag_48\n      tag_49\n      jump\t// in\n    tag_48:\n      mload(0x40)\n      tag_50\n      swap2\n      swap1\n      tag_51\n      jump\t// in\n    tag_50:\n      mload(0x40)\n      dup1\n      swap2\n      sub\n      swap1\n      return\n        /* \"contracts/StemPayLotteryManager.sol\":10283:10430  function hasUserClaimed(uint256 lotteryId, address user) external view returns (bool) {... */\n    tag_3:\n      callvalue\n      dup1\n      iszero\n      tag_52\n      jumpi\n      revert(0x00, 0x00)\n    tag_52:\n      pop\n      tag_53\n      tag_54\n      calldatasize\n      0x04\n      tag_55\n      jump\t// in\n    tag_54:\n      tag_56\n      jump\t// in\n    tag_53:\n      mload(0x40)\n        /* \"#utility.yul\":1374:1388   */\n      swap1\n      iszero\n        /* \"#utility.yul\":1367:1389   */\n      iszero\n        /* \"#utility.yul\":1349:1390   */\n      dup2\n      mstore\n        /* \"#utility.yul\":1337:1339   */\n      0x20\n        /* \"#utility.yul\":1322:1340   */\n      add\n        /* \"contracts/StemPayLotteryManager.sol\":10283:10430  function hasUserClaimed(uint256 lotteryId, address user) external view returns (bool) {... */\n      tag_50\n        /* \"#utility.yul\":1209:1396   */\n      jump\n        /* \"contracts/StemPayLotteryManager.sol\":2704:2733  uint256 public subscriptionId */\n    tag_4:\n      callvalue\n      dup1\n      iszero\n      tag_59\n      jumpi\n      revert(0x00, 0x00)\n    tag_59:\n      pop\n      tag_60\n      sload(0x08)\n      dup2\n      jump\n    tag_60:\n      mload(0x40)\n        /* \"#utility.yul\":1547:1572   */\n      swap1\n      dup2\n      mstore\n        /* \"#utility.yul\":1535:1537   */\n      0x20\n        /* \"#utility.yul\":1520:1538   */\n      add\n        /* \"contracts/StemPayLotteryManager.sol\":2704:2733  uint256 public subscriptionId */\n      tag_50\n        /* \"#utility.yul\":1401:1578   */\n      jump\n        /* \"contracts/StemPayLotteryManager.sol\":3153:3771  function initialize(... */\n    tag_5:\n      callvalue\n      dup1\n      iszero\n      tag_64\n      jumpi\n      revert(0x00, 0x00)\n    tag_64:\n      pop\n      tag_65\n      tag_66\n      calldatasize\n      0x04\n      tag_67\n      jump\t// in\n    tag_66:\n      tag_68\n      jump\t// in\n    tag_65:\n      stop\n        /* \"contracts/StemPayLotteryManager.sol\":2415:2459  mapping(uint256 => Lottery) public lotteries */\n    tag_6:\n      callvalue\n      dup1\n      iszero\n      tag_69\n      jumpi\n      revert(0x00, 0x00)\n    tag_69:\n      pop\n      tag_70\n      tag_71\n      calldatasize\n      0x04\n      tag_72\n      jump\t// in\n    tag_71:\n      0x02\n      0x20\n      dup2\n      swap1\n      mstore\n      0x00\n      swap2\n      dup3\n      mstore\n      0x40\n      swap1\n      swap2\n      keccak256\n      dup1\n      sload\n      0x01\n      dup3\n      add\n      sload\n      swap3\n      dup3\n      add\n      sload\n      0x03\n      dup4\n      add\n      sload\n      0x04\n      dup5\n      add\n      sload\n      0x05\n      dup6\n      add\n      sload\n      0x06\n      dup7\n      add\n      sload\n      0x07\n      dup8\n      add\n      sload\n      0x08\n      dup9\n      add\n      sload\n      0x0a\n      dup10\n      add\n      sload\n      0x0b\n      swap1\n      swap10\n      add\n      sload\n      sub(shl(0xa0, 0x01), 0x01)\n      swap9\n      dup10\n      and\n      swap11\n      swap10\n      swap8\n      swap9\n      swap7\n      swap8\n      swap6\n      swap7\n      swap5\n      swap6\n      swap4\n      swap5\n      swap3\n      swap4\n      0xff\n      dup1\n      dup5\n      and\n      swap5\n      0x0100\n      dup6\n      div\n      dup3\n      and\n      swap5\n      0x010000\n      swap1\n      div\n      swap1\n      swap2\n      and\n      swap3\n      swap2\n      and\n      swap1\n      dup14\n      jump\n    tag_70:\n      0x40\n      dup1\n      mload\n      sub(shl(0xa0, 0x01), 0x01)\n        /* \"#utility.yul\":2932:2964   */\n      swap15\n      dup16\n      and\n        /* \"#utility.yul\":2914:2965   */\n      dup2\n      mstore\n        /* \"#utility.yul\":2996:2998   */\n      0x20\n        /* \"#utility.yul\":2981:2999   */\n      dup2\n      add\n        /* \"#utility.yul\":2974:3008   */\n      swap14\n      swap1\n      swap14\n      mstore\n        /* \"#utility.yul\":3024:3042   */\n      dup13\n      add\n        /* \"#utility.yul\":3017:3051   */\n      swap11\n      swap1\n      swap11\n      mstore\n        /* \"#utility.yul\":3082:3084   */\n      0x60\n        /* \"#utility.yul\":3067:3085   */\n      dup12\n      add\n        /* \"#utility.yul\":3060:3094   */\n      swap9\n      swap1\n      swap9\n      mstore\n        /* \"#utility.yul\":3125:3128   */\n      0x80\n        /* \"#utility.yul\":3110:3129   */\n      dup11\n      add\n        /* \"#utility.yul\":3103:3138   */\n      swap7\n      swap1\n      swap7\n      mstore\n        /* \"#utility.yul\":2952:2955   */\n      0xa0\n        /* \"#utility.yul\":3154:3173   */\n      dup10\n      add\n        /* \"#utility.yul\":3147:3182   */\n      swap5\n      swap1\n      swap5\n      mstore\n        /* \"#utility.yul\":3213:3216   */\n      0xc0\n        /* \"#utility.yul\":3198:3217   */\n      dup9\n      add\n        /* \"#utility.yul\":3191:3226   */\n      swap3\n      swap1\n      swap3\n      mstore\n        /* \"#utility.yul\":3257:3260   */\n      0xe0\n        /* \"#utility.yul\":3242:3261   */\n      dup8\n      add\n        /* \"#utility.yul\":3235:3270   */\n      mstore\n        /* \"#utility.yul\":3314:3328   */\n      iszero\n        /* \"#utility.yul\":3307:3329   */\n      iszero\n        /* \"#utility.yul\":3301:3304   */\n      0x0100\n        /* \"#utility.yul\":3286:3305   */\n      dup7\n      add\n        /* \"#utility.yul\":3279:3330   */\n      mstore\n        /* \"#utility.yul\":3374:3388   */\n      iszero\n        /* \"#utility.yul\":3367:3389   */\n      iszero\n        /* \"#utility.yul\":3361:3364   */\n      0x0120\n        /* \"#utility.yul\":3346:3365   */\n      dup6\n      add\n        /* \"#utility.yul\":3339:3390   */\n      mstore\n        /* \"#utility.yul\":3434:3449   */\n      iszero\n        /* \"#utility.yul\":3427:3450   */\n      iszero\n        /* \"#utility.yul\":3421:3424   */\n      0x0140\n        /* \"#utility.yul\":3406:3425   */\n      dup5\n      add\n        /* \"#utility.yul\":3399:3451   */\n      mstore\n        /* \"#utility.yul\":2403:2434   */\n      swap1\n      swap3\n      and\n        /* \"#utility.yul\":3503:3506   */\n      0x0160\n        /* \"#utility.yul\":3488:3507   */\n      dup3\n      add\n        /* \"#utility.yul\":2391:2435   */\n      mstore\n        /* \"#utility.yul\":3539:3542   */\n      0x0180\n        /* \"#utility.yul\":3524:3543   */\n      dup2\n      add\n        /* \"#utility.yul\":3517:3553   */\n      swap2\n      swap1\n      swap2\n      mstore\n        /* \"#utility.yul\":2901:2904   */\n      0x01a0\n        /* \"#utility.yul\":2886:2905   */\n      add\n        /* \"contracts/StemPayLotteryManager.sol\":2415:2459  mapping(uint256 => Lottery) public lotteries */\n      tag_50\n        /* \"#utility.yul\":2446:3559   */\n      jump\n        /* \"contracts/StemPayLotteryManager.sol\":2812:2863  mapping(uint256 => uint256) public requestToLottery */\n    tag_7:\n      callvalue\n      dup1\n      iszero\n      tag_76\n      jumpi\n      revert(0x00, 0x00)\n    tag_76:\n      pop\n      tag_60\n      tag_78\n      calldatasize\n      0x04\n      tag_72\n      jump\t// in\n    tag_78:\n      mstore(0x20, 0x0b)\n      0x00\n      swap1\n      dup2\n      mstore\n      0x40\n      swap1\n      keccak256\n      sload\n      dup2\n      jump\n        /* \"contracts/StemPayLotteryManager.sol\":922:1198  function rawFulfillRandomWords(uint256 requestId, uint256[] memory randomWords) external {... */\n    tag_8:\n      callvalue\n      dup1\n      iszero\n      tag_81\n      jumpi\n      revert(0x00, 0x00)\n    tag_81:\n      pop\n      tag_65\n      tag_83\n      calldatasize\n      0x04\n      tag_84\n      jump\t// in\n    tag_83:\n      tag_85\n      jump\t// in\n        /* \"contracts/StemPayLotteryManager.sol\":2538:2565  address public profitWallet */\n    tag_9:\n      callvalue\n      dup1\n      iszero\n      tag_86\n      jumpi\n      revert(0x00, 0x00)\n    tag_86:\n      pop\n      sload(0x05)\n      tag_87\n      swap1\n      sub(shl(0xa0, 0x01), 0x01)\n      and\n      dup2\n      jump\n    tag_87:\n      mload(0x40)\n      sub(shl(0xa0, 0x01), 0x01)\n        /* \"#utility.yul\":5255:5287   */\n      swap1\n      swap2\n      and\n        /* \"#utility.yul\":5237:5288   */\n      dup2\n      mstore\n        /* \"#utility.yul\":5225:5227   */\n      0x20\n        /* \"#utility.yul\":5210:5228   */\n      add\n        /* \"contracts/StemPayLotteryManager.sol\":2538:2565  address public profitWallet */\n      tag_50\n        /* \"#utility.yul\":5091:5294   */\n      jump\n        /* \"contracts/StemPayLotteryManager.sol\":2600:2630  uint32 public callbackGasLimit */\n    tag_10:\n      callvalue\n      dup1\n      iszero\n      tag_91\n      jumpi\n      revert(0x00, 0x00)\n    tag_91:\n      pop\n      sload(0x07)\n      tag_92\n      swap1\n      0xffffffff\n      and\n      dup2\n      jump\n    tag_92:\n      mload(0x40)\n        /* \"#utility.yul\":5473:5483   */\n      0xffffffff\n        /* \"#utility.yul\":5461:5484   */\n      swap1\n      swap2\n      and\n        /* \"#utility.yul\":5443:5485   */\n      dup2\n      mstore\n        /* \"#utility.yul\":5431:5433   */\n      0x20\n        /* \"#utility.yul\":5416:5434   */\n      add\n        /* \"contracts/StemPayLotteryManager.sol\":2600:2630  uint32 public callbackGasLimit */\n      tag_50\n        /* \"#utility.yul\":5299:5491   */\n      jump\n        /* \"contracts/StemPayLotteryManager.sol\":8959:9855  function migrateToLottery(uint256 fromId, uint256 toId) external nonReentrant {... */\n    tag_11:\n      callvalue\n      dup1\n      iszero\n      tag_96\n      jumpi\n      revert(0x00, 0x00)\n    tag_96:\n      pop\n      tag_65\n      tag_98\n      calldatasize\n      0x04\n      tag_99\n      jump\t// in\n    tag_98:\n      tag_100\n      jump\t// in\n        /* \"contracts/StemPayLotteryManager.sol\":4890:5448  function enterLottery(uint256 _lotteryId) external nonReentrant {... */\n    tag_12:\n      callvalue\n      dup1\n      iszero\n      tag_101\n      jumpi\n      revert(0x00, 0x00)\n    tag_101:\n      pop\n      tag_65\n      tag_103\n      calldatasize\n      0x04\n      tag_72\n      jump\t// in\n    tag_103:\n      tag_104\n      jump\t// in\n        /* \"contracts/StemPayLotteryManager.sol\":10436:10591  function hasUserVotedCancel(uint256 lotteryId, address user) external view returns (bool) {... */\n    tag_13:\n      callvalue\n      dup1\n      iszero\n      tag_105\n      jumpi\n      revert(0x00, 0x00)\n    tag_105:\n      pop\n      tag_53\n      tag_107\n      calldatasize\n      0x04\n      tag_55\n      jump\t// in\n    tag_107:\n        /* \"contracts/StemPayLotteryManager.sol\":10520:10524  bool */\n      0x00\n        /* \"contracts/StemPayLotteryManager.sol\":10543:10563  lotteries[lotteryId] */\n      dup3\n      dup2\n      mstore\n        /* \"contracts/StemPayLotteryManager.sol\":10543:10552  lotteries */\n      0x02\n        /* \"contracts/StemPayLotteryManager.sol\":10543:10563  lotteries[lotteryId] */\n      0x20\n      swap1\n      dup2\n      mstore\n      0x40\n      dup1\n      dup4\n      keccak256\n      sub(shl(0xa0, 0x01), 0x01)\n        /* \"contracts/StemPayLotteryManager.sol\":10543:10584  lotteries[lotteryId].hasVotedCancel[user] */\n      dup6\n      and\n      dup5\n      mstore\n        /* \"contracts/StemPayLotteryManager.sol\":10543:10578  lotteries[lotteryId].hasVotedCancel */\n      0x0f\n      add\n        /* \"contracts/StemPayLotteryManager.sol\":10543:10584  lotteries[lotteryId].hasVotedCancel[user] */\n      swap1\n      swap2\n      mstore\n      swap1\n      keccak256\n      sload\n      0xff\n      and\n        /* \"contracts/StemPayLotteryManager.sol\":10436:10591  function hasUserVotedCancel(uint256 lotteryId, address user) external view returns (bool) {... */\n      swap3\n      swap2\n      pop\n      pop\n      jump\n        /* \"contracts/StemPayLotteryManager.sol\":3849:4883  function createLottery(... */\n    tag_14:\n      callvalue\n      dup1\n      iszero\n      tag_110\n      jumpi\n      revert(0x00, 0x00)\n    tag_110:\n      pop\n      tag_65\n      tag_112\n      calldatasize\n      0x04\n      tag_113\n      jump\t// in\n    tag_112:\n      tag_114\n      jump\t// in\n        /* \"contracts/StemPayLotteryManager.sol\":7554:7815  function cancelLottery(uint256 _lotteryId) external onlyOwner {... */\n    tag_15:\n      callvalue\n      dup1\n      iszero\n      tag_115\n      jumpi\n      revert(0x00, 0x00)\n    tag_115:\n      pop\n      tag_65\n      tag_117\n      calldatasize\n      0x04\n      tag_72\n      jump\t// in\n    tag_117:\n      tag_118\n      jump\t// in\n        /* \"contracts/StemPayLotteryManager.sol\":2465:2494  uint256 public lotteryCounter */\n    tag_16:\n      callvalue\n      dup1\n      iszero\n      tag_119\n      jumpi\n      revert(0x00, 0x00)\n    tag_119:\n      pop\n      tag_60\n      sload(0x03)\n      dup2\n      jump\n        /* \"@openzeppelin/contracts-upgradeable/proxy/utils/UUPSUpgradeable.sol\":4161:4375  function upgradeToAndCall(address newImplementation, bytes memory data) public payable virtual onlyProxy {... */\n    tag_17:\n      tag_65\n      tag_124\n      calldatasize\n      0x04\n      tag_125\n      jump\t// in\n    tag_124:\n      tag_126\n      jump\t// in\n        /* \"@openzeppelin/contracts-upgradeable/proxy/utils/UUPSUpgradeable.sol\":3708:3842  function proxiableUUID() external view virtual notDelegated returns (bytes32) {... */\n    tag_18:\n      callvalue\n      dup1\n      iszero\n      tag_127\n      jumpi\n      revert(0x00, 0x00)\n    tag_127:\n      pop\n      tag_60\n      tag_129\n      jump\t// in\n        /* \"contracts/StemPayLotteryManager.sol\":7821:8333  function claimRefund(uint256 _lotteryId) external nonReentrant {... */\n    tag_19:\n      callvalue\n      dup1\n      iszero\n      tag_132\n      jumpi\n      revert(0x00, 0x00)\n    tag_132:\n      pop\n      tag_65\n      tag_134\n      calldatasize\n      0x04\n      tag_72\n      jump\t// in\n    tag_134:\n      tag_135\n      jump\t// in\n        /* \"contracts/StemPayLotteryManager.sol\":5917:6903  function drawWinner(uint256 _lotteryId) external onlyOwner {... */\n    tag_20:\n      callvalue\n      dup1\n      iszero\n      tag_136\n      jumpi\n      revert(0x00, 0x00)\n    tag_136:\n      pop\n      tag_65\n      tag_138\n      calldatasize\n      0x04\n      tag_72\n      jump\t// in\n    tag_138:\n      tag_139\n      jump\t// in\n        /* \"contracts/StemPayLotteryManager.sol\":2572:2594  bytes32 public keyHash */\n    tag_21:\n      callvalue\n      dup1\n      iszero\n      tag_140\n      jumpi\n      revert(0x00, 0x00)\n    tag_140:\n      pop\n      tag_60\n      sload(0x06)\n      dup2\n      jump\n        /* \"contracts/StemPayLotteryManager.sol\":9861:9967  function getAllLotteryIds() external view returns (uint256[] memory) {... */\n    tag_22:\n      callvalue\n      dup1\n      iszero\n      tag_144\n      jumpi\n      revert(0x00, 0x00)\n    tag_144:\n      pop\n      tag_48\n      tag_146\n      jump\t// in\n        /* \"@openzeppelin/contracts-upgradeable/access/OwnableUpgradeable.sol\":3155:3256  function renounceOwnership() public virtual onlyOwner {... */\n    tag_23:\n      callvalue\n      dup1\n      iszero\n      tag_148\n      jumpi\n      revert(0x00, 0x00)\n    tag_148:\n      pop\n      tag_65\n      tag_150\n      jump\t// in\n        /* \"contracts/StemPayLotteryManager.sol\":11263:12019  function getLotteryInfo(uint256 _lotteryId) external view returns (LotteryInfo memory info) {... */\n    tag_24:\n      callvalue\n      dup1\n      iszero\n      tag_151\n      jumpi\n      revert(0x00, 0x00)\n    tag_151:\n      pop\n      tag_152\n      tag_153\n      calldatasize\n      0x04\n      tag_72\n      jump\t// in\n    tag_153:\n      tag_154\n      jump\t// in\n    tag_152:\n      mload(0x40)\n      tag_50\n      swap2\n      swap1\n      tag_156\n      jump\t// in\n        /* \"contracts/StemPayLotteryManager.sol\":2676:2698  uint32 public numWords */\n    tag_25:\n      callvalue\n      dup1\n      iszero\n      tag_157\n      jumpi\n      revert(0x00, 0x00)\n    tag_157:\n      pop\n      sload(0x07)\n      tag_92\n      swap1\n      0x01000000000000\n      swap1\n      div\n      0xffffffff\n      and\n      dup2\n      jump\n        /* \"contracts/StemPayLotteryManager.sol\":5454:5911  function voteCancel(uint256 _lotteryId) external {... */\n    tag_26:\n      callvalue\n      dup1\n      iszero\n      tag_161\n      jumpi\n      revert(0x00, 0x00)\n    tag_161:\n      pop\n      tag_65\n      tag_163\n      calldatasize\n      0x04\n      tag_72\n      jump\t// in\n    tag_163:\n      tag_164\n      jump\t// in\n        /* \"contracts/StemPayLotteryManager.sol\":8693:8803  function clearLotteryData(uint256 _lotteryId) external onlyOwner {... */\n    tag_27:\n      callvalue\n      dup1\n      iszero\n      tag_165\n      jumpi\n      revert(0x00, 0x00)\n    tag_165:\n      pop\n      tag_65\n      tag_167\n      calldatasize\n      0x04\n      tag_72\n      jump\t// in\n    tag_167:\n      tag_168\n      jump\t// in\n        /* \"@openzeppelin/contracts-upgradeable/access/OwnableUpgradeable.sol\":2441:2585  function owner() public view virtual returns (address) {... */\n    tag_28:\n      callvalue\n      dup1\n      iszero\n      tag_169\n      jumpi\n      revert(0x00, 0x00)\n    tag_169:\n      pop\n        /* \"@openzeppelin/contracts-upgradeable/access/OwnableUpgradeable.sol\":1313:1335  OwnableStorageLocation */\n      0x9016d09d72d40fdae2fd8ceac6b6234c7706214fd39c1cd1e609a0528c199300\n        /* \"@openzeppelin/contracts-upgradeable/access/OwnableUpgradeable.sol\":2570:2578  $._owner */\n      sload\n      sub(shl(0xa0, 0x01), 0x01)\n      and\n        /* \"@openzeppelin/contracts-upgradeable/access/OwnableUpgradeable.sol\":2441:2585  function owner() public view virtual returns (address) {... */\n      jump(tag_87)\n        /* \"contracts/StemPayLotteryManager.sol\":2739:2768  address public vrfCoordinator */\n    tag_29:\n      callvalue\n      dup1\n      iszero\n      tag_173\n      jumpi\n      revert(0x00, 0x00)\n    tag_173:\n      pop\n      sload(0x09)\n      tag_87\n      swap1\n      sub(shl(0xa0, 0x01), 0x01)\n      and\n      dup2\n      jump\n        /* \"contracts/StemPayLotteryManager.sol\":9973:10122  function getEntryCount(uint256 lotteryId, address user) external view returns (uint256) {... */\n    tag_30:\n      callvalue\n      dup1\n      iszero\n      tag_177\n      jumpi\n      revert(0x00, 0x00)\n    tag_177:\n      pop\n      tag_60\n      tag_179\n      calldatasize\n      0x04\n      tag_55\n      jump\t// in\n    tag_179:\n        /* \"contracts/StemPayLotteryManager.sol\":10052:10059  uint256 */\n      0x00\n        /* \"contracts/StemPayLotteryManager.sol\":10078:10098  lotteries[lotteryId] */\n      dup3\n      dup2\n      mstore\n        /* \"contracts/StemPayLotteryManager.sol\":10078:10087  lotteries */\n      0x02\n        /* \"contracts/StemPayLotteryManager.sol\":10078:10098  lotteries[lotteryId] */\n      0x20\n      swap1\n      dup2\n      mstore\n      0x40\n      dup1\n      dup4\n      keccak256\n      sub(shl(0xa0, 0x01), 0x01)\n        /* \"contracts/StemPayLotteryManager.sol\":10078:10115  lotteries[lotteryId].entryCount[user] */\n      dup6\n      and\n      dup5\n      mstore\n        /* \"contracts/StemPayLotteryManager.sol\":10078:10109  lotteries[lotteryId].entryCount */\n      0x0c\n      add\n        /* \"contracts/StemPayLotteryManager.sol\":10078:10115  lotteries[lotteryId].entryCount[user] */\n      swap1\n      swap2\n      mstore\n      swap1\n      keccak256\n      sload\n        /* \"contracts/StemPayLotteryManager.sol\":9973:10122  function getEntryCount(uint256 lotteryId, address user) external view returns (uint256) {... */\n      swap3\n      swap2\n      pop\n      pop\n      jump\n        /* \"contracts/StemPayLotteryManager.sol\":12026:12489  function getUserLotteryData(uint256 lotteryId, address user)... */\n    tag_31:\n      callvalue\n      dup1\n      iszero\n      tag_182\n      jumpi\n      revert(0x00, 0x00)\n    tag_182:\n      pop\n      tag_183\n      tag_184\n      calldatasize\n      0x04\n      tag_55\n      jump\t// in\n    tag_184:\n        /* \"contracts/StemPayLotteryManager.sol\":12147:12165  uint256 entryCount */\n      0x00\n        /* \"contracts/StemPayLotteryManager.sol\":12302:12322  lotteries[lotteryId] */\n      swap2\n      dup3\n      mstore\n        /* \"contracts/StemPayLotteryManager.sol\":12302:12311  lotteries */\n      0x02\n        /* \"contracts/StemPayLotteryManager.sol\":12302:12322  lotteries[lotteryId] */\n      0x20\n      swap1\n      dup2\n      mstore\n      0x40\n      dup1\n      dup5\n      keccak256\n      sub(shl(0xa0, 0x01), 0x01)\n        /* \"contracts/StemPayLotteryManager.sol\":12353:12371  l.entryCount[user] */\n      swap4\n      swap1\n      swap4\n      and\n      dup5\n      mstore\n        /* \"contracts/StemPayLotteryManager.sol\":12353:12365  l.entryCount */\n      0x0c\n      dup4\n      add\n        /* \"contracts/StemPayLotteryManager.sol\":12353:12371  l.entryCount[user] */\n      dup3\n      mstore\n      dup1\n      dup5\n      keccak256\n      sload\n        /* \"contracts/StemPayLotteryManager.sol\":12385:12397  l.hasClaimed */\n      0x0d\n      dup5\n      add\n        /* \"contracts/StemPayLotteryManager.sol\":12385:12403  l.hasClaimed[user] */\n      dup4\n      mstore\n      dup2\n      dup6\n      keccak256\n      sload\n        /* \"contracts/StemPayLotteryManager.sol\":12417:12430  l.hasRefunded */\n      0x0e\n      dup6\n      add\n        /* \"contracts/StemPayLotteryManager.sol\":12417:12436  l.hasRefunded[user] */\n      dup5\n      mstore\n      dup3\n      dup7\n      keccak256\n      sload\n        /* \"contracts/StemPayLotteryManager.sol\":12450:12466  l.hasVotedCancel */\n      0x0f\n      swap1\n      swap6\n      add\n        /* \"contracts/StemPayLotteryManager.sol\":12450:12472  l.hasVotedCancel[user] */\n      swap1\n      swap4\n      mstore\n      swap4\n      keccak256\n      sload\n        /* \"contracts/StemPayLotteryManager.sol\":12353:12371  l.entryCount[user] */\n      swap3\n      swap4\n        /* \"contracts/StemPayLotteryManager.sol\":12385:12403  l.hasClaimed[user] */\n      0xff\n      swap2\n      dup3\n      and\n      swap4\n        /* \"contracts/StemPayLotteryManager.sol\":12417:12436  l.hasRefunded[user] */\n      swap3\n      dup3\n      and\n      swap3\n        /* \"contracts/StemPayLotteryManager.sol\":12450:12472  l.hasVotedCancel[user] */\n      swap2\n      swap1\n      swap2\n      and\n      swap1\n        /* \"contracts/StemPayLotteryManager.sol\":12026:12489  function getUserLotteryData(uint256 lotteryId, address user)... */\n      jump\n    tag_183:\n      0x40\n      dup1\n      mload\n        /* \"#utility.yul\":9955:9980   */\n      swap5\n      dup6\n      mstore\n        /* \"#utility.yul\":10023:10037   */\n      swap3\n      iszero\n        /* \"#utility.yul\":10016:10038   */\n      iszero\n        /* \"#utility.yul\":10011:10013   */\n      0x20\n        /* \"#utility.yul\":9996:10014   */\n      dup6\n      add\n        /* \"#utility.yul\":9989:10039   */\n      mstore\n        /* \"#utility.yul\":10082:10096   */\n      swap1\n      iszero\n        /* \"#utility.yul\":10075:10097   */\n      iszero\n        /* \"#utility.yul\":10055:10073   */\n      swap2\n      dup4\n      add\n        /* \"#utility.yul\":10048:10098   */\n      swap2\n      swap1\n      swap2\n      mstore\n        /* \"#utility.yul\":10141:10155   */\n      iszero\n        /* \"#utility.yul\":10134:10156   */\n      iszero\n        /* \"#utility.yul\":10129:10131   */\n      0x60\n        /* \"#utility.yul\":10114:10132   */\n      dup3\n      add\n        /* \"#utility.yul\":10107:10157   */\n      mstore\n        /* \"#utility.yul\":9942:9945   */\n      0x80\n        /* \"#utility.yul\":9927:9946   */\n      add\n        /* \"contracts/StemPayLotteryManager.sol\":12026:12489  function getUserLotteryData(uint256 lotteryId, address user)... */\n      tag_50\n        /* \"#utility.yul\":9742:10163   */\n      jump\n        /* \"@openzeppelin/contracts-upgradeable/proxy/utils/UUPSUpgradeable.sol\":1819:1877  string public constant UPGRADE_INTERFACE_VERSION = \"5.0.0\" */\n    tag_32:\n      callvalue\n      dup1\n      iszero\n      tag_188\n      jumpi\n      revert(0x00, 0x00)\n    tag_188:\n      pop\n      tag_189\n      mload(0x40)\n      dup1\n      0x40\n      add\n      0x40\n      mstore\n      dup1\n      0x05\n      dup2\n      mstore\n      0x20\n      add\n      shl(0xdc, 0x0352e302e3)\n      dup2\n      mstore\n      pop\n      dup2\n      jump\n    tag_189:\n      mload(0x40)\n      tag_50\n      swap2\n      swap1\n      tag_192\n      jump\t// in\n        /* \"contracts/StemPayLotteryManager.sol\":2636:2670  uint16 public requestConfirmations */\n    tag_33:\n      callvalue\n      dup1\n      iszero\n      tag_193\n      jumpi\n      revert(0x00, 0x00)\n    tag_193:\n      pop\n      sload(0x07)\n      tag_194\n      swap1\n      0x0100000000\n      swap1\n      div\n      0xffff\n      and\n      dup2\n      jump\n    tag_194:\n      mload(0x40)\n        /* \"#utility.yul\":10861:10867   */\n      0xffff\n        /* \"#utility.yul\":10849:10868   */\n      swap1\n      swap2\n      and\n        /* \"#utility.yul\":10831:10869   */\n      dup2\n      mstore\n        /* \"#utility.yul\":10819:10821   */\n      0x20\n        /* \"#utility.yul\":10804:10822   */\n      add\n        /* \"contracts/StemPayLotteryManager.sol\":2636:2670  uint16 public requestConfirmations */\n      tag_50\n        /* \"#utility.yul\":10687:10875   */\n      jump\n        /* \"contracts/StemPayLotteryManager.sol\":2501:2532  address public investmentWallet */\n    tag_34:\n      callvalue\n      dup1\n      iszero\n      tag_198\n      jumpi\n      revert(0x00, 0x00)\n    tag_198:\n      pop\n      sload(0x04)\n      tag_87\n      swap1\n      sub(shl(0xa0, 0x01), 0x01)\n      and\n      dup2\n      jump\n        /* \"contracts/StemPayLotteryManager.sol\":8809:8953  function getParticipants(uint256 _lotteryId) external view returns (address[] memory) {... */\n    tag_35:\n      callvalue\n      dup1\n      iszero\n      tag_202\n      jumpi\n      revert(0x00, 0x00)\n    tag_202:\n      pop\n      tag_203\n      tag_204\n      calldatasize\n      0x04\n      tag_72\n      jump\t// in\n    tag_204:\n      tag_205\n      jump\t// in\n    tag_203:\n      mload(0x40)\n      tag_50\n      swap2\n      swap1\n      tag_207\n      jump\t// in\n        /* \"contracts/StemPayLotteryManager.sol\":10128:10277  function hasUserRefunded(uint256 lotteryId, address user) external view returns (bool) {... */\n    tag_36:\n      callvalue\n      dup1\n      iszero\n      tag_208\n      jumpi\n      revert(0x00, 0x00)\n    tag_208:\n      pop\n      tag_53\n      tag_210\n      calldatasize\n      0x04\n      tag_55\n      jump\t// in\n    tag_210:\n        /* \"contracts/StemPayLotteryManager.sol\":10209:10213  bool */\n      0x00\n        /* \"contracts/StemPayLotteryManager.sol\":10232:10252  lotteries[lotteryId] */\n      dup3\n      dup2\n      mstore\n        /* \"contracts/StemPayLotteryManager.sol\":10232:10241  lotteries */\n      0x02\n        /* \"contracts/StemPayLotteryManager.sol\":10232:10252  lotteries[lotteryId] */\n      0x20\n      swap1\n      dup2\n      mstore\n      0x40\n      dup1\n      dup4\n      keccak256\n      sub(shl(0xa0, 0x01), 0x01)\n        /* \"contracts/StemPayLotteryManager.sol\":10232:10270  lotteries[lotteryId].hasRefunded[user] */\n      dup6\n      and\n      dup5\n      mstore\n        /* \"contracts/StemPayLotteryManager.sol\":10232:10264  lotteries[lotteryId].hasRefunded */\n      0x0e\n      add\n        /* \"contracts/StemPayLotteryManager.sol\":10232:10270  lotteries[lotteryId].hasRefunded[user] */\n      swap1\n      swap2\n      mstore\n      swap1\n      keccak256\n      sload\n      0xff\n      and\n        /* \"contracts/StemPayLotteryManager.sol\":10128:10277  function hasUserRefunded(uint256 lotteryId, address user) external view returns (bool) {... */\n      swap3\n      swap2\n      pop\n      pop\n      jump\n        /* \"contracts/StemPayLotteryManager.sol\":8339:8687  function claimPrize(uint256 _lotteryId) external nonReentrant {... */\n    tag_37:\n      callvalue\n      dup1\n      iszero\n      tag_213\n      jumpi\n      revert(0x00, 0x00)\n    tag_213:\n      pop\n      tag_65\n      tag_215\n      calldatasize\n      0x04\n      tag_72\n      jump\t// in\n    tag_215:\n      tag_216\n      jump\t// in\n        /* \"contracts/StemPayLotteryManager.sol\":2775:2805  uint256[] public allLotteryIds */\n    tag_38:\n      callvalue\n      dup1\n      iszero\n      tag_217\n      jumpi\n      revert(0x00, 0x00)\n    tag_217:\n      pop\n      tag_60\n      tag_219\n      calldatasize\n      0x04\n      tag_72\n      jump\t// in\n    tag_219:\n      tag_220\n      jump\t// in\n        /* \"@openzeppelin/contracts-upgradeable/access/OwnableUpgradeable.sol\":3405:3620  function transferOwnership(address newOwner) public virtual onlyOwner {... */\n    tag_39:\n      callvalue\n      dup1\n      iszero\n      tag_222\n      jumpi\n      revert(0x00, 0x00)\n    tag_222:\n      pop\n      tag_65\n      tag_224\n      calldatasize\n      0x04\n      tag_225\n      jump\t// in\n    tag_224:\n      tag_226\n      jump\t// in\n        /* \"contracts/StemPayLotteryManager.sol\":10597:11257  function getActiveLotteries() external view returns (uint256[] memory) {... */\n    tag_49:\n        /* \"contracts/StemPayLotteryManager.sol\":10716:10729  allLotteryIds */\n      0x0a\n        /* \"contracts/StemPayLotteryManager.sol\":10716:10736  allLotteryIds.length */\n      sload\n        /* \"contracts/StemPayLotteryManager.sol\":10650:10666  uint256[] memory */\n      0x60\n      swap1\n        /* \"contracts/StemPayLotteryManager.sol\":10678:10699  uint256[] memory temp */\n      0x00\n      swap1\n        /* \"contracts/StemPayLotteryManager.sol\":10702:10737  new uint256[](allLotteryIds.length) */\n      0xffffffffffffffff\n      dup2\n      gt\n      iszero\n      tag_229\n      jumpi\n      tag_229\n      tag_230\n      jump\t// in\n    tag_229:\n      mload(0x40)\n      swap1\n      dup1\n      dup3\n      mstore\n      dup1\n      0x20\n      mul\n      0x20\n      add\n      dup3\n      add\n      0x40\n      mstore\n      dup1\n      iszero\n      tag_231\n      jumpi\n      dup2\n      0x20\n      add\n      0x20\n      dup3\n      mul\n      dup1\n      calldatasize\n      dup4\n      calldatacopy\n      add\n      swap1\n      pop\n    tag_231:\n      pop\n        /* \"contracts/StemPayLotteryManager.sol\":10678:10737  uint256[] memory temp = new uint256[](allLotteryIds.length) */\n      swap1\n      pop\n        /* \"contracts/StemPayLotteryManager.sol\":10747:10760  uint256 count */\n      0x00\n      dup1\n        /* \"contracts/StemPayLotteryManager.sol\":10775:11081  for (uint256 i = 0; i < allLotteryIds.length; i++) {... */\n    tag_232:\n        /* \"contracts/StemPayLotteryManager.sol\":10799:10812  allLotteryIds */\n      0x0a\n        /* \"contracts/StemPayLotteryManager.sol\":10799:10819  allLotteryIds.length */\n      sload\n        /* \"contracts/StemPayLotteryManager.sol\":10795:10819  i < allLotteryIds.length */\n      dup2\n      lt\n        /* \"contracts/StemPayLotteryManager.sol\":10775:11081  for (uint256 i = 0; i < allLotteryIds.length; i++) {... */\n      iszero\n      tag_233\n      jumpi\n        /* \"contracts/StemPayLotteryManager.sol\":10840:10850  uint256 id */\n      0x00\n        /* \"contracts/StemPayLotteryManager.sol\":10853:10866  allLotteryIds */\n      0x0a\n        /* \"contracts/StemPayLotteryManager.sol\":10867:10868  i */\n      dup3\n        /* \"contracts/StemPayLotteryManager.sol\":10853:10869  allLotteryIds[i] */\n      dup2\n      sload\n      dup2\n      lt\n      tag_236\n      jumpi\n      tag_236\n      tag_237\n      jump\t// in\n    tag_236:\n      0x00\n      swap2\n      dup3\n      mstore\n      0x20\n      dup1\n      dup4\n      keccak256\n      swap1\n      swap2\n      add\n      sload\n        /* \"contracts/StemPayLotteryManager.sol\":10903:10916  lotteries[id] */\n      dup1\n      dup4\n      mstore\n        /* \"contracts/StemPayLotteryManager.sol\":10903:10912  lotteries */\n      0x02\n        /* \"contracts/StemPayLotteryManager.sol\":10903:10916  lotteries[id] */\n      swap1\n      swap2\n      mstore\n      0x40\n      swap1\n      swap2\n      keccak256\n        /* \"contracts/StemPayLotteryManager.sol\":10935:10945  l.isActive */\n      0x08\n      dup2\n      add\n      sload\n        /* \"contracts/StemPayLotteryManager.sol\":10853:10869  allLotteryIds[i] */\n      swap2\n      swap3\n      pop\n        /* \"contracts/StemPayLotteryManager.sol\":10903:10916  lotteries[id] */\n      swap1\n        /* \"contracts/StemPayLotteryManager.sol\":10935:10945  l.isActive */\n      0xff\n      and\n        /* \"contracts/StemPayLotteryManager.sol\":10935:10963  l.isActive && !l.isCancelled */\n      dup1\n      iszero\n      tag_239\n      jumpi\n      pop\n        /* \"contracts/StemPayLotteryManager.sol\":10950:10963  l.isCancelled */\n      0x08\n      dup2\n      add\n      sload\n      0x010000\n      swap1\n      div\n      0xff\n      and\n        /* \"contracts/StemPayLotteryManager.sol\":10949:10963  !l.isCancelled */\n      iszero\n        /* \"contracts/StemPayLotteryManager.sol\":10935:10963  l.isActive && !l.isCancelled */\n    tag_239:\n        /* \"contracts/StemPayLotteryManager.sol\":10935:10995  l.isActive && !l.isCancelled && block.timestamp < l.drawTime */\n      dup1\n      iszero\n      tag_240\n      jumpi\n      pop\n        /* \"contracts/StemPayLotteryManager.sol\":10985:10986  l */\n      dup1\n        /* \"contracts/StemPayLotteryManager.sol\":10985:10995  l.drawTime */\n      0x04\n      add\n      sload\n        /* \"contracts/StemPayLotteryManager.sol\":10967:10982  block.timestamp */\n      timestamp\n        /* \"contracts/StemPayLotteryManager.sol\":10967:10995  block.timestamp < l.drawTime */\n      lt\n        /* \"contracts/StemPayLotteryManager.sol\":10935:10995  l.isActive && !l.isCancelled && block.timestamp < l.drawTime */\n    tag_240:\n        /* \"contracts/StemPayLotteryManager.sol\":10931:11071  if (l.isActive && !l.isCancelled && block.timestamp < l.drawTime) {... */\n      iszero\n      tag_241\n      jumpi\n        /* \"contracts/StemPayLotteryManager.sol\":11029:11031  id */\n      dup2\n        /* \"contracts/StemPayLotteryManager.sol\":11015:11019  temp */\n      dup6\n        /* \"contracts/StemPayLotteryManager.sol\":11020:11025  count */\n      dup6\n        /* \"contracts/StemPayLotteryManager.sol\":11015:11026  temp[count] */\n      dup2\n      mload\n      dup2\n      lt\n      tag_243\n      jumpi\n      tag_243\n      tag_237\n      jump\t// in\n    tag_243:\n      0x20\n      swap1\n      dup2\n      mul\n      swap2\n      swap1\n      swap2\n      add\n      add\n        /* \"contracts/StemPayLotteryManager.sol\":11015:11031  temp[count] = id */\n      mstore\n        /* \"contracts/StemPayLotteryManager.sol\":11049:11056  count++ */\n      dup4\n      tag_244\n      dup2\n      tag_245\n      jump\t// in\n    tag_244:\n      swap5\n      pop\n      pop\n        /* \"contracts/StemPayLotteryManager.sol\":10931:11071  if (l.isActive && !l.isCancelled && block.timestamp < l.drawTime) {... */\n    tag_241:\n      pop\n      pop\n        /* \"contracts/StemPayLotteryManager.sol\":10821:10824  i++ */\n      0x01\n      add\n        /* \"contracts/StemPayLotteryManager.sol\":10775:11081  for (uint256 i = 0; i < allLotteryIds.length; i++) {... */\n      jump(tag_232)\n    tag_233:\n      pop\n        /* \"contracts/StemPayLotteryManager.sol\":11091:11114  uint256[] memory result */\n      0x00\n        /* \"contracts/StemPayLotteryManager.sol\":11131:11136  count */\n      dup2\n        /* \"contracts/StemPayLotteryManager.sol\":11117:11137  new uint256[](count) */\n      0xffffffffffffffff\n      dup2\n      gt\n      iszero\n      tag_247\n      jumpi\n      tag_247\n      tag_230\n      jump\t// in\n    tag_247:\n      mload(0x40)\n      swap1\n      dup1\n      dup3\n      mstore\n      dup1\n      0x20\n      mul\n      0x20\n      add\n      dup3\n      add\n      0x40\n      mstore\n      dup1\n      iszero\n      tag_248\n      jumpi\n      dup2\n      0x20\n      add\n      0x20\n      dup3\n      mul\n      dup1\n      calldatasize\n      dup4\n      calldatacopy\n      add\n      swap1\n      pop\n    tag_248:\n      pop\n        /* \"contracts/StemPayLotteryManager.sol\":11091:11137  uint256[] memory result = new uint256[](count) */\n      swap1\n      pop\n        /* \"contracts/StemPayLotteryManager.sol\":11152:11161  uint256 j */\n      0x00\n        /* \"contracts/StemPayLotteryManager.sol\":11147:11227  for (uint256 j = 0; j < count; j++) {... */\n    tag_249:\n        /* \"contracts/StemPayLotteryManager.sol\":11171:11176  count */\n      dup3\n        /* \"contracts/StemPayLotteryManager.sol\":11167:11168  j */\n      dup2\n        /* \"contracts/StemPayLotteryManager.sol\":11167:11176  j < count */\n      lt\n        /* \"contracts/StemPayLotteryManager.sol\":11147:11227  for (uint256 j = 0; j < count; j++) {... */\n      iszero\n      tag_250\n      jumpi\n        /* \"contracts/StemPayLotteryManager.sol\":11209:11213  temp */\n      dup4\n        /* \"contracts/StemPayLotteryManager.sol\":11214:11215  j */\n      dup2\n        /* \"contracts/StemPayLotteryManager.sol\":11209:11216  temp[j] */\n      dup2\n      mload\n      dup2\n      lt\n      tag_253\n      jumpi\n      tag_253\n      tag_237\n      jump\t// in\n    tag_253:\n      0x20\n      mul\n      0x20\n      add\n      add\n      mload\n        /* \"contracts/StemPayLotteryManager.sol\":11197:11203  result */\n      dup3\n        /* \"contracts/StemPayLotteryManager.sol\":11204:11205  j */\n      dup3\n        /* \"contracts/StemPayLotteryManager.sol\":11197:11206  result[j] */\n      dup2\n      mload\n      dup2\n      lt\n      tag_255\n      jumpi\n      tag_255\n      tag_237\n      jump\t// in\n    tag_255:\n      0x20\n      swap1\n      dup2\n      mul\n      swap2\n      swap1\n      swap2\n      add\n      add\n        /* \"contracts/StemPayLotteryManager.sol\":11197:11216  result[j] = temp[j] */\n      mstore\n        /* \"contracts/StemPayLotteryManager.sol\":11178:11181  j++ */\n      0x01\n      add\n        /* \"contracts/StemPayLotteryManager.sol\":11147:11227  for (uint256 j = 0; j < count; j++) {... */\n      jump(tag_249)\n    tag_250:\n      pop\n        /* \"contracts/StemPayLotteryManager.sol\":11244:11250  result */\n      swap4\n        /* \"contracts/StemPayLotteryManager.sol\":10597:11257  function getActiveLotteries() external view returns (uint256[] memory) {... */\n      swap3\n      pop\n      pop\n      pop\n      jump\t// out\n        /* \"contracts/StemPayLotteryManager.sol\":10283:10430  function hasUserClaimed(uint256 lotteryId, address user) external view returns (bool) {... */\n    tag_56:\n        /* \"contracts/StemPayLotteryManager.sol\":10363:10367  bool */\n      0x00\n        /* \"contracts/StemPayLotteryManager.sol\":10386:10406  lotteries[lotteryId] */\n      dup3\n      dup2\n      mstore\n        /* \"contracts/StemPayLotteryManager.sol\":10386:10395  lotteries */\n      0x02\n        /* \"contracts/StemPayLotteryManager.sol\":10386:10406  lotteries[lotteryId] */\n      0x20\n      swap1\n      dup2\n      mstore\n      0x40\n      dup1\n      dup4\n      keccak256\n      sub(shl(0xa0, 0x01), 0x01)\n        /* \"contracts/StemPayLotteryManager.sol\":10386:10423  lotteries[lotteryId].hasClaimed[user] */\n      dup6\n      and\n      dup5\n      mstore\n        /* \"contracts/StemPayLotteryManager.sol\":10386:10417  lotteries[lotteryId].hasClaimed */\n      0x0d\n      add\n        /* \"contracts/StemPayLotteryManager.sol\":10386:10423  lotteries[lotteryId].hasClaimed[user] */\n      swap1\n      swap2\n      mstore\n      swap1\n      keccak256\n      sload\n      0xff\n      and\n        /* \"contracts/StemPayLotteryManager.sol\":10283:10430  function hasUserClaimed(uint256 lotteryId, address user) external view returns (bool) {... */\n    tag_256:\n      swap3\n      swap2\n      pop\n      pop\n      jump\t// out\n        /* \"contracts/StemPayLotteryManager.sol\":3153:3771  function initialize(... */\n    tag_68:\n        /* \"@openzeppelin/contracts-upgradeable/proxy/utils/Initializable.sol\":4158:4188  InitializableStorage storage $ */\n      0x00\n        /* \"@openzeppelin/contracts-upgradeable/proxy/utils/Initializable.sol\":4191:4217  _getInitializableStorage() */\n      tag_258\n        /* \"@openzeppelin/contracts-upgradeable/proxy/utils/Initializable.sol\":4191:4215  _getInitializableStorage */\n      tag_259\n        /* \"@openzeppelin/contracts-upgradeable/proxy/utils/Initializable.sol\":4191:4217  _getInitializableStorage() */\n      jump\t// in\n    tag_258:\n        /* \"@openzeppelin/contracts-upgradeable/proxy/utils/Initializable.sol\":4302:4317  $._initializing */\n      dup1\n      sload\n        /* \"@openzeppelin/contracts-upgradeable/proxy/utils/Initializable.sol\":4158:4217  InitializableStorage storage $ = _getInitializableStorage() */\n      swap1\n      swap2\n      pop\n        /* \"@openzeppelin/contracts-upgradeable/proxy/utils/Initializable.sol\":4302:4317  $._initializing */\n      0xff\n      shl(0x40, 0x01)\n      dup3\n      div\n      and\n        /* \"@openzeppelin/contracts-upgradeable/proxy/utils/Initializable.sol\":4301:4317  !$._initializing */\n      iszero\n      swap1\n        /* \"@openzeppelin/contracts-upgradeable/proxy/utils/Initializable.sol\":4348:4362  $._initialized */\n      0xffffffffffffffff\n      and\n        /* \"@openzeppelin/contracts-upgradeable/proxy/utils/Initializable.sol\":4279:4298  bool isTopLevelCall */\n      0x00\n        /* \"@openzeppelin/contracts-upgradeable/proxy/utils/Initializable.sol\":4724:4740  initialized == 0 */\n      dup2\n      iszero\n        /* \"@openzeppelin/contracts-upgradeable/proxy/utils/Initializable.sol\":4724:4758  initialized == 0 && isTopLevelCall */\n      dup1\n      iszero\n      tag_260\n      jumpi\n      pop\n        /* \"@openzeppelin/contracts-upgradeable/proxy/utils/Initializable.sol\":4744:4758  isTopLevelCall */\n      dup3\n        /* \"@openzeppelin/contracts-upgradeable/proxy/utils/Initializable.sol\":4724:4758  initialized == 0 && isTopLevelCall */\n    tag_260:\n        /* \"@openzeppelin/contracts-upgradeable/proxy/utils/Initializable.sol\":4704:4758  bool initialSetup = initialized == 0 && isTopLevelCall */\n      swap1\n      pop\n        /* \"@openzeppelin/contracts-upgradeable/proxy/utils/Initializable.sol\":4768:4785  bool construction */\n      0x00\n        /* \"@openzeppelin/contracts-upgradeable/proxy/utils/Initializable.sol\":4788:4799  initialized */\n      dup3\n        /* \"@openzeppelin/contracts-upgradeable/proxy/utils/Initializable.sol\":4788:4804  initialized == 1 */\n      0xffffffffffffffff\n      and\n        /* \"@openzeppelin/contracts-upgradeable/proxy/utils/Initializable.sol\":4803:4804  1 */\n      0x01\n        /* \"@openzeppelin/contracts-upgradeable/proxy/utils/Initializable.sol\":4788:4804  initialized == 1 */\n      eq\n        /* \"@openzeppelin/contracts-upgradeable/proxy/utils/Initializable.sol\":4788:4838  initialized == 1 && address(this).code.length == 0 */\n      dup1\n      iszero\n      tag_261\n      jumpi\n      pop\n        /* \"@openzeppelin/contracts-upgradeable/proxy/utils/Initializable.sol\":4816:4820  this */\n      address\n        /* \"@openzeppelin/contracts-upgradeable/proxy/utils/Initializable.sol\":4808:4833  address(this).code.length */\n      extcodesize\n        /* \"@openzeppelin/contracts-upgradeable/proxy/utils/Initializable.sol\":4808:4838  address(this).code.length == 0 */\n      iszero\n        /* \"@openzeppelin/contracts-upgradeable/proxy/utils/Initializable.sol\":4788:4838  initialized == 1 && address(this).code.length == 0 */\n    tag_261:\n        /* \"@openzeppelin/contracts-upgradeable/proxy/utils/Initializable.sol\":4768:4838  bool construction = initialized == 1 && address(this).code.length == 0 */\n      swap1\n      pop\n        /* \"@openzeppelin/contracts-upgradeable/proxy/utils/Initializable.sol\":4854:4866  initialSetup */\n      dup2\n        /* \"@openzeppelin/contracts-upgradeable/proxy/utils/Initializable.sol\":4853:4866  !initialSetup */\n      iszero\n        /* \"@openzeppelin/contracts-upgradeable/proxy/utils/Initializable.sol\":4853:4883  !initialSetup && !construction */\n      dup1\n      iszero\n      tag_262\n      jumpi\n      pop\n        /* \"@openzeppelin/contracts-upgradeable/proxy/utils/Initializable.sol\":4871:4883  construction */\n      dup1\n        /* \"@openzeppelin/contracts-upgradeable/proxy/utils/Initializable.sol\":4870:4883  !construction */\n      iszero\n        /* \"@openzeppelin/contracts-upgradeable/proxy/utils/Initializable.sol\":4853:4883  !initialSetup && !construction */\n    tag_262:\n        /* \"@openzeppelin/contracts-upgradeable/proxy/utils/Initializable.sol\":4849:4940  if (!initialSetup && !construction) {... */\n      iszero\n      tag_263\n      jumpi\n        /* \"@openzeppelin/contracts-upgradeable/proxy/utils/Initializable.sol\":4906:4929  InvalidInitialization() */\n      mload(0x40)\n      shl(0xe0, 0xf92ee8a9)\n      dup2\n      mstore\n      0x04\n      add\n      mload(0x40)\n      dup1\n      swap2\n      sub\n      swap1\n      revert\n        /* \"@openzeppelin/contracts-upgradeable/proxy/utils/Initializable.sol\":4849:4940  if (!initialSetup && !construction) {... */\n    tag_263:\n        /* \"@openzeppelin/contracts-upgradeable/proxy/utils/Initializable.sol\":4949:4967  $._initialized = 1 */\n      dup5\n      sload\n      not(0xffffffffffffffff)\n      and\n        /* \"@openzeppelin/contracts-upgradeable/proxy/utils/Initializable.sol\":4966:4967  1 */\n      0x01\n        /* \"@openzeppelin/contracts-upgradeable/proxy/utils/Initializable.sol\":4949:4967  $._initialized = 1 */\n      or\n      dup6\n      sstore\n        /* \"@openzeppelin/contracts-upgradeable/proxy/utils/Initializable.sol\":4977:5044  if (isTopLevelCall) {... */\n      dup4\n      iszero\n      tag_264\n      jumpi\n        /* \"@openzeppelin/contracts-upgradeable/proxy/utils/Initializable.sol\":5011:5033  $._initializing = true */\n      dup5\n      sload\n      not(shl(0x40, 0xff))\n      and\n      shl(0x40, 0x01)\n      or\n      dup6\n      sstore\n        /* \"@openzeppelin/contracts-upgradeable/proxy/utils/Initializable.sol\":4977:5044  if (isTopLevelCall) {... */\n    tag_264:\n        /* \"contracts/StemPayLotteryManager.sol\":3359:3385  __Ownable_init(msg.sender) */\n      tag_266\n        /* \"contracts/StemPayLotteryManager.sol\":3374:3384  msg.sender */\n      caller\n        /* \"contracts/StemPayLotteryManager.sol\":3359:3373  __Ownable_init */\n      tag_267\n        /* \"contracts/StemPayLotteryManager.sol\":3359:3385  __Ownable_init(msg.sender) */\n      jump\t// in\n    tag_266:\n        /* \"contracts/StemPayLotteryManager.sol\":3395:3419  __UUPSUpgradeable_init() */\n      tag_268\n        /* \"contracts/StemPayLotteryManager.sol\":3395:3417  __UUPSUpgradeable_init */\n      tag_269\n        /* \"contracts/StemPayLotteryManager.sol\":3395:3419  __UUPSUpgradeable_init() */\n      jump\t// in\n    tag_268:\n        /* \"contracts/StemPayLotteryManager.sol\":3429:3483  __VRFConsumerBaseV2_5Upgradeable_init(_vrfCoordinator) */\n      tag_270\n        /* \"contracts/StemPayLotteryManager.sol\":3467:3482  _vrfCoordinator */\n      dup11\n        /* \"contracts/StemPayLotteryManager.sol\":3429:3466  __VRFConsumerBaseV2_5Upgradeable_init */\n      tag_271\n        /* \"contracts/StemPayLotteryManager.sol\":3429:3483  __VRFConsumerBaseV2_5Upgradeable_init(_vrfCoordinator) */\n      jump\t// in\n    tag_270:\n        /* \"contracts/StemPayLotteryManager.sol\":3494:3508  vrfCoordinator */\n      0x09\n        /* \"contracts/StemPayLotteryManager.sol\":3494:3526  vrfCoordinator = _vrfCoordinator */\n      dup1\n      sload\n      not(sub(shl(0xa0, 0x01), 0x01))\n      swap1\n      dup2\n      and\n      sub(shl(0xa0, 0x01), 0x01)\n      dup14\n      dup2\n      and\n      swap2\n      swap1\n      swap2\n      or\n      swap1\n      swap3\n      sstore\n        /* \"contracts/StemPayLotteryManager.sol\":3536:3543  keyHash */\n      0x06\n        /* \"contracts/StemPayLotteryManager.sol\":3536:3554  keyHash = _keyHash */\n      dup12\n      swap1\n      sstore\n        /* \"contracts/StemPayLotteryManager.sol\":3564:3578  subscriptionId */\n      0x08\n        /* \"contracts/StemPayLotteryManager.sol\":3564:3587  subscriptionId = _subId */\n      dup11\n      swap1\n      sstore\n        /* \"contracts/StemPayLotteryManager.sol\":3597:3613  callbackGasLimit */\n      0x07\n        /* \"contracts/StemPayLotteryManager.sol\":3597:3623  callbackGasLimit = 200_000 */\n      dup1\n      sload\n      not(0xffffffffffffffffffff)\n        /* \"contracts/StemPayLotteryManager.sol\":3667:3679  numWords = 1 */\n      and\n      0x01000300030d40\n      or\n      swap1\n      sstore\n        /* \"contracts/StemPayLotteryManager.sol\":3633:3653  requestConfirmations */\n      0x04\n        /* \"contracts/StemPayLotteryManager.sol\":3690:3726  investmentWallet = _investmentWallet */\n      dup1\n      sload\n      dup3\n      and\n      dup11\n      dup5\n      and\n      or\n      swap1\n      sstore\n      0x05\n        /* \"contracts/StemPayLotteryManager.sol\":3736:3764  profitWallet = _profitWallet */\n      dup1\n      sload\n      swap1\n      swap2\n      and\n      swap2\n      dup9\n      and\n      swap2\n      swap1\n      swap2\n      or\n      swap1\n      sstore\n        /* \"@openzeppelin/contracts-upgradeable/proxy/utils/Initializable.sol\":5064:5165  if (isTopLevelCall) {... */\n      dup4\n      iszero\n      tag_272\n      jumpi\n        /* \"@openzeppelin/contracts-upgradeable/proxy/utils/Initializable.sol\":5098:5121  $._initializing = false */\n      dup5\n      sload\n      not(shl(0x40, 0xff))\n      and\n      dup6\n      sstore\n        /* \"@openzeppelin/contracts-upgradeable/proxy/utils/Initializable.sol\":5140:5154  Initialized(1) */\n      mload(0x40)\n      0x01\n        /* \"#utility.yul\":11894:11944   */\n      dup2\n      mstore\n        /* \"@openzeppelin/contracts-upgradeable/proxy/utils/Initializable.sol\":5140:5154  Initialized(1) */\n      0xc7f505b2f371ae2175ee4913f4499e1f2633a7b5936321eed1cdaeb6115181d2\n      swap1\n        /* \"#utility.yul\":11882:11884   */\n      0x20\n        /* \"#utility.yul\":11867:11885   */\n      add\n        /* \"@openzeppelin/contracts-upgradeable/proxy/utils/Initializable.sol\":5140:5154  Initialized(1) */\n      mload(0x40)\n      dup1\n      swap2\n      sub\n      swap1\n      log1\n        /* \"@openzeppelin/contracts-upgradeable/proxy/utils/Initializable.sol\":5064:5165  if (isTopLevelCall) {... */\n    tag_272:\n        /* \"@openzeppelin/contracts-upgradeable/proxy/utils/Initializable.sol\":4092:5171  {... */\n      pop\n      pop\n      pop\n      pop\n      pop\n        /* \"contracts/StemPayLotteryManager.sol\":3153:3771  function initialize(... */\n      pop\n      pop\n      pop\n      pop\n      pop\n      jump\t// out\n        /* \"contracts/StemPayLotteryManager.sol\":922:1198  function rawFulfillRandomWords(uint256 requestId, uint256[] memory randomWords) external {... */\n    tag_85:\n        /* \"contracts/StemPayLotteryManager.sol\":1039:1053  vrfCoordinator */\n      and(sub(shl(0xa0, 0x01), 0x01), sload(0x01))\n        /* \"contracts/StemPayLotteryManager.sol\":1025:1035  msg.sender */\n      caller\n        /* \"contracts/StemPayLotteryManager.sol\":1025:1053  msg.sender != vrfCoordinator */\n      eq\n        /* \"contracts/StemPayLotteryManager.sol\":1021:1140  if (msg.sender != vrfCoordinator) {... */\n      tag_276\n      jumpi\n        /* \"contracts/StemPayLotteryManager.sol\":1114:1128  vrfCoordinator */\n      sload(0x01)\n        /* \"contracts/StemPayLotteryManager.sol\":1076:1129  OnlyCoordinatorCanFulfill(msg.sender, vrfCoordinator) */\n      mload(0x40)\n      shl(0xe2, 0x073e64fd)\n      dup2\n      mstore\n        /* \"contracts/StemPayLotteryManager.sol\":1102:1112  msg.sender */\n      caller\n        /* \"contracts/StemPayLotteryManager.sol\":1076:1129  OnlyCoordinatorCanFulfill(msg.sender, vrfCoordinator) */\n      0x04\n      dup3\n      add\n        /* \"#utility.yul\":12129:12180   */\n      mstore\n      sub(shl(0xa0, 0x01), 0x01)\n        /* \"contracts/StemPayLotteryManager.sol\":1114:1128  vrfCoordinator */\n      swap1\n      swap2\n      and\n        /* \"#utility.yul\":12196:12214   */\n      0x24\n      dup3\n      add\n        /* \"#utility.yul\":12189:12249   */\n      mstore\n        /* \"#utility.yul\":12102:12120   */\n      0x44\n      add\n        /* \"contracts/StemPayLotteryManager.sol\":1076:1129  OnlyCoordinatorCanFulfill(msg.sender, vrfCoordinator) */\n    tag_277:\n      mload(0x40)\n      dup1\n      swap2\n      sub\n      swap1\n      revert\n        /* \"contracts/StemPayLotteryManager.sol\":1021:1140  if (msg.sender != vrfCoordinator) {... */\n    tag_276:\n        /* \"contracts/StemPayLotteryManager.sol\":1149:1191  fulfillRandomWords(requestId, randomWords) */\n      tag_279\n        /* \"contracts/StemPayLotteryManager.sol\":1168:1177  requestId */\n      dup3\n        /* \"contracts/StemPayLotteryManager.sol\":1179:1190  randomWords */\n      dup3\n        /* \"contracts/StemPayLotteryManager.sol\":1149:1167  fulfillRandomWords */\n      tag_280\n        /* \"contracts/StemPayLotteryManager.sol\":1149:1191  fulfillRandomWords(requestId, randomWords) */\n      jump\t// in\n    tag_279:\n        /* \"contracts/StemPayLotteryManager.sol\":922:1198  function rawFulfillRandomWords(uint256 requestId, uint256[] memory randomWords) external {... */\n      pop\n      pop\n      jump\t// out\n        /* \"contracts/StemPayLotteryManager.sol\":8959:9855  function migrateToLottery(uint256 fromId, uint256 toId) external nonReentrant {... */\n    tag_100:\n        /* \"@openzeppelin/contracts/security/ReentrancyGuard.sol\":2261:2282  _nonReentrantBefore() */\n      tag_282\n        /* \"@openzeppelin/contracts/security/ReentrancyGuard.sol\":2261:2280  _nonReentrantBefore */\n      tag_283\n        /* \"@openzeppelin/contracts/security/ReentrancyGuard.sol\":2261:2282  _nonReentrantBefore() */\n      jump\t// in\n    tag_282:\n        /* \"contracts/StemPayLotteryManager.sol\":9047:9068  Lottery storage fromL */\n      0x00\n        /* \"contracts/StemPayLotteryManager.sol\":9071:9088  lotteries[fromId] */\n      dup3\n      dup2\n      mstore\n        /* \"contracts/StemPayLotteryManager.sol\":9071:9080  lotteries */\n      0x02\n        /* \"contracts/StemPayLotteryManager.sol\":9071:9088  lotteries[fromId] */\n      0x20\n      swap1\n      dup2\n      mstore\n      0x40\n      dup1\n      dup4\n      keccak256\n        /* \"contracts/StemPayLotteryManager.sol\":9120:9135  lotteries[toId] */\n      dup5\n      dup5\n      mstore\n      dup2\n      dup5\n      keccak256\n        /* \"contracts/StemPayLotteryManager.sol\":9171:9181  msg.sender */\n      caller\n        /* \"contracts/StemPayLotteryManager.sol\":9154:9182  fromL.entryCount[msg.sender] */\n      dup6\n      mstore\n        /* \"contracts/StemPayLotteryManager.sol\":9154:9170  fromL.entryCount */\n      0x0c\n      dup3\n      add\n        /* \"contracts/StemPayLotteryManager.sol\":9154:9182  fromL.entryCount[msg.sender] */\n      swap1\n      swap4\n      mstore\n      swap3\n      keccak256\n      sload\n        /* \"contracts/StemPayLotteryManager.sol\":9146:9201  require(fromL.entryCount[msg.sender] > 0, \"Not in old\") */\n      tag_285\n      jumpi\n      mload(0x40)\n      shl(0xe5, 0x461bcd)\n      dup2\n      mstore\n        /* \"#utility.yul\":12462:12464   */\n      0x20\n        /* \"contracts/StemPayLotteryManager.sol\":9146:9201  require(fromL.entryCount[msg.sender] > 0, \"Not in old\") */\n      0x04\n      dup3\n      add\n        /* \"#utility.yul\":12444:12465   */\n      mstore\n        /* \"#utility.yul\":12501:12503   */\n      0x0a\n        /* \"#utility.yul\":12481:12499   */\n      0x24\n      dup3\n      add\n        /* \"#utility.yul\":12474:12504   */\n      mstore\n      shl(0xb2, 0x139bdd081a5b881bdb19)\n        /* \"#utility.yul\":12520:12538   */\n      0x44\n      dup3\n      add\n        /* \"#utility.yul\":12513:12553   */\n      mstore\n        /* \"#utility.yul\":12570:12588   */\n      0x64\n      add\n        /* \"contracts/StemPayLotteryManager.sol\":9146:9201  require(fromL.entryCount[msg.sender] > 0, \"Not in old\") */\n      tag_277\n        /* \"#utility.yul\":12260:12594   */\n      jump\n        /* \"contracts/StemPayLotteryManager.sol\":9146:9201  require(fromL.entryCount[msg.sender] > 0, \"Not in old\") */\n    tag_285:\n        /* \"contracts/StemPayLotteryManager.sol\":9238:9248  msg.sender */\n      caller\n        /* \"contracts/StemPayLotteryManager.sol\":9220:9249  fromL.hasRefunded[msg.sender] */\n      0x00\n      swap1\n      dup2\n      mstore\n        /* \"contracts/StemPayLotteryManager.sol\":9220:9237  fromL.hasRefunded */\n      0x0e\n      dup4\n      add\n        /* \"contracts/StemPayLotteryManager.sol\":9220:9249  fromL.hasRefunded[msg.sender] */\n      0x20\n      mstore\n      0x40\n      swap1\n      keccak256\n      sload\n      0xff\n      and\n        /* \"contracts/StemPayLotteryManager.sol\":9219:9249  !fromL.hasRefunded[msg.sender] */\n      iszero\n        /* \"contracts/StemPayLotteryManager.sol\":9211:9270  require(!fromL.hasRefunded[msg.sender], \"Refunded already\") */\n      tag_288\n      jumpi\n      mload(0x40)\n      shl(0xe5, 0x461bcd)\n      dup2\n      mstore\n        /* \"#utility.yul\":12801:12803   */\n      0x20\n        /* \"contracts/StemPayLotteryManager.sol\":9211:9270  require(!fromL.hasRefunded[msg.sender], \"Refunded already\") */\n      0x04\n      dup3\n      add\n        /* \"#utility.yul\":12783:12804   */\n      mstore\n        /* \"#utility.yul\":12840:12842   */\n      0x10\n        /* \"#utility.yul\":12820:12838   */\n      0x24\n      dup3\n      add\n        /* \"#utility.yul\":12813:12843   */\n      mstore\n      shl(0x80, 0x526566756e64656420616c7265616479)\n        /* \"#utility.yul\":12859:12877   */\n      0x44\n      dup3\n      add\n        /* \"#utility.yul\":12852:12898   */\n      mstore\n        /* \"#utility.yul\":12915:12933   */\n      0x64\n      add\n        /* \"contracts/StemPayLotteryManager.sol\":9211:9270  require(!fromL.hasRefunded[msg.sender], \"Refunded already\") */\n      tag_277\n        /* \"#utility.yul\":12599:12939   */\n      jump\n        /* \"contracts/StemPayLotteryManager.sol\":9211:9270  require(!fromL.hasRefunded[msg.sender], \"Refunded already\") */\n    tag_288:\n        /* \"contracts/StemPayLotteryManager.sol\":9288:9305  fromL.isCancelled */\n      0x08\n      dup3\n      add\n      sload\n      0x010000\n      swap1\n      div\n      0xff\n      and\n      dup1\n        /* \"contracts/StemPayLotteryManager.sol\":9288:9354  fromL.isCancelled || (fromL.isDrawn && fromL.winner != msg.sender) */\n      tag_292\n      jumpi\n      pop\n        /* \"contracts/StemPayLotteryManager.sol\":9310:9323  fromL.isDrawn */\n      0x08\n      dup3\n      add\n      sload\n      0x0100\n      swap1\n      div\n      0xff\n      and\n        /* \"contracts/StemPayLotteryManager.sol\":9310:9353  fromL.isDrawn && fromL.winner != msg.sender */\n      dup1\n      iszero\n      tag_292\n      jumpi\n      pop\n        /* \"contracts/StemPayLotteryManager.sol\":9327:9339  fromL.winner */\n      0x0a\n      dup3\n      add\n      sload\n      sub(shl(0xa0, 0x01), 0x01)\n      and\n        /* \"contracts/StemPayLotteryManager.sol\":9343:9353  msg.sender */\n      caller\n        /* \"contracts/StemPayLotteryManager.sol\":9327:9353  fromL.winner != msg.sender */\n      eq\n      iszero\n        /* \"contracts/StemPayLotteryManager.sol\":9310:9353  fromL.isDrawn && fromL.winner != msg.sender */\n    tag_292:\n        /* \"contracts/StemPayLotteryManager.sol\":9280:9375  require(fromL.isCancelled || (fromL.isDrawn && fromL.winner != msg.sender), \"Old not eligible\") */\n      tag_293\n      jumpi\n      mload(0x40)\n      shl(0xe5, 0x461bcd)\n      dup2\n      mstore\n        /* \"#utility.yul\":13146:13148   */\n      0x20\n        /* \"contracts/StemPayLotteryManager.sol\":9280:9375  require(fromL.isCancelled || (fromL.isDrawn && fromL.winner != msg.sender), \"Old not eligible\") */\n      0x04\n      dup3\n      add\n        /* \"#utility.yul\":13128:13149   */\n      mstore\n        /* \"#utility.yul\":13185:13187   */\n      0x10\n        /* \"#utility.yul\":13165:13183   */\n      0x24\n      dup3\n      add\n        /* \"#utility.yul\":13158:13188   */\n      mstore\n      shl(0x80, 0x4f6c64206e6f7420656c696769626c65)\n        /* \"#utility.yul\":13204:13222   */\n      0x44\n      dup3\n      add\n        /* \"#utility.yul\":13197:13243   */\n      mstore\n        /* \"#utility.yul\":13260:13278   */\n      0x64\n      add\n        /* \"contracts/StemPayLotteryManager.sol\":9280:9375  require(fromL.isCancelled || (fromL.isDrawn && fromL.winner != msg.sender), \"Old not eligible\") */\n      tag_277\n        /* \"#utility.yul\":12944:13284   */\n      jump\n        /* \"contracts/StemPayLotteryManager.sol\":9280:9375  require(fromL.isCancelled || (fromL.isDrawn && fromL.winner != msg.sender), \"Old not eligible\") */\n    tag_293:\n        /* \"contracts/StemPayLotteryManager.sol\":9394:9406  toL.isActive */\n      0x08\n      dup2\n      add\n      sload\n      0xff\n      and\n        /* \"contracts/StemPayLotteryManager.sol\":9394:9426  toL.isActive && !toL.isCancelled */\n      dup1\n      iszero\n      tag_296\n      jumpi\n      pop\n        /* \"contracts/StemPayLotteryManager.sol\":9411:9426  toL.isCancelled */\n      0x08\n      dup2\n      add\n      sload\n      0x010000\n      swap1\n      div\n      0xff\n      and\n        /* \"contracts/StemPayLotteryManager.sol\":9410:9426  !toL.isCancelled */\n      iszero\n        /* \"contracts/StemPayLotteryManager.sol\":9394:9426  toL.isActive && !toL.isCancelled */\n    tag_296:\n        /* \"contracts/StemPayLotteryManager.sol\":9386:9451  require(toL.isActive && !toL.isCancelled, \"New lottery inactive\") */\n      tag_297\n      jumpi\n      mload(0x40)\n      shl(0xe5, 0x461bcd)\n      dup2\n      mstore\n        /* \"#utility.yul\":13491:13493   */\n      0x20\n        /* \"contracts/StemPayLotteryManager.sol\":9386:9451  require(toL.isActive && !toL.isCancelled, \"New lottery inactive\") */\n      0x04\n      dup3\n      add\n        /* \"#utility.yul\":13473:13494   */\n      mstore\n        /* \"#utility.yul\":13530:13532   */\n      0x14\n        /* \"#utility.yul\":13510:13528   */\n      0x24\n      dup3\n      add\n        /* \"#utility.yul\":13503:13533   */\n      mstore\n      shl(0x60, 0x4e6577206c6f747465727920696e616374697665)\n        /* \"#utility.yul\":13549:13567   */\n      0x44\n      dup3\n      add\n        /* \"#utility.yul\":13542:13592   */\n      mstore\n        /* \"#utility.yul\":13609:13627   */\n      0x64\n      add\n        /* \"contracts/StemPayLotteryManager.sol\":9386:9451  require(toL.isActive && !toL.isCancelled, \"New lottery inactive\") */\n      tag_277\n        /* \"#utility.yul\":13289:13633   */\n      jump\n        /* \"contracts/StemPayLotteryManager.sol\":9386:9451  require(toL.isActive && !toL.isCancelled, \"New lottery inactive\") */\n    tag_297:\n        /* \"contracts/StemPayLotteryManager.sol\":9487:9490  toL */\n      dup1\n        /* \"contracts/StemPayLotteryManager.sol\":9487:9499  toL.drawTime */\n      0x04\n      add\n      sload\n        /* \"contracts/StemPayLotteryManager.sol\":9469:9484  block.timestamp */\n      timestamp\n        /* \"contracts/StemPayLotteryManager.sol\":9469:9499  block.timestamp < toL.drawTime */\n      lt\n        /* \"contracts/StemPayLotteryManager.sol\":9461:9520  require(block.timestamp < toL.drawTime, \"Too late for new\") */\n      tag_300\n      jumpi\n      mload(0x40)\n      shl(0xe5, 0x461bcd)\n      dup2\n      mstore\n        /* \"#utility.yul\":13840:13842   */\n      0x20\n        /* \"contracts/StemPayLotteryManager.sol\":9461:9520  require(block.timestamp < toL.drawTime, \"Too late for new\") */\n      0x04\n      dup3\n      add\n        /* \"#utility.yul\":13822:13843   */\n      mstore\n        /* \"#utility.yul\":13879:13881   */\n      0x10\n        /* \"#utility.yul\":13859:13877   */\n      0x24\n      dup3\n      add\n        /* \"#utility.yul\":13852:13882   */\n      mstore\n      shl(0x80, 0x546f6f206c61746520666f72206e6577)\n        /* \"#utility.yul\":13898:13916   */\n      0x44\n      dup3\n      add\n        /* \"#utility.yul\":13891:13937   */\n      mstore\n        /* \"#utility.yul\":13954:13972   */\n      0x64\n      add\n        /* \"contracts/StemPayLotteryManager.sol\":9461:9520  require(block.timestamp < toL.drawTime, \"Too late for new\") */\n      tag_277\n        /* \"#utility.yul\":13638:13978   */\n      jump\n        /* \"contracts/StemPayLotteryManager.sol\":9461:9520  require(block.timestamp < toL.drawTime, \"Too late for new\") */\n    tag_300:\n        /* \"contracts/StemPayLotteryManager.sol\":9549:9559  msg.sender */\n      caller\n        /* \"contracts/StemPayLotteryManager.sol\":9531:9560  fromL.hasRefunded[msg.sender] */\n      0x00\n      swap1\n      dup2\n      mstore\n        /* \"contracts/StemPayLotteryManager.sol\":9531:9548  fromL.hasRefunded */\n      0x0e\n      dup4\n      add\n        /* \"contracts/StemPayLotteryManager.sol\":9531:9560  fromL.hasRefunded[msg.sender] */\n      0x20\n      mstore\n      0x40\n      dup2\n      keccak256\n        /* \"contracts/StemPayLotteryManager.sol\":9531:9567  fromL.hasRefunded[msg.sender] = true */\n      dup1\n      sload\n      not(0xff)\n      and\n        /* \"contracts/StemPayLotteryManager.sol\":9563:9567  true */\n      0x01\n        /* \"contracts/StemPayLotteryManager.sol\":9531:9567  fromL.hasRefunded[msg.sender] = true */\n      swap1\n      dup2\n      or\n      swap1\n      swap2\n      sstore\n        /* \"contracts/StemPayLotteryManager.sol\":9617:9637  toL.refundableAmount */\n      0x02\n      dup4\n      add\n      sload\n        /* \"contracts/StemPayLotteryManager.sol\":9594:9614  toL.participationFee */\n      swap1\n      dup4\n      add\n      sload\n        /* \"contracts/StemPayLotteryManager.sol\":9594:9637  toL.participationFee - toL.refundableAmount */\n      tag_303\n      swap2\n        /* \"contracts/StemPayLotteryManager.sol\":9617:9637  toL.refundableAmount */\n      swap1\n        /* \"contracts/StemPayLotteryManager.sol\":9594:9637  toL.participationFee - toL.refundableAmount */\n      tag_304\n      jump\t// in\n    tag_303:\n        /* \"contracts/StemPayLotteryManager.sol\":9654:9670  toL.tokenAddress */\n      dup3\n      sload\n        /* \"contracts/StemPayLotteryManager.sol\":9647:9718  IERC20(toL.tokenAddress).transferFrom(msg.sender, address(this), topUp) */\n      mload(0x40)\n      shl(0xe0, 0x23b872dd)\n      dup2\n      mstore\n        /* \"contracts/StemPayLotteryManager.sol\":9685:9695  msg.sender */\n      caller\n        /* \"contracts/StemPayLotteryManager.sol\":9647:9718  IERC20(toL.tokenAddress).transferFrom(msg.sender, address(this), topUp) */\n      0x04\n      dup3\n      add\n        /* \"#utility.yul\":14318:14369   */\n      mstore\n        /* \"contracts/StemPayLotteryManager.sol\":9705:9709  this */\n      address\n        /* \"#utility.yul\":14385:14403   */\n      0x24\n      dup3\n      add\n        /* \"#utility.yul\":14378:14438   */\n      mstore\n        /* \"#utility.yul\":14454:14472   */\n      0x44\n      dup2\n      add\n        /* \"#utility.yul\":14447:14481   */\n      dup4\n      swap1\n      mstore\n        /* \"contracts/StemPayLotteryManager.sol\":9578:9637  uint256 topUp = toL.participationFee - toL.refundableAmount */\n      swap2\n      swap3\n      pop\n      sub(shl(0xa0, 0x01), 0x01)\n        /* \"contracts/StemPayLotteryManager.sol\":9654:9670  toL.tokenAddress */\n      and\n      swap1\n        /* \"contracts/StemPayLotteryManager.sol\":9647:9684  IERC20(toL.tokenAddress).transferFrom */\n      0x23b872dd\n      swap1\n        /* \"#utility.yul\":14291:14309   */\n      0x64\n      add\n        /* \"contracts/StemPayLotteryManager.sol\":9647:9718  IERC20(toL.tokenAddress).transferFrom(msg.sender, address(this), topUp) */\n      0x20\n      mload(0x40)\n      dup1\n      dup4\n      sub\n      dup2\n      0x00\n      dup8\n      gas\n      call\n      iszero\n      dup1\n      iszero\n      tag_308\n      jumpi\n      returndatacopy(0x00, 0x00, returndatasize)\n      revert(0x00, returndatasize)\n    tag_308:\n      pop\n      pop\n      pop\n      pop\n      mload(0x40)\n      returndatasize\n      not(0x1f)\n      0x1f\n      dup3\n      add\n      and\n      dup3\n      add\n      dup1\n      0x40\n      mstore\n      pop\n      dup2\n      add\n      swap1\n      tag_309\n      swap2\n      swap1\n      tag_310\n      jump\t// in\n    tag_309:\n      pop\n        /* \"contracts/StemPayLotteryManager.sol\":9729:9745  toL.participants */\n      0x09\n      dup3\n      add\n        /* \"contracts/StemPayLotteryManager.sol\":9729:9762  toL.participants.push(msg.sender) */\n      dup1\n      sload\n      0x01\n      dup2\n      add\n      dup3\n      sstore\n      0x00\n      swap2\n      dup3\n      mstore\n      0x20\n      dup1\n      dup4\n      keccak256\n      swap1\n      swap2\n      add\n      dup1\n      sload\n      not(sub(shl(0xa0, 0x01), 0x01))\n      and\n        /* \"contracts/StemPayLotteryManager.sol\":9751:9761  msg.sender */\n      caller\n        /* \"contracts/StemPayLotteryManager.sol\":9729:9762  toL.participants.push(msg.sender) */\n      swap1\n      dup2\n      or\n      swap1\n      swap2\n      sstore\n        /* \"contracts/StemPayLotteryManager.sol\":9772:9798  toL.entryCount[msg.sender] */\n      dup3\n      mstore\n        /* \"contracts/StemPayLotteryManager.sol\":9772:9786  toL.entryCount */\n      0x0c\n      dup5\n      add\n        /* \"contracts/StemPayLotteryManager.sol\":9772:9798  toL.entryCount[msg.sender] */\n      swap1\n      mstore\n      0x40\n      dup2\n      keccak256\n        /* \"contracts/StemPayLotteryManager.sol\":9772:9800  toL.entryCount[msg.sender]++ */\n      dup1\n      sload\n      swap2\n      tag_312\n      dup4\n      tag_245\n      jump\t// in\n    tag_312:\n      swap1\n      swap2\n      sstore\n      pop\n      pop\n        /* \"contracts/StemPayLotteryManager.sol\":9816:9848  EnteredLottery(toId, msg.sender) */\n      0x40\n      dup1\n      mload\n        /* \"#utility.yul\":14948:14973   */\n      dup6\n      dup2\n      mstore\n        /* \"contracts/StemPayLotteryManager.sol\":9837:9847  msg.sender */\n      caller\n        /* \"#utility.yul\":15004:15006   */\n      0x20\n        /* \"#utility.yul\":14989:15007   */\n      dup3\n      add\n        /* \"#utility.yul\":14982:15042   */\n      mstore\n        /* \"contracts/StemPayLotteryManager.sol\":9816:9848  EnteredLottery(toId, msg.sender) */\n      0x1e28857182a3b2bb6fbb88287d1ba8cc3a941dd65d4c977286676d27b877a3d9\n      swap2\n        /* \"#utility.yul\":14921:14939   */\n      add\n        /* \"contracts/StemPayLotteryManager.sol\":9816:9848  EnteredLottery(toId, msg.sender) */\n      mload(0x40)\n      dup1\n      swap2\n      sub\n      swap1\n      log1\n        /* \"contracts/StemPayLotteryManager.sol\":9037:9855  {... */\n      pop\n      pop\n      pop\n        /* \"@openzeppelin/contracts/security/ReentrancyGuard.sol\":2303:2323  _nonReentrantAfter() */\n      tag_279\n        /* \"@openzeppelin/contracts/security/ReentrancyGuard.sol\":1716:1717  1 */\n      0x01\n        /* \"@openzeppelin/contracts/security/ReentrancyGuard.sol\":2809:2816  _status */\n      0x00\n        /* \"@openzeppelin/contracts/security/ReentrancyGuard.sol\":2809:2831  _status = _NOT_ENTERED */\n      sstore\n        /* \"@openzeppelin/contracts/security/ReentrancyGuard.sol\":2629:2838  function _nonReentrantAfter() private {... */\n      jump\n        /* \"contracts/StemPayLotteryManager.sol\":4890:5448  function enterLottery(uint256 _lotteryId) external nonReentrant {... */\n    tag_104:\n        /* \"@openzeppelin/contracts/security/ReentrancyGuard.sol\":2261:2282  _nonReentrantBefore() */\n      tag_318\n        /* \"@openzeppelin/contracts/security/ReentrancyGuard.sol\":2261:2280  _nonReentrantBefore */\n      tag_283\n        /* \"@openzeppelin/contracts/security/ReentrancyGuard.sol\":2261:2282  _nonReentrantBefore() */\n      jump\t// in\n    tag_318:\n        /* \"contracts/StemPayLotteryManager.sol\":4964:4981  Lottery storage l */\n      0x00\n        /* \"contracts/StemPayLotteryManager.sol\":4984:5005  lotteries[_lotteryId] */\n      dup2\n      dup2\n      mstore\n        /* \"contracts/StemPayLotteryManager.sol\":4984:4993  lotteries */\n      0x02\n        /* \"contracts/StemPayLotteryManager.sol\":4984:5005  lotteries[_lotteryId] */\n      0x20\n      mstore\n      0x40\n      swap1\n      keccak256\n        /* \"contracts/StemPayLotteryManager.sol\":5023:5033  l.isActive */\n      0x08\n      dup2\n      add\n      sload\n      0xff\n      and\n        /* \"contracts/StemPayLotteryManager.sol\":5023:5051  l.isActive && !l.isCancelled */\n      dup1\n      iszero\n      tag_320\n      jumpi\n      pop\n        /* \"contracts/StemPayLotteryManager.sol\":5038:5051  l.isCancelled */\n      0x08\n      dup2\n      add\n      sload\n      0x010000\n      swap1\n      div\n      0xff\n      and\n        /* \"contracts/StemPayLotteryManager.sol\":5037:5051  !l.isCancelled */\n      iszero\n        /* \"contracts/StemPayLotteryManager.sol\":5023:5051  l.isActive && !l.isCancelled */\n    tag_320:\n        /* \"contracts/StemPayLotteryManager.sol\":5015:5077  require(l.isActive && !l.isCancelled, \"Inactive or cancelled\") */\n      tag_321\n      jumpi\n      mload(0x40)\n      shl(0xe5, 0x461bcd)\n      dup2\n      mstore\n        /* \"#utility.yul\":15255:15257   */\n      0x20\n        /* \"contracts/StemPayLotteryManager.sol\":5015:5077  require(l.isActive && !l.isCancelled, \"Inactive or cancelled\") */\n      0x04\n      dup3\n      add\n        /* \"#utility.yul\":15237:15258   */\n      mstore\n        /* \"#utility.yul\":15294:15296   */\n      0x15\n        /* \"#utility.yul\":15274:15292   */\n      0x24\n      dup3\n      add\n        /* \"#utility.yul\":15267:15297   */\n      mstore\n      shl(0x5a, 0x125b9858dd1a5d99481bdc8818d85b98d95b1b1959)\n        /* \"#utility.yul\":15313:15331   */\n      0x44\n      dup3\n      add\n        /* \"#utility.yul\":15306:15357   */\n      mstore\n        /* \"#utility.yul\":15374:15392   */\n      0x64\n      add\n        /* \"contracts/StemPayLotteryManager.sol\":5015:5077  require(l.isActive && !l.isCancelled, \"Inactive or cancelled\") */\n      tag_277\n        /* \"#utility.yul\":15053:15398   */\n      jump\n        /* \"contracts/StemPayLotteryManager.sol\":5015:5077  require(l.isActive && !l.isCancelled, \"Inactive or cancelled\") */\n    tag_321:\n        /* \"contracts/StemPayLotteryManager.sol\":5113:5114  l */\n      dup1\n        /* \"contracts/StemPayLotteryManager.sol\":5113:5123  l.drawTime */\n      0x04\n      add\n      sload\n        /* \"contracts/StemPayLotteryManager.sol\":5095:5110  block.timestamp */\n      timestamp\n        /* \"contracts/StemPayLotteryManager.sol\":5095:5123  block.timestamp < l.drawTime */\n      lt\n        /* \"contracts/StemPayLotteryManager.sol\":5087:5136  require(block.timestamp < l.drawTime, \"Too late\") */\n      tag_324\n      jumpi\n      mload(0x40)\n      shl(0xe5, 0x461bcd)\n      dup2\n      mstore\n        /* \"#utility.yul\":15605:15607   */\n      0x20\n        /* \"contracts/StemPayLotteryManager.sol\":5087:5136  require(block.timestamp < l.drawTime, \"Too late\") */\n      0x04\n      dup3\n      add\n        /* \"#utility.yul\":15587:15608   */\n      mstore\n        /* \"#utility.yul\":15644:15645   */\n      0x08\n        /* \"#utility.yul\":15624:15642   */\n      0x24\n      dup3\n      add\n        /* \"#utility.yul\":15617:15646   */\n      mstore\n      shl(0xc0, 0x546f6f206c617465)\n        /* \"#utility.yul\":15662:15680   */\n      0x44\n      dup3\n      add\n        /* \"#utility.yul\":15655:15693   */\n      mstore\n        /* \"#utility.yul\":15710:15728   */\n      0x64\n      add\n        /* \"contracts/StemPayLotteryManager.sol\":5087:5136  require(block.timestamp < l.drawTime, \"Too late\") */\n      tag_277\n        /* \"#utility.yul\":15403:15734   */\n      jump\n        /* \"contracts/StemPayLotteryManager.sol\":5087:5136  require(block.timestamp < l.drawTime, \"Too late\") */\n    tag_324:\n        /* \"contracts/StemPayLotteryManager.sol\":5178:5195  l.maxParticipants */\n      0x03\n      dup2\n      add\n      sload\n        /* \"contracts/StemPayLotteryManager.sol\":5154:5168  l.participants */\n      0x09\n      dup3\n      add\n        /* \"contracts/StemPayLotteryManager.sol\":5154:5175  l.participants.length */\n      sload\n        /* \"contracts/StemPayLotteryManager.sol\":5154:5195  l.participants.length < l.maxParticipants */\n      lt\n        /* \"contracts/StemPayLotteryManager.sol\":5146:5216  require(l.participants.length < l.maxParticipants, \"Max participants\") */\n      tag_327\n      jumpi\n      mload(0x40)\n      shl(0xe5, 0x461bcd)\n      dup2\n      mstore\n        /* \"#utility.yul\":15941:15943   */\n      0x20\n        /* \"contracts/StemPayLotteryManager.sol\":5146:5216  require(l.participants.length < l.maxParticipants, \"Max participants\") */\n      0x04\n      dup3\n      add\n        /* \"#utility.yul\":15923:15944   */\n      mstore\n        /* \"#utility.yul\":15980:15982   */\n      0x10\n        /* \"#utility.yul\":15960:15978   */\n      0x24\n      dup3\n      add\n        /* \"#utility.yul\":15953:15983   */\n      mstore\n      shl(0x80, 0x4d6178207061727469636970616e7473)\n        /* \"#utility.yul\":15999:16017   */\n      0x44\n      dup3\n      add\n        /* \"#utility.yul\":15992:16038   */\n      mstore\n        /* \"#utility.yul\":16055:16073   */\n      0x64\n      add\n        /* \"contracts/StemPayLotteryManager.sol\":5146:5216  require(l.participants.length < l.maxParticipants, \"Max participants\") */\n      tag_277\n        /* \"#utility.yul\":15739:16079   */\n      jump\n        /* \"contracts/StemPayLotteryManager.sol\":5146:5216  require(l.participants.length < l.maxParticipants, \"Max participants\") */\n    tag_327:\n        /* \"contracts/StemPayLotteryManager.sol\":5234:5248  l.tokenAddress */\n      dup1\n      sload\n      0x01\n        /* \"contracts/StemPayLotteryManager.sol\":5290:5308  l.participationFee */\n      dup3\n      add\n      sload\n        /* \"contracts/StemPayLotteryManager.sol\":5227:5309  IERC20(l.tokenAddress).transferFrom(msg.sender, address(this), l.participationFee) */\n      mload(0x40)\n      shl(0xe0, 0x23b872dd)\n      dup2\n      mstore\n        /* \"contracts/StemPayLotteryManager.sol\":5263:5273  msg.sender */\n      caller\n        /* \"contracts/StemPayLotteryManager.sol\":5227:5309  IERC20(l.tokenAddress).transferFrom(msg.sender, address(this), l.participationFee) */\n      0x04\n      dup3\n      add\n        /* \"#utility.yul\":14318:14369   */\n      mstore\n        /* \"contracts/StemPayLotteryManager.sol\":5283:5287  this */\n      address\n        /* \"#utility.yul\":14385:14403   */\n      0x24\n      dup3\n      add\n        /* \"#utility.yul\":14378:14438   */\n      mstore\n        /* \"#utility.yul\":14454:14472   */\n      0x44\n      dup2\n      add\n        /* \"#utility.yul\":14447:14481   */\n      swap2\n      swap1\n      swap2\n      mstore\n      sub(shl(0xa0, 0x01), 0x01)\n        /* \"contracts/StemPayLotteryManager.sol\":5234:5248  l.tokenAddress */\n      swap1\n      swap2\n      and\n      swap1\n        /* \"contracts/StemPayLotteryManager.sol\":5227:5262  IERC20(l.tokenAddress).transferFrom */\n      0x23b872dd\n      swap1\n        /* \"#utility.yul\":14291:14309   */\n      0x64\n      add\n        /* \"contracts/StemPayLotteryManager.sol\":5227:5309  IERC20(l.tokenAddress).transferFrom(msg.sender, address(this), l.participationFee) */\n      0x20\n      mload(0x40)\n      dup1\n      dup4\n      sub\n      dup2\n      0x00\n      dup8\n      gas\n      call\n      iszero\n      dup1\n      iszero\n      tag_332\n      jumpi\n      returndatacopy(0x00, 0x00, returndatasize)\n      revert(0x00, returndatasize)\n    tag_332:\n      pop\n      pop\n      pop\n      pop\n      mload(0x40)\n      returndatasize\n      not(0x1f)\n      0x1f\n      dup3\n      add\n      and\n      dup3\n      add\n      dup1\n      0x40\n      mstore\n      pop\n      dup2\n      add\n      swap1\n      tag_333\n      swap2\n      swap1\n      tag_310\n      jump\t// in\n    tag_333:\n      pop\n        /* \"contracts/StemPayLotteryManager.sol\":5320:5334  l.participants */\n      0x09\n      dup2\n      add\n        /* \"contracts/StemPayLotteryManager.sol\":5320:5351  l.participants.push(msg.sender) */\n      dup1\n      sload\n      0x01\n      dup2\n      add\n      dup3\n      sstore\n      0x00\n      swap2\n      dup3\n      mstore\n      0x20\n      dup1\n      dup4\n      keccak256\n      swap1\n      swap2\n      add\n      dup1\n      sload\n      not(sub(shl(0xa0, 0x01), 0x01))\n      and\n        /* \"contracts/StemPayLotteryManager.sol\":5340:5350  msg.sender */\n      caller\n        /* \"contracts/StemPayLotteryManager.sol\":5320:5351  l.participants.push(msg.sender) */\n      swap1\n      dup2\n      or\n      swap1\n      swap2\n      sstore\n        /* \"contracts/StemPayLotteryManager.sol\":5361:5385  l.entryCount[msg.sender] */\n      dup3\n      mstore\n        /* \"contracts/StemPayLotteryManager.sol\":5361:5373  l.entryCount */\n      0x0c\n      dup4\n      add\n        /* \"contracts/StemPayLotteryManager.sol\":5361:5385  l.entryCount[msg.sender] */\n      swap1\n      mstore\n      0x40\n      dup2\n      keccak256\n        /* \"contracts/StemPayLotteryManager.sol\":5361:5387  l.entryCount[msg.sender]++ */\n      dup1\n      sload\n      swap2\n      tag_335\n      dup4\n      tag_245\n      jump\t// in\n    tag_335:\n      swap1\n      swap2\n      sstore\n      pop\n      pop\n        /* \"contracts/StemPayLotteryManager.sol\":5403:5441  EnteredLottery(_lotteryId, msg.sender) */\n      0x40\n      dup1\n      mload\n        /* \"#utility.yul\":14948:14973   */\n      dup4\n      dup2\n      mstore\n        /* \"contracts/StemPayLotteryManager.sol\":5430:5440  msg.sender */\n      caller\n        /* \"#utility.yul\":15004:15006   */\n      0x20\n        /* \"#utility.yul\":14989:15007   */\n      dup3\n      add\n        /* \"#utility.yul\":14982:15042   */\n      mstore\n        /* \"contracts/StemPayLotteryManager.sol\":5403:5441  EnteredLottery(_lotteryId, msg.sender) */\n      0x1e28857182a3b2bb6fbb88287d1ba8cc3a941dd65d4c977286676d27b877a3d9\n      swap2\n        /* \"#utility.yul\":14921:14939   */\n      add\n        /* \"contracts/StemPayLotteryManager.sol\":5403:5441  EnteredLottery(_lotteryId, msg.sender) */\n      mload(0x40)\n      dup1\n      swap2\n      sub\n      swap1\n      log1\n        /* \"contracts/StemPayLotteryManager.sol\":4954:5448  {... */\n      pop\n        /* \"@openzeppelin/contracts/security/ReentrancyGuard.sol\":2303:2323  _nonReentrantAfter() */\n      tag_337\n        /* \"@openzeppelin/contracts/security/ReentrancyGuard.sol\":1716:1717  1 */\n      0x01\n        /* \"@openzeppelin/contracts/security/ReentrancyGuard.sol\":2809:2816  _status */\n      0x00\n        /* \"@openzeppelin/contracts/security/ReentrancyGuard.sol\":2809:2831  _status = _NOT_ENTERED */\n      sstore\n        /* \"@openzeppelin/contracts/security/ReentrancyGuard.sol\":2629:2838  function _nonReentrantAfter() private {... */\n      jump\n        /* \"@openzeppelin/contracts/security/ReentrancyGuard.sol\":2303:2323  _nonReentrantAfter() */\n    tag_337:\n        /* \"contracts/StemPayLotteryManager.sol\":4890:5448  function enterLottery(uint256 _lotteryId) external nonReentrant {... */\n      pop\n      jump\t// out\n        /* \"contracts/StemPayLotteryManager.sol\":3849:4883  function createLottery(... */\n    tag_114:\n        /* \"@openzeppelin/contracts-upgradeable/access/OwnableUpgradeable.sol\":2334:2347  _checkOwner() */\n      tag_340\n        /* \"@openzeppelin/contracts-upgradeable/access/OwnableUpgradeable.sol\":2334:2345  _checkOwner */\n      tag_341\n        /* \"@openzeppelin/contracts-upgradeable/access/OwnableUpgradeable.sol\":2334:2347  _checkOwner() */\n      jump\t// in\n    tag_340:\n        /* \"contracts/StemPayLotteryManager.sol\":4192:4209  _refundableAmount */\n      dup6\n        /* \"contracts/StemPayLotteryManager.sol\":4171:4188  _participationFee */\n      dup8\n        /* \"contracts/StemPayLotteryManager.sol\":4171:4209  _participationFee >= _refundableAmount */\n      lt\n      iszero\n        /* \"contracts/StemPayLotteryManager.sol\":4163:4227  require(_participationFee >= _refundableAmount, \"Refund <= fee\") */\n      tag_343\n      jumpi\n      mload(0x40)\n      shl(0xe5, 0x461bcd)\n      dup2\n      mstore\n        /* \"#utility.yul\":16286:16288   */\n      0x20\n        /* \"contracts/StemPayLotteryManager.sol\":4163:4227  require(_participationFee >= _refundableAmount, \"Refund <= fee\") */\n      0x04\n      dup3\n      add\n        /* \"#utility.yul\":16268:16289   */\n      mstore\n        /* \"#utility.yul\":16325:16327   */\n      0x0d\n        /* \"#utility.yul\":16305:16323   */\n      0x24\n      dup3\n      add\n        /* \"#utility.yul\":16298:16328   */\n      mstore\n      shl(0x98, 0x526566756e64203c3d20666565)\n        /* \"#utility.yul\":16344:16362   */\n      0x44\n      dup3\n      add\n        /* \"#utility.yul\":16337:16380   */\n      mstore\n        /* \"#utility.yul\":16397:16415   */\n      0x64\n      add\n        /* \"contracts/StemPayLotteryManager.sol\":4163:4227  require(_participationFee >= _refundableAmount, \"Refund <= fee\") */\n      tag_277\n        /* \"#utility.yul\":16084:16421   */\n      jump\n        /* \"contracts/StemPayLotteryManager.sol\":4163:4227  require(_participationFee >= _refundableAmount, \"Refund <= fee\") */\n    tag_343:\n        /* \"contracts/StemPayLotteryManager.sol\":4257:4272  block.timestamp */\n      timestamp\n        /* \"contracts/StemPayLotteryManager.sol\":4245:4254  _drawTime */\n      dup5\n        /* \"contracts/StemPayLotteryManager.sol\":4245:4272  _drawTime > block.timestamp */\n      gt\n        /* \"contracts/StemPayLotteryManager.sol\":4237:4294  require(_drawTime > block.timestamp, \"Invalid draw time\") */\n      tag_346\n      jumpi\n      mload(0x40)\n      shl(0xe5, 0x461bcd)\n      dup2\n      mstore\n        /* \"#utility.yul\":16628:16630   */\n      0x20\n        /* \"contracts/StemPayLotteryManager.sol\":4237:4294  require(_drawTime > block.timestamp, \"Invalid draw time\") */\n      0x04\n      dup3\n      add\n        /* \"#utility.yul\":16610:16631   */\n      mstore\n        /* \"#utility.yul\":16667:16669   */\n      0x11\n        /* \"#utility.yul\":16647:16665   */\n      0x24\n      dup3\n      add\n        /* \"#utility.yul\":16640:16670   */\n      mstore\n      shl(0x78, 0x496e76616c696420647261772074696d65)\n        /* \"#utility.yul\":16686:16704   */\n      0x44\n      dup3\n      add\n        /* \"#utility.yul\":16679:16726   */\n      mstore\n        /* \"#utility.yul\":16743:16761   */\n      0x64\n      add\n        /* \"contracts/StemPayLotteryManager.sol\":4237:4294  require(_drawTime > block.timestamp, \"Invalid draw time\") */\n      tag_277\n        /* \"#utility.yul\":16426:16767   */\n      jump\n        /* \"contracts/StemPayLotteryManager.sol\":4237:4294  require(_drawTime > block.timestamp, \"Invalid draw time\") */\n    tag_346:\n        /* \"contracts/StemPayLotteryManager.sol\":4305:4319  lotteryCounter */\n      0x03\n        /* \"contracts/StemPayLotteryManager.sol\":4305:4321  lotteryCounter++ */\n      dup1\n      sload\n      swap1\n        /* \"contracts/StemPayLotteryManager.sol\":4305:4319  lotteryCounter */\n      0x00\n        /* \"contracts/StemPayLotteryManager.sol\":4305:4321  lotteryCounter++ */\n      tag_349\n      dup4\n      tag_245\n      jump\t// in\n    tag_349:\n      swap1\n      swap2\n      sstore\n      pop\n      pop\n        /* \"contracts/StemPayLotteryManager.sol\":4361:4375  lotteryCounter */\n      0x03\n      dup1\n      sload\n        /* \"contracts/StemPayLotteryManager.sol\":4331:4348  Lottery storage l */\n      0x00\n        /* \"contracts/StemPayLotteryManager.sol\":4351:4376  lotteries[lotteryCounter] */\n      swap1\n      dup2\n      mstore\n        /* \"contracts/StemPayLotteryManager.sol\":4351:4360  lotteries */\n      0x02\n        /* \"contracts/StemPayLotteryManager.sol\":4351:4376  lotteries[lotteryCounter] */\n      0x20\n      dup2\n      dup2\n      mstore\n      0x40\n      dup1\n      dup5\n      keccak256\n        /* \"contracts/StemPayLotteryManager.sol\":4386:4416  l.tokenAddress = _tokenAddress */\n      dup1\n      sload\n      not(sub(shl(0xa0, 0x01), 0x01))\n      and\n      sub(shl(0xa0, 0x01), 0x01)\n      dup16\n      and\n      or\n      dup2\n      sstore\n      0x01\n        /* \"contracts/StemPayLotteryManager.sol\":4426:4444  l.participationFee */\n      dup1\n      dup3\n      add\n        /* \"contracts/StemPayLotteryManager.sol\":4426:4464  l.participationFee = _participationFee */\n      dup15\n      swap1\n      sstore\n        /* \"contracts/StemPayLotteryManager.sol\":4474:4492  l.refundableAmount */\n      swap4\n      dup2\n      add\n        /* \"contracts/StemPayLotteryManager.sol\":4474:4512  l.refundableAmount = _refundableAmount */\n      dup13\n      swap1\n      sstore\n        /* \"contracts/StemPayLotteryManager.sol\":4522:4539  l.maxParticipants */\n      dup1\n      dup7\n      add\n        /* \"contracts/StemPayLotteryManager.sol\":4522:4558  l.maxParticipants = _maxParticipants */\n      dup12\n      swap1\n      sstore\n        /* \"contracts/StemPayLotteryManager.sol\":4568:4578  l.drawTime */\n      0x04\n      dup2\n      add\n        /* \"contracts/StemPayLotteryManager.sol\":4568:4590  l.drawTime = _drawTime */\n      dup11\n      swap1\n      sstore\n        /* \"contracts/StemPayLotteryManager.sol\":4600:4613  l.prizeAmount */\n      0x05\n      dup2\n      add\n        /* \"contracts/StemPayLotteryManager.sol\":4600:4628  l.prizeAmount = _prizeAmount */\n      dup10\n      swap1\n      sstore\n        /* \"contracts/StemPayLotteryManager.sol\":4638:4655  l.feeToInvestment */\n      0x06\n      dup2\n      add\n        /* \"contracts/StemPayLotteryManager.sol\":4638:4674  l.feeToInvestment = _feeToInvestment */\n      dup9\n      swap1\n      sstore\n        /* \"contracts/StemPayLotteryManager.sol\":4684:4697  l.feeToProfit */\n      0x07\n      dup2\n      add\n        /* \"contracts/StemPayLotteryManager.sol\":4684:4712  l.feeToProfit = _feeToProfit */\n      dup8\n      swap1\n      sstore\n        /* \"contracts/StemPayLotteryManager.sol\":4722:4732  l.isActive */\n      0x08\n      dup2\n      add\n        /* \"contracts/StemPayLotteryManager.sol\":4722:4739  l.isActive = true */\n      dup1\n      sload\n      not(0xff)\n      and\n      dup6\n      or\n      swap1\n      sstore\n        /* \"contracts/StemPayLotteryManager.sol\":4769:4783  lotteryCounter */\n      swap5\n      sload\n        /* \"contracts/StemPayLotteryManager.sol\":4750:4763  allLotteryIds */\n      0x0a\n        /* \"contracts/StemPayLotteryManager.sol\":4750:4784  allLotteryIds.push(lotteryCounter) */\n      dup1\n      sload\n      swap5\n      dup6\n      add\n      dup2\n      sstore\n      swap1\n      swap5\n      mstore\n      0xc65a7bb8d6351c1cf70c95a316cc6a92839c986682d98bc35f958f4883f9d2a8\n      swap1\n      swap3\n      add\n      dup4\n      swap1\n      sstore\n        /* \"contracts/StemPayLotteryManager.sol\":4846:4876  LotteryCreated(lotteryCounter) */\n      swap1\n      mload\n        /* \"#utility.yul\":1547:1572   */\n      swap2\n      dup3\n      mstore\n        /* \"contracts/StemPayLotteryManager.sol\":4846:4876  LotteryCreated(lotteryCounter) */\n      0x9e0023bebcc752baaa41057318405b5a6a8e9c6372b519717cfdf238e5caa795\n      swap2\n        /* \"#utility.yul\":1520:1538   */\n      add\n        /* \"contracts/StemPayLotteryManager.sol\":4846:4876  LotteryCreated(lotteryCounter) */\n      mload(0x40)\n      dup1\n      swap2\n      sub\n      swap1\n      log1\n        /* \"contracts/StemPayLotteryManager.sol\":4153:4883  {... */\n      pop\n        /* \"contracts/StemPayLotteryManager.sol\":3849:4883  function createLottery(... */\n      pop\n      pop\n      pop\n      pop\n      pop\n      pop\n      pop\n      pop\n      jump\t// out\n        /* \"contracts/StemPayLotteryManager.sol\":7554:7815  function cancelLottery(uint256 _lotteryId) external onlyOwner {... */\n    tag_118:\n        /* \"@openzeppelin/contracts-upgradeable/access/OwnableUpgradeable.sol\":2334:2347  _checkOwner() */\n      tag_353\n        /* \"@openzeppelin/contracts-upgradeable/access/OwnableUpgradeable.sol\":2334:2345  _checkOwner */\n      tag_341\n        /* \"@openzeppelin/contracts-upgradeable/access/OwnableUpgradeable.sol\":2334:2347  _checkOwner() */\n      jump\t// in\n    tag_353:\n        /* \"contracts/StemPayLotteryManager.sol\":7626:7643  Lottery storage l */\n      0x00\n        /* \"contracts/StemPayLotteryManager.sol\":7646:7667  lotteries[_lotteryId] */\n      dup2\n      dup2\n      mstore\n        /* \"contracts/StemPayLotteryManager.sol\":7646:7655  lotteries */\n      0x02\n        /* \"contracts/StemPayLotteryManager.sol\":7646:7667  lotteries[_lotteryId] */\n      0x20\n      mstore\n      0x40\n      swap1\n      keccak256\n        /* \"contracts/StemPayLotteryManager.sol\":7686:7699  l.isCancelled */\n      0x08\n      dup2\n      add\n      sload\n      0x010000\n      swap1\n      div\n      0xff\n      and\n        /* \"contracts/StemPayLotteryManager.sol\":7685:7699  !l.isCancelled */\n      iszero\n        /* \"contracts/StemPayLotteryManager.sol\":7685:7713  !l.isCancelled && !l.isDrawn */\n      dup1\n      iszero\n      tag_355\n      jumpi\n      pop\n        /* \"contracts/StemPayLotteryManager.sol\":7704:7713  l.isDrawn */\n      0x08\n      dup2\n      add\n      sload\n      0x0100\n      swap1\n      div\n      0xff\n      and\n        /* \"contracts/StemPayLotteryManager.sol\":7703:7713  !l.isDrawn */\n      iszero\n        /* \"contracts/StemPayLotteryManager.sol\":7685:7713  !l.isCancelled && !l.isDrawn */\n    tag_355:\n        /* \"contracts/StemPayLotteryManager.sol\":7677:7735  require(!l.isCancelled && !l.isDrawn, \"Already finalized\") */\n      tag_356\n      jumpi\n      mload(0x40)\n      shl(0xe5, 0x461bcd)\n      dup2\n      mstore\n        /* \"#utility.yul\":16974:16976   */\n      0x20\n        /* \"contracts/StemPayLotteryManager.sol\":7677:7735  require(!l.isCancelled && !l.isDrawn, \"Already finalized\") */\n      0x04\n      dup3\n      add\n        /* \"#utility.yul\":16956:16977   */\n      mstore\n        /* \"#utility.yul\":17013:17015   */\n      0x11\n        /* \"#utility.yul\":16993:17011   */\n      0x24\n      dup3\n      add\n        /* \"#utility.yul\":16986:17016   */\n      mstore\n      shl(0x7a, 0x105b1c9958591e48199a5b985b1a5e9959)\n        /* \"#utility.yul\":17032:17050   */\n      0x44\n      dup3\n      add\n        /* \"#utility.yul\":17025:17072   */\n      mstore\n        /* \"#utility.yul\":17089:17107   */\n      0x64\n      add\n        /* \"contracts/StemPayLotteryManager.sol\":7677:7735  require(!l.isCancelled && !l.isDrawn, \"Already finalized\") */\n      tag_277\n        /* \"#utility.yul\":16772:17113   */\n      jump\n        /* \"contracts/StemPayLotteryManager.sol\":7677:7735  require(!l.isCancelled && !l.isDrawn, \"Already finalized\") */\n    tag_356:\n        /* \"contracts/StemPayLotteryManager.sol\":7745:7758  l.isCancelled */\n      0x08\n      dup2\n      add\n        /* \"contracts/StemPayLotteryManager.sol\":7745:7765  l.isCancelled = true */\n      dup1\n      sload\n      not(0xff0000)\n      and\n      0x010000\n      or\n      swap1\n      sstore\n        /* \"contracts/StemPayLotteryManager.sol\":7780:7808  LotteryCancelled(_lotteryId) */\n      mload(0x40)\n      0xc3dac690cf4c3ae8964f18b8f09f7f9a75d3962a8cbb7cd689df2c291bb5b2dd\n      swap1\n      tag_359\n      swap1\n        /* \"contracts/StemPayLotteryManager.sol\":7797:7807  _lotteryId */\n      dup5\n        /* \"#utility.yul\":1547:1572   */\n      dup2\n      mstore\n        /* \"#utility.yul\":1535:1537   */\n      0x20\n        /* \"#utility.yul\":1520:1538   */\n      add\n      swap1\n        /* \"#utility.yul\":1401:1578   */\n      jump\n        /* \"contracts/StemPayLotteryManager.sol\":7780:7808  LotteryCancelled(_lotteryId) */\n    tag_359:\n      mload(0x40)\n      dup1\n      swap2\n      sub\n      swap1\n      log1\n        /* \"contracts/StemPayLotteryManager.sol\":7616:7815  {... */\n      pop\n        /* \"contracts/StemPayLotteryManager.sol\":7554:7815  function cancelLottery(uint256 _lotteryId) external onlyOwner {... */\n      pop\n      jump\t// out\n        /* \"@openzeppelin/contracts-upgradeable/proxy/utils/UUPSUpgradeable.sol\":4161:4375  function upgradeToAndCall(address newImplementation, bytes memory data) public payable virtual onlyProxy {... */\n    tag_126:\n        /* \"@openzeppelin/contracts-upgradeable/proxy/utils/UUPSUpgradeable.sol\":2655:2668  _checkProxy() */\n      tag_361\n        /* \"@openzeppelin/contracts-upgradeable/proxy/utils/UUPSUpgradeable.sol\":2655:2666  _checkProxy */\n      tag_362\n        /* \"@openzeppelin/contracts-upgradeable/proxy/utils/UUPSUpgradeable.sol\":2655:2668  _checkProxy() */\n      jump\t// in\n    tag_361:\n        /* \"@openzeppelin/contracts-upgradeable/proxy/utils/UUPSUpgradeable.sol\":4276:4312  _authorizeUpgrade(newImplementation) */\n      tag_364\n        /* \"@openzeppelin/contracts-upgradeable/proxy/utils/UUPSUpgradeable.sol\":4294:4311  newImplementation */\n      dup3\n        /* \"@openzeppelin/contracts-upgradeable/proxy/utils/UUPSUpgradeable.sol\":4276:4293  _authorizeUpgrade */\n      tag_365\n        /* \"@openzeppelin/contracts-upgradeable/proxy/utils/UUPSUpgradeable.sol\":4276:4312  _authorizeUpgrade(newImplementation) */\n      jump\t// in\n    tag_364:\n        /* \"@openzeppelin/contracts-upgradeable/proxy/utils/UUPSUpgradeable.sol\":4322:4368  _upgradeToAndCallUUPS(newImplementation, data) */\n      tag_279\n        /* \"@openzeppelin/contracts-upgradeable/proxy/utils/UUPSUpgradeable.sol\":4344:4361  newImplementation */\n      dup3\n        /* \"@openzeppelin/contracts-upgradeable/proxy/utils/UUPSUpgradeable.sol\":4363:4367  data */\n      dup3\n        /* \"@openzeppelin/contracts-upgradeable/proxy/utils/UUPSUpgradeable.sol\":4322:4343  _upgradeToAndCallUUPS */\n      tag_367\n        /* \"@openzeppelin/contracts-upgradeable/proxy/utils/UUPSUpgradeable.sol\":4322:4368  _upgradeToAndCallUUPS(newImplementation, data) */\n      jump\t// in\n        /* \"@openzeppelin/contracts-upgradeable/proxy/utils/UUPSUpgradeable.sol\":3708:3842  function proxiableUUID() external view virtual notDelegated returns (bytes32) {... */\n    tag_129:\n        /* \"@openzeppelin/contracts-upgradeable/proxy/utils/UUPSUpgradeable.sol\":3777:3784  bytes32 */\n      0x00\n        /* \"@openzeppelin/contracts-upgradeable/proxy/utils/UUPSUpgradeable.sol\":2926:2946  _checkNotDelegated() */\n      tag_369\n        /* \"@openzeppelin/contracts-upgradeable/proxy/utils/UUPSUpgradeable.sol\":2926:2944  _checkNotDelegated */\n      tag_370\n        /* \"@openzeppelin/contracts-upgradeable/proxy/utils/UUPSUpgradeable.sol\":2926:2946  _checkNotDelegated() */\n      jump\t// in\n    tag_369:\n      pop\n      mload(0x00)\n      codecopy(0x00, data_75b20eef8615de99c108b05f0dbda081c91897128caa336d75dffb97c4132b4d, 0x20)\n      mload(0x00)\n      swap1\n      0x00\n      mstore\n        /* \"@openzeppelin/contracts-upgradeable/proxy/utils/UUPSUpgradeable.sol\":3708:3842  function proxiableUUID() external view virtual notDelegated returns (bytes32) {... */\n      swap1\n      jump\t// out\n        /* \"contracts/StemPayLotteryManager.sol\":7821:8333  function claimRefund(uint256 _lotteryId) external nonReentrant {... */\n    tag_135:\n        /* \"@openzeppelin/contracts/security/ReentrancyGuard.sol\":2261:2282  _nonReentrantBefore() */\n      tag_373\n        /* \"@openzeppelin/contracts/security/ReentrancyGuard.sol\":2261:2280  _nonReentrantBefore */\n      tag_283\n        /* \"@openzeppelin/contracts/security/ReentrancyGuard.sol\":2261:2282  _nonReentrantBefore() */\n      jump\t// in\n    tag_373:\n        /* \"contracts/StemPayLotteryManager.sol\":7894:7911  Lottery storage l */\n      0x00\n        /* \"contracts/StemPayLotteryManager.sol\":7914:7935  lotteries[_lotteryId] */\n      dup2\n      dup2\n      mstore\n        /* \"contracts/StemPayLotteryManager.sol\":7914:7923  lotteries */\n      0x02\n        /* \"contracts/StemPayLotteryManager.sol\":7914:7935  lotteries[_lotteryId] */\n      0x20\n      mstore\n      0x40\n      swap1\n      keccak256\n        /* \"contracts/StemPayLotteryManager.sol\":7953:7966  l.isCancelled */\n      0x08\n      dup2\n      add\n      sload\n      0x010000\n      swap1\n      div\n      0xff\n      and\n      dup1\n        /* \"contracts/StemPayLotteryManager.sol\":7953:8007  l.isCancelled || (l.isDrawn && l.winner != msg.sender) */\n      tag_376\n      jumpi\n      pop\n        /* \"contracts/StemPayLotteryManager.sol\":7971:7980  l.isDrawn */\n      0x08\n      dup2\n      add\n      sload\n      0x0100\n      swap1\n      div\n      0xff\n      and\n        /* \"contracts/StemPayLotteryManager.sol\":7971:8006  l.isDrawn && l.winner != msg.sender */\n      dup1\n      iszero\n      tag_376\n      jumpi\n      pop\n        /* \"contracts/StemPayLotteryManager.sol\":7984:7992  l.winner */\n      0x0a\n      dup2\n      add\n      sload\n      sub(shl(0xa0, 0x01), 0x01)\n      and\n        /* \"contracts/StemPayLotteryManager.sol\":7996:8006  msg.sender */\n      caller\n        /* \"contracts/StemPayLotteryManager.sol\":7984:8006  l.winner != msg.sender */\n      eq\n      iszero\n        /* \"contracts/StemPayLotteryManager.sol\":7971:8006  l.isDrawn && l.winner != msg.sender */\n    tag_376:\n        /* \"contracts/StemPayLotteryManager.sol\":7945:8024  require(l.isCancelled || (l.isDrawn && l.winner != msg.sender), \"Not eligible\") */\n      tag_377\n      jumpi\n      mload(0x40)\n      shl(0xe5, 0x461bcd)\n      dup2\n      mstore\n        /* \"#utility.yul\":17320:17322   */\n      0x20\n        /* \"contracts/StemPayLotteryManager.sol\":7945:8024  require(l.isCancelled || (l.isDrawn && l.winner != msg.sender), \"Not eligible\") */\n      0x04\n      dup3\n      add\n        /* \"#utility.yul\":17302:17323   */\n      mstore\n        /* \"#utility.yul\":17359:17361   */\n      0x0c\n        /* \"#utility.yul\":17339:17357   */\n      0x24\n      dup3\n      add\n        /* \"#utility.yul\":17332:17362   */\n      mstore\n      shl(0xa0, 0x4e6f7420656c696769626c65)\n        /* \"#utility.yul\":17378:17396   */\n      0x44\n      dup3\n      add\n        /* \"#utility.yul\":17371:17413   */\n      mstore\n        /* \"#utility.yul\":17430:17448   */\n      0x64\n      add\n        /* \"contracts/StemPayLotteryManager.sol\":7945:8024  require(l.isCancelled || (l.isDrawn && l.winner != msg.sender), \"Not eligible\") */\n      tag_277\n        /* \"#utility.yul\":17118:17454   */\n      jump\n        /* \"contracts/StemPayLotteryManager.sol\":7945:8024  require(l.isCancelled || (l.isDrawn && l.winner != msg.sender), \"Not eligible\") */\n    tag_377:\n        /* \"contracts/StemPayLotteryManager.sol\":8057:8067  msg.sender */\n      caller\n        /* \"contracts/StemPayLotteryManager.sol\":8043:8068  l.hasRefunded[msg.sender] */\n      0x00\n      swap1\n      dup2\n      mstore\n        /* \"contracts/StemPayLotteryManager.sol\":8043:8056  l.hasRefunded */\n      0x0e\n      dup3\n      add\n        /* \"contracts/StemPayLotteryManager.sol\":8043:8068  l.hasRefunded[msg.sender] */\n      0x20\n      mstore\n      0x40\n      swap1\n      keccak256\n      sload\n      0xff\n      and\n        /* \"contracts/StemPayLotteryManager.sol\":8042:8068  !l.hasRefunded[msg.sender] */\n      iszero\n        /* \"contracts/StemPayLotteryManager.sol\":8034:8089  require(!l.hasRefunded[msg.sender], \"Already refunded\") */\n      tag_380\n      jumpi\n      mload(0x40)\n      shl(0xe5, 0x461bcd)\n      dup2\n      mstore\n        /* \"#utility.yul\":17661:17663   */\n      0x20\n        /* \"contracts/StemPayLotteryManager.sol\":8034:8089  require(!l.hasRefunded[msg.sender], \"Already refunded\") */\n      0x04\n      dup3\n      add\n        /* \"#utility.yul\":17643:17664   */\n      mstore\n        /* \"#utility.yul\":17700:17702   */\n      0x10\n        /* \"#utility.yul\":17680:17698   */\n      0x24\n      dup3\n      add\n        /* \"#utility.yul\":17673:17703   */\n      mstore\n      shl(0x82, 0x105b1c9958591e481c99599d5b991959)\n        /* \"#utility.yul\":17719:17737   */\n      0x44\n      dup3\n      add\n        /* \"#utility.yul\":17712:17758   */\n      mstore\n        /* \"#utility.yul\":17775:17793   */\n      0x64\n      add\n        /* \"contracts/StemPayLotteryManager.sol\":8034:8089  require(!l.hasRefunded[msg.sender], \"Already refunded\") */\n      tag_277\n        /* \"#utility.yul\":17459:17799   */\n      jump\n        /* \"contracts/StemPayLotteryManager.sol\":8034:8089  require(!l.hasRefunded[msg.sender], \"Already refunded\") */\n    tag_380:\n        /* \"contracts/StemPayLotteryManager.sol\":8120:8130  msg.sender */\n      caller\n        /* \"contracts/StemPayLotteryManager.sol\":8134:8135  0 */\n      0x00\n        /* \"contracts/StemPayLotteryManager.sol\":8107:8131  l.entryCount[msg.sender] */\n      swap1\n      dup2\n      mstore\n        /* \"contracts/StemPayLotteryManager.sol\":8107:8119  l.entryCount */\n      0x0c\n      dup3\n      add\n        /* \"contracts/StemPayLotteryManager.sol\":8107:8131  l.entryCount[msg.sender] */\n      0x20\n      mstore\n      0x40\n      swap1\n      keccak256\n      sload\n        /* \"contracts/StemPayLotteryManager.sol\":8099:8150  require(l.entryCount[msg.sender] > 0, \"No entries\") */\n      tag_383\n      jumpi\n      mload(0x40)\n      shl(0xe5, 0x461bcd)\n      dup2\n      mstore\n        /* \"#utility.yul\":18006:18008   */\n      0x20\n        /* \"contracts/StemPayLotteryManager.sol\":8099:8150  require(l.entryCount[msg.sender] > 0, \"No entries\") */\n      0x04\n      dup3\n      add\n        /* \"#utility.yul\":17988:18009   */\n      mstore\n        /* \"#utility.yul\":18045:18047   */\n      0x0a\n        /* \"#utility.yul\":18025:18043   */\n      0x24\n      dup3\n      add\n        /* \"#utility.yul\":18018:18048   */\n      mstore\n      shl(0xb0, 0x4e6f20656e7472696573)\n        /* \"#utility.yul\":18064:18082   */\n      0x44\n      dup3\n      add\n        /* \"#utility.yul\":18057:18097   */\n      mstore\n        /* \"#utility.yul\":18114:18132   */\n      0x64\n      add\n        /* \"contracts/StemPayLotteryManager.sol\":8099:8150  require(l.entryCount[msg.sender] > 0, \"No entries\") */\n      tag_277\n        /* \"#utility.yul\":17804:18138   */\n      jump\n        /* \"contracts/StemPayLotteryManager.sol\":8099:8150  require(l.entryCount[msg.sender] > 0, \"No entries\") */\n    tag_383:\n        /* \"contracts/StemPayLotteryManager.sol\":8175:8185  msg.sender */\n      caller\n        /* \"contracts/StemPayLotteryManager.sol\":8161:8186  l.hasRefunded[msg.sender] */\n      0x00\n      swap1\n      dup2\n      mstore\n        /* \"contracts/StemPayLotteryManager.sol\":8161:8174  l.hasRefunded */\n      0x0e\n      dup3\n      add\n        /* \"contracts/StemPayLotteryManager.sol\":8161:8186  l.hasRefunded[msg.sender] */\n      0x20\n      swap1\n      dup2\n      mstore\n      0x40\n      dup1\n      dup4\n      keccak256\n        /* \"contracts/StemPayLotteryManager.sol\":8161:8193  l.hasRefunded[msg.sender] = true */\n      dup1\n      sload\n      not(0xff)\n      and\n        /* \"contracts/StemPayLotteryManager.sol\":8189:8193  true */\n      0x01\n        /* \"contracts/StemPayLotteryManager.sol\":8161:8193  l.hasRefunded[msg.sender] = true */\n      or\n      swap1\n      sstore\n        /* \"contracts/StemPayLotteryManager.sol\":8241:8253  l.entryCount */\n      0x0c\n      dup5\n      add\n        /* \"contracts/StemPayLotteryManager.sol\":8241:8265  l.entryCount[msg.sender] */\n      swap1\n      swap2\n      mstore\n      dup2\n      keccak256\n      sload\n        /* \"contracts/StemPayLotteryManager.sol\":8220:8238  l.refundableAmount */\n      0x02\n      dup4\n      add\n      sload\n        /* \"contracts/StemPayLotteryManager.sol\":8220:8265  l.refundableAmount * l.entryCount[msg.sender] */\n      tag_386\n      swap2\n        /* \"contracts/StemPayLotteryManager.sol\":8241:8265  l.entryCount[msg.sender] */\n      swap1\n        /* \"contracts/StemPayLotteryManager.sol\":8220:8265  l.refundableAmount * l.entryCount[msg.sender] */\n      tag_387\n      jump\t// in\n    tag_386:\n        /* \"contracts/StemPayLotteryManager.sol\":8282:8296  l.tokenAddress */\n      dup3\n      sload\n        /* \"contracts/StemPayLotteryManager.sol\":8275:8326  IERC20(l.tokenAddress).transfer(msg.sender, amount) */\n      mload(0x40)\n      shl(0xe0, 0xa9059cbb)\n      dup2\n      mstore\n        /* \"contracts/StemPayLotteryManager.sol\":8307:8317  msg.sender */\n      caller\n        /* \"contracts/StemPayLotteryManager.sol\":8275:8326  IERC20(l.tokenAddress).transfer(msg.sender, amount) */\n      0x04\n      dup3\n      add\n        /* \"#utility.yul\":18490:18541   */\n      mstore\n        /* \"#utility.yul\":18557:18575   */\n      0x24\n      dup2\n      add\n        /* \"#utility.yul\":18550:18584   */\n      dup4\n      swap1\n      mstore\n        /* \"contracts/StemPayLotteryManager.sol\":8203:8265  uint256 amount = l.refundableAmount * l.entryCount[msg.sender] */\n      swap2\n      swap3\n      pop\n      sub(shl(0xa0, 0x01), 0x01)\n        /* \"contracts/StemPayLotteryManager.sol\":8282:8296  l.tokenAddress */\n      and\n      swap1\n        /* \"contracts/StemPayLotteryManager.sol\":8275:8306  IERC20(l.tokenAddress).transfer */\n      0xa9059cbb\n      swap1\n        /* \"#utility.yul\":18463:18481   */\n      0x44\n      add\n        /* \"contracts/StemPayLotteryManager.sol\":8275:8326  IERC20(l.tokenAddress).transfer(msg.sender, amount) */\n      0x20\n      mload(0x40)\n      dup1\n      dup4\n      sub\n      dup2\n      0x00\n      dup8\n      gas\n      call\n      iszero\n      dup1\n      iszero\n      tag_391\n      jumpi\n      returndatacopy(0x00, 0x00, returndatasize)\n      revert(0x00, returndatasize)\n    tag_391:\n      pop\n      pop\n      pop\n      pop\n      mload(0x40)\n      returndatasize\n      not(0x1f)\n      0x1f\n      dup3\n      add\n      and\n      dup3\n      add\n      dup1\n      0x40\n      mstore\n      pop\n      dup2\n      add\n      swap1\n      tag_392\n      swap2\n      swap1\n      tag_310\n      jump\t// in\n    tag_392:\n      pop\n        /* \"contracts/StemPayLotteryManager.sol\":7884:8333  {... */\n      pop\n      pop\n        /* \"@openzeppelin/contracts/security/ReentrancyGuard.sol\":2303:2323  _nonReentrantAfter() */\n      tag_337\n        /* \"@openzeppelin/contracts/security/ReentrancyGuard.sol\":1716:1717  1 */\n      0x01\n        /* \"@openzeppelin/contracts/security/ReentrancyGuard.sol\":2809:2816  _status */\n      0x00\n        /* \"@openzeppelin/contracts/security/ReentrancyGuard.sol\":2809:2831  _status = _NOT_ENTERED */\n      sstore\n        /* \"@openzeppelin/contracts/security/ReentrancyGuard.sol\":2629:2838  function _nonReentrantAfter() private {... */\n      jump\n        /* \"contracts/StemPayLotteryManager.sol\":5917:6903  function drawWinner(uint256 _lotteryId) external onlyOwner {... */\n    tag_139:\n        /* \"@openzeppelin/contracts-upgradeable/access/OwnableUpgradeable.sol\":2334:2347  _checkOwner() */\n      tag_395\n        /* \"@openzeppelin/contracts-upgradeable/access/OwnableUpgradeable.sol\":2334:2345  _checkOwner */\n      tag_341\n        /* \"@openzeppelin/contracts-upgradeable/access/OwnableUpgradeable.sol\":2334:2347  _checkOwner() */\n      jump\t// in\n    tag_395:\n        /* \"contracts/StemPayLotteryManager.sol\":5986:6003  Lottery storage l */\n      0x00\n        /* \"contracts/StemPayLotteryManager.sol\":6006:6027  lotteries[_lotteryId] */\n      dup2\n      dup2\n      mstore\n        /* \"contracts/StemPayLotteryManager.sol\":6006:6015  lotteries */\n      0x02\n        /* \"contracts/StemPayLotteryManager.sol\":6006:6027  lotteries[_lotteryId] */\n      0x20\n      mstore\n      0x40\n      swap1\n      keccak256\n        /* \"contracts/StemPayLotteryManager.sol\":6064:6074  l.drawTime */\n      0x04\n      dup2\n      add\n      sload\n        /* \"contracts/StemPayLotteryManager.sol\":6045:6060  block.timestamp */\n      timestamp\n        /* \"contracts/StemPayLotteryManager.sol\":6045:6074  block.timestamp >= l.drawTime */\n      lt\n      iszero\n        /* \"contracts/StemPayLotteryManager.sol\":6037:6088  require(block.timestamp >= l.drawTime, \"Too early\") */\n      tag_397\n      jumpi\n      mload(0x40)\n      shl(0xe5, 0x461bcd)\n      dup2\n      mstore\n        /* \"#utility.yul\":18797:18799   */\n      0x20\n        /* \"contracts/StemPayLotteryManager.sol\":6037:6088  require(block.timestamp >= l.drawTime, \"Too early\") */\n      0x04\n      dup3\n      add\n        /* \"#utility.yul\":18779:18800   */\n      mstore\n        /* \"#utility.yul\":18836:18837   */\n      0x09\n        /* \"#utility.yul\":18816:18834   */\n      0x24\n      dup3\n      add\n        /* \"#utility.yul\":18809:18838   */\n      mstore\n      shl(0xb8, 0x546f6f206561726c79)\n        /* \"#utility.yul\":18854:18872   */\n      0x44\n      dup3\n      add\n        /* \"#utility.yul\":18847:18886   */\n      mstore\n        /* \"#utility.yul\":18903:18921   */\n      0x64\n      add\n        /* \"contracts/StemPayLotteryManager.sol\":6037:6088  require(block.timestamp >= l.drawTime, \"Too early\") */\n      tag_277\n        /* \"#utility.yul\":18595:18927   */\n      jump\n        /* \"contracts/StemPayLotteryManager.sol\":6037:6088  require(block.timestamp >= l.drawTime, \"Too early\") */\n    tag_397:\n        /* \"contracts/StemPayLotteryManager.sol\":6107:6116  l.isDrawn */\n      0x08\n      dup2\n      add\n      sload\n      0x0100\n      swap1\n      div\n      0xff\n      and\n        /* \"contracts/StemPayLotteryManager.sol\":6106:6116  !l.isDrawn */\n      iszero\n        /* \"contracts/StemPayLotteryManager.sol\":6106:6134  !l.isDrawn && !l.isCancelled */\n      dup1\n      iszero\n      tag_400\n      jumpi\n      pop\n        /* \"contracts/StemPayLotteryManager.sol\":6121:6134  l.isCancelled */\n      0x08\n      dup2\n      add\n      sload\n      0x010000\n      swap1\n      div\n      0xff\n      and\n        /* \"contracts/StemPayLotteryManager.sol\":6120:6134  !l.isCancelled */\n      iszero\n        /* \"contracts/StemPayLotteryManager.sol\":6106:6134  !l.isDrawn && !l.isCancelled */\n    tag_400:\n        /* \"contracts/StemPayLotteryManager.sol\":6098:6165  require(!l.isDrawn && !l.isCancelled, \"Already drawn or cancelled\") */\n      tag_401\n      jumpi\n      mload(0x40)\n      shl(0xe5, 0x461bcd)\n      dup2\n      mstore\n        /* \"#utility.yul\":19134:19136   */\n      0x20\n        /* \"contracts/StemPayLotteryManager.sol\":6098:6165  require(!l.isDrawn && !l.isCancelled, \"Already drawn or cancelled\") */\n      0x04\n      dup3\n      add\n        /* \"#utility.yul\":19116:19137   */\n      mstore\n        /* \"#utility.yul\":19173:19175   */\n      0x1a\n        /* \"#utility.yul\":19153:19171   */\n      0x24\n      dup3\n      add\n        /* \"#utility.yul\":19146:19176   */\n      mstore\n        /* \"#utility.yul\":19212:19240   */\n      0x416c726561647920647261776e206f722063616e63656c6c6564000000000000\n        /* \"#utility.yul\":19192:19210   */\n      0x44\n      dup3\n      add\n        /* \"#utility.yul\":19185:19241   */\n      mstore\n        /* \"#utility.yul\":19258:19276   */\n      0x64\n      add\n        /* \"contracts/StemPayLotteryManager.sol\":6098:6165  require(!l.isDrawn && !l.isCancelled, \"Already drawn or cancelled\") */\n      tag_277\n        /* \"#utility.yul\":18932:19282   */\n      jump\n        /* \"contracts/StemPayLotteryManager.sol\":6098:6165  require(!l.isDrawn && !l.isCancelled, \"Already drawn or cancelled\") */\n    tag_401:\n        /* \"contracts/StemPayLotteryManager.sol\":6183:6197  l.participants */\n      0x09\n      dup2\n      add\n        /* \"contracts/StemPayLotteryManager.sol\":6183:6204  l.participants.length */\n      sload\n        /* \"contracts/StemPayLotteryManager.sol\":6175:6228  require(l.participants.length > 0, \"No participants\") */\n      tag_404\n      jumpi\n      mload(0x40)\n      shl(0xe5, 0x461bcd)\n      dup2\n      mstore\n        /* \"#utility.yul\":19489:19491   */\n      0x20\n        /* \"contracts/StemPayLotteryManager.sol\":6175:6228  require(l.participants.length > 0, \"No participants\") */\n      0x04\n      dup3\n      add\n        /* \"#utility.yul\":19471:19492   */\n      mstore\n        /* \"#utility.yul\":19528:19530   */\n      0x0f\n        /* \"#utility.yul\":19508:19526   */\n      0x24\n      dup3\n      add\n        /* \"#utility.yul\":19501:19531   */\n      mstore\n      shl(0x88, 0x4e6f207061727469636970616e7473)\n        /* \"#utility.yul\":19547:19565   */\n      0x44\n      dup3\n      add\n        /* \"#utility.yul\":19540:19585   */\n      mstore\n        /* \"#utility.yul\":19602:19620   */\n      0x64\n      add\n        /* \"contracts/StemPayLotteryManager.sol\":6175:6228  require(l.participants.length > 0, \"No participants\") */\n      tag_277\n        /* \"#utility.yul\":19287:19626   */\n      jump\n        /* \"contracts/StemPayLotteryManager.sol\":6175:6228  require(l.participants.length > 0, \"No participants\") */\n    tag_404:\n        /* \"contracts/StemPayLotteryManager.sol\":6281:6295  vrfCoordinator */\n      sload(0x09)\n        /* \"contracts/StemPayLotteryManager.sol\":6329:6750  VRFV2PlusClient.RandomWordsRequest({... */\n      0x40\n      dup1\n      mload\n      0xc0\n      dup2\n      add\n      dup3\n      mstore\n        /* \"contracts/StemPayLotteryManager.sol\":6391:6398  keyHash */\n      sload(0x06)\n        /* \"contracts/StemPayLotteryManager.sol\":6329:6750  VRFV2PlusClient.RandomWordsRequest({... */\n      dup2\n      mstore\n        /* \"contracts/StemPayLotteryManager.sol\":6423:6437  subscriptionId */\n      sload(0x08)\n        /* \"contracts/StemPayLotteryManager.sol\":6329:6750  VRFV2PlusClient.RandomWordsRequest({... */\n      0x20\n      dup1\n      dup4\n      add\n      swap2\n      swap1\n      swap2\n      mstore\n        /* \"contracts/StemPayLotteryManager.sol\":6477:6497  requestConfirmations */\n      sload(0x07)\n      0xffff\n      0x0100000000\n      dup3\n      div\n      and\n        /* \"contracts/StemPayLotteryManager.sol\":6329:6750  VRFV2PlusClient.RandomWordsRequest({... */\n      dup4\n      dup6\n      add\n      mstore\n        /* \"contracts/StemPayLotteryManager.sol\":6533:6549  callbackGasLimit */\n      0xffffffff\n      dup1\n      dup3\n      and\n        /* \"contracts/StemPayLotteryManager.sol\":6329:6750  VRFV2PlusClient.RandomWordsRequest({... */\n      0x60\n      dup6\n      add\n      mstore\n        /* \"contracts/StemPayLotteryManager.sol\":6577:6585  numWords */\n      0x01000000000000\n      swap1\n      swap2\n      div\n      and\n        /* \"contracts/StemPayLotteryManager.sol\":6329:6750  VRFV2PlusClient.RandomWordsRequest({... */\n      0x80\n      dup4\n      add\n      mstore\n        /* \"contracts/StemPayLotteryManager.sol\":6664:6717  VRFV2PlusClient.ExtraArgsV1({ nativePayment: false }) */\n      dup3\n      mload\n      swap1\n      dup2\n      add\n      swap1\n      swap3\n      mstore\n        /* \"contracts/StemPayLotteryManager.sol\":6239:6256  uint256 requestId */\n      0x00\n        /* \"contracts/StemPayLotteryManager.sol\":6664:6717  VRFV2PlusClient.ExtraArgsV1({ nativePayment: false }) */\n      dup1\n      dup4\n      mstore\n        /* \"contracts/StemPayLotteryManager.sol\":6239:6256  uint256 requestId */\n      swap3\n      sub(shl(0xa0, 0x01), 0x01)\n        /* \"contracts/StemPayLotteryManager.sol\":6281:6295  vrfCoordinator */\n      and\n      swap2\n        /* \"contracts/StemPayLotteryManager.sol\":6259:6315  IVRFCoordinatorV2Plus(vrfCoordinator).requestRandomWords */\n      0x9b1c385e\n      swap2\n        /* \"contracts/StemPayLotteryManager.sol\":6329:6750  VRFV2PlusClient.RandomWordsRequest({... */\n      swap1\n      0xa0\n      dup3\n      add\n      swap1\n        /* \"contracts/StemPayLotteryManager.sol\":6614:6735  VRFV2PlusClient._argsToBytes(... */\n      tag_407\n      swap1\n        /* \"contracts/StemPayLotteryManager.sol\":6614:6642  VRFV2PlusClient._argsToBytes */\n      tag_408\n        /* \"contracts/StemPayLotteryManager.sol\":6614:6735  VRFV2PlusClient._argsToBytes(... */\n      jump\t// in\n    tag_407:\n        /* \"contracts/StemPayLotteryManager.sol\":6329:6750  VRFV2PlusClient.RandomWordsRequest({... */\n      dup2\n      mstore\n      pop\n        /* \"contracts/StemPayLotteryManager.sol\":6259:6760  IVRFCoordinatorV2Plus(vrfCoordinator).requestRandomWords(... */\n      mload(0x40)\n      dup3\n      0xffffffff\n      and\n      0xe0\n      shl\n      dup2\n      mstore\n      0x04\n      add\n      tag_409\n      swap2\n      swap1\n      tag_410\n      jump\t// in\n    tag_409:\n      0x20\n      mload(0x40)\n      dup1\n      dup4\n      sub\n      dup2\n      0x00\n      dup8\n      gas\n      call\n      iszero\n      dup1\n      iszero\n      tag_412\n      jumpi\n      returndatacopy(0x00, 0x00, returndatasize)\n      revert(0x00, returndatasize)\n    tag_412:\n      pop\n      pop\n      pop\n      pop\n      mload(0x40)\n      returndatasize\n      not(0x1f)\n      0x1f\n      dup3\n      add\n      and\n      dup3\n      add\n      dup1\n      0x40\n      mstore\n      pop\n      dup2\n      add\n      swap1\n      tag_413\n      swap2\n      swap1\n      tag_414\n      jump\t// in\n    tag_413:\n        /* \"contracts/StemPayLotteryManager.sol\":6771:6798  requestToLottery[requestId] */\n      0x00\n      dup2\n      dup2\n      mstore\n        /* \"contracts/StemPayLotteryManager.sol\":6771:6787  requestToLottery */\n      0x0b\n        /* \"contracts/StemPayLotteryManager.sol\":6771:6798  requestToLottery[requestId] */\n      0x20\n      mstore\n      0x40\n      swap1\n      dup2\n      swap1\n      keccak256\n        /* \"contracts/StemPayLotteryManager.sol\":6771:6811  requestToLottery[requestId] = _lotteryId */\n      dup6\n      swap1\n      sstore\n        /* \"contracts/StemPayLotteryManager.sol\":6821:6830  l.isDrawn */\n      0x08\n      dup5\n      add\n        /* \"contracts/StemPayLotteryManager.sol\":6821:6837  l.isDrawn = true */\n      dup1\n      sload\n      not(0xff00)\n      and\n      0x0100\n      or\n      swap1\n      sstore\n        /* \"contracts/StemPayLotteryManager.sol\":6853:6896  LotteryDrawRequested(_lotteryId, requestId) */\n      mload\n        /* \"contracts/StemPayLotteryManager.sol\":6239:6760  uint256 requestId = IVRFCoordinatorV2Plus(vrfCoordinator).requestRandomWords(... */\n      swap1\n      swap2\n      pop\n        /* \"contracts/StemPayLotteryManager.sol\":6853:6896  LotteryDrawRequested(_lotteryId, requestId) */\n      0x600253eae67a5c51c82a7123372e8644f16009c6304e18f844cf86fdc40c24d7\n      swap1\n      tag_415\n      swap1\n        /* \"contracts/StemPayLotteryManager.sol\":6801:6811  _lotteryId */\n      dup6\n      swap1\n        /* \"contracts/StemPayLotteryManager.sol\":6239:6760  uint256 requestId = IVRFCoordinatorV2Plus(vrfCoordinator).requestRandomWords(... */\n      dup5\n      swap1\n        /* \"#utility.yul\":20707:20732   */\n      swap2\n      dup3\n      mstore\n        /* \"#utility.yul\":20763:20765   */\n      0x20\n        /* \"#utility.yul\":20748:20766   */\n      dup3\n      add\n        /* \"#utility.yul\":20741:20775   */\n      mstore\n        /* \"#utility.yul\":20695:20697   */\n      0x40\n        /* \"#utility.yul\":20680:20698   */\n      add\n      swap1\n        /* \"#utility.yul\":20533:20781   */\n      jump\n        /* \"contracts/StemPayLotteryManager.sol\":6853:6896  LotteryDrawRequested(_lotteryId, requestId) */\n    tag_415:\n      mload(0x40)\n      dup1\n      swap2\n      sub\n      swap1\n      log1\n        /* \"contracts/StemPayLotteryManager.sol\":5976:6903  {... */\n      pop\n      pop\n        /* \"contracts/StemPayLotteryManager.sol\":5917:6903  function drawWinner(uint256 _lotteryId) external onlyOwner {... */\n      pop\n      jump\t// out\n        /* \"contracts/StemPayLotteryManager.sol\":9861:9967  function getAllLotteryIds() external view returns (uint256[] memory) {... */\n    tag_146:\n        /* \"contracts/StemPayLotteryManager.sol\":9912:9928  uint256[] memory */\n      0x60\n        /* \"contracts/StemPayLotteryManager.sol\":9947:9960  allLotteryIds */\n      0x0a\n        /* \"contracts/StemPayLotteryManager.sol\":9940:9960  return allLotteryIds */\n      dup1\n      sload\n      dup1\n      0x20\n      mul\n      0x20\n      add\n      mload(0x40)\n      swap1\n      dup2\n      add\n      0x40\n      mstore\n      dup1\n      swap3\n      swap2\n      swap1\n      dup2\n      dup2\n      mstore\n      0x20\n      add\n      dup3\n      dup1\n      sload\n      dup1\n      iszero\n      tag_418\n      jumpi\n      0x20\n      mul\n      dup3\n      add\n      swap2\n      swap1\n      0x00\n      mstore\n      keccak256(0x00, 0x20)\n      swap1\n    tag_419:\n      dup2\n      sload\n      dup2\n      mstore\n      0x20\n      add\n      swap1\n      0x01\n      add\n      swap1\n      dup1\n      dup4\n      gt\n      tag_419\n      jumpi\n    tag_418:\n      pop\n      pop\n      pop\n      pop\n      pop\n      swap1\n      pop\n        /* \"contracts/StemPayLotteryManager.sol\":9861:9967  function getAllLotteryIds() external view returns (uint256[] memory) {... */\n      swap1\n      jump\t// out\n        /* \"@openzeppelin/contracts-upgradeable/access/OwnableUpgradeable.sol\":3155:3256  function renounceOwnership() public virtual onlyOwner {... */\n    tag_150:\n        /* \"@openzeppelin/contracts-upgradeable/access/OwnableUpgradeable.sol\":2334:2347  _checkOwner() */\n      tag_421\n        /* \"@openzeppelin/contracts-upgradeable/access/OwnableUpgradeable.sol\":2334:2345  _checkOwner */\n      tag_341\n        /* \"@openzeppelin/contracts-upgradeable/access/OwnableUpgradeable.sol\":2334:2347  _checkOwner() */\n      jump\t// in\n    tag_421:\n        /* \"@openzeppelin/contracts-upgradeable/access/OwnableUpgradeable.sol\":3219:3249  _transferOwnership(address(0)) */\n      tag_423\n        /* \"@openzeppelin/contracts-upgradeable/access/OwnableUpgradeable.sol\":3246:3247  0 */\n      0x00\n        /* \"@openzeppelin/contracts-upgradeable/access/OwnableUpgradeable.sol\":3219:3237  _transferOwnership */\n      tag_424\n        /* \"@openzeppelin/contracts-upgradeable/access/OwnableUpgradeable.sol\":3219:3249  _transferOwnership(address(0)) */\n      jump\t// in\n    tag_423:\n        /* \"@openzeppelin/contracts-upgradeable/access/OwnableUpgradeable.sol\":3155:3256  function renounceOwnership() public virtual onlyOwner {... */\n      jump\t// out\n        /* \"contracts/StemPayLotteryManager.sol\":11263:12019  function getLotteryInfo(uint256 _lotteryId) external view returns (LotteryInfo memory info) {... */\n    tag_154:\n        /* \"contracts/StemPayLotteryManager.sol\":11330:11353  LotteryInfo memory info */\n      tag_425\n      mload(0x40)\n      dup1\n      0x01c0\n      add\n      0x40\n      mstore\n      dup1\n      and(sub(shl(0xa0, 0x01), 0x01), 0x00)\n      dup2\n      mstore\n      0x20\n      add\n      0x00\n      dup2\n      mstore\n      0x20\n      add\n      0x00\n      dup2\n      mstore\n      0x20\n      add\n      0x00\n      dup2\n      mstore\n      0x20\n      add\n      0x00\n      dup2\n      mstore\n      0x20\n      add\n      0x00\n      dup2\n      mstore\n      0x20\n      add\n      0x00\n      dup2\n      mstore\n      0x20\n      add\n      0x00\n      dup2\n      mstore\n      0x20\n      add\n      iszero(iszero(0x00))\n      dup2\n      mstore\n      0x20\n      add\n      iszero(iszero(0x00))\n      dup2\n      mstore\n      0x20\n      add\n      iszero(iszero(0x00))\n      dup2\n      mstore\n      0x20\n      add\n      and(sub(shl(0xa0, 0x01), 0x01), 0x00)\n      dup2\n      mstore\n      0x20\n      add\n      0x00\n      dup2\n      mstore\n      0x20\n      add\n      0x60\n      dup2\n      mstore\n      pop\n      swap1\n      jump\n    tag_425:\n        /* \"contracts/StemPayLotteryManager.sol\":11365:11382  Lottery storage l */\n      0x00\n        /* \"contracts/StemPayLotteryManager.sol\":11385:11406  lotteries[_lotteryId] */\n      dup3\n      dup2\n      mstore\n        /* \"contracts/StemPayLotteryManager.sol\":11385:11394  lotteries */\n      0x02\n        /* \"contracts/StemPayLotteryManager.sol\":11385:11406  lotteries[_lotteryId] */\n      0x20\n      dup2\n      dup2\n      mstore\n      0x40\n      swap3\n      dup4\n      swap1\n      keccak256\n        /* \"contracts/StemPayLotteryManager.sol\":11423:12012  LotteryInfo({... */\n      dup4\n      mload\n      0x01c0\n      dup2\n      add\n      dup6\n      mstore\n        /* \"contracts/StemPayLotteryManager.sol\":11463:11477  l.tokenAddress */\n      dup2\n      sload\n      sub(shl(0xa0, 0x01), 0x01)\n      swap1\n      dup2\n      and\n        /* \"contracts/StemPayLotteryManager.sol\":11423:12012  LotteryInfo({... */\n      dup3\n      mstore\n        /* \"contracts/StemPayLotteryManager.sol\":11463:11477  l.tokenAddress */\n      0x01\n        /* \"contracts/StemPayLotteryManager.sol\":11509:11527  l.participationFee */\n      dup4\n      add\n      sload\n        /* \"contracts/StemPayLotteryManager.sol\":11423:12012  LotteryInfo({... */\n      dup3\n      dup6\n      add\n      mstore\n        /* \"contracts/StemPayLotteryManager.sol\":11559:11577  l.refundableAmount */\n      swap4\n      dup3\n      add\n      sload\n        /* \"contracts/StemPayLotteryManager.sol\":11423:12012  LotteryInfo({... */\n      dup2\n      dup7\n      add\n      mstore\n        /* \"contracts/StemPayLotteryManager.sol\":11608:11625  l.maxParticipants */\n      0x03\n      dup3\n      add\n      sload\n        /* \"contracts/StemPayLotteryManager.sol\":11423:12012  LotteryInfo({... */\n      0x60\n      dup3\n      add\n      mstore\n        /* \"contracts/StemPayLotteryManager.sol\":11649:11659  l.drawTime */\n      0x04\n      dup3\n      add\n      sload\n        /* \"contracts/StemPayLotteryManager.sol\":11423:12012  LotteryInfo({... */\n      0x80\n      dup3\n      add\n      mstore\n        /* \"contracts/StemPayLotteryManager.sol\":11686:11699  l.prizeAmount */\n      0x05\n      dup3\n      add\n      sload\n        /* \"contracts/StemPayLotteryManager.sol\":11423:12012  LotteryInfo({... */\n      0xa0\n      dup3\n      add\n      mstore\n        /* \"contracts/StemPayLotteryManager.sol\":11730:11747  l.feeToInvestment */\n      0x06\n      dup3\n      add\n      sload\n        /* \"contracts/StemPayLotteryManager.sol\":11423:12012  LotteryInfo({... */\n      0xc0\n      dup3\n      add\n      mstore\n        /* \"contracts/StemPayLotteryManager.sol\":11774:11787  l.feeToProfit */\n      0x07\n      dup3\n      add\n      sload\n        /* \"contracts/StemPayLotteryManager.sol\":11423:12012  LotteryInfo({... */\n      0xe0\n      dup3\n      add\n      mstore\n        /* \"contracts/StemPayLotteryManager.sol\":11811:11821  l.isActive */\n      0x08\n      dup3\n      add\n      sload\n      0xff\n      dup1\n      dup3\n      and\n        /* \"contracts/StemPayLotteryManager.sol\":11423:12012  LotteryInfo({... */\n      iszero\n      iszero\n        /* \"contracts/StemPayLotteryManager.sol\":11463:11477  l.tokenAddress */\n      0x0100\n        /* \"contracts/StemPayLotteryManager.sol\":11423:12012  LotteryInfo({... */\n      dup1\n      dup6\n      add\n      swap2\n      swap1\n      swap2\n      mstore\n        /* \"contracts/StemPayLotteryManager.sol\":11844:11853  l.isDrawn */\n      dup3\n      div\n      dup2\n      and\n        /* \"contracts/StemPayLotteryManager.sol\":11423:12012  LotteryInfo({... */\n      iszero\n      iszero\n      0x0120\n      dup5\n      add\n      mstore\n        /* \"contracts/StemPayLotteryManager.sol\":11880:11893  l.isCancelled */\n      0x010000\n      swap1\n      swap2\n      div\n      and\n        /* \"contracts/StemPayLotteryManager.sol\":11423:12012  LotteryInfo({... */\n      iszero\n      iszero\n      0x0140\n      dup3\n      add\n      mstore\n        /* \"contracts/StemPayLotteryManager.sol\":11915:11923  l.winner */\n      0x0a\n      dup3\n      add\n      sload\n      swap1\n      swap4\n      and\n        /* \"contracts/StemPayLotteryManager.sol\":11423:12012  LotteryInfo({... */\n      0x0160\n      dup5\n      add\n      mstore\n        /* \"contracts/StemPayLotteryManager.sol\":11948:11959  l.voteCount */\n      0x0b\n      dup2\n      add\n      sload\n        /* \"contracts/StemPayLotteryManager.sol\":11423:12012  LotteryInfo({... */\n      0x0180\n      dup5\n      add\n      mstore\n        /* \"contracts/StemPayLotteryManager.sol\":11987:12001  l.participants */\n      0x09\n      dup2\n      add\n        /* \"contracts/StemPayLotteryManager.sol\":11423:12012  LotteryInfo({... */\n      dup1\n      sload\n      dup6\n      mload\n      dup2\n      dup6\n      mul\n      dup2\n      add\n      dup6\n      add\n      swap1\n      swap7\n      mstore\n      dup1\n      dup7\n      mstore\n        /* \"contracts/StemPayLotteryManager.sol\":11385:11406  lotteries[_lotteryId] */\n      swap2\n      swap5\n        /* \"contracts/StemPayLotteryManager.sol\":11423:12012  LotteryInfo({... */\n      0x01a0\n      dup6\n      add\n      swap4\n      swap1\n      swap3\n      swap1\n      dup4\n      add\n        /* \"contracts/StemPayLotteryManager.sol\":11987:12001  l.participants */\n      dup3\n        /* \"contracts/StemPayLotteryManager.sol\":11423:12012  LotteryInfo({... */\n      dup3\n      dup1\n      iszero\n      tag_428\n      jumpi\n      0x20\n      mul\n      dup3\n      add\n      swap2\n      swap1\n      0x00\n      mstore\n      keccak256(0x00, 0x20)\n      swap1\n    tag_429:\n      dup2\n      sload\n      sub(shl(0xa0, 0x01), 0x01)\n      and\n      dup2\n      mstore\n      0x01\n      swap1\n      swap2\n      add\n      swap1\n      0x20\n      add\n      dup1\n      dup4\n      gt\n      tag_429\n      jumpi\n    tag_428:\n      pop\n      pop\n      pop\n      pop\n      pop\n      dup2\n      mstore\n      pop\n        /* \"contracts/StemPayLotteryManager.sol\":11416:12012  info = LotteryInfo({... */\n      swap2\n      pop\n        /* \"contracts/StemPayLotteryManager.sol\":11355:12019  {... */\n      pop\n        /* \"contracts/StemPayLotteryManager.sol\":11263:12019  function getLotteryInfo(uint256 _lotteryId) external view returns (LotteryInfo memory info) {... */\n      swap2\n      swap1\n      pop\n      jump\t// out\n        /* \"contracts/StemPayLotteryManager.sol\":5454:5911  function voteCancel(uint256 _lotteryId) external {... */\n    tag_164:\n        /* \"contracts/StemPayLotteryManager.sol\":5513:5530  Lottery storage l */\n      0x00\n        /* \"contracts/StemPayLotteryManager.sol\":5533:5554  lotteries[_lotteryId] */\n      dup2\n      dup2\n      mstore\n        /* \"contracts/StemPayLotteryManager.sol\":5533:5542  lotteries */\n      0x02\n        /* \"contracts/StemPayLotteryManager.sol\":5533:5554  lotteries[_lotteryId] */\n      0x20\n      swap1\n      dup2\n      mstore\n      0x40\n      dup1\n      dup4\n      keccak256\n        /* \"contracts/StemPayLotteryManager.sol\":5590:5600  msg.sender */\n      caller\n        /* \"contracts/StemPayLotteryManager.sol\":5573:5601  l.hasVotedCancel[msg.sender] */\n      dup5\n      mstore\n        /* \"contracts/StemPayLotteryManager.sol\":5573:5589  l.hasVotedCancel */\n      0x0f\n      dup2\n      add\n        /* \"contracts/StemPayLotteryManager.sol\":5573:5601  l.hasVotedCancel[msg.sender] */\n      swap1\n      swap3\n      mstore\n      swap1\n      swap2\n      keccak256\n      sload\n      0xff\n      and\n        /* \"contracts/StemPayLotteryManager.sol\":5572:5601  !l.hasVotedCancel[msg.sender] */\n      iszero\n        /* \"contracts/StemPayLotteryManager.sol\":5564:5619  require(!l.hasVotedCancel[msg.sender], \"Already voted\") */\n      tag_431\n      jumpi\n      mload(0x40)\n      shl(0xe5, 0x461bcd)\n      dup2\n      mstore\n        /* \"#utility.yul\":20988:20990   */\n      0x20\n        /* \"contracts/StemPayLotteryManager.sol\":5564:5619  require(!l.hasVotedCancel[msg.sender], \"Already voted\") */\n      0x04\n      dup3\n      add\n        /* \"#utility.yul\":20970:20991   */\n      mstore\n        /* \"#utility.yul\":21027:21029   */\n      0x0d\n        /* \"#utility.yul\":21007:21025   */\n      0x24\n      dup3\n      add\n        /* \"#utility.yul\":21000:21030   */\n      mstore\n      shl(0x9a, 0x105b1c9958591e481d9bdd1959)\n        /* \"#utility.yul\":21046:21064   */\n      0x44\n      dup3\n      add\n        /* \"#utility.yul\":21039:21082   */\n      mstore\n        /* \"#utility.yul\":21099:21117   */\n      0x64\n      add\n        /* \"contracts/StemPayLotteryManager.sol\":5564:5619  require(!l.hasVotedCancel[msg.sender], \"Already voted\") */\n      tag_277\n        /* \"#utility.yul\":20786:21123   */\n      jump\n        /* \"contracts/StemPayLotteryManager.sol\":5564:5619  require(!l.hasVotedCancel[msg.sender], \"Already voted\") */\n    tag_431:\n        /* \"contracts/StemPayLotteryManager.sol\":5650:5660  msg.sender */\n      caller\n        /* \"contracts/StemPayLotteryManager.sol\":5664:5665  0 */\n      0x00\n        /* \"contracts/StemPayLotteryManager.sol\":5637:5661  l.entryCount[msg.sender] */\n      swap1\n      dup2\n      mstore\n        /* \"contracts/StemPayLotteryManager.sol\":5637:5649  l.entryCount */\n      0x0c\n      dup3\n      add\n        /* \"contracts/StemPayLotteryManager.sol\":5637:5661  l.entryCount[msg.sender] */\n      0x20\n      mstore\n      0x40\n      swap1\n      keccak256\n      sload\n        /* \"contracts/StemPayLotteryManager.sol\":5629:5684  require(l.entryCount[msg.sender] > 0, \"Not in lottery\") */\n      tag_434\n      jumpi\n      mload(0x40)\n      shl(0xe5, 0x461bcd)\n      dup2\n      mstore\n        /* \"#utility.yul\":21330:21332   */\n      0x20\n        /* \"contracts/StemPayLotteryManager.sol\":5629:5684  require(l.entryCount[msg.sender] > 0, \"Not in lottery\") */\n      0x04\n      dup3\n      add\n        /* \"#utility.yul\":21312:21333   */\n      mstore\n        /* \"#utility.yul\":21369:21371   */\n      0x0e\n        /* \"#utility.yul\":21349:21367   */\n      0x24\n      dup3\n      add\n        /* \"#utility.yul\":21342:21372   */\n      mstore\n      shl(0x90, 0x4e6f7420696e206c6f7474657279)\n        /* \"#utility.yul\":21388:21406   */\n      0x44\n      dup3\n      add\n        /* \"#utility.yul\":21381:21425   */\n      mstore\n        /* \"#utility.yul\":21442:21460   */\n      0x64\n      add\n        /* \"contracts/StemPayLotteryManager.sol\":5629:5684  require(l.entryCount[msg.sender] > 0, \"Not in lottery\") */\n      tag_277\n        /* \"#utility.yul\":21128:21466   */\n      jump\n        /* \"contracts/StemPayLotteryManager.sol\":5629:5684  require(l.entryCount[msg.sender] > 0, \"Not in lottery\") */\n    tag_434:\n        /* \"contracts/StemPayLotteryManager.sol\":5712:5722  msg.sender */\n      caller\n        /* \"contracts/StemPayLotteryManager.sol\":5695:5723  l.hasVotedCancel[msg.sender] */\n      0x00\n      swap1\n      dup2\n      mstore\n        /* \"contracts/StemPayLotteryManager.sol\":5695:5711  l.hasVotedCancel */\n      0x0f\n      dup3\n      add\n        /* \"contracts/StemPayLotteryManager.sol\":5695:5723  l.hasVotedCancel[msg.sender] */\n      0x20\n      mstore\n      0x40\n      dup2\n      keccak256\n        /* \"contracts/StemPayLotteryManager.sol\":5695:5730  l.hasVotedCancel[msg.sender] = true */\n      dup1\n      sload\n      not(0xff)\n      and\n        /* \"contracts/StemPayLotteryManager.sol\":5726:5730  true */\n      0x01\n        /* \"contracts/StemPayLotteryManager.sol\":5695:5730  l.hasVotedCancel[msg.sender] = true */\n      or\n      swap1\n      sstore\n        /* \"contracts/StemPayLotteryManager.sol\":5740:5751  l.voteCount */\n      0x0b\n      dup3\n      add\n        /* \"contracts/StemPayLotteryManager.sol\":5740:5753  l.voteCount++ */\n      dup1\n      sload\n      swap2\n      tag_437\n      dup4\n      tag_245\n      jump\t// in\n    tag_437:\n      swap1\n      swap2\n      sstore\n      pop\n      pop\n        /* \"contracts/StemPayLotteryManager.sol\":5786:5800  l.participants */\n      0x09\n      dup2\n      add\n        /* \"contracts/StemPayLotteryManager.sol\":5786:5807  l.participants.length */\n      sload\n        /* \"contracts/StemPayLotteryManager.sol\":5786:5811  l.participants.length * 2 */\n      tag_438\n      swap1\n        /* \"contracts/StemPayLotteryManager.sol\":5810:5811  2 */\n      0x02\n        /* \"contracts/StemPayLotteryManager.sol\":5786:5811  l.participants.length * 2 */\n      tag_387\n      jump\t// in\n    tag_438:\n        /* \"contracts/StemPayLotteryManager.sol\":5767:5778  l.voteCount */\n      0x0b\n      dup3\n      add\n      sload\n        /* \"contracts/StemPayLotteryManager.sol\":5767:5782  l.voteCount * 3 */\n      tag_439\n      swap1\n        /* \"contracts/StemPayLotteryManager.sol\":5781:5782  3 */\n      0x03\n        /* \"contracts/StemPayLotteryManager.sol\":5767:5782  l.voteCount * 3 */\n      tag_387\n      jump\t// in\n    tag_439:\n        /* \"contracts/StemPayLotteryManager.sol\":5767:5811  l.voteCount * 3 >= l.participants.length * 2 */\n      lt\n        /* \"contracts/StemPayLotteryManager.sol\":5763:5905  if (l.voteCount * 3 >= l.participants.length * 2) {... */\n      tag_279\n      jumpi\n        /* \"contracts/StemPayLotteryManager.sol\":5827:5840  l.isCancelled */\n      0x08\n      dup2\n      add\n        /* \"contracts/StemPayLotteryManager.sol\":5827:5847  l.isCancelled = true */\n      dup1\n      sload\n      not(0xff0000)\n      and\n      0x010000\n      or\n      swap1\n      sstore\n        /* \"contracts/StemPayLotteryManager.sol\":5866:5894  LotteryCancelled(_lotteryId) */\n      mload(0x40)\n      0xc3dac690cf4c3ae8964f18b8f09f7f9a75d3962a8cbb7cd689df2c291bb5b2dd\n      swap1\n      tag_359\n      swap1\n        /* \"contracts/StemPayLotteryManager.sol\":5883:5893  _lotteryId */\n      dup5\n        /* \"#utility.yul\":1547:1572   */\n      dup2\n      mstore\n        /* \"#utility.yul\":1535:1537   */\n      0x20\n        /* \"#utility.yul\":1520:1538   */\n      add\n      swap1\n        /* \"#utility.yul\":1401:1578   */\n      jump\n        /* \"contracts/StemPayLotteryManager.sol\":8693:8803  function clearLotteryData(uint256 _lotteryId) external onlyOwner {... */\n    tag_168:\n        /* \"@openzeppelin/contracts-upgradeable/access/OwnableUpgradeable.sol\":2334:2347  _checkOwner() */\n      tag_443\n        /* \"@openzeppelin/contracts-upgradeable/access/OwnableUpgradeable.sol\":2334:2345  _checkOwner */\n      tag_341\n        /* \"@openzeppelin/contracts-upgradeable/access/OwnableUpgradeable.sol\":2334:2347  _checkOwner() */\n      jump\t// in\n    tag_443:\n        /* \"contracts/StemPayLotteryManager.sol\":8775:8796  lotteries[_lotteryId] */\n      0x00\n      dup2\n      dup2\n      mstore\n        /* \"contracts/StemPayLotteryManager.sol\":8775:8784  lotteries */\n      0x02\n        /* \"contracts/StemPayLotteryManager.sol\":8775:8796  lotteries[_lotteryId] */\n      0x20\n      dup2\n      swap1\n      mstore\n      0x40\n      dup3\n      keccak256\n        /* \"contracts/StemPayLotteryManager.sol\":8768:8796  delete lotteries[_lotteryId] */\n      dup1\n      sload\n      not(sub(shl(0xa0, 0x01), 0x01))\n      and\n      dup2\n      sstore\n      0x01\n      dup2\n      add\n      dup4\n      swap1\n      sstore\n      swap1\n      dup2\n      add\n      dup3\n      swap1\n      sstore\n      0x03\n      dup2\n      add\n      dup3\n      swap1\n      sstore\n      0x04\n      dup2\n      add\n      dup3\n      swap1\n      sstore\n      0x05\n      dup2\n      add\n      dup3\n      swap1\n      sstore\n      0x06\n      dup2\n      add\n      dup3\n      swap1\n      sstore\n      0x07\n      dup2\n      add\n      dup3\n      swap1\n      sstore\n      0x08\n      dup2\n      add\n      dup1\n      sload\n      not(0xffffff)\n      and\n      swap1\n      sstore\n        /* \"contracts/StemPayLotteryManager.sol\":8775:8796  lotteries[_lotteryId] */\n      swap1\n        /* \"contracts/StemPayLotteryManager.sol\":8768:8796  delete lotteries[_lotteryId] */\n      tag_445\n      0x09\n      dup4\n      add\n        /* \"contracts/StemPayLotteryManager.sol\":8775:8796  lotteries[_lotteryId] */\n      dup3\n        /* \"contracts/StemPayLotteryManager.sol\":8768:8796  delete lotteries[_lotteryId] */\n      tag_446\n      jump\t// in\n    tag_445:\n      pop\n      0x0a\n      dup2\n      add\n      dup1\n      sload\n      not(sub(shl(0xa0, 0x01), 0x01))\n      and\n      swap1\n      sstore\n      0x00\n      0x0b\n      swap1\n      swap2\n      add\n      sstore\n      pop\n        /* \"contracts/StemPayLotteryManager.sol\":8693:8803  function clearLotteryData(uint256 _lotteryId) external onlyOwner {... */\n      jump\t// out\n        /* \"contracts/StemPayLotteryManager.sol\":8809:8953  function getParticipants(uint256 _lotteryId) external view returns (address[] memory) {... */\n    tag_205:\n        /* \"contracts/StemPayLotteryManager.sol\":8912:8933  lotteries[_lotteryId] */\n      0x00\n      dup2\n      dup2\n      mstore\n        /* \"contracts/StemPayLotteryManager.sol\":8912:8921  lotteries */\n      0x02\n        /* \"contracts/StemPayLotteryManager.sol\":8912:8933  lotteries[_lotteryId] */\n      0x20\n      swap1\n      dup2\n      mstore\n      0x40\n      swap2\n      dup3\n      swap1\n      keccak256\n        /* \"contracts/StemPayLotteryManager.sol\":8912:8946  lotteries[_lotteryId].participants */\n      0x09\n      add\n        /* \"contracts/StemPayLotteryManager.sol\":8905:8946  return lotteries[_lotteryId].participants */\n      dup1\n      sload\n      dup4\n      mload\n      dup2\n      dup5\n      mul\n      dup2\n      add\n      dup5\n      add\n      swap1\n      swap5\n      mstore\n      dup1\n      dup5\n      mstore\n        /* \"contracts/StemPayLotteryManager.sol\":8877:8893  address[] memory */\n      0x60\n      swap4\n        /* \"contracts/StemPayLotteryManager.sol\":8905:8946  return lotteries[_lotteryId].participants */\n      swap3\n      dup4\n      add\n        /* \"contracts/StemPayLotteryManager.sol\":8912:8946  lotteries[_lotteryId].participants */\n      dup3\n        /* \"contracts/StemPayLotteryManager.sol\":8905:8946  return lotteries[_lotteryId].participants */\n      dup3\n      dup1\n      iszero\n      tag_453\n      jumpi\n      0x20\n      mul\n      dup3\n      add\n      swap2\n      swap1\n      0x00\n      mstore\n      keccak256(0x00, 0x20)\n      swap1\n    tag_454:\n      dup2\n      sload\n      sub(shl(0xa0, 0x01), 0x01)\n      and\n      dup2\n      mstore\n      0x01\n      swap1\n      swap2\n      add\n      swap1\n      0x20\n      add\n      dup1\n      dup4\n      gt\n      tag_454\n      jumpi\n    tag_453:\n      pop\n      pop\n      pop\n      pop\n      pop\n      swap1\n      pop\n        /* \"contracts/StemPayLotteryManager.sol\":8809:8953  function getParticipants(uint256 _lotteryId) external view returns (address[] memory) {... */\n      swap2\n      swap1\n      pop\n      jump\t// out\n        /* \"contracts/StemPayLotteryManager.sol\":8339:8687  function claimPrize(uint256 _lotteryId) external nonReentrant {... */\n    tag_216:\n        /* \"@openzeppelin/contracts/security/ReentrancyGuard.sol\":2261:2282  _nonReentrantBefore() */\n      tag_457\n        /* \"@openzeppelin/contracts/security/ReentrancyGuard.sol\":2261:2280  _nonReentrantBefore */\n      tag_283\n        /* \"@openzeppelin/contracts/security/ReentrancyGuard.sol\":2261:2282  _nonReentrantBefore() */\n      jump\t// in\n    tag_457:\n        /* \"contracts/StemPayLotteryManager.sol\":8411:8428  Lottery storage l */\n      0x00\n        /* \"contracts/StemPayLotteryManager.sol\":8431:8452  lotteries[_lotteryId] */\n      dup2\n      dup2\n      mstore\n        /* \"contracts/StemPayLotteryManager.sol\":8431:8440  lotteries */\n      0x02\n        /* \"contracts/StemPayLotteryManager.sol\":8431:8452  lotteries[_lotteryId] */\n      0x20\n      mstore\n      0x40\n      swap1\n      keccak256\n        /* \"contracts/StemPayLotteryManager.sol\":8470:8478  l.winner */\n      0x0a\n      dup2\n      add\n      sload\n      sub(shl(0xa0, 0x01), 0x01)\n      and\n        /* \"contracts/StemPayLotteryManager.sol\":8482:8492  msg.sender */\n      caller\n        /* \"contracts/StemPayLotteryManager.sol\":8470:8492  l.winner == msg.sender */\n      eq\n        /* \"contracts/StemPayLotteryManager.sol\":8462:8507  require(l.winner == msg.sender, \"Not winner\") */\n      tag_459\n      jumpi\n      mload(0x40)\n      shl(0xe5, 0x461bcd)\n      dup2\n      mstore\n        /* \"#utility.yul\":21673:21675   */\n      0x20\n        /* \"contracts/StemPayLotteryManager.sol\":8462:8507  require(l.winner == msg.sender, \"Not winner\") */\n      0x04\n      dup3\n      add\n        /* \"#utility.yul\":21655:21676   */\n      mstore\n        /* \"#utility.yul\":21712:21714   */\n      0x0a\n        /* \"#utility.yul\":21692:21710   */\n      0x24\n      dup3\n      add\n        /* \"#utility.yul\":21685:21715   */\n      mstore\n      shl(0xb1, 0x2737ba103bb4b73732b9)\n        /* \"#utility.yul\":21731:21749   */\n      0x44\n      dup3\n      add\n        /* \"#utility.yul\":21724:21764   */\n      mstore\n        /* \"#utility.yul\":21781:21799   */\n      0x64\n      add\n        /* \"contracts/StemPayLotteryManager.sol\":8462:8507  require(l.winner == msg.sender, \"Not winner\") */\n      tag_277\n        /* \"#utility.yul\":21471:21805   */\n      jump\n        /* \"contracts/StemPayLotteryManager.sol\":8462:8507  require(l.winner == msg.sender, \"Not winner\") */\n    tag_459:\n        /* \"contracts/StemPayLotteryManager.sol\":8539:8549  msg.sender */\n      caller\n        /* \"contracts/StemPayLotteryManager.sol\":8526:8550  l.hasClaimed[msg.sender] */\n      0x00\n      swap1\n      dup2\n      mstore\n        /* \"contracts/StemPayLotteryManager.sol\":8526:8538  l.hasClaimed */\n      0x0d\n      dup3\n      add\n        /* \"contracts/StemPayLotteryManager.sol\":8526:8550  l.hasClaimed[msg.sender] */\n      0x20\n      mstore\n      0x40\n      swap1\n      keccak256\n      sload\n      0xff\n      and\n        /* \"contracts/StemPayLotteryManager.sol\":8525:8550  !l.hasClaimed[msg.sender] */\n      iszero\n        /* \"contracts/StemPayLotteryManager.sol\":8517:8570  require(!l.hasClaimed[msg.sender], \"Already claimed\") */\n      tag_462\n      jumpi\n      mload(0x40)\n      shl(0xe5, 0x461bcd)\n      dup2\n      mstore\n        /* \"#utility.yul\":22012:22014   */\n      0x20\n        /* \"contracts/StemPayLotteryManager.sol\":8517:8570  require(!l.hasClaimed[msg.sender], \"Already claimed\") */\n      0x04\n      dup3\n      add\n        /* \"#utility.yul\":21994:22015   */\n      mstore\n        /* \"#utility.yul\":22051:22053   */\n      0x0f\n        /* \"#utility.yul\":22031:22049   */\n      0x24\n      dup3\n      add\n        /* \"#utility.yul\":22024:22054   */\n      mstore\n      shl(0x8a, 0x105b1c9958591e4818db185a5b5959)\n        /* \"#utility.yul\":22070:22088   */\n      0x44\n      dup3\n      add\n        /* \"#utility.yul\":22063:22108   */\n      mstore\n        /* \"#utility.yul\":22125:22143   */\n      0x64\n      add\n        /* \"contracts/StemPayLotteryManager.sol\":8517:8570  require(!l.hasClaimed[msg.sender], \"Already claimed\") */\n      tag_277\n        /* \"#utility.yul\":21810:22149   */\n      jump\n        /* \"contracts/StemPayLotteryManager.sol\":8517:8570  require(!l.hasClaimed[msg.sender], \"Already claimed\") */\n    tag_462:\n        /* \"contracts/StemPayLotteryManager.sol\":8594:8604  msg.sender */\n      caller\n        /* \"contracts/StemPayLotteryManager.sol\":8581:8605  l.hasClaimed[msg.sender] */\n      0x00\n      dup2\n      dup2\n      mstore\n        /* \"contracts/StemPayLotteryManager.sol\":8581:8593  l.hasClaimed */\n      0x0d\n      dup4\n      add\n        /* \"contracts/StemPayLotteryManager.sol\":8581:8605  l.hasClaimed[msg.sender] */\n      0x20\n      mstore\n      0x40\n      swap1\n      dup2\n      swap1\n      keccak256\n        /* \"contracts/StemPayLotteryManager.sol\":8581:8612  l.hasClaimed[msg.sender] = true */\n      dup1\n      sload\n      not(0xff)\n      and\n        /* \"contracts/StemPayLotteryManager.sol\":8608:8612  true */\n      0x01\n        /* \"contracts/StemPayLotteryManager.sol\":8581:8612  l.hasClaimed[msg.sender] = true */\n      or\n      swap1\n      sstore\n        /* \"contracts/StemPayLotteryManager.sol\":8629:8643  l.tokenAddress */\n      dup3\n      sload\n        /* \"contracts/StemPayLotteryManager.sol\":8666:8679  l.prizeAmount */\n      0x05\n      dup5\n      add\n      sload\n        /* \"contracts/StemPayLotteryManager.sol\":8622:8680  IERC20(l.tokenAddress).transfer(msg.sender, l.prizeAmount) */\n      swap2\n      mload\n      shl(0xe0, 0xa9059cbb)\n      dup2\n      mstore\n      0x04\n      dup2\n      add\n        /* \"#utility.yul\":18490:18541   */\n      swap4\n      swap1\n      swap4\n      mstore\n        /* \"#utility.yul\":18557:18575   */\n      0x24\n      dup4\n      add\n        /* \"#utility.yul\":18550:18584   */\n      swap2\n      swap1\n      swap2\n      mstore\n      sub(shl(0xa0, 0x01), 0x01)\n        /* \"contracts/StemPayLotteryManager.sol\":8629:8643  l.tokenAddress */\n      and\n      swap1\n        /* \"contracts/StemPayLotteryManager.sol\":8622:8653  IERC20(l.tokenAddress).transfer */\n      0xa9059cbb\n      swap1\n        /* \"#utility.yul\":18463:18481   */\n      0x44\n      add\n        /* \"contracts/StemPayLotteryManager.sol\":8622:8680  IERC20(l.tokenAddress).transfer(msg.sender, l.prizeAmount) */\n      0x20\n      mload(0x40)\n      dup1\n      dup4\n      sub\n      dup2\n      0x00\n      dup8\n      gas\n      call\n      iszero\n      dup1\n      iszero\n      tag_467\n      jumpi\n      returndatacopy(0x00, 0x00, returndatasize)\n      revert(0x00, returndatasize)\n    tag_467:\n      pop\n      pop\n      pop\n      pop\n      mload(0x40)\n      returndatasize\n      not(0x1f)\n      0x1f\n      dup3\n      add\n      and\n      dup3\n      add\n      dup1\n      0x40\n      mstore\n      pop\n      dup2\n      add\n      swap1\n      tag_468\n      swap2\n      swap1\n      tag_310\n      jump\t// in\n    tag_468:\n      pop\n        /* \"contracts/StemPayLotteryManager.sol\":8401:8687  {... */\n      pop\n        /* \"@openzeppelin/contracts/security/ReentrancyGuard.sol\":2303:2323  _nonReentrantAfter() */\n      tag_337\n        /* \"@openzeppelin/contracts/security/ReentrancyGuard.sol\":1716:1717  1 */\n      0x01\n        /* \"@openzeppelin/contracts/security/ReentrancyGuard.sol\":2809:2816  _status */\n      0x00\n        /* \"@openzeppelin/contracts/security/ReentrancyGuard.sol\":2809:2831  _status = _NOT_ENTERED */\n      sstore\n        /* \"@openzeppelin/contracts/security/ReentrancyGuard.sol\":2629:2838  function _nonReentrantAfter() private {... */\n      jump\n        /* \"contracts/StemPayLotteryManager.sol\":2775:2805  uint256[] public allLotteryIds */\n    tag_220:\n      0x0a\n      dup2\n      dup2\n      sload\n      dup2\n      lt\n      tag_470\n      jumpi\n      0x00\n      dup1\n      revert\n    tag_470:\n      0x00\n      swap2\n      dup3\n      mstore\n      0x20\n      swap1\n      swap2\n      keccak256\n      add\n      sload\n      swap1\n      pop\n      dup2\n      jump\t// out\n        /* \"@openzeppelin/contracts-upgradeable/access/OwnableUpgradeable.sol\":3405:3620  function transferOwnership(address newOwner) public virtual onlyOwner {... */\n    tag_226:\n        /* \"@openzeppelin/contracts-upgradeable/access/OwnableUpgradeable.sol\":2334:2347  _checkOwner() */\n      tag_473\n        /* \"@openzeppelin/contracts-upgradeable/access/OwnableUpgradeable.sol\":2334:2345  _checkOwner */\n      tag_341\n        /* \"@openzeppelin/contracts-upgradeable/access/OwnableUpgradeable.sol\":2334:2347  _checkOwner() */\n      jump\t// in\n    tag_473:\n      sub(shl(0xa0, 0x01), 0x01)\n        /* \"@openzeppelin/contracts-upgradeable/access/OwnableUpgradeable.sol\":3489:3511  newOwner == address(0) */\n      dup2\n      and\n        /* \"@openzeppelin/contracts-upgradeable/access/OwnableUpgradeable.sol\":3485:3576  if (newOwner == address(0)) {... */\n      tag_475\n      jumpi\n        /* \"@openzeppelin/contracts-upgradeable/access/OwnableUpgradeable.sol\":3534:3565  OwnableInvalidOwner(address(0)) */\n      mload(0x40)\n      shl(0xe0, 0x1e4fbdf7)\n      dup2\n      mstore\n        /* \"@openzeppelin/contracts-upgradeable/access/OwnableUpgradeable.sol\":3562:3563  0 */\n      0x00\n        /* \"@openzeppelin/contracts-upgradeable/access/OwnableUpgradeable.sol\":3534:3565  OwnableInvalidOwner(address(0)) */\n      0x04\n      dup3\n      add\n        /* \"#utility.yul\":5237:5288   */\n      mstore\n        /* \"#utility.yul\":5210:5228   */\n      0x24\n      add\n        /* \"@openzeppelin/contracts-upgradeable/access/OwnableUpgradeable.sol\":3534:3565  OwnableInvalidOwner(address(0)) */\n      tag_277\n        /* \"#utility.yul\":5091:5294   */\n      jump\n        /* \"@openzeppelin/contracts-upgradeable/access/OwnableUpgradeable.sol\":3485:3576  if (newOwner == address(0)) {... */\n    tag_475:\n        /* \"@openzeppelin/contracts-upgradeable/access/OwnableUpgradeable.sol\":3585:3613  _transferOwnership(newOwner) */\n      tag_337\n        /* \"@openzeppelin/contracts-upgradeable/access/OwnableUpgradeable.sol\":3604:3612  newOwner */\n      dup2\n        /* \"@openzeppelin/contracts-upgradeable/access/OwnableUpgradeable.sol\":3585:3603  _transferOwnership */\n      tag_424\n        /* \"@openzeppelin/contracts-upgradeable/access/OwnableUpgradeable.sol\":3585:3613  _transferOwnership(newOwner) */\n      jump\t// in\n        /* \"@openzeppelin/contracts-upgradeable/proxy/utils/Initializable.sol\":9071:9276  function _getInitializableStorage() private pure returns (InitializableStorage storage $) {... */\n    tag_259:\n        /* \"@openzeppelin/contracts-upgradeable/proxy/utils/Initializable.sol\":9129:9159  InitializableStorage storage $ */\n      0x00\n      dup1\n        /* \"@openzeppelin/contracts-upgradeable/proxy/utils/Initializable.sol\":3147:3213  0xf0c57e16840df040f15088dc2f81fe391c3923bec73e23a9662efc9c229c6a00 */\n      0xf0c57e16840df040f15088dc2f81fe391c3923bec73e23a9662efc9c229c6a00\n        /* \"@openzeppelin/contracts-upgradeable/proxy/utils/Initializable.sol\":9186:9213  _initializableStorageSlot() */\n      tag_256\n        /* \"@openzeppelin/contracts-upgradeable/proxy/utils/Initializable.sol\":8819:8941  function _initializableStorageSlot() internal pure virtual returns (bytes32) {... */\n      jump\n        /* \"@openzeppelin/contracts-upgradeable/access/OwnableUpgradeable.sol\":1847:1974  function __Ownable_init(address initialOwner) internal onlyInitializing {... */\n    tag_267:\n        /* \"@openzeppelin/contracts-upgradeable/proxy/utils/Initializable.sol\":6929:6949  _checkInitializing() */\n      tag_482\n        /* \"@openzeppelin/contracts-upgradeable/proxy/utils/Initializable.sol\":6929:6947  _checkInitializing */\n      tag_483\n        /* \"@openzeppelin/contracts-upgradeable/proxy/utils/Initializable.sol\":6929:6949  _checkInitializing() */\n      jump\t// in\n    tag_482:\n        /* \"@openzeppelin/contracts-upgradeable/access/OwnableUpgradeable.sol\":1929:1967  __Ownable_init_unchained(initialOwner) */\n      tag_337\n        /* \"@openzeppelin/contracts-upgradeable/access/OwnableUpgradeable.sol\":1954:1966  initialOwner */\n      dup2\n        /* \"@openzeppelin/contracts-upgradeable/access/OwnableUpgradeable.sol\":1929:1953  __Ownable_init_unchained */\n      tag_486\n        /* \"@openzeppelin/contracts-upgradeable/access/OwnableUpgradeable.sol\":1929:1967  __Ownable_init_unchained(initialOwner) */\n      jump\t// in\n        /* \"@openzeppelin/contracts-upgradeable/proxy/utils/UUPSUpgradeable.sol\":2970:3037  function __UUPSUpgradeable_init() internal onlyInitializing {... */\n    tag_269:\n        /* \"@openzeppelin/contracts-upgradeable/proxy/utils/Initializable.sol\":6929:6949  _checkInitializing() */\n      tag_423\n        /* \"@openzeppelin/contracts-upgradeable/proxy/utils/Initializable.sol\":6929:6947  _checkInitializing */\n      tag_483\n        /* \"@openzeppelin/contracts-upgradeable/proxy/utils/Initializable.sol\":6929:6949  _checkInitializing() */\n      jump\t// in\n        /* \"contracts/StemPayLotteryManager.sol\":669:816  function __VRFConsumerBaseV2_5Upgradeable_init(address _vrfCoordinator) internal onlyInitializing {... */\n    tag_271:\n        /* \"@openzeppelin/contracts-upgradeable/proxy/utils/Initializable.sol\":6929:6949  _checkInitializing() */\n      tag_491\n        /* \"@openzeppelin/contracts-upgradeable/proxy/utils/Initializable.sol\":6929:6947  _checkInitializing */\n      tag_483\n        /* \"@openzeppelin/contracts-upgradeable/proxy/utils/Initializable.sol\":6929:6949  _checkInitializing() */\n      jump\t// in\n    tag_491:\n        /* \"contracts/StemPayLotteryManager.sol\":777:791  vrfCoordinator */\n      0x01\n        /* \"contracts/StemPayLotteryManager.sol\":777:809  vrfCoordinator = _vrfCoordinator */\n      dup1\n      sload\n      not(sub(shl(0xa0, 0x01), 0x01))\n      and\n      sub(shl(0xa0, 0x01), 0x01)\n      swap3\n      swap1\n      swap3\n      and\n      swap2\n      swap1\n      swap2\n      or\n      swap1\n      sstore\n        /* \"contracts/StemPayLotteryManager.sol\":669:816  function __VRFConsumerBaseV2_5Upgradeable_init(address _vrfCoordinator) internal onlyInitializing {... */\n      jump\t// out\n        /* \"contracts/StemPayLotteryManager.sol\":6909:7548  function fulfillRandomWords(... */\n    tag_280:\n        /* \"contracts/StemPayLotteryManager.sol\":7036:7053  uint256 lotteryId */\n      0x00\n        /* \"contracts/StemPayLotteryManager.sol\":7056:7083  requestToLottery[requestId] */\n      dup3\n      dup2\n      mstore\n        /* \"contracts/StemPayLotteryManager.sol\":7056:7072  requestToLottery */\n      0x0b\n        /* \"contracts/StemPayLotteryManager.sol\":7056:7083  requestToLottery[requestId] */\n      0x20\n      swap1\n      dup2\n      mstore\n      0x40\n      dup1\n      dup4\n      keccak256\n      sload\n        /* \"contracts/StemPayLotteryManager.sol\":7113:7133  lotteries[lotteryId] */\n      dup1\n      dup5\n      mstore\n        /* \"contracts/StemPayLotteryManager.sol\":7113:7122  lotteries */\n      0x02\n        /* \"contracts/StemPayLotteryManager.sol\":7113:7133  lotteries[lotteryId] */\n      swap1\n      swap3\n      mstore\n      swap1\n      swap2\n      keccak256\n        /* \"contracts/StemPayLotteryManager.sol\":7152:7161  l.isDrawn */\n      0x08\n      dup2\n      add\n      sload\n      0x0100\n      swap1\n      div\n      0xff\n      and\n        /* \"contracts/StemPayLotteryManager.sol\":7152:7187  l.isDrawn && l.winner == address(0) */\n      dup1\n      iszero\n      tag_494\n      jumpi\n      pop\n        /* \"contracts/StemPayLotteryManager.sol\":7165:7173  l.winner */\n      0x0a\n      dup2\n      add\n      sload\n      sub(shl(0xa0, 0x01), 0x01)\n      and\n        /* \"contracts/StemPayLotteryManager.sol\":7165:7187  l.winner == address(0) */\n      iszero\n        /* \"contracts/StemPayLotteryManager.sol\":7152:7187  l.isDrawn && l.winner == address(0) */\n    tag_494:\n        /* \"contracts/StemPayLotteryManager.sol\":7144:7209  require(l.isDrawn && l.winner == address(0), \"Already fulfilled\") */\n      tag_495\n      jumpi\n      mload(0x40)\n      shl(0xe5, 0x461bcd)\n      dup2\n      mstore\n        /* \"#utility.yul\":22356:22358   */\n      0x20\n        /* \"contracts/StemPayLotteryManager.sol\":7144:7209  require(l.isDrawn && l.winner == address(0), \"Already fulfilled\") */\n      0x04\n      dup3\n      add\n        /* \"#utility.yul\":22338:22359   */\n      mstore\n        /* \"#utility.yul\":22395:22397   */\n      0x11\n        /* \"#utility.yul\":22375:22393   */\n      0x24\n      dup3\n      add\n        /* \"#utility.yul\":22368:22398   */\n      mstore\n      shl(0x7a, 0x105b1c9958591e48199d5b199a5b1b1959)\n        /* \"#utility.yul\":22414:22432   */\n      0x44\n      dup3\n      add\n        /* \"#utility.yul\":22407:22454   */\n      mstore\n        /* \"#utility.yul\":22471:22489   */\n      0x64\n      add\n        /* \"contracts/StemPayLotteryManager.sol\":7144:7209  require(l.isDrawn && l.winner == address(0), \"Already fulfilled\") */\n      tag_277\n        /* \"#utility.yul\":22154:22495   */\n      jump\n        /* \"contracts/StemPayLotteryManager.sol\":7144:7209  require(l.isDrawn && l.winner == address(0), \"Already fulfilled\") */\n    tag_495:\n        /* \"contracts/StemPayLotteryManager.sol\":7220:7239  uint256 winnerIndex */\n      0x00\n        /* \"contracts/StemPayLotteryManager.sol\":7259:7260  l */\n      dup2\n        /* \"contracts/StemPayLotteryManager.sol\":7259:7273  l.participants */\n      0x09\n      add\n        /* \"contracts/StemPayLotteryManager.sol\":7259:7280  l.participants.length */\n      dup1\n      sload\n      swap1\n      pop\n        /* \"contracts/StemPayLotteryManager.sol\":7242:7253  randomWords */\n      dup5\n        /* \"contracts/StemPayLotteryManager.sol\":7254:7255  0 */\n      0x00\n        /* \"contracts/StemPayLotteryManager.sol\":7242:7256  randomWords[0] */\n      dup2\n      mload\n      dup2\n      lt\n      tag_499\n      jumpi\n      tag_499\n      tag_237\n      jump\t// in\n    tag_499:\n      0x20\n      mul\n      0x20\n      add\n      add\n      mload\n        /* \"contracts/StemPayLotteryManager.sol\":7242:7280  randomWords[0] % l.participants.length */\n      tag_500\n      swap2\n      swap1\n      tag_501\n      jump\t// in\n    tag_500:\n        /* \"contracts/StemPayLotteryManager.sol\":7220:7280  uint256 winnerIndex = randomWords[0] % l.participants.length */\n      swap1\n      pop\n        /* \"contracts/StemPayLotteryManager.sol\":7301:7302  l */\n      dup2\n        /* \"contracts/StemPayLotteryManager.sol\":7301:7315  l.participants */\n      0x09\n      add\n        /* \"contracts/StemPayLotteryManager.sol\":7316:7327  winnerIndex */\n      dup2\n        /* \"contracts/StemPayLotteryManager.sol\":7301:7328  l.participants[winnerIndex] */\n      dup2\n      sload\n      dup2\n      lt\n      tag_503\n      jumpi\n      tag_503\n      tag_237\n      jump\t// in\n    tag_503:\n      0x00\n      swap2\n      dup3\n      mstore\n      0x20\n      swap1\n      swap2\n      keccak256\n      add\n      sload\n        /* \"contracts/StemPayLotteryManager.sol\":7290:7298  l.winner */\n      0x0a\n      dup4\n      add\n        /* \"contracts/StemPayLotteryManager.sol\":7290:7328  l.winner = l.participants[winnerIndex] */\n      dup1\n      sload\n      not(sub(shl(0xa0, 0x01), 0x01))\n      and\n      sub(shl(0xa0, 0x01), 0x01)\n        /* \"contracts/StemPayLotteryManager.sol\":7301:7328  l.participants[winnerIndex] */\n      swap3\n      dup4\n      and\n        /* \"contracts/StemPayLotteryManager.sol\":7290:7328  l.winner = l.participants[winnerIndex] */\n      or\n      swap1\n      sstore\n        /* \"contracts/StemPayLotteryManager.sol\":7361:7375  l.tokenAddress */\n      dup3\n      sload\n        /* \"contracts/StemPayLotteryManager.sol\":7401:7417  investmentWallet */\n      0x04\n      dup1\n      sload\n        /* \"contracts/StemPayLotteryManager.sol\":7419:7436  l.feeToInvestment */\n      0x06\n      dup7\n      add\n      sload\n        /* \"contracts/StemPayLotteryManager.sol\":7386:7437  token.transfer(investmentWallet, l.feeToInvestment) */\n      mload(0x40)\n      shl(0xe0, 0xa9059cbb)\n      dup2\n      mstore\n        /* \"contracts/StemPayLotteryManager.sol\":7401:7417  investmentWallet */\n      swap2\n      dup6\n      and\n        /* \"contracts/StemPayLotteryManager.sol\":7386:7437  token.transfer(investmentWallet, l.feeToInvestment) */\n      swap3\n      dup3\n      add\n        /* \"#utility.yul\":18490:18541   */\n      swap3\n      swap1\n      swap3\n      mstore\n        /* \"#utility.yul\":18557:18575   */\n      0x24\n      dup2\n      add\n        /* \"#utility.yul\":18550:18584   */\n      swap2\n      swap1\n      swap2\n      mstore\n        /* \"contracts/StemPayLotteryManager.sol\":7361:7375  l.tokenAddress */\n      swap2\n      and\n      swap1\n      dup2\n      swap1\n        /* \"contracts/StemPayLotteryManager.sol\":7386:7400  token.transfer */\n      0xa9059cbb\n      swap1\n        /* \"#utility.yul\":18463:18481   */\n      0x44\n      add\n        /* \"contracts/StemPayLotteryManager.sol\":7386:7437  token.transfer(investmentWallet, l.feeToInvestment) */\n      0x20\n      mload(0x40)\n      dup1\n      dup4\n      sub\n      dup2\n      0x00\n      dup8\n      gas\n      call\n      iszero\n      dup1\n      iszero\n      tag_507\n      jumpi\n      returndatacopy(0x00, 0x00, returndatasize)\n      revert(0x00, returndatasize)\n    tag_507:\n      pop\n      pop\n      pop\n      pop\n      mload(0x40)\n      returndatasize\n      not(0x1f)\n      0x1f\n      dup3\n      add\n      and\n      dup3\n      add\n      dup1\n      0x40\n      mstore\n      pop\n      dup2\n      add\n      swap1\n      tag_508\n      swap2\n      swap1\n      tag_310\n      jump\t// in\n    tag_508:\n      pop\n        /* \"contracts/StemPayLotteryManager.sol\":7462:7474  profitWallet */\n      sload(0x05)\n        /* \"contracts/StemPayLotteryManager.sol\":7476:7489  l.feeToProfit */\n      0x07\n      dup5\n      add\n      sload\n        /* \"contracts/StemPayLotteryManager.sol\":7447:7490  token.transfer(profitWallet, l.feeToProfit) */\n      mload(0x40)\n      shl(0xe0, 0xa9059cbb)\n      dup2\n      mstore\n      sub(shl(0xa0, 0x01), 0x01)\n        /* \"contracts/StemPayLotteryManager.sol\":7462:7474  profitWallet */\n      swap3\n      dup4\n      and\n        /* \"contracts/StemPayLotteryManager.sol\":7447:7490  token.transfer(profitWallet, l.feeToProfit) */\n      0x04\n      dup3\n      add\n        /* \"#utility.yul\":18490:18541   */\n      mstore\n        /* \"#utility.yul\":18557:18575   */\n      0x24\n      dup2\n      add\n        /* \"#utility.yul\":18550:18584   */\n      swap2\n      swap1\n      swap2\n      mstore\n        /* \"contracts/StemPayLotteryManager.sol\":7447:7461  token.transfer */\n      swap1\n      dup3\n      and\n      swap1\n      0xa9059cbb\n      swap1\n        /* \"#utility.yul\":18463:18481   */\n      0x44\n      add\n        /* \"contracts/StemPayLotteryManager.sol\":7447:7490  token.transfer(profitWallet, l.feeToProfit) */\n      0x20\n      mload(0x40)\n      dup1\n      dup4\n      sub\n      dup2\n      0x00\n      dup8\n      gas\n      call\n      iszero\n      dup1\n      iszero\n      tag_511\n      jumpi\n      returndatacopy(0x00, 0x00, returndatasize)\n      revert(0x00, returndatasize)\n    tag_511:\n      pop\n      pop\n      pop\n      pop\n      mload(0x40)\n      returndatasize\n      not(0x1f)\n      0x1f\n      dup3\n      add\n      and\n      dup3\n      add\n      dup1\n      0x40\n      mstore\n      pop\n      dup2\n      add\n      swap1\n      tag_512\n      swap2\n      swap1\n      tag_310\n      jump\t// in\n    tag_512:\n      pop\n        /* \"contracts/StemPayLotteryManager.sol\":7532:7540  l.winner */\n      0x0a\n      dup4\n      add\n      sload\n        /* \"contracts/StemPayLotteryManager.sol\":7506:7541  WinnerSelected(lotteryId, l.winner) */\n      0x40\n      dup1\n      mload\n        /* \"#utility.yul\":14948:14973   */\n      dup7\n      dup2\n      mstore\n      sub(shl(0xa0, 0x01), 0x01)\n        /* \"contracts/StemPayLotteryManager.sol\":7532:7540  l.winner */\n      swap1\n      swap3\n      and\n        /* \"#utility.yul\":15004:15006   */\n      0x20\n        /* \"#utility.yul\":14989:15007   */\n      dup4\n      add\n        /* \"#utility.yul\":14982:15042   */\n      mstore\n        /* \"contracts/StemPayLotteryManager.sol\":7506:7541  WinnerSelected(lotteryId, l.winner) */\n      0x03fb57eb449654e24e1b240d3d06702cf79362a065d5c0323aee642d4702fa4b\n      swap2\n        /* \"#utility.yul\":14921:14939   */\n      add\n        /* \"contracts/StemPayLotteryManager.sol\":7506:7541  WinnerSelected(lotteryId, l.winner) */\n      mload(0x40)\n      dup1\n      swap2\n      sub\n      swap1\n      log1\n        /* \"contracts/StemPayLotteryManager.sol\":7026:7548  {... */\n      pop\n      pop\n      pop\n      pop\n        /* \"contracts/StemPayLotteryManager.sol\":6909:7548  function fulfillRandomWords(... */\n      pop\n      pop\n      jump\t// out\n        /* \"@openzeppelin/contracts/security/ReentrancyGuard.sol\":2336:2623  function _nonReentrantBefore() private {... */\n    tag_283:\n        /* \"@openzeppelin/contracts/security/ReentrancyGuard.sol\":1759:1760  2 */\n      0x02\n        /* \"@openzeppelin/contracts/security/ReentrancyGuard.sol\":2468:2475  _status */\n      sload(0x00)\n        /* \"@openzeppelin/contracts/security/ReentrancyGuard.sol\":2468:2487  _status != _ENTERED */\n      sub\n        /* \"@openzeppelin/contracts/security/ReentrancyGuard.sol\":2460:2523  require(_status != _ENTERED, \"ReentrancyGuard: reentrant call\") */\n      tag_515\n      jumpi\n      mload(0x40)\n      shl(0xe5, 0x461bcd)\n      dup2\n      mstore\n        /* \"#utility.yul\":22916:22918   */\n      0x20\n        /* \"@openzeppelin/contracts/security/ReentrancyGuard.sol\":2460:2523  require(_status != _ENTERED, \"ReentrancyGuard: reentrant call\") */\n      0x04\n      dup3\n      add\n        /* \"#utility.yul\":22898:22919   */\n      mstore\n        /* \"#utility.yul\":22955:22957   */\n      0x1f\n        /* \"#utility.yul\":22935:22953   */\n      0x24\n      dup3\n      add\n        /* \"#utility.yul\":22928:22958   */\n      mstore\n        /* \"#utility.yul\":22994:23027   */\n      0x5265656e7472616e637947756172643a207265656e7472616e742063616c6c00\n        /* \"#utility.yul\":22974:22992   */\n      0x44\n      dup3\n      add\n        /* \"#utility.yul\":22967:23028   */\n      mstore\n        /* \"#utility.yul\":23045:23063   */\n      0x64\n      add\n        /* \"@openzeppelin/contracts/security/ReentrancyGuard.sol\":2460:2523  require(_status != _ENTERED, \"ReentrancyGuard: reentrant call\") */\n      tag_277\n        /* \"#utility.yul\":22714:23069   */\n      jump\n        /* \"@openzeppelin/contracts/security/ReentrancyGuard.sol\":2460:2523  require(_status != _ENTERED, \"ReentrancyGuard: reentrant call\") */\n    tag_515:\n        /* \"@openzeppelin/contracts/security/ReentrancyGuard.sol\":1759:1760  2 */\n      0x02\n        /* \"@openzeppelin/contracts/security/ReentrancyGuard.sol\":2598:2605  _status */\n      0x00\n        /* \"@openzeppelin/contracts/security/ReentrancyGuard.sol\":2598:2616  _status = _ENTERED */\n      sstore\n        /* \"@openzeppelin/contracts/security/ReentrancyGuard.sol\":2336:2623  function _nonReentrantBefore() private {... */\n      jump\t// out\n        /* \"@openzeppelin/contracts-upgradeable/access/OwnableUpgradeable.sol\":2658:2820  function _checkOwner() internal view virtual {... */\n    tag_341:\n        /* \"@openzeppelin/contracts-upgradeable/utils/ContextUpgradeable.sol\":966:976  msg.sender */\n      caller\n        /* \"@openzeppelin/contracts-upgradeable/access/OwnableUpgradeable.sol\":2717:2724  owner() */\n      tag_522\n        /* \"@openzeppelin/contracts-upgradeable/access/OwnableUpgradeable.sol\":1313:1335  OwnableStorageLocation */\n      0x9016d09d72d40fdae2fd8ceac6b6234c7706214fd39c1cd1e609a0528c199300\n        /* \"@openzeppelin/contracts-upgradeable/access/OwnableUpgradeable.sol\":2570:2578  $._owner */\n      sload\n      sub(shl(0xa0, 0x01), 0x01)\n      and\n      swap1\n        /* \"@openzeppelin/contracts-upgradeable/access/OwnableUpgradeable.sol\":2441:2585  function owner() public view virtual returns (address) {... */\n      jump\n        /* \"@openzeppelin/contracts-upgradeable/access/OwnableUpgradeable.sol\":2717:2724  owner() */\n    tag_522:\n      sub(shl(0xa0, 0x01), 0x01)\n        /* \"@openzeppelin/contracts-upgradeable/access/OwnableUpgradeable.sol\":2717:2740  owner() != _msgSender() */\n      and\n      eq\n        /* \"@openzeppelin/contracts-upgradeable/access/OwnableUpgradeable.sol\":2713:2814  if (owner() != _msgSender()) {... */\n      tag_423\n      jumpi\n        /* \"@openzeppelin/contracts-upgradeable/access/OwnableUpgradeable.sol\":2763:2803  OwnableUnauthorizedAccount(_msgSender()) */\n      mload(0x40)\n      shl(0xe0, 0x118cdaa7)\n      dup2\n      mstore\n        /* \"@openzeppelin/contracts-upgradeable/utils/ContextUpgradeable.sol\":966:976  msg.sender */\n      caller\n        /* \"@openzeppelin/contracts-upgradeable/access/OwnableUpgradeable.sol\":2763:2803  OwnableUnauthorizedAccount(_msgSender()) */\n      0x04\n      dup3\n      add\n        /* \"#utility.yul\":5237:5288   */\n      mstore\n        /* \"#utility.yul\":5210:5228   */\n      0x24\n      add\n        /* \"@openzeppelin/contracts-upgradeable/access/OwnableUpgradeable.sol\":2763:2803  OwnableUnauthorizedAccount(_msgSender()) */\n      tag_277\n        /* \"#utility.yul\":5091:5294   */\n      jump\n        /* \"@openzeppelin/contracts-upgradeable/proxy/utils/UUPSUpgradeable.sol\":4578:4890  function _checkProxy() internal view virtual {... */\n    tag_362:\n        /* \"@openzeppelin/contracts-upgradeable/proxy/utils/UUPSUpgradeable.sol\":4658:4662  this */\n      address\n      sub(shl(0xa0, 0x01), 0x01)\n        /* \"@openzeppelin/contracts-upgradeable/proxy/utils/UUPSUpgradeable.sol\":4667:4673  __self */\n      immutable(\"0x7e11962f85eb7ceb5b38e296d507e5039b360e5ad6815220a68768366dc10fdd\")\n        /* \"@openzeppelin/contracts-upgradeable/proxy/utils/UUPSUpgradeable.sol\":4650:4673  address(this) == __self */\n      and\n      eq\n      dup1\n        /* \"@openzeppelin/contracts-upgradeable/proxy/utils/UUPSUpgradeable.sol\":4650:4770  address(this) == __self || // Must be called through delegatecall... */\n      tag_527\n      jumpi\n      pop\n        /* \"@openzeppelin/contracts-upgradeable/proxy/utils/UUPSUpgradeable.sol\":4764:4770  __self */\n      immutable(\"0x7e11962f85eb7ceb5b38e296d507e5039b360e5ad6815220a68768366dc10fdd\")\n      sub(shl(0xa0, 0x01), 0x01)\n        /* \"@openzeppelin/contracts-upgradeable/proxy/utils/UUPSUpgradeable.sol\":4728:4770  ERC1967Utils.getImplementation() != __self */\n      and\n        /* \"@openzeppelin/contracts-upgradeable/proxy/utils/UUPSUpgradeable.sol\":4728:4760  ERC1967Utils.getImplementation() */\n      tag_528\n      mload(0x00)\n      codecopy(0x00, data_75b20eef8615de99c108b05f0dbda081c91897128caa336d75dffb97c4132b4d, 0x20)\n      mload(0x00)\n      swap1\n      0x00\n      mstore\n        /* \"@openzeppelin/contracts/proxy/ERC1967/ERC1967Utils.sol\":1519:1572  StorageSlot.getAddressSlot(IMPLEMENTATION_SLOT).value */\n      sload\n      sub(shl(0xa0, 0x01), 0x01)\n      and\n      swap1\n        /* \"@openzeppelin/contracts/proxy/ERC1967/ERC1967Utils.sol\":1441:1579  function getImplementation() internal view returns (address) {... */\n      jump\n        /* \"@openzeppelin/contracts-upgradeable/proxy/utils/UUPSUpgradeable.sol\":4728:4760  ERC1967Utils.getImplementation() */\n    tag_528:\n      sub(shl(0xa0, 0x01), 0x01)\n        /* \"@openzeppelin/contracts-upgradeable/proxy/utils/UUPSUpgradeable.sol\":4728:4770  ERC1967Utils.getImplementation() != __self */\n      and\n      eq\n      iszero\n        /* \"@openzeppelin/contracts-upgradeable/proxy/utils/UUPSUpgradeable.sol\":4650:4770  address(this) == __self || // Must be called through delegatecall... */\n    tag_527:\n        /* \"@openzeppelin/contracts-upgradeable/proxy/utils/UUPSUpgradeable.sol\":4633:4884  if (... */\n      iszero\n      tag_423\n      jumpi\n        /* \"@openzeppelin/contracts-upgradeable/proxy/utils/UUPSUpgradeable.sol\":4844:4873  UUPSUnauthorizedCallContext() */\n      mload(0x40)\n      shl(0xe1, 0x703e46dd)\n      dup2\n      mstore\n      0x04\n      add\n      mload(0x40)\n      dup1\n      swap2\n      sub\n      swap1\n      revert\n        /* \"contracts/StemPayLotteryManager.sol\":3777:3843  function _authorizeUpgrade(address) internal override onlyOwner {} */\n    tag_365:\n        /* \"@openzeppelin/contracts-upgradeable/access/OwnableUpgradeable.sol\":2334:2347  _checkOwner() */\n      tag_337\n        /* \"@openzeppelin/contracts-upgradeable/access/OwnableUpgradeable.sol\":2334:2345  _checkOwner */\n      tag_341\n        /* \"@openzeppelin/contracts-upgradeable/access/OwnableUpgradeable.sol\":2334:2347  _checkOwner() */\n      jump\t// in\n        /* \"@openzeppelin/contracts-upgradeable/proxy/utils/UUPSUpgradeable.sol\":6032:6570  function _upgradeToAndCallUUPS(address newImplementation, bytes memory data) private {... */\n    tag_367:\n        /* \"@openzeppelin/contracts-upgradeable/proxy/utils/UUPSUpgradeable.sol\":6149:6166  newImplementation */\n      dup2\n      sub(shl(0xa0, 0x01), 0x01)\n        /* \"@openzeppelin/contracts-upgradeable/proxy/utils/UUPSUpgradeable.sol\":6131:6181  IERC1822Proxiable(newImplementation).proxiableUUID */\n      and\n      0x52d1902d\n        /* \"@openzeppelin/contracts-upgradeable/proxy/utils/UUPSUpgradeable.sol\":6131:6183  IERC1822Proxiable(newImplementation).proxiableUUID() */\n      mload(0x40)\n      dup2\n      0xffffffff\n      and\n      0xe0\n      shl\n      dup2\n      mstore\n      0x04\n      add\n      0x20\n      mload(0x40)\n      dup1\n      dup4\n      sub\n      dup2\n      dup7\n      gas\n      staticcall\n      swap3\n      pop\n      pop\n      pop\n      dup1\n      iszero\n      tag_535\n      jumpi\n      pop\n      0x40\n      dup1\n      mload\n      0x1f\n      returndatasize\n      swap1\n      dup2\n      add\n      not(0x1f)\n      and\n      dup3\n      add\n      swap1\n      swap3\n      mstore\n      tag_536\n      swap2\n      dup2\n      add\n      swap1\n      tag_414\n      jump\t// in\n    tag_536:\n      0x01\n    tag_535:\n        /* \"@openzeppelin/contracts-upgradeable/proxy/utils/UUPSUpgradeable.sol\":6127:6564  try IERC1822Proxiable(newImplementation).proxiableUUID() returns (bytes32 slot) {... */\n      tag_538\n      jumpi\n        /* \"@openzeppelin/contracts-upgradeable/proxy/utils/UUPSUpgradeable.sol\":6493:6553  ERC1967Utils.ERC1967InvalidImplementation(newImplementation) */\n      mload(0x40)\n      shl(0xe0, 0x4c9c8ce3)\n      dup2\n      mstore\n      sub(shl(0xa0, 0x01), 0x01)\n        /* \"#utility.yul\":5255:5287   */\n      dup4\n      and\n        /* \"@openzeppelin/contracts-upgradeable/proxy/utils/UUPSUpgradeable.sol\":6493:6553  ERC1967Utils.ERC1967InvalidImplementation(newImplementation) */\n      0x04\n      dup3\n      add\n        /* \"#utility.yul\":5237:5288   */\n      mstore\n        /* \"#utility.yul\":5210:5228   */\n      0x24\n      add\n        /* \"@openzeppelin/contracts-upgradeable/proxy/utils/UUPSUpgradeable.sol\":6493:6553  ERC1967Utils.ERC1967InvalidImplementation(newImplementation) */\n      tag_277\n        /* \"#utility.yul\":5091:5294   */\n      jump\n        /* \"@openzeppelin/contracts-upgradeable/proxy/utils/UUPSUpgradeable.sol\":6127:6564  try IERC1822Proxiable(newImplementation).proxiableUUID() returns (bytes32 slot) {... */\n    tag_538:\n      mload(0x00)\n      codecopy(0x00, data_75b20eef8615de99c108b05f0dbda081c91897128caa336d75dffb97c4132b4d, 0x20)\n      mload(0x00)\n      swap1\n      0x00\n      mstore\n        /* \"@openzeppelin/contracts-upgradeable/proxy/utils/UUPSUpgradeable.sol\":6225:6265  slot != ERC1967Utils.IMPLEMENTATION_SLOT */\n      dup2\n      eq\n        /* \"@openzeppelin/contracts-upgradeable/proxy/utils/UUPSUpgradeable.sol\":6221:6341  if (slot != ERC1967Utils.IMPLEMENTATION_SLOT) {... */\n      tag_544\n      jumpi\n        /* \"@openzeppelin/contracts-upgradeable/proxy/utils/UUPSUpgradeable.sol\":6292:6326  UUPSUnsupportedProxiableUUID(slot) */\n      mload(0x40)\n      shl(0xe2, 0x2a875269)\n      dup2\n      mstore\n      0x04\n      dup2\n      add\n        /* \"#utility.yul\":1547:1572   */\n      dup3\n      swap1\n      mstore\n        /* \"#utility.yul\":1520:1538   */\n      0x24\n      add\n        /* \"@openzeppelin/contracts-upgradeable/proxy/utils/UUPSUpgradeable.sol\":6292:6326  UUPSUnsupportedProxiableUUID(slot) */\n      tag_277\n        /* \"#utility.yul\":1401:1578   */\n      jump\n        /* \"@openzeppelin/contracts-upgradeable/proxy/utils/UUPSUpgradeable.sol\":6221:6341  if (slot != ERC1967Utils.IMPLEMENTATION_SLOT) {... */\n    tag_544:\n        /* \"@openzeppelin/contracts-upgradeable/proxy/utils/UUPSUpgradeable.sol\":6354:6408  ERC1967Utils.upgradeToAndCall(newImplementation, data) */\n      tag_546\n        /* \"@openzeppelin/contracts-upgradeable/proxy/utils/UUPSUpgradeable.sol\":6384:6401  newImplementation */\n      dup4\n        /* \"@openzeppelin/contracts-upgradeable/proxy/utils/UUPSUpgradeable.sol\":6403:6407  data */\n      dup4\n        /* \"@openzeppelin/contracts-upgradeable/proxy/utils/UUPSUpgradeable.sol\":6354:6383  ERC1967Utils.upgradeToAndCall */\n      tag_547\n        /* \"@openzeppelin/contracts-upgradeable/proxy/utils/UUPSUpgradeable.sol\":6354:6408  ERC1967Utils.upgradeToAndCall(newImplementation, data) */\n      jump\t// in\n    tag_546:\n        /* \"@openzeppelin/contracts-upgradeable/proxy/utils/UUPSUpgradeable.sol\":6184:6419  returns (bytes32 slot) {... */\n      pop\n        /* \"@openzeppelin/contracts-upgradeable/proxy/utils/UUPSUpgradeable.sol\":6032:6570  function _upgradeToAndCallUUPS(address newImplementation, bytes memory data) private {... */\n      pop\n      pop\n      jump\t// out\n        /* \"@openzeppelin/contracts-upgradeable/proxy/utils/UUPSUpgradeable.sol\":5007:5220  function _checkNotDelegated() internal view virtual {... */\n    tag_370:\n        /* \"@openzeppelin/contracts-upgradeable/proxy/utils/UUPSUpgradeable.sol\":5081:5085  this */\n      address\n      sub(shl(0xa0, 0x01), 0x01)\n        /* \"@openzeppelin/contracts-upgradeable/proxy/utils/UUPSUpgradeable.sol\":5090:5096  __self */\n      immutable(\"0x7e11962f85eb7ceb5b38e296d507e5039b360e5ad6815220a68768366dc10fdd\")\n        /* \"@openzeppelin/contracts-upgradeable/proxy/utils/UUPSUpgradeable.sol\":5073:5096  address(this) != __self */\n      and\n      eq\n        /* \"@openzeppelin/contracts-upgradeable/proxy/utils/UUPSUpgradeable.sol\":5069:5214  if (address(this) != __self) {... */\n      tag_423\n      jumpi\n        /* \"@openzeppelin/contracts-upgradeable/proxy/utils/UUPSUpgradeable.sol\":5174:5203  UUPSUnauthorizedCallContext() */\n      mload(0x40)\n      shl(0xe1, 0x703e46dd)\n      dup2\n      mstore\n      0x04\n      add\n      mload(0x40)\n      dup1\n      swap2\n      sub\n      swap1\n      revert\n        /* \"@chainlink/contracts/src/v0.8/vrf/dev/libraries/VRFV2PlusClient.sol\":475:638  function _argsToBytes(ExtraArgsV1 memory extraArgs) internal pure returns (bytes memory bts) {... */\n    tag_408:\n        /* \"@chainlink/contracts/src/v0.8/vrf/dev/libraries/VRFV2PlusClient.sol\":550:566  bytes memory bts */\n      0x60\n        /* \"@chainlink/contracts/src/v0.8/vrf/dev/libraries/VRFV2PlusClient.sol\":211:239  keccak256(\"VRF ExtraArgsV1\") */\n      0x92fd13387c7fe7befbc38d303d6468778fb9731bc4583f17d92989c6fcfdeaaa\n        /* \"@chainlink/contracts/src/v0.8/vrf/dev/libraries/VRFV2PlusClient.sol\":623:632  extraArgs */\n      dup3\n        /* \"@chainlink/contracts/src/v0.8/vrf/dev/libraries/VRFV2PlusClient.sol\":581:633  abi.encodeWithSelector(EXTRA_ARGS_V1_TAG, extraArgs) */\n      add(0x24, mload(0x40))\n      tag_551\n      swap2\n        /* \"#utility.yul\":23497:23510   */\n      mload\n        /* \"#utility.yul\":23490:23511   */\n      iszero\n        /* \"#utility.yul\":23483:23512   */\n      iszero\n        /* \"#utility.yul\":23465:23513   */\n      dup2\n      mstore\n        /* \"#utility.yul\":23453:23455   */\n      0x20\n        /* \"#utility.yul\":23438:23456   */\n      add\n      swap1\n        /* \"#utility.yul\":23263:23519   */\n      jump\n        /* \"@chainlink/contracts/src/v0.8/vrf/dev/libraries/VRFV2PlusClient.sol\":581:633  abi.encodeWithSelector(EXTRA_ARGS_V1_TAG, extraArgs) */\n    tag_551:\n      0x40\n      dup1\n      mload\n      not(0x1f)\n      dup2\n      dup5\n      sub\n      add\n      dup2\n      mstore\n      swap2\n      swap1\n      mstore\n      0x20\n      dup2\n      add\n      dup1\n      mload\n      sub(shl(0xe0, 0x01), 0x01)\n      and\n      not(sub(shl(0xe0, 0x01), 0x01))\n      swap1\n      swap4\n      and\n      swap3\n      swap1\n      swap3\n      or\n      swap1\n      swap2\n      mstore\n      swap3\n        /* \"@chainlink/contracts/src/v0.8/vrf/dev/libraries/VRFV2PlusClient.sol\":475:638  function _argsToBytes(ExtraArgsV1 memory extraArgs) internal pure returns (bytes memory bts) {... */\n      swap2\n      pop\n      pop\n      jump\t// out\n        /* \"@openzeppelin/contracts-upgradeable/access/OwnableUpgradeable.sol\":3774:4022  function _transferOwnership(address newOwner) internal virtual {... */\n    tag_424:\n        /* \"@openzeppelin/contracts-upgradeable/access/OwnableUpgradeable.sol\":1313:1335  OwnableStorageLocation */\n      0x9016d09d72d40fdae2fd8ceac6b6234c7706214fd39c1cd1e609a0528c199300\n        /* \"@openzeppelin/contracts-upgradeable/access/OwnableUpgradeable.sol\":3923:3931  $._owner */\n      dup1\n      sload\n      not(sub(shl(0xa0, 0x01), 0x01))\n        /* \"@openzeppelin/contracts-upgradeable/access/OwnableUpgradeable.sol\":3941:3960  $._owner = newOwner */\n      dup2\n      and\n      sub(shl(0xa0, 0x01), 0x01)\n      dup5\n      dup2\n      and\n      swap2\n      dup3\n      or\n      dup5\n      sstore\n        /* \"@openzeppelin/contracts-upgradeable/access/OwnableUpgradeable.sol\":3975:4015  OwnershipTransferred(oldOwner, newOwner) */\n      mload(0x40)\n        /* \"@openzeppelin/contracts-upgradeable/access/OwnableUpgradeable.sol\":3923:3931  $._owner */\n      swap3\n      and\n      swap2\n      dup3\n      swap1\n        /* \"@openzeppelin/contracts-upgradeable/access/OwnableUpgradeable.sol\":3975:4015  OwnershipTransferred(oldOwner, newOwner) */\n      0x8be0079c531659141344cd1fd0a4f28419497f9722a3daafe3b4186f6b6457e0\n      swap1\n        /* \"@openzeppelin/contracts-upgradeable/access/OwnableUpgradeable.sol\":3847:3871  OwnableStorage storage $ */\n      0x00\n      swap1\n        /* \"@openzeppelin/contracts-upgradeable/access/OwnableUpgradeable.sol\":3975:4015  OwnershipTransferred(oldOwner, newOwner) */\n      log3\n        /* \"@openzeppelin/contracts-upgradeable/access/OwnableUpgradeable.sol\":3837:4022  {... */\n      pop\n      pop\n        /* \"@openzeppelin/contracts-upgradeable/access/OwnableUpgradeable.sol\":3774:4022  function _transferOwnership(address newOwner) internal virtual {... */\n      pop\n      jump\t// out\n        /* \"@openzeppelin/contracts-upgradeable/proxy/utils/Initializable.sol\":7082:7223  function _checkInitializing() internal view virtual {... */\n    tag_483:\n        /* \"@openzeppelin/contracts-upgradeable/proxy/utils/Initializable.sol\":7149:7166  _isInitializing() */\n      tag_558\n        /* \"@openzeppelin/contracts-upgradeable/proxy/utils/Initializable.sol\":7149:7164  _isInitializing */\n      tag_559\n        /* \"@openzeppelin/contracts-upgradeable/proxy/utils/Initializable.sol\":7149:7166  _isInitializing() */\n      jump\t// in\n    tag_558:\n        /* \"@openzeppelin/contracts-upgradeable/proxy/utils/Initializable.sol\":7144:7217  if (!_isInitializing()) {... */\n      tag_423\n      jumpi\n        /* \"@openzeppelin/contracts-upgradeable/proxy/utils/Initializable.sol\":7189:7206  NotInitializing() */\n      mload(0x40)\n      shl(0xe3, 0x1afcd79f)\n      dup2\n      mstore\n      0x04\n      add\n      mload(0x40)\n      dup1\n      swap2\n      sub\n      swap1\n      revert\n        /* \"@openzeppelin/contracts-upgradeable/access/OwnableUpgradeable.sol\":1980:2215  function __Ownable_init_unchained(address initialOwner) internal onlyInitializing {... */\n    tag_486:\n        /* \"@openzeppelin/contracts-upgradeable/proxy/utils/Initializable.sol\":6929:6949  _checkInitializing() */\n      tag_473\n        /* \"@openzeppelin/contracts-upgradeable/proxy/utils/Initializable.sol\":6929:6947  _checkInitializing */\n      tag_483\n        /* \"@openzeppelin/contracts-upgradeable/proxy/utils/Initializable.sol\":6929:6949  _checkInitializing() */\n      jump\t// in\n        /* \"@openzeppelin/contracts/proxy/ERC1967/ERC1967Utils.sol\":2264:2608  function upgradeToAndCall(address newImplementation, bytes memory data) internal {... */\n    tag_547:\n        /* \"@openzeppelin/contracts/proxy/ERC1967/ERC1967Utils.sol\":2355:2392  _setImplementation(newImplementation) */\n      tag_572\n        /* \"@openzeppelin/contracts/proxy/ERC1967/ERC1967Utils.sol\":2374:2391  newImplementation */\n      dup3\n        /* \"@openzeppelin/contracts/proxy/ERC1967/ERC1967Utils.sol\":2355:2373  _setImplementation */\n      tag_573\n        /* \"@openzeppelin/contracts/proxy/ERC1967/ERC1967Utils.sol\":2355:2392  _setImplementation(newImplementation) */\n      jump\t// in\n    tag_572:\n        /* \"@openzeppelin/contracts/proxy/ERC1967/ERC1967Utils.sol\":2407:2443  IERC1967.Upgraded(newImplementation) */\n      mload(0x40)\n      sub(shl(0xa0, 0x01), 0x01)\n      dup4\n      and\n      swap1\n      0xbc7cd75a20ee27fd9adebab32041f755214dbc6bffa90cc0225b39da2e5c2d3b\n      swap1\n      0x00\n      swap1\n      log2\n        /* \"@openzeppelin/contracts/proxy/ERC1967/ERC1967Utils.sol\":2458:2469  data.length */\n      dup1\n      mload\n        /* \"@openzeppelin/contracts/proxy/ERC1967/ERC1967Utils.sol\":2458:2473  data.length > 0 */\n      iszero\n        /* \"@openzeppelin/contracts/proxy/ERC1967/ERC1967Utils.sol\":2454:2602  if (data.length > 0) {... */\n      tag_574\n      jumpi\n        /* \"@openzeppelin/contracts/proxy/ERC1967/ERC1967Utils.sol\":2489:2542  Address.functionDelegateCall(newImplementation, data) */\n      tag_546\n        /* \"@openzeppelin/contracts/proxy/ERC1967/ERC1967Utils.sol\":2518:2535  newImplementation */\n      dup3\n        /* \"@openzeppelin/contracts/proxy/ERC1967/ERC1967Utils.sol\":2537:2541  data */\n      dup3\n        /* \"@openzeppelin/contracts/proxy/ERC1967/ERC1967Utils.sol\":2489:2517  Address.functionDelegateCall */\n      tag_576\n        /* \"@openzeppelin/contracts/proxy/ERC1967/ERC1967Utils.sol\":2489:2542  Address.functionDelegateCall(newImplementation, data) */\n      jump\t// in\n        /* \"@openzeppelin/contracts/proxy/ERC1967/ERC1967Utils.sol\":2454:2602  if (data.length > 0) {... */\n    tag_574:\n        /* \"@openzeppelin/contracts/proxy/ERC1967/ERC1967Utils.sol\":2573:2591  _checkNonPayable() */\n      tag_279\n        /* \"@openzeppelin/contracts/proxy/ERC1967/ERC1967Utils.sol\":2573:2589  _checkNonPayable */\n      tag_579\n        /* \"@openzeppelin/contracts/proxy/ERC1967/ERC1967Utils.sol\":2573:2591  _checkNonPayable() */\n      jump\t// in\n        /* \"@openzeppelin/contracts-upgradeable/proxy/utils/Initializable.sol\":8485:8605  function _isInitializing() internal view returns (bool) {... */\n    tag_559:\n        /* \"@openzeppelin/contracts-upgradeable/proxy/utils/Initializable.sol\":8535:8539  bool */\n      0x00\n        /* \"@openzeppelin/contracts-upgradeable/proxy/utils/Initializable.sol\":8558:8584  _getInitializableStorage() */\n      tag_581\n        /* \"@openzeppelin/contracts-upgradeable/proxy/utils/Initializable.sol\":8558:8582  _getInitializableStorage */\n      tag_259\n        /* \"@openzeppelin/contracts-upgradeable/proxy/utils/Initializable.sol\":8558:8584  _getInitializableStorage() */\n      jump\t// in\n    tag_581:\n        /* \"@openzeppelin/contracts-upgradeable/proxy/utils/Initializable.sol\":8558:8598  _getInitializableStorage()._initializing */\n      sload\n      shl(0x40, 0x01)\n      swap1\n      div\n      0xff\n      and\n      swap2\n      swap1\n      pop\n        /* \"@openzeppelin/contracts-upgradeable/proxy/utils/Initializable.sol\":8485:8605  function _isInitializing() internal view returns (bool) {... */\n      jump\t// out\n        /* \"@openzeppelin/contracts/proxy/ERC1967/ERC1967Utils.sol\":1671:1952  function _setImplementation(address newImplementation) private {... */\n    tag_573:\n        /* \"@openzeppelin/contracts/proxy/ERC1967/ERC1967Utils.sol\":1748:1765  newImplementation */\n      dup1\n      sub(shl(0xa0, 0x01), 0x01)\n        /* \"@openzeppelin/contracts/proxy/ERC1967/ERC1967Utils.sol\":1748:1777  newImplementation.code.length */\n      and\n      extcodesize\n        /* \"@openzeppelin/contracts/proxy/ERC1967/ERC1967Utils.sol\":1781:1782  0 */\n      0x00\n        /* \"@openzeppelin/contracts/proxy/ERC1967/ERC1967Utils.sol\":1748:1782  newImplementation.code.length == 0 */\n      sub\n        /* \"@openzeppelin/contracts/proxy/ERC1967/ERC1967Utils.sol\":1744:1863  if (newImplementation.code.length == 0) {... */\n      tag_584\n      jumpi\n        /* \"@openzeppelin/contracts/proxy/ERC1967/ERC1967Utils.sol\":1805:1852  ERC1967InvalidImplementation(newImplementation) */\n      mload(0x40)\n      shl(0xe0, 0x4c9c8ce3)\n      dup2\n      mstore\n      sub(shl(0xa0, 0x01), 0x01)\n        /* \"#utility.yul\":5255:5287   */\n      dup3\n      and\n        /* \"@openzeppelin/contracts/proxy/ERC1967/ERC1967Utils.sol\":1805:1852  ERC1967InvalidImplementation(newImplementation) */\n      0x04\n      dup3\n      add\n        /* \"#utility.yul\":5237:5288   */\n      mstore\n        /* \"#utility.yul\":5210:5228   */\n      0x24\n      add\n        /* \"@openzeppelin/contracts/proxy/ERC1967/ERC1967Utils.sol\":1805:1852  ERC1967InvalidImplementation(newImplementation) */\n      tag_277\n        /* \"#utility.yul\":5091:5294   */\n      jump\n        /* \"@openzeppelin/contracts/proxy/ERC1967/ERC1967Utils.sol\":1744:1863  if (newImplementation.code.length == 0) {... */\n    tag_584:\n      mload(0x00)\n      codecopy(0x00, data_75b20eef8615de99c108b05f0dbda081c91897128caa336d75dffb97c4132b4d, 0x20)\n      mload(0x00)\n      swap1\n      0x00\n      mstore\n        /* \"@openzeppelin/contracts/proxy/ERC1967/ERC1967Utils.sol\":1872:1945  StorageSlot.getAddressSlot(IMPLEMENTATION_SLOT).value = newImplementation */\n      dup1\n      sload\n      not(sub(shl(0xa0, 0x01), 0x01))\n      and\n      sub(shl(0xa0, 0x01), 0x01)\n      swap3\n      swap1\n      swap3\n      and\n      swap2\n      swap1\n      swap2\n      or\n      swap1\n      sstore\n        /* \"@openzeppelin/contracts/proxy/ERC1967/ERC1967Utils.sol\":1671:1952  function _setImplementation(address newImplementation) private {... */\n      jump\t// out\n        /* \"@openzeppelin/contracts/utils/Address.sol\":3916:4169  function functionDelegateCall(address target, bytes memory data) internal returns (bytes memory) {... */\n    tag_576:\n        /* \"@openzeppelin/contracts/utils/Address.sol\":3999:4011  bytes memory */\n      0x60\n        /* \"@openzeppelin/contracts/utils/Address.sol\":4024:4036  bool success */\n      0x00\n        /* \"@openzeppelin/contracts/utils/Address.sol\":4038:4061  bytes memory returndata */\n      0x00\n        /* \"@openzeppelin/contracts/utils/Address.sol\":4065:4071  target */\n      dup5\n      sub(shl(0xa0, 0x01), 0x01)\n        /* \"@openzeppelin/contracts/utils/Address.sol\":4065:4084  target.delegatecall */\n      and\n        /* \"@openzeppelin/contracts/utils/Address.sol\":4085:4089  data */\n      dup5\n        /* \"@openzeppelin/contracts/utils/Address.sol\":4065:4090  target.delegatecall(data) */\n      mload(0x40)\n      tag_588\n      swap2\n      swap1\n      tag_589\n      jump\t// in\n    tag_588:\n      0x00\n      mload(0x40)\n      dup1\n      dup4\n      sub\n      dup2\n      dup6\n      gas\n      delegatecall\n      swap2\n      pop\n      pop\n      returndatasize\n      dup1\n      0x00\n      dup2\n      eq\n      tag_592\n      jumpi\n      mload(0x40)\n      swap2\n      pop\n      and(add(returndatasize, 0x3f), not(0x1f))\n      dup3\n      add\n      0x40\n      mstore\n      returndatasize\n      dup3\n      mstore\n      returndatasize\n      0x00\n      0x20\n      dup5\n      add\n      returndatacopy\n      jump(tag_591)\n    tag_592:\n      0x60\n      swap2\n      pop\n    tag_591:\n      pop\n        /* \"@openzeppelin/contracts/utils/Address.sol\":4023:4090  (bool success, bytes memory returndata) = target.delegatecall(data) */\n      swap2\n      pop\n      swap2\n      pop\n        /* \"@openzeppelin/contracts/utils/Address.sol\":4107:4162  verifyCallResultFromTarget(target, success, returndata) */\n      tag_593\n        /* \"@openzeppelin/contracts/utils/Address.sol\":4134:4140  target */\n      dup6\n        /* \"@openzeppelin/contracts/utils/Address.sol\":4142:4149  success */\n      dup4\n        /* \"@openzeppelin/contracts/utils/Address.sol\":4151:4161  returndata */\n      dup4\n        /* \"@openzeppelin/contracts/utils/Address.sol\":4107:4133  verifyCallResultFromTarget */\n      tag_594\n        /* \"@openzeppelin/contracts/utils/Address.sol\":4107:4162  verifyCallResultFromTarget(target, success, returndata) */\n      jump\t// in\n    tag_593:\n        /* \"@openzeppelin/contracts/utils/Address.sol\":4100:4162  return verifyCallResultFromTarget(target, success, returndata) */\n      swap6\n        /* \"@openzeppelin/contracts/utils/Address.sol\":3916:4169  function functionDelegateCall(address target, bytes memory data) internal returns (bytes memory) {... */\n      swap5\n      pop\n      pop\n      pop\n      pop\n      pop\n      jump\t// out\n        /* \"@openzeppelin/contracts/proxy/ERC1967/ERC1967Utils.sol\":6113:6235  function _checkNonPayable() private {... */\n    tag_579:\n        /* \"@openzeppelin/contracts/proxy/ERC1967/ERC1967Utils.sol\":6163:6172  msg.value */\n      callvalue\n        /* \"@openzeppelin/contracts/proxy/ERC1967/ERC1967Utils.sol\":6163:6176  msg.value > 0 */\n      iszero\n        /* \"@openzeppelin/contracts/proxy/ERC1967/ERC1967Utils.sol\":6159:6229  if (msg.value > 0) {... */\n      tag_423\n      jumpi\n        /* \"@openzeppelin/contracts/proxy/ERC1967/ERC1967Utils.sol\":6199:6218  ERC1967NonPayable() */\n      mload(0x40)\n      shl(0xe0, 0xb398979f)\n      dup2\n      mstore\n      0x04\n      add\n      mload(0x40)\n      dup1\n      swap2\n      sub\n      swap1\n      revert\n        /* \"@openzeppelin/contracts/utils/Address.sol\":4437:5019  function verifyCallResultFromTarget(... */\n    tag_594:\n        /* \"@openzeppelin/contracts/utils/Address.sol\":4581:4593  bytes memory */\n      0x60\n        /* \"@openzeppelin/contracts/utils/Address.sol\":4610:4617  success */\n      dup3\n        /* \"@openzeppelin/contracts/utils/Address.sol\":4605:5013  if (!success) {... */\n      tag_598\n      jumpi\n        /* \"@openzeppelin/contracts/utils/Address.sol\":4633:4652  _revert(returndata) */\n      tag_599\n        /* \"@openzeppelin/contracts/utils/Address.sol\":4641:4651  returndata */\n      dup3\n        /* \"@openzeppelin/contracts/utils/Address.sol\":4633:4640  _revert */\n      tag_600\n        /* \"@openzeppelin/contracts/utils/Address.sol\":4633:4652  _revert(returndata) */\n      jump\t// in\n    tag_599:\n        /* \"@openzeppelin/contracts/utils/Address.sol\":4605:5013  if (!success) {... */\n      jump(tag_601)\n    tag_598:\n        /* \"@openzeppelin/contracts/utils/Address.sol\":4857:4874  returndata.length */\n      dup2\n      mload\n        /* \"@openzeppelin/contracts/utils/Address.sol\":4857:4879  returndata.length == 0 */\n      iszero\n        /* \"@openzeppelin/contracts/utils/Address.sol\":4857:4906  returndata.length == 0 && target.code.length == 0 */\n      dup1\n      iszero\n      tag_602\n      jumpi\n      pop\n      sub(shl(0xa0, 0x01), 0x01)\n        /* \"@openzeppelin/contracts/utils/Address.sol\":4883:4901  target.code.length */\n      dup5\n      and\n      extcodesize\n        /* \"@openzeppelin/contracts/utils/Address.sol\":4883:4906  target.code.length == 0 */\n      iszero\n        /* \"@openzeppelin/contracts/utils/Address.sol\":4857:4906  returndata.length == 0 && target.code.length == 0 */\n    tag_602:\n        /* \"@openzeppelin/contracts/utils/Address.sol\":4853:4972  if (returndata.length == 0 && target.code.length == 0) {... */\n      iszero\n      tag_603\n      jumpi\n        /* \"@openzeppelin/contracts/utils/Address.sol\":4933:4957  AddressEmptyCode(target) */\n      mload(0x40)\n      shl(0xe0, 0x9996b315)\n      dup2\n      mstore\n      sub(shl(0xa0, 0x01), 0x01)\n        /* \"#utility.yul\":5255:5287   */\n      dup6\n      and\n        /* \"@openzeppelin/contracts/utils/Address.sol\":4933:4957  AddressEmptyCode(target) */\n      0x04\n      dup3\n      add\n        /* \"#utility.yul\":5237:5288   */\n      mstore\n        /* \"#utility.yul\":5210:5228   */\n      0x24\n      add\n        /* \"@openzeppelin/contracts/utils/Address.sol\":4933:4957  AddressEmptyCode(target) */\n      tag_277\n        /* \"#utility.yul\":5091:5294   */\n      jump\n        /* \"@openzeppelin/contracts/utils/Address.sol\":4853:4972  if (returndata.length == 0 && target.code.length == 0) {... */\n    tag_603:\n      pop\n        /* \"@openzeppelin/contracts/utils/Address.sol\":4992:5002  returndata */\n      dup1\n        /* \"@openzeppelin/contracts/utils/Address.sol\":4605:5013  if (!success) {... */\n    tag_601:\n        /* \"@openzeppelin/contracts/utils/Address.sol\":4437:5019  function verifyCallResultFromTarget(... */\n      swap4\n      swap3\n      pop\n      pop\n      pop\n      jump\t// out\n        /* \"@openzeppelin/contracts/utils/Address.sol\":5559:6046  function _revert(bytes memory returndata) private pure {... */\n    tag_600:\n        /* \"@openzeppelin/contracts/utils/Address.sol\":5690:5707  returndata.length */\n      dup1\n      mload\n        /* \"@openzeppelin/contracts/utils/Address.sol\":5690:5711  returndata.length > 0 */\n      iszero\n        /* \"@openzeppelin/contracts/utils/Address.sol\":5686:6040  if (returndata.length > 0) {... */\n      tag_606\n      jumpi\n        /* \"@openzeppelin/contracts/utils/Address.sol\":5887:5897  returndata */\n      dup1\n        /* \"@openzeppelin/contracts/utils/Address.sol\":5881:5898  mload(returndata) */\n      mload\n        /* \"@openzeppelin/contracts/utils/Address.sol\":5943:5958  returndata_size */\n      dup1\n        /* \"@openzeppelin/contracts/utils/Address.sol\":5930:5940  returndata */\n      dup3\n        /* \"@openzeppelin/contracts/utils/Address.sol\":5926:5928  32 */\n      0x20\n        /* \"@openzeppelin/contracts/utils/Address.sol\":5922:5941  add(32, returndata) */\n      add\n        /* \"@openzeppelin/contracts/utils/Address.sol\":5915:5959  revert(add(32, returndata), returndata_size) */\n      revert\n        /* \"@openzeppelin/contracts/utils/Address.sol\":5686:6040  if (returndata.length > 0) {... */\n    tag_606:\n        /* \"@openzeppelin/contracts/utils/Address.sol\":6010:6029  Errors.FailedCall() */\n      mload(0x40)\n      shl(0xe0, 0xd6bda275)\n      dup2\n      mstore\n      0x04\n      add\n      mload(0x40)\n      dup1\n      swap2\n      sub\n      swap1\n      revert\n    tag_446:\n      pop\n      dup1\n      sload\n      0x00\n      dup3\n      sstore\n      swap1\n      0x00\n      mstore\n      keccak256(0x00, 0x20)\n      swap1\n      dup2\n      add\n      swap1\n      tag_337\n      swap2\n      swap1\n    tag_611:\n      dup1\n      dup3\n      gt\n      iszero\n      tag_612\n      jumpi\n      0x00\n      dup2\n      sstore\n      0x01\n      add\n      jump(tag_611)\n    tag_612:\n      pop\n      swap1\n      jump\t// out\n        /* \"#utility.yul\":14:625   */\n    tag_51:\n        /* \"#utility.yul\":204:206   */\n      0x20\n        /* \"#utility.yul\":216:237   */\n      dup1\n      dup3\n      mstore\n        /* \"#utility.yul\":286:299   */\n      dup3\n      mload\n        /* \"#utility.yul\":189:207   */\n      dup3\n      dup3\n      add\n        /* \"#utility.yul\":308:330   */\n      dup2\n      swap1\n      mstore\n        /* \"#utility.yul\":156:160   */\n      0x00\n      swap2\n        /* \"#utility.yul\":387:402   */\n      dup5\n      add\n      swap1\n        /* \"#utility.yul\":361:363   */\n      0x40\n        /* \"#utility.yul\":346:364   */\n      dup5\n      add\n      swap1\n        /* \"#utility.yul\":156:160   */\n      dup4\n        /* \"#utility.yul\":430:599   */\n    tag_622:\n        /* \"#utility.yul\":444:450   */\n      dup2\n        /* \"#utility.yul\":441:442   */\n      dup2\n        /* \"#utility.yul\":438:451   */\n      lt\n        /* \"#utility.yul\":430:599   */\n      iszero\n      tag_624\n      jumpi\n        /* \"#utility.yul\":505:518   */\n      dup4\n      mload\n        /* \"#utility.yul\":493:519   */\n      dup4\n      mstore\n        /* \"#utility.yul\":548:550   */\n      0x20\n        /* \"#utility.yul\":574:589   */\n      swap4\n      dup5\n      add\n      swap4\n        /* \"#utility.yul\":539:551   */\n      swap1\n      swap3\n      add\n      swap2\n        /* \"#utility.yul\":466:467   */\n      0x01\n        /* \"#utility.yul\":459:468   */\n      add\n        /* \"#utility.yul\":430:599   */\n      jump(tag_622)\n    tag_624:\n      pop\n        /* \"#utility.yul\":616:619   */\n      swap1\n      swap6\n        /* \"#utility.yul\":14:625   */\n      swap5\n      pop\n      pop\n      pop\n      pop\n      pop\n      jump\t// out\n        /* \"#utility.yul\":630:803   */\n    tag_613:\n        /* \"#utility.yul\":698:718   */\n      dup1\n      calldataload\n      sub(shl(0xa0, 0x01), 0x01)\n        /* \"#utility.yul\":747:778   */\n      dup2\n      and\n        /* \"#utility.yul\":737:779   */\n      dup2\n      eq\n        /* \"#utility.yul\":727:797   */\n      tag_626\n      jumpi\n        /* \"#utility.yul\":793:794   */\n      0x00\n        /* \"#utility.yul\":790:791   */\n      0x00\n        /* \"#utility.yul\":783:795   */\n      revert\n        /* \"#utility.yul\":727:797   */\n    tag_626:\n        /* \"#utility.yul\":630:803   */\n      swap2\n      swap1\n      pop\n      jump\t// out\n        /* \"#utility.yul\":808:1108   */\n    tag_55:\n        /* \"#utility.yul\":876:882   */\n      0x00\n        /* \"#utility.yul\":884:890   */\n      0x00\n        /* \"#utility.yul\":937:939   */\n      0x40\n        /* \"#utility.yul\":925:934   */\n      dup4\n        /* \"#utility.yul\":916:923   */\n      dup6\n        /* \"#utility.yul\":912:935   */\n      sub\n        /* \"#utility.yul\":908:940   */\n      slt\n        /* \"#utility.yul\":905:957   */\n      iszero\n      tag_628\n      jumpi\n        /* \"#utility.yul\":953:954   */\n      0x00\n        /* \"#utility.yul\":950:951   */\n      0x00\n        /* \"#utility.yul\":943:955   */\n      revert\n        /* \"#utility.yul\":905:957   */\n    tag_628:\n        /* \"#utility.yul\":998:1021   */\n      dup3\n      calldataload\n      swap2\n      pop\n        /* \"#utility.yul\":1064:1102   */\n      tag_629\n        /* \"#utility.yul\":1098:1100   */\n      0x20\n        /* \"#utility.yul\":1083:1101   */\n      dup5\n      add\n        /* \"#utility.yul\":1064:1102   */\n      tag_613\n      jump\t// in\n    tag_629:\n        /* \"#utility.yul\":1054:1102   */\n      swap1\n      pop\n        /* \"#utility.yul\":808:1108   */\n      swap3\n      pop\n      swap3\n      swap1\n      pop\n      jump\t// out\n        /* \"#utility.yul\":1583:2101   */\n    tag_67:\n        /* \"#utility.yul\":1678:1684   */\n      0x00\n        /* \"#utility.yul\":1686:1692   */\n      0x00\n        /* \"#utility.yul\":1694:1700   */\n      0x00\n        /* \"#utility.yul\":1702:1708   */\n      0x00\n        /* \"#utility.yul\":1710:1716   */\n      0x00\n        /* \"#utility.yul\":1763:1766   */\n      0xa0\n        /* \"#utility.yul\":1751:1760   */\n      dup7\n        /* \"#utility.yul\":1742:1749   */\n      dup9\n        /* \"#utility.yul\":1738:1761   */\n      sub\n        /* \"#utility.yul\":1734:1767   */\n      slt\n        /* \"#utility.yul\":1731:1784   */\n      iszero\n      tag_634\n      jumpi\n        /* \"#utility.yul\":1780:1781   */\n      0x00\n        /* \"#utility.yul\":1777:1778   */\n      0x00\n        /* \"#utility.yul\":1770:1782   */\n      revert\n        /* \"#utility.yul\":1731:1784   */\n    tag_634:\n        /* \"#utility.yul\":1803:1832   */\n      tag_635\n        /* \"#utility.yul\":1822:1831   */\n      dup7\n        /* \"#utility.yul\":1803:1832   */\n      tag_613\n      jump\t// in\n    tag_635:\n        /* \"#utility.yul\":1793:1832   */\n      swap5\n      pop\n        /* \"#utility.yul\":1879:1881   */\n      0x20\n        /* \"#utility.yul\":1864:1882   */\n      dup7\n      add\n        /* \"#utility.yul\":1851:1883   */\n      calldataload\n      swap4\n      pop\n        /* \"#utility.yul\":1952:1954   */\n      0x40\n        /* \"#utility.yul\":1937:1955   */\n      dup7\n      add\n        /* \"#utility.yul\":1924:1956   */\n      calldataload\n      swap3\n      pop\n        /* \"#utility.yul\":1999:2037   */\n      tag_636\n        /* \"#utility.yul\":2033:2035   */\n      0x60\n        /* \"#utility.yul\":2018:2036   */\n      dup8\n      add\n        /* \"#utility.yul\":1999:2037   */\n      tag_613\n      jump\t// in\n    tag_636:\n        /* \"#utility.yul\":1989:2037   */\n      swap2\n      pop\n        /* \"#utility.yul\":2056:2095   */\n      tag_637\n        /* \"#utility.yul\":2090:2093   */\n      0x80\n        /* \"#utility.yul\":2079:2088   */\n      dup8\n        /* \"#utility.yul\":2075:2094   */\n      add\n        /* \"#utility.yul\":2056:2095   */\n      tag_613\n      jump\t// in\n    tag_637:\n        /* \"#utility.yul\":2046:2095   */\n      swap1\n      pop\n        /* \"#utility.yul\":1583:2101   */\n      swap3\n      swap6\n      pop\n      swap3\n      swap6\n      swap1\n      swap4\n      pop\n      jump\t// out\n        /* \"#utility.yul\":2106:2332   */\n    tag_72:\n        /* \"#utility.yul\":2165:2171   */\n      0x00\n        /* \"#utility.yul\":2218:2220   */\n      0x20\n        /* \"#utility.yul\":2206:2215   */\n      dup3\n        /* \"#utility.yul\":2197:2204   */\n      dup5\n        /* \"#utility.yul\":2193:2216   */\n      sub\n        /* \"#utility.yul\":2189:2221   */\n      slt\n        /* \"#utility.yul\":2186:2238   */\n      iszero\n      tag_639\n      jumpi\n        /* \"#utility.yul\":2234:2235   */\n      0x00\n        /* \"#utility.yul\":2231:2232   */\n      0x00\n        /* \"#utility.yul\":2224:2236   */\n      revert\n        /* \"#utility.yul\":2186:2238   */\n    tag_639:\n      pop\n        /* \"#utility.yul\":2279:2302   */\n      calldataload\n      swap2\n        /* \"#utility.yul\":2106:2332   */\n      swap1\n      pop\n      jump\t// out\n        /* \"#utility.yul\":3564:3691   */\n    tag_230:\n        /* \"#utility.yul\":3625:3635   */\n      0x4e487b71\n        /* \"#utility.yul\":3620:3623   */\n      0xe0\n        /* \"#utility.yul\":3616:3636   */\n      shl\n        /* \"#utility.yul\":3613:3614   */\n      0x00\n        /* \"#utility.yul\":3606:3637   */\n      mstore\n        /* \"#utility.yul\":3656:3660   */\n      0x41\n        /* \"#utility.yul\":3653:3654   */\n      0x04\n        /* \"#utility.yul\":3646:3661   */\n      mstore\n        /* \"#utility.yul\":3680:3684   */\n      0x24\n        /* \"#utility.yul\":3677:3678   */\n      0x00\n        /* \"#utility.yul\":3670:3685   */\n      revert\n        /* \"#utility.yul\":3696:3971   */\n    tag_616:\n        /* \"#utility.yul\":3767:3769   */\n      0x40\n        /* \"#utility.yul\":3761:3770   */\n      mload\n        /* \"#utility.yul\":3832:3834   */\n      0x1f\n        /* \"#utility.yul\":3813:3826   */\n      dup3\n      add\n      not(0x1f)\n        /* \"#utility.yul\":3809:3836   */\n      and\n        /* \"#utility.yul\":3797:3837   */\n      dup2\n      add\n        /* \"#utility.yul\":3867:3885   */\n      0xffffffffffffffff\n        /* \"#utility.yul\":3852:3886   */\n      dup2\n      gt\n        /* \"#utility.yul\":3888:3910   */\n      dup3\n      dup3\n      lt\n        /* \"#utility.yul\":3849:3911   */\n      or\n        /* \"#utility.yul\":3846:3934   */\n      iszero\n      tag_646\n      jumpi\n        /* \"#utility.yul\":3914:3932   */\n      tag_646\n      tag_230\n      jump\t// in\n    tag_646:\n        /* \"#utility.yul\":3950:3952   */\n      0x40\n        /* \"#utility.yul\":3943:3965   */\n      mstore\n        /* \"#utility.yul\":3696:3971   */\n      swap2\n      swap1\n      pop\n      jump\t// out\n        /* \"#utility.yul\":3976:5086   */\n    tag_84:\n        /* \"#utility.yul\":4069:4075   */\n      0x00\n        /* \"#utility.yul\":4077:4083   */\n      0x00\n        /* \"#utility.yul\":4130:4132   */\n      0x40\n        /* \"#utility.yul\":4118:4127   */\n      dup4\n        /* \"#utility.yul\":4109:4116   */\n      dup6\n        /* \"#utility.yul\":4105:4128   */\n      sub\n        /* \"#utility.yul\":4101:4133   */\n      slt\n        /* \"#utility.yul\":4098:4150   */\n      iszero\n      tag_648\n      jumpi\n        /* \"#utility.yul\":4146:4147   */\n      0x00\n        /* \"#utility.yul\":4143:4144   */\n      0x00\n        /* \"#utility.yul\":4136:4148   */\n      revert\n        /* \"#utility.yul\":4098:4150   */\n    tag_648:\n        /* \"#utility.yul\":4191:4214   */\n      dup3\n      calldataload\n      swap2\n      pop\n        /* \"#utility.yul\":4289:4291   */\n      0x20\n        /* \"#utility.yul\":4274:4292   */\n      dup4\n      add\n        /* \"#utility.yul\":4261:4293   */\n      calldataload\n        /* \"#utility.yul\":4316:4334   */\n      0xffffffffffffffff\n        /* \"#utility.yul\":4305:4335   */\n      dup2\n      gt\n        /* \"#utility.yul\":4302:4352   */\n      iszero\n      tag_649\n      jumpi\n        /* \"#utility.yul\":4348:4349   */\n      0x00\n        /* \"#utility.yul\":4345:4346   */\n      0x00\n        /* \"#utility.yul\":4338:4350   */\n      revert\n        /* \"#utility.yul\":4302:4352   */\n    tag_649:\n        /* \"#utility.yul\":4371:4393   */\n      dup4\n      add\n        /* \"#utility.yul\":4424:4428   */\n      0x1f\n        /* \"#utility.yul\":4416:4429   */\n      dup2\n      add\n        /* \"#utility.yul\":4412:4439   */\n      dup6\n      sgt\n        /* \"#utility.yul\":4402:4457   */\n      tag_650\n      jumpi\n        /* \"#utility.yul\":4453:4454   */\n      0x00\n        /* \"#utility.yul\":4450:4451   */\n      0x00\n        /* \"#utility.yul\":4443:4455   */\n      revert\n        /* \"#utility.yul\":4402:4457   */\n    tag_650:\n        /* \"#utility.yul\":4493:4495   */\n      dup1\n        /* \"#utility.yul\":4480:4496   */\n      calldataload\n        /* \"#utility.yul\":4519:4537   */\n      0xffffffffffffffff\n        /* \"#utility.yul\":4511:4517   */\n      dup2\n        /* \"#utility.yul\":4508:4538   */\n      gt\n        /* \"#utility.yul\":4505:4561   */\n      iszero\n      tag_652\n      jumpi\n        /* \"#utility.yul\":4541:4559   */\n      tag_652\n      tag_230\n      jump\t// in\n    tag_652:\n        /* \"#utility.yul\":4587:4593   */\n      dup1\n        /* \"#utility.yul\":4584:4585   */\n      0x05\n        /* \"#utility.yul\":4580:4594   */\n      shl\n        /* \"#utility.yul\":4614:4642   */\n      tag_653\n        /* \"#utility.yul\":4638:4640   */\n      0x20\n        /* \"#utility.yul\":4634:4636   */\n      dup3\n        /* \"#utility.yul\":4630:4641   */\n      add\n        /* \"#utility.yul\":4614:4642   */\n      tag_616\n      jump\t// in\n    tag_653:\n        /* \"#utility.yul\":4676:4695   */\n      swap2\n      dup3\n      mstore\n        /* \"#utility.yul\":4720:4722   */\n      0x20\n        /* \"#utility.yul\":4750:4761   */\n      dup2\n      dup5\n      add\n        /* \"#utility.yul\":4746:4766   */\n      dup2\n      add\n      swap3\n        /* \"#utility.yul\":4711:4723   */\n      swap1\n      dup2\n      add\n      swap1\n        /* \"#utility.yul\":4778:4797   */\n      dup9\n      dup5\n      gt\n        /* \"#utility.yul\":4775:4814   */\n      iszero\n      tag_654\n      jumpi\n        /* \"#utility.yul\":4810:4811   */\n      0x00\n        /* \"#utility.yul\":4807:4808   */\n      0x00\n        /* \"#utility.yul\":4800:4812   */\n      revert\n        /* \"#utility.yul\":4775:4814   */\n    tag_654:\n        /* \"#utility.yul\":4842:4844   */\n      0x20\n        /* \"#utility.yul\":4838:4840   */\n      dup6\n        /* \"#utility.yul\":4834:4845   */\n      add\n        /* \"#utility.yul\":4823:4845   */\n      swap5\n      pop\n        /* \"#utility.yul\":4854:5056   */\n    tag_655:\n        /* \"#utility.yul\":4870:4876   */\n      dup4\n        /* \"#utility.yul\":4865:4868   */\n      dup6\n        /* \"#utility.yul\":4862:4877   */\n      lt\n        /* \"#utility.yul\":4854:5056   */\n      iszero\n      tag_657\n      jumpi\n        /* \"#utility.yul\":4964:4981   */\n      dup5\n      calldataload\n        /* \"#utility.yul\":4994:5014   */\n      dup1\n      dup4\n      mstore\n        /* \"#utility.yul\":5043:5045   */\n      0x20\n        /* \"#utility.yul\":4887:4899   */\n      swap6\n      dup7\n      add\n      swap6\n        /* \"#utility.yul\":4964:4981   */\n      swap1\n      swap4\n      pop\n        /* \"#utility.yul\":5034:5046   */\n      swap1\n      swap2\n      add\n      swap1\n        /* \"#utility.yul\":4854:5056   */\n      jump(tag_655)\n    tag_657:\n        /* \"#utility.yul\":5075:5080   */\n      dup1\n        /* \"#utility.yul\":5065:5080   */\n      swap6\n      pop\n      pop\n      pop\n      pop\n      pop\n      pop\n        /* \"#utility.yul\":3976:5086   */\n      swap3\n      pop\n      swap3\n      swap1\n      pop\n      jump\t// out\n        /* \"#utility.yul\":5496:5842   */\n    tag_99:\n        /* \"#utility.yul\":5564:5570   */\n      0x00\n        /* \"#utility.yul\":5572:5578   */\n      0x00\n        /* \"#utility.yul\":5625:5627   */\n      0x40\n        /* \"#utility.yul\":5613:5622   */\n      dup4\n        /* \"#utility.yul\":5604:5611   */\n      dup6\n        /* \"#utility.yul\":5600:5623   */\n      sub\n        /* \"#utility.yul\":5596:5628   */\n      slt\n        /* \"#utility.yul\":5593:5645   */\n      iszero\n      tag_661\n      jumpi\n        /* \"#utility.yul\":5641:5642   */\n      0x00\n        /* \"#utility.yul\":5638:5639   */\n      0x00\n        /* \"#utility.yul\":5631:5643   */\n      revert\n        /* \"#utility.yul\":5593:5645   */\n    tag_661:\n      pop\n      pop\n        /* \"#utility.yul\":5686:5709   */\n      dup1\n      calldataload\n      swap3\n        /* \"#utility.yul\":5806:5808   */\n      0x20\n        /* \"#utility.yul\":5791:5809   */\n      swap1\n      swap2\n      add\n        /* \"#utility.yul\":5778:5810   */\n      calldataload\n      swap2\n      pop\n        /* \"#utility.yul\":5496:5842   */\n      jump\t// out\n        /* \"#utility.yul\":5847:6872   */\n    tag_113:\n        /* \"#utility.yul\":5969:5975   */\n      0x00\n        /* \"#utility.yul\":5977:5983   */\n      0x00\n        /* \"#utility.yul\":5985:5991   */\n      0x00\n        /* \"#utility.yul\":5993:5999   */\n      0x00\n        /* \"#utility.yul\":6001:6007   */\n      0x00\n        /* \"#utility.yul\":6009:6015   */\n      0x00\n        /* \"#utility.yul\":6017:6023   */\n      0x00\n        /* \"#utility.yul\":6025:6031   */\n      0x00\n        /* \"#utility.yul\":6078:6081   */\n      0x0100\n        /* \"#utility.yul\":6066:6075   */\n      dup10\n        /* \"#utility.yul\":6057:6064   */\n      dup12\n        /* \"#utility.yul\":6053:6076   */\n      sub\n        /* \"#utility.yul\":6049:6082   */\n      slt\n        /* \"#utility.yul\":6046:6099   */\n      iszero\n      tag_663\n      jumpi\n        /* \"#utility.yul\":6095:6096   */\n      0x00\n        /* \"#utility.yul\":6092:6093   */\n      0x00\n        /* \"#utility.yul\":6085:6097   */\n      revert\n        /* \"#utility.yul\":6046:6099   */\n    tag_663:\n        /* \"#utility.yul\":6118:6147   */\n      tag_664\n        /* \"#utility.yul\":6137:6146   */\n      dup10\n        /* \"#utility.yul\":6118:6147   */\n      tag_613\n      jump\t// in\n    tag_664:\n        /* \"#utility.yul\":6108:6147   */\n      swap11\n        /* \"#utility.yul\":6216:6218   */\n      0x20\n        /* \"#utility.yul\":6201:6219   */\n      dup11\n      add\n        /* \"#utility.yul\":6188:6220   */\n      calldataload\n      swap11\n      pop\n        /* \"#utility.yul\":6317:6319   */\n      0x40\n        /* \"#utility.yul\":6302:6320   */\n      dup11\n      add\n        /* \"#utility.yul\":6289:6321   */\n      calldataload\n      swap10\n        /* \"#utility.yul\":6420:6422   */\n      0x60\n        /* \"#utility.yul\":6405:6423   */\n      dup2\n      add\n        /* \"#utility.yul\":6392:6424   */\n      calldataload\n      swap10\n      pop\n        /* \"#utility.yul\":6523:6526   */\n      0x80\n        /* \"#utility.yul\":6508:6527   */\n      dup2\n      add\n        /* \"#utility.yul\":6495:6528   */\n      calldataload\n      swap9\n      pop\n        /* \"#utility.yul\":6627:6630   */\n      0xa0\n        /* \"#utility.yul\":6612:6631   */\n      dup2\n      add\n        /* \"#utility.yul\":6599:6632   */\n      calldataload\n      swap8\n      pop\n        /* \"#utility.yul\":6731:6734   */\n      0xc0\n        /* \"#utility.yul\":6716:6735   */\n      dup2\n      add\n        /* \"#utility.yul\":6703:6736   */\n      calldataload\n      swap7\n      pop\n        /* \"#utility.yul\":6835:6838   */\n      0xe0\n        /* \"#utility.yul\":6820:6839   */\n      add\n        /* \"#utility.yul\":6807:6840   */\n      calldataload\n      swap5\n      pop\n        /* \"#utility.yul\":5847:6872   */\n      swap3\n      pop\n      pop\n      pop\n      jump\t// out\n        /* \"#utility.yul\":6877:7716   */\n    tag_125:\n        /* \"#utility.yul\":6954:6960   */\n      0x00\n        /* \"#utility.yul\":6962:6968   */\n      0x00\n        /* \"#utility.yul\":7015:7017   */\n      0x40\n        /* \"#utility.yul\":7003:7012   */\n      dup4\n        /* \"#utility.yul\":6994:7001   */\n      dup6\n        /* \"#utility.yul\":6990:7013   */\n      sub\n        /* \"#utility.yul\":6986:7018   */\n      slt\n        /* \"#utility.yul\":6983:7035   */\n      iszero\n      tag_666\n      jumpi\n        /* \"#utility.yul\":7031:7032   */\n      0x00\n        /* \"#utility.yul\":7028:7029   */\n      0x00\n        /* \"#utility.yul\":7021:7033   */\n      revert\n        /* \"#utility.yul\":6983:7035   */\n    tag_666:\n        /* \"#utility.yul\":7054:7083   */\n      tag_667\n        /* \"#utility.yul\":7073:7082   */\n      dup4\n        /* \"#utility.yul\":7054:7083   */\n      tag_613\n      jump\t// in\n    tag_667:\n        /* \"#utility.yul\":7044:7083   */\n      swap2\n      pop\n        /* \"#utility.yul\":7134:7136   */\n      0x20\n        /* \"#utility.yul\":7123:7132   */\n      dup4\n        /* \"#utility.yul\":7119:7137   */\n      add\n        /* \"#utility.yul\":7106:7138   */\n      calldataload\n        /* \"#utility.yul\":7161:7179   */\n      0xffffffffffffffff\n        /* \"#utility.yul\":7153:7159   */\n      dup2\n        /* \"#utility.yul\":7150:7180   */\n      gt\n        /* \"#utility.yul\":7147:7197   */\n      iszero\n      tag_668\n      jumpi\n        /* \"#utility.yul\":7193:7194   */\n      0x00\n        /* \"#utility.yul\":7190:7191   */\n      0x00\n        /* \"#utility.yul\":7183:7195   */\n      revert\n        /* \"#utility.yul\":7147:7197   */\n    tag_668:\n        /* \"#utility.yul\":7216:7238   */\n      dup4\n      add\n        /* \"#utility.yul\":7269:7273   */\n      0x1f\n        /* \"#utility.yul\":7261:7274   */\n      dup2\n      add\n        /* \"#utility.yul\":7257:7284   */\n      dup6\n      sgt\n        /* \"#utility.yul\":7247:7302   */\n      tag_669\n      jumpi\n        /* \"#utility.yul\":7298:7299   */\n      0x00\n        /* \"#utility.yul\":7295:7296   */\n      0x00\n        /* \"#utility.yul\":7288:7300   */\n      revert\n        /* \"#utility.yul\":7247:7302   */\n    tag_669:\n        /* \"#utility.yul\":7338:7340   */\n      dup1\n        /* \"#utility.yul\":7325:7341   */\n      calldataload\n        /* \"#utility.yul\":7364:7382   */\n      0xffffffffffffffff\n        /* \"#utility.yul\":7356:7362   */\n      dup2\n        /* \"#utility.yul\":7353:7383   */\n      gt\n        /* \"#utility.yul\":7350:7406   */\n      iszero\n      tag_671\n      jumpi\n        /* \"#utility.yul\":7386:7404   */\n      tag_671\n      tag_230\n      jump\t// in\n    tag_671:\n        /* \"#utility.yul\":7428:7485   */\n      tag_672\n        /* \"#utility.yul\":7475:7477   */\n      0x1f\n        /* \"#utility.yul\":7452:7469   */\n      dup3\n      add\n      not(0x1f)\n        /* \"#utility.yul\":7448:7479   */\n      and\n        /* \"#utility.yul\":7481:7483   */\n      0x20\n        /* \"#utility.yul\":7444:7484   */\n      add\n        /* \"#utility.yul\":7428:7485   */\n      tag_616\n      jump\t// in\n    tag_672:\n        /* \"#utility.yul\":7508:7514   */\n      dup2\n        /* \"#utility.yul\":7501:7506   */\n      dup2\n        /* \"#utility.yul\":7494:7515   */\n      mstore\n        /* \"#utility.yul\":7556:7563   */\n      dup7\n        /* \"#utility.yul\":7551:7553   */\n      0x20\n        /* \"#utility.yul\":7542:7548   */\n      dup4\n        /* \"#utility.yul\":7538:7540   */\n      dup6\n        /* \"#utility.yul\":7534:7549   */\n      add\n        /* \"#utility.yul\":7530:7554   */\n      add\n        /* \"#utility.yul\":7527:7564   */\n      gt\n        /* \"#utility.yul\":7524:7581   */\n      iszero\n      tag_673\n      jumpi\n        /* \"#utility.yul\":7577:7578   */\n      0x00\n        /* \"#utility.yul\":7574:7575   */\n      0x00\n        /* \"#utility.yul\":7567:7579   */\n      revert\n        /* \"#utility.yul\":7524:7581   */\n    tag_673:\n        /* \"#utility.yul\":7632:7638   */\n      dup2\n        /* \"#utility.yul\":7627:7629   */\n      0x20\n        /* \"#utility.yul\":7623:7625   */\n      dup5\n        /* \"#utility.yul\":7619:7630   */\n      add\n        /* \"#utility.yul\":7614:7616   */\n      0x20\n        /* \"#utility.yul\":7607:7612   */\n      dup4\n        /* \"#utility.yul\":7603:7617   */\n      add\n        /* \"#utility.yul\":7590:7639   */\n      calldatacopy\n        /* \"#utility.yul\":7684:7685   */\n      0x00\n        /* \"#utility.yul\":7679:7681   */\n      0x20\n        /* \"#utility.yul\":7670:7676   */\n      dup4\n        /* \"#utility.yul\":7663:7668   */\n      dup4\n        /* \"#utility.yul\":7659:7677   */\n      add\n        /* \"#utility.yul\":7655:7682   */\n      add\n        /* \"#utility.yul\":7648:7686   */\n      mstore\n        /* \"#utility.yul\":7705:7710   */\n      dup1\n        /* \"#utility.yul\":7695:7710   */\n      swap4\n      pop\n      pop\n      pop\n      pop\n        /* \"#utility.yul\":6877:7716   */\n      swap3\n      pop\n      swap3\n      swap1\n      pop\n      jump\t// out\n        /* \"#utility.yul\":7903:8349   */\n    tag_617:\n        /* \"#utility.yul\":7956:7959   */\n      0x00\n        /* \"#utility.yul\":7994:7999   */\n      dup2\n        /* \"#utility.yul\":7988:8000   */\n      mload\n        /* \"#utility.yul\":8021:8027   */\n      dup1\n        /* \"#utility.yul\":8016:8019   */\n      dup5\n        /* \"#utility.yul\":8009:8028   */\n      mstore\n        /* \"#utility.yul\":8053:8057   */\n      0x20\n        /* \"#utility.yul\":8048:8051   */\n      dup5\n        /* \"#utility.yul\":8044:8058   */\n      add\n        /* \"#utility.yul\":8037:8058   */\n      swap4\n      pop\n        /* \"#utility.yul\":8092:8096   */\n      0x20\n        /* \"#utility.yul\":8085:8090   */\n      dup4\n        /* \"#utility.yul\":8081:8097   */\n      add\n        /* \"#utility.yul\":8115:8116   */\n      0x00\n        /* \"#utility.yul\":8125:8324   */\n    tag_676:\n        /* \"#utility.yul\":8139:8145   */\n      dup3\n        /* \"#utility.yul\":8136:8137   */\n      dup2\n        /* \"#utility.yul\":8133:8146   */\n      lt\n        /* \"#utility.yul\":8125:8324   */\n      iszero\n      tag_678\n      jumpi\n        /* \"#utility.yul\":8204:8217   */\n      dup2\n      mload\n      sub(shl(0xa0, 0x01), 0x01)\n        /* \"#utility.yul\":8200:8239   */\n      and\n        /* \"#utility.yul\":8188:8240   */\n      dup7\n      mstore\n        /* \"#utility.yul\":8269:8273   */\n      0x20\n        /* \"#utility.yul\":8260:8274   */\n      swap6\n      dup7\n      add\n      swap6\n        /* \"#utility.yul\":8297:8314   */\n      swap1\n      swap2\n      add\n      swap1\n        /* \"#utility.yul\":8236:8237   */\n      0x01\n        /* \"#utility.yul\":8154:8163   */\n      add\n        /* \"#utility.yul\":8125:8324   */\n      jump(tag_676)\n    tag_678:\n      pop\n        /* \"#utility.yul\":8340:8343   */\n      swap4\n      swap5\n        /* \"#utility.yul\":7903:8349   */\n      swap4\n      pop\n      pop\n      pop\n      pop\n      jump\t// out\n        /* \"#utility.yul\":8354:9737   */\n    tag_156:\n        /* \"#utility.yul\":8541:8543   */\n      0x20\n        /* \"#utility.yul\":8530:8539   */\n      dup2\n        /* \"#utility.yul\":8523:8544   */\n      mstore\n        /* \"#utility.yul\":8553:8606   */\n      tag_680\n        /* \"#utility.yul\":8602:8604   */\n      0x20\n        /* \"#utility.yul\":8591:8600   */\n      dup3\n        /* \"#utility.yul\":8587:8605   */\n      add\n        /* \"#utility.yul\":8578:8584   */\n      dup4\n        /* \"#utility.yul\":8572:8585   */\n      mload\n      sub(shl(0xa0, 0x01), 0x01)\n        /* \"#utility.yul\":2403:2434   */\n      and\n        /* \"#utility.yul\":2391:2435   */\n      swap1\n      mstore\n        /* \"#utility.yul\":2337:2441   */\n      jump\n        /* \"#utility.yul\":8553:8606   */\n    tag_680:\n        /* \"#utility.yul\":8660:8662   */\n      0x20\n        /* \"#utility.yul\":8652:8658   */\n      dup3\n        /* \"#utility.yul\":8648:8663   */\n      add\n        /* \"#utility.yul\":8642:8664   */\n      mload\n        /* \"#utility.yul\":8637:8639   */\n      0x40\n        /* \"#utility.yul\":8626:8635   */\n      dup3\n        /* \"#utility.yul\":8622:8640   */\n      add\n        /* \"#utility.yul\":8615:8665   */\n      mstore\n        /* \"#utility.yul\":8719:8721   */\n      0x40\n        /* \"#utility.yul\":8711:8717   */\n      dup3\n        /* \"#utility.yul\":8707:8722   */\n      add\n        /* \"#utility.yul\":8701:8723   */\n      mload\n        /* \"#utility.yul\":8696:8698   */\n      0x60\n        /* \"#utility.yul\":8685:8694   */\n      dup3\n        /* \"#utility.yul\":8681:8699   */\n      add\n        /* \"#utility.yul\":8674:8724   */\n      mstore\n        /* \"#utility.yul\":8779:8781   */\n      0x60\n        /* \"#utility.yul\":8771:8777   */\n      dup3\n        /* \"#utility.yul\":8767:8782   */\n      add\n        /* \"#utility.yul\":8761:8783   */\n      mload\n        /* \"#utility.yul\":8755:8758   */\n      0x80\n        /* \"#utility.yul\":8744:8753   */\n      dup3\n        /* \"#utility.yul\":8740:8759   */\n      add\n        /* \"#utility.yul\":8733:8784   */\n      mstore\n        /* \"#utility.yul\":8839:8842   */\n      0x80\n        /* \"#utility.yul\":8831:8837   */\n      dup3\n        /* \"#utility.yul\":8827:8843   */\n      add\n        /* \"#utility.yul\":8821:8844   */\n      mload\n        /* \"#utility.yul\":8815:8818   */\n      0xa0\n        /* \"#utility.yul\":8804:8813   */\n      dup3\n        /* \"#utility.yul\":8800:8819   */\n      add\n        /* \"#utility.yul\":8793:8845   */\n      mstore\n        /* \"#utility.yul\":8900:8903   */\n      0xa0\n        /* \"#utility.yul\":8892:8898   */\n      dup3\n        /* \"#utility.yul\":8888:8904   */\n      add\n        /* \"#utility.yul\":8882:8905   */\n      mload\n        /* \"#utility.yul\":8876:8879   */\n      0xc0\n        /* \"#utility.yul\":8865:8874   */\n      dup3\n        /* \"#utility.yul\":8861:8880   */\n      add\n        /* \"#utility.yul\":8854:8906   */\n      mstore\n        /* \"#utility.yul\":8961:8964   */\n      0xc0\n        /* \"#utility.yul\":8953:8959   */\n      dup3\n        /* \"#utility.yul\":8949:8965   */\n      add\n        /* \"#utility.yul\":8943:8966   */\n      mload\n        /* \"#utility.yul\":8937:8940   */\n      0xe0\n        /* \"#utility.yul\":8926:8935   */\n      dup3\n        /* \"#utility.yul\":8922:8941   */\n      add\n        /* \"#utility.yul\":8915:8967   */\n      mstore\n        /* \"#utility.yul\":9022:9025   */\n      0xe0\n        /* \"#utility.yul\":9014:9020   */\n      dup3\n        /* \"#utility.yul\":9010:9026   */\n      add\n        /* \"#utility.yul\":9004:9027   */\n      mload\n        /* \"#utility.yul\":8998:9001   */\n      0x0100\n        /* \"#utility.yul\":8987:8996   */\n      dup3\n        /* \"#utility.yul\":8983:9002   */\n      add\n        /* \"#utility.yul\":8976:9028   */\n      mstore\n        /* \"#utility.yul\":8504:8508   */\n      0x00\n        /* \"#utility.yul\":9075:9078   */\n      0x0100\n        /* \"#utility.yul\":9067:9073   */\n      dup4\n        /* \"#utility.yul\":9063:9079   */\n      add\n        /* \"#utility.yul\":9057:9080   */\n      mload\n        /* \"#utility.yul\":9089:9139   */\n      tag_681\n        /* \"#utility.yul\":9134:9137   */\n      0x0120\n        /* \"#utility.yul\":9123:9132   */\n      dup5\n        /* \"#utility.yul\":9119:9138   */\n      add\n        /* \"#utility.yul\":9105:9117   */\n      dup3\n        /* \"#utility.yul\":1183:1196   */\n      iszero\n        /* \"#utility.yul\":1176:1197   */\n      iszero\n        /* \"#utility.yul\":1164:1198   */\n      swap1\n      mstore\n        /* \"#utility.yul\":1113:1204   */\n      jump\n        /* \"#utility.yul\":9089:9139   */\n    tag_681:\n      pop\n        /* \"#utility.yul\":9188:9191   */\n      0x0120\n        /* \"#utility.yul\":9176:9192   */\n      dup4\n      add\n        /* \"#utility.yul\":9170:9193   */\n      mload\n        /* \"#utility.yul\":1183:1196   */\n      dup1\n      iszero\n        /* \"#utility.yul\":1176:1197   */\n      iszero\n        /* \"#utility.yul\":9249:9252   */\n      0x0140\n        /* \"#utility.yul\":9234:9253   */\n      dup5\n      add\n        /* \"#utility.yul\":1164:1198   */\n      mstore\n      pop\n        /* \"#utility.yul\":9303:9306   */\n      0x0140\n        /* \"#utility.yul\":9291:9307   */\n      dup4\n      add\n        /* \"#utility.yul\":9285:9308   */\n      mload\n        /* \"#utility.yul\":1183:1196   */\n      dup1\n      iszero\n        /* \"#utility.yul\":1176:1197   */\n      iszero\n        /* \"#utility.yul\":9364:9367   */\n      0x0160\n        /* \"#utility.yul\":9349:9368   */\n      dup5\n      add\n        /* \"#utility.yul\":1164:1198   */\n      mstore\n      pop\n        /* \"#utility.yul\":9418:9421   */\n      0x0160\n        /* \"#utility.yul\":9406:9422   */\n      dup4\n      add\n        /* \"#utility.yul\":9400:9423   */\n      mload\n      sub(shl(0xa0, 0x01), 0x01)\n        /* \"#utility.yul\":2403:2434   */\n      dup2\n      and\n        /* \"#utility.yul\":9482:9485   */\n      0x0180\n        /* \"#utility.yul\":9467:9486   */\n      dup5\n      add\n        /* \"#utility.yul\":2391:2435   */\n      mstore\n        /* \"#utility.yul\":9432:9487   */\n      pop\n        /* \"#utility.yul\":9542:9545   */\n      0x0180\n        /* \"#utility.yul\":9534:9540   */\n      dup4\n        /* \"#utility.yul\":9530:9546   */\n      add\n        /* \"#utility.yul\":9524:9547   */\n      mload\n        /* \"#utility.yul\":9518:9521   */\n      0x01a0\n        /* \"#utility.yul\":9507:9516   */\n      dup4\n        /* \"#utility.yul\":9503:9522   */\n      add\n        /* \"#utility.yul\":9496:9548   */\n      mstore\n        /* \"#utility.yul\":9597:9600   */\n      0x01a0\n        /* \"#utility.yul\":9589:9595   */\n      dup4\n        /* \"#utility.yul\":9585:9601   */\n      add\n        /* \"#utility.yul\":9579:9602   */\n      mload\n        /* \"#utility.yul\":9642:9648   */\n      0x01c0\n        /* \"#utility.yul\":9633:9639   */\n      dup1\n        /* \"#utility.yul\":9622:9631   */\n      dup5\n        /* \"#utility.yul\":9618:9640   */\n      add\n        /* \"#utility.yul\":9611:9649   */\n      mstore\n        /* \"#utility.yul\":9666:9731   */\n      tag_685\n        /* \"#utility.yul\":9726:9729   */\n      0x01e0\n        /* \"#utility.yul\":9715:9724   */\n      dup5\n        /* \"#utility.yul\":9711:9730   */\n      add\n        /* \"#utility.yul\":9695:9709   */\n      dup3\n        /* \"#utility.yul\":9666:9731   */\n      tag_617\n      jump\t// in\n    tag_685:\n        /* \"#utility.yul\":9658:9731   */\n      swap5\n        /* \"#utility.yul\":8354:9737   */\n      swap4\n      pop\n      pop\n      pop\n      pop\n      jump\t// out\n        /* \"#utility.yul\":10168:10457   */\n    tag_618:\n        /* \"#utility.yul\":10210:10213   */\n      0x00\n        /* \"#utility.yul\":10248:10253   */\n      dup2\n        /* \"#utility.yul\":10242:10254   */\n      mload\n        /* \"#utility.yul\":10275:10281   */\n      dup1\n        /* \"#utility.yul\":10270:10273   */\n      dup5\n        /* \"#utility.yul\":10263:10282   */\n      mstore\n        /* \"#utility.yul\":10331:10337   */\n      dup1\n        /* \"#utility.yul\":10324:10328   */\n      0x20\n        /* \"#utility.yul\":10317:10322   */\n      dup5\n        /* \"#utility.yul\":10313:10329   */\n      add\n        /* \"#utility.yul\":10306:10310   */\n      0x20\n        /* \"#utility.yul\":10301:10304   */\n      dup7\n        /* \"#utility.yul\":10297:10311   */\n      add\n        /* \"#utility.yul\":10291:10338   */\n      mcopy\n        /* \"#utility.yul\":10383:10384   */\n      0x00\n        /* \"#utility.yul\":10376:10380   */\n      0x20\n        /* \"#utility.yul\":10367:10373   */\n      dup3\n        /* \"#utility.yul\":10362:10365   */\n      dup7\n        /* \"#utility.yul\":10358:10374   */\n      add\n        /* \"#utility.yul\":10354:10381   */\n      add\n        /* \"#utility.yul\":10347:10385   */\n      mstore\n        /* \"#utility.yul\":10446:10450   */\n      0x20\n        /* \"#utility.yul\":10439:10441   */\n      0x1f\n        /* \"#utility.yul\":10435:10442   */\n      not\n        /* \"#utility.yul\":10430:10432   */\n      0x1f\n        /* \"#utility.yul\":10422:10428   */\n      dup4\n        /* \"#utility.yul\":10418:10433   */\n      add\n        /* \"#utility.yul\":10414:10443   */\n      and\n        /* \"#utility.yul\":10409:10412   */\n      dup6\n        /* \"#utility.yul\":10405:10444   */\n      add\n        /* \"#utility.yul\":10401:10451   */\n      add\n        /* \"#utility.yul\":10394:10451   */\n      swap2\n      pop\n      pop\n        /* \"#utility.yul\":10168:10457   */\n      swap3\n      swap2\n      pop\n      pop\n      jump\t// out\n        /* \"#utility.yul\":10462:10682   */\n    tag_192:\n        /* \"#utility.yul\":10611:10613   */\n      0x20\n        /* \"#utility.yul\":10600:10609   */\n      dup2\n        /* \"#utility.yul\":10593:10614   */\n      mstore\n        /* \"#utility.yul\":10574:10578   */\n      0x00\n        /* \"#utility.yul\":10631:10676   */\n      tag_601\n        /* \"#utility.yul\":10672:10674   */\n      0x20\n        /* \"#utility.yul\":10661:10670   */\n      dup4\n        /* \"#utility.yul\":10657:10675   */\n      add\n        /* \"#utility.yul\":10649:10655   */\n      dup5\n        /* \"#utility.yul\":10631:10676   */\n      tag_618\n      jump\t// in\n        /* \"#utility.yul\":10880:11141   */\n    tag_207:\n        /* \"#utility.yul\":11059:11061   */\n      0x20\n        /* \"#utility.yul\":11048:11057   */\n      dup2\n        /* \"#utility.yul\":11041:11062   */\n      mstore\n        /* \"#utility.yul\":11022:11026   */\n      0x00\n        /* \"#utility.yul\":11079:11135   */\n      tag_601\n        /* \"#utility.yul\":11131:11133   */\n      0x20\n        /* \"#utility.yul\":11120:11129   */\n      dup4\n        /* \"#utility.yul\":11116:11134   */\n      add\n        /* \"#utility.yul\":11108:11114   */\n      dup5\n        /* \"#utility.yul\":11079:11135   */\n      tag_617\n      jump\t// in\n        /* \"#utility.yul\":11146:11332   */\n    tag_225:\n        /* \"#utility.yul\":11205:11211   */\n      0x00\n        /* \"#utility.yul\":11258:11260   */\n      0x20\n        /* \"#utility.yul\":11246:11255   */\n      dup3\n        /* \"#utility.yul\":11237:11244   */\n      dup5\n        /* \"#utility.yul\":11233:11256   */\n      sub\n        /* \"#utility.yul\":11229:11261   */\n      slt\n        /* \"#utility.yul\":11226:11278   */\n      iszero\n      tag_694\n      jumpi\n        /* \"#utility.yul\":11274:11275   */\n      0x00\n        /* \"#utility.yul\":11271:11272   */\n      0x00\n        /* \"#utility.yul\":11264:11276   */\n      revert\n        /* \"#utility.yul\":11226:11278   */\n    tag_694:\n        /* \"#utility.yul\":11297:11326   */\n      tag_601\n        /* \"#utility.yul\":11316:11325   */\n      dup3\n        /* \"#utility.yul\":11297:11326   */\n      tag_613\n      jump\t// in\n        /* \"#utility.yul\":11337:11464   */\n    tag_237:\n        /* \"#utility.yul\":11398:11408   */\n      0x4e487b71\n        /* \"#utility.yul\":11393:11396   */\n      0xe0\n        /* \"#utility.yul\":11389:11409   */\n      shl\n        /* \"#utility.yul\":11386:11387   */\n      0x00\n        /* \"#utility.yul\":11379:11410   */\n      mstore\n        /* \"#utility.yul\":11429:11433   */\n      0x32\n        /* \"#utility.yul\":11426:11427   */\n      0x04\n        /* \"#utility.yul\":11419:11434   */\n      mstore\n        /* \"#utility.yul\":11453:11457   */\n      0x24\n        /* \"#utility.yul\":11450:11451   */\n      0x00\n        /* \"#utility.yul\":11443:11458   */\n      revert\n        /* \"#utility.yul\":11469:11596   */\n    tag_619:\n        /* \"#utility.yul\":11530:11540   */\n      0x4e487b71\n        /* \"#utility.yul\":11525:11528   */\n      0xe0\n        /* \"#utility.yul\":11521:11541   */\n      shl\n        /* \"#utility.yul\":11518:11519   */\n      0x00\n        /* \"#utility.yul\":11511:11542   */\n      mstore\n        /* \"#utility.yul\":11561:11565   */\n      0x11\n        /* \"#utility.yul\":11558:11559   */\n      0x04\n        /* \"#utility.yul\":11551:11566   */\n      mstore\n        /* \"#utility.yul\":11585:11589   */\n      0x24\n        /* \"#utility.yul\":11582:11583   */\n      0x00\n        /* \"#utility.yul\":11575:11590   */\n      revert\n        /* \"#utility.yul\":11601:11736   */\n    tag_245:\n        /* \"#utility.yul\":11640:11643   */\n      0x00\n        /* \"#utility.yul\":11661:11678   */\n      0x01\n      dup3\n      add\n        /* \"#utility.yul\":11658:11701   */\n      tag_700\n      jumpi\n        /* \"#utility.yul\":11681:11699   */\n      tag_700\n      tag_619\n      jump\t// in\n    tag_700:\n      pop\n        /* \"#utility.yul\":11728:11729   */\n      0x01\n        /* \"#utility.yul\":11717:11730   */\n      add\n      swap1\n        /* \"#utility.yul\":11601:11736   */\n      jump\t// out\n        /* \"#utility.yul\":13983:14111   */\n    tag_304:\n        /* \"#utility.yul\":14050:14059   */\n      dup2\n      dup2\n      sub\n        /* \"#utility.yul\":14071:14082   */\n      dup2\n      dup2\n      gt\n        /* \"#utility.yul\":14068:14105   */\n      iszero\n      tag_256\n      jumpi\n        /* \"#utility.yul\":14085:14103   */\n      tag_256\n      tag_619\n      jump\t// in\n        /* \"#utility.yul\":14492:14769   */\n    tag_310:\n        /* \"#utility.yul\":14559:14565   */\n      0x00\n        /* \"#utility.yul\":14612:14614   */\n      0x20\n        /* \"#utility.yul\":14600:14609   */\n      dup3\n        /* \"#utility.yul\":14591:14598   */\n      dup5\n        /* \"#utility.yul\":14587:14610   */\n      sub\n        /* \"#utility.yul\":14583:14615   */\n      slt\n        /* \"#utility.yul\":14580:14632   */\n      iszero\n      tag_713\n      jumpi\n        /* \"#utility.yul\":14628:14629   */\n      0x00\n        /* \"#utility.yul\":14625:14626   */\n      0x00\n        /* \"#utility.yul\":14618:14630   */\n      revert\n        /* \"#utility.yul\":14580:14632   */\n    tag_713:\n        /* \"#utility.yul\":14660:14669   */\n      dup2\n        /* \"#utility.yul\":14654:14670   */\n      mload\n        /* \"#utility.yul\":14713:14718   */\n      dup1\n        /* \"#utility.yul\":14706:14719   */\n      iszero\n        /* \"#utility.yul\":14699:14720   */\n      iszero\n        /* \"#utility.yul\":14692:14697   */\n      dup2\n        /* \"#utility.yul\":14689:14721   */\n      eq\n        /* \"#utility.yul\":14679:14739   */\n      tag_601\n      jumpi\n        /* \"#utility.yul\":14735:14736   */\n      0x00\n        /* \"#utility.yul\":14732:14733   */\n      0x00\n        /* \"#utility.yul\":14725:14737   */\n      revert\n        /* \"#utility.yul\":18143:18311   */\n    tag_387:\n        /* \"#utility.yul\":18216:18225   */\n      dup1\n      dup3\n      mul\n        /* \"#utility.yul\":18247:18256   */\n      dup2\n      iszero\n        /* \"#utility.yul\":18264:18279   */\n      dup3\n      dup3\n      div\n        /* \"#utility.yul\":18258:18280   */\n      dup5\n      eq\n        /* \"#utility.yul\":18244:18281   */\n      or\n        /* \"#utility.yul\":18234:18305   */\n      tag_256\n      jumpi\n        /* \"#utility.yul\":18285:18303   */\n      tag_256\n      tag_619\n      jump\t// in\n        /* \"#utility.yul\":19631:20339   */\n    tag_410:\n        /* \"#utility.yul\":19830:19832   */\n      0x20\n        /* \"#utility.yul\":19819:19828   */\n      dup2\n        /* \"#utility.yul\":19812:19833   */\n      mstore\n        /* \"#utility.yul\":19875:19881   */\n      dup2\n        /* \"#utility.yul\":19869:19882   */\n      mload\n        /* \"#utility.yul\":19864:19866   */\n      0x20\n        /* \"#utility.yul\":19853:19862   */\n      dup3\n        /* \"#utility.yul\":19849:19867   */\n      add\n        /* \"#utility.yul\":19842:19883   */\n      mstore\n        /* \"#utility.yul\":19937:19939   */\n      0x20\n        /* \"#utility.yul\":19929:19935   */\n      dup3\n        /* \"#utility.yul\":19925:19940   */\n      add\n        /* \"#utility.yul\":19919:19941   */\n      mload\n        /* \"#utility.yul\":19914:19916   */\n      0x40\n        /* \"#utility.yul\":19903:19912   */\n      dup3\n        /* \"#utility.yul\":19899:19917   */\n      add\n        /* \"#utility.yul\":19892:19942   */\n      mstore\n        /* \"#utility.yul\":20006:20012   */\n      0xffff\n        /* \"#utility.yul\":20000:20002   */\n      0x40\n        /* \"#utility.yul\":19992:19998   */\n      dup4\n        /* \"#utility.yul\":19988:20003   */\n      add\n        /* \"#utility.yul\":19982:20004   */\n      mload\n        /* \"#utility.yul\":19978:20013   */\n      and\n        /* \"#utility.yul\":19973:19975   */\n      0x60\n        /* \"#utility.yul\":19962:19971   */\n      dup3\n        /* \"#utility.yul\":19958:19976   */\n      add\n        /* \"#utility.yul\":19951:20014   */\n      mstore\n        /* \"#utility.yul\":20079:20089   */\n      0xffffffff\n        /* \"#utility.yul\":20073:20075   */\n      0x60\n        /* \"#utility.yul\":20065:20071   */\n      dup4\n        /* \"#utility.yul\":20061:20076   */\n      add\n        /* \"#utility.yul\":20055:20077   */\n      mload\n        /* \"#utility.yul\":20051:20090   */\n      and\n        /* \"#utility.yul\":20045:20048   */\n      0x80\n        /* \"#utility.yul\":20034:20043   */\n      dup3\n        /* \"#utility.yul\":20030:20049   */\n      add\n        /* \"#utility.yul\":20023:20091   */\n      mstore\n        /* \"#utility.yul\":20157:20167   */\n      0xffffffff\n        /* \"#utility.yul\":20150:20153   */\n      0x80\n        /* \"#utility.yul\":20142:20148   */\n      dup4\n        /* \"#utility.yul\":20138:20154   */\n      add\n        /* \"#utility.yul\":20132:20155   */\n      mload\n        /* \"#utility.yul\":20128:20168   */\n      and\n        /* \"#utility.yul\":20122:20125   */\n      0xa0\n        /* \"#utility.yul\":20111:20120   */\n      dup3\n        /* \"#utility.yul\":20107:20126   */\n      add\n        /* \"#utility.yul\":20100:20169   */\n      mstore\n        /* \"#utility.yul\":19793:19797   */\n      0x00\n        /* \"#utility.yul\":20216:20219   */\n      0xa0\n        /* \"#utility.yul\":20208:20214   */\n      dup4\n        /* \"#utility.yul\":20204:20220   */\n      add\n        /* \"#utility.yul\":20198:20221   */\n      mload\n        /* \"#utility.yul\":20259:20263   */\n      0xc0\n        /* \"#utility.yul\":20252:20256   */\n      dup1\n        /* \"#utility.yul\":20241:20250   */\n      dup5\n        /* \"#utility.yul\":20237:20257   */\n      add\n        /* \"#utility.yul\":20230:20264   */\n      mstore\n        /* \"#utility.yul\":20281:20333   */\n      tag_685\n        /* \"#utility.yul\":20328:20331   */\n      0xe0\n        /* \"#utility.yul\":20317:20326   */\n      dup5\n        /* \"#utility.yul\":20313:20332   */\n      add\n        /* \"#utility.yul\":20299:20311   */\n      dup3\n        /* \"#utility.yul\":20281:20333   */\n      tag_618\n      jump\t// in\n        /* \"#utility.yul\":20344:20528   */\n    tag_414:\n        /* \"#utility.yul\":20414:20420   */\n      0x00\n        /* \"#utility.yul\":20467:20469   */\n      0x20\n        /* \"#utility.yul\":20455:20464   */\n      dup3\n        /* \"#utility.yul\":20446:20453   */\n      dup5\n        /* \"#utility.yul\":20442:20465   */\n      sub\n        /* \"#utility.yul\":20438:20470   */\n      slt\n        /* \"#utility.yul\":20435:20487   */\n      iszero\n      tag_735\n      jumpi\n        /* \"#utility.yul\":20483:20484   */\n      0x00\n        /* \"#utility.yul\":20480:20481   */\n      0x00\n        /* \"#utility.yul\":20473:20485   */\n      revert\n        /* \"#utility.yul\":20435:20487   */\n    tag_735:\n      pop\n        /* \"#utility.yul\":20506:20522   */\n      mload\n      swap2\n        /* \"#utility.yul\":20344:20528   */\n      swap1\n      pop\n      jump\t// out\n        /* \"#utility.yul\":22500:22709   */\n    tag_501:\n        /* \"#utility.yul\":22532:22533   */\n      0x00\n        /* \"#utility.yul\":22558:22559   */\n      dup3\n        /* \"#utility.yul\":22548:22680   */\n      tag_743\n      jumpi\n        /* \"#utility.yul\":22602:22612   */\n      0x4e487b71\n        /* \"#utility.yul\":22597:22600   */\n      0xe0\n        /* \"#utility.yul\":22593:22613   */\n      shl\n        /* \"#utility.yul\":22590:22591   */\n      0x00\n        /* \"#utility.yul\":22583:22614   */\n      mstore\n        /* \"#utility.yul\":22637:22641   */\n      0x12\n        /* \"#utility.yul\":22634:22635   */\n      0x04\n        /* \"#utility.yul\":22627:22642   */\n      mstore\n        /* \"#utility.yul\":22665:22669   */\n      0x24\n        /* \"#utility.yul\":22662:22663   */\n      0x00\n        /* \"#utility.yul\":22655:22670   */\n      revert\n        /* \"#utility.yul\":22548:22680   */\n    tag_743:\n      pop\n        /* \"#utility.yul\":22694:22703   */\n      mod\n      swap1\n        /* \"#utility.yul\":22500:22709   */\n      jump\t// out\n        /* \"#utility.yul\":23524:23825   */\n    tag_589:\n        /* \"#utility.yul\":23653:23656   */\n      0x00\n        /* \"#utility.yul\":23691:23697   */\n      dup3\n        /* \"#utility.yul\":23685:23698   */\n      mload\n        /* \"#utility.yul\":23737:23743   */\n      dup1\n        /* \"#utility.yul\":23730:23734   */\n      0x20\n        /* \"#utility.yul\":23722:23728   */\n      dup6\n        /* \"#utility.yul\":23718:23735   */\n      add\n        /* \"#utility.yul\":23713:23716   */\n      dup5\n        /* \"#utility.yul\":23707:23744   */\n      mcopy\n        /* \"#utility.yul\":23799:23800   */\n      0x00\n        /* \"#utility.yul\":23763:23779   */\n      swap3\n      add\n        /* \"#utility.yul\":23788:23801   */\n      swap2\n      dup3\n      mstore\n      pop\n        /* \"#utility.yul\":23763:23779   */\n      swap2\n        /* \"#utility.yul\":23524:23825   */\n      swap1\n      pop\n      jump\t// out\n    stop\n    data_75b20eef8615de99c108b05f0dbda081c91897128caa336d75dffb97c4132b4d 360894a13ba1a3210667c828492db98dca3e2076cc3735a920a3ca505d382bbc\n\n    auxdata: 0xa2646970667358221220c52a7046eb2ce0178c50564c0b4701940b510ffa8d16da2b0f8d29e2dedaea6d64736f6c634300081e0033\n}\n",
				"bytecode": {
					"linkReferences": {},
					"object": "60a0604052306080523480156012575f5ffd5b5060015f55608051612c9861003d5f395f81816121aa015281816121d301526123170152612c985ff3fe60806040526004361061021d575f3560e01c806361728f391161011e578063a49a75a5116100a8578063c1e3bd3e1161006d578063c1e3bd3e14610854578063c4cd639f14610880578063d7098154146108c8578063e2344831146108e7578063f2fde38b14610906575f5ffd5b8063a49a75a5146106e2578063ac03244e14610727578063ad3cb1cc146107c3578063b0fb162f14610800578063b6fa37bc14610835575f5ffd5b80637ccfd7fc116100ee5780637ccfd7fc14610623578063826d98731461064957806382f9d0fb146106685780638da5cb5b14610687578063a3e56fa8146106c3575f5ffd5b806361728f39146105ba5780636cc69997146105cf578063715018a6146105e357806376b3c8a8146105f7575f5ffd5b80633893f9d5116101aa5780634a4a6b4f1161016f5780634a4a6b4f146105405780634f1ef2861461055557806352d1902d146105685780635b7baf641461057c57806360b2a56a1461059b575f5ffd5b80633893f9d51461047c5780633fd430981461049b5780633fe6e01e146104ba5780634311da37146105025780634538f29714610521575f5ffd5b80631398e076116101f05780631398e076146102be57806315c6e123146103ca5780631fe543e3146103f55780632301d7751461041457806324f746971461044b575f5ffd5b8063055b66cd1461022157806307c7a72d1461024b57806309c1ba2e1461027a5780630af5a2631461029d575b5f5ffd5b34801561022c575f5ffd5b50610235610925565b604051610242919061267b565b60405180910390f35b348015610256575f5ffd5b5061026a6102653660046126d8565b610ab1565b6040519015158152602001610242565b348015610285575f5ffd5b5061028f60085481565b604051908152602001610242565b3480156102a8575f5ffd5b506102bc6102b7366004612702565b610ae0565b005b3480156102c9575f5ffd5b506103536102d8366004612755565b600260208190525f91825260409091208054600182015492820154600383015460048401546005850154600686015460078701546008880154600a890154600b909901546001600160a01b039889169a9997989697959694959394929360ff808416946101008504821694620100009004909116929116908d565b604080516001600160a01b039e8f168152602081019d909d528c019a909a5260608b019890985260808a019690965260a089019490945260c088019290925260e08701521515610100860152151561012085015215156101408401529092166101608201526101808101919091526101a001610242565b3480156103d5575f5ffd5b5061028f6103e4366004612755565b600b6020525f908152604090205481565b348015610400575f5ffd5b506102bc61040f3660046127b1565b610c52565b34801561041f575f5ffd5b50600554610433906001600160a01b031681565b6040516001600160a01b039091168152602001610242565b348015610456575f5ffd5b506007546104679063ffffffff1681565b60405163ffffffff9091168152602001610242565b348015610487575f5ffd5b506102bc610496366004612869565b610ca5565b3480156104a6575f5ffd5b506102bc6104b5366004612755565b610fb4565b3480156104c5575f5ffd5b5061026a6104d43660046126d8565b5f8281526002602090815260408083206001600160a01b0385168452600f0190915290205460ff1692915050565b34801561050d575f5ffd5b506102bc61051c366004612889565b6111bf565b34801561052c575f5ffd5b506102bc61053b366004612755565b611339565b34801561054b575f5ffd5b5061028f60035481565b6102bc6105633660046128e0565b611404565b348015610573575f5ffd5b5061028f61141f565b348015610587575f5ffd5b506102bc610596366004612755565b61143a565b3480156105a6575f5ffd5b506102bc6105b5366004612755565b611617565b3480156105c5575f5ffd5b5061028f60065481565b3480156105da575f5ffd5b50610235611866565b3480156105ee575f5ffd5b506102bc6118bc565b348015610602575f5ffd5b50610616610611366004612755565b6118cf565b60405161024291906129c8565b34801561062e575f5ffd5b50600754610467906601000000000000900463ffffffff1681565b348015610654575f5ffd5b506102bc610663366004612755565b611a6a565b348015610673575f5ffd5b506102bc610682366004612755565b611bb0565b348015610692575f5ffd5b507f9016d09d72d40fdae2fd8ceac6b6234c7706214fd39c1cd1e609a0528c199300546001600160a01b0316610433565b3480156106ce575f5ffd5b50600954610433906001600160a01b031681565b3480156106ed575f5ffd5b5061028f6106fc3660046126d8565b5f8281526002602090815260408083206001600160a01b0385168452600c0190915290205492915050565b348015610732575f5ffd5b5061079b6107413660046126d8565b5f9182526002602090815260408084206001600160a01b03939093168452600c8301825280842054600d8401835281852054600e8501845282862054600f909501909352932054929360ff91821693928216929190911690565b6040805194855292151560208501529015159183019190915215156060820152608001610242565b3480156107ce575f5ffd5b506107f3604051806040016040528060058152602001640352e302e360dc1b81525081565b6040516102429190612ad4565b34801561080b575f5ffd5b5060075461082290640100000000900461ffff1681565b60405161ffff9091168152602001610242565b348015610840575f5ffd5b50600454610433906001600160a01b031681565b34801561085f575f5ffd5b5061087361086e366004612755565b611c3e565b6040516102429190612ae6565b34801561088b575f5ffd5b5061026a61089a3660046126d8565b5f8281526002602090815260408083206001600160a01b0385168452600e0190915290205460ff1692915050565b3480156108d3575f5ffd5b506102bc6108e2366004612755565b611caa565b3480156108f2575f5ffd5b5061028f610901366004612755565b611df9565b348015610911575f5ffd5b506102bc610920366004612af8565b611e18565b600a546060905f9067ffffffffffffffff8111156109455761094561276c565b60405190808252806020026020018201604052801561096e578160200160208202803683370190505b5090505f805b600a54811015610a19575f600a828154811061099257610992612b11565b5f9182526020808320909101548083526002909152604090912060088101549192509060ff1680156109cf5750600881015462010000900460ff16155b80156109de5750806004015442105b15610a0f57818585815181106109f6576109f6612b11565b602090810291909101015283610a0b81612b39565b9450505b5050600101610974565b505f8167ffffffffffffffff811115610a3457610a3461276c565b604051908082528060200260200182016040528015610a5d578160200160208202803683370190505b5090505f5b82811015610aa957838181518110610a7c57610a7c612b11565b6020026020010151828281518110610a9657610a96612b11565b6020908102919091010152600101610a62565b509392505050565b5f8281526002602090815260408083206001600160a01b0385168452600d0190915290205460ff165b92915050565b5f610ae9611e52565b805490915060ff600160401b820416159067ffffffffffffffff165f81158015610b105750825b90505f8267ffffffffffffffff166001148015610b2c5750303b155b905081158015610b3a575080155b15610b585760405163f92ee8a960e01b815260040160405180910390fd5b845467ffffffffffffffff191660011785558315610b8257845460ff60401b1916600160401b1785555b610b8b33611e7a565b610b93611e8b565b610b9c8a611e93565b600980546001600160a01b03199081166001600160a01b038d81169190911790925560068b905560088a90556007805469ffffffffffffffffffff19166601000300030d401790556004805482168a8416179055600580549091169188169190911790558315610c4657845460ff60401b19168555604051600181527fc7f505b2f371ae2175ee4913f4499e1f2633a7b5936321eed1cdaeb6115181d29060200160405180910390a15b50505050505050505050565b6001546001600160a01b03163314610c975760015460405163073e64fd60e21b81523360048201526001600160a01b0390911660248201526044015b60405180910390fd5b610ca18282611ebd565b5050565b610cad6120ed565b5f828152600260209081526040808320848452818420338552600c8201909352922054610d095760405162461bcd60e51b815260206004820152600a602482015269139bdd081a5b881bdb1960b21b6044820152606401610c8e565b335f908152600e8301602052604090205460ff1615610d5d5760405162461bcd60e51b815260206004820152601060248201526f526566756e64656420616c726561647960801b6044820152606401610c8e565b600882015462010000900460ff1680610d9757506008820154610100900460ff168015610d975750600a8201546001600160a01b03163314155b610dd65760405162461bcd60e51b815260206004820152601060248201526f4f6c64206e6f7420656c696769626c6560801b6044820152606401610c8e565b600881015460ff168015610df55750600881015462010000900460ff16155b610e385760405162461bcd60e51b81526020600482015260146024820152734e6577206c6f747465727920696e61637469766560601b6044820152606401610c8e565b80600401544210610e7e5760405162461bcd60e51b815260206004820152601060248201526f546f6f206c61746520666f72206e657760801b6044820152606401610c8e565b335f908152600e830160205260408120805460ff19166001908117909155600283015490830154610eaf9190612b51565b82546040516323b872dd60e01b8152336004820152306024820152604481018390529192506001600160a01b0316906323b872dd906064016020604051808303815f875af1158015610f03573d5f5f3e3d5ffd5b505050506040513d601f19601f82011682018060405250810190610f279190612b64565b506009820180546001810182555f918252602080832090910180546001600160a01b031916339081179091558252600c8401905260408120805491610f6b83612b39565b9091555050604080518581523360208201527f1e28857182a3b2bb6fbb88287d1ba8cc3a941dd65d4c977286676d27b877a3d9910160405180910390a1505050610ca160015f55565b610fbc6120ed565b5f818152600260205260409020600881015460ff168015610fe85750600881015462010000900460ff16155b61102c5760405162461bcd60e51b8152602060048201526015602482015274125b9858dd1a5d99481bdc8818d85b98d95b1b1959605a1b6044820152606401610c8e565b8060040154421061106a5760405162461bcd60e51b8152602060048201526008602482015267546f6f206c61746560c01b6044820152606401610c8e565b60038101546009820154106110b45760405162461bcd60e51b815260206004820152601060248201526f4d6178207061727469636970616e747360801b6044820152606401610c8e565b805460018201546040516323b872dd60e01b815233600482015230602482015260448101919091526001600160a01b03909116906323b872dd906064016020604051808303815f875af115801561110d573d5f5f3e3d5ffd5b505050506040513d601f19601f820116820180604052508101906111319190612b64565b506009810180546001810182555f918252602080832090910180546001600160a01b031916339081179091558252600c830190526040812080549161117583612b39565b9091555050604080518381523360208201527f1e28857182a3b2bb6fbb88287d1ba8cc3a941dd65d4c977286676d27b877a3d9910160405180910390a1506111bc60015f55565b50565b6111c7612144565b858710156112075760405162461bcd60e51b815260206004820152600d60248201526c526566756e64203c3d2066656560981b6044820152606401610c8e565b42841161124a5760405162461bcd60e51b8152602060048201526011602482015270496e76616c696420647261772074696d6560781b6044820152606401610c8e565b60038054905f61125983612b39565b9091555050600380545f90815260026020818152604080842080546001600160a01b0319166001600160a01b038f1617815560018082018e90559381018c90558086018b9055600481018a905560058101899055600681018890556007810187905560088101805460ff1916851790559454600a805494850181559094527fc65a7bb8d6351c1cf70c95a316cc6a92839c986682d98bc35f958f4883f9d2a890920183905590519182527f9e0023bebcc752baaa41057318405b5a6a8e9c6372b519717cfdf238e5caa795910160405180910390a1505050505050505050565b611341612144565b5f818152600260205260409020600881015462010000900460ff1615801561137357506008810154610100900460ff16155b6113b35760405162461bcd60e51b8152602060048201526011602482015270105b1c9958591e48199a5b985b1a5e9959607a1b6044820152606401610c8e565b60088101805462ff00001916620100001790556040517fc3dac690cf4c3ae8964f18b8f09f7f9a75d3962a8cbb7cd689df2c291bb5b2dd906113f89084815260200190565b60405180910390a15050565b61140c61219f565b61141582612243565b610ca1828261224b565b5f61142861230c565b505f516020612c435f395f51905f5290565b6114426120ed565b5f818152600260205260409020600881015462010000900460ff168061148957506008810154610100900460ff1680156114895750600a8101546001600160a01b03163314155b6114c45760405162461bcd60e51b815260206004820152600c60248201526b4e6f7420656c696769626c6560a01b6044820152606401610c8e565b335f908152600e8201602052604090205460ff16156115185760405162461bcd60e51b815260206004820152601060248201526f105b1c9958591e481c99599d5b99195960821b6044820152606401610c8e565b335f908152600c820160205260409020546115625760405162461bcd60e51b815260206004820152600a6024820152694e6f20656e747269657360b01b6044820152606401610c8e565b335f908152600e820160209081526040808320805460ff19166001179055600c840190915281205460028301546115999190612b83565b825460405163a9059cbb60e01b8152336004820152602481018390529192506001600160a01b03169063a9059cbb906044016020604051808303815f875af11580156115e7573d5f5f3e3d5ffd5b505050506040513d601f19601f8201168201806040525081019061160b9190612b64565b5050506111bc60015f55565b61161f612144565b5f818152600260205260409020600481015442101561166c5760405162461bcd60e51b8152602060048201526009602482015268546f6f206561726c7960b81b6044820152606401610c8e565b6008810154610100900460ff161580156116915750600881015462010000900460ff16155b6116dd5760405162461bcd60e51b815260206004820152601a60248201527f416c726561647920647261776e206f722063616e63656c6c65640000000000006044820152606401610c8e565b60098101546117205760405162461bcd60e51b815260206004820152600f60248201526e4e6f207061727469636970616e747360881b6044820152606401610c8e565b6009546040805160c081018252600654815260085460208083019190915260075461ffff6401000000008204168385015263ffffffff8082166060850152660100000000000090910416608083015282519081019092525f808352926001600160a01b031691639b1c385e919060a082019061179b90612355565b8152506040518263ffffffff1660e01b81526004016117ba9190612b9a565b6020604051808303815f875af11580156117d6573d5f5f3e3d5ffd5b505050506040513d601f19601f820116820180604052508101906117fa9190612bf6565b5f818152600b60205260409081902085905560088401805461ff001916610100179055519091507f600253eae67a5c51c82a7123372e8644f16009c6304e18f844cf86fdc40c24d7906118599085908490918252602082015260400190565b60405180910390a1505050565b6060600a8054806020026020016040519081016040528092919081815260200182805480156118b257602002820191905f5260205f20905b81548152602001906001019080831161189e575b5050505050905090565b6118c4612144565b6118cd5f6123c6565b565b61194c604051806101c001604052805f6001600160a01b031681526020015f81526020015f81526020015f81526020015f81526020015f81526020015f81526020015f81526020015f151581526020015f151581526020015f151581526020015f6001600160a01b031681526020015f8152602001606081525090565b5f8281526002602081815260409283902083516101c08101855281546001600160a01b03908116825260018301548285015293820154818601526003820154606082015260048201546080820152600582015460a0820152600682015460c0820152600782015460e0820152600882015460ff80821615156101008085019190915282048116151561012084015262010000909104161515610140820152600a820154909316610160840152600b81015461018084015260098101805485518185028101850190965280865291946101a0850193909290830182828015611a5a57602002820191905f5260205f20905b81546001600160a01b03168152600190910190602001808311611a3c575b5050505050815250915050919050565b5f818152600260209081526040808320338452600f81019092529091205460ff1615611ac85760405162461bcd60e51b815260206004820152600d60248201526c105b1c9958591e481d9bdd1959609a1b6044820152606401610c8e565b335f908152600c82016020526040902054611b165760405162461bcd60e51b815260206004820152600e60248201526d4e6f7420696e206c6f747465727960901b6044820152606401610c8e565b335f908152600f820160205260408120805460ff19166001179055600b8201805491611b4183612b39565b90915550506009810154611b56906002612b83565b600b820154611b66906003612b83565b10610ca15760088101805462ff00001916620100001790556040517fc3dac690cf4c3ae8964f18b8f09f7f9a75d3962a8cbb7cd689df2c291bb5b2dd906113f89084815260200190565b611bb8612144565b5f818152600260208190526040822080546001600160a01b031916815560018101839055908101829055600381018290556004810182905560058101829055600681018290556007810182905560088101805462ffffff1916905590611c21600983018261264d565b50600a810180546001600160a01b03191690555f600b9091015550565b5f81815260026020908152604091829020600901805483518184028101840190945280845260609392830182828015611c9e57602002820191905f5260205f20905b81546001600160a01b03168152600190910190602001808311611c80575b50505050509050919050565b611cb26120ed565b5f818152600260205260409020600a8101546001600160a01b03163314611d085760405162461bcd60e51b815260206004820152600a6024820152692737ba103bb4b73732b960b11b6044820152606401610c8e565b335f908152600d8201602052604090205460ff1615611d5b5760405162461bcd60e51b815260206004820152600f60248201526e105b1c9958591e4818db185a5b5959608a1b6044820152606401610c8e565b335f818152600d8301602052604090819020805460ff1916600117905582546005840154915163a9059cbb60e01b8152600481019390935260248301919091526001600160a01b03169063a9059cbb906044016020604051808303815f875af1158015611dca573d5f5f3e3d5ffd5b505050506040513d601f19601f82011682018060405250810190611dee9190612b64565b50506111bc60015f55565b600a8181548110611e08575f80fd5b5f91825260209091200154905081565b611e20612144565b6001600160a01b038116611e4957604051631e4fbdf760e01b81525f6004820152602401610c8e565b6111bc816123c6565b5f807ff0c57e16840df040f15088dc2f81fe391c3923bec73e23a9662efc9c229c6a00610ada565b611e82612436565b6111bc8161245b565b6118cd612436565b611e9b612436565b600180546001600160a01b0319166001600160a01b0392909216919091179055565b5f828152600b602090815260408083205480845260029092529091206008810154610100900460ff168015611efd5750600a8101546001600160a01b0316155b611f3d5760405162461bcd60e51b8152602060048201526011602482015270105b1c9958591e48199d5b199a5b1b1959607a1b6044820152606401610c8e565b5f8160090180549050845f81518110611f5857611f58612b11565b6020026020010151611f6a9190612c0d565b9050816009018181548110611f8157611f81612b11565b5f91825260209091200154600a830180546001600160a01b0319166001600160a01b03928316179055825460048054600686015460405163a9059cbb60e01b8152918516928201929092526024810191909152911690819063a9059cbb906044016020604051808303815f875af1158015611ffe573d5f5f3e3d5ffd5b505050506040513d601f19601f820116820180604052508101906120229190612b64565b50600554600784015460405163a9059cbb60e01b81526001600160a01b03928316600482015260248101919091529082169063a9059cbb906044016020604051808303815f875af1158015612079573d5f5f3e3d5ffd5b505050506040513d601f19601f8201168201806040525081019061209d9190612b64565b50600a830154604080518681526001600160a01b0390921660208301527f03fb57eb449654e24e1b240d3d06702cf79362a065d5c0323aee642d4702fa4b910160405180910390a1505050505050565b60025f540361213e5760405162461bcd60e51b815260206004820152601f60248201527f5265656e7472616e637947756172643a207265656e7472616e742063616c6c006044820152606401610c8e565b60025f55565b336121767f9016d09d72d40fdae2fd8ceac6b6234c7706214fd39c1cd1e609a0528c199300546001600160a01b031690565b6001600160a01b0316146118cd5760405163118cdaa760e01b8152336004820152602401610c8e565b306001600160a01b037f000000000000000000000000000000000000000000000000000000000000000016148061222557507f00000000000000000000000000000000000000000000000000000000000000006001600160a01b03166122195f516020612c435f395f51905f52546001600160a01b031690565b6001600160a01b031614155b156118cd5760405163703e46dd60e11b815260040160405180910390fd5b6111bc612144565b816001600160a01b03166352d1902d6040518163ffffffff1660e01b8152600401602060405180830381865afa9250505080156122a5575060408051601f3d908101601f191682019092526122a291810190612bf6565b60015b6122cd57604051634c9c8ce360e01b81526001600160a01b0383166004820152602401610c8e565b5f516020612c435f395f51905f5281146122fd57604051632a87526960e21b815260048101829052602401610c8e565b6123078383612463565b505050565b306001600160a01b037f000000000000000000000000000000000000000000000000000000000000000016146118cd5760405163703e46dd60e11b815260040160405180910390fd5b60607f92fd13387c7fe7befbc38d303d6468778fb9731bc4583f17d92989c6fcfdeaaa8260405160240161238e91511515815260200190565b60408051601f198184030181529190526020810180516001600160e01b03166001600160e01b03199093169290921790915292915050565b7f9016d09d72d40fdae2fd8ceac6b6234c7706214fd39c1cd1e609a0528c19930080546001600160a01b031981166001600160a01b03848116918217845560405192169182907f8be0079c531659141344cd1fd0a4f28419497f9722a3daafe3b4186f6b6457e0905f90a3505050565b61243e6124b8565b6118cd57604051631afcd79f60e31b815260040160405180910390fd5b611e20612436565b61246c826124d1565b6040516001600160a01b038316907fbc7cd75a20ee27fd9adebab32041f755214dbc6bffa90cc0225b39da2e5c2d3b905f90a28051156124b0576123078282612534565b610ca16125a6565b5f6124c1611e52565b54600160401b900460ff16919050565b806001600160a01b03163b5f0361250657604051634c9c8ce360e01b81526001600160a01b0382166004820152602401610c8e565b5f516020612c435f395f51905f5280546001600160a01b0319166001600160a01b0392909216919091179055565b60605f5f846001600160a01b0316846040516125509190612c2c565b5f60405180830381855af49150503d805f8114612588576040519150601f19603f3d011682016040523d82523d5f602084013e61258d565b606091505b509150915061259d8583836125c5565b95945050505050565b34156118cd5760405163b398979f60e01b815260040160405180910390fd5b6060826125da576125d582612624565b61261d565b81511580156125f157506001600160a01b0384163b155b1561261a57604051639996b31560e01b81526001600160a01b0385166004820152602401610c8e565b50805b9392505050565b8051156126345780518082602001fd5b60405163d6bda27560e01b815260040160405180910390fd5b5080545f8255905f5260205f20908101906111bc91905b80821115612677575f8155600101612664565b5090565b602080825282518282018190525f918401906040840190835b818110156126b2578351835260209384019390920191600101612694565b509095945050505050565b80356001600160a01b03811681146126d3575f5ffd5b919050565b5f5f604083850312156126e9575f5ffd5b823591506126f9602084016126bd565b90509250929050565b5f5f5f5f5f60a08688031215612716575f5ffd5b61271f866126bd565b9450602086013593506040860135925061273b606087016126bd565b9150612749608087016126bd565b90509295509295909350565b5f60208284031215612765575f5ffd5b5035919050565b634e487b7160e01b5f52604160045260245ffd5b604051601f8201601f1916810167ffffffffffffffff811182821017156127a9576127a961276c565b604052919050565b5f5f604083850312156127c2575f5ffd5b82359150602083013567ffffffffffffffff8111156127df575f5ffd5b8301601f810185136127ef575f5ffd5b803567ffffffffffffffff8111156128095761280961276c565b8060051b61281960208201612780565b91825260208184018101929081019088841115612834575f5ffd5b6020850194505b8385101561285a5784358083526020958601959093509091019061283b565b80955050505050509250929050565b5f5f6040838503121561287a575f5ffd5b50508035926020909101359150565b5f5f5f5f5f5f5f5f610100898b0312156128a1575f5ffd5b6128aa896126bd565b9a60208a01359a5060408a013599606081013599506080810135985060a0810135975060c0810135965060e00135945092505050565b5f5f604083850312156128f1575f5ffd5b6128fa836126bd565b9150602083013567ffffffffffffffff811115612915575f5ffd5b8301601f81018513612925575f5ffd5b803567ffffffffffffffff81111561293f5761293f61276c565b612952601f8201601f1916602001612780565b818152866020838501011115612966575f5ffd5b816020840160208301375f602083830101528093505050509250929050565b5f8151808452602084019350602083015f5b828110156129be5781516001600160a01b0316865260209586019590910190600101612997565b5093949350505050565b602081526129e26020820183516001600160a01b03169052565b602082015160408201526040820151606082015260608201516080820152608082015160a082015260a082015160c082015260c082015160e082015260e08201516101008201525f610100830151612a3f61012084018215159052565b5061012083015180151561014084015250610140830151801515610160840152506101608301516001600160a01b038116610180840152506101808301516101a08301526101a08301516101c080840152612a9e6101e0840182612985565b949350505050565b5f81518084528060208401602086015e5f602082860101526020601f19601f83011685010191505092915050565b602081525f61261d6020830184612aa6565b602081525f61261d6020830184612985565b5f60208284031215612b08575f5ffd5b61261d826126bd565b634e487b7160e01b5f52603260045260245ffd5b634e487b7160e01b5f52601160045260245ffd5b5f60018201612b4a57612b4a612b25565b5060010190565b81810381811115610ada57610ada612b25565b5f60208284031215612b74575f5ffd5b8151801515811461261d575f5ffd5b8082028115828204841417610ada57610ada612b25565b60208152815160208201526020820151604082015261ffff604083015116606082015263ffffffff606083015116608082015263ffffffff60808301511660a08201525f60a083015160c080840152612a9e60e0840182612aa6565b5f60208284031215612c06575f5ffd5b5051919050565b5f82612c2757634e487b7160e01b5f52601260045260245ffd5b500690565b5f82518060208501845e5f92019182525091905056fe360894a13ba1a3210667c828492db98dca3e2076cc3735a920a3ca505d382bbca2646970667358221220c52a7046eb2ce0178c50564c0b4701940b510ffa8d16da2b0f8d29e2dedaea6d64736f6c634300081e0033",
					"opcodes": "PUSH1 0xA0 PUSH1 0x40 MSTORE ADDRESS PUSH1 0x80 MSTORE CALLVALUE DUP1 ISZERO PUSH1 0x12 JUMPI PUSH0 PUSH0 REVERT JUMPDEST POP PUSH1 0x1 PUSH0 SSTORE PUSH1 0x80 MLOAD PUSH2 0x2C98 PUSH2 0x3D PUSH0 CODECOPY PUSH0 DUP2 DUP2 PUSH2 0x21AA ADD MSTORE DUP2 DUP2 PUSH2 0x21D3 ADD MSTORE PUSH2 0x2317 ADD MSTORE PUSH2 0x2C98 PUSH0 RETURN INVALID PUSH1 0x80 PUSH1 0x40 MSTORE PUSH1 0x4 CALLDATASIZE LT PUSH2 0x21D JUMPI PUSH0 CALLDATALOAD PUSH1 0xE0 SHR DUP1 PUSH4 0x61728F39 GT PUSH2 0x11E JUMPI DUP1 PUSH4 0xA49A75A5 GT PUSH2 0xA8 JUMPI DUP1 PUSH4 0xC1E3BD3E GT PUSH2 0x6D JUMPI DUP1 PUSH4 0xC1E3BD3E EQ PUSH2 0x854 JUMPI DUP1 PUSH4 0xC4CD639F EQ PUSH2 0x880 JUMPI DUP1 PUSH4 0xD7098154 EQ PUSH2 0x8C8 JUMPI DUP1 PUSH4 0xE2344831 EQ PUSH2 0x8E7 JUMPI DUP1 PUSH4 0xF2FDE38B EQ PUSH2 0x906 JUMPI PUSH0 PUSH0 REVERT JUMPDEST DUP1 PUSH4 0xA49A75A5 EQ PUSH2 0x6E2 JUMPI DUP1 PUSH4 0xAC03244E EQ PUSH2 0x727 JUMPI DUP1 PUSH4 0xAD3CB1CC EQ PUSH2 0x7C3 JUMPI DUP1 PUSH4 0xB0FB162F EQ PUSH2 0x800 JUMPI DUP1 PUSH4 0xB6FA37BC EQ PUSH2 0x835 JUMPI PUSH0 PUSH0 REVERT JUMPDEST DUP1 PUSH4 0x7CCFD7FC GT PUSH2 0xEE JUMPI DUP1 PUSH4 0x7CCFD7FC EQ PUSH2 0x623 JUMPI DUP1 PUSH4 0x826D9873 EQ PUSH2 0x649 JUMPI DUP1 PUSH4 0x82F9D0FB EQ PUSH2 0x668 JUMPI DUP1 PUSH4 0x8DA5CB5B EQ PUSH2 0x687 JUMPI DUP1 PUSH4 0xA3E56FA8 EQ PUSH2 0x6C3 JUMPI PUSH0 PUSH0 REVERT JUMPDEST DUP1 PUSH4 0x61728F39 EQ PUSH2 0x5BA JUMPI DUP1 PUSH4 0x6CC69997 EQ PUSH2 0x5CF JUMPI DUP1 PUSH4 0x715018A6 EQ PUSH2 0x5E3 JUMPI DUP1 PUSH4 0x76B3C8A8 EQ PUSH2 0x5F7 JUMPI PUSH0 PUSH0 REVERT JUMPDEST DUP1 PUSH4 0x3893F9D5 GT PUSH2 0x1AA JUMPI DUP1 PUSH4 0x4A4A6B4F GT PUSH2 0x16F JUMPI DUP1 PUSH4 0x4A4A6B4F EQ PUSH2 0x540 JUMPI DUP1 PUSH4 0x4F1EF286 EQ PUSH2 0x555 JUMPI DUP1 PUSH4 0x52D1902D EQ PUSH2 0x568 JUMPI DUP1 PUSH4 0x5B7BAF64 EQ PUSH2 0x57C JUMPI DUP1 PUSH4 0x60B2A56A EQ PUSH2 0x59B JUMPI PUSH0 PUSH0 REVERT JUMPDEST DUP1 PUSH4 0x3893F9D5 EQ PUSH2 0x47C JUMPI DUP1 PUSH4 0x3FD43098 EQ PUSH2 0x49B JUMPI DUP1 PUSH4 0x3FE6E01E EQ PUSH2 0x4BA JUMPI DUP1 PUSH4 0x4311DA37 EQ PUSH2 0x502 JUMPI DUP1 PUSH4 0x4538F297 EQ PUSH2 0x521 JUMPI PUSH0 PUSH0 REVERT JUMPDEST DUP1 PUSH4 0x1398E076 GT PUSH2 0x1F0 JUMPI DUP1 PUSH4 0x1398E076 EQ PUSH2 0x2BE JUMPI DUP1 PUSH4 0x15C6E123 EQ PUSH2 0x3CA JUMPI DUP1 PUSH4 0x1FE543E3 EQ PUSH2 0x3F5 JUMPI DUP1 PUSH4 0x2301D775 EQ PUSH2 0x414 JUMPI DUP1 PUSH4 0x24F74697 EQ PUSH2 0x44B JUMPI PUSH0 PUSH0 REVERT JUMPDEST DUP1 PUSH4 0x55B66CD EQ PUSH2 0x221 JUMPI DUP1 PUSH4 0x7C7A72D EQ PUSH2 0x24B JUMPI DUP1 PUSH4 0x9C1BA2E EQ PUSH2 0x27A JUMPI DUP1 PUSH4 0xAF5A263 EQ PUSH2 0x29D JUMPI JUMPDEST PUSH0 PUSH0 REVERT JUMPDEST CALLVALUE DUP1 ISZERO PUSH2 0x22C JUMPI PUSH0 PUSH0 REVERT JUMPDEST POP PUSH2 0x235 PUSH2 0x925 JUMP JUMPDEST PUSH1 0x40 MLOAD PUSH2 0x242 SWAP2 SWAP1 PUSH2 0x267B JUMP JUMPDEST PUSH1 0x40 MLOAD DUP1 SWAP2 SUB SWAP1 RETURN JUMPDEST CALLVALUE DUP1 ISZERO PUSH2 0x256 JUMPI PUSH0 PUSH0 REVERT JUMPDEST POP PUSH2 0x26A PUSH2 0x265 CALLDATASIZE PUSH1 0x4 PUSH2 0x26D8 JUMP JUMPDEST PUSH2 0xAB1 JUMP JUMPDEST PUSH1 0x40 MLOAD SWAP1 ISZERO ISZERO DUP2 MSTORE PUSH1 0x20 ADD PUSH2 0x242 JUMP JUMPDEST CALLVALUE DUP1 ISZERO PUSH2 0x285 JUMPI PUSH0 PUSH0 REVERT JUMPDEST POP PUSH2 0x28F PUSH1 0x8 SLOAD DUP2 JUMP JUMPDEST PUSH1 0x40 MLOAD SWAP1 DUP2 MSTORE PUSH1 0x20 ADD PUSH2 0x242 JUMP JUMPDEST CALLVALUE DUP1 ISZERO PUSH2 0x2A8 JUMPI PUSH0 PUSH0 REVERT JUMPDEST POP PUSH2 0x2BC PUSH2 0x2B7 CALLDATASIZE PUSH1 0x4 PUSH2 0x2702 JUMP JUMPDEST PUSH2 0xAE0 JUMP JUMPDEST STOP JUMPDEST CALLVALUE DUP1 ISZERO PUSH2 0x2C9 JUMPI PUSH0 PUSH0 REVERT JUMPDEST POP PUSH2 0x353 PUSH2 0x2D8 CALLDATASIZE PUSH1 0x4 PUSH2 0x2755 JUMP JUMPDEST PUSH1 0x2 PUSH1 0x20 DUP2 SWAP1 MSTORE PUSH0 SWAP2 DUP3 MSTORE PUSH1 0x40 SWAP1 SWAP2 KECCAK256 DUP1 SLOAD PUSH1 0x1 DUP3 ADD SLOAD SWAP3 DUP3 ADD SLOAD PUSH1 0x3 DUP4 ADD SLOAD PUSH1 0x4 DUP5 ADD SLOAD PUSH1 0x5 DUP6 ADD SLOAD PUSH1 0x6 DUP7 ADD SLOAD PUSH1 0x7 DUP8 ADD SLOAD PUSH1 0x8 DUP9 ADD SLOAD PUSH1 0xA DUP10 ADD SLOAD PUSH1 0xB SWAP1 SWAP10 ADD SLOAD PUSH1 0x1 PUSH1 0x1 PUSH1 0xA0 SHL SUB SWAP9 DUP10 AND SWAP11 SWAP10 SWAP8 SWAP9 SWAP7 SWAP8 SWAP6 SWAP7 SWAP5 SWAP6 SWAP4 SWAP5 SWAP3 SWAP4 PUSH1 0xFF DUP1 DUP5 AND SWAP5 PUSH2 0x100 DUP6 DIV DUP3 AND SWAP5 PUSH3 0x10000 SWAP1 DIV SWAP1 SWAP2 AND SWAP3 SWAP2 AND SWAP1 DUP14 JUMP JUMPDEST PUSH1 0x40 DUP1 MLOAD PUSH1 0x1 PUSH1 0x1 PUSH1 0xA0 SHL SUB SWAP15 DUP16 AND DUP2 MSTORE PUSH1 0x20 DUP2 ADD SWAP14 SWAP1 SWAP14 MSTORE DUP13 ADD SWAP11 SWAP1 SWAP11 MSTORE PUSH1 0x60 DUP12 ADD SWAP9 SWAP1 SWAP9 MSTORE PUSH1 0x80 DUP11 ADD SWAP7 SWAP1 SWAP7 MSTORE PUSH1 0xA0 DUP10 ADD SWAP5 SWAP1 SWAP5 MSTORE PUSH1 0xC0 DUP9 ADD SWAP3 SWAP1 SWAP3 MSTORE PUSH1 0xE0 DUP8 ADD MSTORE ISZERO ISZERO PUSH2 0x100 DUP7 ADD MSTORE ISZERO ISZERO PUSH2 0x120 DUP6 ADD MSTORE ISZERO ISZERO PUSH2 0x140 DUP5 ADD MSTORE SWAP1 SWAP3 AND PUSH2 0x160 DUP3 ADD MSTORE PUSH2 0x180 DUP2 ADD SWAP2 SWAP1 SWAP2 MSTORE PUSH2 0x1A0 ADD PUSH2 0x242 JUMP JUMPDEST CALLVALUE DUP1 ISZERO PUSH2 0x3D5 JUMPI PUSH0 PUSH0 REVERT JUMPDEST POP PUSH2 0x28F PUSH2 0x3E4 CALLDATASIZE PUSH1 0x4 PUSH2 0x2755 JUMP JUMPDEST PUSH1 0xB PUSH1 0x20 MSTORE PUSH0 SWAP1 DUP2 MSTORE PUSH1 0x40 SWAP1 KECCAK256 SLOAD DUP2 JUMP JUMPDEST CALLVALUE DUP1 ISZERO PUSH2 0x400 JUMPI PUSH0 PUSH0 REVERT JUMPDEST POP PUSH2 0x2BC PUSH2 0x40F CALLDATASIZE PUSH1 0x4 PUSH2 0x27B1 JUMP JUMPDEST PUSH2 0xC52 JUMP JUMPDEST CALLVALUE DUP1 ISZERO PUSH2 0x41F JUMPI PUSH0 PUSH0 REVERT JUMPDEST POP PUSH1 0x5 SLOAD PUSH2 0x433 SWAP1 PUSH1 0x1 PUSH1 0x1 PUSH1 0xA0 SHL SUB AND DUP2 JUMP JUMPDEST PUSH1 0x40 MLOAD PUSH1 0x1 PUSH1 0x1 PUSH1 0xA0 SHL SUB SWAP1 SWAP2 AND DUP2 MSTORE PUSH1 0x20 ADD PUSH2 0x242 JUMP JUMPDEST CALLVALUE DUP1 ISZERO PUSH2 0x456 JUMPI PUSH0 PUSH0 REVERT JUMPDEST POP PUSH1 0x7 SLOAD PUSH2 0x467 SWAP1 PUSH4 0xFFFFFFFF AND DUP2 JUMP JUMPDEST PUSH1 0x40 MLOAD PUSH4 0xFFFFFFFF SWAP1 SWAP2 AND DUP2 MSTORE PUSH1 0x20 ADD PUSH2 0x242 JUMP JUMPDEST CALLVALUE DUP1 ISZERO PUSH2 0x487 JUMPI PUSH0 PUSH0 REVERT JUMPDEST POP PUSH2 0x2BC PUSH2 0x496 CALLDATASIZE PUSH1 0x4 PUSH2 0x2869 JUMP JUMPDEST PUSH2 0xCA5 JUMP JUMPDEST CALLVALUE DUP1 ISZERO PUSH2 0x4A6 JUMPI PUSH0 PUSH0 REVERT JUMPDEST POP PUSH2 0x2BC PUSH2 0x4B5 CALLDATASIZE PUSH1 0x4 PUSH2 0x2755 JUMP JUMPDEST PUSH2 0xFB4 JUMP JUMPDEST CALLVALUE DUP1 ISZERO PUSH2 0x4C5 JUMPI PUSH0 PUSH0 REVERT JUMPDEST POP PUSH2 0x26A PUSH2 0x4D4 CALLDATASIZE PUSH1 0x4 PUSH2 0x26D8 JUMP JUMPDEST PUSH0 DUP3 DUP2 MSTORE PUSH1 0x2 PUSH1 0x20 SWAP1 DUP2 MSTORE PUSH1 0x40 DUP1 DUP4 KECCAK256 PUSH1 0x1 PUSH1 0x1 PUSH1 0xA0 SHL SUB DUP6 AND DUP5 MSTORE PUSH1 0xF ADD SWAP1 SWAP2 MSTORE SWAP1 KECCAK256 SLOAD PUSH1 0xFF AND SWAP3 SWAP2 POP POP JUMP JUMPDEST CALLVALUE DUP1 ISZERO PUSH2 0x50D JUMPI PUSH0 PUSH0 REVERT JUMPDEST POP PUSH2 0x2BC PUSH2 0x51C CALLDATASIZE PUSH1 0x4 PUSH2 0x2889 JUMP JUMPDEST PUSH2 0x11BF JUMP JUMPDEST CALLVALUE DUP1 ISZERO PUSH2 0x52C JUMPI PUSH0 PUSH0 REVERT JUMPDEST POP PUSH2 0x2BC PUSH2 0x53B CALLDATASIZE PUSH1 0x4 PUSH2 0x2755 JUMP JUMPDEST PUSH2 0x1339 JUMP JUMPDEST CALLVALUE DUP1 ISZERO PUSH2 0x54B JUMPI PUSH0 PUSH0 REVERT JUMPDEST POP PUSH2 0x28F PUSH1 0x3 SLOAD DUP2 JUMP JUMPDEST PUSH2 0x2BC PUSH2 0x563 CALLDATASIZE PUSH1 0x4 PUSH2 0x28E0 JUMP JUMPDEST PUSH2 0x1404 JUMP JUMPDEST CALLVALUE DUP1 ISZERO PUSH2 0x573 JUMPI PUSH0 PUSH0 REVERT JUMPDEST POP PUSH2 0x28F PUSH2 0x141F JUMP JUMPDEST CALLVALUE DUP1 ISZERO PUSH2 0x587 JUMPI PUSH0 PUSH0 REVERT JUMPDEST POP PUSH2 0x2BC PUSH2 0x596 CALLDATASIZE PUSH1 0x4 PUSH2 0x2755 JUMP JUMPDEST PUSH2 0x143A JUMP JUMPDEST CALLVALUE DUP1 ISZERO PUSH2 0x5A6 JUMPI PUSH0 PUSH0 REVERT JUMPDEST POP PUSH2 0x2BC PUSH2 0x5B5 CALLDATASIZE PUSH1 0x4 PUSH2 0x2755 JUMP JUMPDEST PUSH2 0x1617 JUMP JUMPDEST CALLVALUE DUP1 ISZERO PUSH2 0x5C5 JUMPI PUSH0 PUSH0 REVERT JUMPDEST POP PUSH2 0x28F PUSH1 0x6 SLOAD DUP2 JUMP JUMPDEST CALLVALUE DUP1 ISZERO PUSH2 0x5DA JUMPI PUSH0 PUSH0 REVERT JUMPDEST POP PUSH2 0x235 PUSH2 0x1866 JUMP JUMPDEST CALLVALUE DUP1 ISZERO PUSH2 0x5EE JUMPI PUSH0 PUSH0 REVERT JUMPDEST POP PUSH2 0x2BC PUSH2 0x18BC JUMP JUMPDEST CALLVALUE DUP1 ISZERO PUSH2 0x602 JUMPI PUSH0 PUSH0 REVERT JUMPDEST POP PUSH2 0x616 PUSH2 0x611 CALLDATASIZE PUSH1 0x4 PUSH2 0x2755 JUMP JUMPDEST PUSH2 0x18CF JUMP JUMPDEST PUSH1 0x40 MLOAD PUSH2 0x242 SWAP2 SWAP1 PUSH2 0x29C8 JUMP JUMPDEST CALLVALUE DUP1 ISZERO PUSH2 0x62E JUMPI PUSH0 PUSH0 REVERT JUMPDEST POP PUSH1 0x7 SLOAD PUSH2 0x467 SWAP1 PUSH7 0x1000000000000 SWAP1 DIV PUSH4 0xFFFFFFFF AND DUP2 JUMP JUMPDEST CALLVALUE DUP1 ISZERO PUSH2 0x654 JUMPI PUSH0 PUSH0 REVERT JUMPDEST POP PUSH2 0x2BC PUSH2 0x663 CALLDATASIZE PUSH1 0x4 PUSH2 0x2755 JUMP JUMPDEST PUSH2 0x1A6A JUMP JUMPDEST CALLVALUE DUP1 ISZERO PUSH2 0x673 JUMPI PUSH0 PUSH0 REVERT JUMPDEST POP PUSH2 0x2BC PUSH2 0x682 CALLDATASIZE PUSH1 0x4 PUSH2 0x2755 JUMP JUMPDEST PUSH2 0x1BB0 JUMP JUMPDEST CALLVALUE DUP1 ISZERO PUSH2 0x692 JUMPI PUSH0 PUSH0 REVERT JUMPDEST POP PUSH32 0x9016D09D72D40FDAE2FD8CEAC6B6234C7706214FD39C1CD1E609A0528C199300 SLOAD PUSH1 0x1 PUSH1 0x1 PUSH1 0xA0 SHL SUB AND PUSH2 0x433 JUMP JUMPDEST CALLVALUE DUP1 ISZERO PUSH2 0x6CE JUMPI PUSH0 PUSH0 REVERT JUMPDEST POP PUSH1 0x9 SLOAD PUSH2 0x433 SWAP1 PUSH1 0x1 PUSH1 0x1 PUSH1 0xA0 SHL SUB AND DUP2 JUMP JUMPDEST CALLVALUE DUP1 ISZERO PUSH2 0x6ED JUMPI PUSH0 PUSH0 REVERT JUMPDEST POP PUSH2 0x28F PUSH2 0x6FC CALLDATASIZE PUSH1 0x4 PUSH2 0x26D8 JUMP JUMPDEST PUSH0 DUP3 DUP2 MSTORE PUSH1 0x2 PUSH1 0x20 SWAP1 DUP2 MSTORE PUSH1 0x40 DUP1 DUP4 KECCAK256 PUSH1 0x1 PUSH1 0x1 PUSH1 0xA0 SHL SUB DUP6 AND DUP5 MSTORE PUSH1 0xC ADD SWAP1 SWAP2 MSTORE SWAP1 KECCAK256 SLOAD SWAP3 SWAP2 POP POP JUMP JUMPDEST CALLVALUE DUP1 ISZERO PUSH2 0x732 JUMPI PUSH0 PUSH0 REVERT JUMPDEST POP PUSH2 0x79B PUSH2 0x741 CALLDATASIZE PUSH1 0x4 PUSH2 0x26D8 JUMP JUMPDEST PUSH0 SWAP2 DUP3 MSTORE PUSH1 0x2 PUSH1 0x20 SWAP1 DUP2 MSTORE PUSH1 0x40 DUP1 DUP5 KECCAK256 PUSH1 0x1 PUSH1 0x1 PUSH1 0xA0 SHL SUB SWAP4 SWAP1 SWAP4 AND DUP5 MSTORE PUSH1 0xC DUP4 ADD DUP3 MSTORE DUP1 DUP5 KECCAK256 SLOAD PUSH1 0xD DUP5 ADD DUP4 MSTORE DUP2 DUP6 KECCAK256 SLOAD PUSH1 0xE DUP6 ADD DUP5 MSTORE DUP3 DUP7 KECCAK256 SLOAD PUSH1 0xF SWAP1 SWAP6 ADD SWAP1 SWAP4 MSTORE SWAP4 KECCAK256 SLOAD SWAP3 SWAP4 PUSH1 0xFF SWAP2 DUP3 AND SWAP4 SWAP3 DUP3 AND SWAP3 SWAP2 SWAP1 SWAP2 AND SWAP1 JUMP JUMPDEST PUSH1 0x40 DUP1 MLOAD SWAP5 DUP6 MSTORE SWAP3 ISZERO ISZERO PUSH1 0x20 DUP6 ADD MSTORE SWAP1 ISZERO ISZERO SWAP2 DUP4 ADD SWAP2 SWAP1 SWAP2 MSTORE ISZERO ISZERO PUSH1 0x60 DUP3 ADD MSTORE PUSH1 0x80 ADD PUSH2 0x242 JUMP JUMPDEST CALLVALUE DUP1 ISZERO PUSH2 0x7CE JUMPI PUSH0 PUSH0 REVERT JUMPDEST POP PUSH2 0x7F3 PUSH1 0x40 MLOAD DUP1 PUSH1 0x40 ADD PUSH1 0x40 MSTORE DUP1 PUSH1 0x5 DUP2 MSTORE PUSH1 0x20 ADD PUSH5 0x352E302E3 PUSH1 0xDC SHL DUP2 MSTORE POP DUP2 JUMP JUMPDEST PUSH1 0x40 MLOAD PUSH2 0x242 SWAP2 SWAP1 PUSH2 0x2AD4 JUMP JUMPDEST CALLVALUE DUP1 ISZERO PUSH2 0x80B JUMPI PUSH0 PUSH0 REVERT JUMPDEST POP PUSH1 0x7 SLOAD PUSH2 0x822 SWAP1 PUSH5 0x100000000 SWAP1 DIV PUSH2 0xFFFF AND DUP2 JUMP JUMPDEST PUSH1 0x40 MLOAD PUSH2 0xFFFF SWAP1 SWAP2 AND DUP2 MSTORE PUSH1 0x20 ADD PUSH2 0x242 JUMP JUMPDEST CALLVALUE DUP1 ISZERO PUSH2 0x840 JUMPI PUSH0 PUSH0 REVERT JUMPDEST POP PUSH1 0x4 SLOAD PUSH2 0x433 SWAP1 PUSH1 0x1 PUSH1 0x1 PUSH1 0xA0 SHL SUB AND DUP2 JUMP JUMPDEST CALLVALUE DUP1 ISZERO PUSH2 0x85F JUMPI PUSH0 PUSH0 REVERT JUMPDEST POP PUSH2 0x873 PUSH2 0x86E CALLDATASIZE PUSH1 0x4 PUSH2 0x2755 JUMP JUMPDEST PUSH2 0x1C3E JUMP JUMPDEST PUSH1 0x40 MLOAD PUSH2 0x242 SWAP2 SWAP1 PUSH2 0x2AE6 JUMP JUMPDEST CALLVALUE DUP1 ISZERO PUSH2 0x88B JUMPI PUSH0 PUSH0 REVERT JUMPDEST POP PUSH2 0x26A PUSH2 0x89A CALLDATASIZE PUSH1 0x4 PUSH2 0x26D8 JUMP JUMPDEST PUSH0 DUP3 DUP2 MSTORE PUSH1 0x2 PUSH1 0x20 SWAP1 DUP2 MSTORE PUSH1 0x40 DUP1 DUP4 KECCAK256 PUSH1 0x1 PUSH1 0x1 PUSH1 0xA0 SHL SUB DUP6 AND DUP5 MSTORE PUSH1 0xE ADD SWAP1 SWAP2 MSTORE SWAP1 KECCAK256 SLOAD PUSH1 0xFF AND SWAP3 SWAP2 POP POP JUMP JUMPDEST CALLVALUE DUP1 ISZERO PUSH2 0x8D3 JUMPI PUSH0 PUSH0 REVERT JUMPDEST POP PUSH2 0x2BC PUSH2 0x8E2 CALLDATASIZE PUSH1 0x4 PUSH2 0x2755 JUMP JUMPDEST PUSH2 0x1CAA JUMP JUMPDEST CALLVALUE DUP1 ISZERO PUSH2 0x8F2 JUMPI PUSH0 PUSH0 REVERT JUMPDEST POP PUSH2 0x28F PUSH2 0x901 CALLDATASIZE PUSH1 0x4 PUSH2 0x2755 JUMP JUMPDEST PUSH2 0x1DF9 JUMP JUMPDEST CALLVALUE DUP1 ISZERO PUSH2 0x911 JUMPI PUSH0 PUSH0 REVERT JUMPDEST POP PUSH2 0x2BC PUSH2 0x920 CALLDATASIZE PUSH1 0x4 PUSH2 0x2AF8 JUMP JUMPDEST PUSH2 0x1E18 JUMP JUMPDEST PUSH1 0xA SLOAD PUSH1 0x60 SWAP1 PUSH0 SWAP1 PUSH8 0xFFFFFFFFFFFFFFFF DUP2 GT ISZERO PUSH2 0x945 JUMPI PUSH2 0x945 PUSH2 0x276C JUMP JUMPDEST PUSH1 0x40 MLOAD SWAP1 DUP1 DUP3 MSTORE DUP1 PUSH1 0x20 MUL PUSH1 0x20 ADD DUP3 ADD PUSH1 0x40 MSTORE DUP1 ISZERO PUSH2 0x96E JUMPI DUP2 PUSH1 0x20 ADD PUSH1 0x20 DUP3 MUL DUP1 CALLDATASIZE DUP4 CALLDATACOPY ADD SWAP1 POP JUMPDEST POP SWAP1 POP PUSH0 DUP1 JUMPDEST PUSH1 0xA SLOAD DUP2 LT ISZERO PUSH2 0xA19 JUMPI PUSH0 PUSH1 0xA DUP3 DUP2 SLOAD DUP2 LT PUSH2 0x992 JUMPI PUSH2 0x992 PUSH2 0x2B11 JUMP JUMPDEST PUSH0 SWAP2 DUP3 MSTORE PUSH1 0x20 DUP1 DUP4 KECCAK256 SWAP1 SWAP2 ADD SLOAD DUP1 DUP4 MSTORE PUSH1 0x2 SWAP1 SWAP2 MSTORE PUSH1 0x40 SWAP1 SWAP2 KECCAK256 PUSH1 0x8 DUP2 ADD SLOAD SWAP2 SWAP3 POP SWAP1 PUSH1 0xFF AND DUP1 ISZERO PUSH2 0x9CF JUMPI POP PUSH1 0x8 DUP2 ADD SLOAD PUSH3 0x10000 SWAP1 DIV PUSH1 0xFF AND ISZERO JUMPDEST DUP1 ISZERO PUSH2 0x9DE JUMPI POP DUP1 PUSH1 0x4 ADD SLOAD TIMESTAMP LT JUMPDEST ISZERO PUSH2 0xA0F JUMPI DUP2 DUP6 DUP6 DUP2 MLOAD DUP2 LT PUSH2 0x9F6 JUMPI PUSH2 0x9F6 PUSH2 0x2B11 JUMP JUMPDEST PUSH1 0x20 SWAP1 DUP2 MUL SWAP2 SWAP1 SWAP2 ADD ADD MSTORE DUP4 PUSH2 0xA0B DUP2 PUSH2 0x2B39 JUMP JUMPDEST SWAP5 POP POP JUMPDEST POP POP PUSH1 0x1 ADD PUSH2 0x974 JUMP JUMPDEST POP PUSH0 DUP2 PUSH8 0xFFFFFFFFFFFFFFFF DUP2 GT ISZERO PUSH2 0xA34 JUMPI PUSH2 0xA34 PUSH2 0x276C JUMP JUMPDEST PUSH1 0x40 MLOAD SWAP1 DUP1 DUP3 MSTORE DUP1 PUSH1 0x20 MUL PUSH1 0x20 ADD DUP3 ADD PUSH1 0x40 MSTORE DUP1 ISZERO PUSH2 0xA5D JUMPI DUP2 PUSH1 0x20 ADD PUSH1 0x20 DUP3 MUL DUP1 CALLDATASIZE DUP4 CALLDATACOPY ADD SWAP1 POP JUMPDEST POP SWAP1 POP PUSH0 JUMPDEST DUP3 DUP2 LT ISZERO PUSH2 0xAA9 JUMPI DUP4 DUP2 DUP2 MLOAD DUP2 LT PUSH2 0xA7C JUMPI PUSH2 0xA7C PUSH2 0x2B11 JUMP JUMPDEST PUSH1 0x20 MUL PUSH1 0x20 ADD ADD MLOAD DUP3 DUP3 DUP2 MLOAD DUP2 LT PUSH2 0xA96 JUMPI PUSH2 0xA96 PUSH2 0x2B11 JUMP JUMPDEST PUSH1 0x20 SWAP1 DUP2 MUL SWAP2 SWAP1 SWAP2 ADD ADD MSTORE PUSH1 0x1 ADD PUSH2 0xA62 JUMP JUMPDEST POP SWAP4 SWAP3 POP POP POP JUMP JUMPDEST PUSH0 DUP3 DUP2 MSTORE PUSH1 0x2 PUSH1 0x20 SWAP1 DUP2 MSTORE PUSH1 0x40 DUP1 DUP4 KECCAK256 PUSH1 0x1 PUSH1 0x1 PUSH1 0xA0 SHL SUB DUP6 AND DUP5 MSTORE PUSH1 0xD ADD SWAP1 SWAP2 MSTORE SWAP1 KECCAK256 SLOAD PUSH1 0xFF AND JUMPDEST SWAP3 SWAP2 POP POP JUMP JUMPDEST PUSH0 PUSH2 0xAE9 PUSH2 0x1E52 JUMP JUMPDEST DUP1 SLOAD SWAP1 SWAP2 POP PUSH1 0xFF PUSH1 0x1 PUSH1 0x40 SHL DUP3 DIV AND ISZERO SWAP1 PUSH8 0xFFFFFFFFFFFFFFFF AND PUSH0 DUP2 ISZERO DUP1 ISZERO PUSH2 0xB10 JUMPI POP DUP3 JUMPDEST SWAP1 POP PUSH0 DUP3 PUSH8 0xFFFFFFFFFFFFFFFF AND PUSH1 0x1 EQ DUP1 ISZERO PUSH2 0xB2C JUMPI POP ADDRESS EXTCODESIZE ISZERO JUMPDEST SWAP1 POP DUP2 ISZERO DUP1 ISZERO PUSH2 0xB3A JUMPI POP DUP1 ISZERO JUMPDEST ISZERO PUSH2 0xB58 JUMPI PUSH1 0x40 MLOAD PUSH4 0xF92EE8A9 PUSH1 0xE0 SHL DUP2 MSTORE PUSH1 0x4 ADD PUSH1 0x40 MLOAD DUP1 SWAP2 SUB SWAP1 REVERT JUMPDEST DUP5 SLOAD PUSH8 0xFFFFFFFFFFFFFFFF NOT AND PUSH1 0x1 OR DUP6 SSTORE DUP4 ISZERO PUSH2 0xB82 JUMPI DUP5 SLOAD PUSH1 0xFF PUSH1 0x40 SHL NOT AND PUSH1 0x1 PUSH1 0x40 SHL OR DUP6 SSTORE JUMPDEST PUSH2 0xB8B CALLER PUSH2 0x1E7A JUMP JUMPDEST PUSH2 0xB93 PUSH2 0x1E8B JUMP JUMPDEST PUSH2 0xB9C DUP11 PUSH2 0x1E93 JUMP JUMPDEST PUSH1 0x9 DUP1 SLOAD PUSH1 0x1 PUSH1 0x1 PUSH1 0xA0 SHL SUB NOT SWAP1 DUP2 AND PUSH1 0x1 PUSH1 0x1 PUSH1 0xA0 SHL SUB DUP14 DUP2 AND SWAP2 SWAP1 SWAP2 OR SWAP1 SWAP3 SSTORE PUSH1 0x6 DUP12 SWAP1 SSTORE PUSH1 0x8 DUP11 SWAP1 SSTORE PUSH1 0x7 DUP1 SLOAD PUSH10 0xFFFFFFFFFFFFFFFFFFFF NOT AND PUSH7 0x1000300030D40 OR SWAP1 SSTORE PUSH1 0x4 DUP1 SLOAD DUP3 AND DUP11 DUP5 AND OR SWAP1 SSTORE PUSH1 0x5 DUP1 SLOAD SWAP1 SWAP2 AND SWAP2 DUP9 AND SWAP2 SWAP1 SWAP2 OR SWAP1 SSTORE DUP4 ISZERO PUSH2 0xC46 JUMPI DUP5 SLOAD PUSH1 0xFF PUSH1 0x40 SHL NOT AND DUP6 SSTORE PUSH1 0x40 MLOAD PUSH1 0x1 DUP2 MSTORE PUSH32 0xC7F505B2F371AE2175EE4913F4499E1F2633A7B5936321EED1CDAEB6115181D2 SWAP1 PUSH1 0x20 ADD PUSH1 0x40 MLOAD DUP1 SWAP2 SUB SWAP1 LOG1 JUMPDEST POP POP POP POP POP POP POP POP POP POP JUMP JUMPDEST PUSH1 0x1 SLOAD PUSH1 0x1 PUSH1 0x1 PUSH1 0xA0 SHL SUB AND CALLER EQ PUSH2 0xC97 JUMPI PUSH1 0x1 SLOAD PUSH1 0x40 MLOAD PUSH4 0x73E64FD PUSH1 0xE2 SHL DUP2 MSTORE CALLER PUSH1 0x4 DUP3 ADD MSTORE PUSH1 0x1 PUSH1 0x1 PUSH1 0xA0 SHL SUB SWAP1 SWAP2 AND PUSH1 0x24 DUP3 ADD MSTORE PUSH1 0x44 ADD JUMPDEST PUSH1 0x40 MLOAD DUP1 SWAP2 SUB SWAP1 REVERT JUMPDEST PUSH2 0xCA1 DUP3 DUP3 PUSH2 0x1EBD JUMP JUMPDEST POP POP JUMP JUMPDEST PUSH2 0xCAD PUSH2 0x20ED JUMP JUMPDEST PUSH0 DUP3 DUP2 MSTORE PUSH1 0x2 PUSH1 0x20 SWAP1 DUP2 MSTORE PUSH1 0x40 DUP1 DUP4 KECCAK256 DUP5 DUP5 MSTORE DUP2 DUP5 KECCAK256 CALLER DUP6 MSTORE PUSH1 0xC DUP3 ADD SWAP1 SWAP4 MSTORE SWAP3 KECCAK256 SLOAD PUSH2 0xD09 JUMPI PUSH1 0x40 MLOAD PUSH3 0x461BCD PUSH1 0xE5 SHL DUP2 MSTORE PUSH1 0x20 PUSH1 0x4 DUP3 ADD MSTORE PUSH1 0xA PUSH1 0x24 DUP3 ADD MSTORE PUSH10 0x139BDD081A5B881BDB19 PUSH1 0xB2 SHL PUSH1 0x44 DUP3 ADD MSTORE PUSH1 0x64 ADD PUSH2 0xC8E JUMP JUMPDEST CALLER PUSH0 SWAP1 DUP2 MSTORE PUSH1 0xE DUP4 ADD PUSH1 0x20 MSTORE PUSH1 0x40 SWAP1 KECCAK256 SLOAD PUSH1 0xFF AND ISZERO PUSH2 0xD5D JUMPI PUSH1 0x40 MLOAD PUSH3 0x461BCD PUSH1 0xE5 SHL DUP2 MSTORE PUSH1 0x20 PUSH1 0x4 DUP3 ADD MSTORE PUSH1 0x10 PUSH1 0x24 DUP3 ADD MSTORE PUSH16 0x526566756E64656420616C7265616479 PUSH1 0x80 SHL PUSH1 0x44 DUP3 ADD MSTORE PUSH1 0x64 ADD PUSH2 0xC8E JUMP JUMPDEST PUSH1 0x8 DUP3 ADD SLOAD PUSH3 0x10000 SWAP1 DIV PUSH1 0xFF AND DUP1 PUSH2 0xD97 JUMPI POP PUSH1 0x8 DUP3 ADD SLOAD PUSH2 0x100 SWAP1 DIV PUSH1 0xFF AND DUP1 ISZERO PUSH2 0xD97 JUMPI POP PUSH1 0xA DUP3 ADD SLOAD PUSH1 0x1 PUSH1 0x1 PUSH1 0xA0 SHL SUB AND CALLER EQ ISZERO JUMPDEST PUSH2 0xDD6 JUMPI PUSH1 0x40 MLOAD PUSH3 0x461BCD PUSH1 0xE5 SHL DUP2 MSTORE PUSH1 0x20 PUSH1 0x4 DUP3 ADD MSTORE PUSH1 0x10 PUSH1 0x24 DUP3 ADD MSTORE PUSH16 0x4F6C64206E6F7420656C696769626C65 PUSH1 0x80 SHL PUSH1 0x44 DUP3 ADD MSTORE PUSH1 0x64 ADD PUSH2 0xC8E JUMP JUMPDEST PUSH1 0x8 DUP2 ADD SLOAD PUSH1 0xFF AND DUP1 ISZERO PUSH2 0xDF5 JUMPI POP PUSH1 0x8 DUP2 ADD SLOAD PUSH3 0x10000 SWAP1 DIV PUSH1 0xFF AND ISZERO JUMPDEST PUSH2 0xE38 JUMPI PUSH1 0x40 MLOAD PUSH3 0x461BCD PUSH1 0xE5 SHL DUP2 MSTORE PUSH1 0x20 PUSH1 0x4 DUP3 ADD MSTORE PUSH1 0x14 PUSH1 0x24 DUP3 ADD MSTORE PUSH20 0x4E6577206C6F747465727920696E616374697665 PUSH1 0x60 SHL PUSH1 0x44 DUP3 ADD MSTORE PUSH1 0x64 ADD PUSH2 0xC8E JUMP JUMPDEST DUP1 PUSH1 0x4 ADD SLOAD TIMESTAMP LT PUSH2 0xE7E JUMPI PUSH1 0x40 MLOAD PUSH3 0x461BCD PUSH1 0xE5 SHL DUP2 MSTORE PUSH1 0x20 PUSH1 0x4 DUP3 ADD MSTORE PUSH1 0x10 PUSH1 0x24 DUP3 ADD MSTORE PUSH16 0x546F6F206C61746520666F72206E6577 PUSH1 0x80 SHL PUSH1 0x44 DUP3 ADD MSTORE PUSH1 0x64 ADD PUSH2 0xC8E JUMP JUMPDEST CALLER PUSH0 SWAP1 DUP2 MSTORE PUSH1 0xE DUP4 ADD PUSH1 0x20 MSTORE PUSH1 0x40 DUP2 KECCAK256 DUP1 SLOAD PUSH1 0xFF NOT AND PUSH1 0x1 SWAP1 DUP2 OR SWAP1 SWAP2 SSTORE PUSH1 0x2 DUP4 ADD SLOAD SWAP1 DUP4 ADD SLOAD PUSH2 0xEAF SWAP2 SWAP1 PUSH2 0x2B51 JUMP JUMPDEST DUP3 SLOAD PUSH1 0x40 MLOAD PUSH4 0x23B872DD PUSH1 0xE0 SHL DUP2 MSTORE CALLER PUSH1 0x4 DUP3 ADD MSTORE ADDRESS PUSH1 0x24 DUP3 ADD MSTORE PUSH1 0x44 DUP2 ADD DUP4 SWAP1 MSTORE SWAP2 SWAP3 POP PUSH1 0x1 PUSH1 0x1 PUSH1 0xA0 SHL SUB AND SWAP1 PUSH4 0x23B872DD SWAP1 PUSH1 0x64 ADD PUSH1 0x20 PUSH1 0x40 MLOAD DUP1 DUP4 SUB DUP2 PUSH0 DUP8 GAS CALL ISZERO DUP1 ISZERO PUSH2 0xF03 JUMPI RETURNDATASIZE PUSH0 PUSH0 RETURNDATACOPY RETURNDATASIZE PUSH0 REVERT JUMPDEST POP POP POP POP PUSH1 0x40 MLOAD RETURNDATASIZE PUSH1 0x1F NOT PUSH1 0x1F DUP3 ADD AND DUP3 ADD DUP1 PUSH1 0x40 MSTORE POP DUP2 ADD SWAP1 PUSH2 0xF27 SWAP2 SWAP1 PUSH2 0x2B64 JUMP JUMPDEST POP PUSH1 0x9 DUP3 ADD DUP1 SLOAD PUSH1 0x1 DUP2 ADD DUP3 SSTORE PUSH0 SWAP2 DUP3 MSTORE PUSH1 0x20 DUP1 DUP4 KECCAK256 SWAP1 SWAP2 ADD DUP1 SLOAD PUSH1 0x1 PUSH1 0x1 PUSH1 0xA0 SHL SUB NOT AND CALLER SWAP1 DUP2 OR SWAP1 SWAP2 SSTORE DUP3 MSTORE PUSH1 0xC DUP5 ADD SWAP1 MSTORE PUSH1 0x40 DUP2 KECCAK256 DUP1 SLOAD SWAP2 PUSH2 0xF6B DUP4 PUSH2 0x2B39 JUMP JUMPDEST SWAP1 SWAP2 SSTORE POP POP PUSH1 0x40 DUP1 MLOAD DUP6 DUP2 MSTORE CALLER PUSH1 0x20 DUP3 ADD MSTORE PUSH32 0x1E28857182A3B2BB6FBB88287D1BA8CC3A941DD65D4C977286676D27B877A3D9 SWAP2 ADD PUSH1 0x40 MLOAD DUP1 SWAP2 SUB SWAP1 LOG1 POP POP POP PUSH2 0xCA1 PUSH1 0x1 PUSH0 SSTORE JUMP JUMPDEST PUSH2 0xFBC PUSH2 0x20ED JUMP JUMPDEST PUSH0 DUP2 DUP2 MSTORE PUSH1 0x2 PUSH1 0x20 MSTORE PUSH1 0x40 SWAP1 KECCAK256 PUSH1 0x8 DUP2 ADD SLOAD PUSH1 0xFF AND DUP1 ISZERO PUSH2 0xFE8 JUMPI POP PUSH1 0x8 DUP2 ADD SLOAD PUSH3 0x10000 SWAP1 DIV PUSH1 0xFF AND ISZERO JUMPDEST PUSH2 0x102C JUMPI PUSH1 0x40 MLOAD PUSH3 0x461BCD PUSH1 0xE5 SHL DUP2 MSTORE PUSH1 0x20 PUSH1 0x4 DUP3 ADD MSTORE PUSH1 0x15 PUSH1 0x24 DUP3 ADD MSTORE PUSH21 0x125B9858DD1A5D99481BDC8818D85B98D95B1B1959 PUSH1 0x5A SHL PUSH1 0x44 DUP3 ADD MSTORE PUSH1 0x64 ADD PUSH2 0xC8E JUMP JUMPDEST DUP1 PUSH1 0x4 ADD SLOAD TIMESTAMP LT PUSH2 0x106A JUMPI PUSH1 0x40 MLOAD PUSH3 0x461BCD PUSH1 0xE5 SHL DUP2 MSTORE PUSH1 0x20 PUSH1 0x4 DUP3 ADD MSTORE PUSH1 0x8 PUSH1 0x24 DUP3 ADD MSTORE PUSH8 0x546F6F206C617465 PUSH1 0xC0 SHL PUSH1 0x44 DUP3 ADD MSTORE PUSH1 0x64 ADD PUSH2 0xC8E JUMP JUMPDEST PUSH1 0x3 DUP2 ADD SLOAD PUSH1 0x9 DUP3 ADD SLOAD LT PUSH2 0x10B4 JUMPI PUSH1 0x40 MLOAD PUSH3 0x461BCD PUSH1 0xE5 SHL DUP2 MSTORE PUSH1 0x20 PUSH1 0x4 DUP3 ADD MSTORE PUSH1 0x10 PUSH1 0x24 DUP3 ADD MSTORE PUSH16 0x4D6178207061727469636970616E7473 PUSH1 0x80 SHL PUSH1 0x44 DUP3 ADD MSTORE PUSH1 0x64 ADD PUSH2 0xC8E JUMP JUMPDEST DUP1 SLOAD PUSH1 0x1 DUP3 ADD SLOAD PUSH1 0x40 MLOAD PUSH4 0x23B872DD PUSH1 0xE0 SHL DUP2 MSTORE CALLER PUSH1 0x4 DUP3 ADD MSTORE ADDRESS PUSH1 0x24 DUP3 ADD MSTORE PUSH1 0x44 DUP2 ADD SWAP2 SWAP1 SWAP2 MSTORE PUSH1 0x1 PUSH1 0x1 PUSH1 0xA0 SHL SUB SWAP1 SWAP2 AND SWAP1 PUSH4 0x23B872DD SWAP1 PUSH1 0x64 ADD PUSH1 0x20 PUSH1 0x40 MLOAD DUP1 DUP4 SUB DUP2 PUSH0 DUP8 GAS CALL ISZERO DUP1 ISZERO PUSH2 0x110D JUMPI RETURNDATASIZE PUSH0 PUSH0 RETURNDATACOPY RETURNDATASIZE PUSH0 REVERT JUMPDEST POP POP POP POP PUSH1 0x40 MLOAD RETURNDATASIZE PUSH1 0x1F NOT PUSH1 0x1F DUP3 ADD AND DUP3 ADD DUP1 PUSH1 0x40 MSTORE POP DUP2 ADD SWAP1 PUSH2 0x1131 SWAP2 SWAP1 PUSH2 0x2B64 JUMP JUMPDEST POP PUSH1 0x9 DUP2 ADD DUP1 SLOAD PUSH1 0x1 DUP2 ADD DUP3 SSTORE PUSH0 SWAP2 DUP3 MSTORE PUSH1 0x20 DUP1 DUP4 KECCAK256 SWAP1 SWAP2 ADD DUP1 SLOAD PUSH1 0x1 PUSH1 0x1 PUSH1 0xA0 SHL SUB NOT AND CALLER SWAP1 DUP2 OR SWAP1 SWAP2 SSTORE DUP3 MSTORE PUSH1 0xC DUP4 ADD SWAP1 MSTORE PUSH1 0x40 DUP2 KECCAK256 DUP1 SLOAD SWAP2 PUSH2 0x1175 DUP4 PUSH2 0x2B39 JUMP JUMPDEST SWAP1 SWAP2 SSTORE POP POP PUSH1 0x40 DUP1 MLOAD DUP4 DUP2 MSTORE CALLER PUSH1 0x20 DUP3 ADD MSTORE PUSH32 0x1E28857182A3B2BB6FBB88287D1BA8CC3A941DD65D4C977286676D27B877A3D9 SWAP2 ADD PUSH1 0x40 MLOAD DUP1 SWAP2 SUB SWAP1 LOG1 POP PUSH2 0x11BC PUSH1 0x1 PUSH0 SSTORE JUMP JUMPDEST POP JUMP JUMPDEST PUSH2 0x11C7 PUSH2 0x2144 JUMP JUMPDEST DUP6 DUP8 LT ISZERO PUSH2 0x1207 JUMPI PUSH1 0x40 MLOAD PUSH3 0x461BCD PUSH1 0xE5 SHL DUP2 MSTORE PUSH1 0x20 PUSH1 0x4 DUP3 ADD MSTORE PUSH1 0xD PUSH1 0x24 DUP3 ADD MSTORE PUSH13 0x526566756E64203C3D20666565 PUSH1 0x98 SHL PUSH1 0x44 DUP3 ADD MSTORE PUSH1 0x64 ADD PUSH2 0xC8E JUMP JUMPDEST TIMESTAMP DUP5 GT PUSH2 0x124A JUMPI PUSH1 0x40 MLOAD PUSH3 0x461BCD PUSH1 0xE5 SHL DUP2 MSTORE PUSH1 0x20 PUSH1 0x4 DUP3 ADD MSTORE PUSH1 0x11 PUSH1 0x24 DUP3 ADD MSTORE PUSH17 0x496E76616C696420647261772074696D65 PUSH1 0x78 SHL PUSH1 0x44 DUP3 ADD MSTORE PUSH1 0x64 ADD PUSH2 0xC8E JUMP JUMPDEST PUSH1 0x3 DUP1 SLOAD SWAP1 PUSH0 PUSH2 0x1259 DUP4 PUSH2 0x2B39 JUMP JUMPDEST SWAP1 SWAP2 SSTORE POP POP PUSH1 0x3 DUP1 SLOAD PUSH0 SWAP1 DUP2 MSTORE PUSH1 0x2 PUSH1 0x20 DUP2 DUP2 MSTORE PUSH1 0x40 DUP1 DUP5 KECCAK256 DUP1 SLOAD PUSH1 0x1 PUSH1 0x1 PUSH1 0xA0 SHL SUB NOT AND PUSH1 0x1 PUSH1 0x1 PUSH1 0xA0 SHL SUB DUP16 AND OR DUP2 SSTORE PUSH1 0x1 DUP1 DUP3 ADD DUP15 SWAP1 SSTORE SWAP4 DUP2 ADD DUP13 SWAP1 SSTORE DUP1 DUP7 ADD DUP12 SWAP1 SSTORE PUSH1 0x4 DUP2 ADD DUP11 SWAP1 SSTORE PUSH1 0x5 DUP2 ADD DUP10 SWAP1 SSTORE PUSH1 0x6 DUP2 ADD DUP9 SWAP1 SSTORE PUSH1 0x7 DUP2 ADD DUP8 SWAP1 SSTORE PUSH1 0x8 DUP2 ADD DUP1 SLOAD PUSH1 0xFF NOT AND DUP6 OR SWAP1 SSTORE SWAP5 SLOAD PUSH1 0xA DUP1 SLOAD SWAP5 DUP6 ADD DUP2 SSTORE SWAP1 SWAP5 MSTORE PUSH32 0xC65A7BB8D6351C1CF70C95A316CC6A92839C986682D98BC35F958F4883F9D2A8 SWAP1 SWAP3 ADD DUP4 SWAP1 SSTORE SWAP1 MLOAD SWAP2 DUP3 MSTORE PUSH32 0x9E0023BEBCC752BAAA41057318405B5A6A8E9C6372B519717CFDF238E5CAA795 SWAP2 ADD PUSH1 0x40 MLOAD DUP1 SWAP2 SUB SWAP1 LOG1 POP POP POP POP POP POP POP POP POP JUMP JUMPDEST PUSH2 0x1341 PUSH2 0x2144 JUMP JUMPDEST PUSH0 DUP2 DUP2 MSTORE PUSH1 0x2 PUSH1 0x20 MSTORE PUSH1 0x40 SWAP1 KECCAK256 PUSH1 0x8 DUP2 ADD SLOAD PUSH3 0x10000 SWAP1 DIV PUSH1 0xFF AND ISZERO DUP1 ISZERO PUSH2 0x1373 JUMPI POP PUSH1 0x8 DUP2 ADD SLOAD PUSH2 0x100 SWAP1 DIV PUSH1 0xFF AND ISZERO JUMPDEST PUSH2 0x13B3 JUMPI PUSH1 0x40 MLOAD PUSH3 0x461BCD PUSH1 0xE5 SHL DUP2 MSTORE PUSH1 0x20 PUSH1 0x4 DUP3 ADD MSTORE PUSH1 0x11 PUSH1 0x24 DUP3 ADD MSTORE PUSH17 0x105B1C9958591E48199A5B985B1A5E9959 PUSH1 0x7A SHL PUSH1 0x44 DUP3 ADD MSTORE PUSH1 0x64 ADD PUSH2 0xC8E JUMP JUMPDEST PUSH1 0x8 DUP2 ADD DUP1 SLOAD PUSH3 0xFF0000 NOT AND PUSH3 0x10000 OR SWAP1 SSTORE PUSH1 0x40 MLOAD PUSH32 0xC3DAC690CF4C3AE8964F18B8F09F7F9A75D3962A8CBB7CD689DF2C291BB5B2DD SWAP1 PUSH2 0x13F8 SWAP1 DUP5 DUP2 MSTORE PUSH1 0x20 ADD SWAP1 JUMP JUMPDEST PUSH1 0x40 MLOAD DUP1 SWAP2 SUB SWAP1 LOG1 POP POP JUMP JUMPDEST PUSH2 0x140C PUSH2 0x219F JUMP JUMPDEST PUSH2 0x1415 DUP3 PUSH2 0x2243 JUMP JUMPDEST PUSH2 0xCA1 DUP3 DUP3 PUSH2 0x224B JUMP JUMPDEST PUSH0 PUSH2 0x1428 PUSH2 0x230C JUMP JUMPDEST POP PUSH0 MLOAD PUSH1 0x20 PUSH2 0x2C43 PUSH0 CODECOPY PUSH0 MLOAD SWAP1 PUSH0 MSTORE SWAP1 JUMP JUMPDEST PUSH2 0x1442 PUSH2 0x20ED JUMP JUMPDEST PUSH0 DUP2 DUP2 MSTORE PUSH1 0x2 PUSH1 0x20 MSTORE PUSH1 0x40 SWAP1 KECCAK256 PUSH1 0x8 DUP2 ADD SLOAD PUSH3 0x10000 SWAP1 DIV PUSH1 0xFF AND DUP1 PUSH2 0x1489 JUMPI POP PUSH1 0x8 DUP2 ADD SLOAD PUSH2 0x100 SWAP1 DIV PUSH1 0xFF AND DUP1 ISZERO PUSH2 0x1489 JUMPI POP PUSH1 0xA DUP2 ADD SLOAD PUSH1 0x1 PUSH1 0x1 PUSH1 0xA0 SHL SUB AND CALLER EQ ISZERO JUMPDEST PUSH2 0x14C4 JUMPI PUSH1 0x40 MLOAD PUSH3 0x461BCD PUSH1 0xE5 SHL DUP2 MSTORE PUSH1 0x20 PUSH1 0x4 DUP3 ADD MSTORE PUSH1 0xC PUSH1 0x24 DUP3 ADD MSTORE PUSH12 0x4E6F7420656C696769626C65 PUSH1 0xA0 SHL PUSH1 0x44 DUP3 ADD MSTORE PUSH1 0x64 ADD PUSH2 0xC8E JUMP JUMPDEST CALLER PUSH0 SWAP1 DUP2 MSTORE PUSH1 0xE DUP3 ADD PUSH1 0x20 MSTORE PUSH1 0x40 SWAP1 KECCAK256 SLOAD PUSH1 0xFF AND ISZERO PUSH2 0x1518 JUMPI PUSH1 0x40 MLOAD PUSH3 0x461BCD PUSH1 0xE5 SHL DUP2 MSTORE PUSH1 0x20 PUSH1 0x4 DUP3 ADD MSTORE PUSH1 0x10 PUSH1 0x24 DUP3 ADD MSTORE PUSH16 0x105B1C9958591E481C99599D5B991959 PUSH1 0x82 SHL PUSH1 0x44 DUP3 ADD MSTORE PUSH1 0x64 ADD PUSH2 0xC8E JUMP JUMPDEST CALLER PUSH0 SWAP1 DUP2 MSTORE PUSH1 0xC DUP3 ADD PUSH1 0x20 MSTORE PUSH1 0x40 SWAP1 KECCAK256 SLOAD PUSH2 0x1562 JUMPI PUSH1 0x40 MLOAD PUSH3 0x461BCD PUSH1 0xE5 SHL DUP2 MSTORE PUSH1 0x20 PUSH1 0x4 DUP3 ADD MSTORE PUSH1 0xA PUSH1 0x24 DUP3 ADD MSTORE PUSH10 0x4E6F20656E7472696573 PUSH1 0xB0 SHL PUSH1 0x44 DUP3 ADD MSTORE PUSH1 0x64 ADD PUSH2 0xC8E JUMP JUMPDEST CALLER PUSH0 SWAP1 DUP2 MSTORE PUSH1 0xE DUP3 ADD PUSH1 0x20 SWAP1 DUP2 MSTORE PUSH1 0x40 DUP1 DUP4 KECCAK256 DUP1 SLOAD PUSH1 0xFF NOT AND PUSH1 0x1 OR SWAP1 SSTORE PUSH1 0xC DUP5 ADD SWAP1 SWAP2 MSTORE DUP2 KECCAK256 SLOAD PUSH1 0x2 DUP4 ADD SLOAD PUSH2 0x1599 SWAP2 SWAP1 PUSH2 0x2B83 JUMP JUMPDEST DUP3 SLOAD PUSH1 0x40 MLOAD PUSH4 0xA9059CBB PUSH1 0xE0 SHL DUP2 MSTORE CALLER PUSH1 0x4 DUP3 ADD MSTORE PUSH1 0x24 DUP2 ADD DUP4 SWAP1 MSTORE SWAP2 SWAP3 POP PUSH1 0x1 PUSH1 0x1 PUSH1 0xA0 SHL SUB AND SWAP1 PUSH4 0xA9059CBB SWAP1 PUSH1 0x44 ADD PUSH1 0x20 PUSH1 0x40 MLOAD DUP1 DUP4 SUB DUP2 PUSH0 DUP8 GAS CALL ISZERO DUP1 ISZERO PUSH2 0x15E7 JUMPI RETURNDATASIZE PUSH0 PUSH0 RETURNDATACOPY RETURNDATASIZE PUSH0 REVERT JUMPDEST POP POP POP POP PUSH1 0x40 MLOAD RETURNDATASIZE PUSH1 0x1F NOT PUSH1 0x1F DUP3 ADD AND DUP3 ADD DUP1 PUSH1 0x40 MSTORE POP DUP2 ADD SWAP1 PUSH2 0x160B SWAP2 SWAP1 PUSH2 0x2B64 JUMP JUMPDEST POP POP POP PUSH2 0x11BC PUSH1 0x1 PUSH0 SSTORE JUMP JUMPDEST PUSH2 0x161F PUSH2 0x2144 JUMP JUMPDEST PUSH0 DUP2 DUP2 MSTORE PUSH1 0x2 PUSH1 0x20 MSTORE PUSH1 0x40 SWAP1 KECCAK256 PUSH1 0x4 DUP2 ADD SLOAD TIMESTAMP LT ISZERO PUSH2 0x166C JUMPI PUSH1 0x40 MLOAD PUSH3 0x461BCD PUSH1 0xE5 SHL DUP2 MSTORE PUSH1 0x20 PUSH1 0x4 DUP3 ADD MSTORE PUSH1 0x9 PUSH1 0x24 DUP3 ADD MSTORE PUSH9 0x546F6F206561726C79 PUSH1 0xB8 SHL PUSH1 0x44 DUP3 ADD MSTORE PUSH1 0x64 ADD PUSH2 0xC8E JUMP JUMPDEST PUSH1 0x8 DUP2 ADD SLOAD PUSH2 0x100 SWAP1 DIV PUSH1 0xFF AND ISZERO DUP1 ISZERO PUSH2 0x1691 JUMPI POP PUSH1 0x8 DUP2 ADD SLOAD PUSH3 0x10000 SWAP1 DIV PUSH1 0xFF AND ISZERO JUMPDEST PUSH2 0x16DD JUMPI PUSH1 0x40 MLOAD PUSH3 0x461BCD PUSH1 0xE5 SHL DUP2 MSTORE PUSH1 0x20 PUSH1 0x4 DUP3 ADD MSTORE PUSH1 0x1A PUSH1 0x24 DUP3 ADD MSTORE PUSH32 0x416C726561647920647261776E206F722063616E63656C6C6564000000000000 PUSH1 0x44 DUP3 ADD MSTORE PUSH1 0x64 ADD PUSH2 0xC8E JUMP JUMPDEST PUSH1 0x9 DUP2 ADD SLOAD PUSH2 0x1720 JUMPI PUSH1 0x40 MLOAD PUSH3 0x461BCD PUSH1 0xE5 SHL DUP2 MSTORE PUSH1 0x20 PUSH1 0x4 DUP3 ADD MSTORE PUSH1 0xF PUSH1 0x24 DUP3 ADD MSTORE PUSH15 0x4E6F207061727469636970616E7473 PUSH1 0x88 SHL PUSH1 0x44 DUP3 ADD MSTORE PUSH1 0x64 ADD PUSH2 0xC8E JUMP JUMPDEST PUSH1 0x9 SLOAD PUSH1 0x40 DUP1 MLOAD PUSH1 0xC0 DUP2 ADD DUP3 MSTORE PUSH1 0x6 SLOAD DUP2 MSTORE PUSH1 0x8 SLOAD PUSH1 0x20 DUP1 DUP4 ADD SWAP2 SWAP1 SWAP2 MSTORE PUSH1 0x7 SLOAD PUSH2 0xFFFF PUSH5 0x100000000 DUP3 DIV AND DUP4 DUP6 ADD MSTORE PUSH4 0xFFFFFFFF DUP1 DUP3 AND PUSH1 0x60 DUP6 ADD MSTORE PUSH7 0x1000000000000 SWAP1 SWAP2 DIV AND PUSH1 0x80 DUP4 ADD MSTORE DUP3 MLOAD SWAP1 DUP2 ADD SWAP1 SWAP3 MSTORE PUSH0 DUP1 DUP4 MSTORE SWAP3 PUSH1 0x1 PUSH1 0x1 PUSH1 0xA0 SHL SUB AND SWAP2 PUSH4 0x9B1C385E SWAP2 SWAP1 PUSH1 0xA0 DUP3 ADD SWAP1 PUSH2 0x179B SWAP1 PUSH2 0x2355 JUMP JUMPDEST DUP2 MSTORE POP PUSH1 0x40 MLOAD DUP3 PUSH4 0xFFFFFFFF AND PUSH1 0xE0 SHL DUP2 MSTORE PUSH1 0x4 ADD PUSH2 0x17BA SWAP2 SWAP1 PUSH2 0x2B9A JUMP JUMPDEST PUSH1 0x20 PUSH1 0x40 MLOAD DUP1 DUP4 SUB DUP2 PUSH0 DUP8 GAS CALL ISZERO DUP1 ISZERO PUSH2 0x17D6 JUMPI RETURNDATASIZE PUSH0 PUSH0 RETURNDATACOPY RETURNDATASIZE PUSH0 REVERT JUMPDEST POP POP POP POP PUSH1 0x40 MLOAD RETURNDATASIZE PUSH1 0x1F NOT PUSH1 0x1F DUP3 ADD AND DUP3 ADD DUP1 PUSH1 0x40 MSTORE POP DUP2 ADD SWAP1 PUSH2 0x17FA SWAP2 SWAP1 PUSH2 0x2BF6 JUMP JUMPDEST PUSH0 DUP2 DUP2 MSTORE PUSH1 0xB PUSH1 0x20 MSTORE PUSH1 0x40 SWAP1 DUP2 SWAP1 KECCAK256 DUP6 SWAP1 SSTORE PUSH1 0x8 DUP5 ADD DUP1 SLOAD PUSH2 0xFF00 NOT AND PUSH2 0x100 OR SWAP1 SSTORE MLOAD SWAP1 SWAP2 POP PUSH32 0x600253EAE67A5C51C82A7123372E8644F16009C6304E18F844CF86FDC40C24D7 SWAP1 PUSH2 0x1859 SWAP1 DUP6 SWAP1 DUP5 SWAP1 SWAP2 DUP3 MSTORE PUSH1 0x20 DUP3 ADD MSTORE PUSH1 0x40 ADD SWAP1 JUMP JUMPDEST PUSH1 0x40 MLOAD DUP1 SWAP2 SUB SWAP1 LOG1 POP POP POP JUMP JUMPDEST PUSH1 0x60 PUSH1 0xA DUP1 SLOAD DUP1 PUSH1 0x20 MUL PUSH1 0x20 ADD PUSH1 0x40 MLOAD SWAP1 DUP2 ADD PUSH1 0x40 MSTORE DUP1 SWAP3 SWAP2 SWAP1 DUP2 DUP2 MSTORE PUSH1 0x20 ADD DUP3 DUP1 SLOAD DUP1 ISZERO PUSH2 0x18B2 JUMPI PUSH1 0x20 MUL DUP3 ADD SWAP2 SWAP1 PUSH0 MSTORE PUSH1 0x20 PUSH0 KECCAK256 SWAP1 JUMPDEST DUP2 SLOAD DUP2 MSTORE PUSH1 0x20 ADD SWAP1 PUSH1 0x1 ADD SWAP1 DUP1 DUP4 GT PUSH2 0x189E JUMPI JUMPDEST POP POP POP POP POP SWAP1 POP SWAP1 JUMP JUMPDEST PUSH2 0x18C4 PUSH2 0x2144 JUMP JUMPDEST PUSH2 0x18CD PUSH0 PUSH2 0x23C6 JUMP JUMPDEST JUMP JUMPDEST PUSH2 0x194C PUSH1 0x40 MLOAD DUP1 PUSH2 0x1C0 ADD PUSH1 0x40 MSTORE DUP1 PUSH0 PUSH1 0x1 PUSH1 0x1 PUSH1 0xA0 SHL SUB AND DUP2 MSTORE PUSH1 0x20 ADD PUSH0 DUP2 MSTORE PUSH1 0x20 ADD PUSH0 DUP2 MSTORE PUSH1 0x20 ADD PUSH0 DUP2 MSTORE PUSH1 0x20 ADD PUSH0 DUP2 MSTORE PUSH1 0x20 ADD PUSH0 DUP2 MSTORE PUSH1 0x20 ADD PUSH0 DUP2 MSTORE PUSH1 0x20 ADD PUSH0 DUP2 MSTORE PUSH1 0x20 ADD PUSH0 ISZERO ISZERO DUP2 MSTORE PUSH1 0x20 ADD PUSH0 ISZERO ISZERO DUP2 MSTORE PUSH1 0x20 ADD PUSH0 ISZERO ISZERO DUP2 MSTORE PUSH1 0x20 ADD PUSH0 PUSH1 0x1 PUSH1 0x1 PUSH1 0xA0 SHL SUB AND DUP2 MSTORE PUSH1 0x20 ADD PUSH0 DUP2 MSTORE PUSH1 0x20 ADD PUSH1 0x60 DUP2 MSTORE POP SWAP1 JUMP JUMPDEST PUSH0 DUP3 DUP2 MSTORE PUSH1 0x2 PUSH1 0x20 DUP2 DUP2 MSTORE PUSH1 0x40 SWAP3 DUP4 SWAP1 KECCAK256 DUP4 MLOAD PUSH2 0x1C0 DUP2 ADD DUP6 MSTORE DUP2 SLOAD PUSH1 0x1 PUSH1 0x1 PUSH1 0xA0 SHL SUB SWAP1 DUP2 AND DUP3 MSTORE PUSH1 0x1 DUP4 ADD SLOAD DUP3 DUP6 ADD MSTORE SWAP4 DUP3 ADD SLOAD DUP2 DUP7 ADD MSTORE PUSH1 0x3 DUP3 ADD SLOAD PUSH1 0x60 DUP3 ADD MSTORE PUSH1 0x4 DUP3 ADD SLOAD PUSH1 0x80 DUP3 ADD MSTORE PUSH1 0x5 DUP3 ADD SLOAD PUSH1 0xA0 DUP3 ADD MSTORE PUSH1 0x6 DUP3 ADD SLOAD PUSH1 0xC0 DUP3 ADD MSTORE PUSH1 0x7 DUP3 ADD SLOAD PUSH1 0xE0 DUP3 ADD MSTORE PUSH1 0x8 DUP3 ADD SLOAD PUSH1 0xFF DUP1 DUP3 AND ISZERO ISZERO PUSH2 0x100 DUP1 DUP6 ADD SWAP2 SWAP1 SWAP2 MSTORE DUP3 DIV DUP2 AND ISZERO ISZERO PUSH2 0x120 DUP5 ADD MSTORE PUSH3 0x10000 SWAP1 SWAP2 DIV AND ISZERO ISZERO PUSH2 0x140 DUP3 ADD MSTORE PUSH1 0xA DUP3 ADD SLOAD SWAP1 SWAP4 AND PUSH2 0x160 DUP5 ADD MSTORE PUSH1 0xB DUP2 ADD SLOAD PUSH2 0x180 DUP5 ADD MSTORE PUSH1 0x9 DUP2 ADD DUP1 SLOAD DUP6 MLOAD DUP2 DUP6 MUL DUP2 ADD DUP6 ADD SWAP1 SWAP7 MSTORE DUP1 DUP7 MSTORE SWAP2 SWAP5 PUSH2 0x1A0 DUP6 ADD SWAP4 SWAP1 SWAP3 SWAP1 DUP4 ADD DUP3 DUP3 DUP1 ISZERO PUSH2 0x1A5A JUMPI PUSH1 0x20 MUL DUP3 ADD SWAP2 SWAP1 PUSH0 MSTORE PUSH1 0x20 PUSH0 KECCAK256 SWAP1 JUMPDEST DUP2 SLOAD PUSH1 0x1 PUSH1 0x1 PUSH1 0xA0 SHL SUB AND DUP2 MSTORE PUSH1 0x1 SWAP1 SWAP2 ADD SWAP1 PUSH1 0x20 ADD DUP1 DUP4 GT PUSH2 0x1A3C JUMPI JUMPDEST POP POP POP POP POP DUP2 MSTORE POP SWAP2 POP POP SWAP2 SWAP1 POP JUMP JUMPDEST PUSH0 DUP2 DUP2 MSTORE PUSH1 0x2 PUSH1 0x20 SWAP1 DUP2 MSTORE PUSH1 0x40 DUP1 DUP4 KECCAK256 CALLER DUP5 MSTORE PUSH1 0xF DUP2 ADD SWAP1 SWAP3 MSTORE SWAP1 SWAP2 KECCAK256 SLOAD PUSH1 0xFF AND ISZERO PUSH2 0x1AC8 JUMPI PUSH1 0x40 MLOAD PUSH3 0x461BCD PUSH1 0xE5 SHL DUP2 MSTORE PUSH1 0x20 PUSH1 0x4 DUP3 ADD MSTORE PUSH1 0xD PUSH1 0x24 DUP3 ADD MSTORE PUSH13 0x105B1C9958591E481D9BDD1959 PUSH1 0x9A SHL PUSH1 0x44 DUP3 ADD MSTORE PUSH1 0x64 ADD PUSH2 0xC8E JUMP JUMPDEST CALLER PUSH0 SWAP1 DUP2 MSTORE PUSH1 0xC DUP3 ADD PUSH1 0x20 MSTORE PUSH1 0x40 SWAP1 KECCAK256 SLOAD PUSH2 0x1B16 JUMPI PUSH1 0x40 MLOAD PUSH3 0x461BCD PUSH1 0xE5 SHL DUP2 MSTORE PUSH1 0x20 PUSH1 0x4 DUP3 ADD MSTORE PUSH1 0xE PUSH1 0x24 DUP3 ADD MSTORE PUSH14 0x4E6F7420696E206C6F7474657279 PUSH1 0x90 SHL PUSH1 0x44 DUP3 ADD MSTORE PUSH1 0x64 ADD PUSH2 0xC8E JUMP JUMPDEST CALLER PUSH0 SWAP1 DUP2 MSTORE PUSH1 0xF DUP3 ADD PUSH1 0x20 MSTORE PUSH1 0x40 DUP2 KECCAK256 DUP1 SLOAD PUSH1 0xFF NOT AND PUSH1 0x1 OR SWAP1 SSTORE PUSH1 0xB DUP3 ADD DUP1 SLOAD SWAP2 PUSH2 0x1B41 DUP4 PUSH2 0x2B39 JUMP JUMPDEST SWAP1 SWAP2 SSTORE POP POP PUSH1 0x9 DUP2 ADD SLOAD PUSH2 0x1B56 SWAP1 PUSH1 0x2 PUSH2 0x2B83 JUMP JUMPDEST PUSH1 0xB DUP3 ADD SLOAD PUSH2 0x1B66 SWAP1 PUSH1 0x3 PUSH2 0x2B83 JUMP JUMPDEST LT PUSH2 0xCA1 JUMPI PUSH1 0x8 DUP2 ADD DUP1 SLOAD PUSH3 0xFF0000 NOT AND PUSH3 0x10000 OR SWAP1 SSTORE PUSH1 0x40 MLOAD PUSH32 0xC3DAC690CF4C3AE8964F18B8F09F7F9A75D3962A8CBB7CD689DF2C291BB5B2DD SWAP1 PUSH2 0x13F8 SWAP1 DUP5 DUP2 MSTORE PUSH1 0x20 ADD SWAP1 JUMP JUMPDEST PUSH2 0x1BB8 PUSH2 0x2144 JUMP JUMPDEST PUSH0 DUP2 DUP2 MSTORE PUSH1 0x2 PUSH1 0x20 DUP2 SWAP1 MSTORE PUSH1 0x40 DUP3 KECCAK256 DUP1 SLOAD PUSH1 0x1 PUSH1 0x1 PUSH1 0xA0 SHL SUB NOT AND DUP2 SSTORE PUSH1 0x1 DUP2 ADD DUP4 SWAP1 SSTORE SWAP1 DUP2 ADD DUP3 SWAP1 SSTORE PUSH1 0x3 DUP2 ADD DUP3 SWAP1 SSTORE PUSH1 0x4 DUP2 ADD DUP3 SWAP1 SSTORE PUSH1 0x5 DUP2 ADD DUP3 SWAP1 SSTORE PUSH1 0x6 DUP2 ADD DUP3 SWAP1 SSTORE PUSH1 0x7 DUP2 ADD DUP3 SWAP1 SSTORE PUSH1 0x8 DUP2 ADD DUP1 SLOAD PUSH3 0xFFFFFF NOT AND SWAP1 SSTORE SWAP1 PUSH2 0x1C21 PUSH1 0x9 DUP4 ADD DUP3 PUSH2 0x264D JUMP JUMPDEST POP PUSH1 0xA DUP2 ADD DUP1 SLOAD PUSH1 0x1 PUSH1 0x1 PUSH1 0xA0 SHL SUB NOT AND SWAP1 SSTORE PUSH0 PUSH1 0xB SWAP1 SWAP2 ADD SSTORE POP JUMP JUMPDEST PUSH0 DUP2 DUP2 MSTORE PUSH1 0x2 PUSH1 0x20 SWAP1 DUP2 MSTORE PUSH1 0x40 SWAP2 DUP3 SWAP1 KECCAK256 PUSH1 0x9 ADD DUP1 SLOAD DUP4 MLOAD DUP2 DUP5 MUL DUP2 ADD DUP5 ADD SWAP1 SWAP5 MSTORE DUP1 DUP5 MSTORE PUSH1 0x60 SWAP4 SWAP3 DUP4 ADD DUP3 DUP3 DUP1 ISZERO PUSH2 0x1C9E JUMPI PUSH1 0x20 MUL DUP3 ADD SWAP2 SWAP1 PUSH0 MSTORE PUSH1 0x20 PUSH0 KECCAK256 SWAP1 JUMPDEST DUP2 SLOAD PUSH1 0x1 PUSH1 0x1 PUSH1 0xA0 SHL SUB AND DUP2 MSTORE PUSH1 0x1 SWAP1 SWAP2 ADD SWAP1 PUSH1 0x20 ADD DUP1 DUP4 GT PUSH2 0x1C80 JUMPI JUMPDEST POP POP POP POP POP SWAP1 POP SWAP2 SWAP1 POP JUMP JUMPDEST PUSH2 0x1CB2 PUSH2 0x20ED JUMP JUMPDEST PUSH0 DUP2 DUP2 MSTORE PUSH1 0x2 PUSH1 0x20 MSTORE PUSH1 0x40 SWAP1 KECCAK256 PUSH1 0xA DUP2 ADD SLOAD PUSH1 0x1 PUSH1 0x1 PUSH1 0xA0 SHL SUB AND CALLER EQ PUSH2 0x1D08 JUMPI PUSH1 0x40 MLOAD PUSH3 0x461BCD PUSH1 0xE5 SHL DUP2 MSTORE PUSH1 0x20 PUSH1 0x4 DUP3 ADD MSTORE PUSH1 0xA PUSH1 0x24 DUP3 ADD MSTORE PUSH10 0x2737BA103BB4B73732B9 PUSH1 0xB1 SHL PUSH1 0x44 DUP3 ADD MSTORE PUSH1 0x64 ADD PUSH2 0xC8E JUMP JUMPDEST CALLER PUSH0 SWAP1 DUP2 MSTORE PUSH1 0xD DUP3 ADD PUSH1 0x20 MSTORE PUSH1 0x40 SWAP1 KECCAK256 SLOAD PUSH1 0xFF AND ISZERO PUSH2 0x1D5B JUMPI PUSH1 0x40 MLOAD PUSH3 0x461BCD PUSH1 0xE5 SHL DUP2 MSTORE PUSH1 0x20 PUSH1 0x4 DUP3 ADD MSTORE PUSH1 0xF PUSH1 0x24 DUP3 ADD MSTORE PUSH15 0x105B1C9958591E4818DB185A5B5959 PUSH1 0x8A SHL PUSH1 0x44 DUP3 ADD MSTORE PUSH1 0x64 ADD PUSH2 0xC8E JUMP JUMPDEST CALLER PUSH0 DUP2 DUP2 MSTORE PUSH1 0xD DUP4 ADD PUSH1 0x20 MSTORE PUSH1 0x40 SWAP1 DUP2 SWAP1 KECCAK256 DUP1 SLOAD PUSH1 0xFF NOT AND PUSH1 0x1 OR SWAP1 SSTORE DUP3 SLOAD PUSH1 0x5 DUP5 ADD SLOAD SWAP2 MLOAD PUSH4 0xA9059CBB PUSH1 0xE0 SHL DUP2 MSTORE PUSH1 0x4 DUP2 ADD SWAP4 SWAP1 SWAP4 MSTORE PUSH1 0x24 DUP4 ADD SWAP2 SWAP1 SWAP2 MSTORE PUSH1 0x1 PUSH1 0x1 PUSH1 0xA0 SHL SUB AND SWAP1 PUSH4 0xA9059CBB SWAP1 PUSH1 0x44 ADD PUSH1 0x20 PUSH1 0x40 MLOAD DUP1 DUP4 SUB DUP2 PUSH0 DUP8 GAS CALL ISZERO DUP1 ISZERO PUSH2 0x1DCA JUMPI RETURNDATASIZE PUSH0 PUSH0 RETURNDATACOPY RETURNDATASIZE PUSH0 REVERT JUMPDEST POP POP POP POP PUSH1 0x40 MLOAD RETURNDATASIZE PUSH1 0x1F NOT PUSH1 0x1F DUP3 ADD AND DUP3 ADD DUP1 PUSH1 0x40 MSTORE POP DUP2 ADD SWAP1 PUSH2 0x1DEE SWAP2 SWAP1 PUSH2 0x2B64 JUMP JUMPDEST POP POP PUSH2 0x11BC PUSH1 0x1 PUSH0 SSTORE JUMP JUMPDEST PUSH1 0xA DUP2 DUP2 SLOAD DUP2 LT PUSH2 0x1E08 JUMPI PUSH0 DUP1 REVERT JUMPDEST PUSH0 SWAP2 DUP3 MSTORE PUSH1 0x20 SWAP1 SWAP2 KECCAK256 ADD SLOAD SWAP1 POP DUP2 JUMP JUMPDEST PUSH2 0x1E20 PUSH2 0x2144 JUMP JUMPDEST PUSH1 0x1 PUSH1 0x1 PUSH1 0xA0 SHL SUB DUP2 AND PUSH2 0x1E49 JUMPI PUSH1 0x40 MLOAD PUSH4 0x1E4FBDF7 PUSH1 0xE0 SHL DUP2 MSTORE PUSH0 PUSH1 0x4 DUP3 ADD MSTORE PUSH1 0x24 ADD PUSH2 0xC8E JUMP JUMPDEST PUSH2 0x11BC DUP2 PUSH2 0x23C6 JUMP JUMPDEST PUSH0 DUP1 PUSH32 0xF0C57E16840DF040F15088DC2F81FE391C3923BEC73E23A9662EFC9C229C6A00 PUSH2 0xADA JUMP JUMPDEST PUSH2 0x1E82 PUSH2 0x2436 JUMP JUMPDEST PUSH2 0x11BC DUP2 PUSH2 0x245B JUMP JUMPDEST PUSH2 0x18CD PUSH2 0x2436 JUMP JUMPDEST PUSH2 0x1E9B PUSH2 0x2436 JUMP JUMPDEST PUSH1 0x1 DUP1 SLOAD PUSH1 0x1 PUSH1 0x1 PUSH1 0xA0 SHL SUB NOT AND PUSH1 0x1 PUSH1 0x1 PUSH1 0xA0 SHL SUB SWAP3 SWAP1 SWAP3 AND SWAP2 SWAP1 SWAP2 OR SWAP1 SSTORE JUMP JUMPDEST PUSH0 DUP3 DUP2 MSTORE PUSH1 0xB PUSH1 0x20 SWAP1 DUP2 MSTORE PUSH1 0x40 DUP1 DUP4 KECCAK256 SLOAD DUP1 DUP5 MSTORE PUSH1 0x2 SWAP1 SWAP3 MSTORE SWAP1 SWAP2 KECCAK256 PUSH1 0x8 DUP2 ADD SLOAD PUSH2 0x100 SWAP1 DIV PUSH1 0xFF AND DUP1 ISZERO PUSH2 0x1EFD JUMPI POP PUSH1 0xA DUP2 ADD SLOAD PUSH1 0x1 PUSH1 0x1 PUSH1 0xA0 SHL SUB AND ISZERO JUMPDEST PUSH2 0x1F3D JUMPI PUSH1 0x40 MLOAD PUSH3 0x461BCD PUSH1 0xE5 SHL DUP2 MSTORE PUSH1 0x20 PUSH1 0x4 DUP3 ADD MSTORE PUSH1 0x11 PUSH1 0x24 DUP3 ADD MSTORE PUSH17 0x105B1C9958591E48199D5B199A5B1B1959 PUSH1 0x7A SHL PUSH1 0x44 DUP3 ADD MSTORE PUSH1 0x64 ADD PUSH2 0xC8E JUMP JUMPDEST PUSH0 DUP2 PUSH1 0x9 ADD DUP1 SLOAD SWAP1 POP DUP5 PUSH0 DUP2 MLOAD DUP2 LT PUSH2 0x1F58 JUMPI PUSH2 0x1F58 PUSH2 0x2B11 JUMP JUMPDEST PUSH1 0x20 MUL PUSH1 0x20 ADD ADD MLOAD PUSH2 0x1F6A SWAP2 SWAP1 PUSH2 0x2C0D JUMP JUMPDEST SWAP1 POP DUP2 PUSH1 0x9 ADD DUP2 DUP2 SLOAD DUP2 LT PUSH2 0x1F81 JUMPI PUSH2 0x1F81 PUSH2 0x2B11 JUMP JUMPDEST PUSH0 SWAP2 DUP3 MSTORE PUSH1 0x20 SWAP1 SWAP2 KECCAK256 ADD SLOAD PUSH1 0xA DUP4 ADD DUP1 SLOAD PUSH1 0x1 PUSH1 0x1 PUSH1 0xA0 SHL SUB NOT AND PUSH1 0x1 PUSH1 0x1 PUSH1 0xA0 SHL SUB SWAP3 DUP4 AND OR SWAP1 SSTORE DUP3 SLOAD PUSH1 0x4 DUP1 SLOAD PUSH1 0x6 DUP7 ADD SLOAD PUSH1 0x40 MLOAD PUSH4 0xA9059CBB PUSH1 0xE0 SHL DUP2 MSTORE SWAP2 DUP6 AND SWAP3 DUP3 ADD SWAP3 SWAP1 SWAP3 MSTORE PUSH1 0x24 DUP2 ADD SWAP2 SWAP1 SWAP2 MSTORE SWAP2 AND SWAP1 DUP2 SWAP1 PUSH4 0xA9059CBB SWAP1 PUSH1 0x44 ADD PUSH1 0x20 PUSH1 0x40 MLOAD DUP1 DUP4 SUB DUP2 PUSH0 DUP8 GAS CALL ISZERO DUP1 ISZERO PUSH2 0x1FFE JUMPI RETURNDATASIZE PUSH0 PUSH0 RETURNDATACOPY RETURNDATASIZE PUSH0 REVERT JUMPDEST POP POP POP POP PUSH1 0x40 MLOAD RETURNDATASIZE PUSH1 0x1F NOT PUSH1 0x1F DUP3 ADD AND DUP3 ADD DUP1 PUSH1 0x40 MSTORE POP DUP2 ADD SWAP1 PUSH2 0x2022 SWAP2 SWAP1 PUSH2 0x2B64 JUMP JUMPDEST POP PUSH1 0x5 SLOAD PUSH1 0x7 DUP5 ADD SLOAD PUSH1 0x40 MLOAD PUSH4 0xA9059CBB PUSH1 0xE0 SHL DUP2 MSTORE PUSH1 0x1 PUSH1 0x1 PUSH1 0xA0 SHL SUB SWAP3 DUP4 AND PUSH1 0x4 DUP3 ADD MSTORE PUSH1 0x24 DUP2 ADD SWAP2 SWAP1 SWAP2 MSTORE SWAP1 DUP3 AND SWAP1 PUSH4 0xA9059CBB SWAP1 PUSH1 0x44 ADD PUSH1 0x20 PUSH1 0x40 MLOAD DUP1 DUP4 SUB DUP2 PUSH0 DUP8 GAS CALL ISZERO DUP1 ISZERO PUSH2 0x2079 JUMPI RETURNDATASIZE PUSH0 PUSH0 RETURNDATACOPY RETURNDATASIZE PUSH0 REVERT JUMPDEST POP POP POP POP PUSH1 0x40 MLOAD RETURNDATASIZE PUSH1 0x1F NOT PUSH1 0x1F DUP3 ADD AND DUP3 ADD DUP1 PUSH1 0x40 MSTORE POP DUP2 ADD SWAP1 PUSH2 0x209D SWAP2 SWAP1 PUSH2 0x2B64 JUMP JUMPDEST POP PUSH1 0xA DUP4 ADD SLOAD PUSH1 0x40 DUP1 MLOAD DUP7 DUP2 MSTORE PUSH1 0x1 PUSH1 0x1 PUSH1 0xA0 SHL SUB SWAP1 SWAP3 AND PUSH1 0x20 DUP4 ADD MSTORE PUSH32 0x3FB57EB449654E24E1B240D3D06702CF79362A065D5C0323AEE642D4702FA4B SWAP2 ADD PUSH1 0x40 MLOAD DUP1 SWAP2 SUB SWAP1 LOG1 POP POP POP POP POP POP JUMP JUMPDEST PUSH1 0x2 PUSH0 SLOAD SUB PUSH2 0x213E JUMPI PUSH1 0x40 MLOAD PUSH3 0x461BCD PUSH1 0xE5 SHL DUP2 MSTORE PUSH1 0x20 PUSH1 0x4 DUP3 ADD MSTORE PUSH1 0x1F PUSH1 0x24 DUP3 ADD MSTORE PUSH32 0x5265656E7472616E637947756172643A207265656E7472616E742063616C6C00 PUSH1 0x44 DUP3 ADD MSTORE PUSH1 0x64 ADD PUSH2 0xC8E JUMP JUMPDEST PUSH1 0x2 PUSH0 SSTORE JUMP JUMPDEST CALLER PUSH2 0x2176 PUSH32 0x9016D09D72D40FDAE2FD8CEAC6B6234C7706214FD39C1CD1E609A0528C199300 SLOAD PUSH1 0x1 PUSH1 0x1 PUSH1 0xA0 SHL SUB AND SWAP1 JUMP JUMPDEST PUSH1 0x1 PUSH1 0x1 PUSH1 0xA0 SHL SUB AND EQ PUSH2 0x18CD JUMPI PUSH1 0x40 MLOAD PUSH4 0x118CDAA7 PUSH1 0xE0 SHL DUP2 MSTORE CALLER PUSH1 0x4 DUP3 ADD MSTORE PUSH1 0x24 ADD PUSH2 0xC8E JUMP JUMPDEST ADDRESS PUSH1 0x1 PUSH1 0x1 PUSH1 0xA0 SHL SUB PUSH32 0x0 AND EQ DUP1 PUSH2 0x2225 JUMPI POP PUSH32 0x0 PUSH1 0x1 PUSH1 0x1 PUSH1 0xA0 SHL SUB AND PUSH2 0x2219 PUSH0 MLOAD PUSH1 0x20 PUSH2 0x2C43 PUSH0 CODECOPY PUSH0 MLOAD SWAP1 PUSH0 MSTORE SLOAD PUSH1 0x1 PUSH1 0x1 PUSH1 0xA0 SHL SUB AND SWAP1 JUMP JUMPDEST PUSH1 0x1 PUSH1 0x1 PUSH1 0xA0 SHL SUB AND EQ ISZERO JUMPDEST ISZERO PUSH2 0x18CD JUMPI PUSH1 0x40 MLOAD PUSH4 0x703E46DD PUSH1 0xE1 SHL DUP2 MSTORE PUSH1 0x4 ADD PUSH1 0x40 MLOAD DUP1 SWAP2 SUB SWAP1 REVERT JUMPDEST PUSH2 0x11BC PUSH2 0x2144 JUMP JUMPDEST DUP2 PUSH1 0x1 PUSH1 0x1 PUSH1 0xA0 SHL SUB AND PUSH4 0x52D1902D PUSH1 0x40 MLOAD DUP2 PUSH4 0xFFFFFFFF AND PUSH1 0xE0 SHL DUP2 MSTORE PUSH1 0x4 ADD PUSH1 0x20 PUSH1 0x40 MLOAD DUP1 DUP4 SUB DUP2 DUP7 GAS STATICCALL SWAP3 POP POP POP DUP1 ISZERO PUSH2 0x22A5 JUMPI POP PUSH1 0x40 DUP1 MLOAD PUSH1 0x1F RETURNDATASIZE SWAP1 DUP2 ADD PUSH1 0x1F NOT AND DUP3 ADD SWAP1 SWAP3 MSTORE PUSH2 0x22A2 SWAP2 DUP2 ADD SWAP1 PUSH2 0x2BF6 JUMP JUMPDEST PUSH1 0x1 JUMPDEST PUSH2 0x22CD JUMPI PUSH1 0x40 MLOAD PUSH4 0x4C9C8CE3 PUSH1 0xE0 SHL DUP2 MSTORE PUSH1 0x1 PUSH1 0x1 PUSH1 0xA0 SHL SUB DUP4 AND PUSH1 0x4 DUP3 ADD MSTORE PUSH1 0x24 ADD PUSH2 0xC8E JUMP JUMPDEST PUSH0 MLOAD PUSH1 0x20 PUSH2 0x2C43 PUSH0 CODECOPY PUSH0 MLOAD SWAP1 PUSH0 MSTORE DUP2 EQ PUSH2 0x22FD JUMPI PUSH1 0x40 MLOAD PUSH4 0x2A875269 PUSH1 0xE2 SHL DUP2 MSTORE PUSH1 0x4 DUP2 ADD DUP3 SWAP1 MSTORE PUSH1 0x24 ADD PUSH2 0xC8E JUMP JUMPDEST PUSH2 0x2307 DUP4 DUP4 PUSH2 0x2463 JUMP JUMPDEST POP POP POP JUMP JUMPDEST ADDRESS PUSH1 0x1 PUSH1 0x1 PUSH1 0xA0 SHL SUB PUSH32 0x0 AND EQ PUSH2 0x18CD JUMPI PUSH1 0x40 MLOAD PUSH4 0x703E46DD PUSH1 0xE1 SHL DUP2 MSTORE PUSH1 0x4 ADD PUSH1 0x40 MLOAD DUP1 SWAP2 SUB SWAP1 REVERT JUMPDEST PUSH1 0x60 PUSH32 0x92FD13387C7FE7BEFBC38D303D6468778FB9731BC4583F17D92989C6FCFDEAAA DUP3 PUSH1 0x40 MLOAD PUSH1 0x24 ADD PUSH2 0x238E SWAP2 MLOAD ISZERO ISZERO DUP2 MSTORE PUSH1 0x20 ADD SWAP1 JUMP JUMPDEST PUSH1 0x40 DUP1 MLOAD PUSH1 0x1F NOT DUP2 DUP5 SUB ADD DUP2 MSTORE SWAP2 SWAP1 MSTORE PUSH1 0x20 DUP2 ADD DUP1 MLOAD PUSH1 0x1 PUSH1 0x1 PUSH1 0xE0 SHL SUB AND PUSH1 0x1 PUSH1 0x1 PUSH1 0xE0 SHL SUB NOT SWAP1 SWAP4 AND SWAP3 SWAP1 SWAP3 OR SWAP1 SWAP2 MSTORE SWAP3 SWAP2 POP POP JUMP JUMPDEST PUSH32 0x9016D09D72D40FDAE2FD8CEAC6B6234C7706214FD39C1CD1E609A0528C199300 DUP1 SLOAD PUSH1 0x1 PUSH1 0x1 PUSH1 0xA0 SHL SUB NOT DUP2 AND PUSH1 0x1 PUSH1 0x1 PUSH1 0xA0 SHL SUB DUP5 DUP2 AND SWAP2 DUP3 OR DUP5 SSTORE PUSH1 0x40 MLOAD SWAP3 AND SWAP2 DUP3 SWAP1 PUSH32 0x8BE0079C531659141344CD1FD0A4F28419497F9722A3DAAFE3B4186F6B6457E0 SWAP1 PUSH0 SWAP1 LOG3 POP POP POP JUMP JUMPDEST PUSH2 0x243E PUSH2 0x24B8 JUMP JUMPDEST PUSH2 0x18CD JUMPI PUSH1 0x40 MLOAD PUSH4 0x1AFCD79F PUSH1 0xE3 SHL DUP2 MSTORE PUSH1 0x4 ADD PUSH1 0x40 MLOAD DUP1 SWAP2 SUB SWAP1 REVERT JUMPDEST PUSH2 0x1E20 PUSH2 0x2436 JUMP JUMPDEST PUSH2 0x246C DUP3 PUSH2 0x24D1 JUMP JUMPDEST PUSH1 0x40 MLOAD PUSH1 0x1 PUSH1 0x1 PUSH1 0xA0 SHL SUB DUP4 AND SWAP1 PUSH32 0xBC7CD75A20EE27FD9ADEBAB32041F755214DBC6BFFA90CC0225B39DA2E5C2D3B SWAP1 PUSH0 SWAP1 LOG2 DUP1 MLOAD ISZERO PUSH2 0x24B0 JUMPI PUSH2 0x2307 DUP3 DUP3 PUSH2 0x2534 JUMP JUMPDEST PUSH2 0xCA1 PUSH2 0x25A6 JUMP JUMPDEST PUSH0 PUSH2 0x24C1 PUSH2 0x1E52 JUMP JUMPDEST SLOAD PUSH1 0x1 PUSH1 0x40 SHL SWAP1 DIV PUSH1 0xFF AND SWAP2 SWAP1 POP JUMP JUMPDEST DUP1 PUSH1 0x1 PUSH1 0x1 PUSH1 0xA0 SHL SUB AND EXTCODESIZE PUSH0 SUB PUSH2 0x2506 JUMPI PUSH1 0x40 MLOAD PUSH4 0x4C9C8CE3 PUSH1 0xE0 SHL DUP2 MSTORE PUSH1 0x1 PUSH1 0x1 PUSH1 0xA0 SHL SUB DUP3 AND PUSH1 0x4 DUP3 ADD MSTORE PUSH1 0x24 ADD PUSH2 0xC8E JUMP JUMPDEST PUSH0 MLOAD PUSH1 0x20 PUSH2 0x2C43 PUSH0 CODECOPY PUSH0 MLOAD SWAP1 PUSH0 MSTORE DUP1 SLOAD PUSH1 0x1 PUSH1 0x1 PUSH1 0xA0 SHL SUB NOT AND PUSH1 0x1 PUSH1 0x1 PUSH1 0xA0 SHL SUB SWAP3 SWAP1 SWAP3 AND SWAP2 SWAP1 SWAP2 OR SWAP1 SSTORE JUMP JUMPDEST PUSH1 0x60 PUSH0 PUSH0 DUP5 PUSH1 0x1 PUSH1 0x1 PUSH1 0xA0 SHL SUB AND DUP5 PUSH1 0x40 MLOAD PUSH2 0x2550 SWAP2 SWAP1 PUSH2 0x2C2C JUMP JUMPDEST PUSH0 PUSH1 0x40 MLOAD DUP1 DUP4 SUB DUP2 DUP6 GAS DELEGATECALL SWAP2 POP POP RETURNDATASIZE DUP1 PUSH0 DUP2 EQ PUSH2 0x2588 JUMPI PUSH1 0x40 MLOAD SWAP2 POP PUSH1 0x1F NOT PUSH1 0x3F RETURNDATASIZE ADD AND DUP3 ADD PUSH1 0x40 MSTORE RETURNDATASIZE DUP3 MSTORE RETURNDATASIZE PUSH0 PUSH1 0x20 DUP5 ADD RETURNDATACOPY PUSH2 0x258D JUMP JUMPDEST PUSH1 0x60 SWAP2 POP JUMPDEST POP SWAP2 POP SWAP2 POP PUSH2 0x259D DUP6 DUP4 DUP4 PUSH2 0x25C5 JUMP JUMPDEST SWAP6 SWAP5 POP POP POP POP POP JUMP JUMPDEST CALLVALUE ISZERO PUSH2 0x18CD JUMPI PUSH1 0x40 MLOAD PUSH4 0xB398979F PUSH1 0xE0 SHL DUP2 MSTORE PUSH1 0x4 ADD PUSH1 0x40 MLOAD DUP1 SWAP2 SUB SWAP1 REVERT JUMPDEST PUSH1 0x60 DUP3 PUSH2 0x25DA JUMPI PUSH2 0x25D5 DUP3 PUSH2 0x2624 JUMP JUMPDEST PUSH2 0x261D JUMP JUMPDEST DUP2 MLOAD ISZERO DUP1 ISZERO PUSH2 0x25F1 JUMPI POP PUSH1 0x1 PUSH1 0x1 PUSH1 0xA0 SHL SUB DUP5 AND EXTCODESIZE ISZERO JUMPDEST ISZERO PUSH2 0x261A JUMPI PUSH1 0x40 MLOAD PUSH4 0x9996B315 PUSH1 0xE0 SHL DUP2 MSTORE PUSH1 0x1 PUSH1 0x1 PUSH1 0xA0 SHL SUB DUP6 AND PUSH1 0x4 DUP3 ADD MSTORE PUSH1 0x24 ADD PUSH2 0xC8E JUMP JUMPDEST POP DUP1 JUMPDEST SWAP4 SWAP3 POP POP POP JUMP JUMPDEST DUP1 MLOAD ISZERO PUSH2 0x2634 JUMPI DUP1 MLOAD DUP1 DUP3 PUSH1 0x20 ADD REVERT JUMPDEST PUSH1 0x40 MLOAD PUSH4 0xD6BDA275 PUSH1 0xE0 SHL DUP2 MSTORE PUSH1 0x4 ADD PUSH1 0x40 MLOAD DUP1 SWAP2 SUB SWAP1 REVERT JUMPDEST POP DUP1 SLOAD PUSH0 DUP3 SSTORE SWAP1 PUSH0 MSTORE PUSH1 0x20 PUSH0 KECCAK256 SWAP1 DUP2 ADD SWAP1 PUSH2 0x11BC SWAP2 SWAP1 JUMPDEST DUP1 DUP3 GT ISZERO PUSH2 0x2677 JUMPI PUSH0 DUP2 SSTORE PUSH1 0x1 ADD PUSH2 0x2664 JUMP JUMPDEST POP SWAP1 JUMP JUMPDEST PUSH1 0x20 DUP1 DUP3 MSTORE DUP3 MLOAD DUP3 DUP3 ADD DUP2 SWAP1 MSTORE PUSH0 SWAP2 DUP5 ADD SWAP1 PUSH1 0x40 DUP5 ADD SWAP1 DUP4 JUMPDEST DUP2 DUP2 LT ISZERO PUSH2 0x26B2 JUMPI DUP4 MLOAD DUP4 MSTORE PUSH1 0x20 SWAP4 DUP5 ADD SWAP4 SWAP1 SWAP3 ADD SWAP2 PUSH1 0x1 ADD PUSH2 0x2694 JUMP JUMPDEST POP SWAP1 SWAP6 SWAP5 POP POP POP POP POP JUMP JUMPDEST DUP1 CALLDATALOAD PUSH1 0x1 PUSH1 0x1 PUSH1 0xA0 SHL SUB DUP2 AND DUP2 EQ PUSH2 0x26D3 JUMPI PUSH0 PUSH0 REVERT JUMPDEST SWAP2 SWAP1 POP JUMP JUMPDEST PUSH0 PUSH0 PUSH1 0x40 DUP4 DUP6 SUB SLT ISZERO PUSH2 0x26E9 JUMPI PUSH0 PUSH0 REVERT JUMPDEST DUP3 CALLDATALOAD SWAP2 POP PUSH2 0x26F9 PUSH1 0x20 DUP5 ADD PUSH2 0x26BD JUMP JUMPDEST SWAP1 POP SWAP3 POP SWAP3 SWAP1 POP JUMP JUMPDEST PUSH0 PUSH0 PUSH0 PUSH0 PUSH0 PUSH1 0xA0 DUP7 DUP9 SUB SLT ISZERO PUSH2 0x2716 JUMPI PUSH0 PUSH0 REVERT JUMPDEST PUSH2 0x271F DUP7 PUSH2 0x26BD JUMP JUMPDEST SWAP5 POP PUSH1 0x20 DUP7 ADD CALLDATALOAD SWAP4 POP PUSH1 0x40 DUP7 ADD CALLDATALOAD SWAP3 POP PUSH2 0x273B PUSH1 0x60 DUP8 ADD PUSH2 0x26BD JUMP JUMPDEST SWAP2 POP PUSH2 0x2749 PUSH1 0x80 DUP8 ADD PUSH2 0x26BD JUMP JUMPDEST SWAP1 POP SWAP3 SWAP6 POP SWAP3 SWAP6 SWAP1 SWAP4 POP JUMP JUMPDEST PUSH0 PUSH1 0x20 DUP3 DUP5 SUB SLT ISZERO PUSH2 0x2765 JUMPI PUSH0 PUSH0 REVERT JUMPDEST POP CALLDATALOAD SWAP2 SWAP1 POP JUMP JUMPDEST PUSH4 0x4E487B71 PUSH1 0xE0 SHL PUSH0 MSTORE PUSH1 0x41 PUSH1 0x4 MSTORE PUSH1 0x24 PUSH0 REVERT JUMPDEST PUSH1 0x40 MLOAD PUSH1 0x1F DUP3 ADD PUSH1 0x1F NOT AND DUP2 ADD PUSH8 0xFFFFFFFFFFFFFFFF DUP2 GT DUP3 DUP3 LT OR ISZERO PUSH2 0x27A9 JUMPI PUSH2 0x27A9 PUSH2 0x276C JUMP JUMPDEST PUSH1 0x40 MSTORE SWAP2 SWAP1 POP JUMP JUMPDEST PUSH0 PUSH0 PUSH1 0x40 DUP4 DUP6 SUB SLT ISZERO PUSH2 0x27C2 JUMPI PUSH0 PUSH0 REVERT JUMPDEST DUP3 CALLDATALOAD SWAP2 POP PUSH1 0x20 DUP4 ADD CALLDATALOAD PUSH8 0xFFFFFFFFFFFFFFFF DUP2 GT ISZERO PUSH2 0x27DF JUMPI PUSH0 PUSH0 REVERT JUMPDEST DUP4 ADD PUSH1 0x1F DUP2 ADD DUP6 SGT PUSH2 0x27EF JUMPI PUSH0 PUSH0 REVERT JUMPDEST DUP1 CALLDATALOAD PUSH8 0xFFFFFFFFFFFFFFFF DUP2 GT ISZERO PUSH2 0x2809 JUMPI PUSH2 0x2809 PUSH2 0x276C JUMP JUMPDEST DUP1 PUSH1 0x5 SHL PUSH2 0x2819 PUSH1 0x20 DUP3 ADD PUSH2 0x2780 JUMP JUMPDEST SWAP2 DUP3 MSTORE PUSH1 0x20 DUP2 DUP5 ADD DUP2 ADD SWAP3 SWAP1 DUP2 ADD SWAP1 DUP9 DUP5 GT ISZERO PUSH2 0x2834 JUMPI PUSH0 PUSH0 REVERT JUMPDEST PUSH1 0x20 DUP6 ADD SWAP5 POP JUMPDEST DUP4 DUP6 LT ISZERO PUSH2 0x285A JUMPI DUP5 CALLDATALOAD DUP1 DUP4 MSTORE PUSH1 0x20 SWAP6 DUP7 ADD SWAP6 SWAP1 SWAP4 POP SWAP1 SWAP2 ADD SWAP1 PUSH2 0x283B JUMP JUMPDEST DUP1 SWAP6 POP POP POP POP POP POP SWAP3 POP SWAP3 SWAP1 POP JUMP JUMPDEST PUSH0 PUSH0 PUSH1 0x40 DUP4 DUP6 SUB SLT ISZERO PUSH2 0x287A JUMPI PUSH0 PUSH0 REVERT JUMPDEST POP POP DUP1 CALLDATALOAD SWAP3 PUSH1 0x20 SWAP1 SWAP2 ADD CALLDATALOAD SWAP2 POP JUMP JUMPDEST PUSH0 PUSH0 PUSH0 PUSH0 PUSH0 PUSH0 PUSH0 PUSH0 PUSH2 0x100 DUP10 DUP12 SUB SLT ISZERO PUSH2 0x28A1 JUMPI PUSH0 PUSH0 REVERT JUMPDEST PUSH2 0x28AA DUP10 PUSH2 0x26BD JUMP JUMPDEST SWAP11 PUSH1 0x20 DUP11 ADD CALLDATALOAD SWAP11 POP PUSH1 0x40 DUP11 ADD CALLDATALOAD SWAP10 PUSH1 0x60 DUP2 ADD CALLDATALOAD SWAP10 POP PUSH1 0x80 DUP2 ADD CALLDATALOAD SWAP9 POP PUSH1 0xA0 DUP2 ADD CALLDATALOAD SWAP8 POP PUSH1 0xC0 DUP2 ADD CALLDATALOAD SWAP7 POP PUSH1 0xE0 ADD CALLDATALOAD SWAP5 POP SWAP3 POP POP POP JUMP JUMPDEST PUSH0 PUSH0 PUSH1 0x40 DUP4 DUP6 SUB SLT ISZERO PUSH2 0x28F1 JUMPI PUSH0 PUSH0 REVERT JUMPDEST PUSH2 0x28FA DUP4 PUSH2 0x26BD JUMP JUMPDEST SWAP2 POP PUSH1 0x20 DUP4 ADD CALLDATALOAD PUSH8 0xFFFFFFFFFFFFFFFF DUP2 GT ISZERO PUSH2 0x2915 JUMPI PUSH0 PUSH0 REVERT JUMPDEST DUP4 ADD PUSH1 0x1F DUP2 ADD DUP6 SGT PUSH2 0x2925 JUMPI PUSH0 PUSH0 REVERT JUMPDEST DUP1 CALLDATALOAD PUSH8 0xFFFFFFFFFFFFFFFF DUP2 GT ISZERO PUSH2 0x293F JUMPI PUSH2 0x293F PUSH2 0x276C JUMP JUMPDEST PUSH2 0x2952 PUSH1 0x1F DUP3 ADD PUSH1 0x1F NOT AND PUSH1 0x20 ADD PUSH2 0x2780 JUMP JUMPDEST DUP2 DUP2 MSTORE DUP7 PUSH1 0x20 DUP4 DUP6 ADD ADD GT ISZERO PUSH2 0x2966 JUMPI PUSH0 PUSH0 REVERT JUMPDEST DUP2 PUSH1 0x20 DUP5 ADD PUSH1 0x20 DUP4 ADD CALLDATACOPY PUSH0 PUSH1 0x20 DUP4 DUP4 ADD ADD MSTORE DUP1 SWAP4 POP POP POP POP SWAP3 POP SWAP3 SWAP1 POP JUMP JUMPDEST PUSH0 DUP2 MLOAD DUP1 DUP5 MSTORE PUSH1 0x20 DUP5 ADD SWAP4 POP PUSH1 0x20 DUP4 ADD PUSH0 JUMPDEST DUP3 DUP2 LT ISZERO PUSH2 0x29BE JUMPI DUP2 MLOAD PUSH1 0x1 PUSH1 0x1 PUSH1 0xA0 SHL SUB AND DUP7 MSTORE PUSH1 0x20 SWAP6 DUP7 ADD SWAP6 SWAP1 SWAP2 ADD SWAP1 PUSH1 0x1 ADD PUSH2 0x2997 JUMP JUMPDEST POP SWAP4 SWAP5 SWAP4 POP POP POP POP JUMP JUMPDEST PUSH1 0x20 DUP2 MSTORE PUSH2 0x29E2 PUSH1 0x20 DUP3 ADD DUP4 MLOAD PUSH1 0x1 PUSH1 0x1 PUSH1 0xA0 SHL SUB AND SWAP1 MSTORE JUMP JUMPDEST PUSH1 0x20 DUP3 ADD MLOAD PUSH1 0x40 DUP3 ADD MSTORE PUSH1 0x40 DUP3 ADD MLOAD PUSH1 0x60 DUP3 ADD MSTORE PUSH1 0x60 DUP3 ADD MLOAD PUSH1 0x80 DUP3 ADD MSTORE PUSH1 0x80 DUP3 ADD MLOAD PUSH1 0xA0 DUP3 ADD MSTORE PUSH1 0xA0 DUP3 ADD MLOAD PUSH1 0xC0 DUP3 ADD MSTORE PUSH1 0xC0 DUP3 ADD MLOAD PUSH1 0xE0 DUP3 ADD MSTORE PUSH1 0xE0 DUP3 ADD MLOAD PUSH2 0x100 DUP3 ADD MSTORE PUSH0 PUSH2 0x100 DUP4 ADD MLOAD PUSH2 0x2A3F PUSH2 0x120 DUP5 ADD DUP3 ISZERO ISZERO SWAP1 MSTORE JUMP JUMPDEST POP PUSH2 0x120 DUP4 ADD MLOAD DUP1 ISZERO ISZERO PUSH2 0x140 DUP5 ADD MSTORE POP PUSH2 0x140 DUP4 ADD MLOAD DUP1 ISZERO ISZERO PUSH2 0x160 DUP5 ADD MSTORE POP PUSH2 0x160 DUP4 ADD MLOAD PUSH1 0x1 PUSH1 0x1 PUSH1 0xA0 SHL SUB DUP2 AND PUSH2 0x180 DUP5 ADD MSTORE POP PUSH2 0x180 DUP4 ADD MLOAD PUSH2 0x1A0 DUP4 ADD MSTORE PUSH2 0x1A0 DUP4 ADD MLOAD PUSH2 0x1C0 DUP1 DUP5 ADD MSTORE PUSH2 0x2A9E PUSH2 0x1E0 DUP5 ADD DUP3 PUSH2 0x2985 JUMP JUMPDEST SWAP5 SWAP4 POP POP POP POP JUMP JUMPDEST PUSH0 DUP2 MLOAD DUP1 DUP5 MSTORE DUP1 PUSH1 0x20 DUP5 ADD PUSH1 0x20 DUP7 ADD MCOPY PUSH0 PUSH1 0x20 DUP3 DUP7 ADD ADD MSTORE PUSH1 0x20 PUSH1 0x1F NOT PUSH1 0x1F DUP4 ADD AND DUP6 ADD ADD SWAP2 POP POP SWAP3 SWAP2 POP POP JUMP JUMPDEST PUSH1 0x20 DUP2 MSTORE PUSH0 PUSH2 0x261D PUSH1 0x20 DUP4 ADD DUP5 PUSH2 0x2AA6 JUMP JUMPDEST PUSH1 0x20 DUP2 MSTORE PUSH0 PUSH2 0x261D PUSH1 0x20 DUP4 ADD DUP5 PUSH2 0x2985 JUMP JUMPDEST PUSH0 PUSH1 0x20 DUP3 DUP5 SUB SLT ISZERO PUSH2 0x2B08 JUMPI PUSH0 PUSH0 REVERT JUMPDEST PUSH2 0x261D DUP3 PUSH2 0x26BD JUMP JUMPDEST PUSH4 0x4E487B71 PUSH1 0xE0 SHL PUSH0 MSTORE PUSH1 0x32 PUSH1 0x4 MSTORE PUSH1 0x24 PUSH0 REVERT JUMPDEST PUSH4 0x4E487B71 PUSH1 0xE0 SHL PUSH0 MSTORE PUSH1 0x11 PUSH1 0x4 MSTORE PUSH1 0x24 PUSH0 REVERT JUMPDEST PUSH0 PUSH1 0x1 DUP3 ADD PUSH2 0x2B4A JUMPI PUSH2 0x2B4A PUSH2 0x2B25 JUMP JUMPDEST POP PUSH1 0x1 ADD SWAP1 JUMP JUMPDEST DUP2 DUP2 SUB DUP2 DUP2 GT ISZERO PUSH2 0xADA JUMPI PUSH2 0xADA PUSH2 0x2B25 JUMP JUMPDEST PUSH0 PUSH1 0x20 DUP3 DUP5 SUB SLT ISZERO PUSH2 0x2B74 JUMPI PUSH0 PUSH0 REVERT JUMPDEST DUP2 MLOAD DUP1 ISZERO ISZERO DUP2 EQ PUSH2 0x261D JUMPI PUSH0 PUSH0 REVERT JUMPDEST DUP1 DUP3 MUL DUP2 ISZERO DUP3 DUP3 DIV DUP5 EQ OR PUSH2 0xADA JUMPI PUSH2 0xADA PUSH2 0x2B25 JUMP JUMPDEST PUSH1 0x20 DUP2 MSTORE DUP2 MLOAD PUSH1 0x20 DUP3 ADD MSTORE PUSH1 0x20 DUP3 ADD MLOAD PUSH1 0x40 DUP3 ADD MSTORE PUSH2 0xFFFF PUSH1 0x40 DUP4 ADD MLOAD AND PUSH1 0x60 DUP3 ADD MSTORE PUSH4 0xFFFFFFFF PUSH1 0x60 DUP4 ADD MLOAD AND PUSH1 0x80 DUP3 ADD MSTORE PUSH4 0xFFFFFFFF PUSH1 0x80 DUP4 ADD MLOAD AND PUSH1 0xA0 DUP3 ADD MSTORE PUSH0 PUSH1 0xA0 DUP4 ADD MLOAD PUSH1 0xC0 DUP1 DUP5 ADD MSTORE PUSH2 0x2A9E PUSH1 0xE0 DUP5 ADD DUP3 PUSH2 0x2AA6 JUMP JUMPDEST PUSH0 PUSH1 0x20 DUP3 DUP5 SUB SLT ISZERO PUSH2 0x2C06 JUMPI PUSH0 PUSH0 REVERT JUMPDEST POP MLOAD SWAP2 SWAP1 POP JUMP JUMPDEST PUSH0 DUP3 PUSH2 0x2C27 JUMPI PUSH4 0x4E487B71 PUSH1 0xE0 SHL PUSH0 MSTORE PUSH1 0x12 PUSH1 0x4 MSTORE PUSH1 0x24 PUSH0 REVERT JUMPDEST POP MOD SWAP1 JUMP JUMPDEST PUSH0 DUP3 MLOAD DUP1 PUSH1 0x20 DUP6 ADD DUP5 MCOPY PUSH0 SWAP3 ADD SWAP2 DUP3 MSTORE POP SWAP2 SWAP1 POP JUMP INVALID CALLDATASIZE ADDMOD SWAP5 LOG1 EXTCODESIZE LOG1 LOG3 0x21 MOD PUSH8 0xC828492DB98DCA3E KECCAK256 PUSH23 0xCC3735A920A3CA505D382BBCA2646970667358221220C5 0x2A PUSH17 0x46EB2CE0178C50564C0B4701940B510FFA DUP14 AND 0xDA 0x2B 0xF DUP14 0x29 0xE2 0xDE 0xDA 0xEA PUSH14 0x64736F6C634300081E0033000000 "
				},
				"gasEstimates": {
					"creation": {
						"codeDepositCost": "2283200",
						"executionCost": "infinite",
						"totalCost": "infinite"
					},
					"external": {
						"UPGRADE_INTERFACE_VERSION()": "infinite",
						"allLotteryIds(uint256)": "4682",
						"callbackGasLimit()": "2446",
						"cancelLottery(uint256)": "32221",
						"claimPrize(uint256)": "infinite",
						"claimRefund(uint256)": "infinite",
						"clearLotteryData(uint256)": "infinite",
						"createLottery(address,uint256,uint256,uint256,uint256,uint256,uint256,uint256)": "282061",
						"drawWinner(uint256)": "infinite",
						"enterLottery(uint256)": "infinite",
						"getActiveLotteries()": "infinite",
						"getAllLotteryIds()": "infinite",
						"getEntryCount(uint256,address)": "2689",
						"getLotteryInfo(uint256)": "infinite",
						"getParticipants(uint256)": "infinite",
						"getUserLotteryData(uint256,address)": "9331",
						"hasUserClaimed(uint256,address)": "2738",
						"hasUserRefunded(uint256,address)": "2722",
						"hasUserVotedCancel(uint256,address)": "2746",
						"initialize(address,bytes32,uint256,address,address)": "infinite",
						"investmentWallet()": "2469",
						"keyHash()": "2340",
						"lotteries(uint256)": "24010",
						"lotteryCounter()": "2339",
						"migrateToLottery(uint256,uint256)": "infinite",
						"numWords()": "2368",
						"owner()": "2441",
						"profitWallet()": "2448",
						"proxiableUUID()": "infinite",
						"rawFulfillRandomWords(uint256,uint256[])": "infinite",
						"renounceOwnership()": "infinite",
						"requestConfirmations()": "2434",
						"requestToLottery(uint256)": "2503",
						"subscriptionId()": "2385",
						"transferOwnership(address)": "28497",
						"upgradeToAndCall(address,bytes)": "infinite",
						"voteCancel(uint256)": "infinite",
						"vrfCoordinator()": "2469"
					},
					"internal": {
						"_authorizeUpgrade(address)": "infinite",
						"fulfillRandomWords(uint256,uint256[] memory)": "infinite"
					}
				},
				"methodIdentifiers": {
					"UPGRADE_INTERFACE_VERSION()": "ad3cb1cc",
					"allLotteryIds(uint256)": "e2344831",
					"callbackGasLimit()": "24f74697",
					"cancelLottery(uint256)": "4538f297",
					"claimPrize(uint256)": "d7098154",
					"claimRefund(uint256)": "5b7baf64",
					"clearLotteryData(uint256)": "82f9d0fb",
					"createLottery(address,uint256,uint256,uint256,uint256,uint256,uint256,uint256)": "4311da37",
					"drawWinner(uint256)": "60b2a56a",
					"enterLottery(uint256)": "3fd43098",
					"getActiveLotteries()": "055b66cd",
					"getAllLotteryIds()": "6cc69997",
					"getEntryCount(uint256,address)": "a49a75a5",
					"getLotteryInfo(uint256)": "76b3c8a8",
					"getParticipants(uint256)": "c1e3bd3e",
					"getUserLotteryData(uint256,address)": "ac03244e",
					"hasUserClaimed(uint256,address)": "07c7a72d",
					"hasUserRefunded(uint256,address)": "c4cd639f",
					"hasUserVotedCancel(uint256,address)": "3fe6e01e",
					"initialize(address,bytes32,uint256,address,address)": "0af5a263",
					"investmentWallet()": "b6fa37bc",
					"keyHash()": "61728f39",
					"lotteries(uint256)": "1398e076",
					"lotteryCounter()": "4a4a6b4f",
					"migrateToLottery(uint256,uint256)": "3893f9d5",
					"numWords()": "7ccfd7fc",
					"owner()": "8da5cb5b",
					"profitWallet()": "2301d775",
					"proxiableUUID()": "52d1902d",
					"rawFulfillRandomWords(uint256,uint256[])": "1fe543e3",
					"renounceOwnership()": "715018a6",
					"requestConfirmations()": "b0fb162f",
					"requestToLottery(uint256)": "15c6e123",
					"subscriptionId()": "09c1ba2e",
					"transferOwnership(address)": "f2fde38b",
					"upgradeToAndCall(address,bytes)": "4f1ef286",
					"voteCancel(uint256)": "826d9873",
					"vrfCoordinator()": "a3e56fa8"
				}
			},
			"storageLayout": {
				"storage": [
					{
						"astId": 1185,
						"contract": "contracts/StemPayLotteryManager.sol:StemPayLotteryManager",
						"label": "_status",
						"offset": 0,
						"slot": "0",
						"type": "t_uint256"
					},
					{
						"astId": 1741,
						"contract": "contracts/StemPayLotteryManager.sol:StemPayLotteryManager",
						"label": "vrfCoordinator",
						"offset": 0,
						"slot": "1",
						"type": "t_address"
					},
					{
						"astId": 1879,
						"contract": "contracts/StemPayLotteryManager.sol:StemPayLotteryManager",
						"label": "lotteries",
						"offset": 0,
						"slot": "2",
						"type": "t_mapping(t_uint256,t_struct(Lottery)1844_storage)"
					},
					{
						"astId": 1881,
						"contract": "contracts/StemPayLotteryManager.sol:StemPayLotteryManager",
						"label": "lotteryCounter",
						"offset": 0,
						"slot": "3",
						"type": "t_uint256"
					},
					{
						"astId": 1883,
						"contract": "contracts/StemPayLotteryManager.sol:StemPayLotteryManager",
						"label": "investmentWallet",
						"offset": 0,
						"slot": "4",
						"type": "t_address"
					},
					{
						"astId": 1885,
						"contract": "contracts/StemPayLotteryManager.sol:StemPayLotteryManager",
						"label": "profitWallet",
						"offset": 0,
						"slot": "5",
						"type": "t_address"
					},
					{
						"astId": 1887,
						"contract": "contracts/StemPayLotteryManager.sol:StemPayLotteryManager",
						"label": "keyHash",
						"offset": 0,
						"slot": "6",
						"type": "t_bytes32"
					},
					{
						"astId": 1889,
						"contract": "contracts/StemPayLotteryManager.sol:StemPayLotteryManager",
						"label": "callbackGasLimit",
						"offset": 0,
						"slot": "7",
						"type": "t_uint32"
					},
					{
						"astId": 1891,
						"contract": "contracts/StemPayLotteryManager.sol:StemPayLotteryManager",
						"label": "requestConfirmations",
						"offset": 4,
						"slot": "7",
						"type": "t_uint16"
					},
					{
						"astId": 1893,
						"contract": "contracts/StemPayLotteryManager.sol:StemPayLotteryManager",
						"label": "numWords",
						"offset": 6,
						"slot": "7",
						"type": "t_uint32"
					},
					{
						"astId": 1895,
						"contract": "contracts/StemPayLotteryManager.sol:StemPayLotteryManager",
						"label": "subscriptionId",
						"offset": 0,
						"slot": "8",
						"type": "t_uint256"
					},
					{
						"astId": 1897,
						"contract": "contracts/StemPayLotteryManager.sol:StemPayLotteryManager",
						"label": "vrfCoordinator",
						"offset": 0,
						"slot": "9",
						"type": "t_address"
					},
					{
						"astId": 1900,
						"contract": "contracts/StemPayLotteryManager.sol:StemPayLotteryManager",
						"label": "allLotteryIds",
						"offset": 0,
						"slot": "10",
						"type": "t_array(t_uint256)dyn_storage"
					},
					{
						"astId": 1904,
						"contract": "contracts/StemPayLotteryManager.sol:StemPayLotteryManager",
						"label": "requestToLottery",
						"offset": 0,
						"slot": "11",
						"type": "t_mapping(t_uint256,t_uint256)"
					}
				],
				"types": {
					"t_address": {
						"encoding": "inplace",
						"label": "address",
						"numberOfBytes": "20"
					},
					"t_array(t_address)dyn_storage": {
						"base": "t_address",
						"encoding": "dynamic_array",
						"label": "address[]",
						"numberOfBytes": "32"
					},
					"t_array(t_uint256)dyn_storage": {
						"base": "t_uint256",
						"encoding": "dynamic_array",
						"label": "uint256[]",
						"numberOfBytes": "32"
					},
					"t_bool": {
						"encoding": "inplace",
						"label": "bool",
						"numberOfBytes": "1"
					},
					"t_bytes32": {
						"encoding": "inplace",
						"label": "bytes32",
						"numberOfBytes": "32"
					},
					"t_mapping(t_address,t_bool)": {
						"encoding": "mapping",
						"key": "t_address",
						"label": "mapping(address => bool)",
						"numberOfBytes": "32",
						"value": "t_bool"
					},
					"t_mapping(t_address,t_uint256)": {
						"encoding": "mapping",
						"key": "t_address",
						"label": "mapping(address => uint256)",
						"numberOfBytes": "32",
						"value": "t_uint256"
					},
					"t_mapping(t_uint256,t_struct(Lottery)1844_storage)": {
						"encoding": "mapping",
						"key": "t_uint256",
						"label": "mapping(uint256 => struct StemPayLotteryManager.Lottery)",
						"numberOfBytes": "32",
						"value": "t_struct(Lottery)1844_storage"
					},
					"t_mapping(t_uint256,t_uint256)": {
						"encoding": "mapping",
						"key": "t_uint256",
						"label": "mapping(uint256 => uint256)",
						"numberOfBytes": "32",
						"value": "t_uint256"
					},
					"t_struct(Lottery)1844_storage": {
						"encoding": "inplace",
						"label": "struct StemPayLotteryManager.Lottery",
						"members": [
							{
								"astId": 1800,
								"contract": "contracts/StemPayLotteryManager.sol:StemPayLotteryManager",
								"label": "tokenAddress",
								"offset": 0,
								"slot": "0",
								"type": "t_address"
							},
							{
								"astId": 1802,
								"contract": "contracts/StemPayLotteryManager.sol:StemPayLotteryManager",
								"label": "participationFee",
								"offset": 0,
								"slot": "1",
								"type": "t_uint256"
							},
							{
								"astId": 1804,
								"contract": "contracts/StemPayLotteryManager.sol:StemPayLotteryManager",
								"label": "refundableAmount",
								"offset": 0,
								"slot": "2",
								"type": "t_uint256"
							},
							{
								"astId": 1806,
								"contract": "contracts/StemPayLotteryManager.sol:StemPayLotteryManager",
								"label": "maxParticipants",
								"offset": 0,
								"slot": "3",
								"type": "t_uint256"
							},
							{
								"astId": 1808,
								"contract": "contracts/StemPayLotteryManager.sol:StemPayLotteryManager",
								"label": "drawTime",
								"offset": 0,
								"slot": "4",
								"type": "t_uint256"
							},
							{
								"astId": 1810,
								"contract": "contracts/StemPayLotteryManager.sol:StemPayLotteryManager",
								"label": "prizeAmount",
								"offset": 0,
								"slot": "5",
								"type": "t_uint256"
							},
							{
								"astId": 1812,
								"contract": "contracts/StemPayLotteryManager.sol:StemPayLotteryManager",
								"label": "feeToInvestment",
								"offset": 0,
								"slot": "6",
								"type": "t_uint256"
							},
							{
								"astId": 1814,
								"contract": "contracts/StemPayLotteryManager.sol:StemPayLotteryManager",
								"label": "feeToProfit",
								"offset": 0,
								"slot": "7",
								"type": "t_uint256"
							},
							{
								"astId": 1816,
								"contract": "contracts/StemPayLotteryManager.sol:StemPayLotteryManager",
								"label": "isActive",
								"offset": 0,
								"slot": "8",
								"type": "t_bool"
							},
							{
								"astId": 1818,
								"contract": "contracts/StemPayLotteryManager.sol:StemPayLotteryManager",
								"label": "isDrawn",
								"offset": 1,
								"slot": "8",
								"type": "t_bool"
							},
							{
								"astId": 1820,
								"contract": "contracts/StemPayLotteryManager.sol:StemPayLotteryManager",
								"label": "isCancelled",
								"offset": 2,
								"slot": "8",
								"type": "t_bool"
							},
							{
								"astId": 1823,
								"contract": "contracts/StemPayLotteryManager.sol:StemPayLotteryManager",
								"label": "participants",
								"offset": 0,
								"slot": "9",
								"type": "t_array(t_address)dyn_storage"
							},
							{
								"astId": 1825,
								"contract": "contracts/StemPayLotteryManager.sol:StemPayLotteryManager",
								"label": "winner",
								"offset": 0,
								"slot": "10",
								"type": "t_address"
							},
							{
								"astId": 1827,
								"contract": "contracts/StemPayLotteryManager.sol:StemPayLotteryManager",
								"label": "voteCount",
								"offset": 0,
								"slot": "11",
								"type": "t_uint256"
							},
							{
								"astId": 1831,
								"contract": "contracts/StemPayLotteryManager.sol:StemPayLotteryManager",
								"label": "entryCount",
								"offset": 0,
								"slot": "12",
								"type": "t_mapping(t_address,t_uint256)"
							},
							{
								"astId": 1835,
								"contract": "contracts/StemPayLotteryManager.sol:StemPayLotteryManager",
								"label": "hasClaimed",
								"offset": 0,
								"slot": "13",
								"type": "t_mapping(t_address,t_bool)"
							},
							{
								"astId": 1839,
								"contract": "contracts/StemPayLotteryManager.sol:StemPayLotteryManager",
								"label": "hasRefunded",
								"offset": 0,
								"slot": "14",
								"type": "t_mapping(t_address,t_bool)"
							},
							{
								"astId": 1843,
								"contract": "contracts/StemPayLotteryManager.sol:StemPayLotteryManager",
								"label": "hasVotedCancel",
								"offset": 0,
								"slot": "15",
								"type": "t_mapping(t_address,t_bool)"
							}
						],
						"numberOfBytes": "512"
					},
					"t_uint16": {
						"encoding": "inplace",
						"label": "uint16",
						"numberOfBytes": "2"
					},
					"t_uint256": {
						"encoding": "inplace",
						"label": "uint256",
						"numberOfBytes": "32"
					},
					"t_uint32": {
						"encoding": "inplace",
						"label": "uint32",
						"numberOfBytes": "4"
					}
				}
			},
			"userdoc": {
				"kind": "user",
				"methods": {},
				"version": 1
			}
		}
	}
}