{
	"contracts/StemPayLotteryManager.sol": {
		"StemPayLotteryManager": {
			"abi": [
				{
					"inputs": [
						{
							"internalType": "address",
							"name": "target",
							"type": "address"
						}
					],
					"name": "AddressEmptyCode",
					"type": "error"
				},
				{
					"inputs": [
						{
							"internalType": "address",
							"name": "implementation",
							"type": "address"
						}
					],
					"name": "ERC1967InvalidImplementation",
					"type": "error"
				},
				{
					"inputs": [],
					"name": "ERC1967NonPayable",
					"type": "error"
				},
				{
					"inputs": [],
					"name": "FailedCall",
					"type": "error"
				},
				{
					"inputs": [],
					"name": "InvalidInitialization",
					"type": "error"
				},
				{
					"inputs": [],
					"name": "NotInitializing",
					"type": "error"
				},
				{
					"inputs": [
						{
							"internalType": "address",
							"name": "have",
							"type": "address"
						},
						{
							"internalType": "address",
							"name": "want",
							"type": "address"
						}
					],
					"name": "OnlyCoordinatorCanFulfill",
					"type": "error"
				},
				{
					"inputs": [
						{
							"internalType": "address",
							"name": "owner",
							"type": "address"
						}
					],
					"name": "OwnableInvalidOwner",
					"type": "error"
				},
				{
					"inputs": [
						{
							"internalType": "address",
							"name": "account",
							"type": "address"
						}
					],
					"name": "OwnableUnauthorizedAccount",
					"type": "error"
				},
				{
					"inputs": [],
					"name": "UUPSUnauthorizedCallContext",
					"type": "error"
				},
				{
					"inputs": [
						{
							"internalType": "bytes32",
							"name": "slot",
							"type": "bytes32"
						}
					],
					"name": "UUPSUnsupportedProxiableUUID",
					"type": "error"
				},
				{
					"anonymous": false,
					"inputs": [
						{
							"indexed": false,
							"internalType": "uint256",
							"name": "lotteryId",
							"type": "uint256"
						},
						{
							"indexed": false,
							"internalType": "address",
							"name": "user",
							"type": "address"
						}
					],
					"name": "EnteredLottery",
					"type": "event"
				},
				{
					"anonymous": false,
					"inputs": [
						{
							"indexed": false,
							"internalType": "uint64",
							"name": "version",
							"type": "uint64"
						}
					],
					"name": "Initialized",
					"type": "event"
				},
				{
					"anonymous": false,
					"inputs": [
						{
							"indexed": false,
							"internalType": "uint256",
							"name": "lotteryId",
							"type": "uint256"
						}
					],
					"name": "LotteryCancelled",
					"type": "event"
				},
				{
					"anonymous": false,
					"inputs": [
						{
							"indexed": false,
							"internalType": "uint256",
							"name": "lotteryId",
							"type": "uint256"
						}
					],
					"name": "LotteryCreated",
					"type": "event"
				},
				{
					"anonymous": false,
					"inputs": [
						{
							"indexed": false,
							"internalType": "uint256",
							"name": "lotteryId",
							"type": "uint256"
						},
						{
							"indexed": false,
							"internalType": "uint256",
							"name": "requestId",
							"type": "uint256"
						}
					],
					"name": "LotteryDrawRequested",
					"type": "event"
				},
				{
					"anonymous": false,
					"inputs": [
						{
							"indexed": true,
							"internalType": "address",
							"name": "previousOwner",
							"type": "address"
						},
						{
							"indexed": true,
							"internalType": "address",
							"name": "newOwner",
							"type": "address"
						}
					],
					"name": "OwnershipTransferred",
					"type": "event"
				},
				{
					"anonymous": false,
					"inputs": [
						{
							"indexed": true,
							"internalType": "address",
							"name": "implementation",
							"type": "address"
						}
					],
					"name": "Upgraded",
					"type": "event"
				},
				{
					"anonymous": false,
					"inputs": [
						{
							"indexed": false,
							"internalType": "uint256",
							"name": "lotteryId",
							"type": "uint256"
						},
						{
							"indexed": false,
							"internalType": "address",
							"name": "winner",
							"type": "address"
						}
					],
					"name": "WinnerSelected",
					"type": "event"
				},
				{
					"inputs": [],
					"name": "UPGRADE_INTERFACE_VERSION",
					"outputs": [
						{
							"internalType": "string",
							"name": "",
							"type": "string"
						}
					],
					"stateMutability": "view",
					"type": "function"
				},
				{
					"inputs": [],
					"name": "callbackGasLimit",
					"outputs": [
						{
							"internalType": "uint32",
							"name": "",
							"type": "uint32"
						}
					],
					"stateMutability": "view",
					"type": "function"
				},
				{
					"inputs": [
						{
							"internalType": "uint256",
							"name": "_lotteryId",
							"type": "uint256"
						}
					],
					"name": "cancelLottery",
					"outputs": [],
					"stateMutability": "nonpayable",
					"type": "function"
				},
				{
					"inputs": [
						{
							"internalType": "uint256",
							"name": "_lotteryId",
							"type": "uint256"
						}
					],
					"name": "claimPrize",
					"outputs": [],
					"stateMutability": "nonpayable",
					"type": "function"
				},
				{
					"inputs": [
						{
							"internalType": "uint256",
							"name": "_lotteryId",
							"type": "uint256"
						}
					],
					"name": "claimRefund",
					"outputs": [],
					"stateMutability": "nonpayable",
					"type": "function"
				},
				{
					"inputs": [
						{
							"internalType": "uint256",
							"name": "_lotteryId",
							"type": "uint256"
						}
					],
					"name": "clearLotteryData",
					"outputs": [],
					"stateMutability": "nonpayable",
					"type": "function"
				},
				{
					"inputs": [
						{
							"internalType": "address",
							"name": "_tokenAddress",
							"type": "address"
						},
						{
							"internalType": "uint256",
							"name": "_participationFee",
							"type": "uint256"
						},
						{
							"internalType": "uint256",
							"name": "_refundableAmount",
							"type": "uint256"
						},
						{
							"internalType": "uint256",
							"name": "_maxParticipants",
							"type": "uint256"
						},
						{
							"internalType": "uint256",
							"name": "_drawTime",
							"type": "uint256"
						},
						{
							"internalType": "uint256",
							"name": "_prizeAmount",
							"type": "uint256"
						},
						{
							"internalType": "uint256",
							"name": "_feeToInvestment",
							"type": "uint256"
						},
						{
							"internalType": "uint256",
							"name": "_feeToProfit",
							"type": "uint256"
						}
					],
					"name": "createLottery",
					"outputs": [],
					"stateMutability": "nonpayable",
					"type": "function"
				},
				{
					"inputs": [
						{
							"internalType": "uint256",
							"name": "_lotteryId",
							"type": "uint256"
						}
					],
					"name": "drawWinner",
					"outputs": [],
					"stateMutability": "nonpayable",
					"type": "function"
				},
				{
					"inputs": [
						{
							"internalType": "uint256",
							"name": "_lotteryId",
							"type": "uint256"
						}
					],
					"name": "enterLottery",
					"outputs": [],
					"stateMutability": "nonpayable",
					"type": "function"
				},
				{
					"inputs": [
						{
							"internalType": "uint256",
							"name": "lotteryId",
							"type": "uint256"
						},
						{
							"internalType": "address",
							"name": "user",
							"type": "address"
						}
					],
					"name": "getEntryCount",
					"outputs": [
						{
							"internalType": "uint256",
							"name": "",
							"type": "uint256"
						}
					],
					"stateMutability": "view",
					"type": "function"
				},
				{
					"inputs": [
						{
							"internalType": "uint256",
							"name": "_lotteryId",
							"type": "uint256"
						}
					],
					"name": "getParticipants",
					"outputs": [
						{
							"internalType": "address[]",
							"name": "",
							"type": "address[]"
						}
					],
					"stateMutability": "view",
					"type": "function"
				},
				{
					"inputs": [
						{
							"internalType": "uint256",
							"name": "lotteryId",
							"type": "uint256"
						},
						{
							"internalType": "address",
							"name": "user",
							"type": "address"
						}
					],
					"name": "hasUserClaimed",
					"outputs": [
						{
							"internalType": "bool",
							"name": "",
							"type": "bool"
						}
					],
					"stateMutability": "view",
					"type": "function"
				},
				{
					"inputs": [
						{
							"internalType": "uint256",
							"name": "lotteryId",
							"type": "uint256"
						},
						{
							"internalType": "address",
							"name": "user",
							"type": "address"
						}
					],
					"name": "hasUserRefunded",
					"outputs": [
						{
							"internalType": "bool",
							"name": "",
							"type": "bool"
						}
					],
					"stateMutability": "view",
					"type": "function"
				},
				{
					"inputs": [
						{
							"internalType": "uint256",
							"name": "lotteryId",
							"type": "uint256"
						},
						{
							"internalType": "address",
							"name": "user",
							"type": "address"
						}
					],
					"name": "hasUserVotedCancel",
					"outputs": [
						{
							"internalType": "bool",
							"name": "",
							"type": "bool"
						}
					],
					"stateMutability": "view",
					"type": "function"
				},
				{
					"inputs": [
						{
							"internalType": "address",
							"name": "_vrfCoordinator",
							"type": "address"
						},
						{
							"internalType": "bytes32",
							"name": "_keyHash",
							"type": "bytes32"
						},
						{
							"internalType": "uint256",
							"name": "_subId",
							"type": "uint256"
						},
						{
							"internalType": "address",
							"name": "_investmentWallet",
							"type": "address"
						},
						{
							"internalType": "address",
							"name": "_profitWallet",
							"type": "address"
						}
					],
					"name": "initialize",
					"outputs": [],
					"stateMutability": "nonpayable",
					"type": "function"
				},
				{
					"inputs": [],
					"name": "investmentWallet",
					"outputs": [
						{
							"internalType": "address",
							"name": "",
							"type": "address"
						}
					],
					"stateMutability": "view",
					"type": "function"
				},
				{
					"inputs": [],
					"name": "keyHash",
					"outputs": [
						{
							"internalType": "bytes32",
							"name": "",
							"type": "bytes32"
						}
					],
					"stateMutability": "view",
					"type": "function"
				},
				{
					"inputs": [
						{
							"internalType": "uint256",
							"name": "",
							"type": "uint256"
						}
					],
					"name": "lotteries",
					"outputs": [
						{
							"internalType": "address",
							"name": "tokenAddress",
							"type": "address"
						},
						{
							"internalType": "uint256",
							"name": "participationFee",
							"type": "uint256"
						},
						{
							"internalType": "uint256",
							"name": "refundableAmount",
							"type": "uint256"
						},
						{
							"internalType": "uint256",
							"name": "maxParticipants",
							"type": "uint256"
						},
						{
							"internalType": "uint256",
							"name": "drawTime",
							"type": "uint256"
						},
						{
							"internalType": "uint256",
							"name": "prizeAmount",
							"type": "uint256"
						},
						{
							"internalType": "uint256",
							"name": "feeToInvestment",
							"type": "uint256"
						},
						{
							"internalType": "uint256",
							"name": "feeToProfit",
							"type": "uint256"
						},
						{
							"internalType": "bool",
							"name": "isActive",
							"type": "bool"
						},
						{
							"internalType": "bool",
							"name": "isDrawn",
							"type": "bool"
						},
						{
							"internalType": "bool",
							"name": "isCancelled",
							"type": "bool"
						},
						{
							"internalType": "address",
							"name": "winner",
							"type": "address"
						},
						{
							"internalType": "uint256",
							"name": "voteCount",
							"type": "uint256"
						}
					],
					"stateMutability": "view",
					"type": "function"
				},
				{
					"inputs": [],
					"name": "lotteryCounter",
					"outputs": [
						{
							"internalType": "uint256",
							"name": "",
							"type": "uint256"
						}
					],
					"stateMutability": "view",
					"type": "function"
				},
				{
					"inputs": [
						{
							"internalType": "uint256",
							"name": "fromId",
							"type": "uint256"
						},
						{
							"internalType": "uint256",
							"name": "toId",
							"type": "uint256"
						}
					],
					"name": "migrateToLottery",
					"outputs": [],
					"stateMutability": "nonpayable",
					"type": "function"
				},
				{
					"inputs": [],
					"name": "numWords",
					"outputs": [
						{
							"internalType": "uint32",
							"name": "",
							"type": "uint32"
						}
					],
					"stateMutability": "view",
					"type": "function"
				},
				{
					"inputs": [],
					"name": "owner",
					"outputs": [
						{
							"internalType": "address",
							"name": "",
							"type": "address"
						}
					],
					"stateMutability": "view",
					"type": "function"
				},
				{
					"inputs": [],
					"name": "profitWallet",
					"outputs": [
						{
							"internalType": "address",
							"name": "",
							"type": "address"
						}
					],
					"stateMutability": "view",
					"type": "function"
				},
				{
					"inputs": [],
					"name": "proxiableUUID",
					"outputs": [
						{
							"internalType": "bytes32",
							"name": "",
							"type": "bytes32"
						}
					],
					"stateMutability": "view",
					"type": "function"
				},
				{
					"inputs": [
						{
							"internalType": "uint256",
							"name": "requestId",
							"type": "uint256"
						},
						{
							"internalType": "uint256[]",
							"name": "randomWords",
							"type": "uint256[]"
						}
					],
					"name": "rawFulfillRandomWords",
					"outputs": [],
					"stateMutability": "nonpayable",
					"type": "function"
				},
				{
					"inputs": [],
					"name": "renounceOwnership",
					"outputs": [],
					"stateMutability": "nonpayable",
					"type": "function"
				},
				{
					"inputs": [],
					"name": "requestConfirmations",
					"outputs": [
						{
							"internalType": "uint16",
							"name": "",
							"type": "uint16"
						}
					],
					"stateMutability": "view",
					"type": "function"
				},
				{
					"inputs": [
						{
							"internalType": "uint256",
							"name": "",
							"type": "uint256"
						}
					],
					"name": "requestToLottery",
					"outputs": [
						{
							"internalType": "uint256",
							"name": "",
							"type": "uint256"
						}
					],
					"stateMutability": "view",
					"type": "function"
				},
				{
					"inputs": [],
					"name": "subscriptionId",
					"outputs": [
						{
							"internalType": "uint256",
							"name": "",
							"type": "uint256"
						}
					],
					"stateMutability": "view",
					"type": "function"
				},
				{
					"inputs": [
						{
							"internalType": "uint256",
							"name": "requestId",
							"type": "uint256"
						},
						{
							"internalType": "uint256[]",
							"name": "randomWords",
							"type": "uint256[]"
						}
					],
					"name": "testFulfillRandomWords",
					"outputs": [],
					"stateMutability": "nonpayable",
					"type": "function"
				},
				{
					"inputs": [
						{
							"internalType": "address",
							"name": "newOwner",
							"type": "address"
						}
					],
					"name": "transferOwnership",
					"outputs": [],
					"stateMutability": "nonpayable",
					"type": "function"
				},
				{
					"inputs": [
						{
							"internalType": "address",
							"name": "newImplementation",
							"type": "address"
						},
						{
							"internalType": "bytes",
							"name": "data",
							"type": "bytes"
						}
					],
					"name": "upgradeToAndCall",
					"outputs": [],
					"stateMutability": "payable",
					"type": "function"
				},
				{
					"inputs": [
						{
							"internalType": "uint256",
							"name": "_lotteryId",
							"type": "uint256"
						}
					],
					"name": "voteCancel",
					"outputs": [],
					"stateMutability": "nonpayable",
					"type": "function"
				},
				{
					"inputs": [],
					"name": "vrfCoordinator",
					"outputs": [
						{
							"internalType": "address",
							"name": "",
							"type": "address"
						}
					],
					"stateMutability": "view",
					"type": "function"
				}
			],
			"devdoc": {
				"errors": {
					"AddressEmptyCode(address)": [
						{
							"details": "There's no code at `target` (it is not a contract)."
						}
					],
					"ERC1967InvalidImplementation(address)": [
						{
							"details": "The `implementation` of the proxy is invalid."
						}
					],
					"ERC1967NonPayable()": [
						{
							"details": "An upgrade function sees `msg.value > 0` that may be lost."
						}
					],
					"FailedCall()": [
						{
							"details": "A call to an address target failed. The target may have reverted."
						}
					],
					"InvalidInitialization()": [
						{
							"details": "The contract is already initialized."
						}
					],
					"NotInitializing()": [
						{
							"details": "The contract is not initializing."
						}
					],
					"OwnableInvalidOwner(address)": [
						{
							"details": "The owner is not a valid owner account. (eg. `address(0)`)"
						}
					],
					"OwnableUnauthorizedAccount(address)": [
						{
							"details": "The caller account is not authorized to perform an operation."
						}
					],
					"UUPSUnauthorizedCallContext()": [
						{
							"details": "The call is from an unauthorized context."
						}
					],
					"UUPSUnsupportedProxiableUUID(bytes32)": [
						{
							"details": "The storage `slot` is unsupported as a UUID."
						}
					]
				},
				"events": {
					"Initialized(uint64)": {
						"details": "Triggered when the contract has been initialized or reinitialized."
					},
					"Upgraded(address)": {
						"details": "Emitted when the implementation is upgraded."
					}
				},
				"kind": "dev",
				"methods": {
					"owner()": {
						"details": "Returns the address of the current owner."
					},
					"proxiableUUID()": {
						"details": "Implementation of the ERC-1822 {proxiableUUID} function. This returns the storage slot used by the implementation. It is used to validate the implementation's compatibility when performing an upgrade. IMPORTANT: A proxy pointing at a proxiable contract should not be considered proxiable itself, because this risks bricking a proxy that upgrades to it, by delegating to itself until out of gas. Thus it is critical that this function revert if invoked through a proxy. This is guaranteed by the `notDelegated` modifier."
					},
					"renounceOwnership()": {
						"details": "Leaves the contract without owner. It will not be possible to call `onlyOwner` functions. Can only be called by the current owner. NOTE: Renouncing ownership will leave the contract without an owner, thereby disabling any functionality that is only available to the owner."
					},
					"transferOwnership(address)": {
						"details": "Transfers ownership of the contract to a new account (`newOwner`). Can only be called by the current owner."
					},
					"upgradeToAndCall(address,bytes)": {
						"custom:oz-upgrades-unsafe-allow-reachable": "delegatecall",
						"details": "Upgrade the implementation of the proxy to `newImplementation`, and subsequently execute the function call encoded in `data`. Calls {_authorizeUpgrade}. Emits an {Upgraded} event."
					}
				},
				"version": 1
			},
			"evm": {
				"assembly": "    /* \"contracts/StemPayLotteryManager.sol\":1202:10134  contract StemPayLotteryManager is... */\n  mstore(0x40, 0xa0)\n    /* \"@openzeppelin/contracts-upgradeable/proxy/utils/UUPSUpgradeable.sol\":1171:1175  this */\n  address\n    /* \"@openzeppelin/contracts-upgradeable/proxy/utils/UUPSUpgradeable.sol\":1128:1176  address private immutable __self = address(this) */\n  0x80\n  mstore\n    /* \"contracts/StemPayLotteryManager.sol\":1202:10134  contract StemPayLotteryManager is... */\n  callvalue\n  dup1\n  iszero\n  tag_1\n  jumpi\n  revert(0x00, 0x00)\ntag_1:\n  pop\n    /* \"@openzeppelin/contracts/security/ReentrancyGuard.sol\":1716:1717  1 */\n  0x01\n    /* \"@openzeppelin/contracts/security/ReentrancyGuard.sol\":1821:1828  _status */\n  0x00\n    /* \"@openzeppelin/contracts/security/ReentrancyGuard.sol\":1821:1843  _status = _NOT_ENTERED */\n  sstore\n    /* \"contracts/StemPayLotteryManager.sol\":1202:10134  contract StemPayLotteryManager is... */\n  mload(0x80)\n  codecopy(0x00, dataOffset(sub_0), dataSize(sub_0))\n  0x00\n  assignImmutable(\"0x7e11962f85eb7ceb5b38e296d507e5039b360e5ad6815220a68768366dc10fdd\")\n  return(0x00, dataSize(sub_0))\nstop\n\nsub_0: assembly {\n        /* \"contracts/StemPayLotteryManager.sol\":1202:10134  contract StemPayLotteryManager is... */\n      mstore(0x40, 0x80)\n      jumpi(tag_1, lt(calldatasize, 0x04))\n      shr(0xe0, calldataload(0x00))\n      dup1\n      0x5b7baf64\n      gt\n      tag_36\n      jumpi\n      dup1\n      0xa3e56fa8\n      gt\n      tag_37\n      jumpi\n      dup1\n      0xb6fa37bc\n      gt\n      tag_38\n      jumpi\n      dup1\n      0xb6fa37bc\n      eq\n      tag_31\n      jumpi\n      dup1\n      0xc1e3bd3e\n      eq\n      tag_32\n      jumpi\n      dup1\n      0xc4cd639f\n      eq\n      tag_33\n      jumpi\n      dup1\n      0xd7098154\n      eq\n      tag_34\n      jumpi\n      dup1\n      0xf2fde38b\n      eq\n      tag_35\n      jumpi\n      revert(0x00, 0x00)\n    tag_38:\n      dup1\n      0xa3e56fa8\n      eq\n      tag_27\n      jumpi\n      dup1\n      0xa49a75a5\n      eq\n      tag_28\n      jumpi\n      dup1\n      0xad3cb1cc\n      eq\n      tag_29\n      jumpi\n      dup1\n      0xb0fb162f\n      eq\n      tag_30\n      jumpi\n      revert(0x00, 0x00)\n    tag_37:\n      dup1\n      0x7ccfd7fc\n      gt\n      tag_39\n      jumpi\n      dup1\n      0x7ccfd7fc\n      eq\n      tag_23\n      jumpi\n      dup1\n      0x826d9873\n      eq\n      tag_24\n      jumpi\n      dup1\n      0x82f9d0fb\n      eq\n      tag_25\n      jumpi\n      dup1\n      0x8da5cb5b\n      eq\n      tag_26\n      jumpi\n      revert(0x00, 0x00)\n    tag_39:\n      dup1\n      0x5b7baf64\n      eq\n      tag_19\n      jumpi\n      dup1\n      0x60b2a56a\n      eq\n      tag_20\n      jumpi\n      dup1\n      0x61728f39\n      eq\n      tag_21\n      jumpi\n      dup1\n      0x715018a6\n      eq\n      tag_22\n      jumpi\n      revert(0x00, 0x00)\n    tag_36:\n      dup1\n      0x24f74697\n      gt\n      tag_40\n      jumpi\n      dup1\n      0x4311da37\n      gt\n      tag_41\n      jumpi\n      dup1\n      0x4311da37\n      eq\n      tag_14\n      jumpi\n      dup1\n      0x4538f297\n      eq\n      tag_15\n      jumpi\n      dup1\n      0x4a4a6b4f\n      eq\n      tag_16\n      jumpi\n      dup1\n      0x4f1ef286\n      eq\n      tag_17\n      jumpi\n      dup1\n      0x52d1902d\n      eq\n      tag_18\n      jumpi\n      revert(0x00, 0x00)\n    tag_41:\n      dup1\n      0x24f74697\n      eq\n      tag_10\n      jumpi\n      dup1\n      0x3893f9d5\n      eq\n      tag_11\n      jumpi\n      dup1\n      0x3fd43098\n      eq\n      tag_12\n      jumpi\n      dup1\n      0x3fe6e01e\n      eq\n      tag_13\n      jumpi\n      revert(0x00, 0x00)\n    tag_40:\n      dup1\n      0x1398e076\n      gt\n      tag_42\n      jumpi\n      dup1\n      0x1398e076\n      eq\n      tag_6\n      jumpi\n      dup1\n      0x15c6e123\n      eq\n      tag_7\n      jumpi\n      dup1\n      0x1fe543e3\n      eq\n      tag_8\n      jumpi\n      dup1\n      0x2301d775\n      eq\n      tag_9\n      jumpi\n      revert(0x00, 0x00)\n    tag_42:\n      dup1\n      0x02c4d72b\n      eq\n      tag_2\n      jumpi\n      dup1\n      0x07c7a72d\n      eq\n      tag_3\n      jumpi\n      dup1\n      0x09c1ba2e\n      eq\n      tag_4\n      jumpi\n      dup1\n      0x0af5a263\n      eq\n      tag_5\n      jumpi\n    tag_1:\n      revert(0x00, 0x00)\n        /* \"contracts/StemPayLotteryManager.sol\":9971:10132  function testFulfillRandomWords(uint256 requestId, uint256[] calldata randomWords) external onlyOwner {... */\n    tag_2:\n      callvalue\n      dup1\n      iszero\n      tag_43\n      jumpi\n      revert(0x00, 0x00)\n    tag_43:\n      pop\n      tag_44\n      tag_45\n      calldatasize\n      0x04\n      tag_46\n      jump\t// in\n    tag_45:\n      tag_47\n      jump\t// in\n    tag_44:\n      stop\n        /* \"contracts/StemPayLotteryManager.sol\":9583:9730  function hasUserClaimed(uint256 lotteryId, address user) external view returns (bool) {... */\n    tag_3:\n      callvalue\n      dup1\n      iszero\n      tag_48\n      jumpi\n      revert(0x00, 0x00)\n    tag_48:\n      pop\n      tag_49\n      tag_50\n      calldatasize\n      0x04\n      tag_51\n      jump\t// in\n    tag_50:\n      tag_52\n      jump\t// in\n    tag_49:\n      mload(0x40)\n        /* \"#utility.yul\":1391:1405   */\n      swap1\n      iszero\n        /* \"#utility.yul\":1384:1406   */\n      iszero\n        /* \"#utility.yul\":1366:1407   */\n      dup2\n      mstore\n        /* \"#utility.yul\":1354:1356   */\n      0x20\n        /* \"#utility.yul\":1339:1357   */\n      add\n        /* \"contracts/StemPayLotteryManager.sol\":9583:9730  function hasUserClaimed(uint256 lotteryId, address user) external view returns (bool) {... */\n    tag_53:\n      mload(0x40)\n      dup1\n      swap2\n      sub\n      swap1\n      return\n        /* \"contracts/StemPayLotteryManager.sol\":2269:2298  uint256 public subscriptionId */\n    tag_4:\n      callvalue\n      dup1\n      iszero\n      tag_55\n      jumpi\n      revert(0x00, 0x00)\n    tag_55:\n      pop\n      tag_56\n      sload(0x08)\n      dup2\n      jump\n    tag_56:\n      mload(0x40)\n        /* \"#utility.yul\":1564:1589   */\n      swap1\n      dup2\n      mstore\n        /* \"#utility.yul\":1552:1554   */\n      0x20\n        /* \"#utility.yul\":1537:1555   */\n      add\n        /* \"contracts/StemPayLotteryManager.sol\":2269:2298  uint256 public subscriptionId */\n      tag_53\n        /* \"#utility.yul\":1418:1595   */\n      jump\n        /* \"contracts/StemPayLotteryManager.sol\":2681:3299  function initialize(... */\n    tag_5:\n      callvalue\n      dup1\n      iszero\n      tag_60\n      jumpi\n      revert(0x00, 0x00)\n    tag_60:\n      pop\n      tag_44\n      tag_62\n      calldatasize\n      0x04\n      tag_63\n      jump\t// in\n    tag_62:\n      tag_64\n      jump\t// in\n        /* \"contracts/StemPayLotteryManager.sol\":1980:2024  mapping(uint256 => Lottery) public lotteries */\n    tag_6:\n      callvalue\n      dup1\n      iszero\n      tag_65\n      jumpi\n      revert(0x00, 0x00)\n    tag_65:\n      pop\n      tag_66\n      tag_67\n      calldatasize\n      0x04\n      tag_68\n      jump\t// in\n    tag_67:\n      0x02\n      0x20\n      dup2\n      swap1\n      mstore\n      0x00\n      swap2\n      dup3\n      mstore\n      0x40\n      swap1\n      swap2\n      keccak256\n      dup1\n      sload\n      0x01\n      dup3\n      add\n      sload\n      swap3\n      dup3\n      add\n      sload\n      0x03\n      dup4\n      add\n      sload\n      0x04\n      dup5\n      add\n      sload\n      0x05\n      dup6\n      add\n      sload\n      0x06\n      dup7\n      add\n      sload\n      0x07\n      dup8\n      add\n      sload\n      0x08\n      dup9\n      add\n      sload\n      0x0a\n      dup10\n      add\n      sload\n      0x0b\n      swap1\n      swap10\n      add\n      sload\n      sub(shl(0xa0, 0x01), 0x01)\n      swap9\n      dup10\n      and\n      swap11\n      swap10\n      swap8\n      swap9\n      swap7\n      swap8\n      swap6\n      swap7\n      swap5\n      swap6\n      swap4\n      swap5\n      swap3\n      swap4\n      0xff\n      dup1\n      dup5\n      and\n      swap5\n      0x0100\n      dup6\n      div\n      dup3\n      and\n      swap5\n      0x010000\n      swap1\n      div\n      swap1\n      swap2\n      and\n      swap3\n      swap2\n      and\n      swap1\n      dup14\n      jump\n    tag_66:\n      0x40\n      dup1\n      mload\n      sub(shl(0xa0, 0x01), 0x01)\n        /* \"#utility.yul\":2949:2981   */\n      swap15\n      dup16\n      and\n        /* \"#utility.yul\":2931:2982   */\n      dup2\n      mstore\n        /* \"#utility.yul\":3013:3015   */\n      0x20\n        /* \"#utility.yul\":2998:3016   */\n      dup2\n      add\n        /* \"#utility.yul\":2991:3025   */\n      swap14\n      swap1\n      swap14\n      mstore\n        /* \"#utility.yul\":3041:3059   */\n      dup13\n      add\n        /* \"#utility.yul\":3034:3068   */\n      swap11\n      swap1\n      swap11\n      mstore\n        /* \"#utility.yul\":3099:3101   */\n      0x60\n        /* \"#utility.yul\":3084:3102   */\n      dup12\n      add\n        /* \"#utility.yul\":3077:3111   */\n      swap9\n      swap1\n      swap9\n      mstore\n        /* \"#utility.yul\":3142:3145   */\n      0x80\n        /* \"#utility.yul\":3127:3146   */\n      dup11\n      add\n        /* \"#utility.yul\":3120:3155   */\n      swap7\n      swap1\n      swap7\n      mstore\n        /* \"#utility.yul\":2969:2972   */\n      0xa0\n        /* \"#utility.yul\":3171:3190   */\n      dup10\n      add\n        /* \"#utility.yul\":3164:3199   */\n      swap5\n      swap1\n      swap5\n      mstore\n        /* \"#utility.yul\":3230:3233   */\n      0xc0\n        /* \"#utility.yul\":3215:3234   */\n      dup9\n      add\n        /* \"#utility.yul\":3208:3243   */\n      swap3\n      swap1\n      swap3\n      mstore\n        /* \"#utility.yul\":3274:3277   */\n      0xe0\n        /* \"#utility.yul\":3259:3278   */\n      dup8\n      add\n        /* \"#utility.yul\":3252:3287   */\n      mstore\n        /* \"#utility.yul\":3331:3345   */\n      iszero\n        /* \"#utility.yul\":3324:3346   */\n      iszero\n        /* \"#utility.yul\":3318:3321   */\n      0x0100\n        /* \"#utility.yul\":3303:3322   */\n      dup7\n      add\n        /* \"#utility.yul\":3296:3347   */\n      mstore\n        /* \"#utility.yul\":3391:3405   */\n      iszero\n        /* \"#utility.yul\":3384:3406   */\n      iszero\n        /* \"#utility.yul\":3378:3381   */\n      0x0120\n        /* \"#utility.yul\":3363:3382   */\n      dup6\n      add\n        /* \"#utility.yul\":3356:3407   */\n      mstore\n        /* \"#utility.yul\":3451:3466   */\n      iszero\n        /* \"#utility.yul\":3444:3467   */\n      iszero\n        /* \"#utility.yul\":3438:3441   */\n      0x0140\n        /* \"#utility.yul\":3423:3442   */\n      dup5\n      add\n        /* \"#utility.yul\":3416:3468   */\n      mstore\n        /* \"#utility.yul\":2420:2451   */\n      swap1\n      swap3\n      and\n        /* \"#utility.yul\":3520:3523   */\n      0x0160\n        /* \"#utility.yul\":3505:3524   */\n      dup3\n      add\n        /* \"#utility.yul\":2408:2452   */\n      mstore\n        /* \"#utility.yul\":3556:3559   */\n      0x0180\n        /* \"#utility.yul\":3541:3560   */\n      dup2\n      add\n        /* \"#utility.yul\":3534:3570   */\n      swap2\n      swap1\n      swap2\n      mstore\n        /* \"#utility.yul\":2918:2921   */\n      0x01a0\n        /* \"#utility.yul\":2903:2922   */\n      add\n        /* \"contracts/StemPayLotteryManager.sol\":1980:2024  mapping(uint256 => Lottery) public lotteries */\n      tag_53\n        /* \"#utility.yul\":2463:3576   */\n      jump\n        /* \"contracts/StemPayLotteryManager.sol\":2340:2391  mapping(uint256 => uint256) public requestToLottery */\n    tag_7:\n      callvalue\n      dup1\n      iszero\n      tag_72\n      jumpi\n      revert(0x00, 0x00)\n    tag_72:\n      pop\n      tag_56\n      tag_74\n      calldatasize\n      0x04\n      tag_68\n      jump\t// in\n    tag_74:\n      mstore(0x20, 0x0a)\n      0x00\n      swap1\n      dup2\n      mstore\n      0x40\n      swap1\n      keccak256\n      sload\n      dup2\n      jump\n        /* \"contracts/StemPayLotteryManager.sol\":922:1198  function rawFulfillRandomWords(uint256 requestId, uint256[] memory randomWords) external {... */\n    tag_8:\n      callvalue\n      dup1\n      iszero\n      tag_77\n      jumpi\n      revert(0x00, 0x00)\n    tag_77:\n      pop\n      tag_44\n      tag_79\n      calldatasize\n      0x04\n      tag_80\n      jump\t// in\n    tag_79:\n      tag_81\n      jump\t// in\n        /* \"contracts/StemPayLotteryManager.sol\":2103:2130  address public profitWallet */\n    tag_9:\n      callvalue\n      dup1\n      iszero\n      tag_82\n      jumpi\n      revert(0x00, 0x00)\n    tag_82:\n      pop\n      sload(0x05)\n      tag_83\n      swap1\n      sub(shl(0xa0, 0x01), 0x01)\n      and\n      dup2\n      jump\n    tag_83:\n      mload(0x40)\n      sub(shl(0xa0, 0x01), 0x01)\n        /* \"#utility.yul\":5272:5304   */\n      swap1\n      swap2\n      and\n        /* \"#utility.yul\":5254:5305   */\n      dup2\n      mstore\n        /* \"#utility.yul\":5242:5244   */\n      0x20\n        /* \"#utility.yul\":5227:5245   */\n      add\n        /* \"contracts/StemPayLotteryManager.sol\":2103:2130  address public profitWallet */\n      tag_53\n        /* \"#utility.yul\":5108:5311   */\n      jump\n        /* \"contracts/StemPayLotteryManager.sol\":2165:2195  uint32 public callbackGasLimit */\n    tag_10:\n      callvalue\n      dup1\n      iszero\n      tag_87\n      jumpi\n      revert(0x00, 0x00)\n    tag_87:\n      pop\n      sload(0x07)\n      tag_88\n      swap1\n      0xffffffff\n      and\n      dup2\n      jump\n    tag_88:\n      mload(0x40)\n        /* \"#utility.yul\":5490:5500   */\n      0xffffffff\n        /* \"#utility.yul\":5478:5501   */\n      swap1\n      swap2\n      and\n        /* \"#utility.yul\":5460:5502   */\n      dup2\n      mstore\n        /* \"#utility.yul\":5448:5450   */\n      0x20\n        /* \"#utility.yul\":5433:5451   */\n      add\n        /* \"contracts/StemPayLotteryManager.sol\":2165:2195  uint32 public callbackGasLimit */\n      tag_53\n        /* \"#utility.yul\":5316:5508   */\n      jump\n        /* \"contracts/StemPayLotteryManager.sol\":8371:9267  function migrateToLottery(uint256 fromId, uint256 toId) external nonReentrant {... */\n    tag_11:\n      callvalue\n      dup1\n      iszero\n      tag_92\n      jumpi\n      revert(0x00, 0x00)\n    tag_92:\n      pop\n      tag_44\n      tag_94\n      calldatasize\n      0x04\n      tag_95\n      jump\t// in\n    tag_94:\n      tag_96\n      jump\t// in\n        /* \"contracts/StemPayLotteryManager.sol\":4302:4860  function enterLottery(uint256 _lotteryId) external nonReentrant {... */\n    tag_12:\n      callvalue\n      dup1\n      iszero\n      tag_97\n      jumpi\n      revert(0x00, 0x00)\n    tag_97:\n      pop\n      tag_44\n      tag_99\n      calldatasize\n      0x04\n      tag_68\n      jump\t// in\n    tag_99:\n      tag_100\n      jump\t// in\n        /* \"contracts/StemPayLotteryManager.sol\":9736:9891  function hasUserVotedCancel(uint256 lotteryId, address user) external view returns (bool) {... */\n    tag_13:\n      callvalue\n      dup1\n      iszero\n      tag_101\n      jumpi\n      revert(0x00, 0x00)\n    tag_101:\n      pop\n      tag_49\n      tag_103\n      calldatasize\n      0x04\n      tag_51\n      jump\t// in\n    tag_103:\n        /* \"contracts/StemPayLotteryManager.sol\":9820:9824  bool */\n      0x00\n        /* \"contracts/StemPayLotteryManager.sol\":9843:9863  lotteries[lotteryId] */\n      dup3\n      dup2\n      mstore\n        /* \"contracts/StemPayLotteryManager.sol\":9843:9852  lotteries */\n      0x02\n        /* \"contracts/StemPayLotteryManager.sol\":9843:9863  lotteries[lotteryId] */\n      0x20\n      swap1\n      dup2\n      mstore\n      0x40\n      dup1\n      dup4\n      keccak256\n      sub(shl(0xa0, 0x01), 0x01)\n        /* \"contracts/StemPayLotteryManager.sol\":9843:9884  lotteries[lotteryId].hasVotedCancel[user] */\n      dup6\n      and\n      dup5\n      mstore\n        /* \"contracts/StemPayLotteryManager.sol\":9843:9878  lotteries[lotteryId].hasVotedCancel */\n      0x0f\n      add\n        /* \"contracts/StemPayLotteryManager.sol\":9843:9884  lotteries[lotteryId].hasVotedCancel[user] */\n      swap1\n      swap2\n      mstore\n      swap1\n      keccak256\n      sload\n      0xff\n      and\n        /* \"contracts/StemPayLotteryManager.sol\":9736:9891  function hasUserVotedCancel(uint256 lotteryId, address user) external view returns (bool) {... */\n      swap3\n      swap2\n      pop\n      pop\n      jump\n        /* \"contracts/StemPayLotteryManager.sol\":3377:4296  function createLottery(... */\n    tag_14:\n      callvalue\n      dup1\n      iszero\n      tag_106\n      jumpi\n      revert(0x00, 0x00)\n    tag_106:\n      pop\n      tag_44\n      tag_108\n      calldatasize\n      0x04\n      tag_109\n      jump\t// in\n    tag_108:\n      tag_110\n      jump\t// in\n        /* \"contracts/StemPayLotteryManager.sol\":6966:7227  function cancelLottery(uint256 _lotteryId) external onlyOwner {... */\n    tag_15:\n      callvalue\n      dup1\n      iszero\n      tag_111\n      jumpi\n      revert(0x00, 0x00)\n    tag_111:\n      pop\n      tag_44\n      tag_113\n      calldatasize\n      0x04\n      tag_68\n      jump\t// in\n    tag_113:\n      tag_114\n      jump\t// in\n        /* \"contracts/StemPayLotteryManager.sol\":2030:2059  uint256 public lotteryCounter */\n    tag_16:\n      callvalue\n      dup1\n      iszero\n      tag_115\n      jumpi\n      revert(0x00, 0x00)\n    tag_115:\n      pop\n      tag_56\n      sload(0x03)\n      dup2\n      jump\n        /* \"@openzeppelin/contracts-upgradeable/proxy/utils/UUPSUpgradeable.sol\":4161:4375  function upgradeToAndCall(address newImplementation, bytes memory data) public payable virtual onlyProxy {... */\n    tag_17:\n      tag_44\n      tag_120\n      calldatasize\n      0x04\n      tag_121\n      jump\t// in\n    tag_120:\n      tag_122\n      jump\t// in\n        /* \"@openzeppelin/contracts-upgradeable/proxy/utils/UUPSUpgradeable.sol\":3708:3842  function proxiableUUID() external view virtual notDelegated returns (bytes32) {... */\n    tag_18:\n      callvalue\n      dup1\n      iszero\n      tag_123\n      jumpi\n      revert(0x00, 0x00)\n    tag_123:\n      pop\n      tag_56\n      tag_125\n      jump\t// in\n        /* \"contracts/StemPayLotteryManager.sol\":7233:7745  function claimRefund(uint256 _lotteryId) external nonReentrant {... */\n    tag_19:\n      callvalue\n      dup1\n      iszero\n      tag_128\n      jumpi\n      revert(0x00, 0x00)\n    tag_128:\n      pop\n      tag_44\n      tag_130\n      calldatasize\n      0x04\n      tag_68\n      jump\t// in\n    tag_130:\n      tag_131\n      jump\t// in\n        /* \"contracts/StemPayLotteryManager.sol\":5329:6315  function drawWinner(uint256 _lotteryId) external onlyOwner {... */\n    tag_20:\n      callvalue\n      dup1\n      iszero\n      tag_132\n      jumpi\n      revert(0x00, 0x00)\n    tag_132:\n      pop\n      tag_44\n      tag_134\n      calldatasize\n      0x04\n      tag_68\n      jump\t// in\n    tag_134:\n      tag_135\n      jump\t// in\n        /* \"contracts/StemPayLotteryManager.sol\":2137:2159  bytes32 public keyHash */\n    tag_21:\n      callvalue\n      dup1\n      iszero\n      tag_136\n      jumpi\n      revert(0x00, 0x00)\n    tag_136:\n      pop\n      tag_56\n      sload(0x06)\n      dup2\n      jump\n        /* \"@openzeppelin/contracts-upgradeable/access/OwnableUpgradeable.sol\":3155:3256  function renounceOwnership() public virtual onlyOwner {... */\n    tag_22:\n      callvalue\n      dup1\n      iszero\n      tag_140\n      jumpi\n      revert(0x00, 0x00)\n    tag_140:\n      pop\n      tag_44\n      tag_142\n      jump\t// in\n        /* \"contracts/StemPayLotteryManager.sol\":2241:2263  uint32 public numWords */\n    tag_23:\n      callvalue\n      dup1\n      iszero\n      tag_143\n      jumpi\n      revert(0x00, 0x00)\n    tag_143:\n      pop\n      sload(0x07)\n      tag_88\n      swap1\n      0x01000000000000\n      swap1\n      div\n      0xffffffff\n      and\n      dup2\n      jump\n        /* \"contracts/StemPayLotteryManager.sol\":4866:5323  function voteCancel(uint256 _lotteryId) external {... */\n    tag_24:\n      callvalue\n      dup1\n      iszero\n      tag_147\n      jumpi\n      revert(0x00, 0x00)\n    tag_147:\n      pop\n      tag_44\n      tag_149\n      calldatasize\n      0x04\n      tag_68\n      jump\t// in\n    tag_149:\n      tag_150\n      jump\t// in\n        /* \"contracts/StemPayLotteryManager.sol\":8105:8215  function clearLotteryData(uint256 _lotteryId) external onlyOwner {... */\n    tag_25:\n      callvalue\n      dup1\n      iszero\n      tag_151\n      jumpi\n      revert(0x00, 0x00)\n    tag_151:\n      pop\n      tag_44\n      tag_153\n      calldatasize\n      0x04\n      tag_68\n      jump\t// in\n    tag_153:\n      tag_154\n      jump\t// in\n        /* \"@openzeppelin/contracts-upgradeable/access/OwnableUpgradeable.sol\":2441:2585  function owner() public view virtual returns (address) {... */\n    tag_26:\n      callvalue\n      dup1\n      iszero\n      tag_155\n      jumpi\n      revert(0x00, 0x00)\n    tag_155:\n      pop\n        /* \"@openzeppelin/contracts-upgradeable/access/OwnableUpgradeable.sol\":1313:1335  OwnableStorageLocation */\n      0x9016d09d72d40fdae2fd8ceac6b6234c7706214fd39c1cd1e609a0528c199300\n        /* \"@openzeppelin/contracts-upgradeable/access/OwnableUpgradeable.sol\":2570:2578  $._owner */\n      sload\n      sub(shl(0xa0, 0x01), 0x01)\n      and\n        /* \"@openzeppelin/contracts-upgradeable/access/OwnableUpgradeable.sol\":2441:2585  function owner() public view virtual returns (address) {... */\n      jump(tag_83)\n        /* \"contracts/StemPayLotteryManager.sol\":2304:2333  address public vrfCoordinator */\n    tag_27:\n      callvalue\n      dup1\n      iszero\n      tag_159\n      jumpi\n      revert(0x00, 0x00)\n    tag_159:\n      pop\n      sload(0x09)\n      tag_83\n      swap1\n      sub(shl(0xa0, 0x01), 0x01)\n      and\n      dup2\n      jump\n        /* \"contracts/StemPayLotteryManager.sol\":9273:9422  function getEntryCount(uint256 lotteryId, address user) external view returns (uint256) {... */\n    tag_28:\n      callvalue\n      dup1\n      iszero\n      tag_163\n      jumpi\n      revert(0x00, 0x00)\n    tag_163:\n      pop\n      tag_56\n      tag_165\n      calldatasize\n      0x04\n      tag_51\n      jump\t// in\n    tag_165:\n        /* \"contracts/StemPayLotteryManager.sol\":9352:9359  uint256 */\n      0x00\n        /* \"contracts/StemPayLotteryManager.sol\":9378:9398  lotteries[lotteryId] */\n      dup3\n      dup2\n      mstore\n        /* \"contracts/StemPayLotteryManager.sol\":9378:9387  lotteries */\n      0x02\n        /* \"contracts/StemPayLotteryManager.sol\":9378:9398  lotteries[lotteryId] */\n      0x20\n      swap1\n      dup2\n      mstore\n      0x40\n      dup1\n      dup4\n      keccak256\n      sub(shl(0xa0, 0x01), 0x01)\n        /* \"contracts/StemPayLotteryManager.sol\":9378:9415  lotteries[lotteryId].entryCount[user] */\n      dup6\n      and\n      dup5\n      mstore\n        /* \"contracts/StemPayLotteryManager.sol\":9378:9409  lotteries[lotteryId].entryCount */\n      0x0c\n      add\n        /* \"contracts/StemPayLotteryManager.sol\":9378:9415  lotteries[lotteryId].entryCount[user] */\n      swap1\n      swap2\n      mstore\n      swap1\n      keccak256\n      sload\n        /* \"contracts/StemPayLotteryManager.sol\":9273:9422  function getEntryCount(uint256 lotteryId, address user) external view returns (uint256) {... */\n      swap3\n      swap2\n      pop\n      pop\n      jump\n        /* \"@openzeppelin/contracts-upgradeable/proxy/utils/UUPSUpgradeable.sol\":1819:1877  string public constant UPGRADE_INTERFACE_VERSION = \"5.0.0\" */\n    tag_29:\n      callvalue\n      dup1\n      iszero\n      tag_168\n      jumpi\n      revert(0x00, 0x00)\n    tag_168:\n      pop\n      tag_169\n      mload(0x40)\n      dup1\n      0x40\n      add\n      0x40\n      mstore\n      dup1\n      0x05\n      dup2\n      mstore\n      0x20\n      add\n      shl(0xdc, 0x0352e302e3)\n      dup2\n      mstore\n      pop\n      dup2\n      jump\n    tag_169:\n      mload(0x40)\n      tag_53\n      swap2\n      swap1\n      tag_172\n      jump\t// in\n        /* \"contracts/StemPayLotteryManager.sol\":2201:2235  uint16 public requestConfirmations */\n    tag_30:\n      callvalue\n      dup1\n      iszero\n      tag_173\n      jumpi\n      revert(0x00, 0x00)\n    tag_173:\n      pop\n      sload(0x07)\n      tag_174\n      swap1\n      0x0100000000\n      swap1\n      div\n      0xffff\n      and\n      dup2\n      jump\n    tag_174:\n      mload(0x40)\n        /* \"#utility.yul\":8613:8619   */\n      0xffff\n        /* \"#utility.yul\":8601:8620   */\n      swap1\n      swap2\n      and\n        /* \"#utility.yul\":8583:8621   */\n      dup2\n      mstore\n        /* \"#utility.yul\":8571:8573   */\n      0x20\n        /* \"#utility.yul\":8556:8574   */\n      add\n        /* \"contracts/StemPayLotteryManager.sol\":2201:2235  uint16 public requestConfirmations */\n      tag_53\n        /* \"#utility.yul\":8439:8627   */\n      jump\n        /* \"contracts/StemPayLotteryManager.sol\":2066:2097  address public investmentWallet */\n    tag_31:\n      callvalue\n      dup1\n      iszero\n      tag_178\n      jumpi\n      revert(0x00, 0x00)\n    tag_178:\n      pop\n      sload(0x04)\n      tag_83\n      swap1\n      sub(shl(0xa0, 0x01), 0x01)\n      and\n      dup2\n      jump\n        /* \"contracts/StemPayLotteryManager.sol\":8221:8365  function getParticipants(uint256 _lotteryId) external view returns (address[] memory) {... */\n    tag_32:\n      callvalue\n      dup1\n      iszero\n      tag_182\n      jumpi\n      revert(0x00, 0x00)\n    tag_182:\n      pop\n      tag_183\n      tag_184\n      calldatasize\n      0x04\n      tag_68\n      jump\t// in\n    tag_184:\n      tag_185\n      jump\t// in\n    tag_183:\n      mload(0x40)\n      tag_53\n      swap2\n      swap1\n      tag_187\n      jump\t// in\n        /* \"contracts/StemPayLotteryManager.sol\":9428:9577  function hasUserRefunded(uint256 lotteryId, address user) external view returns (bool) {... */\n    tag_33:\n      callvalue\n      dup1\n      iszero\n      tag_188\n      jumpi\n      revert(0x00, 0x00)\n    tag_188:\n      pop\n      tag_49\n      tag_190\n      calldatasize\n      0x04\n      tag_51\n      jump\t// in\n    tag_190:\n        /* \"contracts/StemPayLotteryManager.sol\":9509:9513  bool */\n      0x00\n        /* \"contracts/StemPayLotteryManager.sol\":9532:9552  lotteries[lotteryId] */\n      dup3\n      dup2\n      mstore\n        /* \"contracts/StemPayLotteryManager.sol\":9532:9541  lotteries */\n      0x02\n        /* \"contracts/StemPayLotteryManager.sol\":9532:9552  lotteries[lotteryId] */\n      0x20\n      swap1\n      dup2\n      mstore\n      0x40\n      dup1\n      dup4\n      keccak256\n      sub(shl(0xa0, 0x01), 0x01)\n        /* \"contracts/StemPayLotteryManager.sol\":9532:9570  lotteries[lotteryId].hasRefunded[user] */\n      dup6\n      and\n      dup5\n      mstore\n        /* \"contracts/StemPayLotteryManager.sol\":9532:9564  lotteries[lotteryId].hasRefunded */\n      0x0e\n      add\n        /* \"contracts/StemPayLotteryManager.sol\":9532:9570  lotteries[lotteryId].hasRefunded[user] */\n      swap1\n      swap2\n      mstore\n      swap1\n      keccak256\n      sload\n      0xff\n      and\n        /* \"contracts/StemPayLotteryManager.sol\":9428:9577  function hasUserRefunded(uint256 lotteryId, address user) external view returns (bool) {... */\n      swap3\n      swap2\n      pop\n      pop\n      jump\n        /* \"contracts/StemPayLotteryManager.sol\":7751:8099  function claimPrize(uint256 _lotteryId) external nonReentrant {... */\n    tag_34:\n      callvalue\n      dup1\n      iszero\n      tag_193\n      jumpi\n      revert(0x00, 0x00)\n    tag_193:\n      pop\n      tag_44\n      tag_195\n      calldatasize\n      0x04\n      tag_68\n      jump\t// in\n    tag_195:\n      tag_196\n      jump\t// in\n        /* \"@openzeppelin/contracts-upgradeable/access/OwnableUpgradeable.sol\":3405:3620  function transferOwnership(address newOwner) public virtual onlyOwner {... */\n    tag_35:\n      callvalue\n      dup1\n      iszero\n      tag_197\n      jumpi\n      revert(0x00, 0x00)\n    tag_197:\n      pop\n      tag_44\n      tag_199\n      calldatasize\n      0x04\n      tag_200\n      jump\t// in\n    tag_199:\n      tag_201\n      jump\t// in\n        /* \"contracts/StemPayLotteryManager.sol\":9971:10132  function testFulfillRandomWords(uint256 requestId, uint256[] calldata randomWords) external onlyOwner {... */\n    tag_47:\n        /* \"@openzeppelin/contracts-upgradeable/access/OwnableUpgradeable.sol\":2334:2347  _checkOwner() */\n      tag_203\n        /* \"@openzeppelin/contracts-upgradeable/access/OwnableUpgradeable.sol\":2334:2345  _checkOwner */\n      tag_204\n        /* \"@openzeppelin/contracts-upgradeable/access/OwnableUpgradeable.sol\":2334:2347  _checkOwner() */\n      jump\t// in\n    tag_203:\n        /* \"contracts/StemPayLotteryManager.sol\":10083:10125  fulfillRandomWords(requestId, randomWords) */\n      tag_206\n        /* \"contracts/StemPayLotteryManager.sol\":10102:10111  requestId */\n      dup4\n        /* \"contracts/StemPayLotteryManager.sol\":10113:10124  randomWords */\n      dup4\n      dup4\n        /* \"contracts/StemPayLotteryManager.sol\":10083:10125  fulfillRandomWords(requestId, randomWords) */\n      dup1\n      dup1\n      0x20\n      mul\n      0x20\n      add\n      mload(0x40)\n      swap1\n      dup2\n      add\n      0x40\n      mstore\n      dup1\n      swap4\n      swap3\n      swap2\n      swap1\n      dup2\n      dup2\n      mstore\n      0x20\n      add\n      dup4\n      dup4\n      0x20\n      mul\n      dup1\n      dup3\n      dup5\n      calldatacopy\n      0x00\n      swap3\n      add\n      swap2\n      swap1\n      swap2\n      mstore\n      pop\n        /* \"contracts/StemPayLotteryManager.sol\":10083:10101  fulfillRandomWords */\n      tag_207\n      swap3\n      pop\n      pop\n      pop\n        /* \"contracts/StemPayLotteryManager.sol\":10083:10125  fulfillRandomWords(requestId, randomWords) */\n      jump\t// in\n    tag_206:\n        /* \"contracts/StemPayLotteryManager.sol\":9971:10132  function testFulfillRandomWords(uint256 requestId, uint256[] calldata randomWords) external onlyOwner {... */\n      pop\n      pop\n      pop\n      jump\t// out\n        /* \"contracts/StemPayLotteryManager.sol\":9583:9730  function hasUserClaimed(uint256 lotteryId, address user) external view returns (bool) {... */\n    tag_52:\n        /* \"contracts/StemPayLotteryManager.sol\":9663:9667  bool */\n      0x00\n        /* \"contracts/StemPayLotteryManager.sol\":9686:9706  lotteries[lotteryId] */\n      dup3\n      dup2\n      mstore\n        /* \"contracts/StemPayLotteryManager.sol\":9686:9695  lotteries */\n      0x02\n        /* \"contracts/StemPayLotteryManager.sol\":9686:9706  lotteries[lotteryId] */\n      0x20\n      swap1\n      dup2\n      mstore\n      0x40\n      dup1\n      dup4\n      keccak256\n      sub(shl(0xa0, 0x01), 0x01)\n        /* \"contracts/StemPayLotteryManager.sol\":9686:9723  lotteries[lotteryId].hasClaimed[user] */\n      dup6\n      and\n      dup5\n      mstore\n        /* \"contracts/StemPayLotteryManager.sol\":9686:9717  lotteries[lotteryId].hasClaimed */\n      0x0d\n      add\n        /* \"contracts/StemPayLotteryManager.sol\":9686:9723  lotteries[lotteryId].hasClaimed[user] */\n      swap1\n      swap2\n      mstore\n      swap1\n      keccak256\n      sload\n      0xff\n      and\n        /* \"contracts/StemPayLotteryManager.sol\":9583:9730  function hasUserClaimed(uint256 lotteryId, address user) external view returns (bool) {... */\n    tag_208:\n      swap3\n      swap2\n      pop\n      pop\n      jump\t// out\n        /* \"contracts/StemPayLotteryManager.sol\":2681:3299  function initialize(... */\n    tag_64:\n        /* \"@openzeppelin/contracts-upgradeable/proxy/utils/Initializable.sol\":4158:4188  InitializableStorage storage $ */\n      0x00\n        /* \"@openzeppelin/contracts-upgradeable/proxy/utils/Initializable.sol\":4191:4217  _getInitializableStorage() */\n      tag_210\n        /* \"@openzeppelin/contracts-upgradeable/proxy/utils/Initializable.sol\":4191:4215  _getInitializableStorage */\n      tag_211\n        /* \"@openzeppelin/contracts-upgradeable/proxy/utils/Initializable.sol\":4191:4217  _getInitializableStorage() */\n      jump\t// in\n    tag_210:\n        /* \"@openzeppelin/contracts-upgradeable/proxy/utils/Initializable.sol\":4302:4317  $._initializing */\n      dup1\n      sload\n        /* \"@openzeppelin/contracts-upgradeable/proxy/utils/Initializable.sol\":4158:4217  InitializableStorage storage $ = _getInitializableStorage() */\n      swap1\n      swap2\n      pop\n        /* \"@openzeppelin/contracts-upgradeable/proxy/utils/Initializable.sol\":4302:4317  $._initializing */\n      0xff\n      shl(0x40, 0x01)\n      dup3\n      div\n      and\n        /* \"@openzeppelin/contracts-upgradeable/proxy/utils/Initializable.sol\":4301:4317  !$._initializing */\n      iszero\n      swap1\n        /* \"@openzeppelin/contracts-upgradeable/proxy/utils/Initializable.sol\":4348:4362  $._initialized */\n      0xffffffffffffffff\n      and\n        /* \"@openzeppelin/contracts-upgradeable/proxy/utils/Initializable.sol\":4279:4298  bool isTopLevelCall */\n      0x00\n        /* \"@openzeppelin/contracts-upgradeable/proxy/utils/Initializable.sol\":4724:4740  initialized == 0 */\n      dup2\n      iszero\n        /* \"@openzeppelin/contracts-upgradeable/proxy/utils/Initializable.sol\":4724:4758  initialized == 0 && isTopLevelCall */\n      dup1\n      iszero\n      tag_212\n      jumpi\n      pop\n        /* \"@openzeppelin/contracts-upgradeable/proxy/utils/Initializable.sol\":4744:4758  isTopLevelCall */\n      dup3\n        /* \"@openzeppelin/contracts-upgradeable/proxy/utils/Initializable.sol\":4724:4758  initialized == 0 && isTopLevelCall */\n    tag_212:\n        /* \"@openzeppelin/contracts-upgradeable/proxy/utils/Initializable.sol\":4704:4758  bool initialSetup = initialized == 0 && isTopLevelCall */\n      swap1\n      pop\n        /* \"@openzeppelin/contracts-upgradeable/proxy/utils/Initializable.sol\":4768:4785  bool construction */\n      0x00\n        /* \"@openzeppelin/contracts-upgradeable/proxy/utils/Initializable.sol\":4788:4799  initialized */\n      dup3\n        /* \"@openzeppelin/contracts-upgradeable/proxy/utils/Initializable.sol\":4788:4804  initialized == 1 */\n      0xffffffffffffffff\n      and\n        /* \"@openzeppelin/contracts-upgradeable/proxy/utils/Initializable.sol\":4803:4804  1 */\n      0x01\n        /* \"@openzeppelin/contracts-upgradeable/proxy/utils/Initializable.sol\":4788:4804  initialized == 1 */\n      eq\n        /* \"@openzeppelin/contracts-upgradeable/proxy/utils/Initializable.sol\":4788:4838  initialized == 1 && address(this).code.length == 0 */\n      dup1\n      iszero\n      tag_213\n      jumpi\n      pop\n        /* \"@openzeppelin/contracts-upgradeable/proxy/utils/Initializable.sol\":4816:4820  this */\n      address\n        /* \"@openzeppelin/contracts-upgradeable/proxy/utils/Initializable.sol\":4808:4833  address(this).code.length */\n      extcodesize\n        /* \"@openzeppelin/contracts-upgradeable/proxy/utils/Initializable.sol\":4808:4838  address(this).code.length == 0 */\n      iszero\n        /* \"@openzeppelin/contracts-upgradeable/proxy/utils/Initializable.sol\":4788:4838  initialized == 1 && address(this).code.length == 0 */\n    tag_213:\n        /* \"@openzeppelin/contracts-upgradeable/proxy/utils/Initializable.sol\":4768:4838  bool construction = initialized == 1 && address(this).code.length == 0 */\n      swap1\n      pop\n        /* \"@openzeppelin/contracts-upgradeable/proxy/utils/Initializable.sol\":4854:4866  initialSetup */\n      dup2\n        /* \"@openzeppelin/contracts-upgradeable/proxy/utils/Initializable.sol\":4853:4866  !initialSetup */\n      iszero\n        /* \"@openzeppelin/contracts-upgradeable/proxy/utils/Initializable.sol\":4853:4883  !initialSetup && !construction */\n      dup1\n      iszero\n      tag_214\n      jumpi\n      pop\n        /* \"@openzeppelin/contracts-upgradeable/proxy/utils/Initializable.sol\":4871:4883  construction */\n      dup1\n        /* \"@openzeppelin/contracts-upgradeable/proxy/utils/Initializable.sol\":4870:4883  !construction */\n      iszero\n        /* \"@openzeppelin/contracts-upgradeable/proxy/utils/Initializable.sol\":4853:4883  !initialSetup && !construction */\n    tag_214:\n        /* \"@openzeppelin/contracts-upgradeable/proxy/utils/Initializable.sol\":4849:4940  if (!initialSetup && !construction) {... */\n      iszero\n      tag_215\n      jumpi\n        /* \"@openzeppelin/contracts-upgradeable/proxy/utils/Initializable.sol\":4906:4929  InvalidInitialization() */\n      mload(0x40)\n      shl(0xe0, 0xf92ee8a9)\n      dup2\n      mstore\n      0x04\n      add\n      mload(0x40)\n      dup1\n      swap2\n      sub\n      swap1\n      revert\n        /* \"@openzeppelin/contracts-upgradeable/proxy/utils/Initializable.sol\":4849:4940  if (!initialSetup && !construction) {... */\n    tag_215:\n        /* \"@openzeppelin/contracts-upgradeable/proxy/utils/Initializable.sol\":4949:4967  $._initialized = 1 */\n      dup5\n      sload\n      not(0xffffffffffffffff)\n      and\n        /* \"@openzeppelin/contracts-upgradeable/proxy/utils/Initializable.sol\":4966:4967  1 */\n      0x01\n        /* \"@openzeppelin/contracts-upgradeable/proxy/utils/Initializable.sol\":4949:4967  $._initialized = 1 */\n      or\n      dup6\n      sstore\n        /* \"@openzeppelin/contracts-upgradeable/proxy/utils/Initializable.sol\":4977:5044  if (isTopLevelCall) {... */\n      dup4\n      iszero\n      tag_216\n      jumpi\n        /* \"@openzeppelin/contracts-upgradeable/proxy/utils/Initializable.sol\":5011:5033  $._initializing = true */\n      dup5\n      sload\n      not(shl(0x40, 0xff))\n      and\n      shl(0x40, 0x01)\n      or\n      dup6\n      sstore\n        /* \"@openzeppelin/contracts-upgradeable/proxy/utils/Initializable.sol\":4977:5044  if (isTopLevelCall) {... */\n    tag_216:\n        /* \"contracts/StemPayLotteryManager.sol\":2887:2913  __Ownable_init(msg.sender) */\n      tag_218\n        /* \"contracts/StemPayLotteryManager.sol\":2902:2912  msg.sender */\n      caller\n        /* \"contracts/StemPayLotteryManager.sol\":2887:2901  __Ownable_init */\n      tag_219\n        /* \"contracts/StemPayLotteryManager.sol\":2887:2913  __Ownable_init(msg.sender) */\n      jump\t// in\n    tag_218:\n        /* \"contracts/StemPayLotteryManager.sol\":2923:2947  __UUPSUpgradeable_init() */\n      tag_220\n        /* \"contracts/StemPayLotteryManager.sol\":2923:2945  __UUPSUpgradeable_init */\n      tag_221\n        /* \"contracts/StemPayLotteryManager.sol\":2923:2947  __UUPSUpgradeable_init() */\n      jump\t// in\n    tag_220:\n        /* \"contracts/StemPayLotteryManager.sol\":2957:3011  __VRFConsumerBaseV2_5Upgradeable_init(_vrfCoordinator) */\n      tag_222\n        /* \"contracts/StemPayLotteryManager.sol\":2995:3010  _vrfCoordinator */\n      dup11\n        /* \"contracts/StemPayLotteryManager.sol\":2957:2994  __VRFConsumerBaseV2_5Upgradeable_init */\n      tag_223\n        /* \"contracts/StemPayLotteryManager.sol\":2957:3011  __VRFConsumerBaseV2_5Upgradeable_init(_vrfCoordinator) */\n      jump\t// in\n    tag_222:\n        /* \"contracts/StemPayLotteryManager.sol\":3022:3036  vrfCoordinator */\n      0x09\n        /* \"contracts/StemPayLotteryManager.sol\":3022:3054  vrfCoordinator = _vrfCoordinator */\n      dup1\n      sload\n      not(sub(shl(0xa0, 0x01), 0x01))\n      swap1\n      dup2\n      and\n      sub(shl(0xa0, 0x01), 0x01)\n      dup14\n      dup2\n      and\n      swap2\n      swap1\n      swap2\n      or\n      swap1\n      swap3\n      sstore\n        /* \"contracts/StemPayLotteryManager.sol\":3064:3071  keyHash */\n      0x06\n        /* \"contracts/StemPayLotteryManager.sol\":3064:3082  keyHash = _keyHash */\n      dup12\n      swap1\n      sstore\n        /* \"contracts/StemPayLotteryManager.sol\":3092:3106  subscriptionId */\n      0x08\n        /* \"contracts/StemPayLotteryManager.sol\":3092:3115  subscriptionId = _subId */\n      dup11\n      swap1\n      sstore\n        /* \"contracts/StemPayLotteryManager.sol\":3125:3141  callbackGasLimit */\n      0x07\n        /* \"contracts/StemPayLotteryManager.sol\":3125:3151  callbackGasLimit = 200_000 */\n      dup1\n      sload\n      not(0xffffffffffffffffffff)\n        /* \"contracts/StemPayLotteryManager.sol\":3195:3207  numWords = 1 */\n      and\n      0x01000300030d40\n      or\n      swap1\n      sstore\n        /* \"contracts/StemPayLotteryManager.sol\":3161:3181  requestConfirmations */\n      0x04\n        /* \"contracts/StemPayLotteryManager.sol\":3218:3254  investmentWallet = _investmentWallet */\n      dup1\n      sload\n      dup3\n      and\n      dup11\n      dup5\n      and\n      or\n      swap1\n      sstore\n      0x05\n        /* \"contracts/StemPayLotteryManager.sol\":3264:3292  profitWallet = _profitWallet */\n      dup1\n      sload\n      swap1\n      swap2\n      and\n      swap2\n      dup9\n      and\n      swap2\n      swap1\n      swap2\n      or\n      swap1\n      sstore\n        /* \"@openzeppelin/contracts-upgradeable/proxy/utils/Initializable.sol\":5064:5165  if (isTopLevelCall) {... */\n      dup4\n      iszero\n      tag_224\n      jumpi\n        /* \"@openzeppelin/contracts-upgradeable/proxy/utils/Initializable.sol\":5098:5121  $._initializing = false */\n      dup5\n      sload\n      not(shl(0x40, 0xff))\n      and\n      dup6\n      sstore\n        /* \"@openzeppelin/contracts-upgradeable/proxy/utils/Initializable.sol\":5140:5154  Initialized(1) */\n      mload(0x40)\n      0x01\n        /* \"#utility.yul\":9618:9668   */\n      dup2\n      mstore\n        /* \"@openzeppelin/contracts-upgradeable/proxy/utils/Initializable.sol\":5140:5154  Initialized(1) */\n      0xc7f505b2f371ae2175ee4913f4499e1f2633a7b5936321eed1cdaeb6115181d2\n      swap1\n        /* \"#utility.yul\":9606:9608   */\n      0x20\n        /* \"#utility.yul\":9591:9609   */\n      add\n        /* \"@openzeppelin/contracts-upgradeable/proxy/utils/Initializable.sol\":5140:5154  Initialized(1) */\n      mload(0x40)\n      dup1\n      swap2\n      sub\n      swap1\n      log1\n        /* \"@openzeppelin/contracts-upgradeable/proxy/utils/Initializable.sol\":5064:5165  if (isTopLevelCall) {... */\n    tag_224:\n        /* \"@openzeppelin/contracts-upgradeable/proxy/utils/Initializable.sol\":4092:5171  {... */\n      pop\n      pop\n      pop\n      pop\n      pop\n        /* \"contracts/StemPayLotteryManager.sol\":2681:3299  function initialize(... */\n      pop\n      pop\n      pop\n      pop\n      pop\n      jump\t// out\n        /* \"contracts/StemPayLotteryManager.sol\":922:1198  function rawFulfillRandomWords(uint256 requestId, uint256[] memory randomWords) external {... */\n    tag_81:\n        /* \"contracts/StemPayLotteryManager.sol\":1039:1053  vrfCoordinator */\n      and(sub(shl(0xa0, 0x01), 0x01), sload(0x01))\n        /* \"contracts/StemPayLotteryManager.sol\":1025:1035  msg.sender */\n      caller\n        /* \"contracts/StemPayLotteryManager.sol\":1025:1053  msg.sender != vrfCoordinator */\n      eq\n        /* \"contracts/StemPayLotteryManager.sol\":1021:1140  if (msg.sender != vrfCoordinator) {... */\n      tag_228\n      jumpi\n        /* \"contracts/StemPayLotteryManager.sol\":1114:1128  vrfCoordinator */\n      sload(0x01)\n        /* \"contracts/StemPayLotteryManager.sol\":1076:1129  OnlyCoordinatorCanFulfill(msg.sender, vrfCoordinator) */\n      mload(0x40)\n      shl(0xe2, 0x073e64fd)\n      dup2\n      mstore\n        /* \"contracts/StemPayLotteryManager.sol\":1102:1112  msg.sender */\n      caller\n        /* \"contracts/StemPayLotteryManager.sol\":1076:1129  OnlyCoordinatorCanFulfill(msg.sender, vrfCoordinator) */\n      0x04\n      dup3\n      add\n        /* \"#utility.yul\":9853:9904   */\n      mstore\n      sub(shl(0xa0, 0x01), 0x01)\n        /* \"contracts/StemPayLotteryManager.sol\":1114:1128  vrfCoordinator */\n      swap1\n      swap2\n      and\n        /* \"#utility.yul\":9920:9938   */\n      0x24\n      dup3\n      add\n        /* \"#utility.yul\":9913:9973   */\n      mstore\n        /* \"#utility.yul\":9826:9844   */\n      0x44\n      add\n        /* \"contracts/StemPayLotteryManager.sol\":1076:1129  OnlyCoordinatorCanFulfill(msg.sender, vrfCoordinator) */\n    tag_229:\n      mload(0x40)\n      dup1\n      swap2\n      sub\n      swap1\n      revert\n        /* \"contracts/StemPayLotteryManager.sol\":1021:1140  if (msg.sender != vrfCoordinator) {... */\n    tag_228:\n        /* \"contracts/StemPayLotteryManager.sol\":1149:1191  fulfillRandomWords(requestId, randomWords) */\n      tag_231\n        /* \"contracts/StemPayLotteryManager.sol\":1168:1177  requestId */\n      dup3\n        /* \"contracts/StemPayLotteryManager.sol\":1179:1190  randomWords */\n      dup3\n        /* \"contracts/StemPayLotteryManager.sol\":1149:1167  fulfillRandomWords */\n      tag_207\n        /* \"contracts/StemPayLotteryManager.sol\":1149:1191  fulfillRandomWords(requestId, randomWords) */\n      jump\t// in\n    tag_231:\n        /* \"contracts/StemPayLotteryManager.sol\":922:1198  function rawFulfillRandomWords(uint256 requestId, uint256[] memory randomWords) external {... */\n      pop\n      pop\n      jump\t// out\n        /* \"contracts/StemPayLotteryManager.sol\":8371:9267  function migrateToLottery(uint256 fromId, uint256 toId) external nonReentrant {... */\n    tag_96:\n        /* \"@openzeppelin/contracts/security/ReentrancyGuard.sol\":2261:2282  _nonReentrantBefore() */\n      tag_233\n        /* \"@openzeppelin/contracts/security/ReentrancyGuard.sol\":2261:2280  _nonReentrantBefore */\n      tag_234\n        /* \"@openzeppelin/contracts/security/ReentrancyGuard.sol\":2261:2282  _nonReentrantBefore() */\n      jump\t// in\n    tag_233:\n        /* \"contracts/StemPayLotteryManager.sol\":8459:8480  Lottery storage fromL */\n      0x00\n        /* \"contracts/StemPayLotteryManager.sol\":8483:8500  lotteries[fromId] */\n      dup3\n      dup2\n      mstore\n        /* \"contracts/StemPayLotteryManager.sol\":8483:8492  lotteries */\n      0x02\n        /* \"contracts/StemPayLotteryManager.sol\":8483:8500  lotteries[fromId] */\n      0x20\n      swap1\n      dup2\n      mstore\n      0x40\n      dup1\n      dup4\n      keccak256\n        /* \"contracts/StemPayLotteryManager.sol\":8532:8547  lotteries[toId] */\n      dup5\n      dup5\n      mstore\n      dup2\n      dup5\n      keccak256\n        /* \"contracts/StemPayLotteryManager.sol\":8583:8593  msg.sender */\n      caller\n        /* \"contracts/StemPayLotteryManager.sol\":8566:8594  fromL.entryCount[msg.sender] */\n      dup6\n      mstore\n        /* \"contracts/StemPayLotteryManager.sol\":8566:8582  fromL.entryCount */\n      0x0c\n      dup3\n      add\n        /* \"contracts/StemPayLotteryManager.sol\":8566:8594  fromL.entryCount[msg.sender] */\n      swap1\n      swap4\n      mstore\n      swap3\n      keccak256\n      sload\n        /* \"contracts/StemPayLotteryManager.sol\":8558:8613  require(fromL.entryCount[msg.sender] > 0, \"Not in old\") */\n      tag_236\n      jumpi\n      mload(0x40)\n      shl(0xe5, 0x461bcd)\n      dup2\n      mstore\n        /* \"#utility.yul\":10186:10188   */\n      0x20\n        /* \"contracts/StemPayLotteryManager.sol\":8558:8613  require(fromL.entryCount[msg.sender] > 0, \"Not in old\") */\n      0x04\n      dup3\n      add\n        /* \"#utility.yul\":10168:10189   */\n      mstore\n        /* \"#utility.yul\":10225:10227   */\n      0x0a\n        /* \"#utility.yul\":10205:10223   */\n      0x24\n      dup3\n      add\n        /* \"#utility.yul\":10198:10228   */\n      mstore\n      shl(0xb2, 0x139bdd081a5b881bdb19)\n        /* \"#utility.yul\":10244:10262   */\n      0x44\n      dup3\n      add\n        /* \"#utility.yul\":10237:10277   */\n      mstore\n        /* \"#utility.yul\":10294:10312   */\n      0x64\n      add\n        /* \"contracts/StemPayLotteryManager.sol\":8558:8613  require(fromL.entryCount[msg.sender] > 0, \"Not in old\") */\n      tag_229\n        /* \"#utility.yul\":9984:10318   */\n      jump\n        /* \"contracts/StemPayLotteryManager.sol\":8558:8613  require(fromL.entryCount[msg.sender] > 0, \"Not in old\") */\n    tag_236:\n        /* \"contracts/StemPayLotteryManager.sol\":8650:8660  msg.sender */\n      caller\n        /* \"contracts/StemPayLotteryManager.sol\":8632:8661  fromL.hasRefunded[msg.sender] */\n      0x00\n      swap1\n      dup2\n      mstore\n        /* \"contracts/StemPayLotteryManager.sol\":8632:8649  fromL.hasRefunded */\n      0x0e\n      dup4\n      add\n        /* \"contracts/StemPayLotteryManager.sol\":8632:8661  fromL.hasRefunded[msg.sender] */\n      0x20\n      mstore\n      0x40\n      swap1\n      keccak256\n      sload\n      0xff\n      and\n        /* \"contracts/StemPayLotteryManager.sol\":8631:8661  !fromL.hasRefunded[msg.sender] */\n      iszero\n        /* \"contracts/StemPayLotteryManager.sol\":8623:8682  require(!fromL.hasRefunded[msg.sender], \"Refunded already\") */\n      tag_239\n      jumpi\n      mload(0x40)\n      shl(0xe5, 0x461bcd)\n      dup2\n      mstore\n        /* \"#utility.yul\":10525:10527   */\n      0x20\n        /* \"contracts/StemPayLotteryManager.sol\":8623:8682  require(!fromL.hasRefunded[msg.sender], \"Refunded already\") */\n      0x04\n      dup3\n      add\n        /* \"#utility.yul\":10507:10528   */\n      mstore\n        /* \"#utility.yul\":10564:10566   */\n      0x10\n        /* \"#utility.yul\":10544:10562   */\n      0x24\n      dup3\n      add\n        /* \"#utility.yul\":10537:10567   */\n      mstore\n      shl(0x80, 0x526566756e64656420616c7265616479)\n        /* \"#utility.yul\":10583:10601   */\n      0x44\n      dup3\n      add\n        /* \"#utility.yul\":10576:10622   */\n      mstore\n        /* \"#utility.yul\":10639:10657   */\n      0x64\n      add\n        /* \"contracts/StemPayLotteryManager.sol\":8623:8682  require(!fromL.hasRefunded[msg.sender], \"Refunded already\") */\n      tag_229\n        /* \"#utility.yul\":10323:10663   */\n      jump\n        /* \"contracts/StemPayLotteryManager.sol\":8623:8682  require(!fromL.hasRefunded[msg.sender], \"Refunded already\") */\n    tag_239:\n        /* \"contracts/StemPayLotteryManager.sol\":8700:8717  fromL.isCancelled */\n      0x08\n      dup3\n      add\n      sload\n      0x010000\n      swap1\n      div\n      0xff\n      and\n      dup1\n        /* \"contracts/StemPayLotteryManager.sol\":8700:8766  fromL.isCancelled || (fromL.isDrawn && fromL.winner != msg.sender) */\n      tag_243\n      jumpi\n      pop\n        /* \"contracts/StemPayLotteryManager.sol\":8722:8735  fromL.isDrawn */\n      0x08\n      dup3\n      add\n      sload\n      0x0100\n      swap1\n      div\n      0xff\n      and\n        /* \"contracts/StemPayLotteryManager.sol\":8722:8765  fromL.isDrawn && fromL.winner != msg.sender */\n      dup1\n      iszero\n      tag_243\n      jumpi\n      pop\n        /* \"contracts/StemPayLotteryManager.sol\":8739:8751  fromL.winner */\n      0x0a\n      dup3\n      add\n      sload\n      sub(shl(0xa0, 0x01), 0x01)\n      and\n        /* \"contracts/StemPayLotteryManager.sol\":8755:8765  msg.sender */\n      caller\n        /* \"contracts/StemPayLotteryManager.sol\":8739:8765  fromL.winner != msg.sender */\n      eq\n      iszero\n        /* \"contracts/StemPayLotteryManager.sol\":8722:8765  fromL.isDrawn && fromL.winner != msg.sender */\n    tag_243:\n        /* \"contracts/StemPayLotteryManager.sol\":8692:8787  require(fromL.isCancelled || (fromL.isDrawn && fromL.winner != msg.sender), \"Old not eligible\") */\n      tag_244\n      jumpi\n      mload(0x40)\n      shl(0xe5, 0x461bcd)\n      dup2\n      mstore\n        /* \"#utility.yul\":10870:10872   */\n      0x20\n        /* \"contracts/StemPayLotteryManager.sol\":8692:8787  require(fromL.isCancelled || (fromL.isDrawn && fromL.winner != msg.sender), \"Old not eligible\") */\n      0x04\n      dup3\n      add\n        /* \"#utility.yul\":10852:10873   */\n      mstore\n        /* \"#utility.yul\":10909:10911   */\n      0x10\n        /* \"#utility.yul\":10889:10907   */\n      0x24\n      dup3\n      add\n        /* \"#utility.yul\":10882:10912   */\n      mstore\n      shl(0x80, 0x4f6c64206e6f7420656c696769626c65)\n        /* \"#utility.yul\":10928:10946   */\n      0x44\n      dup3\n      add\n        /* \"#utility.yul\":10921:10967   */\n      mstore\n        /* \"#utility.yul\":10984:11002   */\n      0x64\n      add\n        /* \"contracts/StemPayLotteryManager.sol\":8692:8787  require(fromL.isCancelled || (fromL.isDrawn && fromL.winner != msg.sender), \"Old not eligible\") */\n      tag_229\n        /* \"#utility.yul\":10668:11008   */\n      jump\n        /* \"contracts/StemPayLotteryManager.sol\":8692:8787  require(fromL.isCancelled || (fromL.isDrawn && fromL.winner != msg.sender), \"Old not eligible\") */\n    tag_244:\n        /* \"contracts/StemPayLotteryManager.sol\":8806:8818  toL.isActive */\n      0x08\n      dup2\n      add\n      sload\n      0xff\n      and\n        /* \"contracts/StemPayLotteryManager.sol\":8806:8838  toL.isActive && !toL.isCancelled */\n      dup1\n      iszero\n      tag_247\n      jumpi\n      pop\n        /* \"contracts/StemPayLotteryManager.sol\":8823:8838  toL.isCancelled */\n      0x08\n      dup2\n      add\n      sload\n      0x010000\n      swap1\n      div\n      0xff\n      and\n        /* \"contracts/StemPayLotteryManager.sol\":8822:8838  !toL.isCancelled */\n      iszero\n        /* \"contracts/StemPayLotteryManager.sol\":8806:8838  toL.isActive && !toL.isCancelled */\n    tag_247:\n        /* \"contracts/StemPayLotteryManager.sol\":8798:8863  require(toL.isActive && !toL.isCancelled, \"New lottery inactive\") */\n      tag_248\n      jumpi\n      mload(0x40)\n      shl(0xe5, 0x461bcd)\n      dup2\n      mstore\n        /* \"#utility.yul\":11215:11217   */\n      0x20\n        /* \"contracts/StemPayLotteryManager.sol\":8798:8863  require(toL.isActive && !toL.isCancelled, \"New lottery inactive\") */\n      0x04\n      dup3\n      add\n        /* \"#utility.yul\":11197:11218   */\n      mstore\n        /* \"#utility.yul\":11254:11256   */\n      0x14\n        /* \"#utility.yul\":11234:11252   */\n      0x24\n      dup3\n      add\n        /* \"#utility.yul\":11227:11257   */\n      mstore\n      shl(0x60, 0x4e6577206c6f747465727920696e616374697665)\n        /* \"#utility.yul\":11273:11291   */\n      0x44\n      dup3\n      add\n        /* \"#utility.yul\":11266:11316   */\n      mstore\n        /* \"#utility.yul\":11333:11351   */\n      0x64\n      add\n        /* \"contracts/StemPayLotteryManager.sol\":8798:8863  require(toL.isActive && !toL.isCancelled, \"New lottery inactive\") */\n      tag_229\n        /* \"#utility.yul\":11013:11357   */\n      jump\n        /* \"contracts/StemPayLotteryManager.sol\":8798:8863  require(toL.isActive && !toL.isCancelled, \"New lottery inactive\") */\n    tag_248:\n        /* \"contracts/StemPayLotteryManager.sol\":8899:8902  toL */\n      dup1\n        /* \"contracts/StemPayLotteryManager.sol\":8899:8911  toL.drawTime */\n      0x04\n      add\n      sload\n        /* \"contracts/StemPayLotteryManager.sol\":8881:8896  block.timestamp */\n      timestamp\n        /* \"contracts/StemPayLotteryManager.sol\":8881:8911  block.timestamp < toL.drawTime */\n      lt\n        /* \"contracts/StemPayLotteryManager.sol\":8873:8932  require(block.timestamp < toL.drawTime, \"Too late for new\") */\n      tag_251\n      jumpi\n      mload(0x40)\n      shl(0xe5, 0x461bcd)\n      dup2\n      mstore\n        /* \"#utility.yul\":11564:11566   */\n      0x20\n        /* \"contracts/StemPayLotteryManager.sol\":8873:8932  require(block.timestamp < toL.drawTime, \"Too late for new\") */\n      0x04\n      dup3\n      add\n        /* \"#utility.yul\":11546:11567   */\n      mstore\n        /* \"#utility.yul\":11603:11605   */\n      0x10\n        /* \"#utility.yul\":11583:11601   */\n      0x24\n      dup3\n      add\n        /* \"#utility.yul\":11576:11606   */\n      mstore\n      shl(0x80, 0x546f6f206c61746520666f72206e6577)\n        /* \"#utility.yul\":11622:11640   */\n      0x44\n      dup3\n      add\n        /* \"#utility.yul\":11615:11661   */\n      mstore\n        /* \"#utility.yul\":11678:11696   */\n      0x64\n      add\n        /* \"contracts/StemPayLotteryManager.sol\":8873:8932  require(block.timestamp < toL.drawTime, \"Too late for new\") */\n      tag_229\n        /* \"#utility.yul\":11362:11702   */\n      jump\n        /* \"contracts/StemPayLotteryManager.sol\":8873:8932  require(block.timestamp < toL.drawTime, \"Too late for new\") */\n    tag_251:\n        /* \"contracts/StemPayLotteryManager.sol\":8961:8971  msg.sender */\n      caller\n        /* \"contracts/StemPayLotteryManager.sol\":8943:8972  fromL.hasRefunded[msg.sender] */\n      0x00\n      swap1\n      dup2\n      mstore\n        /* \"contracts/StemPayLotteryManager.sol\":8943:8960  fromL.hasRefunded */\n      0x0e\n      dup4\n      add\n        /* \"contracts/StemPayLotteryManager.sol\":8943:8972  fromL.hasRefunded[msg.sender] */\n      0x20\n      mstore\n      0x40\n      dup2\n      keccak256\n        /* \"contracts/StemPayLotteryManager.sol\":8943:8979  fromL.hasRefunded[msg.sender] = true */\n      dup1\n      sload\n      not(0xff)\n      and\n        /* \"contracts/StemPayLotteryManager.sol\":8975:8979  true */\n      0x01\n        /* \"contracts/StemPayLotteryManager.sol\":8943:8979  fromL.hasRefunded[msg.sender] = true */\n      swap1\n      dup2\n      or\n      swap1\n      swap2\n      sstore\n        /* \"contracts/StemPayLotteryManager.sol\":9029:9049  toL.refundableAmount */\n      0x02\n      dup4\n      add\n      sload\n        /* \"contracts/StemPayLotteryManager.sol\":9006:9026  toL.participationFee */\n      swap1\n      dup4\n      add\n      sload\n        /* \"contracts/StemPayLotteryManager.sol\":9006:9049  toL.participationFee - toL.refundableAmount */\n      tag_254\n      swap2\n        /* \"contracts/StemPayLotteryManager.sol\":9029:9049  toL.refundableAmount */\n      swap1\n        /* \"contracts/StemPayLotteryManager.sol\":9006:9049  toL.participationFee - toL.refundableAmount */\n      tag_255\n      jump\t// in\n    tag_254:\n        /* \"contracts/StemPayLotteryManager.sol\":9066:9082  toL.tokenAddress */\n      dup3\n      sload\n        /* \"contracts/StemPayLotteryManager.sol\":9059:9130  IERC20(toL.tokenAddress).transferFrom(msg.sender, address(this), topUp) */\n      mload(0x40)\n      shl(0xe0, 0x23b872dd)\n      dup2\n      mstore\n        /* \"contracts/StemPayLotteryManager.sol\":9097:9107  msg.sender */\n      caller\n        /* \"contracts/StemPayLotteryManager.sol\":9059:9130  IERC20(toL.tokenAddress).transferFrom(msg.sender, address(this), topUp) */\n      0x04\n      dup3\n      add\n        /* \"#utility.yul\":12174:12225   */\n      mstore\n        /* \"contracts/StemPayLotteryManager.sol\":9117:9121  this */\n      address\n        /* \"#utility.yul\":12241:12259   */\n      0x24\n      dup3\n      add\n        /* \"#utility.yul\":12234:12294   */\n      mstore\n        /* \"#utility.yul\":12310:12328   */\n      0x44\n      dup2\n      add\n        /* \"#utility.yul\":12303:12337   */\n      dup4\n      swap1\n      mstore\n        /* \"contracts/StemPayLotteryManager.sol\":8990:9049  uint256 topUp = toL.participationFee - toL.refundableAmount */\n      swap2\n      swap3\n      pop\n      sub(shl(0xa0, 0x01), 0x01)\n        /* \"contracts/StemPayLotteryManager.sol\":9066:9082  toL.tokenAddress */\n      and\n      swap1\n        /* \"contracts/StemPayLotteryManager.sol\":9059:9096  IERC20(toL.tokenAddress).transferFrom */\n      0x23b872dd\n      swap1\n        /* \"#utility.yul\":12147:12165   */\n      0x64\n      add\n        /* \"contracts/StemPayLotteryManager.sol\":9059:9130  IERC20(toL.tokenAddress).transferFrom(msg.sender, address(this), topUp) */\n      0x20\n      mload(0x40)\n      dup1\n      dup4\n      sub\n      dup2\n      0x00\n      dup8\n      gas\n      call\n      iszero\n      dup1\n      iszero\n      tag_259\n      jumpi\n      returndatacopy(0x00, 0x00, returndatasize)\n      revert(0x00, returndatasize)\n    tag_259:\n      pop\n      pop\n      pop\n      pop\n      mload(0x40)\n      returndatasize\n      not(0x1f)\n      0x1f\n      dup3\n      add\n      and\n      dup3\n      add\n      dup1\n      0x40\n      mstore\n      pop\n      dup2\n      add\n      swap1\n      tag_260\n      swap2\n      swap1\n      tag_261\n      jump\t// in\n    tag_260:\n      pop\n        /* \"contracts/StemPayLotteryManager.sol\":9141:9157  toL.participants */\n      0x09\n      dup3\n      add\n        /* \"contracts/StemPayLotteryManager.sol\":9141:9174  toL.participants.push(msg.sender) */\n      dup1\n      sload\n      0x01\n      dup2\n      add\n      dup3\n      sstore\n      0x00\n      swap2\n      dup3\n      mstore\n      0x20\n      dup1\n      dup4\n      keccak256\n      swap1\n      swap2\n      add\n      dup1\n      sload\n      not(sub(shl(0xa0, 0x01), 0x01))\n      and\n        /* \"contracts/StemPayLotteryManager.sol\":9163:9173  msg.sender */\n      caller\n        /* \"contracts/StemPayLotteryManager.sol\":9141:9174  toL.participants.push(msg.sender) */\n      swap1\n      dup2\n      or\n      swap1\n      swap2\n      sstore\n        /* \"contracts/StemPayLotteryManager.sol\":9184:9210  toL.entryCount[msg.sender] */\n      dup3\n      mstore\n        /* \"contracts/StemPayLotteryManager.sol\":9184:9198  toL.entryCount */\n      0x0c\n      dup5\n      add\n        /* \"contracts/StemPayLotteryManager.sol\":9184:9210  toL.entryCount[msg.sender] */\n      swap1\n      mstore\n      0x40\n      dup2\n      keccak256\n        /* \"contracts/StemPayLotteryManager.sol\":9184:9212  toL.entryCount[msg.sender]++ */\n      dup1\n      sload\n      swap2\n      tag_263\n      dup4\n      tag_264\n      jump\t// in\n    tag_263:\n      swap1\n      swap2\n      sstore\n      pop\n      pop\n        /* \"contracts/StemPayLotteryManager.sol\":9228:9260  EnteredLottery(toId, msg.sender) */\n      0x40\n      dup1\n      mload\n        /* \"#utility.yul\":12944:12969   */\n      dup6\n      dup2\n      mstore\n        /* \"contracts/StemPayLotteryManager.sol\":9249:9259  msg.sender */\n      caller\n        /* \"#utility.yul\":13000:13002   */\n      0x20\n        /* \"#utility.yul\":12985:13003   */\n      dup3\n      add\n        /* \"#utility.yul\":12978:13038   */\n      mstore\n        /* \"contracts/StemPayLotteryManager.sol\":9228:9260  EnteredLottery(toId, msg.sender) */\n      0x1e28857182a3b2bb6fbb88287d1ba8cc3a941dd65d4c977286676d27b877a3d9\n      swap2\n        /* \"#utility.yul\":12917:12935   */\n      add\n        /* \"contracts/StemPayLotteryManager.sol\":9228:9260  EnteredLottery(toId, msg.sender) */\n      mload(0x40)\n      dup1\n      swap2\n      sub\n      swap1\n      log1\n        /* \"contracts/StemPayLotteryManager.sol\":8449:9267  {... */\n      pop\n      pop\n      pop\n        /* \"@openzeppelin/contracts/security/ReentrancyGuard.sol\":2303:2323  _nonReentrantAfter() */\n      tag_231\n        /* \"@openzeppelin/contracts/security/ReentrancyGuard.sol\":1716:1717  1 */\n      0x01\n        /* \"@openzeppelin/contracts/security/ReentrancyGuard.sol\":2809:2816  _status */\n      0x00\n        /* \"@openzeppelin/contracts/security/ReentrancyGuard.sol\":2809:2831  _status = _NOT_ENTERED */\n      sstore\n        /* \"@openzeppelin/contracts/security/ReentrancyGuard.sol\":2629:2838  function _nonReentrantAfter() private {... */\n      jump\n        /* \"contracts/StemPayLotteryManager.sol\":4302:4860  function enterLottery(uint256 _lotteryId) external nonReentrant {... */\n    tag_100:\n        /* \"@openzeppelin/contracts/security/ReentrancyGuard.sol\":2261:2282  _nonReentrantBefore() */\n      tag_270\n        /* \"@openzeppelin/contracts/security/ReentrancyGuard.sol\":2261:2280  _nonReentrantBefore */\n      tag_234\n        /* \"@openzeppelin/contracts/security/ReentrancyGuard.sol\":2261:2282  _nonReentrantBefore() */\n      jump\t// in\n    tag_270:\n        /* \"contracts/StemPayLotteryManager.sol\":4376:4393  Lottery storage l */\n      0x00\n        /* \"contracts/StemPayLotteryManager.sol\":4396:4417  lotteries[_lotteryId] */\n      dup2\n      dup2\n      mstore\n        /* \"contracts/StemPayLotteryManager.sol\":4396:4405  lotteries */\n      0x02\n        /* \"contracts/StemPayLotteryManager.sol\":4396:4417  lotteries[_lotteryId] */\n      0x20\n      mstore\n      0x40\n      swap1\n      keccak256\n        /* \"contracts/StemPayLotteryManager.sol\":4435:4445  l.isActive */\n      0x08\n      dup2\n      add\n      sload\n      0xff\n      and\n        /* \"contracts/StemPayLotteryManager.sol\":4435:4463  l.isActive && !l.isCancelled */\n      dup1\n      iszero\n      tag_272\n      jumpi\n      pop\n        /* \"contracts/StemPayLotteryManager.sol\":4450:4463  l.isCancelled */\n      0x08\n      dup2\n      add\n      sload\n      0x010000\n      swap1\n      div\n      0xff\n      and\n        /* \"contracts/StemPayLotteryManager.sol\":4449:4463  !l.isCancelled */\n      iszero\n        /* \"contracts/StemPayLotteryManager.sol\":4435:4463  l.isActive && !l.isCancelled */\n    tag_272:\n        /* \"contracts/StemPayLotteryManager.sol\":4427:4489  require(l.isActive && !l.isCancelled, \"Inactive or cancelled\") */\n      tag_273\n      jumpi\n      mload(0x40)\n      shl(0xe5, 0x461bcd)\n      dup2\n      mstore\n        /* \"#utility.yul\":13251:13253   */\n      0x20\n        /* \"contracts/StemPayLotteryManager.sol\":4427:4489  require(l.isActive && !l.isCancelled, \"Inactive or cancelled\") */\n      0x04\n      dup3\n      add\n        /* \"#utility.yul\":13233:13254   */\n      mstore\n        /* \"#utility.yul\":13290:13292   */\n      0x15\n        /* \"#utility.yul\":13270:13288   */\n      0x24\n      dup3\n      add\n        /* \"#utility.yul\":13263:13293   */\n      mstore\n      shl(0x5a, 0x125b9858dd1a5d99481bdc8818d85b98d95b1b1959)\n        /* \"#utility.yul\":13309:13327   */\n      0x44\n      dup3\n      add\n        /* \"#utility.yul\":13302:13353   */\n      mstore\n        /* \"#utility.yul\":13370:13388   */\n      0x64\n      add\n        /* \"contracts/StemPayLotteryManager.sol\":4427:4489  require(l.isActive && !l.isCancelled, \"Inactive or cancelled\") */\n      tag_229\n        /* \"#utility.yul\":13049:13394   */\n      jump\n        /* \"contracts/StemPayLotteryManager.sol\":4427:4489  require(l.isActive && !l.isCancelled, \"Inactive or cancelled\") */\n    tag_273:\n        /* \"contracts/StemPayLotteryManager.sol\":4525:4526  l */\n      dup1\n        /* \"contracts/StemPayLotteryManager.sol\":4525:4535  l.drawTime */\n      0x04\n      add\n      sload\n        /* \"contracts/StemPayLotteryManager.sol\":4507:4522  block.timestamp */\n      timestamp\n        /* \"contracts/StemPayLotteryManager.sol\":4507:4535  block.timestamp < l.drawTime */\n      lt\n        /* \"contracts/StemPayLotteryManager.sol\":4499:4548  require(block.timestamp < l.drawTime, \"Too late\") */\n      tag_276\n      jumpi\n      mload(0x40)\n      shl(0xe5, 0x461bcd)\n      dup2\n      mstore\n        /* \"#utility.yul\":13601:13603   */\n      0x20\n        /* \"contracts/StemPayLotteryManager.sol\":4499:4548  require(block.timestamp < l.drawTime, \"Too late\") */\n      0x04\n      dup3\n      add\n        /* \"#utility.yul\":13583:13604   */\n      mstore\n        /* \"#utility.yul\":13640:13641   */\n      0x08\n        /* \"#utility.yul\":13620:13638   */\n      0x24\n      dup3\n      add\n        /* \"#utility.yul\":13613:13642   */\n      mstore\n      shl(0xc0, 0x546f6f206c617465)\n        /* \"#utility.yul\":13658:13676   */\n      0x44\n      dup3\n      add\n        /* \"#utility.yul\":13651:13689   */\n      mstore\n        /* \"#utility.yul\":13706:13724   */\n      0x64\n      add\n        /* \"contracts/StemPayLotteryManager.sol\":4499:4548  require(block.timestamp < l.drawTime, \"Too late\") */\n      tag_229\n        /* \"#utility.yul\":13399:13730   */\n      jump\n        /* \"contracts/StemPayLotteryManager.sol\":4499:4548  require(block.timestamp < l.drawTime, \"Too late\") */\n    tag_276:\n        /* \"contracts/StemPayLotteryManager.sol\":4590:4607  l.maxParticipants */\n      0x03\n      dup2\n      add\n      sload\n        /* \"contracts/StemPayLotteryManager.sol\":4566:4580  l.participants */\n      0x09\n      dup3\n      add\n        /* \"contracts/StemPayLotteryManager.sol\":4566:4587  l.participants.length */\n      sload\n        /* \"contracts/StemPayLotteryManager.sol\":4566:4607  l.participants.length < l.maxParticipants */\n      lt\n        /* \"contracts/StemPayLotteryManager.sol\":4558:4628  require(l.participants.length < l.maxParticipants, \"Max participants\") */\n      tag_279\n      jumpi\n      mload(0x40)\n      shl(0xe5, 0x461bcd)\n      dup2\n      mstore\n        /* \"#utility.yul\":13937:13939   */\n      0x20\n        /* \"contracts/StemPayLotteryManager.sol\":4558:4628  require(l.participants.length < l.maxParticipants, \"Max participants\") */\n      0x04\n      dup3\n      add\n        /* \"#utility.yul\":13919:13940   */\n      mstore\n        /* \"#utility.yul\":13976:13978   */\n      0x10\n        /* \"#utility.yul\":13956:13974   */\n      0x24\n      dup3\n      add\n        /* \"#utility.yul\":13949:13979   */\n      mstore\n      shl(0x80, 0x4d6178207061727469636970616e7473)\n        /* \"#utility.yul\":13995:14013   */\n      0x44\n      dup3\n      add\n        /* \"#utility.yul\":13988:14034   */\n      mstore\n        /* \"#utility.yul\":14051:14069   */\n      0x64\n      add\n        /* \"contracts/StemPayLotteryManager.sol\":4558:4628  require(l.participants.length < l.maxParticipants, \"Max participants\") */\n      tag_229\n        /* \"#utility.yul\":13735:14075   */\n      jump\n        /* \"contracts/StemPayLotteryManager.sol\":4558:4628  require(l.participants.length < l.maxParticipants, \"Max participants\") */\n    tag_279:\n        /* \"contracts/StemPayLotteryManager.sol\":4646:4660  l.tokenAddress */\n      dup1\n      sload\n      0x01\n        /* \"contracts/StemPayLotteryManager.sol\":4702:4720  l.participationFee */\n      dup3\n      add\n      sload\n        /* \"contracts/StemPayLotteryManager.sol\":4639:4721  IERC20(l.tokenAddress).transferFrom(msg.sender, address(this), l.participationFee) */\n      mload(0x40)\n      shl(0xe0, 0x23b872dd)\n      dup2\n      mstore\n        /* \"contracts/StemPayLotteryManager.sol\":4675:4685  msg.sender */\n      caller\n        /* \"contracts/StemPayLotteryManager.sol\":4639:4721  IERC20(l.tokenAddress).transferFrom(msg.sender, address(this), l.participationFee) */\n      0x04\n      dup3\n      add\n        /* \"#utility.yul\":12174:12225   */\n      mstore\n        /* \"contracts/StemPayLotteryManager.sol\":4695:4699  this */\n      address\n        /* \"#utility.yul\":12241:12259   */\n      0x24\n      dup3\n      add\n        /* \"#utility.yul\":12234:12294   */\n      mstore\n        /* \"#utility.yul\":12310:12328   */\n      0x44\n      dup2\n      add\n        /* \"#utility.yul\":12303:12337   */\n      swap2\n      swap1\n      swap2\n      mstore\n      sub(shl(0xa0, 0x01), 0x01)\n        /* \"contracts/StemPayLotteryManager.sol\":4646:4660  l.tokenAddress */\n      swap1\n      swap2\n      and\n      swap1\n        /* \"contracts/StemPayLotteryManager.sol\":4639:4674  IERC20(l.tokenAddress).transferFrom */\n      0x23b872dd\n      swap1\n        /* \"#utility.yul\":12147:12165   */\n      0x64\n      add\n        /* \"contracts/StemPayLotteryManager.sol\":4639:4721  IERC20(l.tokenAddress).transferFrom(msg.sender, address(this), l.participationFee) */\n      0x20\n      mload(0x40)\n      dup1\n      dup4\n      sub\n      dup2\n      0x00\n      dup8\n      gas\n      call\n      iszero\n      dup1\n      iszero\n      tag_284\n      jumpi\n      returndatacopy(0x00, 0x00, returndatasize)\n      revert(0x00, returndatasize)\n    tag_284:\n      pop\n      pop\n      pop\n      pop\n      mload(0x40)\n      returndatasize\n      not(0x1f)\n      0x1f\n      dup3\n      add\n      and\n      dup3\n      add\n      dup1\n      0x40\n      mstore\n      pop\n      dup2\n      add\n      swap1\n      tag_285\n      swap2\n      swap1\n      tag_261\n      jump\t// in\n    tag_285:\n      pop\n        /* \"contracts/StemPayLotteryManager.sol\":4732:4746  l.participants */\n      0x09\n      dup2\n      add\n        /* \"contracts/StemPayLotteryManager.sol\":4732:4763  l.participants.push(msg.sender) */\n      dup1\n      sload\n      0x01\n      dup2\n      add\n      dup3\n      sstore\n      0x00\n      swap2\n      dup3\n      mstore\n      0x20\n      dup1\n      dup4\n      keccak256\n      swap1\n      swap2\n      add\n      dup1\n      sload\n      not(sub(shl(0xa0, 0x01), 0x01))\n      and\n        /* \"contracts/StemPayLotteryManager.sol\":4752:4762  msg.sender */\n      caller\n        /* \"contracts/StemPayLotteryManager.sol\":4732:4763  l.participants.push(msg.sender) */\n      swap1\n      dup2\n      or\n      swap1\n      swap2\n      sstore\n        /* \"contracts/StemPayLotteryManager.sol\":4773:4797  l.entryCount[msg.sender] */\n      dup3\n      mstore\n        /* \"contracts/StemPayLotteryManager.sol\":4773:4785  l.entryCount */\n      0x0c\n      dup4\n      add\n        /* \"contracts/StemPayLotteryManager.sol\":4773:4797  l.entryCount[msg.sender] */\n      swap1\n      mstore\n      0x40\n      dup2\n      keccak256\n        /* \"contracts/StemPayLotteryManager.sol\":4773:4799  l.entryCount[msg.sender]++ */\n      dup1\n      sload\n      swap2\n      tag_287\n      dup4\n      tag_264\n      jump\t// in\n    tag_287:\n      swap1\n      swap2\n      sstore\n      pop\n      pop\n        /* \"contracts/StemPayLotteryManager.sol\":4815:4853  EnteredLottery(_lotteryId, msg.sender) */\n      0x40\n      dup1\n      mload\n        /* \"#utility.yul\":12944:12969   */\n      dup4\n      dup2\n      mstore\n        /* \"contracts/StemPayLotteryManager.sol\":4842:4852  msg.sender */\n      caller\n        /* \"#utility.yul\":13000:13002   */\n      0x20\n        /* \"#utility.yul\":12985:13003   */\n      dup3\n      add\n        /* \"#utility.yul\":12978:13038   */\n      mstore\n        /* \"contracts/StemPayLotteryManager.sol\":4815:4853  EnteredLottery(_lotteryId, msg.sender) */\n      0x1e28857182a3b2bb6fbb88287d1ba8cc3a941dd65d4c977286676d27b877a3d9\n      swap2\n        /* \"#utility.yul\":12917:12935   */\n      add\n        /* \"contracts/StemPayLotteryManager.sol\":4815:4853  EnteredLottery(_lotteryId, msg.sender) */\n      mload(0x40)\n      dup1\n      swap2\n      sub\n      swap1\n      log1\n        /* \"contracts/StemPayLotteryManager.sol\":4366:4860  {... */\n      pop\n        /* \"@openzeppelin/contracts/security/ReentrancyGuard.sol\":2303:2323  _nonReentrantAfter() */\n      tag_289\n        /* \"@openzeppelin/contracts/security/ReentrancyGuard.sol\":1716:1717  1 */\n      0x01\n        /* \"@openzeppelin/contracts/security/ReentrancyGuard.sol\":2809:2816  _status */\n      0x00\n        /* \"@openzeppelin/contracts/security/ReentrancyGuard.sol\":2809:2831  _status = _NOT_ENTERED */\n      sstore\n        /* \"@openzeppelin/contracts/security/ReentrancyGuard.sol\":2629:2838  function _nonReentrantAfter() private {... */\n      jump\n        /* \"@openzeppelin/contracts/security/ReentrancyGuard.sol\":2303:2323  _nonReentrantAfter() */\n    tag_289:\n        /* \"contracts/StemPayLotteryManager.sol\":4302:4860  function enterLottery(uint256 _lotteryId) external nonReentrant {... */\n      pop\n      jump\t// out\n        /* \"contracts/StemPayLotteryManager.sol\":3377:4296  function createLottery(... */\n    tag_110:\n        /* \"@openzeppelin/contracts-upgradeable/access/OwnableUpgradeable.sol\":2334:2347  _checkOwner() */\n      tag_292\n        /* \"@openzeppelin/contracts-upgradeable/access/OwnableUpgradeable.sol\":2334:2345  _checkOwner */\n      tag_204\n        /* \"@openzeppelin/contracts-upgradeable/access/OwnableUpgradeable.sol\":2334:2347  _checkOwner() */\n      jump\t// in\n    tag_292:\n        /* \"contracts/StemPayLotteryManager.sol\":3720:3737  _refundableAmount */\n      dup6\n        /* \"contracts/StemPayLotteryManager.sol\":3699:3716  _participationFee */\n      dup8\n        /* \"contracts/StemPayLotteryManager.sol\":3699:3737  _participationFee >= _refundableAmount */\n      lt\n      iszero\n        /* \"contracts/StemPayLotteryManager.sol\":3691:3755  require(_participationFee >= _refundableAmount, \"Refund <= fee\") */\n      tag_294\n      jumpi\n      mload(0x40)\n      shl(0xe5, 0x461bcd)\n      dup2\n      mstore\n        /* \"#utility.yul\":14282:14284   */\n      0x20\n        /* \"contracts/StemPayLotteryManager.sol\":3691:3755  require(_participationFee >= _refundableAmount, \"Refund <= fee\") */\n      0x04\n      dup3\n      add\n        /* \"#utility.yul\":14264:14285   */\n      mstore\n        /* \"#utility.yul\":14321:14323   */\n      0x0d\n        /* \"#utility.yul\":14301:14319   */\n      0x24\n      dup3\n      add\n        /* \"#utility.yul\":14294:14324   */\n      mstore\n      shl(0x98, 0x526566756e64203c3d20666565)\n        /* \"#utility.yul\":14340:14358   */\n      0x44\n      dup3\n      add\n        /* \"#utility.yul\":14333:14376   */\n      mstore\n        /* \"#utility.yul\":14393:14411   */\n      0x64\n      add\n        /* \"contracts/StemPayLotteryManager.sol\":3691:3755  require(_participationFee >= _refundableAmount, \"Refund <= fee\") */\n      tag_229\n        /* \"#utility.yul\":14080:14417   */\n      jump\n        /* \"contracts/StemPayLotteryManager.sol\":3691:3755  require(_participationFee >= _refundableAmount, \"Refund <= fee\") */\n    tag_294:\n        /* \"contracts/StemPayLotteryManager.sol\":3785:3800  block.timestamp */\n      timestamp\n        /* \"contracts/StemPayLotteryManager.sol\":3773:3782  _drawTime */\n      dup5\n        /* \"contracts/StemPayLotteryManager.sol\":3773:3800  _drawTime > block.timestamp */\n      gt\n        /* \"contracts/StemPayLotteryManager.sol\":3765:3822  require(_drawTime > block.timestamp, \"Invalid draw time\") */\n      tag_297\n      jumpi\n      mload(0x40)\n      shl(0xe5, 0x461bcd)\n      dup2\n      mstore\n        /* \"#utility.yul\":14624:14626   */\n      0x20\n        /* \"contracts/StemPayLotteryManager.sol\":3765:3822  require(_drawTime > block.timestamp, \"Invalid draw time\") */\n      0x04\n      dup3\n      add\n        /* \"#utility.yul\":14606:14627   */\n      mstore\n        /* \"#utility.yul\":14663:14665   */\n      0x11\n        /* \"#utility.yul\":14643:14661   */\n      0x24\n      dup3\n      add\n        /* \"#utility.yul\":14636:14666   */\n      mstore\n      shl(0x78, 0x496e76616c696420647261772074696d65)\n        /* \"#utility.yul\":14682:14700   */\n      0x44\n      dup3\n      add\n        /* \"#utility.yul\":14675:14722   */\n      mstore\n        /* \"#utility.yul\":14739:14757   */\n      0x64\n      add\n        /* \"contracts/StemPayLotteryManager.sol\":3765:3822  require(_drawTime > block.timestamp, \"Invalid draw time\") */\n      tag_229\n        /* \"#utility.yul\":14422:14763   */\n      jump\n        /* \"contracts/StemPayLotteryManager.sol\":3765:3822  require(_drawTime > block.timestamp, \"Invalid draw time\") */\n    tag_297:\n        /* \"contracts/StemPayLotteryManager.sol\":3833:3850  Lottery storage l */\n      0x00\n        /* \"contracts/StemPayLotteryManager.sol\":3853:3862  lotteries */\n      0x02\n        /* \"contracts/StemPayLotteryManager.sol\":3853:3880  lotteries[++lotteryCounter] */\n      0x00\n        /* \"contracts/StemPayLotteryManager.sol\":3865:3879  lotteryCounter */\n      0x03\n      0x00\n        /* \"contracts/StemPayLotteryManager.sol\":3863:3879  ++lotteryCounter */\n      dup2\n      sload\n      tag_300\n      swap1\n      tag_264\n      jump\t// in\n    tag_300:\n      swap2\n      dup3\n      swap1\n      sstore\n      pop\n        /* \"contracts/StemPayLotteryManager.sol\":3853:3880  lotteries[++lotteryCounter] */\n      dup2\n      mstore\n      0x20\n      dup1\n      dup3\n      add\n      swap3\n      swap1\n      swap3\n      mstore\n      0x40\n      swap1\n      dup2\n      add\n      0x00\n      keccak256\n        /* \"contracts/StemPayLotteryManager.sol\":3890:3920  l.tokenAddress = _tokenAddress */\n      dup1\n      sload\n      not(sub(shl(0xa0, 0x01), 0x01))\n      and\n      sub(shl(0xa0, 0x01), 0x01)\n      dup14\n      and\n      or\n      dup2\n      sstore\n      0x01\n        /* \"contracts/StemPayLotteryManager.sol\":3930:3948  l.participationFee */\n      dup1\n      dup3\n      add\n        /* \"contracts/StemPayLotteryManager.sol\":3930:3968  l.participationFee = _participationFee */\n      dup13\n      swap1\n      sstore\n        /* \"contracts/StemPayLotteryManager.sol\":3978:3996  l.refundableAmount */\n      0x02\n      dup3\n      add\n        /* \"contracts/StemPayLotteryManager.sol\":3978:4016  l.refundableAmount = _refundableAmount */\n      dup12\n      swap1\n      sstore\n        /* \"contracts/StemPayLotteryManager.sol\":4026:4043  l.maxParticipants */\n      0x03\n      dup1\n      dup4\n      add\n        /* \"contracts/StemPayLotteryManager.sol\":4026:4062  l.maxParticipants = _maxParticipants */\n      dup12\n      swap1\n      sstore\n        /* \"contracts/StemPayLotteryManager.sol\":4072:4082  l.drawTime */\n      0x04\n      dup4\n      add\n        /* \"contracts/StemPayLotteryManager.sol\":4072:4094  l.drawTime = _drawTime */\n      dup11\n      swap1\n      sstore\n        /* \"contracts/StemPayLotteryManager.sol\":4104:4117  l.prizeAmount */\n      0x05\n      dup4\n      add\n        /* \"contracts/StemPayLotteryManager.sol\":4104:4132  l.prizeAmount = _prizeAmount */\n      dup10\n      swap1\n      sstore\n        /* \"contracts/StemPayLotteryManager.sol\":4142:4159  l.feeToInvestment */\n      0x06\n      dup4\n      add\n        /* \"contracts/StemPayLotteryManager.sol\":4142:4178  l.feeToInvestment = _feeToInvestment */\n      dup9\n      swap1\n      sstore\n        /* \"contracts/StemPayLotteryManager.sol\":4188:4201  l.feeToProfit */\n      0x07\n      dup4\n      add\n        /* \"contracts/StemPayLotteryManager.sol\":4188:4216  l.feeToProfit = _feeToProfit */\n      dup8\n      swap1\n      sstore\n        /* \"contracts/StemPayLotteryManager.sol\":4226:4236  l.isActive */\n      0x08\n      dup4\n      add\n        /* \"contracts/StemPayLotteryManager.sol\":4226:4243  l.isActive = true */\n      dup1\n      sload\n      not(0xff)\n      and\n      swap1\n      swap3\n      or\n      swap1\n      swap2\n      sstore\n        /* \"contracts/StemPayLotteryManager.sol\":4274:4288  lotteryCounter */\n      sload\n        /* \"contracts/StemPayLotteryManager.sol\":4259:4289  LotteryCreated(lotteryCounter) */\n      swap2\n      mload\n        /* \"#utility.yul\":1564:1589   */\n      swap2\n      dup3\n      mstore\n        /* \"contracts/StemPayLotteryManager.sol\":3853:3880  lotteries[++lotteryCounter] */\n      swap3\n      pop\n        /* \"contracts/StemPayLotteryManager.sol\":4259:4289  LotteryCreated(lotteryCounter) */\n      0x9e0023bebcc752baaa41057318405b5a6a8e9c6372b519717cfdf238e5caa795\n      swap2\n        /* \"#utility.yul\":1537:1555   */\n      add\n        /* \"contracts/StemPayLotteryManager.sol\":4259:4289  LotteryCreated(lotteryCounter) */\n      mload(0x40)\n      dup1\n      swap2\n      sub\n      swap1\n      log1\n        /* \"contracts/StemPayLotteryManager.sol\":3681:4296  {... */\n      pop\n        /* \"contracts/StemPayLotteryManager.sol\":3377:4296  function createLottery(... */\n      pop\n      pop\n      pop\n      pop\n      pop\n      pop\n      pop\n      pop\n      jump\t// out\n        /* \"contracts/StemPayLotteryManager.sol\":6966:7227  function cancelLottery(uint256 _lotteryId) external onlyOwner {... */\n    tag_114:\n        /* \"@openzeppelin/contracts-upgradeable/access/OwnableUpgradeable.sol\":2334:2347  _checkOwner() */\n      tag_303\n        /* \"@openzeppelin/contracts-upgradeable/access/OwnableUpgradeable.sol\":2334:2345  _checkOwner */\n      tag_204\n        /* \"@openzeppelin/contracts-upgradeable/access/OwnableUpgradeable.sol\":2334:2347  _checkOwner() */\n      jump\t// in\n    tag_303:\n        /* \"contracts/StemPayLotteryManager.sol\":7038:7055  Lottery storage l */\n      0x00\n        /* \"contracts/StemPayLotteryManager.sol\":7058:7079  lotteries[_lotteryId] */\n      dup2\n      dup2\n      mstore\n        /* \"contracts/StemPayLotteryManager.sol\":7058:7067  lotteries */\n      0x02\n        /* \"contracts/StemPayLotteryManager.sol\":7058:7079  lotteries[_lotteryId] */\n      0x20\n      mstore\n      0x40\n      swap1\n      keccak256\n        /* \"contracts/StemPayLotteryManager.sol\":7098:7111  l.isCancelled */\n      0x08\n      dup2\n      add\n      sload\n      0x010000\n      swap1\n      div\n      0xff\n      and\n        /* \"contracts/StemPayLotteryManager.sol\":7097:7111  !l.isCancelled */\n      iszero\n        /* \"contracts/StemPayLotteryManager.sol\":7097:7125  !l.isCancelled && !l.isDrawn */\n      dup1\n      iszero\n      tag_305\n      jumpi\n      pop\n        /* \"contracts/StemPayLotteryManager.sol\":7116:7125  l.isDrawn */\n      0x08\n      dup2\n      add\n      sload\n      0x0100\n      swap1\n      div\n      0xff\n      and\n        /* \"contracts/StemPayLotteryManager.sol\":7115:7125  !l.isDrawn */\n      iszero\n        /* \"contracts/StemPayLotteryManager.sol\":7097:7125  !l.isCancelled && !l.isDrawn */\n    tag_305:\n        /* \"contracts/StemPayLotteryManager.sol\":7089:7147  require(!l.isCancelled && !l.isDrawn, \"Already finalized\") */\n      tag_306\n      jumpi\n      mload(0x40)\n      shl(0xe5, 0x461bcd)\n      dup2\n      mstore\n        /* \"#utility.yul\":14970:14972   */\n      0x20\n        /* \"contracts/StemPayLotteryManager.sol\":7089:7147  require(!l.isCancelled && !l.isDrawn, \"Already finalized\") */\n      0x04\n      dup3\n      add\n        /* \"#utility.yul\":14952:14973   */\n      mstore\n        /* \"#utility.yul\":15009:15011   */\n      0x11\n        /* \"#utility.yul\":14989:15007   */\n      0x24\n      dup3\n      add\n        /* \"#utility.yul\":14982:15012   */\n      mstore\n      shl(0x7a, 0x105b1c9958591e48199a5b985b1a5e9959)\n        /* \"#utility.yul\":15028:15046   */\n      0x44\n      dup3\n      add\n        /* \"#utility.yul\":15021:15068   */\n      mstore\n        /* \"#utility.yul\":15085:15103   */\n      0x64\n      add\n        /* \"contracts/StemPayLotteryManager.sol\":7089:7147  require(!l.isCancelled && !l.isDrawn, \"Already finalized\") */\n      tag_229\n        /* \"#utility.yul\":14768:15109   */\n      jump\n        /* \"contracts/StemPayLotteryManager.sol\":7089:7147  require(!l.isCancelled && !l.isDrawn, \"Already finalized\") */\n    tag_306:\n        /* \"contracts/StemPayLotteryManager.sol\":7157:7170  l.isCancelled */\n      0x08\n      dup2\n      add\n        /* \"contracts/StemPayLotteryManager.sol\":7157:7177  l.isCancelled = true */\n      dup1\n      sload\n      not(0xff0000)\n      and\n      0x010000\n      or\n      swap1\n      sstore\n        /* \"contracts/StemPayLotteryManager.sol\":7192:7220  LotteryCancelled(_lotteryId) */\n      mload(0x40)\n      0xc3dac690cf4c3ae8964f18b8f09f7f9a75d3962a8cbb7cd689df2c291bb5b2dd\n      swap1\n      tag_309\n      swap1\n        /* \"contracts/StemPayLotteryManager.sol\":7209:7219  _lotteryId */\n      dup5\n        /* \"#utility.yul\":1564:1589   */\n      dup2\n      mstore\n        /* \"#utility.yul\":1552:1554   */\n      0x20\n        /* \"#utility.yul\":1537:1555   */\n      add\n      swap1\n        /* \"#utility.yul\":1418:1595   */\n      jump\n        /* \"contracts/StemPayLotteryManager.sol\":7192:7220  LotteryCancelled(_lotteryId) */\n    tag_309:\n      mload(0x40)\n      dup1\n      swap2\n      sub\n      swap1\n      log1\n        /* \"contracts/StemPayLotteryManager.sol\":7028:7227  {... */\n      pop\n        /* \"contracts/StemPayLotteryManager.sol\":6966:7227  function cancelLottery(uint256 _lotteryId) external onlyOwner {... */\n      pop\n      jump\t// out\n        /* \"@openzeppelin/contracts-upgradeable/proxy/utils/UUPSUpgradeable.sol\":4161:4375  function upgradeToAndCall(address newImplementation, bytes memory data) public payable virtual onlyProxy {... */\n    tag_122:\n        /* \"@openzeppelin/contracts-upgradeable/proxy/utils/UUPSUpgradeable.sol\":2655:2668  _checkProxy() */\n      tag_311\n        /* \"@openzeppelin/contracts-upgradeable/proxy/utils/UUPSUpgradeable.sol\":2655:2666  _checkProxy */\n      tag_312\n        /* \"@openzeppelin/contracts-upgradeable/proxy/utils/UUPSUpgradeable.sol\":2655:2668  _checkProxy() */\n      jump\t// in\n    tag_311:\n        /* \"@openzeppelin/contracts-upgradeable/proxy/utils/UUPSUpgradeable.sol\":4276:4312  _authorizeUpgrade(newImplementation) */\n      tag_314\n        /* \"@openzeppelin/contracts-upgradeable/proxy/utils/UUPSUpgradeable.sol\":4294:4311  newImplementation */\n      dup3\n        /* \"@openzeppelin/contracts-upgradeable/proxy/utils/UUPSUpgradeable.sol\":4276:4293  _authorizeUpgrade */\n      tag_315\n        /* \"@openzeppelin/contracts-upgradeable/proxy/utils/UUPSUpgradeable.sol\":4276:4312  _authorizeUpgrade(newImplementation) */\n      jump\t// in\n    tag_314:\n        /* \"@openzeppelin/contracts-upgradeable/proxy/utils/UUPSUpgradeable.sol\":4322:4368  _upgradeToAndCallUUPS(newImplementation, data) */\n      tag_231\n        /* \"@openzeppelin/contracts-upgradeable/proxy/utils/UUPSUpgradeable.sol\":4344:4361  newImplementation */\n      dup3\n        /* \"@openzeppelin/contracts-upgradeable/proxy/utils/UUPSUpgradeable.sol\":4363:4367  data */\n      dup3\n        /* \"@openzeppelin/contracts-upgradeable/proxy/utils/UUPSUpgradeable.sol\":4322:4343  _upgradeToAndCallUUPS */\n      tag_317\n        /* \"@openzeppelin/contracts-upgradeable/proxy/utils/UUPSUpgradeable.sol\":4322:4368  _upgradeToAndCallUUPS(newImplementation, data) */\n      jump\t// in\n        /* \"@openzeppelin/contracts-upgradeable/proxy/utils/UUPSUpgradeable.sol\":3708:3842  function proxiableUUID() external view virtual notDelegated returns (bytes32) {... */\n    tag_125:\n        /* \"@openzeppelin/contracts-upgradeable/proxy/utils/UUPSUpgradeable.sol\":3777:3784  bytes32 */\n      0x00\n        /* \"@openzeppelin/contracts-upgradeable/proxy/utils/UUPSUpgradeable.sol\":2926:2946  _checkNotDelegated() */\n      tag_319\n        /* \"@openzeppelin/contracts-upgradeable/proxy/utils/UUPSUpgradeable.sol\":2926:2944  _checkNotDelegated */\n      tag_320\n        /* \"@openzeppelin/contracts-upgradeable/proxy/utils/UUPSUpgradeable.sol\":2926:2946  _checkNotDelegated() */\n      jump\t// in\n    tag_319:\n      pop\n      mload(0x00)\n      codecopy(0x00, data_75b20eef8615de99c108b05f0dbda081c91897128caa336d75dffb97c4132b4d, 0x20)\n      mload(0x00)\n      swap1\n      0x00\n      mstore\n        /* \"@openzeppelin/contracts-upgradeable/proxy/utils/UUPSUpgradeable.sol\":3708:3842  function proxiableUUID() external view virtual notDelegated returns (bytes32) {... */\n      swap1\n      jump\t// out\n        /* \"contracts/StemPayLotteryManager.sol\":7233:7745  function claimRefund(uint256 _lotteryId) external nonReentrant {... */\n    tag_131:\n        /* \"@openzeppelin/contracts/security/ReentrancyGuard.sol\":2261:2282  _nonReentrantBefore() */\n      tag_323\n        /* \"@openzeppelin/contracts/security/ReentrancyGuard.sol\":2261:2280  _nonReentrantBefore */\n      tag_234\n        /* \"@openzeppelin/contracts/security/ReentrancyGuard.sol\":2261:2282  _nonReentrantBefore() */\n      jump\t// in\n    tag_323:\n        /* \"contracts/StemPayLotteryManager.sol\":7306:7323  Lottery storage l */\n      0x00\n        /* \"contracts/StemPayLotteryManager.sol\":7326:7347  lotteries[_lotteryId] */\n      dup2\n      dup2\n      mstore\n        /* \"contracts/StemPayLotteryManager.sol\":7326:7335  lotteries */\n      0x02\n        /* \"contracts/StemPayLotteryManager.sol\":7326:7347  lotteries[_lotteryId] */\n      0x20\n      mstore\n      0x40\n      swap1\n      keccak256\n        /* \"contracts/StemPayLotteryManager.sol\":7365:7378  l.isCancelled */\n      0x08\n      dup2\n      add\n      sload\n      0x010000\n      swap1\n      div\n      0xff\n      and\n      dup1\n        /* \"contracts/StemPayLotteryManager.sol\":7365:7419  l.isCancelled || (l.isDrawn && l.winner != msg.sender) */\n      tag_326\n      jumpi\n      pop\n        /* \"contracts/StemPayLotteryManager.sol\":7383:7392  l.isDrawn */\n      0x08\n      dup2\n      add\n      sload\n      0x0100\n      swap1\n      div\n      0xff\n      and\n        /* \"contracts/StemPayLotteryManager.sol\":7383:7418  l.isDrawn && l.winner != msg.sender */\n      dup1\n      iszero\n      tag_326\n      jumpi\n      pop\n        /* \"contracts/StemPayLotteryManager.sol\":7396:7404  l.winner */\n      0x0a\n      dup2\n      add\n      sload\n      sub(shl(0xa0, 0x01), 0x01)\n      and\n        /* \"contracts/StemPayLotteryManager.sol\":7408:7418  msg.sender */\n      caller\n        /* \"contracts/StemPayLotteryManager.sol\":7396:7418  l.winner != msg.sender */\n      eq\n      iszero\n        /* \"contracts/StemPayLotteryManager.sol\":7383:7418  l.isDrawn && l.winner != msg.sender */\n    tag_326:\n        /* \"contracts/StemPayLotteryManager.sol\":7357:7436  require(l.isCancelled || (l.isDrawn && l.winner != msg.sender), \"Not eligible\") */\n      tag_327\n      jumpi\n      mload(0x40)\n      shl(0xe5, 0x461bcd)\n      dup2\n      mstore\n        /* \"#utility.yul\":15316:15318   */\n      0x20\n        /* \"contracts/StemPayLotteryManager.sol\":7357:7436  require(l.isCancelled || (l.isDrawn && l.winner != msg.sender), \"Not eligible\") */\n      0x04\n      dup3\n      add\n        /* \"#utility.yul\":15298:15319   */\n      mstore\n        /* \"#utility.yul\":15355:15357   */\n      0x0c\n        /* \"#utility.yul\":15335:15353   */\n      0x24\n      dup3\n      add\n        /* \"#utility.yul\":15328:15358   */\n      mstore\n      shl(0xa0, 0x4e6f7420656c696769626c65)\n        /* \"#utility.yul\":15374:15392   */\n      0x44\n      dup3\n      add\n        /* \"#utility.yul\":15367:15409   */\n      mstore\n        /* \"#utility.yul\":15426:15444   */\n      0x64\n      add\n        /* \"contracts/StemPayLotteryManager.sol\":7357:7436  require(l.isCancelled || (l.isDrawn && l.winner != msg.sender), \"Not eligible\") */\n      tag_229\n        /* \"#utility.yul\":15114:15450   */\n      jump\n        /* \"contracts/StemPayLotteryManager.sol\":7357:7436  require(l.isCancelled || (l.isDrawn && l.winner != msg.sender), \"Not eligible\") */\n    tag_327:\n        /* \"contracts/StemPayLotteryManager.sol\":7469:7479  msg.sender */\n      caller\n        /* \"contracts/StemPayLotteryManager.sol\":7455:7480  l.hasRefunded[msg.sender] */\n      0x00\n      swap1\n      dup2\n      mstore\n        /* \"contracts/StemPayLotteryManager.sol\":7455:7468  l.hasRefunded */\n      0x0e\n      dup3\n      add\n        /* \"contracts/StemPayLotteryManager.sol\":7455:7480  l.hasRefunded[msg.sender] */\n      0x20\n      mstore\n      0x40\n      swap1\n      keccak256\n      sload\n      0xff\n      and\n        /* \"contracts/StemPayLotteryManager.sol\":7454:7480  !l.hasRefunded[msg.sender] */\n      iszero\n        /* \"contracts/StemPayLotteryManager.sol\":7446:7501  require(!l.hasRefunded[msg.sender], \"Already refunded\") */\n      tag_330\n      jumpi\n      mload(0x40)\n      shl(0xe5, 0x461bcd)\n      dup2\n      mstore\n        /* \"#utility.yul\":15657:15659   */\n      0x20\n        /* \"contracts/StemPayLotteryManager.sol\":7446:7501  require(!l.hasRefunded[msg.sender], \"Already refunded\") */\n      0x04\n      dup3\n      add\n        /* \"#utility.yul\":15639:15660   */\n      mstore\n        /* \"#utility.yul\":15696:15698   */\n      0x10\n        /* \"#utility.yul\":15676:15694   */\n      0x24\n      dup3\n      add\n        /* \"#utility.yul\":15669:15699   */\n      mstore\n      shl(0x82, 0x105b1c9958591e481c99599d5b991959)\n        /* \"#utility.yul\":15715:15733   */\n      0x44\n      dup3\n      add\n        /* \"#utility.yul\":15708:15754   */\n      mstore\n        /* \"#utility.yul\":15771:15789   */\n      0x64\n      add\n        /* \"contracts/StemPayLotteryManager.sol\":7446:7501  require(!l.hasRefunded[msg.sender], \"Already refunded\") */\n      tag_229\n        /* \"#utility.yul\":15455:15795   */\n      jump\n        /* \"contracts/StemPayLotteryManager.sol\":7446:7501  require(!l.hasRefunded[msg.sender], \"Already refunded\") */\n    tag_330:\n        /* \"contracts/StemPayLotteryManager.sol\":7532:7542  msg.sender */\n      caller\n        /* \"contracts/StemPayLotteryManager.sol\":7546:7547  0 */\n      0x00\n        /* \"contracts/StemPayLotteryManager.sol\":7519:7543  l.entryCount[msg.sender] */\n      swap1\n      dup2\n      mstore\n        /* \"contracts/StemPayLotteryManager.sol\":7519:7531  l.entryCount */\n      0x0c\n      dup3\n      add\n        /* \"contracts/StemPayLotteryManager.sol\":7519:7543  l.entryCount[msg.sender] */\n      0x20\n      mstore\n      0x40\n      swap1\n      keccak256\n      sload\n        /* \"contracts/StemPayLotteryManager.sol\":7511:7562  require(l.entryCount[msg.sender] > 0, \"No entries\") */\n      tag_333\n      jumpi\n      mload(0x40)\n      shl(0xe5, 0x461bcd)\n      dup2\n      mstore\n        /* \"#utility.yul\":16002:16004   */\n      0x20\n        /* \"contracts/StemPayLotteryManager.sol\":7511:7562  require(l.entryCount[msg.sender] > 0, \"No entries\") */\n      0x04\n      dup3\n      add\n        /* \"#utility.yul\":15984:16005   */\n      mstore\n        /* \"#utility.yul\":16041:16043   */\n      0x0a\n        /* \"#utility.yul\":16021:16039   */\n      0x24\n      dup3\n      add\n        /* \"#utility.yul\":16014:16044   */\n      mstore\n      shl(0xb0, 0x4e6f20656e7472696573)\n        /* \"#utility.yul\":16060:16078   */\n      0x44\n      dup3\n      add\n        /* \"#utility.yul\":16053:16093   */\n      mstore\n        /* \"#utility.yul\":16110:16128   */\n      0x64\n      add\n        /* \"contracts/StemPayLotteryManager.sol\":7511:7562  require(l.entryCount[msg.sender] > 0, \"No entries\") */\n      tag_229\n        /* \"#utility.yul\":15800:16134   */\n      jump\n        /* \"contracts/StemPayLotteryManager.sol\":7511:7562  require(l.entryCount[msg.sender] > 0, \"No entries\") */\n    tag_333:\n        /* \"contracts/StemPayLotteryManager.sol\":7587:7597  msg.sender */\n      caller\n        /* \"contracts/StemPayLotteryManager.sol\":7573:7598  l.hasRefunded[msg.sender] */\n      0x00\n      swap1\n      dup2\n      mstore\n        /* \"contracts/StemPayLotteryManager.sol\":7573:7586  l.hasRefunded */\n      0x0e\n      dup3\n      add\n        /* \"contracts/StemPayLotteryManager.sol\":7573:7598  l.hasRefunded[msg.sender] */\n      0x20\n      swap1\n      dup2\n      mstore\n      0x40\n      dup1\n      dup4\n      keccak256\n        /* \"contracts/StemPayLotteryManager.sol\":7573:7605  l.hasRefunded[msg.sender] = true */\n      dup1\n      sload\n      not(0xff)\n      and\n        /* \"contracts/StemPayLotteryManager.sol\":7601:7605  true */\n      0x01\n        /* \"contracts/StemPayLotteryManager.sol\":7573:7605  l.hasRefunded[msg.sender] = true */\n      or\n      swap1\n      sstore\n        /* \"contracts/StemPayLotteryManager.sol\":7653:7665  l.entryCount */\n      0x0c\n      dup5\n      add\n        /* \"contracts/StemPayLotteryManager.sol\":7653:7677  l.entryCount[msg.sender] */\n      swap1\n      swap2\n      mstore\n      dup2\n      keccak256\n      sload\n        /* \"contracts/StemPayLotteryManager.sol\":7632:7650  l.refundableAmount */\n      0x02\n      dup4\n      add\n      sload\n        /* \"contracts/StemPayLotteryManager.sol\":7632:7677  l.refundableAmount * l.entryCount[msg.sender] */\n      tag_336\n      swap2\n        /* \"contracts/StemPayLotteryManager.sol\":7653:7677  l.entryCount[msg.sender] */\n      swap1\n        /* \"contracts/StemPayLotteryManager.sol\":7632:7677  l.refundableAmount * l.entryCount[msg.sender] */\n      tag_337\n      jump\t// in\n    tag_336:\n        /* \"contracts/StemPayLotteryManager.sol\":7694:7708  l.tokenAddress */\n      dup3\n      sload\n        /* \"contracts/StemPayLotteryManager.sol\":7687:7738  IERC20(l.tokenAddress).transfer(msg.sender, amount) */\n      mload(0x40)\n      shl(0xe0, 0xa9059cbb)\n      dup2\n      mstore\n        /* \"contracts/StemPayLotteryManager.sol\":7719:7729  msg.sender */\n      caller\n        /* \"contracts/StemPayLotteryManager.sol\":7687:7738  IERC20(l.tokenAddress).transfer(msg.sender, amount) */\n      0x04\n      dup3\n      add\n        /* \"#utility.yul\":16486:16537   */\n      mstore\n        /* \"#utility.yul\":16553:16571   */\n      0x24\n      dup2\n      add\n        /* \"#utility.yul\":16546:16580   */\n      dup4\n      swap1\n      mstore\n        /* \"contracts/StemPayLotteryManager.sol\":7615:7677  uint256 amount = l.refundableAmount * l.entryCount[msg.sender] */\n      swap2\n      swap3\n      pop\n      sub(shl(0xa0, 0x01), 0x01)\n        /* \"contracts/StemPayLotteryManager.sol\":7694:7708  l.tokenAddress */\n      and\n      swap1\n        /* \"contracts/StemPayLotteryManager.sol\":7687:7718  IERC20(l.tokenAddress).transfer */\n      0xa9059cbb\n      swap1\n        /* \"#utility.yul\":16459:16477   */\n      0x44\n      add\n        /* \"contracts/StemPayLotteryManager.sol\":7687:7738  IERC20(l.tokenAddress).transfer(msg.sender, amount) */\n      0x20\n      mload(0x40)\n      dup1\n      dup4\n      sub\n      dup2\n      0x00\n      dup8\n      gas\n      call\n      iszero\n      dup1\n      iszero\n      tag_341\n      jumpi\n      returndatacopy(0x00, 0x00, returndatasize)\n      revert(0x00, returndatasize)\n    tag_341:\n      pop\n      pop\n      pop\n      pop\n      mload(0x40)\n      returndatasize\n      not(0x1f)\n      0x1f\n      dup3\n      add\n      and\n      dup3\n      add\n      dup1\n      0x40\n      mstore\n      pop\n      dup2\n      add\n      swap1\n      tag_342\n      swap2\n      swap1\n      tag_261\n      jump\t// in\n    tag_342:\n      pop\n        /* \"contracts/StemPayLotteryManager.sol\":7296:7745  {... */\n      pop\n      pop\n        /* \"@openzeppelin/contracts/security/ReentrancyGuard.sol\":2303:2323  _nonReentrantAfter() */\n      tag_289\n        /* \"@openzeppelin/contracts/security/ReentrancyGuard.sol\":1716:1717  1 */\n      0x01\n        /* \"@openzeppelin/contracts/security/ReentrancyGuard.sol\":2809:2816  _status */\n      0x00\n        /* \"@openzeppelin/contracts/security/ReentrancyGuard.sol\":2809:2831  _status = _NOT_ENTERED */\n      sstore\n        /* \"@openzeppelin/contracts/security/ReentrancyGuard.sol\":2629:2838  function _nonReentrantAfter() private {... */\n      jump\n        /* \"contracts/StemPayLotteryManager.sol\":5329:6315  function drawWinner(uint256 _lotteryId) external onlyOwner {... */\n    tag_135:\n        /* \"@openzeppelin/contracts-upgradeable/access/OwnableUpgradeable.sol\":2334:2347  _checkOwner() */\n      tag_345\n        /* \"@openzeppelin/contracts-upgradeable/access/OwnableUpgradeable.sol\":2334:2345  _checkOwner */\n      tag_204\n        /* \"@openzeppelin/contracts-upgradeable/access/OwnableUpgradeable.sol\":2334:2347  _checkOwner() */\n      jump\t// in\n    tag_345:\n        /* \"contracts/StemPayLotteryManager.sol\":5398:5415  Lottery storage l */\n      0x00\n        /* \"contracts/StemPayLotteryManager.sol\":5418:5439  lotteries[_lotteryId] */\n      dup2\n      dup2\n      mstore\n        /* \"contracts/StemPayLotteryManager.sol\":5418:5427  lotteries */\n      0x02\n        /* \"contracts/StemPayLotteryManager.sol\":5418:5439  lotteries[_lotteryId] */\n      0x20\n      mstore\n      0x40\n      swap1\n      keccak256\n        /* \"contracts/StemPayLotteryManager.sol\":5476:5486  l.drawTime */\n      0x04\n      dup2\n      add\n      sload\n        /* \"contracts/StemPayLotteryManager.sol\":5457:5472  block.timestamp */\n      timestamp\n        /* \"contracts/StemPayLotteryManager.sol\":5457:5486  block.timestamp >= l.drawTime */\n      lt\n      iszero\n        /* \"contracts/StemPayLotteryManager.sol\":5449:5500  require(block.timestamp >= l.drawTime, \"Too early\") */\n      tag_347\n      jumpi\n      mload(0x40)\n      shl(0xe5, 0x461bcd)\n      dup2\n      mstore\n        /* \"#utility.yul\":16793:16795   */\n      0x20\n        /* \"contracts/StemPayLotteryManager.sol\":5449:5500  require(block.timestamp >= l.drawTime, \"Too early\") */\n      0x04\n      dup3\n      add\n        /* \"#utility.yul\":16775:16796   */\n      mstore\n        /* \"#utility.yul\":16832:16833   */\n      0x09\n        /* \"#utility.yul\":16812:16830   */\n      0x24\n      dup3\n      add\n        /* \"#utility.yul\":16805:16834   */\n      mstore\n      shl(0xb8, 0x546f6f206561726c79)\n        /* \"#utility.yul\":16850:16868   */\n      0x44\n      dup3\n      add\n        /* \"#utility.yul\":16843:16882   */\n      mstore\n        /* \"#utility.yul\":16899:16917   */\n      0x64\n      add\n        /* \"contracts/StemPayLotteryManager.sol\":5449:5500  require(block.timestamp >= l.drawTime, \"Too early\") */\n      tag_229\n        /* \"#utility.yul\":16591:16923   */\n      jump\n        /* \"contracts/StemPayLotteryManager.sol\":5449:5500  require(block.timestamp >= l.drawTime, \"Too early\") */\n    tag_347:\n        /* \"contracts/StemPayLotteryManager.sol\":5519:5528  l.isDrawn */\n      0x08\n      dup2\n      add\n      sload\n      0x0100\n      swap1\n      div\n      0xff\n      and\n        /* \"contracts/StemPayLotteryManager.sol\":5518:5528  !l.isDrawn */\n      iszero\n        /* \"contracts/StemPayLotteryManager.sol\":5518:5546  !l.isDrawn && !l.isCancelled */\n      dup1\n      iszero\n      tag_350\n      jumpi\n      pop\n        /* \"contracts/StemPayLotteryManager.sol\":5533:5546  l.isCancelled */\n      0x08\n      dup2\n      add\n      sload\n      0x010000\n      swap1\n      div\n      0xff\n      and\n        /* \"contracts/StemPayLotteryManager.sol\":5532:5546  !l.isCancelled */\n      iszero\n        /* \"contracts/StemPayLotteryManager.sol\":5518:5546  !l.isDrawn && !l.isCancelled */\n    tag_350:\n        /* \"contracts/StemPayLotteryManager.sol\":5510:5577  require(!l.isDrawn && !l.isCancelled, \"Already drawn or cancelled\") */\n      tag_351\n      jumpi\n      mload(0x40)\n      shl(0xe5, 0x461bcd)\n      dup2\n      mstore\n        /* \"#utility.yul\":17130:17132   */\n      0x20\n        /* \"contracts/StemPayLotteryManager.sol\":5510:5577  require(!l.isDrawn && !l.isCancelled, \"Already drawn or cancelled\") */\n      0x04\n      dup3\n      add\n        /* \"#utility.yul\":17112:17133   */\n      mstore\n        /* \"#utility.yul\":17169:17171   */\n      0x1a\n        /* \"#utility.yul\":17149:17167   */\n      0x24\n      dup3\n      add\n        /* \"#utility.yul\":17142:17172   */\n      mstore\n        /* \"#utility.yul\":17208:17236   */\n      0x416c726561647920647261776e206f722063616e63656c6c6564000000000000\n        /* \"#utility.yul\":17188:17206   */\n      0x44\n      dup3\n      add\n        /* \"#utility.yul\":17181:17237   */\n      mstore\n        /* \"#utility.yul\":17254:17272   */\n      0x64\n      add\n        /* \"contracts/StemPayLotteryManager.sol\":5510:5577  require(!l.isDrawn && !l.isCancelled, \"Already drawn or cancelled\") */\n      tag_229\n        /* \"#utility.yul\":16928:17278   */\n      jump\n        /* \"contracts/StemPayLotteryManager.sol\":5510:5577  require(!l.isDrawn && !l.isCancelled, \"Already drawn or cancelled\") */\n    tag_351:\n        /* \"contracts/StemPayLotteryManager.sol\":5595:5609  l.participants */\n      0x09\n      dup2\n      add\n        /* \"contracts/StemPayLotteryManager.sol\":5595:5616  l.participants.length */\n      sload\n        /* \"contracts/StemPayLotteryManager.sol\":5587:5640  require(l.participants.length > 0, \"No participants\") */\n      tag_354\n      jumpi\n      mload(0x40)\n      shl(0xe5, 0x461bcd)\n      dup2\n      mstore\n        /* \"#utility.yul\":17485:17487   */\n      0x20\n        /* \"contracts/StemPayLotteryManager.sol\":5587:5640  require(l.participants.length > 0, \"No participants\") */\n      0x04\n      dup3\n      add\n        /* \"#utility.yul\":17467:17488   */\n      mstore\n        /* \"#utility.yul\":17524:17526   */\n      0x0f\n        /* \"#utility.yul\":17504:17522   */\n      0x24\n      dup3\n      add\n        /* \"#utility.yul\":17497:17527   */\n      mstore\n      shl(0x88, 0x4e6f207061727469636970616e7473)\n        /* \"#utility.yul\":17543:17561   */\n      0x44\n      dup3\n      add\n        /* \"#utility.yul\":17536:17581   */\n      mstore\n        /* \"#utility.yul\":17598:17616   */\n      0x64\n      add\n        /* \"contracts/StemPayLotteryManager.sol\":5587:5640  require(l.participants.length > 0, \"No participants\") */\n      tag_229\n        /* \"#utility.yul\":17283:17622   */\n      jump\n        /* \"contracts/StemPayLotteryManager.sol\":5587:5640  require(l.participants.length > 0, \"No participants\") */\n    tag_354:\n        /* \"contracts/StemPayLotteryManager.sol\":5693:5707  vrfCoordinator */\n      sload(0x09)\n        /* \"contracts/StemPayLotteryManager.sol\":5741:6162  VRFV2PlusClient.RandomWordsRequest({... */\n      0x40\n      dup1\n      mload\n      0xc0\n      dup2\n      add\n      dup3\n      mstore\n        /* \"contracts/StemPayLotteryManager.sol\":5803:5810  keyHash */\n      sload(0x06)\n        /* \"contracts/StemPayLotteryManager.sol\":5741:6162  VRFV2PlusClient.RandomWordsRequest({... */\n      dup2\n      mstore\n        /* \"contracts/StemPayLotteryManager.sol\":5835:5849  subscriptionId */\n      sload(0x08)\n        /* \"contracts/StemPayLotteryManager.sol\":5741:6162  VRFV2PlusClient.RandomWordsRequest({... */\n      0x20\n      dup1\n      dup4\n      add\n      swap2\n      swap1\n      swap2\n      mstore\n        /* \"contracts/StemPayLotteryManager.sol\":5889:5909  requestConfirmations */\n      sload(0x07)\n      0xffff\n      0x0100000000\n      dup3\n      div\n      and\n        /* \"contracts/StemPayLotteryManager.sol\":5741:6162  VRFV2PlusClient.RandomWordsRequest({... */\n      dup4\n      dup6\n      add\n      mstore\n        /* \"contracts/StemPayLotteryManager.sol\":5945:5961  callbackGasLimit */\n      0xffffffff\n      dup1\n      dup3\n      and\n        /* \"contracts/StemPayLotteryManager.sol\":5741:6162  VRFV2PlusClient.RandomWordsRequest({... */\n      0x60\n      dup6\n      add\n      mstore\n        /* \"contracts/StemPayLotteryManager.sol\":5989:5997  numWords */\n      0x01000000000000\n      swap1\n      swap2\n      div\n      and\n        /* \"contracts/StemPayLotteryManager.sol\":5741:6162  VRFV2PlusClient.RandomWordsRequest({... */\n      0x80\n      dup4\n      add\n      mstore\n        /* \"contracts/StemPayLotteryManager.sol\":6076:6129  VRFV2PlusClient.ExtraArgsV1({ nativePayment: false }) */\n      dup3\n      mload\n      swap1\n      dup2\n      add\n      swap1\n      swap3\n      mstore\n        /* \"contracts/StemPayLotteryManager.sol\":5651:5668  uint256 requestId */\n      0x00\n        /* \"contracts/StemPayLotteryManager.sol\":6076:6129  VRFV2PlusClient.ExtraArgsV1({ nativePayment: false }) */\n      dup1\n      dup4\n      mstore\n        /* \"contracts/StemPayLotteryManager.sol\":5651:5668  uint256 requestId */\n      swap3\n      sub(shl(0xa0, 0x01), 0x01)\n        /* \"contracts/StemPayLotteryManager.sol\":5693:5707  vrfCoordinator */\n      and\n      swap2\n        /* \"contracts/StemPayLotteryManager.sol\":5671:5727  IVRFCoordinatorV2Plus(vrfCoordinator).requestRandomWords */\n      0x9b1c385e\n      swap2\n        /* \"contracts/StemPayLotteryManager.sol\":5741:6162  VRFV2PlusClient.RandomWordsRequest({... */\n      swap1\n      0xa0\n      dup3\n      add\n      swap1\n        /* \"contracts/StemPayLotteryManager.sol\":6026:6147  VRFV2PlusClient._argsToBytes(... */\n      tag_357\n      swap1\n        /* \"contracts/StemPayLotteryManager.sol\":6026:6054  VRFV2PlusClient._argsToBytes */\n      tag_358\n        /* \"contracts/StemPayLotteryManager.sol\":6026:6147  VRFV2PlusClient._argsToBytes(... */\n      jump\t// in\n    tag_357:\n        /* \"contracts/StemPayLotteryManager.sol\":5741:6162  VRFV2PlusClient.RandomWordsRequest({... */\n      dup2\n      mstore\n      pop\n        /* \"contracts/StemPayLotteryManager.sol\":5671:6172  IVRFCoordinatorV2Plus(vrfCoordinator).requestRandomWords(... */\n      mload(0x40)\n      dup3\n      0xffffffff\n      and\n      0xe0\n      shl\n      dup2\n      mstore\n      0x04\n      add\n      tag_359\n      swap2\n      swap1\n      tag_360\n      jump\t// in\n    tag_359:\n      0x20\n      mload(0x40)\n      dup1\n      dup4\n      sub\n      dup2\n      0x00\n      dup8\n      gas\n      call\n      iszero\n      dup1\n      iszero\n      tag_362\n      jumpi\n      returndatacopy(0x00, 0x00, returndatasize)\n      revert(0x00, returndatasize)\n    tag_362:\n      pop\n      pop\n      pop\n      pop\n      mload(0x40)\n      returndatasize\n      not(0x1f)\n      0x1f\n      dup3\n      add\n      and\n      dup3\n      add\n      dup1\n      0x40\n      mstore\n      pop\n      dup2\n      add\n      swap1\n      tag_363\n      swap2\n      swap1\n      tag_364\n      jump\t// in\n    tag_363:\n        /* \"contracts/StemPayLotteryManager.sol\":6183:6210  requestToLottery[requestId] */\n      0x00\n      dup2\n      dup2\n      mstore\n        /* \"contracts/StemPayLotteryManager.sol\":6183:6199  requestToLottery */\n      0x0a\n        /* \"contracts/StemPayLotteryManager.sol\":6183:6210  requestToLottery[requestId] */\n      0x20\n      mstore\n      0x40\n      swap1\n      dup2\n      swap1\n      keccak256\n        /* \"contracts/StemPayLotteryManager.sol\":6183:6223  requestToLottery[requestId] = _lotteryId */\n      dup6\n      swap1\n      sstore\n        /* \"contracts/StemPayLotteryManager.sol\":6233:6242  l.isDrawn */\n      0x08\n      dup5\n      add\n        /* \"contracts/StemPayLotteryManager.sol\":6233:6249  l.isDrawn = true */\n      dup1\n      sload\n      not(0xff00)\n      and\n      0x0100\n      or\n      swap1\n      sstore\n        /* \"contracts/StemPayLotteryManager.sol\":6265:6308  LotteryDrawRequested(_lotteryId, requestId) */\n      mload\n        /* \"contracts/StemPayLotteryManager.sol\":5651:6172  uint256 requestId = IVRFCoordinatorV2Plus(vrfCoordinator).requestRandomWords(... */\n      swap1\n      swap2\n      pop\n        /* \"contracts/StemPayLotteryManager.sol\":6265:6308  LotteryDrawRequested(_lotteryId, requestId) */\n      0x600253eae67a5c51c82a7123372e8644f16009c6304e18f844cf86fdc40c24d7\n      swap1\n      tag_365\n      swap1\n        /* \"contracts/StemPayLotteryManager.sol\":6213:6223  _lotteryId */\n      dup6\n      swap1\n        /* \"contracts/StemPayLotteryManager.sol\":5651:6172  uint256 requestId = IVRFCoordinatorV2Plus(vrfCoordinator).requestRandomWords(... */\n      dup5\n      swap1\n        /* \"#utility.yul\":18703:18728   */\n      swap2\n      dup3\n      mstore\n        /* \"#utility.yul\":18759:18761   */\n      0x20\n        /* \"#utility.yul\":18744:18762   */\n      dup3\n      add\n        /* \"#utility.yul\":18737:18771   */\n      mstore\n        /* \"#utility.yul\":18691:18693   */\n      0x40\n        /* \"#utility.yul\":18676:18694   */\n      add\n      swap1\n        /* \"#utility.yul\":18529:18777   */\n      jump\n        /* \"contracts/StemPayLotteryManager.sol\":6265:6308  LotteryDrawRequested(_lotteryId, requestId) */\n    tag_365:\n      mload(0x40)\n      dup1\n      swap2\n      sub\n      swap1\n      log1\n        /* \"contracts/StemPayLotteryManager.sol\":5388:6315  {... */\n      pop\n      pop\n        /* \"contracts/StemPayLotteryManager.sol\":5329:6315  function drawWinner(uint256 _lotteryId) external onlyOwner {... */\n      pop\n      jump\t// out\n        /* \"@openzeppelin/contracts-upgradeable/access/OwnableUpgradeable.sol\":3155:3256  function renounceOwnership() public virtual onlyOwner {... */\n    tag_142:\n        /* \"@openzeppelin/contracts-upgradeable/access/OwnableUpgradeable.sol\":2334:2347  _checkOwner() */\n      tag_368\n        /* \"@openzeppelin/contracts-upgradeable/access/OwnableUpgradeable.sol\":2334:2345  _checkOwner */\n      tag_204\n        /* \"@openzeppelin/contracts-upgradeable/access/OwnableUpgradeable.sol\":2334:2347  _checkOwner() */\n      jump\t// in\n    tag_368:\n        /* \"@openzeppelin/contracts-upgradeable/access/OwnableUpgradeable.sol\":3219:3249  _transferOwnership(address(0)) */\n      tag_370\n        /* \"@openzeppelin/contracts-upgradeable/access/OwnableUpgradeable.sol\":3246:3247  0 */\n      0x00\n        /* \"@openzeppelin/contracts-upgradeable/access/OwnableUpgradeable.sol\":3219:3237  _transferOwnership */\n      tag_371\n        /* \"@openzeppelin/contracts-upgradeable/access/OwnableUpgradeable.sol\":3219:3249  _transferOwnership(address(0)) */\n      jump\t// in\n    tag_370:\n        /* \"@openzeppelin/contracts-upgradeable/access/OwnableUpgradeable.sol\":3155:3256  function renounceOwnership() public virtual onlyOwner {... */\n      jump\t// out\n        /* \"contracts/StemPayLotteryManager.sol\":4866:5323  function voteCancel(uint256 _lotteryId) external {... */\n    tag_150:\n        /* \"contracts/StemPayLotteryManager.sol\":4925:4942  Lottery storage l */\n      0x00\n        /* \"contracts/StemPayLotteryManager.sol\":4945:4966  lotteries[_lotteryId] */\n      dup2\n      dup2\n      mstore\n        /* \"contracts/StemPayLotteryManager.sol\":4945:4954  lotteries */\n      0x02\n        /* \"contracts/StemPayLotteryManager.sol\":4945:4966  lotteries[_lotteryId] */\n      0x20\n      swap1\n      dup2\n      mstore\n      0x40\n      dup1\n      dup4\n      keccak256\n        /* \"contracts/StemPayLotteryManager.sol\":5002:5012  msg.sender */\n      caller\n        /* \"contracts/StemPayLotteryManager.sol\":4985:5013  l.hasVotedCancel[msg.sender] */\n      dup5\n      mstore\n        /* \"contracts/StemPayLotteryManager.sol\":4985:5001  l.hasVotedCancel */\n      0x0f\n      dup2\n      add\n        /* \"contracts/StemPayLotteryManager.sol\":4985:5013  l.hasVotedCancel[msg.sender] */\n      swap1\n      swap3\n      mstore\n      swap1\n      swap2\n      keccak256\n      sload\n      0xff\n      and\n        /* \"contracts/StemPayLotteryManager.sol\":4984:5013  !l.hasVotedCancel[msg.sender] */\n      iszero\n        /* \"contracts/StemPayLotteryManager.sol\":4976:5031  require(!l.hasVotedCancel[msg.sender], \"Already voted\") */\n      tag_373\n      jumpi\n      mload(0x40)\n      shl(0xe5, 0x461bcd)\n      dup2\n      mstore\n        /* \"#utility.yul\":18984:18986   */\n      0x20\n        /* \"contracts/StemPayLotteryManager.sol\":4976:5031  require(!l.hasVotedCancel[msg.sender], \"Already voted\") */\n      0x04\n      dup3\n      add\n        /* \"#utility.yul\":18966:18987   */\n      mstore\n        /* \"#utility.yul\":19023:19025   */\n      0x0d\n        /* \"#utility.yul\":19003:19021   */\n      0x24\n      dup3\n      add\n        /* \"#utility.yul\":18996:19026   */\n      mstore\n      shl(0x9a, 0x105b1c9958591e481d9bdd1959)\n        /* \"#utility.yul\":19042:19060   */\n      0x44\n      dup3\n      add\n        /* \"#utility.yul\":19035:19078   */\n      mstore\n        /* \"#utility.yul\":19095:19113   */\n      0x64\n      add\n        /* \"contracts/StemPayLotteryManager.sol\":4976:5031  require(!l.hasVotedCancel[msg.sender], \"Already voted\") */\n      tag_229\n        /* \"#utility.yul\":18782:19119   */\n      jump\n        /* \"contracts/StemPayLotteryManager.sol\":4976:5031  require(!l.hasVotedCancel[msg.sender], \"Already voted\") */\n    tag_373:\n        /* \"contracts/StemPayLotteryManager.sol\":5062:5072  msg.sender */\n      caller\n        /* \"contracts/StemPayLotteryManager.sol\":5076:5077  0 */\n      0x00\n        /* \"contracts/StemPayLotteryManager.sol\":5049:5073  l.entryCount[msg.sender] */\n      swap1\n      dup2\n      mstore\n        /* \"contracts/StemPayLotteryManager.sol\":5049:5061  l.entryCount */\n      0x0c\n      dup3\n      add\n        /* \"contracts/StemPayLotteryManager.sol\":5049:5073  l.entryCount[msg.sender] */\n      0x20\n      mstore\n      0x40\n      swap1\n      keccak256\n      sload\n        /* \"contracts/StemPayLotteryManager.sol\":5041:5096  require(l.entryCount[msg.sender] > 0, \"Not in lottery\") */\n      tag_376\n      jumpi\n      mload(0x40)\n      shl(0xe5, 0x461bcd)\n      dup2\n      mstore\n        /* \"#utility.yul\":19326:19328   */\n      0x20\n        /* \"contracts/StemPayLotteryManager.sol\":5041:5096  require(l.entryCount[msg.sender] > 0, \"Not in lottery\") */\n      0x04\n      dup3\n      add\n        /* \"#utility.yul\":19308:19329   */\n      mstore\n        /* \"#utility.yul\":19365:19367   */\n      0x0e\n        /* \"#utility.yul\":19345:19363   */\n      0x24\n      dup3\n      add\n        /* \"#utility.yul\":19338:19368   */\n      mstore\n      shl(0x90, 0x4e6f7420696e206c6f7474657279)\n        /* \"#utility.yul\":19384:19402   */\n      0x44\n      dup3\n      add\n        /* \"#utility.yul\":19377:19421   */\n      mstore\n        /* \"#utility.yul\":19438:19456   */\n      0x64\n      add\n        /* \"contracts/StemPayLotteryManager.sol\":5041:5096  require(l.entryCount[msg.sender] > 0, \"Not in lottery\") */\n      tag_229\n        /* \"#utility.yul\":19124:19462   */\n      jump\n        /* \"contracts/StemPayLotteryManager.sol\":5041:5096  require(l.entryCount[msg.sender] > 0, \"Not in lottery\") */\n    tag_376:\n        /* \"contracts/StemPayLotteryManager.sol\":5124:5134  msg.sender */\n      caller\n        /* \"contracts/StemPayLotteryManager.sol\":5107:5135  l.hasVotedCancel[msg.sender] */\n      0x00\n      swap1\n      dup2\n      mstore\n        /* \"contracts/StemPayLotteryManager.sol\":5107:5123  l.hasVotedCancel */\n      0x0f\n      dup3\n      add\n        /* \"contracts/StemPayLotteryManager.sol\":5107:5135  l.hasVotedCancel[msg.sender] */\n      0x20\n      mstore\n      0x40\n      dup2\n      keccak256\n        /* \"contracts/StemPayLotteryManager.sol\":5107:5142  l.hasVotedCancel[msg.sender] = true */\n      dup1\n      sload\n      not(0xff)\n      and\n        /* \"contracts/StemPayLotteryManager.sol\":5138:5142  true */\n      0x01\n        /* \"contracts/StemPayLotteryManager.sol\":5107:5142  l.hasVotedCancel[msg.sender] = true */\n      or\n      swap1\n      sstore\n        /* \"contracts/StemPayLotteryManager.sol\":5152:5163  l.voteCount */\n      0x0b\n      dup3\n      add\n        /* \"contracts/StemPayLotteryManager.sol\":5152:5165  l.voteCount++ */\n      dup1\n      sload\n      swap2\n      tag_379\n      dup4\n      tag_264\n      jump\t// in\n    tag_379:\n      swap1\n      swap2\n      sstore\n      pop\n      pop\n        /* \"contracts/StemPayLotteryManager.sol\":5198:5212  l.participants */\n      0x09\n      dup2\n      add\n        /* \"contracts/StemPayLotteryManager.sol\":5198:5219  l.participants.length */\n      sload\n        /* \"contracts/StemPayLotteryManager.sol\":5198:5223  l.participants.length * 2 */\n      tag_380\n      swap1\n        /* \"contracts/StemPayLotteryManager.sol\":5222:5223  2 */\n      0x02\n        /* \"contracts/StemPayLotteryManager.sol\":5198:5223  l.participants.length * 2 */\n      tag_337\n      jump\t// in\n    tag_380:\n        /* \"contracts/StemPayLotteryManager.sol\":5179:5190  l.voteCount */\n      0x0b\n      dup3\n      add\n      sload\n        /* \"contracts/StemPayLotteryManager.sol\":5179:5194  l.voteCount * 3 */\n      tag_381\n      swap1\n        /* \"contracts/StemPayLotteryManager.sol\":5193:5194  3 */\n      0x03\n        /* \"contracts/StemPayLotteryManager.sol\":5179:5194  l.voteCount * 3 */\n      tag_337\n      jump\t// in\n    tag_381:\n        /* \"contracts/StemPayLotteryManager.sol\":5179:5223  l.voteCount * 3 >= l.participants.length * 2 */\n      lt\n        /* \"contracts/StemPayLotteryManager.sol\":5175:5317  if (l.voteCount * 3 >= l.participants.length * 2) {... */\n      tag_231\n      jumpi\n        /* \"contracts/StemPayLotteryManager.sol\":5239:5252  l.isCancelled */\n      0x08\n      dup2\n      add\n        /* \"contracts/StemPayLotteryManager.sol\":5239:5259  l.isCancelled = true */\n      dup1\n      sload\n      not(0xff0000)\n      and\n      0x010000\n      or\n      swap1\n      sstore\n        /* \"contracts/StemPayLotteryManager.sol\":5278:5306  LotteryCancelled(_lotteryId) */\n      mload(0x40)\n      0xc3dac690cf4c3ae8964f18b8f09f7f9a75d3962a8cbb7cd689df2c291bb5b2dd\n      swap1\n      tag_309\n      swap1\n        /* \"contracts/StemPayLotteryManager.sol\":5295:5305  _lotteryId */\n      dup5\n        /* \"#utility.yul\":1564:1589   */\n      dup2\n      mstore\n        /* \"#utility.yul\":1552:1554   */\n      0x20\n        /* \"#utility.yul\":1537:1555   */\n      add\n      swap1\n        /* \"#utility.yul\":1418:1595   */\n      jump\n        /* \"contracts/StemPayLotteryManager.sol\":8105:8215  function clearLotteryData(uint256 _lotteryId) external onlyOwner {... */\n    tag_154:\n        /* \"@openzeppelin/contracts-upgradeable/access/OwnableUpgradeable.sol\":2334:2347  _checkOwner() */\n      tag_385\n        /* \"@openzeppelin/contracts-upgradeable/access/OwnableUpgradeable.sol\":2334:2345  _checkOwner */\n      tag_204\n        /* \"@openzeppelin/contracts-upgradeable/access/OwnableUpgradeable.sol\":2334:2347  _checkOwner() */\n      jump\t// in\n    tag_385:\n        /* \"contracts/StemPayLotteryManager.sol\":8187:8208  lotteries[_lotteryId] */\n      0x00\n      dup2\n      dup2\n      mstore\n        /* \"contracts/StemPayLotteryManager.sol\":8187:8196  lotteries */\n      0x02\n        /* \"contracts/StemPayLotteryManager.sol\":8187:8208  lotteries[_lotteryId] */\n      0x20\n      dup2\n      swap1\n      mstore\n      0x40\n      dup3\n      keccak256\n        /* \"contracts/StemPayLotteryManager.sol\":8180:8208  delete lotteries[_lotteryId] */\n      dup1\n      sload\n      not(sub(shl(0xa0, 0x01), 0x01))\n      and\n      dup2\n      sstore\n      0x01\n      dup2\n      add\n      dup4\n      swap1\n      sstore\n      swap1\n      dup2\n      add\n      dup3\n      swap1\n      sstore\n      0x03\n      dup2\n      add\n      dup3\n      swap1\n      sstore\n      0x04\n      dup2\n      add\n      dup3\n      swap1\n      sstore\n      0x05\n      dup2\n      add\n      dup3\n      swap1\n      sstore\n      0x06\n      dup2\n      add\n      dup3\n      swap1\n      sstore\n      0x07\n      dup2\n      add\n      dup3\n      swap1\n      sstore\n      0x08\n      dup2\n      add\n      dup1\n      sload\n      not(0xffffff)\n      and\n      swap1\n      sstore\n        /* \"contracts/StemPayLotteryManager.sol\":8187:8208  lotteries[_lotteryId] */\n      swap1\n        /* \"contracts/StemPayLotteryManager.sol\":8180:8208  delete lotteries[_lotteryId] */\n      tag_387\n      0x09\n      dup4\n      add\n        /* \"contracts/StemPayLotteryManager.sol\":8187:8208  lotteries[_lotteryId] */\n      dup3\n        /* \"contracts/StemPayLotteryManager.sol\":8180:8208  delete lotteries[_lotteryId] */\n      tag_388\n      jump\t// in\n    tag_387:\n      pop\n      0x0a\n      dup2\n      add\n      dup1\n      sload\n      not(sub(shl(0xa0, 0x01), 0x01))\n      and\n      swap1\n      sstore\n      0x00\n      0x0b\n      swap1\n      swap2\n      add\n      sstore\n      pop\n        /* \"contracts/StemPayLotteryManager.sol\":8105:8215  function clearLotteryData(uint256 _lotteryId) external onlyOwner {... */\n      jump\t// out\n        /* \"contracts/StemPayLotteryManager.sol\":8221:8365  function getParticipants(uint256 _lotteryId) external view returns (address[] memory) {... */\n    tag_185:\n        /* \"contracts/StemPayLotteryManager.sol\":8324:8345  lotteries[_lotteryId] */\n      0x00\n      dup2\n      dup2\n      mstore\n        /* \"contracts/StemPayLotteryManager.sol\":8324:8333  lotteries */\n      0x02\n        /* \"contracts/StemPayLotteryManager.sol\":8324:8345  lotteries[_lotteryId] */\n      0x20\n      swap1\n      dup2\n      mstore\n      0x40\n      swap2\n      dup3\n      swap1\n      keccak256\n        /* \"contracts/StemPayLotteryManager.sol\":8324:8358  lotteries[_lotteryId].participants */\n      0x09\n      add\n        /* \"contracts/StemPayLotteryManager.sol\":8317:8358  return lotteries[_lotteryId].participants */\n      dup1\n      sload\n      dup4\n      mload\n      dup2\n      dup5\n      mul\n      dup2\n      add\n      dup5\n      add\n      swap1\n      swap5\n      mstore\n      dup1\n      dup5\n      mstore\n        /* \"contracts/StemPayLotteryManager.sol\":8289:8305  address[] memory */\n      0x60\n      swap4\n        /* \"contracts/StemPayLotteryManager.sol\":8317:8358  return lotteries[_lotteryId].participants */\n      swap3\n      dup4\n      add\n        /* \"contracts/StemPayLotteryManager.sol\":8324:8358  lotteries[_lotteryId].participants */\n      dup3\n        /* \"contracts/StemPayLotteryManager.sol\":8317:8358  return lotteries[_lotteryId].participants */\n      dup3\n      dup1\n      iszero\n      tag_394\n      jumpi\n      0x20\n      mul\n      dup3\n      add\n      swap2\n      swap1\n      0x00\n      mstore\n      keccak256(0x00, 0x20)\n      swap1\n    tag_395:\n      dup2\n      sload\n      sub(shl(0xa0, 0x01), 0x01)\n      and\n      dup2\n      mstore\n      0x01\n      swap1\n      swap2\n      add\n      swap1\n      0x20\n      add\n      dup1\n      dup4\n      gt\n      tag_395\n      jumpi\n    tag_394:\n      pop\n      pop\n      pop\n      pop\n      pop\n      swap1\n      pop\n        /* \"contracts/StemPayLotteryManager.sol\":8221:8365  function getParticipants(uint256 _lotteryId) external view returns (address[] memory) {... */\n      swap2\n      swap1\n      pop\n      jump\t// out\n        /* \"contracts/StemPayLotteryManager.sol\":7751:8099  function claimPrize(uint256 _lotteryId) external nonReentrant {... */\n    tag_196:\n        /* \"@openzeppelin/contracts/security/ReentrancyGuard.sol\":2261:2282  _nonReentrantBefore() */\n      tag_398\n        /* \"@openzeppelin/contracts/security/ReentrancyGuard.sol\":2261:2280  _nonReentrantBefore */\n      tag_234\n        /* \"@openzeppelin/contracts/security/ReentrancyGuard.sol\":2261:2282  _nonReentrantBefore() */\n      jump\t// in\n    tag_398:\n        /* \"contracts/StemPayLotteryManager.sol\":7823:7840  Lottery storage l */\n      0x00\n        /* \"contracts/StemPayLotteryManager.sol\":7843:7864  lotteries[_lotteryId] */\n      dup2\n      dup2\n      mstore\n        /* \"contracts/StemPayLotteryManager.sol\":7843:7852  lotteries */\n      0x02\n        /* \"contracts/StemPayLotteryManager.sol\":7843:7864  lotteries[_lotteryId] */\n      0x20\n      mstore\n      0x40\n      swap1\n      keccak256\n        /* \"contracts/StemPayLotteryManager.sol\":7882:7890  l.winner */\n      0x0a\n      dup2\n      add\n      sload\n      sub(shl(0xa0, 0x01), 0x01)\n      and\n        /* \"contracts/StemPayLotteryManager.sol\":7894:7904  msg.sender */\n      caller\n        /* \"contracts/StemPayLotteryManager.sol\":7882:7904  l.winner == msg.sender */\n      eq\n        /* \"contracts/StemPayLotteryManager.sol\":7874:7919  require(l.winner == msg.sender, \"Not winner\") */\n      tag_400\n      jumpi\n      mload(0x40)\n      shl(0xe5, 0x461bcd)\n      dup2\n      mstore\n        /* \"#utility.yul\":19669:19671   */\n      0x20\n        /* \"contracts/StemPayLotteryManager.sol\":7874:7919  require(l.winner == msg.sender, \"Not winner\") */\n      0x04\n      dup3\n      add\n        /* \"#utility.yul\":19651:19672   */\n      mstore\n        /* \"#utility.yul\":19708:19710   */\n      0x0a\n        /* \"#utility.yul\":19688:19706   */\n      0x24\n      dup3\n      add\n        /* \"#utility.yul\":19681:19711   */\n      mstore\n      shl(0xb1, 0x2737ba103bb4b73732b9)\n        /* \"#utility.yul\":19727:19745   */\n      0x44\n      dup3\n      add\n        /* \"#utility.yul\":19720:19760   */\n      mstore\n        /* \"#utility.yul\":19777:19795   */\n      0x64\n      add\n        /* \"contracts/StemPayLotteryManager.sol\":7874:7919  require(l.winner == msg.sender, \"Not winner\") */\n      tag_229\n        /* \"#utility.yul\":19467:19801   */\n      jump\n        /* \"contracts/StemPayLotteryManager.sol\":7874:7919  require(l.winner == msg.sender, \"Not winner\") */\n    tag_400:\n        /* \"contracts/StemPayLotteryManager.sol\":7951:7961  msg.sender */\n      caller\n        /* \"contracts/StemPayLotteryManager.sol\":7938:7962  l.hasClaimed[msg.sender] */\n      0x00\n      swap1\n      dup2\n      mstore\n        /* \"contracts/StemPayLotteryManager.sol\":7938:7950  l.hasClaimed */\n      0x0d\n      dup3\n      add\n        /* \"contracts/StemPayLotteryManager.sol\":7938:7962  l.hasClaimed[msg.sender] */\n      0x20\n      mstore\n      0x40\n      swap1\n      keccak256\n      sload\n      0xff\n      and\n        /* \"contracts/StemPayLotteryManager.sol\":7937:7962  !l.hasClaimed[msg.sender] */\n      iszero\n        /* \"contracts/StemPayLotteryManager.sol\":7929:7982  require(!l.hasClaimed[msg.sender], \"Already claimed\") */\n      tag_403\n      jumpi\n      mload(0x40)\n      shl(0xe5, 0x461bcd)\n      dup2\n      mstore\n        /* \"#utility.yul\":20008:20010   */\n      0x20\n        /* \"contracts/StemPayLotteryManager.sol\":7929:7982  require(!l.hasClaimed[msg.sender], \"Already claimed\") */\n      0x04\n      dup3\n      add\n        /* \"#utility.yul\":19990:20011   */\n      mstore\n        /* \"#utility.yul\":20047:20049   */\n      0x0f\n        /* \"#utility.yul\":20027:20045   */\n      0x24\n      dup3\n      add\n        /* \"#utility.yul\":20020:20050   */\n      mstore\n      shl(0x8a, 0x105b1c9958591e4818db185a5b5959)\n        /* \"#utility.yul\":20066:20084   */\n      0x44\n      dup3\n      add\n        /* \"#utility.yul\":20059:20104   */\n      mstore\n        /* \"#utility.yul\":20121:20139   */\n      0x64\n      add\n        /* \"contracts/StemPayLotteryManager.sol\":7929:7982  require(!l.hasClaimed[msg.sender], \"Already claimed\") */\n      tag_229\n        /* \"#utility.yul\":19806:20145   */\n      jump\n        /* \"contracts/StemPayLotteryManager.sol\":7929:7982  require(!l.hasClaimed[msg.sender], \"Already claimed\") */\n    tag_403:\n        /* \"contracts/StemPayLotteryManager.sol\":8006:8016  msg.sender */\n      caller\n        /* \"contracts/StemPayLotteryManager.sol\":7993:8017  l.hasClaimed[msg.sender] */\n      0x00\n      dup2\n      dup2\n      mstore\n        /* \"contracts/StemPayLotteryManager.sol\":7993:8005  l.hasClaimed */\n      0x0d\n      dup4\n      add\n        /* \"contracts/StemPayLotteryManager.sol\":7993:8017  l.hasClaimed[msg.sender] */\n      0x20\n      mstore\n      0x40\n      swap1\n      dup2\n      swap1\n      keccak256\n        /* \"contracts/StemPayLotteryManager.sol\":7993:8024  l.hasClaimed[msg.sender] = true */\n      dup1\n      sload\n      not(0xff)\n      and\n        /* \"contracts/StemPayLotteryManager.sol\":8020:8024  true */\n      0x01\n        /* \"contracts/StemPayLotteryManager.sol\":7993:8024  l.hasClaimed[msg.sender] = true */\n      or\n      swap1\n      sstore\n        /* \"contracts/StemPayLotteryManager.sol\":8041:8055  l.tokenAddress */\n      dup3\n      sload\n        /* \"contracts/StemPayLotteryManager.sol\":8078:8091  l.prizeAmount */\n      0x05\n      dup5\n      add\n      sload\n        /* \"contracts/StemPayLotteryManager.sol\":8034:8092  IERC20(l.tokenAddress).transfer(msg.sender, l.prizeAmount) */\n      swap2\n      mload\n      shl(0xe0, 0xa9059cbb)\n      dup2\n      mstore\n      0x04\n      dup2\n      add\n        /* \"#utility.yul\":16486:16537   */\n      swap4\n      swap1\n      swap4\n      mstore\n        /* \"#utility.yul\":16553:16571   */\n      0x24\n      dup4\n      add\n        /* \"#utility.yul\":16546:16580   */\n      swap2\n      swap1\n      swap2\n      mstore\n      sub(shl(0xa0, 0x01), 0x01)\n        /* \"contracts/StemPayLotteryManager.sol\":8041:8055  l.tokenAddress */\n      and\n      swap1\n        /* \"contracts/StemPayLotteryManager.sol\":8034:8065  IERC20(l.tokenAddress).transfer */\n      0xa9059cbb\n      swap1\n        /* \"#utility.yul\":16459:16477   */\n      0x44\n      add\n        /* \"contracts/StemPayLotteryManager.sol\":8034:8092  IERC20(l.tokenAddress).transfer(msg.sender, l.prizeAmount) */\n      0x20\n      mload(0x40)\n      dup1\n      dup4\n      sub\n      dup2\n      0x00\n      dup8\n      gas\n      call\n      iszero\n      dup1\n      iszero\n      tag_408\n      jumpi\n      returndatacopy(0x00, 0x00, returndatasize)\n      revert(0x00, returndatasize)\n    tag_408:\n      pop\n      pop\n      pop\n      pop\n      mload(0x40)\n      returndatasize\n      not(0x1f)\n      0x1f\n      dup3\n      add\n      and\n      dup3\n      add\n      dup1\n      0x40\n      mstore\n      pop\n      dup2\n      add\n      swap1\n      tag_409\n      swap2\n      swap1\n      tag_261\n      jump\t// in\n    tag_409:\n      pop\n        /* \"contracts/StemPayLotteryManager.sol\":7813:8099  {... */\n      pop\n        /* \"@openzeppelin/contracts/security/ReentrancyGuard.sol\":2303:2323  _nonReentrantAfter() */\n      tag_289\n        /* \"@openzeppelin/contracts/security/ReentrancyGuard.sol\":1716:1717  1 */\n      0x01\n        /* \"@openzeppelin/contracts/security/ReentrancyGuard.sol\":2809:2816  _status */\n      0x00\n        /* \"@openzeppelin/contracts/security/ReentrancyGuard.sol\":2809:2831  _status = _NOT_ENTERED */\n      sstore\n        /* \"@openzeppelin/contracts/security/ReentrancyGuard.sol\":2629:2838  function _nonReentrantAfter() private {... */\n      jump\n        /* \"@openzeppelin/contracts-upgradeable/access/OwnableUpgradeable.sol\":3405:3620  function transferOwnership(address newOwner) public virtual onlyOwner {... */\n    tag_201:\n        /* \"@openzeppelin/contracts-upgradeable/access/OwnableUpgradeable.sol\":2334:2347  _checkOwner() */\n      tag_412\n        /* \"@openzeppelin/contracts-upgradeable/access/OwnableUpgradeable.sol\":2334:2345  _checkOwner */\n      tag_204\n        /* \"@openzeppelin/contracts-upgradeable/access/OwnableUpgradeable.sol\":2334:2347  _checkOwner() */\n      jump\t// in\n    tag_412:\n      sub(shl(0xa0, 0x01), 0x01)\n        /* \"@openzeppelin/contracts-upgradeable/access/OwnableUpgradeable.sol\":3489:3511  newOwner == address(0) */\n      dup2\n      and\n        /* \"@openzeppelin/contracts-upgradeable/access/OwnableUpgradeable.sol\":3485:3576  if (newOwner == address(0)) {... */\n      tag_414\n      jumpi\n        /* \"@openzeppelin/contracts-upgradeable/access/OwnableUpgradeable.sol\":3534:3565  OwnableInvalidOwner(address(0)) */\n      mload(0x40)\n      shl(0xe0, 0x1e4fbdf7)\n      dup2\n      mstore\n        /* \"@openzeppelin/contracts-upgradeable/access/OwnableUpgradeable.sol\":3562:3563  0 */\n      0x00\n        /* \"@openzeppelin/contracts-upgradeable/access/OwnableUpgradeable.sol\":3534:3565  OwnableInvalidOwner(address(0)) */\n      0x04\n      dup3\n      add\n        /* \"#utility.yul\":5254:5305   */\n      mstore\n        /* \"#utility.yul\":5227:5245   */\n      0x24\n      add\n        /* \"@openzeppelin/contracts-upgradeable/access/OwnableUpgradeable.sol\":3534:3565  OwnableInvalidOwner(address(0)) */\n      tag_229\n        /* \"#utility.yul\":5108:5311   */\n      jump\n        /* \"@openzeppelin/contracts-upgradeable/access/OwnableUpgradeable.sol\":3485:3576  if (newOwner == address(0)) {... */\n    tag_414:\n        /* \"@openzeppelin/contracts-upgradeable/access/OwnableUpgradeable.sol\":3585:3613  _transferOwnership(newOwner) */\n      tag_289\n        /* \"@openzeppelin/contracts-upgradeable/access/OwnableUpgradeable.sol\":3604:3612  newOwner */\n      dup2\n        /* \"@openzeppelin/contracts-upgradeable/access/OwnableUpgradeable.sol\":3585:3603  _transferOwnership */\n      tag_371\n        /* \"@openzeppelin/contracts-upgradeable/access/OwnableUpgradeable.sol\":3585:3613  _transferOwnership(newOwner) */\n      jump\t// in\n        /* \"@openzeppelin/contracts-upgradeable/access/OwnableUpgradeable.sol\":2658:2820  function _checkOwner() internal view virtual {... */\n    tag_204:\n        /* \"@openzeppelin/contracts-upgradeable/utils/ContextUpgradeable.sol\":966:976  msg.sender */\n      caller\n        /* \"@openzeppelin/contracts-upgradeable/access/OwnableUpgradeable.sol\":2717:2724  owner() */\n      tag_420\n        /* \"@openzeppelin/contracts-upgradeable/access/OwnableUpgradeable.sol\":1313:1335  OwnableStorageLocation */\n      0x9016d09d72d40fdae2fd8ceac6b6234c7706214fd39c1cd1e609a0528c199300\n        /* \"@openzeppelin/contracts-upgradeable/access/OwnableUpgradeable.sol\":2570:2578  $._owner */\n      sload\n      sub(shl(0xa0, 0x01), 0x01)\n      and\n      swap1\n        /* \"@openzeppelin/contracts-upgradeable/access/OwnableUpgradeable.sol\":2441:2585  function owner() public view virtual returns (address) {... */\n      jump\n        /* \"@openzeppelin/contracts-upgradeable/access/OwnableUpgradeable.sol\":2717:2724  owner() */\n    tag_420:\n      sub(shl(0xa0, 0x01), 0x01)\n        /* \"@openzeppelin/contracts-upgradeable/access/OwnableUpgradeable.sol\":2717:2740  owner() != _msgSender() */\n      and\n      eq\n        /* \"@openzeppelin/contracts-upgradeable/access/OwnableUpgradeable.sol\":2713:2814  if (owner() != _msgSender()) {... */\n      tag_370\n      jumpi\n        /* \"@openzeppelin/contracts-upgradeable/access/OwnableUpgradeable.sol\":2763:2803  OwnableUnauthorizedAccount(_msgSender()) */\n      mload(0x40)\n      shl(0xe0, 0x118cdaa7)\n      dup2\n      mstore\n        /* \"@openzeppelin/contracts-upgradeable/utils/ContextUpgradeable.sol\":966:976  msg.sender */\n      caller\n        /* \"@openzeppelin/contracts-upgradeable/access/OwnableUpgradeable.sol\":2763:2803  OwnableUnauthorizedAccount(_msgSender()) */\n      0x04\n      dup3\n      add\n        /* \"#utility.yul\":5254:5305   */\n      mstore\n        /* \"#utility.yul\":5227:5245   */\n      0x24\n      add\n        /* \"@openzeppelin/contracts-upgradeable/access/OwnableUpgradeable.sol\":2763:2803  OwnableUnauthorizedAccount(_msgSender()) */\n      tag_229\n        /* \"#utility.yul\":5108:5311   */\n      jump\n        /* \"contracts/StemPayLotteryManager.sol\":6321:6960  function fulfillRandomWords(... */\n    tag_207:\n        /* \"contracts/StemPayLotteryManager.sol\":6448:6465  uint256 lotteryId */\n      0x00\n        /* \"contracts/StemPayLotteryManager.sol\":6468:6495  requestToLottery[requestId] */\n      dup3\n      dup2\n      mstore\n        /* \"contracts/StemPayLotteryManager.sol\":6468:6484  requestToLottery */\n      0x0a\n        /* \"contracts/StemPayLotteryManager.sol\":6468:6495  requestToLottery[requestId] */\n      0x20\n      swap1\n      dup2\n      mstore\n      0x40\n      dup1\n      dup4\n      keccak256\n      sload\n        /* \"contracts/StemPayLotteryManager.sol\":6525:6545  lotteries[lotteryId] */\n      dup1\n      dup5\n      mstore\n        /* \"contracts/StemPayLotteryManager.sol\":6525:6534  lotteries */\n      0x02\n        /* \"contracts/StemPayLotteryManager.sol\":6525:6545  lotteries[lotteryId] */\n      swap1\n      swap3\n      mstore\n      swap1\n      swap2\n      keccak256\n        /* \"contracts/StemPayLotteryManager.sol\":6564:6573  l.isDrawn */\n      0x08\n      dup2\n      add\n      sload\n      0x0100\n      swap1\n      div\n      0xff\n      and\n        /* \"contracts/StemPayLotteryManager.sol\":6564:6599  l.isDrawn && l.winner == address(0) */\n      dup1\n      iszero\n      tag_425\n      jumpi\n      pop\n        /* \"contracts/StemPayLotteryManager.sol\":6577:6585  l.winner */\n      0x0a\n      dup2\n      add\n      sload\n      sub(shl(0xa0, 0x01), 0x01)\n      and\n        /* \"contracts/StemPayLotteryManager.sol\":6577:6599  l.winner == address(0) */\n      iszero\n        /* \"contracts/StemPayLotteryManager.sol\":6564:6599  l.isDrawn && l.winner == address(0) */\n    tag_425:\n        /* \"contracts/StemPayLotteryManager.sol\":6556:6621  require(l.isDrawn && l.winner == address(0), \"Already fulfilled\") */\n      tag_426\n      jumpi\n      mload(0x40)\n      shl(0xe5, 0x461bcd)\n      dup2\n      mstore\n        /* \"#utility.yul\":20352:20354   */\n      0x20\n        /* \"contracts/StemPayLotteryManager.sol\":6556:6621  require(l.isDrawn && l.winner == address(0), \"Already fulfilled\") */\n      0x04\n      dup3\n      add\n        /* \"#utility.yul\":20334:20355   */\n      mstore\n        /* \"#utility.yul\":20391:20393   */\n      0x11\n        /* \"#utility.yul\":20371:20389   */\n      0x24\n      dup3\n      add\n        /* \"#utility.yul\":20364:20394   */\n      mstore\n      shl(0x7a, 0x105b1c9958591e48199d5b199a5b1b1959)\n        /* \"#utility.yul\":20410:20428   */\n      0x44\n      dup3\n      add\n        /* \"#utility.yul\":20403:20450   */\n      mstore\n        /* \"#utility.yul\":20467:20485   */\n      0x64\n      add\n        /* \"contracts/StemPayLotteryManager.sol\":6556:6621  require(l.isDrawn && l.winner == address(0), \"Already fulfilled\") */\n      tag_229\n        /* \"#utility.yul\":20150:20491   */\n      jump\n        /* \"contracts/StemPayLotteryManager.sol\":6556:6621  require(l.isDrawn && l.winner == address(0), \"Already fulfilled\") */\n    tag_426:\n        /* \"contracts/StemPayLotteryManager.sol\":6632:6651  uint256 winnerIndex */\n      0x00\n        /* \"contracts/StemPayLotteryManager.sol\":6671:6672  l */\n      dup2\n        /* \"contracts/StemPayLotteryManager.sol\":6671:6685  l.participants */\n      0x09\n      add\n        /* \"contracts/StemPayLotteryManager.sol\":6671:6692  l.participants.length */\n      dup1\n      sload\n      swap1\n      pop\n        /* \"contracts/StemPayLotteryManager.sol\":6654:6665  randomWords */\n      dup5\n        /* \"contracts/StemPayLotteryManager.sol\":6666:6667  0 */\n      0x00\n        /* \"contracts/StemPayLotteryManager.sol\":6654:6668  randomWords[0] */\n      dup2\n      mload\n      dup2\n      lt\n      tag_430\n      jumpi\n      tag_430\n      tag_431\n      jump\t// in\n    tag_430:\n      0x20\n      mul\n      0x20\n      add\n      add\n      mload\n        /* \"contracts/StemPayLotteryManager.sol\":6654:6692  randomWords[0] % l.participants.length */\n      tag_432\n      swap2\n      swap1\n      tag_433\n      jump\t// in\n    tag_432:\n        /* \"contracts/StemPayLotteryManager.sol\":6632:6692  uint256 winnerIndex = randomWords[0] % l.participants.length */\n      swap1\n      pop\n        /* \"contracts/StemPayLotteryManager.sol\":6713:6714  l */\n      dup2\n        /* \"contracts/StemPayLotteryManager.sol\":6713:6727  l.participants */\n      0x09\n      add\n        /* \"contracts/StemPayLotteryManager.sol\":6728:6739  winnerIndex */\n      dup2\n        /* \"contracts/StemPayLotteryManager.sol\":6713:6740  l.participants[winnerIndex] */\n      dup2\n      sload\n      dup2\n      lt\n      tag_435\n      jumpi\n      tag_435\n      tag_431\n      jump\t// in\n    tag_435:\n      0x00\n      swap2\n      dup3\n      mstore\n      0x20\n      swap1\n      swap2\n      keccak256\n      add\n      sload\n        /* \"contracts/StemPayLotteryManager.sol\":6702:6710  l.winner */\n      0x0a\n      dup4\n      add\n        /* \"contracts/StemPayLotteryManager.sol\":6702:6740  l.winner = l.participants[winnerIndex] */\n      dup1\n      sload\n      not(sub(shl(0xa0, 0x01), 0x01))\n      and\n      sub(shl(0xa0, 0x01), 0x01)\n        /* \"contracts/StemPayLotteryManager.sol\":6713:6740  l.participants[winnerIndex] */\n      swap3\n      dup4\n      and\n        /* \"contracts/StemPayLotteryManager.sol\":6702:6740  l.winner = l.participants[winnerIndex] */\n      or\n      swap1\n      sstore\n        /* \"contracts/StemPayLotteryManager.sol\":6773:6787  l.tokenAddress */\n      dup3\n      sload\n        /* \"contracts/StemPayLotteryManager.sol\":6813:6829  investmentWallet */\n      0x04\n      dup1\n      sload\n        /* \"contracts/StemPayLotteryManager.sol\":6831:6848  l.feeToInvestment */\n      0x06\n      dup7\n      add\n      sload\n        /* \"contracts/StemPayLotteryManager.sol\":6798:6849  token.transfer(investmentWallet, l.feeToInvestment) */\n      mload(0x40)\n      shl(0xe0, 0xa9059cbb)\n      dup2\n      mstore\n        /* \"contracts/StemPayLotteryManager.sol\":6813:6829  investmentWallet */\n      swap2\n      dup6\n      and\n        /* \"contracts/StemPayLotteryManager.sol\":6798:6849  token.transfer(investmentWallet, l.feeToInvestment) */\n      swap3\n      dup3\n      add\n        /* \"#utility.yul\":16486:16537   */\n      swap3\n      swap1\n      swap3\n      mstore\n        /* \"#utility.yul\":16553:16571   */\n      0x24\n      dup2\n      add\n        /* \"#utility.yul\":16546:16580   */\n      swap2\n      swap1\n      swap2\n      mstore\n        /* \"contracts/StemPayLotteryManager.sol\":6773:6787  l.tokenAddress */\n      swap2\n      and\n      swap1\n      dup2\n      swap1\n        /* \"contracts/StemPayLotteryManager.sol\":6798:6812  token.transfer */\n      0xa9059cbb\n      swap1\n        /* \"#utility.yul\":16459:16477   */\n      0x44\n      add\n        /* \"contracts/StemPayLotteryManager.sol\":6798:6849  token.transfer(investmentWallet, l.feeToInvestment) */\n      0x20\n      mload(0x40)\n      dup1\n      dup4\n      sub\n      dup2\n      0x00\n      dup8\n      gas\n      call\n      iszero\n      dup1\n      iszero\n      tag_439\n      jumpi\n      returndatacopy(0x00, 0x00, returndatasize)\n      revert(0x00, returndatasize)\n    tag_439:\n      pop\n      pop\n      pop\n      pop\n      mload(0x40)\n      returndatasize\n      not(0x1f)\n      0x1f\n      dup3\n      add\n      and\n      dup3\n      add\n      dup1\n      0x40\n      mstore\n      pop\n      dup2\n      add\n      swap1\n      tag_440\n      swap2\n      swap1\n      tag_261\n      jump\t// in\n    tag_440:\n      pop\n        /* \"contracts/StemPayLotteryManager.sol\":6874:6886  profitWallet */\n      sload(0x05)\n        /* \"contracts/StemPayLotteryManager.sol\":6888:6901  l.feeToProfit */\n      0x07\n      dup5\n      add\n      sload\n        /* \"contracts/StemPayLotteryManager.sol\":6859:6902  token.transfer(profitWallet, l.feeToProfit) */\n      mload(0x40)\n      shl(0xe0, 0xa9059cbb)\n      dup2\n      mstore\n      sub(shl(0xa0, 0x01), 0x01)\n        /* \"contracts/StemPayLotteryManager.sol\":6874:6886  profitWallet */\n      swap3\n      dup4\n      and\n        /* \"contracts/StemPayLotteryManager.sol\":6859:6902  token.transfer(profitWallet, l.feeToProfit) */\n      0x04\n      dup3\n      add\n        /* \"#utility.yul\":16486:16537   */\n      mstore\n        /* \"#utility.yul\":16553:16571   */\n      0x24\n      dup2\n      add\n        /* \"#utility.yul\":16546:16580   */\n      swap2\n      swap1\n      swap2\n      mstore\n        /* \"contracts/StemPayLotteryManager.sol\":6859:6873  token.transfer */\n      swap1\n      dup3\n      and\n      swap1\n      0xa9059cbb\n      swap1\n        /* \"#utility.yul\":16459:16477   */\n      0x44\n      add\n        /* \"contracts/StemPayLotteryManager.sol\":6859:6902  token.transfer(profitWallet, l.feeToProfit) */\n      0x20\n      mload(0x40)\n      dup1\n      dup4\n      sub\n      dup2\n      0x00\n      dup8\n      gas\n      call\n      iszero\n      dup1\n      iszero\n      tag_443\n      jumpi\n      returndatacopy(0x00, 0x00, returndatasize)\n      revert(0x00, returndatasize)\n    tag_443:\n      pop\n      pop\n      pop\n      pop\n      mload(0x40)\n      returndatasize\n      not(0x1f)\n      0x1f\n      dup3\n      add\n      and\n      dup3\n      add\n      dup1\n      0x40\n      mstore\n      pop\n      dup2\n      add\n      swap1\n      tag_444\n      swap2\n      swap1\n      tag_261\n      jump\t// in\n    tag_444:\n      pop\n        /* \"contracts/StemPayLotteryManager.sol\":6944:6952  l.winner */\n      0x0a\n      dup4\n      add\n      sload\n        /* \"contracts/StemPayLotteryManager.sol\":6918:6953  WinnerSelected(lotteryId, l.winner) */\n      0x40\n      dup1\n      mload\n        /* \"#utility.yul\":12944:12969   */\n      dup7\n      dup2\n      mstore\n      sub(shl(0xa0, 0x01), 0x01)\n        /* \"contracts/StemPayLotteryManager.sol\":6944:6952  l.winner */\n      swap1\n      swap3\n      and\n        /* \"#utility.yul\":13000:13002   */\n      0x20\n        /* \"#utility.yul\":12985:13003   */\n      dup4\n      add\n        /* \"#utility.yul\":12978:13038   */\n      mstore\n        /* \"contracts/StemPayLotteryManager.sol\":6918:6953  WinnerSelected(lotteryId, l.winner) */\n      0x03fb57eb449654e24e1b240d3d06702cf79362a065d5c0323aee642d4702fa4b\n      swap2\n        /* \"#utility.yul\":12917:12935   */\n      add\n        /* \"contracts/StemPayLotteryManager.sol\":6918:6953  WinnerSelected(lotteryId, l.winner) */\n      mload(0x40)\n      dup1\n      swap2\n      sub\n      swap1\n      log1\n        /* \"contracts/StemPayLotteryManager.sol\":6438:6960  {... */\n      pop\n      pop\n      pop\n      pop\n        /* \"contracts/StemPayLotteryManager.sol\":6321:6960  function fulfillRandomWords(... */\n      pop\n      pop\n      jump\t// out\n        /* \"@openzeppelin/contracts-upgradeable/proxy/utils/Initializable.sol\":9071:9276  function _getInitializableStorage() private pure returns (InitializableStorage storage $) {... */\n    tag_211:\n        /* \"@openzeppelin/contracts-upgradeable/proxy/utils/Initializable.sol\":9129:9159  InitializableStorage storage $ */\n      0x00\n      dup1\n        /* \"@openzeppelin/contracts-upgradeable/proxy/utils/Initializable.sol\":3147:3213  0xf0c57e16840df040f15088dc2f81fe391c3923bec73e23a9662efc9c229c6a00 */\n      0xf0c57e16840df040f15088dc2f81fe391c3923bec73e23a9662efc9c229c6a00\n        /* \"@openzeppelin/contracts-upgradeable/proxy/utils/Initializable.sol\":9186:9213  _initializableStorageSlot() */\n      tag_208\n        /* \"@openzeppelin/contracts-upgradeable/proxy/utils/Initializable.sol\":8819:8941  function _initializableStorageSlot() internal pure virtual returns (bytes32) {... */\n      jump\n        /* \"@openzeppelin/contracts-upgradeable/access/OwnableUpgradeable.sol\":1847:1974  function __Ownable_init(address initialOwner) internal onlyInitializing {... */\n    tag_219:\n        /* \"@openzeppelin/contracts-upgradeable/proxy/utils/Initializable.sol\":6929:6949  _checkInitializing() */\n      tag_450\n        /* \"@openzeppelin/contracts-upgradeable/proxy/utils/Initializable.sol\":6929:6947  _checkInitializing */\n      tag_451\n        /* \"@openzeppelin/contracts-upgradeable/proxy/utils/Initializable.sol\":6929:6949  _checkInitializing() */\n      jump\t// in\n    tag_450:\n        /* \"@openzeppelin/contracts-upgradeable/access/OwnableUpgradeable.sol\":1929:1967  __Ownable_init_unchained(initialOwner) */\n      tag_289\n        /* \"@openzeppelin/contracts-upgradeable/access/OwnableUpgradeable.sol\":1954:1966  initialOwner */\n      dup2\n        /* \"@openzeppelin/contracts-upgradeable/access/OwnableUpgradeable.sol\":1929:1953  __Ownable_init_unchained */\n      tag_454\n        /* \"@openzeppelin/contracts-upgradeable/access/OwnableUpgradeable.sol\":1929:1967  __Ownable_init_unchained(initialOwner) */\n      jump\t// in\n        /* \"@openzeppelin/contracts-upgradeable/proxy/utils/UUPSUpgradeable.sol\":2970:3037  function __UUPSUpgradeable_init() internal onlyInitializing {... */\n    tag_221:\n        /* \"@openzeppelin/contracts-upgradeable/proxy/utils/Initializable.sol\":6929:6949  _checkInitializing() */\n      tag_370\n        /* \"@openzeppelin/contracts-upgradeable/proxy/utils/Initializable.sol\":6929:6947  _checkInitializing */\n      tag_451\n        /* \"@openzeppelin/contracts-upgradeable/proxy/utils/Initializable.sol\":6929:6949  _checkInitializing() */\n      jump\t// in\n        /* \"contracts/StemPayLotteryManager.sol\":669:816  function __VRFConsumerBaseV2_5Upgradeable_init(address _vrfCoordinator) internal onlyInitializing {... */\n    tag_223:\n        /* \"@openzeppelin/contracts-upgradeable/proxy/utils/Initializable.sol\":6929:6949  _checkInitializing() */\n      tag_459\n        /* \"@openzeppelin/contracts-upgradeable/proxy/utils/Initializable.sol\":6929:6947  _checkInitializing */\n      tag_451\n        /* \"@openzeppelin/contracts-upgradeable/proxy/utils/Initializable.sol\":6929:6949  _checkInitializing() */\n      jump\t// in\n    tag_459:\n        /* \"contracts/StemPayLotteryManager.sol\":777:791  vrfCoordinator */\n      0x01\n        /* \"contracts/StemPayLotteryManager.sol\":777:809  vrfCoordinator = _vrfCoordinator */\n      dup1\n      sload\n      not(sub(shl(0xa0, 0x01), 0x01))\n      and\n      sub(shl(0xa0, 0x01), 0x01)\n      swap3\n      swap1\n      swap3\n      and\n      swap2\n      swap1\n      swap2\n      or\n      swap1\n      sstore\n        /* \"contracts/StemPayLotteryManager.sol\":669:816  function __VRFConsumerBaseV2_5Upgradeable_init(address _vrfCoordinator) internal onlyInitializing {... */\n      jump\t// out\n        /* \"@openzeppelin/contracts/security/ReentrancyGuard.sol\":2336:2623  function _nonReentrantBefore() private {... */\n    tag_234:\n        /* \"@openzeppelin/contracts/security/ReentrancyGuard.sol\":1759:1760  2 */\n      0x02\n        /* \"@openzeppelin/contracts/security/ReentrancyGuard.sol\":2468:2475  _status */\n      sload(0x00)\n        /* \"@openzeppelin/contracts/security/ReentrancyGuard.sol\":2468:2487  _status != _ENTERED */\n      sub\n        /* \"@openzeppelin/contracts/security/ReentrancyGuard.sol\":2460:2523  require(_status != _ENTERED, \"ReentrancyGuard: reentrant call\") */\n      tag_462\n      jumpi\n      mload(0x40)\n      shl(0xe5, 0x461bcd)\n      dup2\n      mstore\n        /* \"#utility.yul\":21044:21046   */\n      0x20\n        /* \"@openzeppelin/contracts/security/ReentrancyGuard.sol\":2460:2523  require(_status != _ENTERED, \"ReentrancyGuard: reentrant call\") */\n      0x04\n      dup3\n      add\n        /* \"#utility.yul\":21026:21047   */\n      mstore\n        /* \"#utility.yul\":21083:21085   */\n      0x1f\n        /* \"#utility.yul\":21063:21081   */\n      0x24\n      dup3\n      add\n        /* \"#utility.yul\":21056:21086   */\n      mstore\n        /* \"#utility.yul\":21122:21155   */\n      0x5265656e7472616e637947756172643a207265656e7472616e742063616c6c00\n        /* \"#utility.yul\":21102:21120   */\n      0x44\n      dup3\n      add\n        /* \"#utility.yul\":21095:21156   */\n      mstore\n        /* \"#utility.yul\":21173:21191   */\n      0x64\n      add\n        /* \"@openzeppelin/contracts/security/ReentrancyGuard.sol\":2460:2523  require(_status != _ENTERED, \"ReentrancyGuard: reentrant call\") */\n      tag_229\n        /* \"#utility.yul\":20842:21197   */\n      jump\n        /* \"@openzeppelin/contracts/security/ReentrancyGuard.sol\":2460:2523  require(_status != _ENTERED, \"ReentrancyGuard: reentrant call\") */\n    tag_462:\n        /* \"@openzeppelin/contracts/security/ReentrancyGuard.sol\":1759:1760  2 */\n      0x02\n        /* \"@openzeppelin/contracts/security/ReentrancyGuard.sol\":2598:2605  _status */\n      0x00\n        /* \"@openzeppelin/contracts/security/ReentrancyGuard.sol\":2598:2616  _status = _ENTERED */\n      sstore\n        /* \"@openzeppelin/contracts/security/ReentrancyGuard.sol\":2336:2623  function _nonReentrantBefore() private {... */\n      jump\t// out\n        /* \"@openzeppelin/contracts-upgradeable/proxy/utils/UUPSUpgradeable.sol\":4578:4890  function _checkProxy() internal view virtual {... */\n    tag_312:\n        /* \"@openzeppelin/contracts-upgradeable/proxy/utils/UUPSUpgradeable.sol\":4658:4662  this */\n      address\n      sub(shl(0xa0, 0x01), 0x01)\n        /* \"@openzeppelin/contracts-upgradeable/proxy/utils/UUPSUpgradeable.sol\":4667:4673  __self */\n      immutable(\"0x7e11962f85eb7ceb5b38e296d507e5039b360e5ad6815220a68768366dc10fdd\")\n        /* \"@openzeppelin/contracts-upgradeable/proxy/utils/UUPSUpgradeable.sol\":4650:4673  address(this) == __self */\n      and\n      eq\n      dup1\n        /* \"@openzeppelin/contracts-upgradeable/proxy/utils/UUPSUpgradeable.sol\":4650:4770  address(this) == __self || // Must be called through delegatecall... */\n      tag_467\n      jumpi\n      pop\n        /* \"@openzeppelin/contracts-upgradeable/proxy/utils/UUPSUpgradeable.sol\":4764:4770  __self */\n      immutable(\"0x7e11962f85eb7ceb5b38e296d507e5039b360e5ad6815220a68768366dc10fdd\")\n      sub(shl(0xa0, 0x01), 0x01)\n        /* \"@openzeppelin/contracts-upgradeable/proxy/utils/UUPSUpgradeable.sol\":4728:4770  ERC1967Utils.getImplementation() != __self */\n      and\n        /* \"@openzeppelin/contracts-upgradeable/proxy/utils/UUPSUpgradeable.sol\":4728:4760  ERC1967Utils.getImplementation() */\n      tag_468\n      mload(0x00)\n      codecopy(0x00, data_75b20eef8615de99c108b05f0dbda081c91897128caa336d75dffb97c4132b4d, 0x20)\n      mload(0x00)\n      swap1\n      0x00\n      mstore\n        /* \"@openzeppelin/contracts/proxy/ERC1967/ERC1967Utils.sol\":1519:1572  StorageSlot.getAddressSlot(IMPLEMENTATION_SLOT).value */\n      sload\n      sub(shl(0xa0, 0x01), 0x01)\n      and\n      swap1\n        /* \"@openzeppelin/contracts/proxy/ERC1967/ERC1967Utils.sol\":1441:1579  function getImplementation() internal view returns (address) {... */\n      jump\n        /* \"@openzeppelin/contracts-upgradeable/proxy/utils/UUPSUpgradeable.sol\":4728:4760  ERC1967Utils.getImplementation() */\n    tag_468:\n      sub(shl(0xa0, 0x01), 0x01)\n        /* \"@openzeppelin/contracts-upgradeable/proxy/utils/UUPSUpgradeable.sol\":4728:4770  ERC1967Utils.getImplementation() != __self */\n      and\n      eq\n      iszero\n        /* \"@openzeppelin/contracts-upgradeable/proxy/utils/UUPSUpgradeable.sol\":4650:4770  address(this) == __self || // Must be called through delegatecall... */\n    tag_467:\n        /* \"@openzeppelin/contracts-upgradeable/proxy/utils/UUPSUpgradeable.sol\":4633:4884  if (... */\n      iszero\n      tag_370\n      jumpi\n        /* \"@openzeppelin/contracts-upgradeable/proxy/utils/UUPSUpgradeable.sol\":4844:4873  UUPSUnauthorizedCallContext() */\n      mload(0x40)\n      shl(0xe1, 0x703e46dd)\n      dup2\n      mstore\n      0x04\n      add\n      mload(0x40)\n      dup1\n      swap2\n      sub\n      swap1\n      revert\n        /* \"contracts/StemPayLotteryManager.sol\":3305:3371  function _authorizeUpgrade(address) internal override onlyOwner {} */\n    tag_315:\n        /* \"@openzeppelin/contracts-upgradeable/access/OwnableUpgradeable.sol\":2334:2347  _checkOwner() */\n      tag_289\n        /* \"@openzeppelin/contracts-upgradeable/access/OwnableUpgradeable.sol\":2334:2345  _checkOwner */\n      tag_204\n        /* \"@openzeppelin/contracts-upgradeable/access/OwnableUpgradeable.sol\":2334:2347  _checkOwner() */\n      jump\t// in\n        /* \"@openzeppelin/contracts-upgradeable/proxy/utils/UUPSUpgradeable.sol\":6032:6570  function _upgradeToAndCallUUPS(address newImplementation, bytes memory data) private {... */\n    tag_317:\n        /* \"@openzeppelin/contracts-upgradeable/proxy/utils/UUPSUpgradeable.sol\":6149:6166  newImplementation */\n      dup2\n      sub(shl(0xa0, 0x01), 0x01)\n        /* \"@openzeppelin/contracts-upgradeable/proxy/utils/UUPSUpgradeable.sol\":6131:6181  IERC1822Proxiable(newImplementation).proxiableUUID */\n      and\n      0x52d1902d\n        /* \"@openzeppelin/contracts-upgradeable/proxy/utils/UUPSUpgradeable.sol\":6131:6183  IERC1822Proxiable(newImplementation).proxiableUUID() */\n      mload(0x40)\n      dup2\n      0xffffffff\n      and\n      0xe0\n      shl\n      dup2\n      mstore\n      0x04\n      add\n      0x20\n      mload(0x40)\n      dup1\n      dup4\n      sub\n      dup2\n      dup7\n      gas\n      staticcall\n      swap3\n      pop\n      pop\n      pop\n      dup1\n      iszero\n      tag_475\n      jumpi\n      pop\n      0x40\n      dup1\n      mload\n      0x1f\n      returndatasize\n      swap1\n      dup2\n      add\n      not(0x1f)\n      and\n      dup3\n      add\n      swap1\n      swap3\n      mstore\n      tag_476\n      swap2\n      dup2\n      add\n      swap1\n      tag_364\n      jump\t// in\n    tag_476:\n      0x01\n    tag_475:\n        /* \"@openzeppelin/contracts-upgradeable/proxy/utils/UUPSUpgradeable.sol\":6127:6564  try IERC1822Proxiable(newImplementation).proxiableUUID() returns (bytes32 slot) {... */\n      tag_478\n      jumpi\n        /* \"@openzeppelin/contracts-upgradeable/proxy/utils/UUPSUpgradeable.sol\":6493:6553  ERC1967Utils.ERC1967InvalidImplementation(newImplementation) */\n      mload(0x40)\n      shl(0xe0, 0x4c9c8ce3)\n      dup2\n      mstore\n      sub(shl(0xa0, 0x01), 0x01)\n        /* \"#utility.yul\":5272:5304   */\n      dup4\n      and\n        /* \"@openzeppelin/contracts-upgradeable/proxy/utils/UUPSUpgradeable.sol\":6493:6553  ERC1967Utils.ERC1967InvalidImplementation(newImplementation) */\n      0x04\n      dup3\n      add\n        /* \"#utility.yul\":5254:5305   */\n      mstore\n        /* \"#utility.yul\":5227:5245   */\n      0x24\n      add\n        /* \"@openzeppelin/contracts-upgradeable/proxy/utils/UUPSUpgradeable.sol\":6493:6553  ERC1967Utils.ERC1967InvalidImplementation(newImplementation) */\n      tag_229\n        /* \"#utility.yul\":5108:5311   */\n      jump\n        /* \"@openzeppelin/contracts-upgradeable/proxy/utils/UUPSUpgradeable.sol\":6127:6564  try IERC1822Proxiable(newImplementation).proxiableUUID() returns (bytes32 slot) {... */\n    tag_478:\n      mload(0x00)\n      codecopy(0x00, data_75b20eef8615de99c108b05f0dbda081c91897128caa336d75dffb97c4132b4d, 0x20)\n      mload(0x00)\n      swap1\n      0x00\n      mstore\n        /* \"@openzeppelin/contracts-upgradeable/proxy/utils/UUPSUpgradeable.sol\":6225:6265  slot != ERC1967Utils.IMPLEMENTATION_SLOT */\n      dup2\n      eq\n        /* \"@openzeppelin/contracts-upgradeable/proxy/utils/UUPSUpgradeable.sol\":6221:6341  if (slot != ERC1967Utils.IMPLEMENTATION_SLOT) {... */\n      tag_484\n      jumpi\n        /* \"@openzeppelin/contracts-upgradeable/proxy/utils/UUPSUpgradeable.sol\":6292:6326  UUPSUnsupportedProxiableUUID(slot) */\n      mload(0x40)\n      shl(0xe2, 0x2a875269)\n      dup2\n      mstore\n      0x04\n      dup2\n      add\n        /* \"#utility.yul\":1564:1589   */\n      dup3\n      swap1\n      mstore\n        /* \"#utility.yul\":1537:1555   */\n      0x24\n      add\n        /* \"@openzeppelin/contracts-upgradeable/proxy/utils/UUPSUpgradeable.sol\":6292:6326  UUPSUnsupportedProxiableUUID(slot) */\n      tag_229\n        /* \"#utility.yul\":1418:1595   */\n      jump\n        /* \"@openzeppelin/contracts-upgradeable/proxy/utils/UUPSUpgradeable.sol\":6221:6341  if (slot != ERC1967Utils.IMPLEMENTATION_SLOT) {... */\n    tag_484:\n        /* \"@openzeppelin/contracts-upgradeable/proxy/utils/UUPSUpgradeable.sol\":6354:6408  ERC1967Utils.upgradeToAndCall(newImplementation, data) */\n      tag_206\n        /* \"@openzeppelin/contracts-upgradeable/proxy/utils/UUPSUpgradeable.sol\":6384:6401  newImplementation */\n      dup4\n        /* \"@openzeppelin/contracts-upgradeable/proxy/utils/UUPSUpgradeable.sol\":6403:6407  data */\n      dup4\n        /* \"@openzeppelin/contracts-upgradeable/proxy/utils/UUPSUpgradeable.sol\":6354:6383  ERC1967Utils.upgradeToAndCall */\n      tag_487\n        /* \"@openzeppelin/contracts-upgradeable/proxy/utils/UUPSUpgradeable.sol\":6354:6408  ERC1967Utils.upgradeToAndCall(newImplementation, data) */\n      jump\t// in\n        /* \"@openzeppelin/contracts-upgradeable/proxy/utils/UUPSUpgradeable.sol\":5007:5220  function _checkNotDelegated() internal view virtual {... */\n    tag_320:\n        /* \"@openzeppelin/contracts-upgradeable/proxy/utils/UUPSUpgradeable.sol\":5081:5085  this */\n      address\n      sub(shl(0xa0, 0x01), 0x01)\n        /* \"@openzeppelin/contracts-upgradeable/proxy/utils/UUPSUpgradeable.sol\":5090:5096  __self */\n      immutable(\"0x7e11962f85eb7ceb5b38e296d507e5039b360e5ad6815220a68768366dc10fdd\")\n        /* \"@openzeppelin/contracts-upgradeable/proxy/utils/UUPSUpgradeable.sol\":5073:5096  address(this) != __self */\n      and\n      eq\n        /* \"@openzeppelin/contracts-upgradeable/proxy/utils/UUPSUpgradeable.sol\":5069:5214  if (address(this) != __self) {... */\n      tag_370\n      jumpi\n        /* \"@openzeppelin/contracts-upgradeable/proxy/utils/UUPSUpgradeable.sol\":5174:5203  UUPSUnauthorizedCallContext() */\n      mload(0x40)\n      shl(0xe1, 0x703e46dd)\n      dup2\n      mstore\n      0x04\n      add\n      mload(0x40)\n      dup1\n      swap2\n      sub\n      swap1\n      revert\n        /* \"@chainlink/contracts/src/v0.8/vrf/dev/libraries/VRFV2PlusClient.sol\":475:638  function _argsToBytes(ExtraArgsV1 memory extraArgs) internal pure returns (bytes memory bts) {... */\n    tag_358:\n        /* \"@chainlink/contracts/src/v0.8/vrf/dev/libraries/VRFV2PlusClient.sol\":550:566  bytes memory bts */\n      0x60\n        /* \"@chainlink/contracts/src/v0.8/vrf/dev/libraries/VRFV2PlusClient.sol\":211:239  keccak256(\"VRF ExtraArgsV1\") */\n      0x92fd13387c7fe7befbc38d303d6468778fb9731bc4583f17d92989c6fcfdeaaa\n        /* \"@chainlink/contracts/src/v0.8/vrf/dev/libraries/VRFV2PlusClient.sol\":623:632  extraArgs */\n      dup3\n        /* \"@chainlink/contracts/src/v0.8/vrf/dev/libraries/VRFV2PlusClient.sol\":581:633  abi.encodeWithSelector(EXTRA_ARGS_V1_TAG, extraArgs) */\n      add(0x24, mload(0x40))\n      tag_491\n      swap2\n        /* \"#utility.yul\":21625:21638   */\n      mload\n        /* \"#utility.yul\":21618:21639   */\n      iszero\n        /* \"#utility.yul\":21611:21640   */\n      iszero\n        /* \"#utility.yul\":21593:21641   */\n      dup2\n      mstore\n        /* \"#utility.yul\":21581:21583   */\n      0x20\n        /* \"#utility.yul\":21566:21584   */\n      add\n      swap1\n        /* \"#utility.yul\":21391:21647   */\n      jump\n        /* \"@chainlink/contracts/src/v0.8/vrf/dev/libraries/VRFV2PlusClient.sol\":581:633  abi.encodeWithSelector(EXTRA_ARGS_V1_TAG, extraArgs) */\n    tag_491:\n      0x40\n      dup1\n      mload\n      not(0x1f)\n      dup2\n      dup5\n      sub\n      add\n      dup2\n      mstore\n      swap2\n      swap1\n      mstore\n      0x20\n      dup2\n      add\n      dup1\n      mload\n      sub(shl(0xe0, 0x01), 0x01)\n      and\n      not(sub(shl(0xe0, 0x01), 0x01))\n      swap1\n      swap4\n      and\n      swap3\n      swap1\n      swap3\n      or\n      swap1\n      swap2\n      mstore\n      swap3\n        /* \"@chainlink/contracts/src/v0.8/vrf/dev/libraries/VRFV2PlusClient.sol\":475:638  function _argsToBytes(ExtraArgsV1 memory extraArgs) internal pure returns (bytes memory bts) {... */\n      swap2\n      pop\n      pop\n      jump\t// out\n        /* \"@openzeppelin/contracts-upgradeable/access/OwnableUpgradeable.sol\":3774:4022  function _transferOwnership(address newOwner) internal virtual {... */\n    tag_371:\n        /* \"@openzeppelin/contracts-upgradeable/access/OwnableUpgradeable.sol\":1313:1335  OwnableStorageLocation */\n      0x9016d09d72d40fdae2fd8ceac6b6234c7706214fd39c1cd1e609a0528c199300\n        /* \"@openzeppelin/contracts-upgradeable/access/OwnableUpgradeable.sol\":3923:3931  $._owner */\n      dup1\n      sload\n      not(sub(shl(0xa0, 0x01), 0x01))\n        /* \"@openzeppelin/contracts-upgradeable/access/OwnableUpgradeable.sol\":3941:3960  $._owner = newOwner */\n      dup2\n      and\n      sub(shl(0xa0, 0x01), 0x01)\n      dup5\n      dup2\n      and\n      swap2\n      dup3\n      or\n      dup5\n      sstore\n        /* \"@openzeppelin/contracts-upgradeable/access/OwnableUpgradeable.sol\":3975:4015  OwnershipTransferred(oldOwner, newOwner) */\n      mload(0x40)\n        /* \"@openzeppelin/contracts-upgradeable/access/OwnableUpgradeable.sol\":3923:3931  $._owner */\n      swap3\n      and\n      swap2\n      dup3\n      swap1\n        /* \"@openzeppelin/contracts-upgradeable/access/OwnableUpgradeable.sol\":3975:4015  OwnershipTransferred(oldOwner, newOwner) */\n      0x8be0079c531659141344cd1fd0a4f28419497f9722a3daafe3b4186f6b6457e0\n      swap1\n        /* \"@openzeppelin/contracts-upgradeable/access/OwnableUpgradeable.sol\":3847:3871  OwnableStorage storage $ */\n      0x00\n      swap1\n        /* \"@openzeppelin/contracts-upgradeable/access/OwnableUpgradeable.sol\":3975:4015  OwnershipTransferred(oldOwner, newOwner) */\n      log3\n        /* \"@openzeppelin/contracts-upgradeable/access/OwnableUpgradeable.sol\":3837:4022  {... */\n      pop\n      pop\n        /* \"@openzeppelin/contracts-upgradeable/access/OwnableUpgradeable.sol\":3774:4022  function _transferOwnership(address newOwner) internal virtual {... */\n      pop\n      jump\t// out\n        /* \"@openzeppelin/contracts-upgradeable/proxy/utils/Initializable.sol\":7082:7223  function _checkInitializing() internal view virtual {... */\n    tag_451:\n        /* \"@openzeppelin/contracts-upgradeable/proxy/utils/Initializable.sol\":7149:7166  _isInitializing() */\n      tag_499\n        /* \"@openzeppelin/contracts-upgradeable/proxy/utils/Initializable.sol\":7149:7164  _isInitializing */\n      tag_500\n        /* \"@openzeppelin/contracts-upgradeable/proxy/utils/Initializable.sol\":7149:7166  _isInitializing() */\n      jump\t// in\n    tag_499:\n        /* \"@openzeppelin/contracts-upgradeable/proxy/utils/Initializable.sol\":7144:7217  if (!_isInitializing()) {... */\n      tag_370\n      jumpi\n        /* \"@openzeppelin/contracts-upgradeable/proxy/utils/Initializable.sol\":7189:7206  NotInitializing() */\n      mload(0x40)\n      shl(0xe3, 0x1afcd79f)\n      dup2\n      mstore\n      0x04\n      add\n      mload(0x40)\n      dup1\n      swap2\n      sub\n      swap1\n      revert\n        /* \"@openzeppelin/contracts-upgradeable/access/OwnableUpgradeable.sol\":1980:2215  function __Ownable_init_unchained(address initialOwner) internal onlyInitializing {... */\n    tag_454:\n        /* \"@openzeppelin/contracts-upgradeable/proxy/utils/Initializable.sol\":6929:6949  _checkInitializing() */\n      tag_412\n        /* \"@openzeppelin/contracts-upgradeable/proxy/utils/Initializable.sol\":6929:6947  _checkInitializing */\n      tag_451\n        /* \"@openzeppelin/contracts-upgradeable/proxy/utils/Initializable.sol\":6929:6949  _checkInitializing() */\n      jump\t// in\n        /* \"@openzeppelin/contracts/proxy/ERC1967/ERC1967Utils.sol\":2264:2608  function upgradeToAndCall(address newImplementation, bytes memory data) internal {... */\n    tag_487:\n        /* \"@openzeppelin/contracts/proxy/ERC1967/ERC1967Utils.sol\":2355:2392  _setImplementation(newImplementation) */\n      tag_512\n        /* \"@openzeppelin/contracts/proxy/ERC1967/ERC1967Utils.sol\":2374:2391  newImplementation */\n      dup3\n        /* \"@openzeppelin/contracts/proxy/ERC1967/ERC1967Utils.sol\":2355:2373  _setImplementation */\n      tag_513\n        /* \"@openzeppelin/contracts/proxy/ERC1967/ERC1967Utils.sol\":2355:2392  _setImplementation(newImplementation) */\n      jump\t// in\n    tag_512:\n        /* \"@openzeppelin/contracts/proxy/ERC1967/ERC1967Utils.sol\":2407:2443  IERC1967.Upgraded(newImplementation) */\n      mload(0x40)\n      sub(shl(0xa0, 0x01), 0x01)\n      dup4\n      and\n      swap1\n      0xbc7cd75a20ee27fd9adebab32041f755214dbc6bffa90cc0225b39da2e5c2d3b\n      swap1\n      0x00\n      swap1\n      log2\n        /* \"@openzeppelin/contracts/proxy/ERC1967/ERC1967Utils.sol\":2458:2469  data.length */\n      dup1\n      mload\n        /* \"@openzeppelin/contracts/proxy/ERC1967/ERC1967Utils.sol\":2458:2473  data.length > 0 */\n      iszero\n        /* \"@openzeppelin/contracts/proxy/ERC1967/ERC1967Utils.sol\":2454:2602  if (data.length > 0) {... */\n      tag_514\n      jumpi\n        /* \"@openzeppelin/contracts/proxy/ERC1967/ERC1967Utils.sol\":2489:2542  Address.functionDelegateCall(newImplementation, data) */\n      tag_206\n        /* \"@openzeppelin/contracts/proxy/ERC1967/ERC1967Utils.sol\":2518:2535  newImplementation */\n      dup3\n        /* \"@openzeppelin/contracts/proxy/ERC1967/ERC1967Utils.sol\":2537:2541  data */\n      dup3\n        /* \"@openzeppelin/contracts/proxy/ERC1967/ERC1967Utils.sol\":2489:2517  Address.functionDelegateCall */\n      tag_516\n        /* \"@openzeppelin/contracts/proxy/ERC1967/ERC1967Utils.sol\":2489:2542  Address.functionDelegateCall(newImplementation, data) */\n      jump\t// in\n        /* \"@openzeppelin/contracts/proxy/ERC1967/ERC1967Utils.sol\":2454:2602  if (data.length > 0) {... */\n    tag_514:\n        /* \"@openzeppelin/contracts/proxy/ERC1967/ERC1967Utils.sol\":2573:2591  _checkNonPayable() */\n      tag_231\n        /* \"@openzeppelin/contracts/proxy/ERC1967/ERC1967Utils.sol\":2573:2589  _checkNonPayable */\n      tag_519\n        /* \"@openzeppelin/contracts/proxy/ERC1967/ERC1967Utils.sol\":2573:2591  _checkNonPayable() */\n      jump\t// in\n        /* \"@openzeppelin/contracts-upgradeable/proxy/utils/Initializable.sol\":8485:8605  function _isInitializing() internal view returns (bool) {... */\n    tag_500:\n        /* \"@openzeppelin/contracts-upgradeable/proxy/utils/Initializable.sol\":8535:8539  bool */\n      0x00\n        /* \"@openzeppelin/contracts-upgradeable/proxy/utils/Initializable.sol\":8558:8584  _getInitializableStorage() */\n      tag_521\n        /* \"@openzeppelin/contracts-upgradeable/proxy/utils/Initializable.sol\":8558:8582  _getInitializableStorage */\n      tag_211\n        /* \"@openzeppelin/contracts-upgradeable/proxy/utils/Initializable.sol\":8558:8584  _getInitializableStorage() */\n      jump\t// in\n    tag_521:\n        /* \"@openzeppelin/contracts-upgradeable/proxy/utils/Initializable.sol\":8558:8598  _getInitializableStorage()._initializing */\n      sload\n      shl(0x40, 0x01)\n      swap1\n      div\n      0xff\n      and\n      swap2\n      swap1\n      pop\n        /* \"@openzeppelin/contracts-upgradeable/proxy/utils/Initializable.sol\":8485:8605  function _isInitializing() internal view returns (bool) {... */\n      jump\t// out\n        /* \"@openzeppelin/contracts/proxy/ERC1967/ERC1967Utils.sol\":1671:1952  function _setImplementation(address newImplementation) private {... */\n    tag_513:\n        /* \"@openzeppelin/contracts/proxy/ERC1967/ERC1967Utils.sol\":1748:1765  newImplementation */\n      dup1\n      sub(shl(0xa0, 0x01), 0x01)\n        /* \"@openzeppelin/contracts/proxy/ERC1967/ERC1967Utils.sol\":1748:1777  newImplementation.code.length */\n      and\n      extcodesize\n        /* \"@openzeppelin/contracts/proxy/ERC1967/ERC1967Utils.sol\":1781:1782  0 */\n      0x00\n        /* \"@openzeppelin/contracts/proxy/ERC1967/ERC1967Utils.sol\":1748:1782  newImplementation.code.length == 0 */\n      sub\n        /* \"@openzeppelin/contracts/proxy/ERC1967/ERC1967Utils.sol\":1744:1863  if (newImplementation.code.length == 0) {... */\n      tag_524\n      jumpi\n        /* \"@openzeppelin/contracts/proxy/ERC1967/ERC1967Utils.sol\":1805:1852  ERC1967InvalidImplementation(newImplementation) */\n      mload(0x40)\n      shl(0xe0, 0x4c9c8ce3)\n      dup2\n      mstore\n      sub(shl(0xa0, 0x01), 0x01)\n        /* \"#utility.yul\":5272:5304   */\n      dup3\n      and\n        /* \"@openzeppelin/contracts/proxy/ERC1967/ERC1967Utils.sol\":1805:1852  ERC1967InvalidImplementation(newImplementation) */\n      0x04\n      dup3\n      add\n        /* \"#utility.yul\":5254:5305   */\n      mstore\n        /* \"#utility.yul\":5227:5245   */\n      0x24\n      add\n        /* \"@openzeppelin/contracts/proxy/ERC1967/ERC1967Utils.sol\":1805:1852  ERC1967InvalidImplementation(newImplementation) */\n      tag_229\n        /* \"#utility.yul\":5108:5311   */\n      jump\n        /* \"@openzeppelin/contracts/proxy/ERC1967/ERC1967Utils.sol\":1744:1863  if (newImplementation.code.length == 0) {... */\n    tag_524:\n      mload(0x00)\n      codecopy(0x00, data_75b20eef8615de99c108b05f0dbda081c91897128caa336d75dffb97c4132b4d, 0x20)\n      mload(0x00)\n      swap1\n      0x00\n      mstore\n        /* \"@openzeppelin/contracts/proxy/ERC1967/ERC1967Utils.sol\":1872:1945  StorageSlot.getAddressSlot(IMPLEMENTATION_SLOT).value = newImplementation */\n      dup1\n      sload\n      not(sub(shl(0xa0, 0x01), 0x01))\n      and\n      sub(shl(0xa0, 0x01), 0x01)\n      swap3\n      swap1\n      swap3\n      and\n      swap2\n      swap1\n      swap2\n      or\n      swap1\n      sstore\n        /* \"@openzeppelin/contracts/proxy/ERC1967/ERC1967Utils.sol\":1671:1952  function _setImplementation(address newImplementation) private {... */\n      jump\t// out\n        /* \"@openzeppelin/contracts/utils/Address.sol\":3916:4169  function functionDelegateCall(address target, bytes memory data) internal returns (bytes memory) {... */\n    tag_516:\n        /* \"@openzeppelin/contracts/utils/Address.sol\":3999:4011  bytes memory */\n      0x60\n        /* \"@openzeppelin/contracts/utils/Address.sol\":4024:4036  bool success */\n      0x00\n        /* \"@openzeppelin/contracts/utils/Address.sol\":4038:4061  bytes memory returndata */\n      0x00\n        /* \"@openzeppelin/contracts/utils/Address.sol\":4065:4071  target */\n      dup5\n      sub(shl(0xa0, 0x01), 0x01)\n        /* \"@openzeppelin/contracts/utils/Address.sol\":4065:4084  target.delegatecall */\n      and\n        /* \"@openzeppelin/contracts/utils/Address.sol\":4085:4089  data */\n      dup5\n        /* \"@openzeppelin/contracts/utils/Address.sol\":4065:4090  target.delegatecall(data) */\n      mload(0x40)\n      tag_528\n      swap2\n      swap1\n      tag_529\n      jump\t// in\n    tag_528:\n      0x00\n      mload(0x40)\n      dup1\n      dup4\n      sub\n      dup2\n      dup6\n      gas\n      delegatecall\n      swap2\n      pop\n      pop\n      returndatasize\n      dup1\n      0x00\n      dup2\n      eq\n      tag_532\n      jumpi\n      mload(0x40)\n      swap2\n      pop\n      and(add(returndatasize, 0x3f), not(0x1f))\n      dup3\n      add\n      0x40\n      mstore\n      returndatasize\n      dup3\n      mstore\n      returndatasize\n      0x00\n      0x20\n      dup5\n      add\n      returndatacopy\n      jump(tag_531)\n    tag_532:\n      0x60\n      swap2\n      pop\n    tag_531:\n      pop\n        /* \"@openzeppelin/contracts/utils/Address.sol\":4023:4090  (bool success, bytes memory returndata) = target.delegatecall(data) */\n      swap2\n      pop\n      swap2\n      pop\n        /* \"@openzeppelin/contracts/utils/Address.sol\":4107:4162  verifyCallResultFromTarget(target, success, returndata) */\n      tag_533\n        /* \"@openzeppelin/contracts/utils/Address.sol\":4134:4140  target */\n      dup6\n        /* \"@openzeppelin/contracts/utils/Address.sol\":4142:4149  success */\n      dup4\n        /* \"@openzeppelin/contracts/utils/Address.sol\":4151:4161  returndata */\n      dup4\n        /* \"@openzeppelin/contracts/utils/Address.sol\":4107:4133  verifyCallResultFromTarget */\n      tag_534\n        /* \"@openzeppelin/contracts/utils/Address.sol\":4107:4162  verifyCallResultFromTarget(target, success, returndata) */\n      jump\t// in\n    tag_533:\n        /* \"@openzeppelin/contracts/utils/Address.sol\":4100:4162  return verifyCallResultFromTarget(target, success, returndata) */\n      swap6\n        /* \"@openzeppelin/contracts/utils/Address.sol\":3916:4169  function functionDelegateCall(address target, bytes memory data) internal returns (bytes memory) {... */\n      swap5\n      pop\n      pop\n      pop\n      pop\n      pop\n      jump\t// out\n        /* \"@openzeppelin/contracts/proxy/ERC1967/ERC1967Utils.sol\":6113:6235  function _checkNonPayable() private {... */\n    tag_519:\n        /* \"@openzeppelin/contracts/proxy/ERC1967/ERC1967Utils.sol\":6163:6172  msg.value */\n      callvalue\n        /* \"@openzeppelin/contracts/proxy/ERC1967/ERC1967Utils.sol\":6163:6176  msg.value > 0 */\n      iszero\n        /* \"@openzeppelin/contracts/proxy/ERC1967/ERC1967Utils.sol\":6159:6229  if (msg.value > 0) {... */\n      tag_370\n      jumpi\n        /* \"@openzeppelin/contracts/proxy/ERC1967/ERC1967Utils.sol\":6199:6218  ERC1967NonPayable() */\n      mload(0x40)\n      shl(0xe0, 0xb398979f)\n      dup2\n      mstore\n      0x04\n      add\n      mload(0x40)\n      dup1\n      swap2\n      sub\n      swap1\n      revert\n        /* \"@openzeppelin/contracts/utils/Address.sol\":4437:5019  function verifyCallResultFromTarget(... */\n    tag_534:\n        /* \"@openzeppelin/contracts/utils/Address.sol\":4581:4593  bytes memory */\n      0x60\n        /* \"@openzeppelin/contracts/utils/Address.sol\":4610:4617  success */\n      dup3\n        /* \"@openzeppelin/contracts/utils/Address.sol\":4605:5013  if (!success) {... */\n      tag_538\n      jumpi\n        /* \"@openzeppelin/contracts/utils/Address.sol\":4633:4652  _revert(returndata) */\n      tag_539\n        /* \"@openzeppelin/contracts/utils/Address.sol\":4641:4651  returndata */\n      dup3\n        /* \"@openzeppelin/contracts/utils/Address.sol\":4633:4640  _revert */\n      tag_540\n        /* \"@openzeppelin/contracts/utils/Address.sol\":4633:4652  _revert(returndata) */\n      jump\t// in\n    tag_539:\n        /* \"@openzeppelin/contracts/utils/Address.sol\":4605:5013  if (!success) {... */\n      jump(tag_541)\n    tag_538:\n        /* \"@openzeppelin/contracts/utils/Address.sol\":4857:4874  returndata.length */\n      dup2\n      mload\n        /* \"@openzeppelin/contracts/utils/Address.sol\":4857:4879  returndata.length == 0 */\n      iszero\n        /* \"@openzeppelin/contracts/utils/Address.sol\":4857:4906  returndata.length == 0 && target.code.length == 0 */\n      dup1\n      iszero\n      tag_542\n      jumpi\n      pop\n      sub(shl(0xa0, 0x01), 0x01)\n        /* \"@openzeppelin/contracts/utils/Address.sol\":4883:4901  target.code.length */\n      dup5\n      and\n      extcodesize\n        /* \"@openzeppelin/contracts/utils/Address.sol\":4883:4906  target.code.length == 0 */\n      iszero\n        /* \"@openzeppelin/contracts/utils/Address.sol\":4857:4906  returndata.length == 0 && target.code.length == 0 */\n    tag_542:\n        /* \"@openzeppelin/contracts/utils/Address.sol\":4853:4972  if (returndata.length == 0 && target.code.length == 0) {... */\n      iszero\n      tag_543\n      jumpi\n        /* \"@openzeppelin/contracts/utils/Address.sol\":4933:4957  AddressEmptyCode(target) */\n      mload(0x40)\n      shl(0xe0, 0x9996b315)\n      dup2\n      mstore\n      sub(shl(0xa0, 0x01), 0x01)\n        /* \"#utility.yul\":5272:5304   */\n      dup6\n      and\n        /* \"@openzeppelin/contracts/utils/Address.sol\":4933:4957  AddressEmptyCode(target) */\n      0x04\n      dup3\n      add\n        /* \"#utility.yul\":5254:5305   */\n      mstore\n        /* \"#utility.yul\":5227:5245   */\n      0x24\n      add\n        /* \"@openzeppelin/contracts/utils/Address.sol\":4933:4957  AddressEmptyCode(target) */\n      tag_229\n        /* \"#utility.yul\":5108:5311   */\n      jump\n        /* \"@openzeppelin/contracts/utils/Address.sol\":4853:4972  if (returndata.length == 0 && target.code.length == 0) {... */\n    tag_543:\n      pop\n        /* \"@openzeppelin/contracts/utils/Address.sol\":4992:5002  returndata */\n      dup1\n        /* \"@openzeppelin/contracts/utils/Address.sol\":4605:5013  if (!success) {... */\n    tag_541:\n        /* \"@openzeppelin/contracts/utils/Address.sol\":4437:5019  function verifyCallResultFromTarget(... */\n      swap4\n      swap3\n      pop\n      pop\n      pop\n      jump\t// out\n        /* \"@openzeppelin/contracts/utils/Address.sol\":5559:6046  function _revert(bytes memory returndata) private pure {... */\n    tag_540:\n        /* \"@openzeppelin/contracts/utils/Address.sol\":5690:5707  returndata.length */\n      dup1\n      mload\n        /* \"@openzeppelin/contracts/utils/Address.sol\":5690:5711  returndata.length > 0 */\n      iszero\n        /* \"@openzeppelin/contracts/utils/Address.sol\":5686:6040  if (returndata.length > 0) {... */\n      tag_546\n      jumpi\n        /* \"@openzeppelin/contracts/utils/Address.sol\":5887:5897  returndata */\n      dup1\n        /* \"@openzeppelin/contracts/utils/Address.sol\":5881:5898  mload(returndata) */\n      mload\n        /* \"@openzeppelin/contracts/utils/Address.sol\":5943:5958  returndata_size */\n      dup1\n        /* \"@openzeppelin/contracts/utils/Address.sol\":5930:5940  returndata */\n      dup3\n        /* \"@openzeppelin/contracts/utils/Address.sol\":5926:5928  32 */\n      0x20\n        /* \"@openzeppelin/contracts/utils/Address.sol\":5922:5941  add(32, returndata) */\n      add\n        /* \"@openzeppelin/contracts/utils/Address.sol\":5915:5959  revert(add(32, returndata), returndata_size) */\n      revert\n        /* \"@openzeppelin/contracts/utils/Address.sol\":5686:6040  if (returndata.length > 0) {... */\n    tag_546:\n        /* \"@openzeppelin/contracts/utils/Address.sol\":6010:6029  Errors.FailedCall() */\n      mload(0x40)\n      shl(0xe0, 0xd6bda275)\n      dup2\n      mstore\n      0x04\n      add\n      mload(0x40)\n      dup1\n      swap2\n      sub\n      swap1\n      revert\n    tag_388:\n      pop\n      dup1\n      sload\n      0x00\n      dup3\n      sstore\n      swap1\n      0x00\n      mstore\n      keccak256(0x00, 0x20)\n      swap1\n      dup2\n      add\n      swap1\n      tag_289\n      swap2\n      swap1\n    tag_551:\n      dup1\n      dup3\n      gt\n      iszero\n      tag_552\n      jumpi\n      0x00\n      dup2\n      sstore\n      0x01\n      add\n      jump(tag_551)\n    tag_552:\n      pop\n      swap1\n      jump\t// out\n        /* \"#utility.yul\":14:738   */\n    tag_46:\n        /* \"#utility.yul\":109:115   */\n      0x00\n        /* \"#utility.yul\":117:123   */\n      0x00\n        /* \"#utility.yul\":125:131   */\n      0x00\n        /* \"#utility.yul\":178:180   */\n      0x40\n        /* \"#utility.yul\":166:175   */\n      dup5\n        /* \"#utility.yul\":157:164   */\n      dup7\n        /* \"#utility.yul\":153:176   */\n      sub\n        /* \"#utility.yul\":149:181   */\n      slt\n        /* \"#utility.yul\":146:198   */\n      iszero\n      tag_561\n      jumpi\n        /* \"#utility.yul\":194:195   */\n      0x00\n        /* \"#utility.yul\":191:192   */\n      0x00\n        /* \"#utility.yul\":184:196   */\n      revert\n        /* \"#utility.yul\":146:198   */\n    tag_561:\n        /* \"#utility.yul\":239:262   */\n      dup4\n      calldataload\n      swap3\n      pop\n        /* \"#utility.yul\":337:339   */\n      0x20\n        /* \"#utility.yul\":322:340   */\n      dup5\n      add\n        /* \"#utility.yul\":309:341   */\n      calldataload\n        /* \"#utility.yul\":364:382   */\n      0xffffffffffffffff\n        /* \"#utility.yul\":353:383   */\n      dup2\n      gt\n        /* \"#utility.yul\":350:400   */\n      iszero\n      tag_562\n      jumpi\n        /* \"#utility.yul\":396:397   */\n      0x00\n        /* \"#utility.yul\":393:394   */\n      0x00\n        /* \"#utility.yul\":386:398   */\n      revert\n        /* \"#utility.yul\":350:400   */\n    tag_562:\n        /* \"#utility.yul\":419:441   */\n      dup5\n      add\n        /* \"#utility.yul\":472:476   */\n      0x1f\n        /* \"#utility.yul\":464:477   */\n      dup2\n      add\n        /* \"#utility.yul\":460:487   */\n      dup7\n      sgt\n        /* \"#utility.yul\":450:505   */\n      tag_563\n      jumpi\n        /* \"#utility.yul\":501:502   */\n      0x00\n        /* \"#utility.yul\":498:499   */\n      0x00\n        /* \"#utility.yul\":491:503   */\n      revert\n        /* \"#utility.yul\":450:505   */\n    tag_563:\n        /* \"#utility.yul\":541:543   */\n      dup1\n        /* \"#utility.yul\":528:544   */\n      calldataload\n        /* \"#utility.yul\":567:585   */\n      0xffffffffffffffff\n        /* \"#utility.yul\":559:565   */\n      dup2\n        /* \"#utility.yul\":556:586   */\n      gt\n        /* \"#utility.yul\":553:603   */\n      iszero\n      tag_564\n      jumpi\n        /* \"#utility.yul\":599:600   */\n      0x00\n        /* \"#utility.yul\":596:597   */\n      0x00\n        /* \"#utility.yul\":589:601   */\n      revert\n        /* \"#utility.yul\":553:603   */\n    tag_564:\n        /* \"#utility.yul\":652:659   */\n      dup7\n        /* \"#utility.yul\":647:649   */\n      0x20\n        /* \"#utility.yul\":637:643   */\n      dup3\n        /* \"#utility.yul\":634:635   */\n      0x05\n        /* \"#utility.yul\":630:644   */\n      shl\n        /* \"#utility.yul\":626:628   */\n      dup5\n        /* \"#utility.yul\":622:645   */\n      add\n        /* \"#utility.yul\":618:650   */\n      add\n        /* \"#utility.yul\":615:660   */\n      gt\n        /* \"#utility.yul\":612:677   */\n      iszero\n      tag_565\n      jumpi\n        /* \"#utility.yul\":673:674   */\n      0x00\n        /* \"#utility.yul\":670:671   */\n      0x00\n        /* \"#utility.yul\":663:675   */\n      revert\n        /* \"#utility.yul\":612:677   */\n    tag_565:\n        /* \"#utility.yul\":14:738   */\n      swap4\n      swap7\n        /* \"#utility.yul\":704:706   */\n      0x20\n        /* \"#utility.yul\":696:707   */\n      swap2\n      swap1\n      swap2\n      add\n      swap6\n      pop\n        /* \"#utility.yul\":726:732   */\n      swap3\n      swap4\n      pop\n      pop\n      pop\n        /* \"#utility.yul\":14:738   */\n      jump\t// out\n        /* \"#utility.yul\":743:916   */\n    tag_553:\n        /* \"#utility.yul\":811:831   */\n      dup1\n      calldataload\n      sub(shl(0xa0, 0x01), 0x01)\n        /* \"#utility.yul\":860:891   */\n      dup2\n      and\n        /* \"#utility.yul\":850:892   */\n      dup2\n      eq\n        /* \"#utility.yul\":840:910   */\n      tag_567\n      jumpi\n        /* \"#utility.yul\":906:907   */\n      0x00\n        /* \"#utility.yul\":903:904   */\n      0x00\n        /* \"#utility.yul\":896:908   */\n      revert\n        /* \"#utility.yul\":840:910   */\n    tag_567:\n        /* \"#utility.yul\":743:916   */\n      swap2\n      swap1\n      pop\n      jump\t// out\n        /* \"#utility.yul\":921:1221   */\n    tag_51:\n        /* \"#utility.yul\":989:995   */\n      0x00\n        /* \"#utility.yul\":997:1003   */\n      0x00\n        /* \"#utility.yul\":1050:1052   */\n      0x40\n        /* \"#utility.yul\":1038:1047   */\n      dup4\n        /* \"#utility.yul\":1029:1036   */\n      dup6\n        /* \"#utility.yul\":1025:1048   */\n      sub\n        /* \"#utility.yul\":1021:1053   */\n      slt\n        /* \"#utility.yul\":1018:1070   */\n      iszero\n      tag_569\n      jumpi\n        /* \"#utility.yul\":1066:1067   */\n      0x00\n        /* \"#utility.yul\":1063:1064   */\n      0x00\n        /* \"#utility.yul\":1056:1068   */\n      revert\n        /* \"#utility.yul\":1018:1070   */\n    tag_569:\n        /* \"#utility.yul\":1111:1134   */\n      dup3\n      calldataload\n      swap2\n      pop\n        /* \"#utility.yul\":1177:1215   */\n      tag_570\n        /* \"#utility.yul\":1211:1213   */\n      0x20\n        /* \"#utility.yul\":1196:1214   */\n      dup5\n      add\n        /* \"#utility.yul\":1177:1215   */\n      tag_553\n      jump\t// in\n    tag_570:\n        /* \"#utility.yul\":1167:1215   */\n      swap1\n      pop\n        /* \"#utility.yul\":921:1221   */\n      swap3\n      pop\n      swap3\n      swap1\n      pop\n      jump\t// out\n        /* \"#utility.yul\":1600:2118   */\n    tag_63:\n        /* \"#utility.yul\":1695:1701   */\n      0x00\n        /* \"#utility.yul\":1703:1709   */\n      0x00\n        /* \"#utility.yul\":1711:1717   */\n      0x00\n        /* \"#utility.yul\":1719:1725   */\n      0x00\n        /* \"#utility.yul\":1727:1733   */\n      0x00\n        /* \"#utility.yul\":1780:1783   */\n      0xa0\n        /* \"#utility.yul\":1768:1777   */\n      dup7\n        /* \"#utility.yul\":1759:1766   */\n      dup9\n        /* \"#utility.yul\":1755:1778   */\n      sub\n        /* \"#utility.yul\":1751:1784   */\n      slt\n        /* \"#utility.yul\":1748:1801   */\n      iszero\n      tag_574\n      jumpi\n        /* \"#utility.yul\":1797:1798   */\n      0x00\n        /* \"#utility.yul\":1794:1795   */\n      0x00\n        /* \"#utility.yul\":1787:1799   */\n      revert\n        /* \"#utility.yul\":1748:1801   */\n    tag_574:\n        /* \"#utility.yul\":1820:1849   */\n      tag_575\n        /* \"#utility.yul\":1839:1848   */\n      dup7\n        /* \"#utility.yul\":1820:1849   */\n      tag_553\n      jump\t// in\n    tag_575:\n        /* \"#utility.yul\":1810:1849   */\n      swap5\n      pop\n        /* \"#utility.yul\":1896:1898   */\n      0x20\n        /* \"#utility.yul\":1881:1899   */\n      dup7\n      add\n        /* \"#utility.yul\":1868:1900   */\n      calldataload\n      swap4\n      pop\n        /* \"#utility.yul\":1969:1971   */\n      0x40\n        /* \"#utility.yul\":1954:1972   */\n      dup7\n      add\n        /* \"#utility.yul\":1941:1973   */\n      calldataload\n      swap3\n      pop\n        /* \"#utility.yul\":2016:2054   */\n      tag_576\n        /* \"#utility.yul\":2050:2052   */\n      0x60\n        /* \"#utility.yul\":2035:2053   */\n      dup8\n      add\n        /* \"#utility.yul\":2016:2054   */\n      tag_553\n      jump\t// in\n    tag_576:\n        /* \"#utility.yul\":2006:2054   */\n      swap2\n      pop\n        /* \"#utility.yul\":2073:2112   */\n      tag_577\n        /* \"#utility.yul\":2107:2110   */\n      0x80\n        /* \"#utility.yul\":2096:2105   */\n      dup8\n        /* \"#utility.yul\":2092:2111   */\n      add\n        /* \"#utility.yul\":2073:2112   */\n      tag_553\n      jump\t// in\n    tag_577:\n        /* \"#utility.yul\":2063:2112   */\n      swap1\n      pop\n        /* \"#utility.yul\":1600:2118   */\n      swap3\n      swap6\n      pop\n      swap3\n      swap6\n      swap1\n      swap4\n      pop\n      jump\t// out\n        /* \"#utility.yul\":2123:2349   */\n    tag_68:\n        /* \"#utility.yul\":2182:2188   */\n      0x00\n        /* \"#utility.yul\":2235:2237   */\n      0x20\n        /* \"#utility.yul\":2223:2232   */\n      dup3\n        /* \"#utility.yul\":2214:2221   */\n      dup5\n        /* \"#utility.yul\":2210:2233   */\n      sub\n        /* \"#utility.yul\":2206:2238   */\n      slt\n        /* \"#utility.yul\":2203:2255   */\n      iszero\n      tag_579\n      jumpi\n        /* \"#utility.yul\":2251:2252   */\n      0x00\n        /* \"#utility.yul\":2248:2249   */\n      0x00\n        /* \"#utility.yul\":2241:2253   */\n      revert\n        /* \"#utility.yul\":2203:2255   */\n    tag_579:\n      pop\n        /* \"#utility.yul\":2296:2319   */\n      calldataload\n      swap2\n        /* \"#utility.yul\":2123:2349   */\n      swap1\n      pop\n      jump\t// out\n        /* \"#utility.yul\":3581:3708   */\n    tag_555:\n        /* \"#utility.yul\":3642:3652   */\n      0x4e487b71\n        /* \"#utility.yul\":3637:3640   */\n      0xe0\n        /* \"#utility.yul\":3633:3653   */\n      shl\n        /* \"#utility.yul\":3630:3631   */\n      0x00\n        /* \"#utility.yul\":3623:3654   */\n      mstore\n        /* \"#utility.yul\":3673:3677   */\n      0x41\n        /* \"#utility.yul\":3670:3671   */\n      0x04\n        /* \"#utility.yul\":3663:3678   */\n      mstore\n        /* \"#utility.yul\":3697:3701   */\n      0x24\n        /* \"#utility.yul\":3694:3695   */\n      0x00\n        /* \"#utility.yul\":3687:3702   */\n      revert\n        /* \"#utility.yul\":3713:3988   */\n    tag_556:\n        /* \"#utility.yul\":3784:3786   */\n      0x40\n        /* \"#utility.yul\":3778:3787   */\n      mload\n        /* \"#utility.yul\":3849:3851   */\n      0x1f\n        /* \"#utility.yul\":3830:3843   */\n      dup3\n      add\n      not(0x1f)\n        /* \"#utility.yul\":3826:3853   */\n      and\n        /* \"#utility.yul\":3814:3854   */\n      dup2\n      add\n        /* \"#utility.yul\":3884:3902   */\n      0xffffffffffffffff\n        /* \"#utility.yul\":3869:3903   */\n      dup2\n      gt\n        /* \"#utility.yul\":3905:3927   */\n      dup3\n      dup3\n      lt\n        /* \"#utility.yul\":3866:3928   */\n      or\n        /* \"#utility.yul\":3863:3951   */\n      iszero\n      tag_586\n      jumpi\n        /* \"#utility.yul\":3931:3949   */\n      tag_586\n      tag_555\n      jump\t// in\n    tag_586:\n        /* \"#utility.yul\":3967:3969   */\n      0x40\n        /* \"#utility.yul\":3960:3982   */\n      mstore\n        /* \"#utility.yul\":3713:3988   */\n      swap2\n      swap1\n      pop\n      jump\t// out\n        /* \"#utility.yul\":3993:5103   */\n    tag_80:\n        /* \"#utility.yul\":4086:4092   */\n      0x00\n        /* \"#utility.yul\":4094:4100   */\n      0x00\n        /* \"#utility.yul\":4147:4149   */\n      0x40\n        /* \"#utility.yul\":4135:4144   */\n      dup4\n        /* \"#utility.yul\":4126:4133   */\n      dup6\n        /* \"#utility.yul\":4122:4145   */\n      sub\n        /* \"#utility.yul\":4118:4150   */\n      slt\n        /* \"#utility.yul\":4115:4167   */\n      iszero\n      tag_588\n      jumpi\n        /* \"#utility.yul\":4163:4164   */\n      0x00\n        /* \"#utility.yul\":4160:4161   */\n      0x00\n        /* \"#utility.yul\":4153:4165   */\n      revert\n        /* \"#utility.yul\":4115:4167   */\n    tag_588:\n        /* \"#utility.yul\":4208:4231   */\n      dup3\n      calldataload\n      swap2\n      pop\n        /* \"#utility.yul\":4306:4308   */\n      0x20\n        /* \"#utility.yul\":4291:4309   */\n      dup4\n      add\n        /* \"#utility.yul\":4278:4310   */\n      calldataload\n        /* \"#utility.yul\":4333:4351   */\n      0xffffffffffffffff\n        /* \"#utility.yul\":4322:4352   */\n      dup2\n      gt\n        /* \"#utility.yul\":4319:4369   */\n      iszero\n      tag_589\n      jumpi\n        /* \"#utility.yul\":4365:4366   */\n      0x00\n        /* \"#utility.yul\":4362:4363   */\n      0x00\n        /* \"#utility.yul\":4355:4367   */\n      revert\n        /* \"#utility.yul\":4319:4369   */\n    tag_589:\n        /* \"#utility.yul\":4388:4410   */\n      dup4\n      add\n        /* \"#utility.yul\":4441:4445   */\n      0x1f\n        /* \"#utility.yul\":4433:4446   */\n      dup2\n      add\n        /* \"#utility.yul\":4429:4456   */\n      dup6\n      sgt\n        /* \"#utility.yul\":4419:4474   */\n      tag_590\n      jumpi\n        /* \"#utility.yul\":4470:4471   */\n      0x00\n        /* \"#utility.yul\":4467:4468   */\n      0x00\n        /* \"#utility.yul\":4460:4472   */\n      revert\n        /* \"#utility.yul\":4419:4474   */\n    tag_590:\n        /* \"#utility.yul\":4510:4512   */\n      dup1\n        /* \"#utility.yul\":4497:4513   */\n      calldataload\n        /* \"#utility.yul\":4536:4554   */\n      0xffffffffffffffff\n        /* \"#utility.yul\":4528:4534   */\n      dup2\n        /* \"#utility.yul\":4525:4555   */\n      gt\n        /* \"#utility.yul\":4522:4578   */\n      iszero\n      tag_592\n      jumpi\n        /* \"#utility.yul\":4558:4576   */\n      tag_592\n      tag_555\n      jump\t// in\n    tag_592:\n        /* \"#utility.yul\":4604:4610   */\n      dup1\n        /* \"#utility.yul\":4601:4602   */\n      0x05\n        /* \"#utility.yul\":4597:4611   */\n      shl\n        /* \"#utility.yul\":4631:4659   */\n      tag_593\n        /* \"#utility.yul\":4655:4657   */\n      0x20\n        /* \"#utility.yul\":4651:4653   */\n      dup3\n        /* \"#utility.yul\":4647:4658   */\n      add\n        /* \"#utility.yul\":4631:4659   */\n      tag_556\n      jump\t// in\n    tag_593:\n        /* \"#utility.yul\":4693:4712   */\n      swap2\n      dup3\n      mstore\n        /* \"#utility.yul\":4737:4739   */\n      0x20\n        /* \"#utility.yul\":4767:4778   */\n      dup2\n      dup5\n      add\n        /* \"#utility.yul\":4763:4783   */\n      dup2\n      add\n      swap3\n        /* \"#utility.yul\":4728:4740   */\n      swap1\n      dup2\n      add\n      swap1\n        /* \"#utility.yul\":4795:4814   */\n      dup9\n      dup5\n      gt\n        /* \"#utility.yul\":4792:4831   */\n      iszero\n      tag_594\n      jumpi\n        /* \"#utility.yul\":4827:4828   */\n      0x00\n        /* \"#utility.yul\":4824:4825   */\n      0x00\n        /* \"#utility.yul\":4817:4829   */\n      revert\n        /* \"#utility.yul\":4792:4831   */\n    tag_594:\n        /* \"#utility.yul\":4859:4861   */\n      0x20\n        /* \"#utility.yul\":4855:4857   */\n      dup6\n        /* \"#utility.yul\":4851:4862   */\n      add\n        /* \"#utility.yul\":4840:4862   */\n      swap5\n      pop\n        /* \"#utility.yul\":4871:5073   */\n    tag_595:\n        /* \"#utility.yul\":4887:4893   */\n      dup4\n        /* \"#utility.yul\":4882:4885   */\n      dup6\n        /* \"#utility.yul\":4879:4894   */\n      lt\n        /* \"#utility.yul\":4871:5073   */\n      iszero\n      tag_597\n      jumpi\n        /* \"#utility.yul\":4981:4998   */\n      dup5\n      calldataload\n        /* \"#utility.yul\":5011:5031   */\n      dup1\n      dup4\n      mstore\n        /* \"#utility.yul\":5060:5062   */\n      0x20\n        /* \"#utility.yul\":4904:4916   */\n      swap6\n      dup7\n      add\n      swap6\n        /* \"#utility.yul\":4981:4998   */\n      swap1\n      swap4\n      pop\n        /* \"#utility.yul\":5051:5063   */\n      swap1\n      swap2\n      add\n      swap1\n        /* \"#utility.yul\":4871:5073   */\n      jump(tag_595)\n    tag_597:\n        /* \"#utility.yul\":5092:5097   */\n      dup1\n        /* \"#utility.yul\":5082:5097   */\n      swap6\n      pop\n      pop\n      pop\n      pop\n      pop\n      pop\n        /* \"#utility.yul\":3993:5103   */\n      swap3\n      pop\n      swap3\n      swap1\n      pop\n      jump\t// out\n        /* \"#utility.yul\":5513:5859   */\n    tag_95:\n        /* \"#utility.yul\":5581:5587   */\n      0x00\n        /* \"#utility.yul\":5589:5595   */\n      0x00\n        /* \"#utility.yul\":5642:5644   */\n      0x40\n        /* \"#utility.yul\":5630:5639   */\n      dup4\n        /* \"#utility.yul\":5621:5628   */\n      dup6\n        /* \"#utility.yul\":5617:5640   */\n      sub\n        /* \"#utility.yul\":5613:5645   */\n      slt\n        /* \"#utility.yul\":5610:5662   */\n      iszero\n      tag_601\n      jumpi\n        /* \"#utility.yul\":5658:5659   */\n      0x00\n        /* \"#utility.yul\":5655:5656   */\n      0x00\n        /* \"#utility.yul\":5648:5660   */\n      revert\n        /* \"#utility.yul\":5610:5662   */\n    tag_601:\n      pop\n      pop\n        /* \"#utility.yul\":5703:5726   */\n      dup1\n      calldataload\n      swap3\n        /* \"#utility.yul\":5823:5825   */\n      0x20\n        /* \"#utility.yul\":5808:5826   */\n      swap1\n      swap2\n      add\n        /* \"#utility.yul\":5795:5827   */\n      calldataload\n      swap2\n      pop\n        /* \"#utility.yul\":5513:5859   */\n      jump\t// out\n        /* \"#utility.yul\":5864:6889   */\n    tag_109:\n        /* \"#utility.yul\":5986:5992   */\n      0x00\n        /* \"#utility.yul\":5994:6000   */\n      0x00\n        /* \"#utility.yul\":6002:6008   */\n      0x00\n        /* \"#utility.yul\":6010:6016   */\n      0x00\n        /* \"#utility.yul\":6018:6024   */\n      0x00\n        /* \"#utility.yul\":6026:6032   */\n      0x00\n        /* \"#utility.yul\":6034:6040   */\n      0x00\n        /* \"#utility.yul\":6042:6048   */\n      0x00\n        /* \"#utility.yul\":6095:6098   */\n      0x0100\n        /* \"#utility.yul\":6083:6092   */\n      dup10\n        /* \"#utility.yul\":6074:6081   */\n      dup12\n        /* \"#utility.yul\":6070:6093   */\n      sub\n        /* \"#utility.yul\":6066:6099   */\n      slt\n        /* \"#utility.yul\":6063:6116   */\n      iszero\n      tag_603\n      jumpi\n        /* \"#utility.yul\":6112:6113   */\n      0x00\n        /* \"#utility.yul\":6109:6110   */\n      0x00\n        /* \"#utility.yul\":6102:6114   */\n      revert\n        /* \"#utility.yul\":6063:6116   */\n    tag_603:\n        /* \"#utility.yul\":6135:6164   */\n      tag_604\n        /* \"#utility.yul\":6154:6163   */\n      dup10\n        /* \"#utility.yul\":6135:6164   */\n      tag_553\n      jump\t// in\n    tag_604:\n        /* \"#utility.yul\":6125:6164   */\n      swap11\n        /* \"#utility.yul\":6233:6235   */\n      0x20\n        /* \"#utility.yul\":6218:6236   */\n      dup11\n      add\n        /* \"#utility.yul\":6205:6237   */\n      calldataload\n      swap11\n      pop\n        /* \"#utility.yul\":6334:6336   */\n      0x40\n        /* \"#utility.yul\":6319:6337   */\n      dup11\n      add\n        /* \"#utility.yul\":6306:6338   */\n      calldataload\n      swap10\n        /* \"#utility.yul\":6437:6439   */\n      0x60\n        /* \"#utility.yul\":6422:6440   */\n      dup2\n      add\n        /* \"#utility.yul\":6409:6441   */\n      calldataload\n      swap10\n      pop\n        /* \"#utility.yul\":6540:6543   */\n      0x80\n        /* \"#utility.yul\":6525:6544   */\n      dup2\n      add\n        /* \"#utility.yul\":6512:6545   */\n      calldataload\n      swap9\n      pop\n        /* \"#utility.yul\":6644:6647   */\n      0xa0\n        /* \"#utility.yul\":6629:6648   */\n      dup2\n      add\n        /* \"#utility.yul\":6616:6649   */\n      calldataload\n      swap8\n      pop\n        /* \"#utility.yul\":6748:6751   */\n      0xc0\n        /* \"#utility.yul\":6733:6752   */\n      dup2\n      add\n        /* \"#utility.yul\":6720:6753   */\n      calldataload\n      swap7\n      pop\n        /* \"#utility.yul\":6852:6855   */\n      0xe0\n        /* \"#utility.yul\":6837:6856   */\n      add\n        /* \"#utility.yul\":6824:6857   */\n      calldataload\n      swap5\n      pop\n        /* \"#utility.yul\":5864:6889   */\n      swap3\n      pop\n      pop\n      pop\n      jump\t// out\n        /* \"#utility.yul\":6894:7733   */\n    tag_121:\n        /* \"#utility.yul\":6971:6977   */\n      0x00\n        /* \"#utility.yul\":6979:6985   */\n      0x00\n        /* \"#utility.yul\":7032:7034   */\n      0x40\n        /* \"#utility.yul\":7020:7029   */\n      dup4\n        /* \"#utility.yul\":7011:7018   */\n      dup6\n        /* \"#utility.yul\":7007:7030   */\n      sub\n        /* \"#utility.yul\":7003:7035   */\n      slt\n        /* \"#utility.yul\":7000:7052   */\n      iszero\n      tag_606\n      jumpi\n        /* \"#utility.yul\":7048:7049   */\n      0x00\n        /* \"#utility.yul\":7045:7046   */\n      0x00\n        /* \"#utility.yul\":7038:7050   */\n      revert\n        /* \"#utility.yul\":7000:7052   */\n    tag_606:\n        /* \"#utility.yul\":7071:7100   */\n      tag_607\n        /* \"#utility.yul\":7090:7099   */\n      dup4\n        /* \"#utility.yul\":7071:7100   */\n      tag_553\n      jump\t// in\n    tag_607:\n        /* \"#utility.yul\":7061:7100   */\n      swap2\n      pop\n        /* \"#utility.yul\":7151:7153   */\n      0x20\n        /* \"#utility.yul\":7140:7149   */\n      dup4\n        /* \"#utility.yul\":7136:7154   */\n      add\n        /* \"#utility.yul\":7123:7155   */\n      calldataload\n        /* \"#utility.yul\":7178:7196   */\n      0xffffffffffffffff\n        /* \"#utility.yul\":7170:7176   */\n      dup2\n        /* \"#utility.yul\":7167:7197   */\n      gt\n        /* \"#utility.yul\":7164:7214   */\n      iszero\n      tag_608\n      jumpi\n        /* \"#utility.yul\":7210:7211   */\n      0x00\n        /* \"#utility.yul\":7207:7208   */\n      0x00\n        /* \"#utility.yul\":7200:7212   */\n      revert\n        /* \"#utility.yul\":7164:7214   */\n    tag_608:\n        /* \"#utility.yul\":7233:7255   */\n      dup4\n      add\n        /* \"#utility.yul\":7286:7290   */\n      0x1f\n        /* \"#utility.yul\":7278:7291   */\n      dup2\n      add\n        /* \"#utility.yul\":7274:7301   */\n      dup6\n      sgt\n        /* \"#utility.yul\":7264:7319   */\n      tag_609\n      jumpi\n        /* \"#utility.yul\":7315:7316   */\n      0x00\n        /* \"#utility.yul\":7312:7313   */\n      0x00\n        /* \"#utility.yul\":7305:7317   */\n      revert\n        /* \"#utility.yul\":7264:7319   */\n    tag_609:\n        /* \"#utility.yul\":7355:7357   */\n      dup1\n        /* \"#utility.yul\":7342:7358   */\n      calldataload\n        /* \"#utility.yul\":7381:7399   */\n      0xffffffffffffffff\n        /* \"#utility.yul\":7373:7379   */\n      dup2\n        /* \"#utility.yul\":7370:7400   */\n      gt\n        /* \"#utility.yul\":7367:7423   */\n      iszero\n      tag_611\n      jumpi\n        /* \"#utility.yul\":7403:7421   */\n      tag_611\n      tag_555\n      jump\t// in\n    tag_611:\n        /* \"#utility.yul\":7445:7502   */\n      tag_612\n        /* \"#utility.yul\":7492:7494   */\n      0x1f\n        /* \"#utility.yul\":7469:7486   */\n      dup3\n      add\n      not(0x1f)\n        /* \"#utility.yul\":7465:7496   */\n      and\n        /* \"#utility.yul\":7498:7500   */\n      0x20\n        /* \"#utility.yul\":7461:7501   */\n      add\n        /* \"#utility.yul\":7445:7502   */\n      tag_556\n      jump\t// in\n    tag_612:\n        /* \"#utility.yul\":7525:7531   */\n      dup2\n        /* \"#utility.yul\":7518:7523   */\n      dup2\n        /* \"#utility.yul\":7511:7532   */\n      mstore\n        /* \"#utility.yul\":7573:7580   */\n      dup7\n        /* \"#utility.yul\":7568:7570   */\n      0x20\n        /* \"#utility.yul\":7559:7565   */\n      dup4\n        /* \"#utility.yul\":7555:7557   */\n      dup6\n        /* \"#utility.yul\":7551:7566   */\n      add\n        /* \"#utility.yul\":7547:7571   */\n      add\n        /* \"#utility.yul\":7544:7581   */\n      gt\n        /* \"#utility.yul\":7541:7598   */\n      iszero\n      tag_613\n      jumpi\n        /* \"#utility.yul\":7594:7595   */\n      0x00\n        /* \"#utility.yul\":7591:7592   */\n      0x00\n        /* \"#utility.yul\":7584:7596   */\n      revert\n        /* \"#utility.yul\":7541:7598   */\n    tag_613:\n        /* \"#utility.yul\":7649:7655   */\n      dup2\n        /* \"#utility.yul\":7644:7646   */\n      0x20\n        /* \"#utility.yul\":7640:7642   */\n      dup5\n        /* \"#utility.yul\":7636:7647   */\n      add\n        /* \"#utility.yul\":7631:7633   */\n      0x20\n        /* \"#utility.yul\":7624:7629   */\n      dup4\n        /* \"#utility.yul\":7620:7634   */\n      add\n        /* \"#utility.yul\":7607:7656   */\n      calldatacopy\n        /* \"#utility.yul\":7701:7702   */\n      0x00\n        /* \"#utility.yul\":7696:7698   */\n      0x20\n        /* \"#utility.yul\":7687:7693   */\n      dup4\n        /* \"#utility.yul\":7680:7685   */\n      dup4\n        /* \"#utility.yul\":7676:7694   */\n      add\n        /* \"#utility.yul\":7672:7699   */\n      add\n        /* \"#utility.yul\":7665:7703   */\n      mstore\n        /* \"#utility.yul\":7722:7727   */\n      dup1\n        /* \"#utility.yul\":7712:7727   */\n      swap4\n      pop\n      pop\n      pop\n      pop\n        /* \"#utility.yul\":6894:7733   */\n      swap3\n      pop\n      swap3\n      swap1\n      pop\n      jump\t// out\n        /* \"#utility.yul\":7920:8209   */\n    tag_557:\n        /* \"#utility.yul\":7962:7965   */\n      0x00\n        /* \"#utility.yul\":8000:8005   */\n      dup2\n        /* \"#utility.yul\":7994:8006   */\n      mload\n        /* \"#utility.yul\":8027:8033   */\n      dup1\n        /* \"#utility.yul\":8022:8025   */\n      dup5\n        /* \"#utility.yul\":8015:8034   */\n      mstore\n        /* \"#utility.yul\":8083:8089   */\n      dup1\n        /* \"#utility.yul\":8076:8080   */\n      0x20\n        /* \"#utility.yul\":8069:8074   */\n      dup5\n        /* \"#utility.yul\":8065:8081   */\n      add\n        /* \"#utility.yul\":8058:8062   */\n      0x20\n        /* \"#utility.yul\":8053:8056   */\n      dup7\n        /* \"#utility.yul\":8049:8063   */\n      add\n        /* \"#utility.yul\":8043:8090   */\n      mcopy\n        /* \"#utility.yul\":8135:8136   */\n      0x00\n        /* \"#utility.yul\":8128:8132   */\n      0x20\n        /* \"#utility.yul\":8119:8125   */\n      dup3\n        /* \"#utility.yul\":8114:8117   */\n      dup7\n        /* \"#utility.yul\":8110:8126   */\n      add\n        /* \"#utility.yul\":8106:8133   */\n      add\n        /* \"#utility.yul\":8099:8137   */\n      mstore\n        /* \"#utility.yul\":8198:8202   */\n      0x20\n        /* \"#utility.yul\":8191:8193   */\n      0x1f\n        /* \"#utility.yul\":8187:8194   */\n      not\n        /* \"#utility.yul\":8182:8184   */\n      0x1f\n        /* \"#utility.yul\":8174:8180   */\n      dup4\n        /* \"#utility.yul\":8170:8185   */\n      add\n        /* \"#utility.yul\":8166:8195   */\n      and\n        /* \"#utility.yul\":8161:8164   */\n      dup6\n        /* \"#utility.yul\":8157:8196   */\n      add\n        /* \"#utility.yul\":8153:8203   */\n      add\n        /* \"#utility.yul\":8146:8203   */\n      swap2\n      pop\n      pop\n        /* \"#utility.yul\":7920:8209   */\n      swap3\n      swap2\n      pop\n      pop\n      jump\t// out\n        /* \"#utility.yul\":8214:8434   */\n    tag_172:\n        /* \"#utility.yul\":8363:8365   */\n      0x20\n        /* \"#utility.yul\":8352:8361   */\n      dup2\n        /* \"#utility.yul\":8345:8366   */\n      mstore\n        /* \"#utility.yul\":8326:8330   */\n      0x00\n        /* \"#utility.yul\":8383:8428   */\n      tag_541\n        /* \"#utility.yul\":8424:8426   */\n      0x20\n        /* \"#utility.yul\":8413:8422   */\n      dup4\n        /* \"#utility.yul\":8409:8427   */\n      add\n        /* \"#utility.yul\":8401:8407   */\n      dup5\n        /* \"#utility.yul\":8383:8428   */\n      tag_557\n      jump\t// in\n        /* \"#utility.yul\":8632:9269   */\n    tag_187:\n        /* \"#utility.yul\":8822:8824   */\n      0x20\n        /* \"#utility.yul\":8834:8855   */\n      dup1\n      dup3\n      mstore\n        /* \"#utility.yul\":8904:8917   */\n      dup3\n      mload\n        /* \"#utility.yul\":8807:8825   */\n      dup3\n      dup3\n      add\n        /* \"#utility.yul\":8926:8948   */\n      dup2\n      swap1\n      mstore\n        /* \"#utility.yul\":8774:8778   */\n      0x00\n      swap2\n        /* \"#utility.yul\":9005:9020   */\n      dup5\n      add\n      swap1\n        /* \"#utility.yul\":8979:8981   */\n      0x40\n        /* \"#utility.yul\":8964:8982   */\n      dup5\n      add\n      swap1\n        /* \"#utility.yul\":8774:8778   */\n      dup4\n        /* \"#utility.yul\":9048:9243   */\n    tag_620:\n        /* \"#utility.yul\":9062:9068   */\n      dup2\n        /* \"#utility.yul\":9059:9060   */\n      dup2\n        /* \"#utility.yul\":9056:9069   */\n      lt\n        /* \"#utility.yul\":9048:9243   */\n      iszero\n      tag_622\n      jumpi\n        /* \"#utility.yul\":9127:9140   */\n      dup4\n      mload\n      sub(shl(0xa0, 0x01), 0x01)\n        /* \"#utility.yul\":9123:9162   */\n      and\n        /* \"#utility.yul\":9111:9163   */\n      dup4\n      mstore\n        /* \"#utility.yul\":9192:9194   */\n      0x20\n        /* \"#utility.yul\":9218:9233   */\n      swap4\n      dup5\n      add\n      swap4\n        /* \"#utility.yul\":9183:9195   */\n      swap1\n      swap3\n      add\n      swap2\n        /* \"#utility.yul\":9159:9160   */\n      0x01\n        /* \"#utility.yul\":9077:9086   */\n      add\n        /* \"#utility.yul\":9048:9243   */\n      jump(tag_620)\n    tag_622:\n      pop\n        /* \"#utility.yul\":9260:9263   */\n      swap1\n      swap6\n        /* \"#utility.yul\":8632:9269   */\n      swap5\n      pop\n      pop\n      pop\n      pop\n      pop\n      jump\t// out\n        /* \"#utility.yul\":9274:9460   */\n    tag_200:\n        /* \"#utility.yul\":9333:9339   */\n      0x00\n        /* \"#utility.yul\":9386:9388   */\n      0x20\n        /* \"#utility.yul\":9374:9383   */\n      dup3\n        /* \"#utility.yul\":9365:9372   */\n      dup5\n        /* \"#utility.yul\":9361:9384   */\n      sub\n        /* \"#utility.yul\":9357:9389   */\n      slt\n        /* \"#utility.yul\":9354:9406   */\n      iszero\n      tag_624\n      jumpi\n        /* \"#utility.yul\":9402:9403   */\n      0x00\n        /* \"#utility.yul\":9399:9400   */\n      0x00\n        /* \"#utility.yul\":9392:9404   */\n      revert\n        /* \"#utility.yul\":9354:9406   */\n    tag_624:\n        /* \"#utility.yul\":9425:9454   */\n      tag_541\n        /* \"#utility.yul\":9444:9453   */\n      dup3\n        /* \"#utility.yul\":9425:9454   */\n      tag_553\n      jump\t// in\n        /* \"#utility.yul\":11707:11834   */\n    tag_558:\n        /* \"#utility.yul\":11768:11778   */\n      0x4e487b71\n        /* \"#utility.yul\":11763:11766   */\n      0xe0\n        /* \"#utility.yul\":11759:11779   */\n      shl\n        /* \"#utility.yul\":11756:11757   */\n      0x00\n        /* \"#utility.yul\":11749:11780   */\n      mstore\n        /* \"#utility.yul\":11799:11803   */\n      0x11\n        /* \"#utility.yul\":11796:11797   */\n      0x04\n        /* \"#utility.yul\":11789:11804   */\n      mstore\n        /* \"#utility.yul\":11823:11827   */\n      0x24\n        /* \"#utility.yul\":11820:11821   */\n      0x00\n        /* \"#utility.yul\":11813:11828   */\n      revert\n        /* \"#utility.yul\":11839:11967   */\n    tag_255:\n        /* \"#utility.yul\":11906:11915   */\n      dup2\n      dup2\n      sub\n        /* \"#utility.yul\":11927:11938   */\n      dup2\n      dup2\n      gt\n        /* \"#utility.yul\":11924:11961   */\n      iszero\n      tag_208\n      jumpi\n        /* \"#utility.yul\":11941:11959   */\n      tag_208\n      tag_558\n      jump\t// in\n        /* \"#utility.yul\":12348:12625   */\n    tag_261:\n        /* \"#utility.yul\":12415:12421   */\n      0x00\n        /* \"#utility.yul\":12468:12470   */\n      0x20\n        /* \"#utility.yul\":12456:12465   */\n      dup3\n        /* \"#utility.yul\":12447:12454   */\n      dup5\n        /* \"#utility.yul\":12443:12466   */\n      sub\n        /* \"#utility.yul\":12439:12471   */\n      slt\n        /* \"#utility.yul\":12436:12488   */\n      iszero\n      tag_639\n      jumpi\n        /* \"#utility.yul\":12484:12485   */\n      0x00\n        /* \"#utility.yul\":12481:12482   */\n      0x00\n        /* \"#utility.yul\":12474:12486   */\n      revert\n        /* \"#utility.yul\":12436:12488   */\n    tag_639:\n        /* \"#utility.yul\":12516:12525   */\n      dup2\n        /* \"#utility.yul\":12510:12526   */\n      mload\n        /* \"#utility.yul\":12569:12574   */\n      dup1\n        /* \"#utility.yul\":12562:12575   */\n      iszero\n        /* \"#utility.yul\":12555:12576   */\n      iszero\n        /* \"#utility.yul\":12548:12553   */\n      dup2\n        /* \"#utility.yul\":12545:12577   */\n      eq\n        /* \"#utility.yul\":12535:12595   */\n      tag_541\n      jumpi\n        /* \"#utility.yul\":12591:12592   */\n      0x00\n        /* \"#utility.yul\":12588:12589   */\n      0x00\n        /* \"#utility.yul\":12581:12593   */\n      revert\n        /* \"#utility.yul\":12630:12765   */\n    tag_264:\n        /* \"#utility.yul\":12669:12672   */\n      0x00\n        /* \"#utility.yul\":12690:12707   */\n      0x01\n      dup3\n      add\n        /* \"#utility.yul\":12687:12730   */\n      tag_643\n      jumpi\n        /* \"#utility.yul\":12710:12728   */\n      tag_643\n      tag_558\n      jump\t// in\n    tag_643:\n      pop\n        /* \"#utility.yul\":12757:12758   */\n      0x01\n        /* \"#utility.yul\":12746:12759   */\n      add\n      swap1\n        /* \"#utility.yul\":12630:12765   */\n      jump\t// out\n        /* \"#utility.yul\":16139:16307   */\n    tag_337:\n        /* \"#utility.yul\":16212:16221   */\n      dup1\n      dup3\n      mul\n        /* \"#utility.yul\":16243:16252   */\n      dup2\n      iszero\n        /* \"#utility.yul\":16260:16275   */\n      dup3\n      dup3\n      div\n        /* \"#utility.yul\":16254:16276   */\n      dup5\n      eq\n        /* \"#utility.yul\":16240:16277   */\n      or\n        /* \"#utility.yul\":16230:16301   */\n      tag_208\n      jumpi\n        /* \"#utility.yul\":16281:16299   */\n      tag_208\n      tag_558\n      jump\t// in\n        /* \"#utility.yul\":17627:18335   */\n    tag_360:\n        /* \"#utility.yul\":17826:17828   */\n      0x20\n        /* \"#utility.yul\":17815:17824   */\n      dup2\n        /* \"#utility.yul\":17808:17829   */\n      mstore\n        /* \"#utility.yul\":17871:17877   */\n      dup2\n        /* \"#utility.yul\":17865:17878   */\n      mload\n        /* \"#utility.yul\":17860:17862   */\n      0x20\n        /* \"#utility.yul\":17849:17858   */\n      dup3\n        /* \"#utility.yul\":17845:17863   */\n      add\n        /* \"#utility.yul\":17838:17879   */\n      mstore\n        /* \"#utility.yul\":17933:17935   */\n      0x20\n        /* \"#utility.yul\":17925:17931   */\n      dup3\n        /* \"#utility.yul\":17921:17936   */\n      add\n        /* \"#utility.yul\":17915:17937   */\n      mload\n        /* \"#utility.yul\":17910:17912   */\n      0x40\n        /* \"#utility.yul\":17899:17908   */\n      dup3\n        /* \"#utility.yul\":17895:17913   */\n      add\n        /* \"#utility.yul\":17888:17938   */\n      mstore\n        /* \"#utility.yul\":18002:18008   */\n      0xffff\n        /* \"#utility.yul\":17996:17998   */\n      0x40\n        /* \"#utility.yul\":17988:17994   */\n      dup4\n        /* \"#utility.yul\":17984:17999   */\n      add\n        /* \"#utility.yul\":17978:18000   */\n      mload\n        /* \"#utility.yul\":17974:18009   */\n      and\n        /* \"#utility.yul\":17969:17971   */\n      0x60\n        /* \"#utility.yul\":17958:17967   */\n      dup3\n        /* \"#utility.yul\":17954:17972   */\n      add\n        /* \"#utility.yul\":17947:18010   */\n      mstore\n        /* \"#utility.yul\":18075:18085   */\n      0xffffffff\n        /* \"#utility.yul\":18069:18071   */\n      0x60\n        /* \"#utility.yul\":18061:18067   */\n      dup4\n        /* \"#utility.yul\":18057:18072   */\n      add\n        /* \"#utility.yul\":18051:18073   */\n      mload\n        /* \"#utility.yul\":18047:18086   */\n      and\n        /* \"#utility.yul\":18041:18044   */\n      0x80\n        /* \"#utility.yul\":18030:18039   */\n      dup3\n        /* \"#utility.yul\":18026:18045   */\n      add\n        /* \"#utility.yul\":18019:18087   */\n      mstore\n        /* \"#utility.yul\":18153:18163   */\n      0xffffffff\n        /* \"#utility.yul\":18146:18149   */\n      0x80\n        /* \"#utility.yul\":18138:18144   */\n      dup4\n        /* \"#utility.yul\":18134:18150   */\n      add\n        /* \"#utility.yul\":18128:18151   */\n      mload\n        /* \"#utility.yul\":18124:18164   */\n      and\n        /* \"#utility.yul\":18118:18121   */\n      0xa0\n        /* \"#utility.yul\":18107:18116   */\n      dup3\n        /* \"#utility.yul\":18103:18122   */\n      add\n        /* \"#utility.yul\":18096:18165   */\n      mstore\n        /* \"#utility.yul\":17789:17793   */\n      0x00\n        /* \"#utility.yul\":18212:18215   */\n      0xa0\n        /* \"#utility.yul\":18204:18210   */\n      dup4\n        /* \"#utility.yul\":18200:18216   */\n      add\n        /* \"#utility.yul\":18194:18217   */\n      mload\n        /* \"#utility.yul\":18255:18259   */\n      0xc0\n        /* \"#utility.yul\":18248:18252   */\n      dup1\n        /* \"#utility.yul\":18237:18246   */\n      dup5\n        /* \"#utility.yul\":18233:18253   */\n      add\n        /* \"#utility.yul\":18226:18260   */\n      mstore\n        /* \"#utility.yul\":18277:18329   */\n      tag_662\n        /* \"#utility.yul\":18324:18327   */\n      0xe0\n        /* \"#utility.yul\":18313:18322   */\n      dup5\n        /* \"#utility.yul\":18309:18328   */\n      add\n        /* \"#utility.yul\":18295:18307   */\n      dup3\n        /* \"#utility.yul\":18277:18329   */\n      tag_557\n      jump\t// in\n    tag_662:\n        /* \"#utility.yul\":18269:18329   */\n      swap5\n        /* \"#utility.yul\":17627:18335   */\n      swap4\n      pop\n      pop\n      pop\n      pop\n      jump\t// out\n        /* \"#utility.yul\":18340:18524   */\n    tag_364:\n        /* \"#utility.yul\":18410:18416   */\n      0x00\n        /* \"#utility.yul\":18463:18465   */\n      0x20\n        /* \"#utility.yul\":18451:18460   */\n      dup3\n        /* \"#utility.yul\":18442:18449   */\n      dup5\n        /* \"#utility.yul\":18438:18461   */\n      sub\n        /* \"#utility.yul\":18434:18466   */\n      slt\n        /* \"#utility.yul\":18431:18483   */\n      iszero\n      tag_664\n      jumpi\n        /* \"#utility.yul\":18479:18480   */\n      0x00\n        /* \"#utility.yul\":18476:18477   */\n      0x00\n        /* \"#utility.yul\":18469:18481   */\n      revert\n        /* \"#utility.yul\":18431:18483   */\n    tag_664:\n      pop\n        /* \"#utility.yul\":18502:18518   */\n      mload\n      swap2\n        /* \"#utility.yul\":18340:18524   */\n      swap1\n      pop\n      jump\t// out\n        /* \"#utility.yul\":20496:20623   */\n    tag_431:\n        /* \"#utility.yul\":20557:20567   */\n      0x4e487b71\n        /* \"#utility.yul\":20552:20555   */\n      0xe0\n        /* \"#utility.yul\":20548:20568   */\n      shl\n        /* \"#utility.yul\":20545:20546   */\n      0x00\n        /* \"#utility.yul\":20538:20569   */\n      mstore\n        /* \"#utility.yul\":20588:20592   */\n      0x32\n        /* \"#utility.yul\":20585:20586   */\n      0x04\n        /* \"#utility.yul\":20578:20593   */\n      mstore\n        /* \"#utility.yul\":20612:20616   */\n      0x24\n        /* \"#utility.yul\":20609:20610   */\n      0x00\n        /* \"#utility.yul\":20602:20617   */\n      revert\n        /* \"#utility.yul\":20628:20837   */\n    tag_433:\n        /* \"#utility.yul\":20660:20661   */\n      0x00\n        /* \"#utility.yul\":20686:20687   */\n      dup3\n        /* \"#utility.yul\":20676:20808   */\n      tag_673\n      jumpi\n        /* \"#utility.yul\":20730:20740   */\n      0x4e487b71\n        /* \"#utility.yul\":20725:20728   */\n      0xe0\n        /* \"#utility.yul\":20721:20741   */\n      shl\n        /* \"#utility.yul\":20718:20719   */\n      0x00\n        /* \"#utility.yul\":20711:20742   */\n      mstore\n        /* \"#utility.yul\":20765:20769   */\n      0x12\n        /* \"#utility.yul\":20762:20763   */\n      0x04\n        /* \"#utility.yul\":20755:20770   */\n      mstore\n        /* \"#utility.yul\":20793:20797   */\n      0x24\n        /* \"#utility.yul\":20790:20791   */\n      0x00\n        /* \"#utility.yul\":20783:20798   */\n      revert\n        /* \"#utility.yul\":20676:20808   */\n    tag_673:\n      pop\n        /* \"#utility.yul\":20822:20831   */\n      mod\n      swap1\n        /* \"#utility.yul\":20628:20837   */\n      jump\t// out\n        /* \"#utility.yul\":21652:21953   */\n    tag_529:\n        /* \"#utility.yul\":21781:21784   */\n      0x00\n        /* \"#utility.yul\":21819:21825   */\n      dup3\n        /* \"#utility.yul\":21813:21826   */\n      mload\n        /* \"#utility.yul\":21865:21871   */\n      dup1\n        /* \"#utility.yul\":21858:21862   */\n      0x20\n        /* \"#utility.yul\":21850:21856   */\n      dup6\n        /* \"#utility.yul\":21846:21863   */\n      add\n        /* \"#utility.yul\":21841:21844   */\n      dup5\n        /* \"#utility.yul\":21835:21872   */\n      mcopy\n        /* \"#utility.yul\":21927:21928   */\n      0x00\n        /* \"#utility.yul\":21891:21907   */\n      swap3\n      add\n        /* \"#utility.yul\":21916:21929   */\n      swap2\n      dup3\n      mstore\n      pop\n        /* \"#utility.yul\":21891:21907   */\n      swap2\n        /* \"#utility.yul\":21652:21953   */\n      swap1\n      pop\n      jump\t// out\n    stop\n    data_75b20eef8615de99c108b05f0dbda081c91897128caa336d75dffb97c4132b4d 360894a13ba1a3210667c828492db98dca3e2076cc3735a920a3ca505d382bbc\n\n    auxdata: 0xa26469706673582212204e27d14e142758c832699f25061cb89277caa8a47eb55b3067eb7331cbf654cb64736f6c634300081e0033\n}\n",
				"bytecode": {
					"linkReferences": {},
					"object": "60a0604052306080523480156012575f5ffd5b5060015f5560805161273f61003d5f395f8181611cfe01528181611d270152611e66015261273f5ff3fe6080604052600436106101f1575f3560e01c80635b7baf6411610108578063a3e56fa81161009d578063b6fa37bc1161006d578063b6fa37bc14610727578063c1e3bd3e14610746578063c4cd639f14610772578063d7098154146107ba578063f2fde38b146107d9575f5ffd5b8063a3e56fa814610651578063a49a75a514610670578063ad3cb1cc146106b5578063b0fb162f146106f2575f5ffd5b80637ccfd7fc116100d85780637ccfd7fc146105b1578063826d9873146105d757806382f9d0fb146105f65780638da5cb5b14610615575f5ffd5b80635b7baf641461054a57806360b2a56a1461056957806361728f3914610588578063715018a61461059d575f5ffd5b806324f74697116101895780634311da37116101595780634311da37146104d05780634538f297146104ef5780634a4a6b4f1461050e5780634f1ef2861461052357806352d1902d14610536575f5ffd5b806324f74697146104195780633893f9d51461044a5780633fd43098146104695780633fe6e01e14610488575f5ffd5b80631398e076116101c45780631398e0761461028c57806315c6e123146103985780631fe543e3146103c35780632301d775146103e2575f5ffd5b806302c4d72b146101f557806307c7a72d1461021657806309c1ba2e1461024a5780630af5a2631461026d575b5f5ffd5b348015610200575f5ffd5b5061021461020f3660046121ca565b6107f8565b005b348015610221575f5ffd5b5061023561023036600461225f565b610841565b60405190151581526020015b60405180910390f35b348015610255575f5ffd5b5061025f60085481565b604051908152602001610241565b348015610278575f5ffd5b50610214610287366004612289565b610870565b348015610297575f5ffd5b506103216102a63660046122dc565b600260208190525f91825260409091208054600182015492820154600383015460048401546005850154600686015460078701546008880154600a890154600b909901546001600160a01b039889169a9997989697959694959394929360ff808416946101008504821694620100009004909116929116908d565b604080516001600160a01b039e8f168152602081019d909d528c019a909a5260608b019890985260808a019690965260a089019490945260c088019290925260e08701521515610100860152151561012085015215156101408401529092166101608201526101808101919091526101a001610241565b3480156103a3575f5ffd5b5061025f6103b23660046122dc565b600a6020525f908152604090205481565b3480156103ce575f5ffd5b506102146103dd366004612338565b6109e2565b3480156103ed575f5ffd5b50600554610401906001600160a01b031681565b6040516001600160a01b039091168152602001610241565b348015610424575f5ffd5b506007546104359063ffffffff1681565b60405163ffffffff9091168152602001610241565b348015610455575f5ffd5b506102146104643660046123f0565b610a35565b348015610474575f5ffd5b506102146104833660046122dc565b610d44565b348015610493575f5ffd5b506102356104a236600461225f565b5f8281526002602090815260408083206001600160a01b0385168452600f0190915290205460ff1692915050565b3480156104db575f5ffd5b506102146104ea366004612410565b610f4f565b3480156104fa575f5ffd5b506102146105093660046122dc565b61109d565b348015610519575f5ffd5b5061025f60035481565b610214610531366004612467565b611168565b348015610541575f5ffd5b5061025f611183565b348015610555575f5ffd5b506102146105643660046122dc565b61119e565b348015610574575f5ffd5b506102146105833660046122dc565b61137b565b348015610593575f5ffd5b5061025f60065481565b3480156105a8575f5ffd5b506102146115ca565b3480156105bc575f5ffd5b50600754610435906601000000000000900463ffffffff1681565b3480156105e2575f5ffd5b506102146105f13660046122dc565b6115dd565b348015610601575f5ffd5b506102146106103660046122dc565b611723565b348015610620575f5ffd5b507f9016d09d72d40fdae2fd8ceac6b6234c7706214fd39c1cd1e609a0528c199300546001600160a01b0316610401565b34801561065c575f5ffd5b50600954610401906001600160a01b031681565b34801561067b575f5ffd5b5061025f61068a36600461225f565b5f8281526002602090815260408083206001600160a01b0385168452600c0190915290205492915050565b3480156106c0575f5ffd5b506106e5604051806040016040528060058152602001640352e302e360dc1b81525081565b604051610241919061253a565b3480156106fd575f5ffd5b5060075461071490640100000000900461ffff1681565b60405161ffff9091168152602001610241565b348015610732575f5ffd5b50600454610401906001600160a01b031681565b348015610751575f5ffd5b506107656107603660046122dc565b6117b1565b604051610241919061254c565b34801561077d575f5ffd5b5061023561078c36600461225f565b5f8281526002602090815260408083206001600160a01b0385168452600e0190915290205460ff1692915050565b3480156107c5575f5ffd5b506102146107d43660046122dc565b61181d565b3480156107e4575f5ffd5b506102146107f3366004612597565b61196c565b6108006119a6565b61083c838383808060200260200160405190810160405280939291908181526020018383602002808284375f92019190915250611a0192505050565b505050565b5f8281526002602090815260408083206001600160a01b0385168452600d0190915290205460ff165b92915050565b5f610879611c31565b805490915060ff600160401b820416159067ffffffffffffffff165f811580156108a05750825b90505f8267ffffffffffffffff1660011480156108bc5750303b155b9050811580156108ca575080155b156108e85760405163f92ee8a960e01b815260040160405180910390fd5b845467ffffffffffffffff19166001178555831561091257845460ff60401b1916600160401b1785555b61091b33611c59565b610923611c6a565b61092c8a611c72565b600980546001600160a01b03199081166001600160a01b038d81169190911790925560068b905560088a90556007805469ffffffffffffffffffff19166601000300030d401790556004805482168a84161790556005805490911691881691909117905583156109d657845460ff60401b19168555604051600181527fc7f505b2f371ae2175ee4913f4499e1f2633a7b5936321eed1cdaeb6115181d29060200160405180910390a15b50505050505050505050565b6001546001600160a01b03163314610a275760015460405163073e64fd60e21b81523360048201526001600160a01b0390911660248201526044015b60405180910390fd5b610a318282611a01565b5050565b610a3d611c9c565b5f828152600260209081526040808320848452818420338552600c8201909352922054610a995760405162461bcd60e51b815260206004820152600a602482015269139bdd081a5b881bdb1960b21b6044820152606401610a1e565b335f908152600e8301602052604090205460ff1615610aed5760405162461bcd60e51b815260206004820152601060248201526f526566756e64656420616c726561647960801b6044820152606401610a1e565b600882015462010000900460ff1680610b2757506008820154610100900460ff168015610b275750600a8201546001600160a01b03163314155b610b665760405162461bcd60e51b815260206004820152601060248201526f4f6c64206e6f7420656c696769626c6560801b6044820152606401610a1e565b600881015460ff168015610b855750600881015462010000900460ff16155b610bc85760405162461bcd60e51b81526020600482015260146024820152734e6577206c6f747465727920696e61637469766560601b6044820152606401610a1e565b80600401544210610c0e5760405162461bcd60e51b815260206004820152601060248201526f546f6f206c61746520666f72206e657760801b6044820152606401610a1e565b335f908152600e830160205260408120805460ff19166001908117909155600283015490830154610c3f91906125c4565b82546040516323b872dd60e01b8152336004820152306024820152604481018390529192506001600160a01b0316906323b872dd906064016020604051808303815f875af1158015610c93573d5f5f3e3d5ffd5b505050506040513d601f19601f82011682018060405250810190610cb791906125d7565b506009820180546001810182555f918252602080832090910180546001600160a01b031916339081179091558252600c8401905260408120805491610cfb836125f6565b9091555050604080518581523360208201527f1e28857182a3b2bb6fbb88287d1ba8cc3a941dd65d4c977286676d27b877a3d9910160405180910390a1505050610a3160015f55565b610d4c611c9c565b5f818152600260205260409020600881015460ff168015610d785750600881015462010000900460ff16155b610dbc5760405162461bcd60e51b8152602060048201526015602482015274125b9858dd1a5d99481bdc8818d85b98d95b1b1959605a1b6044820152606401610a1e565b80600401544210610dfa5760405162461bcd60e51b8152602060048201526008602482015267546f6f206c61746560c01b6044820152606401610a1e565b6003810154600982015410610e445760405162461bcd60e51b815260206004820152601060248201526f4d6178207061727469636970616e747360801b6044820152606401610a1e565b805460018201546040516323b872dd60e01b815233600482015230602482015260448101919091526001600160a01b03909116906323b872dd906064016020604051808303815f875af1158015610e9d573d5f5f3e3d5ffd5b505050506040513d601f19601f82011682018060405250810190610ec191906125d7565b506009810180546001810182555f918252602080832090910180546001600160a01b031916339081179091558252600c8301905260408120805491610f05836125f6565b9091555050604080518381523360208201527f1e28857182a3b2bb6fbb88287d1ba8cc3a941dd65d4c977286676d27b877a3d9910160405180910390a150610f4c60015f55565b50565b610f576119a6565b85871015610f975760405162461bcd60e51b815260206004820152600d60248201526c526566756e64203c3d2066656560981b6044820152606401610a1e565b428411610fda5760405162461bcd60e51b8152602060048201526011602482015270496e76616c696420647261772074696d6560781b6044820152606401610a1e565b5f60025f60035f8154610fec906125f6565b9182905550815260208082019290925260409081015f2080546001600160a01b0319166001600160a01b038d1617815560018082018c9055600282018b905560038083018b9055600483018a905560058301899055600683018890556007830187905560088301805460ff191690921790915554915191825292507f9e0023bebcc752baaa41057318405b5a6a8e9c6372b519717cfdf238e5caa795910160405180910390a1505050505050505050565b6110a56119a6565b5f818152600260205260409020600881015462010000900460ff161580156110d757506008810154610100900460ff16155b6111175760405162461bcd60e51b8152602060048201526011602482015270105b1c9958591e48199a5b985b1a5e9959607a1b6044820152606401610a1e565b60088101805462ff00001916620100001790556040517fc3dac690cf4c3ae8964f18b8f09f7f9a75d3962a8cbb7cd689df2c291bb5b2dd9061115c9084815260200190565b60405180910390a15050565b611170611cf3565b61117982611d97565b610a318282611d9f565b5f61118c611e5b565b505f5160206126ea5f395f51905f5290565b6111a6611c9c565b5f818152600260205260409020600881015462010000900460ff16806111ed57506008810154610100900460ff1680156111ed5750600a8101546001600160a01b03163314155b6112285760405162461bcd60e51b815260206004820152600c60248201526b4e6f7420656c696769626c6560a01b6044820152606401610a1e565b335f908152600e8201602052604090205460ff161561127c5760405162461bcd60e51b815260206004820152601060248201526f105b1c9958591e481c99599d5b99195960821b6044820152606401610a1e565b335f908152600c820160205260409020546112c65760405162461bcd60e51b815260206004820152600a6024820152694e6f20656e747269657360b01b6044820152606401610a1e565b335f908152600e820160209081526040808320805460ff19166001179055600c840190915281205460028301546112fd919061260e565b825460405163a9059cbb60e01b8152336004820152602481018390529192506001600160a01b03169063a9059cbb906044016020604051808303815f875af115801561134b573d5f5f3e3d5ffd5b505050506040513d601f19601f8201168201806040525081019061136f91906125d7565b505050610f4c60015f55565b6113836119a6565b5f81815260026020526040902060048101544210156113d05760405162461bcd60e51b8152602060048201526009602482015268546f6f206561726c7960b81b6044820152606401610a1e565b6008810154610100900460ff161580156113f55750600881015462010000900460ff16155b6114415760405162461bcd60e51b815260206004820152601a60248201527f416c726561647920647261776e206f722063616e63656c6c65640000000000006044820152606401610a1e565b60098101546114845760405162461bcd60e51b815260206004820152600f60248201526e4e6f207061727469636970616e747360881b6044820152606401610a1e565b6009546040805160c081018252600654815260085460208083019190915260075461ffff6401000000008204168385015263ffffffff8082166060850152660100000000000090910416608083015282519081019092525f808352926001600160a01b031691639b1c385e919060a08201906114ff90611ea4565b8152506040518263ffffffff1660e01b815260040161151e9190612625565b6020604051808303815f875af115801561153a573d5f5f3e3d5ffd5b505050506040513d601f19601f8201168201806040525081019061155e9190612689565b5f818152600a60205260409081902085905560088401805461ff001916610100179055519091507f600253eae67a5c51c82a7123372e8644f16009c6304e18f844cf86fdc40c24d7906115bd9085908490918252602082015260400190565b60405180910390a1505050565b6115d26119a6565b6115db5f611f15565b565b5f818152600260209081526040808320338452600f81019092529091205460ff161561163b5760405162461bcd60e51b815260206004820152600d60248201526c105b1c9958591e481d9bdd1959609a1b6044820152606401610a1e565b335f908152600c820160205260409020546116895760405162461bcd60e51b815260206004820152600e60248201526d4e6f7420696e206c6f747465727960901b6044820152606401610a1e565b335f908152600f820160205260408120805460ff19166001179055600b82018054916116b4836125f6565b909155505060098101546116c990600261260e565b600b8201546116d990600361260e565b10610a315760088101805462ff00001916620100001790556040517fc3dac690cf4c3ae8964f18b8f09f7f9a75d3962a8cbb7cd689df2c291bb5b2dd9061115c9084815260200190565b61172b6119a6565b5f818152600260208190526040822080546001600160a01b031916815560018101839055908101829055600381018290556004810182905560058101829055600681018290556007810182905560088101805462ffffff1916905590611794600983018261219c565b50600a810180546001600160a01b03191690555f600b9091015550565b5f8181526002602090815260409182902060090180548351818402810184019094528084526060939283018282801561181157602002820191905f5260205f20905b81546001600160a01b031681526001909101906020018083116117f3575b50505050509050919050565b611825611c9c565b5f818152600260205260409020600a8101546001600160a01b0316331461187b5760405162461bcd60e51b815260206004820152600a6024820152692737ba103bb4b73732b960b11b6044820152606401610a1e565b335f908152600d8201602052604090205460ff16156118ce5760405162461bcd60e51b815260206004820152600f60248201526e105b1c9958591e4818db185a5b5959608a1b6044820152606401610a1e565b335f818152600d8301602052604090819020805460ff1916600117905582546005840154915163a9059cbb60e01b8152600481019390935260248301919091526001600160a01b03169063a9059cbb906044016020604051808303815f875af115801561193d573d5f5f3e3d5ffd5b505050506040513d601f19601f8201168201806040525081019061196191906125d7565b5050610f4c60015f55565b6119746119a6565b6001600160a01b03811661199d57604051631e4fbdf760e01b81525f6004820152602401610a1e565b610f4c81611f15565b336119d87f9016d09d72d40fdae2fd8ceac6b6234c7706214fd39c1cd1e609a0528c199300546001600160a01b031690565b6001600160a01b0316146115db5760405163118cdaa760e01b8152336004820152602401610a1e565b5f828152600a602090815260408083205480845260029092529091206008810154610100900460ff168015611a415750600a8101546001600160a01b0316155b611a815760405162461bcd60e51b8152602060048201526011602482015270105b1c9958591e48199d5b199a5b1b1959607a1b6044820152606401610a1e565b5f8160090180549050845f81518110611a9c57611a9c6126a0565b6020026020010151611aae91906126b4565b9050816009018181548110611ac557611ac56126a0565b5f91825260209091200154600a830180546001600160a01b0319166001600160a01b03928316179055825460048054600686015460405163a9059cbb60e01b8152918516928201929092526024810191909152911690819063a9059cbb906044016020604051808303815f875af1158015611b42573d5f5f3e3d5ffd5b505050506040513d601f19601f82011682018060405250810190611b6691906125d7565b50600554600784015460405163a9059cbb60e01b81526001600160a01b03928316600482015260248101919091529082169063a9059cbb906044016020604051808303815f875af1158015611bbd573d5f5f3e3d5ffd5b505050506040513d601f19601f82011682018060405250810190611be191906125d7565b50600a830154604080518681526001600160a01b0390921660208301527f03fb57eb449654e24e1b240d3d06702cf79362a065d5c0323aee642d4702fa4b910160405180910390a1505050505050565b5f807ff0c57e16840df040f15088dc2f81fe391c3923bec73e23a9662efc9c229c6a0061086a565b611c61611f85565b610f4c81611faa565b6115db611f85565b611c7a611f85565b600180546001600160a01b0319166001600160a01b0392909216919091179055565b60025f5403611ced5760405162461bcd60e51b815260206004820152601f60248201527f5265656e7472616e637947756172643a207265656e7472616e742063616c6c006044820152606401610a1e565b60025f55565b306001600160a01b037f0000000000000000000000000000000000000000000000000000000000000000161480611d7957507f00000000000000000000000000000000000000000000000000000000000000006001600160a01b0316611d6d5f5160206126ea5f395f51905f52546001600160a01b031690565b6001600160a01b031614155b156115db5760405163703e46dd60e11b815260040160405180910390fd5b610f4c6119a6565b816001600160a01b03166352d1902d6040518163ffffffff1660e01b8152600401602060405180830381865afa925050508015611df9575060408051601f3d908101601f19168201909252611df691810190612689565b60015b611e2157604051634c9c8ce360e01b81526001600160a01b0383166004820152602401610a1e565b5f5160206126ea5f395f51905f528114611e5157604051632a87526960e21b815260048101829052602401610a1e565b61083c8383611fb2565b306001600160a01b037f000000000000000000000000000000000000000000000000000000000000000016146115db5760405163703e46dd60e11b815260040160405180910390fd5b60607f92fd13387c7fe7befbc38d303d6468778fb9731bc4583f17d92989c6fcfdeaaa82604051602401611edd91511515815260200190565b60408051601f198184030181529190526020810180516001600160e01b03166001600160e01b03199093169290921790915292915050565b7f9016d09d72d40fdae2fd8ceac6b6234c7706214fd39c1cd1e609a0528c19930080546001600160a01b031981166001600160a01b03848116918217845560405192169182907f8be0079c531659141344cd1fd0a4f28419497f9722a3daafe3b4186f6b6457e0905f90a3505050565b611f8d612007565b6115db57604051631afcd79f60e31b815260040160405180910390fd5b611974611f85565b611fbb82612020565b6040516001600160a01b038316907fbc7cd75a20ee27fd9adebab32041f755214dbc6bffa90cc0225b39da2e5c2d3b905f90a2805115611fff5761083c8282612083565b610a316120f5565b5f612010611c31565b54600160401b900460ff16919050565b806001600160a01b03163b5f0361205557604051634c9c8ce360e01b81526001600160a01b0382166004820152602401610a1e565b5f5160206126ea5f395f51905f5280546001600160a01b0319166001600160a01b0392909216919091179055565b60605f5f846001600160a01b03168460405161209f91906126d3565b5f60405180830381855af49150503d805f81146120d7576040519150601f19603f3d011682016040523d82523d5f602084013e6120dc565b606091505b50915091506120ec858383612114565b95945050505050565b34156115db5760405163b398979f60e01b815260040160405180910390fd5b6060826121295761212482612173565b61216c565b815115801561214057506001600160a01b0384163b155b1561216957604051639996b31560e01b81526001600160a01b0385166004820152602401610a1e565b50805b9392505050565b8051156121835780518082602001fd5b60405163d6bda27560e01b815260040160405180910390fd5b5080545f8255905f5260205f2090810190610f4c91905b808211156121c6575f81556001016121b3565b5090565b5f5f5f604084860312156121dc575f5ffd5b83359250602084013567ffffffffffffffff8111156121f9575f5ffd5b8401601f81018613612209575f5ffd5b803567ffffffffffffffff81111561221f575f5ffd5b8660208260051b8401011115612233575f5ffd5b939660209190910195509293505050565b80356001600160a01b038116811461225a575f5ffd5b919050565b5f5f60408385031215612270575f5ffd5b8235915061228060208401612244565b90509250929050565b5f5f5f5f5f60a0868803121561229d575f5ffd5b6122a686612244565b945060208601359350604086013592506122c260608701612244565b91506122d060808701612244565b90509295509295909350565b5f602082840312156122ec575f5ffd5b5035919050565b634e487b7160e01b5f52604160045260245ffd5b604051601f8201601f1916810167ffffffffffffffff81118282101715612330576123306122f3565b604052919050565b5f5f60408385031215612349575f5ffd5b82359150602083013567ffffffffffffffff811115612366575f5ffd5b8301601f81018513612376575f5ffd5b803567ffffffffffffffff811115612390576123906122f3565b8060051b6123a060208201612307565b918252602081840181019290810190888411156123bb575f5ffd5b6020850194505b838510156123e1578435808352602095860195909350909101906123c2565b80955050505050509250929050565b5f5f60408385031215612401575f5ffd5b50508035926020909101359150565b5f5f5f5f5f5f5f5f610100898b031215612428575f5ffd5b61243189612244565b9a60208a01359a5060408a013599606081013599506080810135985060a0810135975060c0810135965060e00135945092505050565b5f5f60408385031215612478575f5ffd5b61248183612244565b9150602083013567ffffffffffffffff81111561249c575f5ffd5b8301601f810185136124ac575f5ffd5b803567ffffffffffffffff8111156124c6576124c66122f3565b6124d9601f8201601f1916602001612307565b8181528660208385010111156124ed575f5ffd5b816020840160208301375f602083830101528093505050509250929050565b5f81518084528060208401602086015e5f602082860101526020601f19601f83011685010191505092915050565b602081525f61216c602083018461250c565b602080825282518282018190525f918401906040840190835b8181101561258c5783516001600160a01b0316835260209384019390920191600101612565565b509095945050505050565b5f602082840312156125a7575f5ffd5b61216c82612244565b634e487b7160e01b5f52601160045260245ffd5b8181038181111561086a5761086a6125b0565b5f602082840312156125e7575f5ffd5b8151801515811461216c575f5ffd5b5f60018201612607576126076125b0565b5060010190565b808202811582820484141761086a5761086a6125b0565b60208152815160208201526020820151604082015261ffff604083015116606082015263ffffffff606083015116608082015263ffffffff60808301511660a08201525f60a083015160c08084015261268160e084018261250c565b949350505050565b5f60208284031215612699575f5ffd5b5051919050565b634e487b7160e01b5f52603260045260245ffd5b5f826126ce57634e487b7160e01b5f52601260045260245ffd5b500690565b5f82518060208501845e5f92019182525091905056fe360894a13ba1a3210667c828492db98dca3e2076cc3735a920a3ca505d382bbca26469706673582212204e27d14e142758c832699f25061cb89277caa8a47eb55b3067eb7331cbf654cb64736f6c634300081e0033",
					"opcodes": "PUSH1 0xA0 PUSH1 0x40 MSTORE ADDRESS PUSH1 0x80 MSTORE CALLVALUE DUP1 ISZERO PUSH1 0x12 JUMPI PUSH0 PUSH0 REVERT JUMPDEST POP PUSH1 0x1 PUSH0 SSTORE PUSH1 0x80 MLOAD PUSH2 0x273F PUSH2 0x3D PUSH0 CODECOPY PUSH0 DUP2 DUP2 PUSH2 0x1CFE ADD MSTORE DUP2 DUP2 PUSH2 0x1D27 ADD MSTORE PUSH2 0x1E66 ADD MSTORE PUSH2 0x273F PUSH0 RETURN INVALID PUSH1 0x80 PUSH1 0x40 MSTORE PUSH1 0x4 CALLDATASIZE LT PUSH2 0x1F1 JUMPI PUSH0 CALLDATALOAD PUSH1 0xE0 SHR DUP1 PUSH4 0x5B7BAF64 GT PUSH2 0x108 JUMPI DUP1 PUSH4 0xA3E56FA8 GT PUSH2 0x9D JUMPI DUP1 PUSH4 0xB6FA37BC GT PUSH2 0x6D JUMPI DUP1 PUSH4 0xB6FA37BC EQ PUSH2 0x727 JUMPI DUP1 PUSH4 0xC1E3BD3E EQ PUSH2 0x746 JUMPI DUP1 PUSH4 0xC4CD639F EQ PUSH2 0x772 JUMPI DUP1 PUSH4 0xD7098154 EQ PUSH2 0x7BA JUMPI DUP1 PUSH4 0xF2FDE38B EQ PUSH2 0x7D9 JUMPI PUSH0 PUSH0 REVERT JUMPDEST DUP1 PUSH4 0xA3E56FA8 EQ PUSH2 0x651 JUMPI DUP1 PUSH4 0xA49A75A5 EQ PUSH2 0x670 JUMPI DUP1 PUSH4 0xAD3CB1CC EQ PUSH2 0x6B5 JUMPI DUP1 PUSH4 0xB0FB162F EQ PUSH2 0x6F2 JUMPI PUSH0 PUSH0 REVERT JUMPDEST DUP1 PUSH4 0x7CCFD7FC GT PUSH2 0xD8 JUMPI DUP1 PUSH4 0x7CCFD7FC EQ PUSH2 0x5B1 JUMPI DUP1 PUSH4 0x826D9873 EQ PUSH2 0x5D7 JUMPI DUP1 PUSH4 0x82F9D0FB EQ PUSH2 0x5F6 JUMPI DUP1 PUSH4 0x8DA5CB5B EQ PUSH2 0x615 JUMPI PUSH0 PUSH0 REVERT JUMPDEST DUP1 PUSH4 0x5B7BAF64 EQ PUSH2 0x54A JUMPI DUP1 PUSH4 0x60B2A56A EQ PUSH2 0x569 JUMPI DUP1 PUSH4 0x61728F39 EQ PUSH2 0x588 JUMPI DUP1 PUSH4 0x715018A6 EQ PUSH2 0x59D JUMPI PUSH0 PUSH0 REVERT JUMPDEST DUP1 PUSH4 0x24F74697 GT PUSH2 0x189 JUMPI DUP1 PUSH4 0x4311DA37 GT PUSH2 0x159 JUMPI DUP1 PUSH4 0x4311DA37 EQ PUSH2 0x4D0 JUMPI DUP1 PUSH4 0x4538F297 EQ PUSH2 0x4EF JUMPI DUP1 PUSH4 0x4A4A6B4F EQ PUSH2 0x50E JUMPI DUP1 PUSH4 0x4F1EF286 EQ PUSH2 0x523 JUMPI DUP1 PUSH4 0x52D1902D EQ PUSH2 0x536 JUMPI PUSH0 PUSH0 REVERT JUMPDEST DUP1 PUSH4 0x24F74697 EQ PUSH2 0x419 JUMPI DUP1 PUSH4 0x3893F9D5 EQ PUSH2 0x44A JUMPI DUP1 PUSH4 0x3FD43098 EQ PUSH2 0x469 JUMPI DUP1 PUSH4 0x3FE6E01E EQ PUSH2 0x488 JUMPI PUSH0 PUSH0 REVERT JUMPDEST DUP1 PUSH4 0x1398E076 GT PUSH2 0x1C4 JUMPI DUP1 PUSH4 0x1398E076 EQ PUSH2 0x28C JUMPI DUP1 PUSH4 0x15C6E123 EQ PUSH2 0x398 JUMPI DUP1 PUSH4 0x1FE543E3 EQ PUSH2 0x3C3 JUMPI DUP1 PUSH4 0x2301D775 EQ PUSH2 0x3E2 JUMPI PUSH0 PUSH0 REVERT JUMPDEST DUP1 PUSH4 0x2C4D72B EQ PUSH2 0x1F5 JUMPI DUP1 PUSH4 0x7C7A72D EQ PUSH2 0x216 JUMPI DUP1 PUSH4 0x9C1BA2E EQ PUSH2 0x24A JUMPI DUP1 PUSH4 0xAF5A263 EQ PUSH2 0x26D JUMPI JUMPDEST PUSH0 PUSH0 REVERT JUMPDEST CALLVALUE DUP1 ISZERO PUSH2 0x200 JUMPI PUSH0 PUSH0 REVERT JUMPDEST POP PUSH2 0x214 PUSH2 0x20F CALLDATASIZE PUSH1 0x4 PUSH2 0x21CA JUMP JUMPDEST PUSH2 0x7F8 JUMP JUMPDEST STOP JUMPDEST CALLVALUE DUP1 ISZERO PUSH2 0x221 JUMPI PUSH0 PUSH0 REVERT JUMPDEST POP PUSH2 0x235 PUSH2 0x230 CALLDATASIZE PUSH1 0x4 PUSH2 0x225F JUMP JUMPDEST PUSH2 0x841 JUMP JUMPDEST PUSH1 0x40 MLOAD SWAP1 ISZERO ISZERO DUP2 MSTORE PUSH1 0x20 ADD JUMPDEST PUSH1 0x40 MLOAD DUP1 SWAP2 SUB SWAP1 RETURN JUMPDEST CALLVALUE DUP1 ISZERO PUSH2 0x255 JUMPI PUSH0 PUSH0 REVERT JUMPDEST POP PUSH2 0x25F PUSH1 0x8 SLOAD DUP2 JUMP JUMPDEST PUSH1 0x40 MLOAD SWAP1 DUP2 MSTORE PUSH1 0x20 ADD PUSH2 0x241 JUMP JUMPDEST CALLVALUE DUP1 ISZERO PUSH2 0x278 JUMPI PUSH0 PUSH0 REVERT JUMPDEST POP PUSH2 0x214 PUSH2 0x287 CALLDATASIZE PUSH1 0x4 PUSH2 0x2289 JUMP JUMPDEST PUSH2 0x870 JUMP JUMPDEST CALLVALUE DUP1 ISZERO PUSH2 0x297 JUMPI PUSH0 PUSH0 REVERT JUMPDEST POP PUSH2 0x321 PUSH2 0x2A6 CALLDATASIZE PUSH1 0x4 PUSH2 0x22DC JUMP JUMPDEST PUSH1 0x2 PUSH1 0x20 DUP2 SWAP1 MSTORE PUSH0 SWAP2 DUP3 MSTORE PUSH1 0x40 SWAP1 SWAP2 KECCAK256 DUP1 SLOAD PUSH1 0x1 DUP3 ADD SLOAD SWAP3 DUP3 ADD SLOAD PUSH1 0x3 DUP4 ADD SLOAD PUSH1 0x4 DUP5 ADD SLOAD PUSH1 0x5 DUP6 ADD SLOAD PUSH1 0x6 DUP7 ADD SLOAD PUSH1 0x7 DUP8 ADD SLOAD PUSH1 0x8 DUP9 ADD SLOAD PUSH1 0xA DUP10 ADD SLOAD PUSH1 0xB SWAP1 SWAP10 ADD SLOAD PUSH1 0x1 PUSH1 0x1 PUSH1 0xA0 SHL SUB SWAP9 DUP10 AND SWAP11 SWAP10 SWAP8 SWAP9 SWAP7 SWAP8 SWAP6 SWAP7 SWAP5 SWAP6 SWAP4 SWAP5 SWAP3 SWAP4 PUSH1 0xFF DUP1 DUP5 AND SWAP5 PUSH2 0x100 DUP6 DIV DUP3 AND SWAP5 PUSH3 0x10000 SWAP1 DIV SWAP1 SWAP2 AND SWAP3 SWAP2 AND SWAP1 DUP14 JUMP JUMPDEST PUSH1 0x40 DUP1 MLOAD PUSH1 0x1 PUSH1 0x1 PUSH1 0xA0 SHL SUB SWAP15 DUP16 AND DUP2 MSTORE PUSH1 0x20 DUP2 ADD SWAP14 SWAP1 SWAP14 MSTORE DUP13 ADD SWAP11 SWAP1 SWAP11 MSTORE PUSH1 0x60 DUP12 ADD SWAP9 SWAP1 SWAP9 MSTORE PUSH1 0x80 DUP11 ADD SWAP7 SWAP1 SWAP7 MSTORE PUSH1 0xA0 DUP10 ADD SWAP5 SWAP1 SWAP5 MSTORE PUSH1 0xC0 DUP9 ADD SWAP3 SWAP1 SWAP3 MSTORE PUSH1 0xE0 DUP8 ADD MSTORE ISZERO ISZERO PUSH2 0x100 DUP7 ADD MSTORE ISZERO ISZERO PUSH2 0x120 DUP6 ADD MSTORE ISZERO ISZERO PUSH2 0x140 DUP5 ADD MSTORE SWAP1 SWAP3 AND PUSH2 0x160 DUP3 ADD MSTORE PUSH2 0x180 DUP2 ADD SWAP2 SWAP1 SWAP2 MSTORE PUSH2 0x1A0 ADD PUSH2 0x241 JUMP JUMPDEST CALLVALUE DUP1 ISZERO PUSH2 0x3A3 JUMPI PUSH0 PUSH0 REVERT JUMPDEST POP PUSH2 0x25F PUSH2 0x3B2 CALLDATASIZE PUSH1 0x4 PUSH2 0x22DC JUMP JUMPDEST PUSH1 0xA PUSH1 0x20 MSTORE PUSH0 SWAP1 DUP2 MSTORE PUSH1 0x40 SWAP1 KECCAK256 SLOAD DUP2 JUMP JUMPDEST CALLVALUE DUP1 ISZERO PUSH2 0x3CE JUMPI PUSH0 PUSH0 REVERT JUMPDEST POP PUSH2 0x214 PUSH2 0x3DD CALLDATASIZE PUSH1 0x4 PUSH2 0x2338 JUMP JUMPDEST PUSH2 0x9E2 JUMP JUMPDEST CALLVALUE DUP1 ISZERO PUSH2 0x3ED JUMPI PUSH0 PUSH0 REVERT JUMPDEST POP PUSH1 0x5 SLOAD PUSH2 0x401 SWAP1 PUSH1 0x1 PUSH1 0x1 PUSH1 0xA0 SHL SUB AND DUP2 JUMP JUMPDEST PUSH1 0x40 MLOAD PUSH1 0x1 PUSH1 0x1 PUSH1 0xA0 SHL SUB SWAP1 SWAP2 AND DUP2 MSTORE PUSH1 0x20 ADD PUSH2 0x241 JUMP JUMPDEST CALLVALUE DUP1 ISZERO PUSH2 0x424 JUMPI PUSH0 PUSH0 REVERT JUMPDEST POP PUSH1 0x7 SLOAD PUSH2 0x435 SWAP1 PUSH4 0xFFFFFFFF AND DUP2 JUMP JUMPDEST PUSH1 0x40 MLOAD PUSH4 0xFFFFFFFF SWAP1 SWAP2 AND DUP2 MSTORE PUSH1 0x20 ADD PUSH2 0x241 JUMP JUMPDEST CALLVALUE DUP1 ISZERO PUSH2 0x455 JUMPI PUSH0 PUSH0 REVERT JUMPDEST POP PUSH2 0x214 PUSH2 0x464 CALLDATASIZE PUSH1 0x4 PUSH2 0x23F0 JUMP JUMPDEST PUSH2 0xA35 JUMP JUMPDEST CALLVALUE DUP1 ISZERO PUSH2 0x474 JUMPI PUSH0 PUSH0 REVERT JUMPDEST POP PUSH2 0x214 PUSH2 0x483 CALLDATASIZE PUSH1 0x4 PUSH2 0x22DC JUMP JUMPDEST PUSH2 0xD44 JUMP JUMPDEST CALLVALUE DUP1 ISZERO PUSH2 0x493 JUMPI PUSH0 PUSH0 REVERT JUMPDEST POP PUSH2 0x235 PUSH2 0x4A2 CALLDATASIZE PUSH1 0x4 PUSH2 0x225F JUMP JUMPDEST PUSH0 DUP3 DUP2 MSTORE PUSH1 0x2 PUSH1 0x20 SWAP1 DUP2 MSTORE PUSH1 0x40 DUP1 DUP4 KECCAK256 PUSH1 0x1 PUSH1 0x1 PUSH1 0xA0 SHL SUB DUP6 AND DUP5 MSTORE PUSH1 0xF ADD SWAP1 SWAP2 MSTORE SWAP1 KECCAK256 SLOAD PUSH1 0xFF AND SWAP3 SWAP2 POP POP JUMP JUMPDEST CALLVALUE DUP1 ISZERO PUSH2 0x4DB JUMPI PUSH0 PUSH0 REVERT JUMPDEST POP PUSH2 0x214 PUSH2 0x4EA CALLDATASIZE PUSH1 0x4 PUSH2 0x2410 JUMP JUMPDEST PUSH2 0xF4F JUMP JUMPDEST CALLVALUE DUP1 ISZERO PUSH2 0x4FA JUMPI PUSH0 PUSH0 REVERT JUMPDEST POP PUSH2 0x214 PUSH2 0x509 CALLDATASIZE PUSH1 0x4 PUSH2 0x22DC JUMP JUMPDEST PUSH2 0x109D JUMP JUMPDEST CALLVALUE DUP1 ISZERO PUSH2 0x519 JUMPI PUSH0 PUSH0 REVERT JUMPDEST POP PUSH2 0x25F PUSH1 0x3 SLOAD DUP2 JUMP JUMPDEST PUSH2 0x214 PUSH2 0x531 CALLDATASIZE PUSH1 0x4 PUSH2 0x2467 JUMP JUMPDEST PUSH2 0x1168 JUMP JUMPDEST CALLVALUE DUP1 ISZERO PUSH2 0x541 JUMPI PUSH0 PUSH0 REVERT JUMPDEST POP PUSH2 0x25F PUSH2 0x1183 JUMP JUMPDEST CALLVALUE DUP1 ISZERO PUSH2 0x555 JUMPI PUSH0 PUSH0 REVERT JUMPDEST POP PUSH2 0x214 PUSH2 0x564 CALLDATASIZE PUSH1 0x4 PUSH2 0x22DC JUMP JUMPDEST PUSH2 0x119E JUMP JUMPDEST CALLVALUE DUP1 ISZERO PUSH2 0x574 JUMPI PUSH0 PUSH0 REVERT JUMPDEST POP PUSH2 0x214 PUSH2 0x583 CALLDATASIZE PUSH1 0x4 PUSH2 0x22DC JUMP JUMPDEST PUSH2 0x137B JUMP JUMPDEST CALLVALUE DUP1 ISZERO PUSH2 0x593 JUMPI PUSH0 PUSH0 REVERT JUMPDEST POP PUSH2 0x25F PUSH1 0x6 SLOAD DUP2 JUMP JUMPDEST CALLVALUE DUP1 ISZERO PUSH2 0x5A8 JUMPI PUSH0 PUSH0 REVERT JUMPDEST POP PUSH2 0x214 PUSH2 0x15CA JUMP JUMPDEST CALLVALUE DUP1 ISZERO PUSH2 0x5BC JUMPI PUSH0 PUSH0 REVERT JUMPDEST POP PUSH1 0x7 SLOAD PUSH2 0x435 SWAP1 PUSH7 0x1000000000000 SWAP1 DIV PUSH4 0xFFFFFFFF AND DUP2 JUMP JUMPDEST CALLVALUE DUP1 ISZERO PUSH2 0x5E2 JUMPI PUSH0 PUSH0 REVERT JUMPDEST POP PUSH2 0x214 PUSH2 0x5F1 CALLDATASIZE PUSH1 0x4 PUSH2 0x22DC JUMP JUMPDEST PUSH2 0x15DD JUMP JUMPDEST CALLVALUE DUP1 ISZERO PUSH2 0x601 JUMPI PUSH0 PUSH0 REVERT JUMPDEST POP PUSH2 0x214 PUSH2 0x610 CALLDATASIZE PUSH1 0x4 PUSH2 0x22DC JUMP JUMPDEST PUSH2 0x1723 JUMP JUMPDEST CALLVALUE DUP1 ISZERO PUSH2 0x620 JUMPI PUSH0 PUSH0 REVERT JUMPDEST POP PUSH32 0x9016D09D72D40FDAE2FD8CEAC6B6234C7706214FD39C1CD1E609A0528C199300 SLOAD PUSH1 0x1 PUSH1 0x1 PUSH1 0xA0 SHL SUB AND PUSH2 0x401 JUMP JUMPDEST CALLVALUE DUP1 ISZERO PUSH2 0x65C JUMPI PUSH0 PUSH0 REVERT JUMPDEST POP PUSH1 0x9 SLOAD PUSH2 0x401 SWAP1 PUSH1 0x1 PUSH1 0x1 PUSH1 0xA0 SHL SUB AND DUP2 JUMP JUMPDEST CALLVALUE DUP1 ISZERO PUSH2 0x67B JUMPI PUSH0 PUSH0 REVERT JUMPDEST POP PUSH2 0x25F PUSH2 0x68A CALLDATASIZE PUSH1 0x4 PUSH2 0x225F JUMP JUMPDEST PUSH0 DUP3 DUP2 MSTORE PUSH1 0x2 PUSH1 0x20 SWAP1 DUP2 MSTORE PUSH1 0x40 DUP1 DUP4 KECCAK256 PUSH1 0x1 PUSH1 0x1 PUSH1 0xA0 SHL SUB DUP6 AND DUP5 MSTORE PUSH1 0xC ADD SWAP1 SWAP2 MSTORE SWAP1 KECCAK256 SLOAD SWAP3 SWAP2 POP POP JUMP JUMPDEST CALLVALUE DUP1 ISZERO PUSH2 0x6C0 JUMPI PUSH0 PUSH0 REVERT JUMPDEST POP PUSH2 0x6E5 PUSH1 0x40 MLOAD DUP1 PUSH1 0x40 ADD PUSH1 0x40 MSTORE DUP1 PUSH1 0x5 DUP2 MSTORE PUSH1 0x20 ADD PUSH5 0x352E302E3 PUSH1 0xDC SHL DUP2 MSTORE POP DUP2 JUMP JUMPDEST PUSH1 0x40 MLOAD PUSH2 0x241 SWAP2 SWAP1 PUSH2 0x253A JUMP JUMPDEST CALLVALUE DUP1 ISZERO PUSH2 0x6FD JUMPI PUSH0 PUSH0 REVERT JUMPDEST POP PUSH1 0x7 SLOAD PUSH2 0x714 SWAP1 PUSH5 0x100000000 SWAP1 DIV PUSH2 0xFFFF AND DUP2 JUMP JUMPDEST PUSH1 0x40 MLOAD PUSH2 0xFFFF SWAP1 SWAP2 AND DUP2 MSTORE PUSH1 0x20 ADD PUSH2 0x241 JUMP JUMPDEST CALLVALUE DUP1 ISZERO PUSH2 0x732 JUMPI PUSH0 PUSH0 REVERT JUMPDEST POP PUSH1 0x4 SLOAD PUSH2 0x401 SWAP1 PUSH1 0x1 PUSH1 0x1 PUSH1 0xA0 SHL SUB AND DUP2 JUMP JUMPDEST CALLVALUE DUP1 ISZERO PUSH2 0x751 JUMPI PUSH0 PUSH0 REVERT JUMPDEST POP PUSH2 0x765 PUSH2 0x760 CALLDATASIZE PUSH1 0x4 PUSH2 0x22DC JUMP JUMPDEST PUSH2 0x17B1 JUMP JUMPDEST PUSH1 0x40 MLOAD PUSH2 0x241 SWAP2 SWAP1 PUSH2 0x254C JUMP JUMPDEST CALLVALUE DUP1 ISZERO PUSH2 0x77D JUMPI PUSH0 PUSH0 REVERT JUMPDEST POP PUSH2 0x235 PUSH2 0x78C CALLDATASIZE PUSH1 0x4 PUSH2 0x225F JUMP JUMPDEST PUSH0 DUP3 DUP2 MSTORE PUSH1 0x2 PUSH1 0x20 SWAP1 DUP2 MSTORE PUSH1 0x40 DUP1 DUP4 KECCAK256 PUSH1 0x1 PUSH1 0x1 PUSH1 0xA0 SHL SUB DUP6 AND DUP5 MSTORE PUSH1 0xE ADD SWAP1 SWAP2 MSTORE SWAP1 KECCAK256 SLOAD PUSH1 0xFF AND SWAP3 SWAP2 POP POP JUMP JUMPDEST CALLVALUE DUP1 ISZERO PUSH2 0x7C5 JUMPI PUSH0 PUSH0 REVERT JUMPDEST POP PUSH2 0x214 PUSH2 0x7D4 CALLDATASIZE PUSH1 0x4 PUSH2 0x22DC JUMP JUMPDEST PUSH2 0x181D JUMP JUMPDEST CALLVALUE DUP1 ISZERO PUSH2 0x7E4 JUMPI PUSH0 PUSH0 REVERT JUMPDEST POP PUSH2 0x214 PUSH2 0x7F3 CALLDATASIZE PUSH1 0x4 PUSH2 0x2597 JUMP JUMPDEST PUSH2 0x196C JUMP JUMPDEST PUSH2 0x800 PUSH2 0x19A6 JUMP JUMPDEST PUSH2 0x83C DUP4 DUP4 DUP4 DUP1 DUP1 PUSH1 0x20 MUL PUSH1 0x20 ADD PUSH1 0x40 MLOAD SWAP1 DUP2 ADD PUSH1 0x40 MSTORE DUP1 SWAP4 SWAP3 SWAP2 SWAP1 DUP2 DUP2 MSTORE PUSH1 0x20 ADD DUP4 DUP4 PUSH1 0x20 MUL DUP1 DUP3 DUP5 CALLDATACOPY PUSH0 SWAP3 ADD SWAP2 SWAP1 SWAP2 MSTORE POP PUSH2 0x1A01 SWAP3 POP POP POP JUMP JUMPDEST POP POP POP JUMP JUMPDEST PUSH0 DUP3 DUP2 MSTORE PUSH1 0x2 PUSH1 0x20 SWAP1 DUP2 MSTORE PUSH1 0x40 DUP1 DUP4 KECCAK256 PUSH1 0x1 PUSH1 0x1 PUSH1 0xA0 SHL SUB DUP6 AND DUP5 MSTORE PUSH1 0xD ADD SWAP1 SWAP2 MSTORE SWAP1 KECCAK256 SLOAD PUSH1 0xFF AND JUMPDEST SWAP3 SWAP2 POP POP JUMP JUMPDEST PUSH0 PUSH2 0x879 PUSH2 0x1C31 JUMP JUMPDEST DUP1 SLOAD SWAP1 SWAP2 POP PUSH1 0xFF PUSH1 0x1 PUSH1 0x40 SHL DUP3 DIV AND ISZERO SWAP1 PUSH8 0xFFFFFFFFFFFFFFFF AND PUSH0 DUP2 ISZERO DUP1 ISZERO PUSH2 0x8A0 JUMPI POP DUP3 JUMPDEST SWAP1 POP PUSH0 DUP3 PUSH8 0xFFFFFFFFFFFFFFFF AND PUSH1 0x1 EQ DUP1 ISZERO PUSH2 0x8BC JUMPI POP ADDRESS EXTCODESIZE ISZERO JUMPDEST SWAP1 POP DUP2 ISZERO DUP1 ISZERO PUSH2 0x8CA JUMPI POP DUP1 ISZERO JUMPDEST ISZERO PUSH2 0x8E8 JUMPI PUSH1 0x40 MLOAD PUSH4 0xF92EE8A9 PUSH1 0xE0 SHL DUP2 MSTORE PUSH1 0x4 ADD PUSH1 0x40 MLOAD DUP1 SWAP2 SUB SWAP1 REVERT JUMPDEST DUP5 SLOAD PUSH8 0xFFFFFFFFFFFFFFFF NOT AND PUSH1 0x1 OR DUP6 SSTORE DUP4 ISZERO PUSH2 0x912 JUMPI DUP5 SLOAD PUSH1 0xFF PUSH1 0x40 SHL NOT AND PUSH1 0x1 PUSH1 0x40 SHL OR DUP6 SSTORE JUMPDEST PUSH2 0x91B CALLER PUSH2 0x1C59 JUMP JUMPDEST PUSH2 0x923 PUSH2 0x1C6A JUMP JUMPDEST PUSH2 0x92C DUP11 PUSH2 0x1C72 JUMP JUMPDEST PUSH1 0x9 DUP1 SLOAD PUSH1 0x1 PUSH1 0x1 PUSH1 0xA0 SHL SUB NOT SWAP1 DUP2 AND PUSH1 0x1 PUSH1 0x1 PUSH1 0xA0 SHL SUB DUP14 DUP2 AND SWAP2 SWAP1 SWAP2 OR SWAP1 SWAP3 SSTORE PUSH1 0x6 DUP12 SWAP1 SSTORE PUSH1 0x8 DUP11 SWAP1 SSTORE PUSH1 0x7 DUP1 SLOAD PUSH10 0xFFFFFFFFFFFFFFFFFFFF NOT AND PUSH7 0x1000300030D40 OR SWAP1 SSTORE PUSH1 0x4 DUP1 SLOAD DUP3 AND DUP11 DUP5 AND OR SWAP1 SSTORE PUSH1 0x5 DUP1 SLOAD SWAP1 SWAP2 AND SWAP2 DUP9 AND SWAP2 SWAP1 SWAP2 OR SWAP1 SSTORE DUP4 ISZERO PUSH2 0x9D6 JUMPI DUP5 SLOAD PUSH1 0xFF PUSH1 0x40 SHL NOT AND DUP6 SSTORE PUSH1 0x40 MLOAD PUSH1 0x1 DUP2 MSTORE PUSH32 0xC7F505B2F371AE2175EE4913F4499E1F2633A7B5936321EED1CDAEB6115181D2 SWAP1 PUSH1 0x20 ADD PUSH1 0x40 MLOAD DUP1 SWAP2 SUB SWAP1 LOG1 JUMPDEST POP POP POP POP POP POP POP POP POP POP JUMP JUMPDEST PUSH1 0x1 SLOAD PUSH1 0x1 PUSH1 0x1 PUSH1 0xA0 SHL SUB AND CALLER EQ PUSH2 0xA27 JUMPI PUSH1 0x1 SLOAD PUSH1 0x40 MLOAD PUSH4 0x73E64FD PUSH1 0xE2 SHL DUP2 MSTORE CALLER PUSH1 0x4 DUP3 ADD MSTORE PUSH1 0x1 PUSH1 0x1 PUSH1 0xA0 SHL SUB SWAP1 SWAP2 AND PUSH1 0x24 DUP3 ADD MSTORE PUSH1 0x44 ADD JUMPDEST PUSH1 0x40 MLOAD DUP1 SWAP2 SUB SWAP1 REVERT JUMPDEST PUSH2 0xA31 DUP3 DUP3 PUSH2 0x1A01 JUMP JUMPDEST POP POP JUMP JUMPDEST PUSH2 0xA3D PUSH2 0x1C9C JUMP JUMPDEST PUSH0 DUP3 DUP2 MSTORE PUSH1 0x2 PUSH1 0x20 SWAP1 DUP2 MSTORE PUSH1 0x40 DUP1 DUP4 KECCAK256 DUP5 DUP5 MSTORE DUP2 DUP5 KECCAK256 CALLER DUP6 MSTORE PUSH1 0xC DUP3 ADD SWAP1 SWAP4 MSTORE SWAP3 KECCAK256 SLOAD PUSH2 0xA99 JUMPI PUSH1 0x40 MLOAD PUSH3 0x461BCD PUSH1 0xE5 SHL DUP2 MSTORE PUSH1 0x20 PUSH1 0x4 DUP3 ADD MSTORE PUSH1 0xA PUSH1 0x24 DUP3 ADD MSTORE PUSH10 0x139BDD081A5B881BDB19 PUSH1 0xB2 SHL PUSH1 0x44 DUP3 ADD MSTORE PUSH1 0x64 ADD PUSH2 0xA1E JUMP JUMPDEST CALLER PUSH0 SWAP1 DUP2 MSTORE PUSH1 0xE DUP4 ADD PUSH1 0x20 MSTORE PUSH1 0x40 SWAP1 KECCAK256 SLOAD PUSH1 0xFF AND ISZERO PUSH2 0xAED JUMPI PUSH1 0x40 MLOAD PUSH3 0x461BCD PUSH1 0xE5 SHL DUP2 MSTORE PUSH1 0x20 PUSH1 0x4 DUP3 ADD MSTORE PUSH1 0x10 PUSH1 0x24 DUP3 ADD MSTORE PUSH16 0x526566756E64656420616C7265616479 PUSH1 0x80 SHL PUSH1 0x44 DUP3 ADD MSTORE PUSH1 0x64 ADD PUSH2 0xA1E JUMP JUMPDEST PUSH1 0x8 DUP3 ADD SLOAD PUSH3 0x10000 SWAP1 DIV PUSH1 0xFF AND DUP1 PUSH2 0xB27 JUMPI POP PUSH1 0x8 DUP3 ADD SLOAD PUSH2 0x100 SWAP1 DIV PUSH1 0xFF AND DUP1 ISZERO PUSH2 0xB27 JUMPI POP PUSH1 0xA DUP3 ADD SLOAD PUSH1 0x1 PUSH1 0x1 PUSH1 0xA0 SHL SUB AND CALLER EQ ISZERO JUMPDEST PUSH2 0xB66 JUMPI PUSH1 0x40 MLOAD PUSH3 0x461BCD PUSH1 0xE5 SHL DUP2 MSTORE PUSH1 0x20 PUSH1 0x4 DUP3 ADD MSTORE PUSH1 0x10 PUSH1 0x24 DUP3 ADD MSTORE PUSH16 0x4F6C64206E6F7420656C696769626C65 PUSH1 0x80 SHL PUSH1 0x44 DUP3 ADD MSTORE PUSH1 0x64 ADD PUSH2 0xA1E JUMP JUMPDEST PUSH1 0x8 DUP2 ADD SLOAD PUSH1 0xFF AND DUP1 ISZERO PUSH2 0xB85 JUMPI POP PUSH1 0x8 DUP2 ADD SLOAD PUSH3 0x10000 SWAP1 DIV PUSH1 0xFF AND ISZERO JUMPDEST PUSH2 0xBC8 JUMPI PUSH1 0x40 MLOAD PUSH3 0x461BCD PUSH1 0xE5 SHL DUP2 MSTORE PUSH1 0x20 PUSH1 0x4 DUP3 ADD MSTORE PUSH1 0x14 PUSH1 0x24 DUP3 ADD MSTORE PUSH20 0x4E6577206C6F747465727920696E616374697665 PUSH1 0x60 SHL PUSH1 0x44 DUP3 ADD MSTORE PUSH1 0x64 ADD PUSH2 0xA1E JUMP JUMPDEST DUP1 PUSH1 0x4 ADD SLOAD TIMESTAMP LT PUSH2 0xC0E JUMPI PUSH1 0x40 MLOAD PUSH3 0x461BCD PUSH1 0xE5 SHL DUP2 MSTORE PUSH1 0x20 PUSH1 0x4 DUP3 ADD MSTORE PUSH1 0x10 PUSH1 0x24 DUP3 ADD MSTORE PUSH16 0x546F6F206C61746520666F72206E6577 PUSH1 0x80 SHL PUSH1 0x44 DUP3 ADD MSTORE PUSH1 0x64 ADD PUSH2 0xA1E JUMP JUMPDEST CALLER PUSH0 SWAP1 DUP2 MSTORE PUSH1 0xE DUP4 ADD PUSH1 0x20 MSTORE PUSH1 0x40 DUP2 KECCAK256 DUP1 SLOAD PUSH1 0xFF NOT AND PUSH1 0x1 SWAP1 DUP2 OR SWAP1 SWAP2 SSTORE PUSH1 0x2 DUP4 ADD SLOAD SWAP1 DUP4 ADD SLOAD PUSH2 0xC3F SWAP2 SWAP1 PUSH2 0x25C4 JUMP JUMPDEST DUP3 SLOAD PUSH1 0x40 MLOAD PUSH4 0x23B872DD PUSH1 0xE0 SHL DUP2 MSTORE CALLER PUSH1 0x4 DUP3 ADD MSTORE ADDRESS PUSH1 0x24 DUP3 ADD MSTORE PUSH1 0x44 DUP2 ADD DUP4 SWAP1 MSTORE SWAP2 SWAP3 POP PUSH1 0x1 PUSH1 0x1 PUSH1 0xA0 SHL SUB AND SWAP1 PUSH4 0x23B872DD SWAP1 PUSH1 0x64 ADD PUSH1 0x20 PUSH1 0x40 MLOAD DUP1 DUP4 SUB DUP2 PUSH0 DUP8 GAS CALL ISZERO DUP1 ISZERO PUSH2 0xC93 JUMPI RETURNDATASIZE PUSH0 PUSH0 RETURNDATACOPY RETURNDATASIZE PUSH0 REVERT JUMPDEST POP POP POP POP PUSH1 0x40 MLOAD RETURNDATASIZE PUSH1 0x1F NOT PUSH1 0x1F DUP3 ADD AND DUP3 ADD DUP1 PUSH1 0x40 MSTORE POP DUP2 ADD SWAP1 PUSH2 0xCB7 SWAP2 SWAP1 PUSH2 0x25D7 JUMP JUMPDEST POP PUSH1 0x9 DUP3 ADD DUP1 SLOAD PUSH1 0x1 DUP2 ADD DUP3 SSTORE PUSH0 SWAP2 DUP3 MSTORE PUSH1 0x20 DUP1 DUP4 KECCAK256 SWAP1 SWAP2 ADD DUP1 SLOAD PUSH1 0x1 PUSH1 0x1 PUSH1 0xA0 SHL SUB NOT AND CALLER SWAP1 DUP2 OR SWAP1 SWAP2 SSTORE DUP3 MSTORE PUSH1 0xC DUP5 ADD SWAP1 MSTORE PUSH1 0x40 DUP2 KECCAK256 DUP1 SLOAD SWAP2 PUSH2 0xCFB DUP4 PUSH2 0x25F6 JUMP JUMPDEST SWAP1 SWAP2 SSTORE POP POP PUSH1 0x40 DUP1 MLOAD DUP6 DUP2 MSTORE CALLER PUSH1 0x20 DUP3 ADD MSTORE PUSH32 0x1E28857182A3B2BB6FBB88287D1BA8CC3A941DD65D4C977286676D27B877A3D9 SWAP2 ADD PUSH1 0x40 MLOAD DUP1 SWAP2 SUB SWAP1 LOG1 POP POP POP PUSH2 0xA31 PUSH1 0x1 PUSH0 SSTORE JUMP JUMPDEST PUSH2 0xD4C PUSH2 0x1C9C JUMP JUMPDEST PUSH0 DUP2 DUP2 MSTORE PUSH1 0x2 PUSH1 0x20 MSTORE PUSH1 0x40 SWAP1 KECCAK256 PUSH1 0x8 DUP2 ADD SLOAD PUSH1 0xFF AND DUP1 ISZERO PUSH2 0xD78 JUMPI POP PUSH1 0x8 DUP2 ADD SLOAD PUSH3 0x10000 SWAP1 DIV PUSH1 0xFF AND ISZERO JUMPDEST PUSH2 0xDBC JUMPI PUSH1 0x40 MLOAD PUSH3 0x461BCD PUSH1 0xE5 SHL DUP2 MSTORE PUSH1 0x20 PUSH1 0x4 DUP3 ADD MSTORE PUSH1 0x15 PUSH1 0x24 DUP3 ADD MSTORE PUSH21 0x125B9858DD1A5D99481BDC8818D85B98D95B1B1959 PUSH1 0x5A SHL PUSH1 0x44 DUP3 ADD MSTORE PUSH1 0x64 ADD PUSH2 0xA1E JUMP JUMPDEST DUP1 PUSH1 0x4 ADD SLOAD TIMESTAMP LT PUSH2 0xDFA JUMPI PUSH1 0x40 MLOAD PUSH3 0x461BCD PUSH1 0xE5 SHL DUP2 MSTORE PUSH1 0x20 PUSH1 0x4 DUP3 ADD MSTORE PUSH1 0x8 PUSH1 0x24 DUP3 ADD MSTORE PUSH8 0x546F6F206C617465 PUSH1 0xC0 SHL PUSH1 0x44 DUP3 ADD MSTORE PUSH1 0x64 ADD PUSH2 0xA1E JUMP JUMPDEST PUSH1 0x3 DUP2 ADD SLOAD PUSH1 0x9 DUP3 ADD SLOAD LT PUSH2 0xE44 JUMPI PUSH1 0x40 MLOAD PUSH3 0x461BCD PUSH1 0xE5 SHL DUP2 MSTORE PUSH1 0x20 PUSH1 0x4 DUP3 ADD MSTORE PUSH1 0x10 PUSH1 0x24 DUP3 ADD MSTORE PUSH16 0x4D6178207061727469636970616E7473 PUSH1 0x80 SHL PUSH1 0x44 DUP3 ADD MSTORE PUSH1 0x64 ADD PUSH2 0xA1E JUMP JUMPDEST DUP1 SLOAD PUSH1 0x1 DUP3 ADD SLOAD PUSH1 0x40 MLOAD PUSH4 0x23B872DD PUSH1 0xE0 SHL DUP2 MSTORE CALLER PUSH1 0x4 DUP3 ADD MSTORE ADDRESS PUSH1 0x24 DUP3 ADD MSTORE PUSH1 0x44 DUP2 ADD SWAP2 SWAP1 SWAP2 MSTORE PUSH1 0x1 PUSH1 0x1 PUSH1 0xA0 SHL SUB SWAP1 SWAP2 AND SWAP1 PUSH4 0x23B872DD SWAP1 PUSH1 0x64 ADD PUSH1 0x20 PUSH1 0x40 MLOAD DUP1 DUP4 SUB DUP2 PUSH0 DUP8 GAS CALL ISZERO DUP1 ISZERO PUSH2 0xE9D JUMPI RETURNDATASIZE PUSH0 PUSH0 RETURNDATACOPY RETURNDATASIZE PUSH0 REVERT JUMPDEST POP POP POP POP PUSH1 0x40 MLOAD RETURNDATASIZE PUSH1 0x1F NOT PUSH1 0x1F DUP3 ADD AND DUP3 ADD DUP1 PUSH1 0x40 MSTORE POP DUP2 ADD SWAP1 PUSH2 0xEC1 SWAP2 SWAP1 PUSH2 0x25D7 JUMP JUMPDEST POP PUSH1 0x9 DUP2 ADD DUP1 SLOAD PUSH1 0x1 DUP2 ADD DUP3 SSTORE PUSH0 SWAP2 DUP3 MSTORE PUSH1 0x20 DUP1 DUP4 KECCAK256 SWAP1 SWAP2 ADD DUP1 SLOAD PUSH1 0x1 PUSH1 0x1 PUSH1 0xA0 SHL SUB NOT AND CALLER SWAP1 DUP2 OR SWAP1 SWAP2 SSTORE DUP3 MSTORE PUSH1 0xC DUP4 ADD SWAP1 MSTORE PUSH1 0x40 DUP2 KECCAK256 DUP1 SLOAD SWAP2 PUSH2 0xF05 DUP4 PUSH2 0x25F6 JUMP JUMPDEST SWAP1 SWAP2 SSTORE POP POP PUSH1 0x40 DUP1 MLOAD DUP4 DUP2 MSTORE CALLER PUSH1 0x20 DUP3 ADD MSTORE PUSH32 0x1E28857182A3B2BB6FBB88287D1BA8CC3A941DD65D4C977286676D27B877A3D9 SWAP2 ADD PUSH1 0x40 MLOAD DUP1 SWAP2 SUB SWAP1 LOG1 POP PUSH2 0xF4C PUSH1 0x1 PUSH0 SSTORE JUMP JUMPDEST POP JUMP JUMPDEST PUSH2 0xF57 PUSH2 0x19A6 JUMP JUMPDEST DUP6 DUP8 LT ISZERO PUSH2 0xF97 JUMPI PUSH1 0x40 MLOAD PUSH3 0x461BCD PUSH1 0xE5 SHL DUP2 MSTORE PUSH1 0x20 PUSH1 0x4 DUP3 ADD MSTORE PUSH1 0xD PUSH1 0x24 DUP3 ADD MSTORE PUSH13 0x526566756E64203C3D20666565 PUSH1 0x98 SHL PUSH1 0x44 DUP3 ADD MSTORE PUSH1 0x64 ADD PUSH2 0xA1E JUMP JUMPDEST TIMESTAMP DUP5 GT PUSH2 0xFDA JUMPI PUSH1 0x40 MLOAD PUSH3 0x461BCD PUSH1 0xE5 SHL DUP2 MSTORE PUSH1 0x20 PUSH1 0x4 DUP3 ADD MSTORE PUSH1 0x11 PUSH1 0x24 DUP3 ADD MSTORE PUSH17 0x496E76616C696420647261772074696D65 PUSH1 0x78 SHL PUSH1 0x44 DUP3 ADD MSTORE PUSH1 0x64 ADD PUSH2 0xA1E JUMP JUMPDEST PUSH0 PUSH1 0x2 PUSH0 PUSH1 0x3 PUSH0 DUP2 SLOAD PUSH2 0xFEC SWAP1 PUSH2 0x25F6 JUMP JUMPDEST SWAP2 DUP3 SWAP1 SSTORE POP DUP2 MSTORE PUSH1 0x20 DUP1 DUP3 ADD SWAP3 SWAP1 SWAP3 MSTORE PUSH1 0x40 SWAP1 DUP2 ADD PUSH0 KECCAK256 DUP1 SLOAD PUSH1 0x1 PUSH1 0x1 PUSH1 0xA0 SHL SUB NOT AND PUSH1 0x1 PUSH1 0x1 PUSH1 0xA0 SHL SUB DUP14 AND OR DUP2 SSTORE PUSH1 0x1 DUP1 DUP3 ADD DUP13 SWAP1 SSTORE PUSH1 0x2 DUP3 ADD DUP12 SWAP1 SSTORE PUSH1 0x3 DUP1 DUP4 ADD DUP12 SWAP1 SSTORE PUSH1 0x4 DUP4 ADD DUP11 SWAP1 SSTORE PUSH1 0x5 DUP4 ADD DUP10 SWAP1 SSTORE PUSH1 0x6 DUP4 ADD DUP9 SWAP1 SSTORE PUSH1 0x7 DUP4 ADD DUP8 SWAP1 SSTORE PUSH1 0x8 DUP4 ADD DUP1 SLOAD PUSH1 0xFF NOT AND SWAP1 SWAP3 OR SWAP1 SWAP2 SSTORE SLOAD SWAP2 MLOAD SWAP2 DUP3 MSTORE SWAP3 POP PUSH32 0x9E0023BEBCC752BAAA41057318405B5A6A8E9C6372B519717CFDF238E5CAA795 SWAP2 ADD PUSH1 0x40 MLOAD DUP1 SWAP2 SUB SWAP1 LOG1 POP POP POP POP POP POP POP POP POP JUMP JUMPDEST PUSH2 0x10A5 PUSH2 0x19A6 JUMP JUMPDEST PUSH0 DUP2 DUP2 MSTORE PUSH1 0x2 PUSH1 0x20 MSTORE PUSH1 0x40 SWAP1 KECCAK256 PUSH1 0x8 DUP2 ADD SLOAD PUSH3 0x10000 SWAP1 DIV PUSH1 0xFF AND ISZERO DUP1 ISZERO PUSH2 0x10D7 JUMPI POP PUSH1 0x8 DUP2 ADD SLOAD PUSH2 0x100 SWAP1 DIV PUSH1 0xFF AND ISZERO JUMPDEST PUSH2 0x1117 JUMPI PUSH1 0x40 MLOAD PUSH3 0x461BCD PUSH1 0xE5 SHL DUP2 MSTORE PUSH1 0x20 PUSH1 0x4 DUP3 ADD MSTORE PUSH1 0x11 PUSH1 0x24 DUP3 ADD MSTORE PUSH17 0x105B1C9958591E48199A5B985B1A5E9959 PUSH1 0x7A SHL PUSH1 0x44 DUP3 ADD MSTORE PUSH1 0x64 ADD PUSH2 0xA1E JUMP JUMPDEST PUSH1 0x8 DUP2 ADD DUP1 SLOAD PUSH3 0xFF0000 NOT AND PUSH3 0x10000 OR SWAP1 SSTORE PUSH1 0x40 MLOAD PUSH32 0xC3DAC690CF4C3AE8964F18B8F09F7F9A75D3962A8CBB7CD689DF2C291BB5B2DD SWAP1 PUSH2 0x115C SWAP1 DUP5 DUP2 MSTORE PUSH1 0x20 ADD SWAP1 JUMP JUMPDEST PUSH1 0x40 MLOAD DUP1 SWAP2 SUB SWAP1 LOG1 POP POP JUMP JUMPDEST PUSH2 0x1170 PUSH2 0x1CF3 JUMP JUMPDEST PUSH2 0x1179 DUP3 PUSH2 0x1D97 JUMP JUMPDEST PUSH2 0xA31 DUP3 DUP3 PUSH2 0x1D9F JUMP JUMPDEST PUSH0 PUSH2 0x118C PUSH2 0x1E5B JUMP JUMPDEST POP PUSH0 MLOAD PUSH1 0x20 PUSH2 0x26EA PUSH0 CODECOPY PUSH0 MLOAD SWAP1 PUSH0 MSTORE SWAP1 JUMP JUMPDEST PUSH2 0x11A6 PUSH2 0x1C9C JUMP JUMPDEST PUSH0 DUP2 DUP2 MSTORE PUSH1 0x2 PUSH1 0x20 MSTORE PUSH1 0x40 SWAP1 KECCAK256 PUSH1 0x8 DUP2 ADD SLOAD PUSH3 0x10000 SWAP1 DIV PUSH1 0xFF AND DUP1 PUSH2 0x11ED JUMPI POP PUSH1 0x8 DUP2 ADD SLOAD PUSH2 0x100 SWAP1 DIV PUSH1 0xFF AND DUP1 ISZERO PUSH2 0x11ED JUMPI POP PUSH1 0xA DUP2 ADD SLOAD PUSH1 0x1 PUSH1 0x1 PUSH1 0xA0 SHL SUB AND CALLER EQ ISZERO JUMPDEST PUSH2 0x1228 JUMPI PUSH1 0x40 MLOAD PUSH3 0x461BCD PUSH1 0xE5 SHL DUP2 MSTORE PUSH1 0x20 PUSH1 0x4 DUP3 ADD MSTORE PUSH1 0xC PUSH1 0x24 DUP3 ADD MSTORE PUSH12 0x4E6F7420656C696769626C65 PUSH1 0xA0 SHL PUSH1 0x44 DUP3 ADD MSTORE PUSH1 0x64 ADD PUSH2 0xA1E JUMP JUMPDEST CALLER PUSH0 SWAP1 DUP2 MSTORE PUSH1 0xE DUP3 ADD PUSH1 0x20 MSTORE PUSH1 0x40 SWAP1 KECCAK256 SLOAD PUSH1 0xFF AND ISZERO PUSH2 0x127C JUMPI PUSH1 0x40 MLOAD PUSH3 0x461BCD PUSH1 0xE5 SHL DUP2 MSTORE PUSH1 0x20 PUSH1 0x4 DUP3 ADD MSTORE PUSH1 0x10 PUSH1 0x24 DUP3 ADD MSTORE PUSH16 0x105B1C9958591E481C99599D5B991959 PUSH1 0x82 SHL PUSH1 0x44 DUP3 ADD MSTORE PUSH1 0x64 ADD PUSH2 0xA1E JUMP JUMPDEST CALLER PUSH0 SWAP1 DUP2 MSTORE PUSH1 0xC DUP3 ADD PUSH1 0x20 MSTORE PUSH1 0x40 SWAP1 KECCAK256 SLOAD PUSH2 0x12C6 JUMPI PUSH1 0x40 MLOAD PUSH3 0x461BCD PUSH1 0xE5 SHL DUP2 MSTORE PUSH1 0x20 PUSH1 0x4 DUP3 ADD MSTORE PUSH1 0xA PUSH1 0x24 DUP3 ADD MSTORE PUSH10 0x4E6F20656E7472696573 PUSH1 0xB0 SHL PUSH1 0x44 DUP3 ADD MSTORE PUSH1 0x64 ADD PUSH2 0xA1E JUMP JUMPDEST CALLER PUSH0 SWAP1 DUP2 MSTORE PUSH1 0xE DUP3 ADD PUSH1 0x20 SWAP1 DUP2 MSTORE PUSH1 0x40 DUP1 DUP4 KECCAK256 DUP1 SLOAD PUSH1 0xFF NOT AND PUSH1 0x1 OR SWAP1 SSTORE PUSH1 0xC DUP5 ADD SWAP1 SWAP2 MSTORE DUP2 KECCAK256 SLOAD PUSH1 0x2 DUP4 ADD SLOAD PUSH2 0x12FD SWAP2 SWAP1 PUSH2 0x260E JUMP JUMPDEST DUP3 SLOAD PUSH1 0x40 MLOAD PUSH4 0xA9059CBB PUSH1 0xE0 SHL DUP2 MSTORE CALLER PUSH1 0x4 DUP3 ADD MSTORE PUSH1 0x24 DUP2 ADD DUP4 SWAP1 MSTORE SWAP2 SWAP3 POP PUSH1 0x1 PUSH1 0x1 PUSH1 0xA0 SHL SUB AND SWAP1 PUSH4 0xA9059CBB SWAP1 PUSH1 0x44 ADD PUSH1 0x20 PUSH1 0x40 MLOAD DUP1 DUP4 SUB DUP2 PUSH0 DUP8 GAS CALL ISZERO DUP1 ISZERO PUSH2 0x134B JUMPI RETURNDATASIZE PUSH0 PUSH0 RETURNDATACOPY RETURNDATASIZE PUSH0 REVERT JUMPDEST POP POP POP POP PUSH1 0x40 MLOAD RETURNDATASIZE PUSH1 0x1F NOT PUSH1 0x1F DUP3 ADD AND DUP3 ADD DUP1 PUSH1 0x40 MSTORE POP DUP2 ADD SWAP1 PUSH2 0x136F SWAP2 SWAP1 PUSH2 0x25D7 JUMP JUMPDEST POP POP POP PUSH2 0xF4C PUSH1 0x1 PUSH0 SSTORE JUMP JUMPDEST PUSH2 0x1383 PUSH2 0x19A6 JUMP JUMPDEST PUSH0 DUP2 DUP2 MSTORE PUSH1 0x2 PUSH1 0x20 MSTORE PUSH1 0x40 SWAP1 KECCAK256 PUSH1 0x4 DUP2 ADD SLOAD TIMESTAMP LT ISZERO PUSH2 0x13D0 JUMPI PUSH1 0x40 MLOAD PUSH3 0x461BCD PUSH1 0xE5 SHL DUP2 MSTORE PUSH1 0x20 PUSH1 0x4 DUP3 ADD MSTORE PUSH1 0x9 PUSH1 0x24 DUP3 ADD MSTORE PUSH9 0x546F6F206561726C79 PUSH1 0xB8 SHL PUSH1 0x44 DUP3 ADD MSTORE PUSH1 0x64 ADD PUSH2 0xA1E JUMP JUMPDEST PUSH1 0x8 DUP2 ADD SLOAD PUSH2 0x100 SWAP1 DIV PUSH1 0xFF AND ISZERO DUP1 ISZERO PUSH2 0x13F5 JUMPI POP PUSH1 0x8 DUP2 ADD SLOAD PUSH3 0x10000 SWAP1 DIV PUSH1 0xFF AND ISZERO JUMPDEST PUSH2 0x1441 JUMPI PUSH1 0x40 MLOAD PUSH3 0x461BCD PUSH1 0xE5 SHL DUP2 MSTORE PUSH1 0x20 PUSH1 0x4 DUP3 ADD MSTORE PUSH1 0x1A PUSH1 0x24 DUP3 ADD MSTORE PUSH32 0x416C726561647920647261776E206F722063616E63656C6C6564000000000000 PUSH1 0x44 DUP3 ADD MSTORE PUSH1 0x64 ADD PUSH2 0xA1E JUMP JUMPDEST PUSH1 0x9 DUP2 ADD SLOAD PUSH2 0x1484 JUMPI PUSH1 0x40 MLOAD PUSH3 0x461BCD PUSH1 0xE5 SHL DUP2 MSTORE PUSH1 0x20 PUSH1 0x4 DUP3 ADD MSTORE PUSH1 0xF PUSH1 0x24 DUP3 ADD MSTORE PUSH15 0x4E6F207061727469636970616E7473 PUSH1 0x88 SHL PUSH1 0x44 DUP3 ADD MSTORE PUSH1 0x64 ADD PUSH2 0xA1E JUMP JUMPDEST PUSH1 0x9 SLOAD PUSH1 0x40 DUP1 MLOAD PUSH1 0xC0 DUP2 ADD DUP3 MSTORE PUSH1 0x6 SLOAD DUP2 MSTORE PUSH1 0x8 SLOAD PUSH1 0x20 DUP1 DUP4 ADD SWAP2 SWAP1 SWAP2 MSTORE PUSH1 0x7 SLOAD PUSH2 0xFFFF PUSH5 0x100000000 DUP3 DIV AND DUP4 DUP6 ADD MSTORE PUSH4 0xFFFFFFFF DUP1 DUP3 AND PUSH1 0x60 DUP6 ADD MSTORE PUSH7 0x1000000000000 SWAP1 SWAP2 DIV AND PUSH1 0x80 DUP4 ADD MSTORE DUP3 MLOAD SWAP1 DUP2 ADD SWAP1 SWAP3 MSTORE PUSH0 DUP1 DUP4 MSTORE SWAP3 PUSH1 0x1 PUSH1 0x1 PUSH1 0xA0 SHL SUB AND SWAP2 PUSH4 0x9B1C385E SWAP2 SWAP1 PUSH1 0xA0 DUP3 ADD SWAP1 PUSH2 0x14FF SWAP1 PUSH2 0x1EA4 JUMP JUMPDEST DUP2 MSTORE POP PUSH1 0x40 MLOAD DUP3 PUSH4 0xFFFFFFFF AND PUSH1 0xE0 SHL DUP2 MSTORE PUSH1 0x4 ADD PUSH2 0x151E SWAP2 SWAP1 PUSH2 0x2625 JUMP JUMPDEST PUSH1 0x20 PUSH1 0x40 MLOAD DUP1 DUP4 SUB DUP2 PUSH0 DUP8 GAS CALL ISZERO DUP1 ISZERO PUSH2 0x153A JUMPI RETURNDATASIZE PUSH0 PUSH0 RETURNDATACOPY RETURNDATASIZE PUSH0 REVERT JUMPDEST POP POP POP POP PUSH1 0x40 MLOAD RETURNDATASIZE PUSH1 0x1F NOT PUSH1 0x1F DUP3 ADD AND DUP3 ADD DUP1 PUSH1 0x40 MSTORE POP DUP2 ADD SWAP1 PUSH2 0x155E SWAP2 SWAP1 PUSH2 0x2689 JUMP JUMPDEST PUSH0 DUP2 DUP2 MSTORE PUSH1 0xA PUSH1 0x20 MSTORE PUSH1 0x40 SWAP1 DUP2 SWAP1 KECCAK256 DUP6 SWAP1 SSTORE PUSH1 0x8 DUP5 ADD DUP1 SLOAD PUSH2 0xFF00 NOT AND PUSH2 0x100 OR SWAP1 SSTORE MLOAD SWAP1 SWAP2 POP PUSH32 0x600253EAE67A5C51C82A7123372E8644F16009C6304E18F844CF86FDC40C24D7 SWAP1 PUSH2 0x15BD SWAP1 DUP6 SWAP1 DUP5 SWAP1 SWAP2 DUP3 MSTORE PUSH1 0x20 DUP3 ADD MSTORE PUSH1 0x40 ADD SWAP1 JUMP JUMPDEST PUSH1 0x40 MLOAD DUP1 SWAP2 SUB SWAP1 LOG1 POP POP POP JUMP JUMPDEST PUSH2 0x15D2 PUSH2 0x19A6 JUMP JUMPDEST PUSH2 0x15DB PUSH0 PUSH2 0x1F15 JUMP JUMPDEST JUMP JUMPDEST PUSH0 DUP2 DUP2 MSTORE PUSH1 0x2 PUSH1 0x20 SWAP1 DUP2 MSTORE PUSH1 0x40 DUP1 DUP4 KECCAK256 CALLER DUP5 MSTORE PUSH1 0xF DUP2 ADD SWAP1 SWAP3 MSTORE SWAP1 SWAP2 KECCAK256 SLOAD PUSH1 0xFF AND ISZERO PUSH2 0x163B JUMPI PUSH1 0x40 MLOAD PUSH3 0x461BCD PUSH1 0xE5 SHL DUP2 MSTORE PUSH1 0x20 PUSH1 0x4 DUP3 ADD MSTORE PUSH1 0xD PUSH1 0x24 DUP3 ADD MSTORE PUSH13 0x105B1C9958591E481D9BDD1959 PUSH1 0x9A SHL PUSH1 0x44 DUP3 ADD MSTORE PUSH1 0x64 ADD PUSH2 0xA1E JUMP JUMPDEST CALLER PUSH0 SWAP1 DUP2 MSTORE PUSH1 0xC DUP3 ADD PUSH1 0x20 MSTORE PUSH1 0x40 SWAP1 KECCAK256 SLOAD PUSH2 0x1689 JUMPI PUSH1 0x40 MLOAD PUSH3 0x461BCD PUSH1 0xE5 SHL DUP2 MSTORE PUSH1 0x20 PUSH1 0x4 DUP3 ADD MSTORE PUSH1 0xE PUSH1 0x24 DUP3 ADD MSTORE PUSH14 0x4E6F7420696E206C6F7474657279 PUSH1 0x90 SHL PUSH1 0x44 DUP3 ADD MSTORE PUSH1 0x64 ADD PUSH2 0xA1E JUMP JUMPDEST CALLER PUSH0 SWAP1 DUP2 MSTORE PUSH1 0xF DUP3 ADD PUSH1 0x20 MSTORE PUSH1 0x40 DUP2 KECCAK256 DUP1 SLOAD PUSH1 0xFF NOT AND PUSH1 0x1 OR SWAP1 SSTORE PUSH1 0xB DUP3 ADD DUP1 SLOAD SWAP2 PUSH2 0x16B4 DUP4 PUSH2 0x25F6 JUMP JUMPDEST SWAP1 SWAP2 SSTORE POP POP PUSH1 0x9 DUP2 ADD SLOAD PUSH2 0x16C9 SWAP1 PUSH1 0x2 PUSH2 0x260E JUMP JUMPDEST PUSH1 0xB DUP3 ADD SLOAD PUSH2 0x16D9 SWAP1 PUSH1 0x3 PUSH2 0x260E JUMP JUMPDEST LT PUSH2 0xA31 JUMPI PUSH1 0x8 DUP2 ADD DUP1 SLOAD PUSH3 0xFF0000 NOT AND PUSH3 0x10000 OR SWAP1 SSTORE PUSH1 0x40 MLOAD PUSH32 0xC3DAC690CF4C3AE8964F18B8F09F7F9A75D3962A8CBB7CD689DF2C291BB5B2DD SWAP1 PUSH2 0x115C SWAP1 DUP5 DUP2 MSTORE PUSH1 0x20 ADD SWAP1 JUMP JUMPDEST PUSH2 0x172B PUSH2 0x19A6 JUMP JUMPDEST PUSH0 DUP2 DUP2 MSTORE PUSH1 0x2 PUSH1 0x20 DUP2 SWAP1 MSTORE PUSH1 0x40 DUP3 KECCAK256 DUP1 SLOAD PUSH1 0x1 PUSH1 0x1 PUSH1 0xA0 SHL SUB NOT AND DUP2 SSTORE PUSH1 0x1 DUP2 ADD DUP4 SWAP1 SSTORE SWAP1 DUP2 ADD DUP3 SWAP1 SSTORE PUSH1 0x3 DUP2 ADD DUP3 SWAP1 SSTORE PUSH1 0x4 DUP2 ADD DUP3 SWAP1 SSTORE PUSH1 0x5 DUP2 ADD DUP3 SWAP1 SSTORE PUSH1 0x6 DUP2 ADD DUP3 SWAP1 SSTORE PUSH1 0x7 DUP2 ADD DUP3 SWAP1 SSTORE PUSH1 0x8 DUP2 ADD DUP1 SLOAD PUSH3 0xFFFFFF NOT AND SWAP1 SSTORE SWAP1 PUSH2 0x1794 PUSH1 0x9 DUP4 ADD DUP3 PUSH2 0x219C JUMP JUMPDEST POP PUSH1 0xA DUP2 ADD DUP1 SLOAD PUSH1 0x1 PUSH1 0x1 PUSH1 0xA0 SHL SUB NOT AND SWAP1 SSTORE PUSH0 PUSH1 0xB SWAP1 SWAP2 ADD SSTORE POP JUMP JUMPDEST PUSH0 DUP2 DUP2 MSTORE PUSH1 0x2 PUSH1 0x20 SWAP1 DUP2 MSTORE PUSH1 0x40 SWAP2 DUP3 SWAP1 KECCAK256 PUSH1 0x9 ADD DUP1 SLOAD DUP4 MLOAD DUP2 DUP5 MUL DUP2 ADD DUP5 ADD SWAP1 SWAP5 MSTORE DUP1 DUP5 MSTORE PUSH1 0x60 SWAP4 SWAP3 DUP4 ADD DUP3 DUP3 DUP1 ISZERO PUSH2 0x1811 JUMPI PUSH1 0x20 MUL DUP3 ADD SWAP2 SWAP1 PUSH0 MSTORE PUSH1 0x20 PUSH0 KECCAK256 SWAP1 JUMPDEST DUP2 SLOAD PUSH1 0x1 PUSH1 0x1 PUSH1 0xA0 SHL SUB AND DUP2 MSTORE PUSH1 0x1 SWAP1 SWAP2 ADD SWAP1 PUSH1 0x20 ADD DUP1 DUP4 GT PUSH2 0x17F3 JUMPI JUMPDEST POP POP POP POP POP SWAP1 POP SWAP2 SWAP1 POP JUMP JUMPDEST PUSH2 0x1825 PUSH2 0x1C9C JUMP JUMPDEST PUSH0 DUP2 DUP2 MSTORE PUSH1 0x2 PUSH1 0x20 MSTORE PUSH1 0x40 SWAP1 KECCAK256 PUSH1 0xA DUP2 ADD SLOAD PUSH1 0x1 PUSH1 0x1 PUSH1 0xA0 SHL SUB AND CALLER EQ PUSH2 0x187B JUMPI PUSH1 0x40 MLOAD PUSH3 0x461BCD PUSH1 0xE5 SHL DUP2 MSTORE PUSH1 0x20 PUSH1 0x4 DUP3 ADD MSTORE PUSH1 0xA PUSH1 0x24 DUP3 ADD MSTORE PUSH10 0x2737BA103BB4B73732B9 PUSH1 0xB1 SHL PUSH1 0x44 DUP3 ADD MSTORE PUSH1 0x64 ADD PUSH2 0xA1E JUMP JUMPDEST CALLER PUSH0 SWAP1 DUP2 MSTORE PUSH1 0xD DUP3 ADD PUSH1 0x20 MSTORE PUSH1 0x40 SWAP1 KECCAK256 SLOAD PUSH1 0xFF AND ISZERO PUSH2 0x18CE JUMPI PUSH1 0x40 MLOAD PUSH3 0x461BCD PUSH1 0xE5 SHL DUP2 MSTORE PUSH1 0x20 PUSH1 0x4 DUP3 ADD MSTORE PUSH1 0xF PUSH1 0x24 DUP3 ADD MSTORE PUSH15 0x105B1C9958591E4818DB185A5B5959 PUSH1 0x8A SHL PUSH1 0x44 DUP3 ADD MSTORE PUSH1 0x64 ADD PUSH2 0xA1E JUMP JUMPDEST CALLER PUSH0 DUP2 DUP2 MSTORE PUSH1 0xD DUP4 ADD PUSH1 0x20 MSTORE PUSH1 0x40 SWAP1 DUP2 SWAP1 KECCAK256 DUP1 SLOAD PUSH1 0xFF NOT AND PUSH1 0x1 OR SWAP1 SSTORE DUP3 SLOAD PUSH1 0x5 DUP5 ADD SLOAD SWAP2 MLOAD PUSH4 0xA9059CBB PUSH1 0xE0 SHL DUP2 MSTORE PUSH1 0x4 DUP2 ADD SWAP4 SWAP1 SWAP4 MSTORE PUSH1 0x24 DUP4 ADD SWAP2 SWAP1 SWAP2 MSTORE PUSH1 0x1 PUSH1 0x1 PUSH1 0xA0 SHL SUB AND SWAP1 PUSH4 0xA9059CBB SWAP1 PUSH1 0x44 ADD PUSH1 0x20 PUSH1 0x40 MLOAD DUP1 DUP4 SUB DUP2 PUSH0 DUP8 GAS CALL ISZERO DUP1 ISZERO PUSH2 0x193D JUMPI RETURNDATASIZE PUSH0 PUSH0 RETURNDATACOPY RETURNDATASIZE PUSH0 REVERT JUMPDEST POP POP POP POP PUSH1 0x40 MLOAD RETURNDATASIZE PUSH1 0x1F NOT PUSH1 0x1F DUP3 ADD AND DUP3 ADD DUP1 PUSH1 0x40 MSTORE POP DUP2 ADD SWAP1 PUSH2 0x1961 SWAP2 SWAP1 PUSH2 0x25D7 JUMP JUMPDEST POP POP PUSH2 0xF4C PUSH1 0x1 PUSH0 SSTORE JUMP JUMPDEST PUSH2 0x1974 PUSH2 0x19A6 JUMP JUMPDEST PUSH1 0x1 PUSH1 0x1 PUSH1 0xA0 SHL SUB DUP2 AND PUSH2 0x199D JUMPI PUSH1 0x40 MLOAD PUSH4 0x1E4FBDF7 PUSH1 0xE0 SHL DUP2 MSTORE PUSH0 PUSH1 0x4 DUP3 ADD MSTORE PUSH1 0x24 ADD PUSH2 0xA1E JUMP JUMPDEST PUSH2 0xF4C DUP2 PUSH2 0x1F15 JUMP JUMPDEST CALLER PUSH2 0x19D8 PUSH32 0x9016D09D72D40FDAE2FD8CEAC6B6234C7706214FD39C1CD1E609A0528C199300 SLOAD PUSH1 0x1 PUSH1 0x1 PUSH1 0xA0 SHL SUB AND SWAP1 JUMP JUMPDEST PUSH1 0x1 PUSH1 0x1 PUSH1 0xA0 SHL SUB AND EQ PUSH2 0x15DB JUMPI PUSH1 0x40 MLOAD PUSH4 0x118CDAA7 PUSH1 0xE0 SHL DUP2 MSTORE CALLER PUSH1 0x4 DUP3 ADD MSTORE PUSH1 0x24 ADD PUSH2 0xA1E JUMP JUMPDEST PUSH0 DUP3 DUP2 MSTORE PUSH1 0xA PUSH1 0x20 SWAP1 DUP2 MSTORE PUSH1 0x40 DUP1 DUP4 KECCAK256 SLOAD DUP1 DUP5 MSTORE PUSH1 0x2 SWAP1 SWAP3 MSTORE SWAP1 SWAP2 KECCAK256 PUSH1 0x8 DUP2 ADD SLOAD PUSH2 0x100 SWAP1 DIV PUSH1 0xFF AND DUP1 ISZERO PUSH2 0x1A41 JUMPI POP PUSH1 0xA DUP2 ADD SLOAD PUSH1 0x1 PUSH1 0x1 PUSH1 0xA0 SHL SUB AND ISZERO JUMPDEST PUSH2 0x1A81 JUMPI PUSH1 0x40 MLOAD PUSH3 0x461BCD PUSH1 0xE5 SHL DUP2 MSTORE PUSH1 0x20 PUSH1 0x4 DUP3 ADD MSTORE PUSH1 0x11 PUSH1 0x24 DUP3 ADD MSTORE PUSH17 0x105B1C9958591E48199D5B199A5B1B1959 PUSH1 0x7A SHL PUSH1 0x44 DUP3 ADD MSTORE PUSH1 0x64 ADD PUSH2 0xA1E JUMP JUMPDEST PUSH0 DUP2 PUSH1 0x9 ADD DUP1 SLOAD SWAP1 POP DUP5 PUSH0 DUP2 MLOAD DUP2 LT PUSH2 0x1A9C JUMPI PUSH2 0x1A9C PUSH2 0x26A0 JUMP JUMPDEST PUSH1 0x20 MUL PUSH1 0x20 ADD ADD MLOAD PUSH2 0x1AAE SWAP2 SWAP1 PUSH2 0x26B4 JUMP JUMPDEST SWAP1 POP DUP2 PUSH1 0x9 ADD DUP2 DUP2 SLOAD DUP2 LT PUSH2 0x1AC5 JUMPI PUSH2 0x1AC5 PUSH2 0x26A0 JUMP JUMPDEST PUSH0 SWAP2 DUP3 MSTORE PUSH1 0x20 SWAP1 SWAP2 KECCAK256 ADD SLOAD PUSH1 0xA DUP4 ADD DUP1 SLOAD PUSH1 0x1 PUSH1 0x1 PUSH1 0xA0 SHL SUB NOT AND PUSH1 0x1 PUSH1 0x1 PUSH1 0xA0 SHL SUB SWAP3 DUP4 AND OR SWAP1 SSTORE DUP3 SLOAD PUSH1 0x4 DUP1 SLOAD PUSH1 0x6 DUP7 ADD SLOAD PUSH1 0x40 MLOAD PUSH4 0xA9059CBB PUSH1 0xE0 SHL DUP2 MSTORE SWAP2 DUP6 AND SWAP3 DUP3 ADD SWAP3 SWAP1 SWAP3 MSTORE PUSH1 0x24 DUP2 ADD SWAP2 SWAP1 SWAP2 MSTORE SWAP2 AND SWAP1 DUP2 SWAP1 PUSH4 0xA9059CBB SWAP1 PUSH1 0x44 ADD PUSH1 0x20 PUSH1 0x40 MLOAD DUP1 DUP4 SUB DUP2 PUSH0 DUP8 GAS CALL ISZERO DUP1 ISZERO PUSH2 0x1B42 JUMPI RETURNDATASIZE PUSH0 PUSH0 RETURNDATACOPY RETURNDATASIZE PUSH0 REVERT JUMPDEST POP POP POP POP PUSH1 0x40 MLOAD RETURNDATASIZE PUSH1 0x1F NOT PUSH1 0x1F DUP3 ADD AND DUP3 ADD DUP1 PUSH1 0x40 MSTORE POP DUP2 ADD SWAP1 PUSH2 0x1B66 SWAP2 SWAP1 PUSH2 0x25D7 JUMP JUMPDEST POP PUSH1 0x5 SLOAD PUSH1 0x7 DUP5 ADD SLOAD PUSH1 0x40 MLOAD PUSH4 0xA9059CBB PUSH1 0xE0 SHL DUP2 MSTORE PUSH1 0x1 PUSH1 0x1 PUSH1 0xA0 SHL SUB SWAP3 DUP4 AND PUSH1 0x4 DUP3 ADD MSTORE PUSH1 0x24 DUP2 ADD SWAP2 SWAP1 SWAP2 MSTORE SWAP1 DUP3 AND SWAP1 PUSH4 0xA9059CBB SWAP1 PUSH1 0x44 ADD PUSH1 0x20 PUSH1 0x40 MLOAD DUP1 DUP4 SUB DUP2 PUSH0 DUP8 GAS CALL ISZERO DUP1 ISZERO PUSH2 0x1BBD JUMPI RETURNDATASIZE PUSH0 PUSH0 RETURNDATACOPY RETURNDATASIZE PUSH0 REVERT JUMPDEST POP POP POP POP PUSH1 0x40 MLOAD RETURNDATASIZE PUSH1 0x1F NOT PUSH1 0x1F DUP3 ADD AND DUP3 ADD DUP1 PUSH1 0x40 MSTORE POP DUP2 ADD SWAP1 PUSH2 0x1BE1 SWAP2 SWAP1 PUSH2 0x25D7 JUMP JUMPDEST POP PUSH1 0xA DUP4 ADD SLOAD PUSH1 0x40 DUP1 MLOAD DUP7 DUP2 MSTORE PUSH1 0x1 PUSH1 0x1 PUSH1 0xA0 SHL SUB SWAP1 SWAP3 AND PUSH1 0x20 DUP4 ADD MSTORE PUSH32 0x3FB57EB449654E24E1B240D3D06702CF79362A065D5C0323AEE642D4702FA4B SWAP2 ADD PUSH1 0x40 MLOAD DUP1 SWAP2 SUB SWAP1 LOG1 POP POP POP POP POP POP JUMP JUMPDEST PUSH0 DUP1 PUSH32 0xF0C57E16840DF040F15088DC2F81FE391C3923BEC73E23A9662EFC9C229C6A00 PUSH2 0x86A JUMP JUMPDEST PUSH2 0x1C61 PUSH2 0x1F85 JUMP JUMPDEST PUSH2 0xF4C DUP2 PUSH2 0x1FAA JUMP JUMPDEST PUSH2 0x15DB PUSH2 0x1F85 JUMP JUMPDEST PUSH2 0x1C7A PUSH2 0x1F85 JUMP JUMPDEST PUSH1 0x1 DUP1 SLOAD PUSH1 0x1 PUSH1 0x1 PUSH1 0xA0 SHL SUB NOT AND PUSH1 0x1 PUSH1 0x1 PUSH1 0xA0 SHL SUB SWAP3 SWAP1 SWAP3 AND SWAP2 SWAP1 SWAP2 OR SWAP1 SSTORE JUMP JUMPDEST PUSH1 0x2 PUSH0 SLOAD SUB PUSH2 0x1CED JUMPI PUSH1 0x40 MLOAD PUSH3 0x461BCD PUSH1 0xE5 SHL DUP2 MSTORE PUSH1 0x20 PUSH1 0x4 DUP3 ADD MSTORE PUSH1 0x1F PUSH1 0x24 DUP3 ADD MSTORE PUSH32 0x5265656E7472616E637947756172643A207265656E7472616E742063616C6C00 PUSH1 0x44 DUP3 ADD MSTORE PUSH1 0x64 ADD PUSH2 0xA1E JUMP JUMPDEST PUSH1 0x2 PUSH0 SSTORE JUMP JUMPDEST ADDRESS PUSH1 0x1 PUSH1 0x1 PUSH1 0xA0 SHL SUB PUSH32 0x0 AND EQ DUP1 PUSH2 0x1D79 JUMPI POP PUSH32 0x0 PUSH1 0x1 PUSH1 0x1 PUSH1 0xA0 SHL SUB AND PUSH2 0x1D6D PUSH0 MLOAD PUSH1 0x20 PUSH2 0x26EA PUSH0 CODECOPY PUSH0 MLOAD SWAP1 PUSH0 MSTORE SLOAD PUSH1 0x1 PUSH1 0x1 PUSH1 0xA0 SHL SUB AND SWAP1 JUMP JUMPDEST PUSH1 0x1 PUSH1 0x1 PUSH1 0xA0 SHL SUB AND EQ ISZERO JUMPDEST ISZERO PUSH2 0x15DB JUMPI PUSH1 0x40 MLOAD PUSH4 0x703E46DD PUSH1 0xE1 SHL DUP2 MSTORE PUSH1 0x4 ADD PUSH1 0x40 MLOAD DUP1 SWAP2 SUB SWAP1 REVERT JUMPDEST PUSH2 0xF4C PUSH2 0x19A6 JUMP JUMPDEST DUP2 PUSH1 0x1 PUSH1 0x1 PUSH1 0xA0 SHL SUB AND PUSH4 0x52D1902D PUSH1 0x40 MLOAD DUP2 PUSH4 0xFFFFFFFF AND PUSH1 0xE0 SHL DUP2 MSTORE PUSH1 0x4 ADD PUSH1 0x20 PUSH1 0x40 MLOAD DUP1 DUP4 SUB DUP2 DUP7 GAS STATICCALL SWAP3 POP POP POP DUP1 ISZERO PUSH2 0x1DF9 JUMPI POP PUSH1 0x40 DUP1 MLOAD PUSH1 0x1F RETURNDATASIZE SWAP1 DUP2 ADD PUSH1 0x1F NOT AND DUP3 ADD SWAP1 SWAP3 MSTORE PUSH2 0x1DF6 SWAP2 DUP2 ADD SWAP1 PUSH2 0x2689 JUMP JUMPDEST PUSH1 0x1 JUMPDEST PUSH2 0x1E21 JUMPI PUSH1 0x40 MLOAD PUSH4 0x4C9C8CE3 PUSH1 0xE0 SHL DUP2 MSTORE PUSH1 0x1 PUSH1 0x1 PUSH1 0xA0 SHL SUB DUP4 AND PUSH1 0x4 DUP3 ADD MSTORE PUSH1 0x24 ADD PUSH2 0xA1E JUMP JUMPDEST PUSH0 MLOAD PUSH1 0x20 PUSH2 0x26EA PUSH0 CODECOPY PUSH0 MLOAD SWAP1 PUSH0 MSTORE DUP2 EQ PUSH2 0x1E51 JUMPI PUSH1 0x40 MLOAD PUSH4 0x2A875269 PUSH1 0xE2 SHL DUP2 MSTORE PUSH1 0x4 DUP2 ADD DUP3 SWAP1 MSTORE PUSH1 0x24 ADD PUSH2 0xA1E JUMP JUMPDEST PUSH2 0x83C DUP4 DUP4 PUSH2 0x1FB2 JUMP JUMPDEST ADDRESS PUSH1 0x1 PUSH1 0x1 PUSH1 0xA0 SHL SUB PUSH32 0x0 AND EQ PUSH2 0x15DB JUMPI PUSH1 0x40 MLOAD PUSH4 0x703E46DD PUSH1 0xE1 SHL DUP2 MSTORE PUSH1 0x4 ADD PUSH1 0x40 MLOAD DUP1 SWAP2 SUB SWAP1 REVERT JUMPDEST PUSH1 0x60 PUSH32 0x92FD13387C7FE7BEFBC38D303D6468778FB9731BC4583F17D92989C6FCFDEAAA DUP3 PUSH1 0x40 MLOAD PUSH1 0x24 ADD PUSH2 0x1EDD SWAP2 MLOAD ISZERO ISZERO DUP2 MSTORE PUSH1 0x20 ADD SWAP1 JUMP JUMPDEST PUSH1 0x40 DUP1 MLOAD PUSH1 0x1F NOT DUP2 DUP5 SUB ADD DUP2 MSTORE SWAP2 SWAP1 MSTORE PUSH1 0x20 DUP2 ADD DUP1 MLOAD PUSH1 0x1 PUSH1 0x1 PUSH1 0xE0 SHL SUB AND PUSH1 0x1 PUSH1 0x1 PUSH1 0xE0 SHL SUB NOT SWAP1 SWAP4 AND SWAP3 SWAP1 SWAP3 OR SWAP1 SWAP2 MSTORE SWAP3 SWAP2 POP POP JUMP JUMPDEST PUSH32 0x9016D09D72D40FDAE2FD8CEAC6B6234C7706214FD39C1CD1E609A0528C199300 DUP1 SLOAD PUSH1 0x1 PUSH1 0x1 PUSH1 0xA0 SHL SUB NOT DUP2 AND PUSH1 0x1 PUSH1 0x1 PUSH1 0xA0 SHL SUB DUP5 DUP2 AND SWAP2 DUP3 OR DUP5 SSTORE PUSH1 0x40 MLOAD SWAP3 AND SWAP2 DUP3 SWAP1 PUSH32 0x8BE0079C531659141344CD1FD0A4F28419497F9722A3DAAFE3B4186F6B6457E0 SWAP1 PUSH0 SWAP1 LOG3 POP POP POP JUMP JUMPDEST PUSH2 0x1F8D PUSH2 0x2007 JUMP JUMPDEST PUSH2 0x15DB JUMPI PUSH1 0x40 MLOAD PUSH4 0x1AFCD79F PUSH1 0xE3 SHL DUP2 MSTORE PUSH1 0x4 ADD PUSH1 0x40 MLOAD DUP1 SWAP2 SUB SWAP1 REVERT JUMPDEST PUSH2 0x1974 PUSH2 0x1F85 JUMP JUMPDEST PUSH2 0x1FBB DUP3 PUSH2 0x2020 JUMP JUMPDEST PUSH1 0x40 MLOAD PUSH1 0x1 PUSH1 0x1 PUSH1 0xA0 SHL SUB DUP4 AND SWAP1 PUSH32 0xBC7CD75A20EE27FD9ADEBAB32041F755214DBC6BFFA90CC0225B39DA2E5C2D3B SWAP1 PUSH0 SWAP1 LOG2 DUP1 MLOAD ISZERO PUSH2 0x1FFF JUMPI PUSH2 0x83C DUP3 DUP3 PUSH2 0x2083 JUMP JUMPDEST PUSH2 0xA31 PUSH2 0x20F5 JUMP JUMPDEST PUSH0 PUSH2 0x2010 PUSH2 0x1C31 JUMP JUMPDEST SLOAD PUSH1 0x1 PUSH1 0x40 SHL SWAP1 DIV PUSH1 0xFF AND SWAP2 SWAP1 POP JUMP JUMPDEST DUP1 PUSH1 0x1 PUSH1 0x1 PUSH1 0xA0 SHL SUB AND EXTCODESIZE PUSH0 SUB PUSH2 0x2055 JUMPI PUSH1 0x40 MLOAD PUSH4 0x4C9C8CE3 PUSH1 0xE0 SHL DUP2 MSTORE PUSH1 0x1 PUSH1 0x1 PUSH1 0xA0 SHL SUB DUP3 AND PUSH1 0x4 DUP3 ADD MSTORE PUSH1 0x24 ADD PUSH2 0xA1E JUMP JUMPDEST PUSH0 MLOAD PUSH1 0x20 PUSH2 0x26EA PUSH0 CODECOPY PUSH0 MLOAD SWAP1 PUSH0 MSTORE DUP1 SLOAD PUSH1 0x1 PUSH1 0x1 PUSH1 0xA0 SHL SUB NOT AND PUSH1 0x1 PUSH1 0x1 PUSH1 0xA0 SHL SUB SWAP3 SWAP1 SWAP3 AND SWAP2 SWAP1 SWAP2 OR SWAP1 SSTORE JUMP JUMPDEST PUSH1 0x60 PUSH0 PUSH0 DUP5 PUSH1 0x1 PUSH1 0x1 PUSH1 0xA0 SHL SUB AND DUP5 PUSH1 0x40 MLOAD PUSH2 0x209F SWAP2 SWAP1 PUSH2 0x26D3 JUMP JUMPDEST PUSH0 PUSH1 0x40 MLOAD DUP1 DUP4 SUB DUP2 DUP6 GAS DELEGATECALL SWAP2 POP POP RETURNDATASIZE DUP1 PUSH0 DUP2 EQ PUSH2 0x20D7 JUMPI PUSH1 0x40 MLOAD SWAP2 POP PUSH1 0x1F NOT PUSH1 0x3F RETURNDATASIZE ADD AND DUP3 ADD PUSH1 0x40 MSTORE RETURNDATASIZE DUP3 MSTORE RETURNDATASIZE PUSH0 PUSH1 0x20 DUP5 ADD RETURNDATACOPY PUSH2 0x20DC JUMP JUMPDEST PUSH1 0x60 SWAP2 POP JUMPDEST POP SWAP2 POP SWAP2 POP PUSH2 0x20EC DUP6 DUP4 DUP4 PUSH2 0x2114 JUMP JUMPDEST SWAP6 SWAP5 POP POP POP POP POP JUMP JUMPDEST CALLVALUE ISZERO PUSH2 0x15DB JUMPI PUSH1 0x40 MLOAD PUSH4 0xB398979F PUSH1 0xE0 SHL DUP2 MSTORE PUSH1 0x4 ADD PUSH1 0x40 MLOAD DUP1 SWAP2 SUB SWAP1 REVERT JUMPDEST PUSH1 0x60 DUP3 PUSH2 0x2129 JUMPI PUSH2 0x2124 DUP3 PUSH2 0x2173 JUMP JUMPDEST PUSH2 0x216C JUMP JUMPDEST DUP2 MLOAD ISZERO DUP1 ISZERO PUSH2 0x2140 JUMPI POP PUSH1 0x1 PUSH1 0x1 PUSH1 0xA0 SHL SUB DUP5 AND EXTCODESIZE ISZERO JUMPDEST ISZERO PUSH2 0x2169 JUMPI PUSH1 0x40 MLOAD PUSH4 0x9996B315 PUSH1 0xE0 SHL DUP2 MSTORE PUSH1 0x1 PUSH1 0x1 PUSH1 0xA0 SHL SUB DUP6 AND PUSH1 0x4 DUP3 ADD MSTORE PUSH1 0x24 ADD PUSH2 0xA1E JUMP JUMPDEST POP DUP1 JUMPDEST SWAP4 SWAP3 POP POP POP JUMP JUMPDEST DUP1 MLOAD ISZERO PUSH2 0x2183 JUMPI DUP1 MLOAD DUP1 DUP3 PUSH1 0x20 ADD REVERT JUMPDEST PUSH1 0x40 MLOAD PUSH4 0xD6BDA275 PUSH1 0xE0 SHL DUP2 MSTORE PUSH1 0x4 ADD PUSH1 0x40 MLOAD DUP1 SWAP2 SUB SWAP1 REVERT JUMPDEST POP DUP1 SLOAD PUSH0 DUP3 SSTORE SWAP1 PUSH0 MSTORE PUSH1 0x20 PUSH0 KECCAK256 SWAP1 DUP2 ADD SWAP1 PUSH2 0xF4C SWAP2 SWAP1 JUMPDEST DUP1 DUP3 GT ISZERO PUSH2 0x21C6 JUMPI PUSH0 DUP2 SSTORE PUSH1 0x1 ADD PUSH2 0x21B3 JUMP JUMPDEST POP SWAP1 JUMP JUMPDEST PUSH0 PUSH0 PUSH0 PUSH1 0x40 DUP5 DUP7 SUB SLT ISZERO PUSH2 0x21DC JUMPI PUSH0 PUSH0 REVERT JUMPDEST DUP4 CALLDATALOAD SWAP3 POP PUSH1 0x20 DUP5 ADD CALLDATALOAD PUSH8 0xFFFFFFFFFFFFFFFF DUP2 GT ISZERO PUSH2 0x21F9 JUMPI PUSH0 PUSH0 REVERT JUMPDEST DUP5 ADD PUSH1 0x1F DUP2 ADD DUP7 SGT PUSH2 0x2209 JUMPI PUSH0 PUSH0 REVERT JUMPDEST DUP1 CALLDATALOAD PUSH8 0xFFFFFFFFFFFFFFFF DUP2 GT ISZERO PUSH2 0x221F JUMPI PUSH0 PUSH0 REVERT JUMPDEST DUP7 PUSH1 0x20 DUP3 PUSH1 0x5 SHL DUP5 ADD ADD GT ISZERO PUSH2 0x2233 JUMPI PUSH0 PUSH0 REVERT JUMPDEST SWAP4 SWAP7 PUSH1 0x20 SWAP2 SWAP1 SWAP2 ADD SWAP6 POP SWAP3 SWAP4 POP POP POP JUMP JUMPDEST DUP1 CALLDATALOAD PUSH1 0x1 PUSH1 0x1 PUSH1 0xA0 SHL SUB DUP2 AND DUP2 EQ PUSH2 0x225A JUMPI PUSH0 PUSH0 REVERT JUMPDEST SWAP2 SWAP1 POP JUMP JUMPDEST PUSH0 PUSH0 PUSH1 0x40 DUP4 DUP6 SUB SLT ISZERO PUSH2 0x2270 JUMPI PUSH0 PUSH0 REVERT JUMPDEST DUP3 CALLDATALOAD SWAP2 POP PUSH2 0x2280 PUSH1 0x20 DUP5 ADD PUSH2 0x2244 JUMP JUMPDEST SWAP1 POP SWAP3 POP SWAP3 SWAP1 POP JUMP JUMPDEST PUSH0 PUSH0 PUSH0 PUSH0 PUSH0 PUSH1 0xA0 DUP7 DUP9 SUB SLT ISZERO PUSH2 0x229D JUMPI PUSH0 PUSH0 REVERT JUMPDEST PUSH2 0x22A6 DUP7 PUSH2 0x2244 JUMP JUMPDEST SWAP5 POP PUSH1 0x20 DUP7 ADD CALLDATALOAD SWAP4 POP PUSH1 0x40 DUP7 ADD CALLDATALOAD SWAP3 POP PUSH2 0x22C2 PUSH1 0x60 DUP8 ADD PUSH2 0x2244 JUMP JUMPDEST SWAP2 POP PUSH2 0x22D0 PUSH1 0x80 DUP8 ADD PUSH2 0x2244 JUMP JUMPDEST SWAP1 POP SWAP3 SWAP6 POP SWAP3 SWAP6 SWAP1 SWAP4 POP JUMP JUMPDEST PUSH0 PUSH1 0x20 DUP3 DUP5 SUB SLT ISZERO PUSH2 0x22EC JUMPI PUSH0 PUSH0 REVERT JUMPDEST POP CALLDATALOAD SWAP2 SWAP1 POP JUMP JUMPDEST PUSH4 0x4E487B71 PUSH1 0xE0 SHL PUSH0 MSTORE PUSH1 0x41 PUSH1 0x4 MSTORE PUSH1 0x24 PUSH0 REVERT JUMPDEST PUSH1 0x40 MLOAD PUSH1 0x1F DUP3 ADD PUSH1 0x1F NOT AND DUP2 ADD PUSH8 0xFFFFFFFFFFFFFFFF DUP2 GT DUP3 DUP3 LT OR ISZERO PUSH2 0x2330 JUMPI PUSH2 0x2330 PUSH2 0x22F3 JUMP JUMPDEST PUSH1 0x40 MSTORE SWAP2 SWAP1 POP JUMP JUMPDEST PUSH0 PUSH0 PUSH1 0x40 DUP4 DUP6 SUB SLT ISZERO PUSH2 0x2349 JUMPI PUSH0 PUSH0 REVERT JUMPDEST DUP3 CALLDATALOAD SWAP2 POP PUSH1 0x20 DUP4 ADD CALLDATALOAD PUSH8 0xFFFFFFFFFFFFFFFF DUP2 GT ISZERO PUSH2 0x2366 JUMPI PUSH0 PUSH0 REVERT JUMPDEST DUP4 ADD PUSH1 0x1F DUP2 ADD DUP6 SGT PUSH2 0x2376 JUMPI PUSH0 PUSH0 REVERT JUMPDEST DUP1 CALLDATALOAD PUSH8 0xFFFFFFFFFFFFFFFF DUP2 GT ISZERO PUSH2 0x2390 JUMPI PUSH2 0x2390 PUSH2 0x22F3 JUMP JUMPDEST DUP1 PUSH1 0x5 SHL PUSH2 0x23A0 PUSH1 0x20 DUP3 ADD PUSH2 0x2307 JUMP JUMPDEST SWAP2 DUP3 MSTORE PUSH1 0x20 DUP2 DUP5 ADD DUP2 ADD SWAP3 SWAP1 DUP2 ADD SWAP1 DUP9 DUP5 GT ISZERO PUSH2 0x23BB JUMPI PUSH0 PUSH0 REVERT JUMPDEST PUSH1 0x20 DUP6 ADD SWAP5 POP JUMPDEST DUP4 DUP6 LT ISZERO PUSH2 0x23E1 JUMPI DUP5 CALLDATALOAD DUP1 DUP4 MSTORE PUSH1 0x20 SWAP6 DUP7 ADD SWAP6 SWAP1 SWAP4 POP SWAP1 SWAP2 ADD SWAP1 PUSH2 0x23C2 JUMP JUMPDEST DUP1 SWAP6 POP POP POP POP POP POP SWAP3 POP SWAP3 SWAP1 POP JUMP JUMPDEST PUSH0 PUSH0 PUSH1 0x40 DUP4 DUP6 SUB SLT ISZERO PUSH2 0x2401 JUMPI PUSH0 PUSH0 REVERT JUMPDEST POP POP DUP1 CALLDATALOAD SWAP3 PUSH1 0x20 SWAP1 SWAP2 ADD CALLDATALOAD SWAP2 POP JUMP JUMPDEST PUSH0 PUSH0 PUSH0 PUSH0 PUSH0 PUSH0 PUSH0 PUSH0 PUSH2 0x100 DUP10 DUP12 SUB SLT ISZERO PUSH2 0x2428 JUMPI PUSH0 PUSH0 REVERT JUMPDEST PUSH2 0x2431 DUP10 PUSH2 0x2244 JUMP JUMPDEST SWAP11 PUSH1 0x20 DUP11 ADD CALLDATALOAD SWAP11 POP PUSH1 0x40 DUP11 ADD CALLDATALOAD SWAP10 PUSH1 0x60 DUP2 ADD CALLDATALOAD SWAP10 POP PUSH1 0x80 DUP2 ADD CALLDATALOAD SWAP9 POP PUSH1 0xA0 DUP2 ADD CALLDATALOAD SWAP8 POP PUSH1 0xC0 DUP2 ADD CALLDATALOAD SWAP7 POP PUSH1 0xE0 ADD CALLDATALOAD SWAP5 POP SWAP3 POP POP POP JUMP JUMPDEST PUSH0 PUSH0 PUSH1 0x40 DUP4 DUP6 SUB SLT ISZERO PUSH2 0x2478 JUMPI PUSH0 PUSH0 REVERT JUMPDEST PUSH2 0x2481 DUP4 PUSH2 0x2244 JUMP JUMPDEST SWAP2 POP PUSH1 0x20 DUP4 ADD CALLDATALOAD PUSH8 0xFFFFFFFFFFFFFFFF DUP2 GT ISZERO PUSH2 0x249C JUMPI PUSH0 PUSH0 REVERT JUMPDEST DUP4 ADD PUSH1 0x1F DUP2 ADD DUP6 SGT PUSH2 0x24AC JUMPI PUSH0 PUSH0 REVERT JUMPDEST DUP1 CALLDATALOAD PUSH8 0xFFFFFFFFFFFFFFFF DUP2 GT ISZERO PUSH2 0x24C6 JUMPI PUSH2 0x24C6 PUSH2 0x22F3 JUMP JUMPDEST PUSH2 0x24D9 PUSH1 0x1F DUP3 ADD PUSH1 0x1F NOT AND PUSH1 0x20 ADD PUSH2 0x2307 JUMP JUMPDEST DUP2 DUP2 MSTORE DUP7 PUSH1 0x20 DUP4 DUP6 ADD ADD GT ISZERO PUSH2 0x24ED JUMPI PUSH0 PUSH0 REVERT JUMPDEST DUP2 PUSH1 0x20 DUP5 ADD PUSH1 0x20 DUP4 ADD CALLDATACOPY PUSH0 PUSH1 0x20 DUP4 DUP4 ADD ADD MSTORE DUP1 SWAP4 POP POP POP POP SWAP3 POP SWAP3 SWAP1 POP JUMP JUMPDEST PUSH0 DUP2 MLOAD DUP1 DUP5 MSTORE DUP1 PUSH1 0x20 DUP5 ADD PUSH1 0x20 DUP7 ADD MCOPY PUSH0 PUSH1 0x20 DUP3 DUP7 ADD ADD MSTORE PUSH1 0x20 PUSH1 0x1F NOT PUSH1 0x1F DUP4 ADD AND DUP6 ADD ADD SWAP2 POP POP SWAP3 SWAP2 POP POP JUMP JUMPDEST PUSH1 0x20 DUP2 MSTORE PUSH0 PUSH2 0x216C PUSH1 0x20 DUP4 ADD DUP5 PUSH2 0x250C JUMP JUMPDEST PUSH1 0x20 DUP1 DUP3 MSTORE DUP3 MLOAD DUP3 DUP3 ADD DUP2 SWAP1 MSTORE PUSH0 SWAP2 DUP5 ADD SWAP1 PUSH1 0x40 DUP5 ADD SWAP1 DUP4 JUMPDEST DUP2 DUP2 LT ISZERO PUSH2 0x258C JUMPI DUP4 MLOAD PUSH1 0x1 PUSH1 0x1 PUSH1 0xA0 SHL SUB AND DUP4 MSTORE PUSH1 0x20 SWAP4 DUP5 ADD SWAP4 SWAP1 SWAP3 ADD SWAP2 PUSH1 0x1 ADD PUSH2 0x2565 JUMP JUMPDEST POP SWAP1 SWAP6 SWAP5 POP POP POP POP POP JUMP JUMPDEST PUSH0 PUSH1 0x20 DUP3 DUP5 SUB SLT ISZERO PUSH2 0x25A7 JUMPI PUSH0 PUSH0 REVERT JUMPDEST PUSH2 0x216C DUP3 PUSH2 0x2244 JUMP JUMPDEST PUSH4 0x4E487B71 PUSH1 0xE0 SHL PUSH0 MSTORE PUSH1 0x11 PUSH1 0x4 MSTORE PUSH1 0x24 PUSH0 REVERT JUMPDEST DUP2 DUP2 SUB DUP2 DUP2 GT ISZERO PUSH2 0x86A JUMPI PUSH2 0x86A PUSH2 0x25B0 JUMP JUMPDEST PUSH0 PUSH1 0x20 DUP3 DUP5 SUB SLT ISZERO PUSH2 0x25E7 JUMPI PUSH0 PUSH0 REVERT JUMPDEST DUP2 MLOAD DUP1 ISZERO ISZERO DUP2 EQ PUSH2 0x216C JUMPI PUSH0 PUSH0 REVERT JUMPDEST PUSH0 PUSH1 0x1 DUP3 ADD PUSH2 0x2607 JUMPI PUSH2 0x2607 PUSH2 0x25B0 JUMP JUMPDEST POP PUSH1 0x1 ADD SWAP1 JUMP JUMPDEST DUP1 DUP3 MUL DUP2 ISZERO DUP3 DUP3 DIV DUP5 EQ OR PUSH2 0x86A JUMPI PUSH2 0x86A PUSH2 0x25B0 JUMP JUMPDEST PUSH1 0x20 DUP2 MSTORE DUP2 MLOAD PUSH1 0x20 DUP3 ADD MSTORE PUSH1 0x20 DUP3 ADD MLOAD PUSH1 0x40 DUP3 ADD MSTORE PUSH2 0xFFFF PUSH1 0x40 DUP4 ADD MLOAD AND PUSH1 0x60 DUP3 ADD MSTORE PUSH4 0xFFFFFFFF PUSH1 0x60 DUP4 ADD MLOAD AND PUSH1 0x80 DUP3 ADD MSTORE PUSH4 0xFFFFFFFF PUSH1 0x80 DUP4 ADD MLOAD AND PUSH1 0xA0 DUP3 ADD MSTORE PUSH0 PUSH1 0xA0 DUP4 ADD MLOAD PUSH1 0xC0 DUP1 DUP5 ADD MSTORE PUSH2 0x2681 PUSH1 0xE0 DUP5 ADD DUP3 PUSH2 0x250C JUMP JUMPDEST SWAP5 SWAP4 POP POP POP POP JUMP JUMPDEST PUSH0 PUSH1 0x20 DUP3 DUP5 SUB SLT ISZERO PUSH2 0x2699 JUMPI PUSH0 PUSH0 REVERT JUMPDEST POP MLOAD SWAP2 SWAP1 POP JUMP JUMPDEST PUSH4 0x4E487B71 PUSH1 0xE0 SHL PUSH0 MSTORE PUSH1 0x32 PUSH1 0x4 MSTORE PUSH1 0x24 PUSH0 REVERT JUMPDEST PUSH0 DUP3 PUSH2 0x26CE JUMPI PUSH4 0x4E487B71 PUSH1 0xE0 SHL PUSH0 MSTORE PUSH1 0x12 PUSH1 0x4 MSTORE PUSH1 0x24 PUSH0 REVERT JUMPDEST POP MOD SWAP1 JUMP JUMPDEST PUSH0 DUP3 MLOAD DUP1 PUSH1 0x20 DUP6 ADD DUP5 MCOPY PUSH0 SWAP3 ADD SWAP2 DUP3 MSTORE POP SWAP2 SWAP1 POP JUMP INVALID CALLDATASIZE ADDMOD SWAP5 LOG1 EXTCODESIZE LOG1 LOG3 0x21 MOD PUSH8 0xC828492DB98DCA3E KECCAK256 PUSH23 0xCC3735A920A3CA505D382BBCA26469706673582212204E 0x27 DATALOADN 0x4E14 0x27 PC 0xC8 ORIGIN PUSH10 0x9F25061CB89277CAA8A4 PUSH31 0xB55B3067EB7331CBF654CB64736F6C634300081E0033000000000000000000 "
				},
				"gasEstimates": {
					"creation": {
						"codeDepositCost": "2009400",
						"executionCost": "infinite",
						"totalCost": "infinite"
					},
					"external": {
						"UPGRADE_INTERFACE_VERSION()": "infinite",
						"callbackGasLimit()": "2358",
						"cancelLottery(uint256)": "32154",
						"claimPrize(uint256)": "infinite",
						"claimRefund(uint256)": "infinite",
						"clearLotteryData(uint256)": "infinite",
						"createLottery(address,uint256,uint256,uint256,uint256,uint256,uint256,uint256)": "233568",
						"drawWinner(uint256)": "infinite",
						"enterLottery(uint256)": "infinite",
						"getEntryCount(uint256,address)": "2711",
						"getParticipants(uint256)": "infinite",
						"hasUserClaimed(uint256,address)": "2727",
						"hasUserRefunded(uint256,address)": "2733",
						"hasUserVotedCancel(uint256,address)": "2757",
						"initialize(address,bytes32,uint256,address,address)": "infinite",
						"investmentWallet()": "2380",
						"keyHash()": "2384",
						"lotteries(uint256)": "24010",
						"lotteryCounter()": "2383",
						"migrateToLottery(uint256,uint256)": "infinite",
						"numWords()": "2368",
						"owner()": "2441",
						"profitWallet()": "2448",
						"proxiableUUID()": "infinite",
						"rawFulfillRandomWords(uint256,uint256[])": "infinite",
						"renounceOwnership()": "infinite",
						"requestConfirmations()": "2434",
						"requestToLottery(uint256)": "2503",
						"subscriptionId()": "2385",
						"testFulfillRandomWords(uint256,uint256[])": "infinite",
						"transferOwnership(address)": "28497",
						"upgradeToAndCall(address,bytes)": "infinite",
						"voteCancel(uint256)": "infinite",
						"vrfCoordinator()": "2381"
					},
					"internal": {
						"_authorizeUpgrade(address)": "infinite",
						"fulfillRandomWords(uint256,uint256[] memory)": "infinite"
					}
				},
				"methodIdentifiers": {
					"UPGRADE_INTERFACE_VERSION()": "ad3cb1cc",
					"callbackGasLimit()": "24f74697",
					"cancelLottery(uint256)": "4538f297",
					"claimPrize(uint256)": "d7098154",
					"claimRefund(uint256)": "5b7baf64",
					"clearLotteryData(uint256)": "82f9d0fb",
					"createLottery(address,uint256,uint256,uint256,uint256,uint256,uint256,uint256)": "4311da37",
					"drawWinner(uint256)": "60b2a56a",
					"enterLottery(uint256)": "3fd43098",
					"getEntryCount(uint256,address)": "a49a75a5",
					"getParticipants(uint256)": "c1e3bd3e",
					"hasUserClaimed(uint256,address)": "07c7a72d",
					"hasUserRefunded(uint256,address)": "c4cd639f",
					"hasUserVotedCancel(uint256,address)": "3fe6e01e",
					"initialize(address,bytes32,uint256,address,address)": "0af5a263",
					"investmentWallet()": "b6fa37bc",
					"keyHash()": "61728f39",
					"lotteries(uint256)": "1398e076",
					"lotteryCounter()": "4a4a6b4f",
					"migrateToLottery(uint256,uint256)": "3893f9d5",
					"numWords()": "7ccfd7fc",
					"owner()": "8da5cb5b",
					"profitWallet()": "2301d775",
					"proxiableUUID()": "52d1902d",
					"rawFulfillRandomWords(uint256,uint256[])": "1fe543e3",
					"renounceOwnership()": "715018a6",
					"requestConfirmations()": "b0fb162f",
					"requestToLottery(uint256)": "15c6e123",
					"subscriptionId()": "09c1ba2e",
					"testFulfillRandomWords(uint256,uint256[])": "02c4d72b",
					"transferOwnership(address)": "f2fde38b",
					"upgradeToAndCall(address,bytes)": "4f1ef286",
					"voteCancel(uint256)": "826d9873",
					"vrfCoordinator()": "a3e56fa8"
				}
			},
			"storageLayout": {
				"storage": [
					{
						"astId": 1185,
						"contract": "contracts/StemPayLotteryManager.sol:StemPayLotteryManager",
						"label": "_status",
						"offset": 0,
						"slot": "0",
						"type": "t_uint256"
					},
					{
						"astId": 1994,
						"contract": "contracts/StemPayLotteryManager.sol:StemPayLotteryManager",
						"label": "vrfCoordinator",
						"offset": 0,
						"slot": "1",
						"type": "t_address"
					},
					{
						"astId": 2102,
						"contract": "contracts/StemPayLotteryManager.sol:StemPayLotteryManager",
						"label": "lotteries",
						"offset": 0,
						"slot": "2",
						"type": "t_mapping(t_uint256,t_struct(Lottery)2097_storage)"
					},
					{
						"astId": 2104,
						"contract": "contracts/StemPayLotteryManager.sol:StemPayLotteryManager",
						"label": "lotteryCounter",
						"offset": 0,
						"slot": "3",
						"type": "t_uint256"
					},
					{
						"astId": 2106,
						"contract": "contracts/StemPayLotteryManager.sol:StemPayLotteryManager",
						"label": "investmentWallet",
						"offset": 0,
						"slot": "4",
						"type": "t_address"
					},
					{
						"astId": 2108,
						"contract": "contracts/StemPayLotteryManager.sol:StemPayLotteryManager",
						"label": "profitWallet",
						"offset": 0,
						"slot": "5",
						"type": "t_address"
					},
					{
						"astId": 2110,
						"contract": "contracts/StemPayLotteryManager.sol:StemPayLotteryManager",
						"label": "keyHash",
						"offset": 0,
						"slot": "6",
						"type": "t_bytes32"
					},
					{
						"astId": 2112,
						"contract": "contracts/StemPayLotteryManager.sol:StemPayLotteryManager",
						"label": "callbackGasLimit",
						"offset": 0,
						"slot": "7",
						"type": "t_uint32"
					},
					{
						"astId": 2114,
						"contract": "contracts/StemPayLotteryManager.sol:StemPayLotteryManager",
						"label": "requestConfirmations",
						"offset": 4,
						"slot": "7",
						"type": "t_uint16"
					},
					{
						"astId": 2116,
						"contract": "contracts/StemPayLotteryManager.sol:StemPayLotteryManager",
						"label": "numWords",
						"offset": 6,
						"slot": "7",
						"type": "t_uint32"
					},
					{
						"astId": 2118,
						"contract": "contracts/StemPayLotteryManager.sol:StemPayLotteryManager",
						"label": "subscriptionId",
						"offset": 0,
						"slot": "8",
						"type": "t_uint256"
					},
					{
						"astId": 2120,
						"contract": "contracts/StemPayLotteryManager.sol:StemPayLotteryManager",
						"label": "vrfCoordinator",
						"offset": 0,
						"slot": "9",
						"type": "t_address"
					},
					{
						"astId": 2124,
						"contract": "contracts/StemPayLotteryManager.sol:StemPayLotteryManager",
						"label": "requestToLottery",
						"offset": 0,
						"slot": "10",
						"type": "t_mapping(t_uint256,t_uint256)"
					}
				],
				"types": {
					"t_address": {
						"encoding": "inplace",
						"label": "address",
						"numberOfBytes": "20"
					},
					"t_array(t_address)dyn_storage": {
						"base": "t_address",
						"encoding": "dynamic_array",
						"label": "address[]",
						"numberOfBytes": "32"
					},
					"t_bool": {
						"encoding": "inplace",
						"label": "bool",
						"numberOfBytes": "1"
					},
					"t_bytes32": {
						"encoding": "inplace",
						"label": "bytes32",
						"numberOfBytes": "32"
					},
					"t_mapping(t_address,t_bool)": {
						"encoding": "mapping",
						"key": "t_address",
						"label": "mapping(address => bool)",
						"numberOfBytes": "32",
						"value": "t_bool"
					},
					"t_mapping(t_address,t_uint256)": {
						"encoding": "mapping",
						"key": "t_address",
						"label": "mapping(address => uint256)",
						"numberOfBytes": "32",
						"value": "t_uint256"
					},
					"t_mapping(t_uint256,t_struct(Lottery)2097_storage)": {
						"encoding": "mapping",
						"key": "t_uint256",
						"label": "mapping(uint256 => struct StemPayLotteryManager.Lottery)",
						"numberOfBytes": "32",
						"value": "t_struct(Lottery)2097_storage"
					},
					"t_mapping(t_uint256,t_uint256)": {
						"encoding": "mapping",
						"key": "t_uint256",
						"label": "mapping(uint256 => uint256)",
						"numberOfBytes": "32",
						"value": "t_uint256"
					},
					"t_struct(Lottery)2097_storage": {
						"encoding": "inplace",
						"label": "struct StemPayLotteryManager.Lottery",
						"members": [
							{
								"astId": 2053,
								"contract": "contracts/StemPayLotteryManager.sol:StemPayLotteryManager",
								"label": "tokenAddress",
								"offset": 0,
								"slot": "0",
								"type": "t_address"
							},
							{
								"astId": 2055,
								"contract": "contracts/StemPayLotteryManager.sol:StemPayLotteryManager",
								"label": "participationFee",
								"offset": 0,
								"slot": "1",
								"type": "t_uint256"
							},
							{
								"astId": 2057,
								"contract": "contracts/StemPayLotteryManager.sol:StemPayLotteryManager",
								"label": "refundableAmount",
								"offset": 0,
								"slot": "2",
								"type": "t_uint256"
							},
							{
								"astId": 2059,
								"contract": "contracts/StemPayLotteryManager.sol:StemPayLotteryManager",
								"label": "maxParticipants",
								"offset": 0,
								"slot": "3",
								"type": "t_uint256"
							},
							{
								"astId": 2061,
								"contract": "contracts/StemPayLotteryManager.sol:StemPayLotteryManager",
								"label": "drawTime",
								"offset": 0,
								"slot": "4",
								"type": "t_uint256"
							},
							{
								"astId": 2063,
								"contract": "contracts/StemPayLotteryManager.sol:StemPayLotteryManager",
								"label": "prizeAmount",
								"offset": 0,
								"slot": "5",
								"type": "t_uint256"
							},
							{
								"astId": 2065,
								"contract": "contracts/StemPayLotteryManager.sol:StemPayLotteryManager",
								"label": "feeToInvestment",
								"offset": 0,
								"slot": "6",
								"type": "t_uint256"
							},
							{
								"astId": 2067,
								"contract": "contracts/StemPayLotteryManager.sol:StemPayLotteryManager",
								"label": "feeToProfit",
								"offset": 0,
								"slot": "7",
								"type": "t_uint256"
							},
							{
								"astId": 2069,
								"contract": "contracts/StemPayLotteryManager.sol:StemPayLotteryManager",
								"label": "isActive",
								"offset": 0,
								"slot": "8",
								"type": "t_bool"
							},
							{
								"astId": 2071,
								"contract": "contracts/StemPayLotteryManager.sol:StemPayLotteryManager",
								"label": "isDrawn",
								"offset": 1,
								"slot": "8",
								"type": "t_bool"
							},
							{
								"astId": 2073,
								"contract": "contracts/StemPayLotteryManager.sol:StemPayLotteryManager",
								"label": "isCancelled",
								"offset": 2,
								"slot": "8",
								"type": "t_bool"
							},
							{
								"astId": 2076,
								"contract": "contracts/StemPayLotteryManager.sol:StemPayLotteryManager",
								"label": "participants",
								"offset": 0,
								"slot": "9",
								"type": "t_array(t_address)dyn_storage"
							},
							{
								"astId": 2078,
								"contract": "contracts/StemPayLotteryManager.sol:StemPayLotteryManager",
								"label": "winner",
								"offset": 0,
								"slot": "10",
								"type": "t_address"
							},
							{
								"astId": 2080,
								"contract": "contracts/StemPayLotteryManager.sol:StemPayLotteryManager",
								"label": "voteCount",
								"offset": 0,
								"slot": "11",
								"type": "t_uint256"
							},
							{
								"astId": 2084,
								"contract": "contracts/StemPayLotteryManager.sol:StemPayLotteryManager",
								"label": "entryCount",
								"offset": 0,
								"slot": "12",
								"type": "t_mapping(t_address,t_uint256)"
							},
							{
								"astId": 2088,
								"contract": "contracts/StemPayLotteryManager.sol:StemPayLotteryManager",
								"label": "hasClaimed",
								"offset": 0,
								"slot": "13",
								"type": "t_mapping(t_address,t_bool)"
							},
							{
								"astId": 2092,
								"contract": "contracts/StemPayLotteryManager.sol:StemPayLotteryManager",
								"label": "hasRefunded",
								"offset": 0,
								"slot": "14",
								"type": "t_mapping(t_address,t_bool)"
							},
							{
								"astId": 2096,
								"contract": "contracts/StemPayLotteryManager.sol:StemPayLotteryManager",
								"label": "hasVotedCancel",
								"offset": 0,
								"slot": "15",
								"type": "t_mapping(t_address,t_bool)"
							}
						],
						"numberOfBytes": "512"
					},
					"t_uint16": {
						"encoding": "inplace",
						"label": "uint16",
						"numberOfBytes": "2"
					},
					"t_uint256": {
						"encoding": "inplace",
						"label": "uint256",
						"numberOfBytes": "32"
					},
					"t_uint32": {
						"encoding": "inplace",
						"label": "uint32",
						"numberOfBytes": "4"
					}
				}
			},
			"userdoc": {
				"kind": "user",
				"methods": {},
				"version": 1
			}
		}
	}
}