{
	"contracts/StemPayLotteryManager.sol": {
		"StemPayLotteryManager": {
			"abi": [
				{
					"inputs": [
						{
							"internalType": "address",
							"name": "target",
							"type": "address"
						}
					],
					"name": "AddressEmptyCode",
					"type": "error"
				},
				{
					"inputs": [
						{
							"internalType": "address",
							"name": "implementation",
							"type": "address"
						}
					],
					"name": "ERC1967InvalidImplementation",
					"type": "error"
				},
				{
					"inputs": [],
					"name": "ERC1967NonPayable",
					"type": "error"
				},
				{
					"inputs": [],
					"name": "FailedCall",
					"type": "error"
				},
				{
					"inputs": [],
					"name": "InvalidInitialization",
					"type": "error"
				},
				{
					"inputs": [],
					"name": "NotInitializing",
					"type": "error"
				},
				{
					"inputs": [
						{
							"internalType": "address",
							"name": "have",
							"type": "address"
						},
						{
							"internalType": "address",
							"name": "want",
							"type": "address"
						}
					],
					"name": "OnlyCoordinatorCanFulfill",
					"type": "error"
				},
				{
					"inputs": [
						{
							"internalType": "address",
							"name": "owner",
							"type": "address"
						}
					],
					"name": "OwnableInvalidOwner",
					"type": "error"
				},
				{
					"inputs": [
						{
							"internalType": "address",
							"name": "account",
							"type": "address"
						}
					],
					"name": "OwnableUnauthorizedAccount",
					"type": "error"
				},
				{
					"inputs": [],
					"name": "UUPSUnauthorizedCallContext",
					"type": "error"
				},
				{
					"inputs": [
						{
							"internalType": "bytes32",
							"name": "slot",
							"type": "bytes32"
						}
					],
					"name": "UUPSUnsupportedProxiableUUID",
					"type": "error"
				},
				{
					"anonymous": false,
					"inputs": [
						{
							"indexed": false,
							"internalType": "uint256",
							"name": "lotteryId",
							"type": "uint256"
						},
						{
							"indexed": false,
							"internalType": "address",
							"name": "user",
							"type": "address"
						}
					],
					"name": "EnteredLottery",
					"type": "event"
				},
				{
					"anonymous": false,
					"inputs": [
						{
							"indexed": false,
							"internalType": "uint64",
							"name": "version",
							"type": "uint64"
						}
					],
					"name": "Initialized",
					"type": "event"
				},
				{
					"anonymous": false,
					"inputs": [
						{
							"indexed": false,
							"internalType": "uint256",
							"name": "lotteryId",
							"type": "uint256"
						}
					],
					"name": "LotteryCancelled",
					"type": "event"
				},
				{
					"anonymous": false,
					"inputs": [
						{
							"indexed": false,
							"internalType": "uint256",
							"name": "lotteryId",
							"type": "uint256"
						}
					],
					"name": "LotteryCreated",
					"type": "event"
				},
				{
					"anonymous": false,
					"inputs": [
						{
							"indexed": false,
							"internalType": "uint256",
							"name": "lotteryId",
							"type": "uint256"
						},
						{
							"indexed": false,
							"internalType": "uint256",
							"name": "requestId",
							"type": "uint256"
						}
					],
					"name": "LotteryDrawRequested",
					"type": "event"
				},
				{
					"anonymous": false,
					"inputs": [
						{
							"indexed": true,
							"internalType": "address",
							"name": "previousOwner",
							"type": "address"
						},
						{
							"indexed": true,
							"internalType": "address",
							"name": "newOwner",
							"type": "address"
						}
					],
					"name": "OwnershipTransferred",
					"type": "event"
				},
				{
					"anonymous": false,
					"inputs": [
						{
							"indexed": true,
							"internalType": "address",
							"name": "implementation",
							"type": "address"
						}
					],
					"name": "Upgraded",
					"type": "event"
				},
				{
					"anonymous": false,
					"inputs": [
						{
							"indexed": false,
							"internalType": "uint256",
							"name": "lotteryId",
							"type": "uint256"
						},
						{
							"indexed": false,
							"internalType": "address",
							"name": "winner",
							"type": "address"
						}
					],
					"name": "WinnerSelected",
					"type": "event"
				},
				{
					"inputs": [],
					"name": "UPGRADE_INTERFACE_VERSION",
					"outputs": [
						{
							"internalType": "string",
							"name": "",
							"type": "string"
						}
					],
					"stateMutability": "view",
					"type": "function"
				},
				{
					"inputs": [],
					"name": "callbackGasLimit",
					"outputs": [
						{
							"internalType": "uint32",
							"name": "",
							"type": "uint32"
						}
					],
					"stateMutability": "view",
					"type": "function"
				},
				{
					"inputs": [
						{
							"internalType": "uint256",
							"name": "_lotteryId",
							"type": "uint256"
						}
					],
					"name": "cancelLottery",
					"outputs": [],
					"stateMutability": "nonpayable",
					"type": "function"
				},
				{
					"inputs": [
						{
							"internalType": "uint256",
							"name": "_lotteryId",
							"type": "uint256"
						}
					],
					"name": "claimPrize",
					"outputs": [],
					"stateMutability": "nonpayable",
					"type": "function"
				},
				{
					"inputs": [
						{
							"internalType": "uint256",
							"name": "_lotteryId",
							"type": "uint256"
						}
					],
					"name": "claimRefund",
					"outputs": [],
					"stateMutability": "nonpayable",
					"type": "function"
				},
				{
					"inputs": [
						{
							"internalType": "uint256",
							"name": "_lotteryId",
							"type": "uint256"
						}
					],
					"name": "clearLotteryData",
					"outputs": [],
					"stateMutability": "nonpayable",
					"type": "function"
				},
				{
					"inputs": [
						{
							"internalType": "address",
							"name": "_tokenAddress",
							"type": "address"
						},
						{
							"internalType": "uint256",
							"name": "_participationFee",
							"type": "uint256"
						},
						{
							"internalType": "uint256",
							"name": "_refundableAmount",
							"type": "uint256"
						},
						{
							"internalType": "uint256",
							"name": "_maxParticipants",
							"type": "uint256"
						},
						{
							"internalType": "uint256",
							"name": "_drawTime",
							"type": "uint256"
						},
						{
							"internalType": "uint256",
							"name": "_prizeAmount",
							"type": "uint256"
						},
						{
							"internalType": "uint256",
							"name": "_feeToInvestment",
							"type": "uint256"
						},
						{
							"internalType": "uint256",
							"name": "_feeToProfit",
							"type": "uint256"
						}
					],
					"name": "createLottery",
					"outputs": [],
					"stateMutability": "nonpayable",
					"type": "function"
				},
				{
					"inputs": [
						{
							"internalType": "uint256",
							"name": "_lotteryId",
							"type": "uint256"
						}
					],
					"name": "drawWinner",
					"outputs": [],
					"stateMutability": "nonpayable",
					"type": "function"
				},
				{
					"inputs": [
						{
							"internalType": "uint256",
							"name": "_lotteryId",
							"type": "uint256"
						}
					],
					"name": "enterLottery",
					"outputs": [],
					"stateMutability": "nonpayable",
					"type": "function"
				},
				{
					"inputs": [
						{
							"internalType": "uint256",
							"name": "_lotteryId",
							"type": "uint256"
						}
					],
					"name": "getParticipants",
					"outputs": [
						{
							"internalType": "address[]",
							"name": "",
							"type": "address[]"
						}
					],
					"stateMutability": "view",
					"type": "function"
				},
				{
					"inputs": [
						{
							"internalType": "address",
							"name": "_vrfCoordinator",
							"type": "address"
						},
						{
							"internalType": "bytes32",
							"name": "_keyHash",
							"type": "bytes32"
						},
						{
							"internalType": "uint256",
							"name": "_subId",
							"type": "uint256"
						},
						{
							"internalType": "address",
							"name": "_investmentWallet",
							"type": "address"
						},
						{
							"internalType": "address",
							"name": "_profitWallet",
							"type": "address"
						}
					],
					"name": "initialize",
					"outputs": [],
					"stateMutability": "nonpayable",
					"type": "function"
				},
				{
					"inputs": [],
					"name": "investmentWallet",
					"outputs": [
						{
							"internalType": "address",
							"name": "",
							"type": "address"
						}
					],
					"stateMutability": "view",
					"type": "function"
				},
				{
					"inputs": [],
					"name": "keyHash",
					"outputs": [
						{
							"internalType": "bytes32",
							"name": "",
							"type": "bytes32"
						}
					],
					"stateMutability": "view",
					"type": "function"
				},
				{
					"inputs": [
						{
							"internalType": "uint256",
							"name": "",
							"type": "uint256"
						}
					],
					"name": "lotteries",
					"outputs": [
						{
							"internalType": "address",
							"name": "tokenAddress",
							"type": "address"
						},
						{
							"internalType": "uint256",
							"name": "participationFee",
							"type": "uint256"
						},
						{
							"internalType": "uint256",
							"name": "refundableAmount",
							"type": "uint256"
						},
						{
							"internalType": "uint256",
							"name": "maxParticipants",
							"type": "uint256"
						},
						{
							"internalType": "uint256",
							"name": "drawTime",
							"type": "uint256"
						},
						{
							"internalType": "uint256",
							"name": "prizeAmount",
							"type": "uint256"
						},
						{
							"internalType": "uint256",
							"name": "feeToInvestment",
							"type": "uint256"
						},
						{
							"internalType": "uint256",
							"name": "feeToProfit",
							"type": "uint256"
						},
						{
							"internalType": "bool",
							"name": "isActive",
							"type": "bool"
						},
						{
							"internalType": "bool",
							"name": "isDrawn",
							"type": "bool"
						},
						{
							"internalType": "bool",
							"name": "isCancelled",
							"type": "bool"
						},
						{
							"internalType": "address",
							"name": "winner",
							"type": "address"
						},
						{
							"internalType": "uint256",
							"name": "voteCount",
							"type": "uint256"
						}
					],
					"stateMutability": "view",
					"type": "function"
				},
				{
					"inputs": [],
					"name": "lotteryCounter",
					"outputs": [
						{
							"internalType": "uint256",
							"name": "",
							"type": "uint256"
						}
					],
					"stateMutability": "view",
					"type": "function"
				},
				{
					"inputs": [
						{
							"internalType": "uint256",
							"name": "fromId",
							"type": "uint256"
						},
						{
							"internalType": "uint256",
							"name": "toId",
							"type": "uint256"
						}
					],
					"name": "migrateToLottery",
					"outputs": [],
					"stateMutability": "nonpayable",
					"type": "function"
				},
				{
					"inputs": [],
					"name": "numWords",
					"outputs": [
						{
							"internalType": "uint32",
							"name": "",
							"type": "uint32"
						}
					],
					"stateMutability": "view",
					"type": "function"
				},
				{
					"inputs": [],
					"name": "owner",
					"outputs": [
						{
							"internalType": "address",
							"name": "",
							"type": "address"
						}
					],
					"stateMutability": "view",
					"type": "function"
				},
				{
					"inputs": [],
					"name": "profitWallet",
					"outputs": [
						{
							"internalType": "address",
							"name": "",
							"type": "address"
						}
					],
					"stateMutability": "view",
					"type": "function"
				},
				{
					"inputs": [],
					"name": "proxiableUUID",
					"outputs": [
						{
							"internalType": "bytes32",
							"name": "",
							"type": "bytes32"
						}
					],
					"stateMutability": "view",
					"type": "function"
				},
				{
					"inputs": [
						{
							"internalType": "uint256",
							"name": "requestId",
							"type": "uint256"
						},
						{
							"internalType": "uint256[]",
							"name": "randomWords",
							"type": "uint256[]"
						}
					],
					"name": "rawFulfillRandomWords",
					"outputs": [],
					"stateMutability": "nonpayable",
					"type": "function"
				},
				{
					"inputs": [],
					"name": "renounceOwnership",
					"outputs": [],
					"stateMutability": "nonpayable",
					"type": "function"
				},
				{
					"inputs": [],
					"name": "requestConfirmations",
					"outputs": [
						{
							"internalType": "uint16",
							"name": "",
							"type": "uint16"
						}
					],
					"stateMutability": "view",
					"type": "function"
				},
				{
					"inputs": [
						{
							"internalType": "uint256",
							"name": "",
							"type": "uint256"
						}
					],
					"name": "requestToLottery",
					"outputs": [
						{
							"internalType": "uint256",
							"name": "",
							"type": "uint256"
						}
					],
					"stateMutability": "view",
					"type": "function"
				},
				{
					"inputs": [],
					"name": "subscriptionId",
					"outputs": [
						{
							"internalType": "uint256",
							"name": "",
							"type": "uint256"
						}
					],
					"stateMutability": "view",
					"type": "function"
				},
				{
					"inputs": [
						{
							"internalType": "address",
							"name": "newOwner",
							"type": "address"
						}
					],
					"name": "transferOwnership",
					"outputs": [],
					"stateMutability": "nonpayable",
					"type": "function"
				},
				{
					"inputs": [
						{
							"internalType": "address",
							"name": "newImplementation",
							"type": "address"
						},
						{
							"internalType": "bytes",
							"name": "data",
							"type": "bytes"
						}
					],
					"name": "upgradeToAndCall",
					"outputs": [],
					"stateMutability": "payable",
					"type": "function"
				},
				{
					"inputs": [
						{
							"internalType": "uint256",
							"name": "_lotteryId",
							"type": "uint256"
						}
					],
					"name": "voteCancel",
					"outputs": [],
					"stateMutability": "nonpayable",
					"type": "function"
				},
				{
					"inputs": [],
					"name": "vrfCoordinator",
					"outputs": [
						{
							"internalType": "address",
							"name": "",
							"type": "address"
						}
					],
					"stateMutability": "view",
					"type": "function"
				}
			],
			"devdoc": {
				"errors": {
					"AddressEmptyCode(address)": [
						{
							"details": "There's no code at `target` (it is not a contract)."
						}
					],
					"ERC1967InvalidImplementation(address)": [
						{
							"details": "The `implementation` of the proxy is invalid."
						}
					],
					"ERC1967NonPayable()": [
						{
							"details": "An upgrade function sees `msg.value > 0` that may be lost."
						}
					],
					"FailedCall()": [
						{
							"details": "A call to an address target failed. The target may have reverted."
						}
					],
					"InvalidInitialization()": [
						{
							"details": "The contract is already initialized."
						}
					],
					"NotInitializing()": [
						{
							"details": "The contract is not initializing."
						}
					],
					"OwnableInvalidOwner(address)": [
						{
							"details": "The owner is not a valid owner account. (eg. `address(0)`)"
						}
					],
					"OwnableUnauthorizedAccount(address)": [
						{
							"details": "The caller account is not authorized to perform an operation."
						}
					],
					"UUPSUnauthorizedCallContext()": [
						{
							"details": "The call is from an unauthorized context."
						}
					],
					"UUPSUnsupportedProxiableUUID(bytes32)": [
						{
							"details": "The storage `slot` is unsupported as a UUID."
						}
					]
				},
				"events": {
					"Initialized(uint64)": {
						"details": "Triggered when the contract has been initialized or reinitialized."
					},
					"Upgraded(address)": {
						"details": "Emitted when the implementation is upgraded."
					}
				},
				"kind": "dev",
				"methods": {
					"owner()": {
						"details": "Returns the address of the current owner."
					},
					"proxiableUUID()": {
						"details": "Implementation of the ERC-1822 {proxiableUUID} function. This returns the storage slot used by the implementation. It is used to validate the implementation's compatibility when performing an upgrade. IMPORTANT: A proxy pointing at a proxiable contract should not be considered proxiable itself, because this risks bricking a proxy that upgrades to it, by delegating to itself until out of gas. Thus it is critical that this function revert if invoked through a proxy. This is guaranteed by the `notDelegated` modifier."
					},
					"renounceOwnership()": {
						"details": "Leaves the contract without owner. It will not be possible to call `onlyOwner` functions. Can only be called by the current owner. NOTE: Renouncing ownership will leave the contract without an owner, thereby disabling any functionality that is only available to the owner."
					},
					"transferOwnership(address)": {
						"details": "Transfers ownership of the contract to a new account (`newOwner`). Can only be called by the current owner."
					},
					"upgradeToAndCall(address,bytes)": {
						"custom:oz-upgrades-unsafe-allow-reachable": "delegatecall",
						"details": "Upgrade the implementation of the proxy to `newImplementation`, and subsequently execute the function call encoded in `data`. Calls {_authorizeUpgrade}. Emits an {Upgraded} event."
					}
				},
				"version": 1
			},
			"evm": {
				"assembly": "    /* \"contracts/StemPayLotteryManager.sol\":1202:9269  contract StemPayLotteryManager is... */\n  mstore(0x40, 0xa0)\n    /* \"@openzeppelin/contracts-upgradeable/proxy/utils/UUPSUpgradeable.sol\":1171:1175  this */\n  address\n    /* \"@openzeppelin/contracts-upgradeable/proxy/utils/UUPSUpgradeable.sol\":1128:1176  address private immutable __self = address(this) */\n  0x80\n  mstore\n    /* \"contracts/StemPayLotteryManager.sol\":1202:9269  contract StemPayLotteryManager is... */\n  callvalue\n  dup1\n  iszero\n  tag_1\n  jumpi\n  revert(0x00, 0x00)\ntag_1:\n  pop\n    /* \"@openzeppelin/contracts/security/ReentrancyGuard.sol\":1716:1717  1 */\n  0x01\n    /* \"@openzeppelin/contracts/security/ReentrancyGuard.sol\":1821:1828  _status */\n  0x00\n    /* \"@openzeppelin/contracts/security/ReentrancyGuard.sol\":1821:1843  _status = _NOT_ENTERED */\n  sstore\n    /* \"contracts/StemPayLotteryManager.sol\":1202:9269  contract StemPayLotteryManager is... */\n  mload(0x80)\n  codecopy(0x00, dataOffset(sub_0), dataSize(sub_0))\n  0x00\n  assignImmutable(\"0x7e11962f85eb7ceb5b38e296d507e5039b360e5ad6815220a68768366dc10fdd\")\n  return(0x00, dataSize(sub_0))\nstop\n\nsub_0: assembly {\n        /* \"contracts/StemPayLotteryManager.sol\":1202:9269  contract StemPayLotteryManager is... */\n      mstore(0x40, 0x80)\n      jumpi(tag_1, lt(calldatasize, 0x04))\n      shr(0xe0, calldataload(0x00))\n      dup1\n      0x5b7baf64\n      gt\n      tag_31\n      jumpi\n      dup1\n      0x8da5cb5b\n      gt\n      tag_32\n      jumpi\n      dup1\n      0xb6fa37bc\n      gt\n      tag_33\n      jumpi\n      dup1\n      0xb6fa37bc\n      eq\n      tag_27\n      jumpi\n      dup1\n      0xc1e3bd3e\n      eq\n      tag_28\n      jumpi\n      dup1\n      0xd7098154\n      eq\n      tag_29\n      jumpi\n      dup1\n      0xf2fde38b\n      eq\n      tag_30\n      jumpi\n      revert(0x00, 0x00)\n    tag_33:\n      dup1\n      0x8da5cb5b\n      eq\n      tag_23\n      jumpi\n      dup1\n      0xa3e56fa8\n      eq\n      tag_24\n      jumpi\n      dup1\n      0xad3cb1cc\n      eq\n      tag_25\n      jumpi\n      dup1\n      0xb0fb162f\n      eq\n      tag_26\n      jumpi\n      revert(0x00, 0x00)\n    tag_32:\n      dup1\n      0x715018a6\n      gt\n      tag_34\n      jumpi\n      dup1\n      0x715018a6\n      eq\n      tag_19\n      jumpi\n      dup1\n      0x7ccfd7fc\n      eq\n      tag_20\n      jumpi\n      dup1\n      0x826d9873\n      eq\n      tag_21\n      jumpi\n      dup1\n      0x82f9d0fb\n      eq\n      tag_22\n      jumpi\n      revert(0x00, 0x00)\n    tag_34:\n      dup1\n      0x5b7baf64\n      eq\n      tag_16\n      jumpi\n      dup1\n      0x60b2a56a\n      eq\n      tag_17\n      jumpi\n      dup1\n      0x61728f39\n      eq\n      tag_18\n      jumpi\n      revert(0x00, 0x00)\n    tag_31:\n      dup1\n      0x3893f9d5\n      gt\n      tag_35\n      jumpi\n      dup1\n      0x4538f297\n      gt\n      tag_36\n      jumpi\n      dup1\n      0x4538f297\n      eq\n      tag_12\n      jumpi\n      dup1\n      0x4a4a6b4f\n      eq\n      tag_13\n      jumpi\n      dup1\n      0x4f1ef286\n      eq\n      tag_14\n      jumpi\n      dup1\n      0x52d1902d\n      eq\n      tag_15\n      jumpi\n      revert(0x00, 0x00)\n    tag_36:\n      dup1\n      0x3893f9d5\n      eq\n      tag_9\n      jumpi\n      dup1\n      0x3fd43098\n      eq\n      tag_10\n      jumpi\n      dup1\n      0x4311da37\n      eq\n      tag_11\n      jumpi\n      revert(0x00, 0x00)\n    tag_35:\n      dup1\n      0x15c6e123\n      gt\n      tag_37\n      jumpi\n      dup1\n      0x15c6e123\n      eq\n      tag_5\n      jumpi\n      dup1\n      0x1fe543e3\n      eq\n      tag_6\n      jumpi\n      dup1\n      0x2301d775\n      eq\n      tag_7\n      jumpi\n      dup1\n      0x24f74697\n      eq\n      tag_8\n      jumpi\n      revert(0x00, 0x00)\n    tag_37:\n      dup1\n      0x09c1ba2e\n      eq\n      tag_2\n      jumpi\n      dup1\n      0x0af5a263\n      eq\n      tag_3\n      jumpi\n      dup1\n      0x1398e076\n      eq\n      tag_4\n      jumpi\n    tag_1:\n      revert(0x00, 0x00)\n        /* \"contracts/StemPayLotteryManager.sol\":2269:2298  uint256 public subscriptionId */\n    tag_2:\n      callvalue\n      dup1\n      iszero\n      tag_38\n      jumpi\n      revert(0x00, 0x00)\n    tag_38:\n      pop\n      tag_39\n      sload(0x08)\n      dup2\n      jump\n    tag_39:\n      mload(0x40)\n        /* \"#utility.yul\":160:185   */\n      swap1\n      dup2\n      mstore\n        /* \"#utility.yul\":148:150   */\n      0x20\n        /* \"#utility.yul\":133:151   */\n      add\n        /* \"contracts/StemPayLotteryManager.sol\":2269:2298  uint256 public subscriptionId */\n    tag_41:\n      mload(0x40)\n      dup1\n      swap2\n      sub\n      swap1\n      return\n        /* \"contracts/StemPayLotteryManager.sol\":2681:3299  function initialize(... */\n    tag_3:\n      callvalue\n      dup1\n      iszero\n      tag_43\n      jumpi\n      revert(0x00, 0x00)\n    tag_43:\n      pop\n      tag_44\n      tag_45\n      calldatasize\n      0x04\n      tag_46\n      jump\t// in\n    tag_45:\n      tag_47\n      jump\t// in\n    tag_44:\n      stop\n        /* \"contracts/StemPayLotteryManager.sol\":1980:2024  mapping(uint256 => Lottery) public lotteries */\n    tag_4:\n      callvalue\n      dup1\n      iszero\n      tag_48\n      jumpi\n      revert(0x00, 0x00)\n    tag_48:\n      pop\n      tag_49\n      tag_50\n      calldatasize\n      0x04\n      tag_51\n      jump\t// in\n    tag_50:\n      0x02\n      0x20\n      dup2\n      swap1\n      mstore\n      0x00\n      swap2\n      dup3\n      mstore\n      0x40\n      swap1\n      swap2\n      keccak256\n      dup1\n      sload\n      0x01\n      dup3\n      add\n      sload\n      swap3\n      dup3\n      add\n      sload\n      0x03\n      dup4\n      add\n      sload\n      0x04\n      dup5\n      add\n      sload\n      0x05\n      dup6\n      add\n      sload\n      0x06\n      dup7\n      add\n      sload\n      0x07\n      dup8\n      add\n      sload\n      0x08\n      dup9\n      add\n      sload\n      0x0a\n      dup10\n      add\n      sload\n      0x0b\n      swap1\n      swap10\n      add\n      sload\n      sub(shl(0xa0, 0x01), 0x01)\n      swap9\n      dup10\n      and\n      swap11\n      swap10\n      swap8\n      swap9\n      swap7\n      swap8\n      swap6\n      swap7\n      swap5\n      swap6\n      swap4\n      swap5\n      swap3\n      swap4\n      0xff\n      dup1\n      dup5\n      and\n      swap5\n      0x0100\n      dup6\n      div\n      dup3\n      and\n      swap5\n      0x010000\n      swap1\n      div\n      swap1\n      swap2\n      and\n      swap3\n      swap2\n      and\n      swap1\n      dup14\n      jump\n    tag_49:\n      0x40\n      dup1\n      mload\n      sub(shl(0xa0, 0x01), 0x01)\n        /* \"#utility.yul\":1723:1755   */\n      swap15\n      dup16\n      and\n        /* \"#utility.yul\":1705:1756   */\n      dup2\n      mstore\n        /* \"#utility.yul\":1787:1789   */\n      0x20\n        /* \"#utility.yul\":1772:1790   */\n      dup2\n      add\n        /* \"#utility.yul\":1765:1799   */\n      swap14\n      swap1\n      swap14\n      mstore\n        /* \"#utility.yul\":1815:1833   */\n      dup13\n      add\n        /* \"#utility.yul\":1808:1842   */\n      swap11\n      swap1\n      swap11\n      mstore\n        /* \"#utility.yul\":1873:1875   */\n      0x60\n        /* \"#utility.yul\":1858:1876   */\n      dup12\n      add\n        /* \"#utility.yul\":1851:1885   */\n      swap9\n      swap1\n      swap9\n      mstore\n        /* \"#utility.yul\":1916:1919   */\n      0x80\n        /* \"#utility.yul\":1901:1920   */\n      dup11\n      add\n        /* \"#utility.yul\":1894:1929   */\n      swap7\n      swap1\n      swap7\n      mstore\n        /* \"#utility.yul\":1743:1746   */\n      0xa0\n        /* \"#utility.yul\":1945:1964   */\n      dup10\n      add\n        /* \"#utility.yul\":1938:1973   */\n      swap5\n      swap1\n      swap5\n      mstore\n        /* \"#utility.yul\":2004:2007   */\n      0xc0\n        /* \"#utility.yul\":1989:2008   */\n      dup9\n      add\n        /* \"#utility.yul\":1982:2017   */\n      swap3\n      swap1\n      swap3\n      mstore\n        /* \"#utility.yul\":2048:2051   */\n      0xe0\n        /* \"#utility.yul\":2033:2052   */\n      dup8\n      add\n        /* \"#utility.yul\":2026:2061   */\n      mstore\n        /* \"#utility.yul\":2105:2119   */\n      iszero\n        /* \"#utility.yul\":2098:2120   */\n      iszero\n        /* \"#utility.yul\":2092:2095   */\n      0x0100\n        /* \"#utility.yul\":2077:2096   */\n      dup7\n      add\n        /* \"#utility.yul\":2070:2121   */\n      mstore\n        /* \"#utility.yul\":2165:2179   */\n      iszero\n        /* \"#utility.yul\":2158:2180   */\n      iszero\n        /* \"#utility.yul\":2152:2155   */\n      0x0120\n        /* \"#utility.yul\":2137:2156   */\n      dup6\n      add\n        /* \"#utility.yul\":2130:2181   */\n      mstore\n        /* \"#utility.yul\":2225:2240   */\n      iszero\n        /* \"#utility.yul\":2218:2241   */\n      iszero\n        /* \"#utility.yul\":2212:2215   */\n      0x0140\n        /* \"#utility.yul\":2197:2216   */\n      dup5\n      add\n        /* \"#utility.yul\":2190:2242   */\n      mstore\n        /* \"#utility.yul\":1194:1225   */\n      swap1\n      swap3\n      and\n        /* \"#utility.yul\":2294:2297   */\n      0x0160\n        /* \"#utility.yul\":2279:2298   */\n      dup3\n      add\n        /* \"#utility.yul\":1182:1226   */\n      mstore\n        /* \"#utility.yul\":2330:2333   */\n      0x0180\n        /* \"#utility.yul\":2315:2334   */\n      dup2\n      add\n        /* \"#utility.yul\":2308:2344   */\n      swap2\n      swap1\n      swap2\n      mstore\n        /* \"#utility.yul\":1692:1695   */\n      0x01a0\n        /* \"#utility.yul\":1677:1696   */\n      add\n        /* \"contracts/StemPayLotteryManager.sol\":1980:2024  mapping(uint256 => Lottery) public lotteries */\n      tag_41\n        /* \"#utility.yul\":1237:2350   */\n      jump\n        /* \"contracts/StemPayLotteryManager.sol\":2340:2391  mapping(uint256 => uint256) public requestToLottery */\n    tag_5:\n      callvalue\n      dup1\n      iszero\n      tag_55\n      jumpi\n      revert(0x00, 0x00)\n    tag_55:\n      pop\n      tag_39\n      tag_57\n      calldatasize\n      0x04\n      tag_51\n      jump\t// in\n    tag_57:\n      mstore(0x20, 0x0a)\n      0x00\n      swap1\n      dup2\n      mstore\n      0x40\n      swap1\n      keccak256\n      sload\n      dup2\n      jump\n        /* \"contracts/StemPayLotteryManager.sol\":922:1198  function rawFulfillRandomWords(uint256 requestId, uint256[] memory randomWords) external {... */\n    tag_6:\n      callvalue\n      dup1\n      iszero\n      tag_60\n      jumpi\n      revert(0x00, 0x00)\n    tag_60:\n      pop\n      tag_44\n      tag_62\n      calldatasize\n      0x04\n      tag_63\n      jump\t// in\n    tag_62:\n      tag_64\n      jump\t// in\n        /* \"contracts/StemPayLotteryManager.sol\":2103:2130  address public profitWallet */\n    tag_7:\n      callvalue\n      dup1\n      iszero\n      tag_65\n      jumpi\n      revert(0x00, 0x00)\n    tag_65:\n      pop\n      sload(0x05)\n      tag_66\n      swap1\n      sub(shl(0xa0, 0x01), 0x01)\n      and\n      dup2\n      jump\n    tag_66:\n      mload(0x40)\n      sub(shl(0xa0, 0x01), 0x01)\n        /* \"#utility.yul\":4046:4078   */\n      swap1\n      swap2\n      and\n        /* \"#utility.yul\":4028:4079   */\n      dup2\n      mstore\n        /* \"#utility.yul\":4016:4018   */\n      0x20\n        /* \"#utility.yul\":4001:4019   */\n      add\n        /* \"contracts/StemPayLotteryManager.sol\":2103:2130  address public profitWallet */\n      tag_41\n        /* \"#utility.yul\":3882:4085   */\n      jump\n        /* \"contracts/StemPayLotteryManager.sol\":2165:2195  uint32 public callbackGasLimit */\n    tag_8:\n      callvalue\n      dup1\n      iszero\n      tag_70\n      jumpi\n      revert(0x00, 0x00)\n    tag_70:\n      pop\n      sload(0x07)\n      tag_71\n      swap1\n      0xffffffff\n      and\n      dup2\n      jump\n    tag_71:\n      mload(0x40)\n        /* \"#utility.yul\":4264:4274   */\n      0xffffffff\n        /* \"#utility.yul\":4252:4275   */\n      swap1\n      swap2\n      and\n        /* \"#utility.yul\":4234:4276   */\n      dup2\n      mstore\n        /* \"#utility.yul\":4222:4224   */\n      0x20\n        /* \"#utility.yul\":4207:4225   */\n      add\n        /* \"contracts/StemPayLotteryManager.sol\":2165:2195  uint32 public callbackGasLimit */\n      tag_41\n        /* \"#utility.yul\":4090:4282   */\n      jump\n        /* \"contracts/StemPayLotteryManager.sol\":8371:9267  function migrateToLottery(uint256 fromId, uint256 toId) external nonReentrant {... */\n    tag_9:\n      callvalue\n      dup1\n      iszero\n      tag_75\n      jumpi\n      revert(0x00, 0x00)\n    tag_75:\n      pop\n      tag_44\n      tag_77\n      calldatasize\n      0x04\n      tag_78\n      jump\t// in\n    tag_77:\n      tag_79\n      jump\t// in\n        /* \"contracts/StemPayLotteryManager.sol\":4302:4860  function enterLottery(uint256 _lotteryId) external nonReentrant {... */\n    tag_10:\n      callvalue\n      dup1\n      iszero\n      tag_80\n      jumpi\n      revert(0x00, 0x00)\n    tag_80:\n      pop\n      tag_44\n      tag_82\n      calldatasize\n      0x04\n      tag_51\n      jump\t// in\n    tag_82:\n      tag_83\n      jump\t// in\n        /* \"contracts/StemPayLotteryManager.sol\":3377:4296  function createLottery(... */\n    tag_11:\n      callvalue\n      dup1\n      iszero\n      tag_84\n      jumpi\n      revert(0x00, 0x00)\n    tag_84:\n      pop\n      tag_44\n      tag_86\n      calldatasize\n      0x04\n      tag_87\n      jump\t// in\n    tag_86:\n      tag_88\n      jump\t// in\n        /* \"contracts/StemPayLotteryManager.sol\":6966:7227  function cancelLottery(uint256 _lotteryId) external onlyOwner {... */\n    tag_12:\n      callvalue\n      dup1\n      iszero\n      tag_89\n      jumpi\n      revert(0x00, 0x00)\n    tag_89:\n      pop\n      tag_44\n      tag_91\n      calldatasize\n      0x04\n      tag_51\n      jump\t// in\n    tag_91:\n      tag_92\n      jump\t// in\n        /* \"contracts/StemPayLotteryManager.sol\":2030:2059  uint256 public lotteryCounter */\n    tag_13:\n      callvalue\n      dup1\n      iszero\n      tag_93\n      jumpi\n      revert(0x00, 0x00)\n    tag_93:\n      pop\n      tag_39\n      sload(0x03)\n      dup2\n      jump\n        /* \"@openzeppelin/contracts-upgradeable/proxy/utils/UUPSUpgradeable.sol\":4161:4375  function upgradeToAndCall(address newImplementation, bytes memory data) public payable virtual onlyProxy {... */\n    tag_14:\n      tag_44\n      tag_98\n      calldatasize\n      0x04\n      tag_99\n      jump\t// in\n    tag_98:\n      tag_100\n      jump\t// in\n        /* \"@openzeppelin/contracts-upgradeable/proxy/utils/UUPSUpgradeable.sol\":3708:3842  function proxiableUUID() external view virtual notDelegated returns (bytes32) {... */\n    tag_15:\n      callvalue\n      dup1\n      iszero\n      tag_101\n      jumpi\n      revert(0x00, 0x00)\n    tag_101:\n      pop\n      tag_39\n      tag_103\n      jump\t// in\n        /* \"contracts/StemPayLotteryManager.sol\":7233:7745  function claimRefund(uint256 _lotteryId) external nonReentrant {... */\n    tag_16:\n      callvalue\n      dup1\n      iszero\n      tag_106\n      jumpi\n      revert(0x00, 0x00)\n    tag_106:\n      pop\n      tag_44\n      tag_108\n      calldatasize\n      0x04\n      tag_51\n      jump\t// in\n    tag_108:\n      tag_109\n      jump\t// in\n        /* \"contracts/StemPayLotteryManager.sol\":5329:6315  function drawWinner(uint256 _lotteryId) external onlyOwner {... */\n    tag_17:\n      callvalue\n      dup1\n      iszero\n      tag_110\n      jumpi\n      revert(0x00, 0x00)\n    tag_110:\n      pop\n      tag_44\n      tag_112\n      calldatasize\n      0x04\n      tag_51\n      jump\t// in\n    tag_112:\n      tag_113\n      jump\t// in\n        /* \"contracts/StemPayLotteryManager.sol\":2137:2159  bytes32 public keyHash */\n    tag_18:\n      callvalue\n      dup1\n      iszero\n      tag_114\n      jumpi\n      revert(0x00, 0x00)\n    tag_114:\n      pop\n      tag_39\n      sload(0x06)\n      dup2\n      jump\n        /* \"@openzeppelin/contracts-upgradeable/access/OwnableUpgradeable.sol\":3155:3256  function renounceOwnership() public virtual onlyOwner {... */\n    tag_19:\n      callvalue\n      dup1\n      iszero\n      tag_118\n      jumpi\n      revert(0x00, 0x00)\n    tag_118:\n      pop\n      tag_44\n      tag_120\n      jump\t// in\n        /* \"contracts/StemPayLotteryManager.sol\":2241:2263  uint32 public numWords */\n    tag_20:\n      callvalue\n      dup1\n      iszero\n      tag_121\n      jumpi\n      revert(0x00, 0x00)\n    tag_121:\n      pop\n      sload(0x07)\n      tag_71\n      swap1\n      0x01000000000000\n      swap1\n      div\n      0xffffffff\n      and\n      dup2\n      jump\n        /* \"contracts/StemPayLotteryManager.sol\":4866:5323  function voteCancel(uint256 _lotteryId) external {... */\n    tag_21:\n      callvalue\n      dup1\n      iszero\n      tag_125\n      jumpi\n      revert(0x00, 0x00)\n    tag_125:\n      pop\n      tag_44\n      tag_127\n      calldatasize\n      0x04\n      tag_51\n      jump\t// in\n    tag_127:\n      tag_128\n      jump\t// in\n        /* \"contracts/StemPayLotteryManager.sol\":8105:8215  function clearLotteryData(uint256 _lotteryId) external onlyOwner {... */\n    tag_22:\n      callvalue\n      dup1\n      iszero\n      tag_129\n      jumpi\n      revert(0x00, 0x00)\n    tag_129:\n      pop\n      tag_44\n      tag_131\n      calldatasize\n      0x04\n      tag_51\n      jump\t// in\n    tag_131:\n      tag_132\n      jump\t// in\n        /* \"@openzeppelin/contracts-upgradeable/access/OwnableUpgradeable.sol\":2441:2585  function owner() public view virtual returns (address) {... */\n    tag_23:\n      callvalue\n      dup1\n      iszero\n      tag_133\n      jumpi\n      revert(0x00, 0x00)\n    tag_133:\n      pop\n        /* \"@openzeppelin/contracts-upgradeable/access/OwnableUpgradeable.sol\":1313:1335  OwnableStorageLocation */\n      0x9016d09d72d40fdae2fd8ceac6b6234c7706214fd39c1cd1e609a0528c199300\n        /* \"@openzeppelin/contracts-upgradeable/access/OwnableUpgradeable.sol\":2570:2578  $._owner */\n      sload\n      sub(shl(0xa0, 0x01), 0x01)\n      and\n        /* \"@openzeppelin/contracts-upgradeable/access/OwnableUpgradeable.sol\":2441:2585  function owner() public view virtual returns (address) {... */\n      jump(tag_66)\n        /* \"contracts/StemPayLotteryManager.sol\":2304:2333  address public vrfCoordinator */\n    tag_24:\n      callvalue\n      dup1\n      iszero\n      tag_137\n      jumpi\n      revert(0x00, 0x00)\n    tag_137:\n      pop\n      sload(0x09)\n      tag_66\n      swap1\n      sub(shl(0xa0, 0x01), 0x01)\n      and\n      dup2\n      jump\n        /* \"@openzeppelin/contracts-upgradeable/proxy/utils/UUPSUpgradeable.sol\":1819:1877  string public constant UPGRADE_INTERFACE_VERSION = \"5.0.0\" */\n    tag_25:\n      callvalue\n      dup1\n      iszero\n      tag_141\n      jumpi\n      revert(0x00, 0x00)\n    tag_141:\n      pop\n      tag_142\n      mload(0x40)\n      dup1\n      0x40\n      add\n      0x40\n      mstore\n      dup1\n      0x05\n      dup2\n      mstore\n      0x20\n      add\n      shl(0xdc, 0x0352e302e3)\n      dup2\n      mstore\n      pop\n      dup2\n      jump\n    tag_142:\n      mload(0x40)\n      tag_41\n      swap2\n      swap1\n      tag_145\n      jump\t// in\n        /* \"contracts/StemPayLotteryManager.sol\":2201:2235  uint16 public requestConfirmations */\n    tag_26:\n      callvalue\n      dup1\n      iszero\n      tag_146\n      jumpi\n      revert(0x00, 0x00)\n    tag_146:\n      pop\n      sload(0x07)\n      tag_147\n      swap1\n      0x0100000000\n      swap1\n      div\n      0xffff\n      and\n      dup2\n      jump\n    tag_147:\n      mload(0x40)\n        /* \"#utility.yul\":7387:7393   */\n      0xffff\n        /* \"#utility.yul\":7375:7394   */\n      swap1\n      swap2\n      and\n        /* \"#utility.yul\":7357:7395   */\n      dup2\n      mstore\n        /* \"#utility.yul\":7345:7347   */\n      0x20\n        /* \"#utility.yul\":7330:7348   */\n      add\n        /* \"contracts/StemPayLotteryManager.sol\":2201:2235  uint16 public requestConfirmations */\n      tag_41\n        /* \"#utility.yul\":7213:7401   */\n      jump\n        /* \"contracts/StemPayLotteryManager.sol\":2066:2097  address public investmentWallet */\n    tag_27:\n      callvalue\n      dup1\n      iszero\n      tag_151\n      jumpi\n      revert(0x00, 0x00)\n    tag_151:\n      pop\n      sload(0x04)\n      tag_66\n      swap1\n      sub(shl(0xa0, 0x01), 0x01)\n      and\n      dup2\n      jump\n        /* \"contracts/StemPayLotteryManager.sol\":8221:8365  function getParticipants(uint256 _lotteryId) external view returns (address[] memory) {... */\n    tag_28:\n      callvalue\n      dup1\n      iszero\n      tag_155\n      jumpi\n      revert(0x00, 0x00)\n    tag_155:\n      pop\n      tag_156\n      tag_157\n      calldatasize\n      0x04\n      tag_51\n      jump\t// in\n    tag_157:\n      tag_158\n      jump\t// in\n    tag_156:\n      mload(0x40)\n      tag_41\n      swap2\n      swap1\n      tag_160\n      jump\t// in\n        /* \"contracts/StemPayLotteryManager.sol\":7751:8099  function claimPrize(uint256 _lotteryId) external nonReentrant {... */\n    tag_29:\n      callvalue\n      dup1\n      iszero\n      tag_161\n      jumpi\n      revert(0x00, 0x00)\n    tag_161:\n      pop\n      tag_44\n      tag_163\n      calldatasize\n      0x04\n      tag_51\n      jump\t// in\n    tag_163:\n      tag_164\n      jump\t// in\n        /* \"@openzeppelin/contracts-upgradeable/access/OwnableUpgradeable.sol\":3405:3620  function transferOwnership(address newOwner) public virtual onlyOwner {... */\n    tag_30:\n      callvalue\n      dup1\n      iszero\n      tag_165\n      jumpi\n      revert(0x00, 0x00)\n    tag_165:\n      pop\n      tag_44\n      tag_167\n      calldatasize\n      0x04\n      tag_168\n      jump\t// in\n    tag_167:\n      tag_169\n      jump\t// in\n        /* \"contracts/StemPayLotteryManager.sol\":2681:3299  function initialize(... */\n    tag_47:\n        /* \"@openzeppelin/contracts-upgradeable/proxy/utils/Initializable.sol\":4158:4188  InitializableStorage storage $ */\n      0x00\n        /* \"@openzeppelin/contracts-upgradeable/proxy/utils/Initializable.sol\":4191:4217  _getInitializableStorage() */\n      tag_171\n        /* \"@openzeppelin/contracts-upgradeable/proxy/utils/Initializable.sol\":4191:4215  _getInitializableStorage */\n      tag_172\n        /* \"@openzeppelin/contracts-upgradeable/proxy/utils/Initializable.sol\":4191:4217  _getInitializableStorage() */\n      jump\t// in\n    tag_171:\n        /* \"@openzeppelin/contracts-upgradeable/proxy/utils/Initializable.sol\":4302:4317  $._initializing */\n      dup1\n      sload\n        /* \"@openzeppelin/contracts-upgradeable/proxy/utils/Initializable.sol\":4158:4217  InitializableStorage storage $ = _getInitializableStorage() */\n      swap1\n      swap2\n      pop\n        /* \"@openzeppelin/contracts-upgradeable/proxy/utils/Initializable.sol\":4302:4317  $._initializing */\n      0xff\n      shl(0x40, 0x01)\n      dup3\n      div\n      and\n        /* \"@openzeppelin/contracts-upgradeable/proxy/utils/Initializable.sol\":4301:4317  !$._initializing */\n      iszero\n      swap1\n        /* \"@openzeppelin/contracts-upgradeable/proxy/utils/Initializable.sol\":4348:4362  $._initialized */\n      0xffffffffffffffff\n      and\n        /* \"@openzeppelin/contracts-upgradeable/proxy/utils/Initializable.sol\":4279:4298  bool isTopLevelCall */\n      0x00\n        /* \"@openzeppelin/contracts-upgradeable/proxy/utils/Initializable.sol\":4724:4740  initialized == 0 */\n      dup2\n      iszero\n        /* \"@openzeppelin/contracts-upgradeable/proxy/utils/Initializable.sol\":4724:4758  initialized == 0 && isTopLevelCall */\n      dup1\n      iszero\n      tag_173\n      jumpi\n      pop\n        /* \"@openzeppelin/contracts-upgradeable/proxy/utils/Initializable.sol\":4744:4758  isTopLevelCall */\n      dup3\n        /* \"@openzeppelin/contracts-upgradeable/proxy/utils/Initializable.sol\":4724:4758  initialized == 0 && isTopLevelCall */\n    tag_173:\n        /* \"@openzeppelin/contracts-upgradeable/proxy/utils/Initializable.sol\":4704:4758  bool initialSetup = initialized == 0 && isTopLevelCall */\n      swap1\n      pop\n        /* \"@openzeppelin/contracts-upgradeable/proxy/utils/Initializable.sol\":4768:4785  bool construction */\n      0x00\n        /* \"@openzeppelin/contracts-upgradeable/proxy/utils/Initializable.sol\":4788:4799  initialized */\n      dup3\n        /* \"@openzeppelin/contracts-upgradeable/proxy/utils/Initializable.sol\":4788:4804  initialized == 1 */\n      0xffffffffffffffff\n      and\n        /* \"@openzeppelin/contracts-upgradeable/proxy/utils/Initializable.sol\":4803:4804  1 */\n      0x01\n        /* \"@openzeppelin/contracts-upgradeable/proxy/utils/Initializable.sol\":4788:4804  initialized == 1 */\n      eq\n        /* \"@openzeppelin/contracts-upgradeable/proxy/utils/Initializable.sol\":4788:4838  initialized == 1 && address(this).code.length == 0 */\n      dup1\n      iszero\n      tag_174\n      jumpi\n      pop\n        /* \"@openzeppelin/contracts-upgradeable/proxy/utils/Initializable.sol\":4816:4820  this */\n      address\n        /* \"@openzeppelin/contracts-upgradeable/proxy/utils/Initializable.sol\":4808:4833  address(this).code.length */\n      extcodesize\n        /* \"@openzeppelin/contracts-upgradeable/proxy/utils/Initializable.sol\":4808:4838  address(this).code.length == 0 */\n      iszero\n        /* \"@openzeppelin/contracts-upgradeable/proxy/utils/Initializable.sol\":4788:4838  initialized == 1 && address(this).code.length == 0 */\n    tag_174:\n        /* \"@openzeppelin/contracts-upgradeable/proxy/utils/Initializable.sol\":4768:4838  bool construction = initialized == 1 && address(this).code.length == 0 */\n      swap1\n      pop\n        /* \"@openzeppelin/contracts-upgradeable/proxy/utils/Initializable.sol\":4854:4866  initialSetup */\n      dup2\n        /* \"@openzeppelin/contracts-upgradeable/proxy/utils/Initializable.sol\":4853:4866  !initialSetup */\n      iszero\n        /* \"@openzeppelin/contracts-upgradeable/proxy/utils/Initializable.sol\":4853:4883  !initialSetup && !construction */\n      dup1\n      iszero\n      tag_175\n      jumpi\n      pop\n        /* \"@openzeppelin/contracts-upgradeable/proxy/utils/Initializable.sol\":4871:4883  construction */\n      dup1\n        /* \"@openzeppelin/contracts-upgradeable/proxy/utils/Initializable.sol\":4870:4883  !construction */\n      iszero\n        /* \"@openzeppelin/contracts-upgradeable/proxy/utils/Initializable.sol\":4853:4883  !initialSetup && !construction */\n    tag_175:\n        /* \"@openzeppelin/contracts-upgradeable/proxy/utils/Initializable.sol\":4849:4940  if (!initialSetup && !construction) {... */\n      iszero\n      tag_176\n      jumpi\n        /* \"@openzeppelin/contracts-upgradeable/proxy/utils/Initializable.sol\":4906:4929  InvalidInitialization() */\n      mload(0x40)\n      shl(0xe0, 0xf92ee8a9)\n      dup2\n      mstore\n      0x04\n      add\n      mload(0x40)\n      dup1\n      swap2\n      sub\n      swap1\n      revert\n        /* \"@openzeppelin/contracts-upgradeable/proxy/utils/Initializable.sol\":4849:4940  if (!initialSetup && !construction) {... */\n    tag_176:\n        /* \"@openzeppelin/contracts-upgradeable/proxy/utils/Initializable.sol\":4949:4967  $._initialized = 1 */\n      dup5\n      sload\n      not(0xffffffffffffffff)\n      and\n        /* \"@openzeppelin/contracts-upgradeable/proxy/utils/Initializable.sol\":4966:4967  1 */\n      0x01\n        /* \"@openzeppelin/contracts-upgradeable/proxy/utils/Initializable.sol\":4949:4967  $._initialized = 1 */\n      or\n      dup6\n      sstore\n        /* \"@openzeppelin/contracts-upgradeable/proxy/utils/Initializable.sol\":4977:5044  if (isTopLevelCall) {... */\n      dup4\n      iszero\n      tag_177\n      jumpi\n        /* \"@openzeppelin/contracts-upgradeable/proxy/utils/Initializable.sol\":5011:5033  $._initializing = true */\n      dup5\n      sload\n      not(shl(0x40, 0xff))\n      and\n      shl(0x40, 0x01)\n      or\n      dup6\n      sstore\n        /* \"@openzeppelin/contracts-upgradeable/proxy/utils/Initializable.sol\":4977:5044  if (isTopLevelCall) {... */\n    tag_177:\n        /* \"contracts/StemPayLotteryManager.sol\":2887:2913  __Ownable_init(msg.sender) */\n      tag_179\n        /* \"contracts/StemPayLotteryManager.sol\":2902:2912  msg.sender */\n      caller\n        /* \"contracts/StemPayLotteryManager.sol\":2887:2901  __Ownable_init */\n      tag_180\n        /* \"contracts/StemPayLotteryManager.sol\":2887:2913  __Ownable_init(msg.sender) */\n      jump\t// in\n    tag_179:\n        /* \"contracts/StemPayLotteryManager.sol\":2923:2947  __UUPSUpgradeable_init() */\n      tag_181\n        /* \"contracts/StemPayLotteryManager.sol\":2923:2945  __UUPSUpgradeable_init */\n      tag_182\n        /* \"contracts/StemPayLotteryManager.sol\":2923:2947  __UUPSUpgradeable_init() */\n      jump\t// in\n    tag_181:\n        /* \"contracts/StemPayLotteryManager.sol\":2957:3011  __VRFConsumerBaseV2_5Upgradeable_init(_vrfCoordinator) */\n      tag_183\n        /* \"contracts/StemPayLotteryManager.sol\":2995:3010  _vrfCoordinator */\n      dup11\n        /* \"contracts/StemPayLotteryManager.sol\":2957:2994  __VRFConsumerBaseV2_5Upgradeable_init */\n      tag_184\n        /* \"contracts/StemPayLotteryManager.sol\":2957:3011  __VRFConsumerBaseV2_5Upgradeable_init(_vrfCoordinator) */\n      jump\t// in\n    tag_183:\n        /* \"contracts/StemPayLotteryManager.sol\":3022:3036  vrfCoordinator */\n      0x09\n        /* \"contracts/StemPayLotteryManager.sol\":3022:3054  vrfCoordinator = _vrfCoordinator */\n      dup1\n      sload\n      not(sub(shl(0xa0, 0x01), 0x01))\n      swap1\n      dup2\n      and\n      sub(shl(0xa0, 0x01), 0x01)\n      dup14\n      dup2\n      and\n      swap2\n      swap1\n      swap2\n      or\n      swap1\n      swap3\n      sstore\n        /* \"contracts/StemPayLotteryManager.sol\":3064:3071  keyHash */\n      0x06\n        /* \"contracts/StemPayLotteryManager.sol\":3064:3082  keyHash = _keyHash */\n      dup12\n      swap1\n      sstore\n        /* \"contracts/StemPayLotteryManager.sol\":3092:3106  subscriptionId */\n      0x08\n        /* \"contracts/StemPayLotteryManager.sol\":3092:3115  subscriptionId = _subId */\n      dup11\n      swap1\n      sstore\n        /* \"contracts/StemPayLotteryManager.sol\":3125:3141  callbackGasLimit */\n      0x07\n        /* \"contracts/StemPayLotteryManager.sol\":3125:3151  callbackGasLimit = 200_000 */\n      dup1\n      sload\n      not(0xffffffffffffffffffff)\n        /* \"contracts/StemPayLotteryManager.sol\":3195:3207  numWords = 1 */\n      and\n      0x01000300030d40\n      or\n      swap1\n      sstore\n        /* \"contracts/StemPayLotteryManager.sol\":3161:3181  requestConfirmations */\n      0x04\n        /* \"contracts/StemPayLotteryManager.sol\":3218:3254  investmentWallet = _investmentWallet */\n      dup1\n      sload\n      dup3\n      and\n      dup11\n      dup5\n      and\n      or\n      swap1\n      sstore\n      0x05\n        /* \"contracts/StemPayLotteryManager.sol\":3264:3292  profitWallet = _profitWallet */\n      dup1\n      sload\n      swap1\n      swap2\n      and\n      swap2\n      dup9\n      and\n      swap2\n      swap1\n      swap2\n      or\n      swap1\n      sstore\n        /* \"@openzeppelin/contracts-upgradeable/proxy/utils/Initializable.sol\":5064:5165  if (isTopLevelCall) {... */\n      dup4\n      iszero\n      tag_185\n      jumpi\n        /* \"@openzeppelin/contracts-upgradeable/proxy/utils/Initializable.sol\":5098:5121  $._initializing = false */\n      dup5\n      sload\n      not(shl(0x40, 0xff))\n      and\n      dup6\n      sstore\n        /* \"@openzeppelin/contracts-upgradeable/proxy/utils/Initializable.sol\":5140:5154  Initialized(1) */\n      mload(0x40)\n      0x01\n        /* \"#utility.yul\":8392:8442   */\n      dup2\n      mstore\n        /* \"@openzeppelin/contracts-upgradeable/proxy/utils/Initializable.sol\":5140:5154  Initialized(1) */\n      0xc7f505b2f371ae2175ee4913f4499e1f2633a7b5936321eed1cdaeb6115181d2\n      swap1\n        /* \"#utility.yul\":8380:8382   */\n      0x20\n        /* \"#utility.yul\":8365:8383   */\n      add\n        /* \"@openzeppelin/contracts-upgradeable/proxy/utils/Initializable.sol\":5140:5154  Initialized(1) */\n      mload(0x40)\n      dup1\n      swap2\n      sub\n      swap1\n      log1\n        /* \"@openzeppelin/contracts-upgradeable/proxy/utils/Initializable.sol\":5064:5165  if (isTopLevelCall) {... */\n    tag_185:\n        /* \"@openzeppelin/contracts-upgradeable/proxy/utils/Initializable.sol\":4092:5171  {... */\n      pop\n      pop\n      pop\n      pop\n      pop\n        /* \"contracts/StemPayLotteryManager.sol\":2681:3299  function initialize(... */\n      pop\n      pop\n      pop\n      pop\n      pop\n      jump\t// out\n        /* \"contracts/StemPayLotteryManager.sol\":922:1198  function rawFulfillRandomWords(uint256 requestId, uint256[] memory randomWords) external {... */\n    tag_64:\n        /* \"contracts/StemPayLotteryManager.sol\":1039:1053  vrfCoordinator */\n      and(sub(shl(0xa0, 0x01), 0x01), sload(0x01))\n        /* \"contracts/StemPayLotteryManager.sol\":1025:1035  msg.sender */\n      caller\n        /* \"contracts/StemPayLotteryManager.sol\":1025:1053  msg.sender != vrfCoordinator */\n      eq\n        /* \"contracts/StemPayLotteryManager.sol\":1021:1140  if (msg.sender != vrfCoordinator) {... */\n      tag_189\n      jumpi\n        /* \"contracts/StemPayLotteryManager.sol\":1114:1128  vrfCoordinator */\n      sload(0x01)\n        /* \"contracts/StemPayLotteryManager.sol\":1076:1129  OnlyCoordinatorCanFulfill(msg.sender, vrfCoordinator) */\n      mload(0x40)\n      shl(0xe2, 0x073e64fd)\n      dup2\n      mstore\n        /* \"contracts/StemPayLotteryManager.sol\":1102:1112  msg.sender */\n      caller\n        /* \"contracts/StemPayLotteryManager.sol\":1076:1129  OnlyCoordinatorCanFulfill(msg.sender, vrfCoordinator) */\n      0x04\n      dup3\n      add\n        /* \"#utility.yul\":8627:8678   */\n      mstore\n      sub(shl(0xa0, 0x01), 0x01)\n        /* \"contracts/StemPayLotteryManager.sol\":1114:1128  vrfCoordinator */\n      swap1\n      swap2\n      and\n        /* \"#utility.yul\":8694:8712   */\n      0x24\n      dup3\n      add\n        /* \"#utility.yul\":8687:8747   */\n      mstore\n        /* \"#utility.yul\":8600:8618   */\n      0x44\n      add\n        /* \"contracts/StemPayLotteryManager.sol\":1076:1129  OnlyCoordinatorCanFulfill(msg.sender, vrfCoordinator) */\n    tag_190:\n      mload(0x40)\n      dup1\n      swap2\n      sub\n      swap1\n      revert\n        /* \"contracts/StemPayLotteryManager.sol\":1021:1140  if (msg.sender != vrfCoordinator) {... */\n    tag_189:\n        /* \"contracts/StemPayLotteryManager.sol\":1149:1191  fulfillRandomWords(requestId, randomWords) */\n      tag_192\n        /* \"contracts/StemPayLotteryManager.sol\":1168:1177  requestId */\n      dup3\n        /* \"contracts/StemPayLotteryManager.sol\":1179:1190  randomWords */\n      dup3\n        /* \"contracts/StemPayLotteryManager.sol\":1149:1167  fulfillRandomWords */\n      tag_193\n        /* \"contracts/StemPayLotteryManager.sol\":1149:1191  fulfillRandomWords(requestId, randomWords) */\n      jump\t// in\n    tag_192:\n        /* \"contracts/StemPayLotteryManager.sol\":922:1198  function rawFulfillRandomWords(uint256 requestId, uint256[] memory randomWords) external {... */\n      pop\n      pop\n      jump\t// out\n        /* \"contracts/StemPayLotteryManager.sol\":8371:9267  function migrateToLottery(uint256 fromId, uint256 toId) external nonReentrant {... */\n    tag_79:\n        /* \"@openzeppelin/contracts/security/ReentrancyGuard.sol\":2261:2282  _nonReentrantBefore() */\n      tag_195\n        /* \"@openzeppelin/contracts/security/ReentrancyGuard.sol\":2261:2280  _nonReentrantBefore */\n      tag_196\n        /* \"@openzeppelin/contracts/security/ReentrancyGuard.sol\":2261:2282  _nonReentrantBefore() */\n      jump\t// in\n    tag_195:\n        /* \"contracts/StemPayLotteryManager.sol\":8459:8480  Lottery storage fromL */\n      0x00\n        /* \"contracts/StemPayLotteryManager.sol\":8483:8500  lotteries[fromId] */\n      dup3\n      dup2\n      mstore\n        /* \"contracts/StemPayLotteryManager.sol\":8483:8492  lotteries */\n      0x02\n        /* \"contracts/StemPayLotteryManager.sol\":8483:8500  lotteries[fromId] */\n      0x20\n      swap1\n      dup2\n      mstore\n      0x40\n      dup1\n      dup4\n      keccak256\n        /* \"contracts/StemPayLotteryManager.sol\":8532:8547  lotteries[toId] */\n      dup5\n      dup5\n      mstore\n      dup2\n      dup5\n      keccak256\n        /* \"contracts/StemPayLotteryManager.sol\":8583:8593  msg.sender */\n      caller\n        /* \"contracts/StemPayLotteryManager.sol\":8566:8594  fromL.entryCount[msg.sender] */\n      dup6\n      mstore\n        /* \"contracts/StemPayLotteryManager.sol\":8566:8582  fromL.entryCount */\n      0x0c\n      dup3\n      add\n        /* \"contracts/StemPayLotteryManager.sol\":8566:8594  fromL.entryCount[msg.sender] */\n      swap1\n      swap4\n      mstore\n      swap3\n      keccak256\n      sload\n        /* \"contracts/StemPayLotteryManager.sol\":8558:8613  require(fromL.entryCount[msg.sender] > 0, \"Not in old\") */\n      tag_198\n      jumpi\n      mload(0x40)\n      shl(0xe5, 0x461bcd)\n      dup2\n      mstore\n        /* \"#utility.yul\":8960:8962   */\n      0x20\n        /* \"contracts/StemPayLotteryManager.sol\":8558:8613  require(fromL.entryCount[msg.sender] > 0, \"Not in old\") */\n      0x04\n      dup3\n      add\n        /* \"#utility.yul\":8942:8963   */\n      mstore\n        /* \"#utility.yul\":8999:9001   */\n      0x0a\n        /* \"#utility.yul\":8979:8997   */\n      0x24\n      dup3\n      add\n        /* \"#utility.yul\":8972:9002   */\n      mstore\n      shl(0xb2, 0x139bdd081a5b881bdb19)\n        /* \"#utility.yul\":9018:9036   */\n      0x44\n      dup3\n      add\n        /* \"#utility.yul\":9011:9051   */\n      mstore\n        /* \"#utility.yul\":9068:9086   */\n      0x64\n      add\n        /* \"contracts/StemPayLotteryManager.sol\":8558:8613  require(fromL.entryCount[msg.sender] > 0, \"Not in old\") */\n      tag_190\n        /* \"#utility.yul\":8758:9092   */\n      jump\n        /* \"contracts/StemPayLotteryManager.sol\":8558:8613  require(fromL.entryCount[msg.sender] > 0, \"Not in old\") */\n    tag_198:\n        /* \"contracts/StemPayLotteryManager.sol\":8650:8660  msg.sender */\n      caller\n        /* \"contracts/StemPayLotteryManager.sol\":8632:8661  fromL.hasRefunded[msg.sender] */\n      0x00\n      swap1\n      dup2\n      mstore\n        /* \"contracts/StemPayLotteryManager.sol\":8632:8649  fromL.hasRefunded */\n      0x0e\n      dup4\n      add\n        /* \"contracts/StemPayLotteryManager.sol\":8632:8661  fromL.hasRefunded[msg.sender] */\n      0x20\n      mstore\n      0x40\n      swap1\n      keccak256\n      sload\n      0xff\n      and\n        /* \"contracts/StemPayLotteryManager.sol\":8631:8661  !fromL.hasRefunded[msg.sender] */\n      iszero\n        /* \"contracts/StemPayLotteryManager.sol\":8623:8682  require(!fromL.hasRefunded[msg.sender], \"Refunded already\") */\n      tag_201\n      jumpi\n      mload(0x40)\n      shl(0xe5, 0x461bcd)\n      dup2\n      mstore\n        /* \"#utility.yul\":9299:9301   */\n      0x20\n        /* \"contracts/StemPayLotteryManager.sol\":8623:8682  require(!fromL.hasRefunded[msg.sender], \"Refunded already\") */\n      0x04\n      dup3\n      add\n        /* \"#utility.yul\":9281:9302   */\n      mstore\n        /* \"#utility.yul\":9338:9340   */\n      0x10\n        /* \"#utility.yul\":9318:9336   */\n      0x24\n      dup3\n      add\n        /* \"#utility.yul\":9311:9341   */\n      mstore\n      shl(0x80, 0x526566756e64656420616c7265616479)\n        /* \"#utility.yul\":9357:9375   */\n      0x44\n      dup3\n      add\n        /* \"#utility.yul\":9350:9396   */\n      mstore\n        /* \"#utility.yul\":9413:9431   */\n      0x64\n      add\n        /* \"contracts/StemPayLotteryManager.sol\":8623:8682  require(!fromL.hasRefunded[msg.sender], \"Refunded already\") */\n      tag_190\n        /* \"#utility.yul\":9097:9437   */\n      jump\n        /* \"contracts/StemPayLotteryManager.sol\":8623:8682  require(!fromL.hasRefunded[msg.sender], \"Refunded already\") */\n    tag_201:\n        /* \"contracts/StemPayLotteryManager.sol\":8700:8717  fromL.isCancelled */\n      0x08\n      dup3\n      add\n      sload\n      0x010000\n      swap1\n      div\n      0xff\n      and\n      dup1\n        /* \"contracts/StemPayLotteryManager.sol\":8700:8766  fromL.isCancelled || (fromL.isDrawn && fromL.winner != msg.sender) */\n      tag_205\n      jumpi\n      pop\n        /* \"contracts/StemPayLotteryManager.sol\":8722:8735  fromL.isDrawn */\n      0x08\n      dup3\n      add\n      sload\n      0x0100\n      swap1\n      div\n      0xff\n      and\n        /* \"contracts/StemPayLotteryManager.sol\":8722:8765  fromL.isDrawn && fromL.winner != msg.sender */\n      dup1\n      iszero\n      tag_205\n      jumpi\n      pop\n        /* \"contracts/StemPayLotteryManager.sol\":8739:8751  fromL.winner */\n      0x0a\n      dup3\n      add\n      sload\n      sub(shl(0xa0, 0x01), 0x01)\n      and\n        /* \"contracts/StemPayLotteryManager.sol\":8755:8765  msg.sender */\n      caller\n        /* \"contracts/StemPayLotteryManager.sol\":8739:8765  fromL.winner != msg.sender */\n      eq\n      iszero\n        /* \"contracts/StemPayLotteryManager.sol\":8722:8765  fromL.isDrawn && fromL.winner != msg.sender */\n    tag_205:\n        /* \"contracts/StemPayLotteryManager.sol\":8692:8787  require(fromL.isCancelled || (fromL.isDrawn && fromL.winner != msg.sender), \"Old not eligible\") */\n      tag_206\n      jumpi\n      mload(0x40)\n      shl(0xe5, 0x461bcd)\n      dup2\n      mstore\n        /* \"#utility.yul\":9644:9646   */\n      0x20\n        /* \"contracts/StemPayLotteryManager.sol\":8692:8787  require(fromL.isCancelled || (fromL.isDrawn && fromL.winner != msg.sender), \"Old not eligible\") */\n      0x04\n      dup3\n      add\n        /* \"#utility.yul\":9626:9647   */\n      mstore\n        /* \"#utility.yul\":9683:9685   */\n      0x10\n        /* \"#utility.yul\":9663:9681   */\n      0x24\n      dup3\n      add\n        /* \"#utility.yul\":9656:9686   */\n      mstore\n      shl(0x80, 0x4f6c64206e6f7420656c696769626c65)\n        /* \"#utility.yul\":9702:9720   */\n      0x44\n      dup3\n      add\n        /* \"#utility.yul\":9695:9741   */\n      mstore\n        /* \"#utility.yul\":9758:9776   */\n      0x64\n      add\n        /* \"contracts/StemPayLotteryManager.sol\":8692:8787  require(fromL.isCancelled || (fromL.isDrawn && fromL.winner != msg.sender), \"Old not eligible\") */\n      tag_190\n        /* \"#utility.yul\":9442:9782   */\n      jump\n        /* \"contracts/StemPayLotteryManager.sol\":8692:8787  require(fromL.isCancelled || (fromL.isDrawn && fromL.winner != msg.sender), \"Old not eligible\") */\n    tag_206:\n        /* \"contracts/StemPayLotteryManager.sol\":8806:8818  toL.isActive */\n      0x08\n      dup2\n      add\n      sload\n      0xff\n      and\n        /* \"contracts/StemPayLotteryManager.sol\":8806:8838  toL.isActive && !toL.isCancelled */\n      dup1\n      iszero\n      tag_209\n      jumpi\n      pop\n        /* \"contracts/StemPayLotteryManager.sol\":8823:8838  toL.isCancelled */\n      0x08\n      dup2\n      add\n      sload\n      0x010000\n      swap1\n      div\n      0xff\n      and\n        /* \"contracts/StemPayLotteryManager.sol\":8822:8838  !toL.isCancelled */\n      iszero\n        /* \"contracts/StemPayLotteryManager.sol\":8806:8838  toL.isActive && !toL.isCancelled */\n    tag_209:\n        /* \"contracts/StemPayLotteryManager.sol\":8798:8863  require(toL.isActive && !toL.isCancelled, \"New lottery inactive\") */\n      tag_210\n      jumpi\n      mload(0x40)\n      shl(0xe5, 0x461bcd)\n      dup2\n      mstore\n        /* \"#utility.yul\":9989:9991   */\n      0x20\n        /* \"contracts/StemPayLotteryManager.sol\":8798:8863  require(toL.isActive && !toL.isCancelled, \"New lottery inactive\") */\n      0x04\n      dup3\n      add\n        /* \"#utility.yul\":9971:9992   */\n      mstore\n        /* \"#utility.yul\":10028:10030   */\n      0x14\n        /* \"#utility.yul\":10008:10026   */\n      0x24\n      dup3\n      add\n        /* \"#utility.yul\":10001:10031   */\n      mstore\n      shl(0x60, 0x4e6577206c6f747465727920696e616374697665)\n        /* \"#utility.yul\":10047:10065   */\n      0x44\n      dup3\n      add\n        /* \"#utility.yul\":10040:10090   */\n      mstore\n        /* \"#utility.yul\":10107:10125   */\n      0x64\n      add\n        /* \"contracts/StemPayLotteryManager.sol\":8798:8863  require(toL.isActive && !toL.isCancelled, \"New lottery inactive\") */\n      tag_190\n        /* \"#utility.yul\":9787:10131   */\n      jump\n        /* \"contracts/StemPayLotteryManager.sol\":8798:8863  require(toL.isActive && !toL.isCancelled, \"New lottery inactive\") */\n    tag_210:\n        /* \"contracts/StemPayLotteryManager.sol\":8899:8902  toL */\n      dup1\n        /* \"contracts/StemPayLotteryManager.sol\":8899:8911  toL.drawTime */\n      0x04\n      add\n      sload\n        /* \"contracts/StemPayLotteryManager.sol\":8881:8896  block.timestamp */\n      timestamp\n        /* \"contracts/StemPayLotteryManager.sol\":8881:8911  block.timestamp < toL.drawTime */\n      lt\n        /* \"contracts/StemPayLotteryManager.sol\":8873:8932  require(block.timestamp < toL.drawTime, \"Too late for new\") */\n      tag_213\n      jumpi\n      mload(0x40)\n      shl(0xe5, 0x461bcd)\n      dup2\n      mstore\n        /* \"#utility.yul\":10338:10340   */\n      0x20\n        /* \"contracts/StemPayLotteryManager.sol\":8873:8932  require(block.timestamp < toL.drawTime, \"Too late for new\") */\n      0x04\n      dup3\n      add\n        /* \"#utility.yul\":10320:10341   */\n      mstore\n        /* \"#utility.yul\":10377:10379   */\n      0x10\n        /* \"#utility.yul\":10357:10375   */\n      0x24\n      dup3\n      add\n        /* \"#utility.yul\":10350:10380   */\n      mstore\n      shl(0x80, 0x546f6f206c61746520666f72206e6577)\n        /* \"#utility.yul\":10396:10414   */\n      0x44\n      dup3\n      add\n        /* \"#utility.yul\":10389:10435   */\n      mstore\n        /* \"#utility.yul\":10452:10470   */\n      0x64\n      add\n        /* \"contracts/StemPayLotteryManager.sol\":8873:8932  require(block.timestamp < toL.drawTime, \"Too late for new\") */\n      tag_190\n        /* \"#utility.yul\":10136:10476   */\n      jump\n        /* \"contracts/StemPayLotteryManager.sol\":8873:8932  require(block.timestamp < toL.drawTime, \"Too late for new\") */\n    tag_213:\n        /* \"contracts/StemPayLotteryManager.sol\":8961:8971  msg.sender */\n      caller\n        /* \"contracts/StemPayLotteryManager.sol\":8943:8972  fromL.hasRefunded[msg.sender] */\n      0x00\n      swap1\n      dup2\n      mstore\n        /* \"contracts/StemPayLotteryManager.sol\":8943:8960  fromL.hasRefunded */\n      0x0e\n      dup4\n      add\n        /* \"contracts/StemPayLotteryManager.sol\":8943:8972  fromL.hasRefunded[msg.sender] */\n      0x20\n      mstore\n      0x40\n      dup2\n      keccak256\n        /* \"contracts/StemPayLotteryManager.sol\":8943:8979  fromL.hasRefunded[msg.sender] = true */\n      dup1\n      sload\n      not(0xff)\n      and\n        /* \"contracts/StemPayLotteryManager.sol\":8975:8979  true */\n      0x01\n        /* \"contracts/StemPayLotteryManager.sol\":8943:8979  fromL.hasRefunded[msg.sender] = true */\n      swap1\n      dup2\n      or\n      swap1\n      swap2\n      sstore\n        /* \"contracts/StemPayLotteryManager.sol\":9029:9049  toL.refundableAmount */\n      0x02\n      dup4\n      add\n      sload\n        /* \"contracts/StemPayLotteryManager.sol\":9006:9026  toL.participationFee */\n      swap1\n      dup4\n      add\n      sload\n        /* \"contracts/StemPayLotteryManager.sol\":9006:9049  toL.participationFee - toL.refundableAmount */\n      tag_216\n      swap2\n        /* \"contracts/StemPayLotteryManager.sol\":9029:9049  toL.refundableAmount */\n      swap1\n        /* \"contracts/StemPayLotteryManager.sol\":9006:9049  toL.participationFee - toL.refundableAmount */\n      tag_217\n      jump\t// in\n    tag_216:\n        /* \"contracts/StemPayLotteryManager.sol\":9066:9082  toL.tokenAddress */\n      dup3\n      sload\n        /* \"contracts/StemPayLotteryManager.sol\":9059:9130  IERC20(toL.tokenAddress).transferFrom(msg.sender, address(this), topUp) */\n      mload(0x40)\n      shl(0xe0, 0x23b872dd)\n      dup2\n      mstore\n        /* \"contracts/StemPayLotteryManager.sol\":9097:9107  msg.sender */\n      caller\n        /* \"contracts/StemPayLotteryManager.sol\":9059:9130  IERC20(toL.tokenAddress).transferFrom(msg.sender, address(this), topUp) */\n      0x04\n      dup3\n      add\n        /* \"#utility.yul\":10948:10999   */\n      mstore\n        /* \"contracts/StemPayLotteryManager.sol\":9117:9121  this */\n      address\n        /* \"#utility.yul\":11015:11033   */\n      0x24\n      dup3\n      add\n        /* \"#utility.yul\":11008:11068   */\n      mstore\n        /* \"#utility.yul\":11084:11102   */\n      0x44\n      dup2\n      add\n        /* \"#utility.yul\":11077:11111   */\n      dup4\n      swap1\n      mstore\n        /* \"contracts/StemPayLotteryManager.sol\":8990:9049  uint256 topUp = toL.participationFee - toL.refundableAmount */\n      swap2\n      swap3\n      pop\n      sub(shl(0xa0, 0x01), 0x01)\n        /* \"contracts/StemPayLotteryManager.sol\":9066:9082  toL.tokenAddress */\n      and\n      swap1\n        /* \"contracts/StemPayLotteryManager.sol\":9059:9096  IERC20(toL.tokenAddress).transferFrom */\n      0x23b872dd\n      swap1\n        /* \"#utility.yul\":10921:10939   */\n      0x64\n      add\n        /* \"contracts/StemPayLotteryManager.sol\":9059:9130  IERC20(toL.tokenAddress).transferFrom(msg.sender, address(this), topUp) */\n      0x20\n      mload(0x40)\n      dup1\n      dup4\n      sub\n      dup2\n      0x00\n      dup8\n      gas\n      call\n      iszero\n      dup1\n      iszero\n      tag_221\n      jumpi\n      returndatacopy(0x00, 0x00, returndatasize)\n      revert(0x00, returndatasize)\n    tag_221:\n      pop\n      pop\n      pop\n      pop\n      mload(0x40)\n      returndatasize\n      not(0x1f)\n      0x1f\n      dup3\n      add\n      and\n      dup3\n      add\n      dup1\n      0x40\n      mstore\n      pop\n      dup2\n      add\n      swap1\n      tag_222\n      swap2\n      swap1\n      tag_223\n      jump\t// in\n    tag_222:\n      pop\n        /* \"contracts/StemPayLotteryManager.sol\":9141:9157  toL.participants */\n      0x09\n      dup3\n      add\n        /* \"contracts/StemPayLotteryManager.sol\":9141:9174  toL.participants.push(msg.sender) */\n      dup1\n      sload\n      0x01\n      dup2\n      add\n      dup3\n      sstore\n      0x00\n      swap2\n      dup3\n      mstore\n      0x20\n      dup1\n      dup4\n      keccak256\n      swap1\n      swap2\n      add\n      dup1\n      sload\n      not(sub(shl(0xa0, 0x01), 0x01))\n      and\n        /* \"contracts/StemPayLotteryManager.sol\":9163:9173  msg.sender */\n      caller\n        /* \"contracts/StemPayLotteryManager.sol\":9141:9174  toL.participants.push(msg.sender) */\n      swap1\n      dup2\n      or\n      swap1\n      swap2\n      sstore\n        /* \"contracts/StemPayLotteryManager.sol\":9184:9210  toL.entryCount[msg.sender] */\n      dup3\n      mstore\n        /* \"contracts/StemPayLotteryManager.sol\":9184:9198  toL.entryCount */\n      0x0c\n      dup5\n      add\n        /* \"contracts/StemPayLotteryManager.sol\":9184:9210  toL.entryCount[msg.sender] */\n      swap1\n      mstore\n      0x40\n      dup2\n      keccak256\n        /* \"contracts/StemPayLotteryManager.sol\":9184:9212  toL.entryCount[msg.sender]++ */\n      dup1\n      sload\n      swap2\n      tag_225\n      dup4\n      tag_226\n      jump\t// in\n    tag_225:\n      swap1\n      swap2\n      sstore\n      pop\n      pop\n        /* \"contracts/StemPayLotteryManager.sol\":9228:9260  EnteredLottery(toId, msg.sender) */\n      0x40\n      dup1\n      mload\n        /* \"#utility.yul\":11718:11743   */\n      dup6\n      dup2\n      mstore\n        /* \"contracts/StemPayLotteryManager.sol\":9249:9259  msg.sender */\n      caller\n        /* \"#utility.yul\":11774:11776   */\n      0x20\n        /* \"#utility.yul\":11759:11777   */\n      dup3\n      add\n        /* \"#utility.yul\":11752:11812   */\n      mstore\n        /* \"contracts/StemPayLotteryManager.sol\":9228:9260  EnteredLottery(toId, msg.sender) */\n      0x1e28857182a3b2bb6fbb88287d1ba8cc3a941dd65d4c977286676d27b877a3d9\n      swap2\n        /* \"#utility.yul\":11691:11709   */\n      add\n        /* \"contracts/StemPayLotteryManager.sol\":9228:9260  EnteredLottery(toId, msg.sender) */\n      mload(0x40)\n      dup1\n      swap2\n      sub\n      swap1\n      log1\n        /* \"contracts/StemPayLotteryManager.sol\":8449:9267  {... */\n      pop\n      pop\n      pop\n        /* \"@openzeppelin/contracts/security/ReentrancyGuard.sol\":2303:2323  _nonReentrantAfter() */\n      tag_192\n        /* \"@openzeppelin/contracts/security/ReentrancyGuard.sol\":1716:1717  1 */\n      0x01\n        /* \"@openzeppelin/contracts/security/ReentrancyGuard.sol\":2809:2816  _status */\n      0x00\n        /* \"@openzeppelin/contracts/security/ReentrancyGuard.sol\":2809:2831  _status = _NOT_ENTERED */\n      sstore\n        /* \"@openzeppelin/contracts/security/ReentrancyGuard.sol\":2629:2838  function _nonReentrantAfter() private {... */\n      jump\n        /* \"contracts/StemPayLotteryManager.sol\":4302:4860  function enterLottery(uint256 _lotteryId) external nonReentrant {... */\n    tag_83:\n        /* \"@openzeppelin/contracts/security/ReentrancyGuard.sol\":2261:2282  _nonReentrantBefore() */\n      tag_232\n        /* \"@openzeppelin/contracts/security/ReentrancyGuard.sol\":2261:2280  _nonReentrantBefore */\n      tag_196\n        /* \"@openzeppelin/contracts/security/ReentrancyGuard.sol\":2261:2282  _nonReentrantBefore() */\n      jump\t// in\n    tag_232:\n        /* \"contracts/StemPayLotteryManager.sol\":4376:4393  Lottery storage l */\n      0x00\n        /* \"contracts/StemPayLotteryManager.sol\":4396:4417  lotteries[_lotteryId] */\n      dup2\n      dup2\n      mstore\n        /* \"contracts/StemPayLotteryManager.sol\":4396:4405  lotteries */\n      0x02\n        /* \"contracts/StemPayLotteryManager.sol\":4396:4417  lotteries[_lotteryId] */\n      0x20\n      mstore\n      0x40\n      swap1\n      keccak256\n        /* \"contracts/StemPayLotteryManager.sol\":4435:4445  l.isActive */\n      0x08\n      dup2\n      add\n      sload\n      0xff\n      and\n        /* \"contracts/StemPayLotteryManager.sol\":4435:4463  l.isActive && !l.isCancelled */\n      dup1\n      iszero\n      tag_234\n      jumpi\n      pop\n        /* \"contracts/StemPayLotteryManager.sol\":4450:4463  l.isCancelled */\n      0x08\n      dup2\n      add\n      sload\n      0x010000\n      swap1\n      div\n      0xff\n      and\n        /* \"contracts/StemPayLotteryManager.sol\":4449:4463  !l.isCancelled */\n      iszero\n        /* \"contracts/StemPayLotteryManager.sol\":4435:4463  l.isActive && !l.isCancelled */\n    tag_234:\n        /* \"contracts/StemPayLotteryManager.sol\":4427:4489  require(l.isActive && !l.isCancelled, \"Inactive or cancelled\") */\n      tag_235\n      jumpi\n      mload(0x40)\n      shl(0xe5, 0x461bcd)\n      dup2\n      mstore\n        /* \"#utility.yul\":12025:12027   */\n      0x20\n        /* \"contracts/StemPayLotteryManager.sol\":4427:4489  require(l.isActive && !l.isCancelled, \"Inactive or cancelled\") */\n      0x04\n      dup3\n      add\n        /* \"#utility.yul\":12007:12028   */\n      mstore\n        /* \"#utility.yul\":12064:12066   */\n      0x15\n        /* \"#utility.yul\":12044:12062   */\n      0x24\n      dup3\n      add\n        /* \"#utility.yul\":12037:12067   */\n      mstore\n      shl(0x5a, 0x125b9858dd1a5d99481bdc8818d85b98d95b1b1959)\n        /* \"#utility.yul\":12083:12101   */\n      0x44\n      dup3\n      add\n        /* \"#utility.yul\":12076:12127   */\n      mstore\n        /* \"#utility.yul\":12144:12162   */\n      0x64\n      add\n        /* \"contracts/StemPayLotteryManager.sol\":4427:4489  require(l.isActive && !l.isCancelled, \"Inactive or cancelled\") */\n      tag_190\n        /* \"#utility.yul\":11823:12168   */\n      jump\n        /* \"contracts/StemPayLotteryManager.sol\":4427:4489  require(l.isActive && !l.isCancelled, \"Inactive or cancelled\") */\n    tag_235:\n        /* \"contracts/StemPayLotteryManager.sol\":4525:4526  l */\n      dup1\n        /* \"contracts/StemPayLotteryManager.sol\":4525:4535  l.drawTime */\n      0x04\n      add\n      sload\n        /* \"contracts/StemPayLotteryManager.sol\":4507:4522  block.timestamp */\n      timestamp\n        /* \"contracts/StemPayLotteryManager.sol\":4507:4535  block.timestamp < l.drawTime */\n      lt\n        /* \"contracts/StemPayLotteryManager.sol\":4499:4548  require(block.timestamp < l.drawTime, \"Too late\") */\n      tag_238\n      jumpi\n      mload(0x40)\n      shl(0xe5, 0x461bcd)\n      dup2\n      mstore\n        /* \"#utility.yul\":12375:12377   */\n      0x20\n        /* \"contracts/StemPayLotteryManager.sol\":4499:4548  require(block.timestamp < l.drawTime, \"Too late\") */\n      0x04\n      dup3\n      add\n        /* \"#utility.yul\":12357:12378   */\n      mstore\n        /* \"#utility.yul\":12414:12415   */\n      0x08\n        /* \"#utility.yul\":12394:12412   */\n      0x24\n      dup3\n      add\n        /* \"#utility.yul\":12387:12416   */\n      mstore\n      shl(0xc0, 0x546f6f206c617465)\n        /* \"#utility.yul\":12432:12450   */\n      0x44\n      dup3\n      add\n        /* \"#utility.yul\":12425:12463   */\n      mstore\n        /* \"#utility.yul\":12480:12498   */\n      0x64\n      add\n        /* \"contracts/StemPayLotteryManager.sol\":4499:4548  require(block.timestamp < l.drawTime, \"Too late\") */\n      tag_190\n        /* \"#utility.yul\":12173:12504   */\n      jump\n        /* \"contracts/StemPayLotteryManager.sol\":4499:4548  require(block.timestamp < l.drawTime, \"Too late\") */\n    tag_238:\n        /* \"contracts/StemPayLotteryManager.sol\":4590:4607  l.maxParticipants */\n      0x03\n      dup2\n      add\n      sload\n        /* \"contracts/StemPayLotteryManager.sol\":4566:4580  l.participants */\n      0x09\n      dup3\n      add\n        /* \"contracts/StemPayLotteryManager.sol\":4566:4587  l.participants.length */\n      sload\n        /* \"contracts/StemPayLotteryManager.sol\":4566:4607  l.participants.length < l.maxParticipants */\n      lt\n        /* \"contracts/StemPayLotteryManager.sol\":4558:4628  require(l.participants.length < l.maxParticipants, \"Max participants\") */\n      tag_241\n      jumpi\n      mload(0x40)\n      shl(0xe5, 0x461bcd)\n      dup2\n      mstore\n        /* \"#utility.yul\":12711:12713   */\n      0x20\n        /* \"contracts/StemPayLotteryManager.sol\":4558:4628  require(l.participants.length < l.maxParticipants, \"Max participants\") */\n      0x04\n      dup3\n      add\n        /* \"#utility.yul\":12693:12714   */\n      mstore\n        /* \"#utility.yul\":12750:12752   */\n      0x10\n        /* \"#utility.yul\":12730:12748   */\n      0x24\n      dup3\n      add\n        /* \"#utility.yul\":12723:12753   */\n      mstore\n      shl(0x80, 0x4d6178207061727469636970616e7473)\n        /* \"#utility.yul\":12769:12787   */\n      0x44\n      dup3\n      add\n        /* \"#utility.yul\":12762:12808   */\n      mstore\n        /* \"#utility.yul\":12825:12843   */\n      0x64\n      add\n        /* \"contracts/StemPayLotteryManager.sol\":4558:4628  require(l.participants.length < l.maxParticipants, \"Max participants\") */\n      tag_190\n        /* \"#utility.yul\":12509:12849   */\n      jump\n        /* \"contracts/StemPayLotteryManager.sol\":4558:4628  require(l.participants.length < l.maxParticipants, \"Max participants\") */\n    tag_241:\n        /* \"contracts/StemPayLotteryManager.sol\":4646:4660  l.tokenAddress */\n      dup1\n      sload\n      0x01\n        /* \"contracts/StemPayLotteryManager.sol\":4702:4720  l.participationFee */\n      dup3\n      add\n      sload\n        /* \"contracts/StemPayLotteryManager.sol\":4639:4721  IERC20(l.tokenAddress).transferFrom(msg.sender, address(this), l.participationFee) */\n      mload(0x40)\n      shl(0xe0, 0x23b872dd)\n      dup2\n      mstore\n        /* \"contracts/StemPayLotteryManager.sol\":4675:4685  msg.sender */\n      caller\n        /* \"contracts/StemPayLotteryManager.sol\":4639:4721  IERC20(l.tokenAddress).transferFrom(msg.sender, address(this), l.participationFee) */\n      0x04\n      dup3\n      add\n        /* \"#utility.yul\":10948:10999   */\n      mstore\n        /* \"contracts/StemPayLotteryManager.sol\":4695:4699  this */\n      address\n        /* \"#utility.yul\":11015:11033   */\n      0x24\n      dup3\n      add\n        /* \"#utility.yul\":11008:11068   */\n      mstore\n        /* \"#utility.yul\":11084:11102   */\n      0x44\n      dup2\n      add\n        /* \"#utility.yul\":11077:11111   */\n      swap2\n      swap1\n      swap2\n      mstore\n      sub(shl(0xa0, 0x01), 0x01)\n        /* \"contracts/StemPayLotteryManager.sol\":4646:4660  l.tokenAddress */\n      swap1\n      swap2\n      and\n      swap1\n        /* \"contracts/StemPayLotteryManager.sol\":4639:4674  IERC20(l.tokenAddress).transferFrom */\n      0x23b872dd\n      swap1\n        /* \"#utility.yul\":10921:10939   */\n      0x64\n      add\n        /* \"contracts/StemPayLotteryManager.sol\":4639:4721  IERC20(l.tokenAddress).transferFrom(msg.sender, address(this), l.participationFee) */\n      0x20\n      mload(0x40)\n      dup1\n      dup4\n      sub\n      dup2\n      0x00\n      dup8\n      gas\n      call\n      iszero\n      dup1\n      iszero\n      tag_246\n      jumpi\n      returndatacopy(0x00, 0x00, returndatasize)\n      revert(0x00, returndatasize)\n    tag_246:\n      pop\n      pop\n      pop\n      pop\n      mload(0x40)\n      returndatasize\n      not(0x1f)\n      0x1f\n      dup3\n      add\n      and\n      dup3\n      add\n      dup1\n      0x40\n      mstore\n      pop\n      dup2\n      add\n      swap1\n      tag_247\n      swap2\n      swap1\n      tag_223\n      jump\t// in\n    tag_247:\n      pop\n        /* \"contracts/StemPayLotteryManager.sol\":4732:4746  l.participants */\n      0x09\n      dup2\n      add\n        /* \"contracts/StemPayLotteryManager.sol\":4732:4763  l.participants.push(msg.sender) */\n      dup1\n      sload\n      0x01\n      dup2\n      add\n      dup3\n      sstore\n      0x00\n      swap2\n      dup3\n      mstore\n      0x20\n      dup1\n      dup4\n      keccak256\n      swap1\n      swap2\n      add\n      dup1\n      sload\n      not(sub(shl(0xa0, 0x01), 0x01))\n      and\n        /* \"contracts/StemPayLotteryManager.sol\":4752:4762  msg.sender */\n      caller\n        /* \"contracts/StemPayLotteryManager.sol\":4732:4763  l.participants.push(msg.sender) */\n      swap1\n      dup2\n      or\n      swap1\n      swap2\n      sstore\n        /* \"contracts/StemPayLotteryManager.sol\":4773:4797  l.entryCount[msg.sender] */\n      dup3\n      mstore\n        /* \"contracts/StemPayLotteryManager.sol\":4773:4785  l.entryCount */\n      0x0c\n      dup4\n      add\n        /* \"contracts/StemPayLotteryManager.sol\":4773:4797  l.entryCount[msg.sender] */\n      swap1\n      mstore\n      0x40\n      dup2\n      keccak256\n        /* \"contracts/StemPayLotteryManager.sol\":4773:4799  l.entryCount[msg.sender]++ */\n      dup1\n      sload\n      swap2\n      tag_249\n      dup4\n      tag_226\n      jump\t// in\n    tag_249:\n      swap1\n      swap2\n      sstore\n      pop\n      pop\n        /* \"contracts/StemPayLotteryManager.sol\":4815:4853  EnteredLottery(_lotteryId, msg.sender) */\n      0x40\n      dup1\n      mload\n        /* \"#utility.yul\":11718:11743   */\n      dup4\n      dup2\n      mstore\n        /* \"contracts/StemPayLotteryManager.sol\":4842:4852  msg.sender */\n      caller\n        /* \"#utility.yul\":11774:11776   */\n      0x20\n        /* \"#utility.yul\":11759:11777   */\n      dup3\n      add\n        /* \"#utility.yul\":11752:11812   */\n      mstore\n        /* \"contracts/StemPayLotteryManager.sol\":4815:4853  EnteredLottery(_lotteryId, msg.sender) */\n      0x1e28857182a3b2bb6fbb88287d1ba8cc3a941dd65d4c977286676d27b877a3d9\n      swap2\n        /* \"#utility.yul\":11691:11709   */\n      add\n        /* \"contracts/StemPayLotteryManager.sol\":4815:4853  EnteredLottery(_lotteryId, msg.sender) */\n      mload(0x40)\n      dup1\n      swap2\n      sub\n      swap1\n      log1\n        /* \"contracts/StemPayLotteryManager.sol\":4366:4860  {... */\n      pop\n        /* \"@openzeppelin/contracts/security/ReentrancyGuard.sol\":2303:2323  _nonReentrantAfter() */\n      tag_251\n        /* \"@openzeppelin/contracts/security/ReentrancyGuard.sol\":1716:1717  1 */\n      0x01\n        /* \"@openzeppelin/contracts/security/ReentrancyGuard.sol\":2809:2816  _status */\n      0x00\n        /* \"@openzeppelin/contracts/security/ReentrancyGuard.sol\":2809:2831  _status = _NOT_ENTERED */\n      sstore\n        /* \"@openzeppelin/contracts/security/ReentrancyGuard.sol\":2629:2838  function _nonReentrantAfter() private {... */\n      jump\n        /* \"@openzeppelin/contracts/security/ReentrancyGuard.sol\":2303:2323  _nonReentrantAfter() */\n    tag_251:\n        /* \"contracts/StemPayLotteryManager.sol\":4302:4860  function enterLottery(uint256 _lotteryId) external nonReentrant {... */\n      pop\n      jump\t// out\n        /* \"contracts/StemPayLotteryManager.sol\":3377:4296  function createLottery(... */\n    tag_88:\n        /* \"@openzeppelin/contracts-upgradeable/access/OwnableUpgradeable.sol\":2334:2347  _checkOwner() */\n      tag_253\n        /* \"@openzeppelin/contracts-upgradeable/access/OwnableUpgradeable.sol\":2334:2345  _checkOwner */\n      tag_254\n        /* \"@openzeppelin/contracts-upgradeable/access/OwnableUpgradeable.sol\":2334:2347  _checkOwner() */\n      jump\t// in\n    tag_253:\n        /* \"contracts/StemPayLotteryManager.sol\":3720:3737  _refundableAmount */\n      dup6\n        /* \"contracts/StemPayLotteryManager.sol\":3699:3716  _participationFee */\n      dup8\n        /* \"contracts/StemPayLotteryManager.sol\":3699:3737  _participationFee >= _refundableAmount */\n      lt\n      iszero\n        /* \"contracts/StemPayLotteryManager.sol\":3691:3755  require(_participationFee >= _refundableAmount, \"Refund <= fee\") */\n      tag_256\n      jumpi\n      mload(0x40)\n      shl(0xe5, 0x461bcd)\n      dup2\n      mstore\n        /* \"#utility.yul\":13056:13058   */\n      0x20\n        /* \"contracts/StemPayLotteryManager.sol\":3691:3755  require(_participationFee >= _refundableAmount, \"Refund <= fee\") */\n      0x04\n      dup3\n      add\n        /* \"#utility.yul\":13038:13059   */\n      mstore\n        /* \"#utility.yul\":13095:13097   */\n      0x0d\n        /* \"#utility.yul\":13075:13093   */\n      0x24\n      dup3\n      add\n        /* \"#utility.yul\":13068:13098   */\n      mstore\n      shl(0x98, 0x526566756e64203c3d20666565)\n        /* \"#utility.yul\":13114:13132   */\n      0x44\n      dup3\n      add\n        /* \"#utility.yul\":13107:13150   */\n      mstore\n        /* \"#utility.yul\":13167:13185   */\n      0x64\n      add\n        /* \"contracts/StemPayLotteryManager.sol\":3691:3755  require(_participationFee >= _refundableAmount, \"Refund <= fee\") */\n      tag_190\n        /* \"#utility.yul\":12854:13191   */\n      jump\n        /* \"contracts/StemPayLotteryManager.sol\":3691:3755  require(_participationFee >= _refundableAmount, \"Refund <= fee\") */\n    tag_256:\n        /* \"contracts/StemPayLotteryManager.sol\":3785:3800  block.timestamp */\n      timestamp\n        /* \"contracts/StemPayLotteryManager.sol\":3773:3782  _drawTime */\n      dup5\n        /* \"contracts/StemPayLotteryManager.sol\":3773:3800  _drawTime > block.timestamp */\n      gt\n        /* \"contracts/StemPayLotteryManager.sol\":3765:3822  require(_drawTime > block.timestamp, \"Invalid draw time\") */\n      tag_259\n      jumpi\n      mload(0x40)\n      shl(0xe5, 0x461bcd)\n      dup2\n      mstore\n        /* \"#utility.yul\":13398:13400   */\n      0x20\n        /* \"contracts/StemPayLotteryManager.sol\":3765:3822  require(_drawTime > block.timestamp, \"Invalid draw time\") */\n      0x04\n      dup3\n      add\n        /* \"#utility.yul\":13380:13401   */\n      mstore\n        /* \"#utility.yul\":13437:13439   */\n      0x11\n        /* \"#utility.yul\":13417:13435   */\n      0x24\n      dup3\n      add\n        /* \"#utility.yul\":13410:13440   */\n      mstore\n      shl(0x78, 0x496e76616c696420647261772074696d65)\n        /* \"#utility.yul\":13456:13474   */\n      0x44\n      dup3\n      add\n        /* \"#utility.yul\":13449:13496   */\n      mstore\n        /* \"#utility.yul\":13513:13531   */\n      0x64\n      add\n        /* \"contracts/StemPayLotteryManager.sol\":3765:3822  require(_drawTime > block.timestamp, \"Invalid draw time\") */\n      tag_190\n        /* \"#utility.yul\":13196:13537   */\n      jump\n        /* \"contracts/StemPayLotteryManager.sol\":3765:3822  require(_drawTime > block.timestamp, \"Invalid draw time\") */\n    tag_259:\n        /* \"contracts/StemPayLotteryManager.sol\":3833:3850  Lottery storage l */\n      0x00\n        /* \"contracts/StemPayLotteryManager.sol\":3853:3862  lotteries */\n      0x02\n        /* \"contracts/StemPayLotteryManager.sol\":3853:3880  lotteries[++lotteryCounter] */\n      0x00\n        /* \"contracts/StemPayLotteryManager.sol\":3865:3879  lotteryCounter */\n      0x03\n      0x00\n        /* \"contracts/StemPayLotteryManager.sol\":3863:3879  ++lotteryCounter */\n      dup2\n      sload\n      tag_262\n      swap1\n      tag_226\n      jump\t// in\n    tag_262:\n      swap2\n      dup3\n      swap1\n      sstore\n      pop\n        /* \"contracts/StemPayLotteryManager.sol\":3853:3880  lotteries[++lotteryCounter] */\n      dup2\n      mstore\n      0x20\n      dup1\n      dup3\n      add\n      swap3\n      swap1\n      swap3\n      mstore\n      0x40\n      swap1\n      dup2\n      add\n      0x00\n      keccak256\n        /* \"contracts/StemPayLotteryManager.sol\":3890:3920  l.tokenAddress = _tokenAddress */\n      dup1\n      sload\n      not(sub(shl(0xa0, 0x01), 0x01))\n      and\n      sub(shl(0xa0, 0x01), 0x01)\n      dup14\n      and\n      or\n      dup2\n      sstore\n      0x01\n        /* \"contracts/StemPayLotteryManager.sol\":3930:3948  l.participationFee */\n      dup1\n      dup3\n      add\n        /* \"contracts/StemPayLotteryManager.sol\":3930:3968  l.participationFee = _participationFee */\n      dup13\n      swap1\n      sstore\n        /* \"contracts/StemPayLotteryManager.sol\":3978:3996  l.refundableAmount */\n      0x02\n      dup3\n      add\n        /* \"contracts/StemPayLotteryManager.sol\":3978:4016  l.refundableAmount = _refundableAmount */\n      dup12\n      swap1\n      sstore\n        /* \"contracts/StemPayLotteryManager.sol\":4026:4043  l.maxParticipants */\n      0x03\n      dup1\n      dup4\n      add\n        /* \"contracts/StemPayLotteryManager.sol\":4026:4062  l.maxParticipants = _maxParticipants */\n      dup12\n      swap1\n      sstore\n        /* \"contracts/StemPayLotteryManager.sol\":4072:4082  l.drawTime */\n      0x04\n      dup4\n      add\n        /* \"contracts/StemPayLotteryManager.sol\":4072:4094  l.drawTime = _drawTime */\n      dup11\n      swap1\n      sstore\n        /* \"contracts/StemPayLotteryManager.sol\":4104:4117  l.prizeAmount */\n      0x05\n      dup4\n      add\n        /* \"contracts/StemPayLotteryManager.sol\":4104:4132  l.prizeAmount = _prizeAmount */\n      dup10\n      swap1\n      sstore\n        /* \"contracts/StemPayLotteryManager.sol\":4142:4159  l.feeToInvestment */\n      0x06\n      dup4\n      add\n        /* \"contracts/StemPayLotteryManager.sol\":4142:4178  l.feeToInvestment = _feeToInvestment */\n      dup9\n      swap1\n      sstore\n        /* \"contracts/StemPayLotteryManager.sol\":4188:4201  l.feeToProfit */\n      0x07\n      dup4\n      add\n        /* \"contracts/StemPayLotteryManager.sol\":4188:4216  l.feeToProfit = _feeToProfit */\n      dup8\n      swap1\n      sstore\n        /* \"contracts/StemPayLotteryManager.sol\":4226:4236  l.isActive */\n      0x08\n      dup4\n      add\n        /* \"contracts/StemPayLotteryManager.sol\":4226:4243  l.isActive = true */\n      dup1\n      sload\n      not(0xff)\n      and\n      swap1\n      swap3\n      or\n      swap1\n      swap2\n      sstore\n        /* \"contracts/StemPayLotteryManager.sol\":4274:4288  lotteryCounter */\n      sload\n        /* \"contracts/StemPayLotteryManager.sol\":4259:4289  LotteryCreated(lotteryCounter) */\n      swap2\n      mload\n        /* \"#utility.yul\":160:185   */\n      swap2\n      dup3\n      mstore\n        /* \"contracts/StemPayLotteryManager.sol\":3853:3880  lotteries[++lotteryCounter] */\n      swap3\n      pop\n        /* \"contracts/StemPayLotteryManager.sol\":4259:4289  LotteryCreated(lotteryCounter) */\n      0x9e0023bebcc752baaa41057318405b5a6a8e9c6372b519717cfdf238e5caa795\n      swap2\n        /* \"#utility.yul\":133:151   */\n      add\n        /* \"contracts/StemPayLotteryManager.sol\":4259:4289  LotteryCreated(lotteryCounter) */\n      mload(0x40)\n      dup1\n      swap2\n      sub\n      swap1\n      log1\n        /* \"contracts/StemPayLotteryManager.sol\":3681:4296  {... */\n      pop\n        /* \"contracts/StemPayLotteryManager.sol\":3377:4296  function createLottery(... */\n      pop\n      pop\n      pop\n      pop\n      pop\n      pop\n      pop\n      pop\n      jump\t// out\n        /* \"contracts/StemPayLotteryManager.sol\":6966:7227  function cancelLottery(uint256 _lotteryId) external onlyOwner {... */\n    tag_92:\n        /* \"@openzeppelin/contracts-upgradeable/access/OwnableUpgradeable.sol\":2334:2347  _checkOwner() */\n      tag_265\n        /* \"@openzeppelin/contracts-upgradeable/access/OwnableUpgradeable.sol\":2334:2345  _checkOwner */\n      tag_254\n        /* \"@openzeppelin/contracts-upgradeable/access/OwnableUpgradeable.sol\":2334:2347  _checkOwner() */\n      jump\t// in\n    tag_265:\n        /* \"contracts/StemPayLotteryManager.sol\":7038:7055  Lottery storage l */\n      0x00\n        /* \"contracts/StemPayLotteryManager.sol\":7058:7079  lotteries[_lotteryId] */\n      dup2\n      dup2\n      mstore\n        /* \"contracts/StemPayLotteryManager.sol\":7058:7067  lotteries */\n      0x02\n        /* \"contracts/StemPayLotteryManager.sol\":7058:7079  lotteries[_lotteryId] */\n      0x20\n      mstore\n      0x40\n      swap1\n      keccak256\n        /* \"contracts/StemPayLotteryManager.sol\":7098:7111  l.isCancelled */\n      0x08\n      dup2\n      add\n      sload\n      0x010000\n      swap1\n      div\n      0xff\n      and\n        /* \"contracts/StemPayLotteryManager.sol\":7097:7111  !l.isCancelled */\n      iszero\n        /* \"contracts/StemPayLotteryManager.sol\":7097:7125  !l.isCancelled && !l.isDrawn */\n      dup1\n      iszero\n      tag_267\n      jumpi\n      pop\n        /* \"contracts/StemPayLotteryManager.sol\":7116:7125  l.isDrawn */\n      0x08\n      dup2\n      add\n      sload\n      0x0100\n      swap1\n      div\n      0xff\n      and\n        /* \"contracts/StemPayLotteryManager.sol\":7115:7125  !l.isDrawn */\n      iszero\n        /* \"contracts/StemPayLotteryManager.sol\":7097:7125  !l.isCancelled && !l.isDrawn */\n    tag_267:\n        /* \"contracts/StemPayLotteryManager.sol\":7089:7147  require(!l.isCancelled && !l.isDrawn, \"Already finalized\") */\n      tag_268\n      jumpi\n      mload(0x40)\n      shl(0xe5, 0x461bcd)\n      dup2\n      mstore\n        /* \"#utility.yul\":13744:13746   */\n      0x20\n        /* \"contracts/StemPayLotteryManager.sol\":7089:7147  require(!l.isCancelled && !l.isDrawn, \"Already finalized\") */\n      0x04\n      dup3\n      add\n        /* \"#utility.yul\":13726:13747   */\n      mstore\n        /* \"#utility.yul\":13783:13785   */\n      0x11\n        /* \"#utility.yul\":13763:13781   */\n      0x24\n      dup3\n      add\n        /* \"#utility.yul\":13756:13786   */\n      mstore\n      shl(0x7a, 0x105b1c9958591e48199a5b985b1a5e9959)\n        /* \"#utility.yul\":13802:13820   */\n      0x44\n      dup3\n      add\n        /* \"#utility.yul\":13795:13842   */\n      mstore\n        /* \"#utility.yul\":13859:13877   */\n      0x64\n      add\n        /* \"contracts/StemPayLotteryManager.sol\":7089:7147  require(!l.isCancelled && !l.isDrawn, \"Already finalized\") */\n      tag_190\n        /* \"#utility.yul\":13542:13883   */\n      jump\n        /* \"contracts/StemPayLotteryManager.sol\":7089:7147  require(!l.isCancelled && !l.isDrawn, \"Already finalized\") */\n    tag_268:\n        /* \"contracts/StemPayLotteryManager.sol\":7157:7170  l.isCancelled */\n      0x08\n      dup2\n      add\n        /* \"contracts/StemPayLotteryManager.sol\":7157:7177  l.isCancelled = true */\n      dup1\n      sload\n      not(0xff0000)\n      and\n      0x010000\n      or\n      swap1\n      sstore\n        /* \"contracts/StemPayLotteryManager.sol\":7192:7220  LotteryCancelled(_lotteryId) */\n      mload(0x40)\n      0xc3dac690cf4c3ae8964f18b8f09f7f9a75d3962a8cbb7cd689df2c291bb5b2dd\n      swap1\n      tag_271\n      swap1\n        /* \"contracts/StemPayLotteryManager.sol\":7209:7219  _lotteryId */\n      dup5\n        /* \"#utility.yul\":160:185   */\n      dup2\n      mstore\n        /* \"#utility.yul\":148:150   */\n      0x20\n        /* \"#utility.yul\":133:151   */\n      add\n      swap1\n        /* \"#utility.yul\":14:191   */\n      jump\n        /* \"contracts/StemPayLotteryManager.sol\":7192:7220  LotteryCancelled(_lotteryId) */\n    tag_271:\n      mload(0x40)\n      dup1\n      swap2\n      sub\n      swap1\n      log1\n        /* \"contracts/StemPayLotteryManager.sol\":7028:7227  {... */\n      pop\n        /* \"contracts/StemPayLotteryManager.sol\":6966:7227  function cancelLottery(uint256 _lotteryId) external onlyOwner {... */\n      pop\n      jump\t// out\n        /* \"@openzeppelin/contracts-upgradeable/proxy/utils/UUPSUpgradeable.sol\":4161:4375  function upgradeToAndCall(address newImplementation, bytes memory data) public payable virtual onlyProxy {... */\n    tag_100:\n        /* \"@openzeppelin/contracts-upgradeable/proxy/utils/UUPSUpgradeable.sol\":2655:2668  _checkProxy() */\n      tag_273\n        /* \"@openzeppelin/contracts-upgradeable/proxy/utils/UUPSUpgradeable.sol\":2655:2666  _checkProxy */\n      tag_274\n        /* \"@openzeppelin/contracts-upgradeable/proxy/utils/UUPSUpgradeable.sol\":2655:2668  _checkProxy() */\n      jump\t// in\n    tag_273:\n        /* \"@openzeppelin/contracts-upgradeable/proxy/utils/UUPSUpgradeable.sol\":4276:4312  _authorizeUpgrade(newImplementation) */\n      tag_276\n        /* \"@openzeppelin/contracts-upgradeable/proxy/utils/UUPSUpgradeable.sol\":4294:4311  newImplementation */\n      dup3\n        /* \"@openzeppelin/contracts-upgradeable/proxy/utils/UUPSUpgradeable.sol\":4276:4293  _authorizeUpgrade */\n      tag_277\n        /* \"@openzeppelin/contracts-upgradeable/proxy/utils/UUPSUpgradeable.sol\":4276:4312  _authorizeUpgrade(newImplementation) */\n      jump\t// in\n    tag_276:\n        /* \"@openzeppelin/contracts-upgradeable/proxy/utils/UUPSUpgradeable.sol\":4322:4368  _upgradeToAndCallUUPS(newImplementation, data) */\n      tag_192\n        /* \"@openzeppelin/contracts-upgradeable/proxy/utils/UUPSUpgradeable.sol\":4344:4361  newImplementation */\n      dup3\n        /* \"@openzeppelin/contracts-upgradeable/proxy/utils/UUPSUpgradeable.sol\":4363:4367  data */\n      dup3\n        /* \"@openzeppelin/contracts-upgradeable/proxy/utils/UUPSUpgradeable.sol\":4322:4343  _upgradeToAndCallUUPS */\n      tag_279\n        /* \"@openzeppelin/contracts-upgradeable/proxy/utils/UUPSUpgradeable.sol\":4322:4368  _upgradeToAndCallUUPS(newImplementation, data) */\n      jump\t// in\n        /* \"@openzeppelin/contracts-upgradeable/proxy/utils/UUPSUpgradeable.sol\":3708:3842  function proxiableUUID() external view virtual notDelegated returns (bytes32) {... */\n    tag_103:\n        /* \"@openzeppelin/contracts-upgradeable/proxy/utils/UUPSUpgradeable.sol\":3777:3784  bytes32 */\n      0x00\n        /* \"@openzeppelin/contracts-upgradeable/proxy/utils/UUPSUpgradeable.sol\":2926:2946  _checkNotDelegated() */\n      tag_281\n        /* \"@openzeppelin/contracts-upgradeable/proxy/utils/UUPSUpgradeable.sol\":2926:2944  _checkNotDelegated */\n      tag_282\n        /* \"@openzeppelin/contracts-upgradeable/proxy/utils/UUPSUpgradeable.sol\":2926:2946  _checkNotDelegated() */\n      jump\t// in\n    tag_281:\n      pop\n      mload(0x00)\n      codecopy(0x00, data_75b20eef8615de99c108b05f0dbda081c91897128caa336d75dffb97c4132b4d, 0x20)\n      mload(0x00)\n      swap1\n      0x00\n      mstore\n        /* \"@openzeppelin/contracts-upgradeable/proxy/utils/UUPSUpgradeable.sol\":3708:3842  function proxiableUUID() external view virtual notDelegated returns (bytes32) {... */\n      swap1\n      jump\t// out\n        /* \"contracts/StemPayLotteryManager.sol\":7233:7745  function claimRefund(uint256 _lotteryId) external nonReentrant {... */\n    tag_109:\n        /* \"@openzeppelin/contracts/security/ReentrancyGuard.sol\":2261:2282  _nonReentrantBefore() */\n      tag_285\n        /* \"@openzeppelin/contracts/security/ReentrancyGuard.sol\":2261:2280  _nonReentrantBefore */\n      tag_196\n        /* \"@openzeppelin/contracts/security/ReentrancyGuard.sol\":2261:2282  _nonReentrantBefore() */\n      jump\t// in\n    tag_285:\n        /* \"contracts/StemPayLotteryManager.sol\":7306:7323  Lottery storage l */\n      0x00\n        /* \"contracts/StemPayLotteryManager.sol\":7326:7347  lotteries[_lotteryId] */\n      dup2\n      dup2\n      mstore\n        /* \"contracts/StemPayLotteryManager.sol\":7326:7335  lotteries */\n      0x02\n        /* \"contracts/StemPayLotteryManager.sol\":7326:7347  lotteries[_lotteryId] */\n      0x20\n      mstore\n      0x40\n      swap1\n      keccak256\n        /* \"contracts/StemPayLotteryManager.sol\":7365:7378  l.isCancelled */\n      0x08\n      dup2\n      add\n      sload\n      0x010000\n      swap1\n      div\n      0xff\n      and\n      dup1\n        /* \"contracts/StemPayLotteryManager.sol\":7365:7419  l.isCancelled || (l.isDrawn && l.winner != msg.sender) */\n      tag_288\n      jumpi\n      pop\n        /* \"contracts/StemPayLotteryManager.sol\":7383:7392  l.isDrawn */\n      0x08\n      dup2\n      add\n      sload\n      0x0100\n      swap1\n      div\n      0xff\n      and\n        /* \"contracts/StemPayLotteryManager.sol\":7383:7418  l.isDrawn && l.winner != msg.sender */\n      dup1\n      iszero\n      tag_288\n      jumpi\n      pop\n        /* \"contracts/StemPayLotteryManager.sol\":7396:7404  l.winner */\n      0x0a\n      dup2\n      add\n      sload\n      sub(shl(0xa0, 0x01), 0x01)\n      and\n        /* \"contracts/StemPayLotteryManager.sol\":7408:7418  msg.sender */\n      caller\n        /* \"contracts/StemPayLotteryManager.sol\":7396:7418  l.winner != msg.sender */\n      eq\n      iszero\n        /* \"contracts/StemPayLotteryManager.sol\":7383:7418  l.isDrawn && l.winner != msg.sender */\n    tag_288:\n        /* \"contracts/StemPayLotteryManager.sol\":7357:7436  require(l.isCancelled || (l.isDrawn && l.winner != msg.sender), \"Not eligible\") */\n      tag_289\n      jumpi\n      mload(0x40)\n      shl(0xe5, 0x461bcd)\n      dup2\n      mstore\n        /* \"#utility.yul\":14090:14092   */\n      0x20\n        /* \"contracts/StemPayLotteryManager.sol\":7357:7436  require(l.isCancelled || (l.isDrawn && l.winner != msg.sender), \"Not eligible\") */\n      0x04\n      dup3\n      add\n        /* \"#utility.yul\":14072:14093   */\n      mstore\n        /* \"#utility.yul\":14129:14131   */\n      0x0c\n        /* \"#utility.yul\":14109:14127   */\n      0x24\n      dup3\n      add\n        /* \"#utility.yul\":14102:14132   */\n      mstore\n      shl(0xa0, 0x4e6f7420656c696769626c65)\n        /* \"#utility.yul\":14148:14166   */\n      0x44\n      dup3\n      add\n        /* \"#utility.yul\":14141:14183   */\n      mstore\n        /* \"#utility.yul\":14200:14218   */\n      0x64\n      add\n        /* \"contracts/StemPayLotteryManager.sol\":7357:7436  require(l.isCancelled || (l.isDrawn && l.winner != msg.sender), \"Not eligible\") */\n      tag_190\n        /* \"#utility.yul\":13888:14224   */\n      jump\n        /* \"contracts/StemPayLotteryManager.sol\":7357:7436  require(l.isCancelled || (l.isDrawn && l.winner != msg.sender), \"Not eligible\") */\n    tag_289:\n        /* \"contracts/StemPayLotteryManager.sol\":7469:7479  msg.sender */\n      caller\n        /* \"contracts/StemPayLotteryManager.sol\":7455:7480  l.hasRefunded[msg.sender] */\n      0x00\n      swap1\n      dup2\n      mstore\n        /* \"contracts/StemPayLotteryManager.sol\":7455:7468  l.hasRefunded */\n      0x0e\n      dup3\n      add\n        /* \"contracts/StemPayLotteryManager.sol\":7455:7480  l.hasRefunded[msg.sender] */\n      0x20\n      mstore\n      0x40\n      swap1\n      keccak256\n      sload\n      0xff\n      and\n        /* \"contracts/StemPayLotteryManager.sol\":7454:7480  !l.hasRefunded[msg.sender] */\n      iszero\n        /* \"contracts/StemPayLotteryManager.sol\":7446:7501  require(!l.hasRefunded[msg.sender], \"Already refunded\") */\n      tag_292\n      jumpi\n      mload(0x40)\n      shl(0xe5, 0x461bcd)\n      dup2\n      mstore\n        /* \"#utility.yul\":14431:14433   */\n      0x20\n        /* \"contracts/StemPayLotteryManager.sol\":7446:7501  require(!l.hasRefunded[msg.sender], \"Already refunded\") */\n      0x04\n      dup3\n      add\n        /* \"#utility.yul\":14413:14434   */\n      mstore\n        /* \"#utility.yul\":14470:14472   */\n      0x10\n        /* \"#utility.yul\":14450:14468   */\n      0x24\n      dup3\n      add\n        /* \"#utility.yul\":14443:14473   */\n      mstore\n      shl(0x82, 0x105b1c9958591e481c99599d5b991959)\n        /* \"#utility.yul\":14489:14507   */\n      0x44\n      dup3\n      add\n        /* \"#utility.yul\":14482:14528   */\n      mstore\n        /* \"#utility.yul\":14545:14563   */\n      0x64\n      add\n        /* \"contracts/StemPayLotteryManager.sol\":7446:7501  require(!l.hasRefunded[msg.sender], \"Already refunded\") */\n      tag_190\n        /* \"#utility.yul\":14229:14569   */\n      jump\n        /* \"contracts/StemPayLotteryManager.sol\":7446:7501  require(!l.hasRefunded[msg.sender], \"Already refunded\") */\n    tag_292:\n        /* \"contracts/StemPayLotteryManager.sol\":7532:7542  msg.sender */\n      caller\n        /* \"contracts/StemPayLotteryManager.sol\":7546:7547  0 */\n      0x00\n        /* \"contracts/StemPayLotteryManager.sol\":7519:7543  l.entryCount[msg.sender] */\n      swap1\n      dup2\n      mstore\n        /* \"contracts/StemPayLotteryManager.sol\":7519:7531  l.entryCount */\n      0x0c\n      dup3\n      add\n        /* \"contracts/StemPayLotteryManager.sol\":7519:7543  l.entryCount[msg.sender] */\n      0x20\n      mstore\n      0x40\n      swap1\n      keccak256\n      sload\n        /* \"contracts/StemPayLotteryManager.sol\":7511:7562  require(l.entryCount[msg.sender] > 0, \"No entries\") */\n      tag_295\n      jumpi\n      mload(0x40)\n      shl(0xe5, 0x461bcd)\n      dup2\n      mstore\n        /* \"#utility.yul\":14776:14778   */\n      0x20\n        /* \"contracts/StemPayLotteryManager.sol\":7511:7562  require(l.entryCount[msg.sender] > 0, \"No entries\") */\n      0x04\n      dup3\n      add\n        /* \"#utility.yul\":14758:14779   */\n      mstore\n        /* \"#utility.yul\":14815:14817   */\n      0x0a\n        /* \"#utility.yul\":14795:14813   */\n      0x24\n      dup3\n      add\n        /* \"#utility.yul\":14788:14818   */\n      mstore\n      shl(0xb0, 0x4e6f20656e7472696573)\n        /* \"#utility.yul\":14834:14852   */\n      0x44\n      dup3\n      add\n        /* \"#utility.yul\":14827:14867   */\n      mstore\n        /* \"#utility.yul\":14884:14902   */\n      0x64\n      add\n        /* \"contracts/StemPayLotteryManager.sol\":7511:7562  require(l.entryCount[msg.sender] > 0, \"No entries\") */\n      tag_190\n        /* \"#utility.yul\":14574:14908   */\n      jump\n        /* \"contracts/StemPayLotteryManager.sol\":7511:7562  require(l.entryCount[msg.sender] > 0, \"No entries\") */\n    tag_295:\n        /* \"contracts/StemPayLotteryManager.sol\":7587:7597  msg.sender */\n      caller\n        /* \"contracts/StemPayLotteryManager.sol\":7573:7598  l.hasRefunded[msg.sender] */\n      0x00\n      swap1\n      dup2\n      mstore\n        /* \"contracts/StemPayLotteryManager.sol\":7573:7586  l.hasRefunded */\n      0x0e\n      dup3\n      add\n        /* \"contracts/StemPayLotteryManager.sol\":7573:7598  l.hasRefunded[msg.sender] */\n      0x20\n      swap1\n      dup2\n      mstore\n      0x40\n      dup1\n      dup4\n      keccak256\n        /* \"contracts/StemPayLotteryManager.sol\":7573:7605  l.hasRefunded[msg.sender] = true */\n      dup1\n      sload\n      not(0xff)\n      and\n        /* \"contracts/StemPayLotteryManager.sol\":7601:7605  true */\n      0x01\n        /* \"contracts/StemPayLotteryManager.sol\":7573:7605  l.hasRefunded[msg.sender] = true */\n      or\n      swap1\n      sstore\n        /* \"contracts/StemPayLotteryManager.sol\":7653:7665  l.entryCount */\n      0x0c\n      dup5\n      add\n        /* \"contracts/StemPayLotteryManager.sol\":7653:7677  l.entryCount[msg.sender] */\n      swap1\n      swap2\n      mstore\n      dup2\n      keccak256\n      sload\n        /* \"contracts/StemPayLotteryManager.sol\":7632:7650  l.refundableAmount */\n      0x02\n      dup4\n      add\n      sload\n        /* \"contracts/StemPayLotteryManager.sol\":7632:7677  l.refundableAmount * l.entryCount[msg.sender] */\n      tag_298\n      swap2\n        /* \"contracts/StemPayLotteryManager.sol\":7653:7677  l.entryCount[msg.sender] */\n      swap1\n        /* \"contracts/StemPayLotteryManager.sol\":7632:7677  l.refundableAmount * l.entryCount[msg.sender] */\n      tag_299\n      jump\t// in\n    tag_298:\n        /* \"contracts/StemPayLotteryManager.sol\":7694:7708  l.tokenAddress */\n      dup3\n      sload\n        /* \"contracts/StemPayLotteryManager.sol\":7687:7738  IERC20(l.tokenAddress).transfer(msg.sender, amount) */\n      mload(0x40)\n      shl(0xe0, 0xa9059cbb)\n      dup2\n      mstore\n        /* \"contracts/StemPayLotteryManager.sol\":7719:7729  msg.sender */\n      caller\n        /* \"contracts/StemPayLotteryManager.sol\":7687:7738  IERC20(l.tokenAddress).transfer(msg.sender, amount) */\n      0x04\n      dup3\n      add\n        /* \"#utility.yul\":15260:15311   */\n      mstore\n        /* \"#utility.yul\":15327:15345   */\n      0x24\n      dup2\n      add\n        /* \"#utility.yul\":15320:15354   */\n      dup4\n      swap1\n      mstore\n        /* \"contracts/StemPayLotteryManager.sol\":7615:7677  uint256 amount = l.refundableAmount * l.entryCount[msg.sender] */\n      swap2\n      swap3\n      pop\n      sub(shl(0xa0, 0x01), 0x01)\n        /* \"contracts/StemPayLotteryManager.sol\":7694:7708  l.tokenAddress */\n      and\n      swap1\n        /* \"contracts/StemPayLotteryManager.sol\":7687:7718  IERC20(l.tokenAddress).transfer */\n      0xa9059cbb\n      swap1\n        /* \"#utility.yul\":15233:15251   */\n      0x44\n      add\n        /* \"contracts/StemPayLotteryManager.sol\":7687:7738  IERC20(l.tokenAddress).transfer(msg.sender, amount) */\n      0x20\n      mload(0x40)\n      dup1\n      dup4\n      sub\n      dup2\n      0x00\n      dup8\n      gas\n      call\n      iszero\n      dup1\n      iszero\n      tag_303\n      jumpi\n      returndatacopy(0x00, 0x00, returndatasize)\n      revert(0x00, returndatasize)\n    tag_303:\n      pop\n      pop\n      pop\n      pop\n      mload(0x40)\n      returndatasize\n      not(0x1f)\n      0x1f\n      dup3\n      add\n      and\n      dup3\n      add\n      dup1\n      0x40\n      mstore\n      pop\n      dup2\n      add\n      swap1\n      tag_304\n      swap2\n      swap1\n      tag_223\n      jump\t// in\n    tag_304:\n      pop\n        /* \"contracts/StemPayLotteryManager.sol\":7296:7745  {... */\n      pop\n      pop\n        /* \"@openzeppelin/contracts/security/ReentrancyGuard.sol\":2303:2323  _nonReentrantAfter() */\n      tag_251\n        /* \"@openzeppelin/contracts/security/ReentrancyGuard.sol\":1716:1717  1 */\n      0x01\n        /* \"@openzeppelin/contracts/security/ReentrancyGuard.sol\":2809:2816  _status */\n      0x00\n        /* \"@openzeppelin/contracts/security/ReentrancyGuard.sol\":2809:2831  _status = _NOT_ENTERED */\n      sstore\n        /* \"@openzeppelin/contracts/security/ReentrancyGuard.sol\":2629:2838  function _nonReentrantAfter() private {... */\n      jump\n        /* \"contracts/StemPayLotteryManager.sol\":5329:6315  function drawWinner(uint256 _lotteryId) external onlyOwner {... */\n    tag_113:\n        /* \"@openzeppelin/contracts-upgradeable/access/OwnableUpgradeable.sol\":2334:2347  _checkOwner() */\n      tag_307\n        /* \"@openzeppelin/contracts-upgradeable/access/OwnableUpgradeable.sol\":2334:2345  _checkOwner */\n      tag_254\n        /* \"@openzeppelin/contracts-upgradeable/access/OwnableUpgradeable.sol\":2334:2347  _checkOwner() */\n      jump\t// in\n    tag_307:\n        /* \"contracts/StemPayLotteryManager.sol\":5398:5415  Lottery storage l */\n      0x00\n        /* \"contracts/StemPayLotteryManager.sol\":5418:5439  lotteries[_lotteryId] */\n      dup2\n      dup2\n      mstore\n        /* \"contracts/StemPayLotteryManager.sol\":5418:5427  lotteries */\n      0x02\n        /* \"contracts/StemPayLotteryManager.sol\":5418:5439  lotteries[_lotteryId] */\n      0x20\n      mstore\n      0x40\n      swap1\n      keccak256\n        /* \"contracts/StemPayLotteryManager.sol\":5476:5486  l.drawTime */\n      0x04\n      dup2\n      add\n      sload\n        /* \"contracts/StemPayLotteryManager.sol\":5457:5472  block.timestamp */\n      timestamp\n        /* \"contracts/StemPayLotteryManager.sol\":5457:5486  block.timestamp >= l.drawTime */\n      lt\n      iszero\n        /* \"contracts/StemPayLotteryManager.sol\":5449:5500  require(block.timestamp >= l.drawTime, \"Too early\") */\n      tag_309\n      jumpi\n      mload(0x40)\n      shl(0xe5, 0x461bcd)\n      dup2\n      mstore\n        /* \"#utility.yul\":15567:15569   */\n      0x20\n        /* \"contracts/StemPayLotteryManager.sol\":5449:5500  require(block.timestamp >= l.drawTime, \"Too early\") */\n      0x04\n      dup3\n      add\n        /* \"#utility.yul\":15549:15570   */\n      mstore\n        /* \"#utility.yul\":15606:15607   */\n      0x09\n        /* \"#utility.yul\":15586:15604   */\n      0x24\n      dup3\n      add\n        /* \"#utility.yul\":15579:15608   */\n      mstore\n      shl(0xb8, 0x546f6f206561726c79)\n        /* \"#utility.yul\":15624:15642   */\n      0x44\n      dup3\n      add\n        /* \"#utility.yul\":15617:15656   */\n      mstore\n        /* \"#utility.yul\":15673:15691   */\n      0x64\n      add\n        /* \"contracts/StemPayLotteryManager.sol\":5449:5500  require(block.timestamp >= l.drawTime, \"Too early\") */\n      tag_190\n        /* \"#utility.yul\":15365:15697   */\n      jump\n        /* \"contracts/StemPayLotteryManager.sol\":5449:5500  require(block.timestamp >= l.drawTime, \"Too early\") */\n    tag_309:\n        /* \"contracts/StemPayLotteryManager.sol\":5519:5528  l.isDrawn */\n      0x08\n      dup2\n      add\n      sload\n      0x0100\n      swap1\n      div\n      0xff\n      and\n        /* \"contracts/StemPayLotteryManager.sol\":5518:5528  !l.isDrawn */\n      iszero\n        /* \"contracts/StemPayLotteryManager.sol\":5518:5546  !l.isDrawn && !l.isCancelled */\n      dup1\n      iszero\n      tag_312\n      jumpi\n      pop\n        /* \"contracts/StemPayLotteryManager.sol\":5533:5546  l.isCancelled */\n      0x08\n      dup2\n      add\n      sload\n      0x010000\n      swap1\n      div\n      0xff\n      and\n        /* \"contracts/StemPayLotteryManager.sol\":5532:5546  !l.isCancelled */\n      iszero\n        /* \"contracts/StemPayLotteryManager.sol\":5518:5546  !l.isDrawn && !l.isCancelled */\n    tag_312:\n        /* \"contracts/StemPayLotteryManager.sol\":5510:5577  require(!l.isDrawn && !l.isCancelled, \"Already drawn or cancelled\") */\n      tag_313\n      jumpi\n      mload(0x40)\n      shl(0xe5, 0x461bcd)\n      dup2\n      mstore\n        /* \"#utility.yul\":15904:15906   */\n      0x20\n        /* \"contracts/StemPayLotteryManager.sol\":5510:5577  require(!l.isDrawn && !l.isCancelled, \"Already drawn or cancelled\") */\n      0x04\n      dup3\n      add\n        /* \"#utility.yul\":15886:15907   */\n      mstore\n        /* \"#utility.yul\":15943:15945   */\n      0x1a\n        /* \"#utility.yul\":15923:15941   */\n      0x24\n      dup3\n      add\n        /* \"#utility.yul\":15916:15946   */\n      mstore\n        /* \"#utility.yul\":15982:16010   */\n      0x416c726561647920647261776e206f722063616e63656c6c6564000000000000\n        /* \"#utility.yul\":15962:15980   */\n      0x44\n      dup3\n      add\n        /* \"#utility.yul\":15955:16011   */\n      mstore\n        /* \"#utility.yul\":16028:16046   */\n      0x64\n      add\n        /* \"contracts/StemPayLotteryManager.sol\":5510:5577  require(!l.isDrawn && !l.isCancelled, \"Already drawn or cancelled\") */\n      tag_190\n        /* \"#utility.yul\":15702:16052   */\n      jump\n        /* \"contracts/StemPayLotteryManager.sol\":5510:5577  require(!l.isDrawn && !l.isCancelled, \"Already drawn or cancelled\") */\n    tag_313:\n        /* \"contracts/StemPayLotteryManager.sol\":5595:5609  l.participants */\n      0x09\n      dup2\n      add\n        /* \"contracts/StemPayLotteryManager.sol\":5595:5616  l.participants.length */\n      sload\n        /* \"contracts/StemPayLotteryManager.sol\":5587:5640  require(l.participants.length > 0, \"No participants\") */\n      tag_316\n      jumpi\n      mload(0x40)\n      shl(0xe5, 0x461bcd)\n      dup2\n      mstore\n        /* \"#utility.yul\":16259:16261   */\n      0x20\n        /* \"contracts/StemPayLotteryManager.sol\":5587:5640  require(l.participants.length > 0, \"No participants\") */\n      0x04\n      dup3\n      add\n        /* \"#utility.yul\":16241:16262   */\n      mstore\n        /* \"#utility.yul\":16298:16300   */\n      0x0f\n        /* \"#utility.yul\":16278:16296   */\n      0x24\n      dup3\n      add\n        /* \"#utility.yul\":16271:16301   */\n      mstore\n      shl(0x88, 0x4e6f207061727469636970616e7473)\n        /* \"#utility.yul\":16317:16335   */\n      0x44\n      dup3\n      add\n        /* \"#utility.yul\":16310:16355   */\n      mstore\n        /* \"#utility.yul\":16372:16390   */\n      0x64\n      add\n        /* \"contracts/StemPayLotteryManager.sol\":5587:5640  require(l.participants.length > 0, \"No participants\") */\n      tag_190\n        /* \"#utility.yul\":16057:16396   */\n      jump\n        /* \"contracts/StemPayLotteryManager.sol\":5587:5640  require(l.participants.length > 0, \"No participants\") */\n    tag_316:\n        /* \"contracts/StemPayLotteryManager.sol\":5693:5707  vrfCoordinator */\n      sload(0x09)\n        /* \"contracts/StemPayLotteryManager.sol\":5741:6162  VRFV2PlusClient.RandomWordsRequest({... */\n      0x40\n      dup1\n      mload\n      0xc0\n      dup2\n      add\n      dup3\n      mstore\n        /* \"contracts/StemPayLotteryManager.sol\":5803:5810  keyHash */\n      sload(0x06)\n        /* \"contracts/StemPayLotteryManager.sol\":5741:6162  VRFV2PlusClient.RandomWordsRequest({... */\n      dup2\n      mstore\n        /* \"contracts/StemPayLotteryManager.sol\":5835:5849  subscriptionId */\n      sload(0x08)\n        /* \"contracts/StemPayLotteryManager.sol\":5741:6162  VRFV2PlusClient.RandomWordsRequest({... */\n      0x20\n      dup1\n      dup4\n      add\n      swap2\n      swap1\n      swap2\n      mstore\n        /* \"contracts/StemPayLotteryManager.sol\":5889:5909  requestConfirmations */\n      sload(0x07)\n      0xffff\n      0x0100000000\n      dup3\n      div\n      and\n        /* \"contracts/StemPayLotteryManager.sol\":5741:6162  VRFV2PlusClient.RandomWordsRequest({... */\n      dup4\n      dup6\n      add\n      mstore\n        /* \"contracts/StemPayLotteryManager.sol\":5945:5961  callbackGasLimit */\n      0xffffffff\n      dup1\n      dup3\n      and\n        /* \"contracts/StemPayLotteryManager.sol\":5741:6162  VRFV2PlusClient.RandomWordsRequest({... */\n      0x60\n      dup6\n      add\n      mstore\n        /* \"contracts/StemPayLotteryManager.sol\":5989:5997  numWords */\n      0x01000000000000\n      swap1\n      swap2\n      div\n      and\n        /* \"contracts/StemPayLotteryManager.sol\":5741:6162  VRFV2PlusClient.RandomWordsRequest({... */\n      0x80\n      dup4\n      add\n      mstore\n        /* \"contracts/StemPayLotteryManager.sol\":6076:6129  VRFV2PlusClient.ExtraArgsV1({ nativePayment: false }) */\n      dup3\n      mload\n      swap1\n      dup2\n      add\n      swap1\n      swap3\n      mstore\n        /* \"contracts/StemPayLotteryManager.sol\":5651:5668  uint256 requestId */\n      0x00\n        /* \"contracts/StemPayLotteryManager.sol\":6076:6129  VRFV2PlusClient.ExtraArgsV1({ nativePayment: false }) */\n      dup1\n      dup4\n      mstore\n        /* \"contracts/StemPayLotteryManager.sol\":5651:5668  uint256 requestId */\n      swap3\n      sub(shl(0xa0, 0x01), 0x01)\n        /* \"contracts/StemPayLotteryManager.sol\":5693:5707  vrfCoordinator */\n      and\n      swap2\n        /* \"contracts/StemPayLotteryManager.sol\":5671:5727  IVRFCoordinatorV2Plus(vrfCoordinator).requestRandomWords */\n      0x9b1c385e\n      swap2\n        /* \"contracts/StemPayLotteryManager.sol\":5741:6162  VRFV2PlusClient.RandomWordsRequest({... */\n      swap1\n      0xa0\n      dup3\n      add\n      swap1\n        /* \"contracts/StemPayLotteryManager.sol\":6026:6147  VRFV2PlusClient._argsToBytes(... */\n      tag_319\n      swap1\n        /* \"contracts/StemPayLotteryManager.sol\":6026:6054  VRFV2PlusClient._argsToBytes */\n      tag_320\n        /* \"contracts/StemPayLotteryManager.sol\":6026:6147  VRFV2PlusClient._argsToBytes(... */\n      jump\t// in\n    tag_319:\n        /* \"contracts/StemPayLotteryManager.sol\":5741:6162  VRFV2PlusClient.RandomWordsRequest({... */\n      dup2\n      mstore\n      pop\n        /* \"contracts/StemPayLotteryManager.sol\":5671:6172  IVRFCoordinatorV2Plus(vrfCoordinator).requestRandomWords(... */\n      mload(0x40)\n      dup3\n      0xffffffff\n      and\n      0xe0\n      shl\n      dup2\n      mstore\n      0x04\n      add\n      tag_321\n      swap2\n      swap1\n      tag_322\n      jump\t// in\n    tag_321:\n      0x20\n      mload(0x40)\n      dup1\n      dup4\n      sub\n      dup2\n      0x00\n      dup8\n      gas\n      call\n      iszero\n      dup1\n      iszero\n      tag_324\n      jumpi\n      returndatacopy(0x00, 0x00, returndatasize)\n      revert(0x00, returndatasize)\n    tag_324:\n      pop\n      pop\n      pop\n      pop\n      mload(0x40)\n      returndatasize\n      not(0x1f)\n      0x1f\n      dup3\n      add\n      and\n      dup3\n      add\n      dup1\n      0x40\n      mstore\n      pop\n      dup2\n      add\n      swap1\n      tag_325\n      swap2\n      swap1\n      tag_326\n      jump\t// in\n    tag_325:\n        /* \"contracts/StemPayLotteryManager.sol\":6183:6210  requestToLottery[requestId] */\n      0x00\n      dup2\n      dup2\n      mstore\n        /* \"contracts/StemPayLotteryManager.sol\":6183:6199  requestToLottery */\n      0x0a\n        /* \"contracts/StemPayLotteryManager.sol\":6183:6210  requestToLottery[requestId] */\n      0x20\n      mstore\n      0x40\n      swap1\n      dup2\n      swap1\n      keccak256\n        /* \"contracts/StemPayLotteryManager.sol\":6183:6223  requestToLottery[requestId] = _lotteryId */\n      dup6\n      swap1\n      sstore\n        /* \"contracts/StemPayLotteryManager.sol\":6233:6242  l.isDrawn */\n      0x08\n      dup5\n      add\n        /* \"contracts/StemPayLotteryManager.sol\":6233:6249  l.isDrawn = true */\n      dup1\n      sload\n      not(0xff00)\n      and\n      0x0100\n      or\n      swap1\n      sstore\n        /* \"contracts/StemPayLotteryManager.sol\":6265:6308  LotteryDrawRequested(_lotteryId, requestId) */\n      mload\n        /* \"contracts/StemPayLotteryManager.sol\":5651:6172  uint256 requestId = IVRFCoordinatorV2Plus(vrfCoordinator).requestRandomWords(... */\n      swap1\n      swap2\n      pop\n        /* \"contracts/StemPayLotteryManager.sol\":6265:6308  LotteryDrawRequested(_lotteryId, requestId) */\n      0x600253eae67a5c51c82a7123372e8644f16009c6304e18f844cf86fdc40c24d7\n      swap1\n      tag_327\n      swap1\n        /* \"contracts/StemPayLotteryManager.sol\":6213:6223  _lotteryId */\n      dup6\n      swap1\n        /* \"contracts/StemPayLotteryManager.sol\":5651:6172  uint256 requestId = IVRFCoordinatorV2Plus(vrfCoordinator).requestRandomWords(... */\n      dup5\n      swap1\n        /* \"#utility.yul\":17477:17502   */\n      swap2\n      dup3\n      mstore\n        /* \"#utility.yul\":17533:17535   */\n      0x20\n        /* \"#utility.yul\":17518:17536   */\n      dup3\n      add\n        /* \"#utility.yul\":17511:17545   */\n      mstore\n        /* \"#utility.yul\":17465:17467   */\n      0x40\n        /* \"#utility.yul\":17450:17468   */\n      add\n      swap1\n        /* \"#utility.yul\":17303:17551   */\n      jump\n        /* \"contracts/StemPayLotteryManager.sol\":6265:6308  LotteryDrawRequested(_lotteryId, requestId) */\n    tag_327:\n      mload(0x40)\n      dup1\n      swap2\n      sub\n      swap1\n      log1\n        /* \"contracts/StemPayLotteryManager.sol\":5388:6315  {... */\n      pop\n      pop\n        /* \"contracts/StemPayLotteryManager.sol\":5329:6315  function drawWinner(uint256 _lotteryId) external onlyOwner {... */\n      pop\n      jump\t// out\n        /* \"@openzeppelin/contracts-upgradeable/access/OwnableUpgradeable.sol\":3155:3256  function renounceOwnership() public virtual onlyOwner {... */\n    tag_120:\n        /* \"@openzeppelin/contracts-upgradeable/access/OwnableUpgradeable.sol\":2334:2347  _checkOwner() */\n      tag_330\n        /* \"@openzeppelin/contracts-upgradeable/access/OwnableUpgradeable.sol\":2334:2345  _checkOwner */\n      tag_254\n        /* \"@openzeppelin/contracts-upgradeable/access/OwnableUpgradeable.sol\":2334:2347  _checkOwner() */\n      jump\t// in\n    tag_330:\n        /* \"@openzeppelin/contracts-upgradeable/access/OwnableUpgradeable.sol\":3219:3249  _transferOwnership(address(0)) */\n      tag_332\n        /* \"@openzeppelin/contracts-upgradeable/access/OwnableUpgradeable.sol\":3246:3247  0 */\n      0x00\n        /* \"@openzeppelin/contracts-upgradeable/access/OwnableUpgradeable.sol\":3219:3237  _transferOwnership */\n      tag_333\n        /* \"@openzeppelin/contracts-upgradeable/access/OwnableUpgradeable.sol\":3219:3249  _transferOwnership(address(0)) */\n      jump\t// in\n    tag_332:\n        /* \"@openzeppelin/contracts-upgradeable/access/OwnableUpgradeable.sol\":3155:3256  function renounceOwnership() public virtual onlyOwner {... */\n      jump\t// out\n        /* \"contracts/StemPayLotteryManager.sol\":4866:5323  function voteCancel(uint256 _lotteryId) external {... */\n    tag_128:\n        /* \"contracts/StemPayLotteryManager.sol\":4925:4942  Lottery storage l */\n      0x00\n        /* \"contracts/StemPayLotteryManager.sol\":4945:4966  lotteries[_lotteryId] */\n      dup2\n      dup2\n      mstore\n        /* \"contracts/StemPayLotteryManager.sol\":4945:4954  lotteries */\n      0x02\n        /* \"contracts/StemPayLotteryManager.sol\":4945:4966  lotteries[_lotteryId] */\n      0x20\n      swap1\n      dup2\n      mstore\n      0x40\n      dup1\n      dup4\n      keccak256\n        /* \"contracts/StemPayLotteryManager.sol\":5002:5012  msg.sender */\n      caller\n        /* \"contracts/StemPayLotteryManager.sol\":4985:5013  l.hasVotedCancel[msg.sender] */\n      dup5\n      mstore\n        /* \"contracts/StemPayLotteryManager.sol\":4985:5001  l.hasVotedCancel */\n      0x0f\n      dup2\n      add\n        /* \"contracts/StemPayLotteryManager.sol\":4985:5013  l.hasVotedCancel[msg.sender] */\n      swap1\n      swap3\n      mstore\n      swap1\n      swap2\n      keccak256\n      sload\n      0xff\n      and\n        /* \"contracts/StemPayLotteryManager.sol\":4984:5013  !l.hasVotedCancel[msg.sender] */\n      iszero\n        /* \"contracts/StemPayLotteryManager.sol\":4976:5031  require(!l.hasVotedCancel[msg.sender], \"Already voted\") */\n      tag_335\n      jumpi\n      mload(0x40)\n      shl(0xe5, 0x461bcd)\n      dup2\n      mstore\n        /* \"#utility.yul\":17758:17760   */\n      0x20\n        /* \"contracts/StemPayLotteryManager.sol\":4976:5031  require(!l.hasVotedCancel[msg.sender], \"Already voted\") */\n      0x04\n      dup3\n      add\n        /* \"#utility.yul\":17740:17761   */\n      mstore\n        /* \"#utility.yul\":17797:17799   */\n      0x0d\n        /* \"#utility.yul\":17777:17795   */\n      0x24\n      dup3\n      add\n        /* \"#utility.yul\":17770:17800   */\n      mstore\n      shl(0x9a, 0x105b1c9958591e481d9bdd1959)\n        /* \"#utility.yul\":17816:17834   */\n      0x44\n      dup3\n      add\n        /* \"#utility.yul\":17809:17852   */\n      mstore\n        /* \"#utility.yul\":17869:17887   */\n      0x64\n      add\n        /* \"contracts/StemPayLotteryManager.sol\":4976:5031  require(!l.hasVotedCancel[msg.sender], \"Already voted\") */\n      tag_190\n        /* \"#utility.yul\":17556:17893   */\n      jump\n        /* \"contracts/StemPayLotteryManager.sol\":4976:5031  require(!l.hasVotedCancel[msg.sender], \"Already voted\") */\n    tag_335:\n        /* \"contracts/StemPayLotteryManager.sol\":5062:5072  msg.sender */\n      caller\n        /* \"contracts/StemPayLotteryManager.sol\":5076:5077  0 */\n      0x00\n        /* \"contracts/StemPayLotteryManager.sol\":5049:5073  l.entryCount[msg.sender] */\n      swap1\n      dup2\n      mstore\n        /* \"contracts/StemPayLotteryManager.sol\":5049:5061  l.entryCount */\n      0x0c\n      dup3\n      add\n        /* \"contracts/StemPayLotteryManager.sol\":5049:5073  l.entryCount[msg.sender] */\n      0x20\n      mstore\n      0x40\n      swap1\n      keccak256\n      sload\n        /* \"contracts/StemPayLotteryManager.sol\":5041:5096  require(l.entryCount[msg.sender] > 0, \"Not in lottery\") */\n      tag_338\n      jumpi\n      mload(0x40)\n      shl(0xe5, 0x461bcd)\n      dup2\n      mstore\n        /* \"#utility.yul\":18100:18102   */\n      0x20\n        /* \"contracts/StemPayLotteryManager.sol\":5041:5096  require(l.entryCount[msg.sender] > 0, \"Not in lottery\") */\n      0x04\n      dup3\n      add\n        /* \"#utility.yul\":18082:18103   */\n      mstore\n        /* \"#utility.yul\":18139:18141   */\n      0x0e\n        /* \"#utility.yul\":18119:18137   */\n      0x24\n      dup3\n      add\n        /* \"#utility.yul\":18112:18142   */\n      mstore\n      shl(0x90, 0x4e6f7420696e206c6f7474657279)\n        /* \"#utility.yul\":18158:18176   */\n      0x44\n      dup3\n      add\n        /* \"#utility.yul\":18151:18195   */\n      mstore\n        /* \"#utility.yul\":18212:18230   */\n      0x64\n      add\n        /* \"contracts/StemPayLotteryManager.sol\":5041:5096  require(l.entryCount[msg.sender] > 0, \"Not in lottery\") */\n      tag_190\n        /* \"#utility.yul\":17898:18236   */\n      jump\n        /* \"contracts/StemPayLotteryManager.sol\":5041:5096  require(l.entryCount[msg.sender] > 0, \"Not in lottery\") */\n    tag_338:\n        /* \"contracts/StemPayLotteryManager.sol\":5124:5134  msg.sender */\n      caller\n        /* \"contracts/StemPayLotteryManager.sol\":5107:5135  l.hasVotedCancel[msg.sender] */\n      0x00\n      swap1\n      dup2\n      mstore\n        /* \"contracts/StemPayLotteryManager.sol\":5107:5123  l.hasVotedCancel */\n      0x0f\n      dup3\n      add\n        /* \"contracts/StemPayLotteryManager.sol\":5107:5135  l.hasVotedCancel[msg.sender] */\n      0x20\n      mstore\n      0x40\n      dup2\n      keccak256\n        /* \"contracts/StemPayLotteryManager.sol\":5107:5142  l.hasVotedCancel[msg.sender] = true */\n      dup1\n      sload\n      not(0xff)\n      and\n        /* \"contracts/StemPayLotteryManager.sol\":5138:5142  true */\n      0x01\n        /* \"contracts/StemPayLotteryManager.sol\":5107:5142  l.hasVotedCancel[msg.sender] = true */\n      or\n      swap1\n      sstore\n        /* \"contracts/StemPayLotteryManager.sol\":5152:5163  l.voteCount */\n      0x0b\n      dup3\n      add\n        /* \"contracts/StemPayLotteryManager.sol\":5152:5165  l.voteCount++ */\n      dup1\n      sload\n      swap2\n      tag_341\n      dup4\n      tag_226\n      jump\t// in\n    tag_341:\n      swap1\n      swap2\n      sstore\n      pop\n      pop\n        /* \"contracts/StemPayLotteryManager.sol\":5198:5212  l.participants */\n      0x09\n      dup2\n      add\n        /* \"contracts/StemPayLotteryManager.sol\":5198:5219  l.participants.length */\n      sload\n        /* \"contracts/StemPayLotteryManager.sol\":5198:5223  l.participants.length * 2 */\n      tag_342\n      swap1\n        /* \"contracts/StemPayLotteryManager.sol\":5222:5223  2 */\n      0x02\n        /* \"contracts/StemPayLotteryManager.sol\":5198:5223  l.participants.length * 2 */\n      tag_299\n      jump\t// in\n    tag_342:\n        /* \"contracts/StemPayLotteryManager.sol\":5179:5190  l.voteCount */\n      0x0b\n      dup3\n      add\n      sload\n        /* \"contracts/StemPayLotteryManager.sol\":5179:5194  l.voteCount * 3 */\n      tag_343\n      swap1\n        /* \"contracts/StemPayLotteryManager.sol\":5193:5194  3 */\n      0x03\n        /* \"contracts/StemPayLotteryManager.sol\":5179:5194  l.voteCount * 3 */\n      tag_299\n      jump\t// in\n    tag_343:\n        /* \"contracts/StemPayLotteryManager.sol\":5179:5223  l.voteCount * 3 >= l.participants.length * 2 */\n      lt\n        /* \"contracts/StemPayLotteryManager.sol\":5175:5317  if (l.voteCount * 3 >= l.participants.length * 2) {... */\n      tag_192\n      jumpi\n        /* \"contracts/StemPayLotteryManager.sol\":5239:5252  l.isCancelled */\n      0x08\n      dup2\n      add\n        /* \"contracts/StemPayLotteryManager.sol\":5239:5259  l.isCancelled = true */\n      dup1\n      sload\n      not(0xff0000)\n      and\n      0x010000\n      or\n      swap1\n      sstore\n        /* \"contracts/StemPayLotteryManager.sol\":5278:5306  LotteryCancelled(_lotteryId) */\n      mload(0x40)\n      0xc3dac690cf4c3ae8964f18b8f09f7f9a75d3962a8cbb7cd689df2c291bb5b2dd\n      swap1\n      tag_271\n      swap1\n        /* \"contracts/StemPayLotteryManager.sol\":5295:5305  _lotteryId */\n      dup5\n        /* \"#utility.yul\":160:185   */\n      dup2\n      mstore\n        /* \"#utility.yul\":148:150   */\n      0x20\n        /* \"#utility.yul\":133:151   */\n      add\n      swap1\n        /* \"#utility.yul\":14:191   */\n      jump\n        /* \"contracts/StemPayLotteryManager.sol\":8105:8215  function clearLotteryData(uint256 _lotteryId) external onlyOwner {... */\n    tag_132:\n        /* \"@openzeppelin/contracts-upgradeable/access/OwnableUpgradeable.sol\":2334:2347  _checkOwner() */\n      tag_347\n        /* \"@openzeppelin/contracts-upgradeable/access/OwnableUpgradeable.sol\":2334:2345  _checkOwner */\n      tag_254\n        /* \"@openzeppelin/contracts-upgradeable/access/OwnableUpgradeable.sol\":2334:2347  _checkOwner() */\n      jump\t// in\n    tag_347:\n        /* \"contracts/StemPayLotteryManager.sol\":8187:8208  lotteries[_lotteryId] */\n      0x00\n      dup2\n      dup2\n      mstore\n        /* \"contracts/StemPayLotteryManager.sol\":8187:8196  lotteries */\n      0x02\n        /* \"contracts/StemPayLotteryManager.sol\":8187:8208  lotteries[_lotteryId] */\n      0x20\n      dup2\n      swap1\n      mstore\n      0x40\n      dup3\n      keccak256\n        /* \"contracts/StemPayLotteryManager.sol\":8180:8208  delete lotteries[_lotteryId] */\n      dup1\n      sload\n      not(sub(shl(0xa0, 0x01), 0x01))\n      and\n      dup2\n      sstore\n      0x01\n      dup2\n      add\n      dup4\n      swap1\n      sstore\n      swap1\n      dup2\n      add\n      dup3\n      swap1\n      sstore\n      0x03\n      dup2\n      add\n      dup3\n      swap1\n      sstore\n      0x04\n      dup2\n      add\n      dup3\n      swap1\n      sstore\n      0x05\n      dup2\n      add\n      dup3\n      swap1\n      sstore\n      0x06\n      dup2\n      add\n      dup3\n      swap1\n      sstore\n      0x07\n      dup2\n      add\n      dup3\n      swap1\n      sstore\n      0x08\n      dup2\n      add\n      dup1\n      sload\n      not(0xffffff)\n      and\n      swap1\n      sstore\n        /* \"contracts/StemPayLotteryManager.sol\":8187:8208  lotteries[_lotteryId] */\n      swap1\n        /* \"contracts/StemPayLotteryManager.sol\":8180:8208  delete lotteries[_lotteryId] */\n      tag_349\n      0x09\n      dup4\n      add\n        /* \"contracts/StemPayLotteryManager.sol\":8187:8208  lotteries[_lotteryId] */\n      dup3\n        /* \"contracts/StemPayLotteryManager.sol\":8180:8208  delete lotteries[_lotteryId] */\n      tag_350\n      jump\t// in\n    tag_349:\n      pop\n      0x0a\n      dup2\n      add\n      dup1\n      sload\n      not(sub(shl(0xa0, 0x01), 0x01))\n      and\n      swap1\n      sstore\n      0x00\n      0x0b\n      swap1\n      swap2\n      add\n      sstore\n      pop\n        /* \"contracts/StemPayLotteryManager.sol\":8105:8215  function clearLotteryData(uint256 _lotteryId) external onlyOwner {... */\n      jump\t// out\n        /* \"contracts/StemPayLotteryManager.sol\":8221:8365  function getParticipants(uint256 _lotteryId) external view returns (address[] memory) {... */\n    tag_158:\n        /* \"contracts/StemPayLotteryManager.sol\":8324:8345  lotteries[_lotteryId] */\n      0x00\n      dup2\n      dup2\n      mstore\n        /* \"contracts/StemPayLotteryManager.sol\":8324:8333  lotteries */\n      0x02\n        /* \"contracts/StemPayLotteryManager.sol\":8324:8345  lotteries[_lotteryId] */\n      0x20\n      swap1\n      dup2\n      mstore\n      0x40\n      swap2\n      dup3\n      swap1\n      keccak256\n        /* \"contracts/StemPayLotteryManager.sol\":8324:8358  lotteries[_lotteryId].participants */\n      0x09\n      add\n        /* \"contracts/StemPayLotteryManager.sol\":8317:8358  return lotteries[_lotteryId].participants */\n      dup1\n      sload\n      dup4\n      mload\n      dup2\n      dup5\n      mul\n      dup2\n      add\n      dup5\n      add\n      swap1\n      swap5\n      mstore\n      dup1\n      dup5\n      mstore\n        /* \"contracts/StemPayLotteryManager.sol\":8289:8305  address[] memory */\n      0x60\n      swap4\n        /* \"contracts/StemPayLotteryManager.sol\":8317:8358  return lotteries[_lotteryId].participants */\n      swap3\n      dup4\n      add\n        /* \"contracts/StemPayLotteryManager.sol\":8324:8358  lotteries[_lotteryId].participants */\n      dup3\n        /* \"contracts/StemPayLotteryManager.sol\":8317:8358  return lotteries[_lotteryId].participants */\n      dup3\n      dup1\n      iszero\n      tag_355\n      jumpi\n      0x20\n      mul\n      dup3\n      add\n      swap2\n      swap1\n      0x00\n      mstore\n      keccak256(0x00, 0x20)\n      swap1\n    tag_356:\n      dup2\n      sload\n      sub(shl(0xa0, 0x01), 0x01)\n      and\n      dup2\n      mstore\n      0x01\n      swap1\n      swap2\n      add\n      swap1\n      0x20\n      add\n      dup1\n      dup4\n      gt\n      tag_356\n      jumpi\n    tag_355:\n      pop\n      pop\n      pop\n      pop\n      pop\n      swap1\n      pop\n        /* \"contracts/StemPayLotteryManager.sol\":8221:8365  function getParticipants(uint256 _lotteryId) external view returns (address[] memory) {... */\n      swap2\n      swap1\n      pop\n      jump\t// out\n        /* \"contracts/StemPayLotteryManager.sol\":7751:8099  function claimPrize(uint256 _lotteryId) external nonReentrant {... */\n    tag_164:\n        /* \"@openzeppelin/contracts/security/ReentrancyGuard.sol\":2261:2282  _nonReentrantBefore() */\n      tag_358\n        /* \"@openzeppelin/contracts/security/ReentrancyGuard.sol\":2261:2280  _nonReentrantBefore */\n      tag_196\n        /* \"@openzeppelin/contracts/security/ReentrancyGuard.sol\":2261:2282  _nonReentrantBefore() */\n      jump\t// in\n    tag_358:\n        /* \"contracts/StemPayLotteryManager.sol\":7823:7840  Lottery storage l */\n      0x00\n        /* \"contracts/StemPayLotteryManager.sol\":7843:7864  lotteries[_lotteryId] */\n      dup2\n      dup2\n      mstore\n        /* \"contracts/StemPayLotteryManager.sol\":7843:7852  lotteries */\n      0x02\n        /* \"contracts/StemPayLotteryManager.sol\":7843:7864  lotteries[_lotteryId] */\n      0x20\n      mstore\n      0x40\n      swap1\n      keccak256\n        /* \"contracts/StemPayLotteryManager.sol\":7882:7890  l.winner */\n      0x0a\n      dup2\n      add\n      sload\n      sub(shl(0xa0, 0x01), 0x01)\n      and\n        /* \"contracts/StemPayLotteryManager.sol\":7894:7904  msg.sender */\n      caller\n        /* \"contracts/StemPayLotteryManager.sol\":7882:7904  l.winner == msg.sender */\n      eq\n        /* \"contracts/StemPayLotteryManager.sol\":7874:7919  require(l.winner == msg.sender, \"Not winner\") */\n      tag_360\n      jumpi\n      mload(0x40)\n      shl(0xe5, 0x461bcd)\n      dup2\n      mstore\n        /* \"#utility.yul\":18443:18445   */\n      0x20\n        /* \"contracts/StemPayLotteryManager.sol\":7874:7919  require(l.winner == msg.sender, \"Not winner\") */\n      0x04\n      dup3\n      add\n        /* \"#utility.yul\":18425:18446   */\n      mstore\n        /* \"#utility.yul\":18482:18484   */\n      0x0a\n        /* \"#utility.yul\":18462:18480   */\n      0x24\n      dup3\n      add\n        /* \"#utility.yul\":18455:18485   */\n      mstore\n      shl(0xb1, 0x2737ba103bb4b73732b9)\n        /* \"#utility.yul\":18501:18519   */\n      0x44\n      dup3\n      add\n        /* \"#utility.yul\":18494:18534   */\n      mstore\n        /* \"#utility.yul\":18551:18569   */\n      0x64\n      add\n        /* \"contracts/StemPayLotteryManager.sol\":7874:7919  require(l.winner == msg.sender, \"Not winner\") */\n      tag_190\n        /* \"#utility.yul\":18241:18575   */\n      jump\n        /* \"contracts/StemPayLotteryManager.sol\":7874:7919  require(l.winner == msg.sender, \"Not winner\") */\n    tag_360:\n        /* \"contracts/StemPayLotteryManager.sol\":7951:7961  msg.sender */\n      caller\n        /* \"contracts/StemPayLotteryManager.sol\":7938:7962  l.hasClaimed[msg.sender] */\n      0x00\n      swap1\n      dup2\n      mstore\n        /* \"contracts/StemPayLotteryManager.sol\":7938:7950  l.hasClaimed */\n      0x0d\n      dup3\n      add\n        /* \"contracts/StemPayLotteryManager.sol\":7938:7962  l.hasClaimed[msg.sender] */\n      0x20\n      mstore\n      0x40\n      swap1\n      keccak256\n      sload\n      0xff\n      and\n        /* \"contracts/StemPayLotteryManager.sol\":7937:7962  !l.hasClaimed[msg.sender] */\n      iszero\n        /* \"contracts/StemPayLotteryManager.sol\":7929:7982  require(!l.hasClaimed[msg.sender], \"Already claimed\") */\n      tag_363\n      jumpi\n      mload(0x40)\n      shl(0xe5, 0x461bcd)\n      dup2\n      mstore\n        /* \"#utility.yul\":18782:18784   */\n      0x20\n        /* \"contracts/StemPayLotteryManager.sol\":7929:7982  require(!l.hasClaimed[msg.sender], \"Already claimed\") */\n      0x04\n      dup3\n      add\n        /* \"#utility.yul\":18764:18785   */\n      mstore\n        /* \"#utility.yul\":18821:18823   */\n      0x0f\n        /* \"#utility.yul\":18801:18819   */\n      0x24\n      dup3\n      add\n        /* \"#utility.yul\":18794:18824   */\n      mstore\n      shl(0x8a, 0x105b1c9958591e4818db185a5b5959)\n        /* \"#utility.yul\":18840:18858   */\n      0x44\n      dup3\n      add\n        /* \"#utility.yul\":18833:18878   */\n      mstore\n        /* \"#utility.yul\":18895:18913   */\n      0x64\n      add\n        /* \"contracts/StemPayLotteryManager.sol\":7929:7982  require(!l.hasClaimed[msg.sender], \"Already claimed\") */\n      tag_190\n        /* \"#utility.yul\":18580:18919   */\n      jump\n        /* \"contracts/StemPayLotteryManager.sol\":7929:7982  require(!l.hasClaimed[msg.sender], \"Already claimed\") */\n    tag_363:\n        /* \"contracts/StemPayLotteryManager.sol\":8006:8016  msg.sender */\n      caller\n        /* \"contracts/StemPayLotteryManager.sol\":7993:8017  l.hasClaimed[msg.sender] */\n      0x00\n      dup2\n      dup2\n      mstore\n        /* \"contracts/StemPayLotteryManager.sol\":7993:8005  l.hasClaimed */\n      0x0d\n      dup4\n      add\n        /* \"contracts/StemPayLotteryManager.sol\":7993:8017  l.hasClaimed[msg.sender] */\n      0x20\n      mstore\n      0x40\n      swap1\n      dup2\n      swap1\n      keccak256\n        /* \"contracts/StemPayLotteryManager.sol\":7993:8024  l.hasClaimed[msg.sender] = true */\n      dup1\n      sload\n      not(0xff)\n      and\n        /* \"contracts/StemPayLotteryManager.sol\":8020:8024  true */\n      0x01\n        /* \"contracts/StemPayLotteryManager.sol\":7993:8024  l.hasClaimed[msg.sender] = true */\n      or\n      swap1\n      sstore\n        /* \"contracts/StemPayLotteryManager.sol\":8041:8055  l.tokenAddress */\n      dup3\n      sload\n        /* \"contracts/StemPayLotteryManager.sol\":8078:8091  l.prizeAmount */\n      0x05\n      dup5\n      add\n      sload\n        /* \"contracts/StemPayLotteryManager.sol\":8034:8092  IERC20(l.tokenAddress).transfer(msg.sender, l.prizeAmount) */\n      swap2\n      mload\n      shl(0xe0, 0xa9059cbb)\n      dup2\n      mstore\n      0x04\n      dup2\n      add\n        /* \"#utility.yul\":15260:15311   */\n      swap4\n      swap1\n      swap4\n      mstore\n        /* \"#utility.yul\":15327:15345   */\n      0x24\n      dup4\n      add\n        /* \"#utility.yul\":15320:15354   */\n      swap2\n      swap1\n      swap2\n      mstore\n      sub(shl(0xa0, 0x01), 0x01)\n        /* \"contracts/StemPayLotteryManager.sol\":8041:8055  l.tokenAddress */\n      and\n      swap1\n        /* \"contracts/StemPayLotteryManager.sol\":8034:8065  IERC20(l.tokenAddress).transfer */\n      0xa9059cbb\n      swap1\n        /* \"#utility.yul\":15233:15251   */\n      0x44\n      add\n        /* \"contracts/StemPayLotteryManager.sol\":8034:8092  IERC20(l.tokenAddress).transfer(msg.sender, l.prizeAmount) */\n      0x20\n      mload(0x40)\n      dup1\n      dup4\n      sub\n      dup2\n      0x00\n      dup8\n      gas\n      call\n      iszero\n      dup1\n      iszero\n      tag_368\n      jumpi\n      returndatacopy(0x00, 0x00, returndatasize)\n      revert(0x00, returndatasize)\n    tag_368:\n      pop\n      pop\n      pop\n      pop\n      mload(0x40)\n      returndatasize\n      not(0x1f)\n      0x1f\n      dup3\n      add\n      and\n      dup3\n      add\n      dup1\n      0x40\n      mstore\n      pop\n      dup2\n      add\n      swap1\n      tag_369\n      swap2\n      swap1\n      tag_223\n      jump\t// in\n    tag_369:\n      pop\n        /* \"contracts/StemPayLotteryManager.sol\":7813:8099  {... */\n      pop\n        /* \"@openzeppelin/contracts/security/ReentrancyGuard.sol\":2303:2323  _nonReentrantAfter() */\n      tag_251\n        /* \"@openzeppelin/contracts/security/ReentrancyGuard.sol\":1716:1717  1 */\n      0x01\n        /* \"@openzeppelin/contracts/security/ReentrancyGuard.sol\":2809:2816  _status */\n      0x00\n        /* \"@openzeppelin/contracts/security/ReentrancyGuard.sol\":2809:2831  _status = _NOT_ENTERED */\n      sstore\n        /* \"@openzeppelin/contracts/security/ReentrancyGuard.sol\":2629:2838  function _nonReentrantAfter() private {... */\n      jump\n        /* \"@openzeppelin/contracts-upgradeable/access/OwnableUpgradeable.sol\":3405:3620  function transferOwnership(address newOwner) public virtual onlyOwner {... */\n    tag_169:\n        /* \"@openzeppelin/contracts-upgradeable/access/OwnableUpgradeable.sol\":2334:2347  _checkOwner() */\n      tag_372\n        /* \"@openzeppelin/contracts-upgradeable/access/OwnableUpgradeable.sol\":2334:2345  _checkOwner */\n      tag_254\n        /* \"@openzeppelin/contracts-upgradeable/access/OwnableUpgradeable.sol\":2334:2347  _checkOwner() */\n      jump\t// in\n    tag_372:\n      sub(shl(0xa0, 0x01), 0x01)\n        /* \"@openzeppelin/contracts-upgradeable/access/OwnableUpgradeable.sol\":3489:3511  newOwner == address(0) */\n      dup2\n      and\n        /* \"@openzeppelin/contracts-upgradeable/access/OwnableUpgradeable.sol\":3485:3576  if (newOwner == address(0)) {... */\n      tag_374\n      jumpi\n        /* \"@openzeppelin/contracts-upgradeable/access/OwnableUpgradeable.sol\":3534:3565  OwnableInvalidOwner(address(0)) */\n      mload(0x40)\n      shl(0xe0, 0x1e4fbdf7)\n      dup2\n      mstore\n        /* \"@openzeppelin/contracts-upgradeable/access/OwnableUpgradeable.sol\":3562:3563  0 */\n      0x00\n        /* \"@openzeppelin/contracts-upgradeable/access/OwnableUpgradeable.sol\":3534:3565  OwnableInvalidOwner(address(0)) */\n      0x04\n      dup3\n      add\n        /* \"#utility.yul\":4028:4079   */\n      mstore\n        /* \"#utility.yul\":4001:4019   */\n      0x24\n      add\n        /* \"@openzeppelin/contracts-upgradeable/access/OwnableUpgradeable.sol\":3534:3565  OwnableInvalidOwner(address(0)) */\n      tag_190\n        /* \"#utility.yul\":3882:4085   */\n      jump\n        /* \"@openzeppelin/contracts-upgradeable/access/OwnableUpgradeable.sol\":3485:3576  if (newOwner == address(0)) {... */\n    tag_374:\n        /* \"@openzeppelin/contracts-upgradeable/access/OwnableUpgradeable.sol\":3585:3613  _transferOwnership(newOwner) */\n      tag_251\n        /* \"@openzeppelin/contracts-upgradeable/access/OwnableUpgradeable.sol\":3604:3612  newOwner */\n      dup2\n        /* \"@openzeppelin/contracts-upgradeable/access/OwnableUpgradeable.sol\":3585:3603  _transferOwnership */\n      tag_333\n        /* \"@openzeppelin/contracts-upgradeable/access/OwnableUpgradeable.sol\":3585:3613  _transferOwnership(newOwner) */\n      jump\t// in\n        /* \"@openzeppelin/contracts-upgradeable/proxy/utils/Initializable.sol\":9071:9276  function _getInitializableStorage() private pure returns (InitializableStorage storage $) {... */\n    tag_172:\n        /* \"@openzeppelin/contracts-upgradeable/proxy/utils/Initializable.sol\":9129:9159  InitializableStorage storage $ */\n      0x00\n      dup1\n        /* \"@openzeppelin/contracts-upgradeable/proxy/utils/Initializable.sol\":3147:3213  0xf0c57e16840df040f15088dc2f81fe391c3923bec73e23a9662efc9c229c6a00 */\n      0xf0c57e16840df040f15088dc2f81fe391c3923bec73e23a9662efc9c229c6a00\n        /* \"@openzeppelin/contracts-upgradeable/proxy/utils/Initializable.sol\":9186:9213  _initializableStorageSlot() */\n    tag_378:\n        /* \"@openzeppelin/contracts-upgradeable/proxy/utils/Initializable.sol\":9171:9213  bytes32 slot = _initializableStorageSlot() */\n      swap3\n        /* \"@openzeppelin/contracts-upgradeable/proxy/utils/Initializable.sol\":9071:9276  function _getInitializableStorage() private pure returns (InitializableStorage storage $) {... */\n      swap2\n      pop\n      pop\n      jump\t// out\n        /* \"@openzeppelin/contracts-upgradeable/access/OwnableUpgradeable.sol\":1847:1974  function __Ownable_init(address initialOwner) internal onlyInitializing {... */\n    tag_180:\n        /* \"@openzeppelin/contracts-upgradeable/proxy/utils/Initializable.sol\":6929:6949  _checkInitializing() */\n      tag_381\n        /* \"@openzeppelin/contracts-upgradeable/proxy/utils/Initializable.sol\":6929:6947  _checkInitializing */\n      tag_382\n        /* \"@openzeppelin/contracts-upgradeable/proxy/utils/Initializable.sol\":6929:6949  _checkInitializing() */\n      jump\t// in\n    tag_381:\n        /* \"@openzeppelin/contracts-upgradeable/access/OwnableUpgradeable.sol\":1929:1967  __Ownable_init_unchained(initialOwner) */\n      tag_251\n        /* \"@openzeppelin/contracts-upgradeable/access/OwnableUpgradeable.sol\":1954:1966  initialOwner */\n      dup2\n        /* \"@openzeppelin/contracts-upgradeable/access/OwnableUpgradeable.sol\":1929:1953  __Ownable_init_unchained */\n      tag_385\n        /* \"@openzeppelin/contracts-upgradeable/access/OwnableUpgradeable.sol\":1929:1967  __Ownable_init_unchained(initialOwner) */\n      jump\t// in\n        /* \"@openzeppelin/contracts-upgradeable/proxy/utils/UUPSUpgradeable.sol\":2970:3037  function __UUPSUpgradeable_init() internal onlyInitializing {... */\n    tag_182:\n        /* \"@openzeppelin/contracts-upgradeable/proxy/utils/Initializable.sol\":6929:6949  _checkInitializing() */\n      tag_332\n        /* \"@openzeppelin/contracts-upgradeable/proxy/utils/Initializable.sol\":6929:6947  _checkInitializing */\n      tag_382\n        /* \"@openzeppelin/contracts-upgradeable/proxy/utils/Initializable.sol\":6929:6949  _checkInitializing() */\n      jump\t// in\n        /* \"contracts/StemPayLotteryManager.sol\":669:816  function __VRFConsumerBaseV2_5Upgradeable_init(address _vrfCoordinator) internal onlyInitializing {... */\n    tag_184:\n        /* \"@openzeppelin/contracts-upgradeable/proxy/utils/Initializable.sol\":6929:6949  _checkInitializing() */\n      tag_390\n        /* \"@openzeppelin/contracts-upgradeable/proxy/utils/Initializable.sol\":6929:6947  _checkInitializing */\n      tag_382\n        /* \"@openzeppelin/contracts-upgradeable/proxy/utils/Initializable.sol\":6929:6949  _checkInitializing() */\n      jump\t// in\n    tag_390:\n        /* \"contracts/StemPayLotteryManager.sol\":777:791  vrfCoordinator */\n      0x01\n        /* \"contracts/StemPayLotteryManager.sol\":777:809  vrfCoordinator = _vrfCoordinator */\n      dup1\n      sload\n      not(sub(shl(0xa0, 0x01), 0x01))\n      and\n      sub(shl(0xa0, 0x01), 0x01)\n      swap3\n      swap1\n      swap3\n      and\n      swap2\n      swap1\n      swap2\n      or\n      swap1\n      sstore\n        /* \"contracts/StemPayLotteryManager.sol\":669:816  function __VRFConsumerBaseV2_5Upgradeable_init(address _vrfCoordinator) internal onlyInitializing {... */\n      jump\t// out\n        /* \"contracts/StemPayLotteryManager.sol\":6321:6960  function fulfillRandomWords(... */\n    tag_193:\n        /* \"contracts/StemPayLotteryManager.sol\":6448:6465  uint256 lotteryId */\n      0x00\n        /* \"contracts/StemPayLotteryManager.sol\":6468:6495  requestToLottery[requestId] */\n      dup3\n      dup2\n      mstore\n        /* \"contracts/StemPayLotteryManager.sol\":6468:6484  requestToLottery */\n      0x0a\n        /* \"contracts/StemPayLotteryManager.sol\":6468:6495  requestToLottery[requestId] */\n      0x20\n      swap1\n      dup2\n      mstore\n      0x40\n      dup1\n      dup4\n      keccak256\n      sload\n        /* \"contracts/StemPayLotteryManager.sol\":6525:6545  lotteries[lotteryId] */\n      dup1\n      dup5\n      mstore\n        /* \"contracts/StemPayLotteryManager.sol\":6525:6534  lotteries */\n      0x02\n        /* \"contracts/StemPayLotteryManager.sol\":6525:6545  lotteries[lotteryId] */\n      swap1\n      swap3\n      mstore\n      swap1\n      swap2\n      keccak256\n        /* \"contracts/StemPayLotteryManager.sol\":6564:6573  l.isDrawn */\n      0x08\n      dup2\n      add\n      sload\n      0x0100\n      swap1\n      div\n      0xff\n      and\n        /* \"contracts/StemPayLotteryManager.sol\":6564:6599  l.isDrawn && l.winner == address(0) */\n      dup1\n      iszero\n      tag_393\n      jumpi\n      pop\n        /* \"contracts/StemPayLotteryManager.sol\":6577:6585  l.winner */\n      0x0a\n      dup2\n      add\n      sload\n      sub(shl(0xa0, 0x01), 0x01)\n      and\n        /* \"contracts/StemPayLotteryManager.sol\":6577:6599  l.winner == address(0) */\n      iszero\n        /* \"contracts/StemPayLotteryManager.sol\":6564:6599  l.isDrawn && l.winner == address(0) */\n    tag_393:\n        /* \"contracts/StemPayLotteryManager.sol\":6556:6621  require(l.isDrawn && l.winner == address(0), \"Already fulfilled\") */\n      tag_394\n      jumpi\n      mload(0x40)\n      shl(0xe5, 0x461bcd)\n      dup2\n      mstore\n        /* \"#utility.yul\":19126:19128   */\n      0x20\n        /* \"contracts/StemPayLotteryManager.sol\":6556:6621  require(l.isDrawn && l.winner == address(0), \"Already fulfilled\") */\n      0x04\n      dup3\n      add\n        /* \"#utility.yul\":19108:19129   */\n      mstore\n        /* \"#utility.yul\":19165:19167   */\n      0x11\n        /* \"#utility.yul\":19145:19163   */\n      0x24\n      dup3\n      add\n        /* \"#utility.yul\":19138:19168   */\n      mstore\n      shl(0x7a, 0x105b1c9958591e48199d5b199a5b1b1959)\n        /* \"#utility.yul\":19184:19202   */\n      0x44\n      dup3\n      add\n        /* \"#utility.yul\":19177:19224   */\n      mstore\n        /* \"#utility.yul\":19241:19259   */\n      0x64\n      add\n        /* \"contracts/StemPayLotteryManager.sol\":6556:6621  require(l.isDrawn && l.winner == address(0), \"Already fulfilled\") */\n      tag_190\n        /* \"#utility.yul\":18924:19265   */\n      jump\n        /* \"contracts/StemPayLotteryManager.sol\":6556:6621  require(l.isDrawn && l.winner == address(0), \"Already fulfilled\") */\n    tag_394:\n        /* \"contracts/StemPayLotteryManager.sol\":6632:6651  uint256 winnerIndex */\n      0x00\n        /* \"contracts/StemPayLotteryManager.sol\":6671:6672  l */\n      dup2\n        /* \"contracts/StemPayLotteryManager.sol\":6671:6685  l.participants */\n      0x09\n      add\n        /* \"contracts/StemPayLotteryManager.sol\":6671:6692  l.participants.length */\n      dup1\n      sload\n      swap1\n      pop\n        /* \"contracts/StemPayLotteryManager.sol\":6654:6665  randomWords */\n      dup5\n        /* \"contracts/StemPayLotteryManager.sol\":6666:6667  0 */\n      0x00\n        /* \"contracts/StemPayLotteryManager.sol\":6654:6668  randomWords[0] */\n      dup2\n      mload\n      dup2\n      lt\n      tag_398\n      jumpi\n      tag_398\n      tag_399\n      jump\t// in\n    tag_398:\n      0x20\n      mul\n      0x20\n      add\n      add\n      mload\n        /* \"contracts/StemPayLotteryManager.sol\":6654:6692  randomWords[0] % l.participants.length */\n      tag_400\n      swap2\n      swap1\n      tag_401\n      jump\t// in\n    tag_400:\n        /* \"contracts/StemPayLotteryManager.sol\":6632:6692  uint256 winnerIndex = randomWords[0] % l.participants.length */\n      swap1\n      pop\n        /* \"contracts/StemPayLotteryManager.sol\":6713:6714  l */\n      dup2\n        /* \"contracts/StemPayLotteryManager.sol\":6713:6727  l.participants */\n      0x09\n      add\n        /* \"contracts/StemPayLotteryManager.sol\":6728:6739  winnerIndex */\n      dup2\n        /* \"contracts/StemPayLotteryManager.sol\":6713:6740  l.participants[winnerIndex] */\n      dup2\n      sload\n      dup2\n      lt\n      tag_403\n      jumpi\n      tag_403\n      tag_399\n      jump\t// in\n    tag_403:\n      0x00\n      swap2\n      dup3\n      mstore\n      0x20\n      swap1\n      swap2\n      keccak256\n      add\n      sload\n        /* \"contracts/StemPayLotteryManager.sol\":6702:6710  l.winner */\n      0x0a\n      dup4\n      add\n        /* \"contracts/StemPayLotteryManager.sol\":6702:6740  l.winner = l.participants[winnerIndex] */\n      dup1\n      sload\n      not(sub(shl(0xa0, 0x01), 0x01))\n      and\n      sub(shl(0xa0, 0x01), 0x01)\n        /* \"contracts/StemPayLotteryManager.sol\":6713:6740  l.participants[winnerIndex] */\n      swap3\n      dup4\n      and\n        /* \"contracts/StemPayLotteryManager.sol\":6702:6740  l.winner = l.participants[winnerIndex] */\n      or\n      swap1\n      sstore\n        /* \"contracts/StemPayLotteryManager.sol\":6773:6787  l.tokenAddress */\n      dup3\n      sload\n        /* \"contracts/StemPayLotteryManager.sol\":6813:6829  investmentWallet */\n      0x04\n      dup1\n      sload\n        /* \"contracts/StemPayLotteryManager.sol\":6831:6848  l.feeToInvestment */\n      0x06\n      dup7\n      add\n      sload\n        /* \"contracts/StemPayLotteryManager.sol\":6798:6849  token.transfer(investmentWallet, l.feeToInvestment) */\n      mload(0x40)\n      shl(0xe0, 0xa9059cbb)\n      dup2\n      mstore\n        /* \"contracts/StemPayLotteryManager.sol\":6813:6829  investmentWallet */\n      swap2\n      dup6\n      and\n        /* \"contracts/StemPayLotteryManager.sol\":6798:6849  token.transfer(investmentWallet, l.feeToInvestment) */\n      swap3\n      dup3\n      add\n        /* \"#utility.yul\":15260:15311   */\n      swap3\n      swap1\n      swap3\n      mstore\n        /* \"#utility.yul\":15327:15345   */\n      0x24\n      dup2\n      add\n        /* \"#utility.yul\":15320:15354   */\n      swap2\n      swap1\n      swap2\n      mstore\n        /* \"contracts/StemPayLotteryManager.sol\":6773:6787  l.tokenAddress */\n      swap2\n      and\n      swap1\n      dup2\n      swap1\n        /* \"contracts/StemPayLotteryManager.sol\":6798:6812  token.transfer */\n      0xa9059cbb\n      swap1\n        /* \"#utility.yul\":15233:15251   */\n      0x44\n      add\n        /* \"contracts/StemPayLotteryManager.sol\":6798:6849  token.transfer(investmentWallet, l.feeToInvestment) */\n      0x20\n      mload(0x40)\n      dup1\n      dup4\n      sub\n      dup2\n      0x00\n      dup8\n      gas\n      call\n      iszero\n      dup1\n      iszero\n      tag_407\n      jumpi\n      returndatacopy(0x00, 0x00, returndatasize)\n      revert(0x00, returndatasize)\n    tag_407:\n      pop\n      pop\n      pop\n      pop\n      mload(0x40)\n      returndatasize\n      not(0x1f)\n      0x1f\n      dup3\n      add\n      and\n      dup3\n      add\n      dup1\n      0x40\n      mstore\n      pop\n      dup2\n      add\n      swap1\n      tag_408\n      swap2\n      swap1\n      tag_223\n      jump\t// in\n    tag_408:\n      pop\n        /* \"contracts/StemPayLotteryManager.sol\":6874:6886  profitWallet */\n      sload(0x05)\n        /* \"contracts/StemPayLotteryManager.sol\":6888:6901  l.feeToProfit */\n      0x07\n      dup5\n      add\n      sload\n        /* \"contracts/StemPayLotteryManager.sol\":6859:6902  token.transfer(profitWallet, l.feeToProfit) */\n      mload(0x40)\n      shl(0xe0, 0xa9059cbb)\n      dup2\n      mstore\n      sub(shl(0xa0, 0x01), 0x01)\n        /* \"contracts/StemPayLotteryManager.sol\":6874:6886  profitWallet */\n      swap3\n      dup4\n      and\n        /* \"contracts/StemPayLotteryManager.sol\":6859:6902  token.transfer(profitWallet, l.feeToProfit) */\n      0x04\n      dup3\n      add\n        /* \"#utility.yul\":15260:15311   */\n      mstore\n        /* \"#utility.yul\":15327:15345   */\n      0x24\n      dup2\n      add\n        /* \"#utility.yul\":15320:15354   */\n      swap2\n      swap1\n      swap2\n      mstore\n        /* \"contracts/StemPayLotteryManager.sol\":6859:6873  token.transfer */\n      swap1\n      dup3\n      and\n      swap1\n      0xa9059cbb\n      swap1\n        /* \"#utility.yul\":15233:15251   */\n      0x44\n      add\n        /* \"contracts/StemPayLotteryManager.sol\":6859:6902  token.transfer(profitWallet, l.feeToProfit) */\n      0x20\n      mload(0x40)\n      dup1\n      dup4\n      sub\n      dup2\n      0x00\n      dup8\n      gas\n      call\n      iszero\n      dup1\n      iszero\n      tag_411\n      jumpi\n      returndatacopy(0x00, 0x00, returndatasize)\n      revert(0x00, returndatasize)\n    tag_411:\n      pop\n      pop\n      pop\n      pop\n      mload(0x40)\n      returndatasize\n      not(0x1f)\n      0x1f\n      dup3\n      add\n      and\n      dup3\n      add\n      dup1\n      0x40\n      mstore\n      pop\n      dup2\n      add\n      swap1\n      tag_412\n      swap2\n      swap1\n      tag_223\n      jump\t// in\n    tag_412:\n      pop\n        /* \"contracts/StemPayLotteryManager.sol\":6944:6952  l.winner */\n      0x0a\n      dup4\n      add\n      sload\n        /* \"contracts/StemPayLotteryManager.sol\":6918:6953  WinnerSelected(lotteryId, l.winner) */\n      0x40\n      dup1\n      mload\n        /* \"#utility.yul\":11718:11743   */\n      dup7\n      dup2\n      mstore\n      sub(shl(0xa0, 0x01), 0x01)\n        /* \"contracts/StemPayLotteryManager.sol\":6944:6952  l.winner */\n      swap1\n      swap3\n      and\n        /* \"#utility.yul\":11774:11776   */\n      0x20\n        /* \"#utility.yul\":11759:11777   */\n      dup4\n      add\n        /* \"#utility.yul\":11752:11812   */\n      mstore\n        /* \"contracts/StemPayLotteryManager.sol\":6918:6953  WinnerSelected(lotteryId, l.winner) */\n      0x03fb57eb449654e24e1b240d3d06702cf79362a065d5c0323aee642d4702fa4b\n      swap2\n        /* \"#utility.yul\":11691:11709   */\n      add\n        /* \"contracts/StemPayLotteryManager.sol\":6918:6953  WinnerSelected(lotteryId, l.winner) */\n      mload(0x40)\n      dup1\n      swap2\n      sub\n      swap1\n      log1\n        /* \"contracts/StemPayLotteryManager.sol\":6438:6960  {... */\n      pop\n      pop\n      pop\n      pop\n        /* \"contracts/StemPayLotteryManager.sol\":6321:6960  function fulfillRandomWords(... */\n      pop\n      pop\n      jump\t// out\n        /* \"@openzeppelin/contracts/security/ReentrancyGuard.sol\":2336:2623  function _nonReentrantBefore() private {... */\n    tag_196:\n        /* \"@openzeppelin/contracts/security/ReentrancyGuard.sol\":1759:1760  2 */\n      0x02\n        /* \"@openzeppelin/contracts/security/ReentrancyGuard.sol\":2468:2475  _status */\n      sload(0x00)\n        /* \"@openzeppelin/contracts/security/ReentrancyGuard.sol\":2468:2487  _status != _ENTERED */\n      sub\n        /* \"@openzeppelin/contracts/security/ReentrancyGuard.sol\":2460:2523  require(_status != _ENTERED, \"ReentrancyGuard: reentrant call\") */\n      tag_415\n      jumpi\n      mload(0x40)\n      shl(0xe5, 0x461bcd)\n      dup2\n      mstore\n        /* \"#utility.yul\":19818:19820   */\n      0x20\n        /* \"@openzeppelin/contracts/security/ReentrancyGuard.sol\":2460:2523  require(_status != _ENTERED, \"ReentrancyGuard: reentrant call\") */\n      0x04\n      dup3\n      add\n        /* \"#utility.yul\":19800:19821   */\n      mstore\n        /* \"#utility.yul\":19857:19859   */\n      0x1f\n        /* \"#utility.yul\":19837:19855   */\n      0x24\n      dup3\n      add\n        /* \"#utility.yul\":19830:19860   */\n      mstore\n        /* \"#utility.yul\":19896:19929   */\n      0x5265656e7472616e637947756172643a207265656e7472616e742063616c6c00\n        /* \"#utility.yul\":19876:19894   */\n      0x44\n      dup3\n      add\n        /* \"#utility.yul\":19869:19930   */\n      mstore\n        /* \"#utility.yul\":19947:19965   */\n      0x64\n      add\n        /* \"@openzeppelin/contracts/security/ReentrancyGuard.sol\":2460:2523  require(_status != _ENTERED, \"ReentrancyGuard: reentrant call\") */\n      tag_190\n        /* \"#utility.yul\":19616:19971   */\n      jump\n        /* \"@openzeppelin/contracts/security/ReentrancyGuard.sol\":2460:2523  require(_status != _ENTERED, \"ReentrancyGuard: reentrant call\") */\n    tag_415:\n        /* \"@openzeppelin/contracts/security/ReentrancyGuard.sol\":1759:1760  2 */\n      0x02\n        /* \"@openzeppelin/contracts/security/ReentrancyGuard.sol\":2598:2605  _status */\n      0x00\n        /* \"@openzeppelin/contracts/security/ReentrancyGuard.sol\":2598:2616  _status = _ENTERED */\n      sstore\n        /* \"@openzeppelin/contracts/security/ReentrancyGuard.sol\":2336:2623  function _nonReentrantBefore() private {... */\n      jump\t// out\n        /* \"@openzeppelin/contracts-upgradeable/access/OwnableUpgradeable.sol\":2658:2820  function _checkOwner() internal view virtual {... */\n    tag_254:\n        /* \"@openzeppelin/contracts-upgradeable/utils/ContextUpgradeable.sol\":966:976  msg.sender */\n      caller\n        /* \"@openzeppelin/contracts-upgradeable/access/OwnableUpgradeable.sol\":2717:2724  owner() */\n      tag_422\n        /* \"@openzeppelin/contracts-upgradeable/access/OwnableUpgradeable.sol\":1313:1335  OwnableStorageLocation */\n      0x9016d09d72d40fdae2fd8ceac6b6234c7706214fd39c1cd1e609a0528c199300\n        /* \"@openzeppelin/contracts-upgradeable/access/OwnableUpgradeable.sol\":2570:2578  $._owner */\n      sload\n      sub(shl(0xa0, 0x01), 0x01)\n      and\n      swap1\n        /* \"@openzeppelin/contracts-upgradeable/access/OwnableUpgradeable.sol\":2441:2585  function owner() public view virtual returns (address) {... */\n      jump\n        /* \"@openzeppelin/contracts-upgradeable/access/OwnableUpgradeable.sol\":2717:2724  owner() */\n    tag_422:\n      sub(shl(0xa0, 0x01), 0x01)\n        /* \"@openzeppelin/contracts-upgradeable/access/OwnableUpgradeable.sol\":2717:2740  owner() != _msgSender() */\n      and\n      eq\n        /* \"@openzeppelin/contracts-upgradeable/access/OwnableUpgradeable.sol\":2713:2814  if (owner() != _msgSender()) {... */\n      tag_332\n      jumpi\n        /* \"@openzeppelin/contracts-upgradeable/access/OwnableUpgradeable.sol\":2763:2803  OwnableUnauthorizedAccount(_msgSender()) */\n      mload(0x40)\n      shl(0xe0, 0x118cdaa7)\n      dup2\n      mstore\n        /* \"@openzeppelin/contracts-upgradeable/utils/ContextUpgradeable.sol\":966:976  msg.sender */\n      caller\n        /* \"@openzeppelin/contracts-upgradeable/access/OwnableUpgradeable.sol\":2763:2803  OwnableUnauthorizedAccount(_msgSender()) */\n      0x04\n      dup3\n      add\n        /* \"#utility.yul\":4028:4079   */\n      mstore\n        /* \"#utility.yul\":4001:4019   */\n      0x24\n      add\n        /* \"@openzeppelin/contracts-upgradeable/access/OwnableUpgradeable.sol\":2763:2803  OwnableUnauthorizedAccount(_msgSender()) */\n      tag_190\n        /* \"#utility.yul\":3882:4085   */\n      jump\n        /* \"@openzeppelin/contracts-upgradeable/proxy/utils/UUPSUpgradeable.sol\":4578:4890  function _checkProxy() internal view virtual {... */\n    tag_274:\n        /* \"@openzeppelin/contracts-upgradeable/proxy/utils/UUPSUpgradeable.sol\":4658:4662  this */\n      address\n      sub(shl(0xa0, 0x01), 0x01)\n        /* \"@openzeppelin/contracts-upgradeable/proxy/utils/UUPSUpgradeable.sol\":4667:4673  __self */\n      immutable(\"0x7e11962f85eb7ceb5b38e296d507e5039b360e5ad6815220a68768366dc10fdd\")\n        /* \"@openzeppelin/contracts-upgradeable/proxy/utils/UUPSUpgradeable.sol\":4650:4673  address(this) == __self */\n      and\n      eq\n      dup1\n        /* \"@openzeppelin/contracts-upgradeable/proxy/utils/UUPSUpgradeable.sol\":4650:4770  address(this) == __self || // Must be called through delegatecall... */\n      tag_427\n      jumpi\n      pop\n        /* \"@openzeppelin/contracts-upgradeable/proxy/utils/UUPSUpgradeable.sol\":4764:4770  __self */\n      immutable(\"0x7e11962f85eb7ceb5b38e296d507e5039b360e5ad6815220a68768366dc10fdd\")\n      sub(shl(0xa0, 0x01), 0x01)\n        /* \"@openzeppelin/contracts-upgradeable/proxy/utils/UUPSUpgradeable.sol\":4728:4770  ERC1967Utils.getImplementation() != __self */\n      and\n        /* \"@openzeppelin/contracts-upgradeable/proxy/utils/UUPSUpgradeable.sol\":4728:4760  ERC1967Utils.getImplementation() */\n      tag_428\n      mload(0x00)\n      codecopy(0x00, data_75b20eef8615de99c108b05f0dbda081c91897128caa336d75dffb97c4132b4d, 0x20)\n      mload(0x00)\n      swap1\n      0x00\n      mstore\n        /* \"@openzeppelin/contracts/proxy/ERC1967/ERC1967Utils.sol\":1519:1572  StorageSlot.getAddressSlot(IMPLEMENTATION_SLOT).value */\n      sload\n      sub(shl(0xa0, 0x01), 0x01)\n      and\n      swap1\n        /* \"@openzeppelin/contracts/proxy/ERC1967/ERC1967Utils.sol\":1441:1579  function getImplementation() internal view returns (address) {... */\n      jump\n        /* \"@openzeppelin/contracts-upgradeable/proxy/utils/UUPSUpgradeable.sol\":4728:4760  ERC1967Utils.getImplementation() */\n    tag_428:\n      sub(shl(0xa0, 0x01), 0x01)\n        /* \"@openzeppelin/contracts-upgradeable/proxy/utils/UUPSUpgradeable.sol\":4728:4770  ERC1967Utils.getImplementation() != __self */\n      and\n      eq\n      iszero\n        /* \"@openzeppelin/contracts-upgradeable/proxy/utils/UUPSUpgradeable.sol\":4650:4770  address(this) == __self || // Must be called through delegatecall... */\n    tag_427:\n        /* \"@openzeppelin/contracts-upgradeable/proxy/utils/UUPSUpgradeable.sol\":4633:4884  if (... */\n      iszero\n      tag_332\n      jumpi\n        /* \"@openzeppelin/contracts-upgradeable/proxy/utils/UUPSUpgradeable.sol\":4844:4873  UUPSUnauthorizedCallContext() */\n      mload(0x40)\n      shl(0xe1, 0x703e46dd)\n      dup2\n      mstore\n      0x04\n      add\n      mload(0x40)\n      dup1\n      swap2\n      sub\n      swap1\n      revert\n        /* \"contracts/StemPayLotteryManager.sol\":3305:3371  function _authorizeUpgrade(address) internal override onlyOwner {} */\n    tag_277:\n        /* \"@openzeppelin/contracts-upgradeable/access/OwnableUpgradeable.sol\":2334:2347  _checkOwner() */\n      tag_251\n        /* \"@openzeppelin/contracts-upgradeable/access/OwnableUpgradeable.sol\":2334:2345  _checkOwner */\n      tag_254\n        /* \"@openzeppelin/contracts-upgradeable/access/OwnableUpgradeable.sol\":2334:2347  _checkOwner() */\n      jump\t// in\n        /* \"@openzeppelin/contracts-upgradeable/proxy/utils/UUPSUpgradeable.sol\":6032:6570  function _upgradeToAndCallUUPS(address newImplementation, bytes memory data) private {... */\n    tag_279:\n        /* \"@openzeppelin/contracts-upgradeable/proxy/utils/UUPSUpgradeable.sol\":6149:6166  newImplementation */\n      dup2\n      sub(shl(0xa0, 0x01), 0x01)\n        /* \"@openzeppelin/contracts-upgradeable/proxy/utils/UUPSUpgradeable.sol\":6131:6181  IERC1822Proxiable(newImplementation).proxiableUUID */\n      and\n      0x52d1902d\n        /* \"@openzeppelin/contracts-upgradeable/proxy/utils/UUPSUpgradeable.sol\":6131:6183  IERC1822Proxiable(newImplementation).proxiableUUID() */\n      mload(0x40)\n      dup2\n      0xffffffff\n      and\n      0xe0\n      shl\n      dup2\n      mstore\n      0x04\n      add\n      0x20\n      mload(0x40)\n      dup1\n      dup4\n      sub\n      dup2\n      dup7\n      gas\n      staticcall\n      swap3\n      pop\n      pop\n      pop\n      dup1\n      iszero\n      tag_435\n      jumpi\n      pop\n      0x40\n      dup1\n      mload\n      0x1f\n      returndatasize\n      swap1\n      dup2\n      add\n      not(0x1f)\n      and\n      dup3\n      add\n      swap1\n      swap3\n      mstore\n      tag_436\n      swap2\n      dup2\n      add\n      swap1\n      tag_326\n      jump\t// in\n    tag_436:\n      0x01\n    tag_435:\n        /* \"@openzeppelin/contracts-upgradeable/proxy/utils/UUPSUpgradeable.sol\":6127:6564  try IERC1822Proxiable(newImplementation).proxiableUUID() returns (bytes32 slot) {... */\n      tag_438\n      jumpi\n        /* \"@openzeppelin/contracts-upgradeable/proxy/utils/UUPSUpgradeable.sol\":6493:6553  ERC1967Utils.ERC1967InvalidImplementation(newImplementation) */\n      mload(0x40)\n      shl(0xe0, 0x4c9c8ce3)\n      dup2\n      mstore\n      sub(shl(0xa0, 0x01), 0x01)\n        /* \"#utility.yul\":4046:4078   */\n      dup4\n      and\n        /* \"@openzeppelin/contracts-upgradeable/proxy/utils/UUPSUpgradeable.sol\":6493:6553  ERC1967Utils.ERC1967InvalidImplementation(newImplementation) */\n      0x04\n      dup3\n      add\n        /* \"#utility.yul\":4028:4079   */\n      mstore\n        /* \"#utility.yul\":4001:4019   */\n      0x24\n      add\n        /* \"@openzeppelin/contracts-upgradeable/proxy/utils/UUPSUpgradeable.sol\":6493:6553  ERC1967Utils.ERC1967InvalidImplementation(newImplementation) */\n      tag_190\n        /* \"#utility.yul\":3882:4085   */\n      jump\n        /* \"@openzeppelin/contracts-upgradeable/proxy/utils/UUPSUpgradeable.sol\":6127:6564  try IERC1822Proxiable(newImplementation).proxiableUUID() returns (bytes32 slot) {... */\n    tag_438:\n      mload(0x00)\n      codecopy(0x00, data_75b20eef8615de99c108b05f0dbda081c91897128caa336d75dffb97c4132b4d, 0x20)\n      mload(0x00)\n      swap1\n      0x00\n      mstore\n        /* \"@openzeppelin/contracts-upgradeable/proxy/utils/UUPSUpgradeable.sol\":6225:6265  slot != ERC1967Utils.IMPLEMENTATION_SLOT */\n      dup2\n      eq\n        /* \"@openzeppelin/contracts-upgradeable/proxy/utils/UUPSUpgradeable.sol\":6221:6341  if (slot != ERC1967Utils.IMPLEMENTATION_SLOT) {... */\n      tag_444\n      jumpi\n        /* \"@openzeppelin/contracts-upgradeable/proxy/utils/UUPSUpgradeable.sol\":6292:6326  UUPSUnsupportedProxiableUUID(slot) */\n      mload(0x40)\n      shl(0xe2, 0x2a875269)\n      dup2\n      mstore\n      0x04\n      dup2\n      add\n        /* \"#utility.yul\":160:185   */\n      dup3\n      swap1\n      mstore\n        /* \"#utility.yul\":133:151   */\n      0x24\n      add\n        /* \"@openzeppelin/contracts-upgradeable/proxy/utils/UUPSUpgradeable.sol\":6292:6326  UUPSUnsupportedProxiableUUID(slot) */\n      tag_190\n        /* \"#utility.yul\":14:191   */\n      jump\n        /* \"@openzeppelin/contracts-upgradeable/proxy/utils/UUPSUpgradeable.sol\":6221:6341  if (slot != ERC1967Utils.IMPLEMENTATION_SLOT) {... */\n    tag_444:\n        /* \"@openzeppelin/contracts-upgradeable/proxy/utils/UUPSUpgradeable.sol\":6354:6408  ERC1967Utils.upgradeToAndCall(newImplementation, data) */\n      tag_446\n        /* \"@openzeppelin/contracts-upgradeable/proxy/utils/UUPSUpgradeable.sol\":6384:6401  newImplementation */\n      dup4\n        /* \"@openzeppelin/contracts-upgradeable/proxy/utils/UUPSUpgradeable.sol\":6403:6407  data */\n      dup4\n        /* \"@openzeppelin/contracts-upgradeable/proxy/utils/UUPSUpgradeable.sol\":6354:6383  ERC1967Utils.upgradeToAndCall */\n      tag_447\n        /* \"@openzeppelin/contracts-upgradeable/proxy/utils/UUPSUpgradeable.sol\":6354:6408  ERC1967Utils.upgradeToAndCall(newImplementation, data) */\n      jump\t// in\n    tag_446:\n        /* \"@openzeppelin/contracts-upgradeable/proxy/utils/UUPSUpgradeable.sol\":6184:6419  returns (bytes32 slot) {... */\n      pop\n        /* \"@openzeppelin/contracts-upgradeable/proxy/utils/UUPSUpgradeable.sol\":6032:6570  function _upgradeToAndCallUUPS(address newImplementation, bytes memory data) private {... */\n      pop\n      pop\n      jump\t// out\n        /* \"@openzeppelin/contracts-upgradeable/proxy/utils/UUPSUpgradeable.sol\":5007:5220  function _checkNotDelegated() internal view virtual {... */\n    tag_282:\n        /* \"@openzeppelin/contracts-upgradeable/proxy/utils/UUPSUpgradeable.sol\":5081:5085  this */\n      address\n      sub(shl(0xa0, 0x01), 0x01)\n        /* \"@openzeppelin/contracts-upgradeable/proxy/utils/UUPSUpgradeable.sol\":5090:5096  __self */\n      immutable(\"0x7e11962f85eb7ceb5b38e296d507e5039b360e5ad6815220a68768366dc10fdd\")\n        /* \"@openzeppelin/contracts-upgradeable/proxy/utils/UUPSUpgradeable.sol\":5073:5096  address(this) != __self */\n      and\n      eq\n        /* \"@openzeppelin/contracts-upgradeable/proxy/utils/UUPSUpgradeable.sol\":5069:5214  if (address(this) != __self) {... */\n      tag_332\n      jumpi\n        /* \"@openzeppelin/contracts-upgradeable/proxy/utils/UUPSUpgradeable.sol\":5174:5203  UUPSUnauthorizedCallContext() */\n      mload(0x40)\n      shl(0xe1, 0x703e46dd)\n      dup2\n      mstore\n      0x04\n      add\n      mload(0x40)\n      dup1\n      swap2\n      sub\n      swap1\n      revert\n        /* \"@chainlink/contracts/src/v0.8/vrf/dev/libraries/VRFV2PlusClient.sol\":475:638  function _argsToBytes(ExtraArgsV1 memory extraArgs) internal pure returns (bytes memory bts) {... */\n    tag_320:\n        /* \"@chainlink/contracts/src/v0.8/vrf/dev/libraries/VRFV2PlusClient.sol\":550:566  bytes memory bts */\n      0x60\n        /* \"@chainlink/contracts/src/v0.8/vrf/dev/libraries/VRFV2PlusClient.sol\":211:239  keccak256(\"VRF ExtraArgsV1\") */\n      0x92fd13387c7fe7befbc38d303d6468778fb9731bc4583f17d92989c6fcfdeaaa\n        /* \"@chainlink/contracts/src/v0.8/vrf/dev/libraries/VRFV2PlusClient.sol\":623:632  extraArgs */\n      dup3\n        /* \"@chainlink/contracts/src/v0.8/vrf/dev/libraries/VRFV2PlusClient.sol\":581:633  abi.encodeWithSelector(EXTRA_ARGS_V1_TAG, extraArgs) */\n      add(0x24, mload(0x40))\n      tag_451\n      swap2\n        /* \"#utility.yul\":20399:20412   */\n      mload\n        /* \"#utility.yul\":20392:20413   */\n      iszero\n        /* \"#utility.yul\":20385:20414   */\n      iszero\n        /* \"#utility.yul\":20367:20415   */\n      dup2\n      mstore\n        /* \"#utility.yul\":20355:20357   */\n      0x20\n        /* \"#utility.yul\":20340:20358   */\n      add\n      swap1\n        /* \"#utility.yul\":20165:20421   */\n      jump\n        /* \"@chainlink/contracts/src/v0.8/vrf/dev/libraries/VRFV2PlusClient.sol\":581:633  abi.encodeWithSelector(EXTRA_ARGS_V1_TAG, extraArgs) */\n    tag_451:\n      0x40\n      dup1\n      mload\n      not(0x1f)\n      dup2\n      dup5\n      sub\n      add\n      dup2\n      mstore\n      swap2\n      swap1\n      mstore\n      0x20\n      dup2\n      add\n      dup1\n      mload\n      sub(shl(0xe0, 0x01), 0x01)\n      and\n      not(sub(shl(0xe0, 0x01), 0x01))\n      swap1\n      swap4\n      and\n      swap3\n      swap1\n      swap3\n      or\n      swap1\n      swap2\n      mstore\n      swap3\n        /* \"@chainlink/contracts/src/v0.8/vrf/dev/libraries/VRFV2PlusClient.sol\":475:638  function _argsToBytes(ExtraArgsV1 memory extraArgs) internal pure returns (bytes memory bts) {... */\n      swap2\n      pop\n      pop\n      jump\t// out\n        /* \"@openzeppelin/contracts-upgradeable/access/OwnableUpgradeable.sol\":3774:4022  function _transferOwnership(address newOwner) internal virtual {... */\n    tag_333:\n        /* \"@openzeppelin/contracts-upgradeable/access/OwnableUpgradeable.sol\":1313:1335  OwnableStorageLocation */\n      0x9016d09d72d40fdae2fd8ceac6b6234c7706214fd39c1cd1e609a0528c199300\n        /* \"@openzeppelin/contracts-upgradeable/access/OwnableUpgradeable.sol\":3923:3931  $._owner */\n      dup1\n      sload\n      not(sub(shl(0xa0, 0x01), 0x01))\n        /* \"@openzeppelin/contracts-upgradeable/access/OwnableUpgradeable.sol\":3941:3960  $._owner = newOwner */\n      dup2\n      and\n      sub(shl(0xa0, 0x01), 0x01)\n      dup5\n      dup2\n      and\n      swap2\n      dup3\n      or\n      dup5\n      sstore\n        /* \"@openzeppelin/contracts-upgradeable/access/OwnableUpgradeable.sol\":3975:4015  OwnershipTransferred(oldOwner, newOwner) */\n      mload(0x40)\n        /* \"@openzeppelin/contracts-upgradeable/access/OwnableUpgradeable.sol\":3923:3931  $._owner */\n      swap3\n      and\n      swap2\n      dup3\n      swap1\n        /* \"@openzeppelin/contracts-upgradeable/access/OwnableUpgradeable.sol\":3975:4015  OwnershipTransferred(oldOwner, newOwner) */\n      0x8be0079c531659141344cd1fd0a4f28419497f9722a3daafe3b4186f6b6457e0\n      swap1\n        /* \"@openzeppelin/contracts-upgradeable/access/OwnableUpgradeable.sol\":3847:3871  OwnableStorage storage $ */\n      0x00\n      swap1\n        /* \"@openzeppelin/contracts-upgradeable/access/OwnableUpgradeable.sol\":3975:4015  OwnershipTransferred(oldOwner, newOwner) */\n      log3\n        /* \"@openzeppelin/contracts-upgradeable/access/OwnableUpgradeable.sol\":3837:4022  {... */\n      pop\n      pop\n        /* \"@openzeppelin/contracts-upgradeable/access/OwnableUpgradeable.sol\":3774:4022  function _transferOwnership(address newOwner) internal virtual {... */\n      pop\n      jump\t// out\n        /* \"@openzeppelin/contracts-upgradeable/proxy/utils/Initializable.sol\":7082:7223  function _checkInitializing() internal view virtual {... */\n    tag_382:\n        /* \"@openzeppelin/contracts-upgradeable/proxy/utils/Initializable.sol\":7149:7166  _isInitializing() */\n      tag_458\n        /* \"@openzeppelin/contracts-upgradeable/proxy/utils/Initializable.sol\":7149:7164  _isInitializing */\n      tag_459\n        /* \"@openzeppelin/contracts-upgradeable/proxy/utils/Initializable.sol\":7149:7166  _isInitializing() */\n      jump\t// in\n    tag_458:\n        /* \"@openzeppelin/contracts-upgradeable/proxy/utils/Initializable.sol\":7144:7217  if (!_isInitializing()) {... */\n      tag_332\n      jumpi\n        /* \"@openzeppelin/contracts-upgradeable/proxy/utils/Initializable.sol\":7189:7206  NotInitializing() */\n      mload(0x40)\n      shl(0xe3, 0x1afcd79f)\n      dup2\n      mstore\n      0x04\n      add\n      mload(0x40)\n      dup1\n      swap2\n      sub\n      swap1\n      revert\n        /* \"@openzeppelin/contracts-upgradeable/access/OwnableUpgradeable.sol\":1980:2215  function __Ownable_init_unchained(address initialOwner) internal onlyInitializing {... */\n    tag_385:\n        /* \"@openzeppelin/contracts-upgradeable/proxy/utils/Initializable.sol\":6929:6949  _checkInitializing() */\n      tag_372\n        /* \"@openzeppelin/contracts-upgradeable/proxy/utils/Initializable.sol\":6929:6947  _checkInitializing */\n      tag_382\n        /* \"@openzeppelin/contracts-upgradeable/proxy/utils/Initializable.sol\":6929:6949  _checkInitializing() */\n      jump\t// in\n        /* \"@openzeppelin/contracts/proxy/ERC1967/ERC1967Utils.sol\":2264:2608  function upgradeToAndCall(address newImplementation, bytes memory data) internal {... */\n    tag_447:\n        /* \"@openzeppelin/contracts/proxy/ERC1967/ERC1967Utils.sol\":2355:2392  _setImplementation(newImplementation) */\n      tag_472\n        /* \"@openzeppelin/contracts/proxy/ERC1967/ERC1967Utils.sol\":2374:2391  newImplementation */\n      dup3\n        /* \"@openzeppelin/contracts/proxy/ERC1967/ERC1967Utils.sol\":2355:2373  _setImplementation */\n      tag_473\n        /* \"@openzeppelin/contracts/proxy/ERC1967/ERC1967Utils.sol\":2355:2392  _setImplementation(newImplementation) */\n      jump\t// in\n    tag_472:\n        /* \"@openzeppelin/contracts/proxy/ERC1967/ERC1967Utils.sol\":2407:2443  IERC1967.Upgraded(newImplementation) */\n      mload(0x40)\n      sub(shl(0xa0, 0x01), 0x01)\n      dup4\n      and\n      swap1\n      0xbc7cd75a20ee27fd9adebab32041f755214dbc6bffa90cc0225b39da2e5c2d3b\n      swap1\n      0x00\n      swap1\n      log2\n        /* \"@openzeppelin/contracts/proxy/ERC1967/ERC1967Utils.sol\":2458:2469  data.length */\n      dup1\n      mload\n        /* \"@openzeppelin/contracts/proxy/ERC1967/ERC1967Utils.sol\":2458:2473  data.length > 0 */\n      iszero\n        /* \"@openzeppelin/contracts/proxy/ERC1967/ERC1967Utils.sol\":2454:2602  if (data.length > 0) {... */\n      tag_474\n      jumpi\n        /* \"@openzeppelin/contracts/proxy/ERC1967/ERC1967Utils.sol\":2489:2542  Address.functionDelegateCall(newImplementation, data) */\n      tag_446\n        /* \"@openzeppelin/contracts/proxy/ERC1967/ERC1967Utils.sol\":2518:2535  newImplementation */\n      dup3\n        /* \"@openzeppelin/contracts/proxy/ERC1967/ERC1967Utils.sol\":2537:2541  data */\n      dup3\n        /* \"@openzeppelin/contracts/proxy/ERC1967/ERC1967Utils.sol\":2489:2517  Address.functionDelegateCall */\n      tag_476\n        /* \"@openzeppelin/contracts/proxy/ERC1967/ERC1967Utils.sol\":2489:2542  Address.functionDelegateCall(newImplementation, data) */\n      jump\t// in\n        /* \"@openzeppelin/contracts/proxy/ERC1967/ERC1967Utils.sol\":2454:2602  if (data.length > 0) {... */\n    tag_474:\n        /* \"@openzeppelin/contracts/proxy/ERC1967/ERC1967Utils.sol\":2573:2591  _checkNonPayable() */\n      tag_192\n        /* \"@openzeppelin/contracts/proxy/ERC1967/ERC1967Utils.sol\":2573:2589  _checkNonPayable */\n      tag_479\n        /* \"@openzeppelin/contracts/proxy/ERC1967/ERC1967Utils.sol\":2573:2591  _checkNonPayable() */\n      jump\t// in\n        /* \"@openzeppelin/contracts-upgradeable/proxy/utils/Initializable.sol\":8485:8605  function _isInitializing() internal view returns (bool) {... */\n    tag_459:\n        /* \"@openzeppelin/contracts-upgradeable/proxy/utils/Initializable.sol\":8535:8539  bool */\n      0x00\n        /* \"@openzeppelin/contracts-upgradeable/proxy/utils/Initializable.sol\":8558:8584  _getInitializableStorage() */\n      tag_481\n        /* \"@openzeppelin/contracts-upgradeable/proxy/utils/Initializable.sol\":8558:8582  _getInitializableStorage */\n      tag_172\n        /* \"@openzeppelin/contracts-upgradeable/proxy/utils/Initializable.sol\":8558:8584  _getInitializableStorage() */\n      jump\t// in\n    tag_481:\n        /* \"@openzeppelin/contracts-upgradeable/proxy/utils/Initializable.sol\":8558:8598  _getInitializableStorage()._initializing */\n      sload\n      shl(0x40, 0x01)\n      swap1\n      div\n      0xff\n      and\n      swap2\n      swap1\n      pop\n        /* \"@openzeppelin/contracts-upgradeable/proxy/utils/Initializable.sol\":8485:8605  function _isInitializing() internal view returns (bool) {... */\n      jump\t// out\n        /* \"@openzeppelin/contracts/proxy/ERC1967/ERC1967Utils.sol\":1671:1952  function _setImplementation(address newImplementation) private {... */\n    tag_473:\n        /* \"@openzeppelin/contracts/proxy/ERC1967/ERC1967Utils.sol\":1748:1765  newImplementation */\n      dup1\n      sub(shl(0xa0, 0x01), 0x01)\n        /* \"@openzeppelin/contracts/proxy/ERC1967/ERC1967Utils.sol\":1748:1777  newImplementation.code.length */\n      and\n      extcodesize\n        /* \"@openzeppelin/contracts/proxy/ERC1967/ERC1967Utils.sol\":1781:1782  0 */\n      0x00\n        /* \"@openzeppelin/contracts/proxy/ERC1967/ERC1967Utils.sol\":1748:1782  newImplementation.code.length == 0 */\n      sub\n        /* \"@openzeppelin/contracts/proxy/ERC1967/ERC1967Utils.sol\":1744:1863  if (newImplementation.code.length == 0) {... */\n      tag_484\n      jumpi\n        /* \"@openzeppelin/contracts/proxy/ERC1967/ERC1967Utils.sol\":1805:1852  ERC1967InvalidImplementation(newImplementation) */\n      mload(0x40)\n      shl(0xe0, 0x4c9c8ce3)\n      dup2\n      mstore\n      sub(shl(0xa0, 0x01), 0x01)\n        /* \"#utility.yul\":4046:4078   */\n      dup3\n      and\n        /* \"@openzeppelin/contracts/proxy/ERC1967/ERC1967Utils.sol\":1805:1852  ERC1967InvalidImplementation(newImplementation) */\n      0x04\n      dup3\n      add\n        /* \"#utility.yul\":4028:4079   */\n      mstore\n        /* \"#utility.yul\":4001:4019   */\n      0x24\n      add\n        /* \"@openzeppelin/contracts/proxy/ERC1967/ERC1967Utils.sol\":1805:1852  ERC1967InvalidImplementation(newImplementation) */\n      tag_190\n        /* \"#utility.yul\":3882:4085   */\n      jump\n        /* \"@openzeppelin/contracts/proxy/ERC1967/ERC1967Utils.sol\":1744:1863  if (newImplementation.code.length == 0) {... */\n    tag_484:\n      mload(0x00)\n      codecopy(0x00, data_75b20eef8615de99c108b05f0dbda081c91897128caa336d75dffb97c4132b4d, 0x20)\n      mload(0x00)\n      swap1\n      0x00\n      mstore\n        /* \"@openzeppelin/contracts/proxy/ERC1967/ERC1967Utils.sol\":1872:1945  StorageSlot.getAddressSlot(IMPLEMENTATION_SLOT).value = newImplementation */\n      dup1\n      sload\n      not(sub(shl(0xa0, 0x01), 0x01))\n      and\n      sub(shl(0xa0, 0x01), 0x01)\n      swap3\n      swap1\n      swap3\n      and\n      swap2\n      swap1\n      swap2\n      or\n      swap1\n      sstore\n        /* \"@openzeppelin/contracts/proxy/ERC1967/ERC1967Utils.sol\":1671:1952  function _setImplementation(address newImplementation) private {... */\n      jump\t// out\n        /* \"@openzeppelin/contracts/utils/Address.sol\":3916:4169  function functionDelegateCall(address target, bytes memory data) internal returns (bytes memory) {... */\n    tag_476:\n        /* \"@openzeppelin/contracts/utils/Address.sol\":3999:4011  bytes memory */\n      0x60\n        /* \"@openzeppelin/contracts/utils/Address.sol\":4024:4036  bool success */\n      0x00\n        /* \"@openzeppelin/contracts/utils/Address.sol\":4038:4061  bytes memory returndata */\n      0x00\n        /* \"@openzeppelin/contracts/utils/Address.sol\":4065:4071  target */\n      dup5\n      sub(shl(0xa0, 0x01), 0x01)\n        /* \"@openzeppelin/contracts/utils/Address.sol\":4065:4084  target.delegatecall */\n      and\n        /* \"@openzeppelin/contracts/utils/Address.sol\":4085:4089  data */\n      dup5\n        /* \"@openzeppelin/contracts/utils/Address.sol\":4065:4090  target.delegatecall(data) */\n      mload(0x40)\n      tag_488\n      swap2\n      swap1\n      tag_489\n      jump\t// in\n    tag_488:\n      0x00\n      mload(0x40)\n      dup1\n      dup4\n      sub\n      dup2\n      dup6\n      gas\n      delegatecall\n      swap2\n      pop\n      pop\n      returndatasize\n      dup1\n      0x00\n      dup2\n      eq\n      tag_492\n      jumpi\n      mload(0x40)\n      swap2\n      pop\n      and(add(returndatasize, 0x3f), not(0x1f))\n      dup3\n      add\n      0x40\n      mstore\n      returndatasize\n      dup3\n      mstore\n      returndatasize\n      0x00\n      0x20\n      dup5\n      add\n      returndatacopy\n      jump(tag_491)\n    tag_492:\n      0x60\n      swap2\n      pop\n    tag_491:\n      pop\n        /* \"@openzeppelin/contracts/utils/Address.sol\":4023:4090  (bool success, bytes memory returndata) = target.delegatecall(data) */\n      swap2\n      pop\n      swap2\n      pop\n        /* \"@openzeppelin/contracts/utils/Address.sol\":4107:4162  verifyCallResultFromTarget(target, success, returndata) */\n      tag_493\n        /* \"@openzeppelin/contracts/utils/Address.sol\":4134:4140  target */\n      dup6\n        /* \"@openzeppelin/contracts/utils/Address.sol\":4142:4149  success */\n      dup4\n        /* \"@openzeppelin/contracts/utils/Address.sol\":4151:4161  returndata */\n      dup4\n        /* \"@openzeppelin/contracts/utils/Address.sol\":4107:4133  verifyCallResultFromTarget */\n      tag_494\n        /* \"@openzeppelin/contracts/utils/Address.sol\":4107:4162  verifyCallResultFromTarget(target, success, returndata) */\n      jump\t// in\n    tag_493:\n        /* \"@openzeppelin/contracts/utils/Address.sol\":4100:4162  return verifyCallResultFromTarget(target, success, returndata) */\n      swap6\n        /* \"@openzeppelin/contracts/utils/Address.sol\":3916:4169  function functionDelegateCall(address target, bytes memory data) internal returns (bytes memory) {... */\n      swap5\n      pop\n      pop\n      pop\n      pop\n      pop\n      jump\t// out\n        /* \"@openzeppelin/contracts/proxy/ERC1967/ERC1967Utils.sol\":6113:6235  function _checkNonPayable() private {... */\n    tag_479:\n        /* \"@openzeppelin/contracts/proxy/ERC1967/ERC1967Utils.sol\":6163:6172  msg.value */\n      callvalue\n        /* \"@openzeppelin/contracts/proxy/ERC1967/ERC1967Utils.sol\":6163:6176  msg.value > 0 */\n      iszero\n        /* \"@openzeppelin/contracts/proxy/ERC1967/ERC1967Utils.sol\":6159:6229  if (msg.value > 0) {... */\n      tag_332\n      jumpi\n        /* \"@openzeppelin/contracts/proxy/ERC1967/ERC1967Utils.sol\":6199:6218  ERC1967NonPayable() */\n      mload(0x40)\n      shl(0xe0, 0xb398979f)\n      dup2\n      mstore\n      0x04\n      add\n      mload(0x40)\n      dup1\n      swap2\n      sub\n      swap1\n      revert\n        /* \"@openzeppelin/contracts/utils/Address.sol\":4437:5019  function verifyCallResultFromTarget(... */\n    tag_494:\n        /* \"@openzeppelin/contracts/utils/Address.sol\":4581:4593  bytes memory */\n      0x60\n        /* \"@openzeppelin/contracts/utils/Address.sol\":4610:4617  success */\n      dup3\n        /* \"@openzeppelin/contracts/utils/Address.sol\":4605:5013  if (!success) {... */\n      tag_498\n      jumpi\n        /* \"@openzeppelin/contracts/utils/Address.sol\":4633:4652  _revert(returndata) */\n      tag_499\n        /* \"@openzeppelin/contracts/utils/Address.sol\":4641:4651  returndata */\n      dup3\n        /* \"@openzeppelin/contracts/utils/Address.sol\":4633:4640  _revert */\n      tag_500\n        /* \"@openzeppelin/contracts/utils/Address.sol\":4633:4652  _revert(returndata) */\n      jump\t// in\n    tag_499:\n        /* \"@openzeppelin/contracts/utils/Address.sol\":4605:5013  if (!success) {... */\n      jump(tag_501)\n    tag_498:\n        /* \"@openzeppelin/contracts/utils/Address.sol\":4857:4874  returndata.length */\n      dup2\n      mload\n        /* \"@openzeppelin/contracts/utils/Address.sol\":4857:4879  returndata.length == 0 */\n      iszero\n        /* \"@openzeppelin/contracts/utils/Address.sol\":4857:4906  returndata.length == 0 && target.code.length == 0 */\n      dup1\n      iszero\n      tag_502\n      jumpi\n      pop\n      sub(shl(0xa0, 0x01), 0x01)\n        /* \"@openzeppelin/contracts/utils/Address.sol\":4883:4901  target.code.length */\n      dup5\n      and\n      extcodesize\n        /* \"@openzeppelin/contracts/utils/Address.sol\":4883:4906  target.code.length == 0 */\n      iszero\n        /* \"@openzeppelin/contracts/utils/Address.sol\":4857:4906  returndata.length == 0 && target.code.length == 0 */\n    tag_502:\n        /* \"@openzeppelin/contracts/utils/Address.sol\":4853:4972  if (returndata.length == 0 && target.code.length == 0) {... */\n      iszero\n      tag_503\n      jumpi\n        /* \"@openzeppelin/contracts/utils/Address.sol\":4933:4957  AddressEmptyCode(target) */\n      mload(0x40)\n      shl(0xe0, 0x9996b315)\n      dup2\n      mstore\n      sub(shl(0xa0, 0x01), 0x01)\n        /* \"#utility.yul\":4046:4078   */\n      dup6\n      and\n        /* \"@openzeppelin/contracts/utils/Address.sol\":4933:4957  AddressEmptyCode(target) */\n      0x04\n      dup3\n      add\n        /* \"#utility.yul\":4028:4079   */\n      mstore\n        /* \"#utility.yul\":4001:4019   */\n      0x24\n      add\n        /* \"@openzeppelin/contracts/utils/Address.sol\":4933:4957  AddressEmptyCode(target) */\n      tag_190\n        /* \"#utility.yul\":3882:4085   */\n      jump\n        /* \"@openzeppelin/contracts/utils/Address.sol\":4853:4972  if (returndata.length == 0 && target.code.length == 0) {... */\n    tag_503:\n      pop\n        /* \"@openzeppelin/contracts/utils/Address.sol\":4992:5002  returndata */\n      dup1\n        /* \"@openzeppelin/contracts/utils/Address.sol\":4605:5013  if (!success) {... */\n    tag_501:\n        /* \"@openzeppelin/contracts/utils/Address.sol\":4437:5019  function verifyCallResultFromTarget(... */\n      swap4\n      swap3\n      pop\n      pop\n      pop\n      jump\t// out\n        /* \"@openzeppelin/contracts/utils/Address.sol\":5559:6046  function _revert(bytes memory returndata) private pure {... */\n    tag_500:\n        /* \"@openzeppelin/contracts/utils/Address.sol\":5690:5707  returndata.length */\n      dup1\n      mload\n        /* \"@openzeppelin/contracts/utils/Address.sol\":5690:5711  returndata.length > 0 */\n      iszero\n        /* \"@openzeppelin/contracts/utils/Address.sol\":5686:6040  if (returndata.length > 0) {... */\n      tag_506\n      jumpi\n        /* \"@openzeppelin/contracts/utils/Address.sol\":5887:5897  returndata */\n      dup1\n        /* \"@openzeppelin/contracts/utils/Address.sol\":5881:5898  mload(returndata) */\n      mload\n        /* \"@openzeppelin/contracts/utils/Address.sol\":5943:5958  returndata_size */\n      dup1\n        /* \"@openzeppelin/contracts/utils/Address.sol\":5930:5940  returndata */\n      dup3\n        /* \"@openzeppelin/contracts/utils/Address.sol\":5926:5928  32 */\n      0x20\n        /* \"@openzeppelin/contracts/utils/Address.sol\":5922:5941  add(32, returndata) */\n      add\n        /* \"@openzeppelin/contracts/utils/Address.sol\":5915:5959  revert(add(32, returndata), returndata_size) */\n      revert\n        /* \"@openzeppelin/contracts/utils/Address.sol\":5686:6040  if (returndata.length > 0) {... */\n    tag_506:\n        /* \"@openzeppelin/contracts/utils/Address.sol\":6010:6029  Errors.FailedCall() */\n      mload(0x40)\n      shl(0xe0, 0xd6bda275)\n      dup2\n      mstore\n      0x04\n      add\n      mload(0x40)\n      dup1\n      swap2\n      sub\n      swap1\n      revert\n    tag_350:\n      pop\n      dup1\n      sload\n      0x00\n      dup3\n      sstore\n      swap1\n      0x00\n      mstore\n      keccak256(0x00, 0x20)\n      swap1\n      dup2\n      add\n      swap1\n      tag_251\n      swap2\n      swap1\n    tag_511:\n      dup1\n      dup3\n      gt\n      iszero\n      tag_512\n      jumpi\n      0x00\n      dup2\n      sstore\n      0x01\n      add\n      jump(tag_511)\n    tag_512:\n      pop\n      swap1\n      jump\t// out\n        /* \"#utility.yul\":196:369   */\n    tag_513:\n        /* \"#utility.yul\":264:284   */\n      dup1\n      calldataload\n      sub(shl(0xa0, 0x01), 0x01)\n        /* \"#utility.yul\":313:344   */\n      dup2\n      and\n        /* \"#utility.yul\":303:345   */\n      dup2\n      eq\n        /* \"#utility.yul\":293:363   */\n      tag_522\n      jumpi\n        /* \"#utility.yul\":359:360   */\n      0x00\n        /* \"#utility.yul\":356:357   */\n      0x00\n        /* \"#utility.yul\":349:361   */\n      revert\n        /* \"#utility.yul\":293:363   */\n    tag_522:\n        /* \"#utility.yul\":196:369   */\n      swap2\n      swap1\n      pop\n      jump\t// out\n        /* \"#utility.yul\":374:892   */\n    tag_46:\n        /* \"#utility.yul\":469:475   */\n      0x00\n        /* \"#utility.yul\":477:483   */\n      0x00\n        /* \"#utility.yul\":485:491   */\n      0x00\n        /* \"#utility.yul\":493:499   */\n      0x00\n        /* \"#utility.yul\":501:507   */\n      0x00\n        /* \"#utility.yul\":554:557   */\n      0xa0\n        /* \"#utility.yul\":542:551   */\n      dup7\n        /* \"#utility.yul\":533:540   */\n      dup9\n        /* \"#utility.yul\":529:552   */\n      sub\n        /* \"#utility.yul\":525:558   */\n      slt\n        /* \"#utility.yul\":522:575   */\n      iszero\n      tag_524\n      jumpi\n        /* \"#utility.yul\":571:572   */\n      0x00\n        /* \"#utility.yul\":568:569   */\n      0x00\n        /* \"#utility.yul\":561:573   */\n      revert\n        /* \"#utility.yul\":522:575   */\n    tag_524:\n        /* \"#utility.yul\":594:623   */\n      tag_525\n        /* \"#utility.yul\":613:622   */\n      dup7\n        /* \"#utility.yul\":594:623   */\n      tag_513\n      jump\t// in\n    tag_525:\n        /* \"#utility.yul\":584:623   */\n      swap5\n      pop\n        /* \"#utility.yul\":670:672   */\n      0x20\n        /* \"#utility.yul\":655:673   */\n      dup7\n      add\n        /* \"#utility.yul\":642:674   */\n      calldataload\n      swap4\n      pop\n        /* \"#utility.yul\":743:745   */\n      0x40\n        /* \"#utility.yul\":728:746   */\n      dup7\n      add\n        /* \"#utility.yul\":715:747   */\n      calldataload\n      swap3\n      pop\n        /* \"#utility.yul\":790:828   */\n      tag_526\n        /* \"#utility.yul\":824:826   */\n      0x60\n        /* \"#utility.yul\":809:827   */\n      dup8\n      add\n        /* \"#utility.yul\":790:828   */\n      tag_513\n      jump\t// in\n    tag_526:\n        /* \"#utility.yul\":780:828   */\n      swap2\n      pop\n        /* \"#utility.yul\":847:886   */\n      tag_527\n        /* \"#utility.yul\":881:884   */\n      0x80\n        /* \"#utility.yul\":870:879   */\n      dup8\n        /* \"#utility.yul\":866:885   */\n      add\n        /* \"#utility.yul\":847:886   */\n      tag_513\n      jump\t// in\n    tag_527:\n        /* \"#utility.yul\":837:886   */\n      swap1\n      pop\n        /* \"#utility.yul\":374:892   */\n      swap3\n      swap6\n      pop\n      swap3\n      swap6\n      swap1\n      swap4\n      pop\n      jump\t// out\n        /* \"#utility.yul\":897:1123   */\n    tag_51:\n        /* \"#utility.yul\":956:962   */\n      0x00\n        /* \"#utility.yul\":1009:1011   */\n      0x20\n        /* \"#utility.yul\":997:1006   */\n      dup3\n        /* \"#utility.yul\":988:995   */\n      dup5\n        /* \"#utility.yul\":984:1007   */\n      sub\n        /* \"#utility.yul\":980:1012   */\n      slt\n        /* \"#utility.yul\":977:1029   */\n      iszero\n      tag_529\n      jumpi\n        /* \"#utility.yul\":1025:1026   */\n      0x00\n        /* \"#utility.yul\":1022:1023   */\n      0x00\n        /* \"#utility.yul\":1015:1027   */\n      revert\n        /* \"#utility.yul\":977:1029   */\n    tag_529:\n      pop\n        /* \"#utility.yul\":1070:1093   */\n      calldataload\n      swap2\n        /* \"#utility.yul\":897:1123   */\n      swap1\n      pop\n      jump\t// out\n        /* \"#utility.yul\":2355:2482   */\n    tag_515:\n        /* \"#utility.yul\":2416:2426   */\n      0x4e487b71\n        /* \"#utility.yul\":2411:2414   */\n      0xe0\n        /* \"#utility.yul\":2407:2427   */\n      shl\n        /* \"#utility.yul\":2404:2405   */\n      0x00\n        /* \"#utility.yul\":2397:2428   */\n      mstore\n        /* \"#utility.yul\":2447:2451   */\n      0x41\n        /* \"#utility.yul\":2444:2445   */\n      0x04\n        /* \"#utility.yul\":2437:2452   */\n      mstore\n        /* \"#utility.yul\":2471:2475   */\n      0x24\n        /* \"#utility.yul\":2468:2469   */\n      0x00\n        /* \"#utility.yul\":2461:2476   */\n      revert\n        /* \"#utility.yul\":2487:2762   */\n    tag_516:\n        /* \"#utility.yul\":2558:2560   */\n      0x40\n        /* \"#utility.yul\":2552:2561   */\n      mload\n        /* \"#utility.yul\":2623:2625   */\n      0x1f\n        /* \"#utility.yul\":2604:2617   */\n      dup3\n      add\n      not(0x1f)\n        /* \"#utility.yul\":2600:2627   */\n      and\n        /* \"#utility.yul\":2588:2628   */\n      dup2\n      add\n        /* \"#utility.yul\":2658:2676   */\n      0xffffffffffffffff\n        /* \"#utility.yul\":2643:2677   */\n      dup2\n      gt\n        /* \"#utility.yul\":2679:2701   */\n      dup3\n      dup3\n      lt\n        /* \"#utility.yul\":2640:2702   */\n      or\n        /* \"#utility.yul\":2637:2725   */\n      iszero\n      tag_536\n      jumpi\n        /* \"#utility.yul\":2705:2723   */\n      tag_536\n      tag_515\n      jump\t// in\n    tag_536:\n        /* \"#utility.yul\":2741:2743   */\n      0x40\n        /* \"#utility.yul\":2734:2756   */\n      mstore\n        /* \"#utility.yul\":2487:2762   */\n      swap2\n      swap1\n      pop\n      jump\t// out\n        /* \"#utility.yul\":2767:3877   */\n    tag_63:\n        /* \"#utility.yul\":2860:2866   */\n      0x00\n        /* \"#utility.yul\":2868:2874   */\n      0x00\n        /* \"#utility.yul\":2921:2923   */\n      0x40\n        /* \"#utility.yul\":2909:2918   */\n      dup4\n        /* \"#utility.yul\":2900:2907   */\n      dup6\n        /* \"#utility.yul\":2896:2919   */\n      sub\n        /* \"#utility.yul\":2892:2924   */\n      slt\n        /* \"#utility.yul\":2889:2941   */\n      iszero\n      tag_538\n      jumpi\n        /* \"#utility.yul\":2937:2938   */\n      0x00\n        /* \"#utility.yul\":2934:2935   */\n      0x00\n        /* \"#utility.yul\":2927:2939   */\n      revert\n        /* \"#utility.yul\":2889:2941   */\n    tag_538:\n        /* \"#utility.yul\":2982:3005   */\n      dup3\n      calldataload\n      swap2\n      pop\n        /* \"#utility.yul\":3080:3082   */\n      0x20\n        /* \"#utility.yul\":3065:3083   */\n      dup4\n      add\n        /* \"#utility.yul\":3052:3084   */\n      calldataload\n        /* \"#utility.yul\":3107:3125   */\n      0xffffffffffffffff\n        /* \"#utility.yul\":3096:3126   */\n      dup2\n      gt\n        /* \"#utility.yul\":3093:3143   */\n      iszero\n      tag_539\n      jumpi\n        /* \"#utility.yul\":3139:3140   */\n      0x00\n        /* \"#utility.yul\":3136:3137   */\n      0x00\n        /* \"#utility.yul\":3129:3141   */\n      revert\n        /* \"#utility.yul\":3093:3143   */\n    tag_539:\n        /* \"#utility.yul\":3162:3184   */\n      dup4\n      add\n        /* \"#utility.yul\":3215:3219   */\n      0x1f\n        /* \"#utility.yul\":3207:3220   */\n      dup2\n      add\n        /* \"#utility.yul\":3203:3230   */\n      dup6\n      sgt\n        /* \"#utility.yul\":3193:3248   */\n      tag_540\n      jumpi\n        /* \"#utility.yul\":3244:3245   */\n      0x00\n        /* \"#utility.yul\":3241:3242   */\n      0x00\n        /* \"#utility.yul\":3234:3246   */\n      revert\n        /* \"#utility.yul\":3193:3248   */\n    tag_540:\n        /* \"#utility.yul\":3284:3286   */\n      dup1\n        /* \"#utility.yul\":3271:3287   */\n      calldataload\n        /* \"#utility.yul\":3310:3328   */\n      0xffffffffffffffff\n        /* \"#utility.yul\":3302:3308   */\n      dup2\n        /* \"#utility.yul\":3299:3329   */\n      gt\n        /* \"#utility.yul\":3296:3352   */\n      iszero\n      tag_542\n      jumpi\n        /* \"#utility.yul\":3332:3350   */\n      tag_542\n      tag_515\n      jump\t// in\n    tag_542:\n        /* \"#utility.yul\":3378:3384   */\n      dup1\n        /* \"#utility.yul\":3375:3376   */\n      0x05\n        /* \"#utility.yul\":3371:3385   */\n      shl\n        /* \"#utility.yul\":3405:3433   */\n      tag_543\n        /* \"#utility.yul\":3429:3431   */\n      0x20\n        /* \"#utility.yul\":3425:3427   */\n      dup3\n        /* \"#utility.yul\":3421:3432   */\n      add\n        /* \"#utility.yul\":3405:3433   */\n      tag_516\n      jump\t// in\n    tag_543:\n        /* \"#utility.yul\":3467:3486   */\n      swap2\n      dup3\n      mstore\n        /* \"#utility.yul\":3511:3513   */\n      0x20\n        /* \"#utility.yul\":3541:3552   */\n      dup2\n      dup5\n      add\n        /* \"#utility.yul\":3537:3557   */\n      dup2\n      add\n      swap3\n        /* \"#utility.yul\":3502:3514   */\n      swap1\n      dup2\n      add\n      swap1\n        /* \"#utility.yul\":3569:3588   */\n      dup9\n      dup5\n      gt\n        /* \"#utility.yul\":3566:3605   */\n      iszero\n      tag_544\n      jumpi\n        /* \"#utility.yul\":3601:3602   */\n      0x00\n        /* \"#utility.yul\":3598:3599   */\n      0x00\n        /* \"#utility.yul\":3591:3603   */\n      revert\n        /* \"#utility.yul\":3566:3605   */\n    tag_544:\n        /* \"#utility.yul\":3633:3635   */\n      0x20\n        /* \"#utility.yul\":3629:3631   */\n      dup6\n        /* \"#utility.yul\":3625:3636   */\n      add\n        /* \"#utility.yul\":3614:3636   */\n      swap5\n      pop\n        /* \"#utility.yul\":3645:3847   */\n    tag_545:\n        /* \"#utility.yul\":3661:3667   */\n      dup4\n        /* \"#utility.yul\":3656:3659   */\n      dup6\n        /* \"#utility.yul\":3653:3668   */\n      lt\n        /* \"#utility.yul\":3645:3847   */\n      iszero\n      tag_547\n      jumpi\n        /* \"#utility.yul\":3755:3772   */\n      dup5\n      calldataload\n        /* \"#utility.yul\":3785:3805   */\n      dup1\n      dup4\n      mstore\n        /* \"#utility.yul\":3834:3836   */\n      0x20\n        /* \"#utility.yul\":3678:3690   */\n      swap6\n      dup7\n      add\n      swap6\n        /* \"#utility.yul\":3755:3772   */\n      swap1\n      swap4\n      pop\n        /* \"#utility.yul\":3825:3837   */\n      swap1\n      swap2\n      add\n      swap1\n        /* \"#utility.yul\":3645:3847   */\n      jump(tag_545)\n    tag_547:\n        /* \"#utility.yul\":3866:3871   */\n      dup1\n        /* \"#utility.yul\":3856:3871   */\n      swap6\n      pop\n      pop\n      pop\n      pop\n      pop\n      pop\n        /* \"#utility.yul\":2767:3877   */\n      swap3\n      pop\n      swap3\n      swap1\n      pop\n      jump\t// out\n        /* \"#utility.yul\":4287:4633   */\n    tag_78:\n        /* \"#utility.yul\":4355:4361   */\n      0x00\n        /* \"#utility.yul\":4363:4369   */\n      0x00\n        /* \"#utility.yul\":4416:4418   */\n      0x40\n        /* \"#utility.yul\":4404:4413   */\n      dup4\n        /* \"#utility.yul\":4395:4402   */\n      dup6\n        /* \"#utility.yul\":4391:4414   */\n      sub\n        /* \"#utility.yul\":4387:4419   */\n      slt\n        /* \"#utility.yul\":4384:4436   */\n      iszero\n      tag_551\n      jumpi\n        /* \"#utility.yul\":4432:4433   */\n      0x00\n        /* \"#utility.yul\":4429:4430   */\n      0x00\n        /* \"#utility.yul\":4422:4434   */\n      revert\n        /* \"#utility.yul\":4384:4436   */\n    tag_551:\n      pop\n      pop\n        /* \"#utility.yul\":4477:4500   */\n      dup1\n      calldataload\n      swap3\n        /* \"#utility.yul\":4597:4599   */\n      0x20\n        /* \"#utility.yul\":4582:4600   */\n      swap1\n      swap2\n      add\n        /* \"#utility.yul\":4569:4601   */\n      calldataload\n      swap2\n      pop\n        /* \"#utility.yul\":4287:4633   */\n      jump\t// out\n        /* \"#utility.yul\":4638:5663   */\n    tag_87:\n        /* \"#utility.yul\":4760:4766   */\n      0x00\n        /* \"#utility.yul\":4768:4774   */\n      0x00\n        /* \"#utility.yul\":4776:4782   */\n      0x00\n        /* \"#utility.yul\":4784:4790   */\n      0x00\n        /* \"#utility.yul\":4792:4798   */\n      0x00\n        /* \"#utility.yul\":4800:4806   */\n      0x00\n        /* \"#utility.yul\":4808:4814   */\n      0x00\n        /* \"#utility.yul\":4816:4822   */\n      0x00\n        /* \"#utility.yul\":4869:4872   */\n      0x0100\n        /* \"#utility.yul\":4857:4866   */\n      dup10\n        /* \"#utility.yul\":4848:4855   */\n      dup12\n        /* \"#utility.yul\":4844:4867   */\n      sub\n        /* \"#utility.yul\":4840:4873   */\n      slt\n        /* \"#utility.yul\":4837:4890   */\n      iszero\n      tag_553\n      jumpi\n        /* \"#utility.yul\":4886:4887   */\n      0x00\n        /* \"#utility.yul\":4883:4884   */\n      0x00\n        /* \"#utility.yul\":4876:4888   */\n      revert\n        /* \"#utility.yul\":4837:4890   */\n    tag_553:\n        /* \"#utility.yul\":4909:4938   */\n      tag_554\n        /* \"#utility.yul\":4928:4937   */\n      dup10\n        /* \"#utility.yul\":4909:4938   */\n      tag_513\n      jump\t// in\n    tag_554:\n        /* \"#utility.yul\":4899:4938   */\n      swap11\n        /* \"#utility.yul\":5007:5009   */\n      0x20\n        /* \"#utility.yul\":4992:5010   */\n      dup11\n      add\n        /* \"#utility.yul\":4979:5011   */\n      calldataload\n      swap11\n      pop\n        /* \"#utility.yul\":5108:5110   */\n      0x40\n        /* \"#utility.yul\":5093:5111   */\n      dup11\n      add\n        /* \"#utility.yul\":5080:5112   */\n      calldataload\n      swap10\n        /* \"#utility.yul\":5211:5213   */\n      0x60\n        /* \"#utility.yul\":5196:5214   */\n      dup2\n      add\n        /* \"#utility.yul\":5183:5215   */\n      calldataload\n      swap10\n      pop\n        /* \"#utility.yul\":5314:5317   */\n      0x80\n        /* \"#utility.yul\":5299:5318   */\n      dup2\n      add\n        /* \"#utility.yul\":5286:5319   */\n      calldataload\n      swap9\n      pop\n        /* \"#utility.yul\":5418:5421   */\n      0xa0\n        /* \"#utility.yul\":5403:5422   */\n      dup2\n      add\n        /* \"#utility.yul\":5390:5423   */\n      calldataload\n      swap8\n      pop\n        /* \"#utility.yul\":5522:5525   */\n      0xc0\n        /* \"#utility.yul\":5507:5526   */\n      dup2\n      add\n        /* \"#utility.yul\":5494:5527   */\n      calldataload\n      swap7\n      pop\n        /* \"#utility.yul\":5626:5629   */\n      0xe0\n        /* \"#utility.yul\":5611:5630   */\n      add\n        /* \"#utility.yul\":5598:5631   */\n      calldataload\n      swap5\n      pop\n        /* \"#utility.yul\":4638:5663   */\n      swap3\n      pop\n      pop\n      pop\n      jump\t// out\n        /* \"#utility.yul\":5668:6507   */\n    tag_99:\n        /* \"#utility.yul\":5745:5751   */\n      0x00\n        /* \"#utility.yul\":5753:5759   */\n      0x00\n        /* \"#utility.yul\":5806:5808   */\n      0x40\n        /* \"#utility.yul\":5794:5803   */\n      dup4\n        /* \"#utility.yul\":5785:5792   */\n      dup6\n        /* \"#utility.yul\":5781:5804   */\n      sub\n        /* \"#utility.yul\":5777:5809   */\n      slt\n        /* \"#utility.yul\":5774:5826   */\n      iszero\n      tag_556\n      jumpi\n        /* \"#utility.yul\":5822:5823   */\n      0x00\n        /* \"#utility.yul\":5819:5820   */\n      0x00\n        /* \"#utility.yul\":5812:5824   */\n      revert\n        /* \"#utility.yul\":5774:5826   */\n    tag_556:\n        /* \"#utility.yul\":5845:5874   */\n      tag_557\n        /* \"#utility.yul\":5864:5873   */\n      dup4\n        /* \"#utility.yul\":5845:5874   */\n      tag_513\n      jump\t// in\n    tag_557:\n        /* \"#utility.yul\":5835:5874   */\n      swap2\n      pop\n        /* \"#utility.yul\":5925:5927   */\n      0x20\n        /* \"#utility.yul\":5914:5923   */\n      dup4\n        /* \"#utility.yul\":5910:5928   */\n      add\n        /* \"#utility.yul\":5897:5929   */\n      calldataload\n        /* \"#utility.yul\":5952:5970   */\n      0xffffffffffffffff\n        /* \"#utility.yul\":5944:5950   */\n      dup2\n        /* \"#utility.yul\":5941:5971   */\n      gt\n        /* \"#utility.yul\":5938:5988   */\n      iszero\n      tag_558\n      jumpi\n        /* \"#utility.yul\":5984:5985   */\n      0x00\n        /* \"#utility.yul\":5981:5982   */\n      0x00\n        /* \"#utility.yul\":5974:5986   */\n      revert\n        /* \"#utility.yul\":5938:5988   */\n    tag_558:\n        /* \"#utility.yul\":6007:6029   */\n      dup4\n      add\n        /* \"#utility.yul\":6060:6064   */\n      0x1f\n        /* \"#utility.yul\":6052:6065   */\n      dup2\n      add\n        /* \"#utility.yul\":6048:6075   */\n      dup6\n      sgt\n        /* \"#utility.yul\":6038:6093   */\n      tag_559\n      jumpi\n        /* \"#utility.yul\":6089:6090   */\n      0x00\n        /* \"#utility.yul\":6086:6087   */\n      0x00\n        /* \"#utility.yul\":6079:6091   */\n      revert\n        /* \"#utility.yul\":6038:6093   */\n    tag_559:\n        /* \"#utility.yul\":6129:6131   */\n      dup1\n        /* \"#utility.yul\":6116:6132   */\n      calldataload\n        /* \"#utility.yul\":6155:6173   */\n      0xffffffffffffffff\n        /* \"#utility.yul\":6147:6153   */\n      dup2\n        /* \"#utility.yul\":6144:6174   */\n      gt\n        /* \"#utility.yul\":6141:6197   */\n      iszero\n      tag_561\n      jumpi\n        /* \"#utility.yul\":6177:6195   */\n      tag_561\n      tag_515\n      jump\t// in\n    tag_561:\n        /* \"#utility.yul\":6219:6276   */\n      tag_562\n        /* \"#utility.yul\":6266:6268   */\n      0x1f\n        /* \"#utility.yul\":6243:6260   */\n      dup3\n      add\n      not(0x1f)\n        /* \"#utility.yul\":6239:6270   */\n      and\n        /* \"#utility.yul\":6272:6274   */\n      0x20\n        /* \"#utility.yul\":6235:6275   */\n      add\n        /* \"#utility.yul\":6219:6276   */\n      tag_516\n      jump\t// in\n    tag_562:\n        /* \"#utility.yul\":6299:6305   */\n      dup2\n        /* \"#utility.yul\":6292:6297   */\n      dup2\n        /* \"#utility.yul\":6285:6306   */\n      mstore\n        /* \"#utility.yul\":6347:6354   */\n      dup7\n        /* \"#utility.yul\":6342:6344   */\n      0x20\n        /* \"#utility.yul\":6333:6339   */\n      dup4\n        /* \"#utility.yul\":6329:6331   */\n      dup6\n        /* \"#utility.yul\":6325:6340   */\n      add\n        /* \"#utility.yul\":6321:6345   */\n      add\n        /* \"#utility.yul\":6318:6355   */\n      gt\n        /* \"#utility.yul\":6315:6372   */\n      iszero\n      tag_563\n      jumpi\n        /* \"#utility.yul\":6368:6369   */\n      0x00\n        /* \"#utility.yul\":6365:6366   */\n      0x00\n        /* \"#utility.yul\":6358:6370   */\n      revert\n        /* \"#utility.yul\":6315:6372   */\n    tag_563:\n        /* \"#utility.yul\":6423:6429   */\n      dup2\n        /* \"#utility.yul\":6418:6420   */\n      0x20\n        /* \"#utility.yul\":6414:6416   */\n      dup5\n        /* \"#utility.yul\":6410:6421   */\n      add\n        /* \"#utility.yul\":6405:6407   */\n      0x20\n        /* \"#utility.yul\":6398:6403   */\n      dup4\n        /* \"#utility.yul\":6394:6408   */\n      add\n        /* \"#utility.yul\":6381:6430   */\n      calldatacopy\n        /* \"#utility.yul\":6475:6476   */\n      0x00\n        /* \"#utility.yul\":6470:6472   */\n      0x20\n        /* \"#utility.yul\":6461:6467   */\n      dup4\n        /* \"#utility.yul\":6454:6459   */\n      dup4\n        /* \"#utility.yul\":6450:6468   */\n      add\n        /* \"#utility.yul\":6446:6473   */\n      add\n        /* \"#utility.yul\":6439:6477   */\n      mstore\n        /* \"#utility.yul\":6496:6501   */\n      dup1\n        /* \"#utility.yul\":6486:6501   */\n      swap4\n      pop\n      pop\n      pop\n      pop\n        /* \"#utility.yul\":5668:6507   */\n      swap3\n      pop\n      swap3\n      swap1\n      pop\n      jump\t// out\n        /* \"#utility.yul\":6694:6983   */\n    tag_517:\n        /* \"#utility.yul\":6736:6739   */\n      0x00\n        /* \"#utility.yul\":6774:6779   */\n      dup2\n        /* \"#utility.yul\":6768:6780   */\n      mload\n        /* \"#utility.yul\":6801:6807   */\n      dup1\n        /* \"#utility.yul\":6796:6799   */\n      dup5\n        /* \"#utility.yul\":6789:6808   */\n      mstore\n        /* \"#utility.yul\":6857:6863   */\n      dup1\n        /* \"#utility.yul\":6850:6854   */\n      0x20\n        /* \"#utility.yul\":6843:6848   */\n      dup5\n        /* \"#utility.yul\":6839:6855   */\n      add\n        /* \"#utility.yul\":6832:6836   */\n      0x20\n        /* \"#utility.yul\":6827:6830   */\n      dup7\n        /* \"#utility.yul\":6823:6837   */\n      add\n        /* \"#utility.yul\":6817:6864   */\n      mcopy\n        /* \"#utility.yul\":6909:6910   */\n      0x00\n        /* \"#utility.yul\":6902:6906   */\n      0x20\n        /* \"#utility.yul\":6893:6899   */\n      dup3\n        /* \"#utility.yul\":6888:6891   */\n      dup7\n        /* \"#utility.yul\":6884:6900   */\n      add\n        /* \"#utility.yul\":6880:6907   */\n      add\n        /* \"#utility.yul\":6873:6911   */\n      mstore\n        /* \"#utility.yul\":6972:6976   */\n      0x20\n        /* \"#utility.yul\":6965:6967   */\n      0x1f\n        /* \"#utility.yul\":6961:6968   */\n      not\n        /* \"#utility.yul\":6956:6958   */\n      0x1f\n        /* \"#utility.yul\":6948:6954   */\n      dup4\n        /* \"#utility.yul\":6944:6959   */\n      add\n        /* \"#utility.yul\":6940:6969   */\n      and\n        /* \"#utility.yul\":6935:6938   */\n      dup6\n        /* \"#utility.yul\":6931:6970   */\n      add\n        /* \"#utility.yul\":6927:6977   */\n      add\n        /* \"#utility.yul\":6920:6977   */\n      swap2\n      pop\n      pop\n        /* \"#utility.yul\":6694:6983   */\n      swap3\n      swap2\n      pop\n      pop\n      jump\t// out\n        /* \"#utility.yul\":6988:7208   */\n    tag_145:\n        /* \"#utility.yul\":7137:7139   */\n      0x20\n        /* \"#utility.yul\":7126:7135   */\n      dup2\n        /* \"#utility.yul\":7119:7140   */\n      mstore\n        /* \"#utility.yul\":7100:7104   */\n      0x00\n        /* \"#utility.yul\":7157:7202   */\n      tag_501\n        /* \"#utility.yul\":7198:7200   */\n      0x20\n        /* \"#utility.yul\":7187:7196   */\n      dup4\n        /* \"#utility.yul\":7183:7201   */\n      add\n        /* \"#utility.yul\":7175:7181   */\n      dup5\n        /* \"#utility.yul\":7157:7202   */\n      tag_517\n      jump\t// in\n        /* \"#utility.yul\":7406:8043   */\n    tag_160:\n        /* \"#utility.yul\":7596:7598   */\n      0x20\n        /* \"#utility.yul\":7608:7629   */\n      dup1\n      dup3\n      mstore\n        /* \"#utility.yul\":7678:7691   */\n      dup3\n      mload\n        /* \"#utility.yul\":7581:7599   */\n      dup3\n      dup3\n      add\n        /* \"#utility.yul\":7700:7722   */\n      dup2\n      swap1\n      mstore\n        /* \"#utility.yul\":7548:7552   */\n      0x00\n      swap2\n        /* \"#utility.yul\":7779:7794   */\n      dup5\n      add\n      swap1\n        /* \"#utility.yul\":7753:7755   */\n      0x40\n        /* \"#utility.yul\":7738:7756   */\n      dup5\n      add\n      swap1\n        /* \"#utility.yul\":7548:7552   */\n      dup4\n        /* \"#utility.yul\":7822:8017   */\n    tag_570:\n        /* \"#utility.yul\":7836:7842   */\n      dup2\n        /* \"#utility.yul\":7833:7834   */\n      dup2\n        /* \"#utility.yul\":7830:7843   */\n      lt\n        /* \"#utility.yul\":7822:8017   */\n      iszero\n      tag_572\n      jumpi\n        /* \"#utility.yul\":7901:7914   */\n      dup4\n      mload\n      sub(shl(0xa0, 0x01), 0x01)\n        /* \"#utility.yul\":7897:7936   */\n      and\n        /* \"#utility.yul\":7885:7937   */\n      dup4\n      mstore\n        /* \"#utility.yul\":7966:7968   */\n      0x20\n        /* \"#utility.yul\":7992:8007   */\n      swap4\n      dup5\n      add\n      swap4\n        /* \"#utility.yul\":7957:7969   */\n      swap1\n      swap3\n      add\n      swap2\n        /* \"#utility.yul\":7933:7934   */\n      0x01\n        /* \"#utility.yul\":7851:7860   */\n      add\n        /* \"#utility.yul\":7822:8017   */\n      jump(tag_570)\n    tag_572:\n      pop\n        /* \"#utility.yul\":8034:8037   */\n      swap1\n      swap6\n        /* \"#utility.yul\":7406:8043   */\n      swap5\n      pop\n      pop\n      pop\n      pop\n      pop\n      jump\t// out\n        /* \"#utility.yul\":8048:8234   */\n    tag_168:\n        /* \"#utility.yul\":8107:8113   */\n      0x00\n        /* \"#utility.yul\":8160:8162   */\n      0x20\n        /* \"#utility.yul\":8148:8157   */\n      dup3\n        /* \"#utility.yul\":8139:8146   */\n      dup5\n        /* \"#utility.yul\":8135:8158   */\n      sub\n        /* \"#utility.yul\":8131:8163   */\n      slt\n        /* \"#utility.yul\":8128:8180   */\n      iszero\n      tag_574\n      jumpi\n        /* \"#utility.yul\":8176:8177   */\n      0x00\n        /* \"#utility.yul\":8173:8174   */\n      0x00\n        /* \"#utility.yul\":8166:8178   */\n      revert\n        /* \"#utility.yul\":8128:8180   */\n    tag_574:\n        /* \"#utility.yul\":8199:8228   */\n      tag_501\n        /* \"#utility.yul\":8218:8227   */\n      dup3\n        /* \"#utility.yul\":8199:8228   */\n      tag_513\n      jump\t// in\n        /* \"#utility.yul\":10481:10608   */\n    tag_518:\n        /* \"#utility.yul\":10542:10552   */\n      0x4e487b71\n        /* \"#utility.yul\":10537:10540   */\n      0xe0\n        /* \"#utility.yul\":10533:10553   */\n      shl\n        /* \"#utility.yul\":10530:10531   */\n      0x00\n        /* \"#utility.yul\":10523:10554   */\n      mstore\n        /* \"#utility.yul\":10573:10577   */\n      0x11\n        /* \"#utility.yul\":10570:10571   */\n      0x04\n        /* \"#utility.yul\":10563:10578   */\n      mstore\n        /* \"#utility.yul\":10597:10601   */\n      0x24\n        /* \"#utility.yul\":10594:10595   */\n      0x00\n        /* \"#utility.yul\":10587:10602   */\n      revert\n        /* \"#utility.yul\":10613:10741   */\n    tag_217:\n        /* \"#utility.yul\":10680:10689   */\n      dup2\n      dup2\n      sub\n        /* \"#utility.yul\":10701:10712   */\n      dup2\n      dup2\n      gt\n        /* \"#utility.yul\":10698:10735   */\n      iszero\n      tag_378\n      jumpi\n        /* \"#utility.yul\":10715:10733   */\n      tag_378\n      tag_518\n      jump\t// in\n        /* \"#utility.yul\":11122:11399   */\n    tag_223:\n        /* \"#utility.yul\":11189:11195   */\n      0x00\n        /* \"#utility.yul\":11242:11244   */\n      0x20\n        /* \"#utility.yul\":11230:11239   */\n      dup3\n        /* \"#utility.yul\":11221:11228   */\n      dup5\n        /* \"#utility.yul\":11217:11240   */\n      sub\n        /* \"#utility.yul\":11213:11245   */\n      slt\n        /* \"#utility.yul\":11210:11262   */\n      iszero\n      tag_589\n      jumpi\n        /* \"#utility.yul\":11258:11259   */\n      0x00\n        /* \"#utility.yul\":11255:11256   */\n      0x00\n        /* \"#utility.yul\":11248:11260   */\n      revert\n        /* \"#utility.yul\":11210:11262   */\n    tag_589:\n        /* \"#utility.yul\":11290:11299   */\n      dup2\n        /* \"#utility.yul\":11284:11300   */\n      mload\n        /* \"#utility.yul\":11343:11348   */\n      dup1\n        /* \"#utility.yul\":11336:11349   */\n      iszero\n        /* \"#utility.yul\":11329:11350   */\n      iszero\n        /* \"#utility.yul\":11322:11327   */\n      dup2\n        /* \"#utility.yul\":11319:11351   */\n      eq\n        /* \"#utility.yul\":11309:11369   */\n      tag_501\n      jumpi\n        /* \"#utility.yul\":11365:11366   */\n      0x00\n        /* \"#utility.yul\":11362:11363   */\n      0x00\n        /* \"#utility.yul\":11355:11367   */\n      revert\n        /* \"#utility.yul\":11404:11539   */\n    tag_226:\n        /* \"#utility.yul\":11443:11446   */\n      0x00\n        /* \"#utility.yul\":11464:11481   */\n      0x01\n      dup3\n      add\n        /* \"#utility.yul\":11461:11504   */\n      tag_593\n      jumpi\n        /* \"#utility.yul\":11484:11502   */\n      tag_593\n      tag_518\n      jump\t// in\n    tag_593:\n      pop\n        /* \"#utility.yul\":11531:11532   */\n      0x01\n        /* \"#utility.yul\":11520:11533   */\n      add\n      swap1\n        /* \"#utility.yul\":11404:11539   */\n      jump\t// out\n        /* \"#utility.yul\":14913:15081   */\n    tag_299:\n        /* \"#utility.yul\":14986:14995   */\n      dup1\n      dup3\n      mul\n        /* \"#utility.yul\":15017:15026   */\n      dup2\n      iszero\n        /* \"#utility.yul\":15034:15049   */\n      dup3\n      dup3\n      div\n        /* \"#utility.yul\":15028:15050   */\n      dup5\n      eq\n        /* \"#utility.yul\":15014:15051   */\n      or\n        /* \"#utility.yul\":15004:15075   */\n      tag_378\n      jumpi\n        /* \"#utility.yul\":15055:15073   */\n      tag_378\n      tag_518\n      jump\t// in\n        /* \"#utility.yul\":16401:17109   */\n    tag_322:\n        /* \"#utility.yul\":16600:16602   */\n      0x20\n        /* \"#utility.yul\":16589:16598   */\n      dup2\n        /* \"#utility.yul\":16582:16603   */\n      mstore\n        /* \"#utility.yul\":16645:16651   */\n      dup2\n        /* \"#utility.yul\":16639:16652   */\n      mload\n        /* \"#utility.yul\":16634:16636   */\n      0x20\n        /* \"#utility.yul\":16623:16632   */\n      dup3\n        /* \"#utility.yul\":16619:16637   */\n      add\n        /* \"#utility.yul\":16612:16653   */\n      mstore\n        /* \"#utility.yul\":16707:16709   */\n      0x20\n        /* \"#utility.yul\":16699:16705   */\n      dup3\n        /* \"#utility.yul\":16695:16710   */\n      add\n        /* \"#utility.yul\":16689:16711   */\n      mload\n        /* \"#utility.yul\":16684:16686   */\n      0x40\n        /* \"#utility.yul\":16673:16682   */\n      dup3\n        /* \"#utility.yul\":16669:16687   */\n      add\n        /* \"#utility.yul\":16662:16712   */\n      mstore\n        /* \"#utility.yul\":16776:16782   */\n      0xffff\n        /* \"#utility.yul\":16770:16772   */\n      0x40\n        /* \"#utility.yul\":16762:16768   */\n      dup4\n        /* \"#utility.yul\":16758:16773   */\n      add\n        /* \"#utility.yul\":16752:16774   */\n      mload\n        /* \"#utility.yul\":16748:16783   */\n      and\n        /* \"#utility.yul\":16743:16745   */\n      0x60\n        /* \"#utility.yul\":16732:16741   */\n      dup3\n        /* \"#utility.yul\":16728:16746   */\n      add\n        /* \"#utility.yul\":16721:16784   */\n      mstore\n        /* \"#utility.yul\":16849:16859   */\n      0xffffffff\n        /* \"#utility.yul\":16843:16845   */\n      0x60\n        /* \"#utility.yul\":16835:16841   */\n      dup4\n        /* \"#utility.yul\":16831:16846   */\n      add\n        /* \"#utility.yul\":16825:16847   */\n      mload\n        /* \"#utility.yul\":16821:16860   */\n      and\n        /* \"#utility.yul\":16815:16818   */\n      0x80\n        /* \"#utility.yul\":16804:16813   */\n      dup3\n        /* \"#utility.yul\":16800:16819   */\n      add\n        /* \"#utility.yul\":16793:16861   */\n      mstore\n        /* \"#utility.yul\":16927:16937   */\n      0xffffffff\n        /* \"#utility.yul\":16920:16923   */\n      0x80\n        /* \"#utility.yul\":16912:16918   */\n      dup4\n        /* \"#utility.yul\":16908:16924   */\n      add\n        /* \"#utility.yul\":16902:16925   */\n      mload\n        /* \"#utility.yul\":16898:16938   */\n      and\n        /* \"#utility.yul\":16892:16895   */\n      0xa0\n        /* \"#utility.yul\":16881:16890   */\n      dup3\n        /* \"#utility.yul\":16877:16896   */\n      add\n        /* \"#utility.yul\":16870:16939   */\n      mstore\n        /* \"#utility.yul\":16563:16567   */\n      0x00\n        /* \"#utility.yul\":16986:16989   */\n      0xa0\n        /* \"#utility.yul\":16978:16984   */\n      dup4\n        /* \"#utility.yul\":16974:16990   */\n      add\n        /* \"#utility.yul\":16968:16991   */\n      mload\n        /* \"#utility.yul\":17029:17033   */\n      0xc0\n        /* \"#utility.yul\":17022:17026   */\n      dup1\n        /* \"#utility.yul\":17011:17020   */\n      dup5\n        /* \"#utility.yul\":17007:17027   */\n      add\n        /* \"#utility.yul\":17000:17034   */\n      mstore\n        /* \"#utility.yul\":17051:17103   */\n      tag_612\n        /* \"#utility.yul\":17098:17101   */\n      0xe0\n        /* \"#utility.yul\":17087:17096   */\n      dup5\n        /* \"#utility.yul\":17083:17102   */\n      add\n        /* \"#utility.yul\":17069:17081   */\n      dup3\n        /* \"#utility.yul\":17051:17103   */\n      tag_517\n      jump\t// in\n    tag_612:\n        /* \"#utility.yul\":17043:17103   */\n      swap5\n        /* \"#utility.yul\":16401:17109   */\n      swap4\n      pop\n      pop\n      pop\n      pop\n      jump\t// out\n        /* \"#utility.yul\":17114:17298   */\n    tag_326:\n        /* \"#utility.yul\":17184:17190   */\n      0x00\n        /* \"#utility.yul\":17237:17239   */\n      0x20\n        /* \"#utility.yul\":17225:17234   */\n      dup3\n        /* \"#utility.yul\":17216:17223   */\n      dup5\n        /* \"#utility.yul\":17212:17235   */\n      sub\n        /* \"#utility.yul\":17208:17240   */\n      slt\n        /* \"#utility.yul\":17205:17257   */\n      iszero\n      tag_614\n      jumpi\n        /* \"#utility.yul\":17253:17254   */\n      0x00\n        /* \"#utility.yul\":17250:17251   */\n      0x00\n        /* \"#utility.yul\":17243:17255   */\n      revert\n        /* \"#utility.yul\":17205:17257   */\n    tag_614:\n      pop\n        /* \"#utility.yul\":17276:17292   */\n      mload\n      swap2\n        /* \"#utility.yul\":17114:17298   */\n      swap1\n      pop\n      jump\t// out\n        /* \"#utility.yul\":19270:19397   */\n    tag_399:\n        /* \"#utility.yul\":19331:19341   */\n      0x4e487b71\n        /* \"#utility.yul\":19326:19329   */\n      0xe0\n        /* \"#utility.yul\":19322:19342   */\n      shl\n        /* \"#utility.yul\":19319:19320   */\n      0x00\n        /* \"#utility.yul\":19312:19343   */\n      mstore\n        /* \"#utility.yul\":19362:19366   */\n      0x32\n        /* \"#utility.yul\":19359:19360   */\n      0x04\n        /* \"#utility.yul\":19352:19367   */\n      mstore\n        /* \"#utility.yul\":19386:19390   */\n      0x24\n        /* \"#utility.yul\":19383:19384   */\n      0x00\n        /* \"#utility.yul\":19376:19391   */\n      revert\n        /* \"#utility.yul\":19402:19611   */\n    tag_401:\n        /* \"#utility.yul\":19434:19435   */\n      0x00\n        /* \"#utility.yul\":19460:19461   */\n      dup3\n        /* \"#utility.yul\":19450:19582   */\n      tag_623\n      jumpi\n        /* \"#utility.yul\":19504:19514   */\n      0x4e487b71\n        /* \"#utility.yul\":19499:19502   */\n      0xe0\n        /* \"#utility.yul\":19495:19515   */\n      shl\n        /* \"#utility.yul\":19492:19493   */\n      0x00\n        /* \"#utility.yul\":19485:19516   */\n      mstore\n        /* \"#utility.yul\":19539:19543   */\n      0x12\n        /* \"#utility.yul\":19536:19537   */\n      0x04\n        /* \"#utility.yul\":19529:19544   */\n      mstore\n        /* \"#utility.yul\":19567:19571   */\n      0x24\n        /* \"#utility.yul\":19564:19565   */\n      0x00\n        /* \"#utility.yul\":19557:19572   */\n      revert\n        /* \"#utility.yul\":19450:19582   */\n    tag_623:\n      pop\n        /* \"#utility.yul\":19596:19605   */\n      mod\n      swap1\n        /* \"#utility.yul\":19402:19611   */\n      jump\t// out\n        /* \"#utility.yul\":20426:20727   */\n    tag_489:\n        /* \"#utility.yul\":20555:20558   */\n      0x00\n        /* \"#utility.yul\":20593:20599   */\n      dup3\n        /* \"#utility.yul\":20587:20600   */\n      mload\n        /* \"#utility.yul\":20639:20645   */\n      dup1\n        /* \"#utility.yul\":20632:20636   */\n      0x20\n        /* \"#utility.yul\":20624:20630   */\n      dup6\n        /* \"#utility.yul\":20620:20637   */\n      add\n        /* \"#utility.yul\":20615:20618   */\n      dup5\n        /* \"#utility.yul\":20609:20646   */\n      mcopy\n        /* \"#utility.yul\":20701:20702   */\n      0x00\n        /* \"#utility.yul\":20665:20681   */\n      swap3\n      add\n        /* \"#utility.yul\":20690:20703   */\n      swap2\n      dup3\n      mstore\n      pop\n        /* \"#utility.yul\":20665:20681   */\n      swap2\n        /* \"#utility.yul\":20426:20727   */\n      swap1\n      pop\n      jump\t// out\n    stop\n    data_75b20eef8615de99c108b05f0dbda081c91897128caa336d75dffb97c4132b4d 360894a13ba1a3210667c828492db98dca3e2076cc3735a920a3ca505d382bbc\n\n    auxdata: 0xa2646970667358221220b534e3297553c87f94e59d71f6793afc0706cd3191f5299841918fbf4289f51c64736f6c634300081e0033\n}\n",
				"bytecode": {
					"linkReferences": {},
					"object": "60a0604052306080523480156012575f5ffd5b5060015f556080516124d061003d5f395f8181611b2e01528181611b570152611c9b01526124d05ff3fe6080604052600436106101ba575f3560e01c80635b7baf64116100f25780638da5cb5b11610092578063b6fa37bc11610062578063b6fa37bc14610615578063c1e3bd3e14610634578063d709815414610660578063f2fde38b1461067f575f5ffd5b80638da5cb5b14610548578063a3e56fa814610584578063ad3cb1cc146105a3578063b0fb162f146105e0575f5ffd5b8063715018a6116100cd578063715018a6146104d05780637ccfd7fc146104e4578063826d98731461050a57806382f9d0fb14610529575f5ffd5b80635b7baf641461047d57806360b2a56a1461049c57806361728f39146104bb575f5ffd5b80633893f9d51161015d5780634538f297116101385780634538f297146104225780634a4a6b4f146104415780634f1ef2861461045657806352d1902d14610469575f5ffd5b80633893f9d5146103c55780633fd43098146103e45780634311da3714610403575f5ffd5b806315c6e1231161019857806315c6e123146103135780631fe543e31461033e5780632301d7751461035d57806324f7469714610394575f5ffd5b806309c1ba2e146101be5780630af5a263146101e65780631398e07614610207575b5f5ffd5b3480156101c9575f5ffd5b506101d360085481565b6040519081526020015b60405180910390f35b3480156101f1575f5ffd5b5061020561020036600461201a565b61069e565b005b348015610212575f5ffd5b5061029c61022136600461206d565b600260208190525f91825260409091208054600182015492820154600383015460048401546005850154600686015460078701546008880154600a890154600b909901546001600160a01b039889169a9997989697959694959394929360ff808416946101008504821694620100009004909116929116908d565b604080516001600160a01b039e8f168152602081019d909d528c019a909a5260608b019890985260808a019690965260a089019490945260c088019290925260e08701521515610100860152151561012085015215156101408401529092166101608201526101808101919091526101a0016101dd565b34801561031e575f5ffd5b506101d361032d36600461206d565b600a6020525f908152604090205481565b348015610349575f5ffd5b506102056103583660046120c9565b610810565b348015610368575f5ffd5b5060055461037c906001600160a01b031681565b6040516001600160a01b0390911681526020016101dd565b34801561039f575f5ffd5b506007546103b09063ffffffff1681565b60405163ffffffff90911681526020016101dd565b3480156103d0575f5ffd5b506102056103df366004612181565b610863565b3480156103ef575f5ffd5b506102056103fe36600461206d565b610b72565b34801561040e575f5ffd5b5061020561041d3660046121a1565b610d7d565b34801561042d575f5ffd5b5061020561043c36600461206d565b610ecb565b34801561044c575f5ffd5b506101d360035481565b6102056104643660046121f8565b610f96565b348015610474575f5ffd5b506101d3610fb1565b348015610488575f5ffd5b5061020561049736600461206d565b610fcc565b3480156104a7575f5ffd5b506102056104b636600461206d565b6111a9565b3480156104c6575f5ffd5b506101d360065481565b3480156104db575f5ffd5b506102056113f8565b3480156104ef575f5ffd5b506007546103b0906601000000000000900463ffffffff1681565b348015610515575f5ffd5b5061020561052436600461206d565b61140b565b348015610534575f5ffd5b5061020561054336600461206d565b611551565b348015610553575f5ffd5b507f9016d09d72d40fdae2fd8ceac6b6234c7706214fd39c1cd1e609a0528c199300546001600160a01b031661037c565b34801561058f575f5ffd5b5060095461037c906001600160a01b031681565b3480156105ae575f5ffd5b506105d3604051806040016040528060058152602001640352e302e360dc1b81525081565b6040516101dd91906122cb565b3480156105eb575f5ffd5b5060075461060290640100000000900461ffff1681565b60405161ffff90911681526020016101dd565b348015610620575f5ffd5b5060045461037c906001600160a01b031681565b34801561063f575f5ffd5b5061065361064e36600461206d565b6115df565b6040516101dd91906122dd565b34801561066b575f5ffd5b5061020561067a36600461206d565b61164b565b34801561068a575f5ffd5b50610205610699366004612328565b61179a565b5f6106a76117d4565b805490915060ff600160401b820416159067ffffffffffffffff165f811580156106ce5750825b90505f8267ffffffffffffffff1660011480156106ea5750303b155b9050811580156106f8575080155b156107165760405163f92ee8a960e01b815260040160405180910390fd5b845467ffffffffffffffff19166001178555831561074057845460ff60401b1916600160401b1785555b610749336117fe565b61075161180f565b61075a8a611817565b600980546001600160a01b03199081166001600160a01b038d81169190911790925560068b905560088a90556007805469ffffffffffffffffffff19166601000300030d401790556004805482168a841617905560058054909116918816919091179055831561080457845460ff60401b19168555604051600181527fc7f505b2f371ae2175ee4913f4499e1f2633a7b5936321eed1cdaeb6115181d29060200160405180910390a15b50505050505050505050565b6001546001600160a01b031633146108555760015460405163073e64fd60e21b81523360048201526001600160a01b0390911660248201526044015b60405180910390fd5b61085f8282611841565b5050565b61086b611a71565b5f828152600260209081526040808320848452818420338552600c82019093529220546108c75760405162461bcd60e51b815260206004820152600a602482015269139bdd081a5b881bdb1960b21b604482015260640161084c565b335f908152600e8301602052604090205460ff161561091b5760405162461bcd60e51b815260206004820152601060248201526f526566756e64656420616c726561647960801b604482015260640161084c565b600882015462010000900460ff168061095557506008820154610100900460ff1680156109555750600a8201546001600160a01b03163314155b6109945760405162461bcd60e51b815260206004820152601060248201526f4f6c64206e6f7420656c696769626c6560801b604482015260640161084c565b600881015460ff1680156109b35750600881015462010000900460ff16155b6109f65760405162461bcd60e51b81526020600482015260146024820152734e6577206c6f747465727920696e61637469766560601b604482015260640161084c565b80600401544210610a3c5760405162461bcd60e51b815260206004820152601060248201526f546f6f206c61746520666f72206e657760801b604482015260640161084c565b335f908152600e830160205260408120805460ff19166001908117909155600283015490830154610a6d9190612355565b82546040516323b872dd60e01b8152336004820152306024820152604481018390529192506001600160a01b0316906323b872dd906064016020604051808303815f875af1158015610ac1573d5f5f3e3d5ffd5b505050506040513d601f19601f82011682018060405250810190610ae59190612368565b506009820180546001810182555f918252602080832090910180546001600160a01b031916339081179091558252600c8401905260408120805491610b2983612387565b9091555050604080518581523360208201527f1e28857182a3b2bb6fbb88287d1ba8cc3a941dd65d4c977286676d27b877a3d9910160405180910390a150505061085f60015f55565b610b7a611a71565b5f818152600260205260409020600881015460ff168015610ba65750600881015462010000900460ff16155b610bea5760405162461bcd60e51b8152602060048201526015602482015274125b9858dd1a5d99481bdc8818d85b98d95b1b1959605a1b604482015260640161084c565b80600401544210610c285760405162461bcd60e51b8152602060048201526008602482015267546f6f206c61746560c01b604482015260640161084c565b6003810154600982015410610c725760405162461bcd60e51b815260206004820152601060248201526f4d6178207061727469636970616e747360801b604482015260640161084c565b805460018201546040516323b872dd60e01b815233600482015230602482015260448101919091526001600160a01b03909116906323b872dd906064016020604051808303815f875af1158015610ccb573d5f5f3e3d5ffd5b505050506040513d601f19601f82011682018060405250810190610cef9190612368565b506009810180546001810182555f918252602080832090910180546001600160a01b031916339081179091558252600c8301905260408120805491610d3383612387565b9091555050604080518381523360208201527f1e28857182a3b2bb6fbb88287d1ba8cc3a941dd65d4c977286676d27b877a3d9910160405180910390a150610d7a60015f55565b50565b610d85611ac8565b85871015610dc55760405162461bcd60e51b815260206004820152600d60248201526c526566756e64203c3d2066656560981b604482015260640161084c565b428411610e085760405162461bcd60e51b8152602060048201526011602482015270496e76616c696420647261772074696d6560781b604482015260640161084c565b5f60025f60035f8154610e1a90612387565b9182905550815260208082019290925260409081015f2080546001600160a01b0319166001600160a01b038d1617815560018082018c9055600282018b905560038083018b9055600483018a905560058301899055600683018890556007830187905560088301805460ff191690921790915554915191825292507f9e0023bebcc752baaa41057318405b5a6a8e9c6372b519717cfdf238e5caa795910160405180910390a1505050505050505050565b610ed3611ac8565b5f818152600260205260409020600881015462010000900460ff16158015610f0557506008810154610100900460ff16155b610f455760405162461bcd60e51b8152602060048201526011602482015270105b1c9958591e48199a5b985b1a5e9959607a1b604482015260640161084c565b60088101805462ff00001916620100001790556040517fc3dac690cf4c3ae8964f18b8f09f7f9a75d3962a8cbb7cd689df2c291bb5b2dd90610f8a9084815260200190565b60405180910390a15050565b610f9e611b23565b610fa782611bc7565b61085f8282611bcf565b5f610fba611c90565b505f51602061247b5f395f51905f5290565b610fd4611a71565b5f818152600260205260409020600881015462010000900460ff168061101b57506008810154610100900460ff16801561101b5750600a8101546001600160a01b03163314155b6110565760405162461bcd60e51b815260206004820152600c60248201526b4e6f7420656c696769626c6560a01b604482015260640161084c565b335f908152600e8201602052604090205460ff16156110aa5760405162461bcd60e51b815260206004820152601060248201526f105b1c9958591e481c99599d5b99195960821b604482015260640161084c565b335f908152600c820160205260409020546110f45760405162461bcd60e51b815260206004820152600a6024820152694e6f20656e747269657360b01b604482015260640161084c565b335f908152600e820160209081526040808320805460ff19166001179055600c8401909152812054600283015461112b919061239f565b825460405163a9059cbb60e01b8152336004820152602481018390529192506001600160a01b03169063a9059cbb906044016020604051808303815f875af1158015611179573d5f5f3e3d5ffd5b505050506040513d601f19601f8201168201806040525081019061119d9190612368565b505050610d7a60015f55565b6111b1611ac8565b5f81815260026020526040902060048101544210156111fe5760405162461bcd60e51b8152602060048201526009602482015268546f6f206561726c7960b81b604482015260640161084c565b6008810154610100900460ff161580156112235750600881015462010000900460ff16155b61126f5760405162461bcd60e51b815260206004820152601a60248201527f416c726561647920647261776e206f722063616e63656c6c6564000000000000604482015260640161084c565b60098101546112b25760405162461bcd60e51b815260206004820152600f60248201526e4e6f207061727469636970616e747360881b604482015260640161084c565b6009546040805160c081018252600654815260085460208083019190915260075461ffff6401000000008204168385015263ffffffff8082166060850152660100000000000090910416608083015282519081019092525f808352926001600160a01b031691639b1c385e919060a082019061132d90611cd9565b8152506040518263ffffffff1660e01b815260040161134c91906123b6565b6020604051808303815f875af1158015611368573d5f5f3e3d5ffd5b505050506040513d601f19601f8201168201806040525081019061138c919061241a565b5f818152600a60205260409081902085905560088401805461ff001916610100179055519091507f600253eae67a5c51c82a7123372e8644f16009c6304e18f844cf86fdc40c24d7906113eb9085908490918252602082015260400190565b60405180910390a1505050565b611400611ac8565b6114095f611d4a565b565b5f818152600260209081526040808320338452600f81019092529091205460ff16156114695760405162461bcd60e51b815260206004820152600d60248201526c105b1c9958591e481d9bdd1959609a1b604482015260640161084c565b335f908152600c820160205260409020546114b75760405162461bcd60e51b815260206004820152600e60248201526d4e6f7420696e206c6f747465727960901b604482015260640161084c565b335f908152600f820160205260408120805460ff19166001179055600b82018054916114e283612387565b909155505060098101546114f790600261239f565b600b82015461150790600361239f565b1061085f5760088101805462ff00001916620100001790556040517fc3dac690cf4c3ae8964f18b8f09f7f9a75d3962a8cbb7cd689df2c291bb5b2dd90610f8a9084815260200190565b611559611ac8565b5f818152600260208190526040822080546001600160a01b031916815560018101839055908101829055600381018290556004810182905560058101829055600681018290556007810182905560088101805462ffffff19169055906115c26009830182611fd1565b50600a810180546001600160a01b03191690555f600b9091015550565b5f8181526002602090815260409182902060090180548351818402810184019094528084526060939283018282801561163f57602002820191905f5260205f20905b81546001600160a01b03168152600190910190602001808311611621575b50505050509050919050565b611653611a71565b5f818152600260205260409020600a8101546001600160a01b031633146116a95760405162461bcd60e51b815260206004820152600a6024820152692737ba103bb4b73732b960b11b604482015260640161084c565b335f908152600d8201602052604090205460ff16156116fc5760405162461bcd60e51b815260206004820152600f60248201526e105b1c9958591e4818db185a5b5959608a1b604482015260640161084c565b335f818152600d8301602052604090819020805460ff1916600117905582546005840154915163a9059cbb60e01b8152600481019390935260248301919091526001600160a01b03169063a9059cbb906044016020604051808303815f875af115801561176b573d5f5f3e3d5ffd5b505050506040513d601f19601f8201168201806040525081019061178f9190612368565b5050610d7a60015f55565b6117a2611ac8565b6001600160a01b0381166117cb57604051631e4fbdf760e01b81525f600482015260240161084c565b610d7a81611d4a565b5f807ff0c57e16840df040f15088dc2f81fe391c3923bec73e23a9662efc9c229c6a005b92915050565b611806611dba565b610d7a81611ddf565b611409611dba565b61181f611dba565b600180546001600160a01b0319166001600160a01b0392909216919091179055565b5f828152600a602090815260408083205480845260029092529091206008810154610100900460ff1680156118815750600a8101546001600160a01b0316155b6118c15760405162461bcd60e51b8152602060048201526011602482015270105b1c9958591e48199d5b199a5b1b1959607a1b604482015260640161084c565b5f8160090180549050845f815181106118dc576118dc612431565b60200260200101516118ee9190612445565b905081600901818154811061190557611905612431565b5f91825260209091200154600a830180546001600160a01b0319166001600160a01b03928316179055825460048054600686015460405163a9059cbb60e01b8152918516928201929092526024810191909152911690819063a9059cbb906044016020604051808303815f875af1158015611982573d5f5f3e3d5ffd5b505050506040513d601f19601f820116820180604052508101906119a69190612368565b50600554600784015460405163a9059cbb60e01b81526001600160a01b03928316600482015260248101919091529082169063a9059cbb906044016020604051808303815f875af11580156119fd573d5f5f3e3d5ffd5b505050506040513d601f19601f82011682018060405250810190611a219190612368565b50600a830154604080518681526001600160a01b0390921660208301527f03fb57eb449654e24e1b240d3d06702cf79362a065d5c0323aee642d4702fa4b910160405180910390a1505050505050565b60025f5403611ac25760405162461bcd60e51b815260206004820152601f60248201527f5265656e7472616e637947756172643a207265656e7472616e742063616c6c00604482015260640161084c565b60025f55565b33611afa7f9016d09d72d40fdae2fd8ceac6b6234c7706214fd39c1cd1e609a0528c199300546001600160a01b031690565b6001600160a01b0316146114095760405163118cdaa760e01b815233600482015260240161084c565b306001600160a01b037f0000000000000000000000000000000000000000000000000000000000000000161480611ba957507f00000000000000000000000000000000000000000000000000000000000000006001600160a01b0316611b9d5f51602061247b5f395f51905f52546001600160a01b031690565b6001600160a01b031614155b156114095760405163703e46dd60e11b815260040160405180910390fd5b610d7a611ac8565b816001600160a01b03166352d1902d6040518163ffffffff1660e01b8152600401602060405180830381865afa925050508015611c29575060408051601f3d908101601f19168201909252611c269181019061241a565b60015b611c5157604051634c9c8ce360e01b81526001600160a01b038316600482015260240161084c565b5f51602061247b5f395f51905f528114611c8157604051632a87526960e21b81526004810182905260240161084c565b611c8b8383611de7565b505050565b306001600160a01b037f000000000000000000000000000000000000000000000000000000000000000016146114095760405163703e46dd60e11b815260040160405180910390fd5b60607f92fd13387c7fe7befbc38d303d6468778fb9731bc4583f17d92989c6fcfdeaaa82604051602401611d1291511515815260200190565b60408051601f198184030181529190526020810180516001600160e01b03166001600160e01b03199093169290921790915292915050565b7f9016d09d72d40fdae2fd8ceac6b6234c7706214fd39c1cd1e609a0528c19930080546001600160a01b031981166001600160a01b03848116918217845560405192169182907f8be0079c531659141344cd1fd0a4f28419497f9722a3daafe3b4186f6b6457e0905f90a3505050565b611dc2611e3c565b61140957604051631afcd79f60e31b815260040160405180910390fd5b6117a2611dba565b611df082611e55565b6040516001600160a01b038316907fbc7cd75a20ee27fd9adebab32041f755214dbc6bffa90cc0225b39da2e5c2d3b905f90a2805115611e3457611c8b8282611eb8565b61085f611f2a565b5f611e456117d4565b54600160401b900460ff16919050565b806001600160a01b03163b5f03611e8a57604051634c9c8ce360e01b81526001600160a01b038216600482015260240161084c565b5f51602061247b5f395f51905f5280546001600160a01b0319166001600160a01b0392909216919091179055565b60605f5f846001600160a01b031684604051611ed49190612464565b5f60405180830381855af49150503d805f8114611f0c576040519150601f19603f3d011682016040523d82523d5f602084013e611f11565b606091505b5091509150611f21858383611f49565b95945050505050565b34156114095760405163b398979f60e01b815260040160405180910390fd5b606082611f5e57611f5982611fa8565b611fa1565b8151158015611f7557506001600160a01b0384163b155b15611f9e57604051639996b31560e01b81526001600160a01b038516600482015260240161084c565b50805b9392505050565b805115611fb85780518082602001fd5b60405163d6bda27560e01b815260040160405180910390fd5b5080545f8255905f5260205f2090810190610d7a91905b80821115611ffb575f8155600101611fe8565b5090565b80356001600160a01b0381168114612015575f5ffd5b919050565b5f5f5f5f5f60a0868803121561202e575f5ffd5b61203786611fff565b9450602086013593506040860135925061205360608701611fff565b915061206160808701611fff565b90509295509295909350565b5f6020828403121561207d575f5ffd5b5035919050565b634e487b7160e01b5f52604160045260245ffd5b604051601f8201601f1916810167ffffffffffffffff811182821017156120c1576120c1612084565b604052919050565b5f5f604083850312156120da575f5ffd5b82359150602083013567ffffffffffffffff8111156120f7575f5ffd5b8301601f81018513612107575f5ffd5b803567ffffffffffffffff81111561212157612121612084565b8060051b61213160208201612098565b9182526020818401810192908101908884111561214c575f5ffd5b6020850194505b8385101561217257843580835260209586019590935090910190612153565b80955050505050509250929050565b5f5f60408385031215612192575f5ffd5b50508035926020909101359150565b5f5f5f5f5f5f5f5f610100898b0312156121b9575f5ffd5b6121c289611fff565b9a60208a01359a5060408a013599606081013599506080810135985060a0810135975060c0810135965060e00135945092505050565b5f5f60408385031215612209575f5ffd5b61221283611fff565b9150602083013567ffffffffffffffff81111561222d575f5ffd5b8301601f8101851361223d575f5ffd5b803567ffffffffffffffff81111561225757612257612084565b61226a601f8201601f1916602001612098565b81815286602083850101111561227e575f5ffd5b816020840160208301375f602083830101528093505050509250929050565b5f81518084528060208401602086015e5f602082860101526020601f19601f83011685010191505092915050565b602081525f611fa1602083018461229d565b602080825282518282018190525f918401906040840190835b8181101561231d5783516001600160a01b03168352602093840193909201916001016122f6565b509095945050505050565b5f60208284031215612338575f5ffd5b611fa182611fff565b634e487b7160e01b5f52601160045260245ffd5b818103818111156117f8576117f8612341565b5f60208284031215612378575f5ffd5b81518015158114611fa1575f5ffd5b5f6001820161239857612398612341565b5060010190565b80820281158282048414176117f8576117f8612341565b60208152815160208201526020820151604082015261ffff604083015116606082015263ffffffff606083015116608082015263ffffffff60808301511660a08201525f60a083015160c08084015261241260e084018261229d565b949350505050565b5f6020828403121561242a575f5ffd5b5051919050565b634e487b7160e01b5f52603260045260245ffd5b5f8261245f57634e487b7160e01b5f52601260045260245ffd5b500690565b5f82518060208501845e5f92019182525091905056fe360894a13ba1a3210667c828492db98dca3e2076cc3735a920a3ca505d382bbca2646970667358221220b534e3297553c87f94e59d71f6793afc0706cd3191f5299841918fbf4289f51c64736f6c634300081e0033",
					"opcodes": "PUSH1 0xA0 PUSH1 0x40 MSTORE ADDRESS PUSH1 0x80 MSTORE CALLVALUE DUP1 ISZERO PUSH1 0x12 JUMPI PUSH0 PUSH0 REVERT JUMPDEST POP PUSH1 0x1 PUSH0 SSTORE PUSH1 0x80 MLOAD PUSH2 0x24D0 PUSH2 0x3D PUSH0 CODECOPY PUSH0 DUP2 DUP2 PUSH2 0x1B2E ADD MSTORE DUP2 DUP2 PUSH2 0x1B57 ADD MSTORE PUSH2 0x1C9B ADD MSTORE PUSH2 0x24D0 PUSH0 RETURN INVALID PUSH1 0x80 PUSH1 0x40 MSTORE PUSH1 0x4 CALLDATASIZE LT PUSH2 0x1BA JUMPI PUSH0 CALLDATALOAD PUSH1 0xE0 SHR DUP1 PUSH4 0x5B7BAF64 GT PUSH2 0xF2 JUMPI DUP1 PUSH4 0x8DA5CB5B GT PUSH2 0x92 JUMPI DUP1 PUSH4 0xB6FA37BC GT PUSH2 0x62 JUMPI DUP1 PUSH4 0xB6FA37BC EQ PUSH2 0x615 JUMPI DUP1 PUSH4 0xC1E3BD3E EQ PUSH2 0x634 JUMPI DUP1 PUSH4 0xD7098154 EQ PUSH2 0x660 JUMPI DUP1 PUSH4 0xF2FDE38B EQ PUSH2 0x67F JUMPI PUSH0 PUSH0 REVERT JUMPDEST DUP1 PUSH4 0x8DA5CB5B EQ PUSH2 0x548 JUMPI DUP1 PUSH4 0xA3E56FA8 EQ PUSH2 0x584 JUMPI DUP1 PUSH4 0xAD3CB1CC EQ PUSH2 0x5A3 JUMPI DUP1 PUSH4 0xB0FB162F EQ PUSH2 0x5E0 JUMPI PUSH0 PUSH0 REVERT JUMPDEST DUP1 PUSH4 0x715018A6 GT PUSH2 0xCD JUMPI DUP1 PUSH4 0x715018A6 EQ PUSH2 0x4D0 JUMPI DUP1 PUSH4 0x7CCFD7FC EQ PUSH2 0x4E4 JUMPI DUP1 PUSH4 0x826D9873 EQ PUSH2 0x50A JUMPI DUP1 PUSH4 0x82F9D0FB EQ PUSH2 0x529 JUMPI PUSH0 PUSH0 REVERT JUMPDEST DUP1 PUSH4 0x5B7BAF64 EQ PUSH2 0x47D JUMPI DUP1 PUSH4 0x60B2A56A EQ PUSH2 0x49C JUMPI DUP1 PUSH4 0x61728F39 EQ PUSH2 0x4BB JUMPI PUSH0 PUSH0 REVERT JUMPDEST DUP1 PUSH4 0x3893F9D5 GT PUSH2 0x15D JUMPI DUP1 PUSH4 0x4538F297 GT PUSH2 0x138 JUMPI DUP1 PUSH4 0x4538F297 EQ PUSH2 0x422 JUMPI DUP1 PUSH4 0x4A4A6B4F EQ PUSH2 0x441 JUMPI DUP1 PUSH4 0x4F1EF286 EQ PUSH2 0x456 JUMPI DUP1 PUSH4 0x52D1902D EQ PUSH2 0x469 JUMPI PUSH0 PUSH0 REVERT JUMPDEST DUP1 PUSH4 0x3893F9D5 EQ PUSH2 0x3C5 JUMPI DUP1 PUSH4 0x3FD43098 EQ PUSH2 0x3E4 JUMPI DUP1 PUSH4 0x4311DA37 EQ PUSH2 0x403 JUMPI PUSH0 PUSH0 REVERT JUMPDEST DUP1 PUSH4 0x15C6E123 GT PUSH2 0x198 JUMPI DUP1 PUSH4 0x15C6E123 EQ PUSH2 0x313 JUMPI DUP1 PUSH4 0x1FE543E3 EQ PUSH2 0x33E JUMPI DUP1 PUSH4 0x2301D775 EQ PUSH2 0x35D JUMPI DUP1 PUSH4 0x24F74697 EQ PUSH2 0x394 JUMPI PUSH0 PUSH0 REVERT JUMPDEST DUP1 PUSH4 0x9C1BA2E EQ PUSH2 0x1BE JUMPI DUP1 PUSH4 0xAF5A263 EQ PUSH2 0x1E6 JUMPI DUP1 PUSH4 0x1398E076 EQ PUSH2 0x207 JUMPI JUMPDEST PUSH0 PUSH0 REVERT JUMPDEST CALLVALUE DUP1 ISZERO PUSH2 0x1C9 JUMPI PUSH0 PUSH0 REVERT JUMPDEST POP PUSH2 0x1D3 PUSH1 0x8 SLOAD DUP2 JUMP JUMPDEST PUSH1 0x40 MLOAD SWAP1 DUP2 MSTORE PUSH1 0x20 ADD JUMPDEST PUSH1 0x40 MLOAD DUP1 SWAP2 SUB SWAP1 RETURN JUMPDEST CALLVALUE DUP1 ISZERO PUSH2 0x1F1 JUMPI PUSH0 PUSH0 REVERT JUMPDEST POP PUSH2 0x205 PUSH2 0x200 CALLDATASIZE PUSH1 0x4 PUSH2 0x201A JUMP JUMPDEST PUSH2 0x69E JUMP JUMPDEST STOP JUMPDEST CALLVALUE DUP1 ISZERO PUSH2 0x212 JUMPI PUSH0 PUSH0 REVERT JUMPDEST POP PUSH2 0x29C PUSH2 0x221 CALLDATASIZE PUSH1 0x4 PUSH2 0x206D JUMP JUMPDEST PUSH1 0x2 PUSH1 0x20 DUP2 SWAP1 MSTORE PUSH0 SWAP2 DUP3 MSTORE PUSH1 0x40 SWAP1 SWAP2 KECCAK256 DUP1 SLOAD PUSH1 0x1 DUP3 ADD SLOAD SWAP3 DUP3 ADD SLOAD PUSH1 0x3 DUP4 ADD SLOAD PUSH1 0x4 DUP5 ADD SLOAD PUSH1 0x5 DUP6 ADD SLOAD PUSH1 0x6 DUP7 ADD SLOAD PUSH1 0x7 DUP8 ADD SLOAD PUSH1 0x8 DUP9 ADD SLOAD PUSH1 0xA DUP10 ADD SLOAD PUSH1 0xB SWAP1 SWAP10 ADD SLOAD PUSH1 0x1 PUSH1 0x1 PUSH1 0xA0 SHL SUB SWAP9 DUP10 AND SWAP11 SWAP10 SWAP8 SWAP9 SWAP7 SWAP8 SWAP6 SWAP7 SWAP5 SWAP6 SWAP4 SWAP5 SWAP3 SWAP4 PUSH1 0xFF DUP1 DUP5 AND SWAP5 PUSH2 0x100 DUP6 DIV DUP3 AND SWAP5 PUSH3 0x10000 SWAP1 DIV SWAP1 SWAP2 AND SWAP3 SWAP2 AND SWAP1 DUP14 JUMP JUMPDEST PUSH1 0x40 DUP1 MLOAD PUSH1 0x1 PUSH1 0x1 PUSH1 0xA0 SHL SUB SWAP15 DUP16 AND DUP2 MSTORE PUSH1 0x20 DUP2 ADD SWAP14 SWAP1 SWAP14 MSTORE DUP13 ADD SWAP11 SWAP1 SWAP11 MSTORE PUSH1 0x60 DUP12 ADD SWAP9 SWAP1 SWAP9 MSTORE PUSH1 0x80 DUP11 ADD SWAP7 SWAP1 SWAP7 MSTORE PUSH1 0xA0 DUP10 ADD SWAP5 SWAP1 SWAP5 MSTORE PUSH1 0xC0 DUP9 ADD SWAP3 SWAP1 SWAP3 MSTORE PUSH1 0xE0 DUP8 ADD MSTORE ISZERO ISZERO PUSH2 0x100 DUP7 ADD MSTORE ISZERO ISZERO PUSH2 0x120 DUP6 ADD MSTORE ISZERO ISZERO PUSH2 0x140 DUP5 ADD MSTORE SWAP1 SWAP3 AND PUSH2 0x160 DUP3 ADD MSTORE PUSH2 0x180 DUP2 ADD SWAP2 SWAP1 SWAP2 MSTORE PUSH2 0x1A0 ADD PUSH2 0x1DD JUMP JUMPDEST CALLVALUE DUP1 ISZERO PUSH2 0x31E JUMPI PUSH0 PUSH0 REVERT JUMPDEST POP PUSH2 0x1D3 PUSH2 0x32D CALLDATASIZE PUSH1 0x4 PUSH2 0x206D JUMP JUMPDEST PUSH1 0xA PUSH1 0x20 MSTORE PUSH0 SWAP1 DUP2 MSTORE PUSH1 0x40 SWAP1 KECCAK256 SLOAD DUP2 JUMP JUMPDEST CALLVALUE DUP1 ISZERO PUSH2 0x349 JUMPI PUSH0 PUSH0 REVERT JUMPDEST POP PUSH2 0x205 PUSH2 0x358 CALLDATASIZE PUSH1 0x4 PUSH2 0x20C9 JUMP JUMPDEST PUSH2 0x810 JUMP JUMPDEST CALLVALUE DUP1 ISZERO PUSH2 0x368 JUMPI PUSH0 PUSH0 REVERT JUMPDEST POP PUSH1 0x5 SLOAD PUSH2 0x37C SWAP1 PUSH1 0x1 PUSH1 0x1 PUSH1 0xA0 SHL SUB AND DUP2 JUMP JUMPDEST PUSH1 0x40 MLOAD PUSH1 0x1 PUSH1 0x1 PUSH1 0xA0 SHL SUB SWAP1 SWAP2 AND DUP2 MSTORE PUSH1 0x20 ADD PUSH2 0x1DD JUMP JUMPDEST CALLVALUE DUP1 ISZERO PUSH2 0x39F JUMPI PUSH0 PUSH0 REVERT JUMPDEST POP PUSH1 0x7 SLOAD PUSH2 0x3B0 SWAP1 PUSH4 0xFFFFFFFF AND DUP2 JUMP JUMPDEST PUSH1 0x40 MLOAD PUSH4 0xFFFFFFFF SWAP1 SWAP2 AND DUP2 MSTORE PUSH1 0x20 ADD PUSH2 0x1DD JUMP JUMPDEST CALLVALUE DUP1 ISZERO PUSH2 0x3D0 JUMPI PUSH0 PUSH0 REVERT JUMPDEST POP PUSH2 0x205 PUSH2 0x3DF CALLDATASIZE PUSH1 0x4 PUSH2 0x2181 JUMP JUMPDEST PUSH2 0x863 JUMP JUMPDEST CALLVALUE DUP1 ISZERO PUSH2 0x3EF JUMPI PUSH0 PUSH0 REVERT JUMPDEST POP PUSH2 0x205 PUSH2 0x3FE CALLDATASIZE PUSH1 0x4 PUSH2 0x206D JUMP JUMPDEST PUSH2 0xB72 JUMP JUMPDEST CALLVALUE DUP1 ISZERO PUSH2 0x40E JUMPI PUSH0 PUSH0 REVERT JUMPDEST POP PUSH2 0x205 PUSH2 0x41D CALLDATASIZE PUSH1 0x4 PUSH2 0x21A1 JUMP JUMPDEST PUSH2 0xD7D JUMP JUMPDEST CALLVALUE DUP1 ISZERO PUSH2 0x42D JUMPI PUSH0 PUSH0 REVERT JUMPDEST POP PUSH2 0x205 PUSH2 0x43C CALLDATASIZE PUSH1 0x4 PUSH2 0x206D JUMP JUMPDEST PUSH2 0xECB JUMP JUMPDEST CALLVALUE DUP1 ISZERO PUSH2 0x44C JUMPI PUSH0 PUSH0 REVERT JUMPDEST POP PUSH2 0x1D3 PUSH1 0x3 SLOAD DUP2 JUMP JUMPDEST PUSH2 0x205 PUSH2 0x464 CALLDATASIZE PUSH1 0x4 PUSH2 0x21F8 JUMP JUMPDEST PUSH2 0xF96 JUMP JUMPDEST CALLVALUE DUP1 ISZERO PUSH2 0x474 JUMPI PUSH0 PUSH0 REVERT JUMPDEST POP PUSH2 0x1D3 PUSH2 0xFB1 JUMP JUMPDEST CALLVALUE DUP1 ISZERO PUSH2 0x488 JUMPI PUSH0 PUSH0 REVERT JUMPDEST POP PUSH2 0x205 PUSH2 0x497 CALLDATASIZE PUSH1 0x4 PUSH2 0x206D JUMP JUMPDEST PUSH2 0xFCC JUMP JUMPDEST CALLVALUE DUP1 ISZERO PUSH2 0x4A7 JUMPI PUSH0 PUSH0 REVERT JUMPDEST POP PUSH2 0x205 PUSH2 0x4B6 CALLDATASIZE PUSH1 0x4 PUSH2 0x206D JUMP JUMPDEST PUSH2 0x11A9 JUMP JUMPDEST CALLVALUE DUP1 ISZERO PUSH2 0x4C6 JUMPI PUSH0 PUSH0 REVERT JUMPDEST POP PUSH2 0x1D3 PUSH1 0x6 SLOAD DUP2 JUMP JUMPDEST CALLVALUE DUP1 ISZERO PUSH2 0x4DB JUMPI PUSH0 PUSH0 REVERT JUMPDEST POP PUSH2 0x205 PUSH2 0x13F8 JUMP JUMPDEST CALLVALUE DUP1 ISZERO PUSH2 0x4EF JUMPI PUSH0 PUSH0 REVERT JUMPDEST POP PUSH1 0x7 SLOAD PUSH2 0x3B0 SWAP1 PUSH7 0x1000000000000 SWAP1 DIV PUSH4 0xFFFFFFFF AND DUP2 JUMP JUMPDEST CALLVALUE DUP1 ISZERO PUSH2 0x515 JUMPI PUSH0 PUSH0 REVERT JUMPDEST POP PUSH2 0x205 PUSH2 0x524 CALLDATASIZE PUSH1 0x4 PUSH2 0x206D JUMP JUMPDEST PUSH2 0x140B JUMP JUMPDEST CALLVALUE DUP1 ISZERO PUSH2 0x534 JUMPI PUSH0 PUSH0 REVERT JUMPDEST POP PUSH2 0x205 PUSH2 0x543 CALLDATASIZE PUSH1 0x4 PUSH2 0x206D JUMP JUMPDEST PUSH2 0x1551 JUMP JUMPDEST CALLVALUE DUP1 ISZERO PUSH2 0x553 JUMPI PUSH0 PUSH0 REVERT JUMPDEST POP PUSH32 0x9016D09D72D40FDAE2FD8CEAC6B6234C7706214FD39C1CD1E609A0528C199300 SLOAD PUSH1 0x1 PUSH1 0x1 PUSH1 0xA0 SHL SUB AND PUSH2 0x37C JUMP JUMPDEST CALLVALUE DUP1 ISZERO PUSH2 0x58F JUMPI PUSH0 PUSH0 REVERT JUMPDEST POP PUSH1 0x9 SLOAD PUSH2 0x37C SWAP1 PUSH1 0x1 PUSH1 0x1 PUSH1 0xA0 SHL SUB AND DUP2 JUMP JUMPDEST CALLVALUE DUP1 ISZERO PUSH2 0x5AE JUMPI PUSH0 PUSH0 REVERT JUMPDEST POP PUSH2 0x5D3 PUSH1 0x40 MLOAD DUP1 PUSH1 0x40 ADD PUSH1 0x40 MSTORE DUP1 PUSH1 0x5 DUP2 MSTORE PUSH1 0x20 ADD PUSH5 0x352E302E3 PUSH1 0xDC SHL DUP2 MSTORE POP DUP2 JUMP JUMPDEST PUSH1 0x40 MLOAD PUSH2 0x1DD SWAP2 SWAP1 PUSH2 0x22CB JUMP JUMPDEST CALLVALUE DUP1 ISZERO PUSH2 0x5EB JUMPI PUSH0 PUSH0 REVERT JUMPDEST POP PUSH1 0x7 SLOAD PUSH2 0x602 SWAP1 PUSH5 0x100000000 SWAP1 DIV PUSH2 0xFFFF AND DUP2 JUMP JUMPDEST PUSH1 0x40 MLOAD PUSH2 0xFFFF SWAP1 SWAP2 AND DUP2 MSTORE PUSH1 0x20 ADD PUSH2 0x1DD JUMP JUMPDEST CALLVALUE DUP1 ISZERO PUSH2 0x620 JUMPI PUSH0 PUSH0 REVERT JUMPDEST POP PUSH1 0x4 SLOAD PUSH2 0x37C SWAP1 PUSH1 0x1 PUSH1 0x1 PUSH1 0xA0 SHL SUB AND DUP2 JUMP JUMPDEST CALLVALUE DUP1 ISZERO PUSH2 0x63F JUMPI PUSH0 PUSH0 REVERT JUMPDEST POP PUSH2 0x653 PUSH2 0x64E CALLDATASIZE PUSH1 0x4 PUSH2 0x206D JUMP JUMPDEST PUSH2 0x15DF JUMP JUMPDEST PUSH1 0x40 MLOAD PUSH2 0x1DD SWAP2 SWAP1 PUSH2 0x22DD JUMP JUMPDEST CALLVALUE DUP1 ISZERO PUSH2 0x66B JUMPI PUSH0 PUSH0 REVERT JUMPDEST POP PUSH2 0x205 PUSH2 0x67A CALLDATASIZE PUSH1 0x4 PUSH2 0x206D JUMP JUMPDEST PUSH2 0x164B JUMP JUMPDEST CALLVALUE DUP1 ISZERO PUSH2 0x68A JUMPI PUSH0 PUSH0 REVERT JUMPDEST POP PUSH2 0x205 PUSH2 0x699 CALLDATASIZE PUSH1 0x4 PUSH2 0x2328 JUMP JUMPDEST PUSH2 0x179A JUMP JUMPDEST PUSH0 PUSH2 0x6A7 PUSH2 0x17D4 JUMP JUMPDEST DUP1 SLOAD SWAP1 SWAP2 POP PUSH1 0xFF PUSH1 0x1 PUSH1 0x40 SHL DUP3 DIV AND ISZERO SWAP1 PUSH8 0xFFFFFFFFFFFFFFFF AND PUSH0 DUP2 ISZERO DUP1 ISZERO PUSH2 0x6CE JUMPI POP DUP3 JUMPDEST SWAP1 POP PUSH0 DUP3 PUSH8 0xFFFFFFFFFFFFFFFF AND PUSH1 0x1 EQ DUP1 ISZERO PUSH2 0x6EA JUMPI POP ADDRESS EXTCODESIZE ISZERO JUMPDEST SWAP1 POP DUP2 ISZERO DUP1 ISZERO PUSH2 0x6F8 JUMPI POP DUP1 ISZERO JUMPDEST ISZERO PUSH2 0x716 JUMPI PUSH1 0x40 MLOAD PUSH4 0xF92EE8A9 PUSH1 0xE0 SHL DUP2 MSTORE PUSH1 0x4 ADD PUSH1 0x40 MLOAD DUP1 SWAP2 SUB SWAP1 REVERT JUMPDEST DUP5 SLOAD PUSH8 0xFFFFFFFFFFFFFFFF NOT AND PUSH1 0x1 OR DUP6 SSTORE DUP4 ISZERO PUSH2 0x740 JUMPI DUP5 SLOAD PUSH1 0xFF PUSH1 0x40 SHL NOT AND PUSH1 0x1 PUSH1 0x40 SHL OR DUP6 SSTORE JUMPDEST PUSH2 0x749 CALLER PUSH2 0x17FE JUMP JUMPDEST PUSH2 0x751 PUSH2 0x180F JUMP JUMPDEST PUSH2 0x75A DUP11 PUSH2 0x1817 JUMP JUMPDEST PUSH1 0x9 DUP1 SLOAD PUSH1 0x1 PUSH1 0x1 PUSH1 0xA0 SHL SUB NOT SWAP1 DUP2 AND PUSH1 0x1 PUSH1 0x1 PUSH1 0xA0 SHL SUB DUP14 DUP2 AND SWAP2 SWAP1 SWAP2 OR SWAP1 SWAP3 SSTORE PUSH1 0x6 DUP12 SWAP1 SSTORE PUSH1 0x8 DUP11 SWAP1 SSTORE PUSH1 0x7 DUP1 SLOAD PUSH10 0xFFFFFFFFFFFFFFFFFFFF NOT AND PUSH7 0x1000300030D40 OR SWAP1 SSTORE PUSH1 0x4 DUP1 SLOAD DUP3 AND DUP11 DUP5 AND OR SWAP1 SSTORE PUSH1 0x5 DUP1 SLOAD SWAP1 SWAP2 AND SWAP2 DUP9 AND SWAP2 SWAP1 SWAP2 OR SWAP1 SSTORE DUP4 ISZERO PUSH2 0x804 JUMPI DUP5 SLOAD PUSH1 0xFF PUSH1 0x40 SHL NOT AND DUP6 SSTORE PUSH1 0x40 MLOAD PUSH1 0x1 DUP2 MSTORE PUSH32 0xC7F505B2F371AE2175EE4913F4499E1F2633A7B5936321EED1CDAEB6115181D2 SWAP1 PUSH1 0x20 ADD PUSH1 0x40 MLOAD DUP1 SWAP2 SUB SWAP1 LOG1 JUMPDEST POP POP POP POP POP POP POP POP POP POP JUMP JUMPDEST PUSH1 0x1 SLOAD PUSH1 0x1 PUSH1 0x1 PUSH1 0xA0 SHL SUB AND CALLER EQ PUSH2 0x855 JUMPI PUSH1 0x1 SLOAD PUSH1 0x40 MLOAD PUSH4 0x73E64FD PUSH1 0xE2 SHL DUP2 MSTORE CALLER PUSH1 0x4 DUP3 ADD MSTORE PUSH1 0x1 PUSH1 0x1 PUSH1 0xA0 SHL SUB SWAP1 SWAP2 AND PUSH1 0x24 DUP3 ADD MSTORE PUSH1 0x44 ADD JUMPDEST PUSH1 0x40 MLOAD DUP1 SWAP2 SUB SWAP1 REVERT JUMPDEST PUSH2 0x85F DUP3 DUP3 PUSH2 0x1841 JUMP JUMPDEST POP POP JUMP JUMPDEST PUSH2 0x86B PUSH2 0x1A71 JUMP JUMPDEST PUSH0 DUP3 DUP2 MSTORE PUSH1 0x2 PUSH1 0x20 SWAP1 DUP2 MSTORE PUSH1 0x40 DUP1 DUP4 KECCAK256 DUP5 DUP5 MSTORE DUP2 DUP5 KECCAK256 CALLER DUP6 MSTORE PUSH1 0xC DUP3 ADD SWAP1 SWAP4 MSTORE SWAP3 KECCAK256 SLOAD PUSH2 0x8C7 JUMPI PUSH1 0x40 MLOAD PUSH3 0x461BCD PUSH1 0xE5 SHL DUP2 MSTORE PUSH1 0x20 PUSH1 0x4 DUP3 ADD MSTORE PUSH1 0xA PUSH1 0x24 DUP3 ADD MSTORE PUSH10 0x139BDD081A5B881BDB19 PUSH1 0xB2 SHL PUSH1 0x44 DUP3 ADD MSTORE PUSH1 0x64 ADD PUSH2 0x84C JUMP JUMPDEST CALLER PUSH0 SWAP1 DUP2 MSTORE PUSH1 0xE DUP4 ADD PUSH1 0x20 MSTORE PUSH1 0x40 SWAP1 KECCAK256 SLOAD PUSH1 0xFF AND ISZERO PUSH2 0x91B JUMPI PUSH1 0x40 MLOAD PUSH3 0x461BCD PUSH1 0xE5 SHL DUP2 MSTORE PUSH1 0x20 PUSH1 0x4 DUP3 ADD MSTORE PUSH1 0x10 PUSH1 0x24 DUP3 ADD MSTORE PUSH16 0x526566756E64656420616C7265616479 PUSH1 0x80 SHL PUSH1 0x44 DUP3 ADD MSTORE PUSH1 0x64 ADD PUSH2 0x84C JUMP JUMPDEST PUSH1 0x8 DUP3 ADD SLOAD PUSH3 0x10000 SWAP1 DIV PUSH1 0xFF AND DUP1 PUSH2 0x955 JUMPI POP PUSH1 0x8 DUP3 ADD SLOAD PUSH2 0x100 SWAP1 DIV PUSH1 0xFF AND DUP1 ISZERO PUSH2 0x955 JUMPI POP PUSH1 0xA DUP3 ADD SLOAD PUSH1 0x1 PUSH1 0x1 PUSH1 0xA0 SHL SUB AND CALLER EQ ISZERO JUMPDEST PUSH2 0x994 JUMPI PUSH1 0x40 MLOAD PUSH3 0x461BCD PUSH1 0xE5 SHL DUP2 MSTORE PUSH1 0x20 PUSH1 0x4 DUP3 ADD MSTORE PUSH1 0x10 PUSH1 0x24 DUP3 ADD MSTORE PUSH16 0x4F6C64206E6F7420656C696769626C65 PUSH1 0x80 SHL PUSH1 0x44 DUP3 ADD MSTORE PUSH1 0x64 ADD PUSH2 0x84C JUMP JUMPDEST PUSH1 0x8 DUP2 ADD SLOAD PUSH1 0xFF AND DUP1 ISZERO PUSH2 0x9B3 JUMPI POP PUSH1 0x8 DUP2 ADD SLOAD PUSH3 0x10000 SWAP1 DIV PUSH1 0xFF AND ISZERO JUMPDEST PUSH2 0x9F6 JUMPI PUSH1 0x40 MLOAD PUSH3 0x461BCD PUSH1 0xE5 SHL DUP2 MSTORE PUSH1 0x20 PUSH1 0x4 DUP3 ADD MSTORE PUSH1 0x14 PUSH1 0x24 DUP3 ADD MSTORE PUSH20 0x4E6577206C6F747465727920696E616374697665 PUSH1 0x60 SHL PUSH1 0x44 DUP3 ADD MSTORE PUSH1 0x64 ADD PUSH2 0x84C JUMP JUMPDEST DUP1 PUSH1 0x4 ADD SLOAD TIMESTAMP LT PUSH2 0xA3C JUMPI PUSH1 0x40 MLOAD PUSH3 0x461BCD PUSH1 0xE5 SHL DUP2 MSTORE PUSH1 0x20 PUSH1 0x4 DUP3 ADD MSTORE PUSH1 0x10 PUSH1 0x24 DUP3 ADD MSTORE PUSH16 0x546F6F206C61746520666F72206E6577 PUSH1 0x80 SHL PUSH1 0x44 DUP3 ADD MSTORE PUSH1 0x64 ADD PUSH2 0x84C JUMP JUMPDEST CALLER PUSH0 SWAP1 DUP2 MSTORE PUSH1 0xE DUP4 ADD PUSH1 0x20 MSTORE PUSH1 0x40 DUP2 KECCAK256 DUP1 SLOAD PUSH1 0xFF NOT AND PUSH1 0x1 SWAP1 DUP2 OR SWAP1 SWAP2 SSTORE PUSH1 0x2 DUP4 ADD SLOAD SWAP1 DUP4 ADD SLOAD PUSH2 0xA6D SWAP2 SWAP1 PUSH2 0x2355 JUMP JUMPDEST DUP3 SLOAD PUSH1 0x40 MLOAD PUSH4 0x23B872DD PUSH1 0xE0 SHL DUP2 MSTORE CALLER PUSH1 0x4 DUP3 ADD MSTORE ADDRESS PUSH1 0x24 DUP3 ADD MSTORE PUSH1 0x44 DUP2 ADD DUP4 SWAP1 MSTORE SWAP2 SWAP3 POP PUSH1 0x1 PUSH1 0x1 PUSH1 0xA0 SHL SUB AND SWAP1 PUSH4 0x23B872DD SWAP1 PUSH1 0x64 ADD PUSH1 0x20 PUSH1 0x40 MLOAD DUP1 DUP4 SUB DUP2 PUSH0 DUP8 GAS CALL ISZERO DUP1 ISZERO PUSH2 0xAC1 JUMPI RETURNDATASIZE PUSH0 PUSH0 RETURNDATACOPY RETURNDATASIZE PUSH0 REVERT JUMPDEST POP POP POP POP PUSH1 0x40 MLOAD RETURNDATASIZE PUSH1 0x1F NOT PUSH1 0x1F DUP3 ADD AND DUP3 ADD DUP1 PUSH1 0x40 MSTORE POP DUP2 ADD SWAP1 PUSH2 0xAE5 SWAP2 SWAP1 PUSH2 0x2368 JUMP JUMPDEST POP PUSH1 0x9 DUP3 ADD DUP1 SLOAD PUSH1 0x1 DUP2 ADD DUP3 SSTORE PUSH0 SWAP2 DUP3 MSTORE PUSH1 0x20 DUP1 DUP4 KECCAK256 SWAP1 SWAP2 ADD DUP1 SLOAD PUSH1 0x1 PUSH1 0x1 PUSH1 0xA0 SHL SUB NOT AND CALLER SWAP1 DUP2 OR SWAP1 SWAP2 SSTORE DUP3 MSTORE PUSH1 0xC DUP5 ADD SWAP1 MSTORE PUSH1 0x40 DUP2 KECCAK256 DUP1 SLOAD SWAP2 PUSH2 0xB29 DUP4 PUSH2 0x2387 JUMP JUMPDEST SWAP1 SWAP2 SSTORE POP POP PUSH1 0x40 DUP1 MLOAD DUP6 DUP2 MSTORE CALLER PUSH1 0x20 DUP3 ADD MSTORE PUSH32 0x1E28857182A3B2BB6FBB88287D1BA8CC3A941DD65D4C977286676D27B877A3D9 SWAP2 ADD PUSH1 0x40 MLOAD DUP1 SWAP2 SUB SWAP1 LOG1 POP POP POP PUSH2 0x85F PUSH1 0x1 PUSH0 SSTORE JUMP JUMPDEST PUSH2 0xB7A PUSH2 0x1A71 JUMP JUMPDEST PUSH0 DUP2 DUP2 MSTORE PUSH1 0x2 PUSH1 0x20 MSTORE PUSH1 0x40 SWAP1 KECCAK256 PUSH1 0x8 DUP2 ADD SLOAD PUSH1 0xFF AND DUP1 ISZERO PUSH2 0xBA6 JUMPI POP PUSH1 0x8 DUP2 ADD SLOAD PUSH3 0x10000 SWAP1 DIV PUSH1 0xFF AND ISZERO JUMPDEST PUSH2 0xBEA JUMPI PUSH1 0x40 MLOAD PUSH3 0x461BCD PUSH1 0xE5 SHL DUP2 MSTORE PUSH1 0x20 PUSH1 0x4 DUP3 ADD MSTORE PUSH1 0x15 PUSH1 0x24 DUP3 ADD MSTORE PUSH21 0x125B9858DD1A5D99481BDC8818D85B98D95B1B1959 PUSH1 0x5A SHL PUSH1 0x44 DUP3 ADD MSTORE PUSH1 0x64 ADD PUSH2 0x84C JUMP JUMPDEST DUP1 PUSH1 0x4 ADD SLOAD TIMESTAMP LT PUSH2 0xC28 JUMPI PUSH1 0x40 MLOAD PUSH3 0x461BCD PUSH1 0xE5 SHL DUP2 MSTORE PUSH1 0x20 PUSH1 0x4 DUP3 ADD MSTORE PUSH1 0x8 PUSH1 0x24 DUP3 ADD MSTORE PUSH8 0x546F6F206C617465 PUSH1 0xC0 SHL PUSH1 0x44 DUP3 ADD MSTORE PUSH1 0x64 ADD PUSH2 0x84C JUMP JUMPDEST PUSH1 0x3 DUP2 ADD SLOAD PUSH1 0x9 DUP3 ADD SLOAD LT PUSH2 0xC72 JUMPI PUSH1 0x40 MLOAD PUSH3 0x461BCD PUSH1 0xE5 SHL DUP2 MSTORE PUSH1 0x20 PUSH1 0x4 DUP3 ADD MSTORE PUSH1 0x10 PUSH1 0x24 DUP3 ADD MSTORE PUSH16 0x4D6178207061727469636970616E7473 PUSH1 0x80 SHL PUSH1 0x44 DUP3 ADD MSTORE PUSH1 0x64 ADD PUSH2 0x84C JUMP JUMPDEST DUP1 SLOAD PUSH1 0x1 DUP3 ADD SLOAD PUSH1 0x40 MLOAD PUSH4 0x23B872DD PUSH1 0xE0 SHL DUP2 MSTORE CALLER PUSH1 0x4 DUP3 ADD MSTORE ADDRESS PUSH1 0x24 DUP3 ADD MSTORE PUSH1 0x44 DUP2 ADD SWAP2 SWAP1 SWAP2 MSTORE PUSH1 0x1 PUSH1 0x1 PUSH1 0xA0 SHL SUB SWAP1 SWAP2 AND SWAP1 PUSH4 0x23B872DD SWAP1 PUSH1 0x64 ADD PUSH1 0x20 PUSH1 0x40 MLOAD DUP1 DUP4 SUB DUP2 PUSH0 DUP8 GAS CALL ISZERO DUP1 ISZERO PUSH2 0xCCB JUMPI RETURNDATASIZE PUSH0 PUSH0 RETURNDATACOPY RETURNDATASIZE PUSH0 REVERT JUMPDEST POP POP POP POP PUSH1 0x40 MLOAD RETURNDATASIZE PUSH1 0x1F NOT PUSH1 0x1F DUP3 ADD AND DUP3 ADD DUP1 PUSH1 0x40 MSTORE POP DUP2 ADD SWAP1 PUSH2 0xCEF SWAP2 SWAP1 PUSH2 0x2368 JUMP JUMPDEST POP PUSH1 0x9 DUP2 ADD DUP1 SLOAD PUSH1 0x1 DUP2 ADD DUP3 SSTORE PUSH0 SWAP2 DUP3 MSTORE PUSH1 0x20 DUP1 DUP4 KECCAK256 SWAP1 SWAP2 ADD DUP1 SLOAD PUSH1 0x1 PUSH1 0x1 PUSH1 0xA0 SHL SUB NOT AND CALLER SWAP1 DUP2 OR SWAP1 SWAP2 SSTORE DUP3 MSTORE PUSH1 0xC DUP4 ADD SWAP1 MSTORE PUSH1 0x40 DUP2 KECCAK256 DUP1 SLOAD SWAP2 PUSH2 0xD33 DUP4 PUSH2 0x2387 JUMP JUMPDEST SWAP1 SWAP2 SSTORE POP POP PUSH1 0x40 DUP1 MLOAD DUP4 DUP2 MSTORE CALLER PUSH1 0x20 DUP3 ADD MSTORE PUSH32 0x1E28857182A3B2BB6FBB88287D1BA8CC3A941DD65D4C977286676D27B877A3D9 SWAP2 ADD PUSH1 0x40 MLOAD DUP1 SWAP2 SUB SWAP1 LOG1 POP PUSH2 0xD7A PUSH1 0x1 PUSH0 SSTORE JUMP JUMPDEST POP JUMP JUMPDEST PUSH2 0xD85 PUSH2 0x1AC8 JUMP JUMPDEST DUP6 DUP8 LT ISZERO PUSH2 0xDC5 JUMPI PUSH1 0x40 MLOAD PUSH3 0x461BCD PUSH1 0xE5 SHL DUP2 MSTORE PUSH1 0x20 PUSH1 0x4 DUP3 ADD MSTORE PUSH1 0xD PUSH1 0x24 DUP3 ADD MSTORE PUSH13 0x526566756E64203C3D20666565 PUSH1 0x98 SHL PUSH1 0x44 DUP3 ADD MSTORE PUSH1 0x64 ADD PUSH2 0x84C JUMP JUMPDEST TIMESTAMP DUP5 GT PUSH2 0xE08 JUMPI PUSH1 0x40 MLOAD PUSH3 0x461BCD PUSH1 0xE5 SHL DUP2 MSTORE PUSH1 0x20 PUSH1 0x4 DUP3 ADD MSTORE PUSH1 0x11 PUSH1 0x24 DUP3 ADD MSTORE PUSH17 0x496E76616C696420647261772074696D65 PUSH1 0x78 SHL PUSH1 0x44 DUP3 ADD MSTORE PUSH1 0x64 ADD PUSH2 0x84C JUMP JUMPDEST PUSH0 PUSH1 0x2 PUSH0 PUSH1 0x3 PUSH0 DUP2 SLOAD PUSH2 0xE1A SWAP1 PUSH2 0x2387 JUMP JUMPDEST SWAP2 DUP3 SWAP1 SSTORE POP DUP2 MSTORE PUSH1 0x20 DUP1 DUP3 ADD SWAP3 SWAP1 SWAP3 MSTORE PUSH1 0x40 SWAP1 DUP2 ADD PUSH0 KECCAK256 DUP1 SLOAD PUSH1 0x1 PUSH1 0x1 PUSH1 0xA0 SHL SUB NOT AND PUSH1 0x1 PUSH1 0x1 PUSH1 0xA0 SHL SUB DUP14 AND OR DUP2 SSTORE PUSH1 0x1 DUP1 DUP3 ADD DUP13 SWAP1 SSTORE PUSH1 0x2 DUP3 ADD DUP12 SWAP1 SSTORE PUSH1 0x3 DUP1 DUP4 ADD DUP12 SWAP1 SSTORE PUSH1 0x4 DUP4 ADD DUP11 SWAP1 SSTORE PUSH1 0x5 DUP4 ADD DUP10 SWAP1 SSTORE PUSH1 0x6 DUP4 ADD DUP9 SWAP1 SSTORE PUSH1 0x7 DUP4 ADD DUP8 SWAP1 SSTORE PUSH1 0x8 DUP4 ADD DUP1 SLOAD PUSH1 0xFF NOT AND SWAP1 SWAP3 OR SWAP1 SWAP2 SSTORE SLOAD SWAP2 MLOAD SWAP2 DUP3 MSTORE SWAP3 POP PUSH32 0x9E0023BEBCC752BAAA41057318405B5A6A8E9C6372B519717CFDF238E5CAA795 SWAP2 ADD PUSH1 0x40 MLOAD DUP1 SWAP2 SUB SWAP1 LOG1 POP POP POP POP POP POP POP POP POP JUMP JUMPDEST PUSH2 0xED3 PUSH2 0x1AC8 JUMP JUMPDEST PUSH0 DUP2 DUP2 MSTORE PUSH1 0x2 PUSH1 0x20 MSTORE PUSH1 0x40 SWAP1 KECCAK256 PUSH1 0x8 DUP2 ADD SLOAD PUSH3 0x10000 SWAP1 DIV PUSH1 0xFF AND ISZERO DUP1 ISZERO PUSH2 0xF05 JUMPI POP PUSH1 0x8 DUP2 ADD SLOAD PUSH2 0x100 SWAP1 DIV PUSH1 0xFF AND ISZERO JUMPDEST PUSH2 0xF45 JUMPI PUSH1 0x40 MLOAD PUSH3 0x461BCD PUSH1 0xE5 SHL DUP2 MSTORE PUSH1 0x20 PUSH1 0x4 DUP3 ADD MSTORE PUSH1 0x11 PUSH1 0x24 DUP3 ADD MSTORE PUSH17 0x105B1C9958591E48199A5B985B1A5E9959 PUSH1 0x7A SHL PUSH1 0x44 DUP3 ADD MSTORE PUSH1 0x64 ADD PUSH2 0x84C JUMP JUMPDEST PUSH1 0x8 DUP2 ADD DUP1 SLOAD PUSH3 0xFF0000 NOT AND PUSH3 0x10000 OR SWAP1 SSTORE PUSH1 0x40 MLOAD PUSH32 0xC3DAC690CF4C3AE8964F18B8F09F7F9A75D3962A8CBB7CD689DF2C291BB5B2DD SWAP1 PUSH2 0xF8A SWAP1 DUP5 DUP2 MSTORE PUSH1 0x20 ADD SWAP1 JUMP JUMPDEST PUSH1 0x40 MLOAD DUP1 SWAP2 SUB SWAP1 LOG1 POP POP JUMP JUMPDEST PUSH2 0xF9E PUSH2 0x1B23 JUMP JUMPDEST PUSH2 0xFA7 DUP3 PUSH2 0x1BC7 JUMP JUMPDEST PUSH2 0x85F DUP3 DUP3 PUSH2 0x1BCF JUMP JUMPDEST PUSH0 PUSH2 0xFBA PUSH2 0x1C90 JUMP JUMPDEST POP PUSH0 MLOAD PUSH1 0x20 PUSH2 0x247B PUSH0 CODECOPY PUSH0 MLOAD SWAP1 PUSH0 MSTORE SWAP1 JUMP JUMPDEST PUSH2 0xFD4 PUSH2 0x1A71 JUMP JUMPDEST PUSH0 DUP2 DUP2 MSTORE PUSH1 0x2 PUSH1 0x20 MSTORE PUSH1 0x40 SWAP1 KECCAK256 PUSH1 0x8 DUP2 ADD SLOAD PUSH3 0x10000 SWAP1 DIV PUSH1 0xFF AND DUP1 PUSH2 0x101B JUMPI POP PUSH1 0x8 DUP2 ADD SLOAD PUSH2 0x100 SWAP1 DIV PUSH1 0xFF AND DUP1 ISZERO PUSH2 0x101B JUMPI POP PUSH1 0xA DUP2 ADD SLOAD PUSH1 0x1 PUSH1 0x1 PUSH1 0xA0 SHL SUB AND CALLER EQ ISZERO JUMPDEST PUSH2 0x1056 JUMPI PUSH1 0x40 MLOAD PUSH3 0x461BCD PUSH1 0xE5 SHL DUP2 MSTORE PUSH1 0x20 PUSH1 0x4 DUP3 ADD MSTORE PUSH1 0xC PUSH1 0x24 DUP3 ADD MSTORE PUSH12 0x4E6F7420656C696769626C65 PUSH1 0xA0 SHL PUSH1 0x44 DUP3 ADD MSTORE PUSH1 0x64 ADD PUSH2 0x84C JUMP JUMPDEST CALLER PUSH0 SWAP1 DUP2 MSTORE PUSH1 0xE DUP3 ADD PUSH1 0x20 MSTORE PUSH1 0x40 SWAP1 KECCAK256 SLOAD PUSH1 0xFF AND ISZERO PUSH2 0x10AA JUMPI PUSH1 0x40 MLOAD PUSH3 0x461BCD PUSH1 0xE5 SHL DUP2 MSTORE PUSH1 0x20 PUSH1 0x4 DUP3 ADD MSTORE PUSH1 0x10 PUSH1 0x24 DUP3 ADD MSTORE PUSH16 0x105B1C9958591E481C99599D5B991959 PUSH1 0x82 SHL PUSH1 0x44 DUP3 ADD MSTORE PUSH1 0x64 ADD PUSH2 0x84C JUMP JUMPDEST CALLER PUSH0 SWAP1 DUP2 MSTORE PUSH1 0xC DUP3 ADD PUSH1 0x20 MSTORE PUSH1 0x40 SWAP1 KECCAK256 SLOAD PUSH2 0x10F4 JUMPI PUSH1 0x40 MLOAD PUSH3 0x461BCD PUSH1 0xE5 SHL DUP2 MSTORE PUSH1 0x20 PUSH1 0x4 DUP3 ADD MSTORE PUSH1 0xA PUSH1 0x24 DUP3 ADD MSTORE PUSH10 0x4E6F20656E7472696573 PUSH1 0xB0 SHL PUSH1 0x44 DUP3 ADD MSTORE PUSH1 0x64 ADD PUSH2 0x84C JUMP JUMPDEST CALLER PUSH0 SWAP1 DUP2 MSTORE PUSH1 0xE DUP3 ADD PUSH1 0x20 SWAP1 DUP2 MSTORE PUSH1 0x40 DUP1 DUP4 KECCAK256 DUP1 SLOAD PUSH1 0xFF NOT AND PUSH1 0x1 OR SWAP1 SSTORE PUSH1 0xC DUP5 ADD SWAP1 SWAP2 MSTORE DUP2 KECCAK256 SLOAD PUSH1 0x2 DUP4 ADD SLOAD PUSH2 0x112B SWAP2 SWAP1 PUSH2 0x239F JUMP JUMPDEST DUP3 SLOAD PUSH1 0x40 MLOAD PUSH4 0xA9059CBB PUSH1 0xE0 SHL DUP2 MSTORE CALLER PUSH1 0x4 DUP3 ADD MSTORE PUSH1 0x24 DUP2 ADD DUP4 SWAP1 MSTORE SWAP2 SWAP3 POP PUSH1 0x1 PUSH1 0x1 PUSH1 0xA0 SHL SUB AND SWAP1 PUSH4 0xA9059CBB SWAP1 PUSH1 0x44 ADD PUSH1 0x20 PUSH1 0x40 MLOAD DUP1 DUP4 SUB DUP2 PUSH0 DUP8 GAS CALL ISZERO DUP1 ISZERO PUSH2 0x1179 JUMPI RETURNDATASIZE PUSH0 PUSH0 RETURNDATACOPY RETURNDATASIZE PUSH0 REVERT JUMPDEST POP POP POP POP PUSH1 0x40 MLOAD RETURNDATASIZE PUSH1 0x1F NOT PUSH1 0x1F DUP3 ADD AND DUP3 ADD DUP1 PUSH1 0x40 MSTORE POP DUP2 ADD SWAP1 PUSH2 0x119D SWAP2 SWAP1 PUSH2 0x2368 JUMP JUMPDEST POP POP POP PUSH2 0xD7A PUSH1 0x1 PUSH0 SSTORE JUMP JUMPDEST PUSH2 0x11B1 PUSH2 0x1AC8 JUMP JUMPDEST PUSH0 DUP2 DUP2 MSTORE PUSH1 0x2 PUSH1 0x20 MSTORE PUSH1 0x40 SWAP1 KECCAK256 PUSH1 0x4 DUP2 ADD SLOAD TIMESTAMP LT ISZERO PUSH2 0x11FE JUMPI PUSH1 0x40 MLOAD PUSH3 0x461BCD PUSH1 0xE5 SHL DUP2 MSTORE PUSH1 0x20 PUSH1 0x4 DUP3 ADD MSTORE PUSH1 0x9 PUSH1 0x24 DUP3 ADD MSTORE PUSH9 0x546F6F206561726C79 PUSH1 0xB8 SHL PUSH1 0x44 DUP3 ADD MSTORE PUSH1 0x64 ADD PUSH2 0x84C JUMP JUMPDEST PUSH1 0x8 DUP2 ADD SLOAD PUSH2 0x100 SWAP1 DIV PUSH1 0xFF AND ISZERO DUP1 ISZERO PUSH2 0x1223 JUMPI POP PUSH1 0x8 DUP2 ADD SLOAD PUSH3 0x10000 SWAP1 DIV PUSH1 0xFF AND ISZERO JUMPDEST PUSH2 0x126F JUMPI PUSH1 0x40 MLOAD PUSH3 0x461BCD PUSH1 0xE5 SHL DUP2 MSTORE PUSH1 0x20 PUSH1 0x4 DUP3 ADD MSTORE PUSH1 0x1A PUSH1 0x24 DUP3 ADD MSTORE PUSH32 0x416C726561647920647261776E206F722063616E63656C6C6564000000000000 PUSH1 0x44 DUP3 ADD MSTORE PUSH1 0x64 ADD PUSH2 0x84C JUMP JUMPDEST PUSH1 0x9 DUP2 ADD SLOAD PUSH2 0x12B2 JUMPI PUSH1 0x40 MLOAD PUSH3 0x461BCD PUSH1 0xE5 SHL DUP2 MSTORE PUSH1 0x20 PUSH1 0x4 DUP3 ADD MSTORE PUSH1 0xF PUSH1 0x24 DUP3 ADD MSTORE PUSH15 0x4E6F207061727469636970616E7473 PUSH1 0x88 SHL PUSH1 0x44 DUP3 ADD MSTORE PUSH1 0x64 ADD PUSH2 0x84C JUMP JUMPDEST PUSH1 0x9 SLOAD PUSH1 0x40 DUP1 MLOAD PUSH1 0xC0 DUP2 ADD DUP3 MSTORE PUSH1 0x6 SLOAD DUP2 MSTORE PUSH1 0x8 SLOAD PUSH1 0x20 DUP1 DUP4 ADD SWAP2 SWAP1 SWAP2 MSTORE PUSH1 0x7 SLOAD PUSH2 0xFFFF PUSH5 0x100000000 DUP3 DIV AND DUP4 DUP6 ADD MSTORE PUSH4 0xFFFFFFFF DUP1 DUP3 AND PUSH1 0x60 DUP6 ADD MSTORE PUSH7 0x1000000000000 SWAP1 SWAP2 DIV AND PUSH1 0x80 DUP4 ADD MSTORE DUP3 MLOAD SWAP1 DUP2 ADD SWAP1 SWAP3 MSTORE PUSH0 DUP1 DUP4 MSTORE SWAP3 PUSH1 0x1 PUSH1 0x1 PUSH1 0xA0 SHL SUB AND SWAP2 PUSH4 0x9B1C385E SWAP2 SWAP1 PUSH1 0xA0 DUP3 ADD SWAP1 PUSH2 0x132D SWAP1 PUSH2 0x1CD9 JUMP JUMPDEST DUP2 MSTORE POP PUSH1 0x40 MLOAD DUP3 PUSH4 0xFFFFFFFF AND PUSH1 0xE0 SHL DUP2 MSTORE PUSH1 0x4 ADD PUSH2 0x134C SWAP2 SWAP1 PUSH2 0x23B6 JUMP JUMPDEST PUSH1 0x20 PUSH1 0x40 MLOAD DUP1 DUP4 SUB DUP2 PUSH0 DUP8 GAS CALL ISZERO DUP1 ISZERO PUSH2 0x1368 JUMPI RETURNDATASIZE PUSH0 PUSH0 RETURNDATACOPY RETURNDATASIZE PUSH0 REVERT JUMPDEST POP POP POP POP PUSH1 0x40 MLOAD RETURNDATASIZE PUSH1 0x1F NOT PUSH1 0x1F DUP3 ADD AND DUP3 ADD DUP1 PUSH1 0x40 MSTORE POP DUP2 ADD SWAP1 PUSH2 0x138C SWAP2 SWAP1 PUSH2 0x241A JUMP JUMPDEST PUSH0 DUP2 DUP2 MSTORE PUSH1 0xA PUSH1 0x20 MSTORE PUSH1 0x40 SWAP1 DUP2 SWAP1 KECCAK256 DUP6 SWAP1 SSTORE PUSH1 0x8 DUP5 ADD DUP1 SLOAD PUSH2 0xFF00 NOT AND PUSH2 0x100 OR SWAP1 SSTORE MLOAD SWAP1 SWAP2 POP PUSH32 0x600253EAE67A5C51C82A7123372E8644F16009C6304E18F844CF86FDC40C24D7 SWAP1 PUSH2 0x13EB SWAP1 DUP6 SWAP1 DUP5 SWAP1 SWAP2 DUP3 MSTORE PUSH1 0x20 DUP3 ADD MSTORE PUSH1 0x40 ADD SWAP1 JUMP JUMPDEST PUSH1 0x40 MLOAD DUP1 SWAP2 SUB SWAP1 LOG1 POP POP POP JUMP JUMPDEST PUSH2 0x1400 PUSH2 0x1AC8 JUMP JUMPDEST PUSH2 0x1409 PUSH0 PUSH2 0x1D4A JUMP JUMPDEST JUMP JUMPDEST PUSH0 DUP2 DUP2 MSTORE PUSH1 0x2 PUSH1 0x20 SWAP1 DUP2 MSTORE PUSH1 0x40 DUP1 DUP4 KECCAK256 CALLER DUP5 MSTORE PUSH1 0xF DUP2 ADD SWAP1 SWAP3 MSTORE SWAP1 SWAP2 KECCAK256 SLOAD PUSH1 0xFF AND ISZERO PUSH2 0x1469 JUMPI PUSH1 0x40 MLOAD PUSH3 0x461BCD PUSH1 0xE5 SHL DUP2 MSTORE PUSH1 0x20 PUSH1 0x4 DUP3 ADD MSTORE PUSH1 0xD PUSH1 0x24 DUP3 ADD MSTORE PUSH13 0x105B1C9958591E481D9BDD1959 PUSH1 0x9A SHL PUSH1 0x44 DUP3 ADD MSTORE PUSH1 0x64 ADD PUSH2 0x84C JUMP JUMPDEST CALLER PUSH0 SWAP1 DUP2 MSTORE PUSH1 0xC DUP3 ADD PUSH1 0x20 MSTORE PUSH1 0x40 SWAP1 KECCAK256 SLOAD PUSH2 0x14B7 JUMPI PUSH1 0x40 MLOAD PUSH3 0x461BCD PUSH1 0xE5 SHL DUP2 MSTORE PUSH1 0x20 PUSH1 0x4 DUP3 ADD MSTORE PUSH1 0xE PUSH1 0x24 DUP3 ADD MSTORE PUSH14 0x4E6F7420696E206C6F7474657279 PUSH1 0x90 SHL PUSH1 0x44 DUP3 ADD MSTORE PUSH1 0x64 ADD PUSH2 0x84C JUMP JUMPDEST CALLER PUSH0 SWAP1 DUP2 MSTORE PUSH1 0xF DUP3 ADD PUSH1 0x20 MSTORE PUSH1 0x40 DUP2 KECCAK256 DUP1 SLOAD PUSH1 0xFF NOT AND PUSH1 0x1 OR SWAP1 SSTORE PUSH1 0xB DUP3 ADD DUP1 SLOAD SWAP2 PUSH2 0x14E2 DUP4 PUSH2 0x2387 JUMP JUMPDEST SWAP1 SWAP2 SSTORE POP POP PUSH1 0x9 DUP2 ADD SLOAD PUSH2 0x14F7 SWAP1 PUSH1 0x2 PUSH2 0x239F JUMP JUMPDEST PUSH1 0xB DUP3 ADD SLOAD PUSH2 0x1507 SWAP1 PUSH1 0x3 PUSH2 0x239F JUMP JUMPDEST LT PUSH2 0x85F JUMPI PUSH1 0x8 DUP2 ADD DUP1 SLOAD PUSH3 0xFF0000 NOT AND PUSH3 0x10000 OR SWAP1 SSTORE PUSH1 0x40 MLOAD PUSH32 0xC3DAC690CF4C3AE8964F18B8F09F7F9A75D3962A8CBB7CD689DF2C291BB5B2DD SWAP1 PUSH2 0xF8A SWAP1 DUP5 DUP2 MSTORE PUSH1 0x20 ADD SWAP1 JUMP JUMPDEST PUSH2 0x1559 PUSH2 0x1AC8 JUMP JUMPDEST PUSH0 DUP2 DUP2 MSTORE PUSH1 0x2 PUSH1 0x20 DUP2 SWAP1 MSTORE PUSH1 0x40 DUP3 KECCAK256 DUP1 SLOAD PUSH1 0x1 PUSH1 0x1 PUSH1 0xA0 SHL SUB NOT AND DUP2 SSTORE PUSH1 0x1 DUP2 ADD DUP4 SWAP1 SSTORE SWAP1 DUP2 ADD DUP3 SWAP1 SSTORE PUSH1 0x3 DUP2 ADD DUP3 SWAP1 SSTORE PUSH1 0x4 DUP2 ADD DUP3 SWAP1 SSTORE PUSH1 0x5 DUP2 ADD DUP3 SWAP1 SSTORE PUSH1 0x6 DUP2 ADD DUP3 SWAP1 SSTORE PUSH1 0x7 DUP2 ADD DUP3 SWAP1 SSTORE PUSH1 0x8 DUP2 ADD DUP1 SLOAD PUSH3 0xFFFFFF NOT AND SWAP1 SSTORE SWAP1 PUSH2 0x15C2 PUSH1 0x9 DUP4 ADD DUP3 PUSH2 0x1FD1 JUMP JUMPDEST POP PUSH1 0xA DUP2 ADD DUP1 SLOAD PUSH1 0x1 PUSH1 0x1 PUSH1 0xA0 SHL SUB NOT AND SWAP1 SSTORE PUSH0 PUSH1 0xB SWAP1 SWAP2 ADD SSTORE POP JUMP JUMPDEST PUSH0 DUP2 DUP2 MSTORE PUSH1 0x2 PUSH1 0x20 SWAP1 DUP2 MSTORE PUSH1 0x40 SWAP2 DUP3 SWAP1 KECCAK256 PUSH1 0x9 ADD DUP1 SLOAD DUP4 MLOAD DUP2 DUP5 MUL DUP2 ADD DUP5 ADD SWAP1 SWAP5 MSTORE DUP1 DUP5 MSTORE PUSH1 0x60 SWAP4 SWAP3 DUP4 ADD DUP3 DUP3 DUP1 ISZERO PUSH2 0x163F JUMPI PUSH1 0x20 MUL DUP3 ADD SWAP2 SWAP1 PUSH0 MSTORE PUSH1 0x20 PUSH0 KECCAK256 SWAP1 JUMPDEST DUP2 SLOAD PUSH1 0x1 PUSH1 0x1 PUSH1 0xA0 SHL SUB AND DUP2 MSTORE PUSH1 0x1 SWAP1 SWAP2 ADD SWAP1 PUSH1 0x20 ADD DUP1 DUP4 GT PUSH2 0x1621 JUMPI JUMPDEST POP POP POP POP POP SWAP1 POP SWAP2 SWAP1 POP JUMP JUMPDEST PUSH2 0x1653 PUSH2 0x1A71 JUMP JUMPDEST PUSH0 DUP2 DUP2 MSTORE PUSH1 0x2 PUSH1 0x20 MSTORE PUSH1 0x40 SWAP1 KECCAK256 PUSH1 0xA DUP2 ADD SLOAD PUSH1 0x1 PUSH1 0x1 PUSH1 0xA0 SHL SUB AND CALLER EQ PUSH2 0x16A9 JUMPI PUSH1 0x40 MLOAD PUSH3 0x461BCD PUSH1 0xE5 SHL DUP2 MSTORE PUSH1 0x20 PUSH1 0x4 DUP3 ADD MSTORE PUSH1 0xA PUSH1 0x24 DUP3 ADD MSTORE PUSH10 0x2737BA103BB4B73732B9 PUSH1 0xB1 SHL PUSH1 0x44 DUP3 ADD MSTORE PUSH1 0x64 ADD PUSH2 0x84C JUMP JUMPDEST CALLER PUSH0 SWAP1 DUP2 MSTORE PUSH1 0xD DUP3 ADD PUSH1 0x20 MSTORE PUSH1 0x40 SWAP1 KECCAK256 SLOAD PUSH1 0xFF AND ISZERO PUSH2 0x16FC JUMPI PUSH1 0x40 MLOAD PUSH3 0x461BCD PUSH1 0xE5 SHL DUP2 MSTORE PUSH1 0x20 PUSH1 0x4 DUP3 ADD MSTORE PUSH1 0xF PUSH1 0x24 DUP3 ADD MSTORE PUSH15 0x105B1C9958591E4818DB185A5B5959 PUSH1 0x8A SHL PUSH1 0x44 DUP3 ADD MSTORE PUSH1 0x64 ADD PUSH2 0x84C JUMP JUMPDEST CALLER PUSH0 DUP2 DUP2 MSTORE PUSH1 0xD DUP4 ADD PUSH1 0x20 MSTORE PUSH1 0x40 SWAP1 DUP2 SWAP1 KECCAK256 DUP1 SLOAD PUSH1 0xFF NOT AND PUSH1 0x1 OR SWAP1 SSTORE DUP3 SLOAD PUSH1 0x5 DUP5 ADD SLOAD SWAP2 MLOAD PUSH4 0xA9059CBB PUSH1 0xE0 SHL DUP2 MSTORE PUSH1 0x4 DUP2 ADD SWAP4 SWAP1 SWAP4 MSTORE PUSH1 0x24 DUP4 ADD SWAP2 SWAP1 SWAP2 MSTORE PUSH1 0x1 PUSH1 0x1 PUSH1 0xA0 SHL SUB AND SWAP1 PUSH4 0xA9059CBB SWAP1 PUSH1 0x44 ADD PUSH1 0x20 PUSH1 0x40 MLOAD DUP1 DUP4 SUB DUP2 PUSH0 DUP8 GAS CALL ISZERO DUP1 ISZERO PUSH2 0x176B JUMPI RETURNDATASIZE PUSH0 PUSH0 RETURNDATACOPY RETURNDATASIZE PUSH0 REVERT JUMPDEST POP POP POP POP PUSH1 0x40 MLOAD RETURNDATASIZE PUSH1 0x1F NOT PUSH1 0x1F DUP3 ADD AND DUP3 ADD DUP1 PUSH1 0x40 MSTORE POP DUP2 ADD SWAP1 PUSH2 0x178F SWAP2 SWAP1 PUSH2 0x2368 JUMP JUMPDEST POP POP PUSH2 0xD7A PUSH1 0x1 PUSH0 SSTORE JUMP JUMPDEST PUSH2 0x17A2 PUSH2 0x1AC8 JUMP JUMPDEST PUSH1 0x1 PUSH1 0x1 PUSH1 0xA0 SHL SUB DUP2 AND PUSH2 0x17CB JUMPI PUSH1 0x40 MLOAD PUSH4 0x1E4FBDF7 PUSH1 0xE0 SHL DUP2 MSTORE PUSH0 PUSH1 0x4 DUP3 ADD MSTORE PUSH1 0x24 ADD PUSH2 0x84C JUMP JUMPDEST PUSH2 0xD7A DUP2 PUSH2 0x1D4A JUMP JUMPDEST PUSH0 DUP1 PUSH32 0xF0C57E16840DF040F15088DC2F81FE391C3923BEC73E23A9662EFC9C229C6A00 JUMPDEST SWAP3 SWAP2 POP POP JUMP JUMPDEST PUSH2 0x1806 PUSH2 0x1DBA JUMP JUMPDEST PUSH2 0xD7A DUP2 PUSH2 0x1DDF JUMP JUMPDEST PUSH2 0x1409 PUSH2 0x1DBA JUMP JUMPDEST PUSH2 0x181F PUSH2 0x1DBA JUMP JUMPDEST PUSH1 0x1 DUP1 SLOAD PUSH1 0x1 PUSH1 0x1 PUSH1 0xA0 SHL SUB NOT AND PUSH1 0x1 PUSH1 0x1 PUSH1 0xA0 SHL SUB SWAP3 SWAP1 SWAP3 AND SWAP2 SWAP1 SWAP2 OR SWAP1 SSTORE JUMP JUMPDEST PUSH0 DUP3 DUP2 MSTORE PUSH1 0xA PUSH1 0x20 SWAP1 DUP2 MSTORE PUSH1 0x40 DUP1 DUP4 KECCAK256 SLOAD DUP1 DUP5 MSTORE PUSH1 0x2 SWAP1 SWAP3 MSTORE SWAP1 SWAP2 KECCAK256 PUSH1 0x8 DUP2 ADD SLOAD PUSH2 0x100 SWAP1 DIV PUSH1 0xFF AND DUP1 ISZERO PUSH2 0x1881 JUMPI POP PUSH1 0xA DUP2 ADD SLOAD PUSH1 0x1 PUSH1 0x1 PUSH1 0xA0 SHL SUB AND ISZERO JUMPDEST PUSH2 0x18C1 JUMPI PUSH1 0x40 MLOAD PUSH3 0x461BCD PUSH1 0xE5 SHL DUP2 MSTORE PUSH1 0x20 PUSH1 0x4 DUP3 ADD MSTORE PUSH1 0x11 PUSH1 0x24 DUP3 ADD MSTORE PUSH17 0x105B1C9958591E48199D5B199A5B1B1959 PUSH1 0x7A SHL PUSH1 0x44 DUP3 ADD MSTORE PUSH1 0x64 ADD PUSH2 0x84C JUMP JUMPDEST PUSH0 DUP2 PUSH1 0x9 ADD DUP1 SLOAD SWAP1 POP DUP5 PUSH0 DUP2 MLOAD DUP2 LT PUSH2 0x18DC JUMPI PUSH2 0x18DC PUSH2 0x2431 JUMP JUMPDEST PUSH1 0x20 MUL PUSH1 0x20 ADD ADD MLOAD PUSH2 0x18EE SWAP2 SWAP1 PUSH2 0x2445 JUMP JUMPDEST SWAP1 POP DUP2 PUSH1 0x9 ADD DUP2 DUP2 SLOAD DUP2 LT PUSH2 0x1905 JUMPI PUSH2 0x1905 PUSH2 0x2431 JUMP JUMPDEST PUSH0 SWAP2 DUP3 MSTORE PUSH1 0x20 SWAP1 SWAP2 KECCAK256 ADD SLOAD PUSH1 0xA DUP4 ADD DUP1 SLOAD PUSH1 0x1 PUSH1 0x1 PUSH1 0xA0 SHL SUB NOT AND PUSH1 0x1 PUSH1 0x1 PUSH1 0xA0 SHL SUB SWAP3 DUP4 AND OR SWAP1 SSTORE DUP3 SLOAD PUSH1 0x4 DUP1 SLOAD PUSH1 0x6 DUP7 ADD SLOAD PUSH1 0x40 MLOAD PUSH4 0xA9059CBB PUSH1 0xE0 SHL DUP2 MSTORE SWAP2 DUP6 AND SWAP3 DUP3 ADD SWAP3 SWAP1 SWAP3 MSTORE PUSH1 0x24 DUP2 ADD SWAP2 SWAP1 SWAP2 MSTORE SWAP2 AND SWAP1 DUP2 SWAP1 PUSH4 0xA9059CBB SWAP1 PUSH1 0x44 ADD PUSH1 0x20 PUSH1 0x40 MLOAD DUP1 DUP4 SUB DUP2 PUSH0 DUP8 GAS CALL ISZERO DUP1 ISZERO PUSH2 0x1982 JUMPI RETURNDATASIZE PUSH0 PUSH0 RETURNDATACOPY RETURNDATASIZE PUSH0 REVERT JUMPDEST POP POP POP POP PUSH1 0x40 MLOAD RETURNDATASIZE PUSH1 0x1F NOT PUSH1 0x1F DUP3 ADD AND DUP3 ADD DUP1 PUSH1 0x40 MSTORE POP DUP2 ADD SWAP1 PUSH2 0x19A6 SWAP2 SWAP1 PUSH2 0x2368 JUMP JUMPDEST POP PUSH1 0x5 SLOAD PUSH1 0x7 DUP5 ADD SLOAD PUSH1 0x40 MLOAD PUSH4 0xA9059CBB PUSH1 0xE0 SHL DUP2 MSTORE PUSH1 0x1 PUSH1 0x1 PUSH1 0xA0 SHL SUB SWAP3 DUP4 AND PUSH1 0x4 DUP3 ADD MSTORE PUSH1 0x24 DUP2 ADD SWAP2 SWAP1 SWAP2 MSTORE SWAP1 DUP3 AND SWAP1 PUSH4 0xA9059CBB SWAP1 PUSH1 0x44 ADD PUSH1 0x20 PUSH1 0x40 MLOAD DUP1 DUP4 SUB DUP2 PUSH0 DUP8 GAS CALL ISZERO DUP1 ISZERO PUSH2 0x19FD JUMPI RETURNDATASIZE PUSH0 PUSH0 RETURNDATACOPY RETURNDATASIZE PUSH0 REVERT JUMPDEST POP POP POP POP PUSH1 0x40 MLOAD RETURNDATASIZE PUSH1 0x1F NOT PUSH1 0x1F DUP3 ADD AND DUP3 ADD DUP1 PUSH1 0x40 MSTORE POP DUP2 ADD SWAP1 PUSH2 0x1A21 SWAP2 SWAP1 PUSH2 0x2368 JUMP JUMPDEST POP PUSH1 0xA DUP4 ADD SLOAD PUSH1 0x40 DUP1 MLOAD DUP7 DUP2 MSTORE PUSH1 0x1 PUSH1 0x1 PUSH1 0xA0 SHL SUB SWAP1 SWAP3 AND PUSH1 0x20 DUP4 ADD MSTORE PUSH32 0x3FB57EB449654E24E1B240D3D06702CF79362A065D5C0323AEE642D4702FA4B SWAP2 ADD PUSH1 0x40 MLOAD DUP1 SWAP2 SUB SWAP1 LOG1 POP POP POP POP POP POP JUMP JUMPDEST PUSH1 0x2 PUSH0 SLOAD SUB PUSH2 0x1AC2 JUMPI PUSH1 0x40 MLOAD PUSH3 0x461BCD PUSH1 0xE5 SHL DUP2 MSTORE PUSH1 0x20 PUSH1 0x4 DUP3 ADD MSTORE PUSH1 0x1F PUSH1 0x24 DUP3 ADD MSTORE PUSH32 0x5265656E7472616E637947756172643A207265656E7472616E742063616C6C00 PUSH1 0x44 DUP3 ADD MSTORE PUSH1 0x64 ADD PUSH2 0x84C JUMP JUMPDEST PUSH1 0x2 PUSH0 SSTORE JUMP JUMPDEST CALLER PUSH2 0x1AFA PUSH32 0x9016D09D72D40FDAE2FD8CEAC6B6234C7706214FD39C1CD1E609A0528C199300 SLOAD PUSH1 0x1 PUSH1 0x1 PUSH1 0xA0 SHL SUB AND SWAP1 JUMP JUMPDEST PUSH1 0x1 PUSH1 0x1 PUSH1 0xA0 SHL SUB AND EQ PUSH2 0x1409 JUMPI PUSH1 0x40 MLOAD PUSH4 0x118CDAA7 PUSH1 0xE0 SHL DUP2 MSTORE CALLER PUSH1 0x4 DUP3 ADD MSTORE PUSH1 0x24 ADD PUSH2 0x84C JUMP JUMPDEST ADDRESS PUSH1 0x1 PUSH1 0x1 PUSH1 0xA0 SHL SUB PUSH32 0x0 AND EQ DUP1 PUSH2 0x1BA9 JUMPI POP PUSH32 0x0 PUSH1 0x1 PUSH1 0x1 PUSH1 0xA0 SHL SUB AND PUSH2 0x1B9D PUSH0 MLOAD PUSH1 0x20 PUSH2 0x247B PUSH0 CODECOPY PUSH0 MLOAD SWAP1 PUSH0 MSTORE SLOAD PUSH1 0x1 PUSH1 0x1 PUSH1 0xA0 SHL SUB AND SWAP1 JUMP JUMPDEST PUSH1 0x1 PUSH1 0x1 PUSH1 0xA0 SHL SUB AND EQ ISZERO JUMPDEST ISZERO PUSH2 0x1409 JUMPI PUSH1 0x40 MLOAD PUSH4 0x703E46DD PUSH1 0xE1 SHL DUP2 MSTORE PUSH1 0x4 ADD PUSH1 0x40 MLOAD DUP1 SWAP2 SUB SWAP1 REVERT JUMPDEST PUSH2 0xD7A PUSH2 0x1AC8 JUMP JUMPDEST DUP2 PUSH1 0x1 PUSH1 0x1 PUSH1 0xA0 SHL SUB AND PUSH4 0x52D1902D PUSH1 0x40 MLOAD DUP2 PUSH4 0xFFFFFFFF AND PUSH1 0xE0 SHL DUP2 MSTORE PUSH1 0x4 ADD PUSH1 0x20 PUSH1 0x40 MLOAD DUP1 DUP4 SUB DUP2 DUP7 GAS STATICCALL SWAP3 POP POP POP DUP1 ISZERO PUSH2 0x1C29 JUMPI POP PUSH1 0x40 DUP1 MLOAD PUSH1 0x1F RETURNDATASIZE SWAP1 DUP2 ADD PUSH1 0x1F NOT AND DUP3 ADD SWAP1 SWAP3 MSTORE PUSH2 0x1C26 SWAP2 DUP2 ADD SWAP1 PUSH2 0x241A JUMP JUMPDEST PUSH1 0x1 JUMPDEST PUSH2 0x1C51 JUMPI PUSH1 0x40 MLOAD PUSH4 0x4C9C8CE3 PUSH1 0xE0 SHL DUP2 MSTORE PUSH1 0x1 PUSH1 0x1 PUSH1 0xA0 SHL SUB DUP4 AND PUSH1 0x4 DUP3 ADD MSTORE PUSH1 0x24 ADD PUSH2 0x84C JUMP JUMPDEST PUSH0 MLOAD PUSH1 0x20 PUSH2 0x247B PUSH0 CODECOPY PUSH0 MLOAD SWAP1 PUSH0 MSTORE DUP2 EQ PUSH2 0x1C81 JUMPI PUSH1 0x40 MLOAD PUSH4 0x2A875269 PUSH1 0xE2 SHL DUP2 MSTORE PUSH1 0x4 DUP2 ADD DUP3 SWAP1 MSTORE PUSH1 0x24 ADD PUSH2 0x84C JUMP JUMPDEST PUSH2 0x1C8B DUP4 DUP4 PUSH2 0x1DE7 JUMP JUMPDEST POP POP POP JUMP JUMPDEST ADDRESS PUSH1 0x1 PUSH1 0x1 PUSH1 0xA0 SHL SUB PUSH32 0x0 AND EQ PUSH2 0x1409 JUMPI PUSH1 0x40 MLOAD PUSH4 0x703E46DD PUSH1 0xE1 SHL DUP2 MSTORE PUSH1 0x4 ADD PUSH1 0x40 MLOAD DUP1 SWAP2 SUB SWAP1 REVERT JUMPDEST PUSH1 0x60 PUSH32 0x92FD13387C7FE7BEFBC38D303D6468778FB9731BC4583F17D92989C6FCFDEAAA DUP3 PUSH1 0x40 MLOAD PUSH1 0x24 ADD PUSH2 0x1D12 SWAP2 MLOAD ISZERO ISZERO DUP2 MSTORE PUSH1 0x20 ADD SWAP1 JUMP JUMPDEST PUSH1 0x40 DUP1 MLOAD PUSH1 0x1F NOT DUP2 DUP5 SUB ADD DUP2 MSTORE SWAP2 SWAP1 MSTORE PUSH1 0x20 DUP2 ADD DUP1 MLOAD PUSH1 0x1 PUSH1 0x1 PUSH1 0xE0 SHL SUB AND PUSH1 0x1 PUSH1 0x1 PUSH1 0xE0 SHL SUB NOT SWAP1 SWAP4 AND SWAP3 SWAP1 SWAP3 OR SWAP1 SWAP2 MSTORE SWAP3 SWAP2 POP POP JUMP JUMPDEST PUSH32 0x9016D09D72D40FDAE2FD8CEAC6B6234C7706214FD39C1CD1E609A0528C199300 DUP1 SLOAD PUSH1 0x1 PUSH1 0x1 PUSH1 0xA0 SHL SUB NOT DUP2 AND PUSH1 0x1 PUSH1 0x1 PUSH1 0xA0 SHL SUB DUP5 DUP2 AND SWAP2 DUP3 OR DUP5 SSTORE PUSH1 0x40 MLOAD SWAP3 AND SWAP2 DUP3 SWAP1 PUSH32 0x8BE0079C531659141344CD1FD0A4F28419497F9722A3DAAFE3B4186F6B6457E0 SWAP1 PUSH0 SWAP1 LOG3 POP POP POP JUMP JUMPDEST PUSH2 0x1DC2 PUSH2 0x1E3C JUMP JUMPDEST PUSH2 0x1409 JUMPI PUSH1 0x40 MLOAD PUSH4 0x1AFCD79F PUSH1 0xE3 SHL DUP2 MSTORE PUSH1 0x4 ADD PUSH1 0x40 MLOAD DUP1 SWAP2 SUB SWAP1 REVERT JUMPDEST PUSH2 0x17A2 PUSH2 0x1DBA JUMP JUMPDEST PUSH2 0x1DF0 DUP3 PUSH2 0x1E55 JUMP JUMPDEST PUSH1 0x40 MLOAD PUSH1 0x1 PUSH1 0x1 PUSH1 0xA0 SHL SUB DUP4 AND SWAP1 PUSH32 0xBC7CD75A20EE27FD9ADEBAB32041F755214DBC6BFFA90CC0225B39DA2E5C2D3B SWAP1 PUSH0 SWAP1 LOG2 DUP1 MLOAD ISZERO PUSH2 0x1E34 JUMPI PUSH2 0x1C8B DUP3 DUP3 PUSH2 0x1EB8 JUMP JUMPDEST PUSH2 0x85F PUSH2 0x1F2A JUMP JUMPDEST PUSH0 PUSH2 0x1E45 PUSH2 0x17D4 JUMP JUMPDEST SLOAD PUSH1 0x1 PUSH1 0x40 SHL SWAP1 DIV PUSH1 0xFF AND SWAP2 SWAP1 POP JUMP JUMPDEST DUP1 PUSH1 0x1 PUSH1 0x1 PUSH1 0xA0 SHL SUB AND EXTCODESIZE PUSH0 SUB PUSH2 0x1E8A JUMPI PUSH1 0x40 MLOAD PUSH4 0x4C9C8CE3 PUSH1 0xE0 SHL DUP2 MSTORE PUSH1 0x1 PUSH1 0x1 PUSH1 0xA0 SHL SUB DUP3 AND PUSH1 0x4 DUP3 ADD MSTORE PUSH1 0x24 ADD PUSH2 0x84C JUMP JUMPDEST PUSH0 MLOAD PUSH1 0x20 PUSH2 0x247B PUSH0 CODECOPY PUSH0 MLOAD SWAP1 PUSH0 MSTORE DUP1 SLOAD PUSH1 0x1 PUSH1 0x1 PUSH1 0xA0 SHL SUB NOT AND PUSH1 0x1 PUSH1 0x1 PUSH1 0xA0 SHL SUB SWAP3 SWAP1 SWAP3 AND SWAP2 SWAP1 SWAP2 OR SWAP1 SSTORE JUMP JUMPDEST PUSH1 0x60 PUSH0 PUSH0 DUP5 PUSH1 0x1 PUSH1 0x1 PUSH1 0xA0 SHL SUB AND DUP5 PUSH1 0x40 MLOAD PUSH2 0x1ED4 SWAP2 SWAP1 PUSH2 0x2464 JUMP JUMPDEST PUSH0 PUSH1 0x40 MLOAD DUP1 DUP4 SUB DUP2 DUP6 GAS DELEGATECALL SWAP2 POP POP RETURNDATASIZE DUP1 PUSH0 DUP2 EQ PUSH2 0x1F0C JUMPI PUSH1 0x40 MLOAD SWAP2 POP PUSH1 0x1F NOT PUSH1 0x3F RETURNDATASIZE ADD AND DUP3 ADD PUSH1 0x40 MSTORE RETURNDATASIZE DUP3 MSTORE RETURNDATASIZE PUSH0 PUSH1 0x20 DUP5 ADD RETURNDATACOPY PUSH2 0x1F11 JUMP JUMPDEST PUSH1 0x60 SWAP2 POP JUMPDEST POP SWAP2 POP SWAP2 POP PUSH2 0x1F21 DUP6 DUP4 DUP4 PUSH2 0x1F49 JUMP JUMPDEST SWAP6 SWAP5 POP POP POP POP POP JUMP JUMPDEST CALLVALUE ISZERO PUSH2 0x1409 JUMPI PUSH1 0x40 MLOAD PUSH4 0xB398979F PUSH1 0xE0 SHL DUP2 MSTORE PUSH1 0x4 ADD PUSH1 0x40 MLOAD DUP1 SWAP2 SUB SWAP1 REVERT JUMPDEST PUSH1 0x60 DUP3 PUSH2 0x1F5E JUMPI PUSH2 0x1F59 DUP3 PUSH2 0x1FA8 JUMP JUMPDEST PUSH2 0x1FA1 JUMP JUMPDEST DUP2 MLOAD ISZERO DUP1 ISZERO PUSH2 0x1F75 JUMPI POP PUSH1 0x1 PUSH1 0x1 PUSH1 0xA0 SHL SUB DUP5 AND EXTCODESIZE ISZERO JUMPDEST ISZERO PUSH2 0x1F9E JUMPI PUSH1 0x40 MLOAD PUSH4 0x9996B315 PUSH1 0xE0 SHL DUP2 MSTORE PUSH1 0x1 PUSH1 0x1 PUSH1 0xA0 SHL SUB DUP6 AND PUSH1 0x4 DUP3 ADD MSTORE PUSH1 0x24 ADD PUSH2 0x84C JUMP JUMPDEST POP DUP1 JUMPDEST SWAP4 SWAP3 POP POP POP JUMP JUMPDEST DUP1 MLOAD ISZERO PUSH2 0x1FB8 JUMPI DUP1 MLOAD DUP1 DUP3 PUSH1 0x20 ADD REVERT JUMPDEST PUSH1 0x40 MLOAD PUSH4 0xD6BDA275 PUSH1 0xE0 SHL DUP2 MSTORE PUSH1 0x4 ADD PUSH1 0x40 MLOAD DUP1 SWAP2 SUB SWAP1 REVERT JUMPDEST POP DUP1 SLOAD PUSH0 DUP3 SSTORE SWAP1 PUSH0 MSTORE PUSH1 0x20 PUSH0 KECCAK256 SWAP1 DUP2 ADD SWAP1 PUSH2 0xD7A SWAP2 SWAP1 JUMPDEST DUP1 DUP3 GT ISZERO PUSH2 0x1FFB JUMPI PUSH0 DUP2 SSTORE PUSH1 0x1 ADD PUSH2 0x1FE8 JUMP JUMPDEST POP SWAP1 JUMP JUMPDEST DUP1 CALLDATALOAD PUSH1 0x1 PUSH1 0x1 PUSH1 0xA0 SHL SUB DUP2 AND DUP2 EQ PUSH2 0x2015 JUMPI PUSH0 PUSH0 REVERT JUMPDEST SWAP2 SWAP1 POP JUMP JUMPDEST PUSH0 PUSH0 PUSH0 PUSH0 PUSH0 PUSH1 0xA0 DUP7 DUP9 SUB SLT ISZERO PUSH2 0x202E JUMPI PUSH0 PUSH0 REVERT JUMPDEST PUSH2 0x2037 DUP7 PUSH2 0x1FFF JUMP JUMPDEST SWAP5 POP PUSH1 0x20 DUP7 ADD CALLDATALOAD SWAP4 POP PUSH1 0x40 DUP7 ADD CALLDATALOAD SWAP3 POP PUSH2 0x2053 PUSH1 0x60 DUP8 ADD PUSH2 0x1FFF JUMP JUMPDEST SWAP2 POP PUSH2 0x2061 PUSH1 0x80 DUP8 ADD PUSH2 0x1FFF JUMP JUMPDEST SWAP1 POP SWAP3 SWAP6 POP SWAP3 SWAP6 SWAP1 SWAP4 POP JUMP JUMPDEST PUSH0 PUSH1 0x20 DUP3 DUP5 SUB SLT ISZERO PUSH2 0x207D JUMPI PUSH0 PUSH0 REVERT JUMPDEST POP CALLDATALOAD SWAP2 SWAP1 POP JUMP JUMPDEST PUSH4 0x4E487B71 PUSH1 0xE0 SHL PUSH0 MSTORE PUSH1 0x41 PUSH1 0x4 MSTORE PUSH1 0x24 PUSH0 REVERT JUMPDEST PUSH1 0x40 MLOAD PUSH1 0x1F DUP3 ADD PUSH1 0x1F NOT AND DUP2 ADD PUSH8 0xFFFFFFFFFFFFFFFF DUP2 GT DUP3 DUP3 LT OR ISZERO PUSH2 0x20C1 JUMPI PUSH2 0x20C1 PUSH2 0x2084 JUMP JUMPDEST PUSH1 0x40 MSTORE SWAP2 SWAP1 POP JUMP JUMPDEST PUSH0 PUSH0 PUSH1 0x40 DUP4 DUP6 SUB SLT ISZERO PUSH2 0x20DA JUMPI PUSH0 PUSH0 REVERT JUMPDEST DUP3 CALLDATALOAD SWAP2 POP PUSH1 0x20 DUP4 ADD CALLDATALOAD PUSH8 0xFFFFFFFFFFFFFFFF DUP2 GT ISZERO PUSH2 0x20F7 JUMPI PUSH0 PUSH0 REVERT JUMPDEST DUP4 ADD PUSH1 0x1F DUP2 ADD DUP6 SGT PUSH2 0x2107 JUMPI PUSH0 PUSH0 REVERT JUMPDEST DUP1 CALLDATALOAD PUSH8 0xFFFFFFFFFFFFFFFF DUP2 GT ISZERO PUSH2 0x2121 JUMPI PUSH2 0x2121 PUSH2 0x2084 JUMP JUMPDEST DUP1 PUSH1 0x5 SHL PUSH2 0x2131 PUSH1 0x20 DUP3 ADD PUSH2 0x2098 JUMP JUMPDEST SWAP2 DUP3 MSTORE PUSH1 0x20 DUP2 DUP5 ADD DUP2 ADD SWAP3 SWAP1 DUP2 ADD SWAP1 DUP9 DUP5 GT ISZERO PUSH2 0x214C JUMPI PUSH0 PUSH0 REVERT JUMPDEST PUSH1 0x20 DUP6 ADD SWAP5 POP JUMPDEST DUP4 DUP6 LT ISZERO PUSH2 0x2172 JUMPI DUP5 CALLDATALOAD DUP1 DUP4 MSTORE PUSH1 0x20 SWAP6 DUP7 ADD SWAP6 SWAP1 SWAP4 POP SWAP1 SWAP2 ADD SWAP1 PUSH2 0x2153 JUMP JUMPDEST DUP1 SWAP6 POP POP POP POP POP POP SWAP3 POP SWAP3 SWAP1 POP JUMP JUMPDEST PUSH0 PUSH0 PUSH1 0x40 DUP4 DUP6 SUB SLT ISZERO PUSH2 0x2192 JUMPI PUSH0 PUSH0 REVERT JUMPDEST POP POP DUP1 CALLDATALOAD SWAP3 PUSH1 0x20 SWAP1 SWAP2 ADD CALLDATALOAD SWAP2 POP JUMP JUMPDEST PUSH0 PUSH0 PUSH0 PUSH0 PUSH0 PUSH0 PUSH0 PUSH0 PUSH2 0x100 DUP10 DUP12 SUB SLT ISZERO PUSH2 0x21B9 JUMPI PUSH0 PUSH0 REVERT JUMPDEST PUSH2 0x21C2 DUP10 PUSH2 0x1FFF JUMP JUMPDEST SWAP11 PUSH1 0x20 DUP11 ADD CALLDATALOAD SWAP11 POP PUSH1 0x40 DUP11 ADD CALLDATALOAD SWAP10 PUSH1 0x60 DUP2 ADD CALLDATALOAD SWAP10 POP PUSH1 0x80 DUP2 ADD CALLDATALOAD SWAP9 POP PUSH1 0xA0 DUP2 ADD CALLDATALOAD SWAP8 POP PUSH1 0xC0 DUP2 ADD CALLDATALOAD SWAP7 POP PUSH1 0xE0 ADD CALLDATALOAD SWAP5 POP SWAP3 POP POP POP JUMP JUMPDEST PUSH0 PUSH0 PUSH1 0x40 DUP4 DUP6 SUB SLT ISZERO PUSH2 0x2209 JUMPI PUSH0 PUSH0 REVERT JUMPDEST PUSH2 0x2212 DUP4 PUSH2 0x1FFF JUMP JUMPDEST SWAP2 POP PUSH1 0x20 DUP4 ADD CALLDATALOAD PUSH8 0xFFFFFFFFFFFFFFFF DUP2 GT ISZERO PUSH2 0x222D JUMPI PUSH0 PUSH0 REVERT JUMPDEST DUP4 ADD PUSH1 0x1F DUP2 ADD DUP6 SGT PUSH2 0x223D JUMPI PUSH0 PUSH0 REVERT JUMPDEST DUP1 CALLDATALOAD PUSH8 0xFFFFFFFFFFFFFFFF DUP2 GT ISZERO PUSH2 0x2257 JUMPI PUSH2 0x2257 PUSH2 0x2084 JUMP JUMPDEST PUSH2 0x226A PUSH1 0x1F DUP3 ADD PUSH1 0x1F NOT AND PUSH1 0x20 ADD PUSH2 0x2098 JUMP JUMPDEST DUP2 DUP2 MSTORE DUP7 PUSH1 0x20 DUP4 DUP6 ADD ADD GT ISZERO PUSH2 0x227E JUMPI PUSH0 PUSH0 REVERT JUMPDEST DUP2 PUSH1 0x20 DUP5 ADD PUSH1 0x20 DUP4 ADD CALLDATACOPY PUSH0 PUSH1 0x20 DUP4 DUP4 ADD ADD MSTORE DUP1 SWAP4 POP POP POP POP SWAP3 POP SWAP3 SWAP1 POP JUMP JUMPDEST PUSH0 DUP2 MLOAD DUP1 DUP5 MSTORE DUP1 PUSH1 0x20 DUP5 ADD PUSH1 0x20 DUP7 ADD MCOPY PUSH0 PUSH1 0x20 DUP3 DUP7 ADD ADD MSTORE PUSH1 0x20 PUSH1 0x1F NOT PUSH1 0x1F DUP4 ADD AND DUP6 ADD ADD SWAP2 POP POP SWAP3 SWAP2 POP POP JUMP JUMPDEST PUSH1 0x20 DUP2 MSTORE PUSH0 PUSH2 0x1FA1 PUSH1 0x20 DUP4 ADD DUP5 PUSH2 0x229D JUMP JUMPDEST PUSH1 0x20 DUP1 DUP3 MSTORE DUP3 MLOAD DUP3 DUP3 ADD DUP2 SWAP1 MSTORE PUSH0 SWAP2 DUP5 ADD SWAP1 PUSH1 0x40 DUP5 ADD SWAP1 DUP4 JUMPDEST DUP2 DUP2 LT ISZERO PUSH2 0x231D JUMPI DUP4 MLOAD PUSH1 0x1 PUSH1 0x1 PUSH1 0xA0 SHL SUB AND DUP4 MSTORE PUSH1 0x20 SWAP4 DUP5 ADD SWAP4 SWAP1 SWAP3 ADD SWAP2 PUSH1 0x1 ADD PUSH2 0x22F6 JUMP JUMPDEST POP SWAP1 SWAP6 SWAP5 POP POP POP POP POP JUMP JUMPDEST PUSH0 PUSH1 0x20 DUP3 DUP5 SUB SLT ISZERO PUSH2 0x2338 JUMPI PUSH0 PUSH0 REVERT JUMPDEST PUSH2 0x1FA1 DUP3 PUSH2 0x1FFF JUMP JUMPDEST PUSH4 0x4E487B71 PUSH1 0xE0 SHL PUSH0 MSTORE PUSH1 0x11 PUSH1 0x4 MSTORE PUSH1 0x24 PUSH0 REVERT JUMPDEST DUP2 DUP2 SUB DUP2 DUP2 GT ISZERO PUSH2 0x17F8 JUMPI PUSH2 0x17F8 PUSH2 0x2341 JUMP JUMPDEST PUSH0 PUSH1 0x20 DUP3 DUP5 SUB SLT ISZERO PUSH2 0x2378 JUMPI PUSH0 PUSH0 REVERT JUMPDEST DUP2 MLOAD DUP1 ISZERO ISZERO DUP2 EQ PUSH2 0x1FA1 JUMPI PUSH0 PUSH0 REVERT JUMPDEST PUSH0 PUSH1 0x1 DUP3 ADD PUSH2 0x2398 JUMPI PUSH2 0x2398 PUSH2 0x2341 JUMP JUMPDEST POP PUSH1 0x1 ADD SWAP1 JUMP JUMPDEST DUP1 DUP3 MUL DUP2 ISZERO DUP3 DUP3 DIV DUP5 EQ OR PUSH2 0x17F8 JUMPI PUSH2 0x17F8 PUSH2 0x2341 JUMP JUMPDEST PUSH1 0x20 DUP2 MSTORE DUP2 MLOAD PUSH1 0x20 DUP3 ADD MSTORE PUSH1 0x20 DUP3 ADD MLOAD PUSH1 0x40 DUP3 ADD MSTORE PUSH2 0xFFFF PUSH1 0x40 DUP4 ADD MLOAD AND PUSH1 0x60 DUP3 ADD MSTORE PUSH4 0xFFFFFFFF PUSH1 0x60 DUP4 ADD MLOAD AND PUSH1 0x80 DUP3 ADD MSTORE PUSH4 0xFFFFFFFF PUSH1 0x80 DUP4 ADD MLOAD AND PUSH1 0xA0 DUP3 ADD MSTORE PUSH0 PUSH1 0xA0 DUP4 ADD MLOAD PUSH1 0xC0 DUP1 DUP5 ADD MSTORE PUSH2 0x2412 PUSH1 0xE0 DUP5 ADD DUP3 PUSH2 0x229D JUMP JUMPDEST SWAP5 SWAP4 POP POP POP POP JUMP JUMPDEST PUSH0 PUSH1 0x20 DUP3 DUP5 SUB SLT ISZERO PUSH2 0x242A JUMPI PUSH0 PUSH0 REVERT JUMPDEST POP MLOAD SWAP2 SWAP1 POP JUMP JUMPDEST PUSH4 0x4E487B71 PUSH1 0xE0 SHL PUSH0 MSTORE PUSH1 0x32 PUSH1 0x4 MSTORE PUSH1 0x24 PUSH0 REVERT JUMPDEST PUSH0 DUP3 PUSH2 0x245F JUMPI PUSH4 0x4E487B71 PUSH1 0xE0 SHL PUSH0 MSTORE PUSH1 0x12 PUSH1 0x4 MSTORE PUSH1 0x24 PUSH0 REVERT JUMPDEST POP MOD SWAP1 JUMP JUMPDEST PUSH0 DUP3 MLOAD DUP1 PUSH1 0x20 DUP6 ADD DUP5 MCOPY PUSH0 SWAP3 ADD SWAP2 DUP3 MSTORE POP SWAP2 SWAP1 POP JUMP INVALID CALLDATASIZE ADDMOD SWAP5 LOG1 EXTCODESIZE LOG1 LOG3 0x21 MOD PUSH8 0xC828492DB98DCA3E KECCAK256 PUSH23 0xCC3735A920A3CA505D382BBCA2646970667358221220B5 CALLVALUE CALLF 0x2975 MSTORE8 0xC8 PUSH32 0x94E59D71F6793AFC0706CD3191F5299841918FBF4289F51C64736F6C63430008 0x1E STOP CALLER "
				},
				"gasEstimates": {
					"creation": {
						"codeDepositCost": "1884800",
						"executionCost": "infinite",
						"totalCost": "infinite"
					},
					"external": {
						"UPGRADE_INTERFACE_VERSION()": "infinite",
						"callbackGasLimit()": "2424",
						"cancelLottery(uint256)": "32132",
						"claimPrize(uint256)": "infinite",
						"claimRefund(uint256)": "infinite",
						"clearLotteryData(uint256)": "infinite",
						"createLottery(address,uint256,uint256,uint256,uint256,uint256,uint256,uint256)": "233613",
						"drawWinner(uint256)": "infinite",
						"enterLottery(uint256)": "infinite",
						"getParticipants(uint256)": "infinite",
						"initialize(address,bytes32,uint256,address,address)": "infinite",
						"investmentWallet()": "2380",
						"keyHash()": "2373",
						"lotteries(uint256)": "24055",
						"lotteryCounter()": "2350",
						"migrateToLottery(uint256,uint256)": "infinite",
						"numWords()": "2390",
						"owner()": "2375",
						"profitWallet()": "2426",
						"proxiableUUID()": "infinite",
						"rawFulfillRandomWords(uint256,uint256[])": "infinite",
						"renounceOwnership()": "infinite",
						"requestConfirmations()": "2434",
						"requestToLottery(uint256)": "2470",
						"subscriptionId()": "2330",
						"transferOwnership(address)": "28475",
						"upgradeToAndCall(address,bytes)": "infinite",
						"voteCancel(uint256)": "infinite",
						"vrfCoordinator()": "2403"
					},
					"internal": {
						"_authorizeUpgrade(address)": "infinite",
						"fulfillRandomWords(uint256,uint256[] memory)": "infinite"
					}
				},
				"methodIdentifiers": {
					"UPGRADE_INTERFACE_VERSION()": "ad3cb1cc",
					"callbackGasLimit()": "24f74697",
					"cancelLottery(uint256)": "4538f297",
					"claimPrize(uint256)": "d7098154",
					"claimRefund(uint256)": "5b7baf64",
					"clearLotteryData(uint256)": "82f9d0fb",
					"createLottery(address,uint256,uint256,uint256,uint256,uint256,uint256,uint256)": "4311da37",
					"drawWinner(uint256)": "60b2a56a",
					"enterLottery(uint256)": "3fd43098",
					"getParticipants(uint256)": "c1e3bd3e",
					"initialize(address,bytes32,uint256,address,address)": "0af5a263",
					"investmentWallet()": "b6fa37bc",
					"keyHash()": "61728f39",
					"lotteries(uint256)": "1398e076",
					"lotteryCounter()": "4a4a6b4f",
					"migrateToLottery(uint256,uint256)": "3893f9d5",
					"numWords()": "7ccfd7fc",
					"owner()": "8da5cb5b",
					"profitWallet()": "2301d775",
					"proxiableUUID()": "52d1902d",
					"rawFulfillRandomWords(uint256,uint256[])": "1fe543e3",
					"renounceOwnership()": "715018a6",
					"requestConfirmations()": "b0fb162f",
					"requestToLottery(uint256)": "15c6e123",
					"subscriptionId()": "09c1ba2e",
					"transferOwnership(address)": "f2fde38b",
					"upgradeToAndCall(address,bytes)": "4f1ef286",
					"voteCancel(uint256)": "826d9873",
					"vrfCoordinator()": "a3e56fa8"
				}
			},
			"storageLayout": {
				"storage": [
					{
						"astId": 1185,
						"contract": "contracts/StemPayLotteryManager.sol:StemPayLotteryManager",
						"label": "_status",
						"offset": 0,
						"slot": "0",
						"type": "t_uint256"
					},
					{
						"astId": 1741,
						"contract": "contracts/StemPayLotteryManager.sol:StemPayLotteryManager",
						"label": "vrfCoordinator",
						"offset": 0,
						"slot": "1",
						"type": "t_address"
					},
					{
						"astId": 1849,
						"contract": "contracts/StemPayLotteryManager.sol:StemPayLotteryManager",
						"label": "lotteries",
						"offset": 0,
						"slot": "2",
						"type": "t_mapping(t_uint256,t_struct(Lottery)1844_storage)"
					},
					{
						"astId": 1851,
						"contract": "contracts/StemPayLotteryManager.sol:StemPayLotteryManager",
						"label": "lotteryCounter",
						"offset": 0,
						"slot": "3",
						"type": "t_uint256"
					},
					{
						"astId": 1853,
						"contract": "contracts/StemPayLotteryManager.sol:StemPayLotteryManager",
						"label": "investmentWallet",
						"offset": 0,
						"slot": "4",
						"type": "t_address"
					},
					{
						"astId": 1855,
						"contract": "contracts/StemPayLotteryManager.sol:StemPayLotteryManager",
						"label": "profitWallet",
						"offset": 0,
						"slot": "5",
						"type": "t_address"
					},
					{
						"astId": 1857,
						"contract": "contracts/StemPayLotteryManager.sol:StemPayLotteryManager",
						"label": "keyHash",
						"offset": 0,
						"slot": "6",
						"type": "t_bytes32"
					},
					{
						"astId": 1859,
						"contract": "contracts/StemPayLotteryManager.sol:StemPayLotteryManager",
						"label": "callbackGasLimit",
						"offset": 0,
						"slot": "7",
						"type": "t_uint32"
					},
					{
						"astId": 1861,
						"contract": "contracts/StemPayLotteryManager.sol:StemPayLotteryManager",
						"label": "requestConfirmations",
						"offset": 4,
						"slot": "7",
						"type": "t_uint16"
					},
					{
						"astId": 1863,
						"contract": "contracts/StemPayLotteryManager.sol:StemPayLotteryManager",
						"label": "numWords",
						"offset": 6,
						"slot": "7",
						"type": "t_uint32"
					},
					{
						"astId": 1865,
						"contract": "contracts/StemPayLotteryManager.sol:StemPayLotteryManager",
						"label": "subscriptionId",
						"offset": 0,
						"slot": "8",
						"type": "t_uint256"
					},
					{
						"astId": 1867,
						"contract": "contracts/StemPayLotteryManager.sol:StemPayLotteryManager",
						"label": "vrfCoordinator",
						"offset": 0,
						"slot": "9",
						"type": "t_address"
					},
					{
						"astId": 1871,
						"contract": "contracts/StemPayLotteryManager.sol:StemPayLotteryManager",
						"label": "requestToLottery",
						"offset": 0,
						"slot": "10",
						"type": "t_mapping(t_uint256,t_uint256)"
					}
				],
				"types": {
					"t_address": {
						"encoding": "inplace",
						"label": "address",
						"numberOfBytes": "20"
					},
					"t_array(t_address)dyn_storage": {
						"base": "t_address",
						"encoding": "dynamic_array",
						"label": "address[]",
						"numberOfBytes": "32"
					},
					"t_bool": {
						"encoding": "inplace",
						"label": "bool",
						"numberOfBytes": "1"
					},
					"t_bytes32": {
						"encoding": "inplace",
						"label": "bytes32",
						"numberOfBytes": "32"
					},
					"t_mapping(t_address,t_bool)": {
						"encoding": "mapping",
						"key": "t_address",
						"label": "mapping(address => bool)",
						"numberOfBytes": "32",
						"value": "t_bool"
					},
					"t_mapping(t_address,t_uint256)": {
						"encoding": "mapping",
						"key": "t_address",
						"label": "mapping(address => uint256)",
						"numberOfBytes": "32",
						"value": "t_uint256"
					},
					"t_mapping(t_uint256,t_struct(Lottery)1844_storage)": {
						"encoding": "mapping",
						"key": "t_uint256",
						"label": "mapping(uint256 => struct StemPayLotteryManager.Lottery)",
						"numberOfBytes": "32",
						"value": "t_struct(Lottery)1844_storage"
					},
					"t_mapping(t_uint256,t_uint256)": {
						"encoding": "mapping",
						"key": "t_uint256",
						"label": "mapping(uint256 => uint256)",
						"numberOfBytes": "32",
						"value": "t_uint256"
					},
					"t_struct(Lottery)1844_storage": {
						"encoding": "inplace",
						"label": "struct StemPayLotteryManager.Lottery",
						"members": [
							{
								"astId": 1800,
								"contract": "contracts/StemPayLotteryManager.sol:StemPayLotteryManager",
								"label": "tokenAddress",
								"offset": 0,
								"slot": "0",
								"type": "t_address"
							},
							{
								"astId": 1802,
								"contract": "contracts/StemPayLotteryManager.sol:StemPayLotteryManager",
								"label": "participationFee",
								"offset": 0,
								"slot": "1",
								"type": "t_uint256"
							},
							{
								"astId": 1804,
								"contract": "contracts/StemPayLotteryManager.sol:StemPayLotteryManager",
								"label": "refundableAmount",
								"offset": 0,
								"slot": "2",
								"type": "t_uint256"
							},
							{
								"astId": 1806,
								"contract": "contracts/StemPayLotteryManager.sol:StemPayLotteryManager",
								"label": "maxParticipants",
								"offset": 0,
								"slot": "3",
								"type": "t_uint256"
							},
							{
								"astId": 1808,
								"contract": "contracts/StemPayLotteryManager.sol:StemPayLotteryManager",
								"label": "drawTime",
								"offset": 0,
								"slot": "4",
								"type": "t_uint256"
							},
							{
								"astId": 1810,
								"contract": "contracts/StemPayLotteryManager.sol:StemPayLotteryManager",
								"label": "prizeAmount",
								"offset": 0,
								"slot": "5",
								"type": "t_uint256"
							},
							{
								"astId": 1812,
								"contract": "contracts/StemPayLotteryManager.sol:StemPayLotteryManager",
								"label": "feeToInvestment",
								"offset": 0,
								"slot": "6",
								"type": "t_uint256"
							},
							{
								"astId": 1814,
								"contract": "contracts/StemPayLotteryManager.sol:StemPayLotteryManager",
								"label": "feeToProfit",
								"offset": 0,
								"slot": "7",
								"type": "t_uint256"
							},
							{
								"astId": 1816,
								"contract": "contracts/StemPayLotteryManager.sol:StemPayLotteryManager",
								"label": "isActive",
								"offset": 0,
								"slot": "8",
								"type": "t_bool"
							},
							{
								"astId": 1818,
								"contract": "contracts/StemPayLotteryManager.sol:StemPayLotteryManager",
								"label": "isDrawn",
								"offset": 1,
								"slot": "8",
								"type": "t_bool"
							},
							{
								"astId": 1820,
								"contract": "contracts/StemPayLotteryManager.sol:StemPayLotteryManager",
								"label": "isCancelled",
								"offset": 2,
								"slot": "8",
								"type": "t_bool"
							},
							{
								"astId": 1823,
								"contract": "contracts/StemPayLotteryManager.sol:StemPayLotteryManager",
								"label": "participants",
								"offset": 0,
								"slot": "9",
								"type": "t_array(t_address)dyn_storage"
							},
							{
								"astId": 1825,
								"contract": "contracts/StemPayLotteryManager.sol:StemPayLotteryManager",
								"label": "winner",
								"offset": 0,
								"slot": "10",
								"type": "t_address"
							},
							{
								"astId": 1827,
								"contract": "contracts/StemPayLotteryManager.sol:StemPayLotteryManager",
								"label": "voteCount",
								"offset": 0,
								"slot": "11",
								"type": "t_uint256"
							},
							{
								"astId": 1831,
								"contract": "contracts/StemPayLotteryManager.sol:StemPayLotteryManager",
								"label": "entryCount",
								"offset": 0,
								"slot": "12",
								"type": "t_mapping(t_address,t_uint256)"
							},
							{
								"astId": 1835,
								"contract": "contracts/StemPayLotteryManager.sol:StemPayLotteryManager",
								"label": "hasClaimed",
								"offset": 0,
								"slot": "13",
								"type": "t_mapping(t_address,t_bool)"
							},
							{
								"astId": 1839,
								"contract": "contracts/StemPayLotteryManager.sol:StemPayLotteryManager",
								"label": "hasRefunded",
								"offset": 0,
								"slot": "14",
								"type": "t_mapping(t_address,t_bool)"
							},
							{
								"astId": 1843,
								"contract": "contracts/StemPayLotteryManager.sol:StemPayLotteryManager",
								"label": "hasVotedCancel",
								"offset": 0,
								"slot": "15",
								"type": "t_mapping(t_address,t_bool)"
							}
						],
						"numberOfBytes": "512"
					},
					"t_uint16": {
						"encoding": "inplace",
						"label": "uint16",
						"numberOfBytes": "2"
					},
					"t_uint256": {
						"encoding": "inplace",
						"label": "uint256",
						"numberOfBytes": "32"
					},
					"t_uint32": {
						"encoding": "inplace",
						"label": "uint32",
						"numberOfBytes": "4"
					}
				}
			},
			"userdoc": {
				"kind": "user",
				"methods": {},
				"version": 1
			}
		}
	}
}