{
	"contracts/StemPayLotteryManager.sol": {
		"StemPayLotteryManager": {
			"abi": [
				{
					"inputs": [
						{
							"internalType": "address",
							"name": "target",
							"type": "address"
						}
					],
					"name": "AddressEmptyCode",
					"type": "error"
				},
				{
					"inputs": [
						{
							"internalType": "address",
							"name": "implementation",
							"type": "address"
						}
					],
					"name": "ERC1967InvalidImplementation",
					"type": "error"
				},
				{
					"inputs": [],
					"name": "ERC1967NonPayable",
					"type": "error"
				},
				{
					"inputs": [],
					"name": "FailedCall",
					"type": "error"
				},
				{
					"inputs": [],
					"name": "InvalidInitialization",
					"type": "error"
				},
				{
					"inputs": [],
					"name": "NotInitializing",
					"type": "error"
				},
				{
					"inputs": [
						{
							"internalType": "address",
							"name": "have",
							"type": "address"
						},
						{
							"internalType": "address",
							"name": "want",
							"type": "address"
						}
					],
					"name": "OnlyCoordinatorCanFulfill",
					"type": "error"
				},
				{
					"inputs": [
						{
							"internalType": "address",
							"name": "owner",
							"type": "address"
						}
					],
					"name": "OwnableInvalidOwner",
					"type": "error"
				},
				{
					"inputs": [
						{
							"internalType": "address",
							"name": "account",
							"type": "address"
						}
					],
					"name": "OwnableUnauthorizedAccount",
					"type": "error"
				},
				{
					"inputs": [],
					"name": "UUPSUnauthorizedCallContext",
					"type": "error"
				},
				{
					"inputs": [
						{
							"internalType": "bytes32",
							"name": "slot",
							"type": "bytes32"
						}
					],
					"name": "UUPSUnsupportedProxiableUUID",
					"type": "error"
				},
				{
					"anonymous": false,
					"inputs": [
						{
							"indexed": false,
							"internalType": "uint256",
							"name": "lotteryId",
							"type": "uint256"
						},
						{
							"indexed": false,
							"internalType": "address",
							"name": "user",
							"type": "address"
						}
					],
					"name": "EnteredLottery",
					"type": "event"
				},
				{
					"anonymous": false,
					"inputs": [
						{
							"indexed": false,
							"internalType": "uint64",
							"name": "version",
							"type": "uint64"
						}
					],
					"name": "Initialized",
					"type": "event"
				},
				{
					"anonymous": false,
					"inputs": [
						{
							"indexed": false,
							"internalType": "uint256",
							"name": "lotteryId",
							"type": "uint256"
						}
					],
					"name": "LotteryCancelled",
					"type": "event"
				},
				{
					"anonymous": false,
					"inputs": [
						{
							"indexed": false,
							"internalType": "uint256",
							"name": "lotteryId",
							"type": "uint256"
						}
					],
					"name": "LotteryCreated",
					"type": "event"
				},
				{
					"anonymous": false,
					"inputs": [
						{
							"indexed": false,
							"internalType": "uint256",
							"name": "lotteryId",
							"type": "uint256"
						},
						{
							"indexed": false,
							"internalType": "uint256",
							"name": "requestId",
							"type": "uint256"
						}
					],
					"name": "LotteryDrawRequested",
					"type": "event"
				},
				{
					"anonymous": false,
					"inputs": [
						{
							"indexed": true,
							"internalType": "address",
							"name": "previousOwner",
							"type": "address"
						},
						{
							"indexed": true,
							"internalType": "address",
							"name": "newOwner",
							"type": "address"
						}
					],
					"name": "OwnershipTransferred",
					"type": "event"
				},
				{
					"anonymous": false,
					"inputs": [
						{
							"indexed": true,
							"internalType": "address",
							"name": "implementation",
							"type": "address"
						}
					],
					"name": "Upgraded",
					"type": "event"
				},
				{
					"anonymous": false,
					"inputs": [
						{
							"indexed": false,
							"internalType": "uint256",
							"name": "lotteryId",
							"type": "uint256"
						},
						{
							"indexed": false,
							"internalType": "address",
							"name": "winner",
							"type": "address"
						}
					],
					"name": "WinnerSelected",
					"type": "event"
				},
				{
					"inputs": [],
					"name": "UPGRADE_INTERFACE_VERSION",
					"outputs": [
						{
							"internalType": "string",
							"name": "",
							"type": "string"
						}
					],
					"stateMutability": "view",
					"type": "function"
				},
				{
					"inputs": [
						{
							"internalType": "uint256",
							"name": "",
							"type": "uint256"
						}
					],
					"name": "allLotteryIds",
					"outputs": [
						{
							"internalType": "uint256",
							"name": "",
							"type": "uint256"
						}
					],
					"stateMutability": "view",
					"type": "function"
				},
				{
					"inputs": [],
					"name": "callbackGasLimit",
					"outputs": [
						{
							"internalType": "uint32",
							"name": "",
							"type": "uint32"
						}
					],
					"stateMutability": "view",
					"type": "function"
				},
				{
					"inputs": [
						{
							"internalType": "uint256",
							"name": "_lotteryId",
							"type": "uint256"
						}
					],
					"name": "cancelLottery",
					"outputs": [],
					"stateMutability": "nonpayable",
					"type": "function"
				},
				{
					"inputs": [
						{
							"internalType": "uint256",
							"name": "_lotteryId",
							"type": "uint256"
						}
					],
					"name": "claimPrize",
					"outputs": [],
					"stateMutability": "nonpayable",
					"type": "function"
				},
				{
					"inputs": [
						{
							"internalType": "uint256",
							"name": "_lotteryId",
							"type": "uint256"
						}
					],
					"name": "claimRefund",
					"outputs": [],
					"stateMutability": "nonpayable",
					"type": "function"
				},
				{
					"inputs": [
						{
							"internalType": "uint256",
							"name": "_lotteryId",
							"type": "uint256"
						}
					],
					"name": "clearLotteryData",
					"outputs": [],
					"stateMutability": "nonpayable",
					"type": "function"
				},
				{
					"inputs": [
						{
							"internalType": "address",
							"name": "_tokenAddress",
							"type": "address"
						},
						{
							"internalType": "uint256",
							"name": "_participationFee",
							"type": "uint256"
						},
						{
							"internalType": "uint256",
							"name": "_refundableAmount",
							"type": "uint256"
						},
						{
							"internalType": "uint256",
							"name": "_maxParticipants",
							"type": "uint256"
						},
						{
							"internalType": "uint256",
							"name": "_drawTime",
							"type": "uint256"
						},
						{
							"internalType": "uint256",
							"name": "_prizeAmount",
							"type": "uint256"
						},
						{
							"internalType": "uint256",
							"name": "_feeToInvestment",
							"type": "uint256"
						},
						{
							"internalType": "uint256",
							"name": "_feeToProfit",
							"type": "uint256"
						}
					],
					"name": "createLottery",
					"outputs": [],
					"stateMutability": "nonpayable",
					"type": "function"
				},
				{
					"inputs": [
						{
							"internalType": "uint256",
							"name": "_lotteryId",
							"type": "uint256"
						}
					],
					"name": "drawWinner",
					"outputs": [],
					"stateMutability": "nonpayable",
					"type": "function"
				},
				{
					"inputs": [
						{
							"internalType": "uint256",
							"name": "_lotteryId",
							"type": "uint256"
						}
					],
					"name": "enterLottery",
					"outputs": [],
					"stateMutability": "nonpayable",
					"type": "function"
				},
				{
					"inputs": [],
					"name": "getActiveLotteries",
					"outputs": [
						{
							"internalType": "uint256[]",
							"name": "",
							"type": "uint256[]"
						}
					],
					"stateMutability": "view",
					"type": "function"
				},
				{
					"inputs": [
						{
							"internalType": "uint256",
							"name": "lotteryId",
							"type": "uint256"
						},
						{
							"internalType": "address",
							"name": "user",
							"type": "address"
						}
					],
					"name": "getEntryCount",
					"outputs": [
						{
							"internalType": "uint256",
							"name": "",
							"type": "uint256"
						}
					],
					"stateMutability": "view",
					"type": "function"
				},
				{
					"inputs": [
						{
							"internalType": "uint256",
							"name": "_lotteryId",
							"type": "uint256"
						}
					],
					"name": "getParticipants",
					"outputs": [
						{
							"internalType": "address[]",
							"name": "",
							"type": "address[]"
						}
					],
					"stateMutability": "view",
					"type": "function"
				},
				{
					"inputs": [
						{
							"internalType": "uint256",
							"name": "lotteryId",
							"type": "uint256"
						},
						{
							"internalType": "address",
							"name": "user",
							"type": "address"
						}
					],
					"name": "hasUserClaimed",
					"outputs": [
						{
							"internalType": "bool",
							"name": "",
							"type": "bool"
						}
					],
					"stateMutability": "view",
					"type": "function"
				},
				{
					"inputs": [
						{
							"internalType": "uint256",
							"name": "lotteryId",
							"type": "uint256"
						},
						{
							"internalType": "address",
							"name": "user",
							"type": "address"
						}
					],
					"name": "hasUserRefunded",
					"outputs": [
						{
							"internalType": "bool",
							"name": "",
							"type": "bool"
						}
					],
					"stateMutability": "view",
					"type": "function"
				},
				{
					"inputs": [
						{
							"internalType": "uint256",
							"name": "lotteryId",
							"type": "uint256"
						},
						{
							"internalType": "address",
							"name": "user",
							"type": "address"
						}
					],
					"name": "hasUserVotedCancel",
					"outputs": [
						{
							"internalType": "bool",
							"name": "",
							"type": "bool"
						}
					],
					"stateMutability": "view",
					"type": "function"
				},
				{
					"inputs": [
						{
							"internalType": "address",
							"name": "_vrfCoordinator",
							"type": "address"
						},
						{
							"internalType": "bytes32",
							"name": "_keyHash",
							"type": "bytes32"
						},
						{
							"internalType": "uint256",
							"name": "_subId",
							"type": "uint256"
						},
						{
							"internalType": "address",
							"name": "_investmentWallet",
							"type": "address"
						},
						{
							"internalType": "address",
							"name": "_profitWallet",
							"type": "address"
						}
					],
					"name": "initialize",
					"outputs": [],
					"stateMutability": "nonpayable",
					"type": "function"
				},
				{
					"inputs": [],
					"name": "investmentWallet",
					"outputs": [
						{
							"internalType": "address",
							"name": "",
							"type": "address"
						}
					],
					"stateMutability": "view",
					"type": "function"
				},
				{
					"inputs": [],
					"name": "keyHash",
					"outputs": [
						{
							"internalType": "bytes32",
							"name": "",
							"type": "bytes32"
						}
					],
					"stateMutability": "view",
					"type": "function"
				},
				{
					"inputs": [
						{
							"internalType": "uint256",
							"name": "",
							"type": "uint256"
						}
					],
					"name": "lotteries",
					"outputs": [
						{
							"internalType": "address",
							"name": "tokenAddress",
							"type": "address"
						},
						{
							"internalType": "uint256",
							"name": "participationFee",
							"type": "uint256"
						},
						{
							"internalType": "uint256",
							"name": "refundableAmount",
							"type": "uint256"
						},
						{
							"internalType": "uint256",
							"name": "maxParticipants",
							"type": "uint256"
						},
						{
							"internalType": "uint256",
							"name": "drawTime",
							"type": "uint256"
						},
						{
							"internalType": "uint256",
							"name": "prizeAmount",
							"type": "uint256"
						},
						{
							"internalType": "uint256",
							"name": "feeToInvestment",
							"type": "uint256"
						},
						{
							"internalType": "uint256",
							"name": "feeToProfit",
							"type": "uint256"
						},
						{
							"internalType": "bool",
							"name": "isActive",
							"type": "bool"
						},
						{
							"internalType": "bool",
							"name": "isDrawn",
							"type": "bool"
						},
						{
							"internalType": "bool",
							"name": "isCancelled",
							"type": "bool"
						},
						{
							"internalType": "address",
							"name": "winner",
							"type": "address"
						},
						{
							"internalType": "uint256",
							"name": "voteCount",
							"type": "uint256"
						}
					],
					"stateMutability": "view",
					"type": "function"
				},
				{
					"inputs": [],
					"name": "lotteryCounter",
					"outputs": [
						{
							"internalType": "uint256",
							"name": "",
							"type": "uint256"
						}
					],
					"stateMutability": "view",
					"type": "function"
				},
				{
					"inputs": [
						{
							"internalType": "uint256",
							"name": "fromId",
							"type": "uint256"
						},
						{
							"internalType": "uint256",
							"name": "toId",
							"type": "uint256"
						}
					],
					"name": "migrateToLottery",
					"outputs": [],
					"stateMutability": "nonpayable",
					"type": "function"
				},
				{
					"inputs": [],
					"name": "numWords",
					"outputs": [
						{
							"internalType": "uint32",
							"name": "",
							"type": "uint32"
						}
					],
					"stateMutability": "view",
					"type": "function"
				},
				{
					"inputs": [],
					"name": "owner",
					"outputs": [
						{
							"internalType": "address",
							"name": "",
							"type": "address"
						}
					],
					"stateMutability": "view",
					"type": "function"
				},
				{
					"inputs": [],
					"name": "profitWallet",
					"outputs": [
						{
							"internalType": "address",
							"name": "",
							"type": "address"
						}
					],
					"stateMutability": "view",
					"type": "function"
				},
				{
					"inputs": [],
					"name": "proxiableUUID",
					"outputs": [
						{
							"internalType": "bytes32",
							"name": "",
							"type": "bytes32"
						}
					],
					"stateMutability": "view",
					"type": "function"
				},
				{
					"inputs": [
						{
							"internalType": "uint256",
							"name": "requestId",
							"type": "uint256"
						},
						{
							"internalType": "uint256[]",
							"name": "randomWords",
							"type": "uint256[]"
						}
					],
					"name": "rawFulfillRandomWords",
					"outputs": [],
					"stateMutability": "nonpayable",
					"type": "function"
				},
				{
					"inputs": [],
					"name": "renounceOwnership",
					"outputs": [],
					"stateMutability": "nonpayable",
					"type": "function"
				},
				{
					"inputs": [],
					"name": "requestConfirmations",
					"outputs": [
						{
							"internalType": "uint16",
							"name": "",
							"type": "uint16"
						}
					],
					"stateMutability": "view",
					"type": "function"
				},
				{
					"inputs": [
						{
							"internalType": "uint256",
							"name": "",
							"type": "uint256"
						}
					],
					"name": "requestToLottery",
					"outputs": [
						{
							"internalType": "uint256",
							"name": "",
							"type": "uint256"
						}
					],
					"stateMutability": "view",
					"type": "function"
				},
				{
					"inputs": [],
					"name": "subscriptionId",
					"outputs": [
						{
							"internalType": "uint256",
							"name": "",
							"type": "uint256"
						}
					],
					"stateMutability": "view",
					"type": "function"
				},
				{
					"inputs": [
						{
							"internalType": "uint256",
							"name": "requestId",
							"type": "uint256"
						},
						{
							"internalType": "uint256[]",
							"name": "randomWords",
							"type": "uint256[]"
						}
					],
					"name": "testFulfillRandomWords",
					"outputs": [],
					"stateMutability": "nonpayable",
					"type": "function"
				},
				{
					"inputs": [
						{
							"internalType": "address",
							"name": "newOwner",
							"type": "address"
						}
					],
					"name": "transferOwnership",
					"outputs": [],
					"stateMutability": "nonpayable",
					"type": "function"
				},
				{
					"inputs": [
						{
							"internalType": "address",
							"name": "newImplementation",
							"type": "address"
						},
						{
							"internalType": "bytes",
							"name": "data",
							"type": "bytes"
						}
					],
					"name": "upgradeToAndCall",
					"outputs": [],
					"stateMutability": "payable",
					"type": "function"
				},
				{
					"inputs": [
						{
							"internalType": "uint256",
							"name": "_lotteryId",
							"type": "uint256"
						}
					],
					"name": "voteCancel",
					"outputs": [],
					"stateMutability": "nonpayable",
					"type": "function"
				},
				{
					"inputs": [],
					"name": "vrfCoordinator",
					"outputs": [
						{
							"internalType": "address",
							"name": "",
							"type": "address"
						}
					],
					"stateMutability": "view",
					"type": "function"
				}
			],
			"devdoc": {
				"errors": {
					"AddressEmptyCode(address)": [
						{
							"details": "There's no code at `target` (it is not a contract)."
						}
					],
					"ERC1967InvalidImplementation(address)": [
						{
							"details": "The `implementation` of the proxy is invalid."
						}
					],
					"ERC1967NonPayable()": [
						{
							"details": "An upgrade function sees `msg.value > 0` that may be lost."
						}
					],
					"FailedCall()": [
						{
							"details": "A call to an address target failed. The target may have reverted."
						}
					],
					"InvalidInitialization()": [
						{
							"details": "The contract is already initialized."
						}
					],
					"NotInitializing()": [
						{
							"details": "The contract is not initializing."
						}
					],
					"OwnableInvalidOwner(address)": [
						{
							"details": "The owner is not a valid owner account. (eg. `address(0)`)"
						}
					],
					"OwnableUnauthorizedAccount(address)": [
						{
							"details": "The caller account is not authorized to perform an operation."
						}
					],
					"UUPSUnauthorizedCallContext()": [
						{
							"details": "The call is from an unauthorized context."
						}
					],
					"UUPSUnsupportedProxiableUUID(bytes32)": [
						{
							"details": "The storage `slot` is unsupported as a UUID."
						}
					]
				},
				"events": {
					"Initialized(uint64)": {
						"details": "Triggered when the contract has been initialized or reinitialized."
					},
					"Upgraded(address)": {
						"details": "Emitted when the implementation is upgraded."
					}
				},
				"kind": "dev",
				"methods": {
					"owner()": {
						"details": "Returns the address of the current owner."
					},
					"proxiableUUID()": {
						"details": "Implementation of the ERC-1822 {proxiableUUID} function. This returns the storage slot used by the implementation. It is used to validate the implementation's compatibility when performing an upgrade. IMPORTANT: A proxy pointing at a proxiable contract should not be considered proxiable itself, because this risks bricking a proxy that upgrades to it, by delegating to itself until out of gas. Thus it is critical that this function revert if invoked through a proxy. This is guaranteed by the `notDelegated` modifier."
					},
					"renounceOwnership()": {
						"details": "Leaves the contract without owner. It will not be possible to call `onlyOwner` functions. Can only be called by the current owner. NOTE: Renouncing ownership will leave the contract without an owner, thereby disabling any functionality that is only available to the owner."
					},
					"transferOwnership(address)": {
						"details": "Transfers ownership of the contract to a new account (`newOwner`). Can only be called by the current owner."
					},
					"upgradeToAndCall(address,bytes)": {
						"custom:oz-upgrades-unsafe-allow-reachable": "delegatecall",
						"details": "Upgrade the implementation of the proxy to `newImplementation`, and subsequently execute the function call encoded in `data`. Calls {_authorizeUpgrade}. Emits an {Upgraded} event."
					}
				},
				"version": 1
			},
			"evm": {
				"assembly": "    /* \"contracts/StemPayLotteryManager.sol\":1202:11078  contract StemPayLotteryManager is... */\n  mstore(0x40, 0xa0)\n    /* \"@openzeppelin/contracts-upgradeable/proxy/utils/UUPSUpgradeable.sol\":1171:1175  this */\n  address\n    /* \"@openzeppelin/contracts-upgradeable/proxy/utils/UUPSUpgradeable.sol\":1128:1176  address private immutable __self = address(this) */\n  0x80\n  mstore\n    /* \"contracts/StemPayLotteryManager.sol\":1202:11078  contract StemPayLotteryManager is... */\n  callvalue\n  dup1\n  iszero\n  tag_1\n  jumpi\n  revert(0x00, 0x00)\ntag_1:\n  pop\n    /* \"@openzeppelin/contracts/security/ReentrancyGuard.sol\":1716:1717  1 */\n  0x01\n    /* \"@openzeppelin/contracts/security/ReentrancyGuard.sol\":1821:1828  _status */\n  0x00\n    /* \"@openzeppelin/contracts/security/ReentrancyGuard.sol\":1821:1843  _status = _NOT_ENTERED */\n  sstore\n    /* \"contracts/StemPayLotteryManager.sol\":1202:11078  contract StemPayLotteryManager is... */\n  mload(0x80)\n  codecopy(0x00, dataOffset(sub_0), dataSize(sub_0))\n  0x00\n  assignImmutable(\"0x7e11962f85eb7ceb5b38e296d507e5039b360e5ad6815220a68768366dc10fdd\")\n  return(0x00, dataSize(sub_0))\nstop\n\nsub_0: assembly {\n        /* \"contracts/StemPayLotteryManager.sol\":1202:11078  contract StemPayLotteryManager is... */\n      mstore(0x40, 0x80)\n      jumpi(tag_1, lt(calldatasize, 0x04))\n      shr(0xe0, calldataload(0x00))\n      dup1\n      0x5b7baf64\n      gt\n      tag_38\n      jumpi\n      dup1\n      0xa49a75a5\n      gt\n      tag_39\n      jumpi\n      dup1\n      0xc1e3bd3e\n      gt\n      tag_40\n      jumpi\n      dup1\n      0xc1e3bd3e\n      eq\n      tag_33\n      jumpi\n      dup1\n      0xc4cd639f\n      eq\n      tag_34\n      jumpi\n      dup1\n      0xd7098154\n      eq\n      tag_35\n      jumpi\n      dup1\n      0xe2344831\n      eq\n      tag_36\n      jumpi\n      dup1\n      0xf2fde38b\n      eq\n      tag_37\n      jumpi\n      revert(0x00, 0x00)\n    tag_40:\n      dup1\n      0xa49a75a5\n      eq\n      tag_29\n      jumpi\n      dup1\n      0xad3cb1cc\n      eq\n      tag_30\n      jumpi\n      dup1\n      0xb0fb162f\n      eq\n      tag_31\n      jumpi\n      dup1\n      0xb6fa37bc\n      eq\n      tag_32\n      jumpi\n      revert(0x00, 0x00)\n    tag_39:\n      dup1\n      0x7ccfd7fc\n      gt\n      tag_41\n      jumpi\n      dup1\n      0x7ccfd7fc\n      eq\n      tag_24\n      jumpi\n      dup1\n      0x826d9873\n      eq\n      tag_25\n      jumpi\n      dup1\n      0x82f9d0fb\n      eq\n      tag_26\n      jumpi\n      dup1\n      0x8da5cb5b\n      eq\n      tag_27\n      jumpi\n      dup1\n      0xa3e56fa8\n      eq\n      tag_28\n      jumpi\n      revert(0x00, 0x00)\n    tag_41:\n      dup1\n      0x5b7baf64\n      eq\n      tag_20\n      jumpi\n      dup1\n      0x60b2a56a\n      eq\n      tag_21\n      jumpi\n      dup1\n      0x61728f39\n      eq\n      tag_22\n      jumpi\n      dup1\n      0x715018a6\n      eq\n      tag_23\n      jumpi\n      revert(0x00, 0x00)\n    tag_38:\n      dup1\n      0x24f74697\n      gt\n      tag_42\n      jumpi\n      dup1\n      0x4311da37\n      gt\n      tag_43\n      jumpi\n      dup1\n      0x4311da37\n      eq\n      tag_15\n      jumpi\n      dup1\n      0x4538f297\n      eq\n      tag_16\n      jumpi\n      dup1\n      0x4a4a6b4f\n      eq\n      tag_17\n      jumpi\n      dup1\n      0x4f1ef286\n      eq\n      tag_18\n      jumpi\n      dup1\n      0x52d1902d\n      eq\n      tag_19\n      jumpi\n      revert(0x00, 0x00)\n    tag_43:\n      dup1\n      0x24f74697\n      eq\n      tag_11\n      jumpi\n      dup1\n      0x3893f9d5\n      eq\n      tag_12\n      jumpi\n      dup1\n      0x3fd43098\n      eq\n      tag_13\n      jumpi\n      dup1\n      0x3fe6e01e\n      eq\n      tag_14\n      jumpi\n      revert(0x00, 0x00)\n    tag_42:\n      dup1\n      0x0af5a263\n      gt\n      tag_44\n      jumpi\n      dup1\n      0x0af5a263\n      eq\n      tag_6\n      jumpi\n      dup1\n      0x1398e076\n      eq\n      tag_7\n      jumpi\n      dup1\n      0x15c6e123\n      eq\n      tag_8\n      jumpi\n      dup1\n      0x1fe543e3\n      eq\n      tag_9\n      jumpi\n      dup1\n      0x2301d775\n      eq\n      tag_10\n      jumpi\n      revert(0x00, 0x00)\n    tag_44:\n      dup1\n      0x02c4d72b\n      eq\n      tag_2\n      jumpi\n      dup1\n      0x055b66cd\n      eq\n      tag_3\n      jumpi\n      dup1\n      0x07c7a72d\n      eq\n      tag_4\n      jumpi\n      dup1\n      0x09c1ba2e\n      eq\n      tag_5\n      jumpi\n    tag_1:\n      revert(0x00, 0x00)\n        /* \"contracts/StemPayLotteryManager.sol\":10915:11076  function testFulfillRandomWords(uint256 requestId, uint256[] calldata randomWords) external onlyOwner {... */\n    tag_2:\n      callvalue\n      dup1\n      iszero\n      tag_45\n      jumpi\n      revert(0x00, 0x00)\n    tag_45:\n      pop\n      tag_46\n      tag_47\n      calldatasize\n      0x04\n      tag_48\n      jump\t// in\n    tag_47:\n      tag_49\n      jump\t// in\n    tag_46:\n      stop\n        /* \"contracts/StemPayLotteryManager.sol\":10050:10834  function getActiveLotteries() external view returns (uint256[] memory) {... */\n    tag_3:\n      callvalue\n      dup1\n      iszero\n      tag_50\n      jumpi\n      revert(0x00, 0x00)\n    tag_50:\n      pop\n      tag_51\n      tag_52\n      jump\t// in\n    tag_51:\n      mload(0x40)\n      tag_53\n      swap2\n      swap1\n      tag_54\n      jump\t// in\n    tag_53:\n      mload(0x40)\n      dup1\n      swap2\n      sub\n      swap1\n      return\n        /* \"contracts/StemPayLotteryManager.sol\":9736:9883  function hasUserClaimed(uint256 lotteryId, address user) external view returns (bool) {... */\n    tag_4:\n      callvalue\n      dup1\n      iszero\n      tag_55\n      jumpi\n      revert(0x00, 0x00)\n    tag_55:\n      pop\n      tag_56\n      tag_57\n      calldatasize\n      0x04\n      tag_58\n      jump\t// in\n    tag_57:\n      tag_59\n      jump\t// in\n    tag_56:\n      mload(0x40)\n        /* \"#utility.yul\":2007:2021   */\n      swap1\n      iszero\n        /* \"#utility.yul\":2000:2022   */\n      iszero\n        /* \"#utility.yul\":1982:2023   */\n      dup2\n      mstore\n        /* \"#utility.yul\":1970:1972   */\n      0x20\n        /* \"#utility.yul\":1955:1973   */\n      add\n        /* \"contracts/StemPayLotteryManager.sol\":9736:9883  function hasUserClaimed(uint256 lotteryId, address user) external view returns (bool) {... */\n      tag_53\n        /* \"#utility.yul\":1842:2029   */\n      jump\n        /* \"contracts/StemPayLotteryManager.sol\":2269:2298  uint256 public subscriptionId */\n    tag_5:\n      callvalue\n      dup1\n      iszero\n      tag_62\n      jumpi\n      revert(0x00, 0x00)\n    tag_62:\n      pop\n      tag_63\n      sload(0x08)\n      dup2\n      jump\n    tag_63:\n      mload(0x40)\n        /* \"#utility.yul\":2180:2205   */\n      swap1\n      dup2\n      mstore\n        /* \"#utility.yul\":2168:2170   */\n      0x20\n        /* \"#utility.yul\":2153:2171   */\n      add\n        /* \"contracts/StemPayLotteryManager.sol\":2269:2298  uint256 public subscriptionId */\n      tag_53\n        /* \"#utility.yul\":2034:2211   */\n      jump\n        /* \"contracts/StemPayLotteryManager.sol\":2718:3336  function initialize(... */\n    tag_6:\n      callvalue\n      dup1\n      iszero\n      tag_67\n      jumpi\n      revert(0x00, 0x00)\n    tag_67:\n      pop\n      tag_46\n      tag_69\n      calldatasize\n      0x04\n      tag_70\n      jump\t// in\n    tag_69:\n      tag_71\n      jump\t// in\n        /* \"contracts/StemPayLotteryManager.sol\":1980:2024  mapping(uint256 => Lottery) public lotteries */\n    tag_7:\n      callvalue\n      dup1\n      iszero\n      tag_72\n      jumpi\n      revert(0x00, 0x00)\n    tag_72:\n      pop\n      tag_73\n      tag_74\n      calldatasize\n      0x04\n      tag_75\n      jump\t// in\n    tag_74:\n      0x02\n      0x20\n      dup2\n      swap1\n      mstore\n      0x00\n      swap2\n      dup3\n      mstore\n      0x40\n      swap1\n      swap2\n      keccak256\n      dup1\n      sload\n      0x01\n      dup3\n      add\n      sload\n      swap3\n      dup3\n      add\n      sload\n      0x03\n      dup4\n      add\n      sload\n      0x04\n      dup5\n      add\n      sload\n      0x05\n      dup6\n      add\n      sload\n      0x06\n      dup7\n      add\n      sload\n      0x07\n      dup8\n      add\n      sload\n      0x08\n      dup9\n      add\n      sload\n      0x0a\n      dup10\n      add\n      sload\n      0x0b\n      swap1\n      swap10\n      add\n      sload\n      sub(shl(0xa0, 0x01), 0x01)\n      swap9\n      dup10\n      and\n      swap11\n      swap10\n      swap8\n      swap9\n      swap7\n      swap8\n      swap6\n      swap7\n      swap5\n      swap6\n      swap4\n      swap5\n      swap3\n      swap4\n      0xff\n      dup1\n      dup5\n      and\n      swap5\n      0x0100\n      dup6\n      div\n      dup3\n      and\n      swap5\n      0x010000\n      swap1\n      div\n      swap1\n      swap2\n      and\n      swap3\n      swap2\n      and\n      swap1\n      dup14\n      jump\n    tag_73:\n      0x40\n      dup1\n      mload\n      sub(shl(0xa0, 0x01), 0x01)\n        /* \"#utility.yul\":3565:3597   */\n      swap15\n      dup16\n      and\n        /* \"#utility.yul\":3547:3598   */\n      dup2\n      mstore\n        /* \"#utility.yul\":3629:3631   */\n      0x20\n        /* \"#utility.yul\":3614:3632   */\n      dup2\n      add\n        /* \"#utility.yul\":3607:3641   */\n      swap14\n      swap1\n      swap14\n      mstore\n        /* \"#utility.yul\":3657:3675   */\n      dup13\n      add\n        /* \"#utility.yul\":3650:3684   */\n      swap11\n      swap1\n      swap11\n      mstore\n        /* \"#utility.yul\":3715:3717   */\n      0x60\n        /* \"#utility.yul\":3700:3718   */\n      dup12\n      add\n        /* \"#utility.yul\":3693:3727   */\n      swap9\n      swap1\n      swap9\n      mstore\n        /* \"#utility.yul\":3758:3761   */\n      0x80\n        /* \"#utility.yul\":3743:3762   */\n      dup11\n      add\n        /* \"#utility.yul\":3736:3771   */\n      swap7\n      swap1\n      swap7\n      mstore\n        /* \"#utility.yul\":3585:3588   */\n      0xa0\n        /* \"#utility.yul\":3787:3806   */\n      dup10\n      add\n        /* \"#utility.yul\":3780:3815   */\n      swap5\n      swap1\n      swap5\n      mstore\n        /* \"#utility.yul\":3846:3849   */\n      0xc0\n        /* \"#utility.yul\":3831:3850   */\n      dup9\n      add\n        /* \"#utility.yul\":3824:3859   */\n      swap3\n      swap1\n      swap3\n      mstore\n        /* \"#utility.yul\":3890:3893   */\n      0xe0\n        /* \"#utility.yul\":3875:3894   */\n      dup8\n      add\n        /* \"#utility.yul\":3868:3903   */\n      mstore\n        /* \"#utility.yul\":3947:3961   */\n      iszero\n        /* \"#utility.yul\":3940:3962   */\n      iszero\n        /* \"#utility.yul\":3934:3937   */\n      0x0100\n        /* \"#utility.yul\":3919:3938   */\n      dup7\n      add\n        /* \"#utility.yul\":3912:3963   */\n      mstore\n        /* \"#utility.yul\":4007:4021   */\n      iszero\n        /* \"#utility.yul\":4000:4022   */\n      iszero\n        /* \"#utility.yul\":3994:3997   */\n      0x0120\n        /* \"#utility.yul\":3979:3998   */\n      dup6\n      add\n        /* \"#utility.yul\":3972:4023   */\n      mstore\n        /* \"#utility.yul\":4067:4082   */\n      iszero\n        /* \"#utility.yul\":4060:4083   */\n      iszero\n        /* \"#utility.yul\":4054:4057   */\n      0x0140\n        /* \"#utility.yul\":4039:4058   */\n      dup5\n      add\n        /* \"#utility.yul\":4032:4084   */\n      mstore\n        /* \"#utility.yul\":3036:3067   */\n      swap1\n      swap3\n      and\n        /* \"#utility.yul\":4136:4139   */\n      0x0160\n        /* \"#utility.yul\":4121:4140   */\n      dup3\n      add\n        /* \"#utility.yul\":3024:3068   */\n      mstore\n        /* \"#utility.yul\":4172:4175   */\n      0x0180\n        /* \"#utility.yul\":4157:4176   */\n      dup2\n      add\n        /* \"#utility.yul\":4150:4186   */\n      swap2\n      swap1\n      swap2\n      mstore\n        /* \"#utility.yul\":3534:3537   */\n      0x01a0\n        /* \"#utility.yul\":3519:3538   */\n      add\n        /* \"contracts/StemPayLotteryManager.sol\":1980:2024  mapping(uint256 => Lottery) public lotteries */\n      tag_53\n        /* \"#utility.yul\":3079:4192   */\n      jump\n        /* \"contracts/StemPayLotteryManager.sol\":2377:2428  mapping(uint256 => uint256) public requestToLottery */\n    tag_8:\n      callvalue\n      dup1\n      iszero\n      tag_79\n      jumpi\n      revert(0x00, 0x00)\n    tag_79:\n      pop\n      tag_63\n      tag_81\n      calldatasize\n      0x04\n      tag_75\n      jump\t// in\n    tag_81:\n      mstore(0x20, 0x0b)\n      0x00\n      swap1\n      dup2\n      mstore\n      0x40\n      swap1\n      keccak256\n      sload\n      dup2\n      jump\n        /* \"contracts/StemPayLotteryManager.sol\":922:1198  function rawFulfillRandomWords(uint256 requestId, uint256[] memory randomWords) external {... */\n    tag_9:\n      callvalue\n      dup1\n      iszero\n      tag_84\n      jumpi\n      revert(0x00, 0x00)\n    tag_84:\n      pop\n      tag_46\n      tag_86\n      calldatasize\n      0x04\n      tag_87\n      jump\t// in\n    tag_86:\n      tag_88\n      jump\t// in\n        /* \"contracts/StemPayLotteryManager.sol\":2103:2130  address public profitWallet */\n    tag_10:\n      callvalue\n      dup1\n      iszero\n      tag_89\n      jumpi\n      revert(0x00, 0x00)\n    tag_89:\n      pop\n      sload(0x05)\n      tag_90\n      swap1\n      sub(shl(0xa0, 0x01), 0x01)\n      and\n      dup2\n      jump\n    tag_90:\n      mload(0x40)\n      sub(shl(0xa0, 0x01), 0x01)\n        /* \"#utility.yul\":5888:5920   */\n      swap1\n      swap2\n      and\n        /* \"#utility.yul\":5870:5921   */\n      dup2\n      mstore\n        /* \"#utility.yul\":5858:5860   */\n      0x20\n        /* \"#utility.yul\":5843:5861   */\n      add\n        /* \"contracts/StemPayLotteryManager.sol\":2103:2130  address public profitWallet */\n      tag_53\n        /* \"#utility.yul\":5724:5927   */\n      jump\n        /* \"contracts/StemPayLotteryManager.sol\":2165:2195  uint32 public callbackGasLimit */\n    tag_11:\n      callvalue\n      dup1\n      iszero\n      tag_94\n      jumpi\n      revert(0x00, 0x00)\n    tag_94:\n      pop\n      sload(0x07)\n      tag_95\n      swap1\n      0xffffffff\n      and\n      dup2\n      jump\n    tag_95:\n      mload(0x40)\n        /* \"#utility.yul\":6106:6116   */\n      0xffffffff\n        /* \"#utility.yul\":6094:6117   */\n      swap1\n      swap2\n      and\n        /* \"#utility.yul\":6076:6118   */\n      dup2\n      mstore\n        /* \"#utility.yul\":6064:6066   */\n      0x20\n        /* \"#utility.yul\":6049:6067   */\n      add\n        /* \"contracts/StemPayLotteryManager.sol\":2165:2195  uint32 public callbackGasLimit */\n      tag_53\n        /* \"#utility.yul\":5932:6124   */\n      jump\n        /* \"contracts/StemPayLotteryManager.sol\":8524:9420  function migrateToLottery(uint256 fromId, uint256 toId) external nonReentrant {... */\n    tag_12:\n      callvalue\n      dup1\n      iszero\n      tag_99\n      jumpi\n      revert(0x00, 0x00)\n    tag_99:\n      pop\n      tag_46\n      tag_101\n      calldatasize\n      0x04\n      tag_102\n      jump\t// in\n    tag_101:\n      tag_103\n      jump\t// in\n        /* \"contracts/StemPayLotteryManager.sol\":4455:5013  function enterLottery(uint256 _lotteryId) external nonReentrant {... */\n    tag_13:\n      callvalue\n      dup1\n      iszero\n      tag_104\n      jumpi\n      revert(0x00, 0x00)\n    tag_104:\n      pop\n      tag_46\n      tag_106\n      calldatasize\n      0x04\n      tag_75\n      jump\t// in\n    tag_106:\n      tag_107\n      jump\t// in\n        /* \"contracts/StemPayLotteryManager.sol\":9889:10044  function hasUserVotedCancel(uint256 lotteryId, address user) external view returns (bool) {... */\n    tag_14:\n      callvalue\n      dup1\n      iszero\n      tag_108\n      jumpi\n      revert(0x00, 0x00)\n    tag_108:\n      pop\n      tag_56\n      tag_110\n      calldatasize\n      0x04\n      tag_58\n      jump\t// in\n    tag_110:\n        /* \"contracts/StemPayLotteryManager.sol\":9973:9977  bool */\n      0x00\n        /* \"contracts/StemPayLotteryManager.sol\":9996:10016  lotteries[lotteryId] */\n      dup3\n      dup2\n      mstore\n        /* \"contracts/StemPayLotteryManager.sol\":9996:10005  lotteries */\n      0x02\n        /* \"contracts/StemPayLotteryManager.sol\":9996:10016  lotteries[lotteryId] */\n      0x20\n      swap1\n      dup2\n      mstore\n      0x40\n      dup1\n      dup4\n      keccak256\n      sub(shl(0xa0, 0x01), 0x01)\n        /* \"contracts/StemPayLotteryManager.sol\":9996:10037  lotteries[lotteryId].hasVotedCancel[user] */\n      dup6\n      and\n      dup5\n      mstore\n        /* \"contracts/StemPayLotteryManager.sol\":9996:10031  lotteries[lotteryId].hasVotedCancel */\n      0x0f\n      add\n        /* \"contracts/StemPayLotteryManager.sol\":9996:10037  lotteries[lotteryId].hasVotedCancel[user] */\n      swap1\n      swap2\n      mstore\n      swap1\n      keccak256\n      sload\n      0xff\n      and\n        /* \"contracts/StemPayLotteryManager.sol\":9889:10044  function hasUserVotedCancel(uint256 lotteryId, address user) external view returns (bool) {... */\n      swap3\n      swap2\n      pop\n      pop\n      jump\n        /* \"contracts/StemPayLotteryManager.sol\":3414:4448  function createLottery(... */\n    tag_15:\n      callvalue\n      dup1\n      iszero\n      tag_113\n      jumpi\n      revert(0x00, 0x00)\n    tag_113:\n      pop\n      tag_46\n      tag_115\n      calldatasize\n      0x04\n      tag_116\n      jump\t// in\n    tag_115:\n      tag_117\n      jump\t// in\n        /* \"contracts/StemPayLotteryManager.sol\":7119:7380  function cancelLottery(uint256 _lotteryId) external onlyOwner {... */\n    tag_16:\n      callvalue\n      dup1\n      iszero\n      tag_118\n      jumpi\n      revert(0x00, 0x00)\n    tag_118:\n      pop\n      tag_46\n      tag_120\n      calldatasize\n      0x04\n      tag_75\n      jump\t// in\n    tag_120:\n      tag_121\n      jump\t// in\n        /* \"contracts/StemPayLotteryManager.sol\":2030:2059  uint256 public lotteryCounter */\n    tag_17:\n      callvalue\n      dup1\n      iszero\n      tag_122\n      jumpi\n      revert(0x00, 0x00)\n    tag_122:\n      pop\n      tag_63\n      sload(0x03)\n      dup2\n      jump\n        /* \"@openzeppelin/contracts-upgradeable/proxy/utils/UUPSUpgradeable.sol\":4161:4375  function upgradeToAndCall(address newImplementation, bytes memory data) public payable virtual onlyProxy {... */\n    tag_18:\n      tag_46\n      tag_127\n      calldatasize\n      0x04\n      tag_128\n      jump\t// in\n    tag_127:\n      tag_129\n      jump\t// in\n        /* \"@openzeppelin/contracts-upgradeable/proxy/utils/UUPSUpgradeable.sol\":3708:3842  function proxiableUUID() external view virtual notDelegated returns (bytes32) {... */\n    tag_19:\n      callvalue\n      dup1\n      iszero\n      tag_130\n      jumpi\n      revert(0x00, 0x00)\n    tag_130:\n      pop\n      tag_63\n      tag_132\n      jump\t// in\n        /* \"contracts/StemPayLotteryManager.sol\":7386:7898  function claimRefund(uint256 _lotteryId) external nonReentrant {... */\n    tag_20:\n      callvalue\n      dup1\n      iszero\n      tag_135\n      jumpi\n      revert(0x00, 0x00)\n    tag_135:\n      pop\n      tag_46\n      tag_137\n      calldatasize\n      0x04\n      tag_75\n      jump\t// in\n    tag_137:\n      tag_138\n      jump\t// in\n        /* \"contracts/StemPayLotteryManager.sol\":5482:6468  function drawWinner(uint256 _lotteryId) external onlyOwner {... */\n    tag_21:\n      callvalue\n      dup1\n      iszero\n      tag_139\n      jumpi\n      revert(0x00, 0x00)\n    tag_139:\n      pop\n      tag_46\n      tag_141\n      calldatasize\n      0x04\n      tag_75\n      jump\t// in\n    tag_141:\n      tag_142\n      jump\t// in\n        /* \"contracts/StemPayLotteryManager.sol\":2137:2159  bytes32 public keyHash */\n    tag_22:\n      callvalue\n      dup1\n      iszero\n      tag_143\n      jumpi\n      revert(0x00, 0x00)\n    tag_143:\n      pop\n      tag_63\n      sload(0x06)\n      dup2\n      jump\n        /* \"@openzeppelin/contracts-upgradeable/access/OwnableUpgradeable.sol\":3155:3256  function renounceOwnership() public virtual onlyOwner {... */\n    tag_23:\n      callvalue\n      dup1\n      iszero\n      tag_147\n      jumpi\n      revert(0x00, 0x00)\n    tag_147:\n      pop\n      tag_46\n      tag_149\n      jump\t// in\n        /* \"contracts/StemPayLotteryManager.sol\":2241:2263  uint32 public numWords */\n    tag_24:\n      callvalue\n      dup1\n      iszero\n      tag_150\n      jumpi\n      revert(0x00, 0x00)\n    tag_150:\n      pop\n      sload(0x07)\n      tag_95\n      swap1\n      0x01000000000000\n      swap1\n      div\n      0xffffffff\n      and\n      dup2\n      jump\n        /* \"contracts/StemPayLotteryManager.sol\":5019:5476  function voteCancel(uint256 _lotteryId) external {... */\n    tag_25:\n      callvalue\n      dup1\n      iszero\n      tag_154\n      jumpi\n      revert(0x00, 0x00)\n    tag_154:\n      pop\n      tag_46\n      tag_156\n      calldatasize\n      0x04\n      tag_75\n      jump\t// in\n    tag_156:\n      tag_157\n      jump\t// in\n        /* \"contracts/StemPayLotteryManager.sol\":8258:8368  function clearLotteryData(uint256 _lotteryId) external onlyOwner {... */\n    tag_26:\n      callvalue\n      dup1\n      iszero\n      tag_158\n      jumpi\n      revert(0x00, 0x00)\n    tag_158:\n      pop\n      tag_46\n      tag_160\n      calldatasize\n      0x04\n      tag_75\n      jump\t// in\n    tag_160:\n      tag_161\n      jump\t// in\n        /* \"@openzeppelin/contracts-upgradeable/access/OwnableUpgradeable.sol\":2441:2585  function owner() public view virtual returns (address) {... */\n    tag_27:\n      callvalue\n      dup1\n      iszero\n      tag_162\n      jumpi\n      revert(0x00, 0x00)\n    tag_162:\n      pop\n        /* \"@openzeppelin/contracts-upgradeable/access/OwnableUpgradeable.sol\":1313:1335  OwnableStorageLocation */\n      0x9016d09d72d40fdae2fd8ceac6b6234c7706214fd39c1cd1e609a0528c199300\n        /* \"@openzeppelin/contracts-upgradeable/access/OwnableUpgradeable.sol\":2570:2578  $._owner */\n      sload\n      sub(shl(0xa0, 0x01), 0x01)\n      and\n        /* \"@openzeppelin/contracts-upgradeable/access/OwnableUpgradeable.sol\":2441:2585  function owner() public view virtual returns (address) {... */\n      jump(tag_90)\n        /* \"contracts/StemPayLotteryManager.sol\":2304:2333  address public vrfCoordinator */\n    tag_28:\n      callvalue\n      dup1\n      iszero\n      tag_166\n      jumpi\n      revert(0x00, 0x00)\n    tag_166:\n      pop\n      sload(0x09)\n      tag_90\n      swap1\n      sub(shl(0xa0, 0x01), 0x01)\n      and\n      dup2\n      jump\n        /* \"contracts/StemPayLotteryManager.sol\":9426:9575  function getEntryCount(uint256 lotteryId, address user) external view returns (uint256) {... */\n    tag_29:\n      callvalue\n      dup1\n      iszero\n      tag_170\n      jumpi\n      revert(0x00, 0x00)\n    tag_170:\n      pop\n      tag_63\n      tag_172\n      calldatasize\n      0x04\n      tag_58\n      jump\t// in\n    tag_172:\n        /* \"contracts/StemPayLotteryManager.sol\":9505:9512  uint256 */\n      0x00\n        /* \"contracts/StemPayLotteryManager.sol\":9531:9551  lotteries[lotteryId] */\n      dup3\n      dup2\n      mstore\n        /* \"contracts/StemPayLotteryManager.sol\":9531:9540  lotteries */\n      0x02\n        /* \"contracts/StemPayLotteryManager.sol\":9531:9551  lotteries[lotteryId] */\n      0x20\n      swap1\n      dup2\n      mstore\n      0x40\n      dup1\n      dup4\n      keccak256\n      sub(shl(0xa0, 0x01), 0x01)\n        /* \"contracts/StemPayLotteryManager.sol\":9531:9568  lotteries[lotteryId].entryCount[user] */\n      dup6\n      and\n      dup5\n      mstore\n        /* \"contracts/StemPayLotteryManager.sol\":9531:9562  lotteries[lotteryId].entryCount */\n      0x0c\n      add\n        /* \"contracts/StemPayLotteryManager.sol\":9531:9568  lotteries[lotteryId].entryCount[user] */\n      swap1\n      swap2\n      mstore\n      swap1\n      keccak256\n      sload\n        /* \"contracts/StemPayLotteryManager.sol\":9426:9575  function getEntryCount(uint256 lotteryId, address user) external view returns (uint256) {... */\n      swap3\n      swap2\n      pop\n      pop\n      jump\n        /* \"@openzeppelin/contracts-upgradeable/proxy/utils/UUPSUpgradeable.sol\":1819:1877  string public constant UPGRADE_INTERFACE_VERSION = \"5.0.0\" */\n    tag_30:\n      callvalue\n      dup1\n      iszero\n      tag_175\n      jumpi\n      revert(0x00, 0x00)\n    tag_175:\n      pop\n      tag_176\n      mload(0x40)\n      dup1\n      0x40\n      add\n      0x40\n      mstore\n      dup1\n      0x05\n      dup2\n      mstore\n      0x20\n      add\n      shl(0xdc, 0x0352e302e3)\n      dup2\n      mstore\n      pop\n      dup2\n      jump\n    tag_176:\n      mload(0x40)\n      tag_53\n      swap2\n      swap1\n      tag_179\n      jump\t// in\n        /* \"contracts/StemPayLotteryManager.sol\":2201:2235  uint16 public requestConfirmations */\n    tag_31:\n      callvalue\n      dup1\n      iszero\n      tag_180\n      jumpi\n      revert(0x00, 0x00)\n    tag_180:\n      pop\n      sload(0x07)\n      tag_181\n      swap1\n      0x0100000000\n      swap1\n      div\n      0xffff\n      and\n      dup2\n      jump\n    tag_181:\n      mload(0x40)\n        /* \"#utility.yul\":9229:9235   */\n      0xffff\n        /* \"#utility.yul\":9217:9236   */\n      swap1\n      swap2\n      and\n        /* \"#utility.yul\":9199:9237   */\n      dup2\n      mstore\n        /* \"#utility.yul\":9187:9189   */\n      0x20\n        /* \"#utility.yul\":9172:9190   */\n      add\n        /* \"contracts/StemPayLotteryManager.sol\":2201:2235  uint16 public requestConfirmations */\n      tag_53\n        /* \"#utility.yul\":9055:9243   */\n      jump\n        /* \"contracts/StemPayLotteryManager.sol\":2066:2097  address public investmentWallet */\n    tag_32:\n      callvalue\n      dup1\n      iszero\n      tag_185\n      jumpi\n      revert(0x00, 0x00)\n    tag_185:\n      pop\n      sload(0x04)\n      tag_90\n      swap1\n      sub(shl(0xa0, 0x01), 0x01)\n      and\n      dup2\n      jump\n        /* \"contracts/StemPayLotteryManager.sol\":8374:8518  function getParticipants(uint256 _lotteryId) external view returns (address[] memory) {... */\n    tag_33:\n      callvalue\n      dup1\n      iszero\n      tag_189\n      jumpi\n      revert(0x00, 0x00)\n    tag_189:\n      pop\n      tag_190\n      tag_191\n      calldatasize\n      0x04\n      tag_75\n      jump\t// in\n    tag_191:\n      tag_192\n      jump\t// in\n    tag_190:\n      mload(0x40)\n      tag_53\n      swap2\n      swap1\n      tag_194\n      jump\t// in\n        /* \"contracts/StemPayLotteryManager.sol\":9581:9730  function hasUserRefunded(uint256 lotteryId, address user) external view returns (bool) {... */\n    tag_34:\n      callvalue\n      dup1\n      iszero\n      tag_195\n      jumpi\n      revert(0x00, 0x00)\n    tag_195:\n      pop\n      tag_56\n      tag_197\n      calldatasize\n      0x04\n      tag_58\n      jump\t// in\n    tag_197:\n        /* \"contracts/StemPayLotteryManager.sol\":9662:9666  bool */\n      0x00\n        /* \"contracts/StemPayLotteryManager.sol\":9685:9705  lotteries[lotteryId] */\n      dup3\n      dup2\n      mstore\n        /* \"contracts/StemPayLotteryManager.sol\":9685:9694  lotteries */\n      0x02\n        /* \"contracts/StemPayLotteryManager.sol\":9685:9705  lotteries[lotteryId] */\n      0x20\n      swap1\n      dup2\n      mstore\n      0x40\n      dup1\n      dup4\n      keccak256\n      sub(shl(0xa0, 0x01), 0x01)\n        /* \"contracts/StemPayLotteryManager.sol\":9685:9723  lotteries[lotteryId].hasRefunded[user] */\n      dup6\n      and\n      dup5\n      mstore\n        /* \"contracts/StemPayLotteryManager.sol\":9685:9717  lotteries[lotteryId].hasRefunded */\n      0x0e\n      add\n        /* \"contracts/StemPayLotteryManager.sol\":9685:9723  lotteries[lotteryId].hasRefunded[user] */\n      swap1\n      swap2\n      mstore\n      swap1\n      keccak256\n      sload\n      0xff\n      and\n        /* \"contracts/StemPayLotteryManager.sol\":9581:9730  function hasUserRefunded(uint256 lotteryId, address user) external view returns (bool) {... */\n      swap3\n      swap2\n      pop\n      pop\n      jump\n        /* \"contracts/StemPayLotteryManager.sol\":7904:8252  function claimPrize(uint256 _lotteryId) external nonReentrant {... */\n    tag_35:\n      callvalue\n      dup1\n      iszero\n      tag_200\n      jumpi\n      revert(0x00, 0x00)\n    tag_200:\n      pop\n      tag_46\n      tag_202\n      calldatasize\n      0x04\n      tag_75\n      jump\t// in\n    tag_202:\n      tag_203\n      jump\t// in\n        /* \"contracts/StemPayLotteryManager.sol\":2340:2370  uint256[] public allLotteryIds */\n    tag_36:\n      callvalue\n      dup1\n      iszero\n      tag_204\n      jumpi\n      revert(0x00, 0x00)\n    tag_204:\n      pop\n      tag_63\n      tag_206\n      calldatasize\n      0x04\n      tag_75\n      jump\t// in\n    tag_206:\n      tag_207\n      jump\t// in\n        /* \"@openzeppelin/contracts-upgradeable/access/OwnableUpgradeable.sol\":3405:3620  function transferOwnership(address newOwner) public virtual onlyOwner {... */\n    tag_37:\n      callvalue\n      dup1\n      iszero\n      tag_209\n      jumpi\n      revert(0x00, 0x00)\n    tag_209:\n      pop\n      tag_46\n      tag_211\n      calldatasize\n      0x04\n      tag_212\n      jump\t// in\n    tag_211:\n      tag_213\n      jump\t// in\n        /* \"contracts/StemPayLotteryManager.sol\":10915:11076  function testFulfillRandomWords(uint256 requestId, uint256[] calldata randomWords) external onlyOwner {... */\n    tag_49:\n        /* \"@openzeppelin/contracts-upgradeable/access/OwnableUpgradeable.sol\":2334:2347  _checkOwner() */\n      tag_215\n        /* \"@openzeppelin/contracts-upgradeable/access/OwnableUpgradeable.sol\":2334:2345  _checkOwner */\n      tag_216\n        /* \"@openzeppelin/contracts-upgradeable/access/OwnableUpgradeable.sol\":2334:2347  _checkOwner() */\n      jump\t// in\n    tag_215:\n        /* \"contracts/StemPayLotteryManager.sol\":11027:11069  fulfillRandomWords(requestId, randomWords) */\n      tag_218\n        /* \"contracts/StemPayLotteryManager.sol\":11046:11055  requestId */\n      dup4\n        /* \"contracts/StemPayLotteryManager.sol\":11057:11068  randomWords */\n      dup4\n      dup4\n        /* \"contracts/StemPayLotteryManager.sol\":11027:11069  fulfillRandomWords(requestId, randomWords) */\n      dup1\n      dup1\n      0x20\n      mul\n      0x20\n      add\n      mload(0x40)\n      swap1\n      dup2\n      add\n      0x40\n      mstore\n      dup1\n      swap4\n      swap3\n      swap2\n      swap1\n      dup2\n      dup2\n      mstore\n      0x20\n      add\n      dup4\n      dup4\n      0x20\n      mul\n      dup1\n      dup3\n      dup5\n      calldatacopy\n      0x00\n      swap3\n      add\n      swap2\n      swap1\n      swap2\n      mstore\n      pop\n        /* \"contracts/StemPayLotteryManager.sol\":11027:11045  fulfillRandomWords */\n      tag_219\n      swap3\n      pop\n      pop\n      pop\n        /* \"contracts/StemPayLotteryManager.sol\":11027:11069  fulfillRandomWords(requestId, randomWords) */\n      jump\t// in\n    tag_218:\n        /* \"contracts/StemPayLotteryManager.sol\":10915:11076  function testFulfillRandomWords(uint256 requestId, uint256[] calldata randomWords) external onlyOwner {... */\n      pop\n      pop\n      pop\n      jump\t// out\n        /* \"contracts/StemPayLotteryManager.sol\":10050:10834  function getActiveLotteries() external view returns (uint256[] memory) {... */\n    tag_52:\n        /* \"contracts/StemPayLotteryManager.sol\":10169:10182  allLotteryIds */\n      0x0a\n        /* \"contracts/StemPayLotteryManager.sol\":10169:10189  allLotteryIds.length */\n      sload\n        /* \"contracts/StemPayLotteryManager.sol\":10103:10119  uint256[] memory */\n      0x60\n      swap1\n        /* \"contracts/StemPayLotteryManager.sol\":10131:10152  uint256[] memory temp */\n      0x00\n      swap1\n        /* \"contracts/StemPayLotteryManager.sol\":10155:10190  new uint256[](allLotteryIds.length) */\n      0xffffffffffffffff\n      dup2\n      gt\n      iszero\n      tag_222\n      jumpi\n      tag_222\n      tag_223\n      jump\t// in\n    tag_222:\n      mload(0x40)\n      swap1\n      dup1\n      dup3\n      mstore\n      dup1\n      0x20\n      mul\n      0x20\n      add\n      dup3\n      add\n      0x40\n      mstore\n      dup1\n      iszero\n      tag_224\n      jumpi\n      dup2\n      0x20\n      add\n      0x20\n      dup3\n      mul\n      dup1\n      calldatasize\n      dup4\n      calldatacopy\n      add\n      swap1\n      pop\n    tag_224:\n      pop\n        /* \"contracts/StemPayLotteryManager.sol\":10131:10190  uint256[] memory temp = new uint256[](allLotteryIds.length) */\n      swap1\n      pop\n        /* \"contracts/StemPayLotteryManager.sol\":10200:10213  uint256 count */\n      0x00\n      dup1\n        /* \"contracts/StemPayLotteryManager.sol\":10228:10626  for (uint256 i = 0; i < allLotteryIds.length; i++) {... */\n    tag_225:\n        /* \"contracts/StemPayLotteryManager.sol\":10252:10265  allLotteryIds */\n      0x0a\n        /* \"contracts/StemPayLotteryManager.sol\":10252:10272  allLotteryIds.length */\n      sload\n        /* \"contracts/StemPayLotteryManager.sol\":10248:10272  i < allLotteryIds.length */\n      dup2\n      lt\n        /* \"contracts/StemPayLotteryManager.sol\":10228:10626  for (uint256 i = 0; i < allLotteryIds.length; i++) {... */\n      iszero\n      tag_226\n      jumpi\n        /* \"contracts/StemPayLotteryManager.sol\":10293:10303  uint256 id */\n      0x00\n        /* \"contracts/StemPayLotteryManager.sol\":10306:10319  allLotteryIds */\n      0x0a\n        /* \"contracts/StemPayLotteryManager.sol\":10320:10321  i */\n      dup3\n        /* \"contracts/StemPayLotteryManager.sol\":10306:10322  allLotteryIds[i] */\n      dup2\n      sload\n      dup2\n      lt\n      tag_229\n      jumpi\n      tag_229\n      tag_230\n      jump\t// in\n    tag_229:\n      0x00\n      swap2\n      dup3\n      mstore\n      0x20\n      dup1\n      dup4\n      keccak256\n      swap1\n      swap2\n      add\n      sload\n        /* \"contracts/StemPayLotteryManager.sol\":10356:10369  lotteries[id] */\n      dup1\n      dup4\n      mstore\n        /* \"contracts/StemPayLotteryManager.sol\":10356:10365  lotteries */\n      0x02\n        /* \"contracts/StemPayLotteryManager.sol\":10356:10369  lotteries[id] */\n      swap1\n      swap2\n      mstore\n      0x40\n      swap1\n      swap2\n      keccak256\n        /* \"contracts/StemPayLotteryManager.sol\":10480:10490  l.isActive */\n      0x08\n      dup2\n      add\n      sload\n        /* \"contracts/StemPayLotteryManager.sol\":10306:10322  allLotteryIds[i] */\n      swap2\n      swap3\n      pop\n        /* \"contracts/StemPayLotteryManager.sol\":10356:10369  lotteries[id] */\n      swap1\n        /* \"contracts/StemPayLotteryManager.sol\":10480:10490  l.isActive */\n      0xff\n      and\n        /* \"contracts/StemPayLotteryManager.sol\":10480:10508  l.isActive && !l.isCancelled */\n      dup1\n      iszero\n      tag_232\n      jumpi\n      pop\n        /* \"contracts/StemPayLotteryManager.sol\":10495:10508  l.isCancelled */\n      0x08\n      dup2\n      add\n      sload\n      0x010000\n      swap1\n      div\n      0xff\n      and\n        /* \"contracts/StemPayLotteryManager.sol\":10494:10508  !l.isCancelled */\n      iszero\n        /* \"contracts/StemPayLotteryManager.sol\":10480:10508  l.isActive && !l.isCancelled */\n    tag_232:\n        /* \"contracts/StemPayLotteryManager.sol\":10480:10540  l.isActive && !l.isCancelled && block.timestamp < l.drawTime */\n      dup1\n      iszero\n      tag_233\n      jumpi\n      pop\n        /* \"contracts/StemPayLotteryManager.sol\":10530:10531  l */\n      dup1\n        /* \"contracts/StemPayLotteryManager.sol\":10530:10540  l.drawTime */\n      0x04\n      add\n      sload\n        /* \"contracts/StemPayLotteryManager.sol\":10512:10527  block.timestamp */\n      timestamp\n        /* \"contracts/StemPayLotteryManager.sol\":10512:10540  block.timestamp < l.drawTime */\n      lt\n        /* \"contracts/StemPayLotteryManager.sol\":10480:10540  l.isActive && !l.isCancelled && block.timestamp < l.drawTime */\n    tag_233:\n        /* \"contracts/StemPayLotteryManager.sol\":10476:10616  if (l.isActive && !l.isCancelled && block.timestamp < l.drawTime) {... */\n      iszero\n      tag_234\n      jumpi\n        /* \"contracts/StemPayLotteryManager.sol\":10574:10576  id */\n      dup2\n        /* \"contracts/StemPayLotteryManager.sol\":10560:10564  temp */\n      dup6\n        /* \"contracts/StemPayLotteryManager.sol\":10565:10570  count */\n      dup6\n        /* \"contracts/StemPayLotteryManager.sol\":10560:10571  temp[count] */\n      dup2\n      mload\n      dup2\n      lt\n      tag_236\n      jumpi\n      tag_236\n      tag_230\n      jump\t// in\n    tag_236:\n      0x20\n      swap1\n      dup2\n      mul\n      swap2\n      swap1\n      swap2\n      add\n      add\n        /* \"contracts/StemPayLotteryManager.sol\":10560:10576  temp[count] = id */\n      mstore\n        /* \"contracts/StemPayLotteryManager.sol\":10594:10601  count++ */\n      dup4\n      tag_237\n      dup2\n      tag_238\n      jump\t// in\n    tag_237:\n      swap5\n      pop\n      pop\n        /* \"contracts/StemPayLotteryManager.sol\":10476:10616  if (l.isActive && !l.isCancelled && block.timestamp < l.drawTime) {... */\n    tag_234:\n      pop\n      pop\n        /* \"contracts/StemPayLotteryManager.sol\":10274:10277  i++ */\n      0x01\n      add\n        /* \"contracts/StemPayLotteryManager.sol\":10228:10626  for (uint256 i = 0; i < allLotteryIds.length; i++) {... */\n      jump(tag_225)\n    tag_226:\n      pop\n        /* \"contracts/StemPayLotteryManager.sol\":10668:10691  uint256[] memory result */\n      0x00\n        /* \"contracts/StemPayLotteryManager.sol\":10708:10713  count */\n      dup2\n        /* \"contracts/StemPayLotteryManager.sol\":10694:10714  new uint256[](count) */\n      0xffffffffffffffff\n      dup2\n      gt\n      iszero\n      tag_240\n      jumpi\n      tag_240\n      tag_223\n      jump\t// in\n    tag_240:\n      mload(0x40)\n      swap1\n      dup1\n      dup3\n      mstore\n      dup1\n      0x20\n      mul\n      0x20\n      add\n      dup3\n      add\n      0x40\n      mstore\n      dup1\n      iszero\n      tag_241\n      jumpi\n      dup2\n      0x20\n      add\n      0x20\n      dup3\n      mul\n      dup1\n      calldatasize\n      dup4\n      calldatacopy\n      add\n      swap1\n      pop\n    tag_241:\n      pop\n        /* \"contracts/StemPayLotteryManager.sol\":10668:10714  uint256[] memory result = new uint256[](count) */\n      swap1\n      pop\n        /* \"contracts/StemPayLotteryManager.sol\":10729:10738  uint256 j */\n      0x00\n        /* \"contracts/StemPayLotteryManager.sol\":10724:10804  for (uint256 j = 0; j < count; j++) {... */\n    tag_242:\n        /* \"contracts/StemPayLotteryManager.sol\":10748:10753  count */\n      dup3\n        /* \"contracts/StemPayLotteryManager.sol\":10744:10745  j */\n      dup2\n        /* \"contracts/StemPayLotteryManager.sol\":10744:10753  j < count */\n      lt\n        /* \"contracts/StemPayLotteryManager.sol\":10724:10804  for (uint256 j = 0; j < count; j++) {... */\n      iszero\n      tag_243\n      jumpi\n        /* \"contracts/StemPayLotteryManager.sol\":10786:10790  temp */\n      dup4\n        /* \"contracts/StemPayLotteryManager.sol\":10791:10792  j */\n      dup2\n        /* \"contracts/StemPayLotteryManager.sol\":10786:10793  temp[j] */\n      dup2\n      mload\n      dup2\n      lt\n      tag_246\n      jumpi\n      tag_246\n      tag_230\n      jump\t// in\n    tag_246:\n      0x20\n      mul\n      0x20\n      add\n      add\n      mload\n        /* \"contracts/StemPayLotteryManager.sol\":10774:10780  result */\n      dup3\n        /* \"contracts/StemPayLotteryManager.sol\":10781:10782  j */\n      dup3\n        /* \"contracts/StemPayLotteryManager.sol\":10774:10783  result[j] */\n      dup2\n      mload\n      dup2\n      lt\n      tag_248\n      jumpi\n      tag_248\n      tag_230\n      jump\t// in\n    tag_248:\n      0x20\n      swap1\n      dup2\n      mul\n      swap2\n      swap1\n      swap2\n      add\n      add\n        /* \"contracts/StemPayLotteryManager.sol\":10774:10793  result[j] = temp[j] */\n      mstore\n        /* \"contracts/StemPayLotteryManager.sol\":10755:10758  j++ */\n      0x01\n      add\n        /* \"contracts/StemPayLotteryManager.sol\":10724:10804  for (uint256 j = 0; j < count; j++) {... */\n      jump(tag_242)\n    tag_243:\n      pop\n        /* \"contracts/StemPayLotteryManager.sol\":10821:10827  result */\n      swap4\n        /* \"contracts/StemPayLotteryManager.sol\":10050:10834  function getActiveLotteries() external view returns (uint256[] memory) {... */\n      swap3\n      pop\n      pop\n      pop\n      jump\t// out\n        /* \"contracts/StemPayLotteryManager.sol\":9736:9883  function hasUserClaimed(uint256 lotteryId, address user) external view returns (bool) {... */\n    tag_59:\n        /* \"contracts/StemPayLotteryManager.sol\":9816:9820  bool */\n      0x00\n        /* \"contracts/StemPayLotteryManager.sol\":9839:9859  lotteries[lotteryId] */\n      dup3\n      dup2\n      mstore\n        /* \"contracts/StemPayLotteryManager.sol\":9839:9848  lotteries */\n      0x02\n        /* \"contracts/StemPayLotteryManager.sol\":9839:9859  lotteries[lotteryId] */\n      0x20\n      swap1\n      dup2\n      mstore\n      0x40\n      dup1\n      dup4\n      keccak256\n      sub(shl(0xa0, 0x01), 0x01)\n        /* \"contracts/StemPayLotteryManager.sol\":9839:9876  lotteries[lotteryId].hasClaimed[user] */\n      dup6\n      and\n      dup5\n      mstore\n        /* \"contracts/StemPayLotteryManager.sol\":9839:9870  lotteries[lotteryId].hasClaimed */\n      0x0d\n      add\n        /* \"contracts/StemPayLotteryManager.sol\":9839:9876  lotteries[lotteryId].hasClaimed[user] */\n      swap1\n      swap2\n      mstore\n      swap1\n      keccak256\n      sload\n      0xff\n      and\n        /* \"contracts/StemPayLotteryManager.sol\":9736:9883  function hasUserClaimed(uint256 lotteryId, address user) external view returns (bool) {... */\n    tag_249:\n      swap3\n      swap2\n      pop\n      pop\n      jump\t// out\n        /* \"contracts/StemPayLotteryManager.sol\":2718:3336  function initialize(... */\n    tag_71:\n        /* \"@openzeppelin/contracts-upgradeable/proxy/utils/Initializable.sol\":4158:4188  InitializableStorage storage $ */\n      0x00\n        /* \"@openzeppelin/contracts-upgradeable/proxy/utils/Initializable.sol\":4191:4217  _getInitializableStorage() */\n      tag_251\n        /* \"@openzeppelin/contracts-upgradeable/proxy/utils/Initializable.sol\":4191:4215  _getInitializableStorage */\n      tag_252\n        /* \"@openzeppelin/contracts-upgradeable/proxy/utils/Initializable.sol\":4191:4217  _getInitializableStorage() */\n      jump\t// in\n    tag_251:\n        /* \"@openzeppelin/contracts-upgradeable/proxy/utils/Initializable.sol\":4302:4317  $._initializing */\n      dup1\n      sload\n        /* \"@openzeppelin/contracts-upgradeable/proxy/utils/Initializable.sol\":4158:4217  InitializableStorage storage $ = _getInitializableStorage() */\n      swap1\n      swap2\n      pop\n        /* \"@openzeppelin/contracts-upgradeable/proxy/utils/Initializable.sol\":4302:4317  $._initializing */\n      0xff\n      shl(0x40, 0x01)\n      dup3\n      div\n      and\n        /* \"@openzeppelin/contracts-upgradeable/proxy/utils/Initializable.sol\":4301:4317  !$._initializing */\n      iszero\n      swap1\n        /* \"@openzeppelin/contracts-upgradeable/proxy/utils/Initializable.sol\":4348:4362  $._initialized */\n      0xffffffffffffffff\n      and\n        /* \"@openzeppelin/contracts-upgradeable/proxy/utils/Initializable.sol\":4279:4298  bool isTopLevelCall */\n      0x00\n        /* \"@openzeppelin/contracts-upgradeable/proxy/utils/Initializable.sol\":4724:4740  initialized == 0 */\n      dup2\n      iszero\n        /* \"@openzeppelin/contracts-upgradeable/proxy/utils/Initializable.sol\":4724:4758  initialized == 0 && isTopLevelCall */\n      dup1\n      iszero\n      tag_253\n      jumpi\n      pop\n        /* \"@openzeppelin/contracts-upgradeable/proxy/utils/Initializable.sol\":4744:4758  isTopLevelCall */\n      dup3\n        /* \"@openzeppelin/contracts-upgradeable/proxy/utils/Initializable.sol\":4724:4758  initialized == 0 && isTopLevelCall */\n    tag_253:\n        /* \"@openzeppelin/contracts-upgradeable/proxy/utils/Initializable.sol\":4704:4758  bool initialSetup = initialized == 0 && isTopLevelCall */\n      swap1\n      pop\n        /* \"@openzeppelin/contracts-upgradeable/proxy/utils/Initializable.sol\":4768:4785  bool construction */\n      0x00\n        /* \"@openzeppelin/contracts-upgradeable/proxy/utils/Initializable.sol\":4788:4799  initialized */\n      dup3\n        /* \"@openzeppelin/contracts-upgradeable/proxy/utils/Initializable.sol\":4788:4804  initialized == 1 */\n      0xffffffffffffffff\n      and\n        /* \"@openzeppelin/contracts-upgradeable/proxy/utils/Initializable.sol\":4803:4804  1 */\n      0x01\n        /* \"@openzeppelin/contracts-upgradeable/proxy/utils/Initializable.sol\":4788:4804  initialized == 1 */\n      eq\n        /* \"@openzeppelin/contracts-upgradeable/proxy/utils/Initializable.sol\":4788:4838  initialized == 1 && address(this).code.length == 0 */\n      dup1\n      iszero\n      tag_254\n      jumpi\n      pop\n        /* \"@openzeppelin/contracts-upgradeable/proxy/utils/Initializable.sol\":4816:4820  this */\n      address\n        /* \"@openzeppelin/contracts-upgradeable/proxy/utils/Initializable.sol\":4808:4833  address(this).code.length */\n      extcodesize\n        /* \"@openzeppelin/contracts-upgradeable/proxy/utils/Initializable.sol\":4808:4838  address(this).code.length == 0 */\n      iszero\n        /* \"@openzeppelin/contracts-upgradeable/proxy/utils/Initializable.sol\":4788:4838  initialized == 1 && address(this).code.length == 0 */\n    tag_254:\n        /* \"@openzeppelin/contracts-upgradeable/proxy/utils/Initializable.sol\":4768:4838  bool construction = initialized == 1 && address(this).code.length == 0 */\n      swap1\n      pop\n        /* \"@openzeppelin/contracts-upgradeable/proxy/utils/Initializable.sol\":4854:4866  initialSetup */\n      dup2\n        /* \"@openzeppelin/contracts-upgradeable/proxy/utils/Initializable.sol\":4853:4866  !initialSetup */\n      iszero\n        /* \"@openzeppelin/contracts-upgradeable/proxy/utils/Initializable.sol\":4853:4883  !initialSetup && !construction */\n      dup1\n      iszero\n      tag_255\n      jumpi\n      pop\n        /* \"@openzeppelin/contracts-upgradeable/proxy/utils/Initializable.sol\":4871:4883  construction */\n      dup1\n        /* \"@openzeppelin/contracts-upgradeable/proxy/utils/Initializable.sol\":4870:4883  !construction */\n      iszero\n        /* \"@openzeppelin/contracts-upgradeable/proxy/utils/Initializable.sol\":4853:4883  !initialSetup && !construction */\n    tag_255:\n        /* \"@openzeppelin/contracts-upgradeable/proxy/utils/Initializable.sol\":4849:4940  if (!initialSetup && !construction) {... */\n      iszero\n      tag_256\n      jumpi\n        /* \"@openzeppelin/contracts-upgradeable/proxy/utils/Initializable.sol\":4906:4929  InvalidInitialization() */\n      mload(0x40)\n      shl(0xe0, 0xf92ee8a9)\n      dup2\n      mstore\n      0x04\n      add\n      mload(0x40)\n      dup1\n      swap2\n      sub\n      swap1\n      revert\n        /* \"@openzeppelin/contracts-upgradeable/proxy/utils/Initializable.sol\":4849:4940  if (!initialSetup && !construction) {... */\n    tag_256:\n        /* \"@openzeppelin/contracts-upgradeable/proxy/utils/Initializable.sol\":4949:4967  $._initialized = 1 */\n      dup5\n      sload\n      not(0xffffffffffffffff)\n      and\n        /* \"@openzeppelin/contracts-upgradeable/proxy/utils/Initializable.sol\":4966:4967  1 */\n      0x01\n        /* \"@openzeppelin/contracts-upgradeable/proxy/utils/Initializable.sol\":4949:4967  $._initialized = 1 */\n      or\n      dup6\n      sstore\n        /* \"@openzeppelin/contracts-upgradeable/proxy/utils/Initializable.sol\":4977:5044  if (isTopLevelCall) {... */\n      dup4\n      iszero\n      tag_257\n      jumpi\n        /* \"@openzeppelin/contracts-upgradeable/proxy/utils/Initializable.sol\":5011:5033  $._initializing = true */\n      dup5\n      sload\n      not(shl(0x40, 0xff))\n      and\n      shl(0x40, 0x01)\n      or\n      dup6\n      sstore\n        /* \"@openzeppelin/contracts-upgradeable/proxy/utils/Initializable.sol\":4977:5044  if (isTopLevelCall) {... */\n    tag_257:\n        /* \"contracts/StemPayLotteryManager.sol\":2924:2950  __Ownable_init(msg.sender) */\n      tag_259\n        /* \"contracts/StemPayLotteryManager.sol\":2939:2949  msg.sender */\n      caller\n        /* \"contracts/StemPayLotteryManager.sol\":2924:2938  __Ownable_init */\n      tag_260\n        /* \"contracts/StemPayLotteryManager.sol\":2924:2950  __Ownable_init(msg.sender) */\n      jump\t// in\n    tag_259:\n        /* \"contracts/StemPayLotteryManager.sol\":2960:2984  __UUPSUpgradeable_init() */\n      tag_261\n        /* \"contracts/StemPayLotteryManager.sol\":2960:2982  __UUPSUpgradeable_init */\n      tag_262\n        /* \"contracts/StemPayLotteryManager.sol\":2960:2984  __UUPSUpgradeable_init() */\n      jump\t// in\n    tag_261:\n        /* \"contracts/StemPayLotteryManager.sol\":2994:3048  __VRFConsumerBaseV2_5Upgradeable_init(_vrfCoordinator) */\n      tag_263\n        /* \"contracts/StemPayLotteryManager.sol\":3032:3047  _vrfCoordinator */\n      dup11\n        /* \"contracts/StemPayLotteryManager.sol\":2994:3031  __VRFConsumerBaseV2_5Upgradeable_init */\n      tag_264\n        /* \"contracts/StemPayLotteryManager.sol\":2994:3048  __VRFConsumerBaseV2_5Upgradeable_init(_vrfCoordinator) */\n      jump\t// in\n    tag_263:\n        /* \"contracts/StemPayLotteryManager.sol\":3059:3073  vrfCoordinator */\n      0x09\n        /* \"contracts/StemPayLotteryManager.sol\":3059:3091  vrfCoordinator = _vrfCoordinator */\n      dup1\n      sload\n      not(sub(shl(0xa0, 0x01), 0x01))\n      swap1\n      dup2\n      and\n      sub(shl(0xa0, 0x01), 0x01)\n      dup14\n      dup2\n      and\n      swap2\n      swap1\n      swap2\n      or\n      swap1\n      swap3\n      sstore\n        /* \"contracts/StemPayLotteryManager.sol\":3101:3108  keyHash */\n      0x06\n        /* \"contracts/StemPayLotteryManager.sol\":3101:3119  keyHash = _keyHash */\n      dup12\n      swap1\n      sstore\n        /* \"contracts/StemPayLotteryManager.sol\":3129:3143  subscriptionId */\n      0x08\n        /* \"contracts/StemPayLotteryManager.sol\":3129:3152  subscriptionId = _subId */\n      dup11\n      swap1\n      sstore\n        /* \"contracts/StemPayLotteryManager.sol\":3162:3178  callbackGasLimit */\n      0x07\n        /* \"contracts/StemPayLotteryManager.sol\":3162:3188  callbackGasLimit = 200_000 */\n      dup1\n      sload\n      not(0xffffffffffffffffffff)\n        /* \"contracts/StemPayLotteryManager.sol\":3232:3244  numWords = 1 */\n      and\n      0x01000300030d40\n      or\n      swap1\n      sstore\n        /* \"contracts/StemPayLotteryManager.sol\":3198:3218  requestConfirmations */\n      0x04\n        /* \"contracts/StemPayLotteryManager.sol\":3255:3291  investmentWallet = _investmentWallet */\n      dup1\n      sload\n      dup3\n      and\n      dup11\n      dup5\n      and\n      or\n      swap1\n      sstore\n      0x05\n        /* \"contracts/StemPayLotteryManager.sol\":3301:3329  profitWallet = _profitWallet */\n      dup1\n      sload\n      swap1\n      swap2\n      and\n      swap2\n      dup9\n      and\n      swap2\n      swap1\n      swap2\n      or\n      swap1\n      sstore\n        /* \"@openzeppelin/contracts-upgradeable/proxy/utils/Initializable.sol\":5064:5165  if (isTopLevelCall) {... */\n      dup4\n      iszero\n      tag_265\n      jumpi\n        /* \"@openzeppelin/contracts-upgradeable/proxy/utils/Initializable.sol\":5098:5121  $._initializing = false */\n      dup5\n      sload\n      not(shl(0x40, 0xff))\n      and\n      dup6\n      sstore\n        /* \"@openzeppelin/contracts-upgradeable/proxy/utils/Initializable.sol\":5140:5154  Initialized(1) */\n      mload(0x40)\n      0x01\n        /* \"#utility.yul\":10638:10688   */\n      dup2\n      mstore\n        /* \"@openzeppelin/contracts-upgradeable/proxy/utils/Initializable.sol\":5140:5154  Initialized(1) */\n      0xc7f505b2f371ae2175ee4913f4499e1f2633a7b5936321eed1cdaeb6115181d2\n      swap1\n        /* \"#utility.yul\":10626:10628   */\n      0x20\n        /* \"#utility.yul\":10611:10629   */\n      add\n        /* \"@openzeppelin/contracts-upgradeable/proxy/utils/Initializable.sol\":5140:5154  Initialized(1) */\n      mload(0x40)\n      dup1\n      swap2\n      sub\n      swap1\n      log1\n        /* \"@openzeppelin/contracts-upgradeable/proxy/utils/Initializable.sol\":5064:5165  if (isTopLevelCall) {... */\n    tag_265:\n        /* \"@openzeppelin/contracts-upgradeable/proxy/utils/Initializable.sol\":4092:5171  {... */\n      pop\n      pop\n      pop\n      pop\n      pop\n        /* \"contracts/StemPayLotteryManager.sol\":2718:3336  function initialize(... */\n      pop\n      pop\n      pop\n      pop\n      pop\n      jump\t// out\n        /* \"contracts/StemPayLotteryManager.sol\":922:1198  function rawFulfillRandomWords(uint256 requestId, uint256[] memory randomWords) external {... */\n    tag_88:\n        /* \"contracts/StemPayLotteryManager.sol\":1039:1053  vrfCoordinator */\n      and(sub(shl(0xa0, 0x01), 0x01), sload(0x01))\n        /* \"contracts/StemPayLotteryManager.sol\":1025:1035  msg.sender */\n      caller\n        /* \"contracts/StemPayLotteryManager.sol\":1025:1053  msg.sender != vrfCoordinator */\n      eq\n        /* \"contracts/StemPayLotteryManager.sol\":1021:1140  if (msg.sender != vrfCoordinator) {... */\n      tag_269\n      jumpi\n        /* \"contracts/StemPayLotteryManager.sol\":1114:1128  vrfCoordinator */\n      sload(0x01)\n        /* \"contracts/StemPayLotteryManager.sol\":1076:1129  OnlyCoordinatorCanFulfill(msg.sender, vrfCoordinator) */\n      mload(0x40)\n      shl(0xe2, 0x073e64fd)\n      dup2\n      mstore\n        /* \"contracts/StemPayLotteryManager.sol\":1102:1112  msg.sender */\n      caller\n        /* \"contracts/StemPayLotteryManager.sol\":1076:1129  OnlyCoordinatorCanFulfill(msg.sender, vrfCoordinator) */\n      0x04\n      dup3\n      add\n        /* \"#utility.yul\":10873:10924   */\n      mstore\n      sub(shl(0xa0, 0x01), 0x01)\n        /* \"contracts/StemPayLotteryManager.sol\":1114:1128  vrfCoordinator */\n      swap1\n      swap2\n      and\n        /* \"#utility.yul\":10940:10958   */\n      0x24\n      dup3\n      add\n        /* \"#utility.yul\":10933:10993   */\n      mstore\n        /* \"#utility.yul\":10846:10864   */\n      0x44\n      add\n        /* \"contracts/StemPayLotteryManager.sol\":1076:1129  OnlyCoordinatorCanFulfill(msg.sender, vrfCoordinator) */\n    tag_270:\n      mload(0x40)\n      dup1\n      swap2\n      sub\n      swap1\n      revert\n        /* \"contracts/StemPayLotteryManager.sol\":1021:1140  if (msg.sender != vrfCoordinator) {... */\n    tag_269:\n        /* \"contracts/StemPayLotteryManager.sol\":1149:1191  fulfillRandomWords(requestId, randomWords) */\n      tag_272\n        /* \"contracts/StemPayLotteryManager.sol\":1168:1177  requestId */\n      dup3\n        /* \"contracts/StemPayLotteryManager.sol\":1179:1190  randomWords */\n      dup3\n        /* \"contracts/StemPayLotteryManager.sol\":1149:1167  fulfillRandomWords */\n      tag_219\n        /* \"contracts/StemPayLotteryManager.sol\":1149:1191  fulfillRandomWords(requestId, randomWords) */\n      jump\t// in\n    tag_272:\n        /* \"contracts/StemPayLotteryManager.sol\":922:1198  function rawFulfillRandomWords(uint256 requestId, uint256[] memory randomWords) external {... */\n      pop\n      pop\n      jump\t// out\n        /* \"contracts/StemPayLotteryManager.sol\":8524:9420  function migrateToLottery(uint256 fromId, uint256 toId) external nonReentrant {... */\n    tag_103:\n        /* \"@openzeppelin/contracts/security/ReentrancyGuard.sol\":2261:2282  _nonReentrantBefore() */\n      tag_274\n        /* \"@openzeppelin/contracts/security/ReentrancyGuard.sol\":2261:2280  _nonReentrantBefore */\n      tag_275\n        /* \"@openzeppelin/contracts/security/ReentrancyGuard.sol\":2261:2282  _nonReentrantBefore() */\n      jump\t// in\n    tag_274:\n        /* \"contracts/StemPayLotteryManager.sol\":8612:8633  Lottery storage fromL */\n      0x00\n        /* \"contracts/StemPayLotteryManager.sol\":8636:8653  lotteries[fromId] */\n      dup3\n      dup2\n      mstore\n        /* \"contracts/StemPayLotteryManager.sol\":8636:8645  lotteries */\n      0x02\n        /* \"contracts/StemPayLotteryManager.sol\":8636:8653  lotteries[fromId] */\n      0x20\n      swap1\n      dup2\n      mstore\n      0x40\n      dup1\n      dup4\n      keccak256\n        /* \"contracts/StemPayLotteryManager.sol\":8685:8700  lotteries[toId] */\n      dup5\n      dup5\n      mstore\n      dup2\n      dup5\n      keccak256\n        /* \"contracts/StemPayLotteryManager.sol\":8736:8746  msg.sender */\n      caller\n        /* \"contracts/StemPayLotteryManager.sol\":8719:8747  fromL.entryCount[msg.sender] */\n      dup6\n      mstore\n        /* \"contracts/StemPayLotteryManager.sol\":8719:8735  fromL.entryCount */\n      0x0c\n      dup3\n      add\n        /* \"contracts/StemPayLotteryManager.sol\":8719:8747  fromL.entryCount[msg.sender] */\n      swap1\n      swap4\n      mstore\n      swap3\n      keccak256\n      sload\n        /* \"contracts/StemPayLotteryManager.sol\":8711:8766  require(fromL.entryCount[msg.sender] > 0, \"Not in old\") */\n      tag_277\n      jumpi\n      mload(0x40)\n      shl(0xe5, 0x461bcd)\n      dup2\n      mstore\n        /* \"#utility.yul\":11206:11208   */\n      0x20\n        /* \"contracts/StemPayLotteryManager.sol\":8711:8766  require(fromL.entryCount[msg.sender] > 0, \"Not in old\") */\n      0x04\n      dup3\n      add\n        /* \"#utility.yul\":11188:11209   */\n      mstore\n        /* \"#utility.yul\":11245:11247   */\n      0x0a\n        /* \"#utility.yul\":11225:11243   */\n      0x24\n      dup3\n      add\n        /* \"#utility.yul\":11218:11248   */\n      mstore\n      shl(0xb2, 0x139bdd081a5b881bdb19)\n        /* \"#utility.yul\":11264:11282   */\n      0x44\n      dup3\n      add\n        /* \"#utility.yul\":11257:11297   */\n      mstore\n        /* \"#utility.yul\":11314:11332   */\n      0x64\n      add\n        /* \"contracts/StemPayLotteryManager.sol\":8711:8766  require(fromL.entryCount[msg.sender] > 0, \"Not in old\") */\n      tag_270\n        /* \"#utility.yul\":11004:11338   */\n      jump\n        /* \"contracts/StemPayLotteryManager.sol\":8711:8766  require(fromL.entryCount[msg.sender] > 0, \"Not in old\") */\n    tag_277:\n        /* \"contracts/StemPayLotteryManager.sol\":8803:8813  msg.sender */\n      caller\n        /* \"contracts/StemPayLotteryManager.sol\":8785:8814  fromL.hasRefunded[msg.sender] */\n      0x00\n      swap1\n      dup2\n      mstore\n        /* \"contracts/StemPayLotteryManager.sol\":8785:8802  fromL.hasRefunded */\n      0x0e\n      dup4\n      add\n        /* \"contracts/StemPayLotteryManager.sol\":8785:8814  fromL.hasRefunded[msg.sender] */\n      0x20\n      mstore\n      0x40\n      swap1\n      keccak256\n      sload\n      0xff\n      and\n        /* \"contracts/StemPayLotteryManager.sol\":8784:8814  !fromL.hasRefunded[msg.sender] */\n      iszero\n        /* \"contracts/StemPayLotteryManager.sol\":8776:8835  require(!fromL.hasRefunded[msg.sender], \"Refunded already\") */\n      tag_280\n      jumpi\n      mload(0x40)\n      shl(0xe5, 0x461bcd)\n      dup2\n      mstore\n        /* \"#utility.yul\":11545:11547   */\n      0x20\n        /* \"contracts/StemPayLotteryManager.sol\":8776:8835  require(!fromL.hasRefunded[msg.sender], \"Refunded already\") */\n      0x04\n      dup3\n      add\n        /* \"#utility.yul\":11527:11548   */\n      mstore\n        /* \"#utility.yul\":11584:11586   */\n      0x10\n        /* \"#utility.yul\":11564:11582   */\n      0x24\n      dup3\n      add\n        /* \"#utility.yul\":11557:11587   */\n      mstore\n      shl(0x80, 0x526566756e64656420616c7265616479)\n        /* \"#utility.yul\":11603:11621   */\n      0x44\n      dup3\n      add\n        /* \"#utility.yul\":11596:11642   */\n      mstore\n        /* \"#utility.yul\":11659:11677   */\n      0x64\n      add\n        /* \"contracts/StemPayLotteryManager.sol\":8776:8835  require(!fromL.hasRefunded[msg.sender], \"Refunded already\") */\n      tag_270\n        /* \"#utility.yul\":11343:11683   */\n      jump\n        /* \"contracts/StemPayLotteryManager.sol\":8776:8835  require(!fromL.hasRefunded[msg.sender], \"Refunded already\") */\n    tag_280:\n        /* \"contracts/StemPayLotteryManager.sol\":8853:8870  fromL.isCancelled */\n      0x08\n      dup3\n      add\n      sload\n      0x010000\n      swap1\n      div\n      0xff\n      and\n      dup1\n        /* \"contracts/StemPayLotteryManager.sol\":8853:8919  fromL.isCancelled || (fromL.isDrawn && fromL.winner != msg.sender) */\n      tag_284\n      jumpi\n      pop\n        /* \"contracts/StemPayLotteryManager.sol\":8875:8888  fromL.isDrawn */\n      0x08\n      dup3\n      add\n      sload\n      0x0100\n      swap1\n      div\n      0xff\n      and\n        /* \"contracts/StemPayLotteryManager.sol\":8875:8918  fromL.isDrawn && fromL.winner != msg.sender */\n      dup1\n      iszero\n      tag_284\n      jumpi\n      pop\n        /* \"contracts/StemPayLotteryManager.sol\":8892:8904  fromL.winner */\n      0x0a\n      dup3\n      add\n      sload\n      sub(shl(0xa0, 0x01), 0x01)\n      and\n        /* \"contracts/StemPayLotteryManager.sol\":8908:8918  msg.sender */\n      caller\n        /* \"contracts/StemPayLotteryManager.sol\":8892:8918  fromL.winner != msg.sender */\n      eq\n      iszero\n        /* \"contracts/StemPayLotteryManager.sol\":8875:8918  fromL.isDrawn && fromL.winner != msg.sender */\n    tag_284:\n        /* \"contracts/StemPayLotteryManager.sol\":8845:8940  require(fromL.isCancelled || (fromL.isDrawn && fromL.winner != msg.sender), \"Old not eligible\") */\n      tag_285\n      jumpi\n      mload(0x40)\n      shl(0xe5, 0x461bcd)\n      dup2\n      mstore\n        /* \"#utility.yul\":11890:11892   */\n      0x20\n        /* \"contracts/StemPayLotteryManager.sol\":8845:8940  require(fromL.isCancelled || (fromL.isDrawn && fromL.winner != msg.sender), \"Old not eligible\") */\n      0x04\n      dup3\n      add\n        /* \"#utility.yul\":11872:11893   */\n      mstore\n        /* \"#utility.yul\":11929:11931   */\n      0x10\n        /* \"#utility.yul\":11909:11927   */\n      0x24\n      dup3\n      add\n        /* \"#utility.yul\":11902:11932   */\n      mstore\n      shl(0x80, 0x4f6c64206e6f7420656c696769626c65)\n        /* \"#utility.yul\":11948:11966   */\n      0x44\n      dup3\n      add\n        /* \"#utility.yul\":11941:11987   */\n      mstore\n        /* \"#utility.yul\":12004:12022   */\n      0x64\n      add\n        /* \"contracts/StemPayLotteryManager.sol\":8845:8940  require(fromL.isCancelled || (fromL.isDrawn && fromL.winner != msg.sender), \"Old not eligible\") */\n      tag_270\n        /* \"#utility.yul\":11688:12028   */\n      jump\n        /* \"contracts/StemPayLotteryManager.sol\":8845:8940  require(fromL.isCancelled || (fromL.isDrawn && fromL.winner != msg.sender), \"Old not eligible\") */\n    tag_285:\n        /* \"contracts/StemPayLotteryManager.sol\":8959:8971  toL.isActive */\n      0x08\n      dup2\n      add\n      sload\n      0xff\n      and\n        /* \"contracts/StemPayLotteryManager.sol\":8959:8991  toL.isActive && !toL.isCancelled */\n      dup1\n      iszero\n      tag_288\n      jumpi\n      pop\n        /* \"contracts/StemPayLotteryManager.sol\":8976:8991  toL.isCancelled */\n      0x08\n      dup2\n      add\n      sload\n      0x010000\n      swap1\n      div\n      0xff\n      and\n        /* \"contracts/StemPayLotteryManager.sol\":8975:8991  !toL.isCancelled */\n      iszero\n        /* \"contracts/StemPayLotteryManager.sol\":8959:8991  toL.isActive && !toL.isCancelled */\n    tag_288:\n        /* \"contracts/StemPayLotteryManager.sol\":8951:9016  require(toL.isActive && !toL.isCancelled, \"New lottery inactive\") */\n      tag_289\n      jumpi\n      mload(0x40)\n      shl(0xe5, 0x461bcd)\n      dup2\n      mstore\n        /* \"#utility.yul\":12235:12237   */\n      0x20\n        /* \"contracts/StemPayLotteryManager.sol\":8951:9016  require(toL.isActive && !toL.isCancelled, \"New lottery inactive\") */\n      0x04\n      dup3\n      add\n        /* \"#utility.yul\":12217:12238   */\n      mstore\n        /* \"#utility.yul\":12274:12276   */\n      0x14\n        /* \"#utility.yul\":12254:12272   */\n      0x24\n      dup3\n      add\n        /* \"#utility.yul\":12247:12277   */\n      mstore\n      shl(0x60, 0x4e6577206c6f747465727920696e616374697665)\n        /* \"#utility.yul\":12293:12311   */\n      0x44\n      dup3\n      add\n        /* \"#utility.yul\":12286:12336   */\n      mstore\n        /* \"#utility.yul\":12353:12371   */\n      0x64\n      add\n        /* \"contracts/StemPayLotteryManager.sol\":8951:9016  require(toL.isActive && !toL.isCancelled, \"New lottery inactive\") */\n      tag_270\n        /* \"#utility.yul\":12033:12377   */\n      jump\n        /* \"contracts/StemPayLotteryManager.sol\":8951:9016  require(toL.isActive && !toL.isCancelled, \"New lottery inactive\") */\n    tag_289:\n        /* \"contracts/StemPayLotteryManager.sol\":9052:9055  toL */\n      dup1\n        /* \"contracts/StemPayLotteryManager.sol\":9052:9064  toL.drawTime */\n      0x04\n      add\n      sload\n        /* \"contracts/StemPayLotteryManager.sol\":9034:9049  block.timestamp */\n      timestamp\n        /* \"contracts/StemPayLotteryManager.sol\":9034:9064  block.timestamp < toL.drawTime */\n      lt\n        /* \"contracts/StemPayLotteryManager.sol\":9026:9085  require(block.timestamp < toL.drawTime, \"Too late for new\") */\n      tag_292\n      jumpi\n      mload(0x40)\n      shl(0xe5, 0x461bcd)\n      dup2\n      mstore\n        /* \"#utility.yul\":12584:12586   */\n      0x20\n        /* \"contracts/StemPayLotteryManager.sol\":9026:9085  require(block.timestamp < toL.drawTime, \"Too late for new\") */\n      0x04\n      dup3\n      add\n        /* \"#utility.yul\":12566:12587   */\n      mstore\n        /* \"#utility.yul\":12623:12625   */\n      0x10\n        /* \"#utility.yul\":12603:12621   */\n      0x24\n      dup3\n      add\n        /* \"#utility.yul\":12596:12626   */\n      mstore\n      shl(0x80, 0x546f6f206c61746520666f72206e6577)\n        /* \"#utility.yul\":12642:12660   */\n      0x44\n      dup3\n      add\n        /* \"#utility.yul\":12635:12681   */\n      mstore\n        /* \"#utility.yul\":12698:12716   */\n      0x64\n      add\n        /* \"contracts/StemPayLotteryManager.sol\":9026:9085  require(block.timestamp < toL.drawTime, \"Too late for new\") */\n      tag_270\n        /* \"#utility.yul\":12382:12722   */\n      jump\n        /* \"contracts/StemPayLotteryManager.sol\":9026:9085  require(block.timestamp < toL.drawTime, \"Too late for new\") */\n    tag_292:\n        /* \"contracts/StemPayLotteryManager.sol\":9114:9124  msg.sender */\n      caller\n        /* \"contracts/StemPayLotteryManager.sol\":9096:9125  fromL.hasRefunded[msg.sender] */\n      0x00\n      swap1\n      dup2\n      mstore\n        /* \"contracts/StemPayLotteryManager.sol\":9096:9113  fromL.hasRefunded */\n      0x0e\n      dup4\n      add\n        /* \"contracts/StemPayLotteryManager.sol\":9096:9125  fromL.hasRefunded[msg.sender] */\n      0x20\n      mstore\n      0x40\n      dup2\n      keccak256\n        /* \"contracts/StemPayLotteryManager.sol\":9096:9132  fromL.hasRefunded[msg.sender] = true */\n      dup1\n      sload\n      not(0xff)\n      and\n        /* \"contracts/StemPayLotteryManager.sol\":9128:9132  true */\n      0x01\n        /* \"contracts/StemPayLotteryManager.sol\":9096:9132  fromL.hasRefunded[msg.sender] = true */\n      swap1\n      dup2\n      or\n      swap1\n      swap2\n      sstore\n        /* \"contracts/StemPayLotteryManager.sol\":9182:9202  toL.refundableAmount */\n      0x02\n      dup4\n      add\n      sload\n        /* \"contracts/StemPayLotteryManager.sol\":9159:9179  toL.participationFee */\n      swap1\n      dup4\n      add\n      sload\n        /* \"contracts/StemPayLotteryManager.sol\":9159:9202  toL.participationFee - toL.refundableAmount */\n      tag_295\n      swap2\n        /* \"contracts/StemPayLotteryManager.sol\":9182:9202  toL.refundableAmount */\n      swap1\n        /* \"contracts/StemPayLotteryManager.sol\":9159:9202  toL.participationFee - toL.refundableAmount */\n      tag_296\n      jump\t// in\n    tag_295:\n        /* \"contracts/StemPayLotteryManager.sol\":9219:9235  toL.tokenAddress */\n      dup3\n      sload\n        /* \"contracts/StemPayLotteryManager.sol\":9212:9283  IERC20(toL.tokenAddress).transferFrom(msg.sender, address(this), topUp) */\n      mload(0x40)\n      shl(0xe0, 0x23b872dd)\n      dup2\n      mstore\n        /* \"contracts/StemPayLotteryManager.sol\":9250:9260  msg.sender */\n      caller\n        /* \"contracts/StemPayLotteryManager.sol\":9212:9283  IERC20(toL.tokenAddress).transferFrom(msg.sender, address(this), topUp) */\n      0x04\n      dup3\n      add\n        /* \"#utility.yul\":13062:13113   */\n      mstore\n        /* \"contracts/StemPayLotteryManager.sol\":9270:9274  this */\n      address\n        /* \"#utility.yul\":13129:13147   */\n      0x24\n      dup3\n      add\n        /* \"#utility.yul\":13122:13182   */\n      mstore\n        /* \"#utility.yul\":13198:13216   */\n      0x44\n      dup2\n      add\n        /* \"#utility.yul\":13191:13225   */\n      dup4\n      swap1\n      mstore\n        /* \"contracts/StemPayLotteryManager.sol\":9143:9202  uint256 topUp = toL.participationFee - toL.refundableAmount */\n      swap2\n      swap3\n      pop\n      sub(shl(0xa0, 0x01), 0x01)\n        /* \"contracts/StemPayLotteryManager.sol\":9219:9235  toL.tokenAddress */\n      and\n      swap1\n        /* \"contracts/StemPayLotteryManager.sol\":9212:9249  IERC20(toL.tokenAddress).transferFrom */\n      0x23b872dd\n      swap1\n        /* \"#utility.yul\":13035:13053   */\n      0x64\n      add\n        /* \"contracts/StemPayLotteryManager.sol\":9212:9283  IERC20(toL.tokenAddress).transferFrom(msg.sender, address(this), topUp) */\n      0x20\n      mload(0x40)\n      dup1\n      dup4\n      sub\n      dup2\n      0x00\n      dup8\n      gas\n      call\n      iszero\n      dup1\n      iszero\n      tag_300\n      jumpi\n      returndatacopy(0x00, 0x00, returndatasize)\n      revert(0x00, returndatasize)\n    tag_300:\n      pop\n      pop\n      pop\n      pop\n      mload(0x40)\n      returndatasize\n      not(0x1f)\n      0x1f\n      dup3\n      add\n      and\n      dup3\n      add\n      dup1\n      0x40\n      mstore\n      pop\n      dup2\n      add\n      swap1\n      tag_301\n      swap2\n      swap1\n      tag_302\n      jump\t// in\n    tag_301:\n      pop\n        /* \"contracts/StemPayLotteryManager.sol\":9294:9310  toL.participants */\n      0x09\n      dup3\n      add\n        /* \"contracts/StemPayLotteryManager.sol\":9294:9327  toL.participants.push(msg.sender) */\n      dup1\n      sload\n      0x01\n      dup2\n      add\n      dup3\n      sstore\n      0x00\n      swap2\n      dup3\n      mstore\n      0x20\n      dup1\n      dup4\n      keccak256\n      swap1\n      swap2\n      add\n      dup1\n      sload\n      not(sub(shl(0xa0, 0x01), 0x01))\n      and\n        /* \"contracts/StemPayLotteryManager.sol\":9316:9326  msg.sender */\n      caller\n        /* \"contracts/StemPayLotteryManager.sol\":9294:9327  toL.participants.push(msg.sender) */\n      swap1\n      dup2\n      or\n      swap1\n      swap2\n      sstore\n        /* \"contracts/StemPayLotteryManager.sol\":9337:9363  toL.entryCount[msg.sender] */\n      dup3\n      mstore\n        /* \"contracts/StemPayLotteryManager.sol\":9337:9351  toL.entryCount */\n      0x0c\n      dup5\n      add\n        /* \"contracts/StemPayLotteryManager.sol\":9337:9363  toL.entryCount[msg.sender] */\n      swap1\n      mstore\n      0x40\n      dup2\n      keccak256\n        /* \"contracts/StemPayLotteryManager.sol\":9337:9365  toL.entryCount[msg.sender]++ */\n      dup1\n      sload\n      swap2\n      tag_304\n      dup4\n      tag_238\n      jump\t// in\n    tag_304:\n      swap1\n      swap2\n      sstore\n      pop\n      pop\n        /* \"contracts/StemPayLotteryManager.sol\":9381:9413  EnteredLottery(toId, msg.sender) */\n      0x40\n      dup1\n      mload\n        /* \"#utility.yul\":13692:13717   */\n      dup6\n      dup2\n      mstore\n        /* \"contracts/StemPayLotteryManager.sol\":9402:9412  msg.sender */\n      caller\n        /* \"#utility.yul\":13748:13750   */\n      0x20\n        /* \"#utility.yul\":13733:13751   */\n      dup3\n      add\n        /* \"#utility.yul\":13726:13786   */\n      mstore\n        /* \"contracts/StemPayLotteryManager.sol\":9381:9413  EnteredLottery(toId, msg.sender) */\n      0x1e28857182a3b2bb6fbb88287d1ba8cc3a941dd65d4c977286676d27b877a3d9\n      swap2\n        /* \"#utility.yul\":13665:13683   */\n      add\n        /* \"contracts/StemPayLotteryManager.sol\":9381:9413  EnteredLottery(toId, msg.sender) */\n      mload(0x40)\n      dup1\n      swap2\n      sub\n      swap1\n      log1\n        /* \"contracts/StemPayLotteryManager.sol\":8602:9420  {... */\n      pop\n      pop\n      pop\n        /* \"@openzeppelin/contracts/security/ReentrancyGuard.sol\":2303:2323  _nonReentrantAfter() */\n      tag_272\n        /* \"@openzeppelin/contracts/security/ReentrancyGuard.sol\":1716:1717  1 */\n      0x01\n        /* \"@openzeppelin/contracts/security/ReentrancyGuard.sol\":2809:2816  _status */\n      0x00\n        /* \"@openzeppelin/contracts/security/ReentrancyGuard.sol\":2809:2831  _status = _NOT_ENTERED */\n      sstore\n        /* \"@openzeppelin/contracts/security/ReentrancyGuard.sol\":2629:2838  function _nonReentrantAfter() private {... */\n      jump\n        /* \"contracts/StemPayLotteryManager.sol\":4455:5013  function enterLottery(uint256 _lotteryId) external nonReentrant {... */\n    tag_107:\n        /* \"@openzeppelin/contracts/security/ReentrancyGuard.sol\":2261:2282  _nonReentrantBefore() */\n      tag_310\n        /* \"@openzeppelin/contracts/security/ReentrancyGuard.sol\":2261:2280  _nonReentrantBefore */\n      tag_275\n        /* \"@openzeppelin/contracts/security/ReentrancyGuard.sol\":2261:2282  _nonReentrantBefore() */\n      jump\t// in\n    tag_310:\n        /* \"contracts/StemPayLotteryManager.sol\":4529:4546  Lottery storage l */\n      0x00\n        /* \"contracts/StemPayLotteryManager.sol\":4549:4570  lotteries[_lotteryId] */\n      dup2\n      dup2\n      mstore\n        /* \"contracts/StemPayLotteryManager.sol\":4549:4558  lotteries */\n      0x02\n        /* \"contracts/StemPayLotteryManager.sol\":4549:4570  lotteries[_lotteryId] */\n      0x20\n      mstore\n      0x40\n      swap1\n      keccak256\n        /* \"contracts/StemPayLotteryManager.sol\":4588:4598  l.isActive */\n      0x08\n      dup2\n      add\n      sload\n      0xff\n      and\n        /* \"contracts/StemPayLotteryManager.sol\":4588:4616  l.isActive && !l.isCancelled */\n      dup1\n      iszero\n      tag_312\n      jumpi\n      pop\n        /* \"contracts/StemPayLotteryManager.sol\":4603:4616  l.isCancelled */\n      0x08\n      dup2\n      add\n      sload\n      0x010000\n      swap1\n      div\n      0xff\n      and\n        /* \"contracts/StemPayLotteryManager.sol\":4602:4616  !l.isCancelled */\n      iszero\n        /* \"contracts/StemPayLotteryManager.sol\":4588:4616  l.isActive && !l.isCancelled */\n    tag_312:\n        /* \"contracts/StemPayLotteryManager.sol\":4580:4642  require(l.isActive && !l.isCancelled, \"Inactive or cancelled\") */\n      tag_313\n      jumpi\n      mload(0x40)\n      shl(0xe5, 0x461bcd)\n      dup2\n      mstore\n        /* \"#utility.yul\":13999:14001   */\n      0x20\n        /* \"contracts/StemPayLotteryManager.sol\":4580:4642  require(l.isActive && !l.isCancelled, \"Inactive or cancelled\") */\n      0x04\n      dup3\n      add\n        /* \"#utility.yul\":13981:14002   */\n      mstore\n        /* \"#utility.yul\":14038:14040   */\n      0x15\n        /* \"#utility.yul\":14018:14036   */\n      0x24\n      dup3\n      add\n        /* \"#utility.yul\":14011:14041   */\n      mstore\n      shl(0x5a, 0x125b9858dd1a5d99481bdc8818d85b98d95b1b1959)\n        /* \"#utility.yul\":14057:14075   */\n      0x44\n      dup3\n      add\n        /* \"#utility.yul\":14050:14101   */\n      mstore\n        /* \"#utility.yul\":14118:14136   */\n      0x64\n      add\n        /* \"contracts/StemPayLotteryManager.sol\":4580:4642  require(l.isActive && !l.isCancelled, \"Inactive or cancelled\") */\n      tag_270\n        /* \"#utility.yul\":13797:14142   */\n      jump\n        /* \"contracts/StemPayLotteryManager.sol\":4580:4642  require(l.isActive && !l.isCancelled, \"Inactive or cancelled\") */\n    tag_313:\n        /* \"contracts/StemPayLotteryManager.sol\":4678:4679  l */\n      dup1\n        /* \"contracts/StemPayLotteryManager.sol\":4678:4688  l.drawTime */\n      0x04\n      add\n      sload\n        /* \"contracts/StemPayLotteryManager.sol\":4660:4675  block.timestamp */\n      timestamp\n        /* \"contracts/StemPayLotteryManager.sol\":4660:4688  block.timestamp < l.drawTime */\n      lt\n        /* \"contracts/StemPayLotteryManager.sol\":4652:4701  require(block.timestamp < l.drawTime, \"Too late\") */\n      tag_316\n      jumpi\n      mload(0x40)\n      shl(0xe5, 0x461bcd)\n      dup2\n      mstore\n        /* \"#utility.yul\":14349:14351   */\n      0x20\n        /* \"contracts/StemPayLotteryManager.sol\":4652:4701  require(block.timestamp < l.drawTime, \"Too late\") */\n      0x04\n      dup3\n      add\n        /* \"#utility.yul\":14331:14352   */\n      mstore\n        /* \"#utility.yul\":14388:14389   */\n      0x08\n        /* \"#utility.yul\":14368:14386   */\n      0x24\n      dup3\n      add\n        /* \"#utility.yul\":14361:14390   */\n      mstore\n      shl(0xc0, 0x546f6f206c617465)\n        /* \"#utility.yul\":14406:14424   */\n      0x44\n      dup3\n      add\n        /* \"#utility.yul\":14399:14437   */\n      mstore\n        /* \"#utility.yul\":14454:14472   */\n      0x64\n      add\n        /* \"contracts/StemPayLotteryManager.sol\":4652:4701  require(block.timestamp < l.drawTime, \"Too late\") */\n      tag_270\n        /* \"#utility.yul\":14147:14478   */\n      jump\n        /* \"contracts/StemPayLotteryManager.sol\":4652:4701  require(block.timestamp < l.drawTime, \"Too late\") */\n    tag_316:\n        /* \"contracts/StemPayLotteryManager.sol\":4743:4760  l.maxParticipants */\n      0x03\n      dup2\n      add\n      sload\n        /* \"contracts/StemPayLotteryManager.sol\":4719:4733  l.participants */\n      0x09\n      dup3\n      add\n        /* \"contracts/StemPayLotteryManager.sol\":4719:4740  l.participants.length */\n      sload\n        /* \"contracts/StemPayLotteryManager.sol\":4719:4760  l.participants.length < l.maxParticipants */\n      lt\n        /* \"contracts/StemPayLotteryManager.sol\":4711:4781  require(l.participants.length < l.maxParticipants, \"Max participants\") */\n      tag_319\n      jumpi\n      mload(0x40)\n      shl(0xe5, 0x461bcd)\n      dup2\n      mstore\n        /* \"#utility.yul\":14685:14687   */\n      0x20\n        /* \"contracts/StemPayLotteryManager.sol\":4711:4781  require(l.participants.length < l.maxParticipants, \"Max participants\") */\n      0x04\n      dup3\n      add\n        /* \"#utility.yul\":14667:14688   */\n      mstore\n        /* \"#utility.yul\":14724:14726   */\n      0x10\n        /* \"#utility.yul\":14704:14722   */\n      0x24\n      dup3\n      add\n        /* \"#utility.yul\":14697:14727   */\n      mstore\n      shl(0x80, 0x4d6178207061727469636970616e7473)\n        /* \"#utility.yul\":14743:14761   */\n      0x44\n      dup3\n      add\n        /* \"#utility.yul\":14736:14782   */\n      mstore\n        /* \"#utility.yul\":14799:14817   */\n      0x64\n      add\n        /* \"contracts/StemPayLotteryManager.sol\":4711:4781  require(l.participants.length < l.maxParticipants, \"Max participants\") */\n      tag_270\n        /* \"#utility.yul\":14483:14823   */\n      jump\n        /* \"contracts/StemPayLotteryManager.sol\":4711:4781  require(l.participants.length < l.maxParticipants, \"Max participants\") */\n    tag_319:\n        /* \"contracts/StemPayLotteryManager.sol\":4799:4813  l.tokenAddress */\n      dup1\n      sload\n      0x01\n        /* \"contracts/StemPayLotteryManager.sol\":4855:4873  l.participationFee */\n      dup3\n      add\n      sload\n        /* \"contracts/StemPayLotteryManager.sol\":4792:4874  IERC20(l.tokenAddress).transferFrom(msg.sender, address(this), l.participationFee) */\n      mload(0x40)\n      shl(0xe0, 0x23b872dd)\n      dup2\n      mstore\n        /* \"contracts/StemPayLotteryManager.sol\":4828:4838  msg.sender */\n      caller\n        /* \"contracts/StemPayLotteryManager.sol\":4792:4874  IERC20(l.tokenAddress).transferFrom(msg.sender, address(this), l.participationFee) */\n      0x04\n      dup3\n      add\n        /* \"#utility.yul\":13062:13113   */\n      mstore\n        /* \"contracts/StemPayLotteryManager.sol\":4848:4852  this */\n      address\n        /* \"#utility.yul\":13129:13147   */\n      0x24\n      dup3\n      add\n        /* \"#utility.yul\":13122:13182   */\n      mstore\n        /* \"#utility.yul\":13198:13216   */\n      0x44\n      dup2\n      add\n        /* \"#utility.yul\":13191:13225   */\n      swap2\n      swap1\n      swap2\n      mstore\n      sub(shl(0xa0, 0x01), 0x01)\n        /* \"contracts/StemPayLotteryManager.sol\":4799:4813  l.tokenAddress */\n      swap1\n      swap2\n      and\n      swap1\n        /* \"contracts/StemPayLotteryManager.sol\":4792:4827  IERC20(l.tokenAddress).transferFrom */\n      0x23b872dd\n      swap1\n        /* \"#utility.yul\":13035:13053   */\n      0x64\n      add\n        /* \"contracts/StemPayLotteryManager.sol\":4792:4874  IERC20(l.tokenAddress).transferFrom(msg.sender, address(this), l.participationFee) */\n      0x20\n      mload(0x40)\n      dup1\n      dup4\n      sub\n      dup2\n      0x00\n      dup8\n      gas\n      call\n      iszero\n      dup1\n      iszero\n      tag_324\n      jumpi\n      returndatacopy(0x00, 0x00, returndatasize)\n      revert(0x00, returndatasize)\n    tag_324:\n      pop\n      pop\n      pop\n      pop\n      mload(0x40)\n      returndatasize\n      not(0x1f)\n      0x1f\n      dup3\n      add\n      and\n      dup3\n      add\n      dup1\n      0x40\n      mstore\n      pop\n      dup2\n      add\n      swap1\n      tag_325\n      swap2\n      swap1\n      tag_302\n      jump\t// in\n    tag_325:\n      pop\n        /* \"contracts/StemPayLotteryManager.sol\":4885:4899  l.participants */\n      0x09\n      dup2\n      add\n        /* \"contracts/StemPayLotteryManager.sol\":4885:4916  l.participants.push(msg.sender) */\n      dup1\n      sload\n      0x01\n      dup2\n      add\n      dup3\n      sstore\n      0x00\n      swap2\n      dup3\n      mstore\n      0x20\n      dup1\n      dup4\n      keccak256\n      swap1\n      swap2\n      add\n      dup1\n      sload\n      not(sub(shl(0xa0, 0x01), 0x01))\n      and\n        /* \"contracts/StemPayLotteryManager.sol\":4905:4915  msg.sender */\n      caller\n        /* \"contracts/StemPayLotteryManager.sol\":4885:4916  l.participants.push(msg.sender) */\n      swap1\n      dup2\n      or\n      swap1\n      swap2\n      sstore\n        /* \"contracts/StemPayLotteryManager.sol\":4926:4950  l.entryCount[msg.sender] */\n      dup3\n      mstore\n        /* \"contracts/StemPayLotteryManager.sol\":4926:4938  l.entryCount */\n      0x0c\n      dup4\n      add\n        /* \"contracts/StemPayLotteryManager.sol\":4926:4950  l.entryCount[msg.sender] */\n      swap1\n      mstore\n      0x40\n      dup2\n      keccak256\n        /* \"contracts/StemPayLotteryManager.sol\":4926:4952  l.entryCount[msg.sender]++ */\n      dup1\n      sload\n      swap2\n      tag_327\n      dup4\n      tag_238\n      jump\t// in\n    tag_327:\n      swap1\n      swap2\n      sstore\n      pop\n      pop\n        /* \"contracts/StemPayLotteryManager.sol\":4968:5006  EnteredLottery(_lotteryId, msg.sender) */\n      0x40\n      dup1\n      mload\n        /* \"#utility.yul\":13692:13717   */\n      dup4\n      dup2\n      mstore\n        /* \"contracts/StemPayLotteryManager.sol\":4995:5005  msg.sender */\n      caller\n        /* \"#utility.yul\":13748:13750   */\n      0x20\n        /* \"#utility.yul\":13733:13751   */\n      dup3\n      add\n        /* \"#utility.yul\":13726:13786   */\n      mstore\n        /* \"contracts/StemPayLotteryManager.sol\":4968:5006  EnteredLottery(_lotteryId, msg.sender) */\n      0x1e28857182a3b2bb6fbb88287d1ba8cc3a941dd65d4c977286676d27b877a3d9\n      swap2\n        /* \"#utility.yul\":13665:13683   */\n      add\n        /* \"contracts/StemPayLotteryManager.sol\":4968:5006  EnteredLottery(_lotteryId, msg.sender) */\n      mload(0x40)\n      dup1\n      swap2\n      sub\n      swap1\n      log1\n        /* \"contracts/StemPayLotteryManager.sol\":4519:5013  {... */\n      pop\n        /* \"@openzeppelin/contracts/security/ReentrancyGuard.sol\":2303:2323  _nonReentrantAfter() */\n      tag_329\n        /* \"@openzeppelin/contracts/security/ReentrancyGuard.sol\":1716:1717  1 */\n      0x01\n        /* \"@openzeppelin/contracts/security/ReentrancyGuard.sol\":2809:2816  _status */\n      0x00\n        /* \"@openzeppelin/contracts/security/ReentrancyGuard.sol\":2809:2831  _status = _NOT_ENTERED */\n      sstore\n        /* \"@openzeppelin/contracts/security/ReentrancyGuard.sol\":2629:2838  function _nonReentrantAfter() private {... */\n      jump\n        /* \"@openzeppelin/contracts/security/ReentrancyGuard.sol\":2303:2323  _nonReentrantAfter() */\n    tag_329:\n        /* \"contracts/StemPayLotteryManager.sol\":4455:5013  function enterLottery(uint256 _lotteryId) external nonReentrant {... */\n      pop\n      jump\t// out\n        /* \"contracts/StemPayLotteryManager.sol\":3414:4448  function createLottery(... */\n    tag_117:\n        /* \"@openzeppelin/contracts-upgradeable/access/OwnableUpgradeable.sol\":2334:2347  _checkOwner() */\n      tag_332\n        /* \"@openzeppelin/contracts-upgradeable/access/OwnableUpgradeable.sol\":2334:2345  _checkOwner */\n      tag_216\n        /* \"@openzeppelin/contracts-upgradeable/access/OwnableUpgradeable.sol\":2334:2347  _checkOwner() */\n      jump\t// in\n    tag_332:\n        /* \"contracts/StemPayLotteryManager.sol\":3757:3774  _refundableAmount */\n      dup6\n        /* \"contracts/StemPayLotteryManager.sol\":3736:3753  _participationFee */\n      dup8\n        /* \"contracts/StemPayLotteryManager.sol\":3736:3774  _participationFee >= _refundableAmount */\n      lt\n      iszero\n        /* \"contracts/StemPayLotteryManager.sol\":3728:3792  require(_participationFee >= _refundableAmount, \"Refund <= fee\") */\n      tag_334\n      jumpi\n      mload(0x40)\n      shl(0xe5, 0x461bcd)\n      dup2\n      mstore\n        /* \"#utility.yul\":15030:15032   */\n      0x20\n        /* \"contracts/StemPayLotteryManager.sol\":3728:3792  require(_participationFee >= _refundableAmount, \"Refund <= fee\") */\n      0x04\n      dup3\n      add\n        /* \"#utility.yul\":15012:15033   */\n      mstore\n        /* \"#utility.yul\":15069:15071   */\n      0x0d\n        /* \"#utility.yul\":15049:15067   */\n      0x24\n      dup3\n      add\n        /* \"#utility.yul\":15042:15072   */\n      mstore\n      shl(0x98, 0x526566756e64203c3d20666565)\n        /* \"#utility.yul\":15088:15106   */\n      0x44\n      dup3\n      add\n        /* \"#utility.yul\":15081:15124   */\n      mstore\n        /* \"#utility.yul\":15141:15159   */\n      0x64\n      add\n        /* \"contracts/StemPayLotteryManager.sol\":3728:3792  require(_participationFee >= _refundableAmount, \"Refund <= fee\") */\n      tag_270\n        /* \"#utility.yul\":14828:15165   */\n      jump\n        /* \"contracts/StemPayLotteryManager.sol\":3728:3792  require(_participationFee >= _refundableAmount, \"Refund <= fee\") */\n    tag_334:\n        /* \"contracts/StemPayLotteryManager.sol\":3822:3837  block.timestamp */\n      timestamp\n        /* \"contracts/StemPayLotteryManager.sol\":3810:3819  _drawTime */\n      dup5\n        /* \"contracts/StemPayLotteryManager.sol\":3810:3837  _drawTime > block.timestamp */\n      gt\n        /* \"contracts/StemPayLotteryManager.sol\":3802:3859  require(_drawTime > block.timestamp, \"Invalid draw time\") */\n      tag_337\n      jumpi\n      mload(0x40)\n      shl(0xe5, 0x461bcd)\n      dup2\n      mstore\n        /* \"#utility.yul\":15372:15374   */\n      0x20\n        /* \"contracts/StemPayLotteryManager.sol\":3802:3859  require(_drawTime > block.timestamp, \"Invalid draw time\") */\n      0x04\n      dup3\n      add\n        /* \"#utility.yul\":15354:15375   */\n      mstore\n        /* \"#utility.yul\":15411:15413   */\n      0x11\n        /* \"#utility.yul\":15391:15409   */\n      0x24\n      dup3\n      add\n        /* \"#utility.yul\":15384:15414   */\n      mstore\n      shl(0x78, 0x496e76616c696420647261772074696d65)\n        /* \"#utility.yul\":15430:15448   */\n      0x44\n      dup3\n      add\n        /* \"#utility.yul\":15423:15470   */\n      mstore\n        /* \"#utility.yul\":15487:15505   */\n      0x64\n      add\n        /* \"contracts/StemPayLotteryManager.sol\":3802:3859  require(_drawTime > block.timestamp, \"Invalid draw time\") */\n      tag_270\n        /* \"#utility.yul\":15170:15511   */\n      jump\n        /* \"contracts/StemPayLotteryManager.sol\":3802:3859  require(_drawTime > block.timestamp, \"Invalid draw time\") */\n    tag_337:\n        /* \"contracts/StemPayLotteryManager.sol\":3870:3884  lotteryCounter */\n      0x03\n        /* \"contracts/StemPayLotteryManager.sol\":3870:3886  lotteryCounter++ */\n      dup1\n      sload\n      swap1\n        /* \"contracts/StemPayLotteryManager.sol\":3870:3884  lotteryCounter */\n      0x00\n        /* \"contracts/StemPayLotteryManager.sol\":3870:3886  lotteryCounter++ */\n      tag_340\n      dup4\n      tag_238\n      jump\t// in\n    tag_340:\n      swap1\n      swap2\n      sstore\n      pop\n      pop\n        /* \"contracts/StemPayLotteryManager.sol\":3926:3940  lotteryCounter */\n      0x03\n      dup1\n      sload\n        /* \"contracts/StemPayLotteryManager.sol\":3896:3913  Lottery storage l */\n      0x00\n        /* \"contracts/StemPayLotteryManager.sol\":3916:3941  lotteries[lotteryCounter] */\n      swap1\n      dup2\n      mstore\n        /* \"contracts/StemPayLotteryManager.sol\":3916:3925  lotteries */\n      0x02\n        /* \"contracts/StemPayLotteryManager.sol\":3916:3941  lotteries[lotteryCounter] */\n      0x20\n      dup2\n      dup2\n      mstore\n      0x40\n      dup1\n      dup5\n      keccak256\n        /* \"contracts/StemPayLotteryManager.sol\":3951:3981  l.tokenAddress = _tokenAddress */\n      dup1\n      sload\n      not(sub(shl(0xa0, 0x01), 0x01))\n      and\n      sub(shl(0xa0, 0x01), 0x01)\n      dup16\n      and\n      or\n      dup2\n      sstore\n      0x01\n        /* \"contracts/StemPayLotteryManager.sol\":3991:4009  l.participationFee */\n      dup1\n      dup3\n      add\n        /* \"contracts/StemPayLotteryManager.sol\":3991:4029  l.participationFee = _participationFee */\n      dup15\n      swap1\n      sstore\n        /* \"contracts/StemPayLotteryManager.sol\":4039:4057  l.refundableAmount */\n      swap4\n      dup2\n      add\n        /* \"contracts/StemPayLotteryManager.sol\":4039:4077  l.refundableAmount = _refundableAmount */\n      dup13\n      swap1\n      sstore\n        /* \"contracts/StemPayLotteryManager.sol\":4087:4104  l.maxParticipants */\n      dup1\n      dup7\n      add\n        /* \"contracts/StemPayLotteryManager.sol\":4087:4123  l.maxParticipants = _maxParticipants */\n      dup12\n      swap1\n      sstore\n        /* \"contracts/StemPayLotteryManager.sol\":4133:4143  l.drawTime */\n      0x04\n      dup2\n      add\n        /* \"contracts/StemPayLotteryManager.sol\":4133:4155  l.drawTime = _drawTime */\n      dup11\n      swap1\n      sstore\n        /* \"contracts/StemPayLotteryManager.sol\":4165:4178  l.prizeAmount */\n      0x05\n      dup2\n      add\n        /* \"contracts/StemPayLotteryManager.sol\":4165:4193  l.prizeAmount = _prizeAmount */\n      dup10\n      swap1\n      sstore\n        /* \"contracts/StemPayLotteryManager.sol\":4203:4220  l.feeToInvestment */\n      0x06\n      dup2\n      add\n        /* \"contracts/StemPayLotteryManager.sol\":4203:4239  l.feeToInvestment = _feeToInvestment */\n      dup9\n      swap1\n      sstore\n        /* \"contracts/StemPayLotteryManager.sol\":4249:4262  l.feeToProfit */\n      0x07\n      dup2\n      add\n        /* \"contracts/StemPayLotteryManager.sol\":4249:4277  l.feeToProfit = _feeToProfit */\n      dup8\n      swap1\n      sstore\n        /* \"contracts/StemPayLotteryManager.sol\":4287:4297  l.isActive */\n      0x08\n      dup2\n      add\n        /* \"contracts/StemPayLotteryManager.sol\":4287:4304  l.isActive = true */\n      dup1\n      sload\n      not(0xff)\n      and\n      dup6\n      or\n      swap1\n      sstore\n        /* \"contracts/StemPayLotteryManager.sol\":4334:4348  lotteryCounter */\n      swap5\n      sload\n        /* \"contracts/StemPayLotteryManager.sol\":4315:4328  allLotteryIds */\n      0x0a\n        /* \"contracts/StemPayLotteryManager.sol\":4315:4349  allLotteryIds.push(lotteryCounter) */\n      dup1\n      sload\n      swap5\n      dup6\n      add\n      dup2\n      sstore\n      swap1\n      swap5\n      mstore\n      0xc65a7bb8d6351c1cf70c95a316cc6a92839c986682d98bc35f958f4883f9d2a8\n      swap1\n      swap3\n      add\n      dup4\n      swap1\n      sstore\n        /* \"contracts/StemPayLotteryManager.sol\":4411:4441  LotteryCreated(lotteryCounter) */\n      swap1\n      mload\n        /* \"#utility.yul\":2180:2205   */\n      swap2\n      dup3\n      mstore\n        /* \"contracts/StemPayLotteryManager.sol\":4411:4441  LotteryCreated(lotteryCounter) */\n      0x9e0023bebcc752baaa41057318405b5a6a8e9c6372b519717cfdf238e5caa795\n      swap2\n        /* \"#utility.yul\":2153:2171   */\n      add\n        /* \"contracts/StemPayLotteryManager.sol\":4411:4441  LotteryCreated(lotteryCounter) */\n      mload(0x40)\n      dup1\n      swap2\n      sub\n      swap1\n      log1\n        /* \"contracts/StemPayLotteryManager.sol\":3718:4448  {... */\n      pop\n        /* \"contracts/StemPayLotteryManager.sol\":3414:4448  function createLottery(... */\n      pop\n      pop\n      pop\n      pop\n      pop\n      pop\n      pop\n      pop\n      jump\t// out\n        /* \"contracts/StemPayLotteryManager.sol\":7119:7380  function cancelLottery(uint256 _lotteryId) external onlyOwner {... */\n    tag_121:\n        /* \"@openzeppelin/contracts-upgradeable/access/OwnableUpgradeable.sol\":2334:2347  _checkOwner() */\n      tag_344\n        /* \"@openzeppelin/contracts-upgradeable/access/OwnableUpgradeable.sol\":2334:2345  _checkOwner */\n      tag_216\n        /* \"@openzeppelin/contracts-upgradeable/access/OwnableUpgradeable.sol\":2334:2347  _checkOwner() */\n      jump\t// in\n    tag_344:\n        /* \"contracts/StemPayLotteryManager.sol\":7191:7208  Lottery storage l */\n      0x00\n        /* \"contracts/StemPayLotteryManager.sol\":7211:7232  lotteries[_lotteryId] */\n      dup2\n      dup2\n      mstore\n        /* \"contracts/StemPayLotteryManager.sol\":7211:7220  lotteries */\n      0x02\n        /* \"contracts/StemPayLotteryManager.sol\":7211:7232  lotteries[_lotteryId] */\n      0x20\n      mstore\n      0x40\n      swap1\n      keccak256\n        /* \"contracts/StemPayLotteryManager.sol\":7251:7264  l.isCancelled */\n      0x08\n      dup2\n      add\n      sload\n      0x010000\n      swap1\n      div\n      0xff\n      and\n        /* \"contracts/StemPayLotteryManager.sol\":7250:7264  !l.isCancelled */\n      iszero\n        /* \"contracts/StemPayLotteryManager.sol\":7250:7278  !l.isCancelled && !l.isDrawn */\n      dup1\n      iszero\n      tag_346\n      jumpi\n      pop\n        /* \"contracts/StemPayLotteryManager.sol\":7269:7278  l.isDrawn */\n      0x08\n      dup2\n      add\n      sload\n      0x0100\n      swap1\n      div\n      0xff\n      and\n        /* \"contracts/StemPayLotteryManager.sol\":7268:7278  !l.isDrawn */\n      iszero\n        /* \"contracts/StemPayLotteryManager.sol\":7250:7278  !l.isCancelled && !l.isDrawn */\n    tag_346:\n        /* \"contracts/StemPayLotteryManager.sol\":7242:7300  require(!l.isCancelled && !l.isDrawn, \"Already finalized\") */\n      tag_347\n      jumpi\n      mload(0x40)\n      shl(0xe5, 0x461bcd)\n      dup2\n      mstore\n        /* \"#utility.yul\":15718:15720   */\n      0x20\n        /* \"contracts/StemPayLotteryManager.sol\":7242:7300  require(!l.isCancelled && !l.isDrawn, \"Already finalized\") */\n      0x04\n      dup3\n      add\n        /* \"#utility.yul\":15700:15721   */\n      mstore\n        /* \"#utility.yul\":15757:15759   */\n      0x11\n        /* \"#utility.yul\":15737:15755   */\n      0x24\n      dup3\n      add\n        /* \"#utility.yul\":15730:15760   */\n      mstore\n      shl(0x7a, 0x105b1c9958591e48199a5b985b1a5e9959)\n        /* \"#utility.yul\":15776:15794   */\n      0x44\n      dup3\n      add\n        /* \"#utility.yul\":15769:15816   */\n      mstore\n        /* \"#utility.yul\":15833:15851   */\n      0x64\n      add\n        /* \"contracts/StemPayLotteryManager.sol\":7242:7300  require(!l.isCancelled && !l.isDrawn, \"Already finalized\") */\n      tag_270\n        /* \"#utility.yul\":15516:15857   */\n      jump\n        /* \"contracts/StemPayLotteryManager.sol\":7242:7300  require(!l.isCancelled && !l.isDrawn, \"Already finalized\") */\n    tag_347:\n        /* \"contracts/StemPayLotteryManager.sol\":7310:7323  l.isCancelled */\n      0x08\n      dup2\n      add\n        /* \"contracts/StemPayLotteryManager.sol\":7310:7330  l.isCancelled = true */\n      dup1\n      sload\n      not(0xff0000)\n      and\n      0x010000\n      or\n      swap1\n      sstore\n        /* \"contracts/StemPayLotteryManager.sol\":7345:7373  LotteryCancelled(_lotteryId) */\n      mload(0x40)\n      0xc3dac690cf4c3ae8964f18b8f09f7f9a75d3962a8cbb7cd689df2c291bb5b2dd\n      swap1\n      tag_350\n      swap1\n        /* \"contracts/StemPayLotteryManager.sol\":7362:7372  _lotteryId */\n      dup5\n        /* \"#utility.yul\":2180:2205   */\n      dup2\n      mstore\n        /* \"#utility.yul\":2168:2170   */\n      0x20\n        /* \"#utility.yul\":2153:2171   */\n      add\n      swap1\n        /* \"#utility.yul\":2034:2211   */\n      jump\n        /* \"contracts/StemPayLotteryManager.sol\":7345:7373  LotteryCancelled(_lotteryId) */\n    tag_350:\n      mload(0x40)\n      dup1\n      swap2\n      sub\n      swap1\n      log1\n        /* \"contracts/StemPayLotteryManager.sol\":7181:7380  {... */\n      pop\n        /* \"contracts/StemPayLotteryManager.sol\":7119:7380  function cancelLottery(uint256 _lotteryId) external onlyOwner {... */\n      pop\n      jump\t// out\n        /* \"@openzeppelin/contracts-upgradeable/proxy/utils/UUPSUpgradeable.sol\":4161:4375  function upgradeToAndCall(address newImplementation, bytes memory data) public payable virtual onlyProxy {... */\n    tag_129:\n        /* \"@openzeppelin/contracts-upgradeable/proxy/utils/UUPSUpgradeable.sol\":2655:2668  _checkProxy() */\n      tag_352\n        /* \"@openzeppelin/contracts-upgradeable/proxy/utils/UUPSUpgradeable.sol\":2655:2666  _checkProxy */\n      tag_353\n        /* \"@openzeppelin/contracts-upgradeable/proxy/utils/UUPSUpgradeable.sol\":2655:2668  _checkProxy() */\n      jump\t// in\n    tag_352:\n        /* \"@openzeppelin/contracts-upgradeable/proxy/utils/UUPSUpgradeable.sol\":4276:4312  _authorizeUpgrade(newImplementation) */\n      tag_355\n        /* \"@openzeppelin/contracts-upgradeable/proxy/utils/UUPSUpgradeable.sol\":4294:4311  newImplementation */\n      dup3\n        /* \"@openzeppelin/contracts-upgradeable/proxy/utils/UUPSUpgradeable.sol\":4276:4293  _authorizeUpgrade */\n      tag_356\n        /* \"@openzeppelin/contracts-upgradeable/proxy/utils/UUPSUpgradeable.sol\":4276:4312  _authorizeUpgrade(newImplementation) */\n      jump\t// in\n    tag_355:\n        /* \"@openzeppelin/contracts-upgradeable/proxy/utils/UUPSUpgradeable.sol\":4322:4368  _upgradeToAndCallUUPS(newImplementation, data) */\n      tag_272\n        /* \"@openzeppelin/contracts-upgradeable/proxy/utils/UUPSUpgradeable.sol\":4344:4361  newImplementation */\n      dup3\n        /* \"@openzeppelin/contracts-upgradeable/proxy/utils/UUPSUpgradeable.sol\":4363:4367  data */\n      dup3\n        /* \"@openzeppelin/contracts-upgradeable/proxy/utils/UUPSUpgradeable.sol\":4322:4343  _upgradeToAndCallUUPS */\n      tag_358\n        /* \"@openzeppelin/contracts-upgradeable/proxy/utils/UUPSUpgradeable.sol\":4322:4368  _upgradeToAndCallUUPS(newImplementation, data) */\n      jump\t// in\n        /* \"@openzeppelin/contracts-upgradeable/proxy/utils/UUPSUpgradeable.sol\":3708:3842  function proxiableUUID() external view virtual notDelegated returns (bytes32) {... */\n    tag_132:\n        /* \"@openzeppelin/contracts-upgradeable/proxy/utils/UUPSUpgradeable.sol\":3777:3784  bytes32 */\n      0x00\n        /* \"@openzeppelin/contracts-upgradeable/proxy/utils/UUPSUpgradeable.sol\":2926:2946  _checkNotDelegated() */\n      tag_360\n        /* \"@openzeppelin/contracts-upgradeable/proxy/utils/UUPSUpgradeable.sol\":2926:2944  _checkNotDelegated */\n      tag_361\n        /* \"@openzeppelin/contracts-upgradeable/proxy/utils/UUPSUpgradeable.sol\":2926:2946  _checkNotDelegated() */\n      jump\t// in\n    tag_360:\n      pop\n      mload(0x00)\n      codecopy(0x00, data_75b20eef8615de99c108b05f0dbda081c91897128caa336d75dffb97c4132b4d, 0x20)\n      mload(0x00)\n      swap1\n      0x00\n      mstore\n        /* \"@openzeppelin/contracts-upgradeable/proxy/utils/UUPSUpgradeable.sol\":3708:3842  function proxiableUUID() external view virtual notDelegated returns (bytes32) {... */\n      swap1\n      jump\t// out\n        /* \"contracts/StemPayLotteryManager.sol\":7386:7898  function claimRefund(uint256 _lotteryId) external nonReentrant {... */\n    tag_138:\n        /* \"@openzeppelin/contracts/security/ReentrancyGuard.sol\":2261:2282  _nonReentrantBefore() */\n      tag_364\n        /* \"@openzeppelin/contracts/security/ReentrancyGuard.sol\":2261:2280  _nonReentrantBefore */\n      tag_275\n        /* \"@openzeppelin/contracts/security/ReentrancyGuard.sol\":2261:2282  _nonReentrantBefore() */\n      jump\t// in\n    tag_364:\n        /* \"contracts/StemPayLotteryManager.sol\":7459:7476  Lottery storage l */\n      0x00\n        /* \"contracts/StemPayLotteryManager.sol\":7479:7500  lotteries[_lotteryId] */\n      dup2\n      dup2\n      mstore\n        /* \"contracts/StemPayLotteryManager.sol\":7479:7488  lotteries */\n      0x02\n        /* \"contracts/StemPayLotteryManager.sol\":7479:7500  lotteries[_lotteryId] */\n      0x20\n      mstore\n      0x40\n      swap1\n      keccak256\n        /* \"contracts/StemPayLotteryManager.sol\":7518:7531  l.isCancelled */\n      0x08\n      dup2\n      add\n      sload\n      0x010000\n      swap1\n      div\n      0xff\n      and\n      dup1\n        /* \"contracts/StemPayLotteryManager.sol\":7518:7572  l.isCancelled || (l.isDrawn && l.winner != msg.sender) */\n      tag_367\n      jumpi\n      pop\n        /* \"contracts/StemPayLotteryManager.sol\":7536:7545  l.isDrawn */\n      0x08\n      dup2\n      add\n      sload\n      0x0100\n      swap1\n      div\n      0xff\n      and\n        /* \"contracts/StemPayLotteryManager.sol\":7536:7571  l.isDrawn && l.winner != msg.sender */\n      dup1\n      iszero\n      tag_367\n      jumpi\n      pop\n        /* \"contracts/StemPayLotteryManager.sol\":7549:7557  l.winner */\n      0x0a\n      dup2\n      add\n      sload\n      sub(shl(0xa0, 0x01), 0x01)\n      and\n        /* \"contracts/StemPayLotteryManager.sol\":7561:7571  msg.sender */\n      caller\n        /* \"contracts/StemPayLotteryManager.sol\":7549:7571  l.winner != msg.sender */\n      eq\n      iszero\n        /* \"contracts/StemPayLotteryManager.sol\":7536:7571  l.isDrawn && l.winner != msg.sender */\n    tag_367:\n        /* \"contracts/StemPayLotteryManager.sol\":7510:7589  require(l.isCancelled || (l.isDrawn && l.winner != msg.sender), \"Not eligible\") */\n      tag_368\n      jumpi\n      mload(0x40)\n      shl(0xe5, 0x461bcd)\n      dup2\n      mstore\n        /* \"#utility.yul\":16064:16066   */\n      0x20\n        /* \"contracts/StemPayLotteryManager.sol\":7510:7589  require(l.isCancelled || (l.isDrawn && l.winner != msg.sender), \"Not eligible\") */\n      0x04\n      dup3\n      add\n        /* \"#utility.yul\":16046:16067   */\n      mstore\n        /* \"#utility.yul\":16103:16105   */\n      0x0c\n        /* \"#utility.yul\":16083:16101   */\n      0x24\n      dup3\n      add\n        /* \"#utility.yul\":16076:16106   */\n      mstore\n      shl(0xa0, 0x4e6f7420656c696769626c65)\n        /* \"#utility.yul\":16122:16140   */\n      0x44\n      dup3\n      add\n        /* \"#utility.yul\":16115:16157   */\n      mstore\n        /* \"#utility.yul\":16174:16192   */\n      0x64\n      add\n        /* \"contracts/StemPayLotteryManager.sol\":7510:7589  require(l.isCancelled || (l.isDrawn && l.winner != msg.sender), \"Not eligible\") */\n      tag_270\n        /* \"#utility.yul\":15862:16198   */\n      jump\n        /* \"contracts/StemPayLotteryManager.sol\":7510:7589  require(l.isCancelled || (l.isDrawn && l.winner != msg.sender), \"Not eligible\") */\n    tag_368:\n        /* \"contracts/StemPayLotteryManager.sol\":7622:7632  msg.sender */\n      caller\n        /* \"contracts/StemPayLotteryManager.sol\":7608:7633  l.hasRefunded[msg.sender] */\n      0x00\n      swap1\n      dup2\n      mstore\n        /* \"contracts/StemPayLotteryManager.sol\":7608:7621  l.hasRefunded */\n      0x0e\n      dup3\n      add\n        /* \"contracts/StemPayLotteryManager.sol\":7608:7633  l.hasRefunded[msg.sender] */\n      0x20\n      mstore\n      0x40\n      swap1\n      keccak256\n      sload\n      0xff\n      and\n        /* \"contracts/StemPayLotteryManager.sol\":7607:7633  !l.hasRefunded[msg.sender] */\n      iszero\n        /* \"contracts/StemPayLotteryManager.sol\":7599:7654  require(!l.hasRefunded[msg.sender], \"Already refunded\") */\n      tag_371\n      jumpi\n      mload(0x40)\n      shl(0xe5, 0x461bcd)\n      dup2\n      mstore\n        /* \"#utility.yul\":16405:16407   */\n      0x20\n        /* \"contracts/StemPayLotteryManager.sol\":7599:7654  require(!l.hasRefunded[msg.sender], \"Already refunded\") */\n      0x04\n      dup3\n      add\n        /* \"#utility.yul\":16387:16408   */\n      mstore\n        /* \"#utility.yul\":16444:16446   */\n      0x10\n        /* \"#utility.yul\":16424:16442   */\n      0x24\n      dup3\n      add\n        /* \"#utility.yul\":16417:16447   */\n      mstore\n      shl(0x82, 0x105b1c9958591e481c99599d5b991959)\n        /* \"#utility.yul\":16463:16481   */\n      0x44\n      dup3\n      add\n        /* \"#utility.yul\":16456:16502   */\n      mstore\n        /* \"#utility.yul\":16519:16537   */\n      0x64\n      add\n        /* \"contracts/StemPayLotteryManager.sol\":7599:7654  require(!l.hasRefunded[msg.sender], \"Already refunded\") */\n      tag_270\n        /* \"#utility.yul\":16203:16543   */\n      jump\n        /* \"contracts/StemPayLotteryManager.sol\":7599:7654  require(!l.hasRefunded[msg.sender], \"Already refunded\") */\n    tag_371:\n        /* \"contracts/StemPayLotteryManager.sol\":7685:7695  msg.sender */\n      caller\n        /* \"contracts/StemPayLotteryManager.sol\":7699:7700  0 */\n      0x00\n        /* \"contracts/StemPayLotteryManager.sol\":7672:7696  l.entryCount[msg.sender] */\n      swap1\n      dup2\n      mstore\n        /* \"contracts/StemPayLotteryManager.sol\":7672:7684  l.entryCount */\n      0x0c\n      dup3\n      add\n        /* \"contracts/StemPayLotteryManager.sol\":7672:7696  l.entryCount[msg.sender] */\n      0x20\n      mstore\n      0x40\n      swap1\n      keccak256\n      sload\n        /* \"contracts/StemPayLotteryManager.sol\":7664:7715  require(l.entryCount[msg.sender] > 0, \"No entries\") */\n      tag_374\n      jumpi\n      mload(0x40)\n      shl(0xe5, 0x461bcd)\n      dup2\n      mstore\n        /* \"#utility.yul\":16750:16752   */\n      0x20\n        /* \"contracts/StemPayLotteryManager.sol\":7664:7715  require(l.entryCount[msg.sender] > 0, \"No entries\") */\n      0x04\n      dup3\n      add\n        /* \"#utility.yul\":16732:16753   */\n      mstore\n        /* \"#utility.yul\":16789:16791   */\n      0x0a\n        /* \"#utility.yul\":16769:16787   */\n      0x24\n      dup3\n      add\n        /* \"#utility.yul\":16762:16792   */\n      mstore\n      shl(0xb0, 0x4e6f20656e7472696573)\n        /* \"#utility.yul\":16808:16826   */\n      0x44\n      dup3\n      add\n        /* \"#utility.yul\":16801:16841   */\n      mstore\n        /* \"#utility.yul\":16858:16876   */\n      0x64\n      add\n        /* \"contracts/StemPayLotteryManager.sol\":7664:7715  require(l.entryCount[msg.sender] > 0, \"No entries\") */\n      tag_270\n        /* \"#utility.yul\":16548:16882   */\n      jump\n        /* \"contracts/StemPayLotteryManager.sol\":7664:7715  require(l.entryCount[msg.sender] > 0, \"No entries\") */\n    tag_374:\n        /* \"contracts/StemPayLotteryManager.sol\":7740:7750  msg.sender */\n      caller\n        /* \"contracts/StemPayLotteryManager.sol\":7726:7751  l.hasRefunded[msg.sender] */\n      0x00\n      swap1\n      dup2\n      mstore\n        /* \"contracts/StemPayLotteryManager.sol\":7726:7739  l.hasRefunded */\n      0x0e\n      dup3\n      add\n        /* \"contracts/StemPayLotteryManager.sol\":7726:7751  l.hasRefunded[msg.sender] */\n      0x20\n      swap1\n      dup2\n      mstore\n      0x40\n      dup1\n      dup4\n      keccak256\n        /* \"contracts/StemPayLotteryManager.sol\":7726:7758  l.hasRefunded[msg.sender] = true */\n      dup1\n      sload\n      not(0xff)\n      and\n        /* \"contracts/StemPayLotteryManager.sol\":7754:7758  true */\n      0x01\n        /* \"contracts/StemPayLotteryManager.sol\":7726:7758  l.hasRefunded[msg.sender] = true */\n      or\n      swap1\n      sstore\n        /* \"contracts/StemPayLotteryManager.sol\":7806:7818  l.entryCount */\n      0x0c\n      dup5\n      add\n        /* \"contracts/StemPayLotteryManager.sol\":7806:7830  l.entryCount[msg.sender] */\n      swap1\n      swap2\n      mstore\n      dup2\n      keccak256\n      sload\n        /* \"contracts/StemPayLotteryManager.sol\":7785:7803  l.refundableAmount */\n      0x02\n      dup4\n      add\n      sload\n        /* \"contracts/StemPayLotteryManager.sol\":7785:7830  l.refundableAmount * l.entryCount[msg.sender] */\n      tag_377\n      swap2\n        /* \"contracts/StemPayLotteryManager.sol\":7806:7830  l.entryCount[msg.sender] */\n      swap1\n        /* \"contracts/StemPayLotteryManager.sol\":7785:7830  l.refundableAmount * l.entryCount[msg.sender] */\n      tag_378\n      jump\t// in\n    tag_377:\n        /* \"contracts/StemPayLotteryManager.sol\":7847:7861  l.tokenAddress */\n      dup3\n      sload\n        /* \"contracts/StemPayLotteryManager.sol\":7840:7891  IERC20(l.tokenAddress).transfer(msg.sender, amount) */\n      mload(0x40)\n      shl(0xe0, 0xa9059cbb)\n      dup2\n      mstore\n        /* \"contracts/StemPayLotteryManager.sol\":7872:7882  msg.sender */\n      caller\n        /* \"contracts/StemPayLotteryManager.sol\":7840:7891  IERC20(l.tokenAddress).transfer(msg.sender, amount) */\n      0x04\n      dup3\n      add\n        /* \"#utility.yul\":17234:17285   */\n      mstore\n        /* \"#utility.yul\":17301:17319   */\n      0x24\n      dup2\n      add\n        /* \"#utility.yul\":17294:17328   */\n      dup4\n      swap1\n      mstore\n        /* \"contracts/StemPayLotteryManager.sol\":7768:7830  uint256 amount = l.refundableAmount * l.entryCount[msg.sender] */\n      swap2\n      swap3\n      pop\n      sub(shl(0xa0, 0x01), 0x01)\n        /* \"contracts/StemPayLotteryManager.sol\":7847:7861  l.tokenAddress */\n      and\n      swap1\n        /* \"contracts/StemPayLotteryManager.sol\":7840:7871  IERC20(l.tokenAddress).transfer */\n      0xa9059cbb\n      swap1\n        /* \"#utility.yul\":17207:17225   */\n      0x44\n      add\n        /* \"contracts/StemPayLotteryManager.sol\":7840:7891  IERC20(l.tokenAddress).transfer(msg.sender, amount) */\n      0x20\n      mload(0x40)\n      dup1\n      dup4\n      sub\n      dup2\n      0x00\n      dup8\n      gas\n      call\n      iszero\n      dup1\n      iszero\n      tag_382\n      jumpi\n      returndatacopy(0x00, 0x00, returndatasize)\n      revert(0x00, returndatasize)\n    tag_382:\n      pop\n      pop\n      pop\n      pop\n      mload(0x40)\n      returndatasize\n      not(0x1f)\n      0x1f\n      dup3\n      add\n      and\n      dup3\n      add\n      dup1\n      0x40\n      mstore\n      pop\n      dup2\n      add\n      swap1\n      tag_383\n      swap2\n      swap1\n      tag_302\n      jump\t// in\n    tag_383:\n      pop\n        /* \"contracts/StemPayLotteryManager.sol\":7449:7898  {... */\n      pop\n      pop\n        /* \"@openzeppelin/contracts/security/ReentrancyGuard.sol\":2303:2323  _nonReentrantAfter() */\n      tag_329\n        /* \"@openzeppelin/contracts/security/ReentrancyGuard.sol\":1716:1717  1 */\n      0x01\n        /* \"@openzeppelin/contracts/security/ReentrancyGuard.sol\":2809:2816  _status */\n      0x00\n        /* \"@openzeppelin/contracts/security/ReentrancyGuard.sol\":2809:2831  _status = _NOT_ENTERED */\n      sstore\n        /* \"@openzeppelin/contracts/security/ReentrancyGuard.sol\":2629:2838  function _nonReentrantAfter() private {... */\n      jump\n        /* \"contracts/StemPayLotteryManager.sol\":5482:6468  function drawWinner(uint256 _lotteryId) external onlyOwner {... */\n    tag_142:\n        /* \"@openzeppelin/contracts-upgradeable/access/OwnableUpgradeable.sol\":2334:2347  _checkOwner() */\n      tag_386\n        /* \"@openzeppelin/contracts-upgradeable/access/OwnableUpgradeable.sol\":2334:2345  _checkOwner */\n      tag_216\n        /* \"@openzeppelin/contracts-upgradeable/access/OwnableUpgradeable.sol\":2334:2347  _checkOwner() */\n      jump\t// in\n    tag_386:\n        /* \"contracts/StemPayLotteryManager.sol\":5551:5568  Lottery storage l */\n      0x00\n        /* \"contracts/StemPayLotteryManager.sol\":5571:5592  lotteries[_lotteryId] */\n      dup2\n      dup2\n      mstore\n        /* \"contracts/StemPayLotteryManager.sol\":5571:5580  lotteries */\n      0x02\n        /* \"contracts/StemPayLotteryManager.sol\":5571:5592  lotteries[_lotteryId] */\n      0x20\n      mstore\n      0x40\n      swap1\n      keccak256\n        /* \"contracts/StemPayLotteryManager.sol\":5629:5639  l.drawTime */\n      0x04\n      dup2\n      add\n      sload\n        /* \"contracts/StemPayLotteryManager.sol\":5610:5625  block.timestamp */\n      timestamp\n        /* \"contracts/StemPayLotteryManager.sol\":5610:5639  block.timestamp >= l.drawTime */\n      lt\n      iszero\n        /* \"contracts/StemPayLotteryManager.sol\":5602:5653  require(block.timestamp >= l.drawTime, \"Too early\") */\n      tag_388\n      jumpi\n      mload(0x40)\n      shl(0xe5, 0x461bcd)\n      dup2\n      mstore\n        /* \"#utility.yul\":17541:17543   */\n      0x20\n        /* \"contracts/StemPayLotteryManager.sol\":5602:5653  require(block.timestamp >= l.drawTime, \"Too early\") */\n      0x04\n      dup3\n      add\n        /* \"#utility.yul\":17523:17544   */\n      mstore\n        /* \"#utility.yul\":17580:17581   */\n      0x09\n        /* \"#utility.yul\":17560:17578   */\n      0x24\n      dup3\n      add\n        /* \"#utility.yul\":17553:17582   */\n      mstore\n      shl(0xb8, 0x546f6f206561726c79)\n        /* \"#utility.yul\":17598:17616   */\n      0x44\n      dup3\n      add\n        /* \"#utility.yul\":17591:17630   */\n      mstore\n        /* \"#utility.yul\":17647:17665   */\n      0x64\n      add\n        /* \"contracts/StemPayLotteryManager.sol\":5602:5653  require(block.timestamp >= l.drawTime, \"Too early\") */\n      tag_270\n        /* \"#utility.yul\":17339:17671   */\n      jump\n        /* \"contracts/StemPayLotteryManager.sol\":5602:5653  require(block.timestamp >= l.drawTime, \"Too early\") */\n    tag_388:\n        /* \"contracts/StemPayLotteryManager.sol\":5672:5681  l.isDrawn */\n      0x08\n      dup2\n      add\n      sload\n      0x0100\n      swap1\n      div\n      0xff\n      and\n        /* \"contracts/StemPayLotteryManager.sol\":5671:5681  !l.isDrawn */\n      iszero\n        /* \"contracts/StemPayLotteryManager.sol\":5671:5699  !l.isDrawn && !l.isCancelled */\n      dup1\n      iszero\n      tag_391\n      jumpi\n      pop\n        /* \"contracts/StemPayLotteryManager.sol\":5686:5699  l.isCancelled */\n      0x08\n      dup2\n      add\n      sload\n      0x010000\n      swap1\n      div\n      0xff\n      and\n        /* \"contracts/StemPayLotteryManager.sol\":5685:5699  !l.isCancelled */\n      iszero\n        /* \"contracts/StemPayLotteryManager.sol\":5671:5699  !l.isDrawn && !l.isCancelled */\n    tag_391:\n        /* \"contracts/StemPayLotteryManager.sol\":5663:5730  require(!l.isDrawn && !l.isCancelled, \"Already drawn or cancelled\") */\n      tag_392\n      jumpi\n      mload(0x40)\n      shl(0xe5, 0x461bcd)\n      dup2\n      mstore\n        /* \"#utility.yul\":17878:17880   */\n      0x20\n        /* \"contracts/StemPayLotteryManager.sol\":5663:5730  require(!l.isDrawn && !l.isCancelled, \"Already drawn or cancelled\") */\n      0x04\n      dup3\n      add\n        /* \"#utility.yul\":17860:17881   */\n      mstore\n        /* \"#utility.yul\":17917:17919   */\n      0x1a\n        /* \"#utility.yul\":17897:17915   */\n      0x24\n      dup3\n      add\n        /* \"#utility.yul\":17890:17920   */\n      mstore\n        /* \"#utility.yul\":17956:17984   */\n      0x416c726561647920647261776e206f722063616e63656c6c6564000000000000\n        /* \"#utility.yul\":17936:17954   */\n      0x44\n      dup3\n      add\n        /* \"#utility.yul\":17929:17985   */\n      mstore\n        /* \"#utility.yul\":18002:18020   */\n      0x64\n      add\n        /* \"contracts/StemPayLotteryManager.sol\":5663:5730  require(!l.isDrawn && !l.isCancelled, \"Already drawn or cancelled\") */\n      tag_270\n        /* \"#utility.yul\":17676:18026   */\n      jump\n        /* \"contracts/StemPayLotteryManager.sol\":5663:5730  require(!l.isDrawn && !l.isCancelled, \"Already drawn or cancelled\") */\n    tag_392:\n        /* \"contracts/StemPayLotteryManager.sol\":5748:5762  l.participants */\n      0x09\n      dup2\n      add\n        /* \"contracts/StemPayLotteryManager.sol\":5748:5769  l.participants.length */\n      sload\n        /* \"contracts/StemPayLotteryManager.sol\":5740:5793  require(l.participants.length > 0, \"No participants\") */\n      tag_395\n      jumpi\n      mload(0x40)\n      shl(0xe5, 0x461bcd)\n      dup2\n      mstore\n        /* \"#utility.yul\":18233:18235   */\n      0x20\n        /* \"contracts/StemPayLotteryManager.sol\":5740:5793  require(l.participants.length > 0, \"No participants\") */\n      0x04\n      dup3\n      add\n        /* \"#utility.yul\":18215:18236   */\n      mstore\n        /* \"#utility.yul\":18272:18274   */\n      0x0f\n        /* \"#utility.yul\":18252:18270   */\n      0x24\n      dup3\n      add\n        /* \"#utility.yul\":18245:18275   */\n      mstore\n      shl(0x88, 0x4e6f207061727469636970616e7473)\n        /* \"#utility.yul\":18291:18309   */\n      0x44\n      dup3\n      add\n        /* \"#utility.yul\":18284:18329   */\n      mstore\n        /* \"#utility.yul\":18346:18364   */\n      0x64\n      add\n        /* \"contracts/StemPayLotteryManager.sol\":5740:5793  require(l.participants.length > 0, \"No participants\") */\n      tag_270\n        /* \"#utility.yul\":18031:18370   */\n      jump\n        /* \"contracts/StemPayLotteryManager.sol\":5740:5793  require(l.participants.length > 0, \"No participants\") */\n    tag_395:\n        /* \"contracts/StemPayLotteryManager.sol\":5846:5860  vrfCoordinator */\n      sload(0x09)\n        /* \"contracts/StemPayLotteryManager.sol\":5894:6315  VRFV2PlusClient.RandomWordsRequest({... */\n      0x40\n      dup1\n      mload\n      0xc0\n      dup2\n      add\n      dup3\n      mstore\n        /* \"contracts/StemPayLotteryManager.sol\":5956:5963  keyHash */\n      sload(0x06)\n        /* \"contracts/StemPayLotteryManager.sol\":5894:6315  VRFV2PlusClient.RandomWordsRequest({... */\n      dup2\n      mstore\n        /* \"contracts/StemPayLotteryManager.sol\":5988:6002  subscriptionId */\n      sload(0x08)\n        /* \"contracts/StemPayLotteryManager.sol\":5894:6315  VRFV2PlusClient.RandomWordsRequest({... */\n      0x20\n      dup1\n      dup4\n      add\n      swap2\n      swap1\n      swap2\n      mstore\n        /* \"contracts/StemPayLotteryManager.sol\":6042:6062  requestConfirmations */\n      sload(0x07)\n      0xffff\n      0x0100000000\n      dup3\n      div\n      and\n        /* \"contracts/StemPayLotteryManager.sol\":5894:6315  VRFV2PlusClient.RandomWordsRequest({... */\n      dup4\n      dup6\n      add\n      mstore\n        /* \"contracts/StemPayLotteryManager.sol\":6098:6114  callbackGasLimit */\n      0xffffffff\n      dup1\n      dup3\n      and\n        /* \"contracts/StemPayLotteryManager.sol\":5894:6315  VRFV2PlusClient.RandomWordsRequest({... */\n      0x60\n      dup6\n      add\n      mstore\n        /* \"contracts/StemPayLotteryManager.sol\":6142:6150  numWords */\n      0x01000000000000\n      swap1\n      swap2\n      div\n      and\n        /* \"contracts/StemPayLotteryManager.sol\":5894:6315  VRFV2PlusClient.RandomWordsRequest({... */\n      0x80\n      dup4\n      add\n      mstore\n        /* \"contracts/StemPayLotteryManager.sol\":6229:6282  VRFV2PlusClient.ExtraArgsV1({ nativePayment: false }) */\n      dup3\n      mload\n      swap1\n      dup2\n      add\n      swap1\n      swap3\n      mstore\n        /* \"contracts/StemPayLotteryManager.sol\":5804:5821  uint256 requestId */\n      0x00\n        /* \"contracts/StemPayLotteryManager.sol\":6229:6282  VRFV2PlusClient.ExtraArgsV1({ nativePayment: false }) */\n      dup1\n      dup4\n      mstore\n        /* \"contracts/StemPayLotteryManager.sol\":5804:5821  uint256 requestId */\n      swap3\n      sub(shl(0xa0, 0x01), 0x01)\n        /* \"contracts/StemPayLotteryManager.sol\":5846:5860  vrfCoordinator */\n      and\n      swap2\n        /* \"contracts/StemPayLotteryManager.sol\":5824:5880  IVRFCoordinatorV2Plus(vrfCoordinator).requestRandomWords */\n      0x9b1c385e\n      swap2\n        /* \"contracts/StemPayLotteryManager.sol\":5894:6315  VRFV2PlusClient.RandomWordsRequest({... */\n      swap1\n      0xa0\n      dup3\n      add\n      swap1\n        /* \"contracts/StemPayLotteryManager.sol\":6179:6300  VRFV2PlusClient._argsToBytes(... */\n      tag_398\n      swap1\n        /* \"contracts/StemPayLotteryManager.sol\":6179:6207  VRFV2PlusClient._argsToBytes */\n      tag_399\n        /* \"contracts/StemPayLotteryManager.sol\":6179:6300  VRFV2PlusClient._argsToBytes(... */\n      jump\t// in\n    tag_398:\n        /* \"contracts/StemPayLotteryManager.sol\":5894:6315  VRFV2PlusClient.RandomWordsRequest({... */\n      dup2\n      mstore\n      pop\n        /* \"contracts/StemPayLotteryManager.sol\":5824:6325  IVRFCoordinatorV2Plus(vrfCoordinator).requestRandomWords(... */\n      mload(0x40)\n      dup3\n      0xffffffff\n      and\n      0xe0\n      shl\n      dup2\n      mstore\n      0x04\n      add\n      tag_400\n      swap2\n      swap1\n      tag_401\n      jump\t// in\n    tag_400:\n      0x20\n      mload(0x40)\n      dup1\n      dup4\n      sub\n      dup2\n      0x00\n      dup8\n      gas\n      call\n      iszero\n      dup1\n      iszero\n      tag_403\n      jumpi\n      returndatacopy(0x00, 0x00, returndatasize)\n      revert(0x00, returndatasize)\n    tag_403:\n      pop\n      pop\n      pop\n      pop\n      mload(0x40)\n      returndatasize\n      not(0x1f)\n      0x1f\n      dup3\n      add\n      and\n      dup3\n      add\n      dup1\n      0x40\n      mstore\n      pop\n      dup2\n      add\n      swap1\n      tag_404\n      swap2\n      swap1\n      tag_405\n      jump\t// in\n    tag_404:\n        /* \"contracts/StemPayLotteryManager.sol\":6336:6363  requestToLottery[requestId] */\n      0x00\n      dup2\n      dup2\n      mstore\n        /* \"contracts/StemPayLotteryManager.sol\":6336:6352  requestToLottery */\n      0x0b\n        /* \"contracts/StemPayLotteryManager.sol\":6336:6363  requestToLottery[requestId] */\n      0x20\n      mstore\n      0x40\n      swap1\n      dup2\n      swap1\n      keccak256\n        /* \"contracts/StemPayLotteryManager.sol\":6336:6376  requestToLottery[requestId] = _lotteryId */\n      dup6\n      swap1\n      sstore\n        /* \"contracts/StemPayLotteryManager.sol\":6386:6395  l.isDrawn */\n      0x08\n      dup5\n      add\n        /* \"contracts/StemPayLotteryManager.sol\":6386:6402  l.isDrawn = true */\n      dup1\n      sload\n      not(0xff00)\n      and\n      0x0100\n      or\n      swap1\n      sstore\n        /* \"contracts/StemPayLotteryManager.sol\":6418:6461  LotteryDrawRequested(_lotteryId, requestId) */\n      mload\n        /* \"contracts/StemPayLotteryManager.sol\":5804:6325  uint256 requestId = IVRFCoordinatorV2Plus(vrfCoordinator).requestRandomWords(... */\n      swap1\n      swap2\n      pop\n        /* \"contracts/StemPayLotteryManager.sol\":6418:6461  LotteryDrawRequested(_lotteryId, requestId) */\n      0x600253eae67a5c51c82a7123372e8644f16009c6304e18f844cf86fdc40c24d7\n      swap1\n      tag_406\n      swap1\n        /* \"contracts/StemPayLotteryManager.sol\":6366:6376  _lotteryId */\n      dup6\n      swap1\n        /* \"contracts/StemPayLotteryManager.sol\":5804:6325  uint256 requestId = IVRFCoordinatorV2Plus(vrfCoordinator).requestRandomWords(... */\n      dup5\n      swap1\n        /* \"#utility.yul\":19451:19476   */\n      swap2\n      dup3\n      mstore\n        /* \"#utility.yul\":19507:19509   */\n      0x20\n        /* \"#utility.yul\":19492:19510   */\n      dup3\n      add\n        /* \"#utility.yul\":19485:19519   */\n      mstore\n        /* \"#utility.yul\":19439:19441   */\n      0x40\n        /* \"#utility.yul\":19424:19442   */\n      add\n      swap1\n        /* \"#utility.yul\":19277:19525   */\n      jump\n        /* \"contracts/StemPayLotteryManager.sol\":6418:6461  LotteryDrawRequested(_lotteryId, requestId) */\n    tag_406:\n      mload(0x40)\n      dup1\n      swap2\n      sub\n      swap1\n      log1\n        /* \"contracts/StemPayLotteryManager.sol\":5541:6468  {... */\n      pop\n      pop\n        /* \"contracts/StemPayLotteryManager.sol\":5482:6468  function drawWinner(uint256 _lotteryId) external onlyOwner {... */\n      pop\n      jump\t// out\n        /* \"@openzeppelin/contracts-upgradeable/access/OwnableUpgradeable.sol\":3155:3256  function renounceOwnership() public virtual onlyOwner {... */\n    tag_149:\n        /* \"@openzeppelin/contracts-upgradeable/access/OwnableUpgradeable.sol\":2334:2347  _checkOwner() */\n      tag_409\n        /* \"@openzeppelin/contracts-upgradeable/access/OwnableUpgradeable.sol\":2334:2345  _checkOwner */\n      tag_216\n        /* \"@openzeppelin/contracts-upgradeable/access/OwnableUpgradeable.sol\":2334:2347  _checkOwner() */\n      jump\t// in\n    tag_409:\n        /* \"@openzeppelin/contracts-upgradeable/access/OwnableUpgradeable.sol\":3219:3249  _transferOwnership(address(0)) */\n      tag_411\n        /* \"@openzeppelin/contracts-upgradeable/access/OwnableUpgradeable.sol\":3246:3247  0 */\n      0x00\n        /* \"@openzeppelin/contracts-upgradeable/access/OwnableUpgradeable.sol\":3219:3237  _transferOwnership */\n      tag_412\n        /* \"@openzeppelin/contracts-upgradeable/access/OwnableUpgradeable.sol\":3219:3249  _transferOwnership(address(0)) */\n      jump\t// in\n    tag_411:\n        /* \"@openzeppelin/contracts-upgradeable/access/OwnableUpgradeable.sol\":3155:3256  function renounceOwnership() public virtual onlyOwner {... */\n      jump\t// out\n        /* \"contracts/StemPayLotteryManager.sol\":5019:5476  function voteCancel(uint256 _lotteryId) external {... */\n    tag_157:\n        /* \"contracts/StemPayLotteryManager.sol\":5078:5095  Lottery storage l */\n      0x00\n        /* \"contracts/StemPayLotteryManager.sol\":5098:5119  lotteries[_lotteryId] */\n      dup2\n      dup2\n      mstore\n        /* \"contracts/StemPayLotteryManager.sol\":5098:5107  lotteries */\n      0x02\n        /* \"contracts/StemPayLotteryManager.sol\":5098:5119  lotteries[_lotteryId] */\n      0x20\n      swap1\n      dup2\n      mstore\n      0x40\n      dup1\n      dup4\n      keccak256\n        /* \"contracts/StemPayLotteryManager.sol\":5155:5165  msg.sender */\n      caller\n        /* \"contracts/StemPayLotteryManager.sol\":5138:5166  l.hasVotedCancel[msg.sender] */\n      dup5\n      mstore\n        /* \"contracts/StemPayLotteryManager.sol\":5138:5154  l.hasVotedCancel */\n      0x0f\n      dup2\n      add\n        /* \"contracts/StemPayLotteryManager.sol\":5138:5166  l.hasVotedCancel[msg.sender] */\n      swap1\n      swap3\n      mstore\n      swap1\n      swap2\n      keccak256\n      sload\n      0xff\n      and\n        /* \"contracts/StemPayLotteryManager.sol\":5137:5166  !l.hasVotedCancel[msg.sender] */\n      iszero\n        /* \"contracts/StemPayLotteryManager.sol\":5129:5184  require(!l.hasVotedCancel[msg.sender], \"Already voted\") */\n      tag_414\n      jumpi\n      mload(0x40)\n      shl(0xe5, 0x461bcd)\n      dup2\n      mstore\n        /* \"#utility.yul\":19732:19734   */\n      0x20\n        /* \"contracts/StemPayLotteryManager.sol\":5129:5184  require(!l.hasVotedCancel[msg.sender], \"Already voted\") */\n      0x04\n      dup3\n      add\n        /* \"#utility.yul\":19714:19735   */\n      mstore\n        /* \"#utility.yul\":19771:19773   */\n      0x0d\n        /* \"#utility.yul\":19751:19769   */\n      0x24\n      dup3\n      add\n        /* \"#utility.yul\":19744:19774   */\n      mstore\n      shl(0x9a, 0x105b1c9958591e481d9bdd1959)\n        /* \"#utility.yul\":19790:19808   */\n      0x44\n      dup3\n      add\n        /* \"#utility.yul\":19783:19826   */\n      mstore\n        /* \"#utility.yul\":19843:19861   */\n      0x64\n      add\n        /* \"contracts/StemPayLotteryManager.sol\":5129:5184  require(!l.hasVotedCancel[msg.sender], \"Already voted\") */\n      tag_270\n        /* \"#utility.yul\":19530:19867   */\n      jump\n        /* \"contracts/StemPayLotteryManager.sol\":5129:5184  require(!l.hasVotedCancel[msg.sender], \"Already voted\") */\n    tag_414:\n        /* \"contracts/StemPayLotteryManager.sol\":5215:5225  msg.sender */\n      caller\n        /* \"contracts/StemPayLotteryManager.sol\":5229:5230  0 */\n      0x00\n        /* \"contracts/StemPayLotteryManager.sol\":5202:5226  l.entryCount[msg.sender] */\n      swap1\n      dup2\n      mstore\n        /* \"contracts/StemPayLotteryManager.sol\":5202:5214  l.entryCount */\n      0x0c\n      dup3\n      add\n        /* \"contracts/StemPayLotteryManager.sol\":5202:5226  l.entryCount[msg.sender] */\n      0x20\n      mstore\n      0x40\n      swap1\n      keccak256\n      sload\n        /* \"contracts/StemPayLotteryManager.sol\":5194:5249  require(l.entryCount[msg.sender] > 0, \"Not in lottery\") */\n      tag_417\n      jumpi\n      mload(0x40)\n      shl(0xe5, 0x461bcd)\n      dup2\n      mstore\n        /* \"#utility.yul\":20074:20076   */\n      0x20\n        /* \"contracts/StemPayLotteryManager.sol\":5194:5249  require(l.entryCount[msg.sender] > 0, \"Not in lottery\") */\n      0x04\n      dup3\n      add\n        /* \"#utility.yul\":20056:20077   */\n      mstore\n        /* \"#utility.yul\":20113:20115   */\n      0x0e\n        /* \"#utility.yul\":20093:20111   */\n      0x24\n      dup3\n      add\n        /* \"#utility.yul\":20086:20116   */\n      mstore\n      shl(0x90, 0x4e6f7420696e206c6f7474657279)\n        /* \"#utility.yul\":20132:20150   */\n      0x44\n      dup3\n      add\n        /* \"#utility.yul\":20125:20169   */\n      mstore\n        /* \"#utility.yul\":20186:20204   */\n      0x64\n      add\n        /* \"contracts/StemPayLotteryManager.sol\":5194:5249  require(l.entryCount[msg.sender] > 0, \"Not in lottery\") */\n      tag_270\n        /* \"#utility.yul\":19872:20210   */\n      jump\n        /* \"contracts/StemPayLotteryManager.sol\":5194:5249  require(l.entryCount[msg.sender] > 0, \"Not in lottery\") */\n    tag_417:\n        /* \"contracts/StemPayLotteryManager.sol\":5277:5287  msg.sender */\n      caller\n        /* \"contracts/StemPayLotteryManager.sol\":5260:5288  l.hasVotedCancel[msg.sender] */\n      0x00\n      swap1\n      dup2\n      mstore\n        /* \"contracts/StemPayLotteryManager.sol\":5260:5276  l.hasVotedCancel */\n      0x0f\n      dup3\n      add\n        /* \"contracts/StemPayLotteryManager.sol\":5260:5288  l.hasVotedCancel[msg.sender] */\n      0x20\n      mstore\n      0x40\n      dup2\n      keccak256\n        /* \"contracts/StemPayLotteryManager.sol\":5260:5295  l.hasVotedCancel[msg.sender] = true */\n      dup1\n      sload\n      not(0xff)\n      and\n        /* \"contracts/StemPayLotteryManager.sol\":5291:5295  true */\n      0x01\n        /* \"contracts/StemPayLotteryManager.sol\":5260:5295  l.hasVotedCancel[msg.sender] = true */\n      or\n      swap1\n      sstore\n        /* \"contracts/StemPayLotteryManager.sol\":5305:5316  l.voteCount */\n      0x0b\n      dup3\n      add\n        /* \"contracts/StemPayLotteryManager.sol\":5305:5318  l.voteCount++ */\n      dup1\n      sload\n      swap2\n      tag_420\n      dup4\n      tag_238\n      jump\t// in\n    tag_420:\n      swap1\n      swap2\n      sstore\n      pop\n      pop\n        /* \"contracts/StemPayLotteryManager.sol\":5351:5365  l.participants */\n      0x09\n      dup2\n      add\n        /* \"contracts/StemPayLotteryManager.sol\":5351:5372  l.participants.length */\n      sload\n        /* \"contracts/StemPayLotteryManager.sol\":5351:5376  l.participants.length * 2 */\n      tag_421\n      swap1\n        /* \"contracts/StemPayLotteryManager.sol\":5375:5376  2 */\n      0x02\n        /* \"contracts/StemPayLotteryManager.sol\":5351:5376  l.participants.length * 2 */\n      tag_378\n      jump\t// in\n    tag_421:\n        /* \"contracts/StemPayLotteryManager.sol\":5332:5343  l.voteCount */\n      0x0b\n      dup3\n      add\n      sload\n        /* \"contracts/StemPayLotteryManager.sol\":5332:5347  l.voteCount * 3 */\n      tag_422\n      swap1\n        /* \"contracts/StemPayLotteryManager.sol\":5346:5347  3 */\n      0x03\n        /* \"contracts/StemPayLotteryManager.sol\":5332:5347  l.voteCount * 3 */\n      tag_378\n      jump\t// in\n    tag_422:\n        /* \"contracts/StemPayLotteryManager.sol\":5332:5376  l.voteCount * 3 >= l.participants.length * 2 */\n      lt\n        /* \"contracts/StemPayLotteryManager.sol\":5328:5470  if (l.voteCount * 3 >= l.participants.length * 2) {... */\n      tag_272\n      jumpi\n        /* \"contracts/StemPayLotteryManager.sol\":5392:5405  l.isCancelled */\n      0x08\n      dup2\n      add\n        /* \"contracts/StemPayLotteryManager.sol\":5392:5412  l.isCancelled = true */\n      dup1\n      sload\n      not(0xff0000)\n      and\n      0x010000\n      or\n      swap1\n      sstore\n        /* \"contracts/StemPayLotteryManager.sol\":5431:5459  LotteryCancelled(_lotteryId) */\n      mload(0x40)\n      0xc3dac690cf4c3ae8964f18b8f09f7f9a75d3962a8cbb7cd689df2c291bb5b2dd\n      swap1\n      tag_350\n      swap1\n        /* \"contracts/StemPayLotteryManager.sol\":5448:5458  _lotteryId */\n      dup5\n        /* \"#utility.yul\":2180:2205   */\n      dup2\n      mstore\n        /* \"#utility.yul\":2168:2170   */\n      0x20\n        /* \"#utility.yul\":2153:2171   */\n      add\n      swap1\n        /* \"#utility.yul\":2034:2211   */\n      jump\n        /* \"contracts/StemPayLotteryManager.sol\":8258:8368  function clearLotteryData(uint256 _lotteryId) external onlyOwner {... */\n    tag_161:\n        /* \"@openzeppelin/contracts-upgradeable/access/OwnableUpgradeable.sol\":2334:2347  _checkOwner() */\n      tag_426\n        /* \"@openzeppelin/contracts-upgradeable/access/OwnableUpgradeable.sol\":2334:2345  _checkOwner */\n      tag_216\n        /* \"@openzeppelin/contracts-upgradeable/access/OwnableUpgradeable.sol\":2334:2347  _checkOwner() */\n      jump\t// in\n    tag_426:\n        /* \"contracts/StemPayLotteryManager.sol\":8340:8361  lotteries[_lotteryId] */\n      0x00\n      dup2\n      dup2\n      mstore\n        /* \"contracts/StemPayLotteryManager.sol\":8340:8349  lotteries */\n      0x02\n        /* \"contracts/StemPayLotteryManager.sol\":8340:8361  lotteries[_lotteryId] */\n      0x20\n      dup2\n      swap1\n      mstore\n      0x40\n      dup3\n      keccak256\n        /* \"contracts/StemPayLotteryManager.sol\":8333:8361  delete lotteries[_lotteryId] */\n      dup1\n      sload\n      not(sub(shl(0xa0, 0x01), 0x01))\n      and\n      dup2\n      sstore\n      0x01\n      dup2\n      add\n      dup4\n      swap1\n      sstore\n      swap1\n      dup2\n      add\n      dup3\n      swap1\n      sstore\n      0x03\n      dup2\n      add\n      dup3\n      swap1\n      sstore\n      0x04\n      dup2\n      add\n      dup3\n      swap1\n      sstore\n      0x05\n      dup2\n      add\n      dup3\n      swap1\n      sstore\n      0x06\n      dup2\n      add\n      dup3\n      swap1\n      sstore\n      0x07\n      dup2\n      add\n      dup3\n      swap1\n      sstore\n      0x08\n      dup2\n      add\n      dup1\n      sload\n      not(0xffffff)\n      and\n      swap1\n      sstore\n        /* \"contracts/StemPayLotteryManager.sol\":8340:8361  lotteries[_lotteryId] */\n      swap1\n        /* \"contracts/StemPayLotteryManager.sol\":8333:8361  delete lotteries[_lotteryId] */\n      tag_428\n      0x09\n      dup4\n      add\n        /* \"contracts/StemPayLotteryManager.sol\":8340:8361  lotteries[_lotteryId] */\n      dup3\n        /* \"contracts/StemPayLotteryManager.sol\":8333:8361  delete lotteries[_lotteryId] */\n      tag_429\n      jump\t// in\n    tag_428:\n      pop\n      0x0a\n      dup2\n      add\n      dup1\n      sload\n      not(sub(shl(0xa0, 0x01), 0x01))\n      and\n      swap1\n      sstore\n      0x00\n      0x0b\n      swap1\n      swap2\n      add\n      sstore\n      pop\n        /* \"contracts/StemPayLotteryManager.sol\":8258:8368  function clearLotteryData(uint256 _lotteryId) external onlyOwner {... */\n      jump\t// out\n        /* \"contracts/StemPayLotteryManager.sol\":8374:8518  function getParticipants(uint256 _lotteryId) external view returns (address[] memory) {... */\n    tag_192:\n        /* \"contracts/StemPayLotteryManager.sol\":8477:8498  lotteries[_lotteryId] */\n      0x00\n      dup2\n      dup2\n      mstore\n        /* \"contracts/StemPayLotteryManager.sol\":8477:8486  lotteries */\n      0x02\n        /* \"contracts/StemPayLotteryManager.sol\":8477:8498  lotteries[_lotteryId] */\n      0x20\n      swap1\n      dup2\n      mstore\n      0x40\n      swap2\n      dup3\n      swap1\n      keccak256\n        /* \"contracts/StemPayLotteryManager.sol\":8477:8511  lotteries[_lotteryId].participants */\n      0x09\n      add\n        /* \"contracts/StemPayLotteryManager.sol\":8470:8511  return lotteries[_lotteryId].participants */\n      dup1\n      sload\n      dup4\n      mload\n      dup2\n      dup5\n      mul\n      dup2\n      add\n      dup5\n      add\n      swap1\n      swap5\n      mstore\n      dup1\n      dup5\n      mstore\n        /* \"contracts/StemPayLotteryManager.sol\":8442:8458  address[] memory */\n      0x60\n      swap4\n        /* \"contracts/StemPayLotteryManager.sol\":8470:8511  return lotteries[_lotteryId].participants */\n      swap3\n      dup4\n      add\n        /* \"contracts/StemPayLotteryManager.sol\":8477:8511  lotteries[_lotteryId].participants */\n      dup3\n        /* \"contracts/StemPayLotteryManager.sol\":8470:8511  return lotteries[_lotteryId].participants */\n      dup3\n      dup1\n      iszero\n      tag_435\n      jumpi\n      0x20\n      mul\n      dup3\n      add\n      swap2\n      swap1\n      0x00\n      mstore\n      keccak256(0x00, 0x20)\n      swap1\n    tag_436:\n      dup2\n      sload\n      sub(shl(0xa0, 0x01), 0x01)\n      and\n      dup2\n      mstore\n      0x01\n      swap1\n      swap2\n      add\n      swap1\n      0x20\n      add\n      dup1\n      dup4\n      gt\n      tag_436\n      jumpi\n    tag_435:\n      pop\n      pop\n      pop\n      pop\n      pop\n      swap1\n      pop\n        /* \"contracts/StemPayLotteryManager.sol\":8374:8518  function getParticipants(uint256 _lotteryId) external view returns (address[] memory) {... */\n      swap2\n      swap1\n      pop\n      jump\t// out\n        /* \"contracts/StemPayLotteryManager.sol\":7904:8252  function claimPrize(uint256 _lotteryId) external nonReentrant {... */\n    tag_203:\n        /* \"@openzeppelin/contracts/security/ReentrancyGuard.sol\":2261:2282  _nonReentrantBefore() */\n      tag_439\n        /* \"@openzeppelin/contracts/security/ReentrancyGuard.sol\":2261:2280  _nonReentrantBefore */\n      tag_275\n        /* \"@openzeppelin/contracts/security/ReentrancyGuard.sol\":2261:2282  _nonReentrantBefore() */\n      jump\t// in\n    tag_439:\n        /* \"contracts/StemPayLotteryManager.sol\":7976:7993  Lottery storage l */\n      0x00\n        /* \"contracts/StemPayLotteryManager.sol\":7996:8017  lotteries[_lotteryId] */\n      dup2\n      dup2\n      mstore\n        /* \"contracts/StemPayLotteryManager.sol\":7996:8005  lotteries */\n      0x02\n        /* \"contracts/StemPayLotteryManager.sol\":7996:8017  lotteries[_lotteryId] */\n      0x20\n      mstore\n      0x40\n      swap1\n      keccak256\n        /* \"contracts/StemPayLotteryManager.sol\":8035:8043  l.winner */\n      0x0a\n      dup2\n      add\n      sload\n      sub(shl(0xa0, 0x01), 0x01)\n      and\n        /* \"contracts/StemPayLotteryManager.sol\":8047:8057  msg.sender */\n      caller\n        /* \"contracts/StemPayLotteryManager.sol\":8035:8057  l.winner == msg.sender */\n      eq\n        /* \"contracts/StemPayLotteryManager.sol\":8027:8072  require(l.winner == msg.sender, \"Not winner\") */\n      tag_441\n      jumpi\n      mload(0x40)\n      shl(0xe5, 0x461bcd)\n      dup2\n      mstore\n        /* \"#utility.yul\":20417:20419   */\n      0x20\n        /* \"contracts/StemPayLotteryManager.sol\":8027:8072  require(l.winner == msg.sender, \"Not winner\") */\n      0x04\n      dup3\n      add\n        /* \"#utility.yul\":20399:20420   */\n      mstore\n        /* \"#utility.yul\":20456:20458   */\n      0x0a\n        /* \"#utility.yul\":20436:20454   */\n      0x24\n      dup3\n      add\n        /* \"#utility.yul\":20429:20459   */\n      mstore\n      shl(0xb1, 0x2737ba103bb4b73732b9)\n        /* \"#utility.yul\":20475:20493   */\n      0x44\n      dup3\n      add\n        /* \"#utility.yul\":20468:20508   */\n      mstore\n        /* \"#utility.yul\":20525:20543   */\n      0x64\n      add\n        /* \"contracts/StemPayLotteryManager.sol\":8027:8072  require(l.winner == msg.sender, \"Not winner\") */\n      tag_270\n        /* \"#utility.yul\":20215:20549   */\n      jump\n        /* \"contracts/StemPayLotteryManager.sol\":8027:8072  require(l.winner == msg.sender, \"Not winner\") */\n    tag_441:\n        /* \"contracts/StemPayLotteryManager.sol\":8104:8114  msg.sender */\n      caller\n        /* \"contracts/StemPayLotteryManager.sol\":8091:8115  l.hasClaimed[msg.sender] */\n      0x00\n      swap1\n      dup2\n      mstore\n        /* \"contracts/StemPayLotteryManager.sol\":8091:8103  l.hasClaimed */\n      0x0d\n      dup3\n      add\n        /* \"contracts/StemPayLotteryManager.sol\":8091:8115  l.hasClaimed[msg.sender] */\n      0x20\n      mstore\n      0x40\n      swap1\n      keccak256\n      sload\n      0xff\n      and\n        /* \"contracts/StemPayLotteryManager.sol\":8090:8115  !l.hasClaimed[msg.sender] */\n      iszero\n        /* \"contracts/StemPayLotteryManager.sol\":8082:8135  require(!l.hasClaimed[msg.sender], \"Already claimed\") */\n      tag_444\n      jumpi\n      mload(0x40)\n      shl(0xe5, 0x461bcd)\n      dup2\n      mstore\n        /* \"#utility.yul\":20756:20758   */\n      0x20\n        /* \"contracts/StemPayLotteryManager.sol\":8082:8135  require(!l.hasClaimed[msg.sender], \"Already claimed\") */\n      0x04\n      dup3\n      add\n        /* \"#utility.yul\":20738:20759   */\n      mstore\n        /* \"#utility.yul\":20795:20797   */\n      0x0f\n        /* \"#utility.yul\":20775:20793   */\n      0x24\n      dup3\n      add\n        /* \"#utility.yul\":20768:20798   */\n      mstore\n      shl(0x8a, 0x105b1c9958591e4818db185a5b5959)\n        /* \"#utility.yul\":20814:20832   */\n      0x44\n      dup3\n      add\n        /* \"#utility.yul\":20807:20852   */\n      mstore\n        /* \"#utility.yul\":20869:20887   */\n      0x64\n      add\n        /* \"contracts/StemPayLotteryManager.sol\":8082:8135  require(!l.hasClaimed[msg.sender], \"Already claimed\") */\n      tag_270\n        /* \"#utility.yul\":20554:20893   */\n      jump\n        /* \"contracts/StemPayLotteryManager.sol\":8082:8135  require(!l.hasClaimed[msg.sender], \"Already claimed\") */\n    tag_444:\n        /* \"contracts/StemPayLotteryManager.sol\":8159:8169  msg.sender */\n      caller\n        /* \"contracts/StemPayLotteryManager.sol\":8146:8170  l.hasClaimed[msg.sender] */\n      0x00\n      dup2\n      dup2\n      mstore\n        /* \"contracts/StemPayLotteryManager.sol\":8146:8158  l.hasClaimed */\n      0x0d\n      dup4\n      add\n        /* \"contracts/StemPayLotteryManager.sol\":8146:8170  l.hasClaimed[msg.sender] */\n      0x20\n      mstore\n      0x40\n      swap1\n      dup2\n      swap1\n      keccak256\n        /* \"contracts/StemPayLotteryManager.sol\":8146:8177  l.hasClaimed[msg.sender] = true */\n      dup1\n      sload\n      not(0xff)\n      and\n        /* \"contracts/StemPayLotteryManager.sol\":8173:8177  true */\n      0x01\n        /* \"contracts/StemPayLotteryManager.sol\":8146:8177  l.hasClaimed[msg.sender] = true */\n      or\n      swap1\n      sstore\n        /* \"contracts/StemPayLotteryManager.sol\":8194:8208  l.tokenAddress */\n      dup3\n      sload\n        /* \"contracts/StemPayLotteryManager.sol\":8231:8244  l.prizeAmount */\n      0x05\n      dup5\n      add\n      sload\n        /* \"contracts/StemPayLotteryManager.sol\":8187:8245  IERC20(l.tokenAddress).transfer(msg.sender, l.prizeAmount) */\n      swap2\n      mload\n      shl(0xe0, 0xa9059cbb)\n      dup2\n      mstore\n      0x04\n      dup2\n      add\n        /* \"#utility.yul\":17234:17285   */\n      swap4\n      swap1\n      swap4\n      mstore\n        /* \"#utility.yul\":17301:17319   */\n      0x24\n      dup4\n      add\n        /* \"#utility.yul\":17294:17328   */\n      swap2\n      swap1\n      swap2\n      mstore\n      sub(shl(0xa0, 0x01), 0x01)\n        /* \"contracts/StemPayLotteryManager.sol\":8194:8208  l.tokenAddress */\n      and\n      swap1\n        /* \"contracts/StemPayLotteryManager.sol\":8187:8218  IERC20(l.tokenAddress).transfer */\n      0xa9059cbb\n      swap1\n        /* \"#utility.yul\":17207:17225   */\n      0x44\n      add\n        /* \"contracts/StemPayLotteryManager.sol\":8187:8245  IERC20(l.tokenAddress).transfer(msg.sender, l.prizeAmount) */\n      0x20\n      mload(0x40)\n      dup1\n      dup4\n      sub\n      dup2\n      0x00\n      dup8\n      gas\n      call\n      iszero\n      dup1\n      iszero\n      tag_449\n      jumpi\n      returndatacopy(0x00, 0x00, returndatasize)\n      revert(0x00, returndatasize)\n    tag_449:\n      pop\n      pop\n      pop\n      pop\n      mload(0x40)\n      returndatasize\n      not(0x1f)\n      0x1f\n      dup3\n      add\n      and\n      dup3\n      add\n      dup1\n      0x40\n      mstore\n      pop\n      dup2\n      add\n      swap1\n      tag_450\n      swap2\n      swap1\n      tag_302\n      jump\t// in\n    tag_450:\n      pop\n        /* \"contracts/StemPayLotteryManager.sol\":7966:8252  {... */\n      pop\n        /* \"@openzeppelin/contracts/security/ReentrancyGuard.sol\":2303:2323  _nonReentrantAfter() */\n      tag_329\n        /* \"@openzeppelin/contracts/security/ReentrancyGuard.sol\":1716:1717  1 */\n      0x01\n        /* \"@openzeppelin/contracts/security/ReentrancyGuard.sol\":2809:2816  _status */\n      0x00\n        /* \"@openzeppelin/contracts/security/ReentrancyGuard.sol\":2809:2831  _status = _NOT_ENTERED */\n      sstore\n        /* \"@openzeppelin/contracts/security/ReentrancyGuard.sol\":2629:2838  function _nonReentrantAfter() private {... */\n      jump\n        /* \"contracts/StemPayLotteryManager.sol\":2340:2370  uint256[] public allLotteryIds */\n    tag_207:\n      0x0a\n      dup2\n      dup2\n      sload\n      dup2\n      lt\n      tag_452\n      jumpi\n      0x00\n      dup1\n      revert\n    tag_452:\n      0x00\n      swap2\n      dup3\n      mstore\n      0x20\n      swap1\n      swap2\n      keccak256\n      add\n      sload\n      swap1\n      pop\n      dup2\n      jump\t// out\n        /* \"@openzeppelin/contracts-upgradeable/access/OwnableUpgradeable.sol\":3405:3620  function transferOwnership(address newOwner) public virtual onlyOwner {... */\n    tag_213:\n        /* \"@openzeppelin/contracts-upgradeable/access/OwnableUpgradeable.sol\":2334:2347  _checkOwner() */\n      tag_455\n        /* \"@openzeppelin/contracts-upgradeable/access/OwnableUpgradeable.sol\":2334:2345  _checkOwner */\n      tag_216\n        /* \"@openzeppelin/contracts-upgradeable/access/OwnableUpgradeable.sol\":2334:2347  _checkOwner() */\n      jump\t// in\n    tag_455:\n      sub(shl(0xa0, 0x01), 0x01)\n        /* \"@openzeppelin/contracts-upgradeable/access/OwnableUpgradeable.sol\":3489:3511  newOwner == address(0) */\n      dup2\n      and\n        /* \"@openzeppelin/contracts-upgradeable/access/OwnableUpgradeable.sol\":3485:3576  if (newOwner == address(0)) {... */\n      tag_457\n      jumpi\n        /* \"@openzeppelin/contracts-upgradeable/access/OwnableUpgradeable.sol\":3534:3565  OwnableInvalidOwner(address(0)) */\n      mload(0x40)\n      shl(0xe0, 0x1e4fbdf7)\n      dup2\n      mstore\n        /* \"@openzeppelin/contracts-upgradeable/access/OwnableUpgradeable.sol\":3562:3563  0 */\n      0x00\n        /* \"@openzeppelin/contracts-upgradeable/access/OwnableUpgradeable.sol\":3534:3565  OwnableInvalidOwner(address(0)) */\n      0x04\n      dup3\n      add\n        /* \"#utility.yul\":5870:5921   */\n      mstore\n        /* \"#utility.yul\":5843:5861   */\n      0x24\n      add\n        /* \"@openzeppelin/contracts-upgradeable/access/OwnableUpgradeable.sol\":3534:3565  OwnableInvalidOwner(address(0)) */\n      tag_270\n        /* \"#utility.yul\":5724:5927   */\n      jump\n        /* \"@openzeppelin/contracts-upgradeable/access/OwnableUpgradeable.sol\":3485:3576  if (newOwner == address(0)) {... */\n    tag_457:\n        /* \"@openzeppelin/contracts-upgradeable/access/OwnableUpgradeable.sol\":3585:3613  _transferOwnership(newOwner) */\n      tag_329\n        /* \"@openzeppelin/contracts-upgradeable/access/OwnableUpgradeable.sol\":3604:3612  newOwner */\n      dup2\n        /* \"@openzeppelin/contracts-upgradeable/access/OwnableUpgradeable.sol\":3585:3603  _transferOwnership */\n      tag_412\n        /* \"@openzeppelin/contracts-upgradeable/access/OwnableUpgradeable.sol\":3585:3613  _transferOwnership(newOwner) */\n      jump\t// in\n        /* \"@openzeppelin/contracts-upgradeable/access/OwnableUpgradeable.sol\":2658:2820  function _checkOwner() internal view virtual {... */\n    tag_216:\n        /* \"@openzeppelin/contracts-upgradeable/utils/ContextUpgradeable.sol\":966:976  msg.sender */\n      caller\n        /* \"@openzeppelin/contracts-upgradeable/access/OwnableUpgradeable.sol\":2717:2724  owner() */\n      tag_463\n        /* \"@openzeppelin/contracts-upgradeable/access/OwnableUpgradeable.sol\":1313:1335  OwnableStorageLocation */\n      0x9016d09d72d40fdae2fd8ceac6b6234c7706214fd39c1cd1e609a0528c199300\n        /* \"@openzeppelin/contracts-upgradeable/access/OwnableUpgradeable.sol\":2570:2578  $._owner */\n      sload\n      sub(shl(0xa0, 0x01), 0x01)\n      and\n      swap1\n        /* \"@openzeppelin/contracts-upgradeable/access/OwnableUpgradeable.sol\":2441:2585  function owner() public view virtual returns (address) {... */\n      jump\n        /* \"@openzeppelin/contracts-upgradeable/access/OwnableUpgradeable.sol\":2717:2724  owner() */\n    tag_463:\n      sub(shl(0xa0, 0x01), 0x01)\n        /* \"@openzeppelin/contracts-upgradeable/access/OwnableUpgradeable.sol\":2717:2740  owner() != _msgSender() */\n      and\n      eq\n        /* \"@openzeppelin/contracts-upgradeable/access/OwnableUpgradeable.sol\":2713:2814  if (owner() != _msgSender()) {... */\n      tag_411\n      jumpi\n        /* \"@openzeppelin/contracts-upgradeable/access/OwnableUpgradeable.sol\":2763:2803  OwnableUnauthorizedAccount(_msgSender()) */\n      mload(0x40)\n      shl(0xe0, 0x118cdaa7)\n      dup2\n      mstore\n        /* \"@openzeppelin/contracts-upgradeable/utils/ContextUpgradeable.sol\":966:976  msg.sender */\n      caller\n        /* \"@openzeppelin/contracts-upgradeable/access/OwnableUpgradeable.sol\":2763:2803  OwnableUnauthorizedAccount(_msgSender()) */\n      0x04\n      dup3\n      add\n        /* \"#utility.yul\":5870:5921   */\n      mstore\n        /* \"#utility.yul\":5843:5861   */\n      0x24\n      add\n        /* \"@openzeppelin/contracts-upgradeable/access/OwnableUpgradeable.sol\":2763:2803  OwnableUnauthorizedAccount(_msgSender()) */\n      tag_270\n        /* \"#utility.yul\":5724:5927   */\n      jump\n        /* \"contracts/StemPayLotteryManager.sol\":6474:7113  function fulfillRandomWords(... */\n    tag_219:\n        /* \"contracts/StemPayLotteryManager.sol\":6601:6618  uint256 lotteryId */\n      0x00\n        /* \"contracts/StemPayLotteryManager.sol\":6621:6648  requestToLottery[requestId] */\n      dup3\n      dup2\n      mstore\n        /* \"contracts/StemPayLotteryManager.sol\":6621:6637  requestToLottery */\n      0x0b\n        /* \"contracts/StemPayLotteryManager.sol\":6621:6648  requestToLottery[requestId] */\n      0x20\n      swap1\n      dup2\n      mstore\n      0x40\n      dup1\n      dup4\n      keccak256\n      sload\n        /* \"contracts/StemPayLotteryManager.sol\":6678:6698  lotteries[lotteryId] */\n      dup1\n      dup5\n      mstore\n        /* \"contracts/StemPayLotteryManager.sol\":6678:6687  lotteries */\n      0x02\n        /* \"contracts/StemPayLotteryManager.sol\":6678:6698  lotteries[lotteryId] */\n      swap1\n      swap3\n      mstore\n      swap1\n      swap2\n      keccak256\n        /* \"contracts/StemPayLotteryManager.sol\":6717:6726  l.isDrawn */\n      0x08\n      dup2\n      add\n      sload\n      0x0100\n      swap1\n      div\n      0xff\n      and\n        /* \"contracts/StemPayLotteryManager.sol\":6717:6752  l.isDrawn && l.winner == address(0) */\n      dup1\n      iszero\n      tag_468\n      jumpi\n      pop\n        /* \"contracts/StemPayLotteryManager.sol\":6730:6738  l.winner */\n      0x0a\n      dup2\n      add\n      sload\n      sub(shl(0xa0, 0x01), 0x01)\n      and\n        /* \"contracts/StemPayLotteryManager.sol\":6730:6752  l.winner == address(0) */\n      iszero\n        /* \"contracts/StemPayLotteryManager.sol\":6717:6752  l.isDrawn && l.winner == address(0) */\n    tag_468:\n        /* \"contracts/StemPayLotteryManager.sol\":6709:6774  require(l.isDrawn && l.winner == address(0), \"Already fulfilled\") */\n      tag_469\n      jumpi\n      mload(0x40)\n      shl(0xe5, 0x461bcd)\n      dup2\n      mstore\n        /* \"#utility.yul\":21100:21102   */\n      0x20\n        /* \"contracts/StemPayLotteryManager.sol\":6709:6774  require(l.isDrawn && l.winner == address(0), \"Already fulfilled\") */\n      0x04\n      dup3\n      add\n        /* \"#utility.yul\":21082:21103   */\n      mstore\n        /* \"#utility.yul\":21139:21141   */\n      0x11\n        /* \"#utility.yul\":21119:21137   */\n      0x24\n      dup3\n      add\n        /* \"#utility.yul\":21112:21142   */\n      mstore\n      shl(0x7a, 0x105b1c9958591e48199d5b199a5b1b1959)\n        /* \"#utility.yul\":21158:21176   */\n      0x44\n      dup3\n      add\n        /* \"#utility.yul\":21151:21198   */\n      mstore\n        /* \"#utility.yul\":21215:21233   */\n      0x64\n      add\n        /* \"contracts/StemPayLotteryManager.sol\":6709:6774  require(l.isDrawn && l.winner == address(0), \"Already fulfilled\") */\n      tag_270\n        /* \"#utility.yul\":20898:21239   */\n      jump\n        /* \"contracts/StemPayLotteryManager.sol\":6709:6774  require(l.isDrawn && l.winner == address(0), \"Already fulfilled\") */\n    tag_469:\n        /* \"contracts/StemPayLotteryManager.sol\":6785:6804  uint256 winnerIndex */\n      0x00\n        /* \"contracts/StemPayLotteryManager.sol\":6824:6825  l */\n      dup2\n        /* \"contracts/StemPayLotteryManager.sol\":6824:6838  l.participants */\n      0x09\n      add\n        /* \"contracts/StemPayLotteryManager.sol\":6824:6845  l.participants.length */\n      dup1\n      sload\n      swap1\n      pop\n        /* \"contracts/StemPayLotteryManager.sol\":6807:6818  randomWords */\n      dup5\n        /* \"contracts/StemPayLotteryManager.sol\":6819:6820  0 */\n      0x00\n        /* \"contracts/StemPayLotteryManager.sol\":6807:6821  randomWords[0] */\n      dup2\n      mload\n      dup2\n      lt\n      tag_473\n      jumpi\n      tag_473\n      tag_230\n      jump\t// in\n    tag_473:\n      0x20\n      mul\n      0x20\n      add\n      add\n      mload\n        /* \"contracts/StemPayLotteryManager.sol\":6807:6845  randomWords[0] % l.participants.length */\n      tag_474\n      swap2\n      swap1\n      tag_475\n      jump\t// in\n    tag_474:\n        /* \"contracts/StemPayLotteryManager.sol\":6785:6845  uint256 winnerIndex = randomWords[0] % l.participants.length */\n      swap1\n      pop\n        /* \"contracts/StemPayLotteryManager.sol\":6866:6867  l */\n      dup2\n        /* \"contracts/StemPayLotteryManager.sol\":6866:6880  l.participants */\n      0x09\n      add\n        /* \"contracts/StemPayLotteryManager.sol\":6881:6892  winnerIndex */\n      dup2\n        /* \"contracts/StemPayLotteryManager.sol\":6866:6893  l.participants[winnerIndex] */\n      dup2\n      sload\n      dup2\n      lt\n      tag_477\n      jumpi\n      tag_477\n      tag_230\n      jump\t// in\n    tag_477:\n      0x00\n      swap2\n      dup3\n      mstore\n      0x20\n      swap1\n      swap2\n      keccak256\n      add\n      sload\n        /* \"contracts/StemPayLotteryManager.sol\":6855:6863  l.winner */\n      0x0a\n      dup4\n      add\n        /* \"contracts/StemPayLotteryManager.sol\":6855:6893  l.winner = l.participants[winnerIndex] */\n      dup1\n      sload\n      not(sub(shl(0xa0, 0x01), 0x01))\n      and\n      sub(shl(0xa0, 0x01), 0x01)\n        /* \"contracts/StemPayLotteryManager.sol\":6866:6893  l.participants[winnerIndex] */\n      swap3\n      dup4\n      and\n        /* \"contracts/StemPayLotteryManager.sol\":6855:6893  l.winner = l.participants[winnerIndex] */\n      or\n      swap1\n      sstore\n        /* \"contracts/StemPayLotteryManager.sol\":6926:6940  l.tokenAddress */\n      dup3\n      sload\n        /* \"contracts/StemPayLotteryManager.sol\":6966:6982  investmentWallet */\n      0x04\n      dup1\n      sload\n        /* \"contracts/StemPayLotteryManager.sol\":6984:7001  l.feeToInvestment */\n      0x06\n      dup7\n      add\n      sload\n        /* \"contracts/StemPayLotteryManager.sol\":6951:7002  token.transfer(investmentWallet, l.feeToInvestment) */\n      mload(0x40)\n      shl(0xe0, 0xa9059cbb)\n      dup2\n      mstore\n        /* \"contracts/StemPayLotteryManager.sol\":6966:6982  investmentWallet */\n      swap2\n      dup6\n      and\n        /* \"contracts/StemPayLotteryManager.sol\":6951:7002  token.transfer(investmentWallet, l.feeToInvestment) */\n      swap3\n      dup3\n      add\n        /* \"#utility.yul\":17234:17285   */\n      swap3\n      swap1\n      swap3\n      mstore\n        /* \"#utility.yul\":17301:17319   */\n      0x24\n      dup2\n      add\n        /* \"#utility.yul\":17294:17328   */\n      swap2\n      swap1\n      swap2\n      mstore\n        /* \"contracts/StemPayLotteryManager.sol\":6926:6940  l.tokenAddress */\n      swap2\n      and\n      swap1\n      dup2\n      swap1\n        /* \"contracts/StemPayLotteryManager.sol\":6951:6965  token.transfer */\n      0xa9059cbb\n      swap1\n        /* \"#utility.yul\":17207:17225   */\n      0x44\n      add\n        /* \"contracts/StemPayLotteryManager.sol\":6951:7002  token.transfer(investmentWallet, l.feeToInvestment) */\n      0x20\n      mload(0x40)\n      dup1\n      dup4\n      sub\n      dup2\n      0x00\n      dup8\n      gas\n      call\n      iszero\n      dup1\n      iszero\n      tag_481\n      jumpi\n      returndatacopy(0x00, 0x00, returndatasize)\n      revert(0x00, returndatasize)\n    tag_481:\n      pop\n      pop\n      pop\n      pop\n      mload(0x40)\n      returndatasize\n      not(0x1f)\n      0x1f\n      dup3\n      add\n      and\n      dup3\n      add\n      dup1\n      0x40\n      mstore\n      pop\n      dup2\n      add\n      swap1\n      tag_482\n      swap2\n      swap1\n      tag_302\n      jump\t// in\n    tag_482:\n      pop\n        /* \"contracts/StemPayLotteryManager.sol\":7027:7039  profitWallet */\n      sload(0x05)\n        /* \"contracts/StemPayLotteryManager.sol\":7041:7054  l.feeToProfit */\n      0x07\n      dup5\n      add\n      sload\n        /* \"contracts/StemPayLotteryManager.sol\":7012:7055  token.transfer(profitWallet, l.feeToProfit) */\n      mload(0x40)\n      shl(0xe0, 0xa9059cbb)\n      dup2\n      mstore\n      sub(shl(0xa0, 0x01), 0x01)\n        /* \"contracts/StemPayLotteryManager.sol\":7027:7039  profitWallet */\n      swap3\n      dup4\n      and\n        /* \"contracts/StemPayLotteryManager.sol\":7012:7055  token.transfer(profitWallet, l.feeToProfit) */\n      0x04\n      dup3\n      add\n        /* \"#utility.yul\":17234:17285   */\n      mstore\n        /* \"#utility.yul\":17301:17319   */\n      0x24\n      dup2\n      add\n        /* \"#utility.yul\":17294:17328   */\n      swap2\n      swap1\n      swap2\n      mstore\n        /* \"contracts/StemPayLotteryManager.sol\":7012:7026  token.transfer */\n      swap1\n      dup3\n      and\n      swap1\n      0xa9059cbb\n      swap1\n        /* \"#utility.yul\":17207:17225   */\n      0x44\n      add\n        /* \"contracts/StemPayLotteryManager.sol\":7012:7055  token.transfer(profitWallet, l.feeToProfit) */\n      0x20\n      mload(0x40)\n      dup1\n      dup4\n      sub\n      dup2\n      0x00\n      dup8\n      gas\n      call\n      iszero\n      dup1\n      iszero\n      tag_485\n      jumpi\n      returndatacopy(0x00, 0x00, returndatasize)\n      revert(0x00, returndatasize)\n    tag_485:\n      pop\n      pop\n      pop\n      pop\n      mload(0x40)\n      returndatasize\n      not(0x1f)\n      0x1f\n      dup3\n      add\n      and\n      dup3\n      add\n      dup1\n      0x40\n      mstore\n      pop\n      dup2\n      add\n      swap1\n      tag_486\n      swap2\n      swap1\n      tag_302\n      jump\t// in\n    tag_486:\n      pop\n        /* \"contracts/StemPayLotteryManager.sol\":7097:7105  l.winner */\n      0x0a\n      dup4\n      add\n      sload\n        /* \"contracts/StemPayLotteryManager.sol\":7071:7106  WinnerSelected(lotteryId, l.winner) */\n      0x40\n      dup1\n      mload\n        /* \"#utility.yul\":13692:13717   */\n      dup7\n      dup2\n      mstore\n      sub(shl(0xa0, 0x01), 0x01)\n        /* \"contracts/StemPayLotteryManager.sol\":7097:7105  l.winner */\n      swap1\n      swap3\n      and\n        /* \"#utility.yul\":13748:13750   */\n      0x20\n        /* \"#utility.yul\":13733:13751   */\n      dup4\n      add\n        /* \"#utility.yul\":13726:13786   */\n      mstore\n        /* \"contracts/StemPayLotteryManager.sol\":7071:7106  WinnerSelected(lotteryId, l.winner) */\n      0x03fb57eb449654e24e1b240d3d06702cf79362a065d5c0323aee642d4702fa4b\n      swap2\n        /* \"#utility.yul\":13665:13683   */\n      add\n        /* \"contracts/StemPayLotteryManager.sol\":7071:7106  WinnerSelected(lotteryId, l.winner) */\n      mload(0x40)\n      dup1\n      swap2\n      sub\n      swap1\n      log1\n        /* \"contracts/StemPayLotteryManager.sol\":6591:7113  {... */\n      pop\n      pop\n      pop\n      pop\n        /* \"contracts/StemPayLotteryManager.sol\":6474:7113  function fulfillRandomWords(... */\n      pop\n      pop\n      jump\t// out\n        /* \"@openzeppelin/contracts-upgradeable/proxy/utils/Initializable.sol\":9071:9276  function _getInitializableStorage() private pure returns (InitializableStorage storage $) {... */\n    tag_252:\n        /* \"@openzeppelin/contracts-upgradeable/proxy/utils/Initializable.sol\":9129:9159  InitializableStorage storage $ */\n      0x00\n      dup1\n        /* \"@openzeppelin/contracts-upgradeable/proxy/utils/Initializable.sol\":3147:3213  0xf0c57e16840df040f15088dc2f81fe391c3923bec73e23a9662efc9c229c6a00 */\n      0xf0c57e16840df040f15088dc2f81fe391c3923bec73e23a9662efc9c229c6a00\n        /* \"@openzeppelin/contracts-upgradeable/proxy/utils/Initializable.sol\":9186:9213  _initializableStorageSlot() */\n      tag_249\n        /* \"@openzeppelin/contracts-upgradeable/proxy/utils/Initializable.sol\":8819:8941  function _initializableStorageSlot() internal pure virtual returns (bytes32) {... */\n      jump\n        /* \"@openzeppelin/contracts-upgradeable/access/OwnableUpgradeable.sol\":1847:1974  function __Ownable_init(address initialOwner) internal onlyInitializing {... */\n    tag_260:\n        /* \"@openzeppelin/contracts-upgradeable/proxy/utils/Initializable.sol\":6929:6949  _checkInitializing() */\n      tag_492\n        /* \"@openzeppelin/contracts-upgradeable/proxy/utils/Initializable.sol\":6929:6947  _checkInitializing */\n      tag_493\n        /* \"@openzeppelin/contracts-upgradeable/proxy/utils/Initializable.sol\":6929:6949  _checkInitializing() */\n      jump\t// in\n    tag_492:\n        /* \"@openzeppelin/contracts-upgradeable/access/OwnableUpgradeable.sol\":1929:1967  __Ownable_init_unchained(initialOwner) */\n      tag_329\n        /* \"@openzeppelin/contracts-upgradeable/access/OwnableUpgradeable.sol\":1954:1966  initialOwner */\n      dup2\n        /* \"@openzeppelin/contracts-upgradeable/access/OwnableUpgradeable.sol\":1929:1953  __Ownable_init_unchained */\n      tag_496\n        /* \"@openzeppelin/contracts-upgradeable/access/OwnableUpgradeable.sol\":1929:1967  __Ownable_init_unchained(initialOwner) */\n      jump\t// in\n        /* \"@openzeppelin/contracts-upgradeable/proxy/utils/UUPSUpgradeable.sol\":2970:3037  function __UUPSUpgradeable_init() internal onlyInitializing {... */\n    tag_262:\n        /* \"@openzeppelin/contracts-upgradeable/proxy/utils/Initializable.sol\":6929:6949  _checkInitializing() */\n      tag_411\n        /* \"@openzeppelin/contracts-upgradeable/proxy/utils/Initializable.sol\":6929:6947  _checkInitializing */\n      tag_493\n        /* \"@openzeppelin/contracts-upgradeable/proxy/utils/Initializable.sol\":6929:6949  _checkInitializing() */\n      jump\t// in\n        /* \"contracts/StemPayLotteryManager.sol\":669:816  function __VRFConsumerBaseV2_5Upgradeable_init(address _vrfCoordinator) internal onlyInitializing {... */\n    tag_264:\n        /* \"@openzeppelin/contracts-upgradeable/proxy/utils/Initializable.sol\":6929:6949  _checkInitializing() */\n      tag_501\n        /* \"@openzeppelin/contracts-upgradeable/proxy/utils/Initializable.sol\":6929:6947  _checkInitializing */\n      tag_493\n        /* \"@openzeppelin/contracts-upgradeable/proxy/utils/Initializable.sol\":6929:6949  _checkInitializing() */\n      jump\t// in\n    tag_501:\n        /* \"contracts/StemPayLotteryManager.sol\":777:791  vrfCoordinator */\n      0x01\n        /* \"contracts/StemPayLotteryManager.sol\":777:809  vrfCoordinator = _vrfCoordinator */\n      dup1\n      sload\n      not(sub(shl(0xa0, 0x01), 0x01))\n      and\n      sub(shl(0xa0, 0x01), 0x01)\n      swap3\n      swap1\n      swap3\n      and\n      swap2\n      swap1\n      swap2\n      or\n      swap1\n      sstore\n        /* \"contracts/StemPayLotteryManager.sol\":669:816  function __VRFConsumerBaseV2_5Upgradeable_init(address _vrfCoordinator) internal onlyInitializing {... */\n      jump\t// out\n        /* \"@openzeppelin/contracts/security/ReentrancyGuard.sol\":2336:2623  function _nonReentrantBefore() private {... */\n    tag_275:\n        /* \"@openzeppelin/contracts/security/ReentrancyGuard.sol\":1759:1760  2 */\n      0x02\n        /* \"@openzeppelin/contracts/security/ReentrancyGuard.sol\":2468:2475  _status */\n      sload(0x00)\n        /* \"@openzeppelin/contracts/security/ReentrancyGuard.sol\":2468:2487  _status != _ENTERED */\n      sub\n        /* \"@openzeppelin/contracts/security/ReentrancyGuard.sol\":2460:2523  require(_status != _ENTERED, \"ReentrancyGuard: reentrant call\") */\n      tag_504\n      jumpi\n      mload(0x40)\n      shl(0xe5, 0x461bcd)\n      dup2\n      mstore\n        /* \"#utility.yul\":21660:21662   */\n      0x20\n        /* \"@openzeppelin/contracts/security/ReentrancyGuard.sol\":2460:2523  require(_status != _ENTERED, \"ReentrancyGuard: reentrant call\") */\n      0x04\n      dup3\n      add\n        /* \"#utility.yul\":21642:21663   */\n      mstore\n        /* \"#utility.yul\":21699:21701   */\n      0x1f\n        /* \"#utility.yul\":21679:21697   */\n      0x24\n      dup3\n      add\n        /* \"#utility.yul\":21672:21702   */\n      mstore\n        /* \"#utility.yul\":21738:21771   */\n      0x5265656e7472616e637947756172643a207265656e7472616e742063616c6c00\n        /* \"#utility.yul\":21718:21736   */\n      0x44\n      dup3\n      add\n        /* \"#utility.yul\":21711:21772   */\n      mstore\n        /* \"#utility.yul\":21789:21807   */\n      0x64\n      add\n        /* \"@openzeppelin/contracts/security/ReentrancyGuard.sol\":2460:2523  require(_status != _ENTERED, \"ReentrancyGuard: reentrant call\") */\n      tag_270\n        /* \"#utility.yul\":21458:21813   */\n      jump\n        /* \"@openzeppelin/contracts/security/ReentrancyGuard.sol\":2460:2523  require(_status != _ENTERED, \"ReentrancyGuard: reentrant call\") */\n    tag_504:\n        /* \"@openzeppelin/contracts/security/ReentrancyGuard.sol\":1759:1760  2 */\n      0x02\n        /* \"@openzeppelin/contracts/security/ReentrancyGuard.sol\":2598:2605  _status */\n      0x00\n        /* \"@openzeppelin/contracts/security/ReentrancyGuard.sol\":2598:2616  _status = _ENTERED */\n      sstore\n        /* \"@openzeppelin/contracts/security/ReentrancyGuard.sol\":2336:2623  function _nonReentrantBefore() private {... */\n      jump\t// out\n        /* \"@openzeppelin/contracts-upgradeable/proxy/utils/UUPSUpgradeable.sol\":4578:4890  function _checkProxy() internal view virtual {... */\n    tag_353:\n        /* \"@openzeppelin/contracts-upgradeable/proxy/utils/UUPSUpgradeable.sol\":4658:4662  this */\n      address\n      sub(shl(0xa0, 0x01), 0x01)\n        /* \"@openzeppelin/contracts-upgradeable/proxy/utils/UUPSUpgradeable.sol\":4667:4673  __self */\n      immutable(\"0x7e11962f85eb7ceb5b38e296d507e5039b360e5ad6815220a68768366dc10fdd\")\n        /* \"@openzeppelin/contracts-upgradeable/proxy/utils/UUPSUpgradeable.sol\":4650:4673  address(this) == __self */\n      and\n      eq\n      dup1\n        /* \"@openzeppelin/contracts-upgradeable/proxy/utils/UUPSUpgradeable.sol\":4650:4770  address(this) == __self || // Must be called through delegatecall... */\n      tag_509\n      jumpi\n      pop\n        /* \"@openzeppelin/contracts-upgradeable/proxy/utils/UUPSUpgradeable.sol\":4764:4770  __self */\n      immutable(\"0x7e11962f85eb7ceb5b38e296d507e5039b360e5ad6815220a68768366dc10fdd\")\n      sub(shl(0xa0, 0x01), 0x01)\n        /* \"@openzeppelin/contracts-upgradeable/proxy/utils/UUPSUpgradeable.sol\":4728:4770  ERC1967Utils.getImplementation() != __self */\n      and\n        /* \"@openzeppelin/contracts-upgradeable/proxy/utils/UUPSUpgradeable.sol\":4728:4760  ERC1967Utils.getImplementation() */\n      tag_510\n      mload(0x00)\n      codecopy(0x00, data_75b20eef8615de99c108b05f0dbda081c91897128caa336d75dffb97c4132b4d, 0x20)\n      mload(0x00)\n      swap1\n      0x00\n      mstore\n        /* \"@openzeppelin/contracts/proxy/ERC1967/ERC1967Utils.sol\":1519:1572  StorageSlot.getAddressSlot(IMPLEMENTATION_SLOT).value */\n      sload\n      sub(shl(0xa0, 0x01), 0x01)\n      and\n      swap1\n        /* \"@openzeppelin/contracts/proxy/ERC1967/ERC1967Utils.sol\":1441:1579  function getImplementation() internal view returns (address) {... */\n      jump\n        /* \"@openzeppelin/contracts-upgradeable/proxy/utils/UUPSUpgradeable.sol\":4728:4760  ERC1967Utils.getImplementation() */\n    tag_510:\n      sub(shl(0xa0, 0x01), 0x01)\n        /* \"@openzeppelin/contracts-upgradeable/proxy/utils/UUPSUpgradeable.sol\":4728:4770  ERC1967Utils.getImplementation() != __self */\n      and\n      eq\n      iszero\n        /* \"@openzeppelin/contracts-upgradeable/proxy/utils/UUPSUpgradeable.sol\":4650:4770  address(this) == __self || // Must be called through delegatecall... */\n    tag_509:\n        /* \"@openzeppelin/contracts-upgradeable/proxy/utils/UUPSUpgradeable.sol\":4633:4884  if (... */\n      iszero\n      tag_411\n      jumpi\n        /* \"@openzeppelin/contracts-upgradeable/proxy/utils/UUPSUpgradeable.sol\":4844:4873  UUPSUnauthorizedCallContext() */\n      mload(0x40)\n      shl(0xe1, 0x703e46dd)\n      dup2\n      mstore\n      0x04\n      add\n      mload(0x40)\n      dup1\n      swap2\n      sub\n      swap1\n      revert\n        /* \"contracts/StemPayLotteryManager.sol\":3342:3408  function _authorizeUpgrade(address) internal override onlyOwner {} */\n    tag_356:\n        /* \"@openzeppelin/contracts-upgradeable/access/OwnableUpgradeable.sol\":2334:2347  _checkOwner() */\n      tag_329\n        /* \"@openzeppelin/contracts-upgradeable/access/OwnableUpgradeable.sol\":2334:2345  _checkOwner */\n      tag_216\n        /* \"@openzeppelin/contracts-upgradeable/access/OwnableUpgradeable.sol\":2334:2347  _checkOwner() */\n      jump\t// in\n        /* \"@openzeppelin/contracts-upgradeable/proxy/utils/UUPSUpgradeable.sol\":6032:6570  function _upgradeToAndCallUUPS(address newImplementation, bytes memory data) private {... */\n    tag_358:\n        /* \"@openzeppelin/contracts-upgradeable/proxy/utils/UUPSUpgradeable.sol\":6149:6166  newImplementation */\n      dup2\n      sub(shl(0xa0, 0x01), 0x01)\n        /* \"@openzeppelin/contracts-upgradeable/proxy/utils/UUPSUpgradeable.sol\":6131:6181  IERC1822Proxiable(newImplementation).proxiableUUID */\n      and\n      0x52d1902d\n        /* \"@openzeppelin/contracts-upgradeable/proxy/utils/UUPSUpgradeable.sol\":6131:6183  IERC1822Proxiable(newImplementation).proxiableUUID() */\n      mload(0x40)\n      dup2\n      0xffffffff\n      and\n      0xe0\n      shl\n      dup2\n      mstore\n      0x04\n      add\n      0x20\n      mload(0x40)\n      dup1\n      dup4\n      sub\n      dup2\n      dup7\n      gas\n      staticcall\n      swap3\n      pop\n      pop\n      pop\n      dup1\n      iszero\n      tag_517\n      jumpi\n      pop\n      0x40\n      dup1\n      mload\n      0x1f\n      returndatasize\n      swap1\n      dup2\n      add\n      not(0x1f)\n      and\n      dup3\n      add\n      swap1\n      swap3\n      mstore\n      tag_518\n      swap2\n      dup2\n      add\n      swap1\n      tag_405\n      jump\t// in\n    tag_518:\n      0x01\n    tag_517:\n        /* \"@openzeppelin/contracts-upgradeable/proxy/utils/UUPSUpgradeable.sol\":6127:6564  try IERC1822Proxiable(newImplementation).proxiableUUID() returns (bytes32 slot) {... */\n      tag_520\n      jumpi\n        /* \"@openzeppelin/contracts-upgradeable/proxy/utils/UUPSUpgradeable.sol\":6493:6553  ERC1967Utils.ERC1967InvalidImplementation(newImplementation) */\n      mload(0x40)\n      shl(0xe0, 0x4c9c8ce3)\n      dup2\n      mstore\n      sub(shl(0xa0, 0x01), 0x01)\n        /* \"#utility.yul\":5888:5920   */\n      dup4\n      and\n        /* \"@openzeppelin/contracts-upgradeable/proxy/utils/UUPSUpgradeable.sol\":6493:6553  ERC1967Utils.ERC1967InvalidImplementation(newImplementation) */\n      0x04\n      dup3\n      add\n        /* \"#utility.yul\":5870:5921   */\n      mstore\n        /* \"#utility.yul\":5843:5861   */\n      0x24\n      add\n        /* \"@openzeppelin/contracts-upgradeable/proxy/utils/UUPSUpgradeable.sol\":6493:6553  ERC1967Utils.ERC1967InvalidImplementation(newImplementation) */\n      tag_270\n        /* \"#utility.yul\":5724:5927   */\n      jump\n        /* \"@openzeppelin/contracts-upgradeable/proxy/utils/UUPSUpgradeable.sol\":6127:6564  try IERC1822Proxiable(newImplementation).proxiableUUID() returns (bytes32 slot) {... */\n    tag_520:\n      mload(0x00)\n      codecopy(0x00, data_75b20eef8615de99c108b05f0dbda081c91897128caa336d75dffb97c4132b4d, 0x20)\n      mload(0x00)\n      swap1\n      0x00\n      mstore\n        /* \"@openzeppelin/contracts-upgradeable/proxy/utils/UUPSUpgradeable.sol\":6225:6265  slot != ERC1967Utils.IMPLEMENTATION_SLOT */\n      dup2\n      eq\n        /* \"@openzeppelin/contracts-upgradeable/proxy/utils/UUPSUpgradeable.sol\":6221:6341  if (slot != ERC1967Utils.IMPLEMENTATION_SLOT) {... */\n      tag_526\n      jumpi\n        /* \"@openzeppelin/contracts-upgradeable/proxy/utils/UUPSUpgradeable.sol\":6292:6326  UUPSUnsupportedProxiableUUID(slot) */\n      mload(0x40)\n      shl(0xe2, 0x2a875269)\n      dup2\n      mstore\n      0x04\n      dup2\n      add\n        /* \"#utility.yul\":2180:2205   */\n      dup3\n      swap1\n      mstore\n        /* \"#utility.yul\":2153:2171   */\n      0x24\n      add\n        /* \"@openzeppelin/contracts-upgradeable/proxy/utils/UUPSUpgradeable.sol\":6292:6326  UUPSUnsupportedProxiableUUID(slot) */\n      tag_270\n        /* \"#utility.yul\":2034:2211   */\n      jump\n        /* \"@openzeppelin/contracts-upgradeable/proxy/utils/UUPSUpgradeable.sol\":6221:6341  if (slot != ERC1967Utils.IMPLEMENTATION_SLOT) {... */\n    tag_526:\n        /* \"@openzeppelin/contracts-upgradeable/proxy/utils/UUPSUpgradeable.sol\":6354:6408  ERC1967Utils.upgradeToAndCall(newImplementation, data) */\n      tag_218\n        /* \"@openzeppelin/contracts-upgradeable/proxy/utils/UUPSUpgradeable.sol\":6384:6401  newImplementation */\n      dup4\n        /* \"@openzeppelin/contracts-upgradeable/proxy/utils/UUPSUpgradeable.sol\":6403:6407  data */\n      dup4\n        /* \"@openzeppelin/contracts-upgradeable/proxy/utils/UUPSUpgradeable.sol\":6354:6383  ERC1967Utils.upgradeToAndCall */\n      tag_529\n        /* \"@openzeppelin/contracts-upgradeable/proxy/utils/UUPSUpgradeable.sol\":6354:6408  ERC1967Utils.upgradeToAndCall(newImplementation, data) */\n      jump\t// in\n        /* \"@openzeppelin/contracts-upgradeable/proxy/utils/UUPSUpgradeable.sol\":5007:5220  function _checkNotDelegated() internal view virtual {... */\n    tag_361:\n        /* \"@openzeppelin/contracts-upgradeable/proxy/utils/UUPSUpgradeable.sol\":5081:5085  this */\n      address\n      sub(shl(0xa0, 0x01), 0x01)\n        /* \"@openzeppelin/contracts-upgradeable/proxy/utils/UUPSUpgradeable.sol\":5090:5096  __self */\n      immutable(\"0x7e11962f85eb7ceb5b38e296d507e5039b360e5ad6815220a68768366dc10fdd\")\n        /* \"@openzeppelin/contracts-upgradeable/proxy/utils/UUPSUpgradeable.sol\":5073:5096  address(this) != __self */\n      and\n      eq\n        /* \"@openzeppelin/contracts-upgradeable/proxy/utils/UUPSUpgradeable.sol\":5069:5214  if (address(this) != __self) {... */\n      tag_411\n      jumpi\n        /* \"@openzeppelin/contracts-upgradeable/proxy/utils/UUPSUpgradeable.sol\":5174:5203  UUPSUnauthorizedCallContext() */\n      mload(0x40)\n      shl(0xe1, 0x703e46dd)\n      dup2\n      mstore\n      0x04\n      add\n      mload(0x40)\n      dup1\n      swap2\n      sub\n      swap1\n      revert\n        /* \"@chainlink/contracts/src/v0.8/vrf/dev/libraries/VRFV2PlusClient.sol\":475:638  function _argsToBytes(ExtraArgsV1 memory extraArgs) internal pure returns (bytes memory bts) {... */\n    tag_399:\n        /* \"@chainlink/contracts/src/v0.8/vrf/dev/libraries/VRFV2PlusClient.sol\":550:566  bytes memory bts */\n      0x60\n        /* \"@chainlink/contracts/src/v0.8/vrf/dev/libraries/VRFV2PlusClient.sol\":211:239  keccak256(\"VRF ExtraArgsV1\") */\n      0x92fd13387c7fe7befbc38d303d6468778fb9731bc4583f17d92989c6fcfdeaaa\n        /* \"@chainlink/contracts/src/v0.8/vrf/dev/libraries/VRFV2PlusClient.sol\":623:632  extraArgs */\n      dup3\n        /* \"@chainlink/contracts/src/v0.8/vrf/dev/libraries/VRFV2PlusClient.sol\":581:633  abi.encodeWithSelector(EXTRA_ARGS_V1_TAG, extraArgs) */\n      add(0x24, mload(0x40))\n      tag_533\n      swap2\n        /* \"#utility.yul\":22241:22254   */\n      mload\n        /* \"#utility.yul\":22234:22255   */\n      iszero\n        /* \"#utility.yul\":22227:22256   */\n      iszero\n        /* \"#utility.yul\":22209:22257   */\n      dup2\n      mstore\n        /* \"#utility.yul\":22197:22199   */\n      0x20\n        /* \"#utility.yul\":22182:22200   */\n      add\n      swap1\n        /* \"#utility.yul\":22007:22263   */\n      jump\n        /* \"@chainlink/contracts/src/v0.8/vrf/dev/libraries/VRFV2PlusClient.sol\":581:633  abi.encodeWithSelector(EXTRA_ARGS_V1_TAG, extraArgs) */\n    tag_533:\n      0x40\n      dup1\n      mload\n      not(0x1f)\n      dup2\n      dup5\n      sub\n      add\n      dup2\n      mstore\n      swap2\n      swap1\n      mstore\n      0x20\n      dup2\n      add\n      dup1\n      mload\n      sub(shl(0xe0, 0x01), 0x01)\n      and\n      not(sub(shl(0xe0, 0x01), 0x01))\n      swap1\n      swap4\n      and\n      swap3\n      swap1\n      swap3\n      or\n      swap1\n      swap2\n      mstore\n      swap3\n        /* \"@chainlink/contracts/src/v0.8/vrf/dev/libraries/VRFV2PlusClient.sol\":475:638  function _argsToBytes(ExtraArgsV1 memory extraArgs) internal pure returns (bytes memory bts) {... */\n      swap2\n      pop\n      pop\n      jump\t// out\n        /* \"@openzeppelin/contracts-upgradeable/access/OwnableUpgradeable.sol\":3774:4022  function _transferOwnership(address newOwner) internal virtual {... */\n    tag_412:\n        /* \"@openzeppelin/contracts-upgradeable/access/OwnableUpgradeable.sol\":1313:1335  OwnableStorageLocation */\n      0x9016d09d72d40fdae2fd8ceac6b6234c7706214fd39c1cd1e609a0528c199300\n        /* \"@openzeppelin/contracts-upgradeable/access/OwnableUpgradeable.sol\":3923:3931  $._owner */\n      dup1\n      sload\n      not(sub(shl(0xa0, 0x01), 0x01))\n        /* \"@openzeppelin/contracts-upgradeable/access/OwnableUpgradeable.sol\":3941:3960  $._owner = newOwner */\n      dup2\n      and\n      sub(shl(0xa0, 0x01), 0x01)\n      dup5\n      dup2\n      and\n      swap2\n      dup3\n      or\n      dup5\n      sstore\n        /* \"@openzeppelin/contracts-upgradeable/access/OwnableUpgradeable.sol\":3975:4015  OwnershipTransferred(oldOwner, newOwner) */\n      mload(0x40)\n        /* \"@openzeppelin/contracts-upgradeable/access/OwnableUpgradeable.sol\":3923:3931  $._owner */\n      swap3\n      and\n      swap2\n      dup3\n      swap1\n        /* \"@openzeppelin/contracts-upgradeable/access/OwnableUpgradeable.sol\":3975:4015  OwnershipTransferred(oldOwner, newOwner) */\n      0x8be0079c531659141344cd1fd0a4f28419497f9722a3daafe3b4186f6b6457e0\n      swap1\n        /* \"@openzeppelin/contracts-upgradeable/access/OwnableUpgradeable.sol\":3847:3871  OwnableStorage storage $ */\n      0x00\n      swap1\n        /* \"@openzeppelin/contracts-upgradeable/access/OwnableUpgradeable.sol\":3975:4015  OwnershipTransferred(oldOwner, newOwner) */\n      log3\n        /* \"@openzeppelin/contracts-upgradeable/access/OwnableUpgradeable.sol\":3837:4022  {... */\n      pop\n      pop\n        /* \"@openzeppelin/contracts-upgradeable/access/OwnableUpgradeable.sol\":3774:4022  function _transferOwnership(address newOwner) internal virtual {... */\n      pop\n      jump\t// out\n        /* \"@openzeppelin/contracts-upgradeable/proxy/utils/Initializable.sol\":7082:7223  function _checkInitializing() internal view virtual {... */\n    tag_493:\n        /* \"@openzeppelin/contracts-upgradeable/proxy/utils/Initializable.sol\":7149:7166  _isInitializing() */\n      tag_541\n        /* \"@openzeppelin/contracts-upgradeable/proxy/utils/Initializable.sol\":7149:7164  _isInitializing */\n      tag_542\n        /* \"@openzeppelin/contracts-upgradeable/proxy/utils/Initializable.sol\":7149:7166  _isInitializing() */\n      jump\t// in\n    tag_541:\n        /* \"@openzeppelin/contracts-upgradeable/proxy/utils/Initializable.sol\":7144:7217  if (!_isInitializing()) {... */\n      tag_411\n      jumpi\n        /* \"@openzeppelin/contracts-upgradeable/proxy/utils/Initializable.sol\":7189:7206  NotInitializing() */\n      mload(0x40)\n      shl(0xe3, 0x1afcd79f)\n      dup2\n      mstore\n      0x04\n      add\n      mload(0x40)\n      dup1\n      swap2\n      sub\n      swap1\n      revert\n        /* \"@openzeppelin/contracts-upgradeable/access/OwnableUpgradeable.sol\":1980:2215  function __Ownable_init_unchained(address initialOwner) internal onlyInitializing {... */\n    tag_496:\n        /* \"@openzeppelin/contracts-upgradeable/proxy/utils/Initializable.sol\":6929:6949  _checkInitializing() */\n      tag_455\n        /* \"@openzeppelin/contracts-upgradeable/proxy/utils/Initializable.sol\":6929:6947  _checkInitializing */\n      tag_493\n        /* \"@openzeppelin/contracts-upgradeable/proxy/utils/Initializable.sol\":6929:6949  _checkInitializing() */\n      jump\t// in\n        /* \"@openzeppelin/contracts/proxy/ERC1967/ERC1967Utils.sol\":2264:2608  function upgradeToAndCall(address newImplementation, bytes memory data) internal {... */\n    tag_529:\n        /* \"@openzeppelin/contracts/proxy/ERC1967/ERC1967Utils.sol\":2355:2392  _setImplementation(newImplementation) */\n      tag_554\n        /* \"@openzeppelin/contracts/proxy/ERC1967/ERC1967Utils.sol\":2374:2391  newImplementation */\n      dup3\n        /* \"@openzeppelin/contracts/proxy/ERC1967/ERC1967Utils.sol\":2355:2373  _setImplementation */\n      tag_555\n        /* \"@openzeppelin/contracts/proxy/ERC1967/ERC1967Utils.sol\":2355:2392  _setImplementation(newImplementation) */\n      jump\t// in\n    tag_554:\n        /* \"@openzeppelin/contracts/proxy/ERC1967/ERC1967Utils.sol\":2407:2443  IERC1967.Upgraded(newImplementation) */\n      mload(0x40)\n      sub(shl(0xa0, 0x01), 0x01)\n      dup4\n      and\n      swap1\n      0xbc7cd75a20ee27fd9adebab32041f755214dbc6bffa90cc0225b39da2e5c2d3b\n      swap1\n      0x00\n      swap1\n      log2\n        /* \"@openzeppelin/contracts/proxy/ERC1967/ERC1967Utils.sol\":2458:2469  data.length */\n      dup1\n      mload\n        /* \"@openzeppelin/contracts/proxy/ERC1967/ERC1967Utils.sol\":2458:2473  data.length > 0 */\n      iszero\n        /* \"@openzeppelin/contracts/proxy/ERC1967/ERC1967Utils.sol\":2454:2602  if (data.length > 0) {... */\n      tag_556\n      jumpi\n        /* \"@openzeppelin/contracts/proxy/ERC1967/ERC1967Utils.sol\":2489:2542  Address.functionDelegateCall(newImplementation, data) */\n      tag_218\n        /* \"@openzeppelin/contracts/proxy/ERC1967/ERC1967Utils.sol\":2518:2535  newImplementation */\n      dup3\n        /* \"@openzeppelin/contracts/proxy/ERC1967/ERC1967Utils.sol\":2537:2541  data */\n      dup3\n        /* \"@openzeppelin/contracts/proxy/ERC1967/ERC1967Utils.sol\":2489:2517  Address.functionDelegateCall */\n      tag_558\n        /* \"@openzeppelin/contracts/proxy/ERC1967/ERC1967Utils.sol\":2489:2542  Address.functionDelegateCall(newImplementation, data) */\n      jump\t// in\n        /* \"@openzeppelin/contracts/proxy/ERC1967/ERC1967Utils.sol\":2454:2602  if (data.length > 0) {... */\n    tag_556:\n        /* \"@openzeppelin/contracts/proxy/ERC1967/ERC1967Utils.sol\":2573:2591  _checkNonPayable() */\n      tag_272\n        /* \"@openzeppelin/contracts/proxy/ERC1967/ERC1967Utils.sol\":2573:2589  _checkNonPayable */\n      tag_561\n        /* \"@openzeppelin/contracts/proxy/ERC1967/ERC1967Utils.sol\":2573:2591  _checkNonPayable() */\n      jump\t// in\n        /* \"@openzeppelin/contracts-upgradeable/proxy/utils/Initializable.sol\":8485:8605  function _isInitializing() internal view returns (bool) {... */\n    tag_542:\n        /* \"@openzeppelin/contracts-upgradeable/proxy/utils/Initializable.sol\":8535:8539  bool */\n      0x00\n        /* \"@openzeppelin/contracts-upgradeable/proxy/utils/Initializable.sol\":8558:8584  _getInitializableStorage() */\n      tag_563\n        /* \"@openzeppelin/contracts-upgradeable/proxy/utils/Initializable.sol\":8558:8582  _getInitializableStorage */\n      tag_252\n        /* \"@openzeppelin/contracts-upgradeable/proxy/utils/Initializable.sol\":8558:8584  _getInitializableStorage() */\n      jump\t// in\n    tag_563:\n        /* \"@openzeppelin/contracts-upgradeable/proxy/utils/Initializable.sol\":8558:8598  _getInitializableStorage()._initializing */\n      sload\n      shl(0x40, 0x01)\n      swap1\n      div\n      0xff\n      and\n      swap2\n      swap1\n      pop\n        /* \"@openzeppelin/contracts-upgradeable/proxy/utils/Initializable.sol\":8485:8605  function _isInitializing() internal view returns (bool) {... */\n      jump\t// out\n        /* \"@openzeppelin/contracts/proxy/ERC1967/ERC1967Utils.sol\":1671:1952  function _setImplementation(address newImplementation) private {... */\n    tag_555:\n        /* \"@openzeppelin/contracts/proxy/ERC1967/ERC1967Utils.sol\":1748:1765  newImplementation */\n      dup1\n      sub(shl(0xa0, 0x01), 0x01)\n        /* \"@openzeppelin/contracts/proxy/ERC1967/ERC1967Utils.sol\":1748:1777  newImplementation.code.length */\n      and\n      extcodesize\n        /* \"@openzeppelin/contracts/proxy/ERC1967/ERC1967Utils.sol\":1781:1782  0 */\n      0x00\n        /* \"@openzeppelin/contracts/proxy/ERC1967/ERC1967Utils.sol\":1748:1782  newImplementation.code.length == 0 */\n      sub\n        /* \"@openzeppelin/contracts/proxy/ERC1967/ERC1967Utils.sol\":1744:1863  if (newImplementation.code.length == 0) {... */\n      tag_566\n      jumpi\n        /* \"@openzeppelin/contracts/proxy/ERC1967/ERC1967Utils.sol\":1805:1852  ERC1967InvalidImplementation(newImplementation) */\n      mload(0x40)\n      shl(0xe0, 0x4c9c8ce3)\n      dup2\n      mstore\n      sub(shl(0xa0, 0x01), 0x01)\n        /* \"#utility.yul\":5888:5920   */\n      dup3\n      and\n        /* \"@openzeppelin/contracts/proxy/ERC1967/ERC1967Utils.sol\":1805:1852  ERC1967InvalidImplementation(newImplementation) */\n      0x04\n      dup3\n      add\n        /* \"#utility.yul\":5870:5921   */\n      mstore\n        /* \"#utility.yul\":5843:5861   */\n      0x24\n      add\n        /* \"@openzeppelin/contracts/proxy/ERC1967/ERC1967Utils.sol\":1805:1852  ERC1967InvalidImplementation(newImplementation) */\n      tag_270\n        /* \"#utility.yul\":5724:5927   */\n      jump\n        /* \"@openzeppelin/contracts/proxy/ERC1967/ERC1967Utils.sol\":1744:1863  if (newImplementation.code.length == 0) {... */\n    tag_566:\n      mload(0x00)\n      codecopy(0x00, data_75b20eef8615de99c108b05f0dbda081c91897128caa336d75dffb97c4132b4d, 0x20)\n      mload(0x00)\n      swap1\n      0x00\n      mstore\n        /* \"@openzeppelin/contracts/proxy/ERC1967/ERC1967Utils.sol\":1872:1945  StorageSlot.getAddressSlot(IMPLEMENTATION_SLOT).value = newImplementation */\n      dup1\n      sload\n      not(sub(shl(0xa0, 0x01), 0x01))\n      and\n      sub(shl(0xa0, 0x01), 0x01)\n      swap3\n      swap1\n      swap3\n      and\n      swap2\n      swap1\n      swap2\n      or\n      swap1\n      sstore\n        /* \"@openzeppelin/contracts/proxy/ERC1967/ERC1967Utils.sol\":1671:1952  function _setImplementation(address newImplementation) private {... */\n      jump\t// out\n        /* \"@openzeppelin/contracts/utils/Address.sol\":3916:4169  function functionDelegateCall(address target, bytes memory data) internal returns (bytes memory) {... */\n    tag_558:\n        /* \"@openzeppelin/contracts/utils/Address.sol\":3999:4011  bytes memory */\n      0x60\n        /* \"@openzeppelin/contracts/utils/Address.sol\":4024:4036  bool success */\n      0x00\n        /* \"@openzeppelin/contracts/utils/Address.sol\":4038:4061  bytes memory returndata */\n      0x00\n        /* \"@openzeppelin/contracts/utils/Address.sol\":4065:4071  target */\n      dup5\n      sub(shl(0xa0, 0x01), 0x01)\n        /* \"@openzeppelin/contracts/utils/Address.sol\":4065:4084  target.delegatecall */\n      and\n        /* \"@openzeppelin/contracts/utils/Address.sol\":4085:4089  data */\n      dup5\n        /* \"@openzeppelin/contracts/utils/Address.sol\":4065:4090  target.delegatecall(data) */\n      mload(0x40)\n      tag_570\n      swap2\n      swap1\n      tag_571\n      jump\t// in\n    tag_570:\n      0x00\n      mload(0x40)\n      dup1\n      dup4\n      sub\n      dup2\n      dup6\n      gas\n      delegatecall\n      swap2\n      pop\n      pop\n      returndatasize\n      dup1\n      0x00\n      dup2\n      eq\n      tag_574\n      jumpi\n      mload(0x40)\n      swap2\n      pop\n      and(add(returndatasize, 0x3f), not(0x1f))\n      dup3\n      add\n      0x40\n      mstore\n      returndatasize\n      dup3\n      mstore\n      returndatasize\n      0x00\n      0x20\n      dup5\n      add\n      returndatacopy\n      jump(tag_573)\n    tag_574:\n      0x60\n      swap2\n      pop\n    tag_573:\n      pop\n        /* \"@openzeppelin/contracts/utils/Address.sol\":4023:4090  (bool success, bytes memory returndata) = target.delegatecall(data) */\n      swap2\n      pop\n      swap2\n      pop\n        /* \"@openzeppelin/contracts/utils/Address.sol\":4107:4162  verifyCallResultFromTarget(target, success, returndata) */\n      tag_575\n        /* \"@openzeppelin/contracts/utils/Address.sol\":4134:4140  target */\n      dup6\n        /* \"@openzeppelin/contracts/utils/Address.sol\":4142:4149  success */\n      dup4\n        /* \"@openzeppelin/contracts/utils/Address.sol\":4151:4161  returndata */\n      dup4\n        /* \"@openzeppelin/contracts/utils/Address.sol\":4107:4133  verifyCallResultFromTarget */\n      tag_576\n        /* \"@openzeppelin/contracts/utils/Address.sol\":4107:4162  verifyCallResultFromTarget(target, success, returndata) */\n      jump\t// in\n    tag_575:\n        /* \"@openzeppelin/contracts/utils/Address.sol\":4100:4162  return verifyCallResultFromTarget(target, success, returndata) */\n      swap6\n        /* \"@openzeppelin/contracts/utils/Address.sol\":3916:4169  function functionDelegateCall(address target, bytes memory data) internal returns (bytes memory) {... */\n      swap5\n      pop\n      pop\n      pop\n      pop\n      pop\n      jump\t// out\n        /* \"@openzeppelin/contracts/proxy/ERC1967/ERC1967Utils.sol\":6113:6235  function _checkNonPayable() private {... */\n    tag_561:\n        /* \"@openzeppelin/contracts/proxy/ERC1967/ERC1967Utils.sol\":6163:6172  msg.value */\n      callvalue\n        /* \"@openzeppelin/contracts/proxy/ERC1967/ERC1967Utils.sol\":6163:6176  msg.value > 0 */\n      iszero\n        /* \"@openzeppelin/contracts/proxy/ERC1967/ERC1967Utils.sol\":6159:6229  if (msg.value > 0) {... */\n      tag_411\n      jumpi\n        /* \"@openzeppelin/contracts/proxy/ERC1967/ERC1967Utils.sol\":6199:6218  ERC1967NonPayable() */\n      mload(0x40)\n      shl(0xe0, 0xb398979f)\n      dup2\n      mstore\n      0x04\n      add\n      mload(0x40)\n      dup1\n      swap2\n      sub\n      swap1\n      revert\n        /* \"@openzeppelin/contracts/utils/Address.sol\":4437:5019  function verifyCallResultFromTarget(... */\n    tag_576:\n        /* \"@openzeppelin/contracts/utils/Address.sol\":4581:4593  bytes memory */\n      0x60\n        /* \"@openzeppelin/contracts/utils/Address.sol\":4610:4617  success */\n      dup3\n        /* \"@openzeppelin/contracts/utils/Address.sol\":4605:5013  if (!success) {... */\n      tag_580\n      jumpi\n        /* \"@openzeppelin/contracts/utils/Address.sol\":4633:4652  _revert(returndata) */\n      tag_581\n        /* \"@openzeppelin/contracts/utils/Address.sol\":4641:4651  returndata */\n      dup3\n        /* \"@openzeppelin/contracts/utils/Address.sol\":4633:4640  _revert */\n      tag_582\n        /* \"@openzeppelin/contracts/utils/Address.sol\":4633:4652  _revert(returndata) */\n      jump\t// in\n    tag_581:\n        /* \"@openzeppelin/contracts/utils/Address.sol\":4605:5013  if (!success) {... */\n      jump(tag_583)\n    tag_580:\n        /* \"@openzeppelin/contracts/utils/Address.sol\":4857:4874  returndata.length */\n      dup2\n      mload\n        /* \"@openzeppelin/contracts/utils/Address.sol\":4857:4879  returndata.length == 0 */\n      iszero\n        /* \"@openzeppelin/contracts/utils/Address.sol\":4857:4906  returndata.length == 0 && target.code.length == 0 */\n      dup1\n      iszero\n      tag_584\n      jumpi\n      pop\n      sub(shl(0xa0, 0x01), 0x01)\n        /* \"@openzeppelin/contracts/utils/Address.sol\":4883:4901  target.code.length */\n      dup5\n      and\n      extcodesize\n        /* \"@openzeppelin/contracts/utils/Address.sol\":4883:4906  target.code.length == 0 */\n      iszero\n        /* \"@openzeppelin/contracts/utils/Address.sol\":4857:4906  returndata.length == 0 && target.code.length == 0 */\n    tag_584:\n        /* \"@openzeppelin/contracts/utils/Address.sol\":4853:4972  if (returndata.length == 0 && target.code.length == 0) {... */\n      iszero\n      tag_585\n      jumpi\n        /* \"@openzeppelin/contracts/utils/Address.sol\":4933:4957  AddressEmptyCode(target) */\n      mload(0x40)\n      shl(0xe0, 0x9996b315)\n      dup2\n      mstore\n      sub(shl(0xa0, 0x01), 0x01)\n        /* \"#utility.yul\":5888:5920   */\n      dup6\n      and\n        /* \"@openzeppelin/contracts/utils/Address.sol\":4933:4957  AddressEmptyCode(target) */\n      0x04\n      dup3\n      add\n        /* \"#utility.yul\":5870:5921   */\n      mstore\n        /* \"#utility.yul\":5843:5861   */\n      0x24\n      add\n        /* \"@openzeppelin/contracts/utils/Address.sol\":4933:4957  AddressEmptyCode(target) */\n      tag_270\n        /* \"#utility.yul\":5724:5927   */\n      jump\n        /* \"@openzeppelin/contracts/utils/Address.sol\":4853:4972  if (returndata.length == 0 && target.code.length == 0) {... */\n    tag_585:\n      pop\n        /* \"@openzeppelin/contracts/utils/Address.sol\":4992:5002  returndata */\n      dup1\n        /* \"@openzeppelin/contracts/utils/Address.sol\":4605:5013  if (!success) {... */\n    tag_583:\n        /* \"@openzeppelin/contracts/utils/Address.sol\":4437:5019  function verifyCallResultFromTarget(... */\n      swap4\n      swap3\n      pop\n      pop\n      pop\n      jump\t// out\n        /* \"@openzeppelin/contracts/utils/Address.sol\":5559:6046  function _revert(bytes memory returndata) private pure {... */\n    tag_582:\n        /* \"@openzeppelin/contracts/utils/Address.sol\":5690:5707  returndata.length */\n      dup1\n      mload\n        /* \"@openzeppelin/contracts/utils/Address.sol\":5690:5711  returndata.length > 0 */\n      iszero\n        /* \"@openzeppelin/contracts/utils/Address.sol\":5686:6040  if (returndata.length > 0) {... */\n      tag_588\n      jumpi\n        /* \"@openzeppelin/contracts/utils/Address.sol\":5887:5897  returndata */\n      dup1\n        /* \"@openzeppelin/contracts/utils/Address.sol\":5881:5898  mload(returndata) */\n      mload\n        /* \"@openzeppelin/contracts/utils/Address.sol\":5943:5958  returndata_size */\n      dup1\n        /* \"@openzeppelin/contracts/utils/Address.sol\":5930:5940  returndata */\n      dup3\n        /* \"@openzeppelin/contracts/utils/Address.sol\":5926:5928  32 */\n      0x20\n        /* \"@openzeppelin/contracts/utils/Address.sol\":5922:5941  add(32, returndata) */\n      add\n        /* \"@openzeppelin/contracts/utils/Address.sol\":5915:5959  revert(add(32, returndata), returndata_size) */\n      revert\n        /* \"@openzeppelin/contracts/utils/Address.sol\":5686:6040  if (returndata.length > 0) {... */\n    tag_588:\n        /* \"@openzeppelin/contracts/utils/Address.sol\":6010:6029  Errors.FailedCall() */\n      mload(0x40)\n      shl(0xe0, 0xd6bda275)\n      dup2\n      mstore\n      0x04\n      add\n      mload(0x40)\n      dup1\n      swap2\n      sub\n      swap1\n      revert\n    tag_429:\n      pop\n      dup1\n      sload\n      0x00\n      dup3\n      sstore\n      swap1\n      0x00\n      mstore\n      keccak256(0x00, 0x20)\n      swap1\n      dup2\n      add\n      swap1\n      tag_329\n      swap2\n      swap1\n    tag_593:\n      dup1\n      dup3\n      gt\n      iszero\n      tag_594\n      jumpi\n      0x00\n      dup2\n      sstore\n      0x01\n      add\n      jump(tag_593)\n    tag_594:\n      pop\n      swap1\n      jump\t// out\n        /* \"#utility.yul\":14:738   */\n    tag_48:\n        /* \"#utility.yul\":109:115   */\n      0x00\n        /* \"#utility.yul\":117:123   */\n      0x00\n        /* \"#utility.yul\":125:131   */\n      0x00\n        /* \"#utility.yul\":178:180   */\n      0x40\n        /* \"#utility.yul\":166:175   */\n      dup5\n        /* \"#utility.yul\":157:164   */\n      dup7\n        /* \"#utility.yul\":153:176   */\n      sub\n        /* \"#utility.yul\":149:181   */\n      slt\n        /* \"#utility.yul\":146:198   */\n      iszero\n      tag_602\n      jumpi\n        /* \"#utility.yul\":194:195   */\n      0x00\n        /* \"#utility.yul\":191:192   */\n      0x00\n        /* \"#utility.yul\":184:196   */\n      revert\n        /* \"#utility.yul\":146:198   */\n    tag_602:\n        /* \"#utility.yul\":239:262   */\n      dup4\n      calldataload\n      swap3\n      pop\n        /* \"#utility.yul\":337:339   */\n      0x20\n        /* \"#utility.yul\":322:340   */\n      dup5\n      add\n        /* \"#utility.yul\":309:341   */\n      calldataload\n        /* \"#utility.yul\":364:382   */\n      0xffffffffffffffff\n        /* \"#utility.yul\":353:383   */\n      dup2\n      gt\n        /* \"#utility.yul\":350:400   */\n      iszero\n      tag_603\n      jumpi\n        /* \"#utility.yul\":396:397   */\n      0x00\n        /* \"#utility.yul\":393:394   */\n      0x00\n        /* \"#utility.yul\":386:398   */\n      revert\n        /* \"#utility.yul\":350:400   */\n    tag_603:\n        /* \"#utility.yul\":419:441   */\n      dup5\n      add\n        /* \"#utility.yul\":472:476   */\n      0x1f\n        /* \"#utility.yul\":464:477   */\n      dup2\n      add\n        /* \"#utility.yul\":460:487   */\n      dup7\n      sgt\n        /* \"#utility.yul\":450:505   */\n      tag_604\n      jumpi\n        /* \"#utility.yul\":501:502   */\n      0x00\n        /* \"#utility.yul\":498:499   */\n      0x00\n        /* \"#utility.yul\":491:503   */\n      revert\n        /* \"#utility.yul\":450:505   */\n    tag_604:\n        /* \"#utility.yul\":541:543   */\n      dup1\n        /* \"#utility.yul\":528:544   */\n      calldataload\n        /* \"#utility.yul\":567:585   */\n      0xffffffffffffffff\n        /* \"#utility.yul\":559:565   */\n      dup2\n        /* \"#utility.yul\":556:586   */\n      gt\n        /* \"#utility.yul\":553:603   */\n      iszero\n      tag_605\n      jumpi\n        /* \"#utility.yul\":599:600   */\n      0x00\n        /* \"#utility.yul\":596:597   */\n      0x00\n        /* \"#utility.yul\":589:601   */\n      revert\n        /* \"#utility.yul\":553:603   */\n    tag_605:\n        /* \"#utility.yul\":652:659   */\n      dup7\n        /* \"#utility.yul\":647:649   */\n      0x20\n        /* \"#utility.yul\":637:643   */\n      dup3\n        /* \"#utility.yul\":634:635   */\n      0x05\n        /* \"#utility.yul\":630:644   */\n      shl\n        /* \"#utility.yul\":626:628   */\n      dup5\n        /* \"#utility.yul\":622:645   */\n      add\n        /* \"#utility.yul\":618:650   */\n      add\n        /* \"#utility.yul\":615:660   */\n      gt\n        /* \"#utility.yul\":612:677   */\n      iszero\n      tag_606\n      jumpi\n        /* \"#utility.yul\":673:674   */\n      0x00\n        /* \"#utility.yul\":670:671   */\n      0x00\n        /* \"#utility.yul\":663:675   */\n      revert\n        /* \"#utility.yul\":612:677   */\n    tag_606:\n        /* \"#utility.yul\":14:738   */\n      swap4\n      swap7\n        /* \"#utility.yul\":704:706   */\n      0x20\n        /* \"#utility.yul\":696:707   */\n      swap2\n      swap1\n      swap2\n      add\n      swap6\n      pop\n        /* \"#utility.yul\":726:732   */\n      swap3\n      swap4\n      pop\n      pop\n      pop\n        /* \"#utility.yul\":14:738   */\n      jump\t// out\n        /* \"#utility.yul\":743:1354   */\n    tag_54:\n        /* \"#utility.yul\":933:935   */\n      0x20\n        /* \"#utility.yul\":945:966   */\n      dup1\n      dup3\n      mstore\n        /* \"#utility.yul\":1015:1028   */\n      dup3\n      mload\n        /* \"#utility.yul\":918:936   */\n      dup3\n      dup3\n      add\n        /* \"#utility.yul\":1037:1059   */\n      dup2\n      swap1\n      mstore\n        /* \"#utility.yul\":885:889   */\n      0x00\n      swap2\n        /* \"#utility.yul\":1116:1131   */\n      dup5\n      add\n      swap1\n        /* \"#utility.yul\":1090:1092   */\n      0x40\n        /* \"#utility.yul\":1075:1093   */\n      dup5\n      add\n      swap1\n        /* \"#utility.yul\":885:889   */\n      dup4\n        /* \"#utility.yul\":1159:1328   */\n    tag_608:\n        /* \"#utility.yul\":1173:1179   */\n      dup2\n        /* \"#utility.yul\":1170:1171   */\n      dup2\n        /* \"#utility.yul\":1167:1180   */\n      lt\n        /* \"#utility.yul\":1159:1328   */\n      iszero\n      tag_610\n      jumpi\n        /* \"#utility.yul\":1234:1247   */\n      dup4\n      mload\n        /* \"#utility.yul\":1222:1248   */\n      dup4\n      mstore\n        /* \"#utility.yul\":1277:1279   */\n      0x20\n        /* \"#utility.yul\":1303:1318   */\n      swap4\n      dup5\n      add\n      swap4\n        /* \"#utility.yul\":1268:1280   */\n      swap1\n      swap3\n      add\n      swap2\n        /* \"#utility.yul\":1195:1196   */\n      0x01\n        /* \"#utility.yul\":1188:1197   */\n      add\n        /* \"#utility.yul\":1159:1328   */\n      jump(tag_608)\n    tag_610:\n      pop\n        /* \"#utility.yul\":1345:1348   */\n      swap1\n      swap6\n        /* \"#utility.yul\":743:1354   */\n      swap5\n      pop\n      pop\n      pop\n      pop\n      pop\n      jump\t// out\n        /* \"#utility.yul\":1359:1532   */\n    tag_595:\n        /* \"#utility.yul\":1427:1447   */\n      dup1\n      calldataload\n      sub(shl(0xa0, 0x01), 0x01)\n        /* \"#utility.yul\":1476:1507   */\n      dup2\n      and\n        /* \"#utility.yul\":1466:1508   */\n      dup2\n      eq\n        /* \"#utility.yul\":1456:1526   */\n      tag_612\n      jumpi\n        /* \"#utility.yul\":1522:1523   */\n      0x00\n        /* \"#utility.yul\":1519:1520   */\n      0x00\n        /* \"#utility.yul\":1512:1524   */\n      revert\n        /* \"#utility.yul\":1456:1526   */\n    tag_612:\n        /* \"#utility.yul\":1359:1532   */\n      swap2\n      swap1\n      pop\n      jump\t// out\n        /* \"#utility.yul\":1537:1837   */\n    tag_58:\n        /* \"#utility.yul\":1605:1611   */\n      0x00\n        /* \"#utility.yul\":1613:1619   */\n      0x00\n        /* \"#utility.yul\":1666:1668   */\n      0x40\n        /* \"#utility.yul\":1654:1663   */\n      dup4\n        /* \"#utility.yul\":1645:1652   */\n      dup6\n        /* \"#utility.yul\":1641:1664   */\n      sub\n        /* \"#utility.yul\":1637:1669   */\n      slt\n        /* \"#utility.yul\":1634:1686   */\n      iszero\n      tag_614\n      jumpi\n        /* \"#utility.yul\":1682:1683   */\n      0x00\n        /* \"#utility.yul\":1679:1680   */\n      0x00\n        /* \"#utility.yul\":1672:1684   */\n      revert\n        /* \"#utility.yul\":1634:1686   */\n    tag_614:\n        /* \"#utility.yul\":1727:1750   */\n      dup3\n      calldataload\n      swap2\n      pop\n        /* \"#utility.yul\":1793:1831   */\n      tag_615\n        /* \"#utility.yul\":1827:1829   */\n      0x20\n        /* \"#utility.yul\":1812:1830   */\n      dup5\n      add\n        /* \"#utility.yul\":1793:1831   */\n      tag_595\n      jump\t// in\n    tag_615:\n        /* \"#utility.yul\":1783:1831   */\n      swap1\n      pop\n        /* \"#utility.yul\":1537:1837   */\n      swap3\n      pop\n      swap3\n      swap1\n      pop\n      jump\t// out\n        /* \"#utility.yul\":2216:2734   */\n    tag_70:\n        /* \"#utility.yul\":2311:2317   */\n      0x00\n        /* \"#utility.yul\":2319:2325   */\n      0x00\n        /* \"#utility.yul\":2327:2333   */\n      0x00\n        /* \"#utility.yul\":2335:2341   */\n      0x00\n        /* \"#utility.yul\":2343:2349   */\n      0x00\n        /* \"#utility.yul\":2396:2399   */\n      0xa0\n        /* \"#utility.yul\":2384:2393   */\n      dup7\n        /* \"#utility.yul\":2375:2382   */\n      dup9\n        /* \"#utility.yul\":2371:2394   */\n      sub\n        /* \"#utility.yul\":2367:2400   */\n      slt\n        /* \"#utility.yul\":2364:2417   */\n      iszero\n      tag_619\n      jumpi\n        /* \"#utility.yul\":2413:2414   */\n      0x00\n        /* \"#utility.yul\":2410:2411   */\n      0x00\n        /* \"#utility.yul\":2403:2415   */\n      revert\n        /* \"#utility.yul\":2364:2417   */\n    tag_619:\n        /* \"#utility.yul\":2436:2465   */\n      tag_620\n        /* \"#utility.yul\":2455:2464   */\n      dup7\n        /* \"#utility.yul\":2436:2465   */\n      tag_595\n      jump\t// in\n    tag_620:\n        /* \"#utility.yul\":2426:2465   */\n      swap5\n      pop\n        /* \"#utility.yul\":2512:2514   */\n      0x20\n        /* \"#utility.yul\":2497:2515   */\n      dup7\n      add\n        /* \"#utility.yul\":2484:2516   */\n      calldataload\n      swap4\n      pop\n        /* \"#utility.yul\":2585:2587   */\n      0x40\n        /* \"#utility.yul\":2570:2588   */\n      dup7\n      add\n        /* \"#utility.yul\":2557:2589   */\n      calldataload\n      swap3\n      pop\n        /* \"#utility.yul\":2632:2670   */\n      tag_621\n        /* \"#utility.yul\":2666:2668   */\n      0x60\n        /* \"#utility.yul\":2651:2669   */\n      dup8\n      add\n        /* \"#utility.yul\":2632:2670   */\n      tag_595\n      jump\t// in\n    tag_621:\n        /* \"#utility.yul\":2622:2670   */\n      swap2\n      pop\n        /* \"#utility.yul\":2689:2728   */\n      tag_622\n        /* \"#utility.yul\":2723:2726   */\n      0x80\n        /* \"#utility.yul\":2712:2721   */\n      dup8\n        /* \"#utility.yul\":2708:2727   */\n      add\n        /* \"#utility.yul\":2689:2728   */\n      tag_595\n      jump\t// in\n    tag_622:\n        /* \"#utility.yul\":2679:2728   */\n      swap1\n      pop\n        /* \"#utility.yul\":2216:2734   */\n      swap3\n      swap6\n      pop\n      swap3\n      swap6\n      swap1\n      swap4\n      pop\n      jump\t// out\n        /* \"#utility.yul\":2739:2965   */\n    tag_75:\n        /* \"#utility.yul\":2798:2804   */\n      0x00\n        /* \"#utility.yul\":2851:2853   */\n      0x20\n        /* \"#utility.yul\":2839:2848   */\n      dup3\n        /* \"#utility.yul\":2830:2837   */\n      dup5\n        /* \"#utility.yul\":2826:2849   */\n      sub\n        /* \"#utility.yul\":2822:2854   */\n      slt\n        /* \"#utility.yul\":2819:2871   */\n      iszero\n      tag_624\n      jumpi\n        /* \"#utility.yul\":2867:2868   */\n      0x00\n        /* \"#utility.yul\":2864:2865   */\n      0x00\n        /* \"#utility.yul\":2857:2869   */\n      revert\n        /* \"#utility.yul\":2819:2871   */\n    tag_624:\n      pop\n        /* \"#utility.yul\":2912:2935   */\n      calldataload\n      swap2\n        /* \"#utility.yul\":2739:2965   */\n      swap1\n      pop\n      jump\t// out\n        /* \"#utility.yul\":4197:4324   */\n    tag_223:\n        /* \"#utility.yul\":4258:4268   */\n      0x4e487b71\n        /* \"#utility.yul\":4253:4256   */\n      0xe0\n        /* \"#utility.yul\":4249:4269   */\n      shl\n        /* \"#utility.yul\":4246:4247   */\n      0x00\n        /* \"#utility.yul\":4239:4270   */\n      mstore\n        /* \"#utility.yul\":4289:4293   */\n      0x41\n        /* \"#utility.yul\":4286:4287   */\n      0x04\n        /* \"#utility.yul\":4279:4294   */\n      mstore\n        /* \"#utility.yul\":4313:4317   */\n      0x24\n        /* \"#utility.yul\":4310:4311   */\n      0x00\n        /* \"#utility.yul\":4303:4318   */\n      revert\n        /* \"#utility.yul\":4329:4604   */\n    tag_597:\n        /* \"#utility.yul\":4400:4402   */\n      0x40\n        /* \"#utility.yul\":4394:4403   */\n      mload\n        /* \"#utility.yul\":4465:4467   */\n      0x1f\n        /* \"#utility.yul\":4446:4459   */\n      dup3\n      add\n      not(0x1f)\n        /* \"#utility.yul\":4442:4469   */\n      and\n        /* \"#utility.yul\":4430:4470   */\n      dup2\n      add\n        /* \"#utility.yul\":4500:4518   */\n      0xffffffffffffffff\n        /* \"#utility.yul\":4485:4519   */\n      dup2\n      gt\n        /* \"#utility.yul\":4521:4543   */\n      dup3\n      dup3\n      lt\n        /* \"#utility.yul\":4482:4544   */\n      or\n        /* \"#utility.yul\":4479:4567   */\n      iszero\n      tag_631\n      jumpi\n        /* \"#utility.yul\":4547:4565   */\n      tag_631\n      tag_223\n      jump\t// in\n    tag_631:\n        /* \"#utility.yul\":4583:4585   */\n      0x40\n        /* \"#utility.yul\":4576:4598   */\n      mstore\n        /* \"#utility.yul\":4329:4604   */\n      swap2\n      swap1\n      pop\n      jump\t// out\n        /* \"#utility.yul\":4609:5719   */\n    tag_87:\n        /* \"#utility.yul\":4702:4708   */\n      0x00\n        /* \"#utility.yul\":4710:4716   */\n      0x00\n        /* \"#utility.yul\":4763:4765   */\n      0x40\n        /* \"#utility.yul\":4751:4760   */\n      dup4\n        /* \"#utility.yul\":4742:4749   */\n      dup6\n        /* \"#utility.yul\":4738:4761   */\n      sub\n        /* \"#utility.yul\":4734:4766   */\n      slt\n        /* \"#utility.yul\":4731:4783   */\n      iszero\n      tag_633\n      jumpi\n        /* \"#utility.yul\":4779:4780   */\n      0x00\n        /* \"#utility.yul\":4776:4777   */\n      0x00\n        /* \"#utility.yul\":4769:4781   */\n      revert\n        /* \"#utility.yul\":4731:4783   */\n    tag_633:\n        /* \"#utility.yul\":4824:4847   */\n      dup3\n      calldataload\n      swap2\n      pop\n        /* \"#utility.yul\":4922:4924   */\n      0x20\n        /* \"#utility.yul\":4907:4925   */\n      dup4\n      add\n        /* \"#utility.yul\":4894:4926   */\n      calldataload\n        /* \"#utility.yul\":4949:4967   */\n      0xffffffffffffffff\n        /* \"#utility.yul\":4938:4968   */\n      dup2\n      gt\n        /* \"#utility.yul\":4935:4985   */\n      iszero\n      tag_634\n      jumpi\n        /* \"#utility.yul\":4981:4982   */\n      0x00\n        /* \"#utility.yul\":4978:4979   */\n      0x00\n        /* \"#utility.yul\":4971:4983   */\n      revert\n        /* \"#utility.yul\":4935:4985   */\n    tag_634:\n        /* \"#utility.yul\":5004:5026   */\n      dup4\n      add\n        /* \"#utility.yul\":5057:5061   */\n      0x1f\n        /* \"#utility.yul\":5049:5062   */\n      dup2\n      add\n        /* \"#utility.yul\":5045:5072   */\n      dup6\n      sgt\n        /* \"#utility.yul\":5035:5090   */\n      tag_635\n      jumpi\n        /* \"#utility.yul\":5086:5087   */\n      0x00\n        /* \"#utility.yul\":5083:5084   */\n      0x00\n        /* \"#utility.yul\":5076:5088   */\n      revert\n        /* \"#utility.yul\":5035:5090   */\n    tag_635:\n        /* \"#utility.yul\":5126:5128   */\n      dup1\n        /* \"#utility.yul\":5113:5129   */\n      calldataload\n        /* \"#utility.yul\":5152:5170   */\n      0xffffffffffffffff\n        /* \"#utility.yul\":5144:5150   */\n      dup2\n        /* \"#utility.yul\":5141:5171   */\n      gt\n        /* \"#utility.yul\":5138:5194   */\n      iszero\n      tag_637\n      jumpi\n        /* \"#utility.yul\":5174:5192   */\n      tag_637\n      tag_223\n      jump\t// in\n    tag_637:\n        /* \"#utility.yul\":5220:5226   */\n      dup1\n        /* \"#utility.yul\":5217:5218   */\n      0x05\n        /* \"#utility.yul\":5213:5227   */\n      shl\n        /* \"#utility.yul\":5247:5275   */\n      tag_638\n        /* \"#utility.yul\":5271:5273   */\n      0x20\n        /* \"#utility.yul\":5267:5269   */\n      dup3\n        /* \"#utility.yul\":5263:5274   */\n      add\n        /* \"#utility.yul\":5247:5275   */\n      tag_597\n      jump\t// in\n    tag_638:\n        /* \"#utility.yul\":5309:5328   */\n      swap2\n      dup3\n      mstore\n        /* \"#utility.yul\":5353:5355   */\n      0x20\n        /* \"#utility.yul\":5383:5394   */\n      dup2\n      dup5\n      add\n        /* \"#utility.yul\":5379:5399   */\n      dup2\n      add\n      swap3\n        /* \"#utility.yul\":5344:5356   */\n      swap1\n      dup2\n      add\n      swap1\n        /* \"#utility.yul\":5411:5430   */\n      dup9\n      dup5\n      gt\n        /* \"#utility.yul\":5408:5447   */\n      iszero\n      tag_639\n      jumpi\n        /* \"#utility.yul\":5443:5444   */\n      0x00\n        /* \"#utility.yul\":5440:5441   */\n      0x00\n        /* \"#utility.yul\":5433:5445   */\n      revert\n        /* \"#utility.yul\":5408:5447   */\n    tag_639:\n        /* \"#utility.yul\":5475:5477   */\n      0x20\n        /* \"#utility.yul\":5471:5473   */\n      dup6\n        /* \"#utility.yul\":5467:5478   */\n      add\n        /* \"#utility.yul\":5456:5478   */\n      swap5\n      pop\n        /* \"#utility.yul\":5487:5689   */\n    tag_640:\n        /* \"#utility.yul\":5503:5509   */\n      dup4\n        /* \"#utility.yul\":5498:5501   */\n      dup6\n        /* \"#utility.yul\":5495:5510   */\n      lt\n        /* \"#utility.yul\":5487:5689   */\n      iszero\n      tag_642\n      jumpi\n        /* \"#utility.yul\":5597:5614   */\n      dup5\n      calldataload\n        /* \"#utility.yul\":5627:5647   */\n      dup1\n      dup4\n      mstore\n        /* \"#utility.yul\":5676:5678   */\n      0x20\n        /* \"#utility.yul\":5520:5532   */\n      swap6\n      dup7\n      add\n      swap6\n        /* \"#utility.yul\":5597:5614   */\n      swap1\n      swap4\n      pop\n        /* \"#utility.yul\":5667:5679   */\n      swap1\n      swap2\n      add\n      swap1\n        /* \"#utility.yul\":5487:5689   */\n      jump(tag_640)\n    tag_642:\n        /* \"#utility.yul\":5708:5713   */\n      dup1\n        /* \"#utility.yul\":5698:5713   */\n      swap6\n      pop\n      pop\n      pop\n      pop\n      pop\n      pop\n        /* \"#utility.yul\":4609:5719   */\n      swap3\n      pop\n      swap3\n      swap1\n      pop\n      jump\t// out\n        /* \"#utility.yul\":6129:6475   */\n    tag_102:\n        /* \"#utility.yul\":6197:6203   */\n      0x00\n        /* \"#utility.yul\":6205:6211   */\n      0x00\n        /* \"#utility.yul\":6258:6260   */\n      0x40\n        /* \"#utility.yul\":6246:6255   */\n      dup4\n        /* \"#utility.yul\":6237:6244   */\n      dup6\n        /* \"#utility.yul\":6233:6256   */\n      sub\n        /* \"#utility.yul\":6229:6261   */\n      slt\n        /* \"#utility.yul\":6226:6278   */\n      iszero\n      tag_646\n      jumpi\n        /* \"#utility.yul\":6274:6275   */\n      0x00\n        /* \"#utility.yul\":6271:6272   */\n      0x00\n        /* \"#utility.yul\":6264:6276   */\n      revert\n        /* \"#utility.yul\":6226:6278   */\n    tag_646:\n      pop\n      pop\n        /* \"#utility.yul\":6319:6342   */\n      dup1\n      calldataload\n      swap3\n        /* \"#utility.yul\":6439:6441   */\n      0x20\n        /* \"#utility.yul\":6424:6442   */\n      swap1\n      swap2\n      add\n        /* \"#utility.yul\":6411:6443   */\n      calldataload\n      swap2\n      pop\n        /* \"#utility.yul\":6129:6475   */\n      jump\t// out\n        /* \"#utility.yul\":6480:7505   */\n    tag_116:\n        /* \"#utility.yul\":6602:6608   */\n      0x00\n        /* \"#utility.yul\":6610:6616   */\n      0x00\n        /* \"#utility.yul\":6618:6624   */\n      0x00\n        /* \"#utility.yul\":6626:6632   */\n      0x00\n        /* \"#utility.yul\":6634:6640   */\n      0x00\n        /* \"#utility.yul\":6642:6648   */\n      0x00\n        /* \"#utility.yul\":6650:6656   */\n      0x00\n        /* \"#utility.yul\":6658:6664   */\n      0x00\n        /* \"#utility.yul\":6711:6714   */\n      0x0100\n        /* \"#utility.yul\":6699:6708   */\n      dup10\n        /* \"#utility.yul\":6690:6697   */\n      dup12\n        /* \"#utility.yul\":6686:6709   */\n      sub\n        /* \"#utility.yul\":6682:6715   */\n      slt\n        /* \"#utility.yul\":6679:6732   */\n      iszero\n      tag_648\n      jumpi\n        /* \"#utility.yul\":6728:6729   */\n      0x00\n        /* \"#utility.yul\":6725:6726   */\n      0x00\n        /* \"#utility.yul\":6718:6730   */\n      revert\n        /* \"#utility.yul\":6679:6732   */\n    tag_648:\n        /* \"#utility.yul\":6751:6780   */\n      tag_649\n        /* \"#utility.yul\":6770:6779   */\n      dup10\n        /* \"#utility.yul\":6751:6780   */\n      tag_595\n      jump\t// in\n    tag_649:\n        /* \"#utility.yul\":6741:6780   */\n      swap11\n        /* \"#utility.yul\":6849:6851   */\n      0x20\n        /* \"#utility.yul\":6834:6852   */\n      dup11\n      add\n        /* \"#utility.yul\":6821:6853   */\n      calldataload\n      swap11\n      pop\n        /* \"#utility.yul\":6950:6952   */\n      0x40\n        /* \"#utility.yul\":6935:6953   */\n      dup11\n      add\n        /* \"#utility.yul\":6922:6954   */\n      calldataload\n      swap10\n        /* \"#utility.yul\":7053:7055   */\n      0x60\n        /* \"#utility.yul\":7038:7056   */\n      dup2\n      add\n        /* \"#utility.yul\":7025:7057   */\n      calldataload\n      swap10\n      pop\n        /* \"#utility.yul\":7156:7159   */\n      0x80\n        /* \"#utility.yul\":7141:7160   */\n      dup2\n      add\n        /* \"#utility.yul\":7128:7161   */\n      calldataload\n      swap9\n      pop\n        /* \"#utility.yul\":7260:7263   */\n      0xa0\n        /* \"#utility.yul\":7245:7264   */\n      dup2\n      add\n        /* \"#utility.yul\":7232:7265   */\n      calldataload\n      swap8\n      pop\n        /* \"#utility.yul\":7364:7367   */\n      0xc0\n        /* \"#utility.yul\":7349:7368   */\n      dup2\n      add\n        /* \"#utility.yul\":7336:7369   */\n      calldataload\n      swap7\n      pop\n        /* \"#utility.yul\":7468:7471   */\n      0xe0\n        /* \"#utility.yul\":7453:7472   */\n      add\n        /* \"#utility.yul\":7440:7473   */\n      calldataload\n      swap5\n      pop\n        /* \"#utility.yul\":6480:7505   */\n      swap3\n      pop\n      pop\n      pop\n      jump\t// out\n        /* \"#utility.yul\":7510:8349   */\n    tag_128:\n        /* \"#utility.yul\":7587:7593   */\n      0x00\n        /* \"#utility.yul\":7595:7601   */\n      0x00\n        /* \"#utility.yul\":7648:7650   */\n      0x40\n        /* \"#utility.yul\":7636:7645   */\n      dup4\n        /* \"#utility.yul\":7627:7634   */\n      dup6\n        /* \"#utility.yul\":7623:7646   */\n      sub\n        /* \"#utility.yul\":7619:7651   */\n      slt\n        /* \"#utility.yul\":7616:7668   */\n      iszero\n      tag_651\n      jumpi\n        /* \"#utility.yul\":7664:7665   */\n      0x00\n        /* \"#utility.yul\":7661:7662   */\n      0x00\n        /* \"#utility.yul\":7654:7666   */\n      revert\n        /* \"#utility.yul\":7616:7668   */\n    tag_651:\n        /* \"#utility.yul\":7687:7716   */\n      tag_652\n        /* \"#utility.yul\":7706:7715   */\n      dup4\n        /* \"#utility.yul\":7687:7716   */\n      tag_595\n      jump\t// in\n    tag_652:\n        /* \"#utility.yul\":7677:7716   */\n      swap2\n      pop\n        /* \"#utility.yul\":7767:7769   */\n      0x20\n        /* \"#utility.yul\":7756:7765   */\n      dup4\n        /* \"#utility.yul\":7752:7770   */\n      add\n        /* \"#utility.yul\":7739:7771   */\n      calldataload\n        /* \"#utility.yul\":7794:7812   */\n      0xffffffffffffffff\n        /* \"#utility.yul\":7786:7792   */\n      dup2\n        /* \"#utility.yul\":7783:7813   */\n      gt\n        /* \"#utility.yul\":7780:7830   */\n      iszero\n      tag_653\n      jumpi\n        /* \"#utility.yul\":7826:7827   */\n      0x00\n        /* \"#utility.yul\":7823:7824   */\n      0x00\n        /* \"#utility.yul\":7816:7828   */\n      revert\n        /* \"#utility.yul\":7780:7830   */\n    tag_653:\n        /* \"#utility.yul\":7849:7871   */\n      dup4\n      add\n        /* \"#utility.yul\":7902:7906   */\n      0x1f\n        /* \"#utility.yul\":7894:7907   */\n      dup2\n      add\n        /* \"#utility.yul\":7890:7917   */\n      dup6\n      sgt\n        /* \"#utility.yul\":7880:7935   */\n      tag_654\n      jumpi\n        /* \"#utility.yul\":7931:7932   */\n      0x00\n        /* \"#utility.yul\":7928:7929   */\n      0x00\n        /* \"#utility.yul\":7921:7933   */\n      revert\n        /* \"#utility.yul\":7880:7935   */\n    tag_654:\n        /* \"#utility.yul\":7971:7973   */\n      dup1\n        /* \"#utility.yul\":7958:7974   */\n      calldataload\n        /* \"#utility.yul\":7997:8015   */\n      0xffffffffffffffff\n        /* \"#utility.yul\":7989:7995   */\n      dup2\n        /* \"#utility.yul\":7986:8016   */\n      gt\n        /* \"#utility.yul\":7983:8039   */\n      iszero\n      tag_656\n      jumpi\n        /* \"#utility.yul\":8019:8037   */\n      tag_656\n      tag_223\n      jump\t// in\n    tag_656:\n        /* \"#utility.yul\":8061:8118   */\n      tag_657\n        /* \"#utility.yul\":8108:8110   */\n      0x1f\n        /* \"#utility.yul\":8085:8102   */\n      dup3\n      add\n      not(0x1f)\n        /* \"#utility.yul\":8081:8112   */\n      and\n        /* \"#utility.yul\":8114:8116   */\n      0x20\n        /* \"#utility.yul\":8077:8117   */\n      add\n        /* \"#utility.yul\":8061:8118   */\n      tag_597\n      jump\t// in\n    tag_657:\n        /* \"#utility.yul\":8141:8147   */\n      dup2\n        /* \"#utility.yul\":8134:8139   */\n      dup2\n        /* \"#utility.yul\":8127:8148   */\n      mstore\n        /* \"#utility.yul\":8189:8196   */\n      dup7\n        /* \"#utility.yul\":8184:8186   */\n      0x20\n        /* \"#utility.yul\":8175:8181   */\n      dup4\n        /* \"#utility.yul\":8171:8173   */\n      dup6\n        /* \"#utility.yul\":8167:8182   */\n      add\n        /* \"#utility.yul\":8163:8187   */\n      add\n        /* \"#utility.yul\":8160:8197   */\n      gt\n        /* \"#utility.yul\":8157:8214   */\n      iszero\n      tag_658\n      jumpi\n        /* \"#utility.yul\":8210:8211   */\n      0x00\n        /* \"#utility.yul\":8207:8208   */\n      0x00\n        /* \"#utility.yul\":8200:8212   */\n      revert\n        /* \"#utility.yul\":8157:8214   */\n    tag_658:\n        /* \"#utility.yul\":8265:8271   */\n      dup2\n        /* \"#utility.yul\":8260:8262   */\n      0x20\n        /* \"#utility.yul\":8256:8258   */\n      dup5\n        /* \"#utility.yul\":8252:8263   */\n      add\n        /* \"#utility.yul\":8247:8249   */\n      0x20\n        /* \"#utility.yul\":8240:8245   */\n      dup4\n        /* \"#utility.yul\":8236:8250   */\n      add\n        /* \"#utility.yul\":8223:8272   */\n      calldatacopy\n        /* \"#utility.yul\":8317:8318   */\n      0x00\n        /* \"#utility.yul\":8312:8314   */\n      0x20\n        /* \"#utility.yul\":8303:8309   */\n      dup4\n        /* \"#utility.yul\":8296:8301   */\n      dup4\n        /* \"#utility.yul\":8292:8310   */\n      add\n        /* \"#utility.yul\":8288:8315   */\n      add\n        /* \"#utility.yul\":8281:8319   */\n      mstore\n        /* \"#utility.yul\":8338:8343   */\n      dup1\n        /* \"#utility.yul\":8328:8343   */\n      swap4\n      pop\n      pop\n      pop\n      pop\n        /* \"#utility.yul\":7510:8349   */\n      swap3\n      pop\n      swap3\n      swap1\n      pop\n      jump\t// out\n        /* \"#utility.yul\":8536:8825   */\n    tag_598:\n        /* \"#utility.yul\":8578:8581   */\n      0x00\n        /* \"#utility.yul\":8616:8621   */\n      dup2\n        /* \"#utility.yul\":8610:8622   */\n      mload\n        /* \"#utility.yul\":8643:8649   */\n      dup1\n        /* \"#utility.yul\":8638:8641   */\n      dup5\n        /* \"#utility.yul\":8631:8650   */\n      mstore\n        /* \"#utility.yul\":8699:8705   */\n      dup1\n        /* \"#utility.yul\":8692:8696   */\n      0x20\n        /* \"#utility.yul\":8685:8690   */\n      dup5\n        /* \"#utility.yul\":8681:8697   */\n      add\n        /* \"#utility.yul\":8674:8678   */\n      0x20\n        /* \"#utility.yul\":8669:8672   */\n      dup7\n        /* \"#utility.yul\":8665:8679   */\n      add\n        /* \"#utility.yul\":8659:8706   */\n      mcopy\n        /* \"#utility.yul\":8751:8752   */\n      0x00\n        /* \"#utility.yul\":8744:8748   */\n      0x20\n        /* \"#utility.yul\":8735:8741   */\n      dup3\n        /* \"#utility.yul\":8730:8733   */\n      dup7\n        /* \"#utility.yul\":8726:8742   */\n      add\n        /* \"#utility.yul\":8722:8749   */\n      add\n        /* \"#utility.yul\":8715:8753   */\n      mstore\n        /* \"#utility.yul\":8814:8818   */\n      0x20\n        /* \"#utility.yul\":8807:8809   */\n      0x1f\n        /* \"#utility.yul\":8803:8810   */\n      not\n        /* \"#utility.yul\":8798:8800   */\n      0x1f\n        /* \"#utility.yul\":8790:8796   */\n      dup4\n        /* \"#utility.yul\":8786:8801   */\n      add\n        /* \"#utility.yul\":8782:8811   */\n      and\n        /* \"#utility.yul\":8777:8780   */\n      dup6\n        /* \"#utility.yul\":8773:8812   */\n      add\n        /* \"#utility.yul\":8769:8819   */\n      add\n        /* \"#utility.yul\":8762:8819   */\n      swap2\n      pop\n      pop\n        /* \"#utility.yul\":8536:8825   */\n      swap3\n      swap2\n      pop\n      pop\n      jump\t// out\n        /* \"#utility.yul\":8830:9050   */\n    tag_179:\n        /* \"#utility.yul\":8979:8981   */\n      0x20\n        /* \"#utility.yul\":8968:8977   */\n      dup2\n        /* \"#utility.yul\":8961:8982   */\n      mstore\n        /* \"#utility.yul\":8942:8946   */\n      0x00\n        /* \"#utility.yul\":8999:9044   */\n      tag_583\n        /* \"#utility.yul\":9040:9042   */\n      0x20\n        /* \"#utility.yul\":9029:9038   */\n      dup4\n        /* \"#utility.yul\":9025:9043   */\n      add\n        /* \"#utility.yul\":9017:9023   */\n      dup5\n        /* \"#utility.yul\":8999:9044   */\n      tag_598\n      jump\t// in\n        /* \"#utility.yul\":9248:9885   */\n    tag_194:\n        /* \"#utility.yul\":9438:9440   */\n      0x20\n        /* \"#utility.yul\":9450:9471   */\n      dup1\n      dup3\n      mstore\n        /* \"#utility.yul\":9520:9533   */\n      dup3\n      mload\n        /* \"#utility.yul\":9423:9441   */\n      dup3\n      dup3\n      add\n        /* \"#utility.yul\":9542:9564   */\n      dup2\n      swap1\n      mstore\n        /* \"#utility.yul\":9390:9394   */\n      0x00\n      swap2\n        /* \"#utility.yul\":9621:9636   */\n      dup5\n      add\n      swap1\n        /* \"#utility.yul\":9595:9597   */\n      0x40\n        /* \"#utility.yul\":9580:9598   */\n      dup5\n      add\n      swap1\n        /* \"#utility.yul\":9390:9394   */\n      dup4\n        /* \"#utility.yul\":9664:9859   */\n    tag_665:\n        /* \"#utility.yul\":9678:9684   */\n      dup2\n        /* \"#utility.yul\":9675:9676   */\n      dup2\n        /* \"#utility.yul\":9672:9685   */\n      lt\n        /* \"#utility.yul\":9664:9859   */\n      iszero\n      tag_610\n      jumpi\n        /* \"#utility.yul\":9743:9756   */\n      dup4\n      mload\n      sub(shl(0xa0, 0x01), 0x01)\n        /* \"#utility.yul\":9739:9778   */\n      and\n        /* \"#utility.yul\":9727:9779   */\n      dup4\n      mstore\n        /* \"#utility.yul\":9808:9810   */\n      0x20\n        /* \"#utility.yul\":9834:9849   */\n      swap4\n      dup5\n      add\n      swap4\n        /* \"#utility.yul\":9799:9811   */\n      swap1\n      swap3\n      add\n      swap2\n        /* \"#utility.yul\":9775:9776   */\n      0x01\n        /* \"#utility.yul\":9693:9702   */\n      add\n        /* \"#utility.yul\":9664:9859   */\n      jump(tag_665)\n        /* \"#utility.yul\":9890:10076   */\n    tag_212:\n        /* \"#utility.yul\":9949:9955   */\n      0x00\n        /* \"#utility.yul\":10002:10004   */\n      0x20\n        /* \"#utility.yul\":9990:9999   */\n      dup3\n        /* \"#utility.yul\":9981:9988   */\n      dup5\n        /* \"#utility.yul\":9977:10000   */\n      sub\n        /* \"#utility.yul\":9973:10005   */\n      slt\n        /* \"#utility.yul\":9970:10022   */\n      iszero\n      tag_669\n      jumpi\n        /* \"#utility.yul\":10018:10019   */\n      0x00\n        /* \"#utility.yul\":10015:10016   */\n      0x00\n        /* \"#utility.yul\":10008:10020   */\n      revert\n        /* \"#utility.yul\":9970:10022   */\n    tag_669:\n        /* \"#utility.yul\":10041:10070   */\n      tag_583\n        /* \"#utility.yul\":10060:10069   */\n      dup3\n        /* \"#utility.yul\":10041:10070   */\n      tag_595\n      jump\t// in\n        /* \"#utility.yul\":10081:10208   */\n    tag_230:\n        /* \"#utility.yul\":10142:10152   */\n      0x4e487b71\n        /* \"#utility.yul\":10137:10140   */\n      0xe0\n        /* \"#utility.yul\":10133:10153   */\n      shl\n        /* \"#utility.yul\":10130:10131   */\n      0x00\n        /* \"#utility.yul\":10123:10154   */\n      mstore\n        /* \"#utility.yul\":10173:10177   */\n      0x32\n        /* \"#utility.yul\":10170:10171   */\n      0x04\n        /* \"#utility.yul\":10163:10178   */\n      mstore\n        /* \"#utility.yul\":10197:10201   */\n      0x24\n        /* \"#utility.yul\":10194:10195   */\n      0x00\n        /* \"#utility.yul\":10187:10202   */\n      revert\n        /* \"#utility.yul\":10213:10340   */\n    tag_599:\n        /* \"#utility.yul\":10274:10284   */\n      0x4e487b71\n        /* \"#utility.yul\":10269:10272   */\n      0xe0\n        /* \"#utility.yul\":10265:10285   */\n      shl\n        /* \"#utility.yul\":10262:10263   */\n      0x00\n        /* \"#utility.yul\":10255:10286   */\n      mstore\n        /* \"#utility.yul\":10305:10309   */\n      0x11\n        /* \"#utility.yul\":10302:10303   */\n      0x04\n        /* \"#utility.yul\":10295:10310   */\n      mstore\n        /* \"#utility.yul\":10329:10333   */\n      0x24\n        /* \"#utility.yul\":10326:10327   */\n      0x00\n        /* \"#utility.yul\":10319:10334   */\n      revert\n        /* \"#utility.yul\":10345:10480   */\n    tag_238:\n        /* \"#utility.yul\":10384:10387   */\n      0x00\n        /* \"#utility.yul\":10405:10422   */\n      0x01\n      dup3\n      add\n        /* \"#utility.yul\":10402:10445   */\n      tag_675\n      jumpi\n        /* \"#utility.yul\":10425:10443   */\n      tag_675\n      tag_599\n      jump\t// in\n    tag_675:\n      pop\n        /* \"#utility.yul\":10472:10473   */\n      0x01\n        /* \"#utility.yul\":10461:10474   */\n      add\n      swap1\n        /* \"#utility.yul\":10345:10480   */\n      jump\t// out\n        /* \"#utility.yul\":12727:12855   */\n    tag_296:\n        /* \"#utility.yul\":12794:12803   */\n      dup2\n      dup2\n      sub\n        /* \"#utility.yul\":12815:12826   */\n      dup2\n      dup2\n      gt\n        /* \"#utility.yul\":12812:12849   */\n      iszero\n      tag_249\n      jumpi\n        /* \"#utility.yul\":12829:12847   */\n      tag_249\n      tag_599\n      jump\t// in\n        /* \"#utility.yul\":13236:13513   */\n    tag_302:\n        /* \"#utility.yul\":13303:13309   */\n      0x00\n        /* \"#utility.yul\":13356:13358   */\n      0x20\n        /* \"#utility.yul\":13344:13353   */\n      dup3\n        /* \"#utility.yul\":13335:13342   */\n      dup5\n        /* \"#utility.yul\":13331:13354   */\n      sub\n        /* \"#utility.yul\":13327:13359   */\n      slt\n        /* \"#utility.yul\":13324:13376   */\n      iszero\n      tag_688\n      jumpi\n        /* \"#utility.yul\":13372:13373   */\n      0x00\n        /* \"#utility.yul\":13369:13370   */\n      0x00\n        /* \"#utility.yul\":13362:13374   */\n      revert\n        /* \"#utility.yul\":13324:13376   */\n    tag_688:\n        /* \"#utility.yul\":13404:13413   */\n      dup2\n        /* \"#utility.yul\":13398:13414   */\n      mload\n        /* \"#utility.yul\":13457:13462   */\n      dup1\n        /* \"#utility.yul\":13450:13463   */\n      iszero\n        /* \"#utility.yul\":13443:13464   */\n      iszero\n        /* \"#utility.yul\":13436:13441   */\n      dup2\n        /* \"#utility.yul\":13433:13465   */\n      eq\n        /* \"#utility.yul\":13423:13483   */\n      tag_583\n      jumpi\n        /* \"#utility.yul\":13479:13480   */\n      0x00\n        /* \"#utility.yul\":13476:13477   */\n      0x00\n        /* \"#utility.yul\":13469:13481   */\n      revert\n        /* \"#utility.yul\":16887:17055   */\n    tag_378:\n        /* \"#utility.yul\":16960:16969   */\n      dup1\n      dup3\n      mul\n        /* \"#utility.yul\":16991:17000   */\n      dup2\n      iszero\n        /* \"#utility.yul\":17008:17023   */\n      dup3\n      dup3\n      div\n        /* \"#utility.yul\":17002:17024   */\n      dup5\n      eq\n        /* \"#utility.yul\":16988:17025   */\n      or\n        /* \"#utility.yul\":16978:17049   */\n      tag_249\n      jumpi\n        /* \"#utility.yul\":17029:17047   */\n      tag_249\n      tag_599\n      jump\t// in\n        /* \"#utility.yul\":18375:19083   */\n    tag_401:\n        /* \"#utility.yul\":18574:18576   */\n      0x20\n        /* \"#utility.yul\":18563:18572   */\n      dup2\n        /* \"#utility.yul\":18556:18577   */\n      mstore\n        /* \"#utility.yul\":18619:18625   */\n      dup2\n        /* \"#utility.yul\":18613:18626   */\n      mload\n        /* \"#utility.yul\":18608:18610   */\n      0x20\n        /* \"#utility.yul\":18597:18606   */\n      dup3\n        /* \"#utility.yul\":18593:18611   */\n      add\n        /* \"#utility.yul\":18586:18627   */\n      mstore\n        /* \"#utility.yul\":18681:18683   */\n      0x20\n        /* \"#utility.yul\":18673:18679   */\n      dup3\n        /* \"#utility.yul\":18669:18684   */\n      add\n        /* \"#utility.yul\":18663:18685   */\n      mload\n        /* \"#utility.yul\":18658:18660   */\n      0x40\n        /* \"#utility.yul\":18647:18656   */\n      dup3\n        /* \"#utility.yul\":18643:18661   */\n      add\n        /* \"#utility.yul\":18636:18686   */\n      mstore\n        /* \"#utility.yul\":18750:18756   */\n      0xffff\n        /* \"#utility.yul\":18744:18746   */\n      0x40\n        /* \"#utility.yul\":18736:18742   */\n      dup4\n        /* \"#utility.yul\":18732:18747   */\n      add\n        /* \"#utility.yul\":18726:18748   */\n      mload\n        /* \"#utility.yul\":18722:18757   */\n      and\n        /* \"#utility.yul\":18717:18719   */\n      0x60\n        /* \"#utility.yul\":18706:18715   */\n      dup3\n        /* \"#utility.yul\":18702:18720   */\n      add\n        /* \"#utility.yul\":18695:18758   */\n      mstore\n        /* \"#utility.yul\":18823:18833   */\n      0xffffffff\n        /* \"#utility.yul\":18817:18819   */\n      0x60\n        /* \"#utility.yul\":18809:18815   */\n      dup4\n        /* \"#utility.yul\":18805:18820   */\n      add\n        /* \"#utility.yul\":18799:18821   */\n      mload\n        /* \"#utility.yul\":18795:18834   */\n      and\n        /* \"#utility.yul\":18789:18792   */\n      0x80\n        /* \"#utility.yul\":18778:18787   */\n      dup3\n        /* \"#utility.yul\":18774:18793   */\n      add\n        /* \"#utility.yul\":18767:18835   */\n      mstore\n        /* \"#utility.yul\":18901:18911   */\n      0xffffffff\n        /* \"#utility.yul\":18894:18897   */\n      0x80\n        /* \"#utility.yul\":18886:18892   */\n      dup4\n        /* \"#utility.yul\":18882:18898   */\n      add\n        /* \"#utility.yul\":18876:18899   */\n      mload\n        /* \"#utility.yul\":18872:18912   */\n      and\n        /* \"#utility.yul\":18866:18869   */\n      0xa0\n        /* \"#utility.yul\":18855:18864   */\n      dup3\n        /* \"#utility.yul\":18851:18870   */\n      add\n        /* \"#utility.yul\":18844:18913   */\n      mstore\n        /* \"#utility.yul\":18537:18541   */\n      0x00\n        /* \"#utility.yul\":18960:18963   */\n      0xa0\n        /* \"#utility.yul\":18952:18958   */\n      dup4\n        /* \"#utility.yul\":18948:18964   */\n      add\n        /* \"#utility.yul\":18942:18965   */\n      mload\n        /* \"#utility.yul\":19003:19007   */\n      0xc0\n        /* \"#utility.yul\":18996:19000   */\n      dup1\n        /* \"#utility.yul\":18985:18994   */\n      dup5\n        /* \"#utility.yul\":18981:19001   */\n      add\n        /* \"#utility.yul\":18974:19008   */\n      mstore\n        /* \"#utility.yul\":19025:19077   */\n      tag_708\n        /* \"#utility.yul\":19072:19075   */\n      0xe0\n        /* \"#utility.yul\":19061:19070   */\n      dup5\n        /* \"#utility.yul\":19057:19076   */\n      add\n        /* \"#utility.yul\":19043:19055   */\n      dup3\n        /* \"#utility.yul\":19025:19077   */\n      tag_598\n      jump\t// in\n    tag_708:\n        /* \"#utility.yul\":19017:19077   */\n      swap5\n        /* \"#utility.yul\":18375:19083   */\n      swap4\n      pop\n      pop\n      pop\n      pop\n      jump\t// out\n        /* \"#utility.yul\":19088:19272   */\n    tag_405:\n        /* \"#utility.yul\":19158:19164   */\n      0x00\n        /* \"#utility.yul\":19211:19213   */\n      0x20\n        /* \"#utility.yul\":19199:19208   */\n      dup3\n        /* \"#utility.yul\":19190:19197   */\n      dup5\n        /* \"#utility.yul\":19186:19209   */\n      sub\n        /* \"#utility.yul\":19182:19214   */\n      slt\n        /* \"#utility.yul\":19179:19231   */\n      iszero\n      tag_710\n      jumpi\n        /* \"#utility.yul\":19227:19228   */\n      0x00\n        /* \"#utility.yul\":19224:19225   */\n      0x00\n        /* \"#utility.yul\":19217:19229   */\n      revert\n        /* \"#utility.yul\":19179:19231   */\n    tag_710:\n      pop\n        /* \"#utility.yul\":19250:19266   */\n      mload\n      swap2\n        /* \"#utility.yul\":19088:19272   */\n      swap1\n      pop\n      jump\t// out\n        /* \"#utility.yul\":21244:21453   */\n    tag_475:\n        /* \"#utility.yul\":21276:21277   */\n      0x00\n        /* \"#utility.yul\":21302:21303   */\n      dup3\n        /* \"#utility.yul\":21292:21424   */\n      tag_718\n      jumpi\n        /* \"#utility.yul\":21346:21356   */\n      0x4e487b71\n        /* \"#utility.yul\":21341:21344   */\n      0xe0\n        /* \"#utility.yul\":21337:21357   */\n      shl\n        /* \"#utility.yul\":21334:21335   */\n      0x00\n        /* \"#utility.yul\":21327:21358   */\n      mstore\n        /* \"#utility.yul\":21381:21385   */\n      0x12\n        /* \"#utility.yul\":21378:21379   */\n      0x04\n        /* \"#utility.yul\":21371:21386   */\n      mstore\n        /* \"#utility.yul\":21409:21413   */\n      0x24\n        /* \"#utility.yul\":21406:21407   */\n      0x00\n        /* \"#utility.yul\":21399:21414   */\n      revert\n        /* \"#utility.yul\":21292:21424   */\n    tag_718:\n      pop\n        /* \"#utility.yul\":21438:21447   */\n      mod\n      swap1\n        /* \"#utility.yul\":21244:21453   */\n      jump\t// out\n        /* \"#utility.yul\":22268:22569   */\n    tag_571:\n        /* \"#utility.yul\":22397:22400   */\n      0x00\n        /* \"#utility.yul\":22435:22441   */\n      dup3\n        /* \"#utility.yul\":22429:22442   */\n      mload\n        /* \"#utility.yul\":22481:22487   */\n      dup1\n        /* \"#utility.yul\":22474:22478   */\n      0x20\n        /* \"#utility.yul\":22466:22472   */\n      dup6\n        /* \"#utility.yul\":22462:22479   */\n      add\n        /* \"#utility.yul\":22457:22460   */\n      dup5\n        /* \"#utility.yul\":22451:22488   */\n      mcopy\n        /* \"#utility.yul\":22543:22544   */\n      0x00\n        /* \"#utility.yul\":22507:22523   */\n      swap3\n      add\n        /* \"#utility.yul\":22532:22545   */\n      swap2\n      dup3\n      mstore\n      pop\n        /* \"#utility.yul\":22507:22523   */\n      swap2\n        /* \"#utility.yul\":22268:22569   */\n      swap1\n      pop\n      jump\t// out\n    stop\n    data_75b20eef8615de99c108b05f0dbda081c91897128caa336d75dffb97c4132b4d 360894a13ba1a3210667c828492db98dca3e2076cc3735a920a3ca505d382bbc\n\n    auxdata: 0xa2646970667358221220dd687839618879802186fa0d52f25aa231f94f5853d6510df1cb2e274a0e0c5264736f6c634300081e0033\n}\n",
				"bytecode": {
					"linkReferences": {},
					"object": "60a0604052306080523480156012575f5ffd5b5060015f556080516129a761003d5f395f8181611f2f01528181611f58015261209701526129a75ff3fe608060405260043610610207575f3560e01c80635b7baf6411610113578063a49a75a51161009d578063c1e3bd3e1161006d578063c1e3bd3e14610781578063c4cd639f146107ad578063d7098154146107f5578063e234483114610814578063f2fde38b14610833575f5ffd5b8063a49a75a5146106ab578063ad3cb1cc146106f0578063b0fb162f1461072d578063b6fa37bc14610762575f5ffd5b80637ccfd7fc116100e35780637ccfd7fc146105ec578063826d98731461061257806382f9d0fb146106315780638da5cb5b14610650578063a3e56fa81461068c575f5ffd5b80635b7baf641461058557806360b2a56a146105a457806361728f39146105c3578063715018a6146105d8575f5ffd5b806324f74697116101945780634311da37116101645780634311da371461050b5780634538f2971461052a5780634a4a6b4f146105495780634f1ef2861461055e57806352d1902d14610571575f5ffd5b806324f74697146104545780633893f9d5146104855780633fd43098146104a45780633fe6e01e146104c3575f5ffd5b80630af5a263116101da5780630af5a263146102a85780631398e076146102c757806315c6e123146103d35780631fe543e3146103fe5780632301d7751461041d575f5ffd5b806302c4d72b1461020b578063055b66cd1461022c57806307c7a72d1461025657806309c1ba2e14610285575b5f5ffd5b348015610216575f5ffd5b5061022a6102253660046123fb565b610852565b005b348015610237575f5ffd5b5061024061089b565b60405161024d9190612475565b60405180910390f35b348015610261575f5ffd5b506102756102703660046124d2565b610a27565b604051901515815260200161024d565b348015610290575f5ffd5b5061029a60085481565b60405190815260200161024d565b3480156102b3575f5ffd5b5061022a6102c23660046124fc565b610a56565b3480156102d2575f5ffd5b5061035c6102e136600461254f565b600260208190525f91825260409091208054600182015492820154600383015460048401546005850154600686015460078701546008880154600a890154600b909901546001600160a01b039889169a9997989697959694959394929360ff808416946101008504821694620100009004909116929116908d565b604080516001600160a01b039e8f168152602081019d909d528c019a909a5260608b019890985260808a019690965260a089019490945260c088019290925260e08701521515610100860152151561012085015215156101408401529092166101608201526101808101919091526101a00161024d565b3480156103de575f5ffd5b5061029a6103ed36600461254f565b600b6020525f908152604090205481565b348015610409575f5ffd5b5061022a6104183660046125ab565b610bc8565b348015610428575f5ffd5b5060055461043c906001600160a01b031681565b6040516001600160a01b03909116815260200161024d565b34801561045f575f5ffd5b506007546104709063ffffffff1681565b60405163ffffffff909116815260200161024d565b348015610490575f5ffd5b5061022a61049f366004612663565b610c1b565b3480156104af575f5ffd5b5061022a6104be36600461254f565b610f2a565b3480156104ce575f5ffd5b506102756104dd3660046124d2565b5f8281526002602090815260408083206001600160a01b0385168452600f0190915290205460ff1692915050565b348015610516575f5ffd5b5061022a610525366004612683565b611135565b348015610535575f5ffd5b5061022a61054436600461254f565b6112af565b348015610554575f5ffd5b5061029a60035481565b61022a61056c3660046126da565b61137a565b34801561057c575f5ffd5b5061029a611395565b348015610590575f5ffd5b5061022a61059f36600461254f565b6113b0565b3480156105af575f5ffd5b5061022a6105be36600461254f565b61158d565b3480156105ce575f5ffd5b5061029a60065481565b3480156105e3575f5ffd5b5061022a6117dc565b3480156105f7575f5ffd5b50600754610470906601000000000000900463ffffffff1681565b34801561061d575f5ffd5b5061022a61062c36600461254f565b6117ef565b34801561063c575f5ffd5b5061022a61064b36600461254f565b611935565b34801561065b575f5ffd5b507f9016d09d72d40fdae2fd8ceac6b6234c7706214fd39c1cd1e609a0528c199300546001600160a01b031661043c565b348015610697575f5ffd5b5060095461043c906001600160a01b031681565b3480156106b6575f5ffd5b5061029a6106c53660046124d2565b5f8281526002602090815260408083206001600160a01b0385168452600c0190915290205492915050565b3480156106fb575f5ffd5b50610720604051806040016040528060058152602001640352e302e360dc1b81525081565b60405161024d91906127ad565b348015610738575f5ffd5b5060075461074f90640100000000900461ffff1681565b60405161ffff909116815260200161024d565b34801561076d575f5ffd5b5060045461043c906001600160a01b031681565b34801561078c575f5ffd5b506107a061079b36600461254f565b6119c3565b60405161024d91906127bf565b3480156107b8575f5ffd5b506102756107c73660046124d2565b5f8281526002602090815260408083206001600160a01b0385168452600e0190915290205460ff1692915050565b348015610800575f5ffd5b5061022a61080f36600461254f565b611a2f565b34801561081f575f5ffd5b5061029a61082e36600461254f565b611b7e565b34801561083e575f5ffd5b5061022a61084d3660046127ff565b611b9d565b61085a611bd7565b610896838383808060200260200160405190810160405280939291908181526020018383602002808284375f92019190915250611c3292505050565b505050565b600a546060905f9067ffffffffffffffff8111156108bb576108bb612566565b6040519080825280602002602001820160405280156108e4578160200160208202803683370190505b5090505f805b600a5481101561098f575f600a828154811061090857610908612818565b5f9182526020808320909101548083526002909152604090912060088101549192509060ff1680156109455750600881015462010000900460ff16155b80156109545750806004015442105b15610985578185858151811061096c5761096c612818565b60209081029190910101528361098181612840565b9450505b50506001016108ea565b505f8167ffffffffffffffff8111156109aa576109aa612566565b6040519080825280602002602001820160405280156109d3578160200160208202803683370190505b5090505f5b82811015610a1f578381815181106109f2576109f2612818565b6020026020010151828281518110610a0c57610a0c612818565b60209081029190910101526001016109d8565b509392505050565b5f8281526002602090815260408083206001600160a01b0385168452600d0190915290205460ff165b92915050565b5f610a5f611e62565b805490915060ff600160401b820416159067ffffffffffffffff165f81158015610a865750825b90505f8267ffffffffffffffff166001148015610aa25750303b155b905081158015610ab0575080155b15610ace5760405163f92ee8a960e01b815260040160405180910390fd5b845467ffffffffffffffff191660011785558315610af857845460ff60401b1916600160401b1785555b610b0133611e8a565b610b09611e9b565b610b128a611ea3565b600980546001600160a01b03199081166001600160a01b038d81169190911790925560068b905560088a90556007805469ffffffffffffffffffff19166601000300030d401790556004805482168a8416179055600580549091169188169190911790558315610bbc57845460ff60401b19168555604051600181527fc7f505b2f371ae2175ee4913f4499e1f2633a7b5936321eed1cdaeb6115181d29060200160405180910390a15b50505050505050505050565b6001546001600160a01b03163314610c0d5760015460405163073e64fd60e21b81523360048201526001600160a01b0390911660248201526044015b60405180910390fd5b610c178282611c32565b5050565b610c23611ecd565b5f828152600260209081526040808320848452818420338552600c8201909352922054610c7f5760405162461bcd60e51b815260206004820152600a602482015269139bdd081a5b881bdb1960b21b6044820152606401610c04565b335f908152600e8301602052604090205460ff1615610cd35760405162461bcd60e51b815260206004820152601060248201526f526566756e64656420616c726561647960801b6044820152606401610c04565b600882015462010000900460ff1680610d0d57506008820154610100900460ff168015610d0d5750600a8201546001600160a01b03163314155b610d4c5760405162461bcd60e51b815260206004820152601060248201526f4f6c64206e6f7420656c696769626c6560801b6044820152606401610c04565b600881015460ff168015610d6b5750600881015462010000900460ff16155b610dae5760405162461bcd60e51b81526020600482015260146024820152734e6577206c6f747465727920696e61637469766560601b6044820152606401610c04565b80600401544210610df45760405162461bcd60e51b815260206004820152601060248201526f546f6f206c61746520666f72206e657760801b6044820152606401610c04565b335f908152600e830160205260408120805460ff19166001908117909155600283015490830154610e259190612858565b82546040516323b872dd60e01b8152336004820152306024820152604481018390529192506001600160a01b0316906323b872dd906064016020604051808303815f875af1158015610e79573d5f5f3e3d5ffd5b505050506040513d601f19601f82011682018060405250810190610e9d919061286b565b506009820180546001810182555f918252602080832090910180546001600160a01b031916339081179091558252600c8401905260408120805491610ee183612840565b9091555050604080518581523360208201527f1e28857182a3b2bb6fbb88287d1ba8cc3a941dd65d4c977286676d27b877a3d9910160405180910390a1505050610c1760015f55565b610f32611ecd565b5f818152600260205260409020600881015460ff168015610f5e5750600881015462010000900460ff16155b610fa25760405162461bcd60e51b8152602060048201526015602482015274125b9858dd1a5d99481bdc8818d85b98d95b1b1959605a1b6044820152606401610c04565b80600401544210610fe05760405162461bcd60e51b8152602060048201526008602482015267546f6f206c61746560c01b6044820152606401610c04565b600381015460098201541061102a5760405162461bcd60e51b815260206004820152601060248201526f4d6178207061727469636970616e747360801b6044820152606401610c04565b805460018201546040516323b872dd60e01b815233600482015230602482015260448101919091526001600160a01b03909116906323b872dd906064016020604051808303815f875af1158015611083573d5f5f3e3d5ffd5b505050506040513d601f19601f820116820180604052508101906110a7919061286b565b506009810180546001810182555f918252602080832090910180546001600160a01b031916339081179091558252600c83019052604081208054916110eb83612840565b9091555050604080518381523360208201527f1e28857182a3b2bb6fbb88287d1ba8cc3a941dd65d4c977286676d27b877a3d9910160405180910390a15061113260015f55565b50565b61113d611bd7565b8587101561117d5760405162461bcd60e51b815260206004820152600d60248201526c526566756e64203c3d2066656560981b6044820152606401610c04565b4284116111c05760405162461bcd60e51b8152602060048201526011602482015270496e76616c696420647261772074696d6560781b6044820152606401610c04565b60038054905f6111cf83612840565b9091555050600380545f90815260026020818152604080842080546001600160a01b0319166001600160a01b038f1617815560018082018e90559381018c90558086018b9055600481018a905560058101899055600681018890556007810187905560088101805460ff1916851790559454600a805494850181559094527fc65a7bb8d6351c1cf70c95a316cc6a92839c986682d98bc35f958f4883f9d2a890920183905590519182527f9e0023bebcc752baaa41057318405b5a6a8e9c6372b519717cfdf238e5caa795910160405180910390a1505050505050505050565b6112b7611bd7565b5f818152600260205260409020600881015462010000900460ff161580156112e957506008810154610100900460ff16155b6113295760405162461bcd60e51b8152602060048201526011602482015270105b1c9958591e48199a5b985b1a5e9959607a1b6044820152606401610c04565b60088101805462ff00001916620100001790556040517fc3dac690cf4c3ae8964f18b8f09f7f9a75d3962a8cbb7cd689df2c291bb5b2dd9061136e9084815260200190565b60405180910390a15050565b611382611f24565b61138b82611fc8565b610c178282611fd0565b5f61139e61208c565b505f5160206129525f395f51905f5290565b6113b8611ecd565b5f818152600260205260409020600881015462010000900460ff16806113ff57506008810154610100900460ff1680156113ff5750600a8101546001600160a01b03163314155b61143a5760405162461bcd60e51b815260206004820152600c60248201526b4e6f7420656c696769626c6560a01b6044820152606401610c04565b335f908152600e8201602052604090205460ff161561148e5760405162461bcd60e51b815260206004820152601060248201526f105b1c9958591e481c99599d5b99195960821b6044820152606401610c04565b335f908152600c820160205260409020546114d85760405162461bcd60e51b815260206004820152600a6024820152694e6f20656e747269657360b01b6044820152606401610c04565b335f908152600e820160209081526040808320805460ff19166001179055600c8401909152812054600283015461150f919061288a565b825460405163a9059cbb60e01b8152336004820152602481018390529192506001600160a01b03169063a9059cbb906044016020604051808303815f875af115801561155d573d5f5f3e3d5ffd5b505050506040513d601f19601f82011682018060405250810190611581919061286b565b50505061113260015f55565b611595611bd7565b5f81815260026020526040902060048101544210156115e25760405162461bcd60e51b8152602060048201526009602482015268546f6f206561726c7960b81b6044820152606401610c04565b6008810154610100900460ff161580156116075750600881015462010000900460ff16155b6116535760405162461bcd60e51b815260206004820152601a60248201527f416c726561647920647261776e206f722063616e63656c6c65640000000000006044820152606401610c04565b60098101546116965760405162461bcd60e51b815260206004820152600f60248201526e4e6f207061727469636970616e747360881b6044820152606401610c04565b6009546040805160c081018252600654815260085460208083019190915260075461ffff6401000000008204168385015263ffffffff8082166060850152660100000000000090910416608083015282519081019092525f808352926001600160a01b031691639b1c385e919060a0820190611711906120d5565b8152506040518263ffffffff1660e01b815260040161173091906128a1565b6020604051808303815f875af115801561174c573d5f5f3e3d5ffd5b505050506040513d601f19601f820116820180604052508101906117709190612905565b5f818152600b60205260409081902085905560088401805461ff001916610100179055519091507f600253eae67a5c51c82a7123372e8644f16009c6304e18f844cf86fdc40c24d7906117cf9085908490918252602082015260400190565b60405180910390a1505050565b6117e4611bd7565b6117ed5f612146565b565b5f818152600260209081526040808320338452600f81019092529091205460ff161561184d5760405162461bcd60e51b815260206004820152600d60248201526c105b1c9958591e481d9bdd1959609a1b6044820152606401610c04565b335f908152600c8201602052604090205461189b5760405162461bcd60e51b815260206004820152600e60248201526d4e6f7420696e206c6f747465727960901b6044820152606401610c04565b335f908152600f820160205260408120805460ff19166001179055600b82018054916118c683612840565b909155505060098101546118db90600261288a565b600b8201546118eb90600361288a565b10610c175760088101805462ff00001916620100001790556040517fc3dac690cf4c3ae8964f18b8f09f7f9a75d3962a8cbb7cd689df2c291bb5b2dd9061136e9084815260200190565b61193d611bd7565b5f818152600260208190526040822080546001600160a01b031916815560018101839055908101829055600381018290556004810182905560058101829055600681018290556007810182905560088101805462ffffff19169055906119a660098301826123cd565b50600a810180546001600160a01b03191690555f600b9091015550565b5f81815260026020908152604091829020600901805483518184028101840190945280845260609392830182828015611a2357602002820191905f5260205f20905b81546001600160a01b03168152600190910190602001808311611a05575b50505050509050919050565b611a37611ecd565b5f818152600260205260409020600a8101546001600160a01b03163314611a8d5760405162461bcd60e51b815260206004820152600a6024820152692737ba103bb4b73732b960b11b6044820152606401610c04565b335f908152600d8201602052604090205460ff1615611ae05760405162461bcd60e51b815260206004820152600f60248201526e105b1c9958591e4818db185a5b5959608a1b6044820152606401610c04565b335f818152600d8301602052604090819020805460ff1916600117905582546005840154915163a9059cbb60e01b8152600481019390935260248301919091526001600160a01b03169063a9059cbb906044016020604051808303815f875af1158015611b4f573d5f5f3e3d5ffd5b505050506040513d601f19601f82011682018060405250810190611b73919061286b565b505061113260015f55565b600a8181548110611b8d575f80fd5b5f91825260209091200154905081565b611ba5611bd7565b6001600160a01b038116611bce57604051631e4fbdf760e01b81525f6004820152602401610c04565b61113281612146565b33611c097f9016d09d72d40fdae2fd8ceac6b6234c7706214fd39c1cd1e609a0528c199300546001600160a01b031690565b6001600160a01b0316146117ed5760405163118cdaa760e01b8152336004820152602401610c04565b5f828152600b602090815260408083205480845260029092529091206008810154610100900460ff168015611c725750600a8101546001600160a01b0316155b611cb25760405162461bcd60e51b8152602060048201526011602482015270105b1c9958591e48199d5b199a5b1b1959607a1b6044820152606401610c04565b5f8160090180549050845f81518110611ccd57611ccd612818565b6020026020010151611cdf919061291c565b9050816009018181548110611cf657611cf6612818565b5f91825260209091200154600a830180546001600160a01b0319166001600160a01b03928316179055825460048054600686015460405163a9059cbb60e01b8152918516928201929092526024810191909152911690819063a9059cbb906044016020604051808303815f875af1158015611d73573d5f5f3e3d5ffd5b505050506040513d601f19601f82011682018060405250810190611d97919061286b565b50600554600784015460405163a9059cbb60e01b81526001600160a01b03928316600482015260248101919091529082169063a9059cbb906044016020604051808303815f875af1158015611dee573d5f5f3e3d5ffd5b505050506040513d601f19601f82011682018060405250810190611e12919061286b565b50600a830154604080518681526001600160a01b0390921660208301527f03fb57eb449654e24e1b240d3d06702cf79362a065d5c0323aee642d4702fa4b910160405180910390a1505050505050565b5f807ff0c57e16840df040f15088dc2f81fe391c3923bec73e23a9662efc9c229c6a00610a50565b611e926121b6565b611132816121db565b6117ed6121b6565b611eab6121b6565b600180546001600160a01b0319166001600160a01b0392909216919091179055565b60025f5403611f1e5760405162461bcd60e51b815260206004820152601f60248201527f5265656e7472616e637947756172643a207265656e7472616e742063616c6c006044820152606401610c04565b60025f55565b306001600160a01b037f0000000000000000000000000000000000000000000000000000000000000000161480611faa57507f00000000000000000000000000000000000000000000000000000000000000006001600160a01b0316611f9e5f5160206129525f395f51905f52546001600160a01b031690565b6001600160a01b031614155b156117ed5760405163703e46dd60e11b815260040160405180910390fd5b611132611bd7565b816001600160a01b03166352d1902d6040518163ffffffff1660e01b8152600401602060405180830381865afa92505050801561202a575060408051601f3d908101601f1916820190925261202791810190612905565b60015b61205257604051634c9c8ce360e01b81526001600160a01b0383166004820152602401610c04565b5f5160206129525f395f51905f52811461208257604051632a87526960e21b815260048101829052602401610c04565b61089683836121e3565b306001600160a01b037f000000000000000000000000000000000000000000000000000000000000000016146117ed5760405163703e46dd60e11b815260040160405180910390fd5b60607f92fd13387c7fe7befbc38d303d6468778fb9731bc4583f17d92989c6fcfdeaaa8260405160240161210e91511515815260200190565b60408051601f198184030181529190526020810180516001600160e01b03166001600160e01b03199093169290921790915292915050565b7f9016d09d72d40fdae2fd8ceac6b6234c7706214fd39c1cd1e609a0528c19930080546001600160a01b031981166001600160a01b03848116918217845560405192169182907f8be0079c531659141344cd1fd0a4f28419497f9722a3daafe3b4186f6b6457e0905f90a3505050565b6121be612238565b6117ed57604051631afcd79f60e31b815260040160405180910390fd5b611ba56121b6565b6121ec82612251565b6040516001600160a01b038316907fbc7cd75a20ee27fd9adebab32041f755214dbc6bffa90cc0225b39da2e5c2d3b905f90a28051156122305761089682826122b4565b610c17612326565b5f612241611e62565b54600160401b900460ff16919050565b806001600160a01b03163b5f0361228657604051634c9c8ce360e01b81526001600160a01b0382166004820152602401610c04565b5f5160206129525f395f51905f5280546001600160a01b0319166001600160a01b0392909216919091179055565b60605f5f846001600160a01b0316846040516122d0919061293b565b5f60405180830381855af49150503d805f8114612308576040519150601f19603f3d011682016040523d82523d5f602084013e61230d565b606091505b509150915061231d858383612345565b95945050505050565b34156117ed5760405163b398979f60e01b815260040160405180910390fd5b60608261235a57612355826123a4565b61239d565b815115801561237157506001600160a01b0384163b155b1561239a57604051639996b31560e01b81526001600160a01b0385166004820152602401610c04565b50805b9392505050565b8051156123b45780518082602001fd5b60405163d6bda27560e01b815260040160405180910390fd5b5080545f8255905f5260205f209081019061113291905b808211156123f7575f81556001016123e4565b5090565b5f5f5f6040848603121561240d575f5ffd5b83359250602084013567ffffffffffffffff81111561242a575f5ffd5b8401601f8101861361243a575f5ffd5b803567ffffffffffffffff811115612450575f5ffd5b8660208260051b8401011115612464575f5ffd5b939660209190910195509293505050565b602080825282518282018190525f918401906040840190835b818110156124ac57835183526020938401939092019160010161248e565b509095945050505050565b80356001600160a01b03811681146124cd575f5ffd5b919050565b5f5f604083850312156124e3575f5ffd5b823591506124f3602084016124b7565b90509250929050565b5f5f5f5f5f60a08688031215612510575f5ffd5b612519866124b7565b94506020860135935060408601359250612535606087016124b7565b9150612543608087016124b7565b90509295509295909350565b5f6020828403121561255f575f5ffd5b5035919050565b634e487b7160e01b5f52604160045260245ffd5b604051601f8201601f1916810167ffffffffffffffff811182821017156125a3576125a3612566565b604052919050565b5f5f604083850312156125bc575f5ffd5b82359150602083013567ffffffffffffffff8111156125d9575f5ffd5b8301601f810185136125e9575f5ffd5b803567ffffffffffffffff81111561260357612603612566565b8060051b6126136020820161257a565b9182526020818401810192908101908884111561262e575f5ffd5b6020850194505b8385101561265457843580835260209586019590935090910190612635565b80955050505050509250929050565b5f5f60408385031215612674575f5ffd5b50508035926020909101359150565b5f5f5f5f5f5f5f5f610100898b03121561269b575f5ffd5b6126a4896124b7565b9a60208a01359a5060408a013599606081013599506080810135985060a0810135975060c0810135965060e00135945092505050565b5f5f604083850312156126eb575f5ffd5b6126f4836124b7565b9150602083013567ffffffffffffffff81111561270f575f5ffd5b8301601f8101851361271f575f5ffd5b803567ffffffffffffffff81111561273957612739612566565b61274c601f8201601f191660200161257a565b818152866020838501011115612760575f5ffd5b816020840160208301375f602083830101528093505050509250929050565b5f81518084528060208401602086015e5f602082860101526020601f19601f83011685010191505092915050565b602081525f61239d602083018461277f565b602080825282518282018190525f918401906040840190835b818110156124ac5783516001600160a01b03168352602093840193909201916001016127d8565b5f6020828403121561280f575f5ffd5b61239d826124b7565b634e487b7160e01b5f52603260045260245ffd5b634e487b7160e01b5f52601160045260245ffd5b5f600182016128515761285161282c565b5060010190565b81810381811115610a5057610a5061282c565b5f6020828403121561287b575f5ffd5b8151801515811461239d575f5ffd5b8082028115828204841417610a5057610a5061282c565b60208152815160208201526020820151604082015261ffff604083015116606082015263ffffffff606083015116608082015263ffffffff60808301511660a08201525f60a083015160c0808401526128fd60e084018261277f565b949350505050565b5f60208284031215612915575f5ffd5b5051919050565b5f8261293657634e487b7160e01b5f52601260045260245ffd5b500690565b5f82518060208501845e5f92019182525091905056fe360894a13ba1a3210667c828492db98dca3e2076cc3735a920a3ca505d382bbca2646970667358221220dd687839618879802186fa0d52f25aa231f94f5853d6510df1cb2e274a0e0c5264736f6c634300081e0033",
					"opcodes": "PUSH1 0xA0 PUSH1 0x40 MSTORE ADDRESS PUSH1 0x80 MSTORE CALLVALUE DUP1 ISZERO PUSH1 0x12 JUMPI PUSH0 PUSH0 REVERT JUMPDEST POP PUSH1 0x1 PUSH0 SSTORE PUSH1 0x80 MLOAD PUSH2 0x29A7 PUSH2 0x3D PUSH0 CODECOPY PUSH0 DUP2 DUP2 PUSH2 0x1F2F ADD MSTORE DUP2 DUP2 PUSH2 0x1F58 ADD MSTORE PUSH2 0x2097 ADD MSTORE PUSH2 0x29A7 PUSH0 RETURN INVALID PUSH1 0x80 PUSH1 0x40 MSTORE PUSH1 0x4 CALLDATASIZE LT PUSH2 0x207 JUMPI PUSH0 CALLDATALOAD PUSH1 0xE0 SHR DUP1 PUSH4 0x5B7BAF64 GT PUSH2 0x113 JUMPI DUP1 PUSH4 0xA49A75A5 GT PUSH2 0x9D JUMPI DUP1 PUSH4 0xC1E3BD3E GT PUSH2 0x6D JUMPI DUP1 PUSH4 0xC1E3BD3E EQ PUSH2 0x781 JUMPI DUP1 PUSH4 0xC4CD639F EQ PUSH2 0x7AD JUMPI DUP1 PUSH4 0xD7098154 EQ PUSH2 0x7F5 JUMPI DUP1 PUSH4 0xE2344831 EQ PUSH2 0x814 JUMPI DUP1 PUSH4 0xF2FDE38B EQ PUSH2 0x833 JUMPI PUSH0 PUSH0 REVERT JUMPDEST DUP1 PUSH4 0xA49A75A5 EQ PUSH2 0x6AB JUMPI DUP1 PUSH4 0xAD3CB1CC EQ PUSH2 0x6F0 JUMPI DUP1 PUSH4 0xB0FB162F EQ PUSH2 0x72D JUMPI DUP1 PUSH4 0xB6FA37BC EQ PUSH2 0x762 JUMPI PUSH0 PUSH0 REVERT JUMPDEST DUP1 PUSH4 0x7CCFD7FC GT PUSH2 0xE3 JUMPI DUP1 PUSH4 0x7CCFD7FC EQ PUSH2 0x5EC JUMPI DUP1 PUSH4 0x826D9873 EQ PUSH2 0x612 JUMPI DUP1 PUSH4 0x82F9D0FB EQ PUSH2 0x631 JUMPI DUP1 PUSH4 0x8DA5CB5B EQ PUSH2 0x650 JUMPI DUP1 PUSH4 0xA3E56FA8 EQ PUSH2 0x68C JUMPI PUSH0 PUSH0 REVERT JUMPDEST DUP1 PUSH4 0x5B7BAF64 EQ PUSH2 0x585 JUMPI DUP1 PUSH4 0x60B2A56A EQ PUSH2 0x5A4 JUMPI DUP1 PUSH4 0x61728F39 EQ PUSH2 0x5C3 JUMPI DUP1 PUSH4 0x715018A6 EQ PUSH2 0x5D8 JUMPI PUSH0 PUSH0 REVERT JUMPDEST DUP1 PUSH4 0x24F74697 GT PUSH2 0x194 JUMPI DUP1 PUSH4 0x4311DA37 GT PUSH2 0x164 JUMPI DUP1 PUSH4 0x4311DA37 EQ PUSH2 0x50B JUMPI DUP1 PUSH4 0x4538F297 EQ PUSH2 0x52A JUMPI DUP1 PUSH4 0x4A4A6B4F EQ PUSH2 0x549 JUMPI DUP1 PUSH4 0x4F1EF286 EQ PUSH2 0x55E JUMPI DUP1 PUSH4 0x52D1902D EQ PUSH2 0x571 JUMPI PUSH0 PUSH0 REVERT JUMPDEST DUP1 PUSH4 0x24F74697 EQ PUSH2 0x454 JUMPI DUP1 PUSH4 0x3893F9D5 EQ PUSH2 0x485 JUMPI DUP1 PUSH4 0x3FD43098 EQ PUSH2 0x4A4 JUMPI DUP1 PUSH4 0x3FE6E01E EQ PUSH2 0x4C3 JUMPI PUSH0 PUSH0 REVERT JUMPDEST DUP1 PUSH4 0xAF5A263 GT PUSH2 0x1DA JUMPI DUP1 PUSH4 0xAF5A263 EQ PUSH2 0x2A8 JUMPI DUP1 PUSH4 0x1398E076 EQ PUSH2 0x2C7 JUMPI DUP1 PUSH4 0x15C6E123 EQ PUSH2 0x3D3 JUMPI DUP1 PUSH4 0x1FE543E3 EQ PUSH2 0x3FE JUMPI DUP1 PUSH4 0x2301D775 EQ PUSH2 0x41D JUMPI PUSH0 PUSH0 REVERT JUMPDEST DUP1 PUSH4 0x2C4D72B EQ PUSH2 0x20B JUMPI DUP1 PUSH4 0x55B66CD EQ PUSH2 0x22C JUMPI DUP1 PUSH4 0x7C7A72D EQ PUSH2 0x256 JUMPI DUP1 PUSH4 0x9C1BA2E EQ PUSH2 0x285 JUMPI JUMPDEST PUSH0 PUSH0 REVERT JUMPDEST CALLVALUE DUP1 ISZERO PUSH2 0x216 JUMPI PUSH0 PUSH0 REVERT JUMPDEST POP PUSH2 0x22A PUSH2 0x225 CALLDATASIZE PUSH1 0x4 PUSH2 0x23FB JUMP JUMPDEST PUSH2 0x852 JUMP JUMPDEST STOP JUMPDEST CALLVALUE DUP1 ISZERO PUSH2 0x237 JUMPI PUSH0 PUSH0 REVERT JUMPDEST POP PUSH2 0x240 PUSH2 0x89B JUMP JUMPDEST PUSH1 0x40 MLOAD PUSH2 0x24D SWAP2 SWAP1 PUSH2 0x2475 JUMP JUMPDEST PUSH1 0x40 MLOAD DUP1 SWAP2 SUB SWAP1 RETURN JUMPDEST CALLVALUE DUP1 ISZERO PUSH2 0x261 JUMPI PUSH0 PUSH0 REVERT JUMPDEST POP PUSH2 0x275 PUSH2 0x270 CALLDATASIZE PUSH1 0x4 PUSH2 0x24D2 JUMP JUMPDEST PUSH2 0xA27 JUMP JUMPDEST PUSH1 0x40 MLOAD SWAP1 ISZERO ISZERO DUP2 MSTORE PUSH1 0x20 ADD PUSH2 0x24D JUMP JUMPDEST CALLVALUE DUP1 ISZERO PUSH2 0x290 JUMPI PUSH0 PUSH0 REVERT JUMPDEST POP PUSH2 0x29A PUSH1 0x8 SLOAD DUP2 JUMP JUMPDEST PUSH1 0x40 MLOAD SWAP1 DUP2 MSTORE PUSH1 0x20 ADD PUSH2 0x24D JUMP JUMPDEST CALLVALUE DUP1 ISZERO PUSH2 0x2B3 JUMPI PUSH0 PUSH0 REVERT JUMPDEST POP PUSH2 0x22A PUSH2 0x2C2 CALLDATASIZE PUSH1 0x4 PUSH2 0x24FC JUMP JUMPDEST PUSH2 0xA56 JUMP JUMPDEST CALLVALUE DUP1 ISZERO PUSH2 0x2D2 JUMPI PUSH0 PUSH0 REVERT JUMPDEST POP PUSH2 0x35C PUSH2 0x2E1 CALLDATASIZE PUSH1 0x4 PUSH2 0x254F JUMP JUMPDEST PUSH1 0x2 PUSH1 0x20 DUP2 SWAP1 MSTORE PUSH0 SWAP2 DUP3 MSTORE PUSH1 0x40 SWAP1 SWAP2 KECCAK256 DUP1 SLOAD PUSH1 0x1 DUP3 ADD SLOAD SWAP3 DUP3 ADD SLOAD PUSH1 0x3 DUP4 ADD SLOAD PUSH1 0x4 DUP5 ADD SLOAD PUSH1 0x5 DUP6 ADD SLOAD PUSH1 0x6 DUP7 ADD SLOAD PUSH1 0x7 DUP8 ADD SLOAD PUSH1 0x8 DUP9 ADD SLOAD PUSH1 0xA DUP10 ADD SLOAD PUSH1 0xB SWAP1 SWAP10 ADD SLOAD PUSH1 0x1 PUSH1 0x1 PUSH1 0xA0 SHL SUB SWAP9 DUP10 AND SWAP11 SWAP10 SWAP8 SWAP9 SWAP7 SWAP8 SWAP6 SWAP7 SWAP5 SWAP6 SWAP4 SWAP5 SWAP3 SWAP4 PUSH1 0xFF DUP1 DUP5 AND SWAP5 PUSH2 0x100 DUP6 DIV DUP3 AND SWAP5 PUSH3 0x10000 SWAP1 DIV SWAP1 SWAP2 AND SWAP3 SWAP2 AND SWAP1 DUP14 JUMP JUMPDEST PUSH1 0x40 DUP1 MLOAD PUSH1 0x1 PUSH1 0x1 PUSH1 0xA0 SHL SUB SWAP15 DUP16 AND DUP2 MSTORE PUSH1 0x20 DUP2 ADD SWAP14 SWAP1 SWAP14 MSTORE DUP13 ADD SWAP11 SWAP1 SWAP11 MSTORE PUSH1 0x60 DUP12 ADD SWAP9 SWAP1 SWAP9 MSTORE PUSH1 0x80 DUP11 ADD SWAP7 SWAP1 SWAP7 MSTORE PUSH1 0xA0 DUP10 ADD SWAP5 SWAP1 SWAP5 MSTORE PUSH1 0xC0 DUP9 ADD SWAP3 SWAP1 SWAP3 MSTORE PUSH1 0xE0 DUP8 ADD MSTORE ISZERO ISZERO PUSH2 0x100 DUP7 ADD MSTORE ISZERO ISZERO PUSH2 0x120 DUP6 ADD MSTORE ISZERO ISZERO PUSH2 0x140 DUP5 ADD MSTORE SWAP1 SWAP3 AND PUSH2 0x160 DUP3 ADD MSTORE PUSH2 0x180 DUP2 ADD SWAP2 SWAP1 SWAP2 MSTORE PUSH2 0x1A0 ADD PUSH2 0x24D JUMP JUMPDEST CALLVALUE DUP1 ISZERO PUSH2 0x3DE JUMPI PUSH0 PUSH0 REVERT JUMPDEST POP PUSH2 0x29A PUSH2 0x3ED CALLDATASIZE PUSH1 0x4 PUSH2 0x254F JUMP JUMPDEST PUSH1 0xB PUSH1 0x20 MSTORE PUSH0 SWAP1 DUP2 MSTORE PUSH1 0x40 SWAP1 KECCAK256 SLOAD DUP2 JUMP JUMPDEST CALLVALUE DUP1 ISZERO PUSH2 0x409 JUMPI PUSH0 PUSH0 REVERT JUMPDEST POP PUSH2 0x22A PUSH2 0x418 CALLDATASIZE PUSH1 0x4 PUSH2 0x25AB JUMP JUMPDEST PUSH2 0xBC8 JUMP JUMPDEST CALLVALUE DUP1 ISZERO PUSH2 0x428 JUMPI PUSH0 PUSH0 REVERT JUMPDEST POP PUSH1 0x5 SLOAD PUSH2 0x43C SWAP1 PUSH1 0x1 PUSH1 0x1 PUSH1 0xA0 SHL SUB AND DUP2 JUMP JUMPDEST PUSH1 0x40 MLOAD PUSH1 0x1 PUSH1 0x1 PUSH1 0xA0 SHL SUB SWAP1 SWAP2 AND DUP2 MSTORE PUSH1 0x20 ADD PUSH2 0x24D JUMP JUMPDEST CALLVALUE DUP1 ISZERO PUSH2 0x45F JUMPI PUSH0 PUSH0 REVERT JUMPDEST POP PUSH1 0x7 SLOAD PUSH2 0x470 SWAP1 PUSH4 0xFFFFFFFF AND DUP2 JUMP JUMPDEST PUSH1 0x40 MLOAD PUSH4 0xFFFFFFFF SWAP1 SWAP2 AND DUP2 MSTORE PUSH1 0x20 ADD PUSH2 0x24D JUMP JUMPDEST CALLVALUE DUP1 ISZERO PUSH2 0x490 JUMPI PUSH0 PUSH0 REVERT JUMPDEST POP PUSH2 0x22A PUSH2 0x49F CALLDATASIZE PUSH1 0x4 PUSH2 0x2663 JUMP JUMPDEST PUSH2 0xC1B JUMP JUMPDEST CALLVALUE DUP1 ISZERO PUSH2 0x4AF JUMPI PUSH0 PUSH0 REVERT JUMPDEST POP PUSH2 0x22A PUSH2 0x4BE CALLDATASIZE PUSH1 0x4 PUSH2 0x254F JUMP JUMPDEST PUSH2 0xF2A JUMP JUMPDEST CALLVALUE DUP1 ISZERO PUSH2 0x4CE JUMPI PUSH0 PUSH0 REVERT JUMPDEST POP PUSH2 0x275 PUSH2 0x4DD CALLDATASIZE PUSH1 0x4 PUSH2 0x24D2 JUMP JUMPDEST PUSH0 DUP3 DUP2 MSTORE PUSH1 0x2 PUSH1 0x20 SWAP1 DUP2 MSTORE PUSH1 0x40 DUP1 DUP4 KECCAK256 PUSH1 0x1 PUSH1 0x1 PUSH1 0xA0 SHL SUB DUP6 AND DUP5 MSTORE PUSH1 0xF ADD SWAP1 SWAP2 MSTORE SWAP1 KECCAK256 SLOAD PUSH1 0xFF AND SWAP3 SWAP2 POP POP JUMP JUMPDEST CALLVALUE DUP1 ISZERO PUSH2 0x516 JUMPI PUSH0 PUSH0 REVERT JUMPDEST POP PUSH2 0x22A PUSH2 0x525 CALLDATASIZE PUSH1 0x4 PUSH2 0x2683 JUMP JUMPDEST PUSH2 0x1135 JUMP JUMPDEST CALLVALUE DUP1 ISZERO PUSH2 0x535 JUMPI PUSH0 PUSH0 REVERT JUMPDEST POP PUSH2 0x22A PUSH2 0x544 CALLDATASIZE PUSH1 0x4 PUSH2 0x254F JUMP JUMPDEST PUSH2 0x12AF JUMP JUMPDEST CALLVALUE DUP1 ISZERO PUSH2 0x554 JUMPI PUSH0 PUSH0 REVERT JUMPDEST POP PUSH2 0x29A PUSH1 0x3 SLOAD DUP2 JUMP JUMPDEST PUSH2 0x22A PUSH2 0x56C CALLDATASIZE PUSH1 0x4 PUSH2 0x26DA JUMP JUMPDEST PUSH2 0x137A JUMP JUMPDEST CALLVALUE DUP1 ISZERO PUSH2 0x57C JUMPI PUSH0 PUSH0 REVERT JUMPDEST POP PUSH2 0x29A PUSH2 0x1395 JUMP JUMPDEST CALLVALUE DUP1 ISZERO PUSH2 0x590 JUMPI PUSH0 PUSH0 REVERT JUMPDEST POP PUSH2 0x22A PUSH2 0x59F CALLDATASIZE PUSH1 0x4 PUSH2 0x254F JUMP JUMPDEST PUSH2 0x13B0 JUMP JUMPDEST CALLVALUE DUP1 ISZERO PUSH2 0x5AF JUMPI PUSH0 PUSH0 REVERT JUMPDEST POP PUSH2 0x22A PUSH2 0x5BE CALLDATASIZE PUSH1 0x4 PUSH2 0x254F JUMP JUMPDEST PUSH2 0x158D JUMP JUMPDEST CALLVALUE DUP1 ISZERO PUSH2 0x5CE JUMPI PUSH0 PUSH0 REVERT JUMPDEST POP PUSH2 0x29A PUSH1 0x6 SLOAD DUP2 JUMP JUMPDEST CALLVALUE DUP1 ISZERO PUSH2 0x5E3 JUMPI PUSH0 PUSH0 REVERT JUMPDEST POP PUSH2 0x22A PUSH2 0x17DC JUMP JUMPDEST CALLVALUE DUP1 ISZERO PUSH2 0x5F7 JUMPI PUSH0 PUSH0 REVERT JUMPDEST POP PUSH1 0x7 SLOAD PUSH2 0x470 SWAP1 PUSH7 0x1000000000000 SWAP1 DIV PUSH4 0xFFFFFFFF AND DUP2 JUMP JUMPDEST CALLVALUE DUP1 ISZERO PUSH2 0x61D JUMPI PUSH0 PUSH0 REVERT JUMPDEST POP PUSH2 0x22A PUSH2 0x62C CALLDATASIZE PUSH1 0x4 PUSH2 0x254F JUMP JUMPDEST PUSH2 0x17EF JUMP JUMPDEST CALLVALUE DUP1 ISZERO PUSH2 0x63C JUMPI PUSH0 PUSH0 REVERT JUMPDEST POP PUSH2 0x22A PUSH2 0x64B CALLDATASIZE PUSH1 0x4 PUSH2 0x254F JUMP JUMPDEST PUSH2 0x1935 JUMP JUMPDEST CALLVALUE DUP1 ISZERO PUSH2 0x65B JUMPI PUSH0 PUSH0 REVERT JUMPDEST POP PUSH32 0x9016D09D72D40FDAE2FD8CEAC6B6234C7706214FD39C1CD1E609A0528C199300 SLOAD PUSH1 0x1 PUSH1 0x1 PUSH1 0xA0 SHL SUB AND PUSH2 0x43C JUMP JUMPDEST CALLVALUE DUP1 ISZERO PUSH2 0x697 JUMPI PUSH0 PUSH0 REVERT JUMPDEST POP PUSH1 0x9 SLOAD PUSH2 0x43C SWAP1 PUSH1 0x1 PUSH1 0x1 PUSH1 0xA0 SHL SUB AND DUP2 JUMP JUMPDEST CALLVALUE DUP1 ISZERO PUSH2 0x6B6 JUMPI PUSH0 PUSH0 REVERT JUMPDEST POP PUSH2 0x29A PUSH2 0x6C5 CALLDATASIZE PUSH1 0x4 PUSH2 0x24D2 JUMP JUMPDEST PUSH0 DUP3 DUP2 MSTORE PUSH1 0x2 PUSH1 0x20 SWAP1 DUP2 MSTORE PUSH1 0x40 DUP1 DUP4 KECCAK256 PUSH1 0x1 PUSH1 0x1 PUSH1 0xA0 SHL SUB DUP6 AND DUP5 MSTORE PUSH1 0xC ADD SWAP1 SWAP2 MSTORE SWAP1 KECCAK256 SLOAD SWAP3 SWAP2 POP POP JUMP JUMPDEST CALLVALUE DUP1 ISZERO PUSH2 0x6FB JUMPI PUSH0 PUSH0 REVERT JUMPDEST POP PUSH2 0x720 PUSH1 0x40 MLOAD DUP1 PUSH1 0x40 ADD PUSH1 0x40 MSTORE DUP1 PUSH1 0x5 DUP2 MSTORE PUSH1 0x20 ADD PUSH5 0x352E302E3 PUSH1 0xDC SHL DUP2 MSTORE POP DUP2 JUMP JUMPDEST PUSH1 0x40 MLOAD PUSH2 0x24D SWAP2 SWAP1 PUSH2 0x27AD JUMP JUMPDEST CALLVALUE DUP1 ISZERO PUSH2 0x738 JUMPI PUSH0 PUSH0 REVERT JUMPDEST POP PUSH1 0x7 SLOAD PUSH2 0x74F SWAP1 PUSH5 0x100000000 SWAP1 DIV PUSH2 0xFFFF AND DUP2 JUMP JUMPDEST PUSH1 0x40 MLOAD PUSH2 0xFFFF SWAP1 SWAP2 AND DUP2 MSTORE PUSH1 0x20 ADD PUSH2 0x24D JUMP JUMPDEST CALLVALUE DUP1 ISZERO PUSH2 0x76D JUMPI PUSH0 PUSH0 REVERT JUMPDEST POP PUSH1 0x4 SLOAD PUSH2 0x43C SWAP1 PUSH1 0x1 PUSH1 0x1 PUSH1 0xA0 SHL SUB AND DUP2 JUMP JUMPDEST CALLVALUE DUP1 ISZERO PUSH2 0x78C JUMPI PUSH0 PUSH0 REVERT JUMPDEST POP PUSH2 0x7A0 PUSH2 0x79B CALLDATASIZE PUSH1 0x4 PUSH2 0x254F JUMP JUMPDEST PUSH2 0x19C3 JUMP JUMPDEST PUSH1 0x40 MLOAD PUSH2 0x24D SWAP2 SWAP1 PUSH2 0x27BF JUMP JUMPDEST CALLVALUE DUP1 ISZERO PUSH2 0x7B8 JUMPI PUSH0 PUSH0 REVERT JUMPDEST POP PUSH2 0x275 PUSH2 0x7C7 CALLDATASIZE PUSH1 0x4 PUSH2 0x24D2 JUMP JUMPDEST PUSH0 DUP3 DUP2 MSTORE PUSH1 0x2 PUSH1 0x20 SWAP1 DUP2 MSTORE PUSH1 0x40 DUP1 DUP4 KECCAK256 PUSH1 0x1 PUSH1 0x1 PUSH1 0xA0 SHL SUB DUP6 AND DUP5 MSTORE PUSH1 0xE ADD SWAP1 SWAP2 MSTORE SWAP1 KECCAK256 SLOAD PUSH1 0xFF AND SWAP3 SWAP2 POP POP JUMP JUMPDEST CALLVALUE DUP1 ISZERO PUSH2 0x800 JUMPI PUSH0 PUSH0 REVERT JUMPDEST POP PUSH2 0x22A PUSH2 0x80F CALLDATASIZE PUSH1 0x4 PUSH2 0x254F JUMP JUMPDEST PUSH2 0x1A2F JUMP JUMPDEST CALLVALUE DUP1 ISZERO PUSH2 0x81F JUMPI PUSH0 PUSH0 REVERT JUMPDEST POP PUSH2 0x29A PUSH2 0x82E CALLDATASIZE PUSH1 0x4 PUSH2 0x254F JUMP JUMPDEST PUSH2 0x1B7E JUMP JUMPDEST CALLVALUE DUP1 ISZERO PUSH2 0x83E JUMPI PUSH0 PUSH0 REVERT JUMPDEST POP PUSH2 0x22A PUSH2 0x84D CALLDATASIZE PUSH1 0x4 PUSH2 0x27FF JUMP JUMPDEST PUSH2 0x1B9D JUMP JUMPDEST PUSH2 0x85A PUSH2 0x1BD7 JUMP JUMPDEST PUSH2 0x896 DUP4 DUP4 DUP4 DUP1 DUP1 PUSH1 0x20 MUL PUSH1 0x20 ADD PUSH1 0x40 MLOAD SWAP1 DUP2 ADD PUSH1 0x40 MSTORE DUP1 SWAP4 SWAP3 SWAP2 SWAP1 DUP2 DUP2 MSTORE PUSH1 0x20 ADD DUP4 DUP4 PUSH1 0x20 MUL DUP1 DUP3 DUP5 CALLDATACOPY PUSH0 SWAP3 ADD SWAP2 SWAP1 SWAP2 MSTORE POP PUSH2 0x1C32 SWAP3 POP POP POP JUMP JUMPDEST POP POP POP JUMP JUMPDEST PUSH1 0xA SLOAD PUSH1 0x60 SWAP1 PUSH0 SWAP1 PUSH8 0xFFFFFFFFFFFFFFFF DUP2 GT ISZERO PUSH2 0x8BB JUMPI PUSH2 0x8BB PUSH2 0x2566 JUMP JUMPDEST PUSH1 0x40 MLOAD SWAP1 DUP1 DUP3 MSTORE DUP1 PUSH1 0x20 MUL PUSH1 0x20 ADD DUP3 ADD PUSH1 0x40 MSTORE DUP1 ISZERO PUSH2 0x8E4 JUMPI DUP2 PUSH1 0x20 ADD PUSH1 0x20 DUP3 MUL DUP1 CALLDATASIZE DUP4 CALLDATACOPY ADD SWAP1 POP JUMPDEST POP SWAP1 POP PUSH0 DUP1 JUMPDEST PUSH1 0xA SLOAD DUP2 LT ISZERO PUSH2 0x98F JUMPI PUSH0 PUSH1 0xA DUP3 DUP2 SLOAD DUP2 LT PUSH2 0x908 JUMPI PUSH2 0x908 PUSH2 0x2818 JUMP JUMPDEST PUSH0 SWAP2 DUP3 MSTORE PUSH1 0x20 DUP1 DUP4 KECCAK256 SWAP1 SWAP2 ADD SLOAD DUP1 DUP4 MSTORE PUSH1 0x2 SWAP1 SWAP2 MSTORE PUSH1 0x40 SWAP1 SWAP2 KECCAK256 PUSH1 0x8 DUP2 ADD SLOAD SWAP2 SWAP3 POP SWAP1 PUSH1 0xFF AND DUP1 ISZERO PUSH2 0x945 JUMPI POP PUSH1 0x8 DUP2 ADD SLOAD PUSH3 0x10000 SWAP1 DIV PUSH1 0xFF AND ISZERO JUMPDEST DUP1 ISZERO PUSH2 0x954 JUMPI POP DUP1 PUSH1 0x4 ADD SLOAD TIMESTAMP LT JUMPDEST ISZERO PUSH2 0x985 JUMPI DUP2 DUP6 DUP6 DUP2 MLOAD DUP2 LT PUSH2 0x96C JUMPI PUSH2 0x96C PUSH2 0x2818 JUMP JUMPDEST PUSH1 0x20 SWAP1 DUP2 MUL SWAP2 SWAP1 SWAP2 ADD ADD MSTORE DUP4 PUSH2 0x981 DUP2 PUSH2 0x2840 JUMP JUMPDEST SWAP5 POP POP JUMPDEST POP POP PUSH1 0x1 ADD PUSH2 0x8EA JUMP JUMPDEST POP PUSH0 DUP2 PUSH8 0xFFFFFFFFFFFFFFFF DUP2 GT ISZERO PUSH2 0x9AA JUMPI PUSH2 0x9AA PUSH2 0x2566 JUMP JUMPDEST PUSH1 0x40 MLOAD SWAP1 DUP1 DUP3 MSTORE DUP1 PUSH1 0x20 MUL PUSH1 0x20 ADD DUP3 ADD PUSH1 0x40 MSTORE DUP1 ISZERO PUSH2 0x9D3 JUMPI DUP2 PUSH1 0x20 ADD PUSH1 0x20 DUP3 MUL DUP1 CALLDATASIZE DUP4 CALLDATACOPY ADD SWAP1 POP JUMPDEST POP SWAP1 POP PUSH0 JUMPDEST DUP3 DUP2 LT ISZERO PUSH2 0xA1F JUMPI DUP4 DUP2 DUP2 MLOAD DUP2 LT PUSH2 0x9F2 JUMPI PUSH2 0x9F2 PUSH2 0x2818 JUMP JUMPDEST PUSH1 0x20 MUL PUSH1 0x20 ADD ADD MLOAD DUP3 DUP3 DUP2 MLOAD DUP2 LT PUSH2 0xA0C JUMPI PUSH2 0xA0C PUSH2 0x2818 JUMP JUMPDEST PUSH1 0x20 SWAP1 DUP2 MUL SWAP2 SWAP1 SWAP2 ADD ADD MSTORE PUSH1 0x1 ADD PUSH2 0x9D8 JUMP JUMPDEST POP SWAP4 SWAP3 POP POP POP JUMP JUMPDEST PUSH0 DUP3 DUP2 MSTORE PUSH1 0x2 PUSH1 0x20 SWAP1 DUP2 MSTORE PUSH1 0x40 DUP1 DUP4 KECCAK256 PUSH1 0x1 PUSH1 0x1 PUSH1 0xA0 SHL SUB DUP6 AND DUP5 MSTORE PUSH1 0xD ADD SWAP1 SWAP2 MSTORE SWAP1 KECCAK256 SLOAD PUSH1 0xFF AND JUMPDEST SWAP3 SWAP2 POP POP JUMP JUMPDEST PUSH0 PUSH2 0xA5F PUSH2 0x1E62 JUMP JUMPDEST DUP1 SLOAD SWAP1 SWAP2 POP PUSH1 0xFF PUSH1 0x1 PUSH1 0x40 SHL DUP3 DIV AND ISZERO SWAP1 PUSH8 0xFFFFFFFFFFFFFFFF AND PUSH0 DUP2 ISZERO DUP1 ISZERO PUSH2 0xA86 JUMPI POP DUP3 JUMPDEST SWAP1 POP PUSH0 DUP3 PUSH8 0xFFFFFFFFFFFFFFFF AND PUSH1 0x1 EQ DUP1 ISZERO PUSH2 0xAA2 JUMPI POP ADDRESS EXTCODESIZE ISZERO JUMPDEST SWAP1 POP DUP2 ISZERO DUP1 ISZERO PUSH2 0xAB0 JUMPI POP DUP1 ISZERO JUMPDEST ISZERO PUSH2 0xACE JUMPI PUSH1 0x40 MLOAD PUSH4 0xF92EE8A9 PUSH1 0xE0 SHL DUP2 MSTORE PUSH1 0x4 ADD PUSH1 0x40 MLOAD DUP1 SWAP2 SUB SWAP1 REVERT JUMPDEST DUP5 SLOAD PUSH8 0xFFFFFFFFFFFFFFFF NOT AND PUSH1 0x1 OR DUP6 SSTORE DUP4 ISZERO PUSH2 0xAF8 JUMPI DUP5 SLOAD PUSH1 0xFF PUSH1 0x40 SHL NOT AND PUSH1 0x1 PUSH1 0x40 SHL OR DUP6 SSTORE JUMPDEST PUSH2 0xB01 CALLER PUSH2 0x1E8A JUMP JUMPDEST PUSH2 0xB09 PUSH2 0x1E9B JUMP JUMPDEST PUSH2 0xB12 DUP11 PUSH2 0x1EA3 JUMP JUMPDEST PUSH1 0x9 DUP1 SLOAD PUSH1 0x1 PUSH1 0x1 PUSH1 0xA0 SHL SUB NOT SWAP1 DUP2 AND PUSH1 0x1 PUSH1 0x1 PUSH1 0xA0 SHL SUB DUP14 DUP2 AND SWAP2 SWAP1 SWAP2 OR SWAP1 SWAP3 SSTORE PUSH1 0x6 DUP12 SWAP1 SSTORE PUSH1 0x8 DUP11 SWAP1 SSTORE PUSH1 0x7 DUP1 SLOAD PUSH10 0xFFFFFFFFFFFFFFFFFFFF NOT AND PUSH7 0x1000300030D40 OR SWAP1 SSTORE PUSH1 0x4 DUP1 SLOAD DUP3 AND DUP11 DUP5 AND OR SWAP1 SSTORE PUSH1 0x5 DUP1 SLOAD SWAP1 SWAP2 AND SWAP2 DUP9 AND SWAP2 SWAP1 SWAP2 OR SWAP1 SSTORE DUP4 ISZERO PUSH2 0xBBC JUMPI DUP5 SLOAD PUSH1 0xFF PUSH1 0x40 SHL NOT AND DUP6 SSTORE PUSH1 0x40 MLOAD PUSH1 0x1 DUP2 MSTORE PUSH32 0xC7F505B2F371AE2175EE4913F4499E1F2633A7B5936321EED1CDAEB6115181D2 SWAP1 PUSH1 0x20 ADD PUSH1 0x40 MLOAD DUP1 SWAP2 SUB SWAP1 LOG1 JUMPDEST POP POP POP POP POP POP POP POP POP POP JUMP JUMPDEST PUSH1 0x1 SLOAD PUSH1 0x1 PUSH1 0x1 PUSH1 0xA0 SHL SUB AND CALLER EQ PUSH2 0xC0D JUMPI PUSH1 0x1 SLOAD PUSH1 0x40 MLOAD PUSH4 0x73E64FD PUSH1 0xE2 SHL DUP2 MSTORE CALLER PUSH1 0x4 DUP3 ADD MSTORE PUSH1 0x1 PUSH1 0x1 PUSH1 0xA0 SHL SUB SWAP1 SWAP2 AND PUSH1 0x24 DUP3 ADD MSTORE PUSH1 0x44 ADD JUMPDEST PUSH1 0x40 MLOAD DUP1 SWAP2 SUB SWAP1 REVERT JUMPDEST PUSH2 0xC17 DUP3 DUP3 PUSH2 0x1C32 JUMP JUMPDEST POP POP JUMP JUMPDEST PUSH2 0xC23 PUSH2 0x1ECD JUMP JUMPDEST PUSH0 DUP3 DUP2 MSTORE PUSH1 0x2 PUSH1 0x20 SWAP1 DUP2 MSTORE PUSH1 0x40 DUP1 DUP4 KECCAK256 DUP5 DUP5 MSTORE DUP2 DUP5 KECCAK256 CALLER DUP6 MSTORE PUSH1 0xC DUP3 ADD SWAP1 SWAP4 MSTORE SWAP3 KECCAK256 SLOAD PUSH2 0xC7F JUMPI PUSH1 0x40 MLOAD PUSH3 0x461BCD PUSH1 0xE5 SHL DUP2 MSTORE PUSH1 0x20 PUSH1 0x4 DUP3 ADD MSTORE PUSH1 0xA PUSH1 0x24 DUP3 ADD MSTORE PUSH10 0x139BDD081A5B881BDB19 PUSH1 0xB2 SHL PUSH1 0x44 DUP3 ADD MSTORE PUSH1 0x64 ADD PUSH2 0xC04 JUMP JUMPDEST CALLER PUSH0 SWAP1 DUP2 MSTORE PUSH1 0xE DUP4 ADD PUSH1 0x20 MSTORE PUSH1 0x40 SWAP1 KECCAK256 SLOAD PUSH1 0xFF AND ISZERO PUSH2 0xCD3 JUMPI PUSH1 0x40 MLOAD PUSH3 0x461BCD PUSH1 0xE5 SHL DUP2 MSTORE PUSH1 0x20 PUSH1 0x4 DUP3 ADD MSTORE PUSH1 0x10 PUSH1 0x24 DUP3 ADD MSTORE PUSH16 0x526566756E64656420616C7265616479 PUSH1 0x80 SHL PUSH1 0x44 DUP3 ADD MSTORE PUSH1 0x64 ADD PUSH2 0xC04 JUMP JUMPDEST PUSH1 0x8 DUP3 ADD SLOAD PUSH3 0x10000 SWAP1 DIV PUSH1 0xFF AND DUP1 PUSH2 0xD0D JUMPI POP PUSH1 0x8 DUP3 ADD SLOAD PUSH2 0x100 SWAP1 DIV PUSH1 0xFF AND DUP1 ISZERO PUSH2 0xD0D JUMPI POP PUSH1 0xA DUP3 ADD SLOAD PUSH1 0x1 PUSH1 0x1 PUSH1 0xA0 SHL SUB AND CALLER EQ ISZERO JUMPDEST PUSH2 0xD4C JUMPI PUSH1 0x40 MLOAD PUSH3 0x461BCD PUSH1 0xE5 SHL DUP2 MSTORE PUSH1 0x20 PUSH1 0x4 DUP3 ADD MSTORE PUSH1 0x10 PUSH1 0x24 DUP3 ADD MSTORE PUSH16 0x4F6C64206E6F7420656C696769626C65 PUSH1 0x80 SHL PUSH1 0x44 DUP3 ADD MSTORE PUSH1 0x64 ADD PUSH2 0xC04 JUMP JUMPDEST PUSH1 0x8 DUP2 ADD SLOAD PUSH1 0xFF AND DUP1 ISZERO PUSH2 0xD6B JUMPI POP PUSH1 0x8 DUP2 ADD SLOAD PUSH3 0x10000 SWAP1 DIV PUSH1 0xFF AND ISZERO JUMPDEST PUSH2 0xDAE JUMPI PUSH1 0x40 MLOAD PUSH3 0x461BCD PUSH1 0xE5 SHL DUP2 MSTORE PUSH1 0x20 PUSH1 0x4 DUP3 ADD MSTORE PUSH1 0x14 PUSH1 0x24 DUP3 ADD MSTORE PUSH20 0x4E6577206C6F747465727920696E616374697665 PUSH1 0x60 SHL PUSH1 0x44 DUP3 ADD MSTORE PUSH1 0x64 ADD PUSH2 0xC04 JUMP JUMPDEST DUP1 PUSH1 0x4 ADD SLOAD TIMESTAMP LT PUSH2 0xDF4 JUMPI PUSH1 0x40 MLOAD PUSH3 0x461BCD PUSH1 0xE5 SHL DUP2 MSTORE PUSH1 0x20 PUSH1 0x4 DUP3 ADD MSTORE PUSH1 0x10 PUSH1 0x24 DUP3 ADD MSTORE PUSH16 0x546F6F206C61746520666F72206E6577 PUSH1 0x80 SHL PUSH1 0x44 DUP3 ADD MSTORE PUSH1 0x64 ADD PUSH2 0xC04 JUMP JUMPDEST CALLER PUSH0 SWAP1 DUP2 MSTORE PUSH1 0xE DUP4 ADD PUSH1 0x20 MSTORE PUSH1 0x40 DUP2 KECCAK256 DUP1 SLOAD PUSH1 0xFF NOT AND PUSH1 0x1 SWAP1 DUP2 OR SWAP1 SWAP2 SSTORE PUSH1 0x2 DUP4 ADD SLOAD SWAP1 DUP4 ADD SLOAD PUSH2 0xE25 SWAP2 SWAP1 PUSH2 0x2858 JUMP JUMPDEST DUP3 SLOAD PUSH1 0x40 MLOAD PUSH4 0x23B872DD PUSH1 0xE0 SHL DUP2 MSTORE CALLER PUSH1 0x4 DUP3 ADD MSTORE ADDRESS PUSH1 0x24 DUP3 ADD MSTORE PUSH1 0x44 DUP2 ADD DUP4 SWAP1 MSTORE SWAP2 SWAP3 POP PUSH1 0x1 PUSH1 0x1 PUSH1 0xA0 SHL SUB AND SWAP1 PUSH4 0x23B872DD SWAP1 PUSH1 0x64 ADD PUSH1 0x20 PUSH1 0x40 MLOAD DUP1 DUP4 SUB DUP2 PUSH0 DUP8 GAS CALL ISZERO DUP1 ISZERO PUSH2 0xE79 JUMPI RETURNDATASIZE PUSH0 PUSH0 RETURNDATACOPY RETURNDATASIZE PUSH0 REVERT JUMPDEST POP POP POP POP PUSH1 0x40 MLOAD RETURNDATASIZE PUSH1 0x1F NOT PUSH1 0x1F DUP3 ADD AND DUP3 ADD DUP1 PUSH1 0x40 MSTORE POP DUP2 ADD SWAP1 PUSH2 0xE9D SWAP2 SWAP1 PUSH2 0x286B JUMP JUMPDEST POP PUSH1 0x9 DUP3 ADD DUP1 SLOAD PUSH1 0x1 DUP2 ADD DUP3 SSTORE PUSH0 SWAP2 DUP3 MSTORE PUSH1 0x20 DUP1 DUP4 KECCAK256 SWAP1 SWAP2 ADD DUP1 SLOAD PUSH1 0x1 PUSH1 0x1 PUSH1 0xA0 SHL SUB NOT AND CALLER SWAP1 DUP2 OR SWAP1 SWAP2 SSTORE DUP3 MSTORE PUSH1 0xC DUP5 ADD SWAP1 MSTORE PUSH1 0x40 DUP2 KECCAK256 DUP1 SLOAD SWAP2 PUSH2 0xEE1 DUP4 PUSH2 0x2840 JUMP JUMPDEST SWAP1 SWAP2 SSTORE POP POP PUSH1 0x40 DUP1 MLOAD DUP6 DUP2 MSTORE CALLER PUSH1 0x20 DUP3 ADD MSTORE PUSH32 0x1E28857182A3B2BB6FBB88287D1BA8CC3A941DD65D4C977286676D27B877A3D9 SWAP2 ADD PUSH1 0x40 MLOAD DUP1 SWAP2 SUB SWAP1 LOG1 POP POP POP PUSH2 0xC17 PUSH1 0x1 PUSH0 SSTORE JUMP JUMPDEST PUSH2 0xF32 PUSH2 0x1ECD JUMP JUMPDEST PUSH0 DUP2 DUP2 MSTORE PUSH1 0x2 PUSH1 0x20 MSTORE PUSH1 0x40 SWAP1 KECCAK256 PUSH1 0x8 DUP2 ADD SLOAD PUSH1 0xFF AND DUP1 ISZERO PUSH2 0xF5E JUMPI POP PUSH1 0x8 DUP2 ADD SLOAD PUSH3 0x10000 SWAP1 DIV PUSH1 0xFF AND ISZERO JUMPDEST PUSH2 0xFA2 JUMPI PUSH1 0x40 MLOAD PUSH3 0x461BCD PUSH1 0xE5 SHL DUP2 MSTORE PUSH1 0x20 PUSH1 0x4 DUP3 ADD MSTORE PUSH1 0x15 PUSH1 0x24 DUP3 ADD MSTORE PUSH21 0x125B9858DD1A5D99481BDC8818D85B98D95B1B1959 PUSH1 0x5A SHL PUSH1 0x44 DUP3 ADD MSTORE PUSH1 0x64 ADD PUSH2 0xC04 JUMP JUMPDEST DUP1 PUSH1 0x4 ADD SLOAD TIMESTAMP LT PUSH2 0xFE0 JUMPI PUSH1 0x40 MLOAD PUSH3 0x461BCD PUSH1 0xE5 SHL DUP2 MSTORE PUSH1 0x20 PUSH1 0x4 DUP3 ADD MSTORE PUSH1 0x8 PUSH1 0x24 DUP3 ADD MSTORE PUSH8 0x546F6F206C617465 PUSH1 0xC0 SHL PUSH1 0x44 DUP3 ADD MSTORE PUSH1 0x64 ADD PUSH2 0xC04 JUMP JUMPDEST PUSH1 0x3 DUP2 ADD SLOAD PUSH1 0x9 DUP3 ADD SLOAD LT PUSH2 0x102A JUMPI PUSH1 0x40 MLOAD PUSH3 0x461BCD PUSH1 0xE5 SHL DUP2 MSTORE PUSH1 0x20 PUSH1 0x4 DUP3 ADD MSTORE PUSH1 0x10 PUSH1 0x24 DUP3 ADD MSTORE PUSH16 0x4D6178207061727469636970616E7473 PUSH1 0x80 SHL PUSH1 0x44 DUP3 ADD MSTORE PUSH1 0x64 ADD PUSH2 0xC04 JUMP JUMPDEST DUP1 SLOAD PUSH1 0x1 DUP3 ADD SLOAD PUSH1 0x40 MLOAD PUSH4 0x23B872DD PUSH1 0xE0 SHL DUP2 MSTORE CALLER PUSH1 0x4 DUP3 ADD MSTORE ADDRESS PUSH1 0x24 DUP3 ADD MSTORE PUSH1 0x44 DUP2 ADD SWAP2 SWAP1 SWAP2 MSTORE PUSH1 0x1 PUSH1 0x1 PUSH1 0xA0 SHL SUB SWAP1 SWAP2 AND SWAP1 PUSH4 0x23B872DD SWAP1 PUSH1 0x64 ADD PUSH1 0x20 PUSH1 0x40 MLOAD DUP1 DUP4 SUB DUP2 PUSH0 DUP8 GAS CALL ISZERO DUP1 ISZERO PUSH2 0x1083 JUMPI RETURNDATASIZE PUSH0 PUSH0 RETURNDATACOPY RETURNDATASIZE PUSH0 REVERT JUMPDEST POP POP POP POP PUSH1 0x40 MLOAD RETURNDATASIZE PUSH1 0x1F NOT PUSH1 0x1F DUP3 ADD AND DUP3 ADD DUP1 PUSH1 0x40 MSTORE POP DUP2 ADD SWAP1 PUSH2 0x10A7 SWAP2 SWAP1 PUSH2 0x286B JUMP JUMPDEST POP PUSH1 0x9 DUP2 ADD DUP1 SLOAD PUSH1 0x1 DUP2 ADD DUP3 SSTORE PUSH0 SWAP2 DUP3 MSTORE PUSH1 0x20 DUP1 DUP4 KECCAK256 SWAP1 SWAP2 ADD DUP1 SLOAD PUSH1 0x1 PUSH1 0x1 PUSH1 0xA0 SHL SUB NOT AND CALLER SWAP1 DUP2 OR SWAP1 SWAP2 SSTORE DUP3 MSTORE PUSH1 0xC DUP4 ADD SWAP1 MSTORE PUSH1 0x40 DUP2 KECCAK256 DUP1 SLOAD SWAP2 PUSH2 0x10EB DUP4 PUSH2 0x2840 JUMP JUMPDEST SWAP1 SWAP2 SSTORE POP POP PUSH1 0x40 DUP1 MLOAD DUP4 DUP2 MSTORE CALLER PUSH1 0x20 DUP3 ADD MSTORE PUSH32 0x1E28857182A3B2BB6FBB88287D1BA8CC3A941DD65D4C977286676D27B877A3D9 SWAP2 ADD PUSH1 0x40 MLOAD DUP1 SWAP2 SUB SWAP1 LOG1 POP PUSH2 0x1132 PUSH1 0x1 PUSH0 SSTORE JUMP JUMPDEST POP JUMP JUMPDEST PUSH2 0x113D PUSH2 0x1BD7 JUMP JUMPDEST DUP6 DUP8 LT ISZERO PUSH2 0x117D JUMPI PUSH1 0x40 MLOAD PUSH3 0x461BCD PUSH1 0xE5 SHL DUP2 MSTORE PUSH1 0x20 PUSH1 0x4 DUP3 ADD MSTORE PUSH1 0xD PUSH1 0x24 DUP3 ADD MSTORE PUSH13 0x526566756E64203C3D20666565 PUSH1 0x98 SHL PUSH1 0x44 DUP3 ADD MSTORE PUSH1 0x64 ADD PUSH2 0xC04 JUMP JUMPDEST TIMESTAMP DUP5 GT PUSH2 0x11C0 JUMPI PUSH1 0x40 MLOAD PUSH3 0x461BCD PUSH1 0xE5 SHL DUP2 MSTORE PUSH1 0x20 PUSH1 0x4 DUP3 ADD MSTORE PUSH1 0x11 PUSH1 0x24 DUP3 ADD MSTORE PUSH17 0x496E76616C696420647261772074696D65 PUSH1 0x78 SHL PUSH1 0x44 DUP3 ADD MSTORE PUSH1 0x64 ADD PUSH2 0xC04 JUMP JUMPDEST PUSH1 0x3 DUP1 SLOAD SWAP1 PUSH0 PUSH2 0x11CF DUP4 PUSH2 0x2840 JUMP JUMPDEST SWAP1 SWAP2 SSTORE POP POP PUSH1 0x3 DUP1 SLOAD PUSH0 SWAP1 DUP2 MSTORE PUSH1 0x2 PUSH1 0x20 DUP2 DUP2 MSTORE PUSH1 0x40 DUP1 DUP5 KECCAK256 DUP1 SLOAD PUSH1 0x1 PUSH1 0x1 PUSH1 0xA0 SHL SUB NOT AND PUSH1 0x1 PUSH1 0x1 PUSH1 0xA0 SHL SUB DUP16 AND OR DUP2 SSTORE PUSH1 0x1 DUP1 DUP3 ADD DUP15 SWAP1 SSTORE SWAP4 DUP2 ADD DUP13 SWAP1 SSTORE DUP1 DUP7 ADD DUP12 SWAP1 SSTORE PUSH1 0x4 DUP2 ADD DUP11 SWAP1 SSTORE PUSH1 0x5 DUP2 ADD DUP10 SWAP1 SSTORE PUSH1 0x6 DUP2 ADD DUP9 SWAP1 SSTORE PUSH1 0x7 DUP2 ADD DUP8 SWAP1 SSTORE PUSH1 0x8 DUP2 ADD DUP1 SLOAD PUSH1 0xFF NOT AND DUP6 OR SWAP1 SSTORE SWAP5 SLOAD PUSH1 0xA DUP1 SLOAD SWAP5 DUP6 ADD DUP2 SSTORE SWAP1 SWAP5 MSTORE PUSH32 0xC65A7BB8D6351C1CF70C95A316CC6A92839C986682D98BC35F958F4883F9D2A8 SWAP1 SWAP3 ADD DUP4 SWAP1 SSTORE SWAP1 MLOAD SWAP2 DUP3 MSTORE PUSH32 0x9E0023BEBCC752BAAA41057318405B5A6A8E9C6372B519717CFDF238E5CAA795 SWAP2 ADD PUSH1 0x40 MLOAD DUP1 SWAP2 SUB SWAP1 LOG1 POP POP POP POP POP POP POP POP POP JUMP JUMPDEST PUSH2 0x12B7 PUSH2 0x1BD7 JUMP JUMPDEST PUSH0 DUP2 DUP2 MSTORE PUSH1 0x2 PUSH1 0x20 MSTORE PUSH1 0x40 SWAP1 KECCAK256 PUSH1 0x8 DUP2 ADD SLOAD PUSH3 0x10000 SWAP1 DIV PUSH1 0xFF AND ISZERO DUP1 ISZERO PUSH2 0x12E9 JUMPI POP PUSH1 0x8 DUP2 ADD SLOAD PUSH2 0x100 SWAP1 DIV PUSH1 0xFF AND ISZERO JUMPDEST PUSH2 0x1329 JUMPI PUSH1 0x40 MLOAD PUSH3 0x461BCD PUSH1 0xE5 SHL DUP2 MSTORE PUSH1 0x20 PUSH1 0x4 DUP3 ADD MSTORE PUSH1 0x11 PUSH1 0x24 DUP3 ADD MSTORE PUSH17 0x105B1C9958591E48199A5B985B1A5E9959 PUSH1 0x7A SHL PUSH1 0x44 DUP3 ADD MSTORE PUSH1 0x64 ADD PUSH2 0xC04 JUMP JUMPDEST PUSH1 0x8 DUP2 ADD DUP1 SLOAD PUSH3 0xFF0000 NOT AND PUSH3 0x10000 OR SWAP1 SSTORE PUSH1 0x40 MLOAD PUSH32 0xC3DAC690CF4C3AE8964F18B8F09F7F9A75D3962A8CBB7CD689DF2C291BB5B2DD SWAP1 PUSH2 0x136E SWAP1 DUP5 DUP2 MSTORE PUSH1 0x20 ADD SWAP1 JUMP JUMPDEST PUSH1 0x40 MLOAD DUP1 SWAP2 SUB SWAP1 LOG1 POP POP JUMP JUMPDEST PUSH2 0x1382 PUSH2 0x1F24 JUMP JUMPDEST PUSH2 0x138B DUP3 PUSH2 0x1FC8 JUMP JUMPDEST PUSH2 0xC17 DUP3 DUP3 PUSH2 0x1FD0 JUMP JUMPDEST PUSH0 PUSH2 0x139E PUSH2 0x208C JUMP JUMPDEST POP PUSH0 MLOAD PUSH1 0x20 PUSH2 0x2952 PUSH0 CODECOPY PUSH0 MLOAD SWAP1 PUSH0 MSTORE SWAP1 JUMP JUMPDEST PUSH2 0x13B8 PUSH2 0x1ECD JUMP JUMPDEST PUSH0 DUP2 DUP2 MSTORE PUSH1 0x2 PUSH1 0x20 MSTORE PUSH1 0x40 SWAP1 KECCAK256 PUSH1 0x8 DUP2 ADD SLOAD PUSH3 0x10000 SWAP1 DIV PUSH1 0xFF AND DUP1 PUSH2 0x13FF JUMPI POP PUSH1 0x8 DUP2 ADD SLOAD PUSH2 0x100 SWAP1 DIV PUSH1 0xFF AND DUP1 ISZERO PUSH2 0x13FF JUMPI POP PUSH1 0xA DUP2 ADD SLOAD PUSH1 0x1 PUSH1 0x1 PUSH1 0xA0 SHL SUB AND CALLER EQ ISZERO JUMPDEST PUSH2 0x143A JUMPI PUSH1 0x40 MLOAD PUSH3 0x461BCD PUSH1 0xE5 SHL DUP2 MSTORE PUSH1 0x20 PUSH1 0x4 DUP3 ADD MSTORE PUSH1 0xC PUSH1 0x24 DUP3 ADD MSTORE PUSH12 0x4E6F7420656C696769626C65 PUSH1 0xA0 SHL PUSH1 0x44 DUP3 ADD MSTORE PUSH1 0x64 ADD PUSH2 0xC04 JUMP JUMPDEST CALLER PUSH0 SWAP1 DUP2 MSTORE PUSH1 0xE DUP3 ADD PUSH1 0x20 MSTORE PUSH1 0x40 SWAP1 KECCAK256 SLOAD PUSH1 0xFF AND ISZERO PUSH2 0x148E JUMPI PUSH1 0x40 MLOAD PUSH3 0x461BCD PUSH1 0xE5 SHL DUP2 MSTORE PUSH1 0x20 PUSH1 0x4 DUP3 ADD MSTORE PUSH1 0x10 PUSH1 0x24 DUP3 ADD MSTORE PUSH16 0x105B1C9958591E481C99599D5B991959 PUSH1 0x82 SHL PUSH1 0x44 DUP3 ADD MSTORE PUSH1 0x64 ADD PUSH2 0xC04 JUMP JUMPDEST CALLER PUSH0 SWAP1 DUP2 MSTORE PUSH1 0xC DUP3 ADD PUSH1 0x20 MSTORE PUSH1 0x40 SWAP1 KECCAK256 SLOAD PUSH2 0x14D8 JUMPI PUSH1 0x40 MLOAD PUSH3 0x461BCD PUSH1 0xE5 SHL DUP2 MSTORE PUSH1 0x20 PUSH1 0x4 DUP3 ADD MSTORE PUSH1 0xA PUSH1 0x24 DUP3 ADD MSTORE PUSH10 0x4E6F20656E7472696573 PUSH1 0xB0 SHL PUSH1 0x44 DUP3 ADD MSTORE PUSH1 0x64 ADD PUSH2 0xC04 JUMP JUMPDEST CALLER PUSH0 SWAP1 DUP2 MSTORE PUSH1 0xE DUP3 ADD PUSH1 0x20 SWAP1 DUP2 MSTORE PUSH1 0x40 DUP1 DUP4 KECCAK256 DUP1 SLOAD PUSH1 0xFF NOT AND PUSH1 0x1 OR SWAP1 SSTORE PUSH1 0xC DUP5 ADD SWAP1 SWAP2 MSTORE DUP2 KECCAK256 SLOAD PUSH1 0x2 DUP4 ADD SLOAD PUSH2 0x150F SWAP2 SWAP1 PUSH2 0x288A JUMP JUMPDEST DUP3 SLOAD PUSH1 0x40 MLOAD PUSH4 0xA9059CBB PUSH1 0xE0 SHL DUP2 MSTORE CALLER PUSH1 0x4 DUP3 ADD MSTORE PUSH1 0x24 DUP2 ADD DUP4 SWAP1 MSTORE SWAP2 SWAP3 POP PUSH1 0x1 PUSH1 0x1 PUSH1 0xA0 SHL SUB AND SWAP1 PUSH4 0xA9059CBB SWAP1 PUSH1 0x44 ADD PUSH1 0x20 PUSH1 0x40 MLOAD DUP1 DUP4 SUB DUP2 PUSH0 DUP8 GAS CALL ISZERO DUP1 ISZERO PUSH2 0x155D JUMPI RETURNDATASIZE PUSH0 PUSH0 RETURNDATACOPY RETURNDATASIZE PUSH0 REVERT JUMPDEST POP POP POP POP PUSH1 0x40 MLOAD RETURNDATASIZE PUSH1 0x1F NOT PUSH1 0x1F DUP3 ADD AND DUP3 ADD DUP1 PUSH1 0x40 MSTORE POP DUP2 ADD SWAP1 PUSH2 0x1581 SWAP2 SWAP1 PUSH2 0x286B JUMP JUMPDEST POP POP POP PUSH2 0x1132 PUSH1 0x1 PUSH0 SSTORE JUMP JUMPDEST PUSH2 0x1595 PUSH2 0x1BD7 JUMP JUMPDEST PUSH0 DUP2 DUP2 MSTORE PUSH1 0x2 PUSH1 0x20 MSTORE PUSH1 0x40 SWAP1 KECCAK256 PUSH1 0x4 DUP2 ADD SLOAD TIMESTAMP LT ISZERO PUSH2 0x15E2 JUMPI PUSH1 0x40 MLOAD PUSH3 0x461BCD PUSH1 0xE5 SHL DUP2 MSTORE PUSH1 0x20 PUSH1 0x4 DUP3 ADD MSTORE PUSH1 0x9 PUSH1 0x24 DUP3 ADD MSTORE PUSH9 0x546F6F206561726C79 PUSH1 0xB8 SHL PUSH1 0x44 DUP3 ADD MSTORE PUSH1 0x64 ADD PUSH2 0xC04 JUMP JUMPDEST PUSH1 0x8 DUP2 ADD SLOAD PUSH2 0x100 SWAP1 DIV PUSH1 0xFF AND ISZERO DUP1 ISZERO PUSH2 0x1607 JUMPI POP PUSH1 0x8 DUP2 ADD SLOAD PUSH3 0x10000 SWAP1 DIV PUSH1 0xFF AND ISZERO JUMPDEST PUSH2 0x1653 JUMPI PUSH1 0x40 MLOAD PUSH3 0x461BCD PUSH1 0xE5 SHL DUP2 MSTORE PUSH1 0x20 PUSH1 0x4 DUP3 ADD MSTORE PUSH1 0x1A PUSH1 0x24 DUP3 ADD MSTORE PUSH32 0x416C726561647920647261776E206F722063616E63656C6C6564000000000000 PUSH1 0x44 DUP3 ADD MSTORE PUSH1 0x64 ADD PUSH2 0xC04 JUMP JUMPDEST PUSH1 0x9 DUP2 ADD SLOAD PUSH2 0x1696 JUMPI PUSH1 0x40 MLOAD PUSH3 0x461BCD PUSH1 0xE5 SHL DUP2 MSTORE PUSH1 0x20 PUSH1 0x4 DUP3 ADD MSTORE PUSH1 0xF PUSH1 0x24 DUP3 ADD MSTORE PUSH15 0x4E6F207061727469636970616E7473 PUSH1 0x88 SHL PUSH1 0x44 DUP3 ADD MSTORE PUSH1 0x64 ADD PUSH2 0xC04 JUMP JUMPDEST PUSH1 0x9 SLOAD PUSH1 0x40 DUP1 MLOAD PUSH1 0xC0 DUP2 ADD DUP3 MSTORE PUSH1 0x6 SLOAD DUP2 MSTORE PUSH1 0x8 SLOAD PUSH1 0x20 DUP1 DUP4 ADD SWAP2 SWAP1 SWAP2 MSTORE PUSH1 0x7 SLOAD PUSH2 0xFFFF PUSH5 0x100000000 DUP3 DIV AND DUP4 DUP6 ADD MSTORE PUSH4 0xFFFFFFFF DUP1 DUP3 AND PUSH1 0x60 DUP6 ADD MSTORE PUSH7 0x1000000000000 SWAP1 SWAP2 DIV AND PUSH1 0x80 DUP4 ADD MSTORE DUP3 MLOAD SWAP1 DUP2 ADD SWAP1 SWAP3 MSTORE PUSH0 DUP1 DUP4 MSTORE SWAP3 PUSH1 0x1 PUSH1 0x1 PUSH1 0xA0 SHL SUB AND SWAP2 PUSH4 0x9B1C385E SWAP2 SWAP1 PUSH1 0xA0 DUP3 ADD SWAP1 PUSH2 0x1711 SWAP1 PUSH2 0x20D5 JUMP JUMPDEST DUP2 MSTORE POP PUSH1 0x40 MLOAD DUP3 PUSH4 0xFFFFFFFF AND PUSH1 0xE0 SHL DUP2 MSTORE PUSH1 0x4 ADD PUSH2 0x1730 SWAP2 SWAP1 PUSH2 0x28A1 JUMP JUMPDEST PUSH1 0x20 PUSH1 0x40 MLOAD DUP1 DUP4 SUB DUP2 PUSH0 DUP8 GAS CALL ISZERO DUP1 ISZERO PUSH2 0x174C JUMPI RETURNDATASIZE PUSH0 PUSH0 RETURNDATACOPY RETURNDATASIZE PUSH0 REVERT JUMPDEST POP POP POP POP PUSH1 0x40 MLOAD RETURNDATASIZE PUSH1 0x1F NOT PUSH1 0x1F DUP3 ADD AND DUP3 ADD DUP1 PUSH1 0x40 MSTORE POP DUP2 ADD SWAP1 PUSH2 0x1770 SWAP2 SWAP1 PUSH2 0x2905 JUMP JUMPDEST PUSH0 DUP2 DUP2 MSTORE PUSH1 0xB PUSH1 0x20 MSTORE PUSH1 0x40 SWAP1 DUP2 SWAP1 KECCAK256 DUP6 SWAP1 SSTORE PUSH1 0x8 DUP5 ADD DUP1 SLOAD PUSH2 0xFF00 NOT AND PUSH2 0x100 OR SWAP1 SSTORE MLOAD SWAP1 SWAP2 POP PUSH32 0x600253EAE67A5C51C82A7123372E8644F16009C6304E18F844CF86FDC40C24D7 SWAP1 PUSH2 0x17CF SWAP1 DUP6 SWAP1 DUP5 SWAP1 SWAP2 DUP3 MSTORE PUSH1 0x20 DUP3 ADD MSTORE PUSH1 0x40 ADD SWAP1 JUMP JUMPDEST PUSH1 0x40 MLOAD DUP1 SWAP2 SUB SWAP1 LOG1 POP POP POP JUMP JUMPDEST PUSH2 0x17E4 PUSH2 0x1BD7 JUMP JUMPDEST PUSH2 0x17ED PUSH0 PUSH2 0x2146 JUMP JUMPDEST JUMP JUMPDEST PUSH0 DUP2 DUP2 MSTORE PUSH1 0x2 PUSH1 0x20 SWAP1 DUP2 MSTORE PUSH1 0x40 DUP1 DUP4 KECCAK256 CALLER DUP5 MSTORE PUSH1 0xF DUP2 ADD SWAP1 SWAP3 MSTORE SWAP1 SWAP2 KECCAK256 SLOAD PUSH1 0xFF AND ISZERO PUSH2 0x184D JUMPI PUSH1 0x40 MLOAD PUSH3 0x461BCD PUSH1 0xE5 SHL DUP2 MSTORE PUSH1 0x20 PUSH1 0x4 DUP3 ADD MSTORE PUSH1 0xD PUSH1 0x24 DUP3 ADD MSTORE PUSH13 0x105B1C9958591E481D9BDD1959 PUSH1 0x9A SHL PUSH1 0x44 DUP3 ADD MSTORE PUSH1 0x64 ADD PUSH2 0xC04 JUMP JUMPDEST CALLER PUSH0 SWAP1 DUP2 MSTORE PUSH1 0xC DUP3 ADD PUSH1 0x20 MSTORE PUSH1 0x40 SWAP1 KECCAK256 SLOAD PUSH2 0x189B JUMPI PUSH1 0x40 MLOAD PUSH3 0x461BCD PUSH1 0xE5 SHL DUP2 MSTORE PUSH1 0x20 PUSH1 0x4 DUP3 ADD MSTORE PUSH1 0xE PUSH1 0x24 DUP3 ADD MSTORE PUSH14 0x4E6F7420696E206C6F7474657279 PUSH1 0x90 SHL PUSH1 0x44 DUP3 ADD MSTORE PUSH1 0x64 ADD PUSH2 0xC04 JUMP JUMPDEST CALLER PUSH0 SWAP1 DUP2 MSTORE PUSH1 0xF DUP3 ADD PUSH1 0x20 MSTORE PUSH1 0x40 DUP2 KECCAK256 DUP1 SLOAD PUSH1 0xFF NOT AND PUSH1 0x1 OR SWAP1 SSTORE PUSH1 0xB DUP3 ADD DUP1 SLOAD SWAP2 PUSH2 0x18C6 DUP4 PUSH2 0x2840 JUMP JUMPDEST SWAP1 SWAP2 SSTORE POP POP PUSH1 0x9 DUP2 ADD SLOAD PUSH2 0x18DB SWAP1 PUSH1 0x2 PUSH2 0x288A JUMP JUMPDEST PUSH1 0xB DUP3 ADD SLOAD PUSH2 0x18EB SWAP1 PUSH1 0x3 PUSH2 0x288A JUMP JUMPDEST LT PUSH2 0xC17 JUMPI PUSH1 0x8 DUP2 ADD DUP1 SLOAD PUSH3 0xFF0000 NOT AND PUSH3 0x10000 OR SWAP1 SSTORE PUSH1 0x40 MLOAD PUSH32 0xC3DAC690CF4C3AE8964F18B8F09F7F9A75D3962A8CBB7CD689DF2C291BB5B2DD SWAP1 PUSH2 0x136E SWAP1 DUP5 DUP2 MSTORE PUSH1 0x20 ADD SWAP1 JUMP JUMPDEST PUSH2 0x193D PUSH2 0x1BD7 JUMP JUMPDEST PUSH0 DUP2 DUP2 MSTORE PUSH1 0x2 PUSH1 0x20 DUP2 SWAP1 MSTORE PUSH1 0x40 DUP3 KECCAK256 DUP1 SLOAD PUSH1 0x1 PUSH1 0x1 PUSH1 0xA0 SHL SUB NOT AND DUP2 SSTORE PUSH1 0x1 DUP2 ADD DUP4 SWAP1 SSTORE SWAP1 DUP2 ADD DUP3 SWAP1 SSTORE PUSH1 0x3 DUP2 ADD DUP3 SWAP1 SSTORE PUSH1 0x4 DUP2 ADD DUP3 SWAP1 SSTORE PUSH1 0x5 DUP2 ADD DUP3 SWAP1 SSTORE PUSH1 0x6 DUP2 ADD DUP3 SWAP1 SSTORE PUSH1 0x7 DUP2 ADD DUP3 SWAP1 SSTORE PUSH1 0x8 DUP2 ADD DUP1 SLOAD PUSH3 0xFFFFFF NOT AND SWAP1 SSTORE SWAP1 PUSH2 0x19A6 PUSH1 0x9 DUP4 ADD DUP3 PUSH2 0x23CD JUMP JUMPDEST POP PUSH1 0xA DUP2 ADD DUP1 SLOAD PUSH1 0x1 PUSH1 0x1 PUSH1 0xA0 SHL SUB NOT AND SWAP1 SSTORE PUSH0 PUSH1 0xB SWAP1 SWAP2 ADD SSTORE POP JUMP JUMPDEST PUSH0 DUP2 DUP2 MSTORE PUSH1 0x2 PUSH1 0x20 SWAP1 DUP2 MSTORE PUSH1 0x40 SWAP2 DUP3 SWAP1 KECCAK256 PUSH1 0x9 ADD DUP1 SLOAD DUP4 MLOAD DUP2 DUP5 MUL DUP2 ADD DUP5 ADD SWAP1 SWAP5 MSTORE DUP1 DUP5 MSTORE PUSH1 0x60 SWAP4 SWAP3 DUP4 ADD DUP3 DUP3 DUP1 ISZERO PUSH2 0x1A23 JUMPI PUSH1 0x20 MUL DUP3 ADD SWAP2 SWAP1 PUSH0 MSTORE PUSH1 0x20 PUSH0 KECCAK256 SWAP1 JUMPDEST DUP2 SLOAD PUSH1 0x1 PUSH1 0x1 PUSH1 0xA0 SHL SUB AND DUP2 MSTORE PUSH1 0x1 SWAP1 SWAP2 ADD SWAP1 PUSH1 0x20 ADD DUP1 DUP4 GT PUSH2 0x1A05 JUMPI JUMPDEST POP POP POP POP POP SWAP1 POP SWAP2 SWAP1 POP JUMP JUMPDEST PUSH2 0x1A37 PUSH2 0x1ECD JUMP JUMPDEST PUSH0 DUP2 DUP2 MSTORE PUSH1 0x2 PUSH1 0x20 MSTORE PUSH1 0x40 SWAP1 KECCAK256 PUSH1 0xA DUP2 ADD SLOAD PUSH1 0x1 PUSH1 0x1 PUSH1 0xA0 SHL SUB AND CALLER EQ PUSH2 0x1A8D JUMPI PUSH1 0x40 MLOAD PUSH3 0x461BCD PUSH1 0xE5 SHL DUP2 MSTORE PUSH1 0x20 PUSH1 0x4 DUP3 ADD MSTORE PUSH1 0xA PUSH1 0x24 DUP3 ADD MSTORE PUSH10 0x2737BA103BB4B73732B9 PUSH1 0xB1 SHL PUSH1 0x44 DUP3 ADD MSTORE PUSH1 0x64 ADD PUSH2 0xC04 JUMP JUMPDEST CALLER PUSH0 SWAP1 DUP2 MSTORE PUSH1 0xD DUP3 ADD PUSH1 0x20 MSTORE PUSH1 0x40 SWAP1 KECCAK256 SLOAD PUSH1 0xFF AND ISZERO PUSH2 0x1AE0 JUMPI PUSH1 0x40 MLOAD PUSH3 0x461BCD PUSH1 0xE5 SHL DUP2 MSTORE PUSH1 0x20 PUSH1 0x4 DUP3 ADD MSTORE PUSH1 0xF PUSH1 0x24 DUP3 ADD MSTORE PUSH15 0x105B1C9958591E4818DB185A5B5959 PUSH1 0x8A SHL PUSH1 0x44 DUP3 ADD MSTORE PUSH1 0x64 ADD PUSH2 0xC04 JUMP JUMPDEST CALLER PUSH0 DUP2 DUP2 MSTORE PUSH1 0xD DUP4 ADD PUSH1 0x20 MSTORE PUSH1 0x40 SWAP1 DUP2 SWAP1 KECCAK256 DUP1 SLOAD PUSH1 0xFF NOT AND PUSH1 0x1 OR SWAP1 SSTORE DUP3 SLOAD PUSH1 0x5 DUP5 ADD SLOAD SWAP2 MLOAD PUSH4 0xA9059CBB PUSH1 0xE0 SHL DUP2 MSTORE PUSH1 0x4 DUP2 ADD SWAP4 SWAP1 SWAP4 MSTORE PUSH1 0x24 DUP4 ADD SWAP2 SWAP1 SWAP2 MSTORE PUSH1 0x1 PUSH1 0x1 PUSH1 0xA0 SHL SUB AND SWAP1 PUSH4 0xA9059CBB SWAP1 PUSH1 0x44 ADD PUSH1 0x20 PUSH1 0x40 MLOAD DUP1 DUP4 SUB DUP2 PUSH0 DUP8 GAS CALL ISZERO DUP1 ISZERO PUSH2 0x1B4F JUMPI RETURNDATASIZE PUSH0 PUSH0 RETURNDATACOPY RETURNDATASIZE PUSH0 REVERT JUMPDEST POP POP POP POP PUSH1 0x40 MLOAD RETURNDATASIZE PUSH1 0x1F NOT PUSH1 0x1F DUP3 ADD AND DUP3 ADD DUP1 PUSH1 0x40 MSTORE POP DUP2 ADD SWAP1 PUSH2 0x1B73 SWAP2 SWAP1 PUSH2 0x286B JUMP JUMPDEST POP POP PUSH2 0x1132 PUSH1 0x1 PUSH0 SSTORE JUMP JUMPDEST PUSH1 0xA DUP2 DUP2 SLOAD DUP2 LT PUSH2 0x1B8D JUMPI PUSH0 DUP1 REVERT JUMPDEST PUSH0 SWAP2 DUP3 MSTORE PUSH1 0x20 SWAP1 SWAP2 KECCAK256 ADD SLOAD SWAP1 POP DUP2 JUMP JUMPDEST PUSH2 0x1BA5 PUSH2 0x1BD7 JUMP JUMPDEST PUSH1 0x1 PUSH1 0x1 PUSH1 0xA0 SHL SUB DUP2 AND PUSH2 0x1BCE JUMPI PUSH1 0x40 MLOAD PUSH4 0x1E4FBDF7 PUSH1 0xE0 SHL DUP2 MSTORE PUSH0 PUSH1 0x4 DUP3 ADD MSTORE PUSH1 0x24 ADD PUSH2 0xC04 JUMP JUMPDEST PUSH2 0x1132 DUP2 PUSH2 0x2146 JUMP JUMPDEST CALLER PUSH2 0x1C09 PUSH32 0x9016D09D72D40FDAE2FD8CEAC6B6234C7706214FD39C1CD1E609A0528C199300 SLOAD PUSH1 0x1 PUSH1 0x1 PUSH1 0xA0 SHL SUB AND SWAP1 JUMP JUMPDEST PUSH1 0x1 PUSH1 0x1 PUSH1 0xA0 SHL SUB AND EQ PUSH2 0x17ED JUMPI PUSH1 0x40 MLOAD PUSH4 0x118CDAA7 PUSH1 0xE0 SHL DUP2 MSTORE CALLER PUSH1 0x4 DUP3 ADD MSTORE PUSH1 0x24 ADD PUSH2 0xC04 JUMP JUMPDEST PUSH0 DUP3 DUP2 MSTORE PUSH1 0xB PUSH1 0x20 SWAP1 DUP2 MSTORE PUSH1 0x40 DUP1 DUP4 KECCAK256 SLOAD DUP1 DUP5 MSTORE PUSH1 0x2 SWAP1 SWAP3 MSTORE SWAP1 SWAP2 KECCAK256 PUSH1 0x8 DUP2 ADD SLOAD PUSH2 0x100 SWAP1 DIV PUSH1 0xFF AND DUP1 ISZERO PUSH2 0x1C72 JUMPI POP PUSH1 0xA DUP2 ADD SLOAD PUSH1 0x1 PUSH1 0x1 PUSH1 0xA0 SHL SUB AND ISZERO JUMPDEST PUSH2 0x1CB2 JUMPI PUSH1 0x40 MLOAD PUSH3 0x461BCD PUSH1 0xE5 SHL DUP2 MSTORE PUSH1 0x20 PUSH1 0x4 DUP3 ADD MSTORE PUSH1 0x11 PUSH1 0x24 DUP3 ADD MSTORE PUSH17 0x105B1C9958591E48199D5B199A5B1B1959 PUSH1 0x7A SHL PUSH1 0x44 DUP3 ADD MSTORE PUSH1 0x64 ADD PUSH2 0xC04 JUMP JUMPDEST PUSH0 DUP2 PUSH1 0x9 ADD DUP1 SLOAD SWAP1 POP DUP5 PUSH0 DUP2 MLOAD DUP2 LT PUSH2 0x1CCD JUMPI PUSH2 0x1CCD PUSH2 0x2818 JUMP JUMPDEST PUSH1 0x20 MUL PUSH1 0x20 ADD ADD MLOAD PUSH2 0x1CDF SWAP2 SWAP1 PUSH2 0x291C JUMP JUMPDEST SWAP1 POP DUP2 PUSH1 0x9 ADD DUP2 DUP2 SLOAD DUP2 LT PUSH2 0x1CF6 JUMPI PUSH2 0x1CF6 PUSH2 0x2818 JUMP JUMPDEST PUSH0 SWAP2 DUP3 MSTORE PUSH1 0x20 SWAP1 SWAP2 KECCAK256 ADD SLOAD PUSH1 0xA DUP4 ADD DUP1 SLOAD PUSH1 0x1 PUSH1 0x1 PUSH1 0xA0 SHL SUB NOT AND PUSH1 0x1 PUSH1 0x1 PUSH1 0xA0 SHL SUB SWAP3 DUP4 AND OR SWAP1 SSTORE DUP3 SLOAD PUSH1 0x4 DUP1 SLOAD PUSH1 0x6 DUP7 ADD SLOAD PUSH1 0x40 MLOAD PUSH4 0xA9059CBB PUSH1 0xE0 SHL DUP2 MSTORE SWAP2 DUP6 AND SWAP3 DUP3 ADD SWAP3 SWAP1 SWAP3 MSTORE PUSH1 0x24 DUP2 ADD SWAP2 SWAP1 SWAP2 MSTORE SWAP2 AND SWAP1 DUP2 SWAP1 PUSH4 0xA9059CBB SWAP1 PUSH1 0x44 ADD PUSH1 0x20 PUSH1 0x40 MLOAD DUP1 DUP4 SUB DUP2 PUSH0 DUP8 GAS CALL ISZERO DUP1 ISZERO PUSH2 0x1D73 JUMPI RETURNDATASIZE PUSH0 PUSH0 RETURNDATACOPY RETURNDATASIZE PUSH0 REVERT JUMPDEST POP POP POP POP PUSH1 0x40 MLOAD RETURNDATASIZE PUSH1 0x1F NOT PUSH1 0x1F DUP3 ADD AND DUP3 ADD DUP1 PUSH1 0x40 MSTORE POP DUP2 ADD SWAP1 PUSH2 0x1D97 SWAP2 SWAP1 PUSH2 0x286B JUMP JUMPDEST POP PUSH1 0x5 SLOAD PUSH1 0x7 DUP5 ADD SLOAD PUSH1 0x40 MLOAD PUSH4 0xA9059CBB PUSH1 0xE0 SHL DUP2 MSTORE PUSH1 0x1 PUSH1 0x1 PUSH1 0xA0 SHL SUB SWAP3 DUP4 AND PUSH1 0x4 DUP3 ADD MSTORE PUSH1 0x24 DUP2 ADD SWAP2 SWAP1 SWAP2 MSTORE SWAP1 DUP3 AND SWAP1 PUSH4 0xA9059CBB SWAP1 PUSH1 0x44 ADD PUSH1 0x20 PUSH1 0x40 MLOAD DUP1 DUP4 SUB DUP2 PUSH0 DUP8 GAS CALL ISZERO DUP1 ISZERO PUSH2 0x1DEE JUMPI RETURNDATASIZE PUSH0 PUSH0 RETURNDATACOPY RETURNDATASIZE PUSH0 REVERT JUMPDEST POP POP POP POP PUSH1 0x40 MLOAD RETURNDATASIZE PUSH1 0x1F NOT PUSH1 0x1F DUP3 ADD AND DUP3 ADD DUP1 PUSH1 0x40 MSTORE POP DUP2 ADD SWAP1 PUSH2 0x1E12 SWAP2 SWAP1 PUSH2 0x286B JUMP JUMPDEST POP PUSH1 0xA DUP4 ADD SLOAD PUSH1 0x40 DUP1 MLOAD DUP7 DUP2 MSTORE PUSH1 0x1 PUSH1 0x1 PUSH1 0xA0 SHL SUB SWAP1 SWAP3 AND PUSH1 0x20 DUP4 ADD MSTORE PUSH32 0x3FB57EB449654E24E1B240D3D06702CF79362A065D5C0323AEE642D4702FA4B SWAP2 ADD PUSH1 0x40 MLOAD DUP1 SWAP2 SUB SWAP1 LOG1 POP POP POP POP POP POP JUMP JUMPDEST PUSH0 DUP1 PUSH32 0xF0C57E16840DF040F15088DC2F81FE391C3923BEC73E23A9662EFC9C229C6A00 PUSH2 0xA50 JUMP JUMPDEST PUSH2 0x1E92 PUSH2 0x21B6 JUMP JUMPDEST PUSH2 0x1132 DUP2 PUSH2 0x21DB JUMP JUMPDEST PUSH2 0x17ED PUSH2 0x21B6 JUMP JUMPDEST PUSH2 0x1EAB PUSH2 0x21B6 JUMP JUMPDEST PUSH1 0x1 DUP1 SLOAD PUSH1 0x1 PUSH1 0x1 PUSH1 0xA0 SHL SUB NOT AND PUSH1 0x1 PUSH1 0x1 PUSH1 0xA0 SHL SUB SWAP3 SWAP1 SWAP3 AND SWAP2 SWAP1 SWAP2 OR SWAP1 SSTORE JUMP JUMPDEST PUSH1 0x2 PUSH0 SLOAD SUB PUSH2 0x1F1E JUMPI PUSH1 0x40 MLOAD PUSH3 0x461BCD PUSH1 0xE5 SHL DUP2 MSTORE PUSH1 0x20 PUSH1 0x4 DUP3 ADD MSTORE PUSH1 0x1F PUSH1 0x24 DUP3 ADD MSTORE PUSH32 0x5265656E7472616E637947756172643A207265656E7472616E742063616C6C00 PUSH1 0x44 DUP3 ADD MSTORE PUSH1 0x64 ADD PUSH2 0xC04 JUMP JUMPDEST PUSH1 0x2 PUSH0 SSTORE JUMP JUMPDEST ADDRESS PUSH1 0x1 PUSH1 0x1 PUSH1 0xA0 SHL SUB PUSH32 0x0 AND EQ DUP1 PUSH2 0x1FAA JUMPI POP PUSH32 0x0 PUSH1 0x1 PUSH1 0x1 PUSH1 0xA0 SHL SUB AND PUSH2 0x1F9E PUSH0 MLOAD PUSH1 0x20 PUSH2 0x2952 PUSH0 CODECOPY PUSH0 MLOAD SWAP1 PUSH0 MSTORE SLOAD PUSH1 0x1 PUSH1 0x1 PUSH1 0xA0 SHL SUB AND SWAP1 JUMP JUMPDEST PUSH1 0x1 PUSH1 0x1 PUSH1 0xA0 SHL SUB AND EQ ISZERO JUMPDEST ISZERO PUSH2 0x17ED JUMPI PUSH1 0x40 MLOAD PUSH4 0x703E46DD PUSH1 0xE1 SHL DUP2 MSTORE PUSH1 0x4 ADD PUSH1 0x40 MLOAD DUP1 SWAP2 SUB SWAP1 REVERT JUMPDEST PUSH2 0x1132 PUSH2 0x1BD7 JUMP JUMPDEST DUP2 PUSH1 0x1 PUSH1 0x1 PUSH1 0xA0 SHL SUB AND PUSH4 0x52D1902D PUSH1 0x40 MLOAD DUP2 PUSH4 0xFFFFFFFF AND PUSH1 0xE0 SHL DUP2 MSTORE PUSH1 0x4 ADD PUSH1 0x20 PUSH1 0x40 MLOAD DUP1 DUP4 SUB DUP2 DUP7 GAS STATICCALL SWAP3 POP POP POP DUP1 ISZERO PUSH2 0x202A JUMPI POP PUSH1 0x40 DUP1 MLOAD PUSH1 0x1F RETURNDATASIZE SWAP1 DUP2 ADD PUSH1 0x1F NOT AND DUP3 ADD SWAP1 SWAP3 MSTORE PUSH2 0x2027 SWAP2 DUP2 ADD SWAP1 PUSH2 0x2905 JUMP JUMPDEST PUSH1 0x1 JUMPDEST PUSH2 0x2052 JUMPI PUSH1 0x40 MLOAD PUSH4 0x4C9C8CE3 PUSH1 0xE0 SHL DUP2 MSTORE PUSH1 0x1 PUSH1 0x1 PUSH1 0xA0 SHL SUB DUP4 AND PUSH1 0x4 DUP3 ADD MSTORE PUSH1 0x24 ADD PUSH2 0xC04 JUMP JUMPDEST PUSH0 MLOAD PUSH1 0x20 PUSH2 0x2952 PUSH0 CODECOPY PUSH0 MLOAD SWAP1 PUSH0 MSTORE DUP2 EQ PUSH2 0x2082 JUMPI PUSH1 0x40 MLOAD PUSH4 0x2A875269 PUSH1 0xE2 SHL DUP2 MSTORE PUSH1 0x4 DUP2 ADD DUP3 SWAP1 MSTORE PUSH1 0x24 ADD PUSH2 0xC04 JUMP JUMPDEST PUSH2 0x896 DUP4 DUP4 PUSH2 0x21E3 JUMP JUMPDEST ADDRESS PUSH1 0x1 PUSH1 0x1 PUSH1 0xA0 SHL SUB PUSH32 0x0 AND EQ PUSH2 0x17ED JUMPI PUSH1 0x40 MLOAD PUSH4 0x703E46DD PUSH1 0xE1 SHL DUP2 MSTORE PUSH1 0x4 ADD PUSH1 0x40 MLOAD DUP1 SWAP2 SUB SWAP1 REVERT JUMPDEST PUSH1 0x60 PUSH32 0x92FD13387C7FE7BEFBC38D303D6468778FB9731BC4583F17D92989C6FCFDEAAA DUP3 PUSH1 0x40 MLOAD PUSH1 0x24 ADD PUSH2 0x210E SWAP2 MLOAD ISZERO ISZERO DUP2 MSTORE PUSH1 0x20 ADD SWAP1 JUMP JUMPDEST PUSH1 0x40 DUP1 MLOAD PUSH1 0x1F NOT DUP2 DUP5 SUB ADD DUP2 MSTORE SWAP2 SWAP1 MSTORE PUSH1 0x20 DUP2 ADD DUP1 MLOAD PUSH1 0x1 PUSH1 0x1 PUSH1 0xE0 SHL SUB AND PUSH1 0x1 PUSH1 0x1 PUSH1 0xE0 SHL SUB NOT SWAP1 SWAP4 AND SWAP3 SWAP1 SWAP3 OR SWAP1 SWAP2 MSTORE SWAP3 SWAP2 POP POP JUMP JUMPDEST PUSH32 0x9016D09D72D40FDAE2FD8CEAC6B6234C7706214FD39C1CD1E609A0528C199300 DUP1 SLOAD PUSH1 0x1 PUSH1 0x1 PUSH1 0xA0 SHL SUB NOT DUP2 AND PUSH1 0x1 PUSH1 0x1 PUSH1 0xA0 SHL SUB DUP5 DUP2 AND SWAP2 DUP3 OR DUP5 SSTORE PUSH1 0x40 MLOAD SWAP3 AND SWAP2 DUP3 SWAP1 PUSH32 0x8BE0079C531659141344CD1FD0A4F28419497F9722A3DAAFE3B4186F6B6457E0 SWAP1 PUSH0 SWAP1 LOG3 POP POP POP JUMP JUMPDEST PUSH2 0x21BE PUSH2 0x2238 JUMP JUMPDEST PUSH2 0x17ED JUMPI PUSH1 0x40 MLOAD PUSH4 0x1AFCD79F PUSH1 0xE3 SHL DUP2 MSTORE PUSH1 0x4 ADD PUSH1 0x40 MLOAD DUP1 SWAP2 SUB SWAP1 REVERT JUMPDEST PUSH2 0x1BA5 PUSH2 0x21B6 JUMP JUMPDEST PUSH2 0x21EC DUP3 PUSH2 0x2251 JUMP JUMPDEST PUSH1 0x40 MLOAD PUSH1 0x1 PUSH1 0x1 PUSH1 0xA0 SHL SUB DUP4 AND SWAP1 PUSH32 0xBC7CD75A20EE27FD9ADEBAB32041F755214DBC6BFFA90CC0225B39DA2E5C2D3B SWAP1 PUSH0 SWAP1 LOG2 DUP1 MLOAD ISZERO PUSH2 0x2230 JUMPI PUSH2 0x896 DUP3 DUP3 PUSH2 0x22B4 JUMP JUMPDEST PUSH2 0xC17 PUSH2 0x2326 JUMP JUMPDEST PUSH0 PUSH2 0x2241 PUSH2 0x1E62 JUMP JUMPDEST SLOAD PUSH1 0x1 PUSH1 0x40 SHL SWAP1 DIV PUSH1 0xFF AND SWAP2 SWAP1 POP JUMP JUMPDEST DUP1 PUSH1 0x1 PUSH1 0x1 PUSH1 0xA0 SHL SUB AND EXTCODESIZE PUSH0 SUB PUSH2 0x2286 JUMPI PUSH1 0x40 MLOAD PUSH4 0x4C9C8CE3 PUSH1 0xE0 SHL DUP2 MSTORE PUSH1 0x1 PUSH1 0x1 PUSH1 0xA0 SHL SUB DUP3 AND PUSH1 0x4 DUP3 ADD MSTORE PUSH1 0x24 ADD PUSH2 0xC04 JUMP JUMPDEST PUSH0 MLOAD PUSH1 0x20 PUSH2 0x2952 PUSH0 CODECOPY PUSH0 MLOAD SWAP1 PUSH0 MSTORE DUP1 SLOAD PUSH1 0x1 PUSH1 0x1 PUSH1 0xA0 SHL SUB NOT AND PUSH1 0x1 PUSH1 0x1 PUSH1 0xA0 SHL SUB SWAP3 SWAP1 SWAP3 AND SWAP2 SWAP1 SWAP2 OR SWAP1 SSTORE JUMP JUMPDEST PUSH1 0x60 PUSH0 PUSH0 DUP5 PUSH1 0x1 PUSH1 0x1 PUSH1 0xA0 SHL SUB AND DUP5 PUSH1 0x40 MLOAD PUSH2 0x22D0 SWAP2 SWAP1 PUSH2 0x293B JUMP JUMPDEST PUSH0 PUSH1 0x40 MLOAD DUP1 DUP4 SUB DUP2 DUP6 GAS DELEGATECALL SWAP2 POP POP RETURNDATASIZE DUP1 PUSH0 DUP2 EQ PUSH2 0x2308 JUMPI PUSH1 0x40 MLOAD SWAP2 POP PUSH1 0x1F NOT PUSH1 0x3F RETURNDATASIZE ADD AND DUP3 ADD PUSH1 0x40 MSTORE RETURNDATASIZE DUP3 MSTORE RETURNDATASIZE PUSH0 PUSH1 0x20 DUP5 ADD RETURNDATACOPY PUSH2 0x230D JUMP JUMPDEST PUSH1 0x60 SWAP2 POP JUMPDEST POP SWAP2 POP SWAP2 POP PUSH2 0x231D DUP6 DUP4 DUP4 PUSH2 0x2345 JUMP JUMPDEST SWAP6 SWAP5 POP POP POP POP POP JUMP JUMPDEST CALLVALUE ISZERO PUSH2 0x17ED JUMPI PUSH1 0x40 MLOAD PUSH4 0xB398979F PUSH1 0xE0 SHL DUP2 MSTORE PUSH1 0x4 ADD PUSH1 0x40 MLOAD DUP1 SWAP2 SUB SWAP1 REVERT JUMPDEST PUSH1 0x60 DUP3 PUSH2 0x235A JUMPI PUSH2 0x2355 DUP3 PUSH2 0x23A4 JUMP JUMPDEST PUSH2 0x239D JUMP JUMPDEST DUP2 MLOAD ISZERO DUP1 ISZERO PUSH2 0x2371 JUMPI POP PUSH1 0x1 PUSH1 0x1 PUSH1 0xA0 SHL SUB DUP5 AND EXTCODESIZE ISZERO JUMPDEST ISZERO PUSH2 0x239A JUMPI PUSH1 0x40 MLOAD PUSH4 0x9996B315 PUSH1 0xE0 SHL DUP2 MSTORE PUSH1 0x1 PUSH1 0x1 PUSH1 0xA0 SHL SUB DUP6 AND PUSH1 0x4 DUP3 ADD MSTORE PUSH1 0x24 ADD PUSH2 0xC04 JUMP JUMPDEST POP DUP1 JUMPDEST SWAP4 SWAP3 POP POP POP JUMP JUMPDEST DUP1 MLOAD ISZERO PUSH2 0x23B4 JUMPI DUP1 MLOAD DUP1 DUP3 PUSH1 0x20 ADD REVERT JUMPDEST PUSH1 0x40 MLOAD PUSH4 0xD6BDA275 PUSH1 0xE0 SHL DUP2 MSTORE PUSH1 0x4 ADD PUSH1 0x40 MLOAD DUP1 SWAP2 SUB SWAP1 REVERT JUMPDEST POP DUP1 SLOAD PUSH0 DUP3 SSTORE SWAP1 PUSH0 MSTORE PUSH1 0x20 PUSH0 KECCAK256 SWAP1 DUP2 ADD SWAP1 PUSH2 0x1132 SWAP2 SWAP1 JUMPDEST DUP1 DUP3 GT ISZERO PUSH2 0x23F7 JUMPI PUSH0 DUP2 SSTORE PUSH1 0x1 ADD PUSH2 0x23E4 JUMP JUMPDEST POP SWAP1 JUMP JUMPDEST PUSH0 PUSH0 PUSH0 PUSH1 0x40 DUP5 DUP7 SUB SLT ISZERO PUSH2 0x240D JUMPI PUSH0 PUSH0 REVERT JUMPDEST DUP4 CALLDATALOAD SWAP3 POP PUSH1 0x20 DUP5 ADD CALLDATALOAD PUSH8 0xFFFFFFFFFFFFFFFF DUP2 GT ISZERO PUSH2 0x242A JUMPI PUSH0 PUSH0 REVERT JUMPDEST DUP5 ADD PUSH1 0x1F DUP2 ADD DUP7 SGT PUSH2 0x243A JUMPI PUSH0 PUSH0 REVERT JUMPDEST DUP1 CALLDATALOAD PUSH8 0xFFFFFFFFFFFFFFFF DUP2 GT ISZERO PUSH2 0x2450 JUMPI PUSH0 PUSH0 REVERT JUMPDEST DUP7 PUSH1 0x20 DUP3 PUSH1 0x5 SHL DUP5 ADD ADD GT ISZERO PUSH2 0x2464 JUMPI PUSH0 PUSH0 REVERT JUMPDEST SWAP4 SWAP7 PUSH1 0x20 SWAP2 SWAP1 SWAP2 ADD SWAP6 POP SWAP3 SWAP4 POP POP POP JUMP JUMPDEST PUSH1 0x20 DUP1 DUP3 MSTORE DUP3 MLOAD DUP3 DUP3 ADD DUP2 SWAP1 MSTORE PUSH0 SWAP2 DUP5 ADD SWAP1 PUSH1 0x40 DUP5 ADD SWAP1 DUP4 JUMPDEST DUP2 DUP2 LT ISZERO PUSH2 0x24AC JUMPI DUP4 MLOAD DUP4 MSTORE PUSH1 0x20 SWAP4 DUP5 ADD SWAP4 SWAP1 SWAP3 ADD SWAP2 PUSH1 0x1 ADD PUSH2 0x248E JUMP JUMPDEST POP SWAP1 SWAP6 SWAP5 POP POP POP POP POP JUMP JUMPDEST DUP1 CALLDATALOAD PUSH1 0x1 PUSH1 0x1 PUSH1 0xA0 SHL SUB DUP2 AND DUP2 EQ PUSH2 0x24CD JUMPI PUSH0 PUSH0 REVERT JUMPDEST SWAP2 SWAP1 POP JUMP JUMPDEST PUSH0 PUSH0 PUSH1 0x40 DUP4 DUP6 SUB SLT ISZERO PUSH2 0x24E3 JUMPI PUSH0 PUSH0 REVERT JUMPDEST DUP3 CALLDATALOAD SWAP2 POP PUSH2 0x24F3 PUSH1 0x20 DUP5 ADD PUSH2 0x24B7 JUMP JUMPDEST SWAP1 POP SWAP3 POP SWAP3 SWAP1 POP JUMP JUMPDEST PUSH0 PUSH0 PUSH0 PUSH0 PUSH0 PUSH1 0xA0 DUP7 DUP9 SUB SLT ISZERO PUSH2 0x2510 JUMPI PUSH0 PUSH0 REVERT JUMPDEST PUSH2 0x2519 DUP7 PUSH2 0x24B7 JUMP JUMPDEST SWAP5 POP PUSH1 0x20 DUP7 ADD CALLDATALOAD SWAP4 POP PUSH1 0x40 DUP7 ADD CALLDATALOAD SWAP3 POP PUSH2 0x2535 PUSH1 0x60 DUP8 ADD PUSH2 0x24B7 JUMP JUMPDEST SWAP2 POP PUSH2 0x2543 PUSH1 0x80 DUP8 ADD PUSH2 0x24B7 JUMP JUMPDEST SWAP1 POP SWAP3 SWAP6 POP SWAP3 SWAP6 SWAP1 SWAP4 POP JUMP JUMPDEST PUSH0 PUSH1 0x20 DUP3 DUP5 SUB SLT ISZERO PUSH2 0x255F JUMPI PUSH0 PUSH0 REVERT JUMPDEST POP CALLDATALOAD SWAP2 SWAP1 POP JUMP JUMPDEST PUSH4 0x4E487B71 PUSH1 0xE0 SHL PUSH0 MSTORE PUSH1 0x41 PUSH1 0x4 MSTORE PUSH1 0x24 PUSH0 REVERT JUMPDEST PUSH1 0x40 MLOAD PUSH1 0x1F DUP3 ADD PUSH1 0x1F NOT AND DUP2 ADD PUSH8 0xFFFFFFFFFFFFFFFF DUP2 GT DUP3 DUP3 LT OR ISZERO PUSH2 0x25A3 JUMPI PUSH2 0x25A3 PUSH2 0x2566 JUMP JUMPDEST PUSH1 0x40 MSTORE SWAP2 SWAP1 POP JUMP JUMPDEST PUSH0 PUSH0 PUSH1 0x40 DUP4 DUP6 SUB SLT ISZERO PUSH2 0x25BC JUMPI PUSH0 PUSH0 REVERT JUMPDEST DUP3 CALLDATALOAD SWAP2 POP PUSH1 0x20 DUP4 ADD CALLDATALOAD PUSH8 0xFFFFFFFFFFFFFFFF DUP2 GT ISZERO PUSH2 0x25D9 JUMPI PUSH0 PUSH0 REVERT JUMPDEST DUP4 ADD PUSH1 0x1F DUP2 ADD DUP6 SGT PUSH2 0x25E9 JUMPI PUSH0 PUSH0 REVERT JUMPDEST DUP1 CALLDATALOAD PUSH8 0xFFFFFFFFFFFFFFFF DUP2 GT ISZERO PUSH2 0x2603 JUMPI PUSH2 0x2603 PUSH2 0x2566 JUMP JUMPDEST DUP1 PUSH1 0x5 SHL PUSH2 0x2613 PUSH1 0x20 DUP3 ADD PUSH2 0x257A JUMP JUMPDEST SWAP2 DUP3 MSTORE PUSH1 0x20 DUP2 DUP5 ADD DUP2 ADD SWAP3 SWAP1 DUP2 ADD SWAP1 DUP9 DUP5 GT ISZERO PUSH2 0x262E JUMPI PUSH0 PUSH0 REVERT JUMPDEST PUSH1 0x20 DUP6 ADD SWAP5 POP JUMPDEST DUP4 DUP6 LT ISZERO PUSH2 0x2654 JUMPI DUP5 CALLDATALOAD DUP1 DUP4 MSTORE PUSH1 0x20 SWAP6 DUP7 ADD SWAP6 SWAP1 SWAP4 POP SWAP1 SWAP2 ADD SWAP1 PUSH2 0x2635 JUMP JUMPDEST DUP1 SWAP6 POP POP POP POP POP POP SWAP3 POP SWAP3 SWAP1 POP JUMP JUMPDEST PUSH0 PUSH0 PUSH1 0x40 DUP4 DUP6 SUB SLT ISZERO PUSH2 0x2674 JUMPI PUSH0 PUSH0 REVERT JUMPDEST POP POP DUP1 CALLDATALOAD SWAP3 PUSH1 0x20 SWAP1 SWAP2 ADD CALLDATALOAD SWAP2 POP JUMP JUMPDEST PUSH0 PUSH0 PUSH0 PUSH0 PUSH0 PUSH0 PUSH0 PUSH0 PUSH2 0x100 DUP10 DUP12 SUB SLT ISZERO PUSH2 0x269B JUMPI PUSH0 PUSH0 REVERT JUMPDEST PUSH2 0x26A4 DUP10 PUSH2 0x24B7 JUMP JUMPDEST SWAP11 PUSH1 0x20 DUP11 ADD CALLDATALOAD SWAP11 POP PUSH1 0x40 DUP11 ADD CALLDATALOAD SWAP10 PUSH1 0x60 DUP2 ADD CALLDATALOAD SWAP10 POP PUSH1 0x80 DUP2 ADD CALLDATALOAD SWAP9 POP PUSH1 0xA0 DUP2 ADD CALLDATALOAD SWAP8 POP PUSH1 0xC0 DUP2 ADD CALLDATALOAD SWAP7 POP PUSH1 0xE0 ADD CALLDATALOAD SWAP5 POP SWAP3 POP POP POP JUMP JUMPDEST PUSH0 PUSH0 PUSH1 0x40 DUP4 DUP6 SUB SLT ISZERO PUSH2 0x26EB JUMPI PUSH0 PUSH0 REVERT JUMPDEST PUSH2 0x26F4 DUP4 PUSH2 0x24B7 JUMP JUMPDEST SWAP2 POP PUSH1 0x20 DUP4 ADD CALLDATALOAD PUSH8 0xFFFFFFFFFFFFFFFF DUP2 GT ISZERO PUSH2 0x270F JUMPI PUSH0 PUSH0 REVERT JUMPDEST DUP4 ADD PUSH1 0x1F DUP2 ADD DUP6 SGT PUSH2 0x271F JUMPI PUSH0 PUSH0 REVERT JUMPDEST DUP1 CALLDATALOAD PUSH8 0xFFFFFFFFFFFFFFFF DUP2 GT ISZERO PUSH2 0x2739 JUMPI PUSH2 0x2739 PUSH2 0x2566 JUMP JUMPDEST PUSH2 0x274C PUSH1 0x1F DUP3 ADD PUSH1 0x1F NOT AND PUSH1 0x20 ADD PUSH2 0x257A JUMP JUMPDEST DUP2 DUP2 MSTORE DUP7 PUSH1 0x20 DUP4 DUP6 ADD ADD GT ISZERO PUSH2 0x2760 JUMPI PUSH0 PUSH0 REVERT JUMPDEST DUP2 PUSH1 0x20 DUP5 ADD PUSH1 0x20 DUP4 ADD CALLDATACOPY PUSH0 PUSH1 0x20 DUP4 DUP4 ADD ADD MSTORE DUP1 SWAP4 POP POP POP POP SWAP3 POP SWAP3 SWAP1 POP JUMP JUMPDEST PUSH0 DUP2 MLOAD DUP1 DUP5 MSTORE DUP1 PUSH1 0x20 DUP5 ADD PUSH1 0x20 DUP7 ADD MCOPY PUSH0 PUSH1 0x20 DUP3 DUP7 ADD ADD MSTORE PUSH1 0x20 PUSH1 0x1F NOT PUSH1 0x1F DUP4 ADD AND DUP6 ADD ADD SWAP2 POP POP SWAP3 SWAP2 POP POP JUMP JUMPDEST PUSH1 0x20 DUP2 MSTORE PUSH0 PUSH2 0x239D PUSH1 0x20 DUP4 ADD DUP5 PUSH2 0x277F JUMP JUMPDEST PUSH1 0x20 DUP1 DUP3 MSTORE DUP3 MLOAD DUP3 DUP3 ADD DUP2 SWAP1 MSTORE PUSH0 SWAP2 DUP5 ADD SWAP1 PUSH1 0x40 DUP5 ADD SWAP1 DUP4 JUMPDEST DUP2 DUP2 LT ISZERO PUSH2 0x24AC JUMPI DUP4 MLOAD PUSH1 0x1 PUSH1 0x1 PUSH1 0xA0 SHL SUB AND DUP4 MSTORE PUSH1 0x20 SWAP4 DUP5 ADD SWAP4 SWAP1 SWAP3 ADD SWAP2 PUSH1 0x1 ADD PUSH2 0x27D8 JUMP JUMPDEST PUSH0 PUSH1 0x20 DUP3 DUP5 SUB SLT ISZERO PUSH2 0x280F JUMPI PUSH0 PUSH0 REVERT JUMPDEST PUSH2 0x239D DUP3 PUSH2 0x24B7 JUMP JUMPDEST PUSH4 0x4E487B71 PUSH1 0xE0 SHL PUSH0 MSTORE PUSH1 0x32 PUSH1 0x4 MSTORE PUSH1 0x24 PUSH0 REVERT JUMPDEST PUSH4 0x4E487B71 PUSH1 0xE0 SHL PUSH0 MSTORE PUSH1 0x11 PUSH1 0x4 MSTORE PUSH1 0x24 PUSH0 REVERT JUMPDEST PUSH0 PUSH1 0x1 DUP3 ADD PUSH2 0x2851 JUMPI PUSH2 0x2851 PUSH2 0x282C JUMP JUMPDEST POP PUSH1 0x1 ADD SWAP1 JUMP JUMPDEST DUP2 DUP2 SUB DUP2 DUP2 GT ISZERO PUSH2 0xA50 JUMPI PUSH2 0xA50 PUSH2 0x282C JUMP JUMPDEST PUSH0 PUSH1 0x20 DUP3 DUP5 SUB SLT ISZERO PUSH2 0x287B JUMPI PUSH0 PUSH0 REVERT JUMPDEST DUP2 MLOAD DUP1 ISZERO ISZERO DUP2 EQ PUSH2 0x239D JUMPI PUSH0 PUSH0 REVERT JUMPDEST DUP1 DUP3 MUL DUP2 ISZERO DUP3 DUP3 DIV DUP5 EQ OR PUSH2 0xA50 JUMPI PUSH2 0xA50 PUSH2 0x282C JUMP JUMPDEST PUSH1 0x20 DUP2 MSTORE DUP2 MLOAD PUSH1 0x20 DUP3 ADD MSTORE PUSH1 0x20 DUP3 ADD MLOAD PUSH1 0x40 DUP3 ADD MSTORE PUSH2 0xFFFF PUSH1 0x40 DUP4 ADD MLOAD AND PUSH1 0x60 DUP3 ADD MSTORE PUSH4 0xFFFFFFFF PUSH1 0x60 DUP4 ADD MLOAD AND PUSH1 0x80 DUP3 ADD MSTORE PUSH4 0xFFFFFFFF PUSH1 0x80 DUP4 ADD MLOAD AND PUSH1 0xA0 DUP3 ADD MSTORE PUSH0 PUSH1 0xA0 DUP4 ADD MLOAD PUSH1 0xC0 DUP1 DUP5 ADD MSTORE PUSH2 0x28FD PUSH1 0xE0 DUP5 ADD DUP3 PUSH2 0x277F JUMP JUMPDEST SWAP5 SWAP4 POP POP POP POP JUMP JUMPDEST PUSH0 PUSH1 0x20 DUP3 DUP5 SUB SLT ISZERO PUSH2 0x2915 JUMPI PUSH0 PUSH0 REVERT JUMPDEST POP MLOAD SWAP2 SWAP1 POP JUMP JUMPDEST PUSH0 DUP3 PUSH2 0x2936 JUMPI PUSH4 0x4E487B71 PUSH1 0xE0 SHL PUSH0 MSTORE PUSH1 0x12 PUSH1 0x4 MSTORE PUSH1 0x24 PUSH0 REVERT JUMPDEST POP MOD SWAP1 JUMP JUMPDEST PUSH0 DUP3 MLOAD DUP1 PUSH1 0x20 DUP6 ADD DUP5 MCOPY PUSH0 SWAP3 ADD SWAP2 DUP3 MSTORE POP SWAP2 SWAP1 POP JUMP INVALID CALLDATASIZE ADDMOD SWAP5 LOG1 EXTCODESIZE LOG1 LOG3 0x21 MOD PUSH8 0xC828492DB98DCA3E KECCAK256 PUSH23 0xCC3735A920A3CA505D382BBCA2646970667358221220DD PUSH9 0x7839618879802186FA 0xD MSTORE CALLCODE GAS LOG2 BALANCE EXTDELEGATECALL 0x4F PC MSTORE8 0xD6 MLOAD 0xD CALL 0xCB 0x2E 0x27 BLOBBASEFEE 0xE 0xC MSTORE PUSH5 0x736F6C6343 STOP ADDMOD 0x1E STOP CALLER "
				},
				"gasEstimates": {
					"creation": {
						"codeDepositCost": "2132600",
						"executionCost": "infinite",
						"totalCost": "infinite"
					},
					"external": {
						"UPGRADE_INTERFACE_VERSION()": "infinite",
						"allLotteryIds(uint256)": "4682",
						"callbackGasLimit()": "2358",
						"cancelLottery(uint256)": "32154",
						"claimPrize(uint256)": "infinite",
						"claimRefund(uint256)": "infinite",
						"clearLotteryData(uint256)": "infinite",
						"createLottery(address,uint256,uint256,uint256,uint256,uint256,uint256,uint256)": "281994",
						"drawWinner(uint256)": "infinite",
						"enterLottery(uint256)": "infinite",
						"getActiveLotteries()": "infinite",
						"getEntryCount(uint256,address)": "2689",
						"getParticipants(uint256)": "infinite",
						"hasUserClaimed(uint256,address)": "2760",
						"hasUserRefunded(uint256,address)": "2722",
						"hasUserVotedCancel(uint256,address)": "2768",
						"initialize(address,bytes32,uint256,address,address)": "infinite",
						"investmentWallet()": "2447",
						"keyHash()": "2384",
						"lotteries(uint256)": "24032",
						"lotteryCounter()": "2383",
						"migrateToLottery(uint256,uint256)": "infinite",
						"numWords()": "2368",
						"owner()": "2441",
						"profitWallet()": "2470",
						"proxiableUUID()": "infinite",
						"rawFulfillRandomWords(uint256,uint256[])": "infinite",
						"renounceOwnership()": "infinite",
						"requestConfirmations()": "2412",
						"requestToLottery(uint256)": "2525",
						"subscriptionId()": "2407",
						"testFulfillRandomWords(uint256,uint256[])": "infinite",
						"transferOwnership(address)": "28497",
						"upgradeToAndCall(address,bytes)": "infinite",
						"voteCancel(uint256)": "infinite",
						"vrfCoordinator()": "2469"
					},
					"internal": {
						"_authorizeUpgrade(address)": "infinite",
						"fulfillRandomWords(uint256,uint256[] memory)": "infinite"
					}
				},
				"methodIdentifiers": {
					"UPGRADE_INTERFACE_VERSION()": "ad3cb1cc",
					"allLotteryIds(uint256)": "e2344831",
					"callbackGasLimit()": "24f74697",
					"cancelLottery(uint256)": "4538f297",
					"claimPrize(uint256)": "d7098154",
					"claimRefund(uint256)": "5b7baf64",
					"clearLotteryData(uint256)": "82f9d0fb",
					"createLottery(address,uint256,uint256,uint256,uint256,uint256,uint256,uint256)": "4311da37",
					"drawWinner(uint256)": "60b2a56a",
					"enterLottery(uint256)": "3fd43098",
					"getActiveLotteries()": "055b66cd",
					"getEntryCount(uint256,address)": "a49a75a5",
					"getParticipants(uint256)": "c1e3bd3e",
					"hasUserClaimed(uint256,address)": "07c7a72d",
					"hasUserRefunded(uint256,address)": "c4cd639f",
					"hasUserVotedCancel(uint256,address)": "3fe6e01e",
					"initialize(address,bytes32,uint256,address,address)": "0af5a263",
					"investmentWallet()": "b6fa37bc",
					"keyHash()": "61728f39",
					"lotteries(uint256)": "1398e076",
					"lotteryCounter()": "4a4a6b4f",
					"migrateToLottery(uint256,uint256)": "3893f9d5",
					"numWords()": "7ccfd7fc",
					"owner()": "8da5cb5b",
					"profitWallet()": "2301d775",
					"proxiableUUID()": "52d1902d",
					"rawFulfillRandomWords(uint256,uint256[])": "1fe543e3",
					"renounceOwnership()": "715018a6",
					"requestConfirmations()": "b0fb162f",
					"requestToLottery(uint256)": "15c6e123",
					"subscriptionId()": "09c1ba2e",
					"testFulfillRandomWords(uint256,uint256[])": "02c4d72b",
					"transferOwnership(address)": "f2fde38b",
					"upgradeToAndCall(address,bytes)": "4f1ef286",
					"voteCancel(uint256)": "826d9873",
					"vrfCoordinator()": "a3e56fa8"
				}
			},
			"storageLayout": {
				"storage": [
					{
						"astId": 1185,
						"contract": "contracts/StemPayLotteryManager.sol:StemPayLotteryManager",
						"label": "_status",
						"offset": 0,
						"slot": "0",
						"type": "t_uint256"
					},
					{
						"astId": 1741,
						"contract": "contracts/StemPayLotteryManager.sol:StemPayLotteryManager",
						"label": "vrfCoordinator",
						"offset": 0,
						"slot": "1",
						"type": "t_address"
					},
					{
						"astId": 1849,
						"contract": "contracts/StemPayLotteryManager.sol:StemPayLotteryManager",
						"label": "lotteries",
						"offset": 0,
						"slot": "2",
						"type": "t_mapping(t_uint256,t_struct(Lottery)1844_storage)"
					},
					{
						"astId": 1851,
						"contract": "contracts/StemPayLotteryManager.sol:StemPayLotteryManager",
						"label": "lotteryCounter",
						"offset": 0,
						"slot": "3",
						"type": "t_uint256"
					},
					{
						"astId": 1853,
						"contract": "contracts/StemPayLotteryManager.sol:StemPayLotteryManager",
						"label": "investmentWallet",
						"offset": 0,
						"slot": "4",
						"type": "t_address"
					},
					{
						"astId": 1855,
						"contract": "contracts/StemPayLotteryManager.sol:StemPayLotteryManager",
						"label": "profitWallet",
						"offset": 0,
						"slot": "5",
						"type": "t_address"
					},
					{
						"astId": 1857,
						"contract": "contracts/StemPayLotteryManager.sol:StemPayLotteryManager",
						"label": "keyHash",
						"offset": 0,
						"slot": "6",
						"type": "t_bytes32"
					},
					{
						"astId": 1859,
						"contract": "contracts/StemPayLotteryManager.sol:StemPayLotteryManager",
						"label": "callbackGasLimit",
						"offset": 0,
						"slot": "7",
						"type": "t_uint32"
					},
					{
						"astId": 1861,
						"contract": "contracts/StemPayLotteryManager.sol:StemPayLotteryManager",
						"label": "requestConfirmations",
						"offset": 4,
						"slot": "7",
						"type": "t_uint16"
					},
					{
						"astId": 1863,
						"contract": "contracts/StemPayLotteryManager.sol:StemPayLotteryManager",
						"label": "numWords",
						"offset": 6,
						"slot": "7",
						"type": "t_uint32"
					},
					{
						"astId": 1865,
						"contract": "contracts/StemPayLotteryManager.sol:StemPayLotteryManager",
						"label": "subscriptionId",
						"offset": 0,
						"slot": "8",
						"type": "t_uint256"
					},
					{
						"astId": 1867,
						"contract": "contracts/StemPayLotteryManager.sol:StemPayLotteryManager",
						"label": "vrfCoordinator",
						"offset": 0,
						"slot": "9",
						"type": "t_address"
					},
					{
						"astId": 1870,
						"contract": "contracts/StemPayLotteryManager.sol:StemPayLotteryManager",
						"label": "allLotteryIds",
						"offset": 0,
						"slot": "10",
						"type": "t_array(t_uint256)dyn_storage"
					},
					{
						"astId": 1874,
						"contract": "contracts/StemPayLotteryManager.sol:StemPayLotteryManager",
						"label": "requestToLottery",
						"offset": 0,
						"slot": "11",
						"type": "t_mapping(t_uint256,t_uint256)"
					}
				],
				"types": {
					"t_address": {
						"encoding": "inplace",
						"label": "address",
						"numberOfBytes": "20"
					},
					"t_array(t_address)dyn_storage": {
						"base": "t_address",
						"encoding": "dynamic_array",
						"label": "address[]",
						"numberOfBytes": "32"
					},
					"t_array(t_uint256)dyn_storage": {
						"base": "t_uint256",
						"encoding": "dynamic_array",
						"label": "uint256[]",
						"numberOfBytes": "32"
					},
					"t_bool": {
						"encoding": "inplace",
						"label": "bool",
						"numberOfBytes": "1"
					},
					"t_bytes32": {
						"encoding": "inplace",
						"label": "bytes32",
						"numberOfBytes": "32"
					},
					"t_mapping(t_address,t_bool)": {
						"encoding": "mapping",
						"key": "t_address",
						"label": "mapping(address => bool)",
						"numberOfBytes": "32",
						"value": "t_bool"
					},
					"t_mapping(t_address,t_uint256)": {
						"encoding": "mapping",
						"key": "t_address",
						"label": "mapping(address => uint256)",
						"numberOfBytes": "32",
						"value": "t_uint256"
					},
					"t_mapping(t_uint256,t_struct(Lottery)1844_storage)": {
						"encoding": "mapping",
						"key": "t_uint256",
						"label": "mapping(uint256 => struct StemPayLotteryManager.Lottery)",
						"numberOfBytes": "32",
						"value": "t_struct(Lottery)1844_storage"
					},
					"t_mapping(t_uint256,t_uint256)": {
						"encoding": "mapping",
						"key": "t_uint256",
						"label": "mapping(uint256 => uint256)",
						"numberOfBytes": "32",
						"value": "t_uint256"
					},
					"t_struct(Lottery)1844_storage": {
						"encoding": "inplace",
						"label": "struct StemPayLotteryManager.Lottery",
						"members": [
							{
								"astId": 1800,
								"contract": "contracts/StemPayLotteryManager.sol:StemPayLotteryManager",
								"label": "tokenAddress",
								"offset": 0,
								"slot": "0",
								"type": "t_address"
							},
							{
								"astId": 1802,
								"contract": "contracts/StemPayLotteryManager.sol:StemPayLotteryManager",
								"label": "participationFee",
								"offset": 0,
								"slot": "1",
								"type": "t_uint256"
							},
							{
								"astId": 1804,
								"contract": "contracts/StemPayLotteryManager.sol:StemPayLotteryManager",
								"label": "refundableAmount",
								"offset": 0,
								"slot": "2",
								"type": "t_uint256"
							},
							{
								"astId": 1806,
								"contract": "contracts/StemPayLotteryManager.sol:StemPayLotteryManager",
								"label": "maxParticipants",
								"offset": 0,
								"slot": "3",
								"type": "t_uint256"
							},
							{
								"astId": 1808,
								"contract": "contracts/StemPayLotteryManager.sol:StemPayLotteryManager",
								"label": "drawTime",
								"offset": 0,
								"slot": "4",
								"type": "t_uint256"
							},
							{
								"astId": 1810,
								"contract": "contracts/StemPayLotteryManager.sol:StemPayLotteryManager",
								"label": "prizeAmount",
								"offset": 0,
								"slot": "5",
								"type": "t_uint256"
							},
							{
								"astId": 1812,
								"contract": "contracts/StemPayLotteryManager.sol:StemPayLotteryManager",
								"label": "feeToInvestment",
								"offset": 0,
								"slot": "6",
								"type": "t_uint256"
							},
							{
								"astId": 1814,
								"contract": "contracts/StemPayLotteryManager.sol:StemPayLotteryManager",
								"label": "feeToProfit",
								"offset": 0,
								"slot": "7",
								"type": "t_uint256"
							},
							{
								"astId": 1816,
								"contract": "contracts/StemPayLotteryManager.sol:StemPayLotteryManager",
								"label": "isActive",
								"offset": 0,
								"slot": "8",
								"type": "t_bool"
							},
							{
								"astId": 1818,
								"contract": "contracts/StemPayLotteryManager.sol:StemPayLotteryManager",
								"label": "isDrawn",
								"offset": 1,
								"slot": "8",
								"type": "t_bool"
							},
							{
								"astId": 1820,
								"contract": "contracts/StemPayLotteryManager.sol:StemPayLotteryManager",
								"label": "isCancelled",
								"offset": 2,
								"slot": "8",
								"type": "t_bool"
							},
							{
								"astId": 1823,
								"contract": "contracts/StemPayLotteryManager.sol:StemPayLotteryManager",
								"label": "participants",
								"offset": 0,
								"slot": "9",
								"type": "t_array(t_address)dyn_storage"
							},
							{
								"astId": 1825,
								"contract": "contracts/StemPayLotteryManager.sol:StemPayLotteryManager",
								"label": "winner",
								"offset": 0,
								"slot": "10",
								"type": "t_address"
							},
							{
								"astId": 1827,
								"contract": "contracts/StemPayLotteryManager.sol:StemPayLotteryManager",
								"label": "voteCount",
								"offset": 0,
								"slot": "11",
								"type": "t_uint256"
							},
							{
								"astId": 1831,
								"contract": "contracts/StemPayLotteryManager.sol:StemPayLotteryManager",
								"label": "entryCount",
								"offset": 0,
								"slot": "12",
								"type": "t_mapping(t_address,t_uint256)"
							},
							{
								"astId": 1835,
								"contract": "contracts/StemPayLotteryManager.sol:StemPayLotteryManager",
								"label": "hasClaimed",
								"offset": 0,
								"slot": "13",
								"type": "t_mapping(t_address,t_bool)"
							},
							{
								"astId": 1839,
								"contract": "contracts/StemPayLotteryManager.sol:StemPayLotteryManager",
								"label": "hasRefunded",
								"offset": 0,
								"slot": "14",
								"type": "t_mapping(t_address,t_bool)"
							},
							{
								"astId": 1843,
								"contract": "contracts/StemPayLotteryManager.sol:StemPayLotteryManager",
								"label": "hasVotedCancel",
								"offset": 0,
								"slot": "15",
								"type": "t_mapping(t_address,t_bool)"
							}
						],
						"numberOfBytes": "512"
					},
					"t_uint16": {
						"encoding": "inplace",
						"label": "uint16",
						"numberOfBytes": "2"
					},
					"t_uint256": {
						"encoding": "inplace",
						"label": "uint256",
						"numberOfBytes": "32"
					},
					"t_uint32": {
						"encoding": "inplace",
						"label": "uint32",
						"numberOfBytes": "4"
					}
				}
			},
			"userdoc": {
				"kind": "user",
				"methods": {},
				"version": 1
			}
		}
	}
}