{
	"data": {
		"bytecode": {
			"linkReferences": {},
			"object": "6080604052348015600e575f5ffd5b50604051610940380380610940833981016040819052602b916084565b5f80546001600160a01b039384166001600160a01b031991821617909155600180549290931691811691909117909155600280549091163317905560b0565b80516001600160a01b0381168114607f575f5ffd5b919050565b5f5f604083850312156094575f5ffd5b609b83606a565b915060a760208401606a565b90509250929050565b610883806100bd5f395ff3fe608060405234801561000f575f5ffd5b50600436106100b1575f3560e01c8063ba13a5721161006e578063ba13a57214610148578063ba80a2761461015a578063daea5b6b1461016d578063eeb037b714610175578063f037f39b14610188578063fc0c546a1461019b575f5ffd5b8063063e51ac146100b557806310c817e7146100ca5780633ed9de6b146100dd5780635c7761e5146100f05780636a8d7cbf146101205780638da5cb5b14610135575b5f5ffd5b6100c86100c33660046106bd565b6101ae565b005b6100c86100d83660046106d4565b6102a5565b6100c86100eb3660046106bd565b61030a565b6101036100fe3660046106bd565b6103c2565b6040516001600160a01b0390911681526020015b60405180910390f35b6101286103ea565b604051610117919061074e565b600254610103906001600160a01b031681565b5f54610103906001600160a01b031681565b6100c86101683660046106bd565b61044a565b6100c861053f565b6100c86101833660046106bd565b6105b7565b6100c86101963660046106bd565b610612565b600154610103906001600160a01b031681565b600354156101fb5760405162461bcd60e51b8152602060048201526015602482015274155cd95c9cc8185b1c9958591e4818dc99585d1959605a1b60448201526064015b60405180910390fd5b5f5b818110156102a1575f8142610213600143610799565b60408051602081019490945283019190915240606082015260800160408051808303601f19018152919052805160209091012060038054600180820183555f929092527fc2575a0e9e593c00f959f8c92f12db2869c3395a3b0502d05e2516446f71f85b0180546001600160a01b0319166001600160a01b03909316929092179091559190910190506101fd565b5050565b5f546040516302c4d72b60e01b81526001600160a01b03909116906302c4d72b906102d8908690869086906004016107be565b5f604051808303815f87803b1580156102ef575f5ffd5b505af1158015610301573d5f5f3e3d5ffd5b50505050505050565b5f5b6003548110156102a157600154600380546001600160a01b039092169163a9059cbb919084908110610340576103406107fd565b5f9182526020909120015460405160e083901b6001600160e01b03191681526001600160a01b039091166004820152602481018590526044016020604051808303815f875af1158015610395573d5f5f3e3d5ffd5b505050506040513d601f19601f820116820180604052508101906103b99190610811565b5060010161030c565b600381815481106103d1575f80fd5b5f918252602090912001546001600160a01b0316905081565b6060600380548060200260200160405190810160405280929190818152602001828054801561044057602002820191905f5260205f20905b81546001600160a01b03168152600190910190602001808311610422575b5050505050905090565b5f5b6003548110156102a1575f8054604051602481018590526001600160a01b039091169060440160408051601f198184030181529181526020820180516001600160e01b03166307fa861360e31b179052516104a79190610837565b5f604051808303815f865af19150503d805f81146104e0576040519150601f19603f3d011682016040523d82523d5f602084013e6104e5565b606091505b50509050806105365760405162461bcd60e51b815260206004820152601760248201527f456e746572206661696c656420666f722061207573657200000000000000000060448201526064016101f2565b5060010161044c565b6001545f5460405163095ea7b360e01b81526001600160a01b0391821660048201525f19602482015291169063095ea7b3906044016020604051808303815f875af1158015610590573d5f5f3e3d5ffd5b505050506040513d601f19601f820116820180604052508101906105b49190610811565b50565b5f5460405163305952b560e11b8152600481018390526001600160a01b03909116906360b2a56a906024015f604051808303815f87803b1580156105f9575f5ffd5b505af115801561060b573d5f5f3e3d5ffd5b5050505050565b5f5b6003548110156102a1575f8054604051602481018590526001600160a01b039091169060440160408051601f198184030181529181526020820180516001600160e01b03166316deebd960e21b1790525161066f9190610837565b5f604051808303815f865af19150503d805f81146106a8576040519150601f19603f3d011682016040523d82523d5f602084013e6106ad565b606091505b5050600190920191506106149050565b5f602082840312156106cd575f5ffd5b5035919050565b5f5f5f604084860312156106e6575f5ffd5b83359250602084013567ffffffffffffffff811115610703575f5ffd5b8401601f81018613610713575f5ffd5b803567ffffffffffffffff811115610729575f5ffd5b8660208260051b840101111561073d575f5ffd5b939660209190910195509293505050565b602080825282518282018190525f918401906040840190835b8181101561078e5783516001600160a01b0316835260209384019390920191600101610767565b509095945050505050565b818103818111156107b857634e487b7160e01b5f52601160045260245ffd5b92915050565b83815260406020820181905281018290525f6001600160fb1b038311156107e3575f5ffd5b8260051b8085606085013791909101606001949350505050565b634e487b7160e01b5f52603260045260245ffd5b5f60208284031215610821575f5ffd5b81518015158114610830575f5ffd5b9392505050565b5f82518060208501845e5f92019182525091905056fea264697066735822122062bef8353886d432f8be9399217058b071ce5bcc776f1b1371d84805e281a1f664736f6c634300081e0033",
			"opcodes": "PUSH1 0x80 PUSH1 0x40 MSTORE CALLVALUE DUP1 ISZERO PUSH1 0xE JUMPI PUSH0 PUSH0 REVERT JUMPDEST POP PUSH1 0x40 MLOAD PUSH2 0x940 CODESIZE SUB DUP1 PUSH2 0x940 DUP4 CODECOPY DUP2 ADD PUSH1 0x40 DUP2 SWAP1 MSTORE PUSH1 0x2B SWAP2 PUSH1 0x84 JUMP JUMPDEST PUSH0 DUP1 SLOAD PUSH1 0x1 PUSH1 0x1 PUSH1 0xA0 SHL SUB SWAP4 DUP5 AND PUSH1 0x1 PUSH1 0x1 PUSH1 0xA0 SHL SUB NOT SWAP2 DUP3 AND OR SWAP1 SWAP2 SSTORE PUSH1 0x1 DUP1 SLOAD SWAP3 SWAP1 SWAP4 AND SWAP2 DUP2 AND SWAP2 SWAP1 SWAP2 OR SWAP1 SWAP2 SSTORE PUSH1 0x2 DUP1 SLOAD SWAP1 SWAP2 AND CALLER OR SWAP1 SSTORE PUSH1 0xB0 JUMP JUMPDEST DUP1 MLOAD PUSH1 0x1 PUSH1 0x1 PUSH1 0xA0 SHL SUB DUP2 AND DUP2 EQ PUSH1 0x7F JUMPI PUSH0 PUSH0 REVERT JUMPDEST SWAP2 SWAP1 POP JUMP JUMPDEST PUSH0 PUSH0 PUSH1 0x40 DUP4 DUP6 SUB SLT ISZERO PUSH1 0x94 JUMPI PUSH0 PUSH0 REVERT JUMPDEST PUSH1 0x9B DUP4 PUSH1 0x6A JUMP JUMPDEST SWAP2 POP PUSH1 0xA7 PUSH1 0x20 DUP5 ADD PUSH1 0x6A JUMP JUMPDEST SWAP1 POP SWAP3 POP SWAP3 SWAP1 POP JUMP JUMPDEST PUSH2 0x883 DUP1 PUSH2 0xBD PUSH0 CODECOPY PUSH0 RETURN INVALID PUSH1 0x80 PUSH1 0x40 MSTORE CALLVALUE DUP1 ISZERO PUSH2 0xF JUMPI PUSH0 PUSH0 REVERT JUMPDEST POP PUSH1 0x4 CALLDATASIZE LT PUSH2 0xB1 JUMPI PUSH0 CALLDATALOAD PUSH1 0xE0 SHR DUP1 PUSH4 0xBA13A572 GT PUSH2 0x6E JUMPI DUP1 PUSH4 0xBA13A572 EQ PUSH2 0x148 JUMPI DUP1 PUSH4 0xBA80A276 EQ PUSH2 0x15A JUMPI DUP1 PUSH4 0xDAEA5B6B EQ PUSH2 0x16D JUMPI DUP1 PUSH4 0xEEB037B7 EQ PUSH2 0x175 JUMPI DUP1 PUSH4 0xF037F39B EQ PUSH2 0x188 JUMPI DUP1 PUSH4 0xFC0C546A EQ PUSH2 0x19B JUMPI PUSH0 PUSH0 REVERT JUMPDEST DUP1 PUSH4 0x63E51AC EQ PUSH2 0xB5 JUMPI DUP1 PUSH4 0x10C817E7 EQ PUSH2 0xCA JUMPI DUP1 PUSH4 0x3ED9DE6B EQ PUSH2 0xDD JUMPI DUP1 PUSH4 0x5C7761E5 EQ PUSH2 0xF0 JUMPI DUP1 PUSH4 0x6A8D7CBF EQ PUSH2 0x120 JUMPI DUP1 PUSH4 0x8DA5CB5B EQ PUSH2 0x135 JUMPI JUMPDEST PUSH0 PUSH0 REVERT JUMPDEST PUSH2 0xC8 PUSH2 0xC3 CALLDATASIZE PUSH1 0x4 PUSH2 0x6BD JUMP JUMPDEST PUSH2 0x1AE JUMP JUMPDEST STOP JUMPDEST PUSH2 0xC8 PUSH2 0xD8 CALLDATASIZE PUSH1 0x4 PUSH2 0x6D4 JUMP JUMPDEST PUSH2 0x2A5 JUMP JUMPDEST PUSH2 0xC8 PUSH2 0xEB CALLDATASIZE PUSH1 0x4 PUSH2 0x6BD JUMP JUMPDEST PUSH2 0x30A JUMP JUMPDEST PUSH2 0x103 PUSH2 0xFE CALLDATASIZE PUSH1 0x4 PUSH2 0x6BD JUMP JUMPDEST PUSH2 0x3C2 JUMP JUMPDEST PUSH1 0x40 MLOAD PUSH1 0x1 PUSH1 0x1 PUSH1 0xA0 SHL SUB SWAP1 SWAP2 AND DUP2 MSTORE PUSH1 0x20 ADD JUMPDEST PUSH1 0x40 MLOAD DUP1 SWAP2 SUB SWAP1 RETURN JUMPDEST PUSH2 0x128 PUSH2 0x3EA JUMP JUMPDEST PUSH1 0x40 MLOAD PUSH2 0x117 SWAP2 SWAP1 PUSH2 0x74E JUMP JUMPDEST PUSH1 0x2 SLOAD PUSH2 0x103 SWAP1 PUSH1 0x1 PUSH1 0x1 PUSH1 0xA0 SHL SUB AND DUP2 JUMP JUMPDEST PUSH0 SLOAD PUSH2 0x103 SWAP1 PUSH1 0x1 PUSH1 0x1 PUSH1 0xA0 SHL SUB AND DUP2 JUMP JUMPDEST PUSH2 0xC8 PUSH2 0x168 CALLDATASIZE PUSH1 0x4 PUSH2 0x6BD JUMP JUMPDEST PUSH2 0x44A JUMP JUMPDEST PUSH2 0xC8 PUSH2 0x53F JUMP JUMPDEST PUSH2 0xC8 PUSH2 0x183 CALLDATASIZE PUSH1 0x4 PUSH2 0x6BD JUMP JUMPDEST PUSH2 0x5B7 JUMP JUMPDEST PUSH2 0xC8 PUSH2 0x196 CALLDATASIZE PUSH1 0x4 PUSH2 0x6BD JUMP JUMPDEST PUSH2 0x612 JUMP JUMPDEST PUSH1 0x1 SLOAD PUSH2 0x103 SWAP1 PUSH1 0x1 PUSH1 0x1 PUSH1 0xA0 SHL SUB AND DUP2 JUMP JUMPDEST PUSH1 0x3 SLOAD ISZERO PUSH2 0x1FB JUMPI PUSH1 0x40 MLOAD PUSH3 0x461BCD PUSH1 0xE5 SHL DUP2 MSTORE PUSH1 0x20 PUSH1 0x4 DUP3 ADD MSTORE PUSH1 0x15 PUSH1 0x24 DUP3 ADD MSTORE PUSH21 0x155CD95C9CC8185B1C9958591E4818DC99585D1959 PUSH1 0x5A SHL PUSH1 0x44 DUP3 ADD MSTORE PUSH1 0x64 ADD JUMPDEST PUSH1 0x40 MLOAD DUP1 SWAP2 SUB SWAP1 REVERT JUMPDEST PUSH0 JUMPDEST DUP2 DUP2 LT ISZERO PUSH2 0x2A1 JUMPI PUSH0 DUP2 TIMESTAMP PUSH2 0x213 PUSH1 0x1 NUMBER PUSH2 0x799 JUMP JUMPDEST PUSH1 0x40 DUP1 MLOAD PUSH1 0x20 DUP2 ADD SWAP5 SWAP1 SWAP5 MSTORE DUP4 ADD SWAP2 SWAP1 SWAP2 MSTORE BLOCKHASH PUSH1 0x60 DUP3 ADD MSTORE PUSH1 0x80 ADD PUSH1 0x40 DUP1 MLOAD DUP1 DUP4 SUB PUSH1 0x1F NOT ADD DUP2 MSTORE SWAP2 SWAP1 MSTORE DUP1 MLOAD PUSH1 0x20 SWAP1 SWAP2 ADD KECCAK256 PUSH1 0x3 DUP1 SLOAD PUSH1 0x1 DUP1 DUP3 ADD DUP4 SSTORE PUSH0 SWAP3 SWAP1 SWAP3 MSTORE PUSH32 0xC2575A0E9E593C00F959F8C92F12DB2869C3395A3B0502D05E2516446F71F85B ADD DUP1 SLOAD PUSH1 0x1 PUSH1 0x1 PUSH1 0xA0 SHL SUB NOT AND PUSH1 0x1 PUSH1 0x1 PUSH1 0xA0 SHL SUB SWAP1 SWAP4 AND SWAP3 SWAP1 SWAP3 OR SWAP1 SWAP2 SSTORE SWAP2 SWAP1 SWAP2 ADD SWAP1 POP PUSH2 0x1FD JUMP JUMPDEST POP POP JUMP JUMPDEST PUSH0 SLOAD PUSH1 0x40 MLOAD PUSH4 0x2C4D72B PUSH1 0xE0 SHL DUP2 MSTORE PUSH1 0x1 PUSH1 0x1 PUSH1 0xA0 SHL SUB SWAP1 SWAP2 AND SWAP1 PUSH4 0x2C4D72B SWAP1 PUSH2 0x2D8 SWAP1 DUP7 SWAP1 DUP7 SWAP1 DUP7 SWAP1 PUSH1 0x4 ADD PUSH2 0x7BE JUMP JUMPDEST PUSH0 PUSH1 0x40 MLOAD DUP1 DUP4 SUB DUP2 PUSH0 DUP8 DUP1 EXTCODESIZE ISZERO DUP1 ISZERO PUSH2 0x2EF JUMPI PUSH0 PUSH0 REVERT JUMPDEST POP GAS CALL ISZERO DUP1 ISZERO PUSH2 0x301 JUMPI RETURNDATASIZE PUSH0 PUSH0 RETURNDATACOPY RETURNDATASIZE PUSH0 REVERT JUMPDEST POP POP POP POP POP POP POP JUMP JUMPDEST PUSH0 JUMPDEST PUSH1 0x3 SLOAD DUP2 LT ISZERO PUSH2 0x2A1 JUMPI PUSH1 0x1 SLOAD PUSH1 0x3 DUP1 SLOAD PUSH1 0x1 PUSH1 0x1 PUSH1 0xA0 SHL SUB SWAP1 SWAP3 AND SWAP2 PUSH4 0xA9059CBB SWAP2 SWAP1 DUP5 SWAP1 DUP2 LT PUSH2 0x340 JUMPI PUSH2 0x340 PUSH2 0x7FD JUMP JUMPDEST PUSH0 SWAP2 DUP3 MSTORE PUSH1 0x20 SWAP1 SWAP2 KECCAK256 ADD SLOAD PUSH1 0x40 MLOAD PUSH1 0xE0 DUP4 SWAP1 SHL PUSH1 0x1 PUSH1 0x1 PUSH1 0xE0 SHL SUB NOT AND DUP2 MSTORE PUSH1 0x1 PUSH1 0x1 PUSH1 0xA0 SHL SUB SWAP1 SWAP2 AND PUSH1 0x4 DUP3 ADD MSTORE PUSH1 0x24 DUP2 ADD DUP6 SWAP1 MSTORE PUSH1 0x44 ADD PUSH1 0x20 PUSH1 0x40 MLOAD DUP1 DUP4 SUB DUP2 PUSH0 DUP8 GAS CALL ISZERO DUP1 ISZERO PUSH2 0x395 JUMPI RETURNDATASIZE PUSH0 PUSH0 RETURNDATACOPY RETURNDATASIZE PUSH0 REVERT JUMPDEST POP POP POP POP PUSH1 0x40 MLOAD RETURNDATASIZE PUSH1 0x1F NOT PUSH1 0x1F DUP3 ADD AND DUP3 ADD DUP1 PUSH1 0x40 MSTORE POP DUP2 ADD SWAP1 PUSH2 0x3B9 SWAP2 SWAP1 PUSH2 0x811 JUMP JUMPDEST POP PUSH1 0x1 ADD PUSH2 0x30C JUMP JUMPDEST PUSH1 0x3 DUP2 DUP2 SLOAD DUP2 LT PUSH2 0x3D1 JUMPI PUSH0 DUP1 REVERT JUMPDEST PUSH0 SWAP2 DUP3 MSTORE PUSH1 0x20 SWAP1 SWAP2 KECCAK256 ADD SLOAD PUSH1 0x1 PUSH1 0x1 PUSH1 0xA0 SHL SUB AND SWAP1 POP DUP2 JUMP JUMPDEST PUSH1 0x60 PUSH1 0x3 DUP1 SLOAD DUP1 PUSH1 0x20 MUL PUSH1 0x20 ADD PUSH1 0x40 MLOAD SWAP1 DUP2 ADD PUSH1 0x40 MSTORE DUP1 SWAP3 SWAP2 SWAP1 DUP2 DUP2 MSTORE PUSH1 0x20 ADD DUP3 DUP1 SLOAD DUP1 ISZERO PUSH2 0x440 JUMPI PUSH1 0x20 MUL DUP3 ADD SWAP2 SWAP1 PUSH0 MSTORE PUSH1 0x20 PUSH0 KECCAK256 SWAP1 JUMPDEST DUP2 SLOAD PUSH1 0x1 PUSH1 0x1 PUSH1 0xA0 SHL SUB AND DUP2 MSTORE PUSH1 0x1 SWAP1 SWAP2 ADD SWAP1 PUSH1 0x20 ADD DUP1 DUP4 GT PUSH2 0x422 JUMPI JUMPDEST POP POP POP POP POP SWAP1 POP SWAP1 JUMP JUMPDEST PUSH0 JUMPDEST PUSH1 0x3 SLOAD DUP2 LT ISZERO PUSH2 0x2A1 JUMPI PUSH0 DUP1 SLOAD PUSH1 0x40 MLOAD PUSH1 0x24 DUP2 ADD DUP6 SWAP1 MSTORE PUSH1 0x1 PUSH1 0x1 PUSH1 0xA0 SHL SUB SWAP1 SWAP2 AND SWAP1 PUSH1 0x44 ADD PUSH1 0x40 DUP1 MLOAD PUSH1 0x1F NOT DUP2 DUP5 SUB ADD DUP2 MSTORE SWAP2 DUP2 MSTORE PUSH1 0x20 DUP3 ADD DUP1 MLOAD PUSH1 0x1 PUSH1 0x1 PUSH1 0xE0 SHL SUB AND PUSH4 0x7FA8613 PUSH1 0xE3 SHL OR SWAP1 MSTORE MLOAD PUSH2 0x4A7 SWAP2 SWAP1 PUSH2 0x837 JUMP JUMPDEST PUSH0 PUSH1 0x40 MLOAD DUP1 DUP4 SUB DUP2 PUSH0 DUP7 GAS CALL SWAP2 POP POP RETURNDATASIZE DUP1 PUSH0 DUP2 EQ PUSH2 0x4E0 JUMPI PUSH1 0x40 MLOAD SWAP2 POP PUSH1 0x1F NOT PUSH1 0x3F RETURNDATASIZE ADD AND DUP3 ADD PUSH1 0x40 MSTORE RETURNDATASIZE DUP3 MSTORE RETURNDATASIZE PUSH0 PUSH1 0x20 DUP5 ADD RETURNDATACOPY PUSH2 0x4E5 JUMP JUMPDEST PUSH1 0x60 SWAP2 POP JUMPDEST POP POP SWAP1 POP DUP1 PUSH2 0x536 JUMPI PUSH1 0x40 MLOAD PUSH3 0x461BCD PUSH1 0xE5 SHL DUP2 MSTORE PUSH1 0x20 PUSH1 0x4 DUP3 ADD MSTORE PUSH1 0x17 PUSH1 0x24 DUP3 ADD MSTORE PUSH32 0x456E746572206661696C656420666F7220612075736572000000000000000000 PUSH1 0x44 DUP3 ADD MSTORE PUSH1 0x64 ADD PUSH2 0x1F2 JUMP JUMPDEST POP PUSH1 0x1 ADD PUSH2 0x44C JUMP JUMPDEST PUSH1 0x1 SLOAD PUSH0 SLOAD PUSH1 0x40 MLOAD PUSH4 0x95EA7B3 PUSH1 0xE0 SHL DUP2 MSTORE PUSH1 0x1 PUSH1 0x1 PUSH1 0xA0 SHL SUB SWAP2 DUP3 AND PUSH1 0x4 DUP3 ADD MSTORE PUSH0 NOT PUSH1 0x24 DUP3 ADD MSTORE SWAP2 AND SWAP1 PUSH4 0x95EA7B3 SWAP1 PUSH1 0x44 ADD PUSH1 0x20 PUSH1 0x40 MLOAD DUP1 DUP4 SUB DUP2 PUSH0 DUP8 GAS CALL ISZERO DUP1 ISZERO PUSH2 0x590 JUMPI RETURNDATASIZE PUSH0 PUSH0 RETURNDATACOPY RETURNDATASIZE PUSH0 REVERT JUMPDEST POP POP POP POP PUSH1 0x40 MLOAD RETURNDATASIZE PUSH1 0x1F NOT PUSH1 0x1F DUP3 ADD AND DUP3 ADD DUP1 PUSH1 0x40 MSTORE POP DUP2 ADD SWAP1 PUSH2 0x5B4 SWAP2 SWAP1 PUSH2 0x811 JUMP JUMPDEST POP JUMP JUMPDEST PUSH0 SLOAD PUSH1 0x40 MLOAD PUSH4 0x305952B5 PUSH1 0xE1 SHL DUP2 MSTORE PUSH1 0x4 DUP2 ADD DUP4 SWAP1 MSTORE PUSH1 0x1 PUSH1 0x1 PUSH1 0xA0 SHL SUB SWAP1 SWAP2 AND SWAP1 PUSH4 0x60B2A56A SWAP1 PUSH1 0x24 ADD PUSH0 PUSH1 0x40 MLOAD DUP1 DUP4 SUB DUP2 PUSH0 DUP8 DUP1 EXTCODESIZE ISZERO DUP1 ISZERO PUSH2 0x5F9 JUMPI PUSH0 PUSH0 REVERT JUMPDEST POP GAS CALL ISZERO DUP1 ISZERO PUSH2 0x60B JUMPI RETURNDATASIZE PUSH0 PUSH0 RETURNDATACOPY RETURNDATASIZE PUSH0 REVERT JUMPDEST POP POP POP POP POP JUMP JUMPDEST PUSH0 JUMPDEST PUSH1 0x3 SLOAD DUP2 LT ISZERO PUSH2 0x2A1 JUMPI PUSH0 DUP1 SLOAD PUSH1 0x40 MLOAD PUSH1 0x24 DUP2 ADD DUP6 SWAP1 MSTORE PUSH1 0x1 PUSH1 0x1 PUSH1 0xA0 SHL SUB SWAP1 SWAP2 AND SWAP1 PUSH1 0x44 ADD PUSH1 0x40 DUP1 MLOAD PUSH1 0x1F NOT DUP2 DUP5 SUB ADD DUP2 MSTORE SWAP2 DUP2 MSTORE PUSH1 0x20 DUP3 ADD DUP1 MLOAD PUSH1 0x1 PUSH1 0x1 PUSH1 0xE0 SHL SUB AND PUSH4 0x16DEEBD9 PUSH1 0xE2 SHL OR SWAP1 MSTORE MLOAD PUSH2 0x66F SWAP2 SWAP1 PUSH2 0x837 JUMP JUMPDEST PUSH0 PUSH1 0x40 MLOAD DUP1 DUP4 SUB DUP2 PUSH0 DUP7 GAS CALL SWAP2 POP POP RETURNDATASIZE DUP1 PUSH0 DUP2 EQ PUSH2 0x6A8 JUMPI PUSH1 0x40 MLOAD SWAP2 POP PUSH1 0x1F NOT PUSH1 0x3F RETURNDATASIZE ADD AND DUP3 ADD PUSH1 0x40 MSTORE RETURNDATASIZE DUP3 MSTORE RETURNDATASIZE PUSH0 PUSH1 0x20 DUP5 ADD RETURNDATACOPY PUSH2 0x6AD JUMP JUMPDEST PUSH1 0x60 SWAP2 POP JUMPDEST POP POP PUSH1 0x1 SWAP1 SWAP3 ADD SWAP2 POP PUSH2 0x614 SWAP1 POP JUMP JUMPDEST PUSH0 PUSH1 0x20 DUP3 DUP5 SUB SLT ISZERO PUSH2 0x6CD JUMPI PUSH0 PUSH0 REVERT JUMPDEST POP CALLDATALOAD SWAP2 SWAP1 POP JUMP JUMPDEST PUSH0 PUSH0 PUSH0 PUSH1 0x40 DUP5 DUP7 SUB SLT ISZERO PUSH2 0x6E6 JUMPI PUSH0 PUSH0 REVERT JUMPDEST DUP4 CALLDATALOAD SWAP3 POP PUSH1 0x20 DUP5 ADD CALLDATALOAD PUSH8 0xFFFFFFFFFFFFFFFF DUP2 GT ISZERO PUSH2 0x703 JUMPI PUSH0 PUSH0 REVERT JUMPDEST DUP5 ADD PUSH1 0x1F DUP2 ADD DUP7 SGT PUSH2 0x713 JUMPI PUSH0 PUSH0 REVERT JUMPDEST DUP1 CALLDATALOAD PUSH8 0xFFFFFFFFFFFFFFFF DUP2 GT ISZERO PUSH2 0x729 JUMPI PUSH0 PUSH0 REVERT JUMPDEST DUP7 PUSH1 0x20 DUP3 PUSH1 0x5 SHL DUP5 ADD ADD GT ISZERO PUSH2 0x73D JUMPI PUSH0 PUSH0 REVERT JUMPDEST SWAP4 SWAP7 PUSH1 0x20 SWAP2 SWAP1 SWAP2 ADD SWAP6 POP SWAP3 SWAP4 POP POP POP JUMP JUMPDEST PUSH1 0x20 DUP1 DUP3 MSTORE DUP3 MLOAD DUP3 DUP3 ADD DUP2 SWAP1 MSTORE PUSH0 SWAP2 DUP5 ADD SWAP1 PUSH1 0x40 DUP5 ADD SWAP1 DUP4 JUMPDEST DUP2 DUP2 LT ISZERO PUSH2 0x78E JUMPI DUP4 MLOAD PUSH1 0x1 PUSH1 0x1 PUSH1 0xA0 SHL SUB AND DUP4 MSTORE PUSH1 0x20 SWAP4 DUP5 ADD SWAP4 SWAP1 SWAP3 ADD SWAP2 PUSH1 0x1 ADD PUSH2 0x767 JUMP JUMPDEST POP SWAP1 SWAP6 SWAP5 POP POP POP POP POP JUMP JUMPDEST DUP2 DUP2 SUB DUP2 DUP2 GT ISZERO PUSH2 0x7B8 JUMPI PUSH4 0x4E487B71 PUSH1 0xE0 SHL PUSH0 MSTORE PUSH1 0x11 PUSH1 0x4 MSTORE PUSH1 0x24 PUSH0 REVERT JUMPDEST SWAP3 SWAP2 POP POP JUMP JUMPDEST DUP4 DUP2 MSTORE PUSH1 0x40 PUSH1 0x20 DUP3 ADD DUP2 SWAP1 MSTORE DUP2 ADD DUP3 SWAP1 MSTORE PUSH0 PUSH1 0x1 PUSH1 0x1 PUSH1 0xFB SHL SUB DUP4 GT ISZERO PUSH2 0x7E3 JUMPI PUSH0 PUSH0 REVERT JUMPDEST DUP3 PUSH1 0x5 SHL DUP1 DUP6 PUSH1 0x60 DUP6 ADD CALLDATACOPY SWAP2 SWAP1 SWAP2 ADD PUSH1 0x60 ADD SWAP5 SWAP4 POP POP POP POP JUMP JUMPDEST PUSH4 0x4E487B71 PUSH1 0xE0 SHL PUSH0 MSTORE PUSH1 0x32 PUSH1 0x4 MSTORE PUSH1 0x24 PUSH0 REVERT JUMPDEST PUSH0 PUSH1 0x20 DUP3 DUP5 SUB SLT ISZERO PUSH2 0x821 JUMPI PUSH0 PUSH0 REVERT JUMPDEST DUP2 MLOAD DUP1 ISZERO ISZERO DUP2 EQ PUSH2 0x830 JUMPI PUSH0 PUSH0 REVERT JUMPDEST SWAP4 SWAP3 POP POP POP JUMP JUMPDEST PUSH0 DUP3 MLOAD DUP1 PUSH1 0x20 DUP6 ADD DUP5 MCOPY PUSH0 SWAP3 ADD SWAP2 DUP3 MSTORE POP SWAP2 SWAP1 POP JUMP INVALID LOG2 PUSH5 0x6970667358 0x22 SLT KECCAK256 PUSH3 0xBEF835 CODESIZE DUP7 0xD4 ORIGIN EXTCALL 0xBE SWAP4 SWAP10 0x21 PUSH17 0x58B071CE5BCC776F1B1371D84805E281A1 0xF6 PUSH5 0x736F6C6343 STOP ADDMOD 0x1E STOP CALLER "
		},
		"gasEstimates": {
			"creation": {
				"codeDepositCost": "435800",
				"executionCost": "infinite",
				"totalCost": "infinite"
			},
			"external": {
				"approveForAll()": "infinite",
				"callDraw(uint256)": "infinite",
				"claimAllRefunds(uint256)": "infinite",
				"createMockUsers(uint256)": "infinite",
				"enterAll(uint256)": "infinite",
				"fundUsers(uint256)": "infinite",
				"getTestUsers()": "infinite",
				"lottery()": "2324",
				"owner()": "2436",
				"simulateFulfill(uint256,uint256[])": "infinite",
				"testUsers(uint256)": "4667",
				"token()": "2435"
			}
		},
		"methodIdentifiers": {
			"approveForAll()": "daea5b6b",
			"callDraw(uint256)": "eeb037b7",
			"claimAllRefunds(uint256)": "f037f39b",
			"createMockUsers(uint256)": "063e51ac",
			"enterAll(uint256)": "ba80a276",
			"fundUsers(uint256)": "3ed9de6b",
			"getTestUsers()": "6a8d7cbf",
			"lottery()": "ba13a572",
			"owner()": "8da5cb5b",
			"simulateFulfill(uint256,uint256[])": "10c817e7",
			"testUsers(uint256)": "5c7761e5",
			"token()": "fc0c546a"
		}
	},
	"abi": [
		{
			"inputs": [
				{
					"internalType": "address",
					"name": "_lottery",
					"type": "address"
				},
				{
					"internalType": "address",
					"name": "_token",
					"type": "address"
				}
			],
			"stateMutability": "nonpayable",
			"type": "constructor"
		},
		{
			"inputs": [],
			"name": "approveForAll",
			"outputs": [],
			"stateMutability": "nonpayable",
			"type": "function"
		},
		{
			"inputs": [
				{
					"internalType": "uint256",
					"name": "lotteryId",
					"type": "uint256"
				}
			],
			"name": "callDraw",
			"outputs": [],
			"stateMutability": "nonpayable",
			"type": "function"
		},
		{
			"inputs": [
				{
					"internalType": "uint256",
					"name": "lotteryId",
					"type": "uint256"
				}
			],
			"name": "claimAllRefunds",
			"outputs": [],
			"stateMutability": "nonpayable",
			"type": "function"
		},
		{
			"inputs": [
				{
					"internalType": "uint256",
					"name": "count",
					"type": "uint256"
				}
			],
			"name": "createMockUsers",
			"outputs": [],
			"stateMutability": "nonpayable",
			"type": "function"
		},
		{
			"inputs": [
				{
					"internalType": "uint256",
					"name": "lotteryId",
					"type": "uint256"
				}
			],
			"name": "enterAll",
			"outputs": [],
			"stateMutability": "nonpayable",
			"type": "function"
		},
		{
			"inputs": [
				{
					"internalType": "uint256",
					"name": "amount",
					"type": "uint256"
				}
			],
			"name": "fundUsers",
			"outputs": [],
			"stateMutability": "nonpayable",
			"type": "function"
		},
		{
			"inputs": [],
			"name": "getTestUsers",
			"outputs": [
				{
					"internalType": "address[]",
					"name": "",
					"type": "address[]"
				}
			],
			"stateMutability": "view",
			"type": "function"
		},
		{
			"inputs": [],
			"name": "lottery",
			"outputs": [
				{
					"internalType": "contract StemPayLotteryManager",
					"name": "",
					"type": "address"
				}
			],
			"stateMutability": "view",
			"type": "function"
		},
		{
			"inputs": [],
			"name": "owner",
			"outputs": [
				{
					"internalType": "address",
					"name": "",
					"type": "address"
				}
			],
			"stateMutability": "view",
			"type": "function"
		},
		{
			"inputs": [
				{
					"internalType": "uint256",
					"name": "requestId",
					"type": "uint256"
				},
				{
					"internalType": "uint256[]",
					"name": "randomWords",
					"type": "uint256[]"
				}
			],
			"name": "simulateFulfill",
			"outputs": [],
			"stateMutability": "nonpayable",
			"type": "function"
		},
		{
			"inputs": [
				{
					"internalType": "uint256",
					"name": "",
					"type": "uint256"
				}
			],
			"name": "testUsers",
			"outputs": [
				{
					"internalType": "address",
					"name": "",
					"type": "address"
				}
			],
			"stateMutability": "view",
			"type": "function"
		},
		{
			"inputs": [],
			"name": "token",
			"outputs": [
				{
					"internalType": "contract IERC20",
					"name": "",
					"type": "address"
				}
			],
			"stateMutability": "view",
			"type": "function"
		}
	]
}