{
	"data": {
		"bytecode": {
			"linkReferences": {},
			"object": "6080604052348015600e575f5ffd5b5060015f819055506136dc806100235f395ff3fe608060405234801561000f575f5ffd5b506004361061012a575f3560e01c80634a4a6b4f116100ab5780638da5cb5b1161006f5780638da5cb5b146102f7578063b6fa37bc14610315578063c1e3bd3e14610333578063d709815414610363578063f2fde38b1461037f5761012a565b80634a4a6b4f1461027b5780635b7baf641461029957806360b2a56a146102b5578063715018a6146102d157806382f9d0fb146102db5761012a565b80633893f9d5116100f25780633893f9d5146101ef5780633fd430981461020b5780634311da37146102275780634538f29714610243578063485cc9551461025f5761012a565b80631398e0761461012e57806315c6e123146101695780631fe543e3146101995780632301d775146101b5578063379c52a6146101d3575b5f5ffd5b610148600480360381019061014391906124c9565b61039b565b6040516101609c9b9a9998979695949392919061255c565b60405180910390f35b610183600480360381019061017e91906124c9565b61045b565b6040516101909190612614565b60405180910390f35b6101b360048036038101906101ae919061277d565b610470565b005b6101bd610532565b6040516101ca91906127d7565b60405180910390f35b6101ed60048036038101906101e8919061288a565b610557565b005b61020960048036038101906102049190612901565b610815565b005b610225600480360381019061022091906124c9565b610ce4565b005b610241600480360381019061023c919061293f565b610f01565b005b61025d600480360381019061025891906124c9565b611053565b005b610279600480360381019061027491906129f0565b611134565b005b610283611335565b6040516102909190612614565b60405180910390f35b6102b360048036038101906102ae91906124c9565b61133b565b005b6102cf60048036038101906102ca91906124c9565b61168d565b005b6102d96118f9565b005b6102f560048036038101906102f091906124c9565b61190c565b005b6102ff6119f1565b60405161030c91906127d7565b60405180910390f35b61031d611a26565b60405161032a91906127d7565b60405180910390f35b61034d600480360381019061034891906124c9565b611a4b565b60405161035a9190612ae5565b60405180910390f35b61037d600480360381019061037891906124c9565b611aea565b005b61039960048036038101906103949190612b05565b611d28565b005b6002602052805f5260405f205f91509050805f015f9054906101000a900473ffffffffffffffffffffffffffffffffffffffff1690806001015490806002015490806003015490806004015490806005015490806006015490806007015490806008015f9054906101000a900460ff16908060080160019054906101000a900460ff16908060080160029054906101000a900460ff169080600a015f9054906101000a900473ffffffffffffffffffffffffffffffffffffffff1690508c565b6009602052805f5260405f205f915090505481565b60015f9054906101000a900473ffffffffffffffffffffffffffffffffffffffff1673ffffffffffffffffffffffffffffffffffffffff163373ffffffffffffffffffffffffffffffffffffffff1614610524573360015f9054906101000a900473ffffffffffffffffffffffffffffffffffffffff166040517f1cf993f400000000000000000000000000000000000000000000000000000000815260040161051b929190612b30565b60405180910390fd5b61052e8282611dac565b5050565b60055f9054906101000a900473ffffffffffffffffffffffffffffffffffffffff1681565b5f6105606120fb565b90505f815f0160089054906101000a900460ff161590505f825f015f9054906101000a900467ffffffffffffffff1690505f5f8267ffffffffffffffff161480156105a85750825b90505f60018367ffffffffffffffff161480156105db57505f3073ffffffffffffffffffffffffffffffffffffffff163b145b9050811580156105e9575080155b15610620576040517ff92ee8a900000000000000000000000000000000000000000000000000000000815260040160405180910390fd5b6001855f015f6101000a81548167ffffffffffffffff021916908367ffffffffffffffff160217905550831561066d576001855f0160086101000a81548160ff0219169083151502179055505b6106763361210e565b61067f8a612122565b8960065f6101000a81548173ffffffffffffffffffffffffffffffffffffffff021916908373ffffffffffffffffffffffffffffffffffffffff160217905550886007819055508760085f6101000a81548167ffffffffffffffff021916908367ffffffffffffffff16021790555062030d406008806101000a81548163ffffffff021916908363ffffffff16021790555060036008600c6101000a81548161ffff021916908361ffff1602179055508660045f6101000a81548173ffffffffffffffffffffffffffffffffffffffff021916908373ffffffffffffffffffffffffffffffffffffffff1602179055508560055f6101000a81548173ffffffffffffffffffffffffffffffffffffffff021916908373ffffffffffffffffffffffffffffffffffffffff1602179055508315610809575f855f0160086101000a81548160ff0219169083151502179055507fc7f505b2f371ae2175ee4913f4499e1f2633a7b5936321eed1cdaeb6115181d260016040516108009190612b99565b60405180910390a15b50505050505050505050565b61081d612165565b5f60025f8481526020019081526020015f2090505f60025f8481526020019081526020015f2090508160080160029054906101000a900460ff16806108cb57508160080160019054906101000a900460ff1680156108ca57503373ffffffffffffffffffffffffffffffffffffffff1682600a015f9054906101000a900473ffffffffffffffffffffffffffffffffffffffff1673ffffffffffffffffffffffffffffffffffffffff1614155b5b61090a576040517f08c379a000000000000000000000000000000000000000000000000000000000815260040161090190612c32565b60405180910390fd5b81600c015f3373ffffffffffffffffffffffffffffffffffffffff1673ffffffffffffffffffffffffffffffffffffffff1681526020019081526020015f205f9054906101000a900460ff1615610996576040517f08c379a000000000000000000000000000000000000000000000000000000000815260040161098d90612cc0565b60405180910390fd5b5f5f90505f5f90505b8360090180549050811015610a34573373ffffffffffffffffffffffffffffffffffffffff168460090182815481106109db576109da612cde565b5b905f5260205f20015f9054906101000a900473ffffffffffffffffffffffffffffffffffffffff1673ffffffffffffffffffffffffffffffffffffffff1603610a275760019150610a34565b808060010191505061099f565b5080610a75576040517f08c379a0000000000000000000000000000000000000000000000000000000008152600401610a6c90612d55565b60405180910390fd5b816008015f9054906101000a900460ff168015610aa157508160080160029054906101000a900460ff16155b610ae0576040517f08c379a0000000000000000000000000000000000000000000000000000000008152600401610ad790612dbd565b60405180910390fd5b81600401544210610b26576040517f08c379a0000000000000000000000000000000000000000000000000000000008152600401610b1d90612e25565b60405180910390fd5b600183600c015f3373ffffffffffffffffffffffffffffffffffffffff1673ffffffffffffffffffffffffffffffffffffffff1681526020019081526020015f205f6101000a81548160ff0219169083151502179055505f82600201548360010154610b929190612e70565b90505f835f015f9054906101000a900473ffffffffffffffffffffffffffffffffffffffff1690508073ffffffffffffffffffffffffffffffffffffffff166323b872dd3330856040518463ffffffff1660e01b8152600401610bf793929190612ea3565b6020604051808303815f875af1158015610c13573d5f5f3e3d5ffd5b505050506040513d601f19601f82011682018060405250810190610c379190612f02565b508360090133908060018154018082558091505060019003905f5260205f20015f9091909190916101000a81548173ffffffffffffffffffffffffffffffffffffffff021916908373ffffffffffffffffffffffffffffffffffffffff1602179055507f1e28857182a3b2bb6fbb88287d1ba8cc3a941dd65d4c977286676d27b877a3d98633604051610ccb929190612f2d565b60405180910390a15050505050610ce06121b2565b5050565b610cec612165565b5f60025f8381526020019081526020015f209050806008015f9054906101000a900460ff168015610d2c57508060080160029054906101000a900460ff16155b610d6b576040517f08c379a0000000000000000000000000000000000000000000000000000000008152600401610d6290612f9e565b60405180910390fd5b80600401544210610db1576040517f08c379a0000000000000000000000000000000000000000000000000000000008152600401610da890613006565b60405180910390fd5b5f815f015f9054906101000a900473ffffffffffffffffffffffffffffffffffffffff1690508073ffffffffffffffffffffffffffffffffffffffff166323b872dd333085600101546040518463ffffffff1660e01b8152600401610e1893929190612ea3565b6020604051808303815f875af1158015610e34573d5f5f3e3d5ffd5b505050506040513d601f19601f82011682018060405250810190610e589190612f02565b508160090133908060018154018082558091505060019003905f5260205f20015f9091909190916101000a81548173ffffffffffffffffffffffffffffffffffffffff021916908373ffffffffffffffffffffffffffffffffffffffff1602179055507f1e28857182a3b2bb6fbb88287d1ba8cc3a941dd65d4c977286676d27b877a3d98333604051610eec929190612f2d565b60405180910390a15050610efe6121b2565b50565b610f096121bb565b85871015610f4c576040517f08c379a0000000000000000000000000000000000000000000000000000000008152600401610f439061306e565b60405180910390fd5b5f60025f60035f8154610f5e9061308c565b91905081905581526020019081526020015f20905088815f015f6101000a81548173ffffffffffffffffffffffffffffffffffffffff021916908373ffffffffffffffffffffffffffffffffffffffff1602179055508781600101819055508681600201819055508581600301819055508481600401819055508381600501819055508281600601819055508181600701819055506001816008015f6101000a81548160ff0219169083151502179055507f9e0023bebcc752baaa41057318405b5a6a8e9c6372b519717cfdf238e5caa7956003546040516110409190612614565b60405180910390a1505050505050505050565b61105b6121bb565b5f60025f8381526020019081526020015f2090508060080160029054906101000a900460ff1615801561109d57508060080160019054906101000a900460ff16155b6110dc576040517f08c379a00000000000000000000000000000000000000000000000000000000081526004016110d39061311d565b60405180910390fd5b60018160080160026101000a81548160ff0219169083151502179055507fc3dac690cf4c3ae8964f18b8f09f7f9a75d3962a8cbb7cd689df2c291bb5b2dd826040516111289190612614565b60405180910390a15050565b5f61113d6120fb565b90505f815f0160089054906101000a900460ff161590505f825f015f9054906101000a900467ffffffffffffffff1690505f5f8267ffffffffffffffff161480156111855750825b90505f60018367ffffffffffffffff161480156111b857505f3073ffffffffffffffffffffffffffffffffffffffff163b145b9050811580156111c6575080155b156111fd576040517ff92ee8a900000000000000000000000000000000000000000000000000000000815260040160405180910390fd5b6001855f015f6101000a81548167ffffffffffffffff021916908367ffffffffffffffff160217905550831561124a576001855f0160086101000a81548160ff0219169083151502179055505b6112526121bb565b8660045f6101000a81548173ffffffffffffffffffffffffffffffffffffffff021916908373ffffffffffffffffffffffffffffffffffffffff1602179055508560055f6101000a81548173ffffffffffffffffffffffffffffffffffffffff021916908373ffffffffffffffffffffffffffffffffffffffff160217905550831561132c575f855f0160086101000a81548160ff0219169083151502179055507fc7f505b2f371ae2175ee4913f4499e1f2633a7b5936321eed1cdaeb6115181d260016040516113239190612b99565b60405180910390a15b50505050505050565b60035481565b611343612165565b5f60025f8381526020019081526020015f2090508060080160029054906101000a900460ff16806113dd57508060080160019054906101000a900460ff1680156113dc57503373ffffffffffffffffffffffffffffffffffffffff1681600a015f9054906101000a900473ffffffffffffffffffffffffffffffffffffffff1673ffffffffffffffffffffffffffffffffffffffff1614155b5b61141c576040517f08c379a000000000000000000000000000000000000000000000000000000000815260040161141390613185565b60405180910390fd5b80600c015f3373ffffffffffffffffffffffffffffffffffffffff1673ffffffffffffffffffffffffffffffffffffffff1681526020019081526020015f205f9054906101000a900460ff16156114a8576040517f08c379a000000000000000000000000000000000000000000000000000000000815260040161149f906131ed565b60405180910390fd5b5f5f90505f5f90505b8260090180549050811015611546573373ffffffffffffffffffffffffffffffffffffffff168360090182815481106114ed576114ec612cde565b5b905f5260205f20015f9054906101000a900473ffffffffffffffffffffffffffffffffffffffff1673ffffffffffffffffffffffffffffffffffffffff16036115395760019150611546565b80806001019150506114b1565b5080611587576040517f08c379a000000000000000000000000000000000000000000000000000000000815260040161157e90613255565b60405180910390fd5b600182600c015f3373ffffffffffffffffffffffffffffffffffffffff1673ffffffffffffffffffffffffffffffffffffffff1681526020019081526020015f205f6101000a81548160ff021916908315150217905550815f015f9054906101000a900473ffffffffffffffffffffffffffffffffffffffff1673ffffffffffffffffffffffffffffffffffffffff1663a9059cbb3384600201546040518363ffffffff1660e01b815260040161163f929190613273565b6020604051808303815f875af115801561165b573d5f5f3e3d5ffd5b505050506040513d601f19601f8201168201806040525081019061167f9190612f02565b50505061168a6121b2565b50565b6116956121bb565b5f60025f8381526020019081526020015f20905080600401544210156116f0576040517f08c379a00000000000000000000000000000000000000000000000000000000081526004016116e7906132e4565b60405180910390fd5b8060080160019054906101000a900460ff1615801561171e57508060080160029054906101000a900460ff16155b61175d576040517f08c379a00000000000000000000000000000000000000000000000000000000081526004016117549061311d565b60405180910390fd5b8060030154816009018054905010156117ab576040517f08c379a00000000000000000000000000000000000000000000000000000000081526004016117a29061334c565b60405180910390fd5b5f60065f9054906101000a900473ffffffffffffffffffffffffffffffffffffffff1673ffffffffffffffffffffffffffffffffffffffff16635d3b1d3060075460085f9054906101000a900467ffffffffffffffff166008600c9054906101000a900461ffff1660088054906101000a900463ffffffff1660016040518663ffffffff1660e01b81526004016118469594939291906133f2565b6020604051808303815f875af1158015611862573d5f5f3e3d5ffd5b505050506040513d601f19601f820116820180604052508101906118869190613457565b90508260095f8381526020019081526020015f208190555060018260080160016101000a81548160ff0219169083151502179055507f600253eae67a5c51c82a7123372e8644f16009c6304e18f844cf86fdc40c24d783826040516118ec929190613482565b60405180910390a1505050565b6119016121bb565b61190a5f612242565b565b6119146121bb565b60025f8281526020019081526020015f205f5f82015f6101000a81549073ffffffffffffffffffffffffffffffffffffffff0219169055600182015f9055600282015f9055600382015f9055600482015f9055600582015f9055600682015f9055600782015f9055600882015f6101000a81549060ff02191690556008820160016101000a81549060ff02191690556008820160026101000a81549060ff0219169055600982015f6119c6919061244c565b600a82015f6101000a81549073ffffffffffffffffffffffffffffffffffffffff0219169055505050565b5f5f6119fb612313565b9050805f015f9054906101000a900473ffffffffffffffffffffffffffffffffffffffff1691505090565b60045f9054906101000a900473ffffffffffffffffffffffffffffffffffffffff1681565b606060025f8381526020019081526020015f20600901805480602002602001604051908101604052809291908181526020018280548015611ade57602002820191905f5260205f20905b815f9054906101000a900473ffffffffffffffffffffffffffffffffffffffff1673ffffffffffffffffffffffffffffffffffffffff1681526020019060010190808311611a95575b50505050509050919050565b611af2612165565b5f60025f8381526020019081526020015f2090503373ffffffffffffffffffffffffffffffffffffffff1681600a015f9054906101000a900473ffffffffffffffffffffffffffffffffffffffff1673ffffffffffffffffffffffffffffffffffffffff1614611b97576040517f08c379a0000000000000000000000000000000000000000000000000000000008152600401611b8e906134f3565b60405180910390fd5b80600b015f3373ffffffffffffffffffffffffffffffffffffffff1673ffffffffffffffffffffffffffffffffffffffff1681526020019081526020015f205f9054906101000a900460ff1615611c23576040517f08c379a0000000000000000000000000000000000000000000000000000000008152600401611c1a9061355b565b60405180910390fd5b600181600b015f3373ffffffffffffffffffffffffffffffffffffffff1673ffffffffffffffffffffffffffffffffffffffff1681526020019081526020015f205f6101000a81548160ff021916908315150217905550805f015f9054906101000a900473ffffffffffffffffffffffffffffffffffffffff1673ffffffffffffffffffffffffffffffffffffffff1663a9059cbb3383600501546040518363ffffffff1660e01b8152600401611cdb929190613273565b6020604051808303815f875af1158015611cf7573d5f5f3e3d5ffd5b505050506040513d601f19601f82011682018060405250810190611d1b9190612f02565b5050611d256121b2565b50565b611d306121bb565b5f73ffffffffffffffffffffffffffffffffffffffff168173ffffffffffffffffffffffffffffffffffffffff1603611da0575f6040517f1e4fbdf7000000000000000000000000000000000000000000000000000000008152600401611d9791906127d7565b60405180910390fd5b611da981612242565b50565b5f60095f8481526020019081526020015f205490505f60025f8381526020019081526020015f2090508060080160019054906101000a900460ff168015611e4157505f73ffffffffffffffffffffffffffffffffffffffff1681600a015f9054906101000a900473ffffffffffffffffffffffffffffffffffffffff1673ffffffffffffffffffffffffffffffffffffffff16145b611e80576040517f08c379a0000000000000000000000000000000000000000000000000000000008152600401611e77906135c3565b60405180910390fd5b5f8160090180549050845f81518110611e9c57611e9b612cde565b5b6020026020010151611eae919061360e565b9050816009018181548110611ec657611ec5612cde565b5b905f5260205f20015f9054906101000a900473ffffffffffffffffffffffffffffffffffffffff1682600a015f6101000a81548173ffffffffffffffffffffffffffffffffffffffff021916908373ffffffffffffffffffffffffffffffffffffffff1602179055505f825f015f9054906101000a900473ffffffffffffffffffffffffffffffffffffffff1690508073ffffffffffffffffffffffffffffffffffffffff1663a9059cbb60045f9054906101000a900473ffffffffffffffffffffffffffffffffffffffff1685600601546040518363ffffffff1660e01b8152600401611fb5929190613273565b6020604051808303815f875af1158015611fd1573d5f5f3e3d5ffd5b505050506040513d601f19601f82011682018060405250810190611ff59190612f02565b508073ffffffffffffffffffffffffffffffffffffffff1663a9059cbb60055f9054906101000a900473ffffffffffffffffffffffffffffffffffffffff1685600701546040518363ffffffff1660e01b8152600401612056929190613273565b6020604051808303815f875af1158015612072573d5f5f3e3d5ffd5b505050506040513d601f19601f820116820180604052508101906120969190612f02565b507f03fb57eb449654e24e1b240d3d06702cf79362a065d5c0323aee642d4702fa4b8484600a015f9054906101000a900473ffffffffffffffffffffffffffffffffffffffff166040516120eb929190612f2d565b60405180910390a1505050505050565b5f5f61210561233a565b90508091505090565b612116612363565b61211f816123a3565b50565b8060015f6101000a81548173ffffffffffffffffffffffffffffffffffffffff021916908373ffffffffffffffffffffffffffffffffffffffff16021790555050565b60025f54036121a9576040517f08c379a00000000000000000000000000000000000000000000000000000000081526004016121a090613688565b60405180910390fd5b60025f81905550565b60015f81905550565b6121c3612427565b73ffffffffffffffffffffffffffffffffffffffff166121e16119f1565b73ffffffffffffffffffffffffffffffffffffffff161461224057612204612427565b6040517f118cdaa700000000000000000000000000000000000000000000000000000000815260040161223791906127d7565b60405180910390fd5b565b5f61224b612313565b90505f815f015f9054906101000a900473ffffffffffffffffffffffffffffffffffffffff16905082825f015f6101000a81548173ffffffffffffffffffffffffffffffffffffffff021916908373ffffffffffffffffffffffffffffffffffffffff1602179055508273ffffffffffffffffffffffffffffffffffffffff168173ffffffffffffffffffffffffffffffffffffffff167f8be0079c531659141344cd1fd0a4f28419497f9722a3daafe3b4186f6b6457e060405160405180910390a3505050565b5f7f9016d09d72d40fdae2fd8ceac6b6234c7706214fd39c1cd1e609a0528c199300905090565b5f7ff0c57e16840df040f15088dc2f81fe391c3923bec73e23a9662efc9c229c6a005f1b905090565b61236b61242e565b6123a1576040517fd7e6bcf800000000000000000000000000000000000000000000000000000000815260040160405180910390fd5b565b6123ab612363565b5f73ffffffffffffffffffffffffffffffffffffffff168173ffffffffffffffffffffffffffffffffffffffff160361241b575f6040517f1e4fbdf700000000000000000000000000000000000000000000000000000000815260040161241291906127d7565b60405180910390fd5b61242481612242565b50565b5f33905090565b5f6124376120fb565b5f0160089054906101000a900460ff16905090565b5080545f8255905f5260205f2090810190612467919061246a565b50565b5b80821115612481575f815f90555060010161246b565b5090565b5f604051905090565b5f5ffd5b5f5ffd5b5f819050919050565b6124a881612496565b81146124b2575f5ffd5b50565b5f813590506124c38161249f565b92915050565b5f602082840312156124de576124dd61248e565b5b5f6124eb848285016124b5565b91505092915050565b5f73ffffffffffffffffffffffffffffffffffffffff82169050919050565b5f61251d826124f4565b9050919050565b61252d81612513565b82525050565b61253c81612496565b82525050565b5f8115159050919050565b61255681612542565b82525050565b5f610180820190506125705f83018f612524565b61257d602083018e612533565b61258a604083018d612533565b612597606083018c612533565b6125a4608083018b612533565b6125b160a083018a612533565b6125be60c0830189612533565b6125cb60e0830188612533565b6125d961010083018761254d565b6125e761012083018661254d565b6125f561014083018561254d565b612603610160830184612524565b9d9c50505050505050505050505050565b5f6020820190506126275f830184612533565b92915050565b5f5ffd5b5f601f19601f8301169050919050565b7f4e487b71000000000000000000000000000000000000000000000000000000005f52604160045260245ffd5b61267782612631565b810181811067ffffffffffffffff8211171561269657612695612641565b5b80604052505050565b5f6126a8612485565b90506126b4828261266e565b919050565b5f67ffffffffffffffff8211156126d3576126d2612641565b5b602082029050602081019050919050565b5f5ffd5b5f6126fa6126f5846126b9565b61269f565b9050808382526020820190506020840283018581111561271d5761271c6126e4565b5b835b81811015612746578061273288826124b5565b84526020840193505060208101905061271f565b5050509392505050565b5f82601f8301126127645761276361262d565b5b81356127748482602086016126e8565b91505092915050565b5f5f604083850312156127935761279261248e565b5b5f6127a0858286016124b5565b925050602083013567ffffffffffffffff8111156127c1576127c0612492565b5b6127cd85828601612750565b9150509250929050565b5f6020820190506127ea5f830184612524565b92915050565b6127f981612513565b8114612803575f5ffd5b50565b5f81359050612814816127f0565b92915050565b5f819050919050565b61282c8161281a565b8114612836575f5ffd5b50565b5f8135905061284781612823565b92915050565b5f67ffffffffffffffff82169050919050565b6128698161284d565b8114612873575f5ffd5b50565b5f8135905061288481612860565b92915050565b5f5f5f5f5f60a086880312156128a3576128a261248e565b5b5f6128b088828901612806565b95505060206128c188828901612839565b94505060406128d288828901612876565b93505060606128e388828901612806565b92505060806128f488828901612806565b9150509295509295909350565b5f5f604083850312156129175761291661248e565b5b5f612924858286016124b5565b9250506020612935858286016124b5565b9150509250929050565b5f5f5f5f5f5f5f5f610100898b03121561295c5761295b61248e565b5b5f6129698b828c01612806565b985050602061297a8b828c016124b5565b975050604061298b8b828c016124b5565b965050606061299c8b828c016124b5565b95505060806129ad8b828c016124b5565b94505060a06129be8b828c016124b5565b93505060c06129cf8b828c016124b5565b92505060e06129e08b828c016124b5565b9150509295985092959890939650565b5f5f60408385031215612a0657612a0561248e565b5b5f612a1385828601612806565b9250506020612a2485828601612806565b9150509250929050565b5f81519050919050565b5f82825260208201905092915050565b5f819050602082019050919050565b612a6081612513565b82525050565b5f612a718383612a57565b60208301905092915050565b5f602082019050919050565b5f612a9382612a2e565b612a9d8185612a38565b9350612aa883612a48565b805f5b83811015612ad8578151612abf8882612a66565b9750612aca83612a7d565b925050600181019050612aab565b5085935050505092915050565b5f6020820190508181035f830152612afd8184612a89565b905092915050565b5f60208284031215612b1a57612b1961248e565b5b5f612b2784828501612806565b91505092915050565b5f604082019050612b435f830185612524565b612b506020830184612524565b9392505050565b5f819050919050565b5f819050919050565b5f612b83612b7e612b7984612b57565b612b60565b61284d565b9050919050565b612b9381612b69565b82525050565b5f602082019050612bac5f830184612b8a565b92915050565b5f82825260208201905092915050565b7f526566756e64206e6f7420616c6c6f7765642066726f6d206f6c64206c6f74745f8201527f6572790000000000000000000000000000000000000000000000000000000000602082015250565b5f612c1c602383612bb2565b9150612c2782612bc2565b604082019050919050565b5f6020820190508181035f830152612c4981612c10565b9050919050565b7f416c726561647920726566756e6465642066726f6d206f6c64206c6f747465725f8201527f7900000000000000000000000000000000000000000000000000000000000000602082015250565b5f612caa602183612bb2565b9150612cb582612c50565b604082019050919050565b5f6020820190508181035f830152612cd781612c9e565b9050919050565b7f4e487b71000000000000000000000000000000000000000000000000000000005f52603260045260245ffd5b7f4e6f74207061727469636970616e7420696e206f6c64206c6f747465727900005f82015250565b5f612d3f601e83612bb2565b9150612d4a82612d0b565b602082019050919050565b5f6020820190508181035f830152612d6c81612d33565b9050919050565b7f4e6577206c6f7474657279206e6f7420616374697665000000000000000000005f82015250565b5f612da7601683612bb2565b9150612db282612d73565b602082019050919050565b5f6020820190508181035f830152612dd481612d9b565b9050919050565b7f4e6577206c6f747465727920647261772074696d6520706173736564000000005f82015250565b5f612e0f601c83612bb2565b9150612e1a82612ddb565b602082019050919050565b5f6020820190508181035f830152612e3c81612e03565b9050919050565b7f4e487b71000000000000000000000000000000000000000000000000000000005f52601160045260245ffd5b5f612e7a82612496565b9150612e8583612496565b9250828203905081811115612e9d57612e9c612e43565b5b92915050565b5f606082019050612eb65f830186612524565b612ec36020830185612524565b612ed06040830184612533565b949350505050565b612ee181612542565b8114612eeb575f5ffd5b50565b5f81519050612efc81612ed8565b92915050565b5f60208284031215612f1757612f1661248e565b5b5f612f2484828501612eee565b91505092915050565b5f604082019050612f405f830185612533565b612f4d6020830184612524565b9392505050565b7f496e616374697665206f722063616e63656c6c656400000000000000000000005f82015250565b5f612f88601583612bb2565b9150612f9382612f54565b602082019050919050565b5f6020820190508181035f830152612fb581612f7c565b9050919050565b7f546f6f206c6174650000000000000000000000000000000000000000000000005f82015250565b5f612ff0600883612bb2565b9150612ffb82612fbc565b602082019050919050565b5f6020820190508181035f83015261301d81612fe4565b9050919050565b7f526566756e64206d757374206265203c3d2066656500000000000000000000005f82015250565b5f613058601583612bb2565b915061306382613024565b602082019050919050565b5f6020820190508181035f8301526130858161304c565b9050919050565b5f61309682612496565b91507fffffffffffffffffffffffffffffffffffffffffffffffffffffffffffffffff82036130c8576130c7612e43565b5b600182019050919050565b7f416c726561647920647261776e206f722063616e63656c6c65640000000000005f82015250565b5f613107601a83612bb2565b9150613112826130d3565b602082019050919050565b5f6020820190508181035f830152613134816130fb565b9050919050565b7f43616e6e6f7420726566756e64000000000000000000000000000000000000005f82015250565b5f61316f600d83612bb2565b915061317a8261313b565b602082019050919050565b5f6020820190508181035f83015261319c81613163565b9050919050565b7f416c726561647920726566756e646564000000000000000000000000000000005f82015250565b5f6131d7601083612bb2565b91506131e2826131a3565b602082019050919050565b5f6020820190508181035f830152613204816131cb565b9050919050565b7f4e6f742061207061727469636970616e740000000000000000000000000000005f82015250565b5f61323f601183612bb2565b915061324a8261320b565b602082019050919050565b5f6020820190508181035f83015261326c81613233565b9050919050565b5f6040820190506132865f830185612524565b6132936020830184612533565b9392505050565b7f546f6f206561726c7900000000000000000000000000000000000000000000005f82015250565b5f6132ce600983612bb2565b91506132d98261329a565b602082019050919050565b5f6020820190508181035f8301526132fb816132c2565b9050919050565b7f4e6f7420656e6f756768207061727469636970616e74730000000000000000005f82015250565b5f613336601783612bb2565b915061334182613302565b602082019050919050565b5f6020820190508181035f8301526133638161332a565b9050919050565b6133738161281a565b82525050565b6133828161284d565b82525050565b5f61ffff82169050919050565b61339e81613388565b82525050565b5f63ffffffff82169050919050565b6133bc816133a4565b82525050565b5f6133dc6133d76133d284612b57565b612b60565b6133a4565b9050919050565b6133ec816133c2565b82525050565b5f60a0820190506134055f83018861336a565b6134126020830187613379565b61341f6040830186613395565b61342c60608301856133b3565b61343960808301846133e3565b9695505050505050565b5f815190506134518161249f565b92915050565b5f6020828403121561346c5761346b61248e565b5b5f61347984828501613443565b91505092915050565b5f6040820190506134955f830185612533565b6134a26020830184612533565b9392505050565b7f4e6f742077696e6e6572000000000000000000000000000000000000000000005f82015250565b5f6134dd600a83612bb2565b91506134e8826134a9565b602082019050919050565b5f6020820190508181035f83015261350a816134d1565b9050919050565b7f416c726561647920636c61696d656400000000000000000000000000000000005f82015250565b5f613545600f83612bb2565b915061355082613511565b602082019050919050565b5f6020820190508181035f83015261357281613539565b9050919050565b7f416c72656164792066756c66696c6c65640000000000000000000000000000005f82015250565b5f6135ad601183612bb2565b91506135b882613579565b602082019050919050565b5f6020820190508181035f8301526135da816135a1565b9050919050565b7f4e487b71000000000000000000000000000000000000000000000000000000005f52601260045260245ffd5b5f61361882612496565b915061362383612496565b925082613633576136326135e1565b5b828206905092915050565b7f5265656e7472616e637947756172643a207265656e7472616e742063616c6c005f82015250565b5f613672601f83612bb2565b915061367d8261363e565b602082019050919050565b5f6020820190508181035f83015261369f81613666565b905091905056fea264697066735822122039e8d3c9964598837f7ccfd68cf99b5f1287d4fd13b2008ea259e812ca537d2a64736f6c634300081e0033",
			"opcodes": "PUSH1 0x80 PUSH1 0x40 MSTORE CALLVALUE DUP1 ISZERO PUSH1 0xE JUMPI PUSH0 PUSH0 REVERT JUMPDEST POP PUSH1 0x1 PUSH0 DUP2 SWAP1 SSTORE POP PUSH2 0x36DC DUP1 PUSH2 0x23 PUSH0 CODECOPY PUSH0 RETURN INVALID PUSH1 0x80 PUSH1 0x40 MSTORE CALLVALUE DUP1 ISZERO PUSH2 0xF JUMPI PUSH0 PUSH0 REVERT JUMPDEST POP PUSH1 0x4 CALLDATASIZE LT PUSH2 0x12A JUMPI PUSH0 CALLDATALOAD PUSH1 0xE0 SHR DUP1 PUSH4 0x4A4A6B4F GT PUSH2 0xAB JUMPI DUP1 PUSH4 0x8DA5CB5B GT PUSH2 0x6F JUMPI DUP1 PUSH4 0x8DA5CB5B EQ PUSH2 0x2F7 JUMPI DUP1 PUSH4 0xB6FA37BC EQ PUSH2 0x315 JUMPI DUP1 PUSH4 0xC1E3BD3E EQ PUSH2 0x333 JUMPI DUP1 PUSH4 0xD7098154 EQ PUSH2 0x363 JUMPI DUP1 PUSH4 0xF2FDE38B EQ PUSH2 0x37F JUMPI PUSH2 0x12A JUMP JUMPDEST DUP1 PUSH4 0x4A4A6B4F EQ PUSH2 0x27B JUMPI DUP1 PUSH4 0x5B7BAF64 EQ PUSH2 0x299 JUMPI DUP1 PUSH4 0x60B2A56A EQ PUSH2 0x2B5 JUMPI DUP1 PUSH4 0x715018A6 EQ PUSH2 0x2D1 JUMPI DUP1 PUSH4 0x82F9D0FB EQ PUSH2 0x2DB JUMPI PUSH2 0x12A JUMP JUMPDEST DUP1 PUSH4 0x3893F9D5 GT PUSH2 0xF2 JUMPI DUP1 PUSH4 0x3893F9D5 EQ PUSH2 0x1EF JUMPI DUP1 PUSH4 0x3FD43098 EQ PUSH2 0x20B JUMPI DUP1 PUSH4 0x4311DA37 EQ PUSH2 0x227 JUMPI DUP1 PUSH4 0x4538F297 EQ PUSH2 0x243 JUMPI DUP1 PUSH4 0x485CC955 EQ PUSH2 0x25F JUMPI PUSH2 0x12A JUMP JUMPDEST DUP1 PUSH4 0x1398E076 EQ PUSH2 0x12E JUMPI DUP1 PUSH4 0x15C6E123 EQ PUSH2 0x169 JUMPI DUP1 PUSH4 0x1FE543E3 EQ PUSH2 0x199 JUMPI DUP1 PUSH4 0x2301D775 EQ PUSH2 0x1B5 JUMPI DUP1 PUSH4 0x379C52A6 EQ PUSH2 0x1D3 JUMPI JUMPDEST PUSH0 PUSH0 REVERT JUMPDEST PUSH2 0x148 PUSH1 0x4 DUP1 CALLDATASIZE SUB DUP2 ADD SWAP1 PUSH2 0x143 SWAP2 SWAP1 PUSH2 0x24C9 JUMP JUMPDEST PUSH2 0x39B JUMP JUMPDEST PUSH1 0x40 MLOAD PUSH2 0x160 SWAP13 SWAP12 SWAP11 SWAP10 SWAP9 SWAP8 SWAP7 SWAP6 SWAP5 SWAP4 SWAP3 SWAP2 SWAP1 PUSH2 0x255C JUMP JUMPDEST PUSH1 0x40 MLOAD DUP1 SWAP2 SUB SWAP1 RETURN JUMPDEST PUSH2 0x183 PUSH1 0x4 DUP1 CALLDATASIZE SUB DUP2 ADD SWAP1 PUSH2 0x17E SWAP2 SWAP1 PUSH2 0x24C9 JUMP JUMPDEST PUSH2 0x45B JUMP JUMPDEST PUSH1 0x40 MLOAD PUSH2 0x190 SWAP2 SWAP1 PUSH2 0x2614 JUMP JUMPDEST PUSH1 0x40 MLOAD DUP1 SWAP2 SUB SWAP1 RETURN JUMPDEST PUSH2 0x1B3 PUSH1 0x4 DUP1 CALLDATASIZE SUB DUP2 ADD SWAP1 PUSH2 0x1AE SWAP2 SWAP1 PUSH2 0x277D JUMP JUMPDEST PUSH2 0x470 JUMP JUMPDEST STOP JUMPDEST PUSH2 0x1BD PUSH2 0x532 JUMP JUMPDEST PUSH1 0x40 MLOAD PUSH2 0x1CA SWAP2 SWAP1 PUSH2 0x27D7 JUMP JUMPDEST PUSH1 0x40 MLOAD DUP1 SWAP2 SUB SWAP1 RETURN JUMPDEST PUSH2 0x1ED PUSH1 0x4 DUP1 CALLDATASIZE SUB DUP2 ADD SWAP1 PUSH2 0x1E8 SWAP2 SWAP1 PUSH2 0x288A JUMP JUMPDEST PUSH2 0x557 JUMP JUMPDEST STOP JUMPDEST PUSH2 0x209 PUSH1 0x4 DUP1 CALLDATASIZE SUB DUP2 ADD SWAP1 PUSH2 0x204 SWAP2 SWAP1 PUSH2 0x2901 JUMP JUMPDEST PUSH2 0x815 JUMP JUMPDEST STOP JUMPDEST PUSH2 0x225 PUSH1 0x4 DUP1 CALLDATASIZE SUB DUP2 ADD SWAP1 PUSH2 0x220 SWAP2 SWAP1 PUSH2 0x24C9 JUMP JUMPDEST PUSH2 0xCE4 JUMP JUMPDEST STOP JUMPDEST PUSH2 0x241 PUSH1 0x4 DUP1 CALLDATASIZE SUB DUP2 ADD SWAP1 PUSH2 0x23C SWAP2 SWAP1 PUSH2 0x293F JUMP JUMPDEST PUSH2 0xF01 JUMP JUMPDEST STOP JUMPDEST PUSH2 0x25D PUSH1 0x4 DUP1 CALLDATASIZE SUB DUP2 ADD SWAP1 PUSH2 0x258 SWAP2 SWAP1 PUSH2 0x24C9 JUMP JUMPDEST PUSH2 0x1053 JUMP JUMPDEST STOP JUMPDEST PUSH2 0x279 PUSH1 0x4 DUP1 CALLDATASIZE SUB DUP2 ADD SWAP1 PUSH2 0x274 SWAP2 SWAP1 PUSH2 0x29F0 JUMP JUMPDEST PUSH2 0x1134 JUMP JUMPDEST STOP JUMPDEST PUSH2 0x283 PUSH2 0x1335 JUMP JUMPDEST PUSH1 0x40 MLOAD PUSH2 0x290 SWAP2 SWAP1 PUSH2 0x2614 JUMP JUMPDEST PUSH1 0x40 MLOAD DUP1 SWAP2 SUB SWAP1 RETURN JUMPDEST PUSH2 0x2B3 PUSH1 0x4 DUP1 CALLDATASIZE SUB DUP2 ADD SWAP1 PUSH2 0x2AE SWAP2 SWAP1 PUSH2 0x24C9 JUMP JUMPDEST PUSH2 0x133B JUMP JUMPDEST STOP JUMPDEST PUSH2 0x2CF PUSH1 0x4 DUP1 CALLDATASIZE SUB DUP2 ADD SWAP1 PUSH2 0x2CA SWAP2 SWAP1 PUSH2 0x24C9 JUMP JUMPDEST PUSH2 0x168D JUMP JUMPDEST STOP JUMPDEST PUSH2 0x2D9 PUSH2 0x18F9 JUMP JUMPDEST STOP JUMPDEST PUSH2 0x2F5 PUSH1 0x4 DUP1 CALLDATASIZE SUB DUP2 ADD SWAP1 PUSH2 0x2F0 SWAP2 SWAP1 PUSH2 0x24C9 JUMP JUMPDEST PUSH2 0x190C JUMP JUMPDEST STOP JUMPDEST PUSH2 0x2FF PUSH2 0x19F1 JUMP JUMPDEST PUSH1 0x40 MLOAD PUSH2 0x30C SWAP2 SWAP1 PUSH2 0x27D7 JUMP JUMPDEST PUSH1 0x40 MLOAD DUP1 SWAP2 SUB SWAP1 RETURN JUMPDEST PUSH2 0x31D PUSH2 0x1A26 JUMP JUMPDEST PUSH1 0x40 MLOAD PUSH2 0x32A SWAP2 SWAP1 PUSH2 0x27D7 JUMP JUMPDEST PUSH1 0x40 MLOAD DUP1 SWAP2 SUB SWAP1 RETURN JUMPDEST PUSH2 0x34D PUSH1 0x4 DUP1 CALLDATASIZE SUB DUP2 ADD SWAP1 PUSH2 0x348 SWAP2 SWAP1 PUSH2 0x24C9 JUMP JUMPDEST PUSH2 0x1A4B JUMP JUMPDEST PUSH1 0x40 MLOAD PUSH2 0x35A SWAP2 SWAP1 PUSH2 0x2AE5 JUMP JUMPDEST PUSH1 0x40 MLOAD DUP1 SWAP2 SUB SWAP1 RETURN JUMPDEST PUSH2 0x37D PUSH1 0x4 DUP1 CALLDATASIZE SUB DUP2 ADD SWAP1 PUSH2 0x378 SWAP2 SWAP1 PUSH2 0x24C9 JUMP JUMPDEST PUSH2 0x1AEA JUMP JUMPDEST STOP JUMPDEST PUSH2 0x399 PUSH1 0x4 DUP1 CALLDATASIZE SUB DUP2 ADD SWAP1 PUSH2 0x394 SWAP2 SWAP1 PUSH2 0x2B05 JUMP JUMPDEST PUSH2 0x1D28 JUMP JUMPDEST STOP JUMPDEST PUSH1 0x2 PUSH1 0x20 MSTORE DUP1 PUSH0 MSTORE PUSH1 0x40 PUSH0 KECCAK256 PUSH0 SWAP2 POP SWAP1 POP DUP1 PUSH0 ADD PUSH0 SWAP1 SLOAD SWAP1 PUSH2 0x100 EXP SWAP1 DIV PUSH20 0xFFFFFFFFFFFFFFFFFFFFFFFFFFFFFFFFFFFFFFFF AND SWAP1 DUP1 PUSH1 0x1 ADD SLOAD SWAP1 DUP1 PUSH1 0x2 ADD SLOAD SWAP1 DUP1 PUSH1 0x3 ADD SLOAD SWAP1 DUP1 PUSH1 0x4 ADD SLOAD SWAP1 DUP1 PUSH1 0x5 ADD SLOAD SWAP1 DUP1 PUSH1 0x6 ADD SLOAD SWAP1 DUP1 PUSH1 0x7 ADD SLOAD SWAP1 DUP1 PUSH1 0x8 ADD PUSH0 SWAP1 SLOAD SWAP1 PUSH2 0x100 EXP SWAP1 DIV PUSH1 0xFF AND SWAP1 DUP1 PUSH1 0x8 ADD PUSH1 0x1 SWAP1 SLOAD SWAP1 PUSH2 0x100 EXP SWAP1 DIV PUSH1 0xFF AND SWAP1 DUP1 PUSH1 0x8 ADD PUSH1 0x2 SWAP1 SLOAD SWAP1 PUSH2 0x100 EXP SWAP1 DIV PUSH1 0xFF AND SWAP1 DUP1 PUSH1 0xA ADD PUSH0 SWAP1 SLOAD SWAP1 PUSH2 0x100 EXP SWAP1 DIV PUSH20 0xFFFFFFFFFFFFFFFFFFFFFFFFFFFFFFFFFFFFFFFF AND SWAP1 POP DUP13 JUMP JUMPDEST PUSH1 0x9 PUSH1 0x20 MSTORE DUP1 PUSH0 MSTORE PUSH1 0x40 PUSH0 KECCAK256 PUSH0 SWAP2 POP SWAP1 POP SLOAD DUP2 JUMP JUMPDEST PUSH1 0x1 PUSH0 SWAP1 SLOAD SWAP1 PUSH2 0x100 EXP SWAP1 DIV PUSH20 0xFFFFFFFFFFFFFFFFFFFFFFFFFFFFFFFFFFFFFFFF AND PUSH20 0xFFFFFFFFFFFFFFFFFFFFFFFFFFFFFFFFFFFFFFFF AND CALLER PUSH20 0xFFFFFFFFFFFFFFFFFFFFFFFFFFFFFFFFFFFFFFFF AND EQ PUSH2 0x524 JUMPI CALLER PUSH1 0x1 PUSH0 SWAP1 SLOAD SWAP1 PUSH2 0x100 EXP SWAP1 DIV PUSH20 0xFFFFFFFFFFFFFFFFFFFFFFFFFFFFFFFFFFFFFFFF AND PUSH1 0x40 MLOAD PUSH32 0x1CF993F400000000000000000000000000000000000000000000000000000000 DUP2 MSTORE PUSH1 0x4 ADD PUSH2 0x51B SWAP3 SWAP2 SWAP1 PUSH2 0x2B30 JUMP JUMPDEST PUSH1 0x40 MLOAD DUP1 SWAP2 SUB SWAP1 REVERT JUMPDEST PUSH2 0x52E DUP3 DUP3 PUSH2 0x1DAC JUMP JUMPDEST POP POP JUMP JUMPDEST PUSH1 0x5 PUSH0 SWAP1 SLOAD SWAP1 PUSH2 0x100 EXP SWAP1 DIV PUSH20 0xFFFFFFFFFFFFFFFFFFFFFFFFFFFFFFFFFFFFFFFF AND DUP2 JUMP JUMPDEST PUSH0 PUSH2 0x560 PUSH2 0x20FB JUMP JUMPDEST SWAP1 POP PUSH0 DUP2 PUSH0 ADD PUSH1 0x8 SWAP1 SLOAD SWAP1 PUSH2 0x100 EXP SWAP1 DIV PUSH1 0xFF AND ISZERO SWAP1 POP PUSH0 DUP3 PUSH0 ADD PUSH0 SWAP1 SLOAD SWAP1 PUSH2 0x100 EXP SWAP1 DIV PUSH8 0xFFFFFFFFFFFFFFFF AND SWAP1 POP PUSH0 PUSH0 DUP3 PUSH8 0xFFFFFFFFFFFFFFFF AND EQ DUP1 ISZERO PUSH2 0x5A8 JUMPI POP DUP3 JUMPDEST SWAP1 POP PUSH0 PUSH1 0x1 DUP4 PUSH8 0xFFFFFFFFFFFFFFFF AND EQ DUP1 ISZERO PUSH2 0x5DB JUMPI POP PUSH0 ADDRESS PUSH20 0xFFFFFFFFFFFFFFFFFFFFFFFFFFFFFFFFFFFFFFFF AND EXTCODESIZE EQ JUMPDEST SWAP1 POP DUP2 ISZERO DUP1 ISZERO PUSH2 0x5E9 JUMPI POP DUP1 ISZERO JUMPDEST ISZERO PUSH2 0x620 JUMPI PUSH1 0x40 MLOAD PUSH32 0xF92EE8A900000000000000000000000000000000000000000000000000000000 DUP2 MSTORE PUSH1 0x4 ADD PUSH1 0x40 MLOAD DUP1 SWAP2 SUB SWAP1 REVERT JUMPDEST PUSH1 0x1 DUP6 PUSH0 ADD PUSH0 PUSH2 0x100 EXP DUP2 SLOAD DUP2 PUSH8 0xFFFFFFFFFFFFFFFF MUL NOT AND SWAP1 DUP4 PUSH8 0xFFFFFFFFFFFFFFFF AND MUL OR SWAP1 SSTORE POP DUP4 ISZERO PUSH2 0x66D JUMPI PUSH1 0x1 DUP6 PUSH0 ADD PUSH1 0x8 PUSH2 0x100 EXP DUP2 SLOAD DUP2 PUSH1 0xFF MUL NOT AND SWAP1 DUP4 ISZERO ISZERO MUL OR SWAP1 SSTORE POP JUMPDEST PUSH2 0x676 CALLER PUSH2 0x210E JUMP JUMPDEST PUSH2 0x67F DUP11 PUSH2 0x2122 JUMP JUMPDEST DUP10 PUSH1 0x6 PUSH0 PUSH2 0x100 EXP DUP2 SLOAD DUP2 PUSH20 0xFFFFFFFFFFFFFFFFFFFFFFFFFFFFFFFFFFFFFFFF MUL NOT AND SWAP1 DUP4 PUSH20 0xFFFFFFFFFFFFFFFFFFFFFFFFFFFFFFFFFFFFFFFF AND MUL OR SWAP1 SSTORE POP DUP9 PUSH1 0x7 DUP2 SWAP1 SSTORE POP DUP8 PUSH1 0x8 PUSH0 PUSH2 0x100 EXP DUP2 SLOAD DUP2 PUSH8 0xFFFFFFFFFFFFFFFF MUL NOT AND SWAP1 DUP4 PUSH8 0xFFFFFFFFFFFFFFFF AND MUL OR SWAP1 SSTORE POP PUSH3 0x30D40 PUSH1 0x8 DUP1 PUSH2 0x100 EXP DUP2 SLOAD DUP2 PUSH4 0xFFFFFFFF MUL NOT AND SWAP1 DUP4 PUSH4 0xFFFFFFFF AND MUL OR SWAP1 SSTORE POP PUSH1 0x3 PUSH1 0x8 PUSH1 0xC PUSH2 0x100 EXP DUP2 SLOAD DUP2 PUSH2 0xFFFF MUL NOT AND SWAP1 DUP4 PUSH2 0xFFFF AND MUL OR SWAP1 SSTORE POP DUP7 PUSH1 0x4 PUSH0 PUSH2 0x100 EXP DUP2 SLOAD DUP2 PUSH20 0xFFFFFFFFFFFFFFFFFFFFFFFFFFFFFFFFFFFFFFFF MUL NOT AND SWAP1 DUP4 PUSH20 0xFFFFFFFFFFFFFFFFFFFFFFFFFFFFFFFFFFFFFFFF AND MUL OR SWAP1 SSTORE POP DUP6 PUSH1 0x5 PUSH0 PUSH2 0x100 EXP DUP2 SLOAD DUP2 PUSH20 0xFFFFFFFFFFFFFFFFFFFFFFFFFFFFFFFFFFFFFFFF MUL NOT AND SWAP1 DUP4 PUSH20 0xFFFFFFFFFFFFFFFFFFFFFFFFFFFFFFFFFFFFFFFF AND MUL OR SWAP1 SSTORE POP DUP4 ISZERO PUSH2 0x809 JUMPI PUSH0 DUP6 PUSH0 ADD PUSH1 0x8 PUSH2 0x100 EXP DUP2 SLOAD DUP2 PUSH1 0xFF MUL NOT AND SWAP1 DUP4 ISZERO ISZERO MUL OR SWAP1 SSTORE POP PUSH32 0xC7F505B2F371AE2175EE4913F4499E1F2633A7B5936321EED1CDAEB6115181D2 PUSH1 0x1 PUSH1 0x40 MLOAD PUSH2 0x800 SWAP2 SWAP1 PUSH2 0x2B99 JUMP JUMPDEST PUSH1 0x40 MLOAD DUP1 SWAP2 SUB SWAP1 LOG1 JUMPDEST POP POP POP POP POP POP POP POP POP POP JUMP JUMPDEST PUSH2 0x81D PUSH2 0x2165 JUMP JUMPDEST PUSH0 PUSH1 0x2 PUSH0 DUP5 DUP2 MSTORE PUSH1 0x20 ADD SWAP1 DUP2 MSTORE PUSH1 0x20 ADD PUSH0 KECCAK256 SWAP1 POP PUSH0 PUSH1 0x2 PUSH0 DUP5 DUP2 MSTORE PUSH1 0x20 ADD SWAP1 DUP2 MSTORE PUSH1 0x20 ADD PUSH0 KECCAK256 SWAP1 POP DUP2 PUSH1 0x8 ADD PUSH1 0x2 SWAP1 SLOAD SWAP1 PUSH2 0x100 EXP SWAP1 DIV PUSH1 0xFF AND DUP1 PUSH2 0x8CB JUMPI POP DUP2 PUSH1 0x8 ADD PUSH1 0x1 SWAP1 SLOAD SWAP1 PUSH2 0x100 EXP SWAP1 DIV PUSH1 0xFF AND DUP1 ISZERO PUSH2 0x8CA JUMPI POP CALLER PUSH20 0xFFFFFFFFFFFFFFFFFFFFFFFFFFFFFFFFFFFFFFFF AND DUP3 PUSH1 0xA ADD PUSH0 SWAP1 SLOAD SWAP1 PUSH2 0x100 EXP SWAP1 DIV PUSH20 0xFFFFFFFFFFFFFFFFFFFFFFFFFFFFFFFFFFFFFFFF AND PUSH20 0xFFFFFFFFFFFFFFFFFFFFFFFFFFFFFFFFFFFFFFFF AND EQ ISZERO JUMPDEST JUMPDEST PUSH2 0x90A JUMPI PUSH1 0x40 MLOAD PUSH32 0x8C379A000000000000000000000000000000000000000000000000000000000 DUP2 MSTORE PUSH1 0x4 ADD PUSH2 0x901 SWAP1 PUSH2 0x2C32 JUMP JUMPDEST PUSH1 0x40 MLOAD DUP1 SWAP2 SUB SWAP1 REVERT JUMPDEST DUP2 PUSH1 0xC ADD PUSH0 CALLER PUSH20 0xFFFFFFFFFFFFFFFFFFFFFFFFFFFFFFFFFFFFFFFF AND PUSH20 0xFFFFFFFFFFFFFFFFFFFFFFFFFFFFFFFFFFFFFFFF AND DUP2 MSTORE PUSH1 0x20 ADD SWAP1 DUP2 MSTORE PUSH1 0x20 ADD PUSH0 KECCAK256 PUSH0 SWAP1 SLOAD SWAP1 PUSH2 0x100 EXP SWAP1 DIV PUSH1 0xFF AND ISZERO PUSH2 0x996 JUMPI PUSH1 0x40 MLOAD PUSH32 0x8C379A000000000000000000000000000000000000000000000000000000000 DUP2 MSTORE PUSH1 0x4 ADD PUSH2 0x98D SWAP1 PUSH2 0x2CC0 JUMP JUMPDEST PUSH1 0x40 MLOAD DUP1 SWAP2 SUB SWAP1 REVERT JUMPDEST PUSH0 PUSH0 SWAP1 POP PUSH0 PUSH0 SWAP1 POP JUMPDEST DUP4 PUSH1 0x9 ADD DUP1 SLOAD SWAP1 POP DUP2 LT ISZERO PUSH2 0xA34 JUMPI CALLER PUSH20 0xFFFFFFFFFFFFFFFFFFFFFFFFFFFFFFFFFFFFFFFF AND DUP5 PUSH1 0x9 ADD DUP3 DUP2 SLOAD DUP2 LT PUSH2 0x9DB JUMPI PUSH2 0x9DA PUSH2 0x2CDE JUMP JUMPDEST JUMPDEST SWAP1 PUSH0 MSTORE PUSH1 0x20 PUSH0 KECCAK256 ADD PUSH0 SWAP1 SLOAD SWAP1 PUSH2 0x100 EXP SWAP1 DIV PUSH20 0xFFFFFFFFFFFFFFFFFFFFFFFFFFFFFFFFFFFFFFFF AND PUSH20 0xFFFFFFFFFFFFFFFFFFFFFFFFFFFFFFFFFFFFFFFF AND SUB PUSH2 0xA27 JUMPI PUSH1 0x1 SWAP2 POP PUSH2 0xA34 JUMP JUMPDEST DUP1 DUP1 PUSH1 0x1 ADD SWAP2 POP POP PUSH2 0x99F JUMP JUMPDEST POP DUP1 PUSH2 0xA75 JUMPI PUSH1 0x40 MLOAD PUSH32 0x8C379A000000000000000000000000000000000000000000000000000000000 DUP2 MSTORE PUSH1 0x4 ADD PUSH2 0xA6C SWAP1 PUSH2 0x2D55 JUMP JUMPDEST PUSH1 0x40 MLOAD DUP1 SWAP2 SUB SWAP1 REVERT JUMPDEST DUP2 PUSH1 0x8 ADD PUSH0 SWAP1 SLOAD SWAP1 PUSH2 0x100 EXP SWAP1 DIV PUSH1 0xFF AND DUP1 ISZERO PUSH2 0xAA1 JUMPI POP DUP2 PUSH1 0x8 ADD PUSH1 0x2 SWAP1 SLOAD SWAP1 PUSH2 0x100 EXP SWAP1 DIV PUSH1 0xFF AND ISZERO JUMPDEST PUSH2 0xAE0 JUMPI PUSH1 0x40 MLOAD PUSH32 0x8C379A000000000000000000000000000000000000000000000000000000000 DUP2 MSTORE PUSH1 0x4 ADD PUSH2 0xAD7 SWAP1 PUSH2 0x2DBD JUMP JUMPDEST PUSH1 0x40 MLOAD DUP1 SWAP2 SUB SWAP1 REVERT JUMPDEST DUP2 PUSH1 0x4 ADD SLOAD TIMESTAMP LT PUSH2 0xB26 JUMPI PUSH1 0x40 MLOAD PUSH32 0x8C379A000000000000000000000000000000000000000000000000000000000 DUP2 MSTORE PUSH1 0x4 ADD PUSH2 0xB1D SWAP1 PUSH2 0x2E25 JUMP JUMPDEST PUSH1 0x40 MLOAD DUP1 SWAP2 SUB SWAP1 REVERT JUMPDEST PUSH1 0x1 DUP4 PUSH1 0xC ADD PUSH0 CALLER PUSH20 0xFFFFFFFFFFFFFFFFFFFFFFFFFFFFFFFFFFFFFFFF AND PUSH20 0xFFFFFFFFFFFFFFFFFFFFFFFFFFFFFFFFFFFFFFFF AND DUP2 MSTORE PUSH1 0x20 ADD SWAP1 DUP2 MSTORE PUSH1 0x20 ADD PUSH0 KECCAK256 PUSH0 PUSH2 0x100 EXP DUP2 SLOAD DUP2 PUSH1 0xFF MUL NOT AND SWAP1 DUP4 ISZERO ISZERO MUL OR SWAP1 SSTORE POP PUSH0 DUP3 PUSH1 0x2 ADD SLOAD DUP4 PUSH1 0x1 ADD SLOAD PUSH2 0xB92 SWAP2 SWAP1 PUSH2 0x2E70 JUMP JUMPDEST SWAP1 POP PUSH0 DUP4 PUSH0 ADD PUSH0 SWAP1 SLOAD SWAP1 PUSH2 0x100 EXP SWAP1 DIV PUSH20 0xFFFFFFFFFFFFFFFFFFFFFFFFFFFFFFFFFFFFFFFF AND SWAP1 POP DUP1 PUSH20 0xFFFFFFFFFFFFFFFFFFFFFFFFFFFFFFFFFFFFFFFF AND PUSH4 0x23B872DD CALLER ADDRESS DUP6 PUSH1 0x40 MLOAD DUP5 PUSH4 0xFFFFFFFF AND PUSH1 0xE0 SHL DUP2 MSTORE PUSH1 0x4 ADD PUSH2 0xBF7 SWAP4 SWAP3 SWAP2 SWAP1 PUSH2 0x2EA3 JUMP JUMPDEST PUSH1 0x20 PUSH1 0x40 MLOAD DUP1 DUP4 SUB DUP2 PUSH0 DUP8 GAS CALL ISZERO DUP1 ISZERO PUSH2 0xC13 JUMPI RETURNDATASIZE PUSH0 PUSH0 RETURNDATACOPY RETURNDATASIZE PUSH0 REVERT JUMPDEST POP POP POP POP PUSH1 0x40 MLOAD RETURNDATASIZE PUSH1 0x1F NOT PUSH1 0x1F DUP3 ADD AND DUP3 ADD DUP1 PUSH1 0x40 MSTORE POP DUP2 ADD SWAP1 PUSH2 0xC37 SWAP2 SWAP1 PUSH2 0x2F02 JUMP JUMPDEST POP DUP4 PUSH1 0x9 ADD CALLER SWAP1 DUP1 PUSH1 0x1 DUP2 SLOAD ADD DUP1 DUP3 SSTORE DUP1 SWAP2 POP POP PUSH1 0x1 SWAP1 SUB SWAP1 PUSH0 MSTORE PUSH1 0x20 PUSH0 KECCAK256 ADD PUSH0 SWAP1 SWAP2 SWAP1 SWAP2 SWAP1 SWAP2 PUSH2 0x100 EXP DUP2 SLOAD DUP2 PUSH20 0xFFFFFFFFFFFFFFFFFFFFFFFFFFFFFFFFFFFFFFFF MUL NOT AND SWAP1 DUP4 PUSH20 0xFFFFFFFFFFFFFFFFFFFFFFFFFFFFFFFFFFFFFFFF AND MUL OR SWAP1 SSTORE POP PUSH32 0x1E28857182A3B2BB6FBB88287D1BA8CC3A941DD65D4C977286676D27B877A3D9 DUP7 CALLER PUSH1 0x40 MLOAD PUSH2 0xCCB SWAP3 SWAP2 SWAP1 PUSH2 0x2F2D JUMP JUMPDEST PUSH1 0x40 MLOAD DUP1 SWAP2 SUB SWAP1 LOG1 POP POP POP POP POP PUSH2 0xCE0 PUSH2 0x21B2 JUMP JUMPDEST POP POP JUMP JUMPDEST PUSH2 0xCEC PUSH2 0x2165 JUMP JUMPDEST PUSH0 PUSH1 0x2 PUSH0 DUP4 DUP2 MSTORE PUSH1 0x20 ADD SWAP1 DUP2 MSTORE PUSH1 0x20 ADD PUSH0 KECCAK256 SWAP1 POP DUP1 PUSH1 0x8 ADD PUSH0 SWAP1 SLOAD SWAP1 PUSH2 0x100 EXP SWAP1 DIV PUSH1 0xFF AND DUP1 ISZERO PUSH2 0xD2C JUMPI POP DUP1 PUSH1 0x8 ADD PUSH1 0x2 SWAP1 SLOAD SWAP1 PUSH2 0x100 EXP SWAP1 DIV PUSH1 0xFF AND ISZERO JUMPDEST PUSH2 0xD6B JUMPI PUSH1 0x40 MLOAD PUSH32 0x8C379A000000000000000000000000000000000000000000000000000000000 DUP2 MSTORE PUSH1 0x4 ADD PUSH2 0xD62 SWAP1 PUSH2 0x2F9E JUMP JUMPDEST PUSH1 0x40 MLOAD DUP1 SWAP2 SUB SWAP1 REVERT JUMPDEST DUP1 PUSH1 0x4 ADD SLOAD TIMESTAMP LT PUSH2 0xDB1 JUMPI PUSH1 0x40 MLOAD PUSH32 0x8C379A000000000000000000000000000000000000000000000000000000000 DUP2 MSTORE PUSH1 0x4 ADD PUSH2 0xDA8 SWAP1 PUSH2 0x3006 JUMP JUMPDEST PUSH1 0x40 MLOAD DUP1 SWAP2 SUB SWAP1 REVERT JUMPDEST PUSH0 DUP2 PUSH0 ADD PUSH0 SWAP1 SLOAD SWAP1 PUSH2 0x100 EXP SWAP1 DIV PUSH20 0xFFFFFFFFFFFFFFFFFFFFFFFFFFFFFFFFFFFFFFFF AND SWAP1 POP DUP1 PUSH20 0xFFFFFFFFFFFFFFFFFFFFFFFFFFFFFFFFFFFFFFFF AND PUSH4 0x23B872DD CALLER ADDRESS DUP6 PUSH1 0x1 ADD SLOAD PUSH1 0x40 MLOAD DUP5 PUSH4 0xFFFFFFFF AND PUSH1 0xE0 SHL DUP2 MSTORE PUSH1 0x4 ADD PUSH2 0xE18 SWAP4 SWAP3 SWAP2 SWAP1 PUSH2 0x2EA3 JUMP JUMPDEST PUSH1 0x20 PUSH1 0x40 MLOAD DUP1 DUP4 SUB DUP2 PUSH0 DUP8 GAS CALL ISZERO DUP1 ISZERO PUSH2 0xE34 JUMPI RETURNDATASIZE PUSH0 PUSH0 RETURNDATACOPY RETURNDATASIZE PUSH0 REVERT JUMPDEST POP POP POP POP PUSH1 0x40 MLOAD RETURNDATASIZE PUSH1 0x1F NOT PUSH1 0x1F DUP3 ADD AND DUP3 ADD DUP1 PUSH1 0x40 MSTORE POP DUP2 ADD SWAP1 PUSH2 0xE58 SWAP2 SWAP1 PUSH2 0x2F02 JUMP JUMPDEST POP DUP2 PUSH1 0x9 ADD CALLER SWAP1 DUP1 PUSH1 0x1 DUP2 SLOAD ADD DUP1 DUP3 SSTORE DUP1 SWAP2 POP POP PUSH1 0x1 SWAP1 SUB SWAP1 PUSH0 MSTORE PUSH1 0x20 PUSH0 KECCAK256 ADD PUSH0 SWAP1 SWAP2 SWAP1 SWAP2 SWAP1 SWAP2 PUSH2 0x100 EXP DUP2 SLOAD DUP2 PUSH20 0xFFFFFFFFFFFFFFFFFFFFFFFFFFFFFFFFFFFFFFFF MUL NOT AND SWAP1 DUP4 PUSH20 0xFFFFFFFFFFFFFFFFFFFFFFFFFFFFFFFFFFFFFFFF AND MUL OR SWAP1 SSTORE POP PUSH32 0x1E28857182A3B2BB6FBB88287D1BA8CC3A941DD65D4C977286676D27B877A3D9 DUP4 CALLER PUSH1 0x40 MLOAD PUSH2 0xEEC SWAP3 SWAP2 SWAP1 PUSH2 0x2F2D JUMP JUMPDEST PUSH1 0x40 MLOAD DUP1 SWAP2 SUB SWAP1 LOG1 POP POP PUSH2 0xEFE PUSH2 0x21B2 JUMP JUMPDEST POP JUMP JUMPDEST PUSH2 0xF09 PUSH2 0x21BB JUMP JUMPDEST DUP6 DUP8 LT ISZERO PUSH2 0xF4C JUMPI PUSH1 0x40 MLOAD PUSH32 0x8C379A000000000000000000000000000000000000000000000000000000000 DUP2 MSTORE PUSH1 0x4 ADD PUSH2 0xF43 SWAP1 PUSH2 0x306E JUMP JUMPDEST PUSH1 0x40 MLOAD DUP1 SWAP2 SUB SWAP1 REVERT JUMPDEST PUSH0 PUSH1 0x2 PUSH0 PUSH1 0x3 PUSH0 DUP2 SLOAD PUSH2 0xF5E SWAP1 PUSH2 0x308C JUMP JUMPDEST SWAP2 SWAP1 POP DUP2 SWAP1 SSTORE DUP2 MSTORE PUSH1 0x20 ADD SWAP1 DUP2 MSTORE PUSH1 0x20 ADD PUSH0 KECCAK256 SWAP1 POP DUP9 DUP2 PUSH0 ADD PUSH0 PUSH2 0x100 EXP DUP2 SLOAD DUP2 PUSH20 0xFFFFFFFFFFFFFFFFFFFFFFFFFFFFFFFFFFFFFFFF MUL NOT AND SWAP1 DUP4 PUSH20 0xFFFFFFFFFFFFFFFFFFFFFFFFFFFFFFFFFFFFFFFF AND MUL OR SWAP1 SSTORE POP DUP8 DUP2 PUSH1 0x1 ADD DUP2 SWAP1 SSTORE POP DUP7 DUP2 PUSH1 0x2 ADD DUP2 SWAP1 SSTORE POP DUP6 DUP2 PUSH1 0x3 ADD DUP2 SWAP1 SSTORE POP DUP5 DUP2 PUSH1 0x4 ADD DUP2 SWAP1 SSTORE POP DUP4 DUP2 PUSH1 0x5 ADD DUP2 SWAP1 SSTORE POP DUP3 DUP2 PUSH1 0x6 ADD DUP2 SWAP1 SSTORE POP DUP2 DUP2 PUSH1 0x7 ADD DUP2 SWAP1 SSTORE POP PUSH1 0x1 DUP2 PUSH1 0x8 ADD PUSH0 PUSH2 0x100 EXP DUP2 SLOAD DUP2 PUSH1 0xFF MUL NOT AND SWAP1 DUP4 ISZERO ISZERO MUL OR SWAP1 SSTORE POP PUSH32 0x9E0023BEBCC752BAAA41057318405B5A6A8E9C6372B519717CFDF238E5CAA795 PUSH1 0x3 SLOAD PUSH1 0x40 MLOAD PUSH2 0x1040 SWAP2 SWAP1 PUSH2 0x2614 JUMP JUMPDEST PUSH1 0x40 MLOAD DUP1 SWAP2 SUB SWAP1 LOG1 POP POP POP POP POP POP POP POP POP JUMP JUMPDEST PUSH2 0x105B PUSH2 0x21BB JUMP JUMPDEST PUSH0 PUSH1 0x2 PUSH0 DUP4 DUP2 MSTORE PUSH1 0x20 ADD SWAP1 DUP2 MSTORE PUSH1 0x20 ADD PUSH0 KECCAK256 SWAP1 POP DUP1 PUSH1 0x8 ADD PUSH1 0x2 SWAP1 SLOAD SWAP1 PUSH2 0x100 EXP SWAP1 DIV PUSH1 0xFF AND ISZERO DUP1 ISZERO PUSH2 0x109D JUMPI POP DUP1 PUSH1 0x8 ADD PUSH1 0x1 SWAP1 SLOAD SWAP1 PUSH2 0x100 EXP SWAP1 DIV PUSH1 0xFF AND ISZERO JUMPDEST PUSH2 0x10DC JUMPI PUSH1 0x40 MLOAD PUSH32 0x8C379A000000000000000000000000000000000000000000000000000000000 DUP2 MSTORE PUSH1 0x4 ADD PUSH2 0x10D3 SWAP1 PUSH2 0x311D JUMP JUMPDEST PUSH1 0x40 MLOAD DUP1 SWAP2 SUB SWAP1 REVERT JUMPDEST PUSH1 0x1 DUP2 PUSH1 0x8 ADD PUSH1 0x2 PUSH2 0x100 EXP DUP2 SLOAD DUP2 PUSH1 0xFF MUL NOT AND SWAP1 DUP4 ISZERO ISZERO MUL OR SWAP1 SSTORE POP PUSH32 0xC3DAC690CF4C3AE8964F18B8F09F7F9A75D3962A8CBB7CD689DF2C291BB5B2DD DUP3 PUSH1 0x40 MLOAD PUSH2 0x1128 SWAP2 SWAP1 PUSH2 0x2614 JUMP JUMPDEST PUSH1 0x40 MLOAD DUP1 SWAP2 SUB SWAP1 LOG1 POP POP JUMP JUMPDEST PUSH0 PUSH2 0x113D PUSH2 0x20FB JUMP JUMPDEST SWAP1 POP PUSH0 DUP2 PUSH0 ADD PUSH1 0x8 SWAP1 SLOAD SWAP1 PUSH2 0x100 EXP SWAP1 DIV PUSH1 0xFF AND ISZERO SWAP1 POP PUSH0 DUP3 PUSH0 ADD PUSH0 SWAP1 SLOAD SWAP1 PUSH2 0x100 EXP SWAP1 DIV PUSH8 0xFFFFFFFFFFFFFFFF AND SWAP1 POP PUSH0 PUSH0 DUP3 PUSH8 0xFFFFFFFFFFFFFFFF AND EQ DUP1 ISZERO PUSH2 0x1185 JUMPI POP DUP3 JUMPDEST SWAP1 POP PUSH0 PUSH1 0x1 DUP4 PUSH8 0xFFFFFFFFFFFFFFFF AND EQ DUP1 ISZERO PUSH2 0x11B8 JUMPI POP PUSH0 ADDRESS PUSH20 0xFFFFFFFFFFFFFFFFFFFFFFFFFFFFFFFFFFFFFFFF AND EXTCODESIZE EQ JUMPDEST SWAP1 POP DUP2 ISZERO DUP1 ISZERO PUSH2 0x11C6 JUMPI POP DUP1 ISZERO JUMPDEST ISZERO PUSH2 0x11FD JUMPI PUSH1 0x40 MLOAD PUSH32 0xF92EE8A900000000000000000000000000000000000000000000000000000000 DUP2 MSTORE PUSH1 0x4 ADD PUSH1 0x40 MLOAD DUP1 SWAP2 SUB SWAP1 REVERT JUMPDEST PUSH1 0x1 DUP6 PUSH0 ADD PUSH0 PUSH2 0x100 EXP DUP2 SLOAD DUP2 PUSH8 0xFFFFFFFFFFFFFFFF MUL NOT AND SWAP1 DUP4 PUSH8 0xFFFFFFFFFFFFFFFF AND MUL OR SWAP1 SSTORE POP DUP4 ISZERO PUSH2 0x124A JUMPI PUSH1 0x1 DUP6 PUSH0 ADD PUSH1 0x8 PUSH2 0x100 EXP DUP2 SLOAD DUP2 PUSH1 0xFF MUL NOT AND SWAP1 DUP4 ISZERO ISZERO MUL OR SWAP1 SSTORE POP JUMPDEST PUSH2 0x1252 PUSH2 0x21BB JUMP JUMPDEST DUP7 PUSH1 0x4 PUSH0 PUSH2 0x100 EXP DUP2 SLOAD DUP2 PUSH20 0xFFFFFFFFFFFFFFFFFFFFFFFFFFFFFFFFFFFFFFFF MUL NOT AND SWAP1 DUP4 PUSH20 0xFFFFFFFFFFFFFFFFFFFFFFFFFFFFFFFFFFFFFFFF AND MUL OR SWAP1 SSTORE POP DUP6 PUSH1 0x5 PUSH0 PUSH2 0x100 EXP DUP2 SLOAD DUP2 PUSH20 0xFFFFFFFFFFFFFFFFFFFFFFFFFFFFFFFFFFFFFFFF MUL NOT AND SWAP1 DUP4 PUSH20 0xFFFFFFFFFFFFFFFFFFFFFFFFFFFFFFFFFFFFFFFF AND MUL OR SWAP1 SSTORE POP DUP4 ISZERO PUSH2 0x132C JUMPI PUSH0 DUP6 PUSH0 ADD PUSH1 0x8 PUSH2 0x100 EXP DUP2 SLOAD DUP2 PUSH1 0xFF MUL NOT AND SWAP1 DUP4 ISZERO ISZERO MUL OR SWAP1 SSTORE POP PUSH32 0xC7F505B2F371AE2175EE4913F4499E1F2633A7B5936321EED1CDAEB6115181D2 PUSH1 0x1 PUSH1 0x40 MLOAD PUSH2 0x1323 SWAP2 SWAP1 PUSH2 0x2B99 JUMP JUMPDEST PUSH1 0x40 MLOAD DUP1 SWAP2 SUB SWAP1 LOG1 JUMPDEST POP POP POP POP POP POP POP JUMP JUMPDEST PUSH1 0x3 SLOAD DUP2 JUMP JUMPDEST PUSH2 0x1343 PUSH2 0x2165 JUMP JUMPDEST PUSH0 PUSH1 0x2 PUSH0 DUP4 DUP2 MSTORE PUSH1 0x20 ADD SWAP1 DUP2 MSTORE PUSH1 0x20 ADD PUSH0 KECCAK256 SWAP1 POP DUP1 PUSH1 0x8 ADD PUSH1 0x2 SWAP1 SLOAD SWAP1 PUSH2 0x100 EXP SWAP1 DIV PUSH1 0xFF AND DUP1 PUSH2 0x13DD JUMPI POP DUP1 PUSH1 0x8 ADD PUSH1 0x1 SWAP1 SLOAD SWAP1 PUSH2 0x100 EXP SWAP1 DIV PUSH1 0xFF AND DUP1 ISZERO PUSH2 0x13DC JUMPI POP CALLER PUSH20 0xFFFFFFFFFFFFFFFFFFFFFFFFFFFFFFFFFFFFFFFF AND DUP2 PUSH1 0xA ADD PUSH0 SWAP1 SLOAD SWAP1 PUSH2 0x100 EXP SWAP1 DIV PUSH20 0xFFFFFFFFFFFFFFFFFFFFFFFFFFFFFFFFFFFFFFFF AND PUSH20 0xFFFFFFFFFFFFFFFFFFFFFFFFFFFFFFFFFFFFFFFF AND EQ ISZERO JUMPDEST JUMPDEST PUSH2 0x141C JUMPI PUSH1 0x40 MLOAD PUSH32 0x8C379A000000000000000000000000000000000000000000000000000000000 DUP2 MSTORE PUSH1 0x4 ADD PUSH2 0x1413 SWAP1 PUSH2 0x3185 JUMP JUMPDEST PUSH1 0x40 MLOAD DUP1 SWAP2 SUB SWAP1 REVERT JUMPDEST DUP1 PUSH1 0xC ADD PUSH0 CALLER PUSH20 0xFFFFFFFFFFFFFFFFFFFFFFFFFFFFFFFFFFFFFFFF AND PUSH20 0xFFFFFFFFFFFFFFFFFFFFFFFFFFFFFFFFFFFFFFFF AND DUP2 MSTORE PUSH1 0x20 ADD SWAP1 DUP2 MSTORE PUSH1 0x20 ADD PUSH0 KECCAK256 PUSH0 SWAP1 SLOAD SWAP1 PUSH2 0x100 EXP SWAP1 DIV PUSH1 0xFF AND ISZERO PUSH2 0x14A8 JUMPI PUSH1 0x40 MLOAD PUSH32 0x8C379A000000000000000000000000000000000000000000000000000000000 DUP2 MSTORE PUSH1 0x4 ADD PUSH2 0x149F SWAP1 PUSH2 0x31ED JUMP JUMPDEST PUSH1 0x40 MLOAD DUP1 SWAP2 SUB SWAP1 REVERT JUMPDEST PUSH0 PUSH0 SWAP1 POP PUSH0 PUSH0 SWAP1 POP JUMPDEST DUP3 PUSH1 0x9 ADD DUP1 SLOAD SWAP1 POP DUP2 LT ISZERO PUSH2 0x1546 JUMPI CALLER PUSH20 0xFFFFFFFFFFFFFFFFFFFFFFFFFFFFFFFFFFFFFFFF AND DUP4 PUSH1 0x9 ADD DUP3 DUP2 SLOAD DUP2 LT PUSH2 0x14ED JUMPI PUSH2 0x14EC PUSH2 0x2CDE JUMP JUMPDEST JUMPDEST SWAP1 PUSH0 MSTORE PUSH1 0x20 PUSH0 KECCAK256 ADD PUSH0 SWAP1 SLOAD SWAP1 PUSH2 0x100 EXP SWAP1 DIV PUSH20 0xFFFFFFFFFFFFFFFFFFFFFFFFFFFFFFFFFFFFFFFF AND PUSH20 0xFFFFFFFFFFFFFFFFFFFFFFFFFFFFFFFFFFFFFFFF AND SUB PUSH2 0x1539 JUMPI PUSH1 0x1 SWAP2 POP PUSH2 0x1546 JUMP JUMPDEST DUP1 DUP1 PUSH1 0x1 ADD SWAP2 POP POP PUSH2 0x14B1 JUMP JUMPDEST POP DUP1 PUSH2 0x1587 JUMPI PUSH1 0x40 MLOAD PUSH32 0x8C379A000000000000000000000000000000000000000000000000000000000 DUP2 MSTORE PUSH1 0x4 ADD PUSH2 0x157E SWAP1 PUSH2 0x3255 JUMP JUMPDEST PUSH1 0x40 MLOAD DUP1 SWAP2 SUB SWAP1 REVERT JUMPDEST PUSH1 0x1 DUP3 PUSH1 0xC ADD PUSH0 CALLER PUSH20 0xFFFFFFFFFFFFFFFFFFFFFFFFFFFFFFFFFFFFFFFF AND PUSH20 0xFFFFFFFFFFFFFFFFFFFFFFFFFFFFFFFFFFFFFFFF AND DUP2 MSTORE PUSH1 0x20 ADD SWAP1 DUP2 MSTORE PUSH1 0x20 ADD PUSH0 KECCAK256 PUSH0 PUSH2 0x100 EXP DUP2 SLOAD DUP2 PUSH1 0xFF MUL NOT AND SWAP1 DUP4 ISZERO ISZERO MUL OR SWAP1 SSTORE POP DUP2 PUSH0 ADD PUSH0 SWAP1 SLOAD SWAP1 PUSH2 0x100 EXP SWAP1 DIV PUSH20 0xFFFFFFFFFFFFFFFFFFFFFFFFFFFFFFFFFFFFFFFF AND PUSH20 0xFFFFFFFFFFFFFFFFFFFFFFFFFFFFFFFFFFFFFFFF AND PUSH4 0xA9059CBB CALLER DUP5 PUSH1 0x2 ADD SLOAD PUSH1 0x40 MLOAD DUP4 PUSH4 0xFFFFFFFF AND PUSH1 0xE0 SHL DUP2 MSTORE PUSH1 0x4 ADD PUSH2 0x163F SWAP3 SWAP2 SWAP1 PUSH2 0x3273 JUMP JUMPDEST PUSH1 0x20 PUSH1 0x40 MLOAD DUP1 DUP4 SUB DUP2 PUSH0 DUP8 GAS CALL ISZERO DUP1 ISZERO PUSH2 0x165B JUMPI RETURNDATASIZE PUSH0 PUSH0 RETURNDATACOPY RETURNDATASIZE PUSH0 REVERT JUMPDEST POP POP POP POP PUSH1 0x40 MLOAD RETURNDATASIZE PUSH1 0x1F NOT PUSH1 0x1F DUP3 ADD AND DUP3 ADD DUP1 PUSH1 0x40 MSTORE POP DUP2 ADD SWAP1 PUSH2 0x167F SWAP2 SWAP1 PUSH2 0x2F02 JUMP JUMPDEST POP POP POP PUSH2 0x168A PUSH2 0x21B2 JUMP JUMPDEST POP JUMP JUMPDEST PUSH2 0x1695 PUSH2 0x21BB JUMP JUMPDEST PUSH0 PUSH1 0x2 PUSH0 DUP4 DUP2 MSTORE PUSH1 0x20 ADD SWAP1 DUP2 MSTORE PUSH1 0x20 ADD PUSH0 KECCAK256 SWAP1 POP DUP1 PUSH1 0x4 ADD SLOAD TIMESTAMP LT ISZERO PUSH2 0x16F0 JUMPI PUSH1 0x40 MLOAD PUSH32 0x8C379A000000000000000000000000000000000000000000000000000000000 DUP2 MSTORE PUSH1 0x4 ADD PUSH2 0x16E7 SWAP1 PUSH2 0x32E4 JUMP JUMPDEST PUSH1 0x40 MLOAD DUP1 SWAP2 SUB SWAP1 REVERT JUMPDEST DUP1 PUSH1 0x8 ADD PUSH1 0x1 SWAP1 SLOAD SWAP1 PUSH2 0x100 EXP SWAP1 DIV PUSH1 0xFF AND ISZERO DUP1 ISZERO PUSH2 0x171E JUMPI POP DUP1 PUSH1 0x8 ADD PUSH1 0x2 SWAP1 SLOAD SWAP1 PUSH2 0x100 EXP SWAP1 DIV PUSH1 0xFF AND ISZERO JUMPDEST PUSH2 0x175D JUMPI PUSH1 0x40 MLOAD PUSH32 0x8C379A000000000000000000000000000000000000000000000000000000000 DUP2 MSTORE PUSH1 0x4 ADD PUSH2 0x1754 SWAP1 PUSH2 0x311D JUMP JUMPDEST PUSH1 0x40 MLOAD DUP1 SWAP2 SUB SWAP1 REVERT JUMPDEST DUP1 PUSH1 0x3 ADD SLOAD DUP2 PUSH1 0x9 ADD DUP1 SLOAD SWAP1 POP LT ISZERO PUSH2 0x17AB JUMPI PUSH1 0x40 MLOAD PUSH32 0x8C379A000000000000000000000000000000000000000000000000000000000 DUP2 MSTORE PUSH1 0x4 ADD PUSH2 0x17A2 SWAP1 PUSH2 0x334C JUMP JUMPDEST PUSH1 0x40 MLOAD DUP1 SWAP2 SUB SWAP1 REVERT JUMPDEST PUSH0 PUSH1 0x6 PUSH0 SWAP1 SLOAD SWAP1 PUSH2 0x100 EXP SWAP1 DIV PUSH20 0xFFFFFFFFFFFFFFFFFFFFFFFFFFFFFFFFFFFFFFFF AND PUSH20 0xFFFFFFFFFFFFFFFFFFFFFFFFFFFFFFFFFFFFFFFF AND PUSH4 0x5D3B1D30 PUSH1 0x7 SLOAD PUSH1 0x8 PUSH0 SWAP1 SLOAD SWAP1 PUSH2 0x100 EXP SWAP1 DIV PUSH8 0xFFFFFFFFFFFFFFFF AND PUSH1 0x8 PUSH1 0xC SWAP1 SLOAD SWAP1 PUSH2 0x100 EXP SWAP1 DIV PUSH2 0xFFFF AND PUSH1 0x8 DUP1 SLOAD SWAP1 PUSH2 0x100 EXP SWAP1 DIV PUSH4 0xFFFFFFFF AND PUSH1 0x1 PUSH1 0x40 MLOAD DUP7 PUSH4 0xFFFFFFFF AND PUSH1 0xE0 SHL DUP2 MSTORE PUSH1 0x4 ADD PUSH2 0x1846 SWAP6 SWAP5 SWAP4 SWAP3 SWAP2 SWAP1 PUSH2 0x33F2 JUMP JUMPDEST PUSH1 0x20 PUSH1 0x40 MLOAD DUP1 DUP4 SUB DUP2 PUSH0 DUP8 GAS CALL ISZERO DUP1 ISZERO PUSH2 0x1862 JUMPI RETURNDATASIZE PUSH0 PUSH0 RETURNDATACOPY RETURNDATASIZE PUSH0 REVERT JUMPDEST POP POP POP POP PUSH1 0x40 MLOAD RETURNDATASIZE PUSH1 0x1F NOT PUSH1 0x1F DUP3 ADD AND DUP3 ADD DUP1 PUSH1 0x40 MSTORE POP DUP2 ADD SWAP1 PUSH2 0x1886 SWAP2 SWAP1 PUSH2 0x3457 JUMP JUMPDEST SWAP1 POP DUP3 PUSH1 0x9 PUSH0 DUP4 DUP2 MSTORE PUSH1 0x20 ADD SWAP1 DUP2 MSTORE PUSH1 0x20 ADD PUSH0 KECCAK256 DUP2 SWAP1 SSTORE POP PUSH1 0x1 DUP3 PUSH1 0x8 ADD PUSH1 0x1 PUSH2 0x100 EXP DUP2 SLOAD DUP2 PUSH1 0xFF MUL NOT AND SWAP1 DUP4 ISZERO ISZERO MUL OR SWAP1 SSTORE POP PUSH32 0x600253EAE67A5C51C82A7123372E8644F16009C6304E18F844CF86FDC40C24D7 DUP4 DUP3 PUSH1 0x40 MLOAD PUSH2 0x18EC SWAP3 SWAP2 SWAP1 PUSH2 0x3482 JUMP JUMPDEST PUSH1 0x40 MLOAD DUP1 SWAP2 SUB SWAP1 LOG1 POP POP POP JUMP JUMPDEST PUSH2 0x1901 PUSH2 0x21BB JUMP JUMPDEST PUSH2 0x190A PUSH0 PUSH2 0x2242 JUMP JUMPDEST JUMP JUMPDEST PUSH2 0x1914 PUSH2 0x21BB JUMP JUMPDEST PUSH1 0x2 PUSH0 DUP3 DUP2 MSTORE PUSH1 0x20 ADD SWAP1 DUP2 MSTORE PUSH1 0x20 ADD PUSH0 KECCAK256 PUSH0 PUSH0 DUP3 ADD PUSH0 PUSH2 0x100 EXP DUP2 SLOAD SWAP1 PUSH20 0xFFFFFFFFFFFFFFFFFFFFFFFFFFFFFFFFFFFFFFFF MUL NOT AND SWAP1 SSTORE PUSH1 0x1 DUP3 ADD PUSH0 SWAP1 SSTORE PUSH1 0x2 DUP3 ADD PUSH0 SWAP1 SSTORE PUSH1 0x3 DUP3 ADD PUSH0 SWAP1 SSTORE PUSH1 0x4 DUP3 ADD PUSH0 SWAP1 SSTORE PUSH1 0x5 DUP3 ADD PUSH0 SWAP1 SSTORE PUSH1 0x6 DUP3 ADD PUSH0 SWAP1 SSTORE PUSH1 0x7 DUP3 ADD PUSH0 SWAP1 SSTORE PUSH1 0x8 DUP3 ADD PUSH0 PUSH2 0x100 EXP DUP2 SLOAD SWAP1 PUSH1 0xFF MUL NOT AND SWAP1 SSTORE PUSH1 0x8 DUP3 ADD PUSH1 0x1 PUSH2 0x100 EXP DUP2 SLOAD SWAP1 PUSH1 0xFF MUL NOT AND SWAP1 SSTORE PUSH1 0x8 DUP3 ADD PUSH1 0x2 PUSH2 0x100 EXP DUP2 SLOAD SWAP1 PUSH1 0xFF MUL NOT AND SWAP1 SSTORE PUSH1 0x9 DUP3 ADD PUSH0 PUSH2 0x19C6 SWAP2 SWAP1 PUSH2 0x244C JUMP JUMPDEST PUSH1 0xA DUP3 ADD PUSH0 PUSH2 0x100 EXP DUP2 SLOAD SWAP1 PUSH20 0xFFFFFFFFFFFFFFFFFFFFFFFFFFFFFFFFFFFFFFFF MUL NOT AND SWAP1 SSTORE POP POP POP JUMP JUMPDEST PUSH0 PUSH0 PUSH2 0x19FB PUSH2 0x2313 JUMP JUMPDEST SWAP1 POP DUP1 PUSH0 ADD PUSH0 SWAP1 SLOAD SWAP1 PUSH2 0x100 EXP SWAP1 DIV PUSH20 0xFFFFFFFFFFFFFFFFFFFFFFFFFFFFFFFFFFFFFFFF AND SWAP2 POP POP SWAP1 JUMP JUMPDEST PUSH1 0x4 PUSH0 SWAP1 SLOAD SWAP1 PUSH2 0x100 EXP SWAP1 DIV PUSH20 0xFFFFFFFFFFFFFFFFFFFFFFFFFFFFFFFFFFFFFFFF AND DUP2 JUMP JUMPDEST PUSH1 0x60 PUSH1 0x2 PUSH0 DUP4 DUP2 MSTORE PUSH1 0x20 ADD SWAP1 DUP2 MSTORE PUSH1 0x20 ADD PUSH0 KECCAK256 PUSH1 0x9 ADD DUP1 SLOAD DUP1 PUSH1 0x20 MUL PUSH1 0x20 ADD PUSH1 0x40 MLOAD SWAP1 DUP2 ADD PUSH1 0x40 MSTORE DUP1 SWAP3 SWAP2 SWAP1 DUP2 DUP2 MSTORE PUSH1 0x20 ADD DUP3 DUP1 SLOAD DUP1 ISZERO PUSH2 0x1ADE JUMPI PUSH1 0x20 MUL DUP3 ADD SWAP2 SWAP1 PUSH0 MSTORE PUSH1 0x20 PUSH0 KECCAK256 SWAP1 JUMPDEST DUP2 PUSH0 SWAP1 SLOAD SWAP1 PUSH2 0x100 EXP SWAP1 DIV PUSH20 0xFFFFFFFFFFFFFFFFFFFFFFFFFFFFFFFFFFFFFFFF AND PUSH20 0xFFFFFFFFFFFFFFFFFFFFFFFFFFFFFFFFFFFFFFFF AND DUP2 MSTORE PUSH1 0x20 ADD SWAP1 PUSH1 0x1 ADD SWAP1 DUP1 DUP4 GT PUSH2 0x1A95 JUMPI JUMPDEST POP POP POP POP POP SWAP1 POP SWAP2 SWAP1 POP JUMP JUMPDEST PUSH2 0x1AF2 PUSH2 0x2165 JUMP JUMPDEST PUSH0 PUSH1 0x2 PUSH0 DUP4 DUP2 MSTORE PUSH1 0x20 ADD SWAP1 DUP2 MSTORE PUSH1 0x20 ADD PUSH0 KECCAK256 SWAP1 POP CALLER PUSH20 0xFFFFFFFFFFFFFFFFFFFFFFFFFFFFFFFFFFFFFFFF AND DUP2 PUSH1 0xA ADD PUSH0 SWAP1 SLOAD SWAP1 PUSH2 0x100 EXP SWAP1 DIV PUSH20 0xFFFFFFFFFFFFFFFFFFFFFFFFFFFFFFFFFFFFFFFF AND PUSH20 0xFFFFFFFFFFFFFFFFFFFFFFFFFFFFFFFFFFFFFFFF AND EQ PUSH2 0x1B97 JUMPI PUSH1 0x40 MLOAD PUSH32 0x8C379A000000000000000000000000000000000000000000000000000000000 DUP2 MSTORE PUSH1 0x4 ADD PUSH2 0x1B8E SWAP1 PUSH2 0x34F3 JUMP JUMPDEST PUSH1 0x40 MLOAD DUP1 SWAP2 SUB SWAP1 REVERT JUMPDEST DUP1 PUSH1 0xB ADD PUSH0 CALLER PUSH20 0xFFFFFFFFFFFFFFFFFFFFFFFFFFFFFFFFFFFFFFFF AND PUSH20 0xFFFFFFFFFFFFFFFFFFFFFFFFFFFFFFFFFFFFFFFF AND DUP2 MSTORE PUSH1 0x20 ADD SWAP1 DUP2 MSTORE PUSH1 0x20 ADD PUSH0 KECCAK256 PUSH0 SWAP1 SLOAD SWAP1 PUSH2 0x100 EXP SWAP1 DIV PUSH1 0xFF AND ISZERO PUSH2 0x1C23 JUMPI PUSH1 0x40 MLOAD PUSH32 0x8C379A000000000000000000000000000000000000000000000000000000000 DUP2 MSTORE PUSH1 0x4 ADD PUSH2 0x1C1A SWAP1 PUSH2 0x355B JUMP JUMPDEST PUSH1 0x40 MLOAD DUP1 SWAP2 SUB SWAP1 REVERT JUMPDEST PUSH1 0x1 DUP2 PUSH1 0xB ADD PUSH0 CALLER PUSH20 0xFFFFFFFFFFFFFFFFFFFFFFFFFFFFFFFFFFFFFFFF AND PUSH20 0xFFFFFFFFFFFFFFFFFFFFFFFFFFFFFFFFFFFFFFFF AND DUP2 MSTORE PUSH1 0x20 ADD SWAP1 DUP2 MSTORE PUSH1 0x20 ADD PUSH0 KECCAK256 PUSH0 PUSH2 0x100 EXP DUP2 SLOAD DUP2 PUSH1 0xFF MUL NOT AND SWAP1 DUP4 ISZERO ISZERO MUL OR SWAP1 SSTORE POP DUP1 PUSH0 ADD PUSH0 SWAP1 SLOAD SWAP1 PUSH2 0x100 EXP SWAP1 DIV PUSH20 0xFFFFFFFFFFFFFFFFFFFFFFFFFFFFFFFFFFFFFFFF AND PUSH20 0xFFFFFFFFFFFFFFFFFFFFFFFFFFFFFFFFFFFFFFFF AND PUSH4 0xA9059CBB CALLER DUP4 PUSH1 0x5 ADD SLOAD PUSH1 0x40 MLOAD DUP4 PUSH4 0xFFFFFFFF AND PUSH1 0xE0 SHL DUP2 MSTORE PUSH1 0x4 ADD PUSH2 0x1CDB SWAP3 SWAP2 SWAP1 PUSH2 0x3273 JUMP JUMPDEST PUSH1 0x20 PUSH1 0x40 MLOAD DUP1 DUP4 SUB DUP2 PUSH0 DUP8 GAS CALL ISZERO DUP1 ISZERO PUSH2 0x1CF7 JUMPI RETURNDATASIZE PUSH0 PUSH0 RETURNDATACOPY RETURNDATASIZE PUSH0 REVERT JUMPDEST POP POP POP POP PUSH1 0x40 MLOAD RETURNDATASIZE PUSH1 0x1F NOT PUSH1 0x1F DUP3 ADD AND DUP3 ADD DUP1 PUSH1 0x40 MSTORE POP DUP2 ADD SWAP1 PUSH2 0x1D1B SWAP2 SWAP1 PUSH2 0x2F02 JUMP JUMPDEST POP POP PUSH2 0x1D25 PUSH2 0x21B2 JUMP JUMPDEST POP JUMP JUMPDEST PUSH2 0x1D30 PUSH2 0x21BB JUMP JUMPDEST PUSH0 PUSH20 0xFFFFFFFFFFFFFFFFFFFFFFFFFFFFFFFFFFFFFFFF AND DUP2 PUSH20 0xFFFFFFFFFFFFFFFFFFFFFFFFFFFFFFFFFFFFFFFF AND SUB PUSH2 0x1DA0 JUMPI PUSH0 PUSH1 0x40 MLOAD PUSH32 0x1E4FBDF700000000000000000000000000000000000000000000000000000000 DUP2 MSTORE PUSH1 0x4 ADD PUSH2 0x1D97 SWAP2 SWAP1 PUSH2 0x27D7 JUMP JUMPDEST PUSH1 0x40 MLOAD DUP1 SWAP2 SUB SWAP1 REVERT JUMPDEST PUSH2 0x1DA9 DUP2 PUSH2 0x2242 JUMP JUMPDEST POP JUMP JUMPDEST PUSH0 PUSH1 0x9 PUSH0 DUP5 DUP2 MSTORE PUSH1 0x20 ADD SWAP1 DUP2 MSTORE PUSH1 0x20 ADD PUSH0 KECCAK256 SLOAD SWAP1 POP PUSH0 PUSH1 0x2 PUSH0 DUP4 DUP2 MSTORE PUSH1 0x20 ADD SWAP1 DUP2 MSTORE PUSH1 0x20 ADD PUSH0 KECCAK256 SWAP1 POP DUP1 PUSH1 0x8 ADD PUSH1 0x1 SWAP1 SLOAD SWAP1 PUSH2 0x100 EXP SWAP1 DIV PUSH1 0xFF AND DUP1 ISZERO PUSH2 0x1E41 JUMPI POP PUSH0 PUSH20 0xFFFFFFFFFFFFFFFFFFFFFFFFFFFFFFFFFFFFFFFF AND DUP2 PUSH1 0xA ADD PUSH0 SWAP1 SLOAD SWAP1 PUSH2 0x100 EXP SWAP1 DIV PUSH20 0xFFFFFFFFFFFFFFFFFFFFFFFFFFFFFFFFFFFFFFFF AND PUSH20 0xFFFFFFFFFFFFFFFFFFFFFFFFFFFFFFFFFFFFFFFF AND EQ JUMPDEST PUSH2 0x1E80 JUMPI PUSH1 0x40 MLOAD PUSH32 0x8C379A000000000000000000000000000000000000000000000000000000000 DUP2 MSTORE PUSH1 0x4 ADD PUSH2 0x1E77 SWAP1 PUSH2 0x35C3 JUMP JUMPDEST PUSH1 0x40 MLOAD DUP1 SWAP2 SUB SWAP1 REVERT JUMPDEST PUSH0 DUP2 PUSH1 0x9 ADD DUP1 SLOAD SWAP1 POP DUP5 PUSH0 DUP2 MLOAD DUP2 LT PUSH2 0x1E9C JUMPI PUSH2 0x1E9B PUSH2 0x2CDE JUMP JUMPDEST JUMPDEST PUSH1 0x20 MUL PUSH1 0x20 ADD ADD MLOAD PUSH2 0x1EAE SWAP2 SWAP1 PUSH2 0x360E JUMP JUMPDEST SWAP1 POP DUP2 PUSH1 0x9 ADD DUP2 DUP2 SLOAD DUP2 LT PUSH2 0x1EC6 JUMPI PUSH2 0x1EC5 PUSH2 0x2CDE JUMP JUMPDEST JUMPDEST SWAP1 PUSH0 MSTORE PUSH1 0x20 PUSH0 KECCAK256 ADD PUSH0 SWAP1 SLOAD SWAP1 PUSH2 0x100 EXP SWAP1 DIV PUSH20 0xFFFFFFFFFFFFFFFFFFFFFFFFFFFFFFFFFFFFFFFF AND DUP3 PUSH1 0xA ADD PUSH0 PUSH2 0x100 EXP DUP2 SLOAD DUP2 PUSH20 0xFFFFFFFFFFFFFFFFFFFFFFFFFFFFFFFFFFFFFFFF MUL NOT AND SWAP1 DUP4 PUSH20 0xFFFFFFFFFFFFFFFFFFFFFFFFFFFFFFFFFFFFFFFF AND MUL OR SWAP1 SSTORE POP PUSH0 DUP3 PUSH0 ADD PUSH0 SWAP1 SLOAD SWAP1 PUSH2 0x100 EXP SWAP1 DIV PUSH20 0xFFFFFFFFFFFFFFFFFFFFFFFFFFFFFFFFFFFFFFFF AND SWAP1 POP DUP1 PUSH20 0xFFFFFFFFFFFFFFFFFFFFFFFFFFFFFFFFFFFFFFFF AND PUSH4 0xA9059CBB PUSH1 0x4 PUSH0 SWAP1 SLOAD SWAP1 PUSH2 0x100 EXP SWAP1 DIV PUSH20 0xFFFFFFFFFFFFFFFFFFFFFFFFFFFFFFFFFFFFFFFF AND DUP6 PUSH1 0x6 ADD SLOAD PUSH1 0x40 MLOAD DUP4 PUSH4 0xFFFFFFFF AND PUSH1 0xE0 SHL DUP2 MSTORE PUSH1 0x4 ADD PUSH2 0x1FB5 SWAP3 SWAP2 SWAP1 PUSH2 0x3273 JUMP JUMPDEST PUSH1 0x20 PUSH1 0x40 MLOAD DUP1 DUP4 SUB DUP2 PUSH0 DUP8 GAS CALL ISZERO DUP1 ISZERO PUSH2 0x1FD1 JUMPI RETURNDATASIZE PUSH0 PUSH0 RETURNDATACOPY RETURNDATASIZE PUSH0 REVERT JUMPDEST POP POP POP POP PUSH1 0x40 MLOAD RETURNDATASIZE PUSH1 0x1F NOT PUSH1 0x1F DUP3 ADD AND DUP3 ADD DUP1 PUSH1 0x40 MSTORE POP DUP2 ADD SWAP1 PUSH2 0x1FF5 SWAP2 SWAP1 PUSH2 0x2F02 JUMP JUMPDEST POP DUP1 PUSH20 0xFFFFFFFFFFFFFFFFFFFFFFFFFFFFFFFFFFFFFFFF AND PUSH4 0xA9059CBB PUSH1 0x5 PUSH0 SWAP1 SLOAD SWAP1 PUSH2 0x100 EXP SWAP1 DIV PUSH20 0xFFFFFFFFFFFFFFFFFFFFFFFFFFFFFFFFFFFFFFFF AND DUP6 PUSH1 0x7 ADD SLOAD PUSH1 0x40 MLOAD DUP4 PUSH4 0xFFFFFFFF AND PUSH1 0xE0 SHL DUP2 MSTORE PUSH1 0x4 ADD PUSH2 0x2056 SWAP3 SWAP2 SWAP1 PUSH2 0x3273 JUMP JUMPDEST PUSH1 0x20 PUSH1 0x40 MLOAD DUP1 DUP4 SUB DUP2 PUSH0 DUP8 GAS CALL ISZERO DUP1 ISZERO PUSH2 0x2072 JUMPI RETURNDATASIZE PUSH0 PUSH0 RETURNDATACOPY RETURNDATASIZE PUSH0 REVERT JUMPDEST POP POP POP POP PUSH1 0x40 MLOAD RETURNDATASIZE PUSH1 0x1F NOT PUSH1 0x1F DUP3 ADD AND DUP3 ADD DUP1 PUSH1 0x40 MSTORE POP DUP2 ADD SWAP1 PUSH2 0x2096 SWAP2 SWAP1 PUSH2 0x2F02 JUMP JUMPDEST POP PUSH32 0x3FB57EB449654E24E1B240D3D06702CF79362A065D5C0323AEE642D4702FA4B DUP5 DUP5 PUSH1 0xA ADD PUSH0 SWAP1 SLOAD SWAP1 PUSH2 0x100 EXP SWAP1 DIV PUSH20 0xFFFFFFFFFFFFFFFFFFFFFFFFFFFFFFFFFFFFFFFF AND PUSH1 0x40 MLOAD PUSH2 0x20EB SWAP3 SWAP2 SWAP1 PUSH2 0x2F2D JUMP JUMPDEST PUSH1 0x40 MLOAD DUP1 SWAP2 SUB SWAP1 LOG1 POP POP POP POP POP POP JUMP JUMPDEST PUSH0 PUSH0 PUSH2 0x2105 PUSH2 0x233A JUMP JUMPDEST SWAP1 POP DUP1 SWAP2 POP POP SWAP1 JUMP JUMPDEST PUSH2 0x2116 PUSH2 0x2363 JUMP JUMPDEST PUSH2 0x211F DUP2 PUSH2 0x23A3 JUMP JUMPDEST POP JUMP JUMPDEST DUP1 PUSH1 0x1 PUSH0 PUSH2 0x100 EXP DUP2 SLOAD DUP2 PUSH20 0xFFFFFFFFFFFFFFFFFFFFFFFFFFFFFFFFFFFFFFFF MUL NOT AND SWAP1 DUP4 PUSH20 0xFFFFFFFFFFFFFFFFFFFFFFFFFFFFFFFFFFFFFFFF AND MUL OR SWAP1 SSTORE POP POP JUMP JUMPDEST PUSH1 0x2 PUSH0 SLOAD SUB PUSH2 0x21A9 JUMPI PUSH1 0x40 MLOAD PUSH32 0x8C379A000000000000000000000000000000000000000000000000000000000 DUP2 MSTORE PUSH1 0x4 ADD PUSH2 0x21A0 SWAP1 PUSH2 0x3688 JUMP JUMPDEST PUSH1 0x40 MLOAD DUP1 SWAP2 SUB SWAP1 REVERT JUMPDEST PUSH1 0x2 PUSH0 DUP2 SWAP1 SSTORE POP JUMP JUMPDEST PUSH1 0x1 PUSH0 DUP2 SWAP1 SSTORE POP JUMP JUMPDEST PUSH2 0x21C3 PUSH2 0x2427 JUMP JUMPDEST PUSH20 0xFFFFFFFFFFFFFFFFFFFFFFFFFFFFFFFFFFFFFFFF AND PUSH2 0x21E1 PUSH2 0x19F1 JUMP JUMPDEST PUSH20 0xFFFFFFFFFFFFFFFFFFFFFFFFFFFFFFFFFFFFFFFF AND EQ PUSH2 0x2240 JUMPI PUSH2 0x2204 PUSH2 0x2427 JUMP JUMPDEST PUSH1 0x40 MLOAD PUSH32 0x118CDAA700000000000000000000000000000000000000000000000000000000 DUP2 MSTORE PUSH1 0x4 ADD PUSH2 0x2237 SWAP2 SWAP1 PUSH2 0x27D7 JUMP JUMPDEST PUSH1 0x40 MLOAD DUP1 SWAP2 SUB SWAP1 REVERT JUMPDEST JUMP JUMPDEST PUSH0 PUSH2 0x224B PUSH2 0x2313 JUMP JUMPDEST SWAP1 POP PUSH0 DUP2 PUSH0 ADD PUSH0 SWAP1 SLOAD SWAP1 PUSH2 0x100 EXP SWAP1 DIV PUSH20 0xFFFFFFFFFFFFFFFFFFFFFFFFFFFFFFFFFFFFFFFF AND SWAP1 POP DUP3 DUP3 PUSH0 ADD PUSH0 PUSH2 0x100 EXP DUP2 SLOAD DUP2 PUSH20 0xFFFFFFFFFFFFFFFFFFFFFFFFFFFFFFFFFFFFFFFF MUL NOT AND SWAP1 DUP4 PUSH20 0xFFFFFFFFFFFFFFFFFFFFFFFFFFFFFFFFFFFFFFFF AND MUL OR SWAP1 SSTORE POP DUP3 PUSH20 0xFFFFFFFFFFFFFFFFFFFFFFFFFFFFFFFFFFFFFFFF AND DUP2 PUSH20 0xFFFFFFFFFFFFFFFFFFFFFFFFFFFFFFFFFFFFFFFF AND PUSH32 0x8BE0079C531659141344CD1FD0A4F28419497F9722A3DAAFE3B4186F6B6457E0 PUSH1 0x40 MLOAD PUSH1 0x40 MLOAD DUP1 SWAP2 SUB SWAP1 LOG3 POP POP POP JUMP JUMPDEST PUSH0 PUSH32 0x9016D09D72D40FDAE2FD8CEAC6B6234C7706214FD39C1CD1E609A0528C199300 SWAP1 POP SWAP1 JUMP JUMPDEST PUSH0 PUSH32 0xF0C57E16840DF040F15088DC2F81FE391C3923BEC73E23A9662EFC9C229C6A00 PUSH0 SHL SWAP1 POP SWAP1 JUMP JUMPDEST PUSH2 0x236B PUSH2 0x242E JUMP JUMPDEST PUSH2 0x23A1 JUMPI PUSH1 0x40 MLOAD PUSH32 0xD7E6BCF800000000000000000000000000000000000000000000000000000000 DUP2 MSTORE PUSH1 0x4 ADD PUSH1 0x40 MLOAD DUP1 SWAP2 SUB SWAP1 REVERT JUMPDEST JUMP JUMPDEST PUSH2 0x23AB PUSH2 0x2363 JUMP JUMPDEST PUSH0 PUSH20 0xFFFFFFFFFFFFFFFFFFFFFFFFFFFFFFFFFFFFFFFF AND DUP2 PUSH20 0xFFFFFFFFFFFFFFFFFFFFFFFFFFFFFFFFFFFFFFFF AND SUB PUSH2 0x241B JUMPI PUSH0 PUSH1 0x40 MLOAD PUSH32 0x1E4FBDF700000000000000000000000000000000000000000000000000000000 DUP2 MSTORE PUSH1 0x4 ADD PUSH2 0x2412 SWAP2 SWAP1 PUSH2 0x27D7 JUMP JUMPDEST PUSH1 0x40 MLOAD DUP1 SWAP2 SUB SWAP1 REVERT JUMPDEST PUSH2 0x2424 DUP2 PUSH2 0x2242 JUMP JUMPDEST POP JUMP JUMPDEST PUSH0 CALLER SWAP1 POP SWAP1 JUMP JUMPDEST PUSH0 PUSH2 0x2437 PUSH2 0x20FB JUMP JUMPDEST PUSH0 ADD PUSH1 0x8 SWAP1 SLOAD SWAP1 PUSH2 0x100 EXP SWAP1 DIV PUSH1 0xFF AND SWAP1 POP SWAP1 JUMP JUMPDEST POP DUP1 SLOAD PUSH0 DUP3 SSTORE SWAP1 PUSH0 MSTORE PUSH1 0x20 PUSH0 KECCAK256 SWAP1 DUP2 ADD SWAP1 PUSH2 0x2467 SWAP2 SWAP1 PUSH2 0x246A JUMP JUMPDEST POP JUMP JUMPDEST JUMPDEST DUP1 DUP3 GT ISZERO PUSH2 0x2481 JUMPI PUSH0 DUP2 PUSH0 SWAP1 SSTORE POP PUSH1 0x1 ADD PUSH2 0x246B JUMP JUMPDEST POP SWAP1 JUMP JUMPDEST PUSH0 PUSH1 0x40 MLOAD SWAP1 POP SWAP1 JUMP JUMPDEST PUSH0 PUSH0 REVERT JUMPDEST PUSH0 PUSH0 REVERT JUMPDEST PUSH0 DUP2 SWAP1 POP SWAP2 SWAP1 POP JUMP JUMPDEST PUSH2 0x24A8 DUP2 PUSH2 0x2496 JUMP JUMPDEST DUP2 EQ PUSH2 0x24B2 JUMPI PUSH0 PUSH0 REVERT JUMPDEST POP JUMP JUMPDEST PUSH0 DUP2 CALLDATALOAD SWAP1 POP PUSH2 0x24C3 DUP2 PUSH2 0x249F JUMP JUMPDEST SWAP3 SWAP2 POP POP JUMP JUMPDEST PUSH0 PUSH1 0x20 DUP3 DUP5 SUB SLT ISZERO PUSH2 0x24DE JUMPI PUSH2 0x24DD PUSH2 0x248E JUMP JUMPDEST JUMPDEST PUSH0 PUSH2 0x24EB DUP5 DUP3 DUP6 ADD PUSH2 0x24B5 JUMP JUMPDEST SWAP2 POP POP SWAP3 SWAP2 POP POP JUMP JUMPDEST PUSH0 PUSH20 0xFFFFFFFFFFFFFFFFFFFFFFFFFFFFFFFFFFFFFFFF DUP3 AND SWAP1 POP SWAP2 SWAP1 POP JUMP JUMPDEST PUSH0 PUSH2 0x251D DUP3 PUSH2 0x24F4 JUMP JUMPDEST SWAP1 POP SWAP2 SWAP1 POP JUMP JUMPDEST PUSH2 0x252D DUP2 PUSH2 0x2513 JUMP JUMPDEST DUP3 MSTORE POP POP JUMP JUMPDEST PUSH2 0x253C DUP2 PUSH2 0x2496 JUMP JUMPDEST DUP3 MSTORE POP POP JUMP JUMPDEST PUSH0 DUP2 ISZERO ISZERO SWAP1 POP SWAP2 SWAP1 POP JUMP JUMPDEST PUSH2 0x2556 DUP2 PUSH2 0x2542 JUMP JUMPDEST DUP3 MSTORE POP POP JUMP JUMPDEST PUSH0 PUSH2 0x180 DUP3 ADD SWAP1 POP PUSH2 0x2570 PUSH0 DUP4 ADD DUP16 PUSH2 0x2524 JUMP JUMPDEST PUSH2 0x257D PUSH1 0x20 DUP4 ADD DUP15 PUSH2 0x2533 JUMP JUMPDEST PUSH2 0x258A PUSH1 0x40 DUP4 ADD DUP14 PUSH2 0x2533 JUMP JUMPDEST PUSH2 0x2597 PUSH1 0x60 DUP4 ADD DUP13 PUSH2 0x2533 JUMP JUMPDEST PUSH2 0x25A4 PUSH1 0x80 DUP4 ADD DUP12 PUSH2 0x2533 JUMP JUMPDEST PUSH2 0x25B1 PUSH1 0xA0 DUP4 ADD DUP11 PUSH2 0x2533 JUMP JUMPDEST PUSH2 0x25BE PUSH1 0xC0 DUP4 ADD DUP10 PUSH2 0x2533 JUMP JUMPDEST PUSH2 0x25CB PUSH1 0xE0 DUP4 ADD DUP9 PUSH2 0x2533 JUMP JUMPDEST PUSH2 0x25D9 PUSH2 0x100 DUP4 ADD DUP8 PUSH2 0x254D JUMP JUMPDEST PUSH2 0x25E7 PUSH2 0x120 DUP4 ADD DUP7 PUSH2 0x254D JUMP JUMPDEST PUSH2 0x25F5 PUSH2 0x140 DUP4 ADD DUP6 PUSH2 0x254D JUMP JUMPDEST PUSH2 0x2603 PUSH2 0x160 DUP4 ADD DUP5 PUSH2 0x2524 JUMP JUMPDEST SWAP14 SWAP13 POP POP POP POP POP POP POP POP POP POP POP POP POP JUMP JUMPDEST PUSH0 PUSH1 0x20 DUP3 ADD SWAP1 POP PUSH2 0x2627 PUSH0 DUP4 ADD DUP5 PUSH2 0x2533 JUMP JUMPDEST SWAP3 SWAP2 POP POP JUMP JUMPDEST PUSH0 PUSH0 REVERT JUMPDEST PUSH0 PUSH1 0x1F NOT PUSH1 0x1F DUP4 ADD AND SWAP1 POP SWAP2 SWAP1 POP JUMP JUMPDEST PUSH32 0x4E487B7100000000000000000000000000000000000000000000000000000000 PUSH0 MSTORE PUSH1 0x41 PUSH1 0x4 MSTORE PUSH1 0x24 PUSH0 REVERT JUMPDEST PUSH2 0x2677 DUP3 PUSH2 0x2631 JUMP JUMPDEST DUP2 ADD DUP2 DUP2 LT PUSH8 0xFFFFFFFFFFFFFFFF DUP3 GT OR ISZERO PUSH2 0x2696 JUMPI PUSH2 0x2695 PUSH2 0x2641 JUMP JUMPDEST JUMPDEST DUP1 PUSH1 0x40 MSTORE POP POP POP JUMP JUMPDEST PUSH0 PUSH2 0x26A8 PUSH2 0x2485 JUMP JUMPDEST SWAP1 POP PUSH2 0x26B4 DUP3 DUP3 PUSH2 0x266E JUMP JUMPDEST SWAP2 SWAP1 POP JUMP JUMPDEST PUSH0 PUSH8 0xFFFFFFFFFFFFFFFF DUP3 GT ISZERO PUSH2 0x26D3 JUMPI PUSH2 0x26D2 PUSH2 0x2641 JUMP JUMPDEST JUMPDEST PUSH1 0x20 DUP3 MUL SWAP1 POP PUSH1 0x20 DUP2 ADD SWAP1 POP SWAP2 SWAP1 POP JUMP JUMPDEST PUSH0 PUSH0 REVERT JUMPDEST PUSH0 PUSH2 0x26FA PUSH2 0x26F5 DUP5 PUSH2 0x26B9 JUMP JUMPDEST PUSH2 0x269F JUMP JUMPDEST SWAP1 POP DUP1 DUP4 DUP3 MSTORE PUSH1 0x20 DUP3 ADD SWAP1 POP PUSH1 0x20 DUP5 MUL DUP4 ADD DUP6 DUP2 GT ISZERO PUSH2 0x271D JUMPI PUSH2 0x271C PUSH2 0x26E4 JUMP JUMPDEST JUMPDEST DUP4 JUMPDEST DUP2 DUP2 LT ISZERO PUSH2 0x2746 JUMPI DUP1 PUSH2 0x2732 DUP9 DUP3 PUSH2 0x24B5 JUMP JUMPDEST DUP5 MSTORE PUSH1 0x20 DUP5 ADD SWAP4 POP POP PUSH1 0x20 DUP2 ADD SWAP1 POP PUSH2 0x271F JUMP JUMPDEST POP POP POP SWAP4 SWAP3 POP POP POP JUMP JUMPDEST PUSH0 DUP3 PUSH1 0x1F DUP4 ADD SLT PUSH2 0x2764 JUMPI PUSH2 0x2763 PUSH2 0x262D JUMP JUMPDEST JUMPDEST DUP2 CALLDATALOAD PUSH2 0x2774 DUP5 DUP3 PUSH1 0x20 DUP7 ADD PUSH2 0x26E8 JUMP JUMPDEST SWAP2 POP POP SWAP3 SWAP2 POP POP JUMP JUMPDEST PUSH0 PUSH0 PUSH1 0x40 DUP4 DUP6 SUB SLT ISZERO PUSH2 0x2793 JUMPI PUSH2 0x2792 PUSH2 0x248E JUMP JUMPDEST JUMPDEST PUSH0 PUSH2 0x27A0 DUP6 DUP3 DUP7 ADD PUSH2 0x24B5 JUMP JUMPDEST SWAP3 POP POP PUSH1 0x20 DUP4 ADD CALLDATALOAD PUSH8 0xFFFFFFFFFFFFFFFF DUP2 GT ISZERO PUSH2 0x27C1 JUMPI PUSH2 0x27C0 PUSH2 0x2492 JUMP JUMPDEST JUMPDEST PUSH2 0x27CD DUP6 DUP3 DUP7 ADD PUSH2 0x2750 JUMP JUMPDEST SWAP2 POP POP SWAP3 POP SWAP3 SWAP1 POP JUMP JUMPDEST PUSH0 PUSH1 0x20 DUP3 ADD SWAP1 POP PUSH2 0x27EA PUSH0 DUP4 ADD DUP5 PUSH2 0x2524 JUMP JUMPDEST SWAP3 SWAP2 POP POP JUMP JUMPDEST PUSH2 0x27F9 DUP2 PUSH2 0x2513 JUMP JUMPDEST DUP2 EQ PUSH2 0x2803 JUMPI PUSH0 PUSH0 REVERT JUMPDEST POP JUMP JUMPDEST PUSH0 DUP2 CALLDATALOAD SWAP1 POP PUSH2 0x2814 DUP2 PUSH2 0x27F0 JUMP JUMPDEST SWAP3 SWAP2 POP POP JUMP JUMPDEST PUSH0 DUP2 SWAP1 POP SWAP2 SWAP1 POP JUMP JUMPDEST PUSH2 0x282C DUP2 PUSH2 0x281A JUMP JUMPDEST DUP2 EQ PUSH2 0x2836 JUMPI PUSH0 PUSH0 REVERT JUMPDEST POP JUMP JUMPDEST PUSH0 DUP2 CALLDATALOAD SWAP1 POP PUSH2 0x2847 DUP2 PUSH2 0x2823 JUMP JUMPDEST SWAP3 SWAP2 POP POP JUMP JUMPDEST PUSH0 PUSH8 0xFFFFFFFFFFFFFFFF DUP3 AND SWAP1 POP SWAP2 SWAP1 POP JUMP JUMPDEST PUSH2 0x2869 DUP2 PUSH2 0x284D JUMP JUMPDEST DUP2 EQ PUSH2 0x2873 JUMPI PUSH0 PUSH0 REVERT JUMPDEST POP JUMP JUMPDEST PUSH0 DUP2 CALLDATALOAD SWAP1 POP PUSH2 0x2884 DUP2 PUSH2 0x2860 JUMP JUMPDEST SWAP3 SWAP2 POP POP JUMP JUMPDEST PUSH0 PUSH0 PUSH0 PUSH0 PUSH0 PUSH1 0xA0 DUP7 DUP9 SUB SLT ISZERO PUSH2 0x28A3 JUMPI PUSH2 0x28A2 PUSH2 0x248E JUMP JUMPDEST JUMPDEST PUSH0 PUSH2 0x28B0 DUP9 DUP3 DUP10 ADD PUSH2 0x2806 JUMP JUMPDEST SWAP6 POP POP PUSH1 0x20 PUSH2 0x28C1 DUP9 DUP3 DUP10 ADD PUSH2 0x2839 JUMP JUMPDEST SWAP5 POP POP PUSH1 0x40 PUSH2 0x28D2 DUP9 DUP3 DUP10 ADD PUSH2 0x2876 JUMP JUMPDEST SWAP4 POP POP PUSH1 0x60 PUSH2 0x28E3 DUP9 DUP3 DUP10 ADD PUSH2 0x2806 JUMP JUMPDEST SWAP3 POP POP PUSH1 0x80 PUSH2 0x28F4 DUP9 DUP3 DUP10 ADD PUSH2 0x2806 JUMP JUMPDEST SWAP2 POP POP SWAP3 SWAP6 POP SWAP3 SWAP6 SWAP1 SWAP4 POP JUMP JUMPDEST PUSH0 PUSH0 PUSH1 0x40 DUP4 DUP6 SUB SLT ISZERO PUSH2 0x2917 JUMPI PUSH2 0x2916 PUSH2 0x248E JUMP JUMPDEST JUMPDEST PUSH0 PUSH2 0x2924 DUP6 DUP3 DUP7 ADD PUSH2 0x24B5 JUMP JUMPDEST SWAP3 POP POP PUSH1 0x20 PUSH2 0x2935 DUP6 DUP3 DUP7 ADD PUSH2 0x24B5 JUMP JUMPDEST SWAP2 POP POP SWAP3 POP SWAP3 SWAP1 POP JUMP JUMPDEST PUSH0 PUSH0 PUSH0 PUSH0 PUSH0 PUSH0 PUSH0 PUSH0 PUSH2 0x100 DUP10 DUP12 SUB SLT ISZERO PUSH2 0x295C JUMPI PUSH2 0x295B PUSH2 0x248E JUMP JUMPDEST JUMPDEST PUSH0 PUSH2 0x2969 DUP12 DUP3 DUP13 ADD PUSH2 0x2806 JUMP JUMPDEST SWAP9 POP POP PUSH1 0x20 PUSH2 0x297A DUP12 DUP3 DUP13 ADD PUSH2 0x24B5 JUMP JUMPDEST SWAP8 POP POP PUSH1 0x40 PUSH2 0x298B DUP12 DUP3 DUP13 ADD PUSH2 0x24B5 JUMP JUMPDEST SWAP7 POP POP PUSH1 0x60 PUSH2 0x299C DUP12 DUP3 DUP13 ADD PUSH2 0x24B5 JUMP JUMPDEST SWAP6 POP POP PUSH1 0x80 PUSH2 0x29AD DUP12 DUP3 DUP13 ADD PUSH2 0x24B5 JUMP JUMPDEST SWAP5 POP POP PUSH1 0xA0 PUSH2 0x29BE DUP12 DUP3 DUP13 ADD PUSH2 0x24B5 JUMP JUMPDEST SWAP4 POP POP PUSH1 0xC0 PUSH2 0x29CF DUP12 DUP3 DUP13 ADD PUSH2 0x24B5 JUMP JUMPDEST SWAP3 POP POP PUSH1 0xE0 PUSH2 0x29E0 DUP12 DUP3 DUP13 ADD PUSH2 0x24B5 JUMP JUMPDEST SWAP2 POP POP SWAP3 SWAP6 SWAP9 POP SWAP3 SWAP6 SWAP9 SWAP1 SWAP4 SWAP7 POP JUMP JUMPDEST PUSH0 PUSH0 PUSH1 0x40 DUP4 DUP6 SUB SLT ISZERO PUSH2 0x2A06 JUMPI PUSH2 0x2A05 PUSH2 0x248E JUMP JUMPDEST JUMPDEST PUSH0 PUSH2 0x2A13 DUP6 DUP3 DUP7 ADD PUSH2 0x2806 JUMP JUMPDEST SWAP3 POP POP PUSH1 0x20 PUSH2 0x2A24 DUP6 DUP3 DUP7 ADD PUSH2 0x2806 JUMP JUMPDEST SWAP2 POP POP SWAP3 POP SWAP3 SWAP1 POP JUMP JUMPDEST PUSH0 DUP2 MLOAD SWAP1 POP SWAP2 SWAP1 POP JUMP JUMPDEST PUSH0 DUP3 DUP3 MSTORE PUSH1 0x20 DUP3 ADD SWAP1 POP SWAP3 SWAP2 POP POP JUMP JUMPDEST PUSH0 DUP2 SWAP1 POP PUSH1 0x20 DUP3 ADD SWAP1 POP SWAP2 SWAP1 POP JUMP JUMPDEST PUSH2 0x2A60 DUP2 PUSH2 0x2513 JUMP JUMPDEST DUP3 MSTORE POP POP JUMP JUMPDEST PUSH0 PUSH2 0x2A71 DUP4 DUP4 PUSH2 0x2A57 JUMP JUMPDEST PUSH1 0x20 DUP4 ADD SWAP1 POP SWAP3 SWAP2 POP POP JUMP JUMPDEST PUSH0 PUSH1 0x20 DUP3 ADD SWAP1 POP SWAP2 SWAP1 POP JUMP JUMPDEST PUSH0 PUSH2 0x2A93 DUP3 PUSH2 0x2A2E JUMP JUMPDEST PUSH2 0x2A9D DUP2 DUP6 PUSH2 0x2A38 JUMP JUMPDEST SWAP4 POP PUSH2 0x2AA8 DUP4 PUSH2 0x2A48 JUMP JUMPDEST DUP1 PUSH0 JUMPDEST DUP4 DUP2 LT ISZERO PUSH2 0x2AD8 JUMPI DUP2 MLOAD PUSH2 0x2ABF DUP9 DUP3 PUSH2 0x2A66 JUMP JUMPDEST SWAP8 POP PUSH2 0x2ACA DUP4 PUSH2 0x2A7D JUMP JUMPDEST SWAP3 POP POP PUSH1 0x1 DUP2 ADD SWAP1 POP PUSH2 0x2AAB JUMP JUMPDEST POP DUP6 SWAP4 POP POP POP POP SWAP3 SWAP2 POP POP JUMP JUMPDEST PUSH0 PUSH1 0x20 DUP3 ADD SWAP1 POP DUP2 DUP2 SUB PUSH0 DUP4 ADD MSTORE PUSH2 0x2AFD DUP2 DUP5 PUSH2 0x2A89 JUMP JUMPDEST SWAP1 POP SWAP3 SWAP2 POP POP JUMP JUMPDEST PUSH0 PUSH1 0x20 DUP3 DUP5 SUB SLT ISZERO PUSH2 0x2B1A JUMPI PUSH2 0x2B19 PUSH2 0x248E JUMP JUMPDEST JUMPDEST PUSH0 PUSH2 0x2B27 DUP5 DUP3 DUP6 ADD PUSH2 0x2806 JUMP JUMPDEST SWAP2 POP POP SWAP3 SWAP2 POP POP JUMP JUMPDEST PUSH0 PUSH1 0x40 DUP3 ADD SWAP1 POP PUSH2 0x2B43 PUSH0 DUP4 ADD DUP6 PUSH2 0x2524 JUMP JUMPDEST PUSH2 0x2B50 PUSH1 0x20 DUP4 ADD DUP5 PUSH2 0x2524 JUMP JUMPDEST SWAP4 SWAP3 POP POP POP JUMP JUMPDEST PUSH0 DUP2 SWAP1 POP SWAP2 SWAP1 POP JUMP JUMPDEST PUSH0 DUP2 SWAP1 POP SWAP2 SWAP1 POP JUMP JUMPDEST PUSH0 PUSH2 0x2B83 PUSH2 0x2B7E PUSH2 0x2B79 DUP5 PUSH2 0x2B57 JUMP JUMPDEST PUSH2 0x2B60 JUMP JUMPDEST PUSH2 0x284D JUMP JUMPDEST SWAP1 POP SWAP2 SWAP1 POP JUMP JUMPDEST PUSH2 0x2B93 DUP2 PUSH2 0x2B69 JUMP JUMPDEST DUP3 MSTORE POP POP JUMP JUMPDEST PUSH0 PUSH1 0x20 DUP3 ADD SWAP1 POP PUSH2 0x2BAC PUSH0 DUP4 ADD DUP5 PUSH2 0x2B8A JUMP JUMPDEST SWAP3 SWAP2 POP POP JUMP JUMPDEST PUSH0 DUP3 DUP3 MSTORE PUSH1 0x20 DUP3 ADD SWAP1 POP SWAP3 SWAP2 POP POP JUMP JUMPDEST PUSH32 0x526566756E64206E6F7420616C6C6F7765642066726F6D206F6C64206C6F7474 PUSH0 DUP3 ADD MSTORE PUSH32 0x6572790000000000000000000000000000000000000000000000000000000000 PUSH1 0x20 DUP3 ADD MSTORE POP JUMP JUMPDEST PUSH0 PUSH2 0x2C1C PUSH1 0x23 DUP4 PUSH2 0x2BB2 JUMP JUMPDEST SWAP2 POP PUSH2 0x2C27 DUP3 PUSH2 0x2BC2 JUMP JUMPDEST PUSH1 0x40 DUP3 ADD SWAP1 POP SWAP2 SWAP1 POP JUMP JUMPDEST PUSH0 PUSH1 0x20 DUP3 ADD SWAP1 POP DUP2 DUP2 SUB PUSH0 DUP4 ADD MSTORE PUSH2 0x2C49 DUP2 PUSH2 0x2C10 JUMP JUMPDEST SWAP1 POP SWAP2 SWAP1 POP JUMP JUMPDEST PUSH32 0x416C726561647920726566756E6465642066726F6D206F6C64206C6F74746572 PUSH0 DUP3 ADD MSTORE PUSH32 0x7900000000000000000000000000000000000000000000000000000000000000 PUSH1 0x20 DUP3 ADD MSTORE POP JUMP JUMPDEST PUSH0 PUSH2 0x2CAA PUSH1 0x21 DUP4 PUSH2 0x2BB2 JUMP JUMPDEST SWAP2 POP PUSH2 0x2CB5 DUP3 PUSH2 0x2C50 JUMP JUMPDEST PUSH1 0x40 DUP3 ADD SWAP1 POP SWAP2 SWAP1 POP JUMP JUMPDEST PUSH0 PUSH1 0x20 DUP3 ADD SWAP1 POP DUP2 DUP2 SUB PUSH0 DUP4 ADD MSTORE PUSH2 0x2CD7 DUP2 PUSH2 0x2C9E JUMP JUMPDEST SWAP1 POP SWAP2 SWAP1 POP JUMP JUMPDEST PUSH32 0x4E487B7100000000000000000000000000000000000000000000000000000000 PUSH0 MSTORE PUSH1 0x32 PUSH1 0x4 MSTORE PUSH1 0x24 PUSH0 REVERT JUMPDEST PUSH32 0x4E6F74207061727469636970616E7420696E206F6C64206C6F74746572790000 PUSH0 DUP3 ADD MSTORE POP JUMP JUMPDEST PUSH0 PUSH2 0x2D3F PUSH1 0x1E DUP4 PUSH2 0x2BB2 JUMP JUMPDEST SWAP2 POP PUSH2 0x2D4A DUP3 PUSH2 0x2D0B JUMP JUMPDEST PUSH1 0x20 DUP3 ADD SWAP1 POP SWAP2 SWAP1 POP JUMP JUMPDEST PUSH0 PUSH1 0x20 DUP3 ADD SWAP1 POP DUP2 DUP2 SUB PUSH0 DUP4 ADD MSTORE PUSH2 0x2D6C DUP2 PUSH2 0x2D33 JUMP JUMPDEST SWAP1 POP SWAP2 SWAP1 POP JUMP JUMPDEST PUSH32 0x4E6577206C6F7474657279206E6F742061637469766500000000000000000000 PUSH0 DUP3 ADD MSTORE POP JUMP JUMPDEST PUSH0 PUSH2 0x2DA7 PUSH1 0x16 DUP4 PUSH2 0x2BB2 JUMP JUMPDEST SWAP2 POP PUSH2 0x2DB2 DUP3 PUSH2 0x2D73 JUMP JUMPDEST PUSH1 0x20 DUP3 ADD SWAP1 POP SWAP2 SWAP1 POP JUMP JUMPDEST PUSH0 PUSH1 0x20 DUP3 ADD SWAP1 POP DUP2 DUP2 SUB PUSH0 DUP4 ADD MSTORE PUSH2 0x2DD4 DUP2 PUSH2 0x2D9B JUMP JUMPDEST SWAP1 POP SWAP2 SWAP1 POP JUMP JUMPDEST PUSH32 0x4E6577206C6F747465727920647261772074696D652070617373656400000000 PUSH0 DUP3 ADD MSTORE POP JUMP JUMPDEST PUSH0 PUSH2 0x2E0F PUSH1 0x1C DUP4 PUSH2 0x2BB2 JUMP JUMPDEST SWAP2 POP PUSH2 0x2E1A DUP3 PUSH2 0x2DDB JUMP JUMPDEST PUSH1 0x20 DUP3 ADD SWAP1 POP SWAP2 SWAP1 POP JUMP JUMPDEST PUSH0 PUSH1 0x20 DUP3 ADD SWAP1 POP DUP2 DUP2 SUB PUSH0 DUP4 ADD MSTORE PUSH2 0x2E3C DUP2 PUSH2 0x2E03 JUMP JUMPDEST SWAP1 POP SWAP2 SWAP1 POP JUMP JUMPDEST PUSH32 0x4E487B7100000000000000000000000000000000000000000000000000000000 PUSH0 MSTORE PUSH1 0x11 PUSH1 0x4 MSTORE PUSH1 0x24 PUSH0 REVERT JUMPDEST PUSH0 PUSH2 0x2E7A DUP3 PUSH2 0x2496 JUMP JUMPDEST SWAP2 POP PUSH2 0x2E85 DUP4 PUSH2 0x2496 JUMP JUMPDEST SWAP3 POP DUP3 DUP3 SUB SWAP1 POP DUP2 DUP2 GT ISZERO PUSH2 0x2E9D JUMPI PUSH2 0x2E9C PUSH2 0x2E43 JUMP JUMPDEST JUMPDEST SWAP3 SWAP2 POP POP JUMP JUMPDEST PUSH0 PUSH1 0x60 DUP3 ADD SWAP1 POP PUSH2 0x2EB6 PUSH0 DUP4 ADD DUP7 PUSH2 0x2524 JUMP JUMPDEST PUSH2 0x2EC3 PUSH1 0x20 DUP4 ADD DUP6 PUSH2 0x2524 JUMP JUMPDEST PUSH2 0x2ED0 PUSH1 0x40 DUP4 ADD DUP5 PUSH2 0x2533 JUMP JUMPDEST SWAP5 SWAP4 POP POP POP POP JUMP JUMPDEST PUSH2 0x2EE1 DUP2 PUSH2 0x2542 JUMP JUMPDEST DUP2 EQ PUSH2 0x2EEB JUMPI PUSH0 PUSH0 REVERT JUMPDEST POP JUMP JUMPDEST PUSH0 DUP2 MLOAD SWAP1 POP PUSH2 0x2EFC DUP2 PUSH2 0x2ED8 JUMP JUMPDEST SWAP3 SWAP2 POP POP JUMP JUMPDEST PUSH0 PUSH1 0x20 DUP3 DUP5 SUB SLT ISZERO PUSH2 0x2F17 JUMPI PUSH2 0x2F16 PUSH2 0x248E JUMP JUMPDEST JUMPDEST PUSH0 PUSH2 0x2F24 DUP5 DUP3 DUP6 ADD PUSH2 0x2EEE JUMP JUMPDEST SWAP2 POP POP SWAP3 SWAP2 POP POP JUMP JUMPDEST PUSH0 PUSH1 0x40 DUP3 ADD SWAP1 POP PUSH2 0x2F40 PUSH0 DUP4 ADD DUP6 PUSH2 0x2533 JUMP JUMPDEST PUSH2 0x2F4D PUSH1 0x20 DUP4 ADD DUP5 PUSH2 0x2524 JUMP JUMPDEST SWAP4 SWAP3 POP POP POP JUMP JUMPDEST PUSH32 0x496E616374697665206F722063616E63656C6C65640000000000000000000000 PUSH0 DUP3 ADD MSTORE POP JUMP JUMPDEST PUSH0 PUSH2 0x2F88 PUSH1 0x15 DUP4 PUSH2 0x2BB2 JUMP JUMPDEST SWAP2 POP PUSH2 0x2F93 DUP3 PUSH2 0x2F54 JUMP JUMPDEST PUSH1 0x20 DUP3 ADD SWAP1 POP SWAP2 SWAP1 POP JUMP JUMPDEST PUSH0 PUSH1 0x20 DUP3 ADD SWAP1 POP DUP2 DUP2 SUB PUSH0 DUP4 ADD MSTORE PUSH2 0x2FB5 DUP2 PUSH2 0x2F7C JUMP JUMPDEST SWAP1 POP SWAP2 SWAP1 POP JUMP JUMPDEST PUSH32 0x546F6F206C617465000000000000000000000000000000000000000000000000 PUSH0 DUP3 ADD MSTORE POP JUMP JUMPDEST PUSH0 PUSH2 0x2FF0 PUSH1 0x8 DUP4 PUSH2 0x2BB2 JUMP JUMPDEST SWAP2 POP PUSH2 0x2FFB DUP3 PUSH2 0x2FBC JUMP JUMPDEST PUSH1 0x20 DUP3 ADD SWAP1 POP SWAP2 SWAP1 POP JUMP JUMPDEST PUSH0 PUSH1 0x20 DUP3 ADD SWAP1 POP DUP2 DUP2 SUB PUSH0 DUP4 ADD MSTORE PUSH2 0x301D DUP2 PUSH2 0x2FE4 JUMP JUMPDEST SWAP1 POP SWAP2 SWAP1 POP JUMP JUMPDEST PUSH32 0x526566756E64206D757374206265203C3D206665650000000000000000000000 PUSH0 DUP3 ADD MSTORE POP JUMP JUMPDEST PUSH0 PUSH2 0x3058 PUSH1 0x15 DUP4 PUSH2 0x2BB2 JUMP JUMPDEST SWAP2 POP PUSH2 0x3063 DUP3 PUSH2 0x3024 JUMP JUMPDEST PUSH1 0x20 DUP3 ADD SWAP1 POP SWAP2 SWAP1 POP JUMP JUMPDEST PUSH0 PUSH1 0x20 DUP3 ADD SWAP1 POP DUP2 DUP2 SUB PUSH0 DUP4 ADD MSTORE PUSH2 0x3085 DUP2 PUSH2 0x304C JUMP JUMPDEST SWAP1 POP SWAP2 SWAP1 POP JUMP JUMPDEST PUSH0 PUSH2 0x3096 DUP3 PUSH2 0x2496 JUMP JUMPDEST SWAP2 POP PUSH32 0xFFFFFFFFFFFFFFFFFFFFFFFFFFFFFFFFFFFFFFFFFFFFFFFFFFFFFFFFFFFFFFFF DUP3 SUB PUSH2 0x30C8 JUMPI PUSH2 0x30C7 PUSH2 0x2E43 JUMP JUMPDEST JUMPDEST PUSH1 0x1 DUP3 ADD SWAP1 POP SWAP2 SWAP1 POP JUMP JUMPDEST PUSH32 0x416C726561647920647261776E206F722063616E63656C6C6564000000000000 PUSH0 DUP3 ADD MSTORE POP JUMP JUMPDEST PUSH0 PUSH2 0x3107 PUSH1 0x1A DUP4 PUSH2 0x2BB2 JUMP JUMPDEST SWAP2 POP PUSH2 0x3112 DUP3 PUSH2 0x30D3 JUMP JUMPDEST PUSH1 0x20 DUP3 ADD SWAP1 POP SWAP2 SWAP1 POP JUMP JUMPDEST PUSH0 PUSH1 0x20 DUP3 ADD SWAP1 POP DUP2 DUP2 SUB PUSH0 DUP4 ADD MSTORE PUSH2 0x3134 DUP2 PUSH2 0x30FB JUMP JUMPDEST SWAP1 POP SWAP2 SWAP1 POP JUMP JUMPDEST PUSH32 0x43616E6E6F7420726566756E6400000000000000000000000000000000000000 PUSH0 DUP3 ADD MSTORE POP JUMP JUMPDEST PUSH0 PUSH2 0x316F PUSH1 0xD DUP4 PUSH2 0x2BB2 JUMP JUMPDEST SWAP2 POP PUSH2 0x317A DUP3 PUSH2 0x313B JUMP JUMPDEST PUSH1 0x20 DUP3 ADD SWAP1 POP SWAP2 SWAP1 POP JUMP JUMPDEST PUSH0 PUSH1 0x20 DUP3 ADD SWAP1 POP DUP2 DUP2 SUB PUSH0 DUP4 ADD MSTORE PUSH2 0x319C DUP2 PUSH2 0x3163 JUMP JUMPDEST SWAP1 POP SWAP2 SWAP1 POP JUMP JUMPDEST PUSH32 0x416C726561647920726566756E64656400000000000000000000000000000000 PUSH0 DUP3 ADD MSTORE POP JUMP JUMPDEST PUSH0 PUSH2 0x31D7 PUSH1 0x10 DUP4 PUSH2 0x2BB2 JUMP JUMPDEST SWAP2 POP PUSH2 0x31E2 DUP3 PUSH2 0x31A3 JUMP JUMPDEST PUSH1 0x20 DUP3 ADD SWAP1 POP SWAP2 SWAP1 POP JUMP JUMPDEST PUSH0 PUSH1 0x20 DUP3 ADD SWAP1 POP DUP2 DUP2 SUB PUSH0 DUP4 ADD MSTORE PUSH2 0x3204 DUP2 PUSH2 0x31CB JUMP JUMPDEST SWAP1 POP SWAP2 SWAP1 POP JUMP JUMPDEST PUSH32 0x4E6F742061207061727469636970616E74000000000000000000000000000000 PUSH0 DUP3 ADD MSTORE POP JUMP JUMPDEST PUSH0 PUSH2 0x323F PUSH1 0x11 DUP4 PUSH2 0x2BB2 JUMP JUMPDEST SWAP2 POP PUSH2 0x324A DUP3 PUSH2 0x320B JUMP JUMPDEST PUSH1 0x20 DUP3 ADD SWAP1 POP SWAP2 SWAP1 POP JUMP JUMPDEST PUSH0 PUSH1 0x20 DUP3 ADD SWAP1 POP DUP2 DUP2 SUB PUSH0 DUP4 ADD MSTORE PUSH2 0x326C DUP2 PUSH2 0x3233 JUMP JUMPDEST SWAP1 POP SWAP2 SWAP1 POP JUMP JUMPDEST PUSH0 PUSH1 0x40 DUP3 ADD SWAP1 POP PUSH2 0x3286 PUSH0 DUP4 ADD DUP6 PUSH2 0x2524 JUMP JUMPDEST PUSH2 0x3293 PUSH1 0x20 DUP4 ADD DUP5 PUSH2 0x2533 JUMP JUMPDEST SWAP4 SWAP3 POP POP POP JUMP JUMPDEST PUSH32 0x546F6F206561726C790000000000000000000000000000000000000000000000 PUSH0 DUP3 ADD MSTORE POP JUMP JUMPDEST PUSH0 PUSH2 0x32CE PUSH1 0x9 DUP4 PUSH2 0x2BB2 JUMP JUMPDEST SWAP2 POP PUSH2 0x32D9 DUP3 PUSH2 0x329A JUMP JUMPDEST PUSH1 0x20 DUP3 ADD SWAP1 POP SWAP2 SWAP1 POP JUMP JUMPDEST PUSH0 PUSH1 0x20 DUP3 ADD SWAP1 POP DUP2 DUP2 SUB PUSH0 DUP4 ADD MSTORE PUSH2 0x32FB DUP2 PUSH2 0x32C2 JUMP JUMPDEST SWAP1 POP SWAP2 SWAP1 POP JUMP JUMPDEST PUSH32 0x4E6F7420656E6F756768207061727469636970616E7473000000000000000000 PUSH0 DUP3 ADD MSTORE POP JUMP JUMPDEST PUSH0 PUSH2 0x3336 PUSH1 0x17 DUP4 PUSH2 0x2BB2 JUMP JUMPDEST SWAP2 POP PUSH2 0x3341 DUP3 PUSH2 0x3302 JUMP JUMPDEST PUSH1 0x20 DUP3 ADD SWAP1 POP SWAP2 SWAP1 POP JUMP JUMPDEST PUSH0 PUSH1 0x20 DUP3 ADD SWAP1 POP DUP2 DUP2 SUB PUSH0 DUP4 ADD MSTORE PUSH2 0x3363 DUP2 PUSH2 0x332A JUMP JUMPDEST SWAP1 POP SWAP2 SWAP1 POP JUMP JUMPDEST PUSH2 0x3373 DUP2 PUSH2 0x281A JUMP JUMPDEST DUP3 MSTORE POP POP JUMP JUMPDEST PUSH2 0x3382 DUP2 PUSH2 0x284D JUMP JUMPDEST DUP3 MSTORE POP POP JUMP JUMPDEST PUSH0 PUSH2 0xFFFF DUP3 AND SWAP1 POP SWAP2 SWAP1 POP JUMP JUMPDEST PUSH2 0x339E DUP2 PUSH2 0x3388 JUMP JUMPDEST DUP3 MSTORE POP POP JUMP JUMPDEST PUSH0 PUSH4 0xFFFFFFFF DUP3 AND SWAP1 POP SWAP2 SWAP1 POP JUMP JUMPDEST PUSH2 0x33BC DUP2 PUSH2 0x33A4 JUMP JUMPDEST DUP3 MSTORE POP POP JUMP JUMPDEST PUSH0 PUSH2 0x33DC PUSH2 0x33D7 PUSH2 0x33D2 DUP5 PUSH2 0x2B57 JUMP JUMPDEST PUSH2 0x2B60 JUMP JUMPDEST PUSH2 0x33A4 JUMP JUMPDEST SWAP1 POP SWAP2 SWAP1 POP JUMP JUMPDEST PUSH2 0x33EC DUP2 PUSH2 0x33C2 JUMP JUMPDEST DUP3 MSTORE POP POP JUMP JUMPDEST PUSH0 PUSH1 0xA0 DUP3 ADD SWAP1 POP PUSH2 0x3405 PUSH0 DUP4 ADD DUP9 PUSH2 0x336A JUMP JUMPDEST PUSH2 0x3412 PUSH1 0x20 DUP4 ADD DUP8 PUSH2 0x3379 JUMP JUMPDEST PUSH2 0x341F PUSH1 0x40 DUP4 ADD DUP7 PUSH2 0x3395 JUMP JUMPDEST PUSH2 0x342C PUSH1 0x60 DUP4 ADD DUP6 PUSH2 0x33B3 JUMP JUMPDEST PUSH2 0x3439 PUSH1 0x80 DUP4 ADD DUP5 PUSH2 0x33E3 JUMP JUMPDEST SWAP7 SWAP6 POP POP POP POP POP POP JUMP JUMPDEST PUSH0 DUP2 MLOAD SWAP1 POP PUSH2 0x3451 DUP2 PUSH2 0x249F JUMP JUMPDEST SWAP3 SWAP2 POP POP JUMP JUMPDEST PUSH0 PUSH1 0x20 DUP3 DUP5 SUB SLT ISZERO PUSH2 0x346C JUMPI PUSH2 0x346B PUSH2 0x248E JUMP JUMPDEST JUMPDEST PUSH0 PUSH2 0x3479 DUP5 DUP3 DUP6 ADD PUSH2 0x3443 JUMP JUMPDEST SWAP2 POP POP SWAP3 SWAP2 POP POP JUMP JUMPDEST PUSH0 PUSH1 0x40 DUP3 ADD SWAP1 POP PUSH2 0x3495 PUSH0 DUP4 ADD DUP6 PUSH2 0x2533 JUMP JUMPDEST PUSH2 0x34A2 PUSH1 0x20 DUP4 ADD DUP5 PUSH2 0x2533 JUMP JUMPDEST SWAP4 SWAP3 POP POP POP JUMP JUMPDEST PUSH32 0x4E6F742077696E6E657200000000000000000000000000000000000000000000 PUSH0 DUP3 ADD MSTORE POP JUMP JUMPDEST PUSH0 PUSH2 0x34DD PUSH1 0xA DUP4 PUSH2 0x2BB2 JUMP JUMPDEST SWAP2 POP PUSH2 0x34E8 DUP3 PUSH2 0x34A9 JUMP JUMPDEST PUSH1 0x20 DUP3 ADD SWAP1 POP SWAP2 SWAP1 POP JUMP JUMPDEST PUSH0 PUSH1 0x20 DUP3 ADD SWAP1 POP DUP2 DUP2 SUB PUSH0 DUP4 ADD MSTORE PUSH2 0x350A DUP2 PUSH2 0x34D1 JUMP JUMPDEST SWAP1 POP SWAP2 SWAP1 POP JUMP JUMPDEST PUSH32 0x416C726561647920636C61696D65640000000000000000000000000000000000 PUSH0 DUP3 ADD MSTORE POP JUMP JUMPDEST PUSH0 PUSH2 0x3545 PUSH1 0xF DUP4 PUSH2 0x2BB2 JUMP JUMPDEST SWAP2 POP PUSH2 0x3550 DUP3 PUSH2 0x3511 JUMP JUMPDEST PUSH1 0x20 DUP3 ADD SWAP1 POP SWAP2 SWAP1 POP JUMP JUMPDEST PUSH0 PUSH1 0x20 DUP3 ADD SWAP1 POP DUP2 DUP2 SUB PUSH0 DUP4 ADD MSTORE PUSH2 0x3572 DUP2 PUSH2 0x3539 JUMP JUMPDEST SWAP1 POP SWAP2 SWAP1 POP JUMP JUMPDEST PUSH32 0x416C72656164792066756C66696C6C6564000000000000000000000000000000 PUSH0 DUP3 ADD MSTORE POP JUMP JUMPDEST PUSH0 PUSH2 0x35AD PUSH1 0x11 DUP4 PUSH2 0x2BB2 JUMP JUMPDEST SWAP2 POP PUSH2 0x35B8 DUP3 PUSH2 0x3579 JUMP JUMPDEST PUSH1 0x20 DUP3 ADD SWAP1 POP SWAP2 SWAP1 POP JUMP JUMPDEST PUSH0 PUSH1 0x20 DUP3 ADD SWAP1 POP DUP2 DUP2 SUB PUSH0 DUP4 ADD MSTORE PUSH2 0x35DA DUP2 PUSH2 0x35A1 JUMP JUMPDEST SWAP1 POP SWAP2 SWAP1 POP JUMP JUMPDEST PUSH32 0x4E487B7100000000000000000000000000000000000000000000000000000000 PUSH0 MSTORE PUSH1 0x12 PUSH1 0x4 MSTORE PUSH1 0x24 PUSH0 REVERT JUMPDEST PUSH0 PUSH2 0x3618 DUP3 PUSH2 0x2496 JUMP JUMPDEST SWAP2 POP PUSH2 0x3623 DUP4 PUSH2 0x2496 JUMP JUMPDEST SWAP3 POP DUP3 PUSH2 0x3633 JUMPI PUSH2 0x3632 PUSH2 0x35E1 JUMP JUMPDEST JUMPDEST DUP3 DUP3 MOD SWAP1 POP SWAP3 SWAP2 POP POP JUMP JUMPDEST PUSH32 0x5265656E7472616E637947756172643A207265656E7472616E742063616C6C00 PUSH0 DUP3 ADD MSTORE POP JUMP JUMPDEST PUSH0 PUSH2 0x3672 PUSH1 0x1F DUP4 PUSH2 0x2BB2 JUMP JUMPDEST SWAP2 POP PUSH2 0x367D DUP3 PUSH2 0x363E JUMP JUMPDEST PUSH1 0x20 DUP3 ADD SWAP1 POP SWAP2 SWAP1 POP JUMP JUMPDEST PUSH0 PUSH1 0x20 DUP3 ADD SWAP1 POP DUP2 DUP2 SUB PUSH0 DUP4 ADD MSTORE PUSH2 0x369F DUP2 PUSH2 0x3666 JUMP JUMPDEST SWAP1 POP SWAP2 SWAP1 POP JUMP INVALID LOG2 PUSH5 0x6970667358 0x22 SLT KECCAK256 CODECOPY 0xE8 0xD3 0xC9 SWAP7 GASLIMIT SWAP9 DUP4 PUSH32 0x7CCFD68CF99B5F1287D4FD13B2008EA259E812CA537D2A64736F6C634300081E STOP CALLER "
		},
		"gasEstimates": {
			"creation": {
				"codeDepositCost": "2808800",
				"executionCost": "25172",
				"totalCost": "2833972"
			},
			"external": {
				"cancelLottery(uint256)": "infinite",
				"claimPrize(uint256)": "infinite",
				"claimRefund(uint256)": "infinite",
				"clearLotteryData(uint256)": "infinite",
				"createLottery(address,uint256,uint256,uint256,uint256,uint256,uint256,uint256)": "infinite",
				"drawWinner(uint256)": "infinite",
				"enterLottery(uint256)": "infinite",
				"getParticipants(uint256)": "infinite",
				"initialize(address,address)": "infinite",
				"initialize(address,bytes32,uint64,address,address)": "infinite",
				"investmentWallet()": "2552",
				"lotteries(uint256)": "infinite",
				"lotteryCounter()": "2448",
				"migrateToLottery(uint256,uint256)": "infinite",
				"owner()": "2588",
				"profitWallet()": "2598",
				"rawFulfillRandomWords(uint256,uint256[])": "infinite",
				"renounceOwnership()": "infinite",
				"requestToLottery(uint256)": "infinite",
				"transferOwnership(address)": "infinite"
			},
			"internal": {
				"fulfillRandomWords(uint256,uint256[] memory)": "infinite"
			}
		},
		"methodIdentifiers": {
			"cancelLottery(uint256)": "4538f297",
			"claimPrize(uint256)": "d7098154",
			"claimRefund(uint256)": "5b7baf64",
			"clearLotteryData(uint256)": "82f9d0fb",
			"createLottery(address,uint256,uint256,uint256,uint256,uint256,uint256,uint256)": "4311da37",
			"drawWinner(uint256)": "60b2a56a",
			"enterLottery(uint256)": "3fd43098",
			"getParticipants(uint256)": "c1e3bd3e",
			"initialize(address,address)": "485cc955",
			"initialize(address,bytes32,uint64,address,address)": "379c52a6",
			"investmentWallet()": "b6fa37bc",
			"lotteries(uint256)": "1398e076",
			"lotteryCounter()": "4a4a6b4f",
			"migrateToLottery(uint256,uint256)": "3893f9d5",
			"owner()": "8da5cb5b",
			"profitWallet()": "2301d775",
			"rawFulfillRandomWords(uint256,uint256[])": "1fe543e3",
			"renounceOwnership()": "715018a6",
			"requestToLottery(uint256)": "15c6e123",
			"transferOwnership(address)": "f2fde38b"
		}
	},
	"abi": [
		{
			"inputs": [],
			"name": "InvalidInitialization",
			"type": "error"
		},
		{
			"inputs": [],
			"name": "NotInitializing",
			"type": "error"
		},
		{
			"inputs": [
				{
					"internalType": "address",
					"name": "have",
					"type": "address"
				},
				{
					"internalType": "address",
					"name": "want",
					"type": "address"
				}
			],
			"name": "OnlyCoordinatorCanFulfill",
			"type": "error"
		},
		{
			"inputs": [
				{
					"internalType": "address",
					"name": "owner",
					"type": "address"
				}
			],
			"name": "OwnableInvalidOwner",
			"type": "error"
		},
		{
			"inputs": [
				{
					"internalType": "address",
					"name": "account",
					"type": "address"
				}
			],
			"name": "OwnableUnauthorizedAccount",
			"type": "error"
		},
		{
			"anonymous": false,
			"inputs": [
				{
					"indexed": false,
					"internalType": "uint256",
					"name": "lotteryId",
					"type": "uint256"
				},
				{
					"indexed": false,
					"internalType": "address",
					"name": "user",
					"type": "address"
				}
			],
			"name": "EnteredLottery",
			"type": "event"
		},
		{
			"anonymous": false,
			"inputs": [
				{
					"indexed": false,
					"internalType": "uint64",
					"name": "version",
					"type": "uint64"
				}
			],
			"name": "Initialized",
			"type": "event"
		},
		{
			"anonymous": false,
			"inputs": [
				{
					"indexed": false,
					"internalType": "uint256",
					"name": "lotteryId",
					"type": "uint256"
				}
			],
			"name": "LotteryCancelled",
			"type": "event"
		},
		{
			"anonymous": false,
			"inputs": [
				{
					"indexed": false,
					"internalType": "uint256",
					"name": "lotteryId",
					"type": "uint256"
				}
			],
			"name": "LotteryCreated",
			"type": "event"
		},
		{
			"anonymous": false,
			"inputs": [
				{
					"indexed": false,
					"internalType": "uint256",
					"name": "lotteryId",
					"type": "uint256"
				},
				{
					"indexed": false,
					"internalType": "uint256",
					"name": "requestId",
					"type": "uint256"
				}
			],
			"name": "LotteryDrawRequested",
			"type": "event"
		},
		{
			"anonymous": false,
			"inputs": [
				{
					"indexed": true,
					"internalType": "address",
					"name": "previousOwner",
					"type": "address"
				},
				{
					"indexed": true,
					"internalType": "address",
					"name": "newOwner",
					"type": "address"
				}
			],
			"name": "OwnershipTransferred",
			"type": "event"
		},
		{
			"anonymous": false,
			"inputs": [
				{
					"indexed": false,
					"internalType": "uint256",
					"name": "lotteryId",
					"type": "uint256"
				},
				{
					"indexed": false,
					"internalType": "address",
					"name": "winner",
					"type": "address"
				}
			],
			"name": "WinnerSelected",
			"type": "event"
		},
		{
			"inputs": [
				{
					"internalType": "uint256",
					"name": "_lotteryId",
					"type": "uint256"
				}
			],
			"name": "cancelLottery",
			"outputs": [],
			"stateMutability": "nonpayable",
			"type": "function"
		},
		{
			"inputs": [
				{
					"internalType": "uint256",
					"name": "_lotteryId",
					"type": "uint256"
				}
			],
			"name": "claimPrize",
			"outputs": [],
			"stateMutability": "nonpayable",
			"type": "function"
		},
		{
			"inputs": [
				{
					"internalType": "uint256",
					"name": "_lotteryId",
					"type": "uint256"
				}
			],
			"name": "claimRefund",
			"outputs": [],
			"stateMutability": "nonpayable",
			"type": "function"
		},
		{
			"inputs": [
				{
					"internalType": "uint256",
					"name": "_lotteryId",
					"type": "uint256"
				}
			],
			"name": "clearLotteryData",
			"outputs": [],
			"stateMutability": "nonpayable",
			"type": "function"
		},
		{
			"inputs": [
				{
					"internalType": "address",
					"name": "_tokenAddress",
					"type": "address"
				},
				{
					"internalType": "uint256",
					"name": "_participationFee",
					"type": "uint256"
				},
				{
					"internalType": "uint256",
					"name": "_refundableAmount",
					"type": "uint256"
				},
				{
					"internalType": "uint256",
					"name": "_maxParticipants",
					"type": "uint256"
				},
				{
					"internalType": "uint256",
					"name": "_drawTime",
					"type": "uint256"
				},
				{
					"internalType": "uint256",
					"name": "_prizeAmount",
					"type": "uint256"
				},
				{
					"internalType": "uint256",
					"name": "_feeToInvestment",
					"type": "uint256"
				},
				{
					"internalType": "uint256",
					"name": "_feeToProfit",
					"type": "uint256"
				}
			],
			"name": "createLottery",
			"outputs": [],
			"stateMutability": "nonpayable",
			"type": "function"
		},
		{
			"inputs": [
				{
					"internalType": "uint256",
					"name": "_lotteryId",
					"type": "uint256"
				}
			],
			"name": "drawWinner",
			"outputs": [],
			"stateMutability": "nonpayable",
			"type": "function"
		},
		{
			"inputs": [
				{
					"internalType": "uint256",
					"name": "_lotteryId",
					"type": "uint256"
				}
			],
			"name": "enterLottery",
			"outputs": [],
			"stateMutability": "nonpayable",
			"type": "function"
		},
		{
			"inputs": [
				{
					"internalType": "uint256",
					"name": "_lotteryId",
					"type": "uint256"
				}
			],
			"name": "getParticipants",
			"outputs": [
				{
					"internalType": "address[]",
					"name": "",
					"type": "address[]"
				}
			],
			"stateMutability": "view",
			"type": "function"
		},
		{
			"inputs": [
				{
					"internalType": "address",
					"name": "_vrfCoordinator",
					"type": "address"
				},
				{
					"internalType": "bytes32",
					"name": "_keyHash",
					"type": "bytes32"
				},
				{
					"internalType": "uint64",
					"name": "_subscriptionId",
					"type": "uint64"
				},
				{
					"internalType": "address",
					"name": "_investmentWallet",
					"type": "address"
				},
				{
					"internalType": "address",
					"name": "_profitWallet",
					"type": "address"
				}
			],
			"name": "initialize",
			"outputs": [],
			"stateMutability": "nonpayable",
			"type": "function"
		},
		{
			"inputs": [
				{
					"internalType": "address",
					"name": "_investmentWallet",
					"type": "address"
				},
				{
					"internalType": "address",
					"name": "_profitWallet",
					"type": "address"
				}
			],
			"name": "initialize",
			"outputs": [],
			"stateMutability": "nonpayable",
			"type": "function"
		},
		{
			"inputs": [],
			"name": "investmentWallet",
			"outputs": [
				{
					"internalType": "address",
					"name": "",
					"type": "address"
				}
			],
			"stateMutability": "view",
			"type": "function"
		},
		{
			"inputs": [
				{
					"internalType": "uint256",
					"name": "",
					"type": "uint256"
				}
			],
			"name": "lotteries",
			"outputs": [
				{
					"internalType": "address",
					"name": "tokenAddress",
					"type": "address"
				},
				{
					"internalType": "uint256",
					"name": "participationFee",
					"type": "uint256"
				},
				{
					"internalType": "uint256",
					"name": "refundableAmount",
					"type": "uint256"
				},
				{
					"internalType": "uint256",
					"name": "maxParticipants",
					"type": "uint256"
				},
				{
					"internalType": "uint256",
					"name": "drawTime",
					"type": "uint256"
				},
				{
					"internalType": "uint256",
					"name": "prizeAmount",
					"type": "uint256"
				},
				{
					"internalType": "uint256",
					"name": "feeToInvestment",
					"type": "uint256"
				},
				{
					"internalType": "uint256",
					"name": "feeToProfit",
					"type": "uint256"
				},
				{
					"internalType": "bool",
					"name": "isActive",
					"type": "bool"
				},
				{
					"internalType": "bool",
					"name": "isDrawn",
					"type": "bool"
				},
				{
					"internalType": "bool",
					"name": "isCancelled",
					"type": "bool"
				},
				{
					"internalType": "address",
					"name": "winner",
					"type": "address"
				}
			],
			"stateMutability": "view",
			"type": "function"
		},
		{
			"inputs": [],
			"name": "lotteryCounter",
			"outputs": [
				{
					"internalType": "uint256",
					"name": "",
					"type": "uint256"
				}
			],
			"stateMutability": "view",
			"type": "function"
		},
		{
			"inputs": [
				{
					"internalType": "uint256",
					"name": "fromId",
					"type": "uint256"
				},
				{
					"internalType": "uint256",
					"name": "toId",
					"type": "uint256"
				}
			],
			"name": "migrateToLottery",
			"outputs": [],
			"stateMutability": "nonpayable",
			"type": "function"
		},
		{
			"inputs": [],
			"name": "owner",
			"outputs": [
				{
					"internalType": "address",
					"name": "",
					"type": "address"
				}
			],
			"stateMutability": "view",
			"type": "function"
		},
		{
			"inputs": [],
			"name": "profitWallet",
			"outputs": [
				{
					"internalType": "address",
					"name": "",
					"type": "address"
				}
			],
			"stateMutability": "view",
			"type": "function"
		},
		{
			"inputs": [
				{
					"internalType": "uint256",
					"name": "requestId",
					"type": "uint256"
				},
				{
					"internalType": "uint256[]",
					"name": "randomWords",
					"type": "uint256[]"
				}
			],
			"name": "rawFulfillRandomWords",
			"outputs": [],
			"stateMutability": "nonpayable",
			"type": "function"
		},
		{
			"inputs": [],
			"name": "renounceOwnership",
			"outputs": [],
			"stateMutability": "nonpayable",
			"type": "function"
		},
		{
			"inputs": [
				{
					"internalType": "uint256",
					"name": "",
					"type": "uint256"
				}
			],
			"name": "requestToLottery",
			"outputs": [
				{
					"internalType": "uint256",
					"name": "",
					"type": "uint256"
				}
			],
			"stateMutability": "view",
			"type": "function"
		},
		{
			"inputs": [
				{
					"internalType": "address",
					"name": "newOwner",
					"type": "address"
				}
			],
			"name": "transferOwnership",
			"outputs": [],
			"stateMutability": "nonpayable",
			"type": "function"
		}
	]
}