{
	"data": {
		"bytecode": {
			"linkReferences": {},
			"object": "60a0604052306080523480156012575f5ffd5b5060015f55608051612c9861003d5f395f81816121aa015281816121d301526123170152612c985ff3fe60806040526004361061021d575f3560e01c806361728f391161011e578063a49a75a5116100a8578063c1e3bd3e1161006d578063c1e3bd3e14610854578063c4cd639f14610880578063d7098154146108c8578063e2344831146108e7578063f2fde38b14610906575f5ffd5b8063a49a75a5146106e2578063ac03244e14610727578063ad3cb1cc146107c3578063b0fb162f14610800578063b6fa37bc14610835575f5ffd5b80637ccfd7fc116100ee5780637ccfd7fc14610623578063826d98731461064957806382f9d0fb146106685780638da5cb5b14610687578063a3e56fa8146106c3575f5ffd5b806361728f39146105ba5780636cc69997146105cf578063715018a6146105e357806376b3c8a8146105f7575f5ffd5b80633893f9d5116101aa5780634a4a6b4f1161016f5780634a4a6b4f146105405780634f1ef2861461055557806352d1902d146105685780635b7baf641461057c57806360b2a56a1461059b575f5ffd5b80633893f9d51461047c5780633fd430981461049b5780633fe6e01e146104ba5780634311da37146105025780634538f29714610521575f5ffd5b80631398e076116101f05780631398e076146102be57806315c6e123146103ca5780631fe543e3146103f55780632301d7751461041457806324f746971461044b575f5ffd5b8063055b66cd1461022157806307c7a72d1461024b57806309c1ba2e1461027a5780630af5a2631461029d575b5f5ffd5b34801561022c575f5ffd5b50610235610925565b604051610242919061267b565b60405180910390f35b348015610256575f5ffd5b5061026a6102653660046126d8565b610ab1565b6040519015158152602001610242565b348015610285575f5ffd5b5061028f60085481565b604051908152602001610242565b3480156102a8575f5ffd5b506102bc6102b7366004612702565b610ae0565b005b3480156102c9575f5ffd5b506103536102d8366004612755565b600260208190525f91825260409091208054600182015492820154600383015460048401546005850154600686015460078701546008880154600a890154600b909901546001600160a01b039889169a9997989697959694959394929360ff808416946101008504821694620100009004909116929116908d565b604080516001600160a01b039e8f168152602081019d909d528c019a909a5260608b019890985260808a019690965260a089019490945260c088019290925260e08701521515610100860152151561012085015215156101408401529092166101608201526101808101919091526101a001610242565b3480156103d5575f5ffd5b5061028f6103e4366004612755565b600b6020525f908152604090205481565b348015610400575f5ffd5b506102bc61040f3660046127b1565b610c52565b34801561041f575f5ffd5b50600554610433906001600160a01b031681565b6040516001600160a01b039091168152602001610242565b348015610456575f5ffd5b506007546104679063ffffffff1681565b60405163ffffffff9091168152602001610242565b348015610487575f5ffd5b506102bc610496366004612869565b610ca5565b3480156104a6575f5ffd5b506102bc6104b5366004612755565b610fb4565b3480156104c5575f5ffd5b5061026a6104d43660046126d8565b5f8281526002602090815260408083206001600160a01b0385168452600f0190915290205460ff1692915050565b34801561050d575f5ffd5b506102bc61051c366004612889565b6111bf565b34801561052c575f5ffd5b506102bc61053b366004612755565b611339565b34801561054b575f5ffd5b5061028f60035481565b6102bc6105633660046128e0565b611404565b348015610573575f5ffd5b5061028f61141f565b348015610587575f5ffd5b506102bc610596366004612755565b61143a565b3480156105a6575f5ffd5b506102bc6105b5366004612755565b611617565b3480156105c5575f5ffd5b5061028f60065481565b3480156105da575f5ffd5b50610235611866565b3480156105ee575f5ffd5b506102bc6118bc565b348015610602575f5ffd5b50610616610611366004612755565b6118cf565b60405161024291906129c8565b34801561062e575f5ffd5b50600754610467906601000000000000900463ffffffff1681565b348015610654575f5ffd5b506102bc610663366004612755565b611a6a565b348015610673575f5ffd5b506102bc610682366004612755565b611bb0565b348015610692575f5ffd5b507f9016d09d72d40fdae2fd8ceac6b6234c7706214fd39c1cd1e609a0528c199300546001600160a01b0316610433565b3480156106ce575f5ffd5b50600954610433906001600160a01b031681565b3480156106ed575f5ffd5b5061028f6106fc3660046126d8565b5f8281526002602090815260408083206001600160a01b0385168452600c0190915290205492915050565b348015610732575f5ffd5b5061079b6107413660046126d8565b5f9182526002602090815260408084206001600160a01b03939093168452600c8301825280842054600d8401835281852054600e8501845282862054600f909501909352932054929360ff91821693928216929190911690565b6040805194855292151560208501529015159183019190915215156060820152608001610242565b3480156107ce575f5ffd5b506107f3604051806040016040528060058152602001640352e302e360dc1b81525081565b6040516102429190612ad4565b34801561080b575f5ffd5b5060075461082290640100000000900461ffff1681565b60405161ffff9091168152602001610242565b348015610840575f5ffd5b50600454610433906001600160a01b031681565b34801561085f575f5ffd5b5061087361086e366004612755565b611c3e565b6040516102429190612ae6565b34801561088b575f5ffd5b5061026a61089a3660046126d8565b5f8281526002602090815260408083206001600160a01b0385168452600e0190915290205460ff1692915050565b3480156108d3575f5ffd5b506102bc6108e2366004612755565b611caa565b3480156108f2575f5ffd5b5061028f610901366004612755565b611df9565b348015610911575f5ffd5b506102bc610920366004612af8565b611e18565b600a546060905f9067ffffffffffffffff8111156109455761094561276c565b60405190808252806020026020018201604052801561096e578160200160208202803683370190505b5090505f805b600a54811015610a19575f600a828154811061099257610992612b11565b5f9182526020808320909101548083526002909152604090912060088101549192509060ff1680156109cf5750600881015462010000900460ff16155b80156109de5750806004015442105b15610a0f57818585815181106109f6576109f6612b11565b602090810291909101015283610a0b81612b39565b9450505b5050600101610974565b505f8167ffffffffffffffff811115610a3457610a3461276c565b604051908082528060200260200182016040528015610a5d578160200160208202803683370190505b5090505f5b82811015610aa957838181518110610a7c57610a7c612b11565b6020026020010151828281518110610a9657610a96612b11565b6020908102919091010152600101610a62565b509392505050565b5f8281526002602090815260408083206001600160a01b0385168452600d0190915290205460ff165b92915050565b5f610ae9611e52565b805490915060ff600160401b820416159067ffffffffffffffff165f81158015610b105750825b90505f8267ffffffffffffffff166001148015610b2c5750303b155b905081158015610b3a575080155b15610b585760405163f92ee8a960e01b815260040160405180910390fd5b845467ffffffffffffffff191660011785558315610b8257845460ff60401b1916600160401b1785555b610b8b33611e7a565b610b93611e8b565b610b9c8a611e93565b600980546001600160a01b03199081166001600160a01b038d81169190911790925560068b905560088a90556007805469ffffffffffffffffffff19166601000300030d401790556004805482168a8416179055600580549091169188169190911790558315610c4657845460ff60401b19168555604051600181527fc7f505b2f371ae2175ee4913f4499e1f2633a7b5936321eed1cdaeb6115181d29060200160405180910390a15b50505050505050505050565b6001546001600160a01b03163314610c975760015460405163073e64fd60e21b81523360048201526001600160a01b0390911660248201526044015b60405180910390fd5b610ca18282611ebd565b5050565b610cad6120ed565b5f828152600260209081526040808320848452818420338552600c8201909352922054610d095760405162461bcd60e51b815260206004820152600a602482015269139bdd081a5b881bdb1960b21b6044820152606401610c8e565b335f908152600e8301602052604090205460ff1615610d5d5760405162461bcd60e51b815260206004820152601060248201526f526566756e64656420616c726561647960801b6044820152606401610c8e565b600882015462010000900460ff1680610d9757506008820154610100900460ff168015610d975750600a8201546001600160a01b03163314155b610dd65760405162461bcd60e51b815260206004820152601060248201526f4f6c64206e6f7420656c696769626c6560801b6044820152606401610c8e565b600881015460ff168015610df55750600881015462010000900460ff16155b610e385760405162461bcd60e51b81526020600482015260146024820152734e6577206c6f747465727920696e61637469766560601b6044820152606401610c8e565b80600401544210610e7e5760405162461bcd60e51b815260206004820152601060248201526f546f6f206c61746520666f72206e657760801b6044820152606401610c8e565b335f908152600e830160205260408120805460ff19166001908117909155600283015490830154610eaf9190612b51565b82546040516323b872dd60e01b8152336004820152306024820152604481018390529192506001600160a01b0316906323b872dd906064016020604051808303815f875af1158015610f03573d5f5f3e3d5ffd5b505050506040513d601f19601f82011682018060405250810190610f279190612b64565b506009820180546001810182555f918252602080832090910180546001600160a01b031916339081179091558252600c8401905260408120805491610f6b83612b39565b9091555050604080518581523360208201527f1e28857182a3b2bb6fbb88287d1ba8cc3a941dd65d4c977286676d27b877a3d9910160405180910390a1505050610ca160015f55565b610fbc6120ed565b5f818152600260205260409020600881015460ff168015610fe85750600881015462010000900460ff16155b61102c5760405162461bcd60e51b8152602060048201526015602482015274125b9858dd1a5d99481bdc8818d85b98d95b1b1959605a1b6044820152606401610c8e565b8060040154421061106a5760405162461bcd60e51b8152602060048201526008602482015267546f6f206c61746560c01b6044820152606401610c8e565b60038101546009820154106110b45760405162461bcd60e51b815260206004820152601060248201526f4d6178207061727469636970616e747360801b6044820152606401610c8e565b805460018201546040516323b872dd60e01b815233600482015230602482015260448101919091526001600160a01b03909116906323b872dd906064016020604051808303815f875af115801561110d573d5f5f3e3d5ffd5b505050506040513d601f19601f820116820180604052508101906111319190612b64565b506009810180546001810182555f918252602080832090910180546001600160a01b031916339081179091558252600c830190526040812080549161117583612b39565b9091555050604080518381523360208201527f1e28857182a3b2bb6fbb88287d1ba8cc3a941dd65d4c977286676d27b877a3d9910160405180910390a1506111bc60015f55565b50565b6111c7612144565b858710156112075760405162461bcd60e51b815260206004820152600d60248201526c526566756e64203c3d2066656560981b6044820152606401610c8e565b42841161124a5760405162461bcd60e51b8152602060048201526011602482015270496e76616c696420647261772074696d6560781b6044820152606401610c8e565b60038054905f61125983612b39565b9091555050600380545f90815260026020818152604080842080546001600160a01b0319166001600160a01b038f1617815560018082018e90559381018c90558086018b9055600481018a905560058101899055600681018890556007810187905560088101805460ff1916851790559454600a805494850181559094527fc65a7bb8d6351c1cf70c95a316cc6a92839c986682d98bc35f958f4883f9d2a890920183905590519182527f9e0023bebcc752baaa41057318405b5a6a8e9c6372b519717cfdf238e5caa795910160405180910390a1505050505050505050565b611341612144565b5f818152600260205260409020600881015462010000900460ff1615801561137357506008810154610100900460ff16155b6113b35760405162461bcd60e51b8152602060048201526011602482015270105b1c9958591e48199a5b985b1a5e9959607a1b6044820152606401610c8e565b60088101805462ff00001916620100001790556040517fc3dac690cf4c3ae8964f18b8f09f7f9a75d3962a8cbb7cd689df2c291bb5b2dd906113f89084815260200190565b60405180910390a15050565b61140c61219f565b61141582612243565b610ca1828261224b565b5f61142861230c565b505f516020612c435f395f51905f5290565b6114426120ed565b5f818152600260205260409020600881015462010000900460ff168061148957506008810154610100900460ff1680156114895750600a8101546001600160a01b03163314155b6114c45760405162461bcd60e51b815260206004820152600c60248201526b4e6f7420656c696769626c6560a01b6044820152606401610c8e565b335f908152600e8201602052604090205460ff16156115185760405162461bcd60e51b815260206004820152601060248201526f105b1c9958591e481c99599d5b99195960821b6044820152606401610c8e565b335f908152600c820160205260409020546115625760405162461bcd60e51b815260206004820152600a6024820152694e6f20656e747269657360b01b6044820152606401610c8e565b335f908152600e820160209081526040808320805460ff19166001179055600c840190915281205460028301546115999190612b83565b825460405163a9059cbb60e01b8152336004820152602481018390529192506001600160a01b03169063a9059cbb906044016020604051808303815f875af11580156115e7573d5f5f3e3d5ffd5b505050506040513d601f19601f8201168201806040525081019061160b9190612b64565b5050506111bc60015f55565b61161f612144565b5f818152600260205260409020600481015442101561166c5760405162461bcd60e51b8152602060048201526009602482015268546f6f206561726c7960b81b6044820152606401610c8e565b6008810154610100900460ff161580156116915750600881015462010000900460ff16155b6116dd5760405162461bcd60e51b815260206004820152601a60248201527f416c726561647920647261776e206f722063616e63656c6c65640000000000006044820152606401610c8e565b60098101546117205760405162461bcd60e51b815260206004820152600f60248201526e4e6f207061727469636970616e747360881b6044820152606401610c8e565b6009546040805160c081018252600654815260085460208083019190915260075461ffff6401000000008204168385015263ffffffff8082166060850152660100000000000090910416608083015282519081019092525f808352926001600160a01b031691639b1c385e919060a082019061179b90612355565b8152506040518263ffffffff1660e01b81526004016117ba9190612b9a565b6020604051808303815f875af11580156117d6573d5f5f3e3d5ffd5b505050506040513d601f19601f820116820180604052508101906117fa9190612bf6565b5f818152600b60205260409081902085905560088401805461ff001916610100179055519091507f600253eae67a5c51c82a7123372e8644f16009c6304e18f844cf86fdc40c24d7906118599085908490918252602082015260400190565b60405180910390a1505050565b6060600a8054806020026020016040519081016040528092919081815260200182805480156118b257602002820191905f5260205f20905b81548152602001906001019080831161189e575b5050505050905090565b6118c4612144565b6118cd5f6123c6565b565b61194c604051806101c001604052805f6001600160a01b031681526020015f81526020015f81526020015f81526020015f81526020015f81526020015f81526020015f81526020015f151581526020015f151581526020015f151581526020015f6001600160a01b031681526020015f8152602001606081525090565b5f8281526002602081815260409283902083516101c08101855281546001600160a01b03908116825260018301548285015293820154818601526003820154606082015260048201546080820152600582015460a0820152600682015460c0820152600782015460e0820152600882015460ff80821615156101008085019190915282048116151561012084015262010000909104161515610140820152600a820154909316610160840152600b81015461018084015260098101805485518185028101850190965280865291946101a0850193909290830182828015611a5a57602002820191905f5260205f20905b81546001600160a01b03168152600190910190602001808311611a3c575b5050505050815250915050919050565b5f818152600260209081526040808320338452600f81019092529091205460ff1615611ac85760405162461bcd60e51b815260206004820152600d60248201526c105b1c9958591e481d9bdd1959609a1b6044820152606401610c8e565b335f908152600c82016020526040902054611b165760405162461bcd60e51b815260206004820152600e60248201526d4e6f7420696e206c6f747465727960901b6044820152606401610c8e565b335f908152600f820160205260408120805460ff19166001179055600b8201805491611b4183612b39565b90915550506009810154611b56906002612b83565b600b820154611b66906003612b83565b10610ca15760088101805462ff00001916620100001790556040517fc3dac690cf4c3ae8964f18b8f09f7f9a75d3962a8cbb7cd689df2c291bb5b2dd906113f89084815260200190565b611bb8612144565b5f818152600260208190526040822080546001600160a01b031916815560018101839055908101829055600381018290556004810182905560058101829055600681018290556007810182905560088101805462ffffff1916905590611c21600983018261264d565b50600a810180546001600160a01b03191690555f600b9091015550565b5f81815260026020908152604091829020600901805483518184028101840190945280845260609392830182828015611c9e57602002820191905f5260205f20905b81546001600160a01b03168152600190910190602001808311611c80575b50505050509050919050565b611cb26120ed565b5f818152600260205260409020600a8101546001600160a01b03163314611d085760405162461bcd60e51b815260206004820152600a6024820152692737ba103bb4b73732b960b11b6044820152606401610c8e565b335f908152600d8201602052604090205460ff1615611d5b5760405162461bcd60e51b815260206004820152600f60248201526e105b1c9958591e4818db185a5b5959608a1b6044820152606401610c8e565b335f818152600d8301602052604090819020805460ff1916600117905582546005840154915163a9059cbb60e01b8152600481019390935260248301919091526001600160a01b03169063a9059cbb906044016020604051808303815f875af1158015611dca573d5f5f3e3d5ffd5b505050506040513d601f19601f82011682018060405250810190611dee9190612b64565b50506111bc60015f55565b600a8181548110611e08575f80fd5b5f91825260209091200154905081565b611e20612144565b6001600160a01b038116611e4957604051631e4fbdf760e01b81525f6004820152602401610c8e565b6111bc816123c6565b5f807ff0c57e16840df040f15088dc2f81fe391c3923bec73e23a9662efc9c229c6a00610ada565b611e82612436565b6111bc8161245b565b6118cd612436565b611e9b612436565b600180546001600160a01b0319166001600160a01b0392909216919091179055565b5f828152600b602090815260408083205480845260029092529091206008810154610100900460ff168015611efd5750600a8101546001600160a01b0316155b611f3d5760405162461bcd60e51b8152602060048201526011602482015270105b1c9958591e48199d5b199a5b1b1959607a1b6044820152606401610c8e565b5f8160090180549050845f81518110611f5857611f58612b11565b6020026020010151611f6a9190612c0d565b9050816009018181548110611f8157611f81612b11565b5f91825260209091200154600a830180546001600160a01b0319166001600160a01b03928316179055825460048054600686015460405163a9059cbb60e01b8152918516928201929092526024810191909152911690819063a9059cbb906044016020604051808303815f875af1158015611ffe573d5f5f3e3d5ffd5b505050506040513d601f19601f820116820180604052508101906120229190612b64565b50600554600784015460405163a9059cbb60e01b81526001600160a01b03928316600482015260248101919091529082169063a9059cbb906044016020604051808303815f875af1158015612079573d5f5f3e3d5ffd5b505050506040513d601f19601f8201168201806040525081019061209d9190612b64565b50600a830154604080518681526001600160a01b0390921660208301527f03fb57eb449654e24e1b240d3d06702cf79362a065d5c0323aee642d4702fa4b910160405180910390a1505050505050565b60025f540361213e5760405162461bcd60e51b815260206004820152601f60248201527f5265656e7472616e637947756172643a207265656e7472616e742063616c6c006044820152606401610c8e565b60025f55565b336121767f9016d09d72d40fdae2fd8ceac6b6234c7706214fd39c1cd1e609a0528c199300546001600160a01b031690565b6001600160a01b0316146118cd5760405163118cdaa760e01b8152336004820152602401610c8e565b306001600160a01b037f000000000000000000000000000000000000000000000000000000000000000016148061222557507f00000000000000000000000000000000000000000000000000000000000000006001600160a01b03166122195f516020612c435f395f51905f52546001600160a01b031690565b6001600160a01b031614155b156118cd5760405163703e46dd60e11b815260040160405180910390fd5b6111bc612144565b816001600160a01b03166352d1902d6040518163ffffffff1660e01b8152600401602060405180830381865afa9250505080156122a5575060408051601f3d908101601f191682019092526122a291810190612bf6565b60015b6122cd57604051634c9c8ce360e01b81526001600160a01b0383166004820152602401610c8e565b5f516020612c435f395f51905f5281146122fd57604051632a87526960e21b815260048101829052602401610c8e565b6123078383612463565b505050565b306001600160a01b037f000000000000000000000000000000000000000000000000000000000000000016146118cd5760405163703e46dd60e11b815260040160405180910390fd5b60607f92fd13387c7fe7befbc38d303d6468778fb9731bc4583f17d92989c6fcfdeaaa8260405160240161238e91511515815260200190565b60408051601f198184030181529190526020810180516001600160e01b03166001600160e01b03199093169290921790915292915050565b7f9016d09d72d40fdae2fd8ceac6b6234c7706214fd39c1cd1e609a0528c19930080546001600160a01b031981166001600160a01b03848116918217845560405192169182907f8be0079c531659141344cd1fd0a4f28419497f9722a3daafe3b4186f6b6457e0905f90a3505050565b61243e6124b8565b6118cd57604051631afcd79f60e31b815260040160405180910390fd5b611e20612436565b61246c826124d1565b6040516001600160a01b038316907fbc7cd75a20ee27fd9adebab32041f755214dbc6bffa90cc0225b39da2e5c2d3b905f90a28051156124b0576123078282612534565b610ca16125a6565b5f6124c1611e52565b54600160401b900460ff16919050565b806001600160a01b03163b5f0361250657604051634c9c8ce360e01b81526001600160a01b0382166004820152602401610c8e565b5f516020612c435f395f51905f5280546001600160a01b0319166001600160a01b0392909216919091179055565b60605f5f846001600160a01b0316846040516125509190612c2c565b5f60405180830381855af49150503d805f8114612588576040519150601f19603f3d011682016040523d82523d5f602084013e61258d565b606091505b509150915061259d8583836125c5565b95945050505050565b34156118cd5760405163b398979f60e01b815260040160405180910390fd5b6060826125da576125d582612624565b61261d565b81511580156125f157506001600160a01b0384163b155b1561261a57604051639996b31560e01b81526001600160a01b0385166004820152602401610c8e565b50805b9392505050565b8051156126345780518082602001fd5b60405163d6bda27560e01b815260040160405180910390fd5b5080545f8255905f5260205f20908101906111bc91905b80821115612677575f8155600101612664565b5090565b602080825282518282018190525f918401906040840190835b818110156126b2578351835260209384019390920191600101612694565b509095945050505050565b80356001600160a01b03811681146126d3575f5ffd5b919050565b5f5f604083850312156126e9575f5ffd5b823591506126f9602084016126bd565b90509250929050565b5f5f5f5f5f60a08688031215612716575f5ffd5b61271f866126bd565b9450602086013593506040860135925061273b606087016126bd565b9150612749608087016126bd565b90509295509295909350565b5f60208284031215612765575f5ffd5b5035919050565b634e487b7160e01b5f52604160045260245ffd5b604051601f8201601f1916810167ffffffffffffffff811182821017156127a9576127a961276c565b604052919050565b5f5f604083850312156127c2575f5ffd5b82359150602083013567ffffffffffffffff8111156127df575f5ffd5b8301601f810185136127ef575f5ffd5b803567ffffffffffffffff8111156128095761280961276c565b8060051b61281960208201612780565b91825260208184018101929081019088841115612834575f5ffd5b6020850194505b8385101561285a5784358083526020958601959093509091019061283b565b80955050505050509250929050565b5f5f6040838503121561287a575f5ffd5b50508035926020909101359150565b5f5f5f5f5f5f5f5f610100898b0312156128a1575f5ffd5b6128aa896126bd565b9a60208a01359a5060408a013599606081013599506080810135985060a0810135975060c0810135965060e00135945092505050565b5f5f604083850312156128f1575f5ffd5b6128fa836126bd565b9150602083013567ffffffffffffffff811115612915575f5ffd5b8301601f81018513612925575f5ffd5b803567ffffffffffffffff81111561293f5761293f61276c565b612952601f8201601f1916602001612780565b818152866020838501011115612966575f5ffd5b816020840160208301375f602083830101528093505050509250929050565b5f8151808452602084019350602083015f5b828110156129be5781516001600160a01b0316865260209586019590910190600101612997565b5093949350505050565b602081526129e26020820183516001600160a01b03169052565b602082015160408201526040820151606082015260608201516080820152608082015160a082015260a082015160c082015260c082015160e082015260e08201516101008201525f610100830151612a3f61012084018215159052565b5061012083015180151561014084015250610140830151801515610160840152506101608301516001600160a01b038116610180840152506101808301516101a08301526101a08301516101c080840152612a9e6101e0840182612985565b949350505050565b5f81518084528060208401602086015e5f602082860101526020601f19601f83011685010191505092915050565b602081525f61261d6020830184612aa6565b602081525f61261d6020830184612985565b5f60208284031215612b08575f5ffd5b61261d826126bd565b634e487b7160e01b5f52603260045260245ffd5b634e487b7160e01b5f52601160045260245ffd5b5f60018201612b4a57612b4a612b25565b5060010190565b81810381811115610ada57610ada612b25565b5f60208284031215612b74575f5ffd5b8151801515811461261d575f5ffd5b8082028115828204841417610ada57610ada612b25565b60208152815160208201526020820151604082015261ffff604083015116606082015263ffffffff606083015116608082015263ffffffff60808301511660a08201525f60a083015160c080840152612a9e60e0840182612aa6565b5f60208284031215612c06575f5ffd5b5051919050565b5f82612c2757634e487b7160e01b5f52601260045260245ffd5b500690565b5f82518060208501845e5f92019182525091905056fe360894a13ba1a3210667c828492db98dca3e2076cc3735a920a3ca505d382bbca2646970667358221220c52a7046eb2ce0178c50564c0b4701940b510ffa8d16da2b0f8d29e2dedaea6d64736f6c634300081e0033",
			"opcodes": "PUSH1 0xA0 PUSH1 0x40 MSTORE ADDRESS PUSH1 0x80 MSTORE CALLVALUE DUP1 ISZERO PUSH1 0x12 JUMPI PUSH0 PUSH0 REVERT JUMPDEST POP PUSH1 0x1 PUSH0 SSTORE PUSH1 0x80 MLOAD PUSH2 0x2C98 PUSH2 0x3D PUSH0 CODECOPY PUSH0 DUP2 DUP2 PUSH2 0x21AA ADD MSTORE DUP2 DUP2 PUSH2 0x21D3 ADD MSTORE PUSH2 0x2317 ADD MSTORE PUSH2 0x2C98 PUSH0 RETURN INVALID PUSH1 0x80 PUSH1 0x40 MSTORE PUSH1 0x4 CALLDATASIZE LT PUSH2 0x21D JUMPI PUSH0 CALLDATALOAD PUSH1 0xE0 SHR DUP1 PUSH4 0x61728F39 GT PUSH2 0x11E JUMPI DUP1 PUSH4 0xA49A75A5 GT PUSH2 0xA8 JUMPI DUP1 PUSH4 0xC1E3BD3E GT PUSH2 0x6D JUMPI DUP1 PUSH4 0xC1E3BD3E EQ PUSH2 0x854 JUMPI DUP1 PUSH4 0xC4CD639F EQ PUSH2 0x880 JUMPI DUP1 PUSH4 0xD7098154 EQ PUSH2 0x8C8 JUMPI DUP1 PUSH4 0xE2344831 EQ PUSH2 0x8E7 JUMPI DUP1 PUSH4 0xF2FDE38B EQ PUSH2 0x906 JUMPI PUSH0 PUSH0 REVERT JUMPDEST DUP1 PUSH4 0xA49A75A5 EQ PUSH2 0x6E2 JUMPI DUP1 PUSH4 0xAC03244E EQ PUSH2 0x727 JUMPI DUP1 PUSH4 0xAD3CB1CC EQ PUSH2 0x7C3 JUMPI DUP1 PUSH4 0xB0FB162F EQ PUSH2 0x800 JUMPI DUP1 PUSH4 0xB6FA37BC EQ PUSH2 0x835 JUMPI PUSH0 PUSH0 REVERT JUMPDEST DUP1 PUSH4 0x7CCFD7FC GT PUSH2 0xEE JUMPI DUP1 PUSH4 0x7CCFD7FC EQ PUSH2 0x623 JUMPI DUP1 PUSH4 0x826D9873 EQ PUSH2 0x649 JUMPI DUP1 PUSH4 0x82F9D0FB EQ PUSH2 0x668 JUMPI DUP1 PUSH4 0x8DA5CB5B EQ PUSH2 0x687 JUMPI DUP1 PUSH4 0xA3E56FA8 EQ PUSH2 0x6C3 JUMPI PUSH0 PUSH0 REVERT JUMPDEST DUP1 PUSH4 0x61728F39 EQ PUSH2 0x5BA JUMPI DUP1 PUSH4 0x6CC69997 EQ PUSH2 0x5CF JUMPI DUP1 PUSH4 0x715018A6 EQ PUSH2 0x5E3 JUMPI DUP1 PUSH4 0x76B3C8A8 EQ PUSH2 0x5F7 JUMPI PUSH0 PUSH0 REVERT JUMPDEST DUP1 PUSH4 0x3893F9D5 GT PUSH2 0x1AA JUMPI DUP1 PUSH4 0x4A4A6B4F GT PUSH2 0x16F JUMPI DUP1 PUSH4 0x4A4A6B4F EQ PUSH2 0x540 JUMPI DUP1 PUSH4 0x4F1EF286 EQ PUSH2 0x555 JUMPI DUP1 PUSH4 0x52D1902D EQ PUSH2 0x568 JUMPI DUP1 PUSH4 0x5B7BAF64 EQ PUSH2 0x57C JUMPI DUP1 PUSH4 0x60B2A56A EQ PUSH2 0x59B JUMPI PUSH0 PUSH0 REVERT JUMPDEST DUP1 PUSH4 0x3893F9D5 EQ PUSH2 0x47C JUMPI DUP1 PUSH4 0x3FD43098 EQ PUSH2 0x49B JUMPI DUP1 PUSH4 0x3FE6E01E EQ PUSH2 0x4BA JUMPI DUP1 PUSH4 0x4311DA37 EQ PUSH2 0x502 JUMPI DUP1 PUSH4 0x4538F297 EQ PUSH2 0x521 JUMPI PUSH0 PUSH0 REVERT JUMPDEST DUP1 PUSH4 0x1398E076 GT PUSH2 0x1F0 JUMPI DUP1 PUSH4 0x1398E076 EQ PUSH2 0x2BE JUMPI DUP1 PUSH4 0x15C6E123 EQ PUSH2 0x3CA JUMPI DUP1 PUSH4 0x1FE543E3 EQ PUSH2 0x3F5 JUMPI DUP1 PUSH4 0x2301D775 EQ PUSH2 0x414 JUMPI DUP1 PUSH4 0x24F74697 EQ PUSH2 0x44B JUMPI PUSH0 PUSH0 REVERT JUMPDEST DUP1 PUSH4 0x55B66CD EQ PUSH2 0x221 JUMPI DUP1 PUSH4 0x7C7A72D EQ PUSH2 0x24B JUMPI DUP1 PUSH4 0x9C1BA2E EQ PUSH2 0x27A JUMPI DUP1 PUSH4 0xAF5A263 EQ PUSH2 0x29D JUMPI JUMPDEST PUSH0 PUSH0 REVERT JUMPDEST CALLVALUE DUP1 ISZERO PUSH2 0x22C JUMPI PUSH0 PUSH0 REVERT JUMPDEST POP PUSH2 0x235 PUSH2 0x925 JUMP JUMPDEST PUSH1 0x40 MLOAD PUSH2 0x242 SWAP2 SWAP1 PUSH2 0x267B JUMP JUMPDEST PUSH1 0x40 MLOAD DUP1 SWAP2 SUB SWAP1 RETURN JUMPDEST CALLVALUE DUP1 ISZERO PUSH2 0x256 JUMPI PUSH0 PUSH0 REVERT JUMPDEST POP PUSH2 0x26A PUSH2 0x265 CALLDATASIZE PUSH1 0x4 PUSH2 0x26D8 JUMP JUMPDEST PUSH2 0xAB1 JUMP JUMPDEST PUSH1 0x40 MLOAD SWAP1 ISZERO ISZERO DUP2 MSTORE PUSH1 0x20 ADD PUSH2 0x242 JUMP JUMPDEST CALLVALUE DUP1 ISZERO PUSH2 0x285 JUMPI PUSH0 PUSH0 REVERT JUMPDEST POP PUSH2 0x28F PUSH1 0x8 SLOAD DUP2 JUMP JUMPDEST PUSH1 0x40 MLOAD SWAP1 DUP2 MSTORE PUSH1 0x20 ADD PUSH2 0x242 JUMP JUMPDEST CALLVALUE DUP1 ISZERO PUSH2 0x2A8 JUMPI PUSH0 PUSH0 REVERT JUMPDEST POP PUSH2 0x2BC PUSH2 0x2B7 CALLDATASIZE PUSH1 0x4 PUSH2 0x2702 JUMP JUMPDEST PUSH2 0xAE0 JUMP JUMPDEST STOP JUMPDEST CALLVALUE DUP1 ISZERO PUSH2 0x2C9 JUMPI PUSH0 PUSH0 REVERT JUMPDEST POP PUSH2 0x353 PUSH2 0x2D8 CALLDATASIZE PUSH1 0x4 PUSH2 0x2755 JUMP JUMPDEST PUSH1 0x2 PUSH1 0x20 DUP2 SWAP1 MSTORE PUSH0 SWAP2 DUP3 MSTORE PUSH1 0x40 SWAP1 SWAP2 KECCAK256 DUP1 SLOAD PUSH1 0x1 DUP3 ADD SLOAD SWAP3 DUP3 ADD SLOAD PUSH1 0x3 DUP4 ADD SLOAD PUSH1 0x4 DUP5 ADD SLOAD PUSH1 0x5 DUP6 ADD SLOAD PUSH1 0x6 DUP7 ADD SLOAD PUSH1 0x7 DUP8 ADD SLOAD PUSH1 0x8 DUP9 ADD SLOAD PUSH1 0xA DUP10 ADD SLOAD PUSH1 0xB SWAP1 SWAP10 ADD SLOAD PUSH1 0x1 PUSH1 0x1 PUSH1 0xA0 SHL SUB SWAP9 DUP10 AND SWAP11 SWAP10 SWAP8 SWAP9 SWAP7 SWAP8 SWAP6 SWAP7 SWAP5 SWAP6 SWAP4 SWAP5 SWAP3 SWAP4 PUSH1 0xFF DUP1 DUP5 AND SWAP5 PUSH2 0x100 DUP6 DIV DUP3 AND SWAP5 PUSH3 0x10000 SWAP1 DIV SWAP1 SWAP2 AND SWAP3 SWAP2 AND SWAP1 DUP14 JUMP JUMPDEST PUSH1 0x40 DUP1 MLOAD PUSH1 0x1 PUSH1 0x1 PUSH1 0xA0 SHL SUB SWAP15 DUP16 AND DUP2 MSTORE PUSH1 0x20 DUP2 ADD SWAP14 SWAP1 SWAP14 MSTORE DUP13 ADD SWAP11 SWAP1 SWAP11 MSTORE PUSH1 0x60 DUP12 ADD SWAP9 SWAP1 SWAP9 MSTORE PUSH1 0x80 DUP11 ADD SWAP7 SWAP1 SWAP7 MSTORE PUSH1 0xA0 DUP10 ADD SWAP5 SWAP1 SWAP5 MSTORE PUSH1 0xC0 DUP9 ADD SWAP3 SWAP1 SWAP3 MSTORE PUSH1 0xE0 DUP8 ADD MSTORE ISZERO ISZERO PUSH2 0x100 DUP7 ADD MSTORE ISZERO ISZERO PUSH2 0x120 DUP6 ADD MSTORE ISZERO ISZERO PUSH2 0x140 DUP5 ADD MSTORE SWAP1 SWAP3 AND PUSH2 0x160 DUP3 ADD MSTORE PUSH2 0x180 DUP2 ADD SWAP2 SWAP1 SWAP2 MSTORE PUSH2 0x1A0 ADD PUSH2 0x242 JUMP JUMPDEST CALLVALUE DUP1 ISZERO PUSH2 0x3D5 JUMPI PUSH0 PUSH0 REVERT JUMPDEST POP PUSH2 0x28F PUSH2 0x3E4 CALLDATASIZE PUSH1 0x4 PUSH2 0x2755 JUMP JUMPDEST PUSH1 0xB PUSH1 0x20 MSTORE PUSH0 SWAP1 DUP2 MSTORE PUSH1 0x40 SWAP1 KECCAK256 SLOAD DUP2 JUMP JUMPDEST CALLVALUE DUP1 ISZERO PUSH2 0x400 JUMPI PUSH0 PUSH0 REVERT JUMPDEST POP PUSH2 0x2BC PUSH2 0x40F CALLDATASIZE PUSH1 0x4 PUSH2 0x27B1 JUMP JUMPDEST PUSH2 0xC52 JUMP JUMPDEST CALLVALUE DUP1 ISZERO PUSH2 0x41F JUMPI PUSH0 PUSH0 REVERT JUMPDEST POP PUSH1 0x5 SLOAD PUSH2 0x433 SWAP1 PUSH1 0x1 PUSH1 0x1 PUSH1 0xA0 SHL SUB AND DUP2 JUMP JUMPDEST PUSH1 0x40 MLOAD PUSH1 0x1 PUSH1 0x1 PUSH1 0xA0 SHL SUB SWAP1 SWAP2 AND DUP2 MSTORE PUSH1 0x20 ADD PUSH2 0x242 JUMP JUMPDEST CALLVALUE DUP1 ISZERO PUSH2 0x456 JUMPI PUSH0 PUSH0 REVERT JUMPDEST POP PUSH1 0x7 SLOAD PUSH2 0x467 SWAP1 PUSH4 0xFFFFFFFF AND DUP2 JUMP JUMPDEST PUSH1 0x40 MLOAD PUSH4 0xFFFFFFFF SWAP1 SWAP2 AND DUP2 MSTORE PUSH1 0x20 ADD PUSH2 0x242 JUMP JUMPDEST CALLVALUE DUP1 ISZERO PUSH2 0x487 JUMPI PUSH0 PUSH0 REVERT JUMPDEST POP PUSH2 0x2BC PUSH2 0x496 CALLDATASIZE PUSH1 0x4 PUSH2 0x2869 JUMP JUMPDEST PUSH2 0xCA5 JUMP JUMPDEST CALLVALUE DUP1 ISZERO PUSH2 0x4A6 JUMPI PUSH0 PUSH0 REVERT JUMPDEST POP PUSH2 0x2BC PUSH2 0x4B5 CALLDATASIZE PUSH1 0x4 PUSH2 0x2755 JUMP JUMPDEST PUSH2 0xFB4 JUMP JUMPDEST CALLVALUE DUP1 ISZERO PUSH2 0x4C5 JUMPI PUSH0 PUSH0 REVERT JUMPDEST POP PUSH2 0x26A PUSH2 0x4D4 CALLDATASIZE PUSH1 0x4 PUSH2 0x26D8 JUMP JUMPDEST PUSH0 DUP3 DUP2 MSTORE PUSH1 0x2 PUSH1 0x20 SWAP1 DUP2 MSTORE PUSH1 0x40 DUP1 DUP4 KECCAK256 PUSH1 0x1 PUSH1 0x1 PUSH1 0xA0 SHL SUB DUP6 AND DUP5 MSTORE PUSH1 0xF ADD SWAP1 SWAP2 MSTORE SWAP1 KECCAK256 SLOAD PUSH1 0xFF AND SWAP3 SWAP2 POP POP JUMP JUMPDEST CALLVALUE DUP1 ISZERO PUSH2 0x50D JUMPI PUSH0 PUSH0 REVERT JUMPDEST POP PUSH2 0x2BC PUSH2 0x51C CALLDATASIZE PUSH1 0x4 PUSH2 0x2889 JUMP JUMPDEST PUSH2 0x11BF JUMP JUMPDEST CALLVALUE DUP1 ISZERO PUSH2 0x52C JUMPI PUSH0 PUSH0 REVERT JUMPDEST POP PUSH2 0x2BC PUSH2 0x53B CALLDATASIZE PUSH1 0x4 PUSH2 0x2755 JUMP JUMPDEST PUSH2 0x1339 JUMP JUMPDEST CALLVALUE DUP1 ISZERO PUSH2 0x54B JUMPI PUSH0 PUSH0 REVERT JUMPDEST POP PUSH2 0x28F PUSH1 0x3 SLOAD DUP2 JUMP JUMPDEST PUSH2 0x2BC PUSH2 0x563 CALLDATASIZE PUSH1 0x4 PUSH2 0x28E0 JUMP JUMPDEST PUSH2 0x1404 JUMP JUMPDEST CALLVALUE DUP1 ISZERO PUSH2 0x573 JUMPI PUSH0 PUSH0 REVERT JUMPDEST POP PUSH2 0x28F PUSH2 0x141F JUMP JUMPDEST CALLVALUE DUP1 ISZERO PUSH2 0x587 JUMPI PUSH0 PUSH0 REVERT JUMPDEST POP PUSH2 0x2BC PUSH2 0x596 CALLDATASIZE PUSH1 0x4 PUSH2 0x2755 JUMP JUMPDEST PUSH2 0x143A JUMP JUMPDEST CALLVALUE DUP1 ISZERO PUSH2 0x5A6 JUMPI PUSH0 PUSH0 REVERT JUMPDEST POP PUSH2 0x2BC PUSH2 0x5B5 CALLDATASIZE PUSH1 0x4 PUSH2 0x2755 JUMP JUMPDEST PUSH2 0x1617 JUMP JUMPDEST CALLVALUE DUP1 ISZERO PUSH2 0x5C5 JUMPI PUSH0 PUSH0 REVERT JUMPDEST POP PUSH2 0x28F PUSH1 0x6 SLOAD DUP2 JUMP JUMPDEST CALLVALUE DUP1 ISZERO PUSH2 0x5DA JUMPI PUSH0 PUSH0 REVERT JUMPDEST POP PUSH2 0x235 PUSH2 0x1866 JUMP JUMPDEST CALLVALUE DUP1 ISZERO PUSH2 0x5EE JUMPI PUSH0 PUSH0 REVERT JUMPDEST POP PUSH2 0x2BC PUSH2 0x18BC JUMP JUMPDEST CALLVALUE DUP1 ISZERO PUSH2 0x602 JUMPI PUSH0 PUSH0 REVERT JUMPDEST POP PUSH2 0x616 PUSH2 0x611 CALLDATASIZE PUSH1 0x4 PUSH2 0x2755 JUMP JUMPDEST PUSH2 0x18CF JUMP JUMPDEST PUSH1 0x40 MLOAD PUSH2 0x242 SWAP2 SWAP1 PUSH2 0x29C8 JUMP JUMPDEST CALLVALUE DUP1 ISZERO PUSH2 0x62E JUMPI PUSH0 PUSH0 REVERT JUMPDEST POP PUSH1 0x7 SLOAD PUSH2 0x467 SWAP1 PUSH7 0x1000000000000 SWAP1 DIV PUSH4 0xFFFFFFFF AND DUP2 JUMP JUMPDEST CALLVALUE DUP1 ISZERO PUSH2 0x654 JUMPI PUSH0 PUSH0 REVERT JUMPDEST POP PUSH2 0x2BC PUSH2 0x663 CALLDATASIZE PUSH1 0x4 PUSH2 0x2755 JUMP JUMPDEST PUSH2 0x1A6A JUMP JUMPDEST CALLVALUE DUP1 ISZERO PUSH2 0x673 JUMPI PUSH0 PUSH0 REVERT JUMPDEST POP PUSH2 0x2BC PUSH2 0x682 CALLDATASIZE PUSH1 0x4 PUSH2 0x2755 JUMP JUMPDEST PUSH2 0x1BB0 JUMP JUMPDEST CALLVALUE DUP1 ISZERO PUSH2 0x692 JUMPI PUSH0 PUSH0 REVERT JUMPDEST POP PUSH32 0x9016D09D72D40FDAE2FD8CEAC6B6234C7706214FD39C1CD1E609A0528C199300 SLOAD PUSH1 0x1 PUSH1 0x1 PUSH1 0xA0 SHL SUB AND PUSH2 0x433 JUMP JUMPDEST CALLVALUE DUP1 ISZERO PUSH2 0x6CE JUMPI PUSH0 PUSH0 REVERT JUMPDEST POP PUSH1 0x9 SLOAD PUSH2 0x433 SWAP1 PUSH1 0x1 PUSH1 0x1 PUSH1 0xA0 SHL SUB AND DUP2 JUMP JUMPDEST CALLVALUE DUP1 ISZERO PUSH2 0x6ED JUMPI PUSH0 PUSH0 REVERT JUMPDEST POP PUSH2 0x28F PUSH2 0x6FC CALLDATASIZE PUSH1 0x4 PUSH2 0x26D8 JUMP JUMPDEST PUSH0 DUP3 DUP2 MSTORE PUSH1 0x2 PUSH1 0x20 SWAP1 DUP2 MSTORE PUSH1 0x40 DUP1 DUP4 KECCAK256 PUSH1 0x1 PUSH1 0x1 PUSH1 0xA0 SHL SUB DUP6 AND DUP5 MSTORE PUSH1 0xC ADD SWAP1 SWAP2 MSTORE SWAP1 KECCAK256 SLOAD SWAP3 SWAP2 POP POP JUMP JUMPDEST CALLVALUE DUP1 ISZERO PUSH2 0x732 JUMPI PUSH0 PUSH0 REVERT JUMPDEST POP PUSH2 0x79B PUSH2 0x741 CALLDATASIZE PUSH1 0x4 PUSH2 0x26D8 JUMP JUMPDEST PUSH0 SWAP2 DUP3 MSTORE PUSH1 0x2 PUSH1 0x20 SWAP1 DUP2 MSTORE PUSH1 0x40 DUP1 DUP5 KECCAK256 PUSH1 0x1 PUSH1 0x1 PUSH1 0xA0 SHL SUB SWAP4 SWAP1 SWAP4 AND DUP5 MSTORE PUSH1 0xC DUP4 ADD DUP3 MSTORE DUP1 DUP5 KECCAK256 SLOAD PUSH1 0xD DUP5 ADD DUP4 MSTORE DUP2 DUP6 KECCAK256 SLOAD PUSH1 0xE DUP6 ADD DUP5 MSTORE DUP3 DUP7 KECCAK256 SLOAD PUSH1 0xF SWAP1 SWAP6 ADD SWAP1 SWAP4 MSTORE SWAP4 KECCAK256 SLOAD SWAP3 SWAP4 PUSH1 0xFF SWAP2 DUP3 AND SWAP4 SWAP3 DUP3 AND SWAP3 SWAP2 SWAP1 SWAP2 AND SWAP1 JUMP JUMPDEST PUSH1 0x40 DUP1 MLOAD SWAP5 DUP6 MSTORE SWAP3 ISZERO ISZERO PUSH1 0x20 DUP6 ADD MSTORE SWAP1 ISZERO ISZERO SWAP2 DUP4 ADD SWAP2 SWAP1 SWAP2 MSTORE ISZERO ISZERO PUSH1 0x60 DUP3 ADD MSTORE PUSH1 0x80 ADD PUSH2 0x242 JUMP JUMPDEST CALLVALUE DUP1 ISZERO PUSH2 0x7CE JUMPI PUSH0 PUSH0 REVERT JUMPDEST POP PUSH2 0x7F3 PUSH1 0x40 MLOAD DUP1 PUSH1 0x40 ADD PUSH1 0x40 MSTORE DUP1 PUSH1 0x5 DUP2 MSTORE PUSH1 0x20 ADD PUSH5 0x352E302E3 PUSH1 0xDC SHL DUP2 MSTORE POP DUP2 JUMP JUMPDEST PUSH1 0x40 MLOAD PUSH2 0x242 SWAP2 SWAP1 PUSH2 0x2AD4 JUMP JUMPDEST CALLVALUE DUP1 ISZERO PUSH2 0x80B JUMPI PUSH0 PUSH0 REVERT JUMPDEST POP PUSH1 0x7 SLOAD PUSH2 0x822 SWAP1 PUSH5 0x100000000 SWAP1 DIV PUSH2 0xFFFF AND DUP2 JUMP JUMPDEST PUSH1 0x40 MLOAD PUSH2 0xFFFF SWAP1 SWAP2 AND DUP2 MSTORE PUSH1 0x20 ADD PUSH2 0x242 JUMP JUMPDEST CALLVALUE DUP1 ISZERO PUSH2 0x840 JUMPI PUSH0 PUSH0 REVERT JUMPDEST POP PUSH1 0x4 SLOAD PUSH2 0x433 SWAP1 PUSH1 0x1 PUSH1 0x1 PUSH1 0xA0 SHL SUB AND DUP2 JUMP JUMPDEST CALLVALUE DUP1 ISZERO PUSH2 0x85F JUMPI PUSH0 PUSH0 REVERT JUMPDEST POP PUSH2 0x873 PUSH2 0x86E CALLDATASIZE PUSH1 0x4 PUSH2 0x2755 JUMP JUMPDEST PUSH2 0x1C3E JUMP JUMPDEST PUSH1 0x40 MLOAD PUSH2 0x242 SWAP2 SWAP1 PUSH2 0x2AE6 JUMP JUMPDEST CALLVALUE DUP1 ISZERO PUSH2 0x88B JUMPI PUSH0 PUSH0 REVERT JUMPDEST POP PUSH2 0x26A PUSH2 0x89A CALLDATASIZE PUSH1 0x4 PUSH2 0x26D8 JUMP JUMPDEST PUSH0 DUP3 DUP2 MSTORE PUSH1 0x2 PUSH1 0x20 SWAP1 DUP2 MSTORE PUSH1 0x40 DUP1 DUP4 KECCAK256 PUSH1 0x1 PUSH1 0x1 PUSH1 0xA0 SHL SUB DUP6 AND DUP5 MSTORE PUSH1 0xE ADD SWAP1 SWAP2 MSTORE SWAP1 KECCAK256 SLOAD PUSH1 0xFF AND SWAP3 SWAP2 POP POP JUMP JUMPDEST CALLVALUE DUP1 ISZERO PUSH2 0x8D3 JUMPI PUSH0 PUSH0 REVERT JUMPDEST POP PUSH2 0x2BC PUSH2 0x8E2 CALLDATASIZE PUSH1 0x4 PUSH2 0x2755 JUMP JUMPDEST PUSH2 0x1CAA JUMP JUMPDEST CALLVALUE DUP1 ISZERO PUSH2 0x8F2 JUMPI PUSH0 PUSH0 REVERT JUMPDEST POP PUSH2 0x28F PUSH2 0x901 CALLDATASIZE PUSH1 0x4 PUSH2 0x2755 JUMP JUMPDEST PUSH2 0x1DF9 JUMP JUMPDEST CALLVALUE DUP1 ISZERO PUSH2 0x911 JUMPI PUSH0 PUSH0 REVERT JUMPDEST POP PUSH2 0x2BC PUSH2 0x920 CALLDATASIZE PUSH1 0x4 PUSH2 0x2AF8 JUMP JUMPDEST PUSH2 0x1E18 JUMP JUMPDEST PUSH1 0xA SLOAD PUSH1 0x60 SWAP1 PUSH0 SWAP1 PUSH8 0xFFFFFFFFFFFFFFFF DUP2 GT ISZERO PUSH2 0x945 JUMPI PUSH2 0x945 PUSH2 0x276C JUMP JUMPDEST PUSH1 0x40 MLOAD SWAP1 DUP1 DUP3 MSTORE DUP1 PUSH1 0x20 MUL PUSH1 0x20 ADD DUP3 ADD PUSH1 0x40 MSTORE DUP1 ISZERO PUSH2 0x96E JUMPI DUP2 PUSH1 0x20 ADD PUSH1 0x20 DUP3 MUL DUP1 CALLDATASIZE DUP4 CALLDATACOPY ADD SWAP1 POP JUMPDEST POP SWAP1 POP PUSH0 DUP1 JUMPDEST PUSH1 0xA SLOAD DUP2 LT ISZERO PUSH2 0xA19 JUMPI PUSH0 PUSH1 0xA DUP3 DUP2 SLOAD DUP2 LT PUSH2 0x992 JUMPI PUSH2 0x992 PUSH2 0x2B11 JUMP JUMPDEST PUSH0 SWAP2 DUP3 MSTORE PUSH1 0x20 DUP1 DUP4 KECCAK256 SWAP1 SWAP2 ADD SLOAD DUP1 DUP4 MSTORE PUSH1 0x2 SWAP1 SWAP2 MSTORE PUSH1 0x40 SWAP1 SWAP2 KECCAK256 PUSH1 0x8 DUP2 ADD SLOAD SWAP2 SWAP3 POP SWAP1 PUSH1 0xFF AND DUP1 ISZERO PUSH2 0x9CF JUMPI POP PUSH1 0x8 DUP2 ADD SLOAD PUSH3 0x10000 SWAP1 DIV PUSH1 0xFF AND ISZERO JUMPDEST DUP1 ISZERO PUSH2 0x9DE JUMPI POP DUP1 PUSH1 0x4 ADD SLOAD TIMESTAMP LT JUMPDEST ISZERO PUSH2 0xA0F JUMPI DUP2 DUP6 DUP6 DUP2 MLOAD DUP2 LT PUSH2 0x9F6 JUMPI PUSH2 0x9F6 PUSH2 0x2B11 JUMP JUMPDEST PUSH1 0x20 SWAP1 DUP2 MUL SWAP2 SWAP1 SWAP2 ADD ADD MSTORE DUP4 PUSH2 0xA0B DUP2 PUSH2 0x2B39 JUMP JUMPDEST SWAP5 POP POP JUMPDEST POP POP PUSH1 0x1 ADD PUSH2 0x974 JUMP JUMPDEST POP PUSH0 DUP2 PUSH8 0xFFFFFFFFFFFFFFFF DUP2 GT ISZERO PUSH2 0xA34 JUMPI PUSH2 0xA34 PUSH2 0x276C JUMP JUMPDEST PUSH1 0x40 MLOAD SWAP1 DUP1 DUP3 MSTORE DUP1 PUSH1 0x20 MUL PUSH1 0x20 ADD DUP3 ADD PUSH1 0x40 MSTORE DUP1 ISZERO PUSH2 0xA5D JUMPI DUP2 PUSH1 0x20 ADD PUSH1 0x20 DUP3 MUL DUP1 CALLDATASIZE DUP4 CALLDATACOPY ADD SWAP1 POP JUMPDEST POP SWAP1 POP PUSH0 JUMPDEST DUP3 DUP2 LT ISZERO PUSH2 0xAA9 JUMPI DUP4 DUP2 DUP2 MLOAD DUP2 LT PUSH2 0xA7C JUMPI PUSH2 0xA7C PUSH2 0x2B11 JUMP JUMPDEST PUSH1 0x20 MUL PUSH1 0x20 ADD ADD MLOAD DUP3 DUP3 DUP2 MLOAD DUP2 LT PUSH2 0xA96 JUMPI PUSH2 0xA96 PUSH2 0x2B11 JUMP JUMPDEST PUSH1 0x20 SWAP1 DUP2 MUL SWAP2 SWAP1 SWAP2 ADD ADD MSTORE PUSH1 0x1 ADD PUSH2 0xA62 JUMP JUMPDEST POP SWAP4 SWAP3 POP POP POP JUMP JUMPDEST PUSH0 DUP3 DUP2 MSTORE PUSH1 0x2 PUSH1 0x20 SWAP1 DUP2 MSTORE PUSH1 0x40 DUP1 DUP4 KECCAK256 PUSH1 0x1 PUSH1 0x1 PUSH1 0xA0 SHL SUB DUP6 AND DUP5 MSTORE PUSH1 0xD ADD SWAP1 SWAP2 MSTORE SWAP1 KECCAK256 SLOAD PUSH1 0xFF AND JUMPDEST SWAP3 SWAP2 POP POP JUMP JUMPDEST PUSH0 PUSH2 0xAE9 PUSH2 0x1E52 JUMP JUMPDEST DUP1 SLOAD SWAP1 SWAP2 POP PUSH1 0xFF PUSH1 0x1 PUSH1 0x40 SHL DUP3 DIV AND ISZERO SWAP1 PUSH8 0xFFFFFFFFFFFFFFFF AND PUSH0 DUP2 ISZERO DUP1 ISZERO PUSH2 0xB10 JUMPI POP DUP3 JUMPDEST SWAP1 POP PUSH0 DUP3 PUSH8 0xFFFFFFFFFFFFFFFF AND PUSH1 0x1 EQ DUP1 ISZERO PUSH2 0xB2C JUMPI POP ADDRESS EXTCODESIZE ISZERO JUMPDEST SWAP1 POP DUP2 ISZERO DUP1 ISZERO PUSH2 0xB3A JUMPI POP DUP1 ISZERO JUMPDEST ISZERO PUSH2 0xB58 JUMPI PUSH1 0x40 MLOAD PUSH4 0xF92EE8A9 PUSH1 0xE0 SHL DUP2 MSTORE PUSH1 0x4 ADD PUSH1 0x40 MLOAD DUP1 SWAP2 SUB SWAP1 REVERT JUMPDEST DUP5 SLOAD PUSH8 0xFFFFFFFFFFFFFFFF NOT AND PUSH1 0x1 OR DUP6 SSTORE DUP4 ISZERO PUSH2 0xB82 JUMPI DUP5 SLOAD PUSH1 0xFF PUSH1 0x40 SHL NOT AND PUSH1 0x1 PUSH1 0x40 SHL OR DUP6 SSTORE JUMPDEST PUSH2 0xB8B CALLER PUSH2 0x1E7A JUMP JUMPDEST PUSH2 0xB93 PUSH2 0x1E8B JUMP JUMPDEST PUSH2 0xB9C DUP11 PUSH2 0x1E93 JUMP JUMPDEST PUSH1 0x9 DUP1 SLOAD PUSH1 0x1 PUSH1 0x1 PUSH1 0xA0 SHL SUB NOT SWAP1 DUP2 AND PUSH1 0x1 PUSH1 0x1 PUSH1 0xA0 SHL SUB DUP14 DUP2 AND SWAP2 SWAP1 SWAP2 OR SWAP1 SWAP3 SSTORE PUSH1 0x6 DUP12 SWAP1 SSTORE PUSH1 0x8 DUP11 SWAP1 SSTORE PUSH1 0x7 DUP1 SLOAD PUSH10 0xFFFFFFFFFFFFFFFFFFFF NOT AND PUSH7 0x1000300030D40 OR SWAP1 SSTORE PUSH1 0x4 DUP1 SLOAD DUP3 AND DUP11 DUP5 AND OR SWAP1 SSTORE PUSH1 0x5 DUP1 SLOAD SWAP1 SWAP2 AND SWAP2 DUP9 AND SWAP2 SWAP1 SWAP2 OR SWAP1 SSTORE DUP4 ISZERO PUSH2 0xC46 JUMPI DUP5 SLOAD PUSH1 0xFF PUSH1 0x40 SHL NOT AND DUP6 SSTORE PUSH1 0x40 MLOAD PUSH1 0x1 DUP2 MSTORE PUSH32 0xC7F505B2F371AE2175EE4913F4499E1F2633A7B5936321EED1CDAEB6115181D2 SWAP1 PUSH1 0x20 ADD PUSH1 0x40 MLOAD DUP1 SWAP2 SUB SWAP1 LOG1 JUMPDEST POP POP POP POP POP POP POP POP POP POP JUMP JUMPDEST PUSH1 0x1 SLOAD PUSH1 0x1 PUSH1 0x1 PUSH1 0xA0 SHL SUB AND CALLER EQ PUSH2 0xC97 JUMPI PUSH1 0x1 SLOAD PUSH1 0x40 MLOAD PUSH4 0x73E64FD PUSH1 0xE2 SHL DUP2 MSTORE CALLER PUSH1 0x4 DUP3 ADD MSTORE PUSH1 0x1 PUSH1 0x1 PUSH1 0xA0 SHL SUB SWAP1 SWAP2 AND PUSH1 0x24 DUP3 ADD MSTORE PUSH1 0x44 ADD JUMPDEST PUSH1 0x40 MLOAD DUP1 SWAP2 SUB SWAP1 REVERT JUMPDEST PUSH2 0xCA1 DUP3 DUP3 PUSH2 0x1EBD JUMP JUMPDEST POP POP JUMP JUMPDEST PUSH2 0xCAD PUSH2 0x20ED JUMP JUMPDEST PUSH0 DUP3 DUP2 MSTORE PUSH1 0x2 PUSH1 0x20 SWAP1 DUP2 MSTORE PUSH1 0x40 DUP1 DUP4 KECCAK256 DUP5 DUP5 MSTORE DUP2 DUP5 KECCAK256 CALLER DUP6 MSTORE PUSH1 0xC DUP3 ADD SWAP1 SWAP4 MSTORE SWAP3 KECCAK256 SLOAD PUSH2 0xD09 JUMPI PUSH1 0x40 MLOAD PUSH3 0x461BCD PUSH1 0xE5 SHL DUP2 MSTORE PUSH1 0x20 PUSH1 0x4 DUP3 ADD MSTORE PUSH1 0xA PUSH1 0x24 DUP3 ADD MSTORE PUSH10 0x139BDD081A5B881BDB19 PUSH1 0xB2 SHL PUSH1 0x44 DUP3 ADD MSTORE PUSH1 0x64 ADD PUSH2 0xC8E JUMP JUMPDEST CALLER PUSH0 SWAP1 DUP2 MSTORE PUSH1 0xE DUP4 ADD PUSH1 0x20 MSTORE PUSH1 0x40 SWAP1 KECCAK256 SLOAD PUSH1 0xFF AND ISZERO PUSH2 0xD5D JUMPI PUSH1 0x40 MLOAD PUSH3 0x461BCD PUSH1 0xE5 SHL DUP2 MSTORE PUSH1 0x20 PUSH1 0x4 DUP3 ADD MSTORE PUSH1 0x10 PUSH1 0x24 DUP3 ADD MSTORE PUSH16 0x526566756E64656420616C7265616479 PUSH1 0x80 SHL PUSH1 0x44 DUP3 ADD MSTORE PUSH1 0x64 ADD PUSH2 0xC8E JUMP JUMPDEST PUSH1 0x8 DUP3 ADD SLOAD PUSH3 0x10000 SWAP1 DIV PUSH1 0xFF AND DUP1 PUSH2 0xD97 JUMPI POP PUSH1 0x8 DUP3 ADD SLOAD PUSH2 0x100 SWAP1 DIV PUSH1 0xFF AND DUP1 ISZERO PUSH2 0xD97 JUMPI POP PUSH1 0xA DUP3 ADD SLOAD PUSH1 0x1 PUSH1 0x1 PUSH1 0xA0 SHL SUB AND CALLER EQ ISZERO JUMPDEST PUSH2 0xDD6 JUMPI PUSH1 0x40 MLOAD PUSH3 0x461BCD PUSH1 0xE5 SHL DUP2 MSTORE PUSH1 0x20 PUSH1 0x4 DUP3 ADD MSTORE PUSH1 0x10 PUSH1 0x24 DUP3 ADD MSTORE PUSH16 0x4F6C64206E6F7420656C696769626C65 PUSH1 0x80 SHL PUSH1 0x44 DUP3 ADD MSTORE PUSH1 0x64 ADD PUSH2 0xC8E JUMP JUMPDEST PUSH1 0x8 DUP2 ADD SLOAD PUSH1 0xFF AND DUP1 ISZERO PUSH2 0xDF5 JUMPI POP PUSH1 0x8 DUP2 ADD SLOAD PUSH3 0x10000 SWAP1 DIV PUSH1 0xFF AND ISZERO JUMPDEST PUSH2 0xE38 JUMPI PUSH1 0x40 MLOAD PUSH3 0x461BCD PUSH1 0xE5 SHL DUP2 MSTORE PUSH1 0x20 PUSH1 0x4 DUP3 ADD MSTORE PUSH1 0x14 PUSH1 0x24 DUP3 ADD MSTORE PUSH20 0x4E6577206C6F747465727920696E616374697665 PUSH1 0x60 SHL PUSH1 0x44 DUP3 ADD MSTORE PUSH1 0x64 ADD PUSH2 0xC8E JUMP JUMPDEST DUP1 PUSH1 0x4 ADD SLOAD TIMESTAMP LT PUSH2 0xE7E JUMPI PUSH1 0x40 MLOAD PUSH3 0x461BCD PUSH1 0xE5 SHL DUP2 MSTORE PUSH1 0x20 PUSH1 0x4 DUP3 ADD MSTORE PUSH1 0x10 PUSH1 0x24 DUP3 ADD MSTORE PUSH16 0x546F6F206C61746520666F72206E6577 PUSH1 0x80 SHL PUSH1 0x44 DUP3 ADD MSTORE PUSH1 0x64 ADD PUSH2 0xC8E JUMP JUMPDEST CALLER PUSH0 SWAP1 DUP2 MSTORE PUSH1 0xE DUP4 ADD PUSH1 0x20 MSTORE PUSH1 0x40 DUP2 KECCAK256 DUP1 SLOAD PUSH1 0xFF NOT AND PUSH1 0x1 SWAP1 DUP2 OR SWAP1 SWAP2 SSTORE PUSH1 0x2 DUP4 ADD SLOAD SWAP1 DUP4 ADD SLOAD PUSH2 0xEAF SWAP2 SWAP1 PUSH2 0x2B51 JUMP JUMPDEST DUP3 SLOAD PUSH1 0x40 MLOAD PUSH4 0x23B872DD PUSH1 0xE0 SHL DUP2 MSTORE CALLER PUSH1 0x4 DUP3 ADD MSTORE ADDRESS PUSH1 0x24 DUP3 ADD MSTORE PUSH1 0x44 DUP2 ADD DUP4 SWAP1 MSTORE SWAP2 SWAP3 POP PUSH1 0x1 PUSH1 0x1 PUSH1 0xA0 SHL SUB AND SWAP1 PUSH4 0x23B872DD SWAP1 PUSH1 0x64 ADD PUSH1 0x20 PUSH1 0x40 MLOAD DUP1 DUP4 SUB DUP2 PUSH0 DUP8 GAS CALL ISZERO DUP1 ISZERO PUSH2 0xF03 JUMPI RETURNDATASIZE PUSH0 PUSH0 RETURNDATACOPY RETURNDATASIZE PUSH0 REVERT JUMPDEST POP POP POP POP PUSH1 0x40 MLOAD RETURNDATASIZE PUSH1 0x1F NOT PUSH1 0x1F DUP3 ADD AND DUP3 ADD DUP1 PUSH1 0x40 MSTORE POP DUP2 ADD SWAP1 PUSH2 0xF27 SWAP2 SWAP1 PUSH2 0x2B64 JUMP JUMPDEST POP PUSH1 0x9 DUP3 ADD DUP1 SLOAD PUSH1 0x1 DUP2 ADD DUP3 SSTORE PUSH0 SWAP2 DUP3 MSTORE PUSH1 0x20 DUP1 DUP4 KECCAK256 SWAP1 SWAP2 ADD DUP1 SLOAD PUSH1 0x1 PUSH1 0x1 PUSH1 0xA0 SHL SUB NOT AND CALLER SWAP1 DUP2 OR SWAP1 SWAP2 SSTORE DUP3 MSTORE PUSH1 0xC DUP5 ADD SWAP1 MSTORE PUSH1 0x40 DUP2 KECCAK256 DUP1 SLOAD SWAP2 PUSH2 0xF6B DUP4 PUSH2 0x2B39 JUMP JUMPDEST SWAP1 SWAP2 SSTORE POP POP PUSH1 0x40 DUP1 MLOAD DUP6 DUP2 MSTORE CALLER PUSH1 0x20 DUP3 ADD MSTORE PUSH32 0x1E28857182A3B2BB6FBB88287D1BA8CC3A941DD65D4C977286676D27B877A3D9 SWAP2 ADD PUSH1 0x40 MLOAD DUP1 SWAP2 SUB SWAP1 LOG1 POP POP POP PUSH2 0xCA1 PUSH1 0x1 PUSH0 SSTORE JUMP JUMPDEST PUSH2 0xFBC PUSH2 0x20ED JUMP JUMPDEST PUSH0 DUP2 DUP2 MSTORE PUSH1 0x2 PUSH1 0x20 MSTORE PUSH1 0x40 SWAP1 KECCAK256 PUSH1 0x8 DUP2 ADD SLOAD PUSH1 0xFF AND DUP1 ISZERO PUSH2 0xFE8 JUMPI POP PUSH1 0x8 DUP2 ADD SLOAD PUSH3 0x10000 SWAP1 DIV PUSH1 0xFF AND ISZERO JUMPDEST PUSH2 0x102C JUMPI PUSH1 0x40 MLOAD PUSH3 0x461BCD PUSH1 0xE5 SHL DUP2 MSTORE PUSH1 0x20 PUSH1 0x4 DUP3 ADD MSTORE PUSH1 0x15 PUSH1 0x24 DUP3 ADD MSTORE PUSH21 0x125B9858DD1A5D99481BDC8818D85B98D95B1B1959 PUSH1 0x5A SHL PUSH1 0x44 DUP3 ADD MSTORE PUSH1 0x64 ADD PUSH2 0xC8E JUMP JUMPDEST DUP1 PUSH1 0x4 ADD SLOAD TIMESTAMP LT PUSH2 0x106A JUMPI PUSH1 0x40 MLOAD PUSH3 0x461BCD PUSH1 0xE5 SHL DUP2 MSTORE PUSH1 0x20 PUSH1 0x4 DUP3 ADD MSTORE PUSH1 0x8 PUSH1 0x24 DUP3 ADD MSTORE PUSH8 0x546F6F206C617465 PUSH1 0xC0 SHL PUSH1 0x44 DUP3 ADD MSTORE PUSH1 0x64 ADD PUSH2 0xC8E JUMP JUMPDEST PUSH1 0x3 DUP2 ADD SLOAD PUSH1 0x9 DUP3 ADD SLOAD LT PUSH2 0x10B4 JUMPI PUSH1 0x40 MLOAD PUSH3 0x461BCD PUSH1 0xE5 SHL DUP2 MSTORE PUSH1 0x20 PUSH1 0x4 DUP3 ADD MSTORE PUSH1 0x10 PUSH1 0x24 DUP3 ADD MSTORE PUSH16 0x4D6178207061727469636970616E7473 PUSH1 0x80 SHL PUSH1 0x44 DUP3 ADD MSTORE PUSH1 0x64 ADD PUSH2 0xC8E JUMP JUMPDEST DUP1 SLOAD PUSH1 0x1 DUP3 ADD SLOAD PUSH1 0x40 MLOAD PUSH4 0x23B872DD PUSH1 0xE0 SHL DUP2 MSTORE CALLER PUSH1 0x4 DUP3 ADD MSTORE ADDRESS PUSH1 0x24 DUP3 ADD MSTORE PUSH1 0x44 DUP2 ADD SWAP2 SWAP1 SWAP2 MSTORE PUSH1 0x1 PUSH1 0x1 PUSH1 0xA0 SHL SUB SWAP1 SWAP2 AND SWAP1 PUSH4 0x23B872DD SWAP1 PUSH1 0x64 ADD PUSH1 0x20 PUSH1 0x40 MLOAD DUP1 DUP4 SUB DUP2 PUSH0 DUP8 GAS CALL ISZERO DUP1 ISZERO PUSH2 0x110D JUMPI RETURNDATASIZE PUSH0 PUSH0 RETURNDATACOPY RETURNDATASIZE PUSH0 REVERT JUMPDEST POP POP POP POP PUSH1 0x40 MLOAD RETURNDATASIZE PUSH1 0x1F NOT PUSH1 0x1F DUP3 ADD AND DUP3 ADD DUP1 PUSH1 0x40 MSTORE POP DUP2 ADD SWAP1 PUSH2 0x1131 SWAP2 SWAP1 PUSH2 0x2B64 JUMP JUMPDEST POP PUSH1 0x9 DUP2 ADD DUP1 SLOAD PUSH1 0x1 DUP2 ADD DUP3 SSTORE PUSH0 SWAP2 DUP3 MSTORE PUSH1 0x20 DUP1 DUP4 KECCAK256 SWAP1 SWAP2 ADD DUP1 SLOAD PUSH1 0x1 PUSH1 0x1 PUSH1 0xA0 SHL SUB NOT AND CALLER SWAP1 DUP2 OR SWAP1 SWAP2 SSTORE DUP3 MSTORE PUSH1 0xC DUP4 ADD SWAP1 MSTORE PUSH1 0x40 DUP2 KECCAK256 DUP1 SLOAD SWAP2 PUSH2 0x1175 DUP4 PUSH2 0x2B39 JUMP JUMPDEST SWAP1 SWAP2 SSTORE POP POP PUSH1 0x40 DUP1 MLOAD DUP4 DUP2 MSTORE CALLER PUSH1 0x20 DUP3 ADD MSTORE PUSH32 0x1E28857182A3B2BB6FBB88287D1BA8CC3A941DD65D4C977286676D27B877A3D9 SWAP2 ADD PUSH1 0x40 MLOAD DUP1 SWAP2 SUB SWAP1 LOG1 POP PUSH2 0x11BC PUSH1 0x1 PUSH0 SSTORE JUMP JUMPDEST POP JUMP JUMPDEST PUSH2 0x11C7 PUSH2 0x2144 JUMP JUMPDEST DUP6 DUP8 LT ISZERO PUSH2 0x1207 JUMPI PUSH1 0x40 MLOAD PUSH3 0x461BCD PUSH1 0xE5 SHL DUP2 MSTORE PUSH1 0x20 PUSH1 0x4 DUP3 ADD MSTORE PUSH1 0xD PUSH1 0x24 DUP3 ADD MSTORE PUSH13 0x526566756E64203C3D20666565 PUSH1 0x98 SHL PUSH1 0x44 DUP3 ADD MSTORE PUSH1 0x64 ADD PUSH2 0xC8E JUMP JUMPDEST TIMESTAMP DUP5 GT PUSH2 0x124A JUMPI PUSH1 0x40 MLOAD PUSH3 0x461BCD PUSH1 0xE5 SHL DUP2 MSTORE PUSH1 0x20 PUSH1 0x4 DUP3 ADD MSTORE PUSH1 0x11 PUSH1 0x24 DUP3 ADD MSTORE PUSH17 0x496E76616C696420647261772074696D65 PUSH1 0x78 SHL PUSH1 0x44 DUP3 ADD MSTORE PUSH1 0x64 ADD PUSH2 0xC8E JUMP JUMPDEST PUSH1 0x3 DUP1 SLOAD SWAP1 PUSH0 PUSH2 0x1259 DUP4 PUSH2 0x2B39 JUMP JUMPDEST SWAP1 SWAP2 SSTORE POP POP PUSH1 0x3 DUP1 SLOAD PUSH0 SWAP1 DUP2 MSTORE PUSH1 0x2 PUSH1 0x20 DUP2 DUP2 MSTORE PUSH1 0x40 DUP1 DUP5 KECCAK256 DUP1 SLOAD PUSH1 0x1 PUSH1 0x1 PUSH1 0xA0 SHL SUB NOT AND PUSH1 0x1 PUSH1 0x1 PUSH1 0xA0 SHL SUB DUP16 AND OR DUP2 SSTORE PUSH1 0x1 DUP1 DUP3 ADD DUP15 SWAP1 SSTORE SWAP4 DUP2 ADD DUP13 SWAP1 SSTORE DUP1 DUP7 ADD DUP12 SWAP1 SSTORE PUSH1 0x4 DUP2 ADD DUP11 SWAP1 SSTORE PUSH1 0x5 DUP2 ADD DUP10 SWAP1 SSTORE PUSH1 0x6 DUP2 ADD DUP9 SWAP1 SSTORE PUSH1 0x7 DUP2 ADD DUP8 SWAP1 SSTORE PUSH1 0x8 DUP2 ADD DUP1 SLOAD PUSH1 0xFF NOT AND DUP6 OR SWAP1 SSTORE SWAP5 SLOAD PUSH1 0xA DUP1 SLOAD SWAP5 DUP6 ADD DUP2 SSTORE SWAP1 SWAP5 MSTORE PUSH32 0xC65A7BB8D6351C1CF70C95A316CC6A92839C986682D98BC35F958F4883F9D2A8 SWAP1 SWAP3 ADD DUP4 SWAP1 SSTORE SWAP1 MLOAD SWAP2 DUP3 MSTORE PUSH32 0x9E0023BEBCC752BAAA41057318405B5A6A8E9C6372B519717CFDF238E5CAA795 SWAP2 ADD PUSH1 0x40 MLOAD DUP1 SWAP2 SUB SWAP1 LOG1 POP POP POP POP POP POP POP POP POP JUMP JUMPDEST PUSH2 0x1341 PUSH2 0x2144 JUMP JUMPDEST PUSH0 DUP2 DUP2 MSTORE PUSH1 0x2 PUSH1 0x20 MSTORE PUSH1 0x40 SWAP1 KECCAK256 PUSH1 0x8 DUP2 ADD SLOAD PUSH3 0x10000 SWAP1 DIV PUSH1 0xFF AND ISZERO DUP1 ISZERO PUSH2 0x1373 JUMPI POP PUSH1 0x8 DUP2 ADD SLOAD PUSH2 0x100 SWAP1 DIV PUSH1 0xFF AND ISZERO JUMPDEST PUSH2 0x13B3 JUMPI PUSH1 0x40 MLOAD PUSH3 0x461BCD PUSH1 0xE5 SHL DUP2 MSTORE PUSH1 0x20 PUSH1 0x4 DUP3 ADD MSTORE PUSH1 0x11 PUSH1 0x24 DUP3 ADD MSTORE PUSH17 0x105B1C9958591E48199A5B985B1A5E9959 PUSH1 0x7A SHL PUSH1 0x44 DUP3 ADD MSTORE PUSH1 0x64 ADD PUSH2 0xC8E JUMP JUMPDEST PUSH1 0x8 DUP2 ADD DUP1 SLOAD PUSH3 0xFF0000 NOT AND PUSH3 0x10000 OR SWAP1 SSTORE PUSH1 0x40 MLOAD PUSH32 0xC3DAC690CF4C3AE8964F18B8F09F7F9A75D3962A8CBB7CD689DF2C291BB5B2DD SWAP1 PUSH2 0x13F8 SWAP1 DUP5 DUP2 MSTORE PUSH1 0x20 ADD SWAP1 JUMP JUMPDEST PUSH1 0x40 MLOAD DUP1 SWAP2 SUB SWAP1 LOG1 POP POP JUMP JUMPDEST PUSH2 0x140C PUSH2 0x219F JUMP JUMPDEST PUSH2 0x1415 DUP3 PUSH2 0x2243 JUMP JUMPDEST PUSH2 0xCA1 DUP3 DUP3 PUSH2 0x224B JUMP JUMPDEST PUSH0 PUSH2 0x1428 PUSH2 0x230C JUMP JUMPDEST POP PUSH0 MLOAD PUSH1 0x20 PUSH2 0x2C43 PUSH0 CODECOPY PUSH0 MLOAD SWAP1 PUSH0 MSTORE SWAP1 JUMP JUMPDEST PUSH2 0x1442 PUSH2 0x20ED JUMP JUMPDEST PUSH0 DUP2 DUP2 MSTORE PUSH1 0x2 PUSH1 0x20 MSTORE PUSH1 0x40 SWAP1 KECCAK256 PUSH1 0x8 DUP2 ADD SLOAD PUSH3 0x10000 SWAP1 DIV PUSH1 0xFF AND DUP1 PUSH2 0x1489 JUMPI POP PUSH1 0x8 DUP2 ADD SLOAD PUSH2 0x100 SWAP1 DIV PUSH1 0xFF AND DUP1 ISZERO PUSH2 0x1489 JUMPI POP PUSH1 0xA DUP2 ADD SLOAD PUSH1 0x1 PUSH1 0x1 PUSH1 0xA0 SHL SUB AND CALLER EQ ISZERO JUMPDEST PUSH2 0x14C4 JUMPI PUSH1 0x40 MLOAD PUSH3 0x461BCD PUSH1 0xE5 SHL DUP2 MSTORE PUSH1 0x20 PUSH1 0x4 DUP3 ADD MSTORE PUSH1 0xC PUSH1 0x24 DUP3 ADD MSTORE PUSH12 0x4E6F7420656C696769626C65 PUSH1 0xA0 SHL PUSH1 0x44 DUP3 ADD MSTORE PUSH1 0x64 ADD PUSH2 0xC8E JUMP JUMPDEST CALLER PUSH0 SWAP1 DUP2 MSTORE PUSH1 0xE DUP3 ADD PUSH1 0x20 MSTORE PUSH1 0x40 SWAP1 KECCAK256 SLOAD PUSH1 0xFF AND ISZERO PUSH2 0x1518 JUMPI PUSH1 0x40 MLOAD PUSH3 0x461BCD PUSH1 0xE5 SHL DUP2 MSTORE PUSH1 0x20 PUSH1 0x4 DUP3 ADD MSTORE PUSH1 0x10 PUSH1 0x24 DUP3 ADD MSTORE PUSH16 0x105B1C9958591E481C99599D5B991959 PUSH1 0x82 SHL PUSH1 0x44 DUP3 ADD MSTORE PUSH1 0x64 ADD PUSH2 0xC8E JUMP JUMPDEST CALLER PUSH0 SWAP1 DUP2 MSTORE PUSH1 0xC DUP3 ADD PUSH1 0x20 MSTORE PUSH1 0x40 SWAP1 KECCAK256 SLOAD PUSH2 0x1562 JUMPI PUSH1 0x40 MLOAD PUSH3 0x461BCD PUSH1 0xE5 SHL DUP2 MSTORE PUSH1 0x20 PUSH1 0x4 DUP3 ADD MSTORE PUSH1 0xA PUSH1 0x24 DUP3 ADD MSTORE PUSH10 0x4E6F20656E7472696573 PUSH1 0xB0 SHL PUSH1 0x44 DUP3 ADD MSTORE PUSH1 0x64 ADD PUSH2 0xC8E JUMP JUMPDEST CALLER PUSH0 SWAP1 DUP2 MSTORE PUSH1 0xE DUP3 ADD PUSH1 0x20 SWAP1 DUP2 MSTORE PUSH1 0x40 DUP1 DUP4 KECCAK256 DUP1 SLOAD PUSH1 0xFF NOT AND PUSH1 0x1 OR SWAP1 SSTORE PUSH1 0xC DUP5 ADD SWAP1 SWAP2 MSTORE DUP2 KECCAK256 SLOAD PUSH1 0x2 DUP4 ADD SLOAD PUSH2 0x1599 SWAP2 SWAP1 PUSH2 0x2B83 JUMP JUMPDEST DUP3 SLOAD PUSH1 0x40 MLOAD PUSH4 0xA9059CBB PUSH1 0xE0 SHL DUP2 MSTORE CALLER PUSH1 0x4 DUP3 ADD MSTORE PUSH1 0x24 DUP2 ADD DUP4 SWAP1 MSTORE SWAP2 SWAP3 POP PUSH1 0x1 PUSH1 0x1 PUSH1 0xA0 SHL SUB AND SWAP1 PUSH4 0xA9059CBB SWAP1 PUSH1 0x44 ADD PUSH1 0x20 PUSH1 0x40 MLOAD DUP1 DUP4 SUB DUP2 PUSH0 DUP8 GAS CALL ISZERO DUP1 ISZERO PUSH2 0x15E7 JUMPI RETURNDATASIZE PUSH0 PUSH0 RETURNDATACOPY RETURNDATASIZE PUSH0 REVERT JUMPDEST POP POP POP POP PUSH1 0x40 MLOAD RETURNDATASIZE PUSH1 0x1F NOT PUSH1 0x1F DUP3 ADD AND DUP3 ADD DUP1 PUSH1 0x40 MSTORE POP DUP2 ADD SWAP1 PUSH2 0x160B SWAP2 SWAP1 PUSH2 0x2B64 JUMP JUMPDEST POP POP POP PUSH2 0x11BC PUSH1 0x1 PUSH0 SSTORE JUMP JUMPDEST PUSH2 0x161F PUSH2 0x2144 JUMP JUMPDEST PUSH0 DUP2 DUP2 MSTORE PUSH1 0x2 PUSH1 0x20 MSTORE PUSH1 0x40 SWAP1 KECCAK256 PUSH1 0x4 DUP2 ADD SLOAD TIMESTAMP LT ISZERO PUSH2 0x166C JUMPI PUSH1 0x40 MLOAD PUSH3 0x461BCD PUSH1 0xE5 SHL DUP2 MSTORE PUSH1 0x20 PUSH1 0x4 DUP3 ADD MSTORE PUSH1 0x9 PUSH1 0x24 DUP3 ADD MSTORE PUSH9 0x546F6F206561726C79 PUSH1 0xB8 SHL PUSH1 0x44 DUP3 ADD MSTORE PUSH1 0x64 ADD PUSH2 0xC8E JUMP JUMPDEST PUSH1 0x8 DUP2 ADD SLOAD PUSH2 0x100 SWAP1 DIV PUSH1 0xFF AND ISZERO DUP1 ISZERO PUSH2 0x1691 JUMPI POP PUSH1 0x8 DUP2 ADD SLOAD PUSH3 0x10000 SWAP1 DIV PUSH1 0xFF AND ISZERO JUMPDEST PUSH2 0x16DD JUMPI PUSH1 0x40 MLOAD PUSH3 0x461BCD PUSH1 0xE5 SHL DUP2 MSTORE PUSH1 0x20 PUSH1 0x4 DUP3 ADD MSTORE PUSH1 0x1A PUSH1 0x24 DUP3 ADD MSTORE PUSH32 0x416C726561647920647261776E206F722063616E63656C6C6564000000000000 PUSH1 0x44 DUP3 ADD MSTORE PUSH1 0x64 ADD PUSH2 0xC8E JUMP JUMPDEST PUSH1 0x9 DUP2 ADD SLOAD PUSH2 0x1720 JUMPI PUSH1 0x40 MLOAD PUSH3 0x461BCD PUSH1 0xE5 SHL DUP2 MSTORE PUSH1 0x20 PUSH1 0x4 DUP3 ADD MSTORE PUSH1 0xF PUSH1 0x24 DUP3 ADD MSTORE PUSH15 0x4E6F207061727469636970616E7473 PUSH1 0x88 SHL PUSH1 0x44 DUP3 ADD MSTORE PUSH1 0x64 ADD PUSH2 0xC8E JUMP JUMPDEST PUSH1 0x9 SLOAD PUSH1 0x40 DUP1 MLOAD PUSH1 0xC0 DUP2 ADD DUP3 MSTORE PUSH1 0x6 SLOAD DUP2 MSTORE PUSH1 0x8 SLOAD PUSH1 0x20 DUP1 DUP4 ADD SWAP2 SWAP1 SWAP2 MSTORE PUSH1 0x7 SLOAD PUSH2 0xFFFF PUSH5 0x100000000 DUP3 DIV AND DUP4 DUP6 ADD MSTORE PUSH4 0xFFFFFFFF DUP1 DUP3 AND PUSH1 0x60 DUP6 ADD MSTORE PUSH7 0x1000000000000 SWAP1 SWAP2 DIV AND PUSH1 0x80 DUP4 ADD MSTORE DUP3 MLOAD SWAP1 DUP2 ADD SWAP1 SWAP3 MSTORE PUSH0 DUP1 DUP4 MSTORE SWAP3 PUSH1 0x1 PUSH1 0x1 PUSH1 0xA0 SHL SUB AND SWAP2 PUSH4 0x9B1C385E SWAP2 SWAP1 PUSH1 0xA0 DUP3 ADD SWAP1 PUSH2 0x179B SWAP1 PUSH2 0x2355 JUMP JUMPDEST DUP2 MSTORE POP PUSH1 0x40 MLOAD DUP3 PUSH4 0xFFFFFFFF AND PUSH1 0xE0 SHL DUP2 MSTORE PUSH1 0x4 ADD PUSH2 0x17BA SWAP2 SWAP1 PUSH2 0x2B9A JUMP JUMPDEST PUSH1 0x20 PUSH1 0x40 MLOAD DUP1 DUP4 SUB DUP2 PUSH0 DUP8 GAS CALL ISZERO DUP1 ISZERO PUSH2 0x17D6 JUMPI RETURNDATASIZE PUSH0 PUSH0 RETURNDATACOPY RETURNDATASIZE PUSH0 REVERT JUMPDEST POP POP POP POP PUSH1 0x40 MLOAD RETURNDATASIZE PUSH1 0x1F NOT PUSH1 0x1F DUP3 ADD AND DUP3 ADD DUP1 PUSH1 0x40 MSTORE POP DUP2 ADD SWAP1 PUSH2 0x17FA SWAP2 SWAP1 PUSH2 0x2BF6 JUMP JUMPDEST PUSH0 DUP2 DUP2 MSTORE PUSH1 0xB PUSH1 0x20 MSTORE PUSH1 0x40 SWAP1 DUP2 SWAP1 KECCAK256 DUP6 SWAP1 SSTORE PUSH1 0x8 DUP5 ADD DUP1 SLOAD PUSH2 0xFF00 NOT AND PUSH2 0x100 OR SWAP1 SSTORE MLOAD SWAP1 SWAP2 POP PUSH32 0x600253EAE67A5C51C82A7123372E8644F16009C6304E18F844CF86FDC40C24D7 SWAP1 PUSH2 0x1859 SWAP1 DUP6 SWAP1 DUP5 SWAP1 SWAP2 DUP3 MSTORE PUSH1 0x20 DUP3 ADD MSTORE PUSH1 0x40 ADD SWAP1 JUMP JUMPDEST PUSH1 0x40 MLOAD DUP1 SWAP2 SUB SWAP1 LOG1 POP POP POP JUMP JUMPDEST PUSH1 0x60 PUSH1 0xA DUP1 SLOAD DUP1 PUSH1 0x20 MUL PUSH1 0x20 ADD PUSH1 0x40 MLOAD SWAP1 DUP2 ADD PUSH1 0x40 MSTORE DUP1 SWAP3 SWAP2 SWAP1 DUP2 DUP2 MSTORE PUSH1 0x20 ADD DUP3 DUP1 SLOAD DUP1 ISZERO PUSH2 0x18B2 JUMPI PUSH1 0x20 MUL DUP3 ADD SWAP2 SWAP1 PUSH0 MSTORE PUSH1 0x20 PUSH0 KECCAK256 SWAP1 JUMPDEST DUP2 SLOAD DUP2 MSTORE PUSH1 0x20 ADD SWAP1 PUSH1 0x1 ADD SWAP1 DUP1 DUP4 GT PUSH2 0x189E JUMPI JUMPDEST POP POP POP POP POP SWAP1 POP SWAP1 JUMP JUMPDEST PUSH2 0x18C4 PUSH2 0x2144 JUMP JUMPDEST PUSH2 0x18CD PUSH0 PUSH2 0x23C6 JUMP JUMPDEST JUMP JUMPDEST PUSH2 0x194C PUSH1 0x40 MLOAD DUP1 PUSH2 0x1C0 ADD PUSH1 0x40 MSTORE DUP1 PUSH0 PUSH1 0x1 PUSH1 0x1 PUSH1 0xA0 SHL SUB AND DUP2 MSTORE PUSH1 0x20 ADD PUSH0 DUP2 MSTORE PUSH1 0x20 ADD PUSH0 DUP2 MSTORE PUSH1 0x20 ADD PUSH0 DUP2 MSTORE PUSH1 0x20 ADD PUSH0 DUP2 MSTORE PUSH1 0x20 ADD PUSH0 DUP2 MSTORE PUSH1 0x20 ADD PUSH0 DUP2 MSTORE PUSH1 0x20 ADD PUSH0 DUP2 MSTORE PUSH1 0x20 ADD PUSH0 ISZERO ISZERO DUP2 MSTORE PUSH1 0x20 ADD PUSH0 ISZERO ISZERO DUP2 MSTORE PUSH1 0x20 ADD PUSH0 ISZERO ISZERO DUP2 MSTORE PUSH1 0x20 ADD PUSH0 PUSH1 0x1 PUSH1 0x1 PUSH1 0xA0 SHL SUB AND DUP2 MSTORE PUSH1 0x20 ADD PUSH0 DUP2 MSTORE PUSH1 0x20 ADD PUSH1 0x60 DUP2 MSTORE POP SWAP1 JUMP JUMPDEST PUSH0 DUP3 DUP2 MSTORE PUSH1 0x2 PUSH1 0x20 DUP2 DUP2 MSTORE PUSH1 0x40 SWAP3 DUP4 SWAP1 KECCAK256 DUP4 MLOAD PUSH2 0x1C0 DUP2 ADD DUP6 MSTORE DUP2 SLOAD PUSH1 0x1 PUSH1 0x1 PUSH1 0xA0 SHL SUB SWAP1 DUP2 AND DUP3 MSTORE PUSH1 0x1 DUP4 ADD SLOAD DUP3 DUP6 ADD MSTORE SWAP4 DUP3 ADD SLOAD DUP2 DUP7 ADD MSTORE PUSH1 0x3 DUP3 ADD SLOAD PUSH1 0x60 DUP3 ADD MSTORE PUSH1 0x4 DUP3 ADD SLOAD PUSH1 0x80 DUP3 ADD MSTORE PUSH1 0x5 DUP3 ADD SLOAD PUSH1 0xA0 DUP3 ADD MSTORE PUSH1 0x6 DUP3 ADD SLOAD PUSH1 0xC0 DUP3 ADD MSTORE PUSH1 0x7 DUP3 ADD SLOAD PUSH1 0xE0 DUP3 ADD MSTORE PUSH1 0x8 DUP3 ADD SLOAD PUSH1 0xFF DUP1 DUP3 AND ISZERO ISZERO PUSH2 0x100 DUP1 DUP6 ADD SWAP2 SWAP1 SWAP2 MSTORE DUP3 DIV DUP2 AND ISZERO ISZERO PUSH2 0x120 DUP5 ADD MSTORE PUSH3 0x10000 SWAP1 SWAP2 DIV AND ISZERO ISZERO PUSH2 0x140 DUP3 ADD MSTORE PUSH1 0xA DUP3 ADD SLOAD SWAP1 SWAP4 AND PUSH2 0x160 DUP5 ADD MSTORE PUSH1 0xB DUP2 ADD SLOAD PUSH2 0x180 DUP5 ADD MSTORE PUSH1 0x9 DUP2 ADD DUP1 SLOAD DUP6 MLOAD DUP2 DUP6 MUL DUP2 ADD DUP6 ADD SWAP1 SWAP7 MSTORE DUP1 DUP7 MSTORE SWAP2 SWAP5 PUSH2 0x1A0 DUP6 ADD SWAP4 SWAP1 SWAP3 SWAP1 DUP4 ADD DUP3 DUP3 DUP1 ISZERO PUSH2 0x1A5A JUMPI PUSH1 0x20 MUL DUP3 ADD SWAP2 SWAP1 PUSH0 MSTORE PUSH1 0x20 PUSH0 KECCAK256 SWAP1 JUMPDEST DUP2 SLOAD PUSH1 0x1 PUSH1 0x1 PUSH1 0xA0 SHL SUB AND DUP2 MSTORE PUSH1 0x1 SWAP1 SWAP2 ADD SWAP1 PUSH1 0x20 ADD DUP1 DUP4 GT PUSH2 0x1A3C JUMPI JUMPDEST POP POP POP POP POP DUP2 MSTORE POP SWAP2 POP POP SWAP2 SWAP1 POP JUMP JUMPDEST PUSH0 DUP2 DUP2 MSTORE PUSH1 0x2 PUSH1 0x20 SWAP1 DUP2 MSTORE PUSH1 0x40 DUP1 DUP4 KECCAK256 CALLER DUP5 MSTORE PUSH1 0xF DUP2 ADD SWAP1 SWAP3 MSTORE SWAP1 SWAP2 KECCAK256 SLOAD PUSH1 0xFF AND ISZERO PUSH2 0x1AC8 JUMPI PUSH1 0x40 MLOAD PUSH3 0x461BCD PUSH1 0xE5 SHL DUP2 MSTORE PUSH1 0x20 PUSH1 0x4 DUP3 ADD MSTORE PUSH1 0xD PUSH1 0x24 DUP3 ADD MSTORE PUSH13 0x105B1C9958591E481D9BDD1959 PUSH1 0x9A SHL PUSH1 0x44 DUP3 ADD MSTORE PUSH1 0x64 ADD PUSH2 0xC8E JUMP JUMPDEST CALLER PUSH0 SWAP1 DUP2 MSTORE PUSH1 0xC DUP3 ADD PUSH1 0x20 MSTORE PUSH1 0x40 SWAP1 KECCAK256 SLOAD PUSH2 0x1B16 JUMPI PUSH1 0x40 MLOAD PUSH3 0x461BCD PUSH1 0xE5 SHL DUP2 MSTORE PUSH1 0x20 PUSH1 0x4 DUP3 ADD MSTORE PUSH1 0xE PUSH1 0x24 DUP3 ADD MSTORE PUSH14 0x4E6F7420696E206C6F7474657279 PUSH1 0x90 SHL PUSH1 0x44 DUP3 ADD MSTORE PUSH1 0x64 ADD PUSH2 0xC8E JUMP JUMPDEST CALLER PUSH0 SWAP1 DUP2 MSTORE PUSH1 0xF DUP3 ADD PUSH1 0x20 MSTORE PUSH1 0x40 DUP2 KECCAK256 DUP1 SLOAD PUSH1 0xFF NOT AND PUSH1 0x1 OR SWAP1 SSTORE PUSH1 0xB DUP3 ADD DUP1 SLOAD SWAP2 PUSH2 0x1B41 DUP4 PUSH2 0x2B39 JUMP JUMPDEST SWAP1 SWAP2 SSTORE POP POP PUSH1 0x9 DUP2 ADD SLOAD PUSH2 0x1B56 SWAP1 PUSH1 0x2 PUSH2 0x2B83 JUMP JUMPDEST PUSH1 0xB DUP3 ADD SLOAD PUSH2 0x1B66 SWAP1 PUSH1 0x3 PUSH2 0x2B83 JUMP JUMPDEST LT PUSH2 0xCA1 JUMPI PUSH1 0x8 DUP2 ADD DUP1 SLOAD PUSH3 0xFF0000 NOT AND PUSH3 0x10000 OR SWAP1 SSTORE PUSH1 0x40 MLOAD PUSH32 0xC3DAC690CF4C3AE8964F18B8F09F7F9A75D3962A8CBB7CD689DF2C291BB5B2DD SWAP1 PUSH2 0x13F8 SWAP1 DUP5 DUP2 MSTORE PUSH1 0x20 ADD SWAP1 JUMP JUMPDEST PUSH2 0x1BB8 PUSH2 0x2144 JUMP JUMPDEST PUSH0 DUP2 DUP2 MSTORE PUSH1 0x2 PUSH1 0x20 DUP2 SWAP1 MSTORE PUSH1 0x40 DUP3 KECCAK256 DUP1 SLOAD PUSH1 0x1 PUSH1 0x1 PUSH1 0xA0 SHL SUB NOT AND DUP2 SSTORE PUSH1 0x1 DUP2 ADD DUP4 SWAP1 SSTORE SWAP1 DUP2 ADD DUP3 SWAP1 SSTORE PUSH1 0x3 DUP2 ADD DUP3 SWAP1 SSTORE PUSH1 0x4 DUP2 ADD DUP3 SWAP1 SSTORE PUSH1 0x5 DUP2 ADD DUP3 SWAP1 SSTORE PUSH1 0x6 DUP2 ADD DUP3 SWAP1 SSTORE PUSH1 0x7 DUP2 ADD DUP3 SWAP1 SSTORE PUSH1 0x8 DUP2 ADD DUP1 SLOAD PUSH3 0xFFFFFF NOT AND SWAP1 SSTORE SWAP1 PUSH2 0x1C21 PUSH1 0x9 DUP4 ADD DUP3 PUSH2 0x264D JUMP JUMPDEST POP PUSH1 0xA DUP2 ADD DUP1 SLOAD PUSH1 0x1 PUSH1 0x1 PUSH1 0xA0 SHL SUB NOT AND SWAP1 SSTORE PUSH0 PUSH1 0xB SWAP1 SWAP2 ADD SSTORE POP JUMP JUMPDEST PUSH0 DUP2 DUP2 MSTORE PUSH1 0x2 PUSH1 0x20 SWAP1 DUP2 MSTORE PUSH1 0x40 SWAP2 DUP3 SWAP1 KECCAK256 PUSH1 0x9 ADD DUP1 SLOAD DUP4 MLOAD DUP2 DUP5 MUL DUP2 ADD DUP5 ADD SWAP1 SWAP5 MSTORE DUP1 DUP5 MSTORE PUSH1 0x60 SWAP4 SWAP3 DUP4 ADD DUP3 DUP3 DUP1 ISZERO PUSH2 0x1C9E JUMPI PUSH1 0x20 MUL DUP3 ADD SWAP2 SWAP1 PUSH0 MSTORE PUSH1 0x20 PUSH0 KECCAK256 SWAP1 JUMPDEST DUP2 SLOAD PUSH1 0x1 PUSH1 0x1 PUSH1 0xA0 SHL SUB AND DUP2 MSTORE PUSH1 0x1 SWAP1 SWAP2 ADD SWAP1 PUSH1 0x20 ADD DUP1 DUP4 GT PUSH2 0x1C80 JUMPI JUMPDEST POP POP POP POP POP SWAP1 POP SWAP2 SWAP1 POP JUMP JUMPDEST PUSH2 0x1CB2 PUSH2 0x20ED JUMP JUMPDEST PUSH0 DUP2 DUP2 MSTORE PUSH1 0x2 PUSH1 0x20 MSTORE PUSH1 0x40 SWAP1 KECCAK256 PUSH1 0xA DUP2 ADD SLOAD PUSH1 0x1 PUSH1 0x1 PUSH1 0xA0 SHL SUB AND CALLER EQ PUSH2 0x1D08 JUMPI PUSH1 0x40 MLOAD PUSH3 0x461BCD PUSH1 0xE5 SHL DUP2 MSTORE PUSH1 0x20 PUSH1 0x4 DUP3 ADD MSTORE PUSH1 0xA PUSH1 0x24 DUP3 ADD MSTORE PUSH10 0x2737BA103BB4B73732B9 PUSH1 0xB1 SHL PUSH1 0x44 DUP3 ADD MSTORE PUSH1 0x64 ADD PUSH2 0xC8E JUMP JUMPDEST CALLER PUSH0 SWAP1 DUP2 MSTORE PUSH1 0xD DUP3 ADD PUSH1 0x20 MSTORE PUSH1 0x40 SWAP1 KECCAK256 SLOAD PUSH1 0xFF AND ISZERO PUSH2 0x1D5B JUMPI PUSH1 0x40 MLOAD PUSH3 0x461BCD PUSH1 0xE5 SHL DUP2 MSTORE PUSH1 0x20 PUSH1 0x4 DUP3 ADD MSTORE PUSH1 0xF PUSH1 0x24 DUP3 ADD MSTORE PUSH15 0x105B1C9958591E4818DB185A5B5959 PUSH1 0x8A SHL PUSH1 0x44 DUP3 ADD MSTORE PUSH1 0x64 ADD PUSH2 0xC8E JUMP JUMPDEST CALLER PUSH0 DUP2 DUP2 MSTORE PUSH1 0xD DUP4 ADD PUSH1 0x20 MSTORE PUSH1 0x40 SWAP1 DUP2 SWAP1 KECCAK256 DUP1 SLOAD PUSH1 0xFF NOT AND PUSH1 0x1 OR SWAP1 SSTORE DUP3 SLOAD PUSH1 0x5 DUP5 ADD SLOAD SWAP2 MLOAD PUSH4 0xA9059CBB PUSH1 0xE0 SHL DUP2 MSTORE PUSH1 0x4 DUP2 ADD SWAP4 SWAP1 SWAP4 MSTORE PUSH1 0x24 DUP4 ADD SWAP2 SWAP1 SWAP2 MSTORE PUSH1 0x1 PUSH1 0x1 PUSH1 0xA0 SHL SUB AND SWAP1 PUSH4 0xA9059CBB SWAP1 PUSH1 0x44 ADD PUSH1 0x20 PUSH1 0x40 MLOAD DUP1 DUP4 SUB DUP2 PUSH0 DUP8 GAS CALL ISZERO DUP1 ISZERO PUSH2 0x1DCA JUMPI RETURNDATASIZE PUSH0 PUSH0 RETURNDATACOPY RETURNDATASIZE PUSH0 REVERT JUMPDEST POP POP POP POP PUSH1 0x40 MLOAD RETURNDATASIZE PUSH1 0x1F NOT PUSH1 0x1F DUP3 ADD AND DUP3 ADD DUP1 PUSH1 0x40 MSTORE POP DUP2 ADD SWAP1 PUSH2 0x1DEE SWAP2 SWAP1 PUSH2 0x2B64 JUMP JUMPDEST POP POP PUSH2 0x11BC PUSH1 0x1 PUSH0 SSTORE JUMP JUMPDEST PUSH1 0xA DUP2 DUP2 SLOAD DUP2 LT PUSH2 0x1E08 JUMPI PUSH0 DUP1 REVERT JUMPDEST PUSH0 SWAP2 DUP3 MSTORE PUSH1 0x20 SWAP1 SWAP2 KECCAK256 ADD SLOAD SWAP1 POP DUP2 JUMP JUMPDEST PUSH2 0x1E20 PUSH2 0x2144 JUMP JUMPDEST PUSH1 0x1 PUSH1 0x1 PUSH1 0xA0 SHL SUB DUP2 AND PUSH2 0x1E49 JUMPI PUSH1 0x40 MLOAD PUSH4 0x1E4FBDF7 PUSH1 0xE0 SHL DUP2 MSTORE PUSH0 PUSH1 0x4 DUP3 ADD MSTORE PUSH1 0x24 ADD PUSH2 0xC8E JUMP JUMPDEST PUSH2 0x11BC DUP2 PUSH2 0x23C6 JUMP JUMPDEST PUSH0 DUP1 PUSH32 0xF0C57E16840DF040F15088DC2F81FE391C3923BEC73E23A9662EFC9C229C6A00 PUSH2 0xADA JUMP JUMPDEST PUSH2 0x1E82 PUSH2 0x2436 JUMP JUMPDEST PUSH2 0x11BC DUP2 PUSH2 0x245B JUMP JUMPDEST PUSH2 0x18CD PUSH2 0x2436 JUMP JUMPDEST PUSH2 0x1E9B PUSH2 0x2436 JUMP JUMPDEST PUSH1 0x1 DUP1 SLOAD PUSH1 0x1 PUSH1 0x1 PUSH1 0xA0 SHL SUB NOT AND PUSH1 0x1 PUSH1 0x1 PUSH1 0xA0 SHL SUB SWAP3 SWAP1 SWAP3 AND SWAP2 SWAP1 SWAP2 OR SWAP1 SSTORE JUMP JUMPDEST PUSH0 DUP3 DUP2 MSTORE PUSH1 0xB PUSH1 0x20 SWAP1 DUP2 MSTORE PUSH1 0x40 DUP1 DUP4 KECCAK256 SLOAD DUP1 DUP5 MSTORE PUSH1 0x2 SWAP1 SWAP3 MSTORE SWAP1 SWAP2 KECCAK256 PUSH1 0x8 DUP2 ADD SLOAD PUSH2 0x100 SWAP1 DIV PUSH1 0xFF AND DUP1 ISZERO PUSH2 0x1EFD JUMPI POP PUSH1 0xA DUP2 ADD SLOAD PUSH1 0x1 PUSH1 0x1 PUSH1 0xA0 SHL SUB AND ISZERO JUMPDEST PUSH2 0x1F3D JUMPI PUSH1 0x40 MLOAD PUSH3 0x461BCD PUSH1 0xE5 SHL DUP2 MSTORE PUSH1 0x20 PUSH1 0x4 DUP3 ADD MSTORE PUSH1 0x11 PUSH1 0x24 DUP3 ADD MSTORE PUSH17 0x105B1C9958591E48199D5B199A5B1B1959 PUSH1 0x7A SHL PUSH1 0x44 DUP3 ADD MSTORE PUSH1 0x64 ADD PUSH2 0xC8E JUMP JUMPDEST PUSH0 DUP2 PUSH1 0x9 ADD DUP1 SLOAD SWAP1 POP DUP5 PUSH0 DUP2 MLOAD DUP2 LT PUSH2 0x1F58 JUMPI PUSH2 0x1F58 PUSH2 0x2B11 JUMP JUMPDEST PUSH1 0x20 MUL PUSH1 0x20 ADD ADD MLOAD PUSH2 0x1F6A SWAP2 SWAP1 PUSH2 0x2C0D JUMP JUMPDEST SWAP1 POP DUP2 PUSH1 0x9 ADD DUP2 DUP2 SLOAD DUP2 LT PUSH2 0x1F81 JUMPI PUSH2 0x1F81 PUSH2 0x2B11 JUMP JUMPDEST PUSH0 SWAP2 DUP3 MSTORE PUSH1 0x20 SWAP1 SWAP2 KECCAK256 ADD SLOAD PUSH1 0xA DUP4 ADD DUP1 SLOAD PUSH1 0x1 PUSH1 0x1 PUSH1 0xA0 SHL SUB NOT AND PUSH1 0x1 PUSH1 0x1 PUSH1 0xA0 SHL SUB SWAP3 DUP4 AND OR SWAP1 SSTORE DUP3 SLOAD PUSH1 0x4 DUP1 SLOAD PUSH1 0x6 DUP7 ADD SLOAD PUSH1 0x40 MLOAD PUSH4 0xA9059CBB PUSH1 0xE0 SHL DUP2 MSTORE SWAP2 DUP6 AND SWAP3 DUP3 ADD SWAP3 SWAP1 SWAP3 MSTORE PUSH1 0x24 DUP2 ADD SWAP2 SWAP1 SWAP2 MSTORE SWAP2 AND SWAP1 DUP2 SWAP1 PUSH4 0xA9059CBB SWAP1 PUSH1 0x44 ADD PUSH1 0x20 PUSH1 0x40 MLOAD DUP1 DUP4 SUB DUP2 PUSH0 DUP8 GAS CALL ISZERO DUP1 ISZERO PUSH2 0x1FFE JUMPI RETURNDATASIZE PUSH0 PUSH0 RETURNDATACOPY RETURNDATASIZE PUSH0 REVERT JUMPDEST POP POP POP POP PUSH1 0x40 MLOAD RETURNDATASIZE PUSH1 0x1F NOT PUSH1 0x1F DUP3 ADD AND DUP3 ADD DUP1 PUSH1 0x40 MSTORE POP DUP2 ADD SWAP1 PUSH2 0x2022 SWAP2 SWAP1 PUSH2 0x2B64 JUMP JUMPDEST POP PUSH1 0x5 SLOAD PUSH1 0x7 DUP5 ADD SLOAD PUSH1 0x40 MLOAD PUSH4 0xA9059CBB PUSH1 0xE0 SHL DUP2 MSTORE PUSH1 0x1 PUSH1 0x1 PUSH1 0xA0 SHL SUB SWAP3 DUP4 AND PUSH1 0x4 DUP3 ADD MSTORE PUSH1 0x24 DUP2 ADD SWAP2 SWAP1 SWAP2 MSTORE SWAP1 DUP3 AND SWAP1 PUSH4 0xA9059CBB SWAP1 PUSH1 0x44 ADD PUSH1 0x20 PUSH1 0x40 MLOAD DUP1 DUP4 SUB DUP2 PUSH0 DUP8 GAS CALL ISZERO DUP1 ISZERO PUSH2 0x2079 JUMPI RETURNDATASIZE PUSH0 PUSH0 RETURNDATACOPY RETURNDATASIZE PUSH0 REVERT JUMPDEST POP POP POP POP PUSH1 0x40 MLOAD RETURNDATASIZE PUSH1 0x1F NOT PUSH1 0x1F DUP3 ADD AND DUP3 ADD DUP1 PUSH1 0x40 MSTORE POP DUP2 ADD SWAP1 PUSH2 0x209D SWAP2 SWAP1 PUSH2 0x2B64 JUMP JUMPDEST POP PUSH1 0xA DUP4 ADD SLOAD PUSH1 0x40 DUP1 MLOAD DUP7 DUP2 MSTORE PUSH1 0x1 PUSH1 0x1 PUSH1 0xA0 SHL SUB SWAP1 SWAP3 AND PUSH1 0x20 DUP4 ADD MSTORE PUSH32 0x3FB57EB449654E24E1B240D3D06702CF79362A065D5C0323AEE642D4702FA4B SWAP2 ADD PUSH1 0x40 MLOAD DUP1 SWAP2 SUB SWAP1 LOG1 POP POP POP POP POP POP JUMP JUMPDEST PUSH1 0x2 PUSH0 SLOAD SUB PUSH2 0x213E JUMPI PUSH1 0x40 MLOAD PUSH3 0x461BCD PUSH1 0xE5 SHL DUP2 MSTORE PUSH1 0x20 PUSH1 0x4 DUP3 ADD MSTORE PUSH1 0x1F PUSH1 0x24 DUP3 ADD MSTORE PUSH32 0x5265656E7472616E637947756172643A207265656E7472616E742063616C6C00 PUSH1 0x44 DUP3 ADD MSTORE PUSH1 0x64 ADD PUSH2 0xC8E JUMP JUMPDEST PUSH1 0x2 PUSH0 SSTORE JUMP JUMPDEST CALLER PUSH2 0x2176 PUSH32 0x9016D09D72D40FDAE2FD8CEAC6B6234C7706214FD39C1CD1E609A0528C199300 SLOAD PUSH1 0x1 PUSH1 0x1 PUSH1 0xA0 SHL SUB AND SWAP1 JUMP JUMPDEST PUSH1 0x1 PUSH1 0x1 PUSH1 0xA0 SHL SUB AND EQ PUSH2 0x18CD JUMPI PUSH1 0x40 MLOAD PUSH4 0x118CDAA7 PUSH1 0xE0 SHL DUP2 MSTORE CALLER PUSH1 0x4 DUP3 ADD MSTORE PUSH1 0x24 ADD PUSH2 0xC8E JUMP JUMPDEST ADDRESS PUSH1 0x1 PUSH1 0x1 PUSH1 0xA0 SHL SUB PUSH32 0x0 AND EQ DUP1 PUSH2 0x2225 JUMPI POP PUSH32 0x0 PUSH1 0x1 PUSH1 0x1 PUSH1 0xA0 SHL SUB AND PUSH2 0x2219 PUSH0 MLOAD PUSH1 0x20 PUSH2 0x2C43 PUSH0 CODECOPY PUSH0 MLOAD SWAP1 PUSH0 MSTORE SLOAD PUSH1 0x1 PUSH1 0x1 PUSH1 0xA0 SHL SUB AND SWAP1 JUMP JUMPDEST PUSH1 0x1 PUSH1 0x1 PUSH1 0xA0 SHL SUB AND EQ ISZERO JUMPDEST ISZERO PUSH2 0x18CD JUMPI PUSH1 0x40 MLOAD PUSH4 0x703E46DD PUSH1 0xE1 SHL DUP2 MSTORE PUSH1 0x4 ADD PUSH1 0x40 MLOAD DUP1 SWAP2 SUB SWAP1 REVERT JUMPDEST PUSH2 0x11BC PUSH2 0x2144 JUMP JUMPDEST DUP2 PUSH1 0x1 PUSH1 0x1 PUSH1 0xA0 SHL SUB AND PUSH4 0x52D1902D PUSH1 0x40 MLOAD DUP2 PUSH4 0xFFFFFFFF AND PUSH1 0xE0 SHL DUP2 MSTORE PUSH1 0x4 ADD PUSH1 0x20 PUSH1 0x40 MLOAD DUP1 DUP4 SUB DUP2 DUP7 GAS STATICCALL SWAP3 POP POP POP DUP1 ISZERO PUSH2 0x22A5 JUMPI POP PUSH1 0x40 DUP1 MLOAD PUSH1 0x1F RETURNDATASIZE SWAP1 DUP2 ADD PUSH1 0x1F NOT AND DUP3 ADD SWAP1 SWAP3 MSTORE PUSH2 0x22A2 SWAP2 DUP2 ADD SWAP1 PUSH2 0x2BF6 JUMP JUMPDEST PUSH1 0x1 JUMPDEST PUSH2 0x22CD JUMPI PUSH1 0x40 MLOAD PUSH4 0x4C9C8CE3 PUSH1 0xE0 SHL DUP2 MSTORE PUSH1 0x1 PUSH1 0x1 PUSH1 0xA0 SHL SUB DUP4 AND PUSH1 0x4 DUP3 ADD MSTORE PUSH1 0x24 ADD PUSH2 0xC8E JUMP JUMPDEST PUSH0 MLOAD PUSH1 0x20 PUSH2 0x2C43 PUSH0 CODECOPY PUSH0 MLOAD SWAP1 PUSH0 MSTORE DUP2 EQ PUSH2 0x22FD JUMPI PUSH1 0x40 MLOAD PUSH4 0x2A875269 PUSH1 0xE2 SHL DUP2 MSTORE PUSH1 0x4 DUP2 ADD DUP3 SWAP1 MSTORE PUSH1 0x24 ADD PUSH2 0xC8E JUMP JUMPDEST PUSH2 0x2307 DUP4 DUP4 PUSH2 0x2463 JUMP JUMPDEST POP POP POP JUMP JUMPDEST ADDRESS PUSH1 0x1 PUSH1 0x1 PUSH1 0xA0 SHL SUB PUSH32 0x0 AND EQ PUSH2 0x18CD JUMPI PUSH1 0x40 MLOAD PUSH4 0x703E46DD PUSH1 0xE1 SHL DUP2 MSTORE PUSH1 0x4 ADD PUSH1 0x40 MLOAD DUP1 SWAP2 SUB SWAP1 REVERT JUMPDEST PUSH1 0x60 PUSH32 0x92FD13387C7FE7BEFBC38D303D6468778FB9731BC4583F17D92989C6FCFDEAAA DUP3 PUSH1 0x40 MLOAD PUSH1 0x24 ADD PUSH2 0x238E SWAP2 MLOAD ISZERO ISZERO DUP2 MSTORE PUSH1 0x20 ADD SWAP1 JUMP JUMPDEST PUSH1 0x40 DUP1 MLOAD PUSH1 0x1F NOT DUP2 DUP5 SUB ADD DUP2 MSTORE SWAP2 SWAP1 MSTORE PUSH1 0x20 DUP2 ADD DUP1 MLOAD PUSH1 0x1 PUSH1 0x1 PUSH1 0xE0 SHL SUB AND PUSH1 0x1 PUSH1 0x1 PUSH1 0xE0 SHL SUB NOT SWAP1 SWAP4 AND SWAP3 SWAP1 SWAP3 OR SWAP1 SWAP2 MSTORE SWAP3 SWAP2 POP POP JUMP JUMPDEST PUSH32 0x9016D09D72D40FDAE2FD8CEAC6B6234C7706214FD39C1CD1E609A0528C199300 DUP1 SLOAD PUSH1 0x1 PUSH1 0x1 PUSH1 0xA0 SHL SUB NOT DUP2 AND PUSH1 0x1 PUSH1 0x1 PUSH1 0xA0 SHL SUB DUP5 DUP2 AND SWAP2 DUP3 OR DUP5 SSTORE PUSH1 0x40 MLOAD SWAP3 AND SWAP2 DUP3 SWAP1 PUSH32 0x8BE0079C531659141344CD1FD0A4F28419497F9722A3DAAFE3B4186F6B6457E0 SWAP1 PUSH0 SWAP1 LOG3 POP POP POP JUMP JUMPDEST PUSH2 0x243E PUSH2 0x24B8 JUMP JUMPDEST PUSH2 0x18CD JUMPI PUSH1 0x40 MLOAD PUSH4 0x1AFCD79F PUSH1 0xE3 SHL DUP2 MSTORE PUSH1 0x4 ADD PUSH1 0x40 MLOAD DUP1 SWAP2 SUB SWAP1 REVERT JUMPDEST PUSH2 0x1E20 PUSH2 0x2436 JUMP JUMPDEST PUSH2 0x246C DUP3 PUSH2 0x24D1 JUMP JUMPDEST PUSH1 0x40 MLOAD PUSH1 0x1 PUSH1 0x1 PUSH1 0xA0 SHL SUB DUP4 AND SWAP1 PUSH32 0xBC7CD75A20EE27FD9ADEBAB32041F755214DBC6BFFA90CC0225B39DA2E5C2D3B SWAP1 PUSH0 SWAP1 LOG2 DUP1 MLOAD ISZERO PUSH2 0x24B0 JUMPI PUSH2 0x2307 DUP3 DUP3 PUSH2 0x2534 JUMP JUMPDEST PUSH2 0xCA1 PUSH2 0x25A6 JUMP JUMPDEST PUSH0 PUSH2 0x24C1 PUSH2 0x1E52 JUMP JUMPDEST SLOAD PUSH1 0x1 PUSH1 0x40 SHL SWAP1 DIV PUSH1 0xFF AND SWAP2 SWAP1 POP JUMP JUMPDEST DUP1 PUSH1 0x1 PUSH1 0x1 PUSH1 0xA0 SHL SUB AND EXTCODESIZE PUSH0 SUB PUSH2 0x2506 JUMPI PUSH1 0x40 MLOAD PUSH4 0x4C9C8CE3 PUSH1 0xE0 SHL DUP2 MSTORE PUSH1 0x1 PUSH1 0x1 PUSH1 0xA0 SHL SUB DUP3 AND PUSH1 0x4 DUP3 ADD MSTORE PUSH1 0x24 ADD PUSH2 0xC8E JUMP JUMPDEST PUSH0 MLOAD PUSH1 0x20 PUSH2 0x2C43 PUSH0 CODECOPY PUSH0 MLOAD SWAP1 PUSH0 MSTORE DUP1 SLOAD PUSH1 0x1 PUSH1 0x1 PUSH1 0xA0 SHL SUB NOT AND PUSH1 0x1 PUSH1 0x1 PUSH1 0xA0 SHL SUB SWAP3 SWAP1 SWAP3 AND SWAP2 SWAP1 SWAP2 OR SWAP1 SSTORE JUMP JUMPDEST PUSH1 0x60 PUSH0 PUSH0 DUP5 PUSH1 0x1 PUSH1 0x1 PUSH1 0xA0 SHL SUB AND DUP5 PUSH1 0x40 MLOAD PUSH2 0x2550 SWAP2 SWAP1 PUSH2 0x2C2C JUMP JUMPDEST PUSH0 PUSH1 0x40 MLOAD DUP1 DUP4 SUB DUP2 DUP6 GAS DELEGATECALL SWAP2 POP POP RETURNDATASIZE DUP1 PUSH0 DUP2 EQ PUSH2 0x2588 JUMPI PUSH1 0x40 MLOAD SWAP2 POP PUSH1 0x1F NOT PUSH1 0x3F RETURNDATASIZE ADD AND DUP3 ADD PUSH1 0x40 MSTORE RETURNDATASIZE DUP3 MSTORE RETURNDATASIZE PUSH0 PUSH1 0x20 DUP5 ADD RETURNDATACOPY PUSH2 0x258D JUMP JUMPDEST PUSH1 0x60 SWAP2 POP JUMPDEST POP SWAP2 POP SWAP2 POP PUSH2 0x259D DUP6 DUP4 DUP4 PUSH2 0x25C5 JUMP JUMPDEST SWAP6 SWAP5 POP POP POP POP POP JUMP JUMPDEST CALLVALUE ISZERO PUSH2 0x18CD JUMPI PUSH1 0x40 MLOAD PUSH4 0xB398979F PUSH1 0xE0 SHL DUP2 MSTORE PUSH1 0x4 ADD PUSH1 0x40 MLOAD DUP1 SWAP2 SUB SWAP1 REVERT JUMPDEST PUSH1 0x60 DUP3 PUSH2 0x25DA JUMPI PUSH2 0x25D5 DUP3 PUSH2 0x2624 JUMP JUMPDEST PUSH2 0x261D JUMP JUMPDEST DUP2 MLOAD ISZERO DUP1 ISZERO PUSH2 0x25F1 JUMPI POP PUSH1 0x1 PUSH1 0x1 PUSH1 0xA0 SHL SUB DUP5 AND EXTCODESIZE ISZERO JUMPDEST ISZERO PUSH2 0x261A JUMPI PUSH1 0x40 MLOAD PUSH4 0x9996B315 PUSH1 0xE0 SHL DUP2 MSTORE PUSH1 0x1 PUSH1 0x1 PUSH1 0xA0 SHL SUB DUP6 AND PUSH1 0x4 DUP3 ADD MSTORE PUSH1 0x24 ADD PUSH2 0xC8E JUMP JUMPDEST POP DUP1 JUMPDEST SWAP4 SWAP3 POP POP POP JUMP JUMPDEST DUP1 MLOAD ISZERO PUSH2 0x2634 JUMPI DUP1 MLOAD DUP1 DUP3 PUSH1 0x20 ADD REVERT JUMPDEST PUSH1 0x40 MLOAD PUSH4 0xD6BDA275 PUSH1 0xE0 SHL DUP2 MSTORE PUSH1 0x4 ADD PUSH1 0x40 MLOAD DUP1 SWAP2 SUB SWAP1 REVERT JUMPDEST POP DUP1 SLOAD PUSH0 DUP3 SSTORE SWAP1 PUSH0 MSTORE PUSH1 0x20 PUSH0 KECCAK256 SWAP1 DUP2 ADD SWAP1 PUSH2 0x11BC SWAP2 SWAP1 JUMPDEST DUP1 DUP3 GT ISZERO PUSH2 0x2677 JUMPI PUSH0 DUP2 SSTORE PUSH1 0x1 ADD PUSH2 0x2664 JUMP JUMPDEST POP SWAP1 JUMP JUMPDEST PUSH1 0x20 DUP1 DUP3 MSTORE DUP3 MLOAD DUP3 DUP3 ADD DUP2 SWAP1 MSTORE PUSH0 SWAP2 DUP5 ADD SWAP1 PUSH1 0x40 DUP5 ADD SWAP1 DUP4 JUMPDEST DUP2 DUP2 LT ISZERO PUSH2 0x26B2 JUMPI DUP4 MLOAD DUP4 MSTORE PUSH1 0x20 SWAP4 DUP5 ADD SWAP4 SWAP1 SWAP3 ADD SWAP2 PUSH1 0x1 ADD PUSH2 0x2694 JUMP JUMPDEST POP SWAP1 SWAP6 SWAP5 POP POP POP POP POP JUMP JUMPDEST DUP1 CALLDATALOAD PUSH1 0x1 PUSH1 0x1 PUSH1 0xA0 SHL SUB DUP2 AND DUP2 EQ PUSH2 0x26D3 JUMPI PUSH0 PUSH0 REVERT JUMPDEST SWAP2 SWAP1 POP JUMP JUMPDEST PUSH0 PUSH0 PUSH1 0x40 DUP4 DUP6 SUB SLT ISZERO PUSH2 0x26E9 JUMPI PUSH0 PUSH0 REVERT JUMPDEST DUP3 CALLDATALOAD SWAP2 POP PUSH2 0x26F9 PUSH1 0x20 DUP5 ADD PUSH2 0x26BD JUMP JUMPDEST SWAP1 POP SWAP3 POP SWAP3 SWAP1 POP JUMP JUMPDEST PUSH0 PUSH0 PUSH0 PUSH0 PUSH0 PUSH1 0xA0 DUP7 DUP9 SUB SLT ISZERO PUSH2 0x2716 JUMPI PUSH0 PUSH0 REVERT JUMPDEST PUSH2 0x271F DUP7 PUSH2 0x26BD JUMP JUMPDEST SWAP5 POP PUSH1 0x20 DUP7 ADD CALLDATALOAD SWAP4 POP PUSH1 0x40 DUP7 ADD CALLDATALOAD SWAP3 POP PUSH2 0x273B PUSH1 0x60 DUP8 ADD PUSH2 0x26BD JUMP JUMPDEST SWAP2 POP PUSH2 0x2749 PUSH1 0x80 DUP8 ADD PUSH2 0x26BD JUMP JUMPDEST SWAP1 POP SWAP3 SWAP6 POP SWAP3 SWAP6 SWAP1 SWAP4 POP JUMP JUMPDEST PUSH0 PUSH1 0x20 DUP3 DUP5 SUB SLT ISZERO PUSH2 0x2765 JUMPI PUSH0 PUSH0 REVERT JUMPDEST POP CALLDATALOAD SWAP2 SWAP1 POP JUMP JUMPDEST PUSH4 0x4E487B71 PUSH1 0xE0 SHL PUSH0 MSTORE PUSH1 0x41 PUSH1 0x4 MSTORE PUSH1 0x24 PUSH0 REVERT JUMPDEST PUSH1 0x40 MLOAD PUSH1 0x1F DUP3 ADD PUSH1 0x1F NOT AND DUP2 ADD PUSH8 0xFFFFFFFFFFFFFFFF DUP2 GT DUP3 DUP3 LT OR ISZERO PUSH2 0x27A9 JUMPI PUSH2 0x27A9 PUSH2 0x276C JUMP JUMPDEST PUSH1 0x40 MSTORE SWAP2 SWAP1 POP JUMP JUMPDEST PUSH0 PUSH0 PUSH1 0x40 DUP4 DUP6 SUB SLT ISZERO PUSH2 0x27C2 JUMPI PUSH0 PUSH0 REVERT JUMPDEST DUP3 CALLDATALOAD SWAP2 POP PUSH1 0x20 DUP4 ADD CALLDATALOAD PUSH8 0xFFFFFFFFFFFFFFFF DUP2 GT ISZERO PUSH2 0x27DF JUMPI PUSH0 PUSH0 REVERT JUMPDEST DUP4 ADD PUSH1 0x1F DUP2 ADD DUP6 SGT PUSH2 0x27EF JUMPI PUSH0 PUSH0 REVERT JUMPDEST DUP1 CALLDATALOAD PUSH8 0xFFFFFFFFFFFFFFFF DUP2 GT ISZERO PUSH2 0x2809 JUMPI PUSH2 0x2809 PUSH2 0x276C JUMP JUMPDEST DUP1 PUSH1 0x5 SHL PUSH2 0x2819 PUSH1 0x20 DUP3 ADD PUSH2 0x2780 JUMP JUMPDEST SWAP2 DUP3 MSTORE PUSH1 0x20 DUP2 DUP5 ADD DUP2 ADD SWAP3 SWAP1 DUP2 ADD SWAP1 DUP9 DUP5 GT ISZERO PUSH2 0x2834 JUMPI PUSH0 PUSH0 REVERT JUMPDEST PUSH1 0x20 DUP6 ADD SWAP5 POP JUMPDEST DUP4 DUP6 LT ISZERO PUSH2 0x285A JUMPI DUP5 CALLDATALOAD DUP1 DUP4 MSTORE PUSH1 0x20 SWAP6 DUP7 ADD SWAP6 SWAP1 SWAP4 POP SWAP1 SWAP2 ADD SWAP1 PUSH2 0x283B JUMP JUMPDEST DUP1 SWAP6 POP POP POP POP POP POP SWAP3 POP SWAP3 SWAP1 POP JUMP JUMPDEST PUSH0 PUSH0 PUSH1 0x40 DUP4 DUP6 SUB SLT ISZERO PUSH2 0x287A JUMPI PUSH0 PUSH0 REVERT JUMPDEST POP POP DUP1 CALLDATALOAD SWAP3 PUSH1 0x20 SWAP1 SWAP2 ADD CALLDATALOAD SWAP2 POP JUMP JUMPDEST PUSH0 PUSH0 PUSH0 PUSH0 PUSH0 PUSH0 PUSH0 PUSH0 PUSH2 0x100 DUP10 DUP12 SUB SLT ISZERO PUSH2 0x28A1 JUMPI PUSH0 PUSH0 REVERT JUMPDEST PUSH2 0x28AA DUP10 PUSH2 0x26BD JUMP JUMPDEST SWAP11 PUSH1 0x20 DUP11 ADD CALLDATALOAD SWAP11 POP PUSH1 0x40 DUP11 ADD CALLDATALOAD SWAP10 PUSH1 0x60 DUP2 ADD CALLDATALOAD SWAP10 POP PUSH1 0x80 DUP2 ADD CALLDATALOAD SWAP9 POP PUSH1 0xA0 DUP2 ADD CALLDATALOAD SWAP8 POP PUSH1 0xC0 DUP2 ADD CALLDATALOAD SWAP7 POP PUSH1 0xE0 ADD CALLDATALOAD SWAP5 POP SWAP3 POP POP POP JUMP JUMPDEST PUSH0 PUSH0 PUSH1 0x40 DUP4 DUP6 SUB SLT ISZERO PUSH2 0x28F1 JUMPI PUSH0 PUSH0 REVERT JUMPDEST PUSH2 0x28FA DUP4 PUSH2 0x26BD JUMP JUMPDEST SWAP2 POP PUSH1 0x20 DUP4 ADD CALLDATALOAD PUSH8 0xFFFFFFFFFFFFFFFF DUP2 GT ISZERO PUSH2 0x2915 JUMPI PUSH0 PUSH0 REVERT JUMPDEST DUP4 ADD PUSH1 0x1F DUP2 ADD DUP6 SGT PUSH2 0x2925 JUMPI PUSH0 PUSH0 REVERT JUMPDEST DUP1 CALLDATALOAD PUSH8 0xFFFFFFFFFFFFFFFF DUP2 GT ISZERO PUSH2 0x293F JUMPI PUSH2 0x293F PUSH2 0x276C JUMP JUMPDEST PUSH2 0x2952 PUSH1 0x1F DUP3 ADD PUSH1 0x1F NOT AND PUSH1 0x20 ADD PUSH2 0x2780 JUMP JUMPDEST DUP2 DUP2 MSTORE DUP7 PUSH1 0x20 DUP4 DUP6 ADD ADD GT ISZERO PUSH2 0x2966 JUMPI PUSH0 PUSH0 REVERT JUMPDEST DUP2 PUSH1 0x20 DUP5 ADD PUSH1 0x20 DUP4 ADD CALLDATACOPY PUSH0 PUSH1 0x20 DUP4 DUP4 ADD ADD MSTORE DUP1 SWAP4 POP POP POP POP SWAP3 POP SWAP3 SWAP1 POP JUMP JUMPDEST PUSH0 DUP2 MLOAD DUP1 DUP5 MSTORE PUSH1 0x20 DUP5 ADD SWAP4 POP PUSH1 0x20 DUP4 ADD PUSH0 JUMPDEST DUP3 DUP2 LT ISZERO PUSH2 0x29BE JUMPI DUP2 MLOAD PUSH1 0x1 PUSH1 0x1 PUSH1 0xA0 SHL SUB AND DUP7 MSTORE PUSH1 0x20 SWAP6 DUP7 ADD SWAP6 SWAP1 SWAP2 ADD SWAP1 PUSH1 0x1 ADD PUSH2 0x2997 JUMP JUMPDEST POP SWAP4 SWAP5 SWAP4 POP POP POP POP JUMP JUMPDEST PUSH1 0x20 DUP2 MSTORE PUSH2 0x29E2 PUSH1 0x20 DUP3 ADD DUP4 MLOAD PUSH1 0x1 PUSH1 0x1 PUSH1 0xA0 SHL SUB AND SWAP1 MSTORE JUMP JUMPDEST PUSH1 0x20 DUP3 ADD MLOAD PUSH1 0x40 DUP3 ADD MSTORE PUSH1 0x40 DUP3 ADD MLOAD PUSH1 0x60 DUP3 ADD MSTORE PUSH1 0x60 DUP3 ADD MLOAD PUSH1 0x80 DUP3 ADD MSTORE PUSH1 0x80 DUP3 ADD MLOAD PUSH1 0xA0 DUP3 ADD MSTORE PUSH1 0xA0 DUP3 ADD MLOAD PUSH1 0xC0 DUP3 ADD MSTORE PUSH1 0xC0 DUP3 ADD MLOAD PUSH1 0xE0 DUP3 ADD MSTORE PUSH1 0xE0 DUP3 ADD MLOAD PUSH2 0x100 DUP3 ADD MSTORE PUSH0 PUSH2 0x100 DUP4 ADD MLOAD PUSH2 0x2A3F PUSH2 0x120 DUP5 ADD DUP3 ISZERO ISZERO SWAP1 MSTORE JUMP JUMPDEST POP PUSH2 0x120 DUP4 ADD MLOAD DUP1 ISZERO ISZERO PUSH2 0x140 DUP5 ADD MSTORE POP PUSH2 0x140 DUP4 ADD MLOAD DUP1 ISZERO ISZERO PUSH2 0x160 DUP5 ADD MSTORE POP PUSH2 0x160 DUP4 ADD MLOAD PUSH1 0x1 PUSH1 0x1 PUSH1 0xA0 SHL SUB DUP2 AND PUSH2 0x180 DUP5 ADD MSTORE POP PUSH2 0x180 DUP4 ADD MLOAD PUSH2 0x1A0 DUP4 ADD MSTORE PUSH2 0x1A0 DUP4 ADD MLOAD PUSH2 0x1C0 DUP1 DUP5 ADD MSTORE PUSH2 0x2A9E PUSH2 0x1E0 DUP5 ADD DUP3 PUSH2 0x2985 JUMP JUMPDEST SWAP5 SWAP4 POP POP POP POP JUMP JUMPDEST PUSH0 DUP2 MLOAD DUP1 DUP5 MSTORE DUP1 PUSH1 0x20 DUP5 ADD PUSH1 0x20 DUP7 ADD MCOPY PUSH0 PUSH1 0x20 DUP3 DUP7 ADD ADD MSTORE PUSH1 0x20 PUSH1 0x1F NOT PUSH1 0x1F DUP4 ADD AND DUP6 ADD ADD SWAP2 POP POP SWAP3 SWAP2 POP POP JUMP JUMPDEST PUSH1 0x20 DUP2 MSTORE PUSH0 PUSH2 0x261D PUSH1 0x20 DUP4 ADD DUP5 PUSH2 0x2AA6 JUMP JUMPDEST PUSH1 0x20 DUP2 MSTORE PUSH0 PUSH2 0x261D PUSH1 0x20 DUP4 ADD DUP5 PUSH2 0x2985 JUMP JUMPDEST PUSH0 PUSH1 0x20 DUP3 DUP5 SUB SLT ISZERO PUSH2 0x2B08 JUMPI PUSH0 PUSH0 REVERT JUMPDEST PUSH2 0x261D DUP3 PUSH2 0x26BD JUMP JUMPDEST PUSH4 0x4E487B71 PUSH1 0xE0 SHL PUSH0 MSTORE PUSH1 0x32 PUSH1 0x4 MSTORE PUSH1 0x24 PUSH0 REVERT JUMPDEST PUSH4 0x4E487B71 PUSH1 0xE0 SHL PUSH0 MSTORE PUSH1 0x11 PUSH1 0x4 MSTORE PUSH1 0x24 PUSH0 REVERT JUMPDEST PUSH0 PUSH1 0x1 DUP3 ADD PUSH2 0x2B4A JUMPI PUSH2 0x2B4A PUSH2 0x2B25 JUMP JUMPDEST POP PUSH1 0x1 ADD SWAP1 JUMP JUMPDEST DUP2 DUP2 SUB DUP2 DUP2 GT ISZERO PUSH2 0xADA JUMPI PUSH2 0xADA PUSH2 0x2B25 JUMP JUMPDEST PUSH0 PUSH1 0x20 DUP3 DUP5 SUB SLT ISZERO PUSH2 0x2B74 JUMPI PUSH0 PUSH0 REVERT JUMPDEST DUP2 MLOAD DUP1 ISZERO ISZERO DUP2 EQ PUSH2 0x261D JUMPI PUSH0 PUSH0 REVERT JUMPDEST DUP1 DUP3 MUL DUP2 ISZERO DUP3 DUP3 DIV DUP5 EQ OR PUSH2 0xADA JUMPI PUSH2 0xADA PUSH2 0x2B25 JUMP JUMPDEST PUSH1 0x20 DUP2 MSTORE DUP2 MLOAD PUSH1 0x20 DUP3 ADD MSTORE PUSH1 0x20 DUP3 ADD MLOAD PUSH1 0x40 DUP3 ADD MSTORE PUSH2 0xFFFF PUSH1 0x40 DUP4 ADD MLOAD AND PUSH1 0x60 DUP3 ADD MSTORE PUSH4 0xFFFFFFFF PUSH1 0x60 DUP4 ADD MLOAD AND PUSH1 0x80 DUP3 ADD MSTORE PUSH4 0xFFFFFFFF PUSH1 0x80 DUP4 ADD MLOAD AND PUSH1 0xA0 DUP3 ADD MSTORE PUSH0 PUSH1 0xA0 DUP4 ADD MLOAD PUSH1 0xC0 DUP1 DUP5 ADD MSTORE PUSH2 0x2A9E PUSH1 0xE0 DUP5 ADD DUP3 PUSH2 0x2AA6 JUMP JUMPDEST PUSH0 PUSH1 0x20 DUP3 DUP5 SUB SLT ISZERO PUSH2 0x2C06 JUMPI PUSH0 PUSH0 REVERT JUMPDEST POP MLOAD SWAP2 SWAP1 POP JUMP JUMPDEST PUSH0 DUP3 PUSH2 0x2C27 JUMPI PUSH4 0x4E487B71 PUSH1 0xE0 SHL PUSH0 MSTORE PUSH1 0x12 PUSH1 0x4 MSTORE PUSH1 0x24 PUSH0 REVERT JUMPDEST POP MOD SWAP1 JUMP JUMPDEST PUSH0 DUP3 MLOAD DUP1 PUSH1 0x20 DUP6 ADD DUP5 MCOPY PUSH0 SWAP3 ADD SWAP2 DUP3 MSTORE POP SWAP2 SWAP1 POP JUMP INVALID CALLDATASIZE ADDMOD SWAP5 LOG1 EXTCODESIZE LOG1 LOG3 0x21 MOD PUSH8 0xC828492DB98DCA3E KECCAK256 PUSH23 0xCC3735A920A3CA505D382BBCA2646970667358221220C5 0x2A PUSH17 0x46EB2CE0178C50564C0B4701940B510FFA DUP14 AND 0xDA 0x2B 0xF DUP14 0x29 0xE2 0xDE 0xDA 0xEA PUSH14 0x64736F6C634300081E0033000000 "
		},
		"gasEstimates": {
			"creation": {
				"codeDepositCost": "2283200",
				"executionCost": "infinite",
				"totalCost": "infinite"
			},
			"external": {
				"UPGRADE_INTERFACE_VERSION()": "infinite",
				"allLotteryIds(uint256)": "4682",
				"callbackGasLimit()": "2446",
				"cancelLottery(uint256)": "32221",
				"claimPrize(uint256)": "infinite",
				"claimRefund(uint256)": "infinite",
				"clearLotteryData(uint256)": "infinite",
				"createLottery(address,uint256,uint256,uint256,uint256,uint256,uint256,uint256)": "282061",
				"drawWinner(uint256)": "infinite",
				"enterLottery(uint256)": "infinite",
				"getActiveLotteries()": "infinite",
				"getAllLotteryIds()": "infinite",
				"getEntryCount(uint256,address)": "2689",
				"getLotteryInfo(uint256)": "infinite",
				"getParticipants(uint256)": "infinite",
				"getUserLotteryData(uint256,address)": "9331",
				"hasUserClaimed(uint256,address)": "2738",
				"hasUserRefunded(uint256,address)": "2722",
				"hasUserVotedCancel(uint256,address)": "2746",
				"initialize(address,bytes32,uint256,address,address)": "infinite",
				"investmentWallet()": "2469",
				"keyHash()": "2340",
				"lotteries(uint256)": "24010",
				"lotteryCounter()": "2339",
				"migrateToLottery(uint256,uint256)": "infinite",
				"numWords()": "2368",
				"owner()": "2441",
				"profitWallet()": "2448",
				"proxiableUUID()": "infinite",
				"rawFulfillRandomWords(uint256,uint256[])": "infinite",
				"renounceOwnership()": "infinite",
				"requestConfirmations()": "2434",
				"requestToLottery(uint256)": "2503",
				"subscriptionId()": "2385",
				"transferOwnership(address)": "28497",
				"upgradeToAndCall(address,bytes)": "infinite",
				"voteCancel(uint256)": "infinite",
				"vrfCoordinator()": "2469"
			},
			"internal": {
				"_authorizeUpgrade(address)": "infinite",
				"fulfillRandomWords(uint256,uint256[] memory)": "infinite"
			}
		},
		"methodIdentifiers": {
			"UPGRADE_INTERFACE_VERSION()": "ad3cb1cc",
			"allLotteryIds(uint256)": "e2344831",
			"callbackGasLimit()": "24f74697",
			"cancelLottery(uint256)": "4538f297",
			"claimPrize(uint256)": "d7098154",
			"claimRefund(uint256)": "5b7baf64",
			"clearLotteryData(uint256)": "82f9d0fb",
			"createLottery(address,uint256,uint256,uint256,uint256,uint256,uint256,uint256)": "4311da37",
			"drawWinner(uint256)": "60b2a56a",
			"enterLottery(uint256)": "3fd43098",
			"getActiveLotteries()": "055b66cd",
			"getAllLotteryIds()": "6cc69997",
			"getEntryCount(uint256,address)": "a49a75a5",
			"getLotteryInfo(uint256)": "76b3c8a8",
			"getParticipants(uint256)": "c1e3bd3e",
			"getUserLotteryData(uint256,address)": "ac03244e",
			"hasUserClaimed(uint256,address)": "07c7a72d",
			"hasUserRefunded(uint256,address)": "c4cd639f",
			"hasUserVotedCancel(uint256,address)": "3fe6e01e",
			"initialize(address,bytes32,uint256,address,address)": "0af5a263",
			"investmentWallet()": "b6fa37bc",
			"keyHash()": "61728f39",
			"lotteries(uint256)": "1398e076",
			"lotteryCounter()": "4a4a6b4f",
			"migrateToLottery(uint256,uint256)": "3893f9d5",
			"numWords()": "7ccfd7fc",
			"owner()": "8da5cb5b",
			"profitWallet()": "2301d775",
			"proxiableUUID()": "52d1902d",
			"rawFulfillRandomWords(uint256,uint256[])": "1fe543e3",
			"renounceOwnership()": "715018a6",
			"requestConfirmations()": "b0fb162f",
			"requestToLottery(uint256)": "15c6e123",
			"subscriptionId()": "09c1ba2e",
			"transferOwnership(address)": "f2fde38b",
			"upgradeToAndCall(address,bytes)": "4f1ef286",
			"voteCancel(uint256)": "826d9873",
			"vrfCoordinator()": "a3e56fa8"
		}
	},
	"abi": [
		{
			"inputs": [
				{
					"internalType": "address",
					"name": "target",
					"type": "address"
				}
			],
			"name": "AddressEmptyCode",
			"type": "error"
		},
		{
			"inputs": [
				{
					"internalType": "address",
					"name": "implementation",
					"type": "address"
				}
			],
			"name": "ERC1967InvalidImplementation",
			"type": "error"
		},
		{
			"inputs": [],
			"name": "ERC1967NonPayable",
			"type": "error"
		},
		{
			"inputs": [],
			"name": "FailedCall",
			"type": "error"
		},
		{
			"inputs": [],
			"name": "InvalidInitialization",
			"type": "error"
		},
		{
			"inputs": [],
			"name": "NotInitializing",
			"type": "error"
		},
		{
			"inputs": [
				{
					"internalType": "address",
					"name": "have",
					"type": "address"
				},
				{
					"internalType": "address",
					"name": "want",
					"type": "address"
				}
			],
			"name": "OnlyCoordinatorCanFulfill",
			"type": "error"
		},
		{
			"inputs": [
				{
					"internalType": "address",
					"name": "owner",
					"type": "address"
				}
			],
			"name": "OwnableInvalidOwner",
			"type": "error"
		},
		{
			"inputs": [
				{
					"internalType": "address",
					"name": "account",
					"type": "address"
				}
			],
			"name": "OwnableUnauthorizedAccount",
			"type": "error"
		},
		{
			"inputs": [],
			"name": "UUPSUnauthorizedCallContext",
			"type": "error"
		},
		{
			"inputs": [
				{
					"internalType": "bytes32",
					"name": "slot",
					"type": "bytes32"
				}
			],
			"name": "UUPSUnsupportedProxiableUUID",
			"type": "error"
		},
		{
			"anonymous": false,
			"inputs": [
				{
					"indexed": false,
					"internalType": "uint256",
					"name": "lotteryId",
					"type": "uint256"
				},
				{
					"indexed": false,
					"internalType": "address",
					"name": "user",
					"type": "address"
				}
			],
			"name": "EnteredLottery",
			"type": "event"
		},
		{
			"anonymous": false,
			"inputs": [
				{
					"indexed": false,
					"internalType": "uint64",
					"name": "version",
					"type": "uint64"
				}
			],
			"name": "Initialized",
			"type": "event"
		},
		{
			"anonymous": false,
			"inputs": [
				{
					"indexed": false,
					"internalType": "uint256",
					"name": "lotteryId",
					"type": "uint256"
				}
			],
			"name": "LotteryCancelled",
			"type": "event"
		},
		{
			"anonymous": false,
			"inputs": [
				{
					"indexed": false,
					"internalType": "uint256",
					"name": "lotteryId",
					"type": "uint256"
				}
			],
			"name": "LotteryCreated",
			"type": "event"
		},
		{
			"anonymous": false,
			"inputs": [
				{
					"indexed": false,
					"internalType": "uint256",
					"name": "lotteryId",
					"type": "uint256"
				},
				{
					"indexed": false,
					"internalType": "uint256",
					"name": "requestId",
					"type": "uint256"
				}
			],
			"name": "LotteryDrawRequested",
			"type": "event"
		},
		{
			"anonymous": false,
			"inputs": [
				{
					"indexed": true,
					"internalType": "address",
					"name": "previousOwner",
					"type": "address"
				},
				{
					"indexed": true,
					"internalType": "address",
					"name": "newOwner",
					"type": "address"
				}
			],
			"name": "OwnershipTransferred",
			"type": "event"
		},
		{
			"anonymous": false,
			"inputs": [
				{
					"indexed": true,
					"internalType": "address",
					"name": "implementation",
					"type": "address"
				}
			],
			"name": "Upgraded",
			"type": "event"
		},
		{
			"anonymous": false,
			"inputs": [
				{
					"indexed": false,
					"internalType": "uint256",
					"name": "lotteryId",
					"type": "uint256"
				},
				{
					"indexed": false,
					"internalType": "address",
					"name": "winner",
					"type": "address"
				}
			],
			"name": "WinnerSelected",
			"type": "event"
		},
		{
			"inputs": [],
			"name": "UPGRADE_INTERFACE_VERSION",
			"outputs": [
				{
					"internalType": "string",
					"name": "",
					"type": "string"
				}
			],
			"stateMutability": "view",
			"type": "function"
		},
		{
			"inputs": [
				{
					"internalType": "uint256",
					"name": "",
					"type": "uint256"
				}
			],
			"name": "allLotteryIds",
			"outputs": [
				{
					"internalType": "uint256",
					"name": "",
					"type": "uint256"
				}
			],
			"stateMutability": "view",
			"type": "function"
		},
		{
			"inputs": [],
			"name": "callbackGasLimit",
			"outputs": [
				{
					"internalType": "uint32",
					"name": "",
					"type": "uint32"
				}
			],
			"stateMutability": "view",
			"type": "function"
		},
		{
			"inputs": [
				{
					"internalType": "uint256",
					"name": "_lotteryId",
					"type": "uint256"
				}
			],
			"name": "cancelLottery",
			"outputs": [],
			"stateMutability": "nonpayable",
			"type": "function"
		},
		{
			"inputs": [
				{
					"internalType": "uint256",
					"name": "_lotteryId",
					"type": "uint256"
				}
			],
			"name": "claimPrize",
			"outputs": [],
			"stateMutability": "nonpayable",
			"type": "function"
		},
		{
			"inputs": [
				{
					"internalType": "uint256",
					"name": "_lotteryId",
					"type": "uint256"
				}
			],
			"name": "claimRefund",
			"outputs": [],
			"stateMutability": "nonpayable",
			"type": "function"
		},
		{
			"inputs": [
				{
					"internalType": "uint256",
					"name": "_lotteryId",
					"type": "uint256"
				}
			],
			"name": "clearLotteryData",
			"outputs": [],
			"stateMutability": "nonpayable",
			"type": "function"
		},
		{
			"inputs": [
				{
					"internalType": "address",
					"name": "_tokenAddress",
					"type": "address"
				},
				{
					"internalType": "uint256",
					"name": "_participationFee",
					"type": "uint256"
				},
				{
					"internalType": "uint256",
					"name": "_refundableAmount",
					"type": "uint256"
				},
				{
					"internalType": "uint256",
					"name": "_maxParticipants",
					"type": "uint256"
				},
				{
					"internalType": "uint256",
					"name": "_drawTime",
					"type": "uint256"
				},
				{
					"internalType": "uint256",
					"name": "_prizeAmount",
					"type": "uint256"
				},
				{
					"internalType": "uint256",
					"name": "_feeToInvestment",
					"type": "uint256"
				},
				{
					"internalType": "uint256",
					"name": "_feeToProfit",
					"type": "uint256"
				}
			],
			"name": "createLottery",
			"outputs": [],
			"stateMutability": "nonpayable",
			"type": "function"
		},
		{
			"inputs": [
				{
					"internalType": "uint256",
					"name": "_lotteryId",
					"type": "uint256"
				}
			],
			"name": "drawWinner",
			"outputs": [],
			"stateMutability": "nonpayable",
			"type": "function"
		},
		{
			"inputs": [
				{
					"internalType": "uint256",
					"name": "_lotteryId",
					"type": "uint256"
				}
			],
			"name": "enterLottery",
			"outputs": [],
			"stateMutability": "nonpayable",
			"type": "function"
		},
		{
			"inputs": [],
			"name": "getActiveLotteries",
			"outputs": [
				{
					"internalType": "uint256[]",
					"name": "",
					"type": "uint256[]"
				}
			],
			"stateMutability": "view",
			"type": "function"
		},
		{
			"inputs": [],
			"name": "getAllLotteryIds",
			"outputs": [
				{
					"internalType": "uint256[]",
					"name": "",
					"type": "uint256[]"
				}
			],
			"stateMutability": "view",
			"type": "function"
		},
		{
			"inputs": [
				{
					"internalType": "uint256",
					"name": "lotteryId",
					"type": "uint256"
				},
				{
					"internalType": "address",
					"name": "user",
					"type": "address"
				}
			],
			"name": "getEntryCount",
			"outputs": [
				{
					"internalType": "uint256",
					"name": "",
					"type": "uint256"
				}
			],
			"stateMutability": "view",
			"type": "function"
		},
		{
			"inputs": [
				{
					"internalType": "uint256",
					"name": "_lotteryId",
					"type": "uint256"
				}
			],
			"name": "getLotteryInfo",
			"outputs": [
				{
					"components": [
						{
							"internalType": "address",
							"name": "tokenAddress",
							"type": "address"
						},
						{
							"internalType": "uint256",
							"name": "participationFee",
							"type": "uint256"
						},
						{
							"internalType": "uint256",
							"name": "refundableAmount",
							"type": "uint256"
						},
						{
							"internalType": "uint256",
							"name": "maxParticipants",
							"type": "uint256"
						},
						{
							"internalType": "uint256",
							"name": "drawTime",
							"type": "uint256"
						},
						{
							"internalType": "uint256",
							"name": "prizeAmount",
							"type": "uint256"
						},
						{
							"internalType": "uint256",
							"name": "feeToInvestment",
							"type": "uint256"
						},
						{
							"internalType": "uint256",
							"name": "feeToProfit",
							"type": "uint256"
						},
						{
							"internalType": "bool",
							"name": "isActive",
							"type": "bool"
						},
						{
							"internalType": "bool",
							"name": "isDrawn",
							"type": "bool"
						},
						{
							"internalType": "bool",
							"name": "isCancelled",
							"type": "bool"
						},
						{
							"internalType": "address",
							"name": "winner",
							"type": "address"
						},
						{
							"internalType": "uint256",
							"name": "voteCount",
							"type": "uint256"
						},
						{
							"internalType": "address[]",
							"name": "participants",
							"type": "address[]"
						}
					],
					"internalType": "struct StemPayLotteryManager.LotteryInfo",
					"name": "info",
					"type": "tuple"
				}
			],
			"stateMutability": "view",
			"type": "function"
		},
		{
			"inputs": [
				{
					"internalType": "uint256",
					"name": "_lotteryId",
					"type": "uint256"
				}
			],
			"name": "getParticipants",
			"outputs": [
				{
					"internalType": "address[]",
					"name": "",
					"type": "address[]"
				}
			],
			"stateMutability": "view",
			"type": "function"
		},
		{
			"inputs": [
				{
					"internalType": "uint256",
					"name": "lotteryId",
					"type": "uint256"
				},
				{
					"internalType": "address",
					"name": "user",
					"type": "address"
				}
			],
			"name": "getUserLotteryData",
			"outputs": [
				{
					"internalType": "uint256",
					"name": "entryCount",
					"type": "uint256"
				},
				{
					"internalType": "bool",
					"name": "hasClaimed",
					"type": "bool"
				},
				{
					"internalType": "bool",
					"name": "hasRefunded",
					"type": "bool"
				},
				{
					"internalType": "bool",
					"name": "hasVotedCancel",
					"type": "bool"
				}
			],
			"stateMutability": "view",
			"type": "function"
		},
		{
			"inputs": [
				{
					"internalType": "uint256",
					"name": "lotteryId",
					"type": "uint256"
				},
				{
					"internalType": "address",
					"name": "user",
					"type": "address"
				}
			],
			"name": "hasUserClaimed",
			"outputs": [
				{
					"internalType": "bool",
					"name": "",
					"type": "bool"
				}
			],
			"stateMutability": "view",
			"type": "function"
		},
		{
			"inputs": [
				{
					"internalType": "uint256",
					"name": "lotteryId",
					"type": "uint256"
				},
				{
					"internalType": "address",
					"name": "user",
					"type": "address"
				}
			],
			"name": "hasUserRefunded",
			"outputs": [
				{
					"internalType": "bool",
					"name": "",
					"type": "bool"
				}
			],
			"stateMutability": "view",
			"type": "function"
		},
		{
			"inputs": [
				{
					"internalType": "uint256",
					"name": "lotteryId",
					"type": "uint256"
				},
				{
					"internalType": "address",
					"name": "user",
					"type": "address"
				}
			],
			"name": "hasUserVotedCancel",
			"outputs": [
				{
					"internalType": "bool",
					"name": "",
					"type": "bool"
				}
			],
			"stateMutability": "view",
			"type": "function"
		},
		{
			"inputs": [
				{
					"internalType": "address",
					"name": "_vrfCoordinator",
					"type": "address"
				},
				{
					"internalType": "bytes32",
					"name": "_keyHash",
					"type": "bytes32"
				},
				{
					"internalType": "uint256",
					"name": "_subId",
					"type": "uint256"
				},
				{
					"internalType": "address",
					"name": "_investmentWallet",
					"type": "address"
				},
				{
					"internalType": "address",
					"name": "_profitWallet",
					"type": "address"
				}
			],
			"name": "initialize",
			"outputs": [],
			"stateMutability": "nonpayable",
			"type": "function"
		},
		{
			"inputs": [],
			"name": "investmentWallet",
			"outputs": [
				{
					"internalType": "address",
					"name": "",
					"type": "address"
				}
			],
			"stateMutability": "view",
			"type": "function"
		},
		{
			"inputs": [],
			"name": "keyHash",
			"outputs": [
				{
					"internalType": "bytes32",
					"name": "",
					"type": "bytes32"
				}
			],
			"stateMutability": "view",
			"type": "function"
		},
		{
			"inputs": [
				{
					"internalType": "uint256",
					"name": "",
					"type": "uint256"
				}
			],
			"name": "lotteries",
			"outputs": [
				{
					"internalType": "address",
					"name": "tokenAddress",
					"type": "address"
				},
				{
					"internalType": "uint256",
					"name": "participationFee",
					"type": "uint256"
				},
				{
					"internalType": "uint256",
					"name": "refundableAmount",
					"type": "uint256"
				},
				{
					"internalType": "uint256",
					"name": "maxParticipants",
					"type": "uint256"
				},
				{
					"internalType": "uint256",
					"name": "drawTime",
					"type": "uint256"
				},
				{
					"internalType": "uint256",
					"name": "prizeAmount",
					"type": "uint256"
				},
				{
					"internalType": "uint256",
					"name": "feeToInvestment",
					"type": "uint256"
				},
				{
					"internalType": "uint256",
					"name": "feeToProfit",
					"type": "uint256"
				},
				{
					"internalType": "bool",
					"name": "isActive",
					"type": "bool"
				},
				{
					"internalType": "bool",
					"name": "isDrawn",
					"type": "bool"
				},
				{
					"internalType": "bool",
					"name": "isCancelled",
					"type": "bool"
				},
				{
					"internalType": "address",
					"name": "winner",
					"type": "address"
				},
				{
					"internalType": "uint256",
					"name": "voteCount",
					"type": "uint256"
				}
			],
			"stateMutability": "view",
			"type": "function"
		},
		{
			"inputs": [],
			"name": "lotteryCounter",
			"outputs": [
				{
					"internalType": "uint256",
					"name": "",
					"type": "uint256"
				}
			],
			"stateMutability": "view",
			"type": "function"
		},
		{
			"inputs": [
				{
					"internalType": "uint256",
					"name": "fromId",
					"type": "uint256"
				},
				{
					"internalType": "uint256",
					"name": "toId",
					"type": "uint256"
				}
			],
			"name": "migrateToLottery",
			"outputs": [],
			"stateMutability": "nonpayable",
			"type": "function"
		},
		{
			"inputs": [],
			"name": "numWords",
			"outputs": [
				{
					"internalType": "uint32",
					"name": "",
					"type": "uint32"
				}
			],
			"stateMutability": "view",
			"type": "function"
		},
		{
			"inputs": [],
			"name": "owner",
			"outputs": [
				{
					"internalType": "address",
					"name": "",
					"type": "address"
				}
			],
			"stateMutability": "view",
			"type": "function"
		},
		{
			"inputs": [],
			"name": "profitWallet",
			"outputs": [
				{
					"internalType": "address",
					"name": "",
					"type": "address"
				}
			],
			"stateMutability": "view",
			"type": "function"
		},
		{
			"inputs": [],
			"name": "proxiableUUID",
			"outputs": [
				{
					"internalType": "bytes32",
					"name": "",
					"type": "bytes32"
				}
			],
			"stateMutability": "view",
			"type": "function"
		},
		{
			"inputs": [
				{
					"internalType": "uint256",
					"name": "requestId",
					"type": "uint256"
				},
				{
					"internalType": "uint256[]",
					"name": "randomWords",
					"type": "uint256[]"
				}
			],
			"name": "rawFulfillRandomWords",
			"outputs": [],
			"stateMutability": "nonpayable",
			"type": "function"
		},
		{
			"inputs": [],
			"name": "renounceOwnership",
			"outputs": [],
			"stateMutability": "nonpayable",
			"type": "function"
		},
		{
			"inputs": [],
			"name": "requestConfirmations",
			"outputs": [
				{
					"internalType": "uint16",
					"name": "",
					"type": "uint16"
				}
			],
			"stateMutability": "view",
			"type": "function"
		},
		{
			"inputs": [
				{
					"internalType": "uint256",
					"name": "",
					"type": "uint256"
				}
			],
			"name": "requestToLottery",
			"outputs": [
				{
					"internalType": "uint256",
					"name": "",
					"type": "uint256"
				}
			],
			"stateMutability": "view",
			"type": "function"
		},
		{
			"inputs": [],
			"name": "subscriptionId",
			"outputs": [
				{
					"internalType": "uint256",
					"name": "",
					"type": "uint256"
				}
			],
			"stateMutability": "view",
			"type": "function"
		},
		{
			"inputs": [
				{
					"internalType": "address",
					"name": "newOwner",
					"type": "address"
				}
			],
			"name": "transferOwnership",
			"outputs": [],
			"stateMutability": "nonpayable",
			"type": "function"
		},
		{
			"inputs": [
				{
					"internalType": "address",
					"name": "newImplementation",
					"type": "address"
				},
				{
					"internalType": "bytes",
					"name": "data",
					"type": "bytes"
				}
			],
			"name": "upgradeToAndCall",
			"outputs": [],
			"stateMutability": "payable",
			"type": "function"
		},
		{
			"inputs": [
				{
					"internalType": "uint256",
					"name": "_lotteryId",
					"type": "uint256"
				}
			],
			"name": "voteCancel",
			"outputs": [],
			"stateMutability": "nonpayable",
			"type": "function"
		},
		{
			"inputs": [],
			"name": "vrfCoordinator",
			"outputs": [
				{
					"internalType": "address",
					"name": "",
					"type": "address"
				}
			],
			"stateMutability": "view",
			"type": "function"
		}
	]
}