{
	"data": {
		"bytecode": {
			"linkReferences": {},
			"object": "60a0604052306080523480156012575f5ffd5b5060015f556080516124ee61003d5f395f8181611b3701528181611b600152611ca401526124ee5ff3fe6080604052600436106101ba575f3560e01c80635b7baf64116100f25780638da5cb5b11610092578063b6fa37bc11610062578063b6fa37bc14610615578063c1e3bd3e14610634578063d709815414610660578063f2fde38b1461067f575f5ffd5b80638da5cb5b14610548578063a3e56fa814610584578063ad3cb1cc146105a3578063b0fb162f146105e0575f5ffd5b8063715018a6116100cd578063715018a6146104d05780637ccfd7fc146104e4578063826d98731461050a57806382f9d0fb14610529575f5ffd5b80635b7baf641461047d57806360b2a56a1461049c57806361728f39146104bb575f5ffd5b80633893f9d51161015d5780634538f297116101385780634538f297146104225780634a4a6b4f146104415780634f1ef2861461045657806352d1902d14610469575f5ffd5b80633893f9d5146103c55780633fd43098146103e45780634311da3714610403575f5ffd5b80631fe543e3116101985780631fe543e31461031d5780632301d7751461033e57806324f7469714610375578063379c52a6146103a6575f5ffd5b806309c1ba2e146101be5780631398e076146101e657806315c6e123146102f2575b5f5ffd5b3480156101c9575f5ffd5b506101d360085481565b6040519081526020015b60405180910390f35b3480156101f1575f5ffd5b5061027b610200366004612008565b600260208190525f91825260409091208054600182015492820154600383015460048401546005850154600686015460078701546008880154600a890154600b909901546001600160a01b039889169a9997989697959694959394929360ff808416946101008504821694620100009004909116929116908d565b604080516001600160a01b039e8f168152602081019d909d528c019a909a5260608b019890985260808a019690965260a089019490945260c088019290925260e08701521515610100860152151561012085015215156101408401529092166101608201526101808101919091526101a0016101dd565b3480156102fd575f5ffd5b506101d361030c366004612008565b600a6020525f908152604090205481565b348015610328575f5ffd5b5061033c610337366004612064565b61069e565b005b348015610349575f5ffd5b5060055461035d906001600160a01b031681565b6040516001600160a01b0390911681526020016101dd565b348015610380575f5ffd5b506007546103919063ffffffff1681565b60405163ffffffff90911681526020016101dd565b3480156103b1575f5ffd5b5061033c6103c0366004612137565b6106f1565b3480156103d0575f5ffd5b5061033c6103df36600461219f565b61086c565b3480156103ef575f5ffd5b5061033c6103fe366004612008565b610b7b565b34801561040e575f5ffd5b5061033c61041d3660046121bf565b610d86565b34801561042d575f5ffd5b5061033c61043c366004612008565b610ed4565b34801561044c575f5ffd5b506101d360035481565b61033c610464366004612216565b610f9f565b348015610474575f5ffd5b506101d3610fba565b348015610488575f5ffd5b5061033c610497366004612008565b610fd5565b3480156104a7575f5ffd5b5061033c6104b6366004612008565b6111b2565b3480156104c6575f5ffd5b506101d360065481565b3480156104db575f5ffd5b5061033c611401565b3480156104ef575f5ffd5b50600754610391906601000000000000900463ffffffff1681565b348015610515575f5ffd5b5061033c610524366004612008565b611414565b348015610534575f5ffd5b5061033c610543366004612008565b61155a565b348015610553575f5ffd5b507f9016d09d72d40fdae2fd8ceac6b6234c7706214fd39c1cd1e609a0528c199300546001600160a01b031661035d565b34801561058f575f5ffd5b5060095461035d906001600160a01b031681565b3480156105ae575f5ffd5b506105d3604051806040016040528060058152602001640352e302e360dc1b81525081565b6040516101dd91906122e9565b3480156105eb575f5ffd5b5060075461060290640100000000900461ffff1681565b60405161ffff90911681526020016101dd565b348015610620575f5ffd5b5060045461035d906001600160a01b031681565b34801561063f575f5ffd5b5061065361064e366004612008565b6115e8565b6040516101dd91906122fb565b34801561066b575f5ffd5b5061033c61067a366004612008565b611654565b34801561068a575f5ffd5b5061033c610699366004612346565b6117a3565b6001546001600160a01b031633146106e35760015460405163073e64fd60e21b81523360048201526001600160a01b0390911660248201526044015b60405180910390fd5b6106ed82826117dd565b5050565b5f6106fa611a0d565b805490915060ff600160401b820416159067ffffffffffffffff165f811580156107215750825b90505f8267ffffffffffffffff16600114801561073d5750303b155b90508115801561074b575080155b156107695760405163f92ee8a960e01b815260040160405180910390fd5b845467ffffffffffffffff19166001178555831561079357845460ff60401b1916600160401b1785555b61079c33611a37565b6107a4611a48565b6107ad8a611a50565b600980546001600160a01b03199081166001600160a01b038d81169190911790925560068b905567ffffffffffffffff8a166008556007805469ffffffffffffffffffff19166601000300030d401790556004805482168a841617905560058054909116918816919091179055831561086057845460ff60401b19168555604051600181527fc7f505b2f371ae2175ee4913f4499e1f2633a7b5936321eed1cdaeb6115181d29060200160405180910390a15b50505050505050505050565b610874611a7a565b5f828152600260209081526040808320848452818420338552600c82019093529220546108d05760405162461bcd60e51b815260206004820152600a602482015269139bdd081a5b881bdb1960b21b60448201526064016106da565b335f908152600e8301602052604090205460ff16156109245760405162461bcd60e51b815260206004820152601060248201526f526566756e64656420616c726561647960801b60448201526064016106da565b600882015462010000900460ff168061095e57506008820154610100900460ff16801561095e5750600a8201546001600160a01b03163314155b61099d5760405162461bcd60e51b815260206004820152601060248201526f4f6c64206e6f7420656c696769626c6560801b60448201526064016106da565b600881015460ff1680156109bc5750600881015462010000900460ff16155b6109ff5760405162461bcd60e51b81526020600482015260146024820152734e6577206c6f747465727920696e61637469766560601b60448201526064016106da565b80600401544210610a455760405162461bcd60e51b815260206004820152601060248201526f546f6f206c61746520666f72206e657760801b60448201526064016106da565b335f908152600e830160205260408120805460ff19166001908117909155600283015490830154610a769190612373565b82546040516323b872dd60e01b8152336004820152306024820152604481018390529192506001600160a01b0316906323b872dd906064016020604051808303815f875af1158015610aca573d5f5f3e3d5ffd5b505050506040513d601f19601f82011682018060405250810190610aee9190612386565b506009820180546001810182555f918252602080832090910180546001600160a01b031916339081179091558252600c8401905260408120805491610b32836123a5565b9091555050604080518581523360208201527f1e28857182a3b2bb6fbb88287d1ba8cc3a941dd65d4c977286676d27b877a3d9910160405180910390a15050506106ed60015f55565b610b83611a7a565b5f818152600260205260409020600881015460ff168015610baf5750600881015462010000900460ff16155b610bf35760405162461bcd60e51b8152602060048201526015602482015274125b9858dd1a5d99481bdc8818d85b98d95b1b1959605a1b60448201526064016106da565b80600401544210610c315760405162461bcd60e51b8152602060048201526008602482015267546f6f206c61746560c01b60448201526064016106da565b6003810154600982015410610c7b5760405162461bcd60e51b815260206004820152601060248201526f4d6178207061727469636970616e747360801b60448201526064016106da565b805460018201546040516323b872dd60e01b815233600482015230602482015260448101919091526001600160a01b03909116906323b872dd906064016020604051808303815f875af1158015610cd4573d5f5f3e3d5ffd5b505050506040513d601f19601f82011682018060405250810190610cf89190612386565b506009810180546001810182555f918252602080832090910180546001600160a01b031916339081179091558252600c8301905260408120805491610d3c836123a5565b9091555050604080518381523360208201527f1e28857182a3b2bb6fbb88287d1ba8cc3a941dd65d4c977286676d27b877a3d9910160405180910390a150610d8360015f55565b50565b610d8e611ad1565b85871015610dce5760405162461bcd60e51b815260206004820152600d60248201526c526566756e64203c3d2066656560981b60448201526064016106da565b428411610e115760405162461bcd60e51b8152602060048201526011602482015270496e76616c696420647261772074696d6560781b60448201526064016106da565b5f60025f60035f8154610e23906123a5565b9182905550815260208082019290925260409081015f2080546001600160a01b0319166001600160a01b038d1617815560018082018c9055600282018b905560038083018b9055600483018a905560058301899055600683018890556007830187905560088301805460ff191690921790915554915191825292507f9e0023bebcc752baaa41057318405b5a6a8e9c6372b519717cfdf238e5caa795910160405180910390a1505050505050505050565b610edc611ad1565b5f818152600260205260409020600881015462010000900460ff16158015610f0e57506008810154610100900460ff16155b610f4e5760405162461bcd60e51b8152602060048201526011602482015270105b1c9958591e48199a5b985b1a5e9959607a1b60448201526064016106da565b60088101805462ff00001916620100001790556040517fc3dac690cf4c3ae8964f18b8f09f7f9a75d3962a8cbb7cd689df2c291bb5b2dd90610f939084815260200190565b60405180910390a15050565b610fa7611b2c565b610fb082611bd0565b6106ed8282611bd8565b5f610fc3611c99565b505f5160206124995f395f51905f5290565b610fdd611a7a565b5f818152600260205260409020600881015462010000900460ff168061102457506008810154610100900460ff1680156110245750600a8101546001600160a01b03163314155b61105f5760405162461bcd60e51b815260206004820152600c60248201526b4e6f7420656c696769626c6560a01b60448201526064016106da565b335f908152600e8201602052604090205460ff16156110b35760405162461bcd60e51b815260206004820152601060248201526f105b1c9958591e481c99599d5b99195960821b60448201526064016106da565b335f908152600c820160205260409020546110fd5760405162461bcd60e51b815260206004820152600a6024820152694e6f20656e747269657360b01b60448201526064016106da565b335f908152600e820160209081526040808320805460ff19166001179055600c8401909152812054600283015461113491906123bd565b825460405163a9059cbb60e01b8152336004820152602481018390529192506001600160a01b03169063a9059cbb906044016020604051808303815f875af1158015611182573d5f5f3e3d5ffd5b505050506040513d601f19601f820116820180604052508101906111a69190612386565b505050610d8360015f55565b6111ba611ad1565b5f81815260026020526040902060048101544210156112075760405162461bcd60e51b8152602060048201526009602482015268546f6f206561726c7960b81b60448201526064016106da565b6008810154610100900460ff1615801561122c5750600881015462010000900460ff16155b6112785760405162461bcd60e51b815260206004820152601a60248201527f416c726561647920647261776e206f722063616e63656c6c656400000000000060448201526064016106da565b60098101546112bb5760405162461bcd60e51b815260206004820152600f60248201526e4e6f207061727469636970616e747360881b60448201526064016106da565b6009546040805160c081018252600654815260085460208083019190915260075461ffff6401000000008204168385015263ffffffff8082166060850152660100000000000090910416608083015282519081019092525f808352926001600160a01b031691639b1c385e919060a082019061133690611ce2565b8152506040518263ffffffff1660e01b815260040161135591906123d4565b6020604051808303815f875af1158015611371573d5f5f3e3d5ffd5b505050506040513d601f19601f820116820180604052508101906113959190612438565b5f818152600a60205260409081902085905560088401805461ff001916610100179055519091507f600253eae67a5c51c82a7123372e8644f16009c6304e18f844cf86fdc40c24d7906113f49085908490918252602082015260400190565b60405180910390a1505050565b611409611ad1565b6114125f611d53565b565b5f818152600260209081526040808320338452600f81019092529091205460ff16156114725760405162461bcd60e51b815260206004820152600d60248201526c105b1c9958591e481d9bdd1959609a1b60448201526064016106da565b335f908152600c820160205260409020546114c05760405162461bcd60e51b815260206004820152600e60248201526d4e6f7420696e206c6f747465727960901b60448201526064016106da565b335f908152600f820160205260408120805460ff19166001179055600b82018054916114eb836123a5565b909155505060098101546115009060026123bd565b600b8201546115109060036123bd565b106106ed5760088101805462ff00001916620100001790556040517fc3dac690cf4c3ae8964f18b8f09f7f9a75d3962a8cbb7cd689df2c291bb5b2dd90610f939084815260200190565b611562611ad1565b5f818152600260208190526040822080546001600160a01b031916815560018101839055908101829055600381018290556004810182905560058101829055600681018290556007810182905560088101805462ffffff19169055906115cb6009830182611fda565b50600a810180546001600160a01b03191690555f600b9091015550565b5f8181526002602090815260409182902060090180548351818402810184019094528084526060939283018282801561164857602002820191905f5260205f20905b81546001600160a01b0316815260019091019060200180831161162a575b50505050509050919050565b61165c611a7a565b5f818152600260205260409020600a8101546001600160a01b031633146116b25760405162461bcd60e51b815260206004820152600a6024820152692737ba103bb4b73732b960b11b60448201526064016106da565b335f908152600d8201602052604090205460ff16156117055760405162461bcd60e51b815260206004820152600f60248201526e105b1c9958591e4818db185a5b5959608a1b60448201526064016106da565b335f818152600d8301602052604090819020805460ff1916600117905582546005840154915163a9059cbb60e01b8152600481019390935260248301919091526001600160a01b03169063a9059cbb906044016020604051808303815f875af1158015611774573d5f5f3e3d5ffd5b505050506040513d601f19601f820116820180604052508101906117989190612386565b5050610d8360015f55565b6117ab611ad1565b6001600160a01b0381166117d457604051631e4fbdf760e01b81525f60048201526024016106da565b610d8381611d53565b5f828152600a602090815260408083205480845260029092529091206008810154610100900460ff16801561181d5750600a8101546001600160a01b0316155b61185d5760405162461bcd60e51b8152602060048201526011602482015270105b1c9958591e48199d5b199a5b1b1959607a1b60448201526064016106da565b5f8160090180549050845f815181106118785761187861244f565b602002602001015161188a9190612463565b90508160090181815481106118a1576118a161244f565b5f91825260209091200154600a830180546001600160a01b0319166001600160a01b03928316179055825460048054600686015460405163a9059cbb60e01b8152918516928201929092526024810191909152911690819063a9059cbb906044016020604051808303815f875af115801561191e573d5f5f3e3d5ffd5b505050506040513d601f19601f820116820180604052508101906119429190612386565b50600554600784015460405163a9059cbb60e01b81526001600160a01b03928316600482015260248101919091529082169063a9059cbb906044016020604051808303815f875af1158015611999573d5f5f3e3d5ffd5b505050506040513d601f19601f820116820180604052508101906119bd9190612386565b50600a830154604080518681526001600160a01b0390921660208301527f03fb57eb449654e24e1b240d3d06702cf79362a065d5c0323aee642d4702fa4b910160405180910390a1505050505050565b5f807ff0c57e16840df040f15088dc2f81fe391c3923bec73e23a9662efc9c229c6a005b92915050565b611a3f611dc3565b610d8381611de8565b611412611dc3565b611a58611dc3565b600180546001600160a01b0319166001600160a01b0392909216919091179055565b60025f5403611acb5760405162461bcd60e51b815260206004820152601f60248201527f5265656e7472616e637947756172643a207265656e7472616e742063616c6c0060448201526064016106da565b60025f55565b33611b037f9016d09d72d40fdae2fd8ceac6b6234c7706214fd39c1cd1e609a0528c199300546001600160a01b031690565b6001600160a01b0316146114125760405163118cdaa760e01b81523360048201526024016106da565b306001600160a01b037f0000000000000000000000000000000000000000000000000000000000000000161480611bb257507f00000000000000000000000000000000000000000000000000000000000000006001600160a01b0316611ba65f5160206124995f395f51905f52546001600160a01b031690565b6001600160a01b031614155b156114125760405163703e46dd60e11b815260040160405180910390fd5b610d83611ad1565b816001600160a01b03166352d1902d6040518163ffffffff1660e01b8152600401602060405180830381865afa925050508015611c32575060408051601f3d908101601f19168201909252611c2f91810190612438565b60015b611c5a57604051634c9c8ce360e01b81526001600160a01b03831660048201526024016106da565b5f5160206124995f395f51905f528114611c8a57604051632a87526960e21b8152600481018290526024016106da565b611c948383611df0565b505050565b306001600160a01b037f000000000000000000000000000000000000000000000000000000000000000016146114125760405163703e46dd60e11b815260040160405180910390fd5b60607f92fd13387c7fe7befbc38d303d6468778fb9731bc4583f17d92989c6fcfdeaaa82604051602401611d1b91511515815260200190565b60408051601f198184030181529190526020810180516001600160e01b03166001600160e01b03199093169290921790915292915050565b7f9016d09d72d40fdae2fd8ceac6b6234c7706214fd39c1cd1e609a0528c19930080546001600160a01b031981166001600160a01b03848116918217845560405192169182907f8be0079c531659141344cd1fd0a4f28419497f9722a3daafe3b4186f6b6457e0905f90a3505050565b611dcb611e45565b61141257604051631afcd79f60e31b815260040160405180910390fd5b6117ab611dc3565b611df982611e5e565b6040516001600160a01b038316907fbc7cd75a20ee27fd9adebab32041f755214dbc6bffa90cc0225b39da2e5c2d3b905f90a2805115611e3d57611c948282611ec1565b6106ed611f33565b5f611e4e611a0d565b54600160401b900460ff16919050565b806001600160a01b03163b5f03611e9357604051634c9c8ce360e01b81526001600160a01b03821660048201526024016106da565b5f5160206124995f395f51905f5280546001600160a01b0319166001600160a01b0392909216919091179055565b60605f5f846001600160a01b031684604051611edd9190612482565b5f60405180830381855af49150503d805f8114611f15576040519150601f19603f3d011682016040523d82523d5f602084013e611f1a565b606091505b5091509150611f2a858383611f52565b95945050505050565b34156114125760405163b398979f60e01b815260040160405180910390fd5b606082611f6757611f6282611fb1565b611faa565b8151158015611f7e57506001600160a01b0384163b155b15611fa757604051639996b31560e01b81526001600160a01b03851660048201526024016106da565b50805b9392505050565b805115611fc15780518082602001fd5b60405163d6bda27560e01b815260040160405180910390fd5b5080545f8255905f5260205f2090810190610d8391905b80821115612004575f8155600101611ff1565b5090565b5f60208284031215612018575f5ffd5b5035919050565b634e487b7160e01b5f52604160045260245ffd5b604051601f8201601f1916810167ffffffffffffffff8111828210171561205c5761205c61201f565b604052919050565b5f5f60408385031215612075575f5ffd5b82359150602083013567ffffffffffffffff811115612092575f5ffd5b8301601f810185136120a2575f5ffd5b803567ffffffffffffffff8111156120bc576120bc61201f565b8060051b6120cc60208201612033565b918252602081840181019290810190888411156120e7575f5ffd5b6020850194505b8385101561210d578435808352602095860195909350909101906120ee565b80955050505050509250929050565b80356001600160a01b0381168114612132575f5ffd5b919050565b5f5f5f5f5f60a0868803121561214b575f5ffd5b6121548661211c565b945060208601359350604086013567ffffffffffffffff81168114612177575f5ffd5b92506121856060870161211c565b91506121936080870161211c565b90509295509295909350565b5f5f604083850312156121b0575f5ffd5b50508035926020909101359150565b5f5f5f5f5f5f5f5f610100898b0312156121d7575f5ffd5b6121e08961211c565b9a60208a01359a5060408a013599606081013599506080810135985060a0810135975060c0810135965060e00135945092505050565b5f5f60408385031215612227575f5ffd5b6122308361211c565b9150602083013567ffffffffffffffff81111561224b575f5ffd5b8301601f8101851361225b575f5ffd5b803567ffffffffffffffff8111156122755761227561201f565b612288601f8201601f1916602001612033565b81815286602083850101111561229c575f5ffd5b816020840160208301375f602083830101528093505050509250929050565b5f81518084528060208401602086015e5f602082860101526020601f19601f83011685010191505092915050565b602081525f611faa60208301846122bb565b602080825282518282018190525f918401906040840190835b8181101561233b5783516001600160a01b0316835260209384019390920191600101612314565b509095945050505050565b5f60208284031215612356575f5ffd5b611faa8261211c565b634e487b7160e01b5f52601160045260245ffd5b81810381811115611a3157611a3161235f565b5f60208284031215612396575f5ffd5b81518015158114611faa575f5ffd5b5f600182016123b6576123b661235f565b5060010190565b8082028115828204841417611a3157611a3161235f565b60208152815160208201526020820151604082015261ffff604083015116606082015263ffffffff606083015116608082015263ffffffff60808301511660a08201525f60a083015160c08084015261243060e08401826122bb565b949350505050565b5f60208284031215612448575f5ffd5b5051919050565b634e487b7160e01b5f52603260045260245ffd5b5f8261247d57634e487b7160e01b5f52601260045260245ffd5b500690565b5f82518060208501845e5f92019182525091905056fe360894a13ba1a3210667c828492db98dca3e2076cc3735a920a3ca505d382bbca2646970667358221220ae1d3d949297c7ded63a35fc5dab45e6b15fd903bc27557e1a5cede44eabe33964736f6c634300081e0033",
			"opcodes": "PUSH1 0xA0 PUSH1 0x40 MSTORE ADDRESS PUSH1 0x80 MSTORE CALLVALUE DUP1 ISZERO PUSH1 0x12 JUMPI PUSH0 PUSH0 REVERT JUMPDEST POP PUSH1 0x1 PUSH0 SSTORE PUSH1 0x80 MLOAD PUSH2 0x24EE PUSH2 0x3D PUSH0 CODECOPY PUSH0 DUP2 DUP2 PUSH2 0x1B37 ADD MSTORE DUP2 DUP2 PUSH2 0x1B60 ADD MSTORE PUSH2 0x1CA4 ADD MSTORE PUSH2 0x24EE PUSH0 RETURN INVALID PUSH1 0x80 PUSH1 0x40 MSTORE PUSH1 0x4 CALLDATASIZE LT PUSH2 0x1BA JUMPI PUSH0 CALLDATALOAD PUSH1 0xE0 SHR DUP1 PUSH4 0x5B7BAF64 GT PUSH2 0xF2 JUMPI DUP1 PUSH4 0x8DA5CB5B GT PUSH2 0x92 JUMPI DUP1 PUSH4 0xB6FA37BC GT PUSH2 0x62 JUMPI DUP1 PUSH4 0xB6FA37BC EQ PUSH2 0x615 JUMPI DUP1 PUSH4 0xC1E3BD3E EQ PUSH2 0x634 JUMPI DUP1 PUSH4 0xD7098154 EQ PUSH2 0x660 JUMPI DUP1 PUSH4 0xF2FDE38B EQ PUSH2 0x67F JUMPI PUSH0 PUSH0 REVERT JUMPDEST DUP1 PUSH4 0x8DA5CB5B EQ PUSH2 0x548 JUMPI DUP1 PUSH4 0xA3E56FA8 EQ PUSH2 0x584 JUMPI DUP1 PUSH4 0xAD3CB1CC EQ PUSH2 0x5A3 JUMPI DUP1 PUSH4 0xB0FB162F EQ PUSH2 0x5E0 JUMPI PUSH0 PUSH0 REVERT JUMPDEST DUP1 PUSH4 0x715018A6 GT PUSH2 0xCD JUMPI DUP1 PUSH4 0x715018A6 EQ PUSH2 0x4D0 JUMPI DUP1 PUSH4 0x7CCFD7FC EQ PUSH2 0x4E4 JUMPI DUP1 PUSH4 0x826D9873 EQ PUSH2 0x50A JUMPI DUP1 PUSH4 0x82F9D0FB EQ PUSH2 0x529 JUMPI PUSH0 PUSH0 REVERT JUMPDEST DUP1 PUSH4 0x5B7BAF64 EQ PUSH2 0x47D JUMPI DUP1 PUSH4 0x60B2A56A EQ PUSH2 0x49C JUMPI DUP1 PUSH4 0x61728F39 EQ PUSH2 0x4BB JUMPI PUSH0 PUSH0 REVERT JUMPDEST DUP1 PUSH4 0x3893F9D5 GT PUSH2 0x15D JUMPI DUP1 PUSH4 0x4538F297 GT PUSH2 0x138 JUMPI DUP1 PUSH4 0x4538F297 EQ PUSH2 0x422 JUMPI DUP1 PUSH4 0x4A4A6B4F EQ PUSH2 0x441 JUMPI DUP1 PUSH4 0x4F1EF286 EQ PUSH2 0x456 JUMPI DUP1 PUSH4 0x52D1902D EQ PUSH2 0x469 JUMPI PUSH0 PUSH0 REVERT JUMPDEST DUP1 PUSH4 0x3893F9D5 EQ PUSH2 0x3C5 JUMPI DUP1 PUSH4 0x3FD43098 EQ PUSH2 0x3E4 JUMPI DUP1 PUSH4 0x4311DA37 EQ PUSH2 0x403 JUMPI PUSH0 PUSH0 REVERT JUMPDEST DUP1 PUSH4 0x1FE543E3 GT PUSH2 0x198 JUMPI DUP1 PUSH4 0x1FE543E3 EQ PUSH2 0x31D JUMPI DUP1 PUSH4 0x2301D775 EQ PUSH2 0x33E JUMPI DUP1 PUSH4 0x24F74697 EQ PUSH2 0x375 JUMPI DUP1 PUSH4 0x379C52A6 EQ PUSH2 0x3A6 JUMPI PUSH0 PUSH0 REVERT JUMPDEST DUP1 PUSH4 0x9C1BA2E EQ PUSH2 0x1BE JUMPI DUP1 PUSH4 0x1398E076 EQ PUSH2 0x1E6 JUMPI DUP1 PUSH4 0x15C6E123 EQ PUSH2 0x2F2 JUMPI JUMPDEST PUSH0 PUSH0 REVERT JUMPDEST CALLVALUE DUP1 ISZERO PUSH2 0x1C9 JUMPI PUSH0 PUSH0 REVERT JUMPDEST POP PUSH2 0x1D3 PUSH1 0x8 SLOAD DUP2 JUMP JUMPDEST PUSH1 0x40 MLOAD SWAP1 DUP2 MSTORE PUSH1 0x20 ADD JUMPDEST PUSH1 0x40 MLOAD DUP1 SWAP2 SUB SWAP1 RETURN JUMPDEST CALLVALUE DUP1 ISZERO PUSH2 0x1F1 JUMPI PUSH0 PUSH0 REVERT JUMPDEST POP PUSH2 0x27B PUSH2 0x200 CALLDATASIZE PUSH1 0x4 PUSH2 0x2008 JUMP JUMPDEST PUSH1 0x2 PUSH1 0x20 DUP2 SWAP1 MSTORE PUSH0 SWAP2 DUP3 MSTORE PUSH1 0x40 SWAP1 SWAP2 KECCAK256 DUP1 SLOAD PUSH1 0x1 DUP3 ADD SLOAD SWAP3 DUP3 ADD SLOAD PUSH1 0x3 DUP4 ADD SLOAD PUSH1 0x4 DUP5 ADD SLOAD PUSH1 0x5 DUP6 ADD SLOAD PUSH1 0x6 DUP7 ADD SLOAD PUSH1 0x7 DUP8 ADD SLOAD PUSH1 0x8 DUP9 ADD SLOAD PUSH1 0xA DUP10 ADD SLOAD PUSH1 0xB SWAP1 SWAP10 ADD SLOAD PUSH1 0x1 PUSH1 0x1 PUSH1 0xA0 SHL SUB SWAP9 DUP10 AND SWAP11 SWAP10 SWAP8 SWAP9 SWAP7 SWAP8 SWAP6 SWAP7 SWAP5 SWAP6 SWAP4 SWAP5 SWAP3 SWAP4 PUSH1 0xFF DUP1 DUP5 AND SWAP5 PUSH2 0x100 DUP6 DIV DUP3 AND SWAP5 PUSH3 0x10000 SWAP1 DIV SWAP1 SWAP2 AND SWAP3 SWAP2 AND SWAP1 DUP14 JUMP JUMPDEST PUSH1 0x40 DUP1 MLOAD PUSH1 0x1 PUSH1 0x1 PUSH1 0xA0 SHL SUB SWAP15 DUP16 AND DUP2 MSTORE PUSH1 0x20 DUP2 ADD SWAP14 SWAP1 SWAP14 MSTORE DUP13 ADD SWAP11 SWAP1 SWAP11 MSTORE PUSH1 0x60 DUP12 ADD SWAP9 SWAP1 SWAP9 MSTORE PUSH1 0x80 DUP11 ADD SWAP7 SWAP1 SWAP7 MSTORE PUSH1 0xA0 DUP10 ADD SWAP5 SWAP1 SWAP5 MSTORE PUSH1 0xC0 DUP9 ADD SWAP3 SWAP1 SWAP3 MSTORE PUSH1 0xE0 DUP8 ADD MSTORE ISZERO ISZERO PUSH2 0x100 DUP7 ADD MSTORE ISZERO ISZERO PUSH2 0x120 DUP6 ADD MSTORE ISZERO ISZERO PUSH2 0x140 DUP5 ADD MSTORE SWAP1 SWAP3 AND PUSH2 0x160 DUP3 ADD MSTORE PUSH2 0x180 DUP2 ADD SWAP2 SWAP1 SWAP2 MSTORE PUSH2 0x1A0 ADD PUSH2 0x1DD JUMP JUMPDEST CALLVALUE DUP1 ISZERO PUSH2 0x2FD JUMPI PUSH0 PUSH0 REVERT JUMPDEST POP PUSH2 0x1D3 PUSH2 0x30C CALLDATASIZE PUSH1 0x4 PUSH2 0x2008 JUMP JUMPDEST PUSH1 0xA PUSH1 0x20 MSTORE PUSH0 SWAP1 DUP2 MSTORE PUSH1 0x40 SWAP1 KECCAK256 SLOAD DUP2 JUMP JUMPDEST CALLVALUE DUP1 ISZERO PUSH2 0x328 JUMPI PUSH0 PUSH0 REVERT JUMPDEST POP PUSH2 0x33C PUSH2 0x337 CALLDATASIZE PUSH1 0x4 PUSH2 0x2064 JUMP JUMPDEST PUSH2 0x69E JUMP JUMPDEST STOP JUMPDEST CALLVALUE DUP1 ISZERO PUSH2 0x349 JUMPI PUSH0 PUSH0 REVERT JUMPDEST POP PUSH1 0x5 SLOAD PUSH2 0x35D SWAP1 PUSH1 0x1 PUSH1 0x1 PUSH1 0xA0 SHL SUB AND DUP2 JUMP JUMPDEST PUSH1 0x40 MLOAD PUSH1 0x1 PUSH1 0x1 PUSH1 0xA0 SHL SUB SWAP1 SWAP2 AND DUP2 MSTORE PUSH1 0x20 ADD PUSH2 0x1DD JUMP JUMPDEST CALLVALUE DUP1 ISZERO PUSH2 0x380 JUMPI PUSH0 PUSH0 REVERT JUMPDEST POP PUSH1 0x7 SLOAD PUSH2 0x391 SWAP1 PUSH4 0xFFFFFFFF AND DUP2 JUMP JUMPDEST PUSH1 0x40 MLOAD PUSH4 0xFFFFFFFF SWAP1 SWAP2 AND DUP2 MSTORE PUSH1 0x20 ADD PUSH2 0x1DD JUMP JUMPDEST CALLVALUE DUP1 ISZERO PUSH2 0x3B1 JUMPI PUSH0 PUSH0 REVERT JUMPDEST POP PUSH2 0x33C PUSH2 0x3C0 CALLDATASIZE PUSH1 0x4 PUSH2 0x2137 JUMP JUMPDEST PUSH2 0x6F1 JUMP JUMPDEST CALLVALUE DUP1 ISZERO PUSH2 0x3D0 JUMPI PUSH0 PUSH0 REVERT JUMPDEST POP PUSH2 0x33C PUSH2 0x3DF CALLDATASIZE PUSH1 0x4 PUSH2 0x219F JUMP JUMPDEST PUSH2 0x86C JUMP JUMPDEST CALLVALUE DUP1 ISZERO PUSH2 0x3EF JUMPI PUSH0 PUSH0 REVERT JUMPDEST POP PUSH2 0x33C PUSH2 0x3FE CALLDATASIZE PUSH1 0x4 PUSH2 0x2008 JUMP JUMPDEST PUSH2 0xB7B JUMP JUMPDEST CALLVALUE DUP1 ISZERO PUSH2 0x40E JUMPI PUSH0 PUSH0 REVERT JUMPDEST POP PUSH2 0x33C PUSH2 0x41D CALLDATASIZE PUSH1 0x4 PUSH2 0x21BF JUMP JUMPDEST PUSH2 0xD86 JUMP JUMPDEST CALLVALUE DUP1 ISZERO PUSH2 0x42D JUMPI PUSH0 PUSH0 REVERT JUMPDEST POP PUSH2 0x33C PUSH2 0x43C CALLDATASIZE PUSH1 0x4 PUSH2 0x2008 JUMP JUMPDEST PUSH2 0xED4 JUMP JUMPDEST CALLVALUE DUP1 ISZERO PUSH2 0x44C JUMPI PUSH0 PUSH0 REVERT JUMPDEST POP PUSH2 0x1D3 PUSH1 0x3 SLOAD DUP2 JUMP JUMPDEST PUSH2 0x33C PUSH2 0x464 CALLDATASIZE PUSH1 0x4 PUSH2 0x2216 JUMP JUMPDEST PUSH2 0xF9F JUMP JUMPDEST CALLVALUE DUP1 ISZERO PUSH2 0x474 JUMPI PUSH0 PUSH0 REVERT JUMPDEST POP PUSH2 0x1D3 PUSH2 0xFBA JUMP JUMPDEST CALLVALUE DUP1 ISZERO PUSH2 0x488 JUMPI PUSH0 PUSH0 REVERT JUMPDEST POP PUSH2 0x33C PUSH2 0x497 CALLDATASIZE PUSH1 0x4 PUSH2 0x2008 JUMP JUMPDEST PUSH2 0xFD5 JUMP JUMPDEST CALLVALUE DUP1 ISZERO PUSH2 0x4A7 JUMPI PUSH0 PUSH0 REVERT JUMPDEST POP PUSH2 0x33C PUSH2 0x4B6 CALLDATASIZE PUSH1 0x4 PUSH2 0x2008 JUMP JUMPDEST PUSH2 0x11B2 JUMP JUMPDEST CALLVALUE DUP1 ISZERO PUSH2 0x4C6 JUMPI PUSH0 PUSH0 REVERT JUMPDEST POP PUSH2 0x1D3 PUSH1 0x6 SLOAD DUP2 JUMP JUMPDEST CALLVALUE DUP1 ISZERO PUSH2 0x4DB JUMPI PUSH0 PUSH0 REVERT JUMPDEST POP PUSH2 0x33C PUSH2 0x1401 JUMP JUMPDEST CALLVALUE DUP1 ISZERO PUSH2 0x4EF JUMPI PUSH0 PUSH0 REVERT JUMPDEST POP PUSH1 0x7 SLOAD PUSH2 0x391 SWAP1 PUSH7 0x1000000000000 SWAP1 DIV PUSH4 0xFFFFFFFF AND DUP2 JUMP JUMPDEST CALLVALUE DUP1 ISZERO PUSH2 0x515 JUMPI PUSH0 PUSH0 REVERT JUMPDEST POP PUSH2 0x33C PUSH2 0x524 CALLDATASIZE PUSH1 0x4 PUSH2 0x2008 JUMP JUMPDEST PUSH2 0x1414 JUMP JUMPDEST CALLVALUE DUP1 ISZERO PUSH2 0x534 JUMPI PUSH0 PUSH0 REVERT JUMPDEST POP PUSH2 0x33C PUSH2 0x543 CALLDATASIZE PUSH1 0x4 PUSH2 0x2008 JUMP JUMPDEST PUSH2 0x155A JUMP JUMPDEST CALLVALUE DUP1 ISZERO PUSH2 0x553 JUMPI PUSH0 PUSH0 REVERT JUMPDEST POP PUSH32 0x9016D09D72D40FDAE2FD8CEAC6B6234C7706214FD39C1CD1E609A0528C199300 SLOAD PUSH1 0x1 PUSH1 0x1 PUSH1 0xA0 SHL SUB AND PUSH2 0x35D JUMP JUMPDEST CALLVALUE DUP1 ISZERO PUSH2 0x58F JUMPI PUSH0 PUSH0 REVERT JUMPDEST POP PUSH1 0x9 SLOAD PUSH2 0x35D SWAP1 PUSH1 0x1 PUSH1 0x1 PUSH1 0xA0 SHL SUB AND DUP2 JUMP JUMPDEST CALLVALUE DUP1 ISZERO PUSH2 0x5AE JUMPI PUSH0 PUSH0 REVERT JUMPDEST POP PUSH2 0x5D3 PUSH1 0x40 MLOAD DUP1 PUSH1 0x40 ADD PUSH1 0x40 MSTORE DUP1 PUSH1 0x5 DUP2 MSTORE PUSH1 0x20 ADD PUSH5 0x352E302E3 PUSH1 0xDC SHL DUP2 MSTORE POP DUP2 JUMP JUMPDEST PUSH1 0x40 MLOAD PUSH2 0x1DD SWAP2 SWAP1 PUSH2 0x22E9 JUMP JUMPDEST CALLVALUE DUP1 ISZERO PUSH2 0x5EB JUMPI PUSH0 PUSH0 REVERT JUMPDEST POP PUSH1 0x7 SLOAD PUSH2 0x602 SWAP1 PUSH5 0x100000000 SWAP1 DIV PUSH2 0xFFFF AND DUP2 JUMP JUMPDEST PUSH1 0x40 MLOAD PUSH2 0xFFFF SWAP1 SWAP2 AND DUP2 MSTORE PUSH1 0x20 ADD PUSH2 0x1DD JUMP JUMPDEST CALLVALUE DUP1 ISZERO PUSH2 0x620 JUMPI PUSH0 PUSH0 REVERT JUMPDEST POP PUSH1 0x4 SLOAD PUSH2 0x35D SWAP1 PUSH1 0x1 PUSH1 0x1 PUSH1 0xA0 SHL SUB AND DUP2 JUMP JUMPDEST CALLVALUE DUP1 ISZERO PUSH2 0x63F JUMPI PUSH0 PUSH0 REVERT JUMPDEST POP PUSH2 0x653 PUSH2 0x64E CALLDATASIZE PUSH1 0x4 PUSH2 0x2008 JUMP JUMPDEST PUSH2 0x15E8 JUMP JUMPDEST PUSH1 0x40 MLOAD PUSH2 0x1DD SWAP2 SWAP1 PUSH2 0x22FB JUMP JUMPDEST CALLVALUE DUP1 ISZERO PUSH2 0x66B JUMPI PUSH0 PUSH0 REVERT JUMPDEST POP PUSH2 0x33C PUSH2 0x67A CALLDATASIZE PUSH1 0x4 PUSH2 0x2008 JUMP JUMPDEST PUSH2 0x1654 JUMP JUMPDEST CALLVALUE DUP1 ISZERO PUSH2 0x68A JUMPI PUSH0 PUSH0 REVERT JUMPDEST POP PUSH2 0x33C PUSH2 0x699 CALLDATASIZE PUSH1 0x4 PUSH2 0x2346 JUMP JUMPDEST PUSH2 0x17A3 JUMP JUMPDEST PUSH1 0x1 SLOAD PUSH1 0x1 PUSH1 0x1 PUSH1 0xA0 SHL SUB AND CALLER EQ PUSH2 0x6E3 JUMPI PUSH1 0x1 SLOAD PUSH1 0x40 MLOAD PUSH4 0x73E64FD PUSH1 0xE2 SHL DUP2 MSTORE CALLER PUSH1 0x4 DUP3 ADD MSTORE PUSH1 0x1 PUSH1 0x1 PUSH1 0xA0 SHL SUB SWAP1 SWAP2 AND PUSH1 0x24 DUP3 ADD MSTORE PUSH1 0x44 ADD JUMPDEST PUSH1 0x40 MLOAD DUP1 SWAP2 SUB SWAP1 REVERT JUMPDEST PUSH2 0x6ED DUP3 DUP3 PUSH2 0x17DD JUMP JUMPDEST POP POP JUMP JUMPDEST PUSH0 PUSH2 0x6FA PUSH2 0x1A0D JUMP JUMPDEST DUP1 SLOAD SWAP1 SWAP2 POP PUSH1 0xFF PUSH1 0x1 PUSH1 0x40 SHL DUP3 DIV AND ISZERO SWAP1 PUSH8 0xFFFFFFFFFFFFFFFF AND PUSH0 DUP2 ISZERO DUP1 ISZERO PUSH2 0x721 JUMPI POP DUP3 JUMPDEST SWAP1 POP PUSH0 DUP3 PUSH8 0xFFFFFFFFFFFFFFFF AND PUSH1 0x1 EQ DUP1 ISZERO PUSH2 0x73D JUMPI POP ADDRESS EXTCODESIZE ISZERO JUMPDEST SWAP1 POP DUP2 ISZERO DUP1 ISZERO PUSH2 0x74B JUMPI POP DUP1 ISZERO JUMPDEST ISZERO PUSH2 0x769 JUMPI PUSH1 0x40 MLOAD PUSH4 0xF92EE8A9 PUSH1 0xE0 SHL DUP2 MSTORE PUSH1 0x4 ADD PUSH1 0x40 MLOAD DUP1 SWAP2 SUB SWAP1 REVERT JUMPDEST DUP5 SLOAD PUSH8 0xFFFFFFFFFFFFFFFF NOT AND PUSH1 0x1 OR DUP6 SSTORE DUP4 ISZERO PUSH2 0x793 JUMPI DUP5 SLOAD PUSH1 0xFF PUSH1 0x40 SHL NOT AND PUSH1 0x1 PUSH1 0x40 SHL OR DUP6 SSTORE JUMPDEST PUSH2 0x79C CALLER PUSH2 0x1A37 JUMP JUMPDEST PUSH2 0x7A4 PUSH2 0x1A48 JUMP JUMPDEST PUSH2 0x7AD DUP11 PUSH2 0x1A50 JUMP JUMPDEST PUSH1 0x9 DUP1 SLOAD PUSH1 0x1 PUSH1 0x1 PUSH1 0xA0 SHL SUB NOT SWAP1 DUP2 AND PUSH1 0x1 PUSH1 0x1 PUSH1 0xA0 SHL SUB DUP14 DUP2 AND SWAP2 SWAP1 SWAP2 OR SWAP1 SWAP3 SSTORE PUSH1 0x6 DUP12 SWAP1 SSTORE PUSH8 0xFFFFFFFFFFFFFFFF DUP11 AND PUSH1 0x8 SSTORE PUSH1 0x7 DUP1 SLOAD PUSH10 0xFFFFFFFFFFFFFFFFFFFF NOT AND PUSH7 0x1000300030D40 OR SWAP1 SSTORE PUSH1 0x4 DUP1 SLOAD DUP3 AND DUP11 DUP5 AND OR SWAP1 SSTORE PUSH1 0x5 DUP1 SLOAD SWAP1 SWAP2 AND SWAP2 DUP9 AND SWAP2 SWAP1 SWAP2 OR SWAP1 SSTORE DUP4 ISZERO PUSH2 0x860 JUMPI DUP5 SLOAD PUSH1 0xFF PUSH1 0x40 SHL NOT AND DUP6 SSTORE PUSH1 0x40 MLOAD PUSH1 0x1 DUP2 MSTORE PUSH32 0xC7F505B2F371AE2175EE4913F4499E1F2633A7B5936321EED1CDAEB6115181D2 SWAP1 PUSH1 0x20 ADD PUSH1 0x40 MLOAD DUP1 SWAP2 SUB SWAP1 LOG1 JUMPDEST POP POP POP POP POP POP POP POP POP POP JUMP JUMPDEST PUSH2 0x874 PUSH2 0x1A7A JUMP JUMPDEST PUSH0 DUP3 DUP2 MSTORE PUSH1 0x2 PUSH1 0x20 SWAP1 DUP2 MSTORE PUSH1 0x40 DUP1 DUP4 KECCAK256 DUP5 DUP5 MSTORE DUP2 DUP5 KECCAK256 CALLER DUP6 MSTORE PUSH1 0xC DUP3 ADD SWAP1 SWAP4 MSTORE SWAP3 KECCAK256 SLOAD PUSH2 0x8D0 JUMPI PUSH1 0x40 MLOAD PUSH3 0x461BCD PUSH1 0xE5 SHL DUP2 MSTORE PUSH1 0x20 PUSH1 0x4 DUP3 ADD MSTORE PUSH1 0xA PUSH1 0x24 DUP3 ADD MSTORE PUSH10 0x139BDD081A5B881BDB19 PUSH1 0xB2 SHL PUSH1 0x44 DUP3 ADD MSTORE PUSH1 0x64 ADD PUSH2 0x6DA JUMP JUMPDEST CALLER PUSH0 SWAP1 DUP2 MSTORE PUSH1 0xE DUP4 ADD PUSH1 0x20 MSTORE PUSH1 0x40 SWAP1 KECCAK256 SLOAD PUSH1 0xFF AND ISZERO PUSH2 0x924 JUMPI PUSH1 0x40 MLOAD PUSH3 0x461BCD PUSH1 0xE5 SHL DUP2 MSTORE PUSH1 0x20 PUSH1 0x4 DUP3 ADD MSTORE PUSH1 0x10 PUSH1 0x24 DUP3 ADD MSTORE PUSH16 0x526566756E64656420616C7265616479 PUSH1 0x80 SHL PUSH1 0x44 DUP3 ADD MSTORE PUSH1 0x64 ADD PUSH2 0x6DA JUMP JUMPDEST PUSH1 0x8 DUP3 ADD SLOAD PUSH3 0x10000 SWAP1 DIV PUSH1 0xFF AND DUP1 PUSH2 0x95E JUMPI POP PUSH1 0x8 DUP3 ADD SLOAD PUSH2 0x100 SWAP1 DIV PUSH1 0xFF AND DUP1 ISZERO PUSH2 0x95E JUMPI POP PUSH1 0xA DUP3 ADD SLOAD PUSH1 0x1 PUSH1 0x1 PUSH1 0xA0 SHL SUB AND CALLER EQ ISZERO JUMPDEST PUSH2 0x99D JUMPI PUSH1 0x40 MLOAD PUSH3 0x461BCD PUSH1 0xE5 SHL DUP2 MSTORE PUSH1 0x20 PUSH1 0x4 DUP3 ADD MSTORE PUSH1 0x10 PUSH1 0x24 DUP3 ADD MSTORE PUSH16 0x4F6C64206E6F7420656C696769626C65 PUSH1 0x80 SHL PUSH1 0x44 DUP3 ADD MSTORE PUSH1 0x64 ADD PUSH2 0x6DA JUMP JUMPDEST PUSH1 0x8 DUP2 ADD SLOAD PUSH1 0xFF AND DUP1 ISZERO PUSH2 0x9BC JUMPI POP PUSH1 0x8 DUP2 ADD SLOAD PUSH3 0x10000 SWAP1 DIV PUSH1 0xFF AND ISZERO JUMPDEST PUSH2 0x9FF JUMPI PUSH1 0x40 MLOAD PUSH3 0x461BCD PUSH1 0xE5 SHL DUP2 MSTORE PUSH1 0x20 PUSH1 0x4 DUP3 ADD MSTORE PUSH1 0x14 PUSH1 0x24 DUP3 ADD MSTORE PUSH20 0x4E6577206C6F747465727920696E616374697665 PUSH1 0x60 SHL PUSH1 0x44 DUP3 ADD MSTORE PUSH1 0x64 ADD PUSH2 0x6DA JUMP JUMPDEST DUP1 PUSH1 0x4 ADD SLOAD TIMESTAMP LT PUSH2 0xA45 JUMPI PUSH1 0x40 MLOAD PUSH3 0x461BCD PUSH1 0xE5 SHL DUP2 MSTORE PUSH1 0x20 PUSH1 0x4 DUP3 ADD MSTORE PUSH1 0x10 PUSH1 0x24 DUP3 ADD MSTORE PUSH16 0x546F6F206C61746520666F72206E6577 PUSH1 0x80 SHL PUSH1 0x44 DUP3 ADD MSTORE PUSH1 0x64 ADD PUSH2 0x6DA JUMP JUMPDEST CALLER PUSH0 SWAP1 DUP2 MSTORE PUSH1 0xE DUP4 ADD PUSH1 0x20 MSTORE PUSH1 0x40 DUP2 KECCAK256 DUP1 SLOAD PUSH1 0xFF NOT AND PUSH1 0x1 SWAP1 DUP2 OR SWAP1 SWAP2 SSTORE PUSH1 0x2 DUP4 ADD SLOAD SWAP1 DUP4 ADD SLOAD PUSH2 0xA76 SWAP2 SWAP1 PUSH2 0x2373 JUMP JUMPDEST DUP3 SLOAD PUSH1 0x40 MLOAD PUSH4 0x23B872DD PUSH1 0xE0 SHL DUP2 MSTORE CALLER PUSH1 0x4 DUP3 ADD MSTORE ADDRESS PUSH1 0x24 DUP3 ADD MSTORE PUSH1 0x44 DUP2 ADD DUP4 SWAP1 MSTORE SWAP2 SWAP3 POP PUSH1 0x1 PUSH1 0x1 PUSH1 0xA0 SHL SUB AND SWAP1 PUSH4 0x23B872DD SWAP1 PUSH1 0x64 ADD PUSH1 0x20 PUSH1 0x40 MLOAD DUP1 DUP4 SUB DUP2 PUSH0 DUP8 GAS CALL ISZERO DUP1 ISZERO PUSH2 0xACA JUMPI RETURNDATASIZE PUSH0 PUSH0 RETURNDATACOPY RETURNDATASIZE PUSH0 REVERT JUMPDEST POP POP POP POP PUSH1 0x40 MLOAD RETURNDATASIZE PUSH1 0x1F NOT PUSH1 0x1F DUP3 ADD AND DUP3 ADD DUP1 PUSH1 0x40 MSTORE POP DUP2 ADD SWAP1 PUSH2 0xAEE SWAP2 SWAP1 PUSH2 0x2386 JUMP JUMPDEST POP PUSH1 0x9 DUP3 ADD DUP1 SLOAD PUSH1 0x1 DUP2 ADD DUP3 SSTORE PUSH0 SWAP2 DUP3 MSTORE PUSH1 0x20 DUP1 DUP4 KECCAK256 SWAP1 SWAP2 ADD DUP1 SLOAD PUSH1 0x1 PUSH1 0x1 PUSH1 0xA0 SHL SUB NOT AND CALLER SWAP1 DUP2 OR SWAP1 SWAP2 SSTORE DUP3 MSTORE PUSH1 0xC DUP5 ADD SWAP1 MSTORE PUSH1 0x40 DUP2 KECCAK256 DUP1 SLOAD SWAP2 PUSH2 0xB32 DUP4 PUSH2 0x23A5 JUMP JUMPDEST SWAP1 SWAP2 SSTORE POP POP PUSH1 0x40 DUP1 MLOAD DUP6 DUP2 MSTORE CALLER PUSH1 0x20 DUP3 ADD MSTORE PUSH32 0x1E28857182A3B2BB6FBB88287D1BA8CC3A941DD65D4C977286676D27B877A3D9 SWAP2 ADD PUSH1 0x40 MLOAD DUP1 SWAP2 SUB SWAP1 LOG1 POP POP POP PUSH2 0x6ED PUSH1 0x1 PUSH0 SSTORE JUMP JUMPDEST PUSH2 0xB83 PUSH2 0x1A7A JUMP JUMPDEST PUSH0 DUP2 DUP2 MSTORE PUSH1 0x2 PUSH1 0x20 MSTORE PUSH1 0x40 SWAP1 KECCAK256 PUSH1 0x8 DUP2 ADD SLOAD PUSH1 0xFF AND DUP1 ISZERO PUSH2 0xBAF JUMPI POP PUSH1 0x8 DUP2 ADD SLOAD PUSH3 0x10000 SWAP1 DIV PUSH1 0xFF AND ISZERO JUMPDEST PUSH2 0xBF3 JUMPI PUSH1 0x40 MLOAD PUSH3 0x461BCD PUSH1 0xE5 SHL DUP2 MSTORE PUSH1 0x20 PUSH1 0x4 DUP3 ADD MSTORE PUSH1 0x15 PUSH1 0x24 DUP3 ADD MSTORE PUSH21 0x125B9858DD1A5D99481BDC8818D85B98D95B1B1959 PUSH1 0x5A SHL PUSH1 0x44 DUP3 ADD MSTORE PUSH1 0x64 ADD PUSH2 0x6DA JUMP JUMPDEST DUP1 PUSH1 0x4 ADD SLOAD TIMESTAMP LT PUSH2 0xC31 JUMPI PUSH1 0x40 MLOAD PUSH3 0x461BCD PUSH1 0xE5 SHL DUP2 MSTORE PUSH1 0x20 PUSH1 0x4 DUP3 ADD MSTORE PUSH1 0x8 PUSH1 0x24 DUP3 ADD MSTORE PUSH8 0x546F6F206C617465 PUSH1 0xC0 SHL PUSH1 0x44 DUP3 ADD MSTORE PUSH1 0x64 ADD PUSH2 0x6DA JUMP JUMPDEST PUSH1 0x3 DUP2 ADD SLOAD PUSH1 0x9 DUP3 ADD SLOAD LT PUSH2 0xC7B JUMPI PUSH1 0x40 MLOAD PUSH3 0x461BCD PUSH1 0xE5 SHL DUP2 MSTORE PUSH1 0x20 PUSH1 0x4 DUP3 ADD MSTORE PUSH1 0x10 PUSH1 0x24 DUP3 ADD MSTORE PUSH16 0x4D6178207061727469636970616E7473 PUSH1 0x80 SHL PUSH1 0x44 DUP3 ADD MSTORE PUSH1 0x64 ADD PUSH2 0x6DA JUMP JUMPDEST DUP1 SLOAD PUSH1 0x1 DUP3 ADD SLOAD PUSH1 0x40 MLOAD PUSH4 0x23B872DD PUSH1 0xE0 SHL DUP2 MSTORE CALLER PUSH1 0x4 DUP3 ADD MSTORE ADDRESS PUSH1 0x24 DUP3 ADD MSTORE PUSH1 0x44 DUP2 ADD SWAP2 SWAP1 SWAP2 MSTORE PUSH1 0x1 PUSH1 0x1 PUSH1 0xA0 SHL SUB SWAP1 SWAP2 AND SWAP1 PUSH4 0x23B872DD SWAP1 PUSH1 0x64 ADD PUSH1 0x20 PUSH1 0x40 MLOAD DUP1 DUP4 SUB DUP2 PUSH0 DUP8 GAS CALL ISZERO DUP1 ISZERO PUSH2 0xCD4 JUMPI RETURNDATASIZE PUSH0 PUSH0 RETURNDATACOPY RETURNDATASIZE PUSH0 REVERT JUMPDEST POP POP POP POP PUSH1 0x40 MLOAD RETURNDATASIZE PUSH1 0x1F NOT PUSH1 0x1F DUP3 ADD AND DUP3 ADD DUP1 PUSH1 0x40 MSTORE POP DUP2 ADD SWAP1 PUSH2 0xCF8 SWAP2 SWAP1 PUSH2 0x2386 JUMP JUMPDEST POP PUSH1 0x9 DUP2 ADD DUP1 SLOAD PUSH1 0x1 DUP2 ADD DUP3 SSTORE PUSH0 SWAP2 DUP3 MSTORE PUSH1 0x20 DUP1 DUP4 KECCAK256 SWAP1 SWAP2 ADD DUP1 SLOAD PUSH1 0x1 PUSH1 0x1 PUSH1 0xA0 SHL SUB NOT AND CALLER SWAP1 DUP2 OR SWAP1 SWAP2 SSTORE DUP3 MSTORE PUSH1 0xC DUP4 ADD SWAP1 MSTORE PUSH1 0x40 DUP2 KECCAK256 DUP1 SLOAD SWAP2 PUSH2 0xD3C DUP4 PUSH2 0x23A5 JUMP JUMPDEST SWAP1 SWAP2 SSTORE POP POP PUSH1 0x40 DUP1 MLOAD DUP4 DUP2 MSTORE CALLER PUSH1 0x20 DUP3 ADD MSTORE PUSH32 0x1E28857182A3B2BB6FBB88287D1BA8CC3A941DD65D4C977286676D27B877A3D9 SWAP2 ADD PUSH1 0x40 MLOAD DUP1 SWAP2 SUB SWAP1 LOG1 POP PUSH2 0xD83 PUSH1 0x1 PUSH0 SSTORE JUMP JUMPDEST POP JUMP JUMPDEST PUSH2 0xD8E PUSH2 0x1AD1 JUMP JUMPDEST DUP6 DUP8 LT ISZERO PUSH2 0xDCE JUMPI PUSH1 0x40 MLOAD PUSH3 0x461BCD PUSH1 0xE5 SHL DUP2 MSTORE PUSH1 0x20 PUSH1 0x4 DUP3 ADD MSTORE PUSH1 0xD PUSH1 0x24 DUP3 ADD MSTORE PUSH13 0x526566756E64203C3D20666565 PUSH1 0x98 SHL PUSH1 0x44 DUP3 ADD MSTORE PUSH1 0x64 ADD PUSH2 0x6DA JUMP JUMPDEST TIMESTAMP DUP5 GT PUSH2 0xE11 JUMPI PUSH1 0x40 MLOAD PUSH3 0x461BCD PUSH1 0xE5 SHL DUP2 MSTORE PUSH1 0x20 PUSH1 0x4 DUP3 ADD MSTORE PUSH1 0x11 PUSH1 0x24 DUP3 ADD MSTORE PUSH17 0x496E76616C696420647261772074696D65 PUSH1 0x78 SHL PUSH1 0x44 DUP3 ADD MSTORE PUSH1 0x64 ADD PUSH2 0x6DA JUMP JUMPDEST PUSH0 PUSH1 0x2 PUSH0 PUSH1 0x3 PUSH0 DUP2 SLOAD PUSH2 0xE23 SWAP1 PUSH2 0x23A5 JUMP JUMPDEST SWAP2 DUP3 SWAP1 SSTORE POP DUP2 MSTORE PUSH1 0x20 DUP1 DUP3 ADD SWAP3 SWAP1 SWAP3 MSTORE PUSH1 0x40 SWAP1 DUP2 ADD PUSH0 KECCAK256 DUP1 SLOAD PUSH1 0x1 PUSH1 0x1 PUSH1 0xA0 SHL SUB NOT AND PUSH1 0x1 PUSH1 0x1 PUSH1 0xA0 SHL SUB DUP14 AND OR DUP2 SSTORE PUSH1 0x1 DUP1 DUP3 ADD DUP13 SWAP1 SSTORE PUSH1 0x2 DUP3 ADD DUP12 SWAP1 SSTORE PUSH1 0x3 DUP1 DUP4 ADD DUP12 SWAP1 SSTORE PUSH1 0x4 DUP4 ADD DUP11 SWAP1 SSTORE PUSH1 0x5 DUP4 ADD DUP10 SWAP1 SSTORE PUSH1 0x6 DUP4 ADD DUP9 SWAP1 SSTORE PUSH1 0x7 DUP4 ADD DUP8 SWAP1 SSTORE PUSH1 0x8 DUP4 ADD DUP1 SLOAD PUSH1 0xFF NOT AND SWAP1 SWAP3 OR SWAP1 SWAP2 SSTORE SLOAD SWAP2 MLOAD SWAP2 DUP3 MSTORE SWAP3 POP PUSH32 0x9E0023BEBCC752BAAA41057318405B5A6A8E9C6372B519717CFDF238E5CAA795 SWAP2 ADD PUSH1 0x40 MLOAD DUP1 SWAP2 SUB SWAP1 LOG1 POP POP POP POP POP POP POP POP POP JUMP JUMPDEST PUSH2 0xEDC PUSH2 0x1AD1 JUMP JUMPDEST PUSH0 DUP2 DUP2 MSTORE PUSH1 0x2 PUSH1 0x20 MSTORE PUSH1 0x40 SWAP1 KECCAK256 PUSH1 0x8 DUP2 ADD SLOAD PUSH3 0x10000 SWAP1 DIV PUSH1 0xFF AND ISZERO DUP1 ISZERO PUSH2 0xF0E JUMPI POP PUSH1 0x8 DUP2 ADD SLOAD PUSH2 0x100 SWAP1 DIV PUSH1 0xFF AND ISZERO JUMPDEST PUSH2 0xF4E JUMPI PUSH1 0x40 MLOAD PUSH3 0x461BCD PUSH1 0xE5 SHL DUP2 MSTORE PUSH1 0x20 PUSH1 0x4 DUP3 ADD MSTORE PUSH1 0x11 PUSH1 0x24 DUP3 ADD MSTORE PUSH17 0x105B1C9958591E48199A5B985B1A5E9959 PUSH1 0x7A SHL PUSH1 0x44 DUP3 ADD MSTORE PUSH1 0x64 ADD PUSH2 0x6DA JUMP JUMPDEST PUSH1 0x8 DUP2 ADD DUP1 SLOAD PUSH3 0xFF0000 NOT AND PUSH3 0x10000 OR SWAP1 SSTORE PUSH1 0x40 MLOAD PUSH32 0xC3DAC690CF4C3AE8964F18B8F09F7F9A75D3962A8CBB7CD689DF2C291BB5B2DD SWAP1 PUSH2 0xF93 SWAP1 DUP5 DUP2 MSTORE PUSH1 0x20 ADD SWAP1 JUMP JUMPDEST PUSH1 0x40 MLOAD DUP1 SWAP2 SUB SWAP1 LOG1 POP POP JUMP JUMPDEST PUSH2 0xFA7 PUSH2 0x1B2C JUMP JUMPDEST PUSH2 0xFB0 DUP3 PUSH2 0x1BD0 JUMP JUMPDEST PUSH2 0x6ED DUP3 DUP3 PUSH2 0x1BD8 JUMP JUMPDEST PUSH0 PUSH2 0xFC3 PUSH2 0x1C99 JUMP JUMPDEST POP PUSH0 MLOAD PUSH1 0x20 PUSH2 0x2499 PUSH0 CODECOPY PUSH0 MLOAD SWAP1 PUSH0 MSTORE SWAP1 JUMP JUMPDEST PUSH2 0xFDD PUSH2 0x1A7A JUMP JUMPDEST PUSH0 DUP2 DUP2 MSTORE PUSH1 0x2 PUSH1 0x20 MSTORE PUSH1 0x40 SWAP1 KECCAK256 PUSH1 0x8 DUP2 ADD SLOAD PUSH3 0x10000 SWAP1 DIV PUSH1 0xFF AND DUP1 PUSH2 0x1024 JUMPI POP PUSH1 0x8 DUP2 ADD SLOAD PUSH2 0x100 SWAP1 DIV PUSH1 0xFF AND DUP1 ISZERO PUSH2 0x1024 JUMPI POP PUSH1 0xA DUP2 ADD SLOAD PUSH1 0x1 PUSH1 0x1 PUSH1 0xA0 SHL SUB AND CALLER EQ ISZERO JUMPDEST PUSH2 0x105F JUMPI PUSH1 0x40 MLOAD PUSH3 0x461BCD PUSH1 0xE5 SHL DUP2 MSTORE PUSH1 0x20 PUSH1 0x4 DUP3 ADD MSTORE PUSH1 0xC PUSH1 0x24 DUP3 ADD MSTORE PUSH12 0x4E6F7420656C696769626C65 PUSH1 0xA0 SHL PUSH1 0x44 DUP3 ADD MSTORE PUSH1 0x64 ADD PUSH2 0x6DA JUMP JUMPDEST CALLER PUSH0 SWAP1 DUP2 MSTORE PUSH1 0xE DUP3 ADD PUSH1 0x20 MSTORE PUSH1 0x40 SWAP1 KECCAK256 SLOAD PUSH1 0xFF AND ISZERO PUSH2 0x10B3 JUMPI PUSH1 0x40 MLOAD PUSH3 0x461BCD PUSH1 0xE5 SHL DUP2 MSTORE PUSH1 0x20 PUSH1 0x4 DUP3 ADD MSTORE PUSH1 0x10 PUSH1 0x24 DUP3 ADD MSTORE PUSH16 0x105B1C9958591E481C99599D5B991959 PUSH1 0x82 SHL PUSH1 0x44 DUP3 ADD MSTORE PUSH1 0x64 ADD PUSH2 0x6DA JUMP JUMPDEST CALLER PUSH0 SWAP1 DUP2 MSTORE PUSH1 0xC DUP3 ADD PUSH1 0x20 MSTORE PUSH1 0x40 SWAP1 KECCAK256 SLOAD PUSH2 0x10FD JUMPI PUSH1 0x40 MLOAD PUSH3 0x461BCD PUSH1 0xE5 SHL DUP2 MSTORE PUSH1 0x20 PUSH1 0x4 DUP3 ADD MSTORE PUSH1 0xA PUSH1 0x24 DUP3 ADD MSTORE PUSH10 0x4E6F20656E7472696573 PUSH1 0xB0 SHL PUSH1 0x44 DUP3 ADD MSTORE PUSH1 0x64 ADD PUSH2 0x6DA JUMP JUMPDEST CALLER PUSH0 SWAP1 DUP2 MSTORE PUSH1 0xE DUP3 ADD PUSH1 0x20 SWAP1 DUP2 MSTORE PUSH1 0x40 DUP1 DUP4 KECCAK256 DUP1 SLOAD PUSH1 0xFF NOT AND PUSH1 0x1 OR SWAP1 SSTORE PUSH1 0xC DUP5 ADD SWAP1 SWAP2 MSTORE DUP2 KECCAK256 SLOAD PUSH1 0x2 DUP4 ADD SLOAD PUSH2 0x1134 SWAP2 SWAP1 PUSH2 0x23BD JUMP JUMPDEST DUP3 SLOAD PUSH1 0x40 MLOAD PUSH4 0xA9059CBB PUSH1 0xE0 SHL DUP2 MSTORE CALLER PUSH1 0x4 DUP3 ADD MSTORE PUSH1 0x24 DUP2 ADD DUP4 SWAP1 MSTORE SWAP2 SWAP3 POP PUSH1 0x1 PUSH1 0x1 PUSH1 0xA0 SHL SUB AND SWAP1 PUSH4 0xA9059CBB SWAP1 PUSH1 0x44 ADD PUSH1 0x20 PUSH1 0x40 MLOAD DUP1 DUP4 SUB DUP2 PUSH0 DUP8 GAS CALL ISZERO DUP1 ISZERO PUSH2 0x1182 JUMPI RETURNDATASIZE PUSH0 PUSH0 RETURNDATACOPY RETURNDATASIZE PUSH0 REVERT JUMPDEST POP POP POP POP PUSH1 0x40 MLOAD RETURNDATASIZE PUSH1 0x1F NOT PUSH1 0x1F DUP3 ADD AND DUP3 ADD DUP1 PUSH1 0x40 MSTORE POP DUP2 ADD SWAP1 PUSH2 0x11A6 SWAP2 SWAP1 PUSH2 0x2386 JUMP JUMPDEST POP POP POP PUSH2 0xD83 PUSH1 0x1 PUSH0 SSTORE JUMP JUMPDEST PUSH2 0x11BA PUSH2 0x1AD1 JUMP JUMPDEST PUSH0 DUP2 DUP2 MSTORE PUSH1 0x2 PUSH1 0x20 MSTORE PUSH1 0x40 SWAP1 KECCAK256 PUSH1 0x4 DUP2 ADD SLOAD TIMESTAMP LT ISZERO PUSH2 0x1207 JUMPI PUSH1 0x40 MLOAD PUSH3 0x461BCD PUSH1 0xE5 SHL DUP2 MSTORE PUSH1 0x20 PUSH1 0x4 DUP3 ADD MSTORE PUSH1 0x9 PUSH1 0x24 DUP3 ADD MSTORE PUSH9 0x546F6F206561726C79 PUSH1 0xB8 SHL PUSH1 0x44 DUP3 ADD MSTORE PUSH1 0x64 ADD PUSH2 0x6DA JUMP JUMPDEST PUSH1 0x8 DUP2 ADD SLOAD PUSH2 0x100 SWAP1 DIV PUSH1 0xFF AND ISZERO DUP1 ISZERO PUSH2 0x122C JUMPI POP PUSH1 0x8 DUP2 ADD SLOAD PUSH3 0x10000 SWAP1 DIV PUSH1 0xFF AND ISZERO JUMPDEST PUSH2 0x1278 JUMPI PUSH1 0x40 MLOAD PUSH3 0x461BCD PUSH1 0xE5 SHL DUP2 MSTORE PUSH1 0x20 PUSH1 0x4 DUP3 ADD MSTORE PUSH1 0x1A PUSH1 0x24 DUP3 ADD MSTORE PUSH32 0x416C726561647920647261776E206F722063616E63656C6C6564000000000000 PUSH1 0x44 DUP3 ADD MSTORE PUSH1 0x64 ADD PUSH2 0x6DA JUMP JUMPDEST PUSH1 0x9 DUP2 ADD SLOAD PUSH2 0x12BB JUMPI PUSH1 0x40 MLOAD PUSH3 0x461BCD PUSH1 0xE5 SHL DUP2 MSTORE PUSH1 0x20 PUSH1 0x4 DUP3 ADD MSTORE PUSH1 0xF PUSH1 0x24 DUP3 ADD MSTORE PUSH15 0x4E6F207061727469636970616E7473 PUSH1 0x88 SHL PUSH1 0x44 DUP3 ADD MSTORE PUSH1 0x64 ADD PUSH2 0x6DA JUMP JUMPDEST PUSH1 0x9 SLOAD PUSH1 0x40 DUP1 MLOAD PUSH1 0xC0 DUP2 ADD DUP3 MSTORE PUSH1 0x6 SLOAD DUP2 MSTORE PUSH1 0x8 SLOAD PUSH1 0x20 DUP1 DUP4 ADD SWAP2 SWAP1 SWAP2 MSTORE PUSH1 0x7 SLOAD PUSH2 0xFFFF PUSH5 0x100000000 DUP3 DIV AND DUP4 DUP6 ADD MSTORE PUSH4 0xFFFFFFFF DUP1 DUP3 AND PUSH1 0x60 DUP6 ADD MSTORE PUSH7 0x1000000000000 SWAP1 SWAP2 DIV AND PUSH1 0x80 DUP4 ADD MSTORE DUP3 MLOAD SWAP1 DUP2 ADD SWAP1 SWAP3 MSTORE PUSH0 DUP1 DUP4 MSTORE SWAP3 PUSH1 0x1 PUSH1 0x1 PUSH1 0xA0 SHL SUB AND SWAP2 PUSH4 0x9B1C385E SWAP2 SWAP1 PUSH1 0xA0 DUP3 ADD SWAP1 PUSH2 0x1336 SWAP1 PUSH2 0x1CE2 JUMP JUMPDEST DUP2 MSTORE POP PUSH1 0x40 MLOAD DUP3 PUSH4 0xFFFFFFFF AND PUSH1 0xE0 SHL DUP2 MSTORE PUSH1 0x4 ADD PUSH2 0x1355 SWAP2 SWAP1 PUSH2 0x23D4 JUMP JUMPDEST PUSH1 0x20 PUSH1 0x40 MLOAD DUP1 DUP4 SUB DUP2 PUSH0 DUP8 GAS CALL ISZERO DUP1 ISZERO PUSH2 0x1371 JUMPI RETURNDATASIZE PUSH0 PUSH0 RETURNDATACOPY RETURNDATASIZE PUSH0 REVERT JUMPDEST POP POP POP POP PUSH1 0x40 MLOAD RETURNDATASIZE PUSH1 0x1F NOT PUSH1 0x1F DUP3 ADD AND DUP3 ADD DUP1 PUSH1 0x40 MSTORE POP DUP2 ADD SWAP1 PUSH2 0x1395 SWAP2 SWAP1 PUSH2 0x2438 JUMP JUMPDEST PUSH0 DUP2 DUP2 MSTORE PUSH1 0xA PUSH1 0x20 MSTORE PUSH1 0x40 SWAP1 DUP2 SWAP1 KECCAK256 DUP6 SWAP1 SSTORE PUSH1 0x8 DUP5 ADD DUP1 SLOAD PUSH2 0xFF00 NOT AND PUSH2 0x100 OR SWAP1 SSTORE MLOAD SWAP1 SWAP2 POP PUSH32 0x600253EAE67A5C51C82A7123372E8644F16009C6304E18F844CF86FDC40C24D7 SWAP1 PUSH2 0x13F4 SWAP1 DUP6 SWAP1 DUP5 SWAP1 SWAP2 DUP3 MSTORE PUSH1 0x20 DUP3 ADD MSTORE PUSH1 0x40 ADD SWAP1 JUMP JUMPDEST PUSH1 0x40 MLOAD DUP1 SWAP2 SUB SWAP1 LOG1 POP POP POP JUMP JUMPDEST PUSH2 0x1409 PUSH2 0x1AD1 JUMP JUMPDEST PUSH2 0x1412 PUSH0 PUSH2 0x1D53 JUMP JUMPDEST JUMP JUMPDEST PUSH0 DUP2 DUP2 MSTORE PUSH1 0x2 PUSH1 0x20 SWAP1 DUP2 MSTORE PUSH1 0x40 DUP1 DUP4 KECCAK256 CALLER DUP5 MSTORE PUSH1 0xF DUP2 ADD SWAP1 SWAP3 MSTORE SWAP1 SWAP2 KECCAK256 SLOAD PUSH1 0xFF AND ISZERO PUSH2 0x1472 JUMPI PUSH1 0x40 MLOAD PUSH3 0x461BCD PUSH1 0xE5 SHL DUP2 MSTORE PUSH1 0x20 PUSH1 0x4 DUP3 ADD MSTORE PUSH1 0xD PUSH1 0x24 DUP3 ADD MSTORE PUSH13 0x105B1C9958591E481D9BDD1959 PUSH1 0x9A SHL PUSH1 0x44 DUP3 ADD MSTORE PUSH1 0x64 ADD PUSH2 0x6DA JUMP JUMPDEST CALLER PUSH0 SWAP1 DUP2 MSTORE PUSH1 0xC DUP3 ADD PUSH1 0x20 MSTORE PUSH1 0x40 SWAP1 KECCAK256 SLOAD PUSH2 0x14C0 JUMPI PUSH1 0x40 MLOAD PUSH3 0x461BCD PUSH1 0xE5 SHL DUP2 MSTORE PUSH1 0x20 PUSH1 0x4 DUP3 ADD MSTORE PUSH1 0xE PUSH1 0x24 DUP3 ADD MSTORE PUSH14 0x4E6F7420696E206C6F7474657279 PUSH1 0x90 SHL PUSH1 0x44 DUP3 ADD MSTORE PUSH1 0x64 ADD PUSH2 0x6DA JUMP JUMPDEST CALLER PUSH0 SWAP1 DUP2 MSTORE PUSH1 0xF DUP3 ADD PUSH1 0x20 MSTORE PUSH1 0x40 DUP2 KECCAK256 DUP1 SLOAD PUSH1 0xFF NOT AND PUSH1 0x1 OR SWAP1 SSTORE PUSH1 0xB DUP3 ADD DUP1 SLOAD SWAP2 PUSH2 0x14EB DUP4 PUSH2 0x23A5 JUMP JUMPDEST SWAP1 SWAP2 SSTORE POP POP PUSH1 0x9 DUP2 ADD SLOAD PUSH2 0x1500 SWAP1 PUSH1 0x2 PUSH2 0x23BD JUMP JUMPDEST PUSH1 0xB DUP3 ADD SLOAD PUSH2 0x1510 SWAP1 PUSH1 0x3 PUSH2 0x23BD JUMP JUMPDEST LT PUSH2 0x6ED JUMPI PUSH1 0x8 DUP2 ADD DUP1 SLOAD PUSH3 0xFF0000 NOT AND PUSH3 0x10000 OR SWAP1 SSTORE PUSH1 0x40 MLOAD PUSH32 0xC3DAC690CF4C3AE8964F18B8F09F7F9A75D3962A8CBB7CD689DF2C291BB5B2DD SWAP1 PUSH2 0xF93 SWAP1 DUP5 DUP2 MSTORE PUSH1 0x20 ADD SWAP1 JUMP JUMPDEST PUSH2 0x1562 PUSH2 0x1AD1 JUMP JUMPDEST PUSH0 DUP2 DUP2 MSTORE PUSH1 0x2 PUSH1 0x20 DUP2 SWAP1 MSTORE PUSH1 0x40 DUP3 KECCAK256 DUP1 SLOAD PUSH1 0x1 PUSH1 0x1 PUSH1 0xA0 SHL SUB NOT AND DUP2 SSTORE PUSH1 0x1 DUP2 ADD DUP4 SWAP1 SSTORE SWAP1 DUP2 ADD DUP3 SWAP1 SSTORE PUSH1 0x3 DUP2 ADD DUP3 SWAP1 SSTORE PUSH1 0x4 DUP2 ADD DUP3 SWAP1 SSTORE PUSH1 0x5 DUP2 ADD DUP3 SWAP1 SSTORE PUSH1 0x6 DUP2 ADD DUP3 SWAP1 SSTORE PUSH1 0x7 DUP2 ADD DUP3 SWAP1 SSTORE PUSH1 0x8 DUP2 ADD DUP1 SLOAD PUSH3 0xFFFFFF NOT AND SWAP1 SSTORE SWAP1 PUSH2 0x15CB PUSH1 0x9 DUP4 ADD DUP3 PUSH2 0x1FDA JUMP JUMPDEST POP PUSH1 0xA DUP2 ADD DUP1 SLOAD PUSH1 0x1 PUSH1 0x1 PUSH1 0xA0 SHL SUB NOT AND SWAP1 SSTORE PUSH0 PUSH1 0xB SWAP1 SWAP2 ADD SSTORE POP JUMP JUMPDEST PUSH0 DUP2 DUP2 MSTORE PUSH1 0x2 PUSH1 0x20 SWAP1 DUP2 MSTORE PUSH1 0x40 SWAP2 DUP3 SWAP1 KECCAK256 PUSH1 0x9 ADD DUP1 SLOAD DUP4 MLOAD DUP2 DUP5 MUL DUP2 ADD DUP5 ADD SWAP1 SWAP5 MSTORE DUP1 DUP5 MSTORE PUSH1 0x60 SWAP4 SWAP3 DUP4 ADD DUP3 DUP3 DUP1 ISZERO PUSH2 0x1648 JUMPI PUSH1 0x20 MUL DUP3 ADD SWAP2 SWAP1 PUSH0 MSTORE PUSH1 0x20 PUSH0 KECCAK256 SWAP1 JUMPDEST DUP2 SLOAD PUSH1 0x1 PUSH1 0x1 PUSH1 0xA0 SHL SUB AND DUP2 MSTORE PUSH1 0x1 SWAP1 SWAP2 ADD SWAP1 PUSH1 0x20 ADD DUP1 DUP4 GT PUSH2 0x162A JUMPI JUMPDEST POP POP POP POP POP SWAP1 POP SWAP2 SWAP1 POP JUMP JUMPDEST PUSH2 0x165C PUSH2 0x1A7A JUMP JUMPDEST PUSH0 DUP2 DUP2 MSTORE PUSH1 0x2 PUSH1 0x20 MSTORE PUSH1 0x40 SWAP1 KECCAK256 PUSH1 0xA DUP2 ADD SLOAD PUSH1 0x1 PUSH1 0x1 PUSH1 0xA0 SHL SUB AND CALLER EQ PUSH2 0x16B2 JUMPI PUSH1 0x40 MLOAD PUSH3 0x461BCD PUSH1 0xE5 SHL DUP2 MSTORE PUSH1 0x20 PUSH1 0x4 DUP3 ADD MSTORE PUSH1 0xA PUSH1 0x24 DUP3 ADD MSTORE PUSH10 0x2737BA103BB4B73732B9 PUSH1 0xB1 SHL PUSH1 0x44 DUP3 ADD MSTORE PUSH1 0x64 ADD PUSH2 0x6DA JUMP JUMPDEST CALLER PUSH0 SWAP1 DUP2 MSTORE PUSH1 0xD DUP3 ADD PUSH1 0x20 MSTORE PUSH1 0x40 SWAP1 KECCAK256 SLOAD PUSH1 0xFF AND ISZERO PUSH2 0x1705 JUMPI PUSH1 0x40 MLOAD PUSH3 0x461BCD PUSH1 0xE5 SHL DUP2 MSTORE PUSH1 0x20 PUSH1 0x4 DUP3 ADD MSTORE PUSH1 0xF PUSH1 0x24 DUP3 ADD MSTORE PUSH15 0x105B1C9958591E4818DB185A5B5959 PUSH1 0x8A SHL PUSH1 0x44 DUP3 ADD MSTORE PUSH1 0x64 ADD PUSH2 0x6DA JUMP JUMPDEST CALLER PUSH0 DUP2 DUP2 MSTORE PUSH1 0xD DUP4 ADD PUSH1 0x20 MSTORE PUSH1 0x40 SWAP1 DUP2 SWAP1 KECCAK256 DUP1 SLOAD PUSH1 0xFF NOT AND PUSH1 0x1 OR SWAP1 SSTORE DUP3 SLOAD PUSH1 0x5 DUP5 ADD SLOAD SWAP2 MLOAD PUSH4 0xA9059CBB PUSH1 0xE0 SHL DUP2 MSTORE PUSH1 0x4 DUP2 ADD SWAP4 SWAP1 SWAP4 MSTORE PUSH1 0x24 DUP4 ADD SWAP2 SWAP1 SWAP2 MSTORE PUSH1 0x1 PUSH1 0x1 PUSH1 0xA0 SHL SUB AND SWAP1 PUSH4 0xA9059CBB SWAP1 PUSH1 0x44 ADD PUSH1 0x20 PUSH1 0x40 MLOAD DUP1 DUP4 SUB DUP2 PUSH0 DUP8 GAS CALL ISZERO DUP1 ISZERO PUSH2 0x1774 JUMPI RETURNDATASIZE PUSH0 PUSH0 RETURNDATACOPY RETURNDATASIZE PUSH0 REVERT JUMPDEST POP POP POP POP PUSH1 0x40 MLOAD RETURNDATASIZE PUSH1 0x1F NOT PUSH1 0x1F DUP3 ADD AND DUP3 ADD DUP1 PUSH1 0x40 MSTORE POP DUP2 ADD SWAP1 PUSH2 0x1798 SWAP2 SWAP1 PUSH2 0x2386 JUMP JUMPDEST POP POP PUSH2 0xD83 PUSH1 0x1 PUSH0 SSTORE JUMP JUMPDEST PUSH2 0x17AB PUSH2 0x1AD1 JUMP JUMPDEST PUSH1 0x1 PUSH1 0x1 PUSH1 0xA0 SHL SUB DUP2 AND PUSH2 0x17D4 JUMPI PUSH1 0x40 MLOAD PUSH4 0x1E4FBDF7 PUSH1 0xE0 SHL DUP2 MSTORE PUSH0 PUSH1 0x4 DUP3 ADD MSTORE PUSH1 0x24 ADD PUSH2 0x6DA JUMP JUMPDEST PUSH2 0xD83 DUP2 PUSH2 0x1D53 JUMP JUMPDEST PUSH0 DUP3 DUP2 MSTORE PUSH1 0xA PUSH1 0x20 SWAP1 DUP2 MSTORE PUSH1 0x40 DUP1 DUP4 KECCAK256 SLOAD DUP1 DUP5 MSTORE PUSH1 0x2 SWAP1 SWAP3 MSTORE SWAP1 SWAP2 KECCAK256 PUSH1 0x8 DUP2 ADD SLOAD PUSH2 0x100 SWAP1 DIV PUSH1 0xFF AND DUP1 ISZERO PUSH2 0x181D JUMPI POP PUSH1 0xA DUP2 ADD SLOAD PUSH1 0x1 PUSH1 0x1 PUSH1 0xA0 SHL SUB AND ISZERO JUMPDEST PUSH2 0x185D JUMPI PUSH1 0x40 MLOAD PUSH3 0x461BCD PUSH1 0xE5 SHL DUP2 MSTORE PUSH1 0x20 PUSH1 0x4 DUP3 ADD MSTORE PUSH1 0x11 PUSH1 0x24 DUP3 ADD MSTORE PUSH17 0x105B1C9958591E48199D5B199A5B1B1959 PUSH1 0x7A SHL PUSH1 0x44 DUP3 ADD MSTORE PUSH1 0x64 ADD PUSH2 0x6DA JUMP JUMPDEST PUSH0 DUP2 PUSH1 0x9 ADD DUP1 SLOAD SWAP1 POP DUP5 PUSH0 DUP2 MLOAD DUP2 LT PUSH2 0x1878 JUMPI PUSH2 0x1878 PUSH2 0x244F JUMP JUMPDEST PUSH1 0x20 MUL PUSH1 0x20 ADD ADD MLOAD PUSH2 0x188A SWAP2 SWAP1 PUSH2 0x2463 JUMP JUMPDEST SWAP1 POP DUP2 PUSH1 0x9 ADD DUP2 DUP2 SLOAD DUP2 LT PUSH2 0x18A1 JUMPI PUSH2 0x18A1 PUSH2 0x244F JUMP JUMPDEST PUSH0 SWAP2 DUP3 MSTORE PUSH1 0x20 SWAP1 SWAP2 KECCAK256 ADD SLOAD PUSH1 0xA DUP4 ADD DUP1 SLOAD PUSH1 0x1 PUSH1 0x1 PUSH1 0xA0 SHL SUB NOT AND PUSH1 0x1 PUSH1 0x1 PUSH1 0xA0 SHL SUB SWAP3 DUP4 AND OR SWAP1 SSTORE DUP3 SLOAD PUSH1 0x4 DUP1 SLOAD PUSH1 0x6 DUP7 ADD SLOAD PUSH1 0x40 MLOAD PUSH4 0xA9059CBB PUSH1 0xE0 SHL DUP2 MSTORE SWAP2 DUP6 AND SWAP3 DUP3 ADD SWAP3 SWAP1 SWAP3 MSTORE PUSH1 0x24 DUP2 ADD SWAP2 SWAP1 SWAP2 MSTORE SWAP2 AND SWAP1 DUP2 SWAP1 PUSH4 0xA9059CBB SWAP1 PUSH1 0x44 ADD PUSH1 0x20 PUSH1 0x40 MLOAD DUP1 DUP4 SUB DUP2 PUSH0 DUP8 GAS CALL ISZERO DUP1 ISZERO PUSH2 0x191E JUMPI RETURNDATASIZE PUSH0 PUSH0 RETURNDATACOPY RETURNDATASIZE PUSH0 REVERT JUMPDEST POP POP POP POP PUSH1 0x40 MLOAD RETURNDATASIZE PUSH1 0x1F NOT PUSH1 0x1F DUP3 ADD AND DUP3 ADD DUP1 PUSH1 0x40 MSTORE POP DUP2 ADD SWAP1 PUSH2 0x1942 SWAP2 SWAP1 PUSH2 0x2386 JUMP JUMPDEST POP PUSH1 0x5 SLOAD PUSH1 0x7 DUP5 ADD SLOAD PUSH1 0x40 MLOAD PUSH4 0xA9059CBB PUSH1 0xE0 SHL DUP2 MSTORE PUSH1 0x1 PUSH1 0x1 PUSH1 0xA0 SHL SUB SWAP3 DUP4 AND PUSH1 0x4 DUP3 ADD MSTORE PUSH1 0x24 DUP2 ADD SWAP2 SWAP1 SWAP2 MSTORE SWAP1 DUP3 AND SWAP1 PUSH4 0xA9059CBB SWAP1 PUSH1 0x44 ADD PUSH1 0x20 PUSH1 0x40 MLOAD DUP1 DUP4 SUB DUP2 PUSH0 DUP8 GAS CALL ISZERO DUP1 ISZERO PUSH2 0x1999 JUMPI RETURNDATASIZE PUSH0 PUSH0 RETURNDATACOPY RETURNDATASIZE PUSH0 REVERT JUMPDEST POP POP POP POP PUSH1 0x40 MLOAD RETURNDATASIZE PUSH1 0x1F NOT PUSH1 0x1F DUP3 ADD AND DUP3 ADD DUP1 PUSH1 0x40 MSTORE POP DUP2 ADD SWAP1 PUSH2 0x19BD SWAP2 SWAP1 PUSH2 0x2386 JUMP JUMPDEST POP PUSH1 0xA DUP4 ADD SLOAD PUSH1 0x40 DUP1 MLOAD DUP7 DUP2 MSTORE PUSH1 0x1 PUSH1 0x1 PUSH1 0xA0 SHL SUB SWAP1 SWAP3 AND PUSH1 0x20 DUP4 ADD MSTORE PUSH32 0x3FB57EB449654E24E1B240D3D06702CF79362A065D5C0323AEE642D4702FA4B SWAP2 ADD PUSH1 0x40 MLOAD DUP1 SWAP2 SUB SWAP1 LOG1 POP POP POP POP POP POP JUMP JUMPDEST PUSH0 DUP1 PUSH32 0xF0C57E16840DF040F15088DC2F81FE391C3923BEC73E23A9662EFC9C229C6A00 JUMPDEST SWAP3 SWAP2 POP POP JUMP JUMPDEST PUSH2 0x1A3F PUSH2 0x1DC3 JUMP JUMPDEST PUSH2 0xD83 DUP2 PUSH2 0x1DE8 JUMP JUMPDEST PUSH2 0x1412 PUSH2 0x1DC3 JUMP JUMPDEST PUSH2 0x1A58 PUSH2 0x1DC3 JUMP JUMPDEST PUSH1 0x1 DUP1 SLOAD PUSH1 0x1 PUSH1 0x1 PUSH1 0xA0 SHL SUB NOT AND PUSH1 0x1 PUSH1 0x1 PUSH1 0xA0 SHL SUB SWAP3 SWAP1 SWAP3 AND SWAP2 SWAP1 SWAP2 OR SWAP1 SSTORE JUMP JUMPDEST PUSH1 0x2 PUSH0 SLOAD SUB PUSH2 0x1ACB JUMPI PUSH1 0x40 MLOAD PUSH3 0x461BCD PUSH1 0xE5 SHL DUP2 MSTORE PUSH1 0x20 PUSH1 0x4 DUP3 ADD MSTORE PUSH1 0x1F PUSH1 0x24 DUP3 ADD MSTORE PUSH32 0x5265656E7472616E637947756172643A207265656E7472616E742063616C6C00 PUSH1 0x44 DUP3 ADD MSTORE PUSH1 0x64 ADD PUSH2 0x6DA JUMP JUMPDEST PUSH1 0x2 PUSH0 SSTORE JUMP JUMPDEST CALLER PUSH2 0x1B03 PUSH32 0x9016D09D72D40FDAE2FD8CEAC6B6234C7706214FD39C1CD1E609A0528C199300 SLOAD PUSH1 0x1 PUSH1 0x1 PUSH1 0xA0 SHL SUB AND SWAP1 JUMP JUMPDEST PUSH1 0x1 PUSH1 0x1 PUSH1 0xA0 SHL SUB AND EQ PUSH2 0x1412 JUMPI PUSH1 0x40 MLOAD PUSH4 0x118CDAA7 PUSH1 0xE0 SHL DUP2 MSTORE CALLER PUSH1 0x4 DUP3 ADD MSTORE PUSH1 0x24 ADD PUSH2 0x6DA JUMP JUMPDEST ADDRESS PUSH1 0x1 PUSH1 0x1 PUSH1 0xA0 SHL SUB PUSH32 0x0 AND EQ DUP1 PUSH2 0x1BB2 JUMPI POP PUSH32 0x0 PUSH1 0x1 PUSH1 0x1 PUSH1 0xA0 SHL SUB AND PUSH2 0x1BA6 PUSH0 MLOAD PUSH1 0x20 PUSH2 0x2499 PUSH0 CODECOPY PUSH0 MLOAD SWAP1 PUSH0 MSTORE SLOAD PUSH1 0x1 PUSH1 0x1 PUSH1 0xA0 SHL SUB AND SWAP1 JUMP JUMPDEST PUSH1 0x1 PUSH1 0x1 PUSH1 0xA0 SHL SUB AND EQ ISZERO JUMPDEST ISZERO PUSH2 0x1412 JUMPI PUSH1 0x40 MLOAD PUSH4 0x703E46DD PUSH1 0xE1 SHL DUP2 MSTORE PUSH1 0x4 ADD PUSH1 0x40 MLOAD DUP1 SWAP2 SUB SWAP1 REVERT JUMPDEST PUSH2 0xD83 PUSH2 0x1AD1 JUMP JUMPDEST DUP2 PUSH1 0x1 PUSH1 0x1 PUSH1 0xA0 SHL SUB AND PUSH4 0x52D1902D PUSH1 0x40 MLOAD DUP2 PUSH4 0xFFFFFFFF AND PUSH1 0xE0 SHL DUP2 MSTORE PUSH1 0x4 ADD PUSH1 0x20 PUSH1 0x40 MLOAD DUP1 DUP4 SUB DUP2 DUP7 GAS STATICCALL SWAP3 POP POP POP DUP1 ISZERO PUSH2 0x1C32 JUMPI POP PUSH1 0x40 DUP1 MLOAD PUSH1 0x1F RETURNDATASIZE SWAP1 DUP2 ADD PUSH1 0x1F NOT AND DUP3 ADD SWAP1 SWAP3 MSTORE PUSH2 0x1C2F SWAP2 DUP2 ADD SWAP1 PUSH2 0x2438 JUMP JUMPDEST PUSH1 0x1 JUMPDEST PUSH2 0x1C5A JUMPI PUSH1 0x40 MLOAD PUSH4 0x4C9C8CE3 PUSH1 0xE0 SHL DUP2 MSTORE PUSH1 0x1 PUSH1 0x1 PUSH1 0xA0 SHL SUB DUP4 AND PUSH1 0x4 DUP3 ADD MSTORE PUSH1 0x24 ADD PUSH2 0x6DA JUMP JUMPDEST PUSH0 MLOAD PUSH1 0x20 PUSH2 0x2499 PUSH0 CODECOPY PUSH0 MLOAD SWAP1 PUSH0 MSTORE DUP2 EQ PUSH2 0x1C8A JUMPI PUSH1 0x40 MLOAD PUSH4 0x2A875269 PUSH1 0xE2 SHL DUP2 MSTORE PUSH1 0x4 DUP2 ADD DUP3 SWAP1 MSTORE PUSH1 0x24 ADD PUSH2 0x6DA JUMP JUMPDEST PUSH2 0x1C94 DUP4 DUP4 PUSH2 0x1DF0 JUMP JUMPDEST POP POP POP JUMP JUMPDEST ADDRESS PUSH1 0x1 PUSH1 0x1 PUSH1 0xA0 SHL SUB PUSH32 0x0 AND EQ PUSH2 0x1412 JUMPI PUSH1 0x40 MLOAD PUSH4 0x703E46DD PUSH1 0xE1 SHL DUP2 MSTORE PUSH1 0x4 ADD PUSH1 0x40 MLOAD DUP1 SWAP2 SUB SWAP1 REVERT JUMPDEST PUSH1 0x60 PUSH32 0x92FD13387C7FE7BEFBC38D303D6468778FB9731BC4583F17D92989C6FCFDEAAA DUP3 PUSH1 0x40 MLOAD PUSH1 0x24 ADD PUSH2 0x1D1B SWAP2 MLOAD ISZERO ISZERO DUP2 MSTORE PUSH1 0x20 ADD SWAP1 JUMP JUMPDEST PUSH1 0x40 DUP1 MLOAD PUSH1 0x1F NOT DUP2 DUP5 SUB ADD DUP2 MSTORE SWAP2 SWAP1 MSTORE PUSH1 0x20 DUP2 ADD DUP1 MLOAD PUSH1 0x1 PUSH1 0x1 PUSH1 0xE0 SHL SUB AND PUSH1 0x1 PUSH1 0x1 PUSH1 0xE0 SHL SUB NOT SWAP1 SWAP4 AND SWAP3 SWAP1 SWAP3 OR SWAP1 SWAP2 MSTORE SWAP3 SWAP2 POP POP JUMP JUMPDEST PUSH32 0x9016D09D72D40FDAE2FD8CEAC6B6234C7706214FD39C1CD1E609A0528C199300 DUP1 SLOAD PUSH1 0x1 PUSH1 0x1 PUSH1 0xA0 SHL SUB NOT DUP2 AND PUSH1 0x1 PUSH1 0x1 PUSH1 0xA0 SHL SUB DUP5 DUP2 AND SWAP2 DUP3 OR DUP5 SSTORE PUSH1 0x40 MLOAD SWAP3 AND SWAP2 DUP3 SWAP1 PUSH32 0x8BE0079C531659141344CD1FD0A4F28419497F9722A3DAAFE3B4186F6B6457E0 SWAP1 PUSH0 SWAP1 LOG3 POP POP POP JUMP JUMPDEST PUSH2 0x1DCB PUSH2 0x1E45 JUMP JUMPDEST PUSH2 0x1412 JUMPI PUSH1 0x40 MLOAD PUSH4 0x1AFCD79F PUSH1 0xE3 SHL DUP2 MSTORE PUSH1 0x4 ADD PUSH1 0x40 MLOAD DUP1 SWAP2 SUB SWAP1 REVERT JUMPDEST PUSH2 0x17AB PUSH2 0x1DC3 JUMP JUMPDEST PUSH2 0x1DF9 DUP3 PUSH2 0x1E5E JUMP JUMPDEST PUSH1 0x40 MLOAD PUSH1 0x1 PUSH1 0x1 PUSH1 0xA0 SHL SUB DUP4 AND SWAP1 PUSH32 0xBC7CD75A20EE27FD9ADEBAB32041F755214DBC6BFFA90CC0225B39DA2E5C2D3B SWAP1 PUSH0 SWAP1 LOG2 DUP1 MLOAD ISZERO PUSH2 0x1E3D JUMPI PUSH2 0x1C94 DUP3 DUP3 PUSH2 0x1EC1 JUMP JUMPDEST PUSH2 0x6ED PUSH2 0x1F33 JUMP JUMPDEST PUSH0 PUSH2 0x1E4E PUSH2 0x1A0D JUMP JUMPDEST SLOAD PUSH1 0x1 PUSH1 0x40 SHL SWAP1 DIV PUSH1 0xFF AND SWAP2 SWAP1 POP JUMP JUMPDEST DUP1 PUSH1 0x1 PUSH1 0x1 PUSH1 0xA0 SHL SUB AND EXTCODESIZE PUSH0 SUB PUSH2 0x1E93 JUMPI PUSH1 0x40 MLOAD PUSH4 0x4C9C8CE3 PUSH1 0xE0 SHL DUP2 MSTORE PUSH1 0x1 PUSH1 0x1 PUSH1 0xA0 SHL SUB DUP3 AND PUSH1 0x4 DUP3 ADD MSTORE PUSH1 0x24 ADD PUSH2 0x6DA JUMP JUMPDEST PUSH0 MLOAD PUSH1 0x20 PUSH2 0x2499 PUSH0 CODECOPY PUSH0 MLOAD SWAP1 PUSH0 MSTORE DUP1 SLOAD PUSH1 0x1 PUSH1 0x1 PUSH1 0xA0 SHL SUB NOT AND PUSH1 0x1 PUSH1 0x1 PUSH1 0xA0 SHL SUB SWAP3 SWAP1 SWAP3 AND SWAP2 SWAP1 SWAP2 OR SWAP1 SSTORE JUMP JUMPDEST PUSH1 0x60 PUSH0 PUSH0 DUP5 PUSH1 0x1 PUSH1 0x1 PUSH1 0xA0 SHL SUB AND DUP5 PUSH1 0x40 MLOAD PUSH2 0x1EDD SWAP2 SWAP1 PUSH2 0x2482 JUMP JUMPDEST PUSH0 PUSH1 0x40 MLOAD DUP1 DUP4 SUB DUP2 DUP6 GAS DELEGATECALL SWAP2 POP POP RETURNDATASIZE DUP1 PUSH0 DUP2 EQ PUSH2 0x1F15 JUMPI PUSH1 0x40 MLOAD SWAP2 POP PUSH1 0x1F NOT PUSH1 0x3F RETURNDATASIZE ADD AND DUP3 ADD PUSH1 0x40 MSTORE RETURNDATASIZE DUP3 MSTORE RETURNDATASIZE PUSH0 PUSH1 0x20 DUP5 ADD RETURNDATACOPY PUSH2 0x1F1A JUMP JUMPDEST PUSH1 0x60 SWAP2 POP JUMPDEST POP SWAP2 POP SWAP2 POP PUSH2 0x1F2A DUP6 DUP4 DUP4 PUSH2 0x1F52 JUMP JUMPDEST SWAP6 SWAP5 POP POP POP POP POP JUMP JUMPDEST CALLVALUE ISZERO PUSH2 0x1412 JUMPI PUSH1 0x40 MLOAD PUSH4 0xB398979F PUSH1 0xE0 SHL DUP2 MSTORE PUSH1 0x4 ADD PUSH1 0x40 MLOAD DUP1 SWAP2 SUB SWAP1 REVERT JUMPDEST PUSH1 0x60 DUP3 PUSH2 0x1F67 JUMPI PUSH2 0x1F62 DUP3 PUSH2 0x1FB1 JUMP JUMPDEST PUSH2 0x1FAA JUMP JUMPDEST DUP2 MLOAD ISZERO DUP1 ISZERO PUSH2 0x1F7E JUMPI POP PUSH1 0x1 PUSH1 0x1 PUSH1 0xA0 SHL SUB DUP5 AND EXTCODESIZE ISZERO JUMPDEST ISZERO PUSH2 0x1FA7 JUMPI PUSH1 0x40 MLOAD PUSH4 0x9996B315 PUSH1 0xE0 SHL DUP2 MSTORE PUSH1 0x1 PUSH1 0x1 PUSH1 0xA0 SHL SUB DUP6 AND PUSH1 0x4 DUP3 ADD MSTORE PUSH1 0x24 ADD PUSH2 0x6DA JUMP JUMPDEST POP DUP1 JUMPDEST SWAP4 SWAP3 POP POP POP JUMP JUMPDEST DUP1 MLOAD ISZERO PUSH2 0x1FC1 JUMPI DUP1 MLOAD DUP1 DUP3 PUSH1 0x20 ADD REVERT JUMPDEST PUSH1 0x40 MLOAD PUSH4 0xD6BDA275 PUSH1 0xE0 SHL DUP2 MSTORE PUSH1 0x4 ADD PUSH1 0x40 MLOAD DUP1 SWAP2 SUB SWAP1 REVERT JUMPDEST POP DUP1 SLOAD PUSH0 DUP3 SSTORE SWAP1 PUSH0 MSTORE PUSH1 0x20 PUSH0 KECCAK256 SWAP1 DUP2 ADD SWAP1 PUSH2 0xD83 SWAP2 SWAP1 JUMPDEST DUP1 DUP3 GT ISZERO PUSH2 0x2004 JUMPI PUSH0 DUP2 SSTORE PUSH1 0x1 ADD PUSH2 0x1FF1 JUMP JUMPDEST POP SWAP1 JUMP JUMPDEST PUSH0 PUSH1 0x20 DUP3 DUP5 SUB SLT ISZERO PUSH2 0x2018 JUMPI PUSH0 PUSH0 REVERT JUMPDEST POP CALLDATALOAD SWAP2 SWAP1 POP JUMP JUMPDEST PUSH4 0x4E487B71 PUSH1 0xE0 SHL PUSH0 MSTORE PUSH1 0x41 PUSH1 0x4 MSTORE PUSH1 0x24 PUSH0 REVERT JUMPDEST PUSH1 0x40 MLOAD PUSH1 0x1F DUP3 ADD PUSH1 0x1F NOT AND DUP2 ADD PUSH8 0xFFFFFFFFFFFFFFFF DUP2 GT DUP3 DUP3 LT OR ISZERO PUSH2 0x205C JUMPI PUSH2 0x205C PUSH2 0x201F JUMP JUMPDEST PUSH1 0x40 MSTORE SWAP2 SWAP1 POP JUMP JUMPDEST PUSH0 PUSH0 PUSH1 0x40 DUP4 DUP6 SUB SLT ISZERO PUSH2 0x2075 JUMPI PUSH0 PUSH0 REVERT JUMPDEST DUP3 CALLDATALOAD SWAP2 POP PUSH1 0x20 DUP4 ADD CALLDATALOAD PUSH8 0xFFFFFFFFFFFFFFFF DUP2 GT ISZERO PUSH2 0x2092 JUMPI PUSH0 PUSH0 REVERT JUMPDEST DUP4 ADD PUSH1 0x1F DUP2 ADD DUP6 SGT PUSH2 0x20A2 JUMPI PUSH0 PUSH0 REVERT JUMPDEST DUP1 CALLDATALOAD PUSH8 0xFFFFFFFFFFFFFFFF DUP2 GT ISZERO PUSH2 0x20BC JUMPI PUSH2 0x20BC PUSH2 0x201F JUMP JUMPDEST DUP1 PUSH1 0x5 SHL PUSH2 0x20CC PUSH1 0x20 DUP3 ADD PUSH2 0x2033 JUMP JUMPDEST SWAP2 DUP3 MSTORE PUSH1 0x20 DUP2 DUP5 ADD DUP2 ADD SWAP3 SWAP1 DUP2 ADD SWAP1 DUP9 DUP5 GT ISZERO PUSH2 0x20E7 JUMPI PUSH0 PUSH0 REVERT JUMPDEST PUSH1 0x20 DUP6 ADD SWAP5 POP JUMPDEST DUP4 DUP6 LT ISZERO PUSH2 0x210D JUMPI DUP5 CALLDATALOAD DUP1 DUP4 MSTORE PUSH1 0x20 SWAP6 DUP7 ADD SWAP6 SWAP1 SWAP4 POP SWAP1 SWAP2 ADD SWAP1 PUSH2 0x20EE JUMP JUMPDEST DUP1 SWAP6 POP POP POP POP POP POP SWAP3 POP SWAP3 SWAP1 POP JUMP JUMPDEST DUP1 CALLDATALOAD PUSH1 0x1 PUSH1 0x1 PUSH1 0xA0 SHL SUB DUP2 AND DUP2 EQ PUSH2 0x2132 JUMPI PUSH0 PUSH0 REVERT JUMPDEST SWAP2 SWAP1 POP JUMP JUMPDEST PUSH0 PUSH0 PUSH0 PUSH0 PUSH0 PUSH1 0xA0 DUP7 DUP9 SUB SLT ISZERO PUSH2 0x214B JUMPI PUSH0 PUSH0 REVERT JUMPDEST PUSH2 0x2154 DUP7 PUSH2 0x211C JUMP JUMPDEST SWAP5 POP PUSH1 0x20 DUP7 ADD CALLDATALOAD SWAP4 POP PUSH1 0x40 DUP7 ADD CALLDATALOAD PUSH8 0xFFFFFFFFFFFFFFFF DUP2 AND DUP2 EQ PUSH2 0x2177 JUMPI PUSH0 PUSH0 REVERT JUMPDEST SWAP3 POP PUSH2 0x2185 PUSH1 0x60 DUP8 ADD PUSH2 0x211C JUMP JUMPDEST SWAP2 POP PUSH2 0x2193 PUSH1 0x80 DUP8 ADD PUSH2 0x211C JUMP JUMPDEST SWAP1 POP SWAP3 SWAP6 POP SWAP3 SWAP6 SWAP1 SWAP4 POP JUMP JUMPDEST PUSH0 PUSH0 PUSH1 0x40 DUP4 DUP6 SUB SLT ISZERO PUSH2 0x21B0 JUMPI PUSH0 PUSH0 REVERT JUMPDEST POP POP DUP1 CALLDATALOAD SWAP3 PUSH1 0x20 SWAP1 SWAP2 ADD CALLDATALOAD SWAP2 POP JUMP JUMPDEST PUSH0 PUSH0 PUSH0 PUSH0 PUSH0 PUSH0 PUSH0 PUSH0 PUSH2 0x100 DUP10 DUP12 SUB SLT ISZERO PUSH2 0x21D7 JUMPI PUSH0 PUSH0 REVERT JUMPDEST PUSH2 0x21E0 DUP10 PUSH2 0x211C JUMP JUMPDEST SWAP11 PUSH1 0x20 DUP11 ADD CALLDATALOAD SWAP11 POP PUSH1 0x40 DUP11 ADD CALLDATALOAD SWAP10 PUSH1 0x60 DUP2 ADD CALLDATALOAD SWAP10 POP PUSH1 0x80 DUP2 ADD CALLDATALOAD SWAP9 POP PUSH1 0xA0 DUP2 ADD CALLDATALOAD SWAP8 POP PUSH1 0xC0 DUP2 ADD CALLDATALOAD SWAP7 POP PUSH1 0xE0 ADD CALLDATALOAD SWAP5 POP SWAP3 POP POP POP JUMP JUMPDEST PUSH0 PUSH0 PUSH1 0x40 DUP4 DUP6 SUB SLT ISZERO PUSH2 0x2227 JUMPI PUSH0 PUSH0 REVERT JUMPDEST PUSH2 0x2230 DUP4 PUSH2 0x211C JUMP JUMPDEST SWAP2 POP PUSH1 0x20 DUP4 ADD CALLDATALOAD PUSH8 0xFFFFFFFFFFFFFFFF DUP2 GT ISZERO PUSH2 0x224B JUMPI PUSH0 PUSH0 REVERT JUMPDEST DUP4 ADD PUSH1 0x1F DUP2 ADD DUP6 SGT PUSH2 0x225B JUMPI PUSH0 PUSH0 REVERT JUMPDEST DUP1 CALLDATALOAD PUSH8 0xFFFFFFFFFFFFFFFF DUP2 GT ISZERO PUSH2 0x2275 JUMPI PUSH2 0x2275 PUSH2 0x201F JUMP JUMPDEST PUSH2 0x2288 PUSH1 0x1F DUP3 ADD PUSH1 0x1F NOT AND PUSH1 0x20 ADD PUSH2 0x2033 JUMP JUMPDEST DUP2 DUP2 MSTORE DUP7 PUSH1 0x20 DUP4 DUP6 ADD ADD GT ISZERO PUSH2 0x229C JUMPI PUSH0 PUSH0 REVERT JUMPDEST DUP2 PUSH1 0x20 DUP5 ADD PUSH1 0x20 DUP4 ADD CALLDATACOPY PUSH0 PUSH1 0x20 DUP4 DUP4 ADD ADD MSTORE DUP1 SWAP4 POP POP POP POP SWAP3 POP SWAP3 SWAP1 POP JUMP JUMPDEST PUSH0 DUP2 MLOAD DUP1 DUP5 MSTORE DUP1 PUSH1 0x20 DUP5 ADD PUSH1 0x20 DUP7 ADD MCOPY PUSH0 PUSH1 0x20 DUP3 DUP7 ADD ADD MSTORE PUSH1 0x20 PUSH1 0x1F NOT PUSH1 0x1F DUP4 ADD AND DUP6 ADD ADD SWAP2 POP POP SWAP3 SWAP2 POP POP JUMP JUMPDEST PUSH1 0x20 DUP2 MSTORE PUSH0 PUSH2 0x1FAA PUSH1 0x20 DUP4 ADD DUP5 PUSH2 0x22BB JUMP JUMPDEST PUSH1 0x20 DUP1 DUP3 MSTORE DUP3 MLOAD DUP3 DUP3 ADD DUP2 SWAP1 MSTORE PUSH0 SWAP2 DUP5 ADD SWAP1 PUSH1 0x40 DUP5 ADD SWAP1 DUP4 JUMPDEST DUP2 DUP2 LT ISZERO PUSH2 0x233B JUMPI DUP4 MLOAD PUSH1 0x1 PUSH1 0x1 PUSH1 0xA0 SHL SUB AND DUP4 MSTORE PUSH1 0x20 SWAP4 DUP5 ADD SWAP4 SWAP1 SWAP3 ADD SWAP2 PUSH1 0x1 ADD PUSH2 0x2314 JUMP JUMPDEST POP SWAP1 SWAP6 SWAP5 POP POP POP POP POP JUMP JUMPDEST PUSH0 PUSH1 0x20 DUP3 DUP5 SUB SLT ISZERO PUSH2 0x2356 JUMPI PUSH0 PUSH0 REVERT JUMPDEST PUSH2 0x1FAA DUP3 PUSH2 0x211C JUMP JUMPDEST PUSH4 0x4E487B71 PUSH1 0xE0 SHL PUSH0 MSTORE PUSH1 0x11 PUSH1 0x4 MSTORE PUSH1 0x24 PUSH0 REVERT JUMPDEST DUP2 DUP2 SUB DUP2 DUP2 GT ISZERO PUSH2 0x1A31 JUMPI PUSH2 0x1A31 PUSH2 0x235F JUMP JUMPDEST PUSH0 PUSH1 0x20 DUP3 DUP5 SUB SLT ISZERO PUSH2 0x2396 JUMPI PUSH0 PUSH0 REVERT JUMPDEST DUP2 MLOAD DUP1 ISZERO ISZERO DUP2 EQ PUSH2 0x1FAA JUMPI PUSH0 PUSH0 REVERT JUMPDEST PUSH0 PUSH1 0x1 DUP3 ADD PUSH2 0x23B6 JUMPI PUSH2 0x23B6 PUSH2 0x235F JUMP JUMPDEST POP PUSH1 0x1 ADD SWAP1 JUMP JUMPDEST DUP1 DUP3 MUL DUP2 ISZERO DUP3 DUP3 DIV DUP5 EQ OR PUSH2 0x1A31 JUMPI PUSH2 0x1A31 PUSH2 0x235F JUMP JUMPDEST PUSH1 0x20 DUP2 MSTORE DUP2 MLOAD PUSH1 0x20 DUP3 ADD MSTORE PUSH1 0x20 DUP3 ADD MLOAD PUSH1 0x40 DUP3 ADD MSTORE PUSH2 0xFFFF PUSH1 0x40 DUP4 ADD MLOAD AND PUSH1 0x60 DUP3 ADD MSTORE PUSH4 0xFFFFFFFF PUSH1 0x60 DUP4 ADD MLOAD AND PUSH1 0x80 DUP3 ADD MSTORE PUSH4 0xFFFFFFFF PUSH1 0x80 DUP4 ADD MLOAD AND PUSH1 0xA0 DUP3 ADD MSTORE PUSH0 PUSH1 0xA0 DUP4 ADD MLOAD PUSH1 0xC0 DUP1 DUP5 ADD MSTORE PUSH2 0x2430 PUSH1 0xE0 DUP5 ADD DUP3 PUSH2 0x22BB JUMP JUMPDEST SWAP5 SWAP4 POP POP POP POP JUMP JUMPDEST PUSH0 PUSH1 0x20 DUP3 DUP5 SUB SLT ISZERO PUSH2 0x2448 JUMPI PUSH0 PUSH0 REVERT JUMPDEST POP MLOAD SWAP2 SWAP1 POP JUMP JUMPDEST PUSH4 0x4E487B71 PUSH1 0xE0 SHL PUSH0 MSTORE PUSH1 0x32 PUSH1 0x4 MSTORE PUSH1 0x24 PUSH0 REVERT JUMPDEST PUSH0 DUP3 PUSH2 0x247D JUMPI PUSH4 0x4E487B71 PUSH1 0xE0 SHL PUSH0 MSTORE PUSH1 0x12 PUSH1 0x4 MSTORE PUSH1 0x24 PUSH0 REVERT JUMPDEST POP MOD SWAP1 JUMP JUMPDEST PUSH0 DUP3 MLOAD DUP1 PUSH1 0x20 DUP6 ADD DUP5 MCOPY PUSH0 SWAP3 ADD SWAP2 DUP3 MSTORE POP SWAP2 SWAP1 POP JUMP INVALID CALLDATASIZE ADDMOD SWAP5 LOG1 EXTCODESIZE LOG1 LOG3 0x21 MOD PUSH8 0xC828492DB98DCA3E KECCAK256 PUSH23 0xCC3735A920A3CA505D382BBCA2646970667358221220AE SAR RETURNDATASIZE SWAP5 SWAP3 SWAP8 0xC7 0xDE 0xD6 GASPRICE CALLDATALOAD 0xFC TSTORE 0xAB GASLIMIT DUPN 0xB1 PUSH0 0xD9 SUB 0xBC 0x27 SSTORE PUSH31 0x1A5CEDE44EABE33964736F6C634300081E0033000000000000000000000000 "
		},
		"gasEstimates": {
			"creation": {
				"codeDepositCost": "1890800",
				"executionCost": "infinite",
				"totalCost": "infinite"
			},
			"external": {
				"UPGRADE_INTERFACE_VERSION()": "infinite",
				"callbackGasLimit()": "2402",
				"cancelLottery(uint256)": "32132",
				"claimPrize(uint256)": "infinite",
				"claimRefund(uint256)": "infinite",
				"clearLotteryData(uint256)": "infinite",
				"createLottery(address,uint256,uint256,uint256,uint256,uint256,uint256,uint256)": "233613",
				"drawWinner(uint256)": "infinite",
				"enterLottery(uint256)": "infinite",
				"getParticipants(uint256)": "infinite",
				"initialize(address,bytes32,uint64,address,address)": "infinite",
				"investmentWallet()": "2380",
				"keyHash()": "2373",
				"lotteries(uint256)": "24033",
				"lotteryCounter()": "2350",
				"migrateToLottery(uint256,uint256)": "infinite",
				"numWords()": "2390",
				"owner()": "2375",
				"profitWallet()": "2404",
				"proxiableUUID()": "infinite",
				"rawFulfillRandomWords(uint256,uint256[])": "infinite",
				"renounceOwnership()": "infinite",
				"requestConfirmations()": "2434",
				"requestToLottery(uint256)": "2515",
				"subscriptionId()": "2330",
				"transferOwnership(address)": "28475",
				"upgradeToAndCall(address,bytes)": "infinite",
				"voteCancel(uint256)": "infinite",
				"vrfCoordinator()": "2403"
			},
			"internal": {
				"_authorizeUpgrade(address)": "infinite",
				"fulfillRandomWords(uint256,uint256[] memory)": "infinite"
			}
		},
		"methodIdentifiers": {
			"UPGRADE_INTERFACE_VERSION()": "ad3cb1cc",
			"callbackGasLimit()": "24f74697",
			"cancelLottery(uint256)": "4538f297",
			"claimPrize(uint256)": "d7098154",
			"claimRefund(uint256)": "5b7baf64",
			"clearLotteryData(uint256)": "82f9d0fb",
			"createLottery(address,uint256,uint256,uint256,uint256,uint256,uint256,uint256)": "4311da37",
			"drawWinner(uint256)": "60b2a56a",
			"enterLottery(uint256)": "3fd43098",
			"getParticipants(uint256)": "c1e3bd3e",
			"initialize(address,bytes32,uint64,address,address)": "379c52a6",
			"investmentWallet()": "b6fa37bc",
			"keyHash()": "61728f39",
			"lotteries(uint256)": "1398e076",
			"lotteryCounter()": "4a4a6b4f",
			"migrateToLottery(uint256,uint256)": "3893f9d5",
			"numWords()": "7ccfd7fc",
			"owner()": "8da5cb5b",
			"profitWallet()": "2301d775",
			"proxiableUUID()": "52d1902d",
			"rawFulfillRandomWords(uint256,uint256[])": "1fe543e3",
			"renounceOwnership()": "715018a6",
			"requestConfirmations()": "b0fb162f",
			"requestToLottery(uint256)": "15c6e123",
			"subscriptionId()": "09c1ba2e",
			"transferOwnership(address)": "f2fde38b",
			"upgradeToAndCall(address,bytes)": "4f1ef286",
			"voteCancel(uint256)": "826d9873",
			"vrfCoordinator()": "a3e56fa8"
		}
	},
	"abi": [
		{
			"inputs": [
				{
					"internalType": "address",
					"name": "target",
					"type": "address"
				}
			],
			"name": "AddressEmptyCode",
			"type": "error"
		},
		{
			"inputs": [
				{
					"internalType": "address",
					"name": "implementation",
					"type": "address"
				}
			],
			"name": "ERC1967InvalidImplementation",
			"type": "error"
		},
		{
			"inputs": [],
			"name": "ERC1967NonPayable",
			"type": "error"
		},
		{
			"inputs": [],
			"name": "FailedCall",
			"type": "error"
		},
		{
			"inputs": [],
			"name": "InvalidInitialization",
			"type": "error"
		},
		{
			"inputs": [],
			"name": "NotInitializing",
			"type": "error"
		},
		{
			"inputs": [
				{
					"internalType": "address",
					"name": "have",
					"type": "address"
				},
				{
					"internalType": "address",
					"name": "want",
					"type": "address"
				}
			],
			"name": "OnlyCoordinatorCanFulfill",
			"type": "error"
		},
		{
			"inputs": [
				{
					"internalType": "address",
					"name": "owner",
					"type": "address"
				}
			],
			"name": "OwnableInvalidOwner",
			"type": "error"
		},
		{
			"inputs": [
				{
					"internalType": "address",
					"name": "account",
					"type": "address"
				}
			],
			"name": "OwnableUnauthorizedAccount",
			"type": "error"
		},
		{
			"inputs": [],
			"name": "UUPSUnauthorizedCallContext",
			"type": "error"
		},
		{
			"inputs": [
				{
					"internalType": "bytes32",
					"name": "slot",
					"type": "bytes32"
				}
			],
			"name": "UUPSUnsupportedProxiableUUID",
			"type": "error"
		},
		{
			"anonymous": false,
			"inputs": [
				{
					"indexed": false,
					"internalType": "uint256",
					"name": "lotteryId",
					"type": "uint256"
				},
				{
					"indexed": false,
					"internalType": "address",
					"name": "user",
					"type": "address"
				}
			],
			"name": "EnteredLottery",
			"type": "event"
		},
		{
			"anonymous": false,
			"inputs": [
				{
					"indexed": false,
					"internalType": "uint64",
					"name": "version",
					"type": "uint64"
				}
			],
			"name": "Initialized",
			"type": "event"
		},
		{
			"anonymous": false,
			"inputs": [
				{
					"indexed": false,
					"internalType": "uint256",
					"name": "lotteryId",
					"type": "uint256"
				}
			],
			"name": "LotteryCancelled",
			"type": "event"
		},
		{
			"anonymous": false,
			"inputs": [
				{
					"indexed": false,
					"internalType": "uint256",
					"name": "lotteryId",
					"type": "uint256"
				}
			],
			"name": "LotteryCreated",
			"type": "event"
		},
		{
			"anonymous": false,
			"inputs": [
				{
					"indexed": false,
					"internalType": "uint256",
					"name": "lotteryId",
					"type": "uint256"
				},
				{
					"indexed": false,
					"internalType": "uint256",
					"name": "requestId",
					"type": "uint256"
				}
			],
			"name": "LotteryDrawRequested",
			"type": "event"
		},
		{
			"anonymous": false,
			"inputs": [
				{
					"indexed": true,
					"internalType": "address",
					"name": "previousOwner",
					"type": "address"
				},
				{
					"indexed": true,
					"internalType": "address",
					"name": "newOwner",
					"type": "address"
				}
			],
			"name": "OwnershipTransferred",
			"type": "event"
		},
		{
			"anonymous": false,
			"inputs": [
				{
					"indexed": true,
					"internalType": "address",
					"name": "implementation",
					"type": "address"
				}
			],
			"name": "Upgraded",
			"type": "event"
		},
		{
			"anonymous": false,
			"inputs": [
				{
					"indexed": false,
					"internalType": "uint256",
					"name": "lotteryId",
					"type": "uint256"
				},
				{
					"indexed": false,
					"internalType": "address",
					"name": "winner",
					"type": "address"
				}
			],
			"name": "WinnerSelected",
			"type": "event"
		},
		{
			"inputs": [],
			"name": "UPGRADE_INTERFACE_VERSION",
			"outputs": [
				{
					"internalType": "string",
					"name": "",
					"type": "string"
				}
			],
			"stateMutability": "view",
			"type": "function"
		},
		{
			"inputs": [],
			"name": "callbackGasLimit",
			"outputs": [
				{
					"internalType": "uint32",
					"name": "",
					"type": "uint32"
				}
			],
			"stateMutability": "view",
			"type": "function"
		},
		{
			"inputs": [
				{
					"internalType": "uint256",
					"name": "_lotteryId",
					"type": "uint256"
				}
			],
			"name": "cancelLottery",
			"outputs": [],
			"stateMutability": "nonpayable",
			"type": "function"
		},
		{
			"inputs": [
				{
					"internalType": "uint256",
					"name": "_lotteryId",
					"type": "uint256"
				}
			],
			"name": "claimPrize",
			"outputs": [],
			"stateMutability": "nonpayable",
			"type": "function"
		},
		{
			"inputs": [
				{
					"internalType": "uint256",
					"name": "_lotteryId",
					"type": "uint256"
				}
			],
			"name": "claimRefund",
			"outputs": [],
			"stateMutability": "nonpayable",
			"type": "function"
		},
		{
			"inputs": [
				{
					"internalType": "uint256",
					"name": "_lotteryId",
					"type": "uint256"
				}
			],
			"name": "clearLotteryData",
			"outputs": [],
			"stateMutability": "nonpayable",
			"type": "function"
		},
		{
			"inputs": [
				{
					"internalType": "address",
					"name": "_tokenAddress",
					"type": "address"
				},
				{
					"internalType": "uint256",
					"name": "_participationFee",
					"type": "uint256"
				},
				{
					"internalType": "uint256",
					"name": "_refundableAmount",
					"type": "uint256"
				},
				{
					"internalType": "uint256",
					"name": "_maxParticipants",
					"type": "uint256"
				},
				{
					"internalType": "uint256",
					"name": "_drawTime",
					"type": "uint256"
				},
				{
					"internalType": "uint256",
					"name": "_prizeAmount",
					"type": "uint256"
				},
				{
					"internalType": "uint256",
					"name": "_feeToInvestment",
					"type": "uint256"
				},
				{
					"internalType": "uint256",
					"name": "_feeToProfit",
					"type": "uint256"
				}
			],
			"name": "createLottery",
			"outputs": [],
			"stateMutability": "nonpayable",
			"type": "function"
		},
		{
			"inputs": [
				{
					"internalType": "uint256",
					"name": "_lotteryId",
					"type": "uint256"
				}
			],
			"name": "drawWinner",
			"outputs": [],
			"stateMutability": "nonpayable",
			"type": "function"
		},
		{
			"inputs": [
				{
					"internalType": "uint256",
					"name": "_lotteryId",
					"type": "uint256"
				}
			],
			"name": "enterLottery",
			"outputs": [],
			"stateMutability": "nonpayable",
			"type": "function"
		},
		{
			"inputs": [
				{
					"internalType": "uint256",
					"name": "_lotteryId",
					"type": "uint256"
				}
			],
			"name": "getParticipants",
			"outputs": [
				{
					"internalType": "address[]",
					"name": "",
					"type": "address[]"
				}
			],
			"stateMutability": "view",
			"type": "function"
		},
		{
			"inputs": [
				{
					"internalType": "address",
					"name": "_vrfCoordinator",
					"type": "address"
				},
				{
					"internalType": "bytes32",
					"name": "_keyHash",
					"type": "bytes32"
				},
				{
					"internalType": "uint64",
					"name": "_subId",
					"type": "uint64"
				},
				{
					"internalType": "address",
					"name": "_investmentWallet",
					"type": "address"
				},
				{
					"internalType": "address",
					"name": "_profitWallet",
					"type": "address"
				}
			],
			"name": "initialize",
			"outputs": [],
			"stateMutability": "nonpayable",
			"type": "function"
		},
		{
			"inputs": [],
			"name": "investmentWallet",
			"outputs": [
				{
					"internalType": "address",
					"name": "",
					"type": "address"
				}
			],
			"stateMutability": "view",
			"type": "function"
		},
		{
			"inputs": [],
			"name": "keyHash",
			"outputs": [
				{
					"internalType": "bytes32",
					"name": "",
					"type": "bytes32"
				}
			],
			"stateMutability": "view",
			"type": "function"
		},
		{
			"inputs": [
				{
					"internalType": "uint256",
					"name": "",
					"type": "uint256"
				}
			],
			"name": "lotteries",
			"outputs": [
				{
					"internalType": "address",
					"name": "tokenAddress",
					"type": "address"
				},
				{
					"internalType": "uint256",
					"name": "participationFee",
					"type": "uint256"
				},
				{
					"internalType": "uint256",
					"name": "refundableAmount",
					"type": "uint256"
				},
				{
					"internalType": "uint256",
					"name": "maxParticipants",
					"type": "uint256"
				},
				{
					"internalType": "uint256",
					"name": "drawTime",
					"type": "uint256"
				},
				{
					"internalType": "uint256",
					"name": "prizeAmount",
					"type": "uint256"
				},
				{
					"internalType": "uint256",
					"name": "feeToInvestment",
					"type": "uint256"
				},
				{
					"internalType": "uint256",
					"name": "feeToProfit",
					"type": "uint256"
				},
				{
					"internalType": "bool",
					"name": "isActive",
					"type": "bool"
				},
				{
					"internalType": "bool",
					"name": "isDrawn",
					"type": "bool"
				},
				{
					"internalType": "bool",
					"name": "isCancelled",
					"type": "bool"
				},
				{
					"internalType": "address",
					"name": "winner",
					"type": "address"
				},
				{
					"internalType": "uint256",
					"name": "voteCount",
					"type": "uint256"
				}
			],
			"stateMutability": "view",
			"type": "function"
		},
		{
			"inputs": [],
			"name": "lotteryCounter",
			"outputs": [
				{
					"internalType": "uint256",
					"name": "",
					"type": "uint256"
				}
			],
			"stateMutability": "view",
			"type": "function"
		},
		{
			"inputs": [
				{
					"internalType": "uint256",
					"name": "fromId",
					"type": "uint256"
				},
				{
					"internalType": "uint256",
					"name": "toId",
					"type": "uint256"
				}
			],
			"name": "migrateToLottery",
			"outputs": [],
			"stateMutability": "nonpayable",
			"type": "function"
		},
		{
			"inputs": [],
			"name": "numWords",
			"outputs": [
				{
					"internalType": "uint32",
					"name": "",
					"type": "uint32"
				}
			],
			"stateMutability": "view",
			"type": "function"
		},
		{
			"inputs": [],
			"name": "owner",
			"outputs": [
				{
					"internalType": "address",
					"name": "",
					"type": "address"
				}
			],
			"stateMutability": "view",
			"type": "function"
		},
		{
			"inputs": [],
			"name": "profitWallet",
			"outputs": [
				{
					"internalType": "address",
					"name": "",
					"type": "address"
				}
			],
			"stateMutability": "view",
			"type": "function"
		},
		{
			"inputs": [],
			"name": "proxiableUUID",
			"outputs": [
				{
					"internalType": "bytes32",
					"name": "",
					"type": "bytes32"
				}
			],
			"stateMutability": "view",
			"type": "function"
		},
		{
			"inputs": [
				{
					"internalType": "uint256",
					"name": "requestId",
					"type": "uint256"
				},
				{
					"internalType": "uint256[]",
					"name": "randomWords",
					"type": "uint256[]"
				}
			],
			"name": "rawFulfillRandomWords",
			"outputs": [],
			"stateMutability": "nonpayable",
			"type": "function"
		},
		{
			"inputs": [],
			"name": "renounceOwnership",
			"outputs": [],
			"stateMutability": "nonpayable",
			"type": "function"
		},
		{
			"inputs": [],
			"name": "requestConfirmations",
			"outputs": [
				{
					"internalType": "uint16",
					"name": "",
					"type": "uint16"
				}
			],
			"stateMutability": "view",
			"type": "function"
		},
		{
			"inputs": [
				{
					"internalType": "uint256",
					"name": "",
					"type": "uint256"
				}
			],
			"name": "requestToLottery",
			"outputs": [
				{
					"internalType": "uint256",
					"name": "",
					"type": "uint256"
				}
			],
			"stateMutability": "view",
			"type": "function"
		},
		{
			"inputs": [],
			"name": "subscriptionId",
			"outputs": [
				{
					"internalType": "uint256",
					"name": "",
					"type": "uint256"
				}
			],
			"stateMutability": "view",
			"type": "function"
		},
		{
			"inputs": [
				{
					"internalType": "address",
					"name": "newOwner",
					"type": "address"
				}
			],
			"name": "transferOwnership",
			"outputs": [],
			"stateMutability": "nonpayable",
			"type": "function"
		},
		{
			"inputs": [
				{
					"internalType": "address",
					"name": "newImplementation",
					"type": "address"
				},
				{
					"internalType": "bytes",
					"name": "data",
					"type": "bytes"
				}
			],
			"name": "upgradeToAndCall",
			"outputs": [],
			"stateMutability": "payable",
			"type": "function"
		},
		{
			"inputs": [
				{
					"internalType": "uint256",
					"name": "_lotteryId",
					"type": "uint256"
				}
			],
			"name": "voteCancel",
			"outputs": [],
			"stateMutability": "nonpayable",
			"type": "function"
		},
		{
			"inputs": [],
			"name": "vrfCoordinator",
			"outputs": [
				{
					"internalType": "address",
					"name": "",
					"type": "address"
				}
			],
			"stateMutability": "view",
			"type": "function"
		}
	]
}