{
	"data": {
		"bytecode": {
			"linkReferences": {},
			"object": "60a0604052306080523480156012575f5ffd5b5060015f5560805161273f61003d5f395f8181611cfe01528181611d270152611e66015261273f5ff3fe6080604052600436106101f1575f3560e01c80635b7baf6411610108578063a3e56fa81161009d578063b6fa37bc1161006d578063b6fa37bc14610727578063c1e3bd3e14610746578063c4cd639f14610772578063d7098154146107ba578063f2fde38b146107d9575f5ffd5b8063a3e56fa814610651578063a49a75a514610670578063ad3cb1cc146106b5578063b0fb162f146106f2575f5ffd5b80637ccfd7fc116100d85780637ccfd7fc146105b1578063826d9873146105d757806382f9d0fb146105f65780638da5cb5b14610615575f5ffd5b80635b7baf641461054a57806360b2a56a1461056957806361728f3914610588578063715018a61461059d575f5ffd5b806324f74697116101895780634311da37116101595780634311da37146104d05780634538f297146104ef5780634a4a6b4f1461050e5780634f1ef2861461052357806352d1902d14610536575f5ffd5b806324f74697146104195780633893f9d51461044a5780633fd43098146104695780633fe6e01e14610488575f5ffd5b80631398e076116101c45780631398e0761461028c57806315c6e123146103985780631fe543e3146103c35780632301d775146103e2575f5ffd5b806302c4d72b146101f557806307c7a72d1461021657806309c1ba2e1461024a5780630af5a2631461026d575b5f5ffd5b348015610200575f5ffd5b5061021461020f3660046121ca565b6107f8565b005b348015610221575f5ffd5b5061023561023036600461225f565b610841565b60405190151581526020015b60405180910390f35b348015610255575f5ffd5b5061025f60085481565b604051908152602001610241565b348015610278575f5ffd5b50610214610287366004612289565b610870565b348015610297575f5ffd5b506103216102a63660046122dc565b600260208190525f91825260409091208054600182015492820154600383015460048401546005850154600686015460078701546008880154600a890154600b909901546001600160a01b039889169a9997989697959694959394929360ff808416946101008504821694620100009004909116929116908d565b604080516001600160a01b039e8f168152602081019d909d528c019a909a5260608b019890985260808a019690965260a089019490945260c088019290925260e08701521515610100860152151561012085015215156101408401529092166101608201526101808101919091526101a001610241565b3480156103a3575f5ffd5b5061025f6103b23660046122dc565b600a6020525f908152604090205481565b3480156103ce575f5ffd5b506102146103dd366004612338565b6109e2565b3480156103ed575f5ffd5b50600554610401906001600160a01b031681565b6040516001600160a01b039091168152602001610241565b348015610424575f5ffd5b506007546104359063ffffffff1681565b60405163ffffffff9091168152602001610241565b348015610455575f5ffd5b506102146104643660046123f0565b610a35565b348015610474575f5ffd5b506102146104833660046122dc565b610d44565b348015610493575f5ffd5b506102356104a236600461225f565b5f8281526002602090815260408083206001600160a01b0385168452600f0190915290205460ff1692915050565b3480156104db575f5ffd5b506102146104ea366004612410565b610f4f565b3480156104fa575f5ffd5b506102146105093660046122dc565b61109d565b348015610519575f5ffd5b5061025f60035481565b610214610531366004612467565b611168565b348015610541575f5ffd5b5061025f611183565b348015610555575f5ffd5b506102146105643660046122dc565b61119e565b348015610574575f5ffd5b506102146105833660046122dc565b61137b565b348015610593575f5ffd5b5061025f60065481565b3480156105a8575f5ffd5b506102146115ca565b3480156105bc575f5ffd5b50600754610435906601000000000000900463ffffffff1681565b3480156105e2575f5ffd5b506102146105f13660046122dc565b6115dd565b348015610601575f5ffd5b506102146106103660046122dc565b611723565b348015610620575f5ffd5b507f9016d09d72d40fdae2fd8ceac6b6234c7706214fd39c1cd1e609a0528c199300546001600160a01b0316610401565b34801561065c575f5ffd5b50600954610401906001600160a01b031681565b34801561067b575f5ffd5b5061025f61068a36600461225f565b5f8281526002602090815260408083206001600160a01b0385168452600c0190915290205492915050565b3480156106c0575f5ffd5b506106e5604051806040016040528060058152602001640352e302e360dc1b81525081565b604051610241919061253a565b3480156106fd575f5ffd5b5060075461071490640100000000900461ffff1681565b60405161ffff9091168152602001610241565b348015610732575f5ffd5b50600454610401906001600160a01b031681565b348015610751575f5ffd5b506107656107603660046122dc565b6117b1565b604051610241919061254c565b34801561077d575f5ffd5b5061023561078c36600461225f565b5f8281526002602090815260408083206001600160a01b0385168452600e0190915290205460ff1692915050565b3480156107c5575f5ffd5b506102146107d43660046122dc565b61181d565b3480156107e4575f5ffd5b506102146107f3366004612597565b61196c565b6108006119a6565b61083c838383808060200260200160405190810160405280939291908181526020018383602002808284375f92019190915250611a0192505050565b505050565b5f8281526002602090815260408083206001600160a01b0385168452600d0190915290205460ff165b92915050565b5f610879611c31565b805490915060ff600160401b820416159067ffffffffffffffff165f811580156108a05750825b90505f8267ffffffffffffffff1660011480156108bc5750303b155b9050811580156108ca575080155b156108e85760405163f92ee8a960e01b815260040160405180910390fd5b845467ffffffffffffffff19166001178555831561091257845460ff60401b1916600160401b1785555b61091b33611c59565b610923611c6a565b61092c8a611c72565b600980546001600160a01b03199081166001600160a01b038d81169190911790925560068b905560088a90556007805469ffffffffffffffffffff19166601000300030d401790556004805482168a84161790556005805490911691881691909117905583156109d657845460ff60401b19168555604051600181527fc7f505b2f371ae2175ee4913f4499e1f2633a7b5936321eed1cdaeb6115181d29060200160405180910390a15b50505050505050505050565b6001546001600160a01b03163314610a275760015460405163073e64fd60e21b81523360048201526001600160a01b0390911660248201526044015b60405180910390fd5b610a318282611a01565b5050565b610a3d611c9c565b5f828152600260209081526040808320848452818420338552600c8201909352922054610a995760405162461bcd60e51b815260206004820152600a602482015269139bdd081a5b881bdb1960b21b6044820152606401610a1e565b335f908152600e8301602052604090205460ff1615610aed5760405162461bcd60e51b815260206004820152601060248201526f526566756e64656420616c726561647960801b6044820152606401610a1e565b600882015462010000900460ff1680610b2757506008820154610100900460ff168015610b275750600a8201546001600160a01b03163314155b610b665760405162461bcd60e51b815260206004820152601060248201526f4f6c64206e6f7420656c696769626c6560801b6044820152606401610a1e565b600881015460ff168015610b855750600881015462010000900460ff16155b610bc85760405162461bcd60e51b81526020600482015260146024820152734e6577206c6f747465727920696e61637469766560601b6044820152606401610a1e565b80600401544210610c0e5760405162461bcd60e51b815260206004820152601060248201526f546f6f206c61746520666f72206e657760801b6044820152606401610a1e565b335f908152600e830160205260408120805460ff19166001908117909155600283015490830154610c3f91906125c4565b82546040516323b872dd60e01b8152336004820152306024820152604481018390529192506001600160a01b0316906323b872dd906064016020604051808303815f875af1158015610c93573d5f5f3e3d5ffd5b505050506040513d601f19601f82011682018060405250810190610cb791906125d7565b506009820180546001810182555f918252602080832090910180546001600160a01b031916339081179091558252600c8401905260408120805491610cfb836125f6565b9091555050604080518581523360208201527f1e28857182a3b2bb6fbb88287d1ba8cc3a941dd65d4c977286676d27b877a3d9910160405180910390a1505050610a3160015f55565b610d4c611c9c565b5f818152600260205260409020600881015460ff168015610d785750600881015462010000900460ff16155b610dbc5760405162461bcd60e51b8152602060048201526015602482015274125b9858dd1a5d99481bdc8818d85b98d95b1b1959605a1b6044820152606401610a1e565b80600401544210610dfa5760405162461bcd60e51b8152602060048201526008602482015267546f6f206c61746560c01b6044820152606401610a1e565b6003810154600982015410610e445760405162461bcd60e51b815260206004820152601060248201526f4d6178207061727469636970616e747360801b6044820152606401610a1e565b805460018201546040516323b872dd60e01b815233600482015230602482015260448101919091526001600160a01b03909116906323b872dd906064016020604051808303815f875af1158015610e9d573d5f5f3e3d5ffd5b505050506040513d601f19601f82011682018060405250810190610ec191906125d7565b506009810180546001810182555f918252602080832090910180546001600160a01b031916339081179091558252600c8301905260408120805491610f05836125f6565b9091555050604080518381523360208201527f1e28857182a3b2bb6fbb88287d1ba8cc3a941dd65d4c977286676d27b877a3d9910160405180910390a150610f4c60015f55565b50565b610f576119a6565b85871015610f975760405162461bcd60e51b815260206004820152600d60248201526c526566756e64203c3d2066656560981b6044820152606401610a1e565b428411610fda5760405162461bcd60e51b8152602060048201526011602482015270496e76616c696420647261772074696d6560781b6044820152606401610a1e565b5f60025f60035f8154610fec906125f6565b9182905550815260208082019290925260409081015f2080546001600160a01b0319166001600160a01b038d1617815560018082018c9055600282018b905560038083018b9055600483018a905560058301899055600683018890556007830187905560088301805460ff191690921790915554915191825292507f9e0023bebcc752baaa41057318405b5a6a8e9c6372b519717cfdf238e5caa795910160405180910390a1505050505050505050565b6110a56119a6565b5f818152600260205260409020600881015462010000900460ff161580156110d757506008810154610100900460ff16155b6111175760405162461bcd60e51b8152602060048201526011602482015270105b1c9958591e48199a5b985b1a5e9959607a1b6044820152606401610a1e565b60088101805462ff00001916620100001790556040517fc3dac690cf4c3ae8964f18b8f09f7f9a75d3962a8cbb7cd689df2c291bb5b2dd9061115c9084815260200190565b60405180910390a15050565b611170611cf3565b61117982611d97565b610a318282611d9f565b5f61118c611e5b565b505f5160206126ea5f395f51905f5290565b6111a6611c9c565b5f818152600260205260409020600881015462010000900460ff16806111ed57506008810154610100900460ff1680156111ed5750600a8101546001600160a01b03163314155b6112285760405162461bcd60e51b815260206004820152600c60248201526b4e6f7420656c696769626c6560a01b6044820152606401610a1e565b335f908152600e8201602052604090205460ff161561127c5760405162461bcd60e51b815260206004820152601060248201526f105b1c9958591e481c99599d5b99195960821b6044820152606401610a1e565b335f908152600c820160205260409020546112c65760405162461bcd60e51b815260206004820152600a6024820152694e6f20656e747269657360b01b6044820152606401610a1e565b335f908152600e820160209081526040808320805460ff19166001179055600c840190915281205460028301546112fd919061260e565b825460405163a9059cbb60e01b8152336004820152602481018390529192506001600160a01b03169063a9059cbb906044016020604051808303815f875af115801561134b573d5f5f3e3d5ffd5b505050506040513d601f19601f8201168201806040525081019061136f91906125d7565b505050610f4c60015f55565b6113836119a6565b5f81815260026020526040902060048101544210156113d05760405162461bcd60e51b8152602060048201526009602482015268546f6f206561726c7960b81b6044820152606401610a1e565b6008810154610100900460ff161580156113f55750600881015462010000900460ff16155b6114415760405162461bcd60e51b815260206004820152601a60248201527f416c726561647920647261776e206f722063616e63656c6c65640000000000006044820152606401610a1e565b60098101546114845760405162461bcd60e51b815260206004820152600f60248201526e4e6f207061727469636970616e747360881b6044820152606401610a1e565b6009546040805160c081018252600654815260085460208083019190915260075461ffff6401000000008204168385015263ffffffff8082166060850152660100000000000090910416608083015282519081019092525f808352926001600160a01b031691639b1c385e919060a08201906114ff90611ea4565b8152506040518263ffffffff1660e01b815260040161151e9190612625565b6020604051808303815f875af115801561153a573d5f5f3e3d5ffd5b505050506040513d601f19601f8201168201806040525081019061155e9190612689565b5f818152600a60205260409081902085905560088401805461ff001916610100179055519091507f600253eae67a5c51c82a7123372e8644f16009c6304e18f844cf86fdc40c24d7906115bd9085908490918252602082015260400190565b60405180910390a1505050565b6115d26119a6565b6115db5f611f15565b565b5f818152600260209081526040808320338452600f81019092529091205460ff161561163b5760405162461bcd60e51b815260206004820152600d60248201526c105b1c9958591e481d9bdd1959609a1b6044820152606401610a1e565b335f908152600c820160205260409020546116895760405162461bcd60e51b815260206004820152600e60248201526d4e6f7420696e206c6f747465727960901b6044820152606401610a1e565b335f908152600f820160205260408120805460ff19166001179055600b82018054916116b4836125f6565b909155505060098101546116c990600261260e565b600b8201546116d990600361260e565b10610a315760088101805462ff00001916620100001790556040517fc3dac690cf4c3ae8964f18b8f09f7f9a75d3962a8cbb7cd689df2c291bb5b2dd9061115c9084815260200190565b61172b6119a6565b5f818152600260208190526040822080546001600160a01b031916815560018101839055908101829055600381018290556004810182905560058101829055600681018290556007810182905560088101805462ffffff1916905590611794600983018261219c565b50600a810180546001600160a01b03191690555f600b9091015550565b5f8181526002602090815260409182902060090180548351818402810184019094528084526060939283018282801561181157602002820191905f5260205f20905b81546001600160a01b031681526001909101906020018083116117f3575b50505050509050919050565b611825611c9c565b5f818152600260205260409020600a8101546001600160a01b0316331461187b5760405162461bcd60e51b815260206004820152600a6024820152692737ba103bb4b73732b960b11b6044820152606401610a1e565b335f908152600d8201602052604090205460ff16156118ce5760405162461bcd60e51b815260206004820152600f60248201526e105b1c9958591e4818db185a5b5959608a1b6044820152606401610a1e565b335f818152600d8301602052604090819020805460ff1916600117905582546005840154915163a9059cbb60e01b8152600481019390935260248301919091526001600160a01b03169063a9059cbb906044016020604051808303815f875af115801561193d573d5f5f3e3d5ffd5b505050506040513d601f19601f8201168201806040525081019061196191906125d7565b5050610f4c60015f55565b6119746119a6565b6001600160a01b03811661199d57604051631e4fbdf760e01b81525f6004820152602401610a1e565b610f4c81611f15565b336119d87f9016d09d72d40fdae2fd8ceac6b6234c7706214fd39c1cd1e609a0528c199300546001600160a01b031690565b6001600160a01b0316146115db5760405163118cdaa760e01b8152336004820152602401610a1e565b5f828152600a602090815260408083205480845260029092529091206008810154610100900460ff168015611a415750600a8101546001600160a01b0316155b611a815760405162461bcd60e51b8152602060048201526011602482015270105b1c9958591e48199d5b199a5b1b1959607a1b6044820152606401610a1e565b5f8160090180549050845f81518110611a9c57611a9c6126a0565b6020026020010151611aae91906126b4565b9050816009018181548110611ac557611ac56126a0565b5f91825260209091200154600a830180546001600160a01b0319166001600160a01b03928316179055825460048054600686015460405163a9059cbb60e01b8152918516928201929092526024810191909152911690819063a9059cbb906044016020604051808303815f875af1158015611b42573d5f5f3e3d5ffd5b505050506040513d601f19601f82011682018060405250810190611b6691906125d7565b50600554600784015460405163a9059cbb60e01b81526001600160a01b03928316600482015260248101919091529082169063a9059cbb906044016020604051808303815f875af1158015611bbd573d5f5f3e3d5ffd5b505050506040513d601f19601f82011682018060405250810190611be191906125d7565b50600a830154604080518681526001600160a01b0390921660208301527f03fb57eb449654e24e1b240d3d06702cf79362a065d5c0323aee642d4702fa4b910160405180910390a1505050505050565b5f807ff0c57e16840df040f15088dc2f81fe391c3923bec73e23a9662efc9c229c6a0061086a565b611c61611f85565b610f4c81611faa565b6115db611f85565b611c7a611f85565b600180546001600160a01b0319166001600160a01b0392909216919091179055565b60025f5403611ced5760405162461bcd60e51b815260206004820152601f60248201527f5265656e7472616e637947756172643a207265656e7472616e742063616c6c006044820152606401610a1e565b60025f55565b306001600160a01b037f0000000000000000000000000000000000000000000000000000000000000000161480611d7957507f00000000000000000000000000000000000000000000000000000000000000006001600160a01b0316611d6d5f5160206126ea5f395f51905f52546001600160a01b031690565b6001600160a01b031614155b156115db5760405163703e46dd60e11b815260040160405180910390fd5b610f4c6119a6565b816001600160a01b03166352d1902d6040518163ffffffff1660e01b8152600401602060405180830381865afa925050508015611df9575060408051601f3d908101601f19168201909252611df691810190612689565b60015b611e2157604051634c9c8ce360e01b81526001600160a01b0383166004820152602401610a1e565b5f5160206126ea5f395f51905f528114611e5157604051632a87526960e21b815260048101829052602401610a1e565b61083c8383611fb2565b306001600160a01b037f000000000000000000000000000000000000000000000000000000000000000016146115db5760405163703e46dd60e11b815260040160405180910390fd5b60607f92fd13387c7fe7befbc38d303d6468778fb9731bc4583f17d92989c6fcfdeaaa82604051602401611edd91511515815260200190565b60408051601f198184030181529190526020810180516001600160e01b03166001600160e01b03199093169290921790915292915050565b7f9016d09d72d40fdae2fd8ceac6b6234c7706214fd39c1cd1e609a0528c19930080546001600160a01b031981166001600160a01b03848116918217845560405192169182907f8be0079c531659141344cd1fd0a4f28419497f9722a3daafe3b4186f6b6457e0905f90a3505050565b611f8d612007565b6115db57604051631afcd79f60e31b815260040160405180910390fd5b611974611f85565b611fbb82612020565b6040516001600160a01b038316907fbc7cd75a20ee27fd9adebab32041f755214dbc6bffa90cc0225b39da2e5c2d3b905f90a2805115611fff5761083c8282612083565b610a316120f5565b5f612010611c31565b54600160401b900460ff16919050565b806001600160a01b03163b5f0361205557604051634c9c8ce360e01b81526001600160a01b0382166004820152602401610a1e565b5f5160206126ea5f395f51905f5280546001600160a01b0319166001600160a01b0392909216919091179055565b60605f5f846001600160a01b03168460405161209f91906126d3565b5f60405180830381855af49150503d805f81146120d7576040519150601f19603f3d011682016040523d82523d5f602084013e6120dc565b606091505b50915091506120ec858383612114565b95945050505050565b34156115db5760405163b398979f60e01b815260040160405180910390fd5b6060826121295761212482612173565b61216c565b815115801561214057506001600160a01b0384163b155b1561216957604051639996b31560e01b81526001600160a01b0385166004820152602401610a1e565b50805b9392505050565b8051156121835780518082602001fd5b60405163d6bda27560e01b815260040160405180910390fd5b5080545f8255905f5260205f2090810190610f4c91905b808211156121c6575f81556001016121b3565b5090565b5f5f5f604084860312156121dc575f5ffd5b83359250602084013567ffffffffffffffff8111156121f9575f5ffd5b8401601f81018613612209575f5ffd5b803567ffffffffffffffff81111561221f575f5ffd5b8660208260051b8401011115612233575f5ffd5b939660209190910195509293505050565b80356001600160a01b038116811461225a575f5ffd5b919050565b5f5f60408385031215612270575f5ffd5b8235915061228060208401612244565b90509250929050565b5f5f5f5f5f60a0868803121561229d575f5ffd5b6122a686612244565b945060208601359350604086013592506122c260608701612244565b91506122d060808701612244565b90509295509295909350565b5f602082840312156122ec575f5ffd5b5035919050565b634e487b7160e01b5f52604160045260245ffd5b604051601f8201601f1916810167ffffffffffffffff81118282101715612330576123306122f3565b604052919050565b5f5f60408385031215612349575f5ffd5b82359150602083013567ffffffffffffffff811115612366575f5ffd5b8301601f81018513612376575f5ffd5b803567ffffffffffffffff811115612390576123906122f3565b8060051b6123a060208201612307565b918252602081840181019290810190888411156123bb575f5ffd5b6020850194505b838510156123e1578435808352602095860195909350909101906123c2565b80955050505050509250929050565b5f5f60408385031215612401575f5ffd5b50508035926020909101359150565b5f5f5f5f5f5f5f5f610100898b031215612428575f5ffd5b61243189612244565b9a60208a01359a5060408a013599606081013599506080810135985060a0810135975060c0810135965060e00135945092505050565b5f5f60408385031215612478575f5ffd5b61248183612244565b9150602083013567ffffffffffffffff81111561249c575f5ffd5b8301601f810185136124ac575f5ffd5b803567ffffffffffffffff8111156124c6576124c66122f3565b6124d9601f8201601f1916602001612307565b8181528660208385010111156124ed575f5ffd5b816020840160208301375f602083830101528093505050509250929050565b5f81518084528060208401602086015e5f602082860101526020601f19601f83011685010191505092915050565b602081525f61216c602083018461250c565b602080825282518282018190525f918401906040840190835b8181101561258c5783516001600160a01b0316835260209384019390920191600101612565565b509095945050505050565b5f602082840312156125a7575f5ffd5b61216c82612244565b634e487b7160e01b5f52601160045260245ffd5b8181038181111561086a5761086a6125b0565b5f602082840312156125e7575f5ffd5b8151801515811461216c575f5ffd5b5f60018201612607576126076125b0565b5060010190565b808202811582820484141761086a5761086a6125b0565b60208152815160208201526020820151604082015261ffff604083015116606082015263ffffffff606083015116608082015263ffffffff60808301511660a08201525f60a083015160c08084015261268160e084018261250c565b949350505050565b5f60208284031215612699575f5ffd5b5051919050565b634e487b7160e01b5f52603260045260245ffd5b5f826126ce57634e487b7160e01b5f52601260045260245ffd5b500690565b5f82518060208501845e5f92019182525091905056fe360894a13ba1a3210667c828492db98dca3e2076cc3735a920a3ca505d382bbca26469706673582212204e27d14e142758c832699f25061cb89277caa8a47eb55b3067eb7331cbf654cb64736f6c634300081e0033",
			"opcodes": "PUSH1 0xA0 PUSH1 0x40 MSTORE ADDRESS PUSH1 0x80 MSTORE CALLVALUE DUP1 ISZERO PUSH1 0x12 JUMPI PUSH0 PUSH0 REVERT JUMPDEST POP PUSH1 0x1 PUSH0 SSTORE PUSH1 0x80 MLOAD PUSH2 0x273F PUSH2 0x3D PUSH0 CODECOPY PUSH0 DUP2 DUP2 PUSH2 0x1CFE ADD MSTORE DUP2 DUP2 PUSH2 0x1D27 ADD MSTORE PUSH2 0x1E66 ADD MSTORE PUSH2 0x273F PUSH0 RETURN INVALID PUSH1 0x80 PUSH1 0x40 MSTORE PUSH1 0x4 CALLDATASIZE LT PUSH2 0x1F1 JUMPI PUSH0 CALLDATALOAD PUSH1 0xE0 SHR DUP1 PUSH4 0x5B7BAF64 GT PUSH2 0x108 JUMPI DUP1 PUSH4 0xA3E56FA8 GT PUSH2 0x9D JUMPI DUP1 PUSH4 0xB6FA37BC GT PUSH2 0x6D JUMPI DUP1 PUSH4 0xB6FA37BC EQ PUSH2 0x727 JUMPI DUP1 PUSH4 0xC1E3BD3E EQ PUSH2 0x746 JUMPI DUP1 PUSH4 0xC4CD639F EQ PUSH2 0x772 JUMPI DUP1 PUSH4 0xD7098154 EQ PUSH2 0x7BA JUMPI DUP1 PUSH4 0xF2FDE38B EQ PUSH2 0x7D9 JUMPI PUSH0 PUSH0 REVERT JUMPDEST DUP1 PUSH4 0xA3E56FA8 EQ PUSH2 0x651 JUMPI DUP1 PUSH4 0xA49A75A5 EQ PUSH2 0x670 JUMPI DUP1 PUSH4 0xAD3CB1CC EQ PUSH2 0x6B5 JUMPI DUP1 PUSH4 0xB0FB162F EQ PUSH2 0x6F2 JUMPI PUSH0 PUSH0 REVERT JUMPDEST DUP1 PUSH4 0x7CCFD7FC GT PUSH2 0xD8 JUMPI DUP1 PUSH4 0x7CCFD7FC EQ PUSH2 0x5B1 JUMPI DUP1 PUSH4 0x826D9873 EQ PUSH2 0x5D7 JUMPI DUP1 PUSH4 0x82F9D0FB EQ PUSH2 0x5F6 JUMPI DUP1 PUSH4 0x8DA5CB5B EQ PUSH2 0x615 JUMPI PUSH0 PUSH0 REVERT JUMPDEST DUP1 PUSH4 0x5B7BAF64 EQ PUSH2 0x54A JUMPI DUP1 PUSH4 0x60B2A56A EQ PUSH2 0x569 JUMPI DUP1 PUSH4 0x61728F39 EQ PUSH2 0x588 JUMPI DUP1 PUSH4 0x715018A6 EQ PUSH2 0x59D JUMPI PUSH0 PUSH0 REVERT JUMPDEST DUP1 PUSH4 0x24F74697 GT PUSH2 0x189 JUMPI DUP1 PUSH4 0x4311DA37 GT PUSH2 0x159 JUMPI DUP1 PUSH4 0x4311DA37 EQ PUSH2 0x4D0 JUMPI DUP1 PUSH4 0x4538F297 EQ PUSH2 0x4EF JUMPI DUP1 PUSH4 0x4A4A6B4F EQ PUSH2 0x50E JUMPI DUP1 PUSH4 0x4F1EF286 EQ PUSH2 0x523 JUMPI DUP1 PUSH4 0x52D1902D EQ PUSH2 0x536 JUMPI PUSH0 PUSH0 REVERT JUMPDEST DUP1 PUSH4 0x24F74697 EQ PUSH2 0x419 JUMPI DUP1 PUSH4 0x3893F9D5 EQ PUSH2 0x44A JUMPI DUP1 PUSH4 0x3FD43098 EQ PUSH2 0x469 JUMPI DUP1 PUSH4 0x3FE6E01E EQ PUSH2 0x488 JUMPI PUSH0 PUSH0 REVERT JUMPDEST DUP1 PUSH4 0x1398E076 GT PUSH2 0x1C4 JUMPI DUP1 PUSH4 0x1398E076 EQ PUSH2 0x28C JUMPI DUP1 PUSH4 0x15C6E123 EQ PUSH2 0x398 JUMPI DUP1 PUSH4 0x1FE543E3 EQ PUSH2 0x3C3 JUMPI DUP1 PUSH4 0x2301D775 EQ PUSH2 0x3E2 JUMPI PUSH0 PUSH0 REVERT JUMPDEST DUP1 PUSH4 0x2C4D72B EQ PUSH2 0x1F5 JUMPI DUP1 PUSH4 0x7C7A72D EQ PUSH2 0x216 JUMPI DUP1 PUSH4 0x9C1BA2E EQ PUSH2 0x24A JUMPI DUP1 PUSH4 0xAF5A263 EQ PUSH2 0x26D JUMPI JUMPDEST PUSH0 PUSH0 REVERT JUMPDEST CALLVALUE DUP1 ISZERO PUSH2 0x200 JUMPI PUSH0 PUSH0 REVERT JUMPDEST POP PUSH2 0x214 PUSH2 0x20F CALLDATASIZE PUSH1 0x4 PUSH2 0x21CA JUMP JUMPDEST PUSH2 0x7F8 JUMP JUMPDEST STOP JUMPDEST CALLVALUE DUP1 ISZERO PUSH2 0x221 JUMPI PUSH0 PUSH0 REVERT JUMPDEST POP PUSH2 0x235 PUSH2 0x230 CALLDATASIZE PUSH1 0x4 PUSH2 0x225F JUMP JUMPDEST PUSH2 0x841 JUMP JUMPDEST PUSH1 0x40 MLOAD SWAP1 ISZERO ISZERO DUP2 MSTORE PUSH1 0x20 ADD JUMPDEST PUSH1 0x40 MLOAD DUP1 SWAP2 SUB SWAP1 RETURN JUMPDEST CALLVALUE DUP1 ISZERO PUSH2 0x255 JUMPI PUSH0 PUSH0 REVERT JUMPDEST POP PUSH2 0x25F PUSH1 0x8 SLOAD DUP2 JUMP JUMPDEST PUSH1 0x40 MLOAD SWAP1 DUP2 MSTORE PUSH1 0x20 ADD PUSH2 0x241 JUMP JUMPDEST CALLVALUE DUP1 ISZERO PUSH2 0x278 JUMPI PUSH0 PUSH0 REVERT JUMPDEST POP PUSH2 0x214 PUSH2 0x287 CALLDATASIZE PUSH1 0x4 PUSH2 0x2289 JUMP JUMPDEST PUSH2 0x870 JUMP JUMPDEST CALLVALUE DUP1 ISZERO PUSH2 0x297 JUMPI PUSH0 PUSH0 REVERT JUMPDEST POP PUSH2 0x321 PUSH2 0x2A6 CALLDATASIZE PUSH1 0x4 PUSH2 0x22DC JUMP JUMPDEST PUSH1 0x2 PUSH1 0x20 DUP2 SWAP1 MSTORE PUSH0 SWAP2 DUP3 MSTORE PUSH1 0x40 SWAP1 SWAP2 KECCAK256 DUP1 SLOAD PUSH1 0x1 DUP3 ADD SLOAD SWAP3 DUP3 ADD SLOAD PUSH1 0x3 DUP4 ADD SLOAD PUSH1 0x4 DUP5 ADD SLOAD PUSH1 0x5 DUP6 ADD SLOAD PUSH1 0x6 DUP7 ADD SLOAD PUSH1 0x7 DUP8 ADD SLOAD PUSH1 0x8 DUP9 ADD SLOAD PUSH1 0xA DUP10 ADD SLOAD PUSH1 0xB SWAP1 SWAP10 ADD SLOAD PUSH1 0x1 PUSH1 0x1 PUSH1 0xA0 SHL SUB SWAP9 DUP10 AND SWAP11 SWAP10 SWAP8 SWAP9 SWAP7 SWAP8 SWAP6 SWAP7 SWAP5 SWAP6 SWAP4 SWAP5 SWAP3 SWAP4 PUSH1 0xFF DUP1 DUP5 AND SWAP5 PUSH2 0x100 DUP6 DIV DUP3 AND SWAP5 PUSH3 0x10000 SWAP1 DIV SWAP1 SWAP2 AND SWAP3 SWAP2 AND SWAP1 DUP14 JUMP JUMPDEST PUSH1 0x40 DUP1 MLOAD PUSH1 0x1 PUSH1 0x1 PUSH1 0xA0 SHL SUB SWAP15 DUP16 AND DUP2 MSTORE PUSH1 0x20 DUP2 ADD SWAP14 SWAP1 SWAP14 MSTORE DUP13 ADD SWAP11 SWAP1 SWAP11 MSTORE PUSH1 0x60 DUP12 ADD SWAP9 SWAP1 SWAP9 MSTORE PUSH1 0x80 DUP11 ADD SWAP7 SWAP1 SWAP7 MSTORE PUSH1 0xA0 DUP10 ADD SWAP5 SWAP1 SWAP5 MSTORE PUSH1 0xC0 DUP9 ADD SWAP3 SWAP1 SWAP3 MSTORE PUSH1 0xE0 DUP8 ADD MSTORE ISZERO ISZERO PUSH2 0x100 DUP7 ADD MSTORE ISZERO ISZERO PUSH2 0x120 DUP6 ADD MSTORE ISZERO ISZERO PUSH2 0x140 DUP5 ADD MSTORE SWAP1 SWAP3 AND PUSH2 0x160 DUP3 ADD MSTORE PUSH2 0x180 DUP2 ADD SWAP2 SWAP1 SWAP2 MSTORE PUSH2 0x1A0 ADD PUSH2 0x241 JUMP JUMPDEST CALLVALUE DUP1 ISZERO PUSH2 0x3A3 JUMPI PUSH0 PUSH0 REVERT JUMPDEST POP PUSH2 0x25F PUSH2 0x3B2 CALLDATASIZE PUSH1 0x4 PUSH2 0x22DC JUMP JUMPDEST PUSH1 0xA PUSH1 0x20 MSTORE PUSH0 SWAP1 DUP2 MSTORE PUSH1 0x40 SWAP1 KECCAK256 SLOAD DUP2 JUMP JUMPDEST CALLVALUE DUP1 ISZERO PUSH2 0x3CE JUMPI PUSH0 PUSH0 REVERT JUMPDEST POP PUSH2 0x214 PUSH2 0x3DD CALLDATASIZE PUSH1 0x4 PUSH2 0x2338 JUMP JUMPDEST PUSH2 0x9E2 JUMP JUMPDEST CALLVALUE DUP1 ISZERO PUSH2 0x3ED JUMPI PUSH0 PUSH0 REVERT JUMPDEST POP PUSH1 0x5 SLOAD PUSH2 0x401 SWAP1 PUSH1 0x1 PUSH1 0x1 PUSH1 0xA0 SHL SUB AND DUP2 JUMP JUMPDEST PUSH1 0x40 MLOAD PUSH1 0x1 PUSH1 0x1 PUSH1 0xA0 SHL SUB SWAP1 SWAP2 AND DUP2 MSTORE PUSH1 0x20 ADD PUSH2 0x241 JUMP JUMPDEST CALLVALUE DUP1 ISZERO PUSH2 0x424 JUMPI PUSH0 PUSH0 REVERT JUMPDEST POP PUSH1 0x7 SLOAD PUSH2 0x435 SWAP1 PUSH4 0xFFFFFFFF AND DUP2 JUMP JUMPDEST PUSH1 0x40 MLOAD PUSH4 0xFFFFFFFF SWAP1 SWAP2 AND DUP2 MSTORE PUSH1 0x20 ADD PUSH2 0x241 JUMP JUMPDEST CALLVALUE DUP1 ISZERO PUSH2 0x455 JUMPI PUSH0 PUSH0 REVERT JUMPDEST POP PUSH2 0x214 PUSH2 0x464 CALLDATASIZE PUSH1 0x4 PUSH2 0x23F0 JUMP JUMPDEST PUSH2 0xA35 JUMP JUMPDEST CALLVALUE DUP1 ISZERO PUSH2 0x474 JUMPI PUSH0 PUSH0 REVERT JUMPDEST POP PUSH2 0x214 PUSH2 0x483 CALLDATASIZE PUSH1 0x4 PUSH2 0x22DC JUMP JUMPDEST PUSH2 0xD44 JUMP JUMPDEST CALLVALUE DUP1 ISZERO PUSH2 0x493 JUMPI PUSH0 PUSH0 REVERT JUMPDEST POP PUSH2 0x235 PUSH2 0x4A2 CALLDATASIZE PUSH1 0x4 PUSH2 0x225F JUMP JUMPDEST PUSH0 DUP3 DUP2 MSTORE PUSH1 0x2 PUSH1 0x20 SWAP1 DUP2 MSTORE PUSH1 0x40 DUP1 DUP4 KECCAK256 PUSH1 0x1 PUSH1 0x1 PUSH1 0xA0 SHL SUB DUP6 AND DUP5 MSTORE PUSH1 0xF ADD SWAP1 SWAP2 MSTORE SWAP1 KECCAK256 SLOAD PUSH1 0xFF AND SWAP3 SWAP2 POP POP JUMP JUMPDEST CALLVALUE DUP1 ISZERO PUSH2 0x4DB JUMPI PUSH0 PUSH0 REVERT JUMPDEST POP PUSH2 0x214 PUSH2 0x4EA CALLDATASIZE PUSH1 0x4 PUSH2 0x2410 JUMP JUMPDEST PUSH2 0xF4F JUMP JUMPDEST CALLVALUE DUP1 ISZERO PUSH2 0x4FA JUMPI PUSH0 PUSH0 REVERT JUMPDEST POP PUSH2 0x214 PUSH2 0x509 CALLDATASIZE PUSH1 0x4 PUSH2 0x22DC JUMP JUMPDEST PUSH2 0x109D JUMP JUMPDEST CALLVALUE DUP1 ISZERO PUSH2 0x519 JUMPI PUSH0 PUSH0 REVERT JUMPDEST POP PUSH2 0x25F PUSH1 0x3 SLOAD DUP2 JUMP JUMPDEST PUSH2 0x214 PUSH2 0x531 CALLDATASIZE PUSH1 0x4 PUSH2 0x2467 JUMP JUMPDEST PUSH2 0x1168 JUMP JUMPDEST CALLVALUE DUP1 ISZERO PUSH2 0x541 JUMPI PUSH0 PUSH0 REVERT JUMPDEST POP PUSH2 0x25F PUSH2 0x1183 JUMP JUMPDEST CALLVALUE DUP1 ISZERO PUSH2 0x555 JUMPI PUSH0 PUSH0 REVERT JUMPDEST POP PUSH2 0x214 PUSH2 0x564 CALLDATASIZE PUSH1 0x4 PUSH2 0x22DC JUMP JUMPDEST PUSH2 0x119E JUMP JUMPDEST CALLVALUE DUP1 ISZERO PUSH2 0x574 JUMPI PUSH0 PUSH0 REVERT JUMPDEST POP PUSH2 0x214 PUSH2 0x583 CALLDATASIZE PUSH1 0x4 PUSH2 0x22DC JUMP JUMPDEST PUSH2 0x137B JUMP JUMPDEST CALLVALUE DUP1 ISZERO PUSH2 0x593 JUMPI PUSH0 PUSH0 REVERT JUMPDEST POP PUSH2 0x25F PUSH1 0x6 SLOAD DUP2 JUMP JUMPDEST CALLVALUE DUP1 ISZERO PUSH2 0x5A8 JUMPI PUSH0 PUSH0 REVERT JUMPDEST POP PUSH2 0x214 PUSH2 0x15CA JUMP JUMPDEST CALLVALUE DUP1 ISZERO PUSH2 0x5BC JUMPI PUSH0 PUSH0 REVERT JUMPDEST POP PUSH1 0x7 SLOAD PUSH2 0x435 SWAP1 PUSH7 0x1000000000000 SWAP1 DIV PUSH4 0xFFFFFFFF AND DUP2 JUMP JUMPDEST CALLVALUE DUP1 ISZERO PUSH2 0x5E2 JUMPI PUSH0 PUSH0 REVERT JUMPDEST POP PUSH2 0x214 PUSH2 0x5F1 CALLDATASIZE PUSH1 0x4 PUSH2 0x22DC JUMP JUMPDEST PUSH2 0x15DD JUMP JUMPDEST CALLVALUE DUP1 ISZERO PUSH2 0x601 JUMPI PUSH0 PUSH0 REVERT JUMPDEST POP PUSH2 0x214 PUSH2 0x610 CALLDATASIZE PUSH1 0x4 PUSH2 0x22DC JUMP JUMPDEST PUSH2 0x1723 JUMP JUMPDEST CALLVALUE DUP1 ISZERO PUSH2 0x620 JUMPI PUSH0 PUSH0 REVERT JUMPDEST POP PUSH32 0x9016D09D72D40FDAE2FD8CEAC6B6234C7706214FD39C1CD1E609A0528C199300 SLOAD PUSH1 0x1 PUSH1 0x1 PUSH1 0xA0 SHL SUB AND PUSH2 0x401 JUMP JUMPDEST CALLVALUE DUP1 ISZERO PUSH2 0x65C JUMPI PUSH0 PUSH0 REVERT JUMPDEST POP PUSH1 0x9 SLOAD PUSH2 0x401 SWAP1 PUSH1 0x1 PUSH1 0x1 PUSH1 0xA0 SHL SUB AND DUP2 JUMP JUMPDEST CALLVALUE DUP1 ISZERO PUSH2 0x67B JUMPI PUSH0 PUSH0 REVERT JUMPDEST POP PUSH2 0x25F PUSH2 0x68A CALLDATASIZE PUSH1 0x4 PUSH2 0x225F JUMP JUMPDEST PUSH0 DUP3 DUP2 MSTORE PUSH1 0x2 PUSH1 0x20 SWAP1 DUP2 MSTORE PUSH1 0x40 DUP1 DUP4 KECCAK256 PUSH1 0x1 PUSH1 0x1 PUSH1 0xA0 SHL SUB DUP6 AND DUP5 MSTORE PUSH1 0xC ADD SWAP1 SWAP2 MSTORE SWAP1 KECCAK256 SLOAD SWAP3 SWAP2 POP POP JUMP JUMPDEST CALLVALUE DUP1 ISZERO PUSH2 0x6C0 JUMPI PUSH0 PUSH0 REVERT JUMPDEST POP PUSH2 0x6E5 PUSH1 0x40 MLOAD DUP1 PUSH1 0x40 ADD PUSH1 0x40 MSTORE DUP1 PUSH1 0x5 DUP2 MSTORE PUSH1 0x20 ADD PUSH5 0x352E302E3 PUSH1 0xDC SHL DUP2 MSTORE POP DUP2 JUMP JUMPDEST PUSH1 0x40 MLOAD PUSH2 0x241 SWAP2 SWAP1 PUSH2 0x253A JUMP JUMPDEST CALLVALUE DUP1 ISZERO PUSH2 0x6FD JUMPI PUSH0 PUSH0 REVERT JUMPDEST POP PUSH1 0x7 SLOAD PUSH2 0x714 SWAP1 PUSH5 0x100000000 SWAP1 DIV PUSH2 0xFFFF AND DUP2 JUMP JUMPDEST PUSH1 0x40 MLOAD PUSH2 0xFFFF SWAP1 SWAP2 AND DUP2 MSTORE PUSH1 0x20 ADD PUSH2 0x241 JUMP JUMPDEST CALLVALUE DUP1 ISZERO PUSH2 0x732 JUMPI PUSH0 PUSH0 REVERT JUMPDEST POP PUSH1 0x4 SLOAD PUSH2 0x401 SWAP1 PUSH1 0x1 PUSH1 0x1 PUSH1 0xA0 SHL SUB AND DUP2 JUMP JUMPDEST CALLVALUE DUP1 ISZERO PUSH2 0x751 JUMPI PUSH0 PUSH0 REVERT JUMPDEST POP PUSH2 0x765 PUSH2 0x760 CALLDATASIZE PUSH1 0x4 PUSH2 0x22DC JUMP JUMPDEST PUSH2 0x17B1 JUMP JUMPDEST PUSH1 0x40 MLOAD PUSH2 0x241 SWAP2 SWAP1 PUSH2 0x254C JUMP JUMPDEST CALLVALUE DUP1 ISZERO PUSH2 0x77D JUMPI PUSH0 PUSH0 REVERT JUMPDEST POP PUSH2 0x235 PUSH2 0x78C CALLDATASIZE PUSH1 0x4 PUSH2 0x225F JUMP JUMPDEST PUSH0 DUP3 DUP2 MSTORE PUSH1 0x2 PUSH1 0x20 SWAP1 DUP2 MSTORE PUSH1 0x40 DUP1 DUP4 KECCAK256 PUSH1 0x1 PUSH1 0x1 PUSH1 0xA0 SHL SUB DUP6 AND DUP5 MSTORE PUSH1 0xE ADD SWAP1 SWAP2 MSTORE SWAP1 KECCAK256 SLOAD PUSH1 0xFF AND SWAP3 SWAP2 POP POP JUMP JUMPDEST CALLVALUE DUP1 ISZERO PUSH2 0x7C5 JUMPI PUSH0 PUSH0 REVERT JUMPDEST POP PUSH2 0x214 PUSH2 0x7D4 CALLDATASIZE PUSH1 0x4 PUSH2 0x22DC JUMP JUMPDEST PUSH2 0x181D JUMP JUMPDEST CALLVALUE DUP1 ISZERO PUSH2 0x7E4 JUMPI PUSH0 PUSH0 REVERT JUMPDEST POP PUSH2 0x214 PUSH2 0x7F3 CALLDATASIZE PUSH1 0x4 PUSH2 0x2597 JUMP JUMPDEST PUSH2 0x196C JUMP JUMPDEST PUSH2 0x800 PUSH2 0x19A6 JUMP JUMPDEST PUSH2 0x83C DUP4 DUP4 DUP4 DUP1 DUP1 PUSH1 0x20 MUL PUSH1 0x20 ADD PUSH1 0x40 MLOAD SWAP1 DUP2 ADD PUSH1 0x40 MSTORE DUP1 SWAP4 SWAP3 SWAP2 SWAP1 DUP2 DUP2 MSTORE PUSH1 0x20 ADD DUP4 DUP4 PUSH1 0x20 MUL DUP1 DUP3 DUP5 CALLDATACOPY PUSH0 SWAP3 ADD SWAP2 SWAP1 SWAP2 MSTORE POP PUSH2 0x1A01 SWAP3 POP POP POP JUMP JUMPDEST POP POP POP JUMP JUMPDEST PUSH0 DUP3 DUP2 MSTORE PUSH1 0x2 PUSH1 0x20 SWAP1 DUP2 MSTORE PUSH1 0x40 DUP1 DUP4 KECCAK256 PUSH1 0x1 PUSH1 0x1 PUSH1 0xA0 SHL SUB DUP6 AND DUP5 MSTORE PUSH1 0xD ADD SWAP1 SWAP2 MSTORE SWAP1 KECCAK256 SLOAD PUSH1 0xFF AND JUMPDEST SWAP3 SWAP2 POP POP JUMP JUMPDEST PUSH0 PUSH2 0x879 PUSH2 0x1C31 JUMP JUMPDEST DUP1 SLOAD SWAP1 SWAP2 POP PUSH1 0xFF PUSH1 0x1 PUSH1 0x40 SHL DUP3 DIV AND ISZERO SWAP1 PUSH8 0xFFFFFFFFFFFFFFFF AND PUSH0 DUP2 ISZERO DUP1 ISZERO PUSH2 0x8A0 JUMPI POP DUP3 JUMPDEST SWAP1 POP PUSH0 DUP3 PUSH8 0xFFFFFFFFFFFFFFFF AND PUSH1 0x1 EQ DUP1 ISZERO PUSH2 0x8BC JUMPI POP ADDRESS EXTCODESIZE ISZERO JUMPDEST SWAP1 POP DUP2 ISZERO DUP1 ISZERO PUSH2 0x8CA JUMPI POP DUP1 ISZERO JUMPDEST ISZERO PUSH2 0x8E8 JUMPI PUSH1 0x40 MLOAD PUSH4 0xF92EE8A9 PUSH1 0xE0 SHL DUP2 MSTORE PUSH1 0x4 ADD PUSH1 0x40 MLOAD DUP1 SWAP2 SUB SWAP1 REVERT JUMPDEST DUP5 SLOAD PUSH8 0xFFFFFFFFFFFFFFFF NOT AND PUSH1 0x1 OR DUP6 SSTORE DUP4 ISZERO PUSH2 0x912 JUMPI DUP5 SLOAD PUSH1 0xFF PUSH1 0x40 SHL NOT AND PUSH1 0x1 PUSH1 0x40 SHL OR DUP6 SSTORE JUMPDEST PUSH2 0x91B CALLER PUSH2 0x1C59 JUMP JUMPDEST PUSH2 0x923 PUSH2 0x1C6A JUMP JUMPDEST PUSH2 0x92C DUP11 PUSH2 0x1C72 JUMP JUMPDEST PUSH1 0x9 DUP1 SLOAD PUSH1 0x1 PUSH1 0x1 PUSH1 0xA0 SHL SUB NOT SWAP1 DUP2 AND PUSH1 0x1 PUSH1 0x1 PUSH1 0xA0 SHL SUB DUP14 DUP2 AND SWAP2 SWAP1 SWAP2 OR SWAP1 SWAP3 SSTORE PUSH1 0x6 DUP12 SWAP1 SSTORE PUSH1 0x8 DUP11 SWAP1 SSTORE PUSH1 0x7 DUP1 SLOAD PUSH10 0xFFFFFFFFFFFFFFFFFFFF NOT AND PUSH7 0x1000300030D40 OR SWAP1 SSTORE PUSH1 0x4 DUP1 SLOAD DUP3 AND DUP11 DUP5 AND OR SWAP1 SSTORE PUSH1 0x5 DUP1 SLOAD SWAP1 SWAP2 AND SWAP2 DUP9 AND SWAP2 SWAP1 SWAP2 OR SWAP1 SSTORE DUP4 ISZERO PUSH2 0x9D6 JUMPI DUP5 SLOAD PUSH1 0xFF PUSH1 0x40 SHL NOT AND DUP6 SSTORE PUSH1 0x40 MLOAD PUSH1 0x1 DUP2 MSTORE PUSH32 0xC7F505B2F371AE2175EE4913F4499E1F2633A7B5936321EED1CDAEB6115181D2 SWAP1 PUSH1 0x20 ADD PUSH1 0x40 MLOAD DUP1 SWAP2 SUB SWAP1 LOG1 JUMPDEST POP POP POP POP POP POP POP POP POP POP JUMP JUMPDEST PUSH1 0x1 SLOAD PUSH1 0x1 PUSH1 0x1 PUSH1 0xA0 SHL SUB AND CALLER EQ PUSH2 0xA27 JUMPI PUSH1 0x1 SLOAD PUSH1 0x40 MLOAD PUSH4 0x73E64FD PUSH1 0xE2 SHL DUP2 MSTORE CALLER PUSH1 0x4 DUP3 ADD MSTORE PUSH1 0x1 PUSH1 0x1 PUSH1 0xA0 SHL SUB SWAP1 SWAP2 AND PUSH1 0x24 DUP3 ADD MSTORE PUSH1 0x44 ADD JUMPDEST PUSH1 0x40 MLOAD DUP1 SWAP2 SUB SWAP1 REVERT JUMPDEST PUSH2 0xA31 DUP3 DUP3 PUSH2 0x1A01 JUMP JUMPDEST POP POP JUMP JUMPDEST PUSH2 0xA3D PUSH2 0x1C9C JUMP JUMPDEST PUSH0 DUP3 DUP2 MSTORE PUSH1 0x2 PUSH1 0x20 SWAP1 DUP2 MSTORE PUSH1 0x40 DUP1 DUP4 KECCAK256 DUP5 DUP5 MSTORE DUP2 DUP5 KECCAK256 CALLER DUP6 MSTORE PUSH1 0xC DUP3 ADD SWAP1 SWAP4 MSTORE SWAP3 KECCAK256 SLOAD PUSH2 0xA99 JUMPI PUSH1 0x40 MLOAD PUSH3 0x461BCD PUSH1 0xE5 SHL DUP2 MSTORE PUSH1 0x20 PUSH1 0x4 DUP3 ADD MSTORE PUSH1 0xA PUSH1 0x24 DUP3 ADD MSTORE PUSH10 0x139BDD081A5B881BDB19 PUSH1 0xB2 SHL PUSH1 0x44 DUP3 ADD MSTORE PUSH1 0x64 ADD PUSH2 0xA1E JUMP JUMPDEST CALLER PUSH0 SWAP1 DUP2 MSTORE PUSH1 0xE DUP4 ADD PUSH1 0x20 MSTORE PUSH1 0x40 SWAP1 KECCAK256 SLOAD PUSH1 0xFF AND ISZERO PUSH2 0xAED JUMPI PUSH1 0x40 MLOAD PUSH3 0x461BCD PUSH1 0xE5 SHL DUP2 MSTORE PUSH1 0x20 PUSH1 0x4 DUP3 ADD MSTORE PUSH1 0x10 PUSH1 0x24 DUP3 ADD MSTORE PUSH16 0x526566756E64656420616C7265616479 PUSH1 0x80 SHL PUSH1 0x44 DUP3 ADD MSTORE PUSH1 0x64 ADD PUSH2 0xA1E JUMP JUMPDEST PUSH1 0x8 DUP3 ADD SLOAD PUSH3 0x10000 SWAP1 DIV PUSH1 0xFF AND DUP1 PUSH2 0xB27 JUMPI POP PUSH1 0x8 DUP3 ADD SLOAD PUSH2 0x100 SWAP1 DIV PUSH1 0xFF AND DUP1 ISZERO PUSH2 0xB27 JUMPI POP PUSH1 0xA DUP3 ADD SLOAD PUSH1 0x1 PUSH1 0x1 PUSH1 0xA0 SHL SUB AND CALLER EQ ISZERO JUMPDEST PUSH2 0xB66 JUMPI PUSH1 0x40 MLOAD PUSH3 0x461BCD PUSH1 0xE5 SHL DUP2 MSTORE PUSH1 0x20 PUSH1 0x4 DUP3 ADD MSTORE PUSH1 0x10 PUSH1 0x24 DUP3 ADD MSTORE PUSH16 0x4F6C64206E6F7420656C696769626C65 PUSH1 0x80 SHL PUSH1 0x44 DUP3 ADD MSTORE PUSH1 0x64 ADD PUSH2 0xA1E JUMP JUMPDEST PUSH1 0x8 DUP2 ADD SLOAD PUSH1 0xFF AND DUP1 ISZERO PUSH2 0xB85 JUMPI POP PUSH1 0x8 DUP2 ADD SLOAD PUSH3 0x10000 SWAP1 DIV PUSH1 0xFF AND ISZERO JUMPDEST PUSH2 0xBC8 JUMPI PUSH1 0x40 MLOAD PUSH3 0x461BCD PUSH1 0xE5 SHL DUP2 MSTORE PUSH1 0x20 PUSH1 0x4 DUP3 ADD MSTORE PUSH1 0x14 PUSH1 0x24 DUP3 ADD MSTORE PUSH20 0x4E6577206C6F747465727920696E616374697665 PUSH1 0x60 SHL PUSH1 0x44 DUP3 ADD MSTORE PUSH1 0x64 ADD PUSH2 0xA1E JUMP JUMPDEST DUP1 PUSH1 0x4 ADD SLOAD TIMESTAMP LT PUSH2 0xC0E JUMPI PUSH1 0x40 MLOAD PUSH3 0x461BCD PUSH1 0xE5 SHL DUP2 MSTORE PUSH1 0x20 PUSH1 0x4 DUP3 ADD MSTORE PUSH1 0x10 PUSH1 0x24 DUP3 ADD MSTORE PUSH16 0x546F6F206C61746520666F72206E6577 PUSH1 0x80 SHL PUSH1 0x44 DUP3 ADD MSTORE PUSH1 0x64 ADD PUSH2 0xA1E JUMP JUMPDEST CALLER PUSH0 SWAP1 DUP2 MSTORE PUSH1 0xE DUP4 ADD PUSH1 0x20 MSTORE PUSH1 0x40 DUP2 KECCAK256 DUP1 SLOAD PUSH1 0xFF NOT AND PUSH1 0x1 SWAP1 DUP2 OR SWAP1 SWAP2 SSTORE PUSH1 0x2 DUP4 ADD SLOAD SWAP1 DUP4 ADD SLOAD PUSH2 0xC3F SWAP2 SWAP1 PUSH2 0x25C4 JUMP JUMPDEST DUP3 SLOAD PUSH1 0x40 MLOAD PUSH4 0x23B872DD PUSH1 0xE0 SHL DUP2 MSTORE CALLER PUSH1 0x4 DUP3 ADD MSTORE ADDRESS PUSH1 0x24 DUP3 ADD MSTORE PUSH1 0x44 DUP2 ADD DUP4 SWAP1 MSTORE SWAP2 SWAP3 POP PUSH1 0x1 PUSH1 0x1 PUSH1 0xA0 SHL SUB AND SWAP1 PUSH4 0x23B872DD SWAP1 PUSH1 0x64 ADD PUSH1 0x20 PUSH1 0x40 MLOAD DUP1 DUP4 SUB DUP2 PUSH0 DUP8 GAS CALL ISZERO DUP1 ISZERO PUSH2 0xC93 JUMPI RETURNDATASIZE PUSH0 PUSH0 RETURNDATACOPY RETURNDATASIZE PUSH0 REVERT JUMPDEST POP POP POP POP PUSH1 0x40 MLOAD RETURNDATASIZE PUSH1 0x1F NOT PUSH1 0x1F DUP3 ADD AND DUP3 ADD DUP1 PUSH1 0x40 MSTORE POP DUP2 ADD SWAP1 PUSH2 0xCB7 SWAP2 SWAP1 PUSH2 0x25D7 JUMP JUMPDEST POP PUSH1 0x9 DUP3 ADD DUP1 SLOAD PUSH1 0x1 DUP2 ADD DUP3 SSTORE PUSH0 SWAP2 DUP3 MSTORE PUSH1 0x20 DUP1 DUP4 KECCAK256 SWAP1 SWAP2 ADD DUP1 SLOAD PUSH1 0x1 PUSH1 0x1 PUSH1 0xA0 SHL SUB NOT AND CALLER SWAP1 DUP2 OR SWAP1 SWAP2 SSTORE DUP3 MSTORE PUSH1 0xC DUP5 ADD SWAP1 MSTORE PUSH1 0x40 DUP2 KECCAK256 DUP1 SLOAD SWAP2 PUSH2 0xCFB DUP4 PUSH2 0x25F6 JUMP JUMPDEST SWAP1 SWAP2 SSTORE POP POP PUSH1 0x40 DUP1 MLOAD DUP6 DUP2 MSTORE CALLER PUSH1 0x20 DUP3 ADD MSTORE PUSH32 0x1E28857182A3B2BB6FBB88287D1BA8CC3A941DD65D4C977286676D27B877A3D9 SWAP2 ADD PUSH1 0x40 MLOAD DUP1 SWAP2 SUB SWAP1 LOG1 POP POP POP PUSH2 0xA31 PUSH1 0x1 PUSH0 SSTORE JUMP JUMPDEST PUSH2 0xD4C PUSH2 0x1C9C JUMP JUMPDEST PUSH0 DUP2 DUP2 MSTORE PUSH1 0x2 PUSH1 0x20 MSTORE PUSH1 0x40 SWAP1 KECCAK256 PUSH1 0x8 DUP2 ADD SLOAD PUSH1 0xFF AND DUP1 ISZERO PUSH2 0xD78 JUMPI POP PUSH1 0x8 DUP2 ADD SLOAD PUSH3 0x10000 SWAP1 DIV PUSH1 0xFF AND ISZERO JUMPDEST PUSH2 0xDBC JUMPI PUSH1 0x40 MLOAD PUSH3 0x461BCD PUSH1 0xE5 SHL DUP2 MSTORE PUSH1 0x20 PUSH1 0x4 DUP3 ADD MSTORE PUSH1 0x15 PUSH1 0x24 DUP3 ADD MSTORE PUSH21 0x125B9858DD1A5D99481BDC8818D85B98D95B1B1959 PUSH1 0x5A SHL PUSH1 0x44 DUP3 ADD MSTORE PUSH1 0x64 ADD PUSH2 0xA1E JUMP JUMPDEST DUP1 PUSH1 0x4 ADD SLOAD TIMESTAMP LT PUSH2 0xDFA JUMPI PUSH1 0x40 MLOAD PUSH3 0x461BCD PUSH1 0xE5 SHL DUP2 MSTORE PUSH1 0x20 PUSH1 0x4 DUP3 ADD MSTORE PUSH1 0x8 PUSH1 0x24 DUP3 ADD MSTORE PUSH8 0x546F6F206C617465 PUSH1 0xC0 SHL PUSH1 0x44 DUP3 ADD MSTORE PUSH1 0x64 ADD PUSH2 0xA1E JUMP JUMPDEST PUSH1 0x3 DUP2 ADD SLOAD PUSH1 0x9 DUP3 ADD SLOAD LT PUSH2 0xE44 JUMPI PUSH1 0x40 MLOAD PUSH3 0x461BCD PUSH1 0xE5 SHL DUP2 MSTORE PUSH1 0x20 PUSH1 0x4 DUP3 ADD MSTORE PUSH1 0x10 PUSH1 0x24 DUP3 ADD MSTORE PUSH16 0x4D6178207061727469636970616E7473 PUSH1 0x80 SHL PUSH1 0x44 DUP3 ADD MSTORE PUSH1 0x64 ADD PUSH2 0xA1E JUMP JUMPDEST DUP1 SLOAD PUSH1 0x1 DUP3 ADD SLOAD PUSH1 0x40 MLOAD PUSH4 0x23B872DD PUSH1 0xE0 SHL DUP2 MSTORE CALLER PUSH1 0x4 DUP3 ADD MSTORE ADDRESS PUSH1 0x24 DUP3 ADD MSTORE PUSH1 0x44 DUP2 ADD SWAP2 SWAP1 SWAP2 MSTORE PUSH1 0x1 PUSH1 0x1 PUSH1 0xA0 SHL SUB SWAP1 SWAP2 AND SWAP1 PUSH4 0x23B872DD SWAP1 PUSH1 0x64 ADD PUSH1 0x20 PUSH1 0x40 MLOAD DUP1 DUP4 SUB DUP2 PUSH0 DUP8 GAS CALL ISZERO DUP1 ISZERO PUSH2 0xE9D JUMPI RETURNDATASIZE PUSH0 PUSH0 RETURNDATACOPY RETURNDATASIZE PUSH0 REVERT JUMPDEST POP POP POP POP PUSH1 0x40 MLOAD RETURNDATASIZE PUSH1 0x1F NOT PUSH1 0x1F DUP3 ADD AND DUP3 ADD DUP1 PUSH1 0x40 MSTORE POP DUP2 ADD SWAP1 PUSH2 0xEC1 SWAP2 SWAP1 PUSH2 0x25D7 JUMP JUMPDEST POP PUSH1 0x9 DUP2 ADD DUP1 SLOAD PUSH1 0x1 DUP2 ADD DUP3 SSTORE PUSH0 SWAP2 DUP3 MSTORE PUSH1 0x20 DUP1 DUP4 KECCAK256 SWAP1 SWAP2 ADD DUP1 SLOAD PUSH1 0x1 PUSH1 0x1 PUSH1 0xA0 SHL SUB NOT AND CALLER SWAP1 DUP2 OR SWAP1 SWAP2 SSTORE DUP3 MSTORE PUSH1 0xC DUP4 ADD SWAP1 MSTORE PUSH1 0x40 DUP2 KECCAK256 DUP1 SLOAD SWAP2 PUSH2 0xF05 DUP4 PUSH2 0x25F6 JUMP JUMPDEST SWAP1 SWAP2 SSTORE POP POP PUSH1 0x40 DUP1 MLOAD DUP4 DUP2 MSTORE CALLER PUSH1 0x20 DUP3 ADD MSTORE PUSH32 0x1E28857182A3B2BB6FBB88287D1BA8CC3A941DD65D4C977286676D27B877A3D9 SWAP2 ADD PUSH1 0x40 MLOAD DUP1 SWAP2 SUB SWAP1 LOG1 POP PUSH2 0xF4C PUSH1 0x1 PUSH0 SSTORE JUMP JUMPDEST POP JUMP JUMPDEST PUSH2 0xF57 PUSH2 0x19A6 JUMP JUMPDEST DUP6 DUP8 LT ISZERO PUSH2 0xF97 JUMPI PUSH1 0x40 MLOAD PUSH3 0x461BCD PUSH1 0xE5 SHL DUP2 MSTORE PUSH1 0x20 PUSH1 0x4 DUP3 ADD MSTORE PUSH1 0xD PUSH1 0x24 DUP3 ADD MSTORE PUSH13 0x526566756E64203C3D20666565 PUSH1 0x98 SHL PUSH1 0x44 DUP3 ADD MSTORE PUSH1 0x64 ADD PUSH2 0xA1E JUMP JUMPDEST TIMESTAMP DUP5 GT PUSH2 0xFDA JUMPI PUSH1 0x40 MLOAD PUSH3 0x461BCD PUSH1 0xE5 SHL DUP2 MSTORE PUSH1 0x20 PUSH1 0x4 DUP3 ADD MSTORE PUSH1 0x11 PUSH1 0x24 DUP3 ADD MSTORE PUSH17 0x496E76616C696420647261772074696D65 PUSH1 0x78 SHL PUSH1 0x44 DUP3 ADD MSTORE PUSH1 0x64 ADD PUSH2 0xA1E JUMP JUMPDEST PUSH0 PUSH1 0x2 PUSH0 PUSH1 0x3 PUSH0 DUP2 SLOAD PUSH2 0xFEC SWAP1 PUSH2 0x25F6 JUMP JUMPDEST SWAP2 DUP3 SWAP1 SSTORE POP DUP2 MSTORE PUSH1 0x20 DUP1 DUP3 ADD SWAP3 SWAP1 SWAP3 MSTORE PUSH1 0x40 SWAP1 DUP2 ADD PUSH0 KECCAK256 DUP1 SLOAD PUSH1 0x1 PUSH1 0x1 PUSH1 0xA0 SHL SUB NOT AND PUSH1 0x1 PUSH1 0x1 PUSH1 0xA0 SHL SUB DUP14 AND OR DUP2 SSTORE PUSH1 0x1 DUP1 DUP3 ADD DUP13 SWAP1 SSTORE PUSH1 0x2 DUP3 ADD DUP12 SWAP1 SSTORE PUSH1 0x3 DUP1 DUP4 ADD DUP12 SWAP1 SSTORE PUSH1 0x4 DUP4 ADD DUP11 SWAP1 SSTORE PUSH1 0x5 DUP4 ADD DUP10 SWAP1 SSTORE PUSH1 0x6 DUP4 ADD DUP9 SWAP1 SSTORE PUSH1 0x7 DUP4 ADD DUP8 SWAP1 SSTORE PUSH1 0x8 DUP4 ADD DUP1 SLOAD PUSH1 0xFF NOT AND SWAP1 SWAP3 OR SWAP1 SWAP2 SSTORE SLOAD SWAP2 MLOAD SWAP2 DUP3 MSTORE SWAP3 POP PUSH32 0x9E0023BEBCC752BAAA41057318405B5A6A8E9C6372B519717CFDF238E5CAA795 SWAP2 ADD PUSH1 0x40 MLOAD DUP1 SWAP2 SUB SWAP1 LOG1 POP POP POP POP POP POP POP POP POP JUMP JUMPDEST PUSH2 0x10A5 PUSH2 0x19A6 JUMP JUMPDEST PUSH0 DUP2 DUP2 MSTORE PUSH1 0x2 PUSH1 0x20 MSTORE PUSH1 0x40 SWAP1 KECCAK256 PUSH1 0x8 DUP2 ADD SLOAD PUSH3 0x10000 SWAP1 DIV PUSH1 0xFF AND ISZERO DUP1 ISZERO PUSH2 0x10D7 JUMPI POP PUSH1 0x8 DUP2 ADD SLOAD PUSH2 0x100 SWAP1 DIV PUSH1 0xFF AND ISZERO JUMPDEST PUSH2 0x1117 JUMPI PUSH1 0x40 MLOAD PUSH3 0x461BCD PUSH1 0xE5 SHL DUP2 MSTORE PUSH1 0x20 PUSH1 0x4 DUP3 ADD MSTORE PUSH1 0x11 PUSH1 0x24 DUP3 ADD MSTORE PUSH17 0x105B1C9958591E48199A5B985B1A5E9959 PUSH1 0x7A SHL PUSH1 0x44 DUP3 ADD MSTORE PUSH1 0x64 ADD PUSH2 0xA1E JUMP JUMPDEST PUSH1 0x8 DUP2 ADD DUP1 SLOAD PUSH3 0xFF0000 NOT AND PUSH3 0x10000 OR SWAP1 SSTORE PUSH1 0x40 MLOAD PUSH32 0xC3DAC690CF4C3AE8964F18B8F09F7F9A75D3962A8CBB7CD689DF2C291BB5B2DD SWAP1 PUSH2 0x115C SWAP1 DUP5 DUP2 MSTORE PUSH1 0x20 ADD SWAP1 JUMP JUMPDEST PUSH1 0x40 MLOAD DUP1 SWAP2 SUB SWAP1 LOG1 POP POP JUMP JUMPDEST PUSH2 0x1170 PUSH2 0x1CF3 JUMP JUMPDEST PUSH2 0x1179 DUP3 PUSH2 0x1D97 JUMP JUMPDEST PUSH2 0xA31 DUP3 DUP3 PUSH2 0x1D9F JUMP JUMPDEST PUSH0 PUSH2 0x118C PUSH2 0x1E5B JUMP JUMPDEST POP PUSH0 MLOAD PUSH1 0x20 PUSH2 0x26EA PUSH0 CODECOPY PUSH0 MLOAD SWAP1 PUSH0 MSTORE SWAP1 JUMP JUMPDEST PUSH2 0x11A6 PUSH2 0x1C9C JUMP JUMPDEST PUSH0 DUP2 DUP2 MSTORE PUSH1 0x2 PUSH1 0x20 MSTORE PUSH1 0x40 SWAP1 KECCAK256 PUSH1 0x8 DUP2 ADD SLOAD PUSH3 0x10000 SWAP1 DIV PUSH1 0xFF AND DUP1 PUSH2 0x11ED JUMPI POP PUSH1 0x8 DUP2 ADD SLOAD PUSH2 0x100 SWAP1 DIV PUSH1 0xFF AND DUP1 ISZERO PUSH2 0x11ED JUMPI POP PUSH1 0xA DUP2 ADD SLOAD PUSH1 0x1 PUSH1 0x1 PUSH1 0xA0 SHL SUB AND CALLER EQ ISZERO JUMPDEST PUSH2 0x1228 JUMPI PUSH1 0x40 MLOAD PUSH3 0x461BCD PUSH1 0xE5 SHL DUP2 MSTORE PUSH1 0x20 PUSH1 0x4 DUP3 ADD MSTORE PUSH1 0xC PUSH1 0x24 DUP3 ADD MSTORE PUSH12 0x4E6F7420656C696769626C65 PUSH1 0xA0 SHL PUSH1 0x44 DUP3 ADD MSTORE PUSH1 0x64 ADD PUSH2 0xA1E JUMP JUMPDEST CALLER PUSH0 SWAP1 DUP2 MSTORE PUSH1 0xE DUP3 ADD PUSH1 0x20 MSTORE PUSH1 0x40 SWAP1 KECCAK256 SLOAD PUSH1 0xFF AND ISZERO PUSH2 0x127C JUMPI PUSH1 0x40 MLOAD PUSH3 0x461BCD PUSH1 0xE5 SHL DUP2 MSTORE PUSH1 0x20 PUSH1 0x4 DUP3 ADD MSTORE PUSH1 0x10 PUSH1 0x24 DUP3 ADD MSTORE PUSH16 0x105B1C9958591E481C99599D5B991959 PUSH1 0x82 SHL PUSH1 0x44 DUP3 ADD MSTORE PUSH1 0x64 ADD PUSH2 0xA1E JUMP JUMPDEST CALLER PUSH0 SWAP1 DUP2 MSTORE PUSH1 0xC DUP3 ADD PUSH1 0x20 MSTORE PUSH1 0x40 SWAP1 KECCAK256 SLOAD PUSH2 0x12C6 JUMPI PUSH1 0x40 MLOAD PUSH3 0x461BCD PUSH1 0xE5 SHL DUP2 MSTORE PUSH1 0x20 PUSH1 0x4 DUP3 ADD MSTORE PUSH1 0xA PUSH1 0x24 DUP3 ADD MSTORE PUSH10 0x4E6F20656E7472696573 PUSH1 0xB0 SHL PUSH1 0x44 DUP3 ADD MSTORE PUSH1 0x64 ADD PUSH2 0xA1E JUMP JUMPDEST CALLER PUSH0 SWAP1 DUP2 MSTORE PUSH1 0xE DUP3 ADD PUSH1 0x20 SWAP1 DUP2 MSTORE PUSH1 0x40 DUP1 DUP4 KECCAK256 DUP1 SLOAD PUSH1 0xFF NOT AND PUSH1 0x1 OR SWAP1 SSTORE PUSH1 0xC DUP5 ADD SWAP1 SWAP2 MSTORE DUP2 KECCAK256 SLOAD PUSH1 0x2 DUP4 ADD SLOAD PUSH2 0x12FD SWAP2 SWAP1 PUSH2 0x260E JUMP JUMPDEST DUP3 SLOAD PUSH1 0x40 MLOAD PUSH4 0xA9059CBB PUSH1 0xE0 SHL DUP2 MSTORE CALLER PUSH1 0x4 DUP3 ADD MSTORE PUSH1 0x24 DUP2 ADD DUP4 SWAP1 MSTORE SWAP2 SWAP3 POP PUSH1 0x1 PUSH1 0x1 PUSH1 0xA0 SHL SUB AND SWAP1 PUSH4 0xA9059CBB SWAP1 PUSH1 0x44 ADD PUSH1 0x20 PUSH1 0x40 MLOAD DUP1 DUP4 SUB DUP2 PUSH0 DUP8 GAS CALL ISZERO DUP1 ISZERO PUSH2 0x134B JUMPI RETURNDATASIZE PUSH0 PUSH0 RETURNDATACOPY RETURNDATASIZE PUSH0 REVERT JUMPDEST POP POP POP POP PUSH1 0x40 MLOAD RETURNDATASIZE PUSH1 0x1F NOT PUSH1 0x1F DUP3 ADD AND DUP3 ADD DUP1 PUSH1 0x40 MSTORE POP DUP2 ADD SWAP1 PUSH2 0x136F SWAP2 SWAP1 PUSH2 0x25D7 JUMP JUMPDEST POP POP POP PUSH2 0xF4C PUSH1 0x1 PUSH0 SSTORE JUMP JUMPDEST PUSH2 0x1383 PUSH2 0x19A6 JUMP JUMPDEST PUSH0 DUP2 DUP2 MSTORE PUSH1 0x2 PUSH1 0x20 MSTORE PUSH1 0x40 SWAP1 KECCAK256 PUSH1 0x4 DUP2 ADD SLOAD TIMESTAMP LT ISZERO PUSH2 0x13D0 JUMPI PUSH1 0x40 MLOAD PUSH3 0x461BCD PUSH1 0xE5 SHL DUP2 MSTORE PUSH1 0x20 PUSH1 0x4 DUP3 ADD MSTORE PUSH1 0x9 PUSH1 0x24 DUP3 ADD MSTORE PUSH9 0x546F6F206561726C79 PUSH1 0xB8 SHL PUSH1 0x44 DUP3 ADD MSTORE PUSH1 0x64 ADD PUSH2 0xA1E JUMP JUMPDEST PUSH1 0x8 DUP2 ADD SLOAD PUSH2 0x100 SWAP1 DIV PUSH1 0xFF AND ISZERO DUP1 ISZERO PUSH2 0x13F5 JUMPI POP PUSH1 0x8 DUP2 ADD SLOAD PUSH3 0x10000 SWAP1 DIV PUSH1 0xFF AND ISZERO JUMPDEST PUSH2 0x1441 JUMPI PUSH1 0x40 MLOAD PUSH3 0x461BCD PUSH1 0xE5 SHL DUP2 MSTORE PUSH1 0x20 PUSH1 0x4 DUP3 ADD MSTORE PUSH1 0x1A PUSH1 0x24 DUP3 ADD MSTORE PUSH32 0x416C726561647920647261776E206F722063616E63656C6C6564000000000000 PUSH1 0x44 DUP3 ADD MSTORE PUSH1 0x64 ADD PUSH2 0xA1E JUMP JUMPDEST PUSH1 0x9 DUP2 ADD SLOAD PUSH2 0x1484 JUMPI PUSH1 0x40 MLOAD PUSH3 0x461BCD PUSH1 0xE5 SHL DUP2 MSTORE PUSH1 0x20 PUSH1 0x4 DUP3 ADD MSTORE PUSH1 0xF PUSH1 0x24 DUP3 ADD MSTORE PUSH15 0x4E6F207061727469636970616E7473 PUSH1 0x88 SHL PUSH1 0x44 DUP3 ADD MSTORE PUSH1 0x64 ADD PUSH2 0xA1E JUMP JUMPDEST PUSH1 0x9 SLOAD PUSH1 0x40 DUP1 MLOAD PUSH1 0xC0 DUP2 ADD DUP3 MSTORE PUSH1 0x6 SLOAD DUP2 MSTORE PUSH1 0x8 SLOAD PUSH1 0x20 DUP1 DUP4 ADD SWAP2 SWAP1 SWAP2 MSTORE PUSH1 0x7 SLOAD PUSH2 0xFFFF PUSH5 0x100000000 DUP3 DIV AND DUP4 DUP6 ADD MSTORE PUSH4 0xFFFFFFFF DUP1 DUP3 AND PUSH1 0x60 DUP6 ADD MSTORE PUSH7 0x1000000000000 SWAP1 SWAP2 DIV AND PUSH1 0x80 DUP4 ADD MSTORE DUP3 MLOAD SWAP1 DUP2 ADD SWAP1 SWAP3 MSTORE PUSH0 DUP1 DUP4 MSTORE SWAP3 PUSH1 0x1 PUSH1 0x1 PUSH1 0xA0 SHL SUB AND SWAP2 PUSH4 0x9B1C385E SWAP2 SWAP1 PUSH1 0xA0 DUP3 ADD SWAP1 PUSH2 0x14FF SWAP1 PUSH2 0x1EA4 JUMP JUMPDEST DUP2 MSTORE POP PUSH1 0x40 MLOAD DUP3 PUSH4 0xFFFFFFFF AND PUSH1 0xE0 SHL DUP2 MSTORE PUSH1 0x4 ADD PUSH2 0x151E SWAP2 SWAP1 PUSH2 0x2625 JUMP JUMPDEST PUSH1 0x20 PUSH1 0x40 MLOAD DUP1 DUP4 SUB DUP2 PUSH0 DUP8 GAS CALL ISZERO DUP1 ISZERO PUSH2 0x153A JUMPI RETURNDATASIZE PUSH0 PUSH0 RETURNDATACOPY RETURNDATASIZE PUSH0 REVERT JUMPDEST POP POP POP POP PUSH1 0x40 MLOAD RETURNDATASIZE PUSH1 0x1F NOT PUSH1 0x1F DUP3 ADD AND DUP3 ADD DUP1 PUSH1 0x40 MSTORE POP DUP2 ADD SWAP1 PUSH2 0x155E SWAP2 SWAP1 PUSH2 0x2689 JUMP JUMPDEST PUSH0 DUP2 DUP2 MSTORE PUSH1 0xA PUSH1 0x20 MSTORE PUSH1 0x40 SWAP1 DUP2 SWAP1 KECCAK256 DUP6 SWAP1 SSTORE PUSH1 0x8 DUP5 ADD DUP1 SLOAD PUSH2 0xFF00 NOT AND PUSH2 0x100 OR SWAP1 SSTORE MLOAD SWAP1 SWAP2 POP PUSH32 0x600253EAE67A5C51C82A7123372E8644F16009C6304E18F844CF86FDC40C24D7 SWAP1 PUSH2 0x15BD SWAP1 DUP6 SWAP1 DUP5 SWAP1 SWAP2 DUP3 MSTORE PUSH1 0x20 DUP3 ADD MSTORE PUSH1 0x40 ADD SWAP1 JUMP JUMPDEST PUSH1 0x40 MLOAD DUP1 SWAP2 SUB SWAP1 LOG1 POP POP POP JUMP JUMPDEST PUSH2 0x15D2 PUSH2 0x19A6 JUMP JUMPDEST PUSH2 0x15DB PUSH0 PUSH2 0x1F15 JUMP JUMPDEST JUMP JUMPDEST PUSH0 DUP2 DUP2 MSTORE PUSH1 0x2 PUSH1 0x20 SWAP1 DUP2 MSTORE PUSH1 0x40 DUP1 DUP4 KECCAK256 CALLER DUP5 MSTORE PUSH1 0xF DUP2 ADD SWAP1 SWAP3 MSTORE SWAP1 SWAP2 KECCAK256 SLOAD PUSH1 0xFF AND ISZERO PUSH2 0x163B JUMPI PUSH1 0x40 MLOAD PUSH3 0x461BCD PUSH1 0xE5 SHL DUP2 MSTORE PUSH1 0x20 PUSH1 0x4 DUP3 ADD MSTORE PUSH1 0xD PUSH1 0x24 DUP3 ADD MSTORE PUSH13 0x105B1C9958591E481D9BDD1959 PUSH1 0x9A SHL PUSH1 0x44 DUP3 ADD MSTORE PUSH1 0x64 ADD PUSH2 0xA1E JUMP JUMPDEST CALLER PUSH0 SWAP1 DUP2 MSTORE PUSH1 0xC DUP3 ADD PUSH1 0x20 MSTORE PUSH1 0x40 SWAP1 KECCAK256 SLOAD PUSH2 0x1689 JUMPI PUSH1 0x40 MLOAD PUSH3 0x461BCD PUSH1 0xE5 SHL DUP2 MSTORE PUSH1 0x20 PUSH1 0x4 DUP3 ADD MSTORE PUSH1 0xE PUSH1 0x24 DUP3 ADD MSTORE PUSH14 0x4E6F7420696E206C6F7474657279 PUSH1 0x90 SHL PUSH1 0x44 DUP3 ADD MSTORE PUSH1 0x64 ADD PUSH2 0xA1E JUMP JUMPDEST CALLER PUSH0 SWAP1 DUP2 MSTORE PUSH1 0xF DUP3 ADD PUSH1 0x20 MSTORE PUSH1 0x40 DUP2 KECCAK256 DUP1 SLOAD PUSH1 0xFF NOT AND PUSH1 0x1 OR SWAP1 SSTORE PUSH1 0xB DUP3 ADD DUP1 SLOAD SWAP2 PUSH2 0x16B4 DUP4 PUSH2 0x25F6 JUMP JUMPDEST SWAP1 SWAP2 SSTORE POP POP PUSH1 0x9 DUP2 ADD SLOAD PUSH2 0x16C9 SWAP1 PUSH1 0x2 PUSH2 0x260E JUMP JUMPDEST PUSH1 0xB DUP3 ADD SLOAD PUSH2 0x16D9 SWAP1 PUSH1 0x3 PUSH2 0x260E JUMP JUMPDEST LT PUSH2 0xA31 JUMPI PUSH1 0x8 DUP2 ADD DUP1 SLOAD PUSH3 0xFF0000 NOT AND PUSH3 0x10000 OR SWAP1 SSTORE PUSH1 0x40 MLOAD PUSH32 0xC3DAC690CF4C3AE8964F18B8F09F7F9A75D3962A8CBB7CD689DF2C291BB5B2DD SWAP1 PUSH2 0x115C SWAP1 DUP5 DUP2 MSTORE PUSH1 0x20 ADD SWAP1 JUMP JUMPDEST PUSH2 0x172B PUSH2 0x19A6 JUMP JUMPDEST PUSH0 DUP2 DUP2 MSTORE PUSH1 0x2 PUSH1 0x20 DUP2 SWAP1 MSTORE PUSH1 0x40 DUP3 KECCAK256 DUP1 SLOAD PUSH1 0x1 PUSH1 0x1 PUSH1 0xA0 SHL SUB NOT AND DUP2 SSTORE PUSH1 0x1 DUP2 ADD DUP4 SWAP1 SSTORE SWAP1 DUP2 ADD DUP3 SWAP1 SSTORE PUSH1 0x3 DUP2 ADD DUP3 SWAP1 SSTORE PUSH1 0x4 DUP2 ADD DUP3 SWAP1 SSTORE PUSH1 0x5 DUP2 ADD DUP3 SWAP1 SSTORE PUSH1 0x6 DUP2 ADD DUP3 SWAP1 SSTORE PUSH1 0x7 DUP2 ADD DUP3 SWAP1 SSTORE PUSH1 0x8 DUP2 ADD DUP1 SLOAD PUSH3 0xFFFFFF NOT AND SWAP1 SSTORE SWAP1 PUSH2 0x1794 PUSH1 0x9 DUP4 ADD DUP3 PUSH2 0x219C JUMP JUMPDEST POP PUSH1 0xA DUP2 ADD DUP1 SLOAD PUSH1 0x1 PUSH1 0x1 PUSH1 0xA0 SHL SUB NOT AND SWAP1 SSTORE PUSH0 PUSH1 0xB SWAP1 SWAP2 ADD SSTORE POP JUMP JUMPDEST PUSH0 DUP2 DUP2 MSTORE PUSH1 0x2 PUSH1 0x20 SWAP1 DUP2 MSTORE PUSH1 0x40 SWAP2 DUP3 SWAP1 KECCAK256 PUSH1 0x9 ADD DUP1 SLOAD DUP4 MLOAD DUP2 DUP5 MUL DUP2 ADD DUP5 ADD SWAP1 SWAP5 MSTORE DUP1 DUP5 MSTORE PUSH1 0x60 SWAP4 SWAP3 DUP4 ADD DUP3 DUP3 DUP1 ISZERO PUSH2 0x1811 JUMPI PUSH1 0x20 MUL DUP3 ADD SWAP2 SWAP1 PUSH0 MSTORE PUSH1 0x20 PUSH0 KECCAK256 SWAP1 JUMPDEST DUP2 SLOAD PUSH1 0x1 PUSH1 0x1 PUSH1 0xA0 SHL SUB AND DUP2 MSTORE PUSH1 0x1 SWAP1 SWAP2 ADD SWAP1 PUSH1 0x20 ADD DUP1 DUP4 GT PUSH2 0x17F3 JUMPI JUMPDEST POP POP POP POP POP SWAP1 POP SWAP2 SWAP1 POP JUMP JUMPDEST PUSH2 0x1825 PUSH2 0x1C9C JUMP JUMPDEST PUSH0 DUP2 DUP2 MSTORE PUSH1 0x2 PUSH1 0x20 MSTORE PUSH1 0x40 SWAP1 KECCAK256 PUSH1 0xA DUP2 ADD SLOAD PUSH1 0x1 PUSH1 0x1 PUSH1 0xA0 SHL SUB AND CALLER EQ PUSH2 0x187B JUMPI PUSH1 0x40 MLOAD PUSH3 0x461BCD PUSH1 0xE5 SHL DUP2 MSTORE PUSH1 0x20 PUSH1 0x4 DUP3 ADD MSTORE PUSH1 0xA PUSH1 0x24 DUP3 ADD MSTORE PUSH10 0x2737BA103BB4B73732B9 PUSH1 0xB1 SHL PUSH1 0x44 DUP3 ADD MSTORE PUSH1 0x64 ADD PUSH2 0xA1E JUMP JUMPDEST CALLER PUSH0 SWAP1 DUP2 MSTORE PUSH1 0xD DUP3 ADD PUSH1 0x20 MSTORE PUSH1 0x40 SWAP1 KECCAK256 SLOAD PUSH1 0xFF AND ISZERO PUSH2 0x18CE JUMPI PUSH1 0x40 MLOAD PUSH3 0x461BCD PUSH1 0xE5 SHL DUP2 MSTORE PUSH1 0x20 PUSH1 0x4 DUP3 ADD MSTORE PUSH1 0xF PUSH1 0x24 DUP3 ADD MSTORE PUSH15 0x105B1C9958591E4818DB185A5B5959 PUSH1 0x8A SHL PUSH1 0x44 DUP3 ADD MSTORE PUSH1 0x64 ADD PUSH2 0xA1E JUMP JUMPDEST CALLER PUSH0 DUP2 DUP2 MSTORE PUSH1 0xD DUP4 ADD PUSH1 0x20 MSTORE PUSH1 0x40 SWAP1 DUP2 SWAP1 KECCAK256 DUP1 SLOAD PUSH1 0xFF NOT AND PUSH1 0x1 OR SWAP1 SSTORE DUP3 SLOAD PUSH1 0x5 DUP5 ADD SLOAD SWAP2 MLOAD PUSH4 0xA9059CBB PUSH1 0xE0 SHL DUP2 MSTORE PUSH1 0x4 DUP2 ADD SWAP4 SWAP1 SWAP4 MSTORE PUSH1 0x24 DUP4 ADD SWAP2 SWAP1 SWAP2 MSTORE PUSH1 0x1 PUSH1 0x1 PUSH1 0xA0 SHL SUB AND SWAP1 PUSH4 0xA9059CBB SWAP1 PUSH1 0x44 ADD PUSH1 0x20 PUSH1 0x40 MLOAD DUP1 DUP4 SUB DUP2 PUSH0 DUP8 GAS CALL ISZERO DUP1 ISZERO PUSH2 0x193D JUMPI RETURNDATASIZE PUSH0 PUSH0 RETURNDATACOPY RETURNDATASIZE PUSH0 REVERT JUMPDEST POP POP POP POP PUSH1 0x40 MLOAD RETURNDATASIZE PUSH1 0x1F NOT PUSH1 0x1F DUP3 ADD AND DUP3 ADD DUP1 PUSH1 0x40 MSTORE POP DUP2 ADD SWAP1 PUSH2 0x1961 SWAP2 SWAP1 PUSH2 0x25D7 JUMP JUMPDEST POP POP PUSH2 0xF4C PUSH1 0x1 PUSH0 SSTORE JUMP JUMPDEST PUSH2 0x1974 PUSH2 0x19A6 JUMP JUMPDEST PUSH1 0x1 PUSH1 0x1 PUSH1 0xA0 SHL SUB DUP2 AND PUSH2 0x199D JUMPI PUSH1 0x40 MLOAD PUSH4 0x1E4FBDF7 PUSH1 0xE0 SHL DUP2 MSTORE PUSH0 PUSH1 0x4 DUP3 ADD MSTORE PUSH1 0x24 ADD PUSH2 0xA1E JUMP JUMPDEST PUSH2 0xF4C DUP2 PUSH2 0x1F15 JUMP JUMPDEST CALLER PUSH2 0x19D8 PUSH32 0x9016D09D72D40FDAE2FD8CEAC6B6234C7706214FD39C1CD1E609A0528C199300 SLOAD PUSH1 0x1 PUSH1 0x1 PUSH1 0xA0 SHL SUB AND SWAP1 JUMP JUMPDEST PUSH1 0x1 PUSH1 0x1 PUSH1 0xA0 SHL SUB AND EQ PUSH2 0x15DB JUMPI PUSH1 0x40 MLOAD PUSH4 0x118CDAA7 PUSH1 0xE0 SHL DUP2 MSTORE CALLER PUSH1 0x4 DUP3 ADD MSTORE PUSH1 0x24 ADD PUSH2 0xA1E JUMP JUMPDEST PUSH0 DUP3 DUP2 MSTORE PUSH1 0xA PUSH1 0x20 SWAP1 DUP2 MSTORE PUSH1 0x40 DUP1 DUP4 KECCAK256 SLOAD DUP1 DUP5 MSTORE PUSH1 0x2 SWAP1 SWAP3 MSTORE SWAP1 SWAP2 KECCAK256 PUSH1 0x8 DUP2 ADD SLOAD PUSH2 0x100 SWAP1 DIV PUSH1 0xFF AND DUP1 ISZERO PUSH2 0x1A41 JUMPI POP PUSH1 0xA DUP2 ADD SLOAD PUSH1 0x1 PUSH1 0x1 PUSH1 0xA0 SHL SUB AND ISZERO JUMPDEST PUSH2 0x1A81 JUMPI PUSH1 0x40 MLOAD PUSH3 0x461BCD PUSH1 0xE5 SHL DUP2 MSTORE PUSH1 0x20 PUSH1 0x4 DUP3 ADD MSTORE PUSH1 0x11 PUSH1 0x24 DUP3 ADD MSTORE PUSH17 0x105B1C9958591E48199D5B199A5B1B1959 PUSH1 0x7A SHL PUSH1 0x44 DUP3 ADD MSTORE PUSH1 0x64 ADD PUSH2 0xA1E JUMP JUMPDEST PUSH0 DUP2 PUSH1 0x9 ADD DUP1 SLOAD SWAP1 POP DUP5 PUSH0 DUP2 MLOAD DUP2 LT PUSH2 0x1A9C JUMPI PUSH2 0x1A9C PUSH2 0x26A0 JUMP JUMPDEST PUSH1 0x20 MUL PUSH1 0x20 ADD ADD MLOAD PUSH2 0x1AAE SWAP2 SWAP1 PUSH2 0x26B4 JUMP JUMPDEST SWAP1 POP DUP2 PUSH1 0x9 ADD DUP2 DUP2 SLOAD DUP2 LT PUSH2 0x1AC5 JUMPI PUSH2 0x1AC5 PUSH2 0x26A0 JUMP JUMPDEST PUSH0 SWAP2 DUP3 MSTORE PUSH1 0x20 SWAP1 SWAP2 KECCAK256 ADD SLOAD PUSH1 0xA DUP4 ADD DUP1 SLOAD PUSH1 0x1 PUSH1 0x1 PUSH1 0xA0 SHL SUB NOT AND PUSH1 0x1 PUSH1 0x1 PUSH1 0xA0 SHL SUB SWAP3 DUP4 AND OR SWAP1 SSTORE DUP3 SLOAD PUSH1 0x4 DUP1 SLOAD PUSH1 0x6 DUP7 ADD SLOAD PUSH1 0x40 MLOAD PUSH4 0xA9059CBB PUSH1 0xE0 SHL DUP2 MSTORE SWAP2 DUP6 AND SWAP3 DUP3 ADD SWAP3 SWAP1 SWAP3 MSTORE PUSH1 0x24 DUP2 ADD SWAP2 SWAP1 SWAP2 MSTORE SWAP2 AND SWAP1 DUP2 SWAP1 PUSH4 0xA9059CBB SWAP1 PUSH1 0x44 ADD PUSH1 0x20 PUSH1 0x40 MLOAD DUP1 DUP4 SUB DUP2 PUSH0 DUP8 GAS CALL ISZERO DUP1 ISZERO PUSH2 0x1B42 JUMPI RETURNDATASIZE PUSH0 PUSH0 RETURNDATACOPY RETURNDATASIZE PUSH0 REVERT JUMPDEST POP POP POP POP PUSH1 0x40 MLOAD RETURNDATASIZE PUSH1 0x1F NOT PUSH1 0x1F DUP3 ADD AND DUP3 ADD DUP1 PUSH1 0x40 MSTORE POP DUP2 ADD SWAP1 PUSH2 0x1B66 SWAP2 SWAP1 PUSH2 0x25D7 JUMP JUMPDEST POP PUSH1 0x5 SLOAD PUSH1 0x7 DUP5 ADD SLOAD PUSH1 0x40 MLOAD PUSH4 0xA9059CBB PUSH1 0xE0 SHL DUP2 MSTORE PUSH1 0x1 PUSH1 0x1 PUSH1 0xA0 SHL SUB SWAP3 DUP4 AND PUSH1 0x4 DUP3 ADD MSTORE PUSH1 0x24 DUP2 ADD SWAP2 SWAP1 SWAP2 MSTORE SWAP1 DUP3 AND SWAP1 PUSH4 0xA9059CBB SWAP1 PUSH1 0x44 ADD PUSH1 0x20 PUSH1 0x40 MLOAD DUP1 DUP4 SUB DUP2 PUSH0 DUP8 GAS CALL ISZERO DUP1 ISZERO PUSH2 0x1BBD JUMPI RETURNDATASIZE PUSH0 PUSH0 RETURNDATACOPY RETURNDATASIZE PUSH0 REVERT JUMPDEST POP POP POP POP PUSH1 0x40 MLOAD RETURNDATASIZE PUSH1 0x1F NOT PUSH1 0x1F DUP3 ADD AND DUP3 ADD DUP1 PUSH1 0x40 MSTORE POP DUP2 ADD SWAP1 PUSH2 0x1BE1 SWAP2 SWAP1 PUSH2 0x25D7 JUMP JUMPDEST POP PUSH1 0xA DUP4 ADD SLOAD PUSH1 0x40 DUP1 MLOAD DUP7 DUP2 MSTORE PUSH1 0x1 PUSH1 0x1 PUSH1 0xA0 SHL SUB SWAP1 SWAP3 AND PUSH1 0x20 DUP4 ADD MSTORE PUSH32 0x3FB57EB449654E24E1B240D3D06702CF79362A065D5C0323AEE642D4702FA4B SWAP2 ADD PUSH1 0x40 MLOAD DUP1 SWAP2 SUB SWAP1 LOG1 POP POP POP POP POP POP JUMP JUMPDEST PUSH0 DUP1 PUSH32 0xF0C57E16840DF040F15088DC2F81FE391C3923BEC73E23A9662EFC9C229C6A00 PUSH2 0x86A JUMP JUMPDEST PUSH2 0x1C61 PUSH2 0x1F85 JUMP JUMPDEST PUSH2 0xF4C DUP2 PUSH2 0x1FAA JUMP JUMPDEST PUSH2 0x15DB PUSH2 0x1F85 JUMP JUMPDEST PUSH2 0x1C7A PUSH2 0x1F85 JUMP JUMPDEST PUSH1 0x1 DUP1 SLOAD PUSH1 0x1 PUSH1 0x1 PUSH1 0xA0 SHL SUB NOT AND PUSH1 0x1 PUSH1 0x1 PUSH1 0xA0 SHL SUB SWAP3 SWAP1 SWAP3 AND SWAP2 SWAP1 SWAP2 OR SWAP1 SSTORE JUMP JUMPDEST PUSH1 0x2 PUSH0 SLOAD SUB PUSH2 0x1CED JUMPI PUSH1 0x40 MLOAD PUSH3 0x461BCD PUSH1 0xE5 SHL DUP2 MSTORE PUSH1 0x20 PUSH1 0x4 DUP3 ADD MSTORE PUSH1 0x1F PUSH1 0x24 DUP3 ADD MSTORE PUSH32 0x5265656E7472616E637947756172643A207265656E7472616E742063616C6C00 PUSH1 0x44 DUP3 ADD MSTORE PUSH1 0x64 ADD PUSH2 0xA1E JUMP JUMPDEST PUSH1 0x2 PUSH0 SSTORE JUMP JUMPDEST ADDRESS PUSH1 0x1 PUSH1 0x1 PUSH1 0xA0 SHL SUB PUSH32 0x0 AND EQ DUP1 PUSH2 0x1D79 JUMPI POP PUSH32 0x0 PUSH1 0x1 PUSH1 0x1 PUSH1 0xA0 SHL SUB AND PUSH2 0x1D6D PUSH0 MLOAD PUSH1 0x20 PUSH2 0x26EA PUSH0 CODECOPY PUSH0 MLOAD SWAP1 PUSH0 MSTORE SLOAD PUSH1 0x1 PUSH1 0x1 PUSH1 0xA0 SHL SUB AND SWAP1 JUMP JUMPDEST PUSH1 0x1 PUSH1 0x1 PUSH1 0xA0 SHL SUB AND EQ ISZERO JUMPDEST ISZERO PUSH2 0x15DB JUMPI PUSH1 0x40 MLOAD PUSH4 0x703E46DD PUSH1 0xE1 SHL DUP2 MSTORE PUSH1 0x4 ADD PUSH1 0x40 MLOAD DUP1 SWAP2 SUB SWAP1 REVERT JUMPDEST PUSH2 0xF4C PUSH2 0x19A6 JUMP JUMPDEST DUP2 PUSH1 0x1 PUSH1 0x1 PUSH1 0xA0 SHL SUB AND PUSH4 0x52D1902D PUSH1 0x40 MLOAD DUP2 PUSH4 0xFFFFFFFF AND PUSH1 0xE0 SHL DUP2 MSTORE PUSH1 0x4 ADD PUSH1 0x20 PUSH1 0x40 MLOAD DUP1 DUP4 SUB DUP2 DUP7 GAS STATICCALL SWAP3 POP POP POP DUP1 ISZERO PUSH2 0x1DF9 JUMPI POP PUSH1 0x40 DUP1 MLOAD PUSH1 0x1F RETURNDATASIZE SWAP1 DUP2 ADD PUSH1 0x1F NOT AND DUP3 ADD SWAP1 SWAP3 MSTORE PUSH2 0x1DF6 SWAP2 DUP2 ADD SWAP1 PUSH2 0x2689 JUMP JUMPDEST PUSH1 0x1 JUMPDEST PUSH2 0x1E21 JUMPI PUSH1 0x40 MLOAD PUSH4 0x4C9C8CE3 PUSH1 0xE0 SHL DUP2 MSTORE PUSH1 0x1 PUSH1 0x1 PUSH1 0xA0 SHL SUB DUP4 AND PUSH1 0x4 DUP3 ADD MSTORE PUSH1 0x24 ADD PUSH2 0xA1E JUMP JUMPDEST PUSH0 MLOAD PUSH1 0x20 PUSH2 0x26EA PUSH0 CODECOPY PUSH0 MLOAD SWAP1 PUSH0 MSTORE DUP2 EQ PUSH2 0x1E51 JUMPI PUSH1 0x40 MLOAD PUSH4 0x2A875269 PUSH1 0xE2 SHL DUP2 MSTORE PUSH1 0x4 DUP2 ADD DUP3 SWAP1 MSTORE PUSH1 0x24 ADD PUSH2 0xA1E JUMP JUMPDEST PUSH2 0x83C DUP4 DUP4 PUSH2 0x1FB2 JUMP JUMPDEST ADDRESS PUSH1 0x1 PUSH1 0x1 PUSH1 0xA0 SHL SUB PUSH32 0x0 AND EQ PUSH2 0x15DB JUMPI PUSH1 0x40 MLOAD PUSH4 0x703E46DD PUSH1 0xE1 SHL DUP2 MSTORE PUSH1 0x4 ADD PUSH1 0x40 MLOAD DUP1 SWAP2 SUB SWAP1 REVERT JUMPDEST PUSH1 0x60 PUSH32 0x92FD13387C7FE7BEFBC38D303D6468778FB9731BC4583F17D92989C6FCFDEAAA DUP3 PUSH1 0x40 MLOAD PUSH1 0x24 ADD PUSH2 0x1EDD SWAP2 MLOAD ISZERO ISZERO DUP2 MSTORE PUSH1 0x20 ADD SWAP1 JUMP JUMPDEST PUSH1 0x40 DUP1 MLOAD PUSH1 0x1F NOT DUP2 DUP5 SUB ADD DUP2 MSTORE SWAP2 SWAP1 MSTORE PUSH1 0x20 DUP2 ADD DUP1 MLOAD PUSH1 0x1 PUSH1 0x1 PUSH1 0xE0 SHL SUB AND PUSH1 0x1 PUSH1 0x1 PUSH1 0xE0 SHL SUB NOT SWAP1 SWAP4 AND SWAP3 SWAP1 SWAP3 OR SWAP1 SWAP2 MSTORE SWAP3 SWAP2 POP POP JUMP JUMPDEST PUSH32 0x9016D09D72D40FDAE2FD8CEAC6B6234C7706214FD39C1CD1E609A0528C199300 DUP1 SLOAD PUSH1 0x1 PUSH1 0x1 PUSH1 0xA0 SHL SUB NOT DUP2 AND PUSH1 0x1 PUSH1 0x1 PUSH1 0xA0 SHL SUB DUP5 DUP2 AND SWAP2 DUP3 OR DUP5 SSTORE PUSH1 0x40 MLOAD SWAP3 AND SWAP2 DUP3 SWAP1 PUSH32 0x8BE0079C531659141344CD1FD0A4F28419497F9722A3DAAFE3B4186F6B6457E0 SWAP1 PUSH0 SWAP1 LOG3 POP POP POP JUMP JUMPDEST PUSH2 0x1F8D PUSH2 0x2007 JUMP JUMPDEST PUSH2 0x15DB JUMPI PUSH1 0x40 MLOAD PUSH4 0x1AFCD79F PUSH1 0xE3 SHL DUP2 MSTORE PUSH1 0x4 ADD PUSH1 0x40 MLOAD DUP1 SWAP2 SUB SWAP1 REVERT JUMPDEST PUSH2 0x1974 PUSH2 0x1F85 JUMP JUMPDEST PUSH2 0x1FBB DUP3 PUSH2 0x2020 JUMP JUMPDEST PUSH1 0x40 MLOAD PUSH1 0x1 PUSH1 0x1 PUSH1 0xA0 SHL SUB DUP4 AND SWAP1 PUSH32 0xBC7CD75A20EE27FD9ADEBAB32041F755214DBC6BFFA90CC0225B39DA2E5C2D3B SWAP1 PUSH0 SWAP1 LOG2 DUP1 MLOAD ISZERO PUSH2 0x1FFF JUMPI PUSH2 0x83C DUP3 DUP3 PUSH2 0x2083 JUMP JUMPDEST PUSH2 0xA31 PUSH2 0x20F5 JUMP JUMPDEST PUSH0 PUSH2 0x2010 PUSH2 0x1C31 JUMP JUMPDEST SLOAD PUSH1 0x1 PUSH1 0x40 SHL SWAP1 DIV PUSH1 0xFF AND SWAP2 SWAP1 POP JUMP JUMPDEST DUP1 PUSH1 0x1 PUSH1 0x1 PUSH1 0xA0 SHL SUB AND EXTCODESIZE PUSH0 SUB PUSH2 0x2055 JUMPI PUSH1 0x40 MLOAD PUSH4 0x4C9C8CE3 PUSH1 0xE0 SHL DUP2 MSTORE PUSH1 0x1 PUSH1 0x1 PUSH1 0xA0 SHL SUB DUP3 AND PUSH1 0x4 DUP3 ADD MSTORE PUSH1 0x24 ADD PUSH2 0xA1E JUMP JUMPDEST PUSH0 MLOAD PUSH1 0x20 PUSH2 0x26EA PUSH0 CODECOPY PUSH0 MLOAD SWAP1 PUSH0 MSTORE DUP1 SLOAD PUSH1 0x1 PUSH1 0x1 PUSH1 0xA0 SHL SUB NOT AND PUSH1 0x1 PUSH1 0x1 PUSH1 0xA0 SHL SUB SWAP3 SWAP1 SWAP3 AND SWAP2 SWAP1 SWAP2 OR SWAP1 SSTORE JUMP JUMPDEST PUSH1 0x60 PUSH0 PUSH0 DUP5 PUSH1 0x1 PUSH1 0x1 PUSH1 0xA0 SHL SUB AND DUP5 PUSH1 0x40 MLOAD PUSH2 0x209F SWAP2 SWAP1 PUSH2 0x26D3 JUMP JUMPDEST PUSH0 PUSH1 0x40 MLOAD DUP1 DUP4 SUB DUP2 DUP6 GAS DELEGATECALL SWAP2 POP POP RETURNDATASIZE DUP1 PUSH0 DUP2 EQ PUSH2 0x20D7 JUMPI PUSH1 0x40 MLOAD SWAP2 POP PUSH1 0x1F NOT PUSH1 0x3F RETURNDATASIZE ADD AND DUP3 ADD PUSH1 0x40 MSTORE RETURNDATASIZE DUP3 MSTORE RETURNDATASIZE PUSH0 PUSH1 0x20 DUP5 ADD RETURNDATACOPY PUSH2 0x20DC JUMP JUMPDEST PUSH1 0x60 SWAP2 POP JUMPDEST POP SWAP2 POP SWAP2 POP PUSH2 0x20EC DUP6 DUP4 DUP4 PUSH2 0x2114 JUMP JUMPDEST SWAP6 SWAP5 POP POP POP POP POP JUMP JUMPDEST CALLVALUE ISZERO PUSH2 0x15DB JUMPI PUSH1 0x40 MLOAD PUSH4 0xB398979F PUSH1 0xE0 SHL DUP2 MSTORE PUSH1 0x4 ADD PUSH1 0x40 MLOAD DUP1 SWAP2 SUB SWAP1 REVERT JUMPDEST PUSH1 0x60 DUP3 PUSH2 0x2129 JUMPI PUSH2 0x2124 DUP3 PUSH2 0x2173 JUMP JUMPDEST PUSH2 0x216C JUMP JUMPDEST DUP2 MLOAD ISZERO DUP1 ISZERO PUSH2 0x2140 JUMPI POP PUSH1 0x1 PUSH1 0x1 PUSH1 0xA0 SHL SUB DUP5 AND EXTCODESIZE ISZERO JUMPDEST ISZERO PUSH2 0x2169 JUMPI PUSH1 0x40 MLOAD PUSH4 0x9996B315 PUSH1 0xE0 SHL DUP2 MSTORE PUSH1 0x1 PUSH1 0x1 PUSH1 0xA0 SHL SUB DUP6 AND PUSH1 0x4 DUP3 ADD MSTORE PUSH1 0x24 ADD PUSH2 0xA1E JUMP JUMPDEST POP DUP1 JUMPDEST SWAP4 SWAP3 POP POP POP JUMP JUMPDEST DUP1 MLOAD ISZERO PUSH2 0x2183 JUMPI DUP1 MLOAD DUP1 DUP3 PUSH1 0x20 ADD REVERT JUMPDEST PUSH1 0x40 MLOAD PUSH4 0xD6BDA275 PUSH1 0xE0 SHL DUP2 MSTORE PUSH1 0x4 ADD PUSH1 0x40 MLOAD DUP1 SWAP2 SUB SWAP1 REVERT JUMPDEST POP DUP1 SLOAD PUSH0 DUP3 SSTORE SWAP1 PUSH0 MSTORE PUSH1 0x20 PUSH0 KECCAK256 SWAP1 DUP2 ADD SWAP1 PUSH2 0xF4C SWAP2 SWAP1 JUMPDEST DUP1 DUP3 GT ISZERO PUSH2 0x21C6 JUMPI PUSH0 DUP2 SSTORE PUSH1 0x1 ADD PUSH2 0x21B3 JUMP JUMPDEST POP SWAP1 JUMP JUMPDEST PUSH0 PUSH0 PUSH0 PUSH1 0x40 DUP5 DUP7 SUB SLT ISZERO PUSH2 0x21DC JUMPI PUSH0 PUSH0 REVERT JUMPDEST DUP4 CALLDATALOAD SWAP3 POP PUSH1 0x20 DUP5 ADD CALLDATALOAD PUSH8 0xFFFFFFFFFFFFFFFF DUP2 GT ISZERO PUSH2 0x21F9 JUMPI PUSH0 PUSH0 REVERT JUMPDEST DUP5 ADD PUSH1 0x1F DUP2 ADD DUP7 SGT PUSH2 0x2209 JUMPI PUSH0 PUSH0 REVERT JUMPDEST DUP1 CALLDATALOAD PUSH8 0xFFFFFFFFFFFFFFFF DUP2 GT ISZERO PUSH2 0x221F JUMPI PUSH0 PUSH0 REVERT JUMPDEST DUP7 PUSH1 0x20 DUP3 PUSH1 0x5 SHL DUP5 ADD ADD GT ISZERO PUSH2 0x2233 JUMPI PUSH0 PUSH0 REVERT JUMPDEST SWAP4 SWAP7 PUSH1 0x20 SWAP2 SWAP1 SWAP2 ADD SWAP6 POP SWAP3 SWAP4 POP POP POP JUMP JUMPDEST DUP1 CALLDATALOAD PUSH1 0x1 PUSH1 0x1 PUSH1 0xA0 SHL SUB DUP2 AND DUP2 EQ PUSH2 0x225A JUMPI PUSH0 PUSH0 REVERT JUMPDEST SWAP2 SWAP1 POP JUMP JUMPDEST PUSH0 PUSH0 PUSH1 0x40 DUP4 DUP6 SUB SLT ISZERO PUSH2 0x2270 JUMPI PUSH0 PUSH0 REVERT JUMPDEST DUP3 CALLDATALOAD SWAP2 POP PUSH2 0x2280 PUSH1 0x20 DUP5 ADD PUSH2 0x2244 JUMP JUMPDEST SWAP1 POP SWAP3 POP SWAP3 SWAP1 POP JUMP JUMPDEST PUSH0 PUSH0 PUSH0 PUSH0 PUSH0 PUSH1 0xA0 DUP7 DUP9 SUB SLT ISZERO PUSH2 0x229D JUMPI PUSH0 PUSH0 REVERT JUMPDEST PUSH2 0x22A6 DUP7 PUSH2 0x2244 JUMP JUMPDEST SWAP5 POP PUSH1 0x20 DUP7 ADD CALLDATALOAD SWAP4 POP PUSH1 0x40 DUP7 ADD CALLDATALOAD SWAP3 POP PUSH2 0x22C2 PUSH1 0x60 DUP8 ADD PUSH2 0x2244 JUMP JUMPDEST SWAP2 POP PUSH2 0x22D0 PUSH1 0x80 DUP8 ADD PUSH2 0x2244 JUMP JUMPDEST SWAP1 POP SWAP3 SWAP6 POP SWAP3 SWAP6 SWAP1 SWAP4 POP JUMP JUMPDEST PUSH0 PUSH1 0x20 DUP3 DUP5 SUB SLT ISZERO PUSH2 0x22EC JUMPI PUSH0 PUSH0 REVERT JUMPDEST POP CALLDATALOAD SWAP2 SWAP1 POP JUMP JUMPDEST PUSH4 0x4E487B71 PUSH1 0xE0 SHL PUSH0 MSTORE PUSH1 0x41 PUSH1 0x4 MSTORE PUSH1 0x24 PUSH0 REVERT JUMPDEST PUSH1 0x40 MLOAD PUSH1 0x1F DUP3 ADD PUSH1 0x1F NOT AND DUP2 ADD PUSH8 0xFFFFFFFFFFFFFFFF DUP2 GT DUP3 DUP3 LT OR ISZERO PUSH2 0x2330 JUMPI PUSH2 0x2330 PUSH2 0x22F3 JUMP JUMPDEST PUSH1 0x40 MSTORE SWAP2 SWAP1 POP JUMP JUMPDEST PUSH0 PUSH0 PUSH1 0x40 DUP4 DUP6 SUB SLT ISZERO PUSH2 0x2349 JUMPI PUSH0 PUSH0 REVERT JUMPDEST DUP3 CALLDATALOAD SWAP2 POP PUSH1 0x20 DUP4 ADD CALLDATALOAD PUSH8 0xFFFFFFFFFFFFFFFF DUP2 GT ISZERO PUSH2 0x2366 JUMPI PUSH0 PUSH0 REVERT JUMPDEST DUP4 ADD PUSH1 0x1F DUP2 ADD DUP6 SGT PUSH2 0x2376 JUMPI PUSH0 PUSH0 REVERT JUMPDEST DUP1 CALLDATALOAD PUSH8 0xFFFFFFFFFFFFFFFF DUP2 GT ISZERO PUSH2 0x2390 JUMPI PUSH2 0x2390 PUSH2 0x22F3 JUMP JUMPDEST DUP1 PUSH1 0x5 SHL PUSH2 0x23A0 PUSH1 0x20 DUP3 ADD PUSH2 0x2307 JUMP JUMPDEST SWAP2 DUP3 MSTORE PUSH1 0x20 DUP2 DUP5 ADD DUP2 ADD SWAP3 SWAP1 DUP2 ADD SWAP1 DUP9 DUP5 GT ISZERO PUSH2 0x23BB JUMPI PUSH0 PUSH0 REVERT JUMPDEST PUSH1 0x20 DUP6 ADD SWAP5 POP JUMPDEST DUP4 DUP6 LT ISZERO PUSH2 0x23E1 JUMPI DUP5 CALLDATALOAD DUP1 DUP4 MSTORE PUSH1 0x20 SWAP6 DUP7 ADD SWAP6 SWAP1 SWAP4 POP SWAP1 SWAP2 ADD SWAP1 PUSH2 0x23C2 JUMP JUMPDEST DUP1 SWAP6 POP POP POP POP POP POP SWAP3 POP SWAP3 SWAP1 POP JUMP JUMPDEST PUSH0 PUSH0 PUSH1 0x40 DUP4 DUP6 SUB SLT ISZERO PUSH2 0x2401 JUMPI PUSH0 PUSH0 REVERT JUMPDEST POP POP DUP1 CALLDATALOAD SWAP3 PUSH1 0x20 SWAP1 SWAP2 ADD CALLDATALOAD SWAP2 POP JUMP JUMPDEST PUSH0 PUSH0 PUSH0 PUSH0 PUSH0 PUSH0 PUSH0 PUSH0 PUSH2 0x100 DUP10 DUP12 SUB SLT ISZERO PUSH2 0x2428 JUMPI PUSH0 PUSH0 REVERT JUMPDEST PUSH2 0x2431 DUP10 PUSH2 0x2244 JUMP JUMPDEST SWAP11 PUSH1 0x20 DUP11 ADD CALLDATALOAD SWAP11 POP PUSH1 0x40 DUP11 ADD CALLDATALOAD SWAP10 PUSH1 0x60 DUP2 ADD CALLDATALOAD SWAP10 POP PUSH1 0x80 DUP2 ADD CALLDATALOAD SWAP9 POP PUSH1 0xA0 DUP2 ADD CALLDATALOAD SWAP8 POP PUSH1 0xC0 DUP2 ADD CALLDATALOAD SWAP7 POP PUSH1 0xE0 ADD CALLDATALOAD SWAP5 POP SWAP3 POP POP POP JUMP JUMPDEST PUSH0 PUSH0 PUSH1 0x40 DUP4 DUP6 SUB SLT ISZERO PUSH2 0x2478 JUMPI PUSH0 PUSH0 REVERT JUMPDEST PUSH2 0x2481 DUP4 PUSH2 0x2244 JUMP JUMPDEST SWAP2 POP PUSH1 0x20 DUP4 ADD CALLDATALOAD PUSH8 0xFFFFFFFFFFFFFFFF DUP2 GT ISZERO PUSH2 0x249C JUMPI PUSH0 PUSH0 REVERT JUMPDEST DUP4 ADD PUSH1 0x1F DUP2 ADD DUP6 SGT PUSH2 0x24AC JUMPI PUSH0 PUSH0 REVERT JUMPDEST DUP1 CALLDATALOAD PUSH8 0xFFFFFFFFFFFFFFFF DUP2 GT ISZERO PUSH2 0x24C6 JUMPI PUSH2 0x24C6 PUSH2 0x22F3 JUMP JUMPDEST PUSH2 0x24D9 PUSH1 0x1F DUP3 ADD PUSH1 0x1F NOT AND PUSH1 0x20 ADD PUSH2 0x2307 JUMP JUMPDEST DUP2 DUP2 MSTORE DUP7 PUSH1 0x20 DUP4 DUP6 ADD ADD GT ISZERO PUSH2 0x24ED JUMPI PUSH0 PUSH0 REVERT JUMPDEST DUP2 PUSH1 0x20 DUP5 ADD PUSH1 0x20 DUP4 ADD CALLDATACOPY PUSH0 PUSH1 0x20 DUP4 DUP4 ADD ADD MSTORE DUP1 SWAP4 POP POP POP POP SWAP3 POP SWAP3 SWAP1 POP JUMP JUMPDEST PUSH0 DUP2 MLOAD DUP1 DUP5 MSTORE DUP1 PUSH1 0x20 DUP5 ADD PUSH1 0x20 DUP7 ADD MCOPY PUSH0 PUSH1 0x20 DUP3 DUP7 ADD ADD MSTORE PUSH1 0x20 PUSH1 0x1F NOT PUSH1 0x1F DUP4 ADD AND DUP6 ADD ADD SWAP2 POP POP SWAP3 SWAP2 POP POP JUMP JUMPDEST PUSH1 0x20 DUP2 MSTORE PUSH0 PUSH2 0x216C PUSH1 0x20 DUP4 ADD DUP5 PUSH2 0x250C JUMP JUMPDEST PUSH1 0x20 DUP1 DUP3 MSTORE DUP3 MLOAD DUP3 DUP3 ADD DUP2 SWAP1 MSTORE PUSH0 SWAP2 DUP5 ADD SWAP1 PUSH1 0x40 DUP5 ADD SWAP1 DUP4 JUMPDEST DUP2 DUP2 LT ISZERO PUSH2 0x258C JUMPI DUP4 MLOAD PUSH1 0x1 PUSH1 0x1 PUSH1 0xA0 SHL SUB AND DUP4 MSTORE PUSH1 0x20 SWAP4 DUP5 ADD SWAP4 SWAP1 SWAP3 ADD SWAP2 PUSH1 0x1 ADD PUSH2 0x2565 JUMP JUMPDEST POP SWAP1 SWAP6 SWAP5 POP POP POP POP POP JUMP JUMPDEST PUSH0 PUSH1 0x20 DUP3 DUP5 SUB SLT ISZERO PUSH2 0x25A7 JUMPI PUSH0 PUSH0 REVERT JUMPDEST PUSH2 0x216C DUP3 PUSH2 0x2244 JUMP JUMPDEST PUSH4 0x4E487B71 PUSH1 0xE0 SHL PUSH0 MSTORE PUSH1 0x11 PUSH1 0x4 MSTORE PUSH1 0x24 PUSH0 REVERT JUMPDEST DUP2 DUP2 SUB DUP2 DUP2 GT ISZERO PUSH2 0x86A JUMPI PUSH2 0x86A PUSH2 0x25B0 JUMP JUMPDEST PUSH0 PUSH1 0x20 DUP3 DUP5 SUB SLT ISZERO PUSH2 0x25E7 JUMPI PUSH0 PUSH0 REVERT JUMPDEST DUP2 MLOAD DUP1 ISZERO ISZERO DUP2 EQ PUSH2 0x216C JUMPI PUSH0 PUSH0 REVERT JUMPDEST PUSH0 PUSH1 0x1 DUP3 ADD PUSH2 0x2607 JUMPI PUSH2 0x2607 PUSH2 0x25B0 JUMP JUMPDEST POP PUSH1 0x1 ADD SWAP1 JUMP JUMPDEST DUP1 DUP3 MUL DUP2 ISZERO DUP3 DUP3 DIV DUP5 EQ OR PUSH2 0x86A JUMPI PUSH2 0x86A PUSH2 0x25B0 JUMP JUMPDEST PUSH1 0x20 DUP2 MSTORE DUP2 MLOAD PUSH1 0x20 DUP3 ADD MSTORE PUSH1 0x20 DUP3 ADD MLOAD PUSH1 0x40 DUP3 ADD MSTORE PUSH2 0xFFFF PUSH1 0x40 DUP4 ADD MLOAD AND PUSH1 0x60 DUP3 ADD MSTORE PUSH4 0xFFFFFFFF PUSH1 0x60 DUP4 ADD MLOAD AND PUSH1 0x80 DUP3 ADD MSTORE PUSH4 0xFFFFFFFF PUSH1 0x80 DUP4 ADD MLOAD AND PUSH1 0xA0 DUP3 ADD MSTORE PUSH0 PUSH1 0xA0 DUP4 ADD MLOAD PUSH1 0xC0 DUP1 DUP5 ADD MSTORE PUSH2 0x2681 PUSH1 0xE0 DUP5 ADD DUP3 PUSH2 0x250C JUMP JUMPDEST SWAP5 SWAP4 POP POP POP POP JUMP JUMPDEST PUSH0 PUSH1 0x20 DUP3 DUP5 SUB SLT ISZERO PUSH2 0x2699 JUMPI PUSH0 PUSH0 REVERT JUMPDEST POP MLOAD SWAP2 SWAP1 POP JUMP JUMPDEST PUSH4 0x4E487B71 PUSH1 0xE0 SHL PUSH0 MSTORE PUSH1 0x32 PUSH1 0x4 MSTORE PUSH1 0x24 PUSH0 REVERT JUMPDEST PUSH0 DUP3 PUSH2 0x26CE JUMPI PUSH4 0x4E487B71 PUSH1 0xE0 SHL PUSH0 MSTORE PUSH1 0x12 PUSH1 0x4 MSTORE PUSH1 0x24 PUSH0 REVERT JUMPDEST POP MOD SWAP1 JUMP JUMPDEST PUSH0 DUP3 MLOAD DUP1 PUSH1 0x20 DUP6 ADD DUP5 MCOPY PUSH0 SWAP3 ADD SWAP2 DUP3 MSTORE POP SWAP2 SWAP1 POP JUMP INVALID CALLDATASIZE ADDMOD SWAP5 LOG1 EXTCODESIZE LOG1 LOG3 0x21 MOD PUSH8 0xC828492DB98DCA3E KECCAK256 PUSH23 0xCC3735A920A3CA505D382BBCA26469706673582212204E 0x27 DATALOADN 0x4E14 0x27 PC 0xC8 ORIGIN PUSH10 0x9F25061CB89277CAA8A4 PUSH31 0xB55B3067EB7331CBF654CB64736F6C634300081E0033000000000000000000 "
		},
		"gasEstimates": {
			"creation": {
				"codeDepositCost": "2009400",
				"executionCost": "infinite",
				"totalCost": "infinite"
			},
			"external": {
				"UPGRADE_INTERFACE_VERSION()": "infinite",
				"callbackGasLimit()": "2358",
				"cancelLottery(uint256)": "32154",
				"claimPrize(uint256)": "infinite",
				"claimRefund(uint256)": "infinite",
				"clearLotteryData(uint256)": "infinite",
				"createLottery(address,uint256,uint256,uint256,uint256,uint256,uint256,uint256)": "233568",
				"drawWinner(uint256)": "infinite",
				"enterLottery(uint256)": "infinite",
				"getEntryCount(uint256,address)": "2711",
				"getParticipants(uint256)": "infinite",
				"hasUserClaimed(uint256,address)": "2727",
				"hasUserRefunded(uint256,address)": "2733",
				"hasUserVotedCancel(uint256,address)": "2757",
				"initialize(address,bytes32,uint256,address,address)": "infinite",
				"investmentWallet()": "2380",
				"keyHash()": "2384",
				"lotteries(uint256)": "24010",
				"lotteryCounter()": "2383",
				"migrateToLottery(uint256,uint256)": "infinite",
				"numWords()": "2368",
				"owner()": "2441",
				"profitWallet()": "2448",
				"proxiableUUID()": "infinite",
				"rawFulfillRandomWords(uint256,uint256[])": "infinite",
				"renounceOwnership()": "infinite",
				"requestConfirmations()": "2434",
				"requestToLottery(uint256)": "2503",
				"subscriptionId()": "2385",
				"testFulfillRandomWords(uint256,uint256[])": "infinite",
				"transferOwnership(address)": "28497",
				"upgradeToAndCall(address,bytes)": "infinite",
				"voteCancel(uint256)": "infinite",
				"vrfCoordinator()": "2381"
			},
			"internal": {
				"_authorizeUpgrade(address)": "infinite",
				"fulfillRandomWords(uint256,uint256[] memory)": "infinite"
			}
		},
		"methodIdentifiers": {
			"UPGRADE_INTERFACE_VERSION()": "ad3cb1cc",
			"callbackGasLimit()": "24f74697",
			"cancelLottery(uint256)": "4538f297",
			"claimPrize(uint256)": "d7098154",
			"claimRefund(uint256)": "5b7baf64",
			"clearLotteryData(uint256)": "82f9d0fb",
			"createLottery(address,uint256,uint256,uint256,uint256,uint256,uint256,uint256)": "4311da37",
			"drawWinner(uint256)": "60b2a56a",
			"enterLottery(uint256)": "3fd43098",
			"getEntryCount(uint256,address)": "a49a75a5",
			"getParticipants(uint256)": "c1e3bd3e",
			"hasUserClaimed(uint256,address)": "07c7a72d",
			"hasUserRefunded(uint256,address)": "c4cd639f",
			"hasUserVotedCancel(uint256,address)": "3fe6e01e",
			"initialize(address,bytes32,uint256,address,address)": "0af5a263",
			"investmentWallet()": "b6fa37bc",
			"keyHash()": "61728f39",
			"lotteries(uint256)": "1398e076",
			"lotteryCounter()": "4a4a6b4f",
			"migrateToLottery(uint256,uint256)": "3893f9d5",
			"numWords()": "7ccfd7fc",
			"owner()": "8da5cb5b",
			"profitWallet()": "2301d775",
			"proxiableUUID()": "52d1902d",
			"rawFulfillRandomWords(uint256,uint256[])": "1fe543e3",
			"renounceOwnership()": "715018a6",
			"requestConfirmations()": "b0fb162f",
			"requestToLottery(uint256)": "15c6e123",
			"subscriptionId()": "09c1ba2e",
			"testFulfillRandomWords(uint256,uint256[])": "02c4d72b",
			"transferOwnership(address)": "f2fde38b",
			"upgradeToAndCall(address,bytes)": "4f1ef286",
			"voteCancel(uint256)": "826d9873",
			"vrfCoordinator()": "a3e56fa8"
		}
	},
	"abi": [
		{
			"inputs": [
				{
					"internalType": "address",
					"name": "target",
					"type": "address"
				}
			],
			"name": "AddressEmptyCode",
			"type": "error"
		},
		{
			"inputs": [
				{
					"internalType": "address",
					"name": "implementation",
					"type": "address"
				}
			],
			"name": "ERC1967InvalidImplementation",
			"type": "error"
		},
		{
			"inputs": [],
			"name": "ERC1967NonPayable",
			"type": "error"
		},
		{
			"inputs": [],
			"name": "FailedCall",
			"type": "error"
		},
		{
			"inputs": [],
			"name": "InvalidInitialization",
			"type": "error"
		},
		{
			"inputs": [],
			"name": "NotInitializing",
			"type": "error"
		},
		{
			"inputs": [
				{
					"internalType": "address",
					"name": "have",
					"type": "address"
				},
				{
					"internalType": "address",
					"name": "want",
					"type": "address"
				}
			],
			"name": "OnlyCoordinatorCanFulfill",
			"type": "error"
		},
		{
			"inputs": [
				{
					"internalType": "address",
					"name": "owner",
					"type": "address"
				}
			],
			"name": "OwnableInvalidOwner",
			"type": "error"
		},
		{
			"inputs": [
				{
					"internalType": "address",
					"name": "account",
					"type": "address"
				}
			],
			"name": "OwnableUnauthorizedAccount",
			"type": "error"
		},
		{
			"inputs": [],
			"name": "UUPSUnauthorizedCallContext",
			"type": "error"
		},
		{
			"inputs": [
				{
					"internalType": "bytes32",
					"name": "slot",
					"type": "bytes32"
				}
			],
			"name": "UUPSUnsupportedProxiableUUID",
			"type": "error"
		},
		{
			"anonymous": false,
			"inputs": [
				{
					"indexed": false,
					"internalType": "uint256",
					"name": "lotteryId",
					"type": "uint256"
				},
				{
					"indexed": false,
					"internalType": "address",
					"name": "user",
					"type": "address"
				}
			],
			"name": "EnteredLottery",
			"type": "event"
		},
		{
			"anonymous": false,
			"inputs": [
				{
					"indexed": false,
					"internalType": "uint64",
					"name": "version",
					"type": "uint64"
				}
			],
			"name": "Initialized",
			"type": "event"
		},
		{
			"anonymous": false,
			"inputs": [
				{
					"indexed": false,
					"internalType": "uint256",
					"name": "lotteryId",
					"type": "uint256"
				}
			],
			"name": "LotteryCancelled",
			"type": "event"
		},
		{
			"anonymous": false,
			"inputs": [
				{
					"indexed": false,
					"internalType": "uint256",
					"name": "lotteryId",
					"type": "uint256"
				}
			],
			"name": "LotteryCreated",
			"type": "event"
		},
		{
			"anonymous": false,
			"inputs": [
				{
					"indexed": false,
					"internalType": "uint256",
					"name": "lotteryId",
					"type": "uint256"
				},
				{
					"indexed": false,
					"internalType": "uint256",
					"name": "requestId",
					"type": "uint256"
				}
			],
			"name": "LotteryDrawRequested",
			"type": "event"
		},
		{
			"anonymous": false,
			"inputs": [
				{
					"indexed": true,
					"internalType": "address",
					"name": "previousOwner",
					"type": "address"
				},
				{
					"indexed": true,
					"internalType": "address",
					"name": "newOwner",
					"type": "address"
				}
			],
			"name": "OwnershipTransferred",
			"type": "event"
		},
		{
			"anonymous": false,
			"inputs": [
				{
					"indexed": true,
					"internalType": "address",
					"name": "implementation",
					"type": "address"
				}
			],
			"name": "Upgraded",
			"type": "event"
		},
		{
			"anonymous": false,
			"inputs": [
				{
					"indexed": false,
					"internalType": "uint256",
					"name": "lotteryId",
					"type": "uint256"
				},
				{
					"indexed": false,
					"internalType": "address",
					"name": "winner",
					"type": "address"
				}
			],
			"name": "WinnerSelected",
			"type": "event"
		},
		{
			"inputs": [],
			"name": "UPGRADE_INTERFACE_VERSION",
			"outputs": [
				{
					"internalType": "string",
					"name": "",
					"type": "string"
				}
			],
			"stateMutability": "view",
			"type": "function"
		},
		{
			"inputs": [],
			"name": "callbackGasLimit",
			"outputs": [
				{
					"internalType": "uint32",
					"name": "",
					"type": "uint32"
				}
			],
			"stateMutability": "view",
			"type": "function"
		},
		{
			"inputs": [
				{
					"internalType": "uint256",
					"name": "_lotteryId",
					"type": "uint256"
				}
			],
			"name": "cancelLottery",
			"outputs": [],
			"stateMutability": "nonpayable",
			"type": "function"
		},
		{
			"inputs": [
				{
					"internalType": "uint256",
					"name": "_lotteryId",
					"type": "uint256"
				}
			],
			"name": "claimPrize",
			"outputs": [],
			"stateMutability": "nonpayable",
			"type": "function"
		},
		{
			"inputs": [
				{
					"internalType": "uint256",
					"name": "_lotteryId",
					"type": "uint256"
				}
			],
			"name": "claimRefund",
			"outputs": [],
			"stateMutability": "nonpayable",
			"type": "function"
		},
		{
			"inputs": [
				{
					"internalType": "uint256",
					"name": "_lotteryId",
					"type": "uint256"
				}
			],
			"name": "clearLotteryData",
			"outputs": [],
			"stateMutability": "nonpayable",
			"type": "function"
		},
		{
			"inputs": [
				{
					"internalType": "address",
					"name": "_tokenAddress",
					"type": "address"
				},
				{
					"internalType": "uint256",
					"name": "_participationFee",
					"type": "uint256"
				},
				{
					"internalType": "uint256",
					"name": "_refundableAmount",
					"type": "uint256"
				},
				{
					"internalType": "uint256",
					"name": "_maxParticipants",
					"type": "uint256"
				},
				{
					"internalType": "uint256",
					"name": "_drawTime",
					"type": "uint256"
				},
				{
					"internalType": "uint256",
					"name": "_prizeAmount",
					"type": "uint256"
				},
				{
					"internalType": "uint256",
					"name": "_feeToInvestment",
					"type": "uint256"
				},
				{
					"internalType": "uint256",
					"name": "_feeToProfit",
					"type": "uint256"
				}
			],
			"name": "createLottery",
			"outputs": [],
			"stateMutability": "nonpayable",
			"type": "function"
		},
		{
			"inputs": [
				{
					"internalType": "uint256",
					"name": "_lotteryId",
					"type": "uint256"
				}
			],
			"name": "drawWinner",
			"outputs": [],
			"stateMutability": "nonpayable",
			"type": "function"
		},
		{
			"inputs": [
				{
					"internalType": "uint256",
					"name": "_lotteryId",
					"type": "uint256"
				}
			],
			"name": "enterLottery",
			"outputs": [],
			"stateMutability": "nonpayable",
			"type": "function"
		},
		{
			"inputs": [
				{
					"internalType": "uint256",
					"name": "lotteryId",
					"type": "uint256"
				},
				{
					"internalType": "address",
					"name": "user",
					"type": "address"
				}
			],
			"name": "getEntryCount",
			"outputs": [
				{
					"internalType": "uint256",
					"name": "",
					"type": "uint256"
				}
			],
			"stateMutability": "view",
			"type": "function"
		},
		{
			"inputs": [
				{
					"internalType": "uint256",
					"name": "_lotteryId",
					"type": "uint256"
				}
			],
			"name": "getParticipants",
			"outputs": [
				{
					"internalType": "address[]",
					"name": "",
					"type": "address[]"
				}
			],
			"stateMutability": "view",
			"type": "function"
		},
		{
			"inputs": [
				{
					"internalType": "uint256",
					"name": "lotteryId",
					"type": "uint256"
				},
				{
					"internalType": "address",
					"name": "user",
					"type": "address"
				}
			],
			"name": "hasUserClaimed",
			"outputs": [
				{
					"internalType": "bool",
					"name": "",
					"type": "bool"
				}
			],
			"stateMutability": "view",
			"type": "function"
		},
		{
			"inputs": [
				{
					"internalType": "uint256",
					"name": "lotteryId",
					"type": "uint256"
				},
				{
					"internalType": "address",
					"name": "user",
					"type": "address"
				}
			],
			"name": "hasUserRefunded",
			"outputs": [
				{
					"internalType": "bool",
					"name": "",
					"type": "bool"
				}
			],
			"stateMutability": "view",
			"type": "function"
		},
		{
			"inputs": [
				{
					"internalType": "uint256",
					"name": "lotteryId",
					"type": "uint256"
				},
				{
					"internalType": "address",
					"name": "user",
					"type": "address"
				}
			],
			"name": "hasUserVotedCancel",
			"outputs": [
				{
					"internalType": "bool",
					"name": "",
					"type": "bool"
				}
			],
			"stateMutability": "view",
			"type": "function"
		},
		{
			"inputs": [
				{
					"internalType": "address",
					"name": "_vrfCoordinator",
					"type": "address"
				},
				{
					"internalType": "bytes32",
					"name": "_keyHash",
					"type": "bytes32"
				},
				{
					"internalType": "uint256",
					"name": "_subId",
					"type": "uint256"
				},
				{
					"internalType": "address",
					"name": "_investmentWallet",
					"type": "address"
				},
				{
					"internalType": "address",
					"name": "_profitWallet",
					"type": "address"
				}
			],
			"name": "initialize",
			"outputs": [],
			"stateMutability": "nonpayable",
			"type": "function"
		},
		{
			"inputs": [],
			"name": "investmentWallet",
			"outputs": [
				{
					"internalType": "address",
					"name": "",
					"type": "address"
				}
			],
			"stateMutability": "view",
			"type": "function"
		},
		{
			"inputs": [],
			"name": "keyHash",
			"outputs": [
				{
					"internalType": "bytes32",
					"name": "",
					"type": "bytes32"
				}
			],
			"stateMutability": "view",
			"type": "function"
		},
		{
			"inputs": [
				{
					"internalType": "uint256",
					"name": "",
					"type": "uint256"
				}
			],
			"name": "lotteries",
			"outputs": [
				{
					"internalType": "address",
					"name": "tokenAddress",
					"type": "address"
				},
				{
					"internalType": "uint256",
					"name": "participationFee",
					"type": "uint256"
				},
				{
					"internalType": "uint256",
					"name": "refundableAmount",
					"type": "uint256"
				},
				{
					"internalType": "uint256",
					"name": "maxParticipants",
					"type": "uint256"
				},
				{
					"internalType": "uint256",
					"name": "drawTime",
					"type": "uint256"
				},
				{
					"internalType": "uint256",
					"name": "prizeAmount",
					"type": "uint256"
				},
				{
					"internalType": "uint256",
					"name": "feeToInvestment",
					"type": "uint256"
				},
				{
					"internalType": "uint256",
					"name": "feeToProfit",
					"type": "uint256"
				},
				{
					"internalType": "bool",
					"name": "isActive",
					"type": "bool"
				},
				{
					"internalType": "bool",
					"name": "isDrawn",
					"type": "bool"
				},
				{
					"internalType": "bool",
					"name": "isCancelled",
					"type": "bool"
				},
				{
					"internalType": "address",
					"name": "winner",
					"type": "address"
				},
				{
					"internalType": "uint256",
					"name": "voteCount",
					"type": "uint256"
				}
			],
			"stateMutability": "view",
			"type": "function"
		},
		{
			"inputs": [],
			"name": "lotteryCounter",
			"outputs": [
				{
					"internalType": "uint256",
					"name": "",
					"type": "uint256"
				}
			],
			"stateMutability": "view",
			"type": "function"
		},
		{
			"inputs": [
				{
					"internalType": "uint256",
					"name": "fromId",
					"type": "uint256"
				},
				{
					"internalType": "uint256",
					"name": "toId",
					"type": "uint256"
				}
			],
			"name": "migrateToLottery",
			"outputs": [],
			"stateMutability": "nonpayable",
			"type": "function"
		},
		{
			"inputs": [],
			"name": "numWords",
			"outputs": [
				{
					"internalType": "uint32",
					"name": "",
					"type": "uint32"
				}
			],
			"stateMutability": "view",
			"type": "function"
		},
		{
			"inputs": [],
			"name": "owner",
			"outputs": [
				{
					"internalType": "address",
					"name": "",
					"type": "address"
				}
			],
			"stateMutability": "view",
			"type": "function"
		},
		{
			"inputs": [],
			"name": "profitWallet",
			"outputs": [
				{
					"internalType": "address",
					"name": "",
					"type": "address"
				}
			],
			"stateMutability": "view",
			"type": "function"
		},
		{
			"inputs": [],
			"name": "proxiableUUID",
			"outputs": [
				{
					"internalType": "bytes32",
					"name": "",
					"type": "bytes32"
				}
			],
			"stateMutability": "view",
			"type": "function"
		},
		{
			"inputs": [
				{
					"internalType": "uint256",
					"name": "requestId",
					"type": "uint256"
				},
				{
					"internalType": "uint256[]",
					"name": "randomWords",
					"type": "uint256[]"
				}
			],
			"name": "rawFulfillRandomWords",
			"outputs": [],
			"stateMutability": "nonpayable",
			"type": "function"
		},
		{
			"inputs": [],
			"name": "renounceOwnership",
			"outputs": [],
			"stateMutability": "nonpayable",
			"type": "function"
		},
		{
			"inputs": [],
			"name": "requestConfirmations",
			"outputs": [
				{
					"internalType": "uint16",
					"name": "",
					"type": "uint16"
				}
			],
			"stateMutability": "view",
			"type": "function"
		},
		{
			"inputs": [
				{
					"internalType": "uint256",
					"name": "",
					"type": "uint256"
				}
			],
			"name": "requestToLottery",
			"outputs": [
				{
					"internalType": "uint256",
					"name": "",
					"type": "uint256"
				}
			],
			"stateMutability": "view",
			"type": "function"
		},
		{
			"inputs": [],
			"name": "subscriptionId",
			"outputs": [
				{
					"internalType": "uint256",
					"name": "",
					"type": "uint256"
				}
			],
			"stateMutability": "view",
			"type": "function"
		},
		{
			"inputs": [
				{
					"internalType": "uint256",
					"name": "requestId",
					"type": "uint256"
				},
				{
					"internalType": "uint256[]",
					"name": "randomWords",
					"type": "uint256[]"
				}
			],
			"name": "testFulfillRandomWords",
			"outputs": [],
			"stateMutability": "nonpayable",
			"type": "function"
		},
		{
			"inputs": [
				{
					"internalType": "address",
					"name": "newOwner",
					"type": "address"
				}
			],
			"name": "transferOwnership",
			"outputs": [],
			"stateMutability": "nonpayable",
			"type": "function"
		},
		{
			"inputs": [
				{
					"internalType": "address",
					"name": "newImplementation",
					"type": "address"
				},
				{
					"internalType": "bytes",
					"name": "data",
					"type": "bytes"
				}
			],
			"name": "upgradeToAndCall",
			"outputs": [],
			"stateMutability": "payable",
			"type": "function"
		},
		{
			"inputs": [
				{
					"internalType": "uint256",
					"name": "_lotteryId",
					"type": "uint256"
				}
			],
			"name": "voteCancel",
			"outputs": [],
			"stateMutability": "nonpayable",
			"type": "function"
		},
		{
			"inputs": [],
			"name": "vrfCoordinator",
			"outputs": [
				{
					"internalType": "address",
					"name": "",
					"type": "address"
				}
			],
			"stateMutability": "view",
			"type": "function"
		}
	]
}